{"contracts/Bribes.sol":{"Bribe":{"abi":[{"inputs":[{"internalType":"address","name":"_owner","type":"address"},{"internalType":"address","name":"_voter","type":"address"},{"internalType":"address","name":"_bribeFactory","type":"address"},{"internalType":"string","name":"_type","type":"string"}],"stateMutability":"nonpayable","type":"constructor"},{"anonymous":false,"inputs":[{"indexed":false,"internalType":"address","name":"token","type":"address"},{"indexed":false,"internalType":"uint256","name":"amount","type":"uint256"}],"name":"Recovered","type":"event"},{"anonymous":false,"inputs":[{"indexed":false,"internalType":"address","name":"rewardToken","type":"address"},{"indexed":false,"internalType":"uint256","name":"reward","type":"uint256"},{"indexed":false,"internalType":"uint256","name":"startTimestamp","type":"uint256"}],"name":"RewardAdded","type":"event"},{"anonymous":false,"inputs":[{"indexed":true,"internalType":"address","name":"user","type":"address"},{"indexed":true,"internalType":"address","name":"rewardsToken","type":"address"},{"indexed":false,"internalType":"uint256","name":"reward","type":"uint256"}],"name":"RewardPaid","type":"event"},{"anonymous":false,"inputs":[{"indexed":true,"internalType":"uint256","name":"tokenId","type":"uint256"},{"indexed":false,"internalType":"uint256","name":"amount","type":"uint256"}],"name":"Staked","type":"event"},{"anonymous":false,"inputs":[{"indexed":true,"internalType":"uint256","name":"tokenId","type":"uint256"},{"indexed":false,"internalType":"uint256","name":"amount","type":"uint256"}],"name":"Withdrawn","type":"event"},{"inputs":[],"name":"TYPE","outputs":[{"internalType":"string","name":"","type":"string"}],"stateMutability":"view","type":"function"},{"inputs":[],"name":"WEEK","outputs":[{"internalType":"uint256","name":"","type":"uint256"}],"stateMutability":"view","type":"function"},{"inputs":[{"internalType":"uint256","name":"amount","type":"uint256"},{"internalType":"uint256","name":"tokenId","type":"uint256"}],"name":"_deposit","outputs":[],"stateMutability":"nonpayable","type":"function"},{"inputs":[{"internalType":"uint256","name":"","type":"uint256"}],"name":"_totalSupply","outputs":[{"internalType":"uint256","name":"","type":"uint256"}],"stateMutability":"view","type":"function"},{"inputs":[{"internalType":"uint256","name":"amount","type":"uint256"},{"internalType":"uint256","name":"tokenId","type":"uint256"}],"name":"_withdraw","outputs":[],"stateMutability":"nonpayable","type":"function"},{"inputs":[{"internalType":"address","name":"_rewardsToken","type":"address"}],"name":"addReward","outputs":[],"stateMutability":"nonpayable","type":"function"},{"inputs":[{"internalType":"address","name":"_token","type":"address"}],"name":"addRewardToken","outputs":[],"stateMutability":"nonpayable","type":"function"},{"inputs":[{"internalType":"uint256","name":"tokenId","type":"uint256"}],"name":"balanceOf","outputs":[{"internalType":"uint256","name":"","type":"uint256"}],"stateMutability":"view","type":"function"},{"inputs":[{"internalType":"uint256","name":"tokenId","type":"uint256"},{"internalType":"uint256","name":"_timestamp","type":"uint256"}],"name":"balanceOfAt","outputs":[{"internalType":"uint256","name":"","type":"uint256"}],"stateMutability":"view","type":"function"},{"inputs":[],"name":"bribeFactory","outputs":[{"internalType":"address","name":"","type":"address"}],"stateMutability":"view","type":"function"},{"inputs":[{"internalType":"uint256","name":"tokenId","type":"uint256"},{"internalType":"address","name":"_rewardToken","type":"address"}],"name":"earned","outputs":[{"internalType":"uint256","name":"","type":"uint256"}],"stateMutability":"view","type":"function"},{"inputs":[],"name":"firstBribeTimestamp","outputs":[{"internalType":"uint256","name":"","type":"uint256"}],"stateMutability":"view","type":"function"},{"inputs":[],"name":"getEpochStart","outputs":[{"internalType":"uint256","name":"","type":"uint256"}],"stateMutability":"view","type":"function"},{"inputs":[],"name":"getNextEpochStart","outputs":[{"internalType":"uint256","name":"","type":"uint256"}],"stateMutability":"view","type":"function"},{"inputs":[{"internalType":"uint256","name":"tokenId","type":"uint256"},{"internalType":"address[]","name":"tokens","type":"address[]"}],"name":"getReward","outputs":[],"stateMutability":"nonpayable","type":"function"},{"inputs":[{"internalType":"uint256","name":"tokenId","type":"uint256"},{"internalType":"address[]","name":"tokens","type":"address[]"}],"name":"getRewardForOwner","outputs":[],"stateMutability":"nonpayable","type":"function"},{"inputs":[{"internalType":"address","name":"","type":"address"}],"name":"isRewardToken","outputs":[{"internalType":"bool","name":"","type":"bool"}],"stateMutability":"view","type":"function"},{"inputs":[],"name":"minter","outputs":[{"internalType":"address","name":"","type":"address"}],"stateMutability":"view","type":"function"},{"inputs":[{"internalType":"address","name":"_rewardsToken","type":"address"},{"internalType":"uint256","name":"reward","type":"uint256"}],"name":"notifyRewardAmount","outputs":[],"stateMutability":"nonpayable","type":"function"},{"inputs":[],"name":"owner","outputs":[{"internalType":"address","name":"","type":"address"}],"stateMutability":"view","type":"function"},{"inputs":[{"internalType":"address","name":"tokenAddress","type":"address"},{"internalType":"uint256","name":"tokenAmount","type":"uint256"}],"name":"recoverERC20","outputs":[],"stateMutability":"nonpayable","type":"function"},{"inputs":[{"internalType":"address","name":"","type":"address"},{"internalType":"uint256","name":"","type":"uint256"}],"name":"rewardData","outputs":[{"internalType":"uint256","name":"periodFinish","type":"uint256"},{"internalType":"uint256","name":"rewardsPerEpoch","type":"uint256"},{"internalType":"uint256","name":"lastUpdateTime","type":"uint256"}],"stateMutability":"view","type":"function"},{"inputs":[{"internalType":"address","name":"_rewardsToken","type":"address"},{"internalType":"uint256","name":"_timestmap","type":"uint256"}],"name":"rewardPerToken","outputs":[{"internalType":"uint256","name":"","type":"uint256"}],"stateMutability":"view","type":"function"},{"inputs":[{"internalType":"uint256","name":"","type":"uint256"}],"name":"rewardTokens","outputs":[{"internalType":"address","name":"","type":"address"}],"stateMutability":"view","type":"function"},{"inputs":[],"name":"rewardsListLength","outputs":[{"internalType":"uint256","name":"","type":"uint256"}],"stateMutability":"view","type":"function"},{"inputs":[{"internalType":"address","name":"_minter","type":"address"}],"name":"setMinter","outputs":[],"stateMutability":"nonpayable","type":"function"},{"inputs":[{"internalType":"address","name":"_owner","type":"address"}],"name":"setOwner","outputs":[],"stateMutability":"nonpayable","type":"function"},{"inputs":[{"internalType":"string","name":"_type","type":"string"}],"name":"setType","outputs":[],"stateMutability":"nonpayable","type":"function"},{"inputs":[{"internalType":"address","name":"_Voter","type":"address"}],"name":"setVoter","outputs":[],"stateMutability":"nonpayable","type":"function"},{"inputs":[],"name":"totalSupply","outputs":[{"internalType":"uint256","name":"","type":"uint256"}],"stateMutability":"view","type":"function"},{"inputs":[{"internalType":"uint256","name":"_timestamp","type":"uint256"}],"name":"totalSupplyAt","outputs":[{"internalType":"uint256","name":"","type":"uint256"}],"stateMutability":"view","type":"function"},{"inputs":[{"internalType":"uint256","name":"","type":"uint256"},{"internalType":"address","name":"","type":"address"}],"name":"userRewardPerTokenPaid","outputs":[{"internalType":"uint256","name":"","type":"uint256"}],"stateMutability":"view","type":"function"},{"inputs":[{"internalType":"uint256","name":"","type":"uint256"},{"internalType":"address","name":"","type":"address"}],"name":"userTimestamp","outputs":[{"internalType":"uint256","name":"","type":"uint256"}],"stateMutability":"view","type":"function"},{"inputs":[],"name":"ve","outputs":[{"internalType":"address","name":"","type":"address"}],"stateMutability":"view","type":"function"},{"inputs":[],"name":"voter","outputs":[{"internalType":"address","name":"","type":"address"}],"stateMutability":"view","type":"function"}],"evm":{"bytecode":{"linkReferences":{},"object":"60806040523480156200001157600080fd5b50604051620022fe380380620022fe8339810160408190526200003491620002d6565b60016000556001600160a01b038216158015906200005a57506001600160a01b03831615155b80156200006f57506001600160a01b03841615155b6200007957600080fd5b600580546001600160a01b038086166001600160a01b031992831681179093556006805491861691909216179055600060015560408051638dd598fb60e01b81529051638dd598fb916004818101926020929091908290030181865afa158015620000e8573d6000803e3d6000fd5b505050506040513d601f19601f820116820180604052508101906200010e9190620003eb565b600860006101000a8154816001600160a01b0302191690836001600160a01b03160217905550826001600160a01b031663075461726040518163ffffffff1660e01b8152600401602060405180830381865afa15801562000173573d6000803e3d6000fd5b505050506040513d601f19601f82011682018060405250810190620001999190620003eb565b600780546001600160a01b0319166001600160a01b03929092169182179055620001c257600080fd5b600980546001600160a01b0319166001600160a01b0386161790558051620001f290600a906020840190620001fd565b50505050506200044c565b8280546200020b9062000410565b90600052602060002090601f0160209004810192826200022f57600085556200027a565b82601f106200024a57805160ff19168380011785556200027a565b828001600101855582156200027a579182015b828111156200027a5782518255916020019190600101906200025d565b50620002889291506200028c565b5090565b5b808211156200028857600081556001016200028d565b80516001600160a01b0381168114620002bb57600080fd5b919050565b634e487b7160e01b600052604160045260246000fd5b60008060008060808587031215620002ed57600080fd5b620002f885620002a3565b9350602062000309818701620002a3565b93506200031960408701620002a3565b60608701519093506001600160401b03808211156200033757600080fd5b818801915088601f8301126200034c57600080fd5b815181811115620003615762000361620002c0565b604051601f8201601f19908116603f011681019083821181831017156200038c576200038c620002c0565b816040528281528b86848701011115620003a557600080fd5b600093505b82841015620003c95784840186015181850187015292850192620003aa565b82841115620003db5760008684830101525b989b979a50959850505050505050565b600060208284031215620003fe57600080fd5b6200040982620002a3565b9392505050565b600181811c908216806200042557607f821691505b6020821081036200044657634e487b7160e01b600052602260045260246000fd5b50919050565b611ea2806200045c6000396000f3fe608060405234801561001057600080fd5b50600436106102105760003560e01c80638f2b554c11610125578063b66503cf116100ad578063eb4a78e01161007c578063eb4a78e014610508578063f32077231461051b578063f4359ce51461052e578063f5f8d36514610538578063fca3b5aa1461054b57600080fd5b8063b66503cf146104c5578063bb24fe8a146104d8578063e39c08fc146104ed578063e68863961461050057600080fd5b80639cc7f708116100f45780639cc7f708146104515780639e2bf22c14610464578063a4a3e03514610477578063a7852afa1461047f578063b5fd73f81461049257600080fd5b80638f2b554c146103e057806396282ba31461040b578063981b24d01461041e5780639c9b2e211461043e57600080fd5b80634bc2a657116101a857806365c5f94a1161017757806365c5f94a146103745780637bb7bed11461037c578063853c8aeb1461038f5780638980f11f146103ba5780638da5cb5b146103cd57600080fd5b80634bc2a6571461032557806355288eea1461033857806357bc5614146103415780635977e82a1461035457600080fd5b80631c03e6cc116101e45780631c03e6cc1461029b5780631f850716146102ae57806338174862146102c157806346c96aac1461031257600080fd5b8062a47ddd14610215578063075461721461025357806313af40351461027e57806318160ddd14610293575b600080fd5b610240610223366004611a5c565b600b60209081526000928352604080842090915290825290205481565b6040519081526020015b60405180910390f35b600754610266906001600160a01b031681565b6040516001600160a01b03909116815260200161024a565b61029161028c366004611a8c565b61055e565b005b6102406105aa565b6102916102a9366004611a8c565b610639565b600854610266906001600160a01b031681565b6102f76102cf366004611aa9565b6002602081815260009384526040808520909152918352912080546001820154919092015483565b6040805193845260208401929092529082015260600161024a565b600554610266906001600160a01b031681565b610291610333366004611a8c565b6106c9565b61024060015481565b61024061034f366004611aa9565b610715565b610240610362366004611ad5565b600d6020526000908152604090205481565b6102406107ae565b61026661038a366004611ad5565b6107cb565b61024061039d366004611aee565b6000918252600e6020908152604080842092845291905290205490565b6102916103c8366004611aa9565b6107f5565b600954610266906001600160a01b031681565b6102406103ee366004611a5c565b600c60209081526000928352604080842090915290825290205481565b610291610419366004611b57565b6108e0565b61024061042c366004611ad5565b6000908152600d602052604090205490565b61029161044c366004611a8c565b61090e565b61024061045f366004611ad5565b6109eb565b610291610472366004611aee565b610a17565b610240610bca565b61029161048d366004611bec565b610c38565b6104b56104a0366004611a8c565b60036020526000908152604090205460ff1681565b604051901515815260200161024a565b6102916104d3366004611aa9565b610e1d565b6104e061101b565b60405161024a9190611cd6565b6102406104fb366004611a5c565b6110a9565b600454610240565b600654610266906001600160a01b031681565b610291610529366004611aee565b6111c8565b61024062093a8081565b610291610546366004611bec565b611357565b610291610559366004611a8c565b611593565b6009546001600160a01b0316331461057557600080fd5b6001600160a01b03811661058857600080fd5b600980546001600160a01b0319166001600160a01b0392909216919091179055565b600080600760009054906101000a90046001600160a01b03166001600160a01b031663d13996086040518163ffffffff1660e01b8152600401602060405180830381865afa158015610600573d6000803e3d6000fd5b505050506040513d601f19601f820116820180604052508101906106249190611d09565b6000908152600d602052604090205492915050565b6009546001600160a01b0316331461065057600080fd5b6001600160a01b03811661066357600080fd5b6001600160a01b03166000818152600360205260408120805460ff191660019081179091556004805491820181559091527f8a35acfbc15ff81a39ae7d344fd709f28e8600b4aa8c65c6b64bfe7fe36bd19b0180546001600160a01b0319169091179055565b6009546001600160a01b031633146106e057600080fd5b6001600160a01b0381166106f357600080fd5b600580546001600160a01b0319166001600160a01b0392909216919091179055565b6000818152600d6020526040812054810361075757506001600160a01b03821660009081526002602090815260408083208484529091529020600101546107a8565b6000828152600d60209081526040808320546001600160a01b0387168452600283528184208685529092529091206001015461079b90670de0b6b3a7640000611d38565b6107a59190611d57565b90505b92915050565b600062093a806107bc610bca565b6107c69190611d79565b905090565b600481815481106107db57600080fd5b6000918252602090912001546001600160a01b0316905081565b6009546001600160a01b0316331461080c57600080fd5b6040516370a0823160e01b81523060048201526001600160a01b038316906370a0823190602401602060405180830381865afa158015610850573d6000803e3d6000fd5b505050506040513d601f19601f820116820180604052508101906108749190611d09565b81111561088057600080fd5b60095461089a906001600160a01b038481169116836115df565b604080516001600160a01b0384168152602081018390527f8c1256b8896378cd5044f80c202f9772b9d77dc85c8a6eb51967210b09bfaa28910160405180910390a15050565b6009546001600160a01b031633146108f757600080fd5b805161090a90600a9060208401906119ab565b5050565b6009546001600160a01b031633148061093157506006546001600160a01b031633145b6109825760405162461bcd60e51b815260206004820181905260248201527f6164645265776172643a207065726d697373696f6e2069732064656e6965642160448201526064015b60405180910390fd5b6001600160a01b03811660009081526003602052604090205460ff16156106635760405162461bcd60e51b815260206004820152601b60248201527f52657761726420746f6b656e20616c72656164792065786973747300000000006044820152606401610979565b6000806109f66107ae565b6000938452600e602090815260408086209286529190529092205492915050565b610a1f611647565b60008211610a635760405162461bcd60e51b8152602060048201526011602482015270043616e6e6f74207769746864726177203607c1b6044820152606401610979565b6005546001600160a01b03163314610a7a57600080fd5b600062093a80600760009054906101000a90046001600160a01b03166001600160a01b031663d13996086040518163ffffffff1660e01b8152600401602060405180830381865afa158015610ad3573d6000803e3d6000fd5b505050506040513d601f19601f82011682018060405250810190610af79190611d09565b610b019190611d79565b6000838152600e602090815260408083208484529091529020549091508311610bbf576000818152600d6020908152604080832054858452600e835281842085855290925290912054610b548583611d91565b6000848152600d6020526040902055610b6d8582611d91565b6000858152600e60209081526040808320878452825291829020929092555186815285917f0c875c8d391179c5cf7ad8303d268efd50b8beb78b671f85cd54bfb91eb8ef40910160405180910390a250505b5061090a6001600055565b60075460408051631a2732c160e31b815290516000926001600160a01b03169163d13996089160048083019260209291908290030181865afa158015610c14573d6000803e3d6000fd5b505050506040513d601f19601f820116820180604052508101906107c69190611d09565b610c40611647565b6005546001600160a01b03163314610c5757600080fd5b60075460408051631a2732c160e31b815290516000926001600160a01b03169163d13996089160048083019260209291908290030181865afa158015610ca1573d6000803e3d6000fd5b505050506040513d601f19601f82011682018060405250810190610cc59190611d09565b6008546040516331a9108f60e11b81526004810186905291925060009182916001600160a01b031690636352211e90602401602060405180830381865afa158015610d14573d6000803e3d6000fd5b505050506040513d601f19601f82011682018060405250810190610d389190611da8565b905060005b8451811015610e0f576000858281518110610d5a57610d5a611dc5565b60200260200101519050610d6e87826110a9565b93508315610dd857610d8a6001600160a01b03821684866115df565b806001600160a01b0316836001600160a01b03167f540798df468d7b23d11f156fdb954cb19ad414d150722a7b6d55ba369dea792e86604051610dcf91815260200190565b60405180910390a35b6000878152600c602090815260408083206001600160a01b0390941683529290522084905580610e0781611ddb565b915050610d3d565b5050505061090a6001600055565b610e25611647565b6001600160a01b03821660009081526003602052604090205460ff16610e8d5760405162461bcd60e51b815260206004820152601960248201527f72657761726420746f6b656e206e6f74207665726966696564000000000000006044820152606401610979565b610ea26001600160a01b0383163330846116a0565b600062093a80600760009054906101000a90046001600160a01b03166001600160a01b031663d13996086040518163ffffffff1660e01b8152600401602060405180830381865afa158015610efb573d6000803e3d6000fd5b505050506040513d601f19601f82011682018060405250810190610f1f9190611d09565b610f299190611d79565b9050600154600003610f3b5760018190555b6001600160a01b0383166000908152600260209081526040808320848452909152902060010154610f6c8382611d79565b6001600160a01b0385166000908152600260208181526040808420878552909152909120600181019290925542910155610fa962093a8083611d79565b6001600160a01b03851660008181526002602090815260408083208784528252918290209390935580519182529181018590529081018390527f6a6f77044107a33658235d41bedbbaf2fe9ccdceb313143c947a5e76e1ec84749060600160405180910390a1505061090a6001600055565b600a805461102890611df4565b80601f016020809104026020016040519081016040528092919081815260200182805461105490611df4565b80156110a15780601f10611076576101008083540402835291602001916110a1565b820191906000526020600020905b81548152906001019060200180831161108457829003601f168201915b505050505081565b60075460408051631a2732c160e31b815290516000928392839283926001600160a01b03169163d13996089160048083019260209291908290030181865afa1580156110f9573d6000803e3d6000fd5b505050506040513d601f19601f8201168201806040525081019061111d9190611d09565b6000878152600c602090815260408083206001600160a01b038a1684529091529020549091508082036111575760009450505050506107a8565b6001548110156111755762093a806001546111729190611d91565b90505b60328410156111bd578082146111bd576111908787836116de565b61119a9084611d79565b92506111a962093a8082611d79565b9050836111b581611ddb565b945050611175565b509095945050505050565b6111d0611647565b600082116112115760405162461bcd60e51b815260206004820152600e60248201526d043616e6e6f74207374616b6520360941b6044820152606401610979565b6005546001600160a01b0316331461122857600080fd5b600062093a80600760009054906101000a90046001600160a01b03166001600160a01b031663d13996086040518163ffffffff1660e01b8152600401602060405180830381865afa158015611281573d6000803e3d6000fd5b505050506040513d601f19601f820116820180604052508101906112a59190611d09565b6112af9190611d79565b6000818152600d60205260409020549091506112cb8482611d79565b6000838152600d6020908152604080832093909355858252600e8152828220858352905220546112fc908590611d79565b6000848152600e60209081526040808320868452825291829020929092555185815284917f925435fa7e37e5d9555bb18ce0d62bb9627d0846942e58e5291e9a2dded462ed910160405180910390a2505061090a6001600055565b61135f611647565b60085460405163430c208160e01b8152336004820152602481018490526001600160a01b039091169063430c208190604401602060405180830381865afa1580156113ae573d6000803e3d6000fd5b505050506040513d601f19601f820116820180604052508101906113d29190611e2e565b6113db57600080fd5b60075460408051631a2732c160e31b815290516000926001600160a01b03169163d13996089160048083019260209291908290030181865afa158015611425573d6000803e3d6000fd5b505050506040513d601f19601f820116820180604052508101906114499190611d09565b6008546040516331a9108f60e11b81526004810186905291925060009182916001600160a01b031690636352211e90602401602060405180830381865afa158015611498573d6000803e3d6000fd5b505050506040513d601f19601f820116820180604052508101906114bc9190611da8565b905060005b8451811015610e0f5760008582815181106114de576114de611dc5565b602002602001015190506114f287826110a9565b9350831561155c5761150e6001600160a01b03821684866115df565b806001600160a01b0316836001600160a01b03167f540798df468d7b23d11f156fdb954cb19ad414d150722a7b6d55ba369dea792e8660405161155391815260200190565b60405180910390a35b6000878152600c602090815260408083206001600160a01b039094168352929052208490558061158b81611ddb565b9150506114c1565b6009546001600160a01b031633146115aa57600080fd5b6001600160a01b0381166115bd57600080fd5b600780546001600160a01b0319166001600160a01b0392909216919091179055565b6040516001600160a01b03831660248201526044810182905261164290849063a9059cbb60e01b906064015b60408051601f198184030181529190526020810180516001600160e01b03166001600160e01b031990931692909217909152611749565b505050565b6002600054036116995760405162461bcd60e51b815260206004820152601f60248201527f5265656e7472616e637947756172643a207265656e7472616e742063616c6c006044820152606401610979565b6002600055565b6040516001600160a01b03808516602483015283166044820152606481018290526116d89085906323b872dd60e01b9060840161160b565b50505050565b6000838152600e602090815260408083208484529091528120548060000361170a576000915050611742565b60006117168585610715565b90506000670de0b6b3a764000061172d8484611d38565b6117379190611d57565b935061174292505050565b9392505050565b600061179e826040518060400160405280602081526020017f5361666545524332303a206c6f772d6c6576656c2063616c6c206661696c6564815250856001600160a01b031661181b9092919063ffffffff16565b80519091501561164257808060200190518101906117bc9190611e2e565b6116425760405162461bcd60e51b815260206004820152602a60248201527f5361666545524332303a204552433230206f7065726174696f6e20646964206e6044820152691bdd081cdd58d8d9595960b21b6064820152608401610979565b606061182a8484600085611832565b949350505050565b6060824710156118935760405162461bcd60e51b815260206004820152602660248201527f416464726573733a20696e73756666696369656e742062616c616e636520666f6044820152651c8818d85b1b60d21b6064820152608401610979565b600080866001600160a01b031685876040516118af9190611e50565b60006040518083038185875af1925050503d80600081146118ec576040519150601f19603f3d011682016040523d82523d6000602084013e6118f1565b606091505b50915091506119028783838761190d565b979650505050505050565b6060831561197c578251600003611975576001600160a01b0385163b6119755760405162461bcd60e51b815260206004820152601d60248201527f416464726573733a2063616c6c20746f206e6f6e2d636f6e74726163740000006044820152606401610979565b508161182a565b61182a83838151156119915781518083602001fd5b8060405162461bcd60e51b81526004016109799190611cd6565b8280546119b790611df4565b90600052602060002090601f0160209004810192826119d95760008555611a1f565b82601f106119f257805160ff1916838001178555611a1f565b82800160010185558215611a1f579182015b82811115611a1f578251825591602001919060010190611a04565b50611a2b929150611a2f565b5090565b5b80821115611a2b5760008155600101611a30565b6001600160a01b0381168114611a5957600080fd5b50565b60008060408385031215611a6f57600080fd5b823591506020830135611a8181611a44565b809150509250929050565b600060208284031215611a9e57600080fd5b813561174281611a44565b60008060408385031215611abc57600080fd5b8235611ac781611a44565b946020939093013593505050565b600060208284031215611ae757600080fd5b5035919050565b60008060408385031215611b0157600080fd5b50508035926020909101359150565b634e487b7160e01b600052604160045260246000fd5b604051601f8201601f1916810167ffffffffffffffff81118282101715611b4f57611b4f611b10565b604052919050565b60006020808385031215611b6a57600080fd5b823567ffffffffffffffff80821115611b8257600080fd5b818501915085601f830112611b9657600080fd5b813581811115611ba857611ba8611b10565b611bba601f8201601f19168501611b26565b91508082528684828501011115611bd057600080fd5b8084840185840137600090820190930192909252509392505050565b60008060408385031215611bff57600080fd5b8235915060208084013567ffffffffffffffff80821115611c1f57600080fd5b818601915086601f830112611c3357600080fd5b813581811115611c4557611c45611b10565b8060051b9150611c56848301611b26565b8181529183018401918481019089841115611c7057600080fd5b938501935b83851015611c9a5784359250611c8a83611a44565b8282529385019390850190611c75565b8096505050505050509250929050565b60005b83811015611cc5578181015183820152602001611cad565b838111156116d85750506000910152565b6020815260008251806020840152611cf5816040850160208701611caa565b601f01601f19169190910160400192915050565b600060208284031215611d1b57600080fd5b5051919050565b634e487b7160e01b600052601160045260246000fd5b6000816000190483118215151615611d5257611d52611d22565b500290565b600082611d7457634e487b7160e01b600052601260045260246000fd5b500490565b60008219821115611d8c57611d8c611d22565b500190565b600082821015611da357611da3611d22565b500390565b600060208284031215611dba57600080fd5b815161174281611a44565b634e487b7160e01b600052603260045260246000fd5b600060018201611ded57611ded611d22565b5060010190565b600181811c90821680611e0857607f821691505b602082108103611e2857634e487b7160e01b600052602260045260246000fd5b50919050565b600060208284031215611e4057600080fd5b8151801515811461174257600080fd5b60008251611e62818460208701611caa565b919091019291505056fea264697066735822122070767a35aa46314b22bed148ffc558ac6e7ad36c830d63e358ee73c44686be1c64736f6c634300080d0033","opcodes":"PUSH1 0x80 PUSH1 0x40 MSTORE CALLVALUE DUP1 ISZERO PUSH3 0x11 JUMPI PUSH1 0x0 DUP1 REVERT JUMPDEST POP PUSH1 0x40 MLOAD PUSH3 0x22FE CODESIZE SUB DUP1 PUSH3 0x22FE DUP4 CODECOPY DUP2 ADD PUSH1 0x40 DUP2 SWAP1 MSTORE PUSH3 0x34 SWAP2 PUSH3 0x2D6 JUMP JUMPDEST PUSH1 0x1 PUSH1 0x0 SSTORE PUSH1 0x1 PUSH1 0x1 PUSH1 0xA0 SHL SUB DUP3 AND ISZERO DUP1 ISZERO SWAP1 PUSH3 0x5A JUMPI POP PUSH1 0x1 PUSH1 0x1 PUSH1 0xA0 SHL SUB DUP4 AND ISZERO ISZERO JUMPDEST DUP1 ISZERO PUSH3 0x6F JUMPI POP PUSH1 0x1 PUSH1 0x1 PUSH1 0xA0 SHL SUB DUP5 AND ISZERO ISZERO JUMPDEST PUSH3 0x79 JUMPI PUSH1 0x0 DUP1 REVERT JUMPDEST PUSH1 0x5 DUP1 SLOAD PUSH1 0x1 PUSH1 0x1 PUSH1 0xA0 SHL SUB DUP1 DUP7 AND PUSH1 0x1 PUSH1 0x1 PUSH1 0xA0 SHL SUB NOT SWAP3 DUP4 AND DUP2 OR SWAP1 SWAP4 SSTORE PUSH1 0x6 DUP1 SLOAD SWAP2 DUP7 AND SWAP2 SWAP1 SWAP3 AND OR SWAP1 SSTORE PUSH1 0x0 PUSH1 0x1 SSTORE PUSH1 0x40 DUP1 MLOAD PUSH4 0x8DD598FB PUSH1 0xE0 SHL DUP2 MSTORE SWAP1 MLOAD PUSH4 0x8DD598FB SWAP2 PUSH1 0x4 DUP2 DUP2 ADD SWAP3 PUSH1 0x20 SWAP3 SWAP1 SWAP2 SWAP1 DUP3 SWAP1 SUB ADD DUP2 DUP7 GAS STATICCALL ISZERO DUP1 ISZERO PUSH3 0xE8 JUMPI RETURNDATASIZE PUSH1 0x0 DUP1 RETURNDATACOPY RETURNDATASIZE PUSH1 0x0 REVERT JUMPDEST POP POP POP POP PUSH1 0x40 MLOAD RETURNDATASIZE PUSH1 0x1F NOT PUSH1 0x1F DUP3 ADD AND DUP3 ADD DUP1 PUSH1 0x40 MSTORE POP DUP2 ADD SWAP1 PUSH3 0x10E SWAP2 SWAP1 PUSH3 0x3EB JUMP JUMPDEST PUSH1 0x8 PUSH1 0x0 PUSH2 0x100 EXP DUP2 SLOAD DUP2 PUSH1 0x1 PUSH1 0x1 PUSH1 0xA0 SHL SUB MUL NOT AND SWAP1 DUP4 PUSH1 0x1 PUSH1 0x1 PUSH1 0xA0 SHL SUB AND MUL OR SWAP1 SSTORE POP DUP3 PUSH1 0x1 PUSH1 0x1 PUSH1 0xA0 SHL SUB AND PUSH4 0x7546172 PUSH1 0x40 MLOAD DUP2 PUSH4 0xFFFFFFFF AND PUSH1 0xE0 SHL DUP2 MSTORE PUSH1 0x4 ADD PUSH1 0x20 PUSH1 0x40 MLOAD DUP1 DUP4 SUB DUP2 DUP7 GAS STATICCALL ISZERO DUP1 ISZERO PUSH3 0x173 JUMPI RETURNDATASIZE PUSH1 0x0 DUP1 RETURNDATACOPY RETURNDATASIZE PUSH1 0x0 REVERT JUMPDEST POP POP POP POP PUSH1 0x40 MLOAD RETURNDATASIZE PUSH1 0x1F NOT PUSH1 0x1F DUP3 ADD AND DUP3 ADD DUP1 PUSH1 0x40 MSTORE POP DUP2 ADD SWAP1 PUSH3 0x199 SWAP2 SWAP1 PUSH3 0x3EB JUMP JUMPDEST PUSH1 0x7 DUP1 SLOAD PUSH1 0x1 PUSH1 0x1 PUSH1 0xA0 SHL SUB NOT AND PUSH1 0x1 PUSH1 0x1 PUSH1 0xA0 SHL SUB SWAP3 SWAP1 SWAP3 AND SWAP2 DUP3 OR SWAP1 SSTORE PUSH3 0x1C2 JUMPI PUSH1 0x0 DUP1 REVERT JUMPDEST PUSH1 0x9 DUP1 SLOAD PUSH1 0x1 PUSH1 0x1 PUSH1 0xA0 SHL SUB NOT AND PUSH1 0x1 PUSH1 0x1 PUSH1 0xA0 SHL SUB DUP7 AND OR SWAP1 SSTORE DUP1 MLOAD PUSH3 0x1F2 SWAP1 PUSH1 0xA SWAP1 PUSH1 0x20 DUP5 ADD SWAP1 PUSH3 0x1FD JUMP JUMPDEST POP POP POP POP POP PUSH3 0x44C JUMP JUMPDEST DUP3 DUP1 SLOAD PUSH3 0x20B SWAP1 PUSH3 0x410 JUMP JUMPDEST SWAP1 PUSH1 0x0 MSTORE PUSH1 0x20 PUSH1 0x0 KECCAK256 SWAP1 PUSH1 0x1F ADD PUSH1 0x20 SWAP1 DIV DUP2 ADD SWAP3 DUP3 PUSH3 0x22F JUMPI PUSH1 0x0 DUP6 SSTORE PUSH3 0x27A JUMP JUMPDEST DUP3 PUSH1 0x1F LT PUSH3 0x24A JUMPI DUP1 MLOAD PUSH1 0xFF NOT AND DUP4 DUP1 ADD OR DUP6 SSTORE PUSH3 0x27A JUMP JUMPDEST DUP3 DUP1 ADD PUSH1 0x1 ADD DUP6 SSTORE DUP3 ISZERO PUSH3 0x27A JUMPI SWAP2 DUP3 ADD JUMPDEST DUP3 DUP2 GT ISZERO PUSH3 0x27A JUMPI DUP3 MLOAD DUP3 SSTORE SWAP2 PUSH1 0x20 ADD SWAP2 SWAP1 PUSH1 0x1 ADD SWAP1 PUSH3 0x25D JUMP JUMPDEST POP PUSH3 0x288 SWAP3 SWAP2 POP PUSH3 0x28C JUMP JUMPDEST POP SWAP1 JUMP JUMPDEST JUMPDEST DUP1 DUP3 GT ISZERO PUSH3 0x288 JUMPI PUSH1 0x0 DUP2 SSTORE PUSH1 0x1 ADD PUSH3 0x28D JUMP JUMPDEST DUP1 MLOAD PUSH1 0x1 PUSH1 0x1 PUSH1 0xA0 SHL SUB DUP2 AND DUP2 EQ PUSH3 0x2BB JUMPI PUSH1 0x0 DUP1 REVERT JUMPDEST SWAP2 SWAP1 POP JUMP JUMPDEST PUSH4 0x4E487B71 PUSH1 0xE0 SHL PUSH1 0x0 MSTORE PUSH1 0x41 PUSH1 0x4 MSTORE PUSH1 0x24 PUSH1 0x0 REVERT JUMPDEST PUSH1 0x0 DUP1 PUSH1 0x0 DUP1 PUSH1 0x80 DUP6 DUP8 SUB SLT ISZERO PUSH3 0x2ED JUMPI PUSH1 0x0 DUP1 REVERT JUMPDEST PUSH3 0x2F8 DUP6 PUSH3 0x2A3 JUMP JUMPDEST SWAP4 POP PUSH1 0x20 PUSH3 0x309 DUP2 DUP8 ADD PUSH3 0x2A3 JUMP JUMPDEST SWAP4 POP PUSH3 0x319 PUSH1 0x40 DUP8 ADD PUSH3 0x2A3 JUMP JUMPDEST PUSH1 0x60 DUP8 ADD MLOAD SWAP1 SWAP4 POP PUSH1 0x1 PUSH1 0x1 PUSH1 0x40 SHL SUB DUP1 DUP3 GT ISZERO PUSH3 0x337 JUMPI PUSH1 0x0 DUP1 REVERT JUMPDEST DUP2 DUP9 ADD SWAP2 POP DUP9 PUSH1 0x1F DUP4 ADD SLT PUSH3 0x34C JUMPI PUSH1 0x0 DUP1 REVERT JUMPDEST DUP2 MLOAD DUP2 DUP2 GT ISZERO PUSH3 0x361 JUMPI PUSH3 0x361 PUSH3 0x2C0 JUMP JUMPDEST PUSH1 0x40 MLOAD PUSH1 0x1F DUP3 ADD PUSH1 0x1F NOT SWAP1 DUP2 AND PUSH1 0x3F ADD AND DUP2 ADD SWAP1 DUP4 DUP3 GT DUP2 DUP4 LT OR ISZERO PUSH3 0x38C JUMPI PUSH3 0x38C PUSH3 0x2C0 JUMP JUMPDEST DUP2 PUSH1 0x40 MSTORE DUP3 DUP2 MSTORE DUP12 DUP7 DUP5 DUP8 ADD ADD GT ISZERO PUSH3 0x3A5 JUMPI PUSH1 0x0 DUP1 REVERT JUMPDEST PUSH1 0x0 SWAP4 POP JUMPDEST DUP3 DUP5 LT ISZERO PUSH3 0x3C9 JUMPI DUP5 DUP5 ADD DUP7 ADD MLOAD DUP2 DUP6 ADD DUP8 ADD MSTORE SWAP3 DUP6 ADD SWAP3 PUSH3 0x3AA JUMP JUMPDEST DUP3 DUP5 GT ISZERO PUSH3 0x3DB JUMPI PUSH1 0x0 DUP7 DUP5 DUP4 ADD ADD MSTORE JUMPDEST SWAP9 SWAP12 SWAP8 SWAP11 POP SWAP6 SWAP9 POP POP POP POP POP POP POP JUMP JUMPDEST PUSH1 0x0 PUSH1 0x20 DUP3 DUP5 SUB SLT ISZERO PUSH3 0x3FE JUMPI PUSH1 0x0 DUP1 REVERT JUMPDEST PUSH3 0x409 DUP3 PUSH3 0x2A3 JUMP JUMPDEST SWAP4 SWAP3 POP POP POP JUMP JUMPDEST PUSH1 0x1 DUP2 DUP2 SHR SWAP1 DUP3 AND DUP1 PUSH3 0x425 JUMPI PUSH1 0x7F DUP3 AND SWAP2 POP JUMPDEST PUSH1 0x20 DUP3 LT DUP2 SUB PUSH3 0x446 JUMPI PUSH4 0x4E487B71 PUSH1 0xE0 SHL PUSH1 0x0 MSTORE PUSH1 0x22 PUSH1 0x4 MSTORE PUSH1 0x24 PUSH1 0x0 REVERT JUMPDEST POP SWAP2 SWAP1 POP JUMP JUMPDEST PUSH2 0x1EA2 DUP1 PUSH3 0x45C PUSH1 0x0 CODECOPY PUSH1 0x0 RETURN INVALID PUSH1 0x80 PUSH1 0x40 MSTORE CALLVALUE DUP1 ISZERO PUSH2 0x10 JUMPI PUSH1 0x0 DUP1 REVERT JUMPDEST POP PUSH1 0x4 CALLDATASIZE LT PUSH2 0x210 JUMPI PUSH1 0x0 CALLDATALOAD PUSH1 0xE0 SHR DUP1 PUSH4 0x8F2B554C GT PUSH2 0x125 JUMPI DUP1 PUSH4 0xB66503CF GT PUSH2 0xAD JUMPI DUP1 PUSH4 0xEB4A78E0 GT PUSH2 0x7C JUMPI DUP1 PUSH4 0xEB4A78E0 EQ PUSH2 0x508 JUMPI DUP1 PUSH4 0xF3207723 EQ PUSH2 0x51B JUMPI DUP1 PUSH4 0xF4359CE5 EQ PUSH2 0x52E JUMPI DUP1 PUSH4 0xF5F8D365 EQ PUSH2 0x538 JUMPI DUP1 PUSH4 0xFCA3B5AA EQ PUSH2 0x54B JUMPI PUSH1 0x0 DUP1 REVERT JUMPDEST DUP1 PUSH4 0xB66503CF EQ PUSH2 0x4C5 JUMPI DUP1 PUSH4 0xBB24FE8A EQ PUSH2 0x4D8 JUMPI DUP1 PUSH4 0xE39C08FC EQ PUSH2 0x4ED JUMPI DUP1 PUSH4 0xE6886396 EQ PUSH2 0x500 JUMPI PUSH1 0x0 DUP1 REVERT JUMPDEST DUP1 PUSH4 0x9CC7F708 GT PUSH2 0xF4 JUMPI DUP1 PUSH4 0x9CC7F708 EQ PUSH2 0x451 JUMPI DUP1 PUSH4 0x9E2BF22C EQ PUSH2 0x464 JUMPI DUP1 PUSH4 0xA4A3E035 EQ PUSH2 0x477 JUMPI DUP1 PUSH4 0xA7852AFA EQ PUSH2 0x47F JUMPI DUP1 PUSH4 0xB5FD73F8 EQ PUSH2 0x492 JUMPI PUSH1 0x0 DUP1 REVERT JUMPDEST DUP1 PUSH4 0x8F2B554C EQ PUSH2 0x3E0 JUMPI DUP1 PUSH4 0x96282BA3 EQ PUSH2 0x40B JUMPI DUP1 PUSH4 0x981B24D0 EQ PUSH2 0x41E JUMPI DUP1 PUSH4 0x9C9B2E21 EQ PUSH2 0x43E JUMPI PUSH1 0x0 DUP1 REVERT JUMPDEST DUP1 PUSH4 0x4BC2A657 GT PUSH2 0x1A8 JUMPI DUP1 PUSH4 0x65C5F94A GT PUSH2 0x177 JUMPI DUP1 PUSH4 0x65C5F94A EQ PUSH2 0x374 JUMPI DUP1 PUSH4 0x7BB7BED1 EQ PUSH2 0x37C JUMPI DUP1 PUSH4 0x853C8AEB EQ PUSH2 0x38F JUMPI DUP1 PUSH4 0x8980F11F EQ PUSH2 0x3BA JUMPI DUP1 PUSH4 0x8DA5CB5B EQ PUSH2 0x3CD JUMPI PUSH1 0x0 DUP1 REVERT JUMPDEST DUP1 PUSH4 0x4BC2A657 EQ PUSH2 0x325 JUMPI DUP1 PUSH4 0x55288EEA EQ PUSH2 0x338 JUMPI DUP1 PUSH4 0x57BC5614 EQ PUSH2 0x341 JUMPI DUP1 PUSH4 0x5977E82A EQ PUSH2 0x354 JUMPI PUSH1 0x0 DUP1 REVERT JUMPDEST DUP1 PUSH4 0x1C03E6CC GT PUSH2 0x1E4 JUMPI DUP1 PUSH4 0x1C03E6CC EQ PUSH2 0x29B JUMPI DUP1 PUSH4 0x1F850716 EQ PUSH2 0x2AE JUMPI DUP1 PUSH4 0x38174862 EQ PUSH2 0x2C1 JUMPI DUP1 PUSH4 0x46C96AAC EQ PUSH2 0x312 JUMPI PUSH1 0x0 DUP1 REVERT JUMPDEST DUP1 PUSH3 0xA47DDD EQ PUSH2 0x215 JUMPI DUP1 PUSH4 0x7546172 EQ PUSH2 0x253 JUMPI DUP1 PUSH4 0x13AF4035 EQ PUSH2 0x27E JUMPI DUP1 PUSH4 0x18160DDD EQ PUSH2 0x293 JUMPI JUMPDEST PUSH1 0x0 DUP1 REVERT JUMPDEST PUSH2 0x240 PUSH2 0x223 CALLDATASIZE PUSH1 0x4 PUSH2 0x1A5C JUMP JUMPDEST PUSH1 0xB PUSH1 0x20 SWAP1 DUP2 MSTORE PUSH1 0x0 SWAP3 DUP4 MSTORE PUSH1 0x40 DUP1 DUP5 KECCAK256 SWAP1 SWAP2 MSTORE SWAP1 DUP3 MSTORE SWAP1 KECCAK256 SLOAD DUP2 JUMP JUMPDEST PUSH1 0x40 MLOAD SWAP1 DUP2 MSTORE PUSH1 0x20 ADD JUMPDEST PUSH1 0x40 MLOAD DUP1 SWAP2 SUB SWAP1 RETURN JUMPDEST PUSH1 0x7 SLOAD PUSH2 0x266 SWAP1 PUSH1 0x1 PUSH1 0x1 PUSH1 0xA0 SHL SUB AND DUP2 JUMP JUMPDEST PUSH1 0x40 MLOAD PUSH1 0x1 PUSH1 0x1 PUSH1 0xA0 SHL SUB SWAP1 SWAP2 AND DUP2 MSTORE PUSH1 0x20 ADD PUSH2 0x24A JUMP JUMPDEST PUSH2 0x291 PUSH2 0x28C CALLDATASIZE PUSH1 0x4 PUSH2 0x1A8C JUMP JUMPDEST PUSH2 0x55E JUMP JUMPDEST STOP JUMPDEST PUSH2 0x240 PUSH2 0x5AA JUMP JUMPDEST PUSH2 0x291 PUSH2 0x2A9 CALLDATASIZE PUSH1 0x4 PUSH2 0x1A8C JUMP JUMPDEST PUSH2 0x639 JUMP JUMPDEST PUSH1 0x8 SLOAD PUSH2 0x266 SWAP1 PUSH1 0x1 PUSH1 0x1 PUSH1 0xA0 SHL SUB AND DUP2 JUMP JUMPDEST PUSH2 0x2F7 PUSH2 0x2CF CALLDATASIZE PUSH1 0x4 PUSH2 0x1AA9 JUMP JUMPDEST PUSH1 0x2 PUSH1 0x20 DUP2 DUP2 MSTORE PUSH1 0x0 SWAP4 DUP5 MSTORE PUSH1 0x40 DUP1 DUP6 KECCAK256 SWAP1 SWAP2 MSTORE SWAP2 DUP4 MSTORE SWAP2 KECCAK256 DUP1 SLOAD PUSH1 0x1 DUP3 ADD SLOAD SWAP2 SWAP1 SWAP3 ADD SLOAD DUP4 JUMP JUMPDEST PUSH1 0x40 DUP1 MLOAD SWAP4 DUP5 MSTORE PUSH1 0x20 DUP5 ADD SWAP3 SWAP1 SWAP3 MSTORE SWAP1 DUP3 ADD MSTORE PUSH1 0x60 ADD PUSH2 0x24A JUMP JUMPDEST PUSH1 0x5 SLOAD PUSH2 0x266 SWAP1 PUSH1 0x1 PUSH1 0x1 PUSH1 0xA0 SHL SUB AND DUP2 JUMP JUMPDEST PUSH2 0x291 PUSH2 0x333 CALLDATASIZE PUSH1 0x4 PUSH2 0x1A8C JUMP JUMPDEST PUSH2 0x6C9 JUMP JUMPDEST PUSH2 0x240 PUSH1 0x1 SLOAD DUP2 JUMP JUMPDEST PUSH2 0x240 PUSH2 0x34F CALLDATASIZE PUSH1 0x4 PUSH2 0x1AA9 JUMP JUMPDEST PUSH2 0x715 JUMP JUMPDEST PUSH2 0x240 PUSH2 0x362 CALLDATASIZE PUSH1 0x4 PUSH2 0x1AD5 JUMP JUMPDEST PUSH1 0xD PUSH1 0x20 MSTORE PUSH1 0x0 SWAP1 DUP2 MSTORE PUSH1 0x40 SWAP1 KECCAK256 SLOAD DUP2 JUMP JUMPDEST PUSH2 0x240 PUSH2 0x7AE JUMP JUMPDEST PUSH2 0x266 PUSH2 0x38A CALLDATASIZE PUSH1 0x4 PUSH2 0x1AD5 JUMP JUMPDEST PUSH2 0x7CB JUMP JUMPDEST PUSH2 0x240 PUSH2 0x39D CALLDATASIZE PUSH1 0x4 PUSH2 0x1AEE JUMP JUMPDEST PUSH1 0x0 SWAP2 DUP3 MSTORE PUSH1 0xE PUSH1 0x20 SWAP1 DUP2 MSTORE PUSH1 0x40 DUP1 DUP5 KECCAK256 SWAP3 DUP5 MSTORE SWAP2 SWAP1 MSTORE SWAP1 KECCAK256 SLOAD SWAP1 JUMP JUMPDEST PUSH2 0x291 PUSH2 0x3C8 CALLDATASIZE PUSH1 0x4 PUSH2 0x1AA9 JUMP JUMPDEST PUSH2 0x7F5 JUMP JUMPDEST PUSH1 0x9 SLOAD PUSH2 0x266 SWAP1 PUSH1 0x1 PUSH1 0x1 PUSH1 0xA0 SHL SUB AND DUP2 JUMP JUMPDEST PUSH2 0x240 PUSH2 0x3EE CALLDATASIZE PUSH1 0x4 PUSH2 0x1A5C JUMP JUMPDEST PUSH1 0xC PUSH1 0x20 SWAP1 DUP2 MSTORE PUSH1 0x0 SWAP3 DUP4 MSTORE PUSH1 0x40 DUP1 DUP5 KECCAK256 SWAP1 SWAP2 MSTORE SWAP1 DUP3 MSTORE SWAP1 KECCAK256 SLOAD DUP2 JUMP JUMPDEST PUSH2 0x291 PUSH2 0x419 CALLDATASIZE PUSH1 0x4 PUSH2 0x1B57 JUMP JUMPDEST PUSH2 0x8E0 JUMP JUMPDEST PUSH2 0x240 PUSH2 0x42C CALLDATASIZE PUSH1 0x4 PUSH2 0x1AD5 JUMP JUMPDEST PUSH1 0x0 SWAP1 DUP2 MSTORE PUSH1 0xD PUSH1 0x20 MSTORE PUSH1 0x40 SWAP1 KECCAK256 SLOAD SWAP1 JUMP JUMPDEST PUSH2 0x291 PUSH2 0x44C CALLDATASIZE PUSH1 0x4 PUSH2 0x1A8C JUMP JUMPDEST PUSH2 0x90E JUMP JUMPDEST PUSH2 0x240 PUSH2 0x45F CALLDATASIZE PUSH1 0x4 PUSH2 0x1AD5 JUMP JUMPDEST PUSH2 0x9EB JUMP JUMPDEST PUSH2 0x291 PUSH2 0x472 CALLDATASIZE PUSH1 0x4 PUSH2 0x1AEE JUMP JUMPDEST PUSH2 0xA17 JUMP JUMPDEST PUSH2 0x240 PUSH2 0xBCA JUMP JUMPDEST PUSH2 0x291 PUSH2 0x48D CALLDATASIZE PUSH1 0x4 PUSH2 0x1BEC JUMP JUMPDEST PUSH2 0xC38 JUMP JUMPDEST PUSH2 0x4B5 PUSH2 0x4A0 CALLDATASIZE PUSH1 0x4 PUSH2 0x1A8C JUMP JUMPDEST PUSH1 0x3 PUSH1 0x20 MSTORE PUSH1 0x0 SWAP1 DUP2 MSTORE PUSH1 0x40 SWAP1 KECCAK256 SLOAD PUSH1 0xFF AND DUP2 JUMP JUMPDEST PUSH1 0x40 MLOAD SWAP1 ISZERO ISZERO DUP2 MSTORE PUSH1 0x20 ADD PUSH2 0x24A JUMP JUMPDEST PUSH2 0x291 PUSH2 0x4D3 CALLDATASIZE PUSH1 0x4 PUSH2 0x1AA9 JUMP JUMPDEST PUSH2 0xE1D JUMP JUMPDEST PUSH2 0x4E0 PUSH2 0x101B JUMP JUMPDEST PUSH1 0x40 MLOAD PUSH2 0x24A SWAP2 SWAP1 PUSH2 0x1CD6 JUMP JUMPDEST PUSH2 0x240 PUSH2 0x4FB CALLDATASIZE PUSH1 0x4 PUSH2 0x1A5C JUMP JUMPDEST PUSH2 0x10A9 JUMP JUMPDEST PUSH1 0x4 SLOAD PUSH2 0x240 JUMP JUMPDEST PUSH1 0x6 SLOAD PUSH2 0x266 SWAP1 PUSH1 0x1 PUSH1 0x1 PUSH1 0xA0 SHL SUB AND DUP2 JUMP JUMPDEST PUSH2 0x291 PUSH2 0x529 CALLDATASIZE PUSH1 0x4 PUSH2 0x1AEE JUMP JUMPDEST PUSH2 0x11C8 JUMP JUMPDEST PUSH2 0x240 PUSH3 0x93A80 DUP2 JUMP JUMPDEST PUSH2 0x291 PUSH2 0x546 CALLDATASIZE PUSH1 0x4 PUSH2 0x1BEC JUMP JUMPDEST PUSH2 0x1357 JUMP JUMPDEST PUSH2 0x291 PUSH2 0x559 CALLDATASIZE PUSH1 0x4 PUSH2 0x1A8C JUMP JUMPDEST PUSH2 0x1593 JUMP JUMPDEST PUSH1 0x9 SLOAD PUSH1 0x1 PUSH1 0x1 PUSH1 0xA0 SHL SUB AND CALLER EQ PUSH2 0x575 JUMPI PUSH1 0x0 DUP1 REVERT JUMPDEST PUSH1 0x1 PUSH1 0x1 PUSH1 0xA0 SHL SUB DUP2 AND PUSH2 0x588 JUMPI PUSH1 0x0 DUP1 REVERT JUMPDEST PUSH1 0x9 DUP1 SLOAD PUSH1 0x1 PUSH1 0x1 PUSH1 0xA0 SHL SUB NOT AND PUSH1 0x1 PUSH1 0x1 PUSH1 0xA0 SHL SUB SWAP3 SWAP1 SWAP3 AND SWAP2 SWAP1 SWAP2 OR SWAP1 SSTORE JUMP JUMPDEST PUSH1 0x0 DUP1 PUSH1 0x7 PUSH1 0x0 SWAP1 SLOAD SWAP1 PUSH2 0x100 EXP SWAP1 DIV PUSH1 0x1 PUSH1 0x1 PUSH1 0xA0 SHL SUB AND PUSH1 0x1 PUSH1 0x1 PUSH1 0xA0 SHL SUB AND PUSH4 0xD1399608 PUSH1 0x40 MLOAD DUP2 PUSH4 0xFFFFFFFF AND PUSH1 0xE0 SHL DUP2 MSTORE PUSH1 0x4 ADD PUSH1 0x20 PUSH1 0x40 MLOAD DUP1 DUP4 SUB DUP2 DUP7 GAS STATICCALL ISZERO DUP1 ISZERO PUSH2 0x600 JUMPI RETURNDATASIZE PUSH1 0x0 DUP1 RETURNDATACOPY RETURNDATASIZE PUSH1 0x0 REVERT JUMPDEST POP POP POP POP PUSH1 0x40 MLOAD RETURNDATASIZE PUSH1 0x1F NOT PUSH1 0x1F DUP3 ADD AND DUP3 ADD DUP1 PUSH1 0x40 MSTORE POP DUP2 ADD SWAP1 PUSH2 0x624 SWAP2 SWAP1 PUSH2 0x1D09 JUMP JUMPDEST PUSH1 0x0 SWAP1 DUP2 MSTORE PUSH1 0xD PUSH1 0x20 MSTORE PUSH1 0x40 SWAP1 KECCAK256 SLOAD SWAP3 SWAP2 POP POP JUMP JUMPDEST PUSH1 0x9 SLOAD PUSH1 0x1 PUSH1 0x1 PUSH1 0xA0 SHL SUB AND CALLER EQ PUSH2 0x650 JUMPI PUSH1 0x0 DUP1 REVERT JUMPDEST PUSH1 0x1 PUSH1 0x1 PUSH1 0xA0 SHL SUB DUP2 AND PUSH2 0x663 JUMPI PUSH1 0x0 DUP1 REVERT JUMPDEST PUSH1 0x1 PUSH1 0x1 PUSH1 0xA0 SHL SUB AND PUSH1 0x0 DUP2 DUP2 MSTORE PUSH1 0x3 PUSH1 0x20 MSTORE PUSH1 0x40 DUP2 KECCAK256 DUP1 SLOAD PUSH1 0xFF NOT AND PUSH1 0x1 SWAP1 DUP2 OR SWAP1 SWAP2 SSTORE PUSH1 0x4 DUP1 SLOAD SWAP2 DUP3 ADD DUP2 SSTORE SWAP1 SWAP2 MSTORE PUSH32 0x8A35ACFBC15FF81A39AE7D344FD709F28E8600B4AA8C65C6B64BFE7FE36BD19B ADD DUP1 SLOAD PUSH1 0x1 PUSH1 0x1 PUSH1 0xA0 SHL SUB NOT AND SWAP1 SWAP2 OR SWAP1 SSTORE JUMP JUMPDEST PUSH1 0x9 SLOAD PUSH1 0x1 PUSH1 0x1 PUSH1 0xA0 SHL SUB AND CALLER EQ PUSH2 0x6E0 JUMPI PUSH1 0x0 DUP1 REVERT JUMPDEST PUSH1 0x1 PUSH1 0x1 PUSH1 0xA0 SHL SUB DUP2 AND PUSH2 0x6F3 JUMPI PUSH1 0x0 DUP1 REVERT JUMPDEST PUSH1 0x5 DUP1 SLOAD PUSH1 0x1 PUSH1 0x1 PUSH1 0xA0 SHL SUB NOT AND PUSH1 0x1 PUSH1 0x1 PUSH1 0xA0 SHL SUB SWAP3 SWAP1 SWAP3 AND SWAP2 SWAP1 SWAP2 OR SWAP1 SSTORE JUMP JUMPDEST PUSH1 0x0 DUP2 DUP2 MSTORE PUSH1 0xD PUSH1 0x20 MSTORE PUSH1 0x40 DUP2 KECCAK256 SLOAD DUP2 SUB PUSH2 0x757 JUMPI POP PUSH1 0x1 PUSH1 0x1 PUSH1 0xA0 SHL SUB DUP3 AND PUSH1 0x0 SWAP1 DUP2 MSTORE PUSH1 0x2 PUSH1 0x20 SWAP1 DUP2 MSTORE PUSH1 0x40 DUP1 DUP4 KECCAK256 DUP5 DUP5 MSTORE SWAP1 SWAP2 MSTORE SWAP1 KECCAK256 PUSH1 0x1 ADD SLOAD PUSH2 0x7A8 JUMP JUMPDEST PUSH1 0x0 DUP3 DUP2 MSTORE PUSH1 0xD PUSH1 0x20 SWAP1 DUP2 MSTORE PUSH1 0x40 DUP1 DUP4 KECCAK256 SLOAD PUSH1 0x1 PUSH1 0x1 PUSH1 0xA0 SHL SUB DUP8 AND DUP5 MSTORE PUSH1 0x2 DUP4 MSTORE DUP2 DUP5 KECCAK256 DUP7 DUP6 MSTORE SWAP1 SWAP3 MSTORE SWAP1 SWAP2 KECCAK256 PUSH1 0x1 ADD SLOAD PUSH2 0x79B SWAP1 PUSH8 0xDE0B6B3A7640000 PUSH2 0x1D38 JUMP JUMPDEST PUSH2 0x7A5 SWAP2 SWAP1 PUSH2 0x1D57 JUMP JUMPDEST SWAP1 POP JUMPDEST SWAP3 SWAP2 POP POP JUMP JUMPDEST PUSH1 0x0 PUSH3 0x93A80 PUSH2 0x7BC PUSH2 0xBCA JUMP JUMPDEST PUSH2 0x7C6 SWAP2 SWAP1 PUSH2 0x1D79 JUMP JUMPDEST SWAP1 POP SWAP1 JUMP JUMPDEST PUSH1 0x4 DUP2 DUP2 SLOAD DUP2 LT PUSH2 0x7DB JUMPI PUSH1 0x0 DUP1 REVERT JUMPDEST PUSH1 0x0 SWAP2 DUP3 MSTORE PUSH1 0x20 SWAP1 SWAP2 KECCAK256 ADD SLOAD PUSH1 0x1 PUSH1 0x1 PUSH1 0xA0 SHL SUB AND SWAP1 POP DUP2 JUMP JUMPDEST PUSH1 0x9 SLOAD PUSH1 0x1 PUSH1 0x1 PUSH1 0xA0 SHL SUB AND CALLER EQ PUSH2 0x80C JUMPI PUSH1 0x0 DUP1 REVERT JUMPDEST PUSH1 0x40 MLOAD PUSH4 0x70A08231 PUSH1 0xE0 SHL DUP2 MSTORE ADDRESS PUSH1 0x4 DUP3 ADD MSTORE PUSH1 0x1 PUSH1 0x1 PUSH1 0xA0 SHL SUB DUP4 AND SWAP1 PUSH4 0x70A08231 SWAP1 PUSH1 0x24 ADD PUSH1 0x20 PUSH1 0x40 MLOAD DUP1 DUP4 SUB DUP2 DUP7 GAS STATICCALL ISZERO DUP1 ISZERO PUSH2 0x850 JUMPI RETURNDATASIZE PUSH1 0x0 DUP1 RETURNDATACOPY RETURNDATASIZE PUSH1 0x0 REVERT JUMPDEST POP POP POP POP PUSH1 0x40 MLOAD RETURNDATASIZE PUSH1 0x1F NOT PUSH1 0x1F DUP3 ADD AND DUP3 ADD DUP1 PUSH1 0x40 MSTORE POP DUP2 ADD SWAP1 PUSH2 0x874 SWAP2 SWAP1 PUSH2 0x1D09 JUMP JUMPDEST DUP2 GT ISZERO PUSH2 0x880 JUMPI PUSH1 0x0 DUP1 REVERT JUMPDEST PUSH1 0x9 SLOAD PUSH2 0x89A SWAP1 PUSH1 0x1 PUSH1 0x1 PUSH1 0xA0 SHL SUB DUP5 DUP2 AND SWAP2 AND DUP4 PUSH2 0x15DF JUMP JUMPDEST PUSH1 0x40 DUP1 MLOAD PUSH1 0x1 PUSH1 0x1 PUSH1 0xA0 SHL SUB DUP5 AND DUP2 MSTORE PUSH1 0x20 DUP2 ADD DUP4 SWAP1 MSTORE PUSH32 0x8C1256B8896378CD5044F80C202F9772B9D77DC85C8A6EB51967210B09BFAA28 SWAP2 ADD PUSH1 0x40 MLOAD DUP1 SWAP2 SUB SWAP1 LOG1 POP POP JUMP JUMPDEST PUSH1 0x9 SLOAD PUSH1 0x1 PUSH1 0x1 PUSH1 0xA0 SHL SUB AND CALLER EQ PUSH2 0x8F7 JUMPI PUSH1 0x0 DUP1 REVERT JUMPDEST DUP1 MLOAD PUSH2 0x90A SWAP1 PUSH1 0xA SWAP1 PUSH1 0x20 DUP5 ADD SWAP1 PUSH2 0x19AB JUMP JUMPDEST POP POP JUMP JUMPDEST PUSH1 0x9 SLOAD PUSH1 0x1 PUSH1 0x1 PUSH1 0xA0 SHL SUB AND CALLER EQ DUP1 PUSH2 0x931 JUMPI POP PUSH1 0x6 SLOAD PUSH1 0x1 PUSH1 0x1 PUSH1 0xA0 SHL SUB AND CALLER EQ JUMPDEST PUSH2 0x982 JUMPI PUSH1 0x40 MLOAD PUSH3 0x461BCD PUSH1 0xE5 SHL DUP2 MSTORE PUSH1 0x20 PUSH1 0x4 DUP3 ADD DUP2 SWAP1 MSTORE PUSH1 0x24 DUP3 ADD MSTORE PUSH32 0x6164645265776172643A207065726D697373696F6E2069732064656E69656421 PUSH1 0x44 DUP3 ADD MSTORE PUSH1 0x64 ADD JUMPDEST PUSH1 0x40 MLOAD DUP1 SWAP2 SUB SWAP1 REVERT JUMPDEST PUSH1 0x1 PUSH1 0x1 PUSH1 0xA0 SHL SUB DUP2 AND PUSH1 0x0 SWAP1 DUP2 MSTORE PUSH1 0x3 PUSH1 0x20 MSTORE PUSH1 0x40 SWAP1 KECCAK256 SLOAD PUSH1 0xFF AND ISZERO PUSH2 0x663 JUMPI PUSH1 0x40 MLOAD PUSH3 0x461BCD PUSH1 0xE5 SHL DUP2 MSTORE PUSH1 0x20 PUSH1 0x4 DUP3 ADD MSTORE PUSH1 0x1B PUSH1 0x24 DUP3 ADD MSTORE PUSH32 0x52657761726420746F6B656E20616C7265616479206578697374730000000000 PUSH1 0x44 DUP3 ADD MSTORE PUSH1 0x64 ADD PUSH2 0x979 JUMP JUMPDEST PUSH1 0x0 DUP1 PUSH2 0x9F6 PUSH2 0x7AE JUMP JUMPDEST PUSH1 0x0 SWAP4 DUP5 MSTORE PUSH1 0xE PUSH1 0x20 SWAP1 DUP2 MSTORE PUSH1 0x40 DUP1 DUP7 KECCAK256 SWAP3 DUP7 MSTORE SWAP2 SWAP1 MSTORE SWAP1 SWAP3 KECCAK256 SLOAD SWAP3 SWAP2 POP POP JUMP JUMPDEST PUSH2 0xA1F PUSH2 0x1647 JUMP JUMPDEST PUSH1 0x0 DUP3 GT PUSH2 0xA63 JUMPI PUSH1 0x40 MLOAD PUSH3 0x461BCD PUSH1 0xE5 SHL DUP2 MSTORE PUSH1 0x20 PUSH1 0x4 DUP3 ADD MSTORE PUSH1 0x11 PUSH1 0x24 DUP3 ADD MSTORE PUSH17 0x43616E6E6F74207769746864726177203 PUSH1 0x7C SHL PUSH1 0x44 DUP3 ADD MSTORE PUSH1 0x64 ADD PUSH2 0x979 JUMP JUMPDEST PUSH1 0x5 SLOAD PUSH1 0x1 PUSH1 0x1 PUSH1 0xA0 SHL SUB AND CALLER EQ PUSH2 0xA7A JUMPI PUSH1 0x0 DUP1 REVERT JUMPDEST PUSH1 0x0 PUSH3 0x93A80 PUSH1 0x7 PUSH1 0x0 SWAP1 SLOAD SWAP1 PUSH2 0x100 EXP SWAP1 DIV PUSH1 0x1 PUSH1 0x1 PUSH1 0xA0 SHL SUB AND PUSH1 0x1 PUSH1 0x1 PUSH1 0xA0 SHL SUB AND PUSH4 0xD1399608 PUSH1 0x40 MLOAD DUP2 PUSH4 0xFFFFFFFF AND PUSH1 0xE0 SHL DUP2 MSTORE PUSH1 0x4 ADD PUSH1 0x20 PUSH1 0x40 MLOAD DUP1 DUP4 SUB DUP2 DUP7 GAS STATICCALL ISZERO DUP1 ISZERO PUSH2 0xAD3 JUMPI RETURNDATASIZE PUSH1 0x0 DUP1 RETURNDATACOPY RETURNDATASIZE PUSH1 0x0 REVERT JUMPDEST POP POP POP POP PUSH1 0x40 MLOAD RETURNDATASIZE PUSH1 0x1F NOT PUSH1 0x1F DUP3 ADD AND DUP3 ADD DUP1 PUSH1 0x40 MSTORE POP DUP2 ADD SWAP1 PUSH2 0xAF7 SWAP2 SWAP1 PUSH2 0x1D09 JUMP JUMPDEST PUSH2 0xB01 SWAP2 SWAP1 PUSH2 0x1D79 JUMP JUMPDEST PUSH1 0x0 DUP4 DUP2 MSTORE PUSH1 0xE PUSH1 0x20 SWAP1 DUP2 MSTORE PUSH1 0x40 DUP1 DUP4 KECCAK256 DUP5 DUP5 MSTORE SWAP1 SWAP2 MSTORE SWAP1 KECCAK256 SLOAD SWAP1 SWAP2 POP DUP4 GT PUSH2 0xBBF JUMPI PUSH1 0x0 DUP2 DUP2 MSTORE PUSH1 0xD PUSH1 0x20 SWAP1 DUP2 MSTORE PUSH1 0x40 DUP1 DUP4 KECCAK256 SLOAD DUP6 DUP5 MSTORE PUSH1 0xE DUP4 MSTORE DUP2 DUP5 KECCAK256 DUP6 DUP6 MSTORE SWAP1 SWAP3 MSTORE SWAP1 SWAP2 KECCAK256 SLOAD PUSH2 0xB54 DUP6 DUP4 PUSH2 0x1D91 JUMP JUMPDEST PUSH1 0x0 DUP5 DUP2 MSTORE PUSH1 0xD PUSH1 0x20 MSTORE PUSH1 0x40 SWAP1 KECCAK256 SSTORE PUSH2 0xB6D DUP6 DUP3 PUSH2 0x1D91 JUMP JUMPDEST PUSH1 0x0 DUP6 DUP2 MSTORE PUSH1 0xE PUSH1 0x20 SWAP1 DUP2 MSTORE PUSH1 0x40 DUP1 DUP4 KECCAK256 DUP8 DUP5 MSTORE DUP3 MSTORE SWAP2 DUP3 SWAP1 KECCAK256 SWAP3 SWAP1 SWAP3 SSTORE MLOAD DUP7 DUP2 MSTORE DUP6 SWAP2 PUSH32 0xC875C8D391179C5CF7AD8303D268EFD50B8BEB78B671F85CD54BFB91EB8EF40 SWAP2 ADD PUSH1 0x40 MLOAD DUP1 SWAP2 SUB SWAP1 LOG2 POP POP JUMPDEST POP PUSH2 0x90A PUSH1 0x1 PUSH1 0x0 SSTORE JUMP JUMPDEST PUSH1 0x7 SLOAD PUSH1 0x40 DUP1 MLOAD PUSH4 0x1A2732C1 PUSH1 0xE3 SHL DUP2 MSTORE SWAP1 MLOAD PUSH1 0x0 SWAP3 PUSH1 0x1 PUSH1 0x1 PUSH1 0xA0 SHL SUB AND SWAP2 PUSH4 0xD1399608 SWAP2 PUSH1 0x4 DUP1 DUP4 ADD SWAP3 PUSH1 0x20 SWAP3 SWAP2 SWAP1 DUP3 SWAP1 SUB ADD DUP2 DUP7 GAS STATICCALL ISZERO DUP1 ISZERO PUSH2 0xC14 JUMPI RETURNDATASIZE PUSH1 0x0 DUP1 RETURNDATACOPY RETURNDATASIZE PUSH1 0x0 REVERT JUMPDEST POP POP POP POP PUSH1 0x40 MLOAD RETURNDATASIZE PUSH1 0x1F NOT PUSH1 0x1F DUP3 ADD AND DUP3 ADD DUP1 PUSH1 0x40 MSTORE POP DUP2 ADD SWAP1 PUSH2 0x7C6 SWAP2 SWAP1 PUSH2 0x1D09 JUMP JUMPDEST PUSH2 0xC40 PUSH2 0x1647 JUMP JUMPDEST PUSH1 0x5 SLOAD PUSH1 0x1 PUSH1 0x1 PUSH1 0xA0 SHL SUB AND CALLER EQ PUSH2 0xC57 JUMPI PUSH1 0x0 DUP1 REVERT JUMPDEST PUSH1 0x7 SLOAD PUSH1 0x40 DUP1 MLOAD PUSH4 0x1A2732C1 PUSH1 0xE3 SHL DUP2 MSTORE SWAP1 MLOAD PUSH1 0x0 SWAP3 PUSH1 0x1 PUSH1 0x1 PUSH1 0xA0 SHL SUB AND SWAP2 PUSH4 0xD1399608 SWAP2 PUSH1 0x4 DUP1 DUP4 ADD SWAP3 PUSH1 0x20 SWAP3 SWAP2 SWAP1 DUP3 SWAP1 SUB ADD DUP2 DUP7 GAS STATICCALL ISZERO DUP1 ISZERO PUSH2 0xCA1 JUMPI RETURNDATASIZE PUSH1 0x0 DUP1 RETURNDATACOPY RETURNDATASIZE PUSH1 0x0 REVERT JUMPDEST POP POP POP POP PUSH1 0x40 MLOAD RETURNDATASIZE PUSH1 0x1F NOT PUSH1 0x1F DUP3 ADD AND DUP3 ADD DUP1 PUSH1 0x40 MSTORE POP DUP2 ADD SWAP1 PUSH2 0xCC5 SWAP2 SWAP1 PUSH2 0x1D09 JUMP JUMPDEST PUSH1 0x8 SLOAD PUSH1 0x40 MLOAD PUSH4 0x31A9108F PUSH1 0xE1 SHL DUP2 MSTORE PUSH1 0x4 DUP2 ADD DUP7 SWAP1 MSTORE SWAP2 SWAP3 POP PUSH1 0x0 SWAP2 DUP3 SWAP2 PUSH1 0x1 PUSH1 0x1 PUSH1 0xA0 SHL SUB AND SWAP1 PUSH4 0x6352211E SWAP1 PUSH1 0x24 ADD PUSH1 0x20 PUSH1 0x40 MLOAD DUP1 DUP4 SUB DUP2 DUP7 GAS STATICCALL ISZERO DUP1 ISZERO PUSH2 0xD14 JUMPI RETURNDATASIZE PUSH1 0x0 DUP1 RETURNDATACOPY RETURNDATASIZE PUSH1 0x0 REVERT JUMPDEST POP POP POP POP PUSH1 0x40 MLOAD RETURNDATASIZE PUSH1 0x1F NOT PUSH1 0x1F DUP3 ADD AND DUP3 ADD DUP1 PUSH1 0x40 MSTORE POP DUP2 ADD SWAP1 PUSH2 0xD38 SWAP2 SWAP1 PUSH2 0x1DA8 JUMP JUMPDEST SWAP1 POP PUSH1 0x0 JUMPDEST DUP5 MLOAD DUP2 LT ISZERO PUSH2 0xE0F JUMPI PUSH1 0x0 DUP6 DUP3 DUP2 MLOAD DUP2 LT PUSH2 0xD5A JUMPI PUSH2 0xD5A PUSH2 0x1DC5 JUMP JUMPDEST PUSH1 0x20 MUL PUSH1 0x20 ADD ADD MLOAD SWAP1 POP PUSH2 0xD6E DUP8 DUP3 PUSH2 0x10A9 JUMP JUMPDEST SWAP4 POP DUP4 ISZERO PUSH2 0xDD8 JUMPI PUSH2 0xD8A PUSH1 0x1 PUSH1 0x1 PUSH1 0xA0 SHL SUB DUP3 AND DUP5 DUP7 PUSH2 0x15DF JUMP JUMPDEST DUP1 PUSH1 0x1 PUSH1 0x1 PUSH1 0xA0 SHL SUB AND DUP4 PUSH1 0x1 PUSH1 0x1 PUSH1 0xA0 SHL SUB AND PUSH32 0x540798DF468D7B23D11F156FDB954CB19AD414D150722A7B6D55BA369DEA792E DUP7 PUSH1 0x40 MLOAD PUSH2 0xDCF SWAP2 DUP2 MSTORE PUSH1 0x20 ADD SWAP1 JUMP JUMPDEST PUSH1 0x40 MLOAD DUP1 SWAP2 SUB SWAP1 LOG3 JUMPDEST PUSH1 0x0 DUP8 DUP2 MSTORE PUSH1 0xC PUSH1 0x20 SWAP1 DUP2 MSTORE PUSH1 0x40 DUP1 DUP4 KECCAK256 PUSH1 0x1 PUSH1 0x1 PUSH1 0xA0 SHL SUB SWAP1 SWAP5 AND DUP4 MSTORE SWAP3 SWAP1 MSTORE KECCAK256 DUP5 SWAP1 SSTORE DUP1 PUSH2 0xE07 DUP2 PUSH2 0x1DDB JUMP JUMPDEST SWAP2 POP POP PUSH2 0xD3D JUMP JUMPDEST POP POP POP POP PUSH2 0x90A PUSH1 0x1 PUSH1 0x0 SSTORE JUMP JUMPDEST PUSH2 0xE25 PUSH2 0x1647 JUMP JUMPDEST PUSH1 0x1 PUSH1 0x1 PUSH1 0xA0 SHL SUB DUP3 AND PUSH1 0x0 SWAP1 DUP2 MSTORE PUSH1 0x3 PUSH1 0x20 MSTORE PUSH1 0x40 SWAP1 KECCAK256 SLOAD PUSH1 0xFF AND PUSH2 0xE8D JUMPI PUSH1 0x40 MLOAD PUSH3 0x461BCD PUSH1 0xE5 SHL DUP2 MSTORE PUSH1 0x20 PUSH1 0x4 DUP3 ADD MSTORE PUSH1 0x19 PUSH1 0x24 DUP3 ADD MSTORE PUSH32 0x72657761726420746F6B656E206E6F7420766572696669656400000000000000 PUSH1 0x44 DUP3 ADD MSTORE PUSH1 0x64 ADD PUSH2 0x979 JUMP JUMPDEST PUSH2 0xEA2 PUSH1 0x1 PUSH1 0x1 PUSH1 0xA0 SHL SUB DUP4 AND CALLER ADDRESS DUP5 PUSH2 0x16A0 JUMP JUMPDEST PUSH1 0x0 PUSH3 0x93A80 PUSH1 0x7 PUSH1 0x0 SWAP1 SLOAD SWAP1 PUSH2 0x100 EXP SWAP1 DIV PUSH1 0x1 PUSH1 0x1 PUSH1 0xA0 SHL SUB AND PUSH1 0x1 PUSH1 0x1 PUSH1 0xA0 SHL SUB AND PUSH4 0xD1399608 PUSH1 0x40 MLOAD DUP2 PUSH4 0xFFFFFFFF AND PUSH1 0xE0 SHL DUP2 MSTORE PUSH1 0x4 ADD PUSH1 0x20 PUSH1 0x40 MLOAD DUP1 DUP4 SUB DUP2 DUP7 GAS STATICCALL ISZERO DUP1 ISZERO PUSH2 0xEFB JUMPI RETURNDATASIZE PUSH1 0x0 DUP1 RETURNDATACOPY RETURNDATASIZE PUSH1 0x0 REVERT JUMPDEST POP POP POP POP PUSH1 0x40 MLOAD RETURNDATASIZE PUSH1 0x1F NOT PUSH1 0x1F DUP3 ADD AND DUP3 ADD DUP1 PUSH1 0x40 MSTORE POP DUP2 ADD SWAP1 PUSH2 0xF1F SWAP2 SWAP1 PUSH2 0x1D09 JUMP JUMPDEST PUSH2 0xF29 SWAP2 SWAP1 PUSH2 0x1D79 JUMP JUMPDEST SWAP1 POP PUSH1 0x1 SLOAD PUSH1 0x0 SUB PUSH2 0xF3B JUMPI PUSH1 0x1 DUP2 SWAP1 SSTORE JUMPDEST PUSH1 0x1 PUSH1 0x1 PUSH1 0xA0 SHL SUB DUP4 AND PUSH1 0x0 SWAP1 DUP2 MSTORE PUSH1 0x2 PUSH1 0x20 SWAP1 DUP2 MSTORE PUSH1 0x40 DUP1 DUP4 KECCAK256 DUP5 DUP5 MSTORE SWAP1 SWAP2 MSTORE SWAP1 KECCAK256 PUSH1 0x1 ADD SLOAD PUSH2 0xF6C DUP4 DUP3 PUSH2 0x1D79 JUMP JUMPDEST PUSH1 0x1 PUSH1 0x1 PUSH1 0xA0 SHL SUB DUP6 AND PUSH1 0x0 SWAP1 DUP2 MSTORE PUSH1 0x2 PUSH1 0x20 DUP2 DUP2 MSTORE PUSH1 0x40 DUP1 DUP5 KECCAK256 DUP8 DUP6 MSTORE SWAP1 SWAP2 MSTORE SWAP1 SWAP2 KECCAK256 PUSH1 0x1 DUP2 ADD SWAP3 SWAP1 SWAP3 SSTORE TIMESTAMP SWAP2 ADD SSTORE PUSH2 0xFA9 PUSH3 0x93A80 DUP4 PUSH2 0x1D79 JUMP JUMPDEST PUSH1 0x1 PUSH1 0x1 PUSH1 0xA0 SHL SUB DUP6 AND PUSH1 0x0 DUP2 DUP2 MSTORE PUSH1 0x2 PUSH1 0x20 SWAP1 DUP2 MSTORE PUSH1 0x40 DUP1 DUP4 KECCAK256 DUP8 DUP5 MSTORE DUP3 MSTORE SWAP2 DUP3 SWAP1 KECCAK256 SWAP4 SWAP1 SWAP4 SSTORE DUP1 MLOAD SWAP2 DUP3 MSTORE SWAP2 DUP2 ADD DUP6 SWAP1 MSTORE SWAP1 DUP2 ADD DUP4 SWAP1 MSTORE PUSH32 0x6A6F77044107A33658235D41BEDBBAF2FE9CCDCEB313143C947A5E76E1EC8474 SWAP1 PUSH1 0x60 ADD PUSH1 0x40 MLOAD DUP1 SWAP2 SUB SWAP1 LOG1 POP POP PUSH2 0x90A PUSH1 0x1 PUSH1 0x0 SSTORE JUMP JUMPDEST PUSH1 0xA DUP1 SLOAD PUSH2 0x1028 SWAP1 PUSH2 0x1DF4 JUMP JUMPDEST DUP1 PUSH1 0x1F ADD PUSH1 0x20 DUP1 SWAP2 DIV MUL PUSH1 0x20 ADD PUSH1 0x40 MLOAD SWAP1 DUP2 ADD PUSH1 0x40 MSTORE DUP1 SWAP3 SWAP2 SWAP1 DUP2 DUP2 MSTORE PUSH1 0x20 ADD DUP3 DUP1 SLOAD PUSH2 0x1054 SWAP1 PUSH2 0x1DF4 JUMP JUMPDEST DUP1 ISZERO PUSH2 0x10A1 JUMPI DUP1 PUSH1 0x1F LT PUSH2 0x1076 JUMPI PUSH2 0x100 DUP1 DUP4 SLOAD DIV MUL DUP4 MSTORE SWAP2 PUSH1 0x20 ADD SWAP2 PUSH2 0x10A1 JUMP JUMPDEST DUP3 ADD SWAP2 SWAP1 PUSH1 0x0 MSTORE PUSH1 0x20 PUSH1 0x0 KECCAK256 SWAP1 JUMPDEST DUP2 SLOAD DUP2 MSTORE SWAP1 PUSH1 0x1 ADD SWAP1 PUSH1 0x20 ADD DUP1 DUP4 GT PUSH2 0x1084 JUMPI DUP3 SWAP1 SUB PUSH1 0x1F AND DUP3 ADD SWAP2 JUMPDEST POP POP POP POP POP DUP2 JUMP JUMPDEST PUSH1 0x7 SLOAD PUSH1 0x40 DUP1 MLOAD PUSH4 0x1A2732C1 PUSH1 0xE3 SHL DUP2 MSTORE SWAP1 MLOAD PUSH1 0x0 SWAP3 DUP4 SWAP3 DUP4 SWAP3 DUP4 SWAP3 PUSH1 0x1 PUSH1 0x1 PUSH1 0xA0 SHL SUB AND SWAP2 PUSH4 0xD1399608 SWAP2 PUSH1 0x4 DUP1 DUP4 ADD SWAP3 PUSH1 0x20 SWAP3 SWAP2 SWAP1 DUP3 SWAP1 SUB ADD DUP2 DUP7 GAS STATICCALL ISZERO DUP1 ISZERO PUSH2 0x10F9 JUMPI RETURNDATASIZE PUSH1 0x0 DUP1 RETURNDATACOPY RETURNDATASIZE PUSH1 0x0 REVERT JUMPDEST POP POP POP POP PUSH1 0x40 MLOAD RETURNDATASIZE PUSH1 0x1F NOT PUSH1 0x1F DUP3 ADD AND DUP3 ADD DUP1 PUSH1 0x40 MSTORE POP DUP2 ADD SWAP1 PUSH2 0x111D SWAP2 SWAP1 PUSH2 0x1D09 JUMP JUMPDEST PUSH1 0x0 DUP8 DUP2 MSTORE PUSH1 0xC PUSH1 0x20 SWAP1 DUP2 MSTORE PUSH1 0x40 DUP1 DUP4 KECCAK256 PUSH1 0x1 PUSH1 0x1 PUSH1 0xA0 SHL SUB DUP11 AND DUP5 MSTORE SWAP1 SWAP2 MSTORE SWAP1 KECCAK256 SLOAD SWAP1 SWAP2 POP DUP1 DUP3 SUB PUSH2 0x1157 JUMPI PUSH1 0x0 SWAP5 POP POP POP POP POP PUSH2 0x7A8 JUMP JUMPDEST PUSH1 0x1 SLOAD DUP2 LT ISZERO PUSH2 0x1175 JUMPI PUSH3 0x93A80 PUSH1 0x1 SLOAD PUSH2 0x1172 SWAP2 SWAP1 PUSH2 0x1D91 JUMP JUMPDEST SWAP1 POP JUMPDEST PUSH1 0x32 DUP5 LT ISZERO PUSH2 0x11BD JUMPI DUP1 DUP3 EQ PUSH2 0x11BD JUMPI PUSH2 0x1190 DUP8 DUP8 DUP4 PUSH2 0x16DE JUMP JUMPDEST PUSH2 0x119A SWAP1 DUP5 PUSH2 0x1D79 JUMP JUMPDEST SWAP3 POP PUSH2 0x11A9 PUSH3 0x93A80 DUP3 PUSH2 0x1D79 JUMP JUMPDEST SWAP1 POP DUP4 PUSH2 0x11B5 DUP2 PUSH2 0x1DDB JUMP JUMPDEST SWAP5 POP POP PUSH2 0x1175 JUMP JUMPDEST POP SWAP1 SWAP6 SWAP5 POP POP POP POP POP JUMP JUMPDEST PUSH2 0x11D0 PUSH2 0x1647 JUMP JUMPDEST PUSH1 0x0 DUP3 GT PUSH2 0x1211 JUMPI PUSH1 0x40 MLOAD PUSH3 0x461BCD PUSH1 0xE5 SHL DUP2 MSTORE PUSH1 0x20 PUSH1 0x4 DUP3 ADD MSTORE PUSH1 0xE PUSH1 0x24 DUP3 ADD MSTORE PUSH14 0x43616E6E6F74207374616B65203 PUSH1 0x94 SHL PUSH1 0x44 DUP3 ADD MSTORE PUSH1 0x64 ADD PUSH2 0x979 JUMP JUMPDEST PUSH1 0x5 SLOAD PUSH1 0x1 PUSH1 0x1 PUSH1 0xA0 SHL SUB AND CALLER EQ PUSH2 0x1228 JUMPI PUSH1 0x0 DUP1 REVERT JUMPDEST PUSH1 0x0 PUSH3 0x93A80 PUSH1 0x7 PUSH1 0x0 SWAP1 SLOAD SWAP1 PUSH2 0x100 EXP SWAP1 DIV PUSH1 0x1 PUSH1 0x1 PUSH1 0xA0 SHL SUB AND PUSH1 0x1 PUSH1 0x1 PUSH1 0xA0 SHL SUB AND PUSH4 0xD1399608 PUSH1 0x40 MLOAD DUP2 PUSH4 0xFFFFFFFF AND PUSH1 0xE0 SHL DUP2 MSTORE PUSH1 0x4 ADD PUSH1 0x20 PUSH1 0x40 MLOAD DUP1 DUP4 SUB DUP2 DUP7 GAS STATICCALL ISZERO DUP1 ISZERO PUSH2 0x1281 JUMPI RETURNDATASIZE PUSH1 0x0 DUP1 RETURNDATACOPY RETURNDATASIZE PUSH1 0x0 REVERT JUMPDEST POP POP POP POP PUSH1 0x40 MLOAD RETURNDATASIZE PUSH1 0x1F NOT PUSH1 0x1F DUP3 ADD AND DUP3 ADD DUP1 PUSH1 0x40 MSTORE POP DUP2 ADD SWAP1 PUSH2 0x12A5 SWAP2 SWAP1 PUSH2 0x1D09 JUMP JUMPDEST PUSH2 0x12AF SWAP2 SWAP1 PUSH2 0x1D79 JUMP JUMPDEST PUSH1 0x0 DUP2 DUP2 MSTORE PUSH1 0xD PUSH1 0x20 MSTORE PUSH1 0x40 SWAP1 KECCAK256 SLOAD SWAP1 SWAP2 POP PUSH2 0x12CB DUP5 DUP3 PUSH2 0x1D79 JUMP JUMPDEST PUSH1 0x0 DUP4 DUP2 MSTORE PUSH1 0xD PUSH1 0x20 SWAP1 DUP2 MSTORE PUSH1 0x40 DUP1 DUP4 KECCAK256 SWAP4 SWAP1 SWAP4 SSTORE DUP6 DUP3 MSTORE PUSH1 0xE DUP2 MSTORE DUP3 DUP3 KECCAK256 DUP6 DUP4 MSTORE SWAP1 MSTORE KECCAK256 SLOAD PUSH2 0x12FC SWAP1 DUP6 SWAP1 PUSH2 0x1D79 JUMP JUMPDEST PUSH1 0x0 DUP5 DUP2 MSTORE PUSH1 0xE PUSH1 0x20 SWAP1 DUP2 MSTORE PUSH1 0x40 DUP1 DUP4 KECCAK256 DUP7 DUP5 MSTORE DUP3 MSTORE SWAP2 DUP3 SWAP1 KECCAK256 SWAP3 SWAP1 SWAP3 SSTORE MLOAD DUP6 DUP2 MSTORE DUP5 SWAP2 PUSH32 0x925435FA7E37E5D9555BB18CE0D62BB9627D0846942E58E5291E9A2DDED462ED SWAP2 ADD PUSH1 0x40 MLOAD DUP1 SWAP2 SUB SWAP1 LOG2 POP POP PUSH2 0x90A PUSH1 0x1 PUSH1 0x0 SSTORE JUMP JUMPDEST PUSH2 0x135F PUSH2 0x1647 JUMP JUMPDEST PUSH1 0x8 SLOAD PUSH1 0x40 MLOAD PUSH4 0x430C2081 PUSH1 0xE0 SHL DUP2 MSTORE CALLER PUSH1 0x4 DUP3 ADD MSTORE PUSH1 0x24 DUP2 ADD DUP5 SWAP1 MSTORE PUSH1 0x1 PUSH1 0x1 PUSH1 0xA0 SHL SUB SWAP1 SWAP2 AND SWAP1 PUSH4 0x430C2081 SWAP1 PUSH1 0x44 ADD PUSH1 0x20 PUSH1 0x40 MLOAD DUP1 DUP4 SUB DUP2 DUP7 GAS STATICCALL ISZERO DUP1 ISZERO PUSH2 0x13AE JUMPI RETURNDATASIZE PUSH1 0x0 DUP1 RETURNDATACOPY RETURNDATASIZE PUSH1 0x0 REVERT JUMPDEST POP POP POP POP PUSH1 0x40 MLOAD RETURNDATASIZE PUSH1 0x1F NOT PUSH1 0x1F DUP3 ADD AND DUP3 ADD DUP1 PUSH1 0x40 MSTORE POP DUP2 ADD SWAP1 PUSH2 0x13D2 SWAP2 SWAP1 PUSH2 0x1E2E JUMP JUMPDEST PUSH2 0x13DB JUMPI PUSH1 0x0 DUP1 REVERT JUMPDEST PUSH1 0x7 SLOAD PUSH1 0x40 DUP1 MLOAD PUSH4 0x1A2732C1 PUSH1 0xE3 SHL DUP2 MSTORE SWAP1 MLOAD PUSH1 0x0 SWAP3 PUSH1 0x1 PUSH1 0x1 PUSH1 0xA0 SHL SUB AND SWAP2 PUSH4 0xD1399608 SWAP2 PUSH1 0x4 DUP1 DUP4 ADD SWAP3 PUSH1 0x20 SWAP3 SWAP2 SWAP1 DUP3 SWAP1 SUB ADD DUP2 DUP7 GAS STATICCALL ISZERO DUP1 ISZERO PUSH2 0x1425 JUMPI RETURNDATASIZE PUSH1 0x0 DUP1 RETURNDATACOPY RETURNDATASIZE PUSH1 0x0 REVERT JUMPDEST POP POP POP POP PUSH1 0x40 MLOAD RETURNDATASIZE PUSH1 0x1F NOT PUSH1 0x1F DUP3 ADD AND DUP3 ADD DUP1 PUSH1 0x40 MSTORE POP DUP2 ADD SWAP1 PUSH2 0x1449 SWAP2 SWAP1 PUSH2 0x1D09 JUMP JUMPDEST PUSH1 0x8 SLOAD PUSH1 0x40 MLOAD PUSH4 0x31A9108F PUSH1 0xE1 SHL DUP2 MSTORE PUSH1 0x4 DUP2 ADD DUP7 SWAP1 MSTORE SWAP2 SWAP3 POP PUSH1 0x0 SWAP2 DUP3 SWAP2 PUSH1 0x1 PUSH1 0x1 PUSH1 0xA0 SHL SUB AND SWAP1 PUSH4 0x6352211E SWAP1 PUSH1 0x24 ADD PUSH1 0x20 PUSH1 0x40 MLOAD DUP1 DUP4 SUB DUP2 DUP7 GAS STATICCALL ISZERO DUP1 ISZERO PUSH2 0x1498 JUMPI RETURNDATASIZE PUSH1 0x0 DUP1 RETURNDATACOPY RETURNDATASIZE PUSH1 0x0 REVERT JUMPDEST POP POP POP POP PUSH1 0x40 MLOAD RETURNDATASIZE PUSH1 0x1F NOT PUSH1 0x1F DUP3 ADD AND DUP3 ADD DUP1 PUSH1 0x40 MSTORE POP DUP2 ADD SWAP1 PUSH2 0x14BC SWAP2 SWAP1 PUSH2 0x1DA8 JUMP JUMPDEST SWAP1 POP PUSH1 0x0 JUMPDEST DUP5 MLOAD DUP2 LT ISZERO PUSH2 0xE0F JUMPI PUSH1 0x0 DUP6 DUP3 DUP2 MLOAD DUP2 LT PUSH2 0x14DE JUMPI PUSH2 0x14DE PUSH2 0x1DC5 JUMP JUMPDEST PUSH1 0x20 MUL PUSH1 0x20 ADD ADD MLOAD SWAP1 POP PUSH2 0x14F2 DUP8 DUP3 PUSH2 0x10A9 JUMP JUMPDEST SWAP4 POP DUP4 ISZERO PUSH2 0x155C JUMPI PUSH2 0x150E PUSH1 0x1 PUSH1 0x1 PUSH1 0xA0 SHL SUB DUP3 AND DUP5 DUP7 PUSH2 0x15DF JUMP JUMPDEST DUP1 PUSH1 0x1 PUSH1 0x1 PUSH1 0xA0 SHL SUB AND DUP4 PUSH1 0x1 PUSH1 0x1 PUSH1 0xA0 SHL SUB AND PUSH32 0x540798DF468D7B23D11F156FDB954CB19AD414D150722A7B6D55BA369DEA792E DUP7 PUSH1 0x40 MLOAD PUSH2 0x1553 SWAP2 DUP2 MSTORE PUSH1 0x20 ADD SWAP1 JUMP JUMPDEST PUSH1 0x40 MLOAD DUP1 SWAP2 SUB SWAP1 LOG3 JUMPDEST PUSH1 0x0 DUP8 DUP2 MSTORE PUSH1 0xC PUSH1 0x20 SWAP1 DUP2 MSTORE PUSH1 0x40 DUP1 DUP4 KECCAK256 PUSH1 0x1 PUSH1 0x1 PUSH1 0xA0 SHL SUB SWAP1 SWAP5 AND DUP4 MSTORE SWAP3 SWAP1 MSTORE KECCAK256 DUP5 SWAP1 SSTORE DUP1 PUSH2 0x158B DUP2 PUSH2 0x1DDB JUMP JUMPDEST SWAP2 POP POP PUSH2 0x14C1 JUMP JUMPDEST PUSH1 0x9 SLOAD PUSH1 0x1 PUSH1 0x1 PUSH1 0xA0 SHL SUB AND CALLER EQ PUSH2 0x15AA JUMPI PUSH1 0x0 DUP1 REVERT JUMPDEST PUSH1 0x1 PUSH1 0x1 PUSH1 0xA0 SHL SUB DUP2 AND PUSH2 0x15BD JUMPI PUSH1 0x0 DUP1 REVERT JUMPDEST PUSH1 0x7 DUP1 SLOAD PUSH1 0x1 PUSH1 0x1 PUSH1 0xA0 SHL SUB NOT AND PUSH1 0x1 PUSH1 0x1 PUSH1 0xA0 SHL SUB SWAP3 SWAP1 SWAP3 AND SWAP2 SWAP1 SWAP2 OR SWAP1 SSTORE JUMP JUMPDEST PUSH1 0x40 MLOAD PUSH1 0x1 PUSH1 0x1 PUSH1 0xA0 SHL SUB DUP4 AND PUSH1 0x24 DUP3 ADD MSTORE PUSH1 0x44 DUP2 ADD DUP3 SWAP1 MSTORE PUSH2 0x1642 SWAP1 DUP5 SWAP1 PUSH4 0xA9059CBB PUSH1 0xE0 SHL SWAP1 PUSH1 0x64 ADD JUMPDEST PUSH1 0x40 DUP1 MLOAD PUSH1 0x1F NOT DUP2 DUP5 SUB ADD DUP2 MSTORE SWAP2 SWAP1 MSTORE PUSH1 0x20 DUP2 ADD DUP1 MLOAD PUSH1 0x1 PUSH1 0x1 PUSH1 0xE0 SHL SUB AND PUSH1 0x1 PUSH1 0x1 PUSH1 0xE0 SHL SUB NOT SWAP1 SWAP4 AND SWAP3 SWAP1 SWAP3 OR SWAP1 SWAP2 MSTORE PUSH2 0x1749 JUMP JUMPDEST POP POP POP JUMP JUMPDEST PUSH1 0x2 PUSH1 0x0 SLOAD SUB PUSH2 0x1699 JUMPI PUSH1 0x40 MLOAD PUSH3 0x461BCD PUSH1 0xE5 SHL DUP2 MSTORE PUSH1 0x20 PUSH1 0x4 DUP3 ADD MSTORE PUSH1 0x1F PUSH1 0x24 DUP3 ADD MSTORE PUSH32 0x5265656E7472616E637947756172643A207265656E7472616E742063616C6C00 PUSH1 0x44 DUP3 ADD MSTORE PUSH1 0x64 ADD PUSH2 0x979 JUMP JUMPDEST PUSH1 0x2 PUSH1 0x0 SSTORE JUMP JUMPDEST PUSH1 0x40 MLOAD PUSH1 0x1 PUSH1 0x1 PUSH1 0xA0 SHL SUB DUP1 DUP6 AND PUSH1 0x24 DUP4 ADD MSTORE DUP4 AND PUSH1 0x44 DUP3 ADD MSTORE PUSH1 0x64 DUP2 ADD DUP3 SWAP1 MSTORE PUSH2 0x16D8 SWAP1 DUP6 SWAP1 PUSH4 0x23B872DD PUSH1 0xE0 SHL SWAP1 PUSH1 0x84 ADD PUSH2 0x160B JUMP JUMPDEST POP POP POP POP JUMP JUMPDEST PUSH1 0x0 DUP4 DUP2 MSTORE PUSH1 0xE PUSH1 0x20 SWAP1 DUP2 MSTORE PUSH1 0x40 DUP1 DUP4 KECCAK256 DUP5 DUP5 MSTORE SWAP1 SWAP2 MSTORE DUP2 KECCAK256 SLOAD DUP1 PUSH1 0x0 SUB PUSH2 0x170A JUMPI PUSH1 0x0 SWAP2 POP POP PUSH2 0x1742 JUMP JUMPDEST PUSH1 0x0 PUSH2 0x1716 DUP6 DUP6 PUSH2 0x715 JUMP JUMPDEST SWAP1 POP PUSH1 0x0 PUSH8 0xDE0B6B3A7640000 PUSH2 0x172D DUP5 DUP5 PUSH2 0x1D38 JUMP JUMPDEST PUSH2 0x1737 SWAP2 SWAP1 PUSH2 0x1D57 JUMP JUMPDEST SWAP4 POP PUSH2 0x1742 SWAP3 POP POP POP JUMP JUMPDEST SWAP4 SWAP3 POP POP POP JUMP JUMPDEST PUSH1 0x0 PUSH2 0x179E DUP3 PUSH1 0x40 MLOAD DUP1 PUSH1 0x40 ADD PUSH1 0x40 MSTORE DUP1 PUSH1 0x20 DUP2 MSTORE PUSH1 0x20 ADD PUSH32 0x5361666545524332303A206C6F772D6C6576656C2063616C6C206661696C6564 DUP2 MSTORE POP DUP6 PUSH1 0x1 PUSH1 0x1 PUSH1 0xA0 SHL SUB AND PUSH2 0x181B SWAP1 SWAP3 SWAP2 SWAP1 PUSH4 0xFFFFFFFF AND JUMP JUMPDEST DUP1 MLOAD SWAP1 SWAP2 POP ISZERO PUSH2 0x1642 JUMPI DUP1 DUP1 PUSH1 0x20 ADD SWAP1 MLOAD DUP2 ADD SWAP1 PUSH2 0x17BC SWAP2 SWAP1 PUSH2 0x1E2E JUMP JUMPDEST PUSH2 0x1642 JUMPI PUSH1 0x40 MLOAD PUSH3 0x461BCD PUSH1 0xE5 SHL DUP2 MSTORE PUSH1 0x20 PUSH1 0x4 DUP3 ADD MSTORE PUSH1 0x2A PUSH1 0x24 DUP3 ADD MSTORE PUSH32 0x5361666545524332303A204552433230206F7065726174696F6E20646964206E PUSH1 0x44 DUP3 ADD MSTORE PUSH10 0x1BDD081CDD58D8D95959 PUSH1 0xB2 SHL PUSH1 0x64 DUP3 ADD MSTORE PUSH1 0x84 ADD PUSH2 0x979 JUMP JUMPDEST PUSH1 0x60 PUSH2 0x182A DUP5 DUP5 PUSH1 0x0 DUP6 PUSH2 0x1832 JUMP JUMPDEST SWAP5 SWAP4 POP POP POP POP JUMP JUMPDEST PUSH1 0x60 DUP3 SELFBALANCE LT ISZERO PUSH2 0x1893 JUMPI PUSH1 0x40 MLOAD PUSH3 0x461BCD PUSH1 0xE5 SHL DUP2 MSTORE PUSH1 0x20 PUSH1 0x4 DUP3 ADD MSTORE PUSH1 0x26 PUSH1 0x24 DUP3 ADD MSTORE PUSH32 0x416464726573733A20696E73756666696369656E742062616C616E636520666F PUSH1 0x44 DUP3 ADD MSTORE PUSH6 0x1C8818D85B1B PUSH1 0xD2 SHL PUSH1 0x64 DUP3 ADD MSTORE PUSH1 0x84 ADD PUSH2 0x979 JUMP JUMPDEST PUSH1 0x0 DUP1 DUP7 PUSH1 0x1 PUSH1 0x1 PUSH1 0xA0 SHL SUB AND DUP6 DUP8 PUSH1 0x40 MLOAD PUSH2 0x18AF SWAP2 SWAP1 PUSH2 0x1E50 JUMP JUMPDEST PUSH1 0x0 PUSH1 0x40 MLOAD DUP1 DUP4 SUB DUP2 DUP6 DUP8 GAS CALL SWAP3 POP POP POP RETURNDATASIZE DUP1 PUSH1 0x0 DUP2 EQ PUSH2 0x18EC JUMPI PUSH1 0x40 MLOAD SWAP2 POP PUSH1 0x1F NOT PUSH1 0x3F RETURNDATASIZE ADD AND DUP3 ADD PUSH1 0x40 MSTORE RETURNDATASIZE DUP3 MSTORE RETURNDATASIZE PUSH1 0x0 PUSH1 0x20 DUP5 ADD RETURNDATACOPY PUSH2 0x18F1 JUMP JUMPDEST PUSH1 0x60 SWAP2 POP JUMPDEST POP SWAP2 POP SWAP2 POP PUSH2 0x1902 DUP8 DUP4 DUP4 DUP8 PUSH2 0x190D JUMP JUMPDEST SWAP8 SWAP7 POP POP POP POP POP POP POP JUMP JUMPDEST PUSH1 0x60 DUP4 ISZERO PUSH2 0x197C JUMPI DUP3 MLOAD PUSH1 0x0 SUB PUSH2 0x1975 JUMPI PUSH1 0x1 PUSH1 0x1 PUSH1 0xA0 SHL SUB DUP6 AND EXTCODESIZE PUSH2 0x1975 JUMPI PUSH1 0x40 MLOAD PUSH3 0x461BCD PUSH1 0xE5 SHL DUP2 MSTORE PUSH1 0x20 PUSH1 0x4 DUP3 ADD MSTORE PUSH1 0x1D PUSH1 0x24 DUP3 ADD MSTORE PUSH32 0x416464726573733A2063616C6C20746F206E6F6E2D636F6E7472616374000000 PUSH1 0x44 DUP3 ADD MSTORE PUSH1 0x64 ADD PUSH2 0x979 JUMP JUMPDEST POP DUP2 PUSH2 0x182A JUMP JUMPDEST PUSH2 0x182A DUP4 DUP4 DUP2 MLOAD ISZERO PUSH2 0x1991 JUMPI DUP2 MLOAD DUP1 DUP4 PUSH1 0x20 ADD REVERT JUMPDEST DUP1 PUSH1 0x40 MLOAD PUSH3 0x461BCD PUSH1 0xE5 SHL DUP2 MSTORE PUSH1 0x4 ADD PUSH2 0x979 SWAP2 SWAP1 PUSH2 0x1CD6 JUMP JUMPDEST DUP3 DUP1 SLOAD PUSH2 0x19B7 SWAP1 PUSH2 0x1DF4 JUMP JUMPDEST SWAP1 PUSH1 0x0 MSTORE PUSH1 0x20 PUSH1 0x0 KECCAK256 SWAP1 PUSH1 0x1F ADD PUSH1 0x20 SWAP1 DIV DUP2 ADD SWAP3 DUP3 PUSH2 0x19D9 JUMPI PUSH1 0x0 DUP6 SSTORE PUSH2 0x1A1F JUMP JUMPDEST DUP3 PUSH1 0x1F LT PUSH2 0x19F2 JUMPI DUP1 MLOAD PUSH1 0xFF NOT AND DUP4 DUP1 ADD OR DUP6 SSTORE PUSH2 0x1A1F JUMP JUMPDEST DUP3 DUP1 ADD PUSH1 0x1 ADD DUP6 SSTORE DUP3 ISZERO PUSH2 0x1A1F JUMPI SWAP2 DUP3 ADD JUMPDEST DUP3 DUP2 GT ISZERO PUSH2 0x1A1F JUMPI DUP3 MLOAD DUP3 SSTORE SWAP2 PUSH1 0x20 ADD SWAP2 SWAP1 PUSH1 0x1 ADD SWAP1 PUSH2 0x1A04 JUMP JUMPDEST POP PUSH2 0x1A2B SWAP3 SWAP2 POP PUSH2 0x1A2F JUMP JUMPDEST POP SWAP1 JUMP JUMPDEST JUMPDEST DUP1 DUP3 GT ISZERO PUSH2 0x1A2B JUMPI PUSH1 0x0 DUP2 SSTORE PUSH1 0x1 ADD PUSH2 0x1A30 JUMP JUMPDEST PUSH1 0x1 PUSH1 0x1 PUSH1 0xA0 SHL SUB DUP2 AND DUP2 EQ PUSH2 0x1A59 JUMPI PUSH1 0x0 DUP1 REVERT JUMPDEST POP JUMP JUMPDEST PUSH1 0x0 DUP1 PUSH1 0x40 DUP4 DUP6 SUB SLT ISZERO PUSH2 0x1A6F JUMPI PUSH1 0x0 DUP1 REVERT JUMPDEST DUP3 CALLDATALOAD SWAP2 POP PUSH1 0x20 DUP4 ADD CALLDATALOAD PUSH2 0x1A81 DUP2 PUSH2 0x1A44 JUMP JUMPDEST DUP1 SWAP2 POP POP SWAP3 POP SWAP3 SWAP1 POP JUMP JUMPDEST PUSH1 0x0 PUSH1 0x20 DUP3 DUP5 SUB SLT ISZERO PUSH2 0x1A9E JUMPI PUSH1 0x0 DUP1 REVERT JUMPDEST DUP2 CALLDATALOAD PUSH2 0x1742 DUP2 PUSH2 0x1A44 JUMP JUMPDEST PUSH1 0x0 DUP1 PUSH1 0x40 DUP4 DUP6 SUB SLT ISZERO PUSH2 0x1ABC JUMPI PUSH1 0x0 DUP1 REVERT JUMPDEST DUP3 CALLDATALOAD PUSH2 0x1AC7 DUP2 PUSH2 0x1A44 JUMP JUMPDEST SWAP5 PUSH1 0x20 SWAP4 SWAP1 SWAP4 ADD CALLDATALOAD SWAP4 POP POP POP JUMP JUMPDEST PUSH1 0x0 PUSH1 0x20 DUP3 DUP5 SUB SLT ISZERO PUSH2 0x1AE7 JUMPI PUSH1 0x0 DUP1 REVERT JUMPDEST POP CALLDATALOAD SWAP2 SWAP1 POP JUMP JUMPDEST PUSH1 0x0 DUP1 PUSH1 0x40 DUP4 DUP6 SUB SLT ISZERO PUSH2 0x1B01 JUMPI PUSH1 0x0 DUP1 REVERT JUMPDEST POP POP DUP1 CALLDATALOAD SWAP3 PUSH1 0x20 SWAP1 SWAP2 ADD CALLDATALOAD SWAP2 POP JUMP JUMPDEST PUSH4 0x4E487B71 PUSH1 0xE0 SHL PUSH1 0x0 MSTORE PUSH1 0x41 PUSH1 0x4 MSTORE PUSH1 0x24 PUSH1 0x0 REVERT JUMPDEST PUSH1 0x40 MLOAD PUSH1 0x1F DUP3 ADD PUSH1 0x1F NOT AND DUP2 ADD PUSH8 0xFFFFFFFFFFFFFFFF DUP2 GT DUP3 DUP3 LT OR ISZERO PUSH2 0x1B4F JUMPI PUSH2 0x1B4F PUSH2 0x1B10 JUMP JUMPDEST PUSH1 0x40 MSTORE SWAP2 SWAP1 POP JUMP JUMPDEST PUSH1 0x0 PUSH1 0x20 DUP1 DUP4 DUP6 SUB SLT ISZERO PUSH2 0x1B6A JUMPI PUSH1 0x0 DUP1 REVERT JUMPDEST DUP3 CALLDATALOAD PUSH8 0xFFFFFFFFFFFFFFFF DUP1 DUP3 GT ISZERO PUSH2 0x1B82 JUMPI PUSH1 0x0 DUP1 REVERT JUMPDEST DUP2 DUP6 ADD SWAP2 POP DUP6 PUSH1 0x1F DUP4 ADD SLT PUSH2 0x1B96 JUMPI PUSH1 0x0 DUP1 REVERT JUMPDEST DUP2 CALLDATALOAD DUP2 DUP2 GT ISZERO PUSH2 0x1BA8 JUMPI PUSH2 0x1BA8 PUSH2 0x1B10 JUMP JUMPDEST PUSH2 0x1BBA PUSH1 0x1F DUP3 ADD PUSH1 0x1F NOT AND DUP6 ADD PUSH2 0x1B26 JUMP JUMPDEST SWAP2 POP DUP1 DUP3 MSTORE DUP7 DUP5 DUP3 DUP6 ADD ADD GT ISZERO PUSH2 0x1BD0 JUMPI PUSH1 0x0 DUP1 REVERT JUMPDEST DUP1 DUP5 DUP5 ADD DUP6 DUP5 ADD CALLDATACOPY PUSH1 0x0 SWAP1 DUP3 ADD SWAP1 SWAP4 ADD SWAP3 SWAP1 SWAP3 MSTORE POP SWAP4 SWAP3 POP POP POP JUMP JUMPDEST PUSH1 0x0 DUP1 PUSH1 0x40 DUP4 DUP6 SUB SLT ISZERO PUSH2 0x1BFF JUMPI PUSH1 0x0 DUP1 REVERT JUMPDEST DUP3 CALLDATALOAD SWAP2 POP PUSH1 0x20 DUP1 DUP5 ADD CALLDATALOAD PUSH8 0xFFFFFFFFFFFFFFFF DUP1 DUP3 GT ISZERO PUSH2 0x1C1F JUMPI PUSH1 0x0 DUP1 REVERT JUMPDEST DUP2 DUP7 ADD SWAP2 POP DUP7 PUSH1 0x1F DUP4 ADD SLT PUSH2 0x1C33 JUMPI PUSH1 0x0 DUP1 REVERT JUMPDEST DUP2 CALLDATALOAD DUP2 DUP2 GT ISZERO PUSH2 0x1C45 JUMPI PUSH2 0x1C45 PUSH2 0x1B10 JUMP JUMPDEST DUP1 PUSH1 0x5 SHL SWAP2 POP PUSH2 0x1C56 DUP5 DUP4 ADD PUSH2 0x1B26 JUMP JUMPDEST DUP2 DUP2 MSTORE SWAP2 DUP4 ADD DUP5 ADD SWAP2 DUP5 DUP2 ADD SWAP1 DUP10 DUP5 GT ISZERO PUSH2 0x1C70 JUMPI PUSH1 0x0 DUP1 REVERT JUMPDEST SWAP4 DUP6 ADD SWAP4 JUMPDEST DUP4 DUP6 LT ISZERO PUSH2 0x1C9A JUMPI DUP5 CALLDATALOAD SWAP3 POP PUSH2 0x1C8A DUP4 PUSH2 0x1A44 JUMP JUMPDEST DUP3 DUP3 MSTORE SWAP4 DUP6 ADD SWAP4 SWAP1 DUP6 ADD SWAP1 PUSH2 0x1C75 JUMP JUMPDEST DUP1 SWAP7 POP POP POP POP POP POP POP SWAP3 POP SWAP3 SWAP1 POP JUMP JUMPDEST PUSH1 0x0 JUMPDEST DUP4 DUP2 LT ISZERO PUSH2 0x1CC5 JUMPI DUP2 DUP2 ADD MLOAD DUP4 DUP3 ADD MSTORE PUSH1 0x20 ADD PUSH2 0x1CAD JUMP JUMPDEST DUP4 DUP2 GT ISZERO PUSH2 0x16D8 JUMPI POP POP PUSH1 0x0 SWAP2 ADD MSTORE JUMP JUMPDEST PUSH1 0x20 DUP2 MSTORE PUSH1 0x0 DUP3 MLOAD DUP1 PUSH1 0x20 DUP5 ADD MSTORE PUSH2 0x1CF5 DUP2 PUSH1 0x40 DUP6 ADD PUSH1 0x20 DUP8 ADD PUSH2 0x1CAA JUMP JUMPDEST PUSH1 0x1F ADD PUSH1 0x1F NOT AND SWAP2 SWAP1 SWAP2 ADD PUSH1 0x40 ADD SWAP3 SWAP2 POP POP JUMP JUMPDEST PUSH1 0x0 PUSH1 0x20 DUP3 DUP5 SUB SLT ISZERO PUSH2 0x1D1B JUMPI PUSH1 0x0 DUP1 REVERT JUMPDEST POP MLOAD SWAP2 SWAP1 POP JUMP JUMPDEST PUSH4 0x4E487B71 PUSH1 0xE0 SHL PUSH1 0x0 MSTORE PUSH1 0x11 PUSH1 0x4 MSTORE PUSH1 0x24 PUSH1 0x0 REVERT JUMPDEST PUSH1 0x0 DUP2 PUSH1 0x0 NOT DIV DUP4 GT DUP3 ISZERO ISZERO AND ISZERO PUSH2 0x1D52 JUMPI PUSH2 0x1D52 PUSH2 0x1D22 JUMP JUMPDEST POP MUL SWAP1 JUMP JUMPDEST PUSH1 0x0 DUP3 PUSH2 0x1D74 JUMPI PUSH4 0x4E487B71 PUSH1 0xE0 SHL PUSH1 0x0 MSTORE PUSH1 0x12 PUSH1 0x4 MSTORE PUSH1 0x24 PUSH1 0x0 REVERT JUMPDEST POP DIV SWAP1 JUMP JUMPDEST PUSH1 0x0 DUP3 NOT DUP3 GT ISZERO PUSH2 0x1D8C JUMPI PUSH2 0x1D8C PUSH2 0x1D22 JUMP JUMPDEST POP ADD SWAP1 JUMP JUMPDEST PUSH1 0x0 DUP3 DUP3 LT ISZERO PUSH2 0x1DA3 JUMPI PUSH2 0x1DA3 PUSH2 0x1D22 JUMP JUMPDEST POP SUB SWAP1 JUMP JUMPDEST PUSH1 0x0 PUSH1 0x20 DUP3 DUP5 SUB SLT ISZERO PUSH2 0x1DBA JUMPI PUSH1 0x0 DUP1 REVERT JUMPDEST DUP2 MLOAD PUSH2 0x1742 DUP2 PUSH2 0x1A44 JUMP JUMPDEST PUSH4 0x4E487B71 PUSH1 0xE0 SHL PUSH1 0x0 MSTORE PUSH1 0x32 PUSH1 0x4 MSTORE PUSH1 0x24 PUSH1 0x0 REVERT JUMPDEST PUSH1 0x0 PUSH1 0x1 DUP3 ADD PUSH2 0x1DED JUMPI PUSH2 0x1DED PUSH2 0x1D22 JUMP JUMPDEST POP PUSH1 0x1 ADD SWAP1 JUMP JUMPDEST PUSH1 0x1 DUP2 DUP2 SHR SWAP1 DUP3 AND DUP1 PUSH2 0x1E08 JUMPI PUSH1 0x7F DUP3 AND SWAP2 POP JUMPDEST PUSH1 0x20 DUP3 LT DUP2 SUB PUSH2 0x1E28 JUMPI PUSH4 0x4E487B71 PUSH1 0xE0 SHL PUSH1 0x0 MSTORE PUSH1 0x22 PUSH1 0x4 MSTORE PUSH1 0x24 PUSH1 0x0 REVERT JUMPDEST POP SWAP2 SWAP1 POP JUMP JUMPDEST PUSH1 0x0 PUSH1 0x20 DUP3 DUP5 SUB SLT ISZERO PUSH2 0x1E40 JUMPI PUSH1 0x0 DUP1 REVERT JUMPDEST DUP2 MLOAD DUP1 ISZERO ISZERO DUP2 EQ PUSH2 0x1742 JUMPI PUSH1 0x0 DUP1 REVERT JUMPDEST PUSH1 0x0 DUP3 MLOAD PUSH2 0x1E62 DUP2 DUP5 PUSH1 0x20 DUP8 ADD PUSH2 0x1CAA JUMP JUMPDEST SWAP2 SWAP1 SWAP2 ADD SWAP3 SWAP2 POP POP JUMP INVALID LOG2 PUSH5 0x6970667358 0x22 SLT KECCAK256 PUSH17 0x767A35AA46314B22BED148FFC558AC6E7A 0xD3 PUSH13 0x830D63E358EE73C44686BE1C64 PUSH20 0x6F6C634300080D00330000000000000000000000 "},"methodIdentifiers":{"TYPE()":"bb24fe8a","WEEK()":"f4359ce5","_deposit(uint256,uint256)":"f3207723","_totalSupply(uint256)":"5977e82a","_withdraw(uint256,uint256)":"9e2bf22c","addReward(address)":"9c9b2e21","addRewardToken(address)":"1c03e6cc","balanceOf(uint256)":"9cc7f708","balanceOfAt(uint256,uint256)":"853c8aeb","bribeFactory()":"eb4a78e0","earned(uint256,address)":"e39c08fc","firstBribeTimestamp()":"55288eea","getEpochStart()":"a4a3e035","getNextEpochStart()":"65c5f94a","getReward(uint256,address[])":"f5f8d365","getRewardForOwner(uint256,address[])":"a7852afa","isRewardToken(address)":"b5fd73f8","minter()":"07546172","notifyRewardAmount(address,uint256)":"b66503cf","owner()":"8da5cb5b","recoverERC20(address,uint256)":"8980f11f","rewardData(address,uint256)":"38174862","rewardPerToken(address,uint256)":"57bc5614","rewardTokens(uint256)":"7bb7bed1","rewardsListLength()":"e6886396","setMinter(address)":"fca3b5aa","setOwner(address)":"13af4035","setType(string)":"96282ba3","setVoter(address)":"4bc2a657","totalSupply()":"18160ddd","totalSupplyAt(uint256)":"981b24d0","userRewardPerTokenPaid(uint256,address)":"00a47ddd","userTimestamp(uint256,address)":"8f2b554c","ve()":"1f850716","voter()":"46c96aac"}},"storageLayout":{"storage":[{"astId":750,"contract":"contracts/Bribes.sol:Bribe","label":"_status","offset":0,"slot":"0","type":"t_uint256"},{"astId":1573,"contract":"contracts/Bribes.sol:Bribe","label":"firstBribeTimestamp","offset":0,"slot":"1","type":"t_uint256"},{"astId":1587,"contract":"contracts/Bribes.sol:Bribe","label":"rewardData","offset":0,"slot":"2","type":"t_mapping(t_address,t_mapping(t_uint256,t_struct(Reward)1580_storage))"},{"astId":1591,"contract":"contracts/Bribes.sol:Bribe","label":"isRewardToken","offset":0,"slot":"3","type":"t_mapping(t_address,t_bool)"},{"astId":1594,"contract":"contracts/Bribes.sol:Bribe","label":"rewardTokens","offset":0,"slot":"4","type":"t_array(t_address)dyn_storage"},{"astId":1596,"contract":"contracts/Bribes.sol:Bribe","label":"voter","offset":0,"slot":"5","type":"t_address"},{"astId":1598,"contract":"contracts/Bribes.sol:Bribe","label":"bribeFactory","offset":0,"slot":"6","type":"t_address"},{"astId":1600,"contract":"contracts/Bribes.sol:Bribe","label":"minter","offset":0,"slot":"7","type":"t_address"},{"astId":1602,"contract":"contracts/Bribes.sol:Bribe","label":"ve","offset":0,"slot":"8","type":"t_address"},{"astId":1604,"contract":"contracts/Bribes.sol:Bribe","label":"owner","offset":0,"slot":"9","type":"t_address"},{"astId":1606,"contract":"contracts/Bribes.sol:Bribe","label":"TYPE","offset":0,"slot":"10","type":"t_string_storage"},{"astId":1612,"contract":"contracts/Bribes.sol:Bribe","label":"userRewardPerTokenPaid","offset":0,"slot":"11","type":"t_mapping(t_uint256,t_mapping(t_address,t_uint256))"},{"astId":1618,"contract":"contracts/Bribes.sol:Bribe","label":"userTimestamp","offset":0,"slot":"12","type":"t_mapping(t_uint256,t_mapping(t_address,t_uint256))"},{"astId":1622,"contract":"contracts/Bribes.sol:Bribe","label":"_totalSupply","offset":0,"slot":"13","type":"t_mapping(t_uint256,t_uint256)"},{"astId":1628,"contract":"contracts/Bribes.sol:Bribe","label":"_balances","offset":0,"slot":"14","type":"t_mapping(t_uint256,t_mapping(t_uint256,t_uint256))"}],"types":{"t_address":{"encoding":"inplace","label":"address","numberOfBytes":"20"},"t_array(t_address)dyn_storage":{"base":"t_address","encoding":"dynamic_array","label":"address[]","numberOfBytes":"32"},"t_bool":{"encoding":"inplace","label":"bool","numberOfBytes":"1"},"t_mapping(t_address,t_bool)":{"encoding":"mapping","key":"t_address","label":"mapping(address => bool)","numberOfBytes":"32","value":"t_bool"},"t_mapping(t_address,t_mapping(t_uint256,t_struct(Reward)1580_storage))":{"encoding":"mapping","key":"t_address","label":"mapping(address => mapping(uint256 => struct Bribe.Reward))","numberOfBytes":"32","value":"t_mapping(t_uint256,t_struct(Reward)1580_storage)"},"t_mapping(t_address,t_uint256)":{"encoding":"mapping","key":"t_address","label":"mapping(address => uint256)","numberOfBytes":"32","value":"t_uint256"},"t_mapping(t_uint256,t_mapping(t_address,t_uint256))":{"encoding":"mapping","key":"t_uint256","label":"mapping(uint256 => mapping(address => uint256))","numberOfBytes":"32","value":"t_mapping(t_address,t_uint256)"},"t_mapping(t_uint256,t_mapping(t_uint256,t_uint256))":{"encoding":"mapping","key":"t_uint256","label":"mapping(uint256 => mapping(uint256 => uint256))","numberOfBytes":"32","value":"t_mapping(t_uint256,t_uint256)"},"t_mapping(t_uint256,t_struct(Reward)1580_storage)":{"encoding":"mapping","key":"t_uint256","label":"mapping(uint256 => struct Bribe.Reward)","numberOfBytes":"32","value":"t_struct(Reward)1580_storage"},"t_mapping(t_uint256,t_uint256)":{"encoding":"mapping","key":"t_uint256","label":"mapping(uint256 => uint256)","numberOfBytes":"32","value":"t_uint256"},"t_string_storage":{"encoding":"bytes","label":"string","numberOfBytes":"32"},"t_struct(Reward)1580_storage":{"encoding":"inplace","label":"struct Bribe.Reward","members":[{"astId":1575,"contract":"contracts/Bribes.sol:Bribe","label":"periodFinish","offset":0,"slot":"0","type":"t_uint256"},{"astId":1577,"contract":"contracts/Bribes.sol:Bribe","label":"rewardsPerEpoch","offset":0,"slot":"1","type":"t_uint256"},{"astId":1579,"contract":"contracts/Bribes.sol:Bribe","label":"lastUpdateTime","offset":0,"slot":"2","type":"t_uint256"}],"numberOfBytes":"96"},"t_uint256":{"encoding":"inplace","label":"uint256","numberOfBytes":"32"}}}}}}