{"contracts/VoterV2_1.sol":{"VoterV2_1":{"abi":[{"inputs":[],"stateMutability":"nonpayable","type":"constructor"},{"anonymous":false,"inputs":[{"indexed":false,"internalType":"uint256","name":"tokenId","type":"uint256"},{"indexed":false,"internalType":"uint256","name":"weight","type":"uint256"}],"name":"Abstained","type":"event"},{"anonymous":false,"inputs":[{"indexed":true,"internalType":"address","name":"owner","type":"address"},{"indexed":true,"internalType":"address","name":"gauge","type":"address"},{"indexed":false,"internalType":"uint256","name":"tokenId","type":"uint256"}],"name":"Attach","type":"event"},{"anonymous":false,"inputs":[{"indexed":true,"internalType":"address","name":"lp","type":"address"},{"indexed":true,"internalType":"address","name":"gauge","type":"address"},{"indexed":false,"internalType":"uint256","name":"tokenId","type":"uint256"},{"indexed":false,"internalType":"uint256","name":"amount","type":"uint256"}],"name":"Deposit","type":"event"},{"anonymous":false,"inputs":[{"indexed":true,"internalType":"address","name":"owner","type":"address"},{"indexed":true,"internalType":"address","name":"gauge","type":"address"},{"indexed":false,"internalType":"uint256","name":"tokenId","type":"uint256"}],"name":"Detach","type":"event"},{"anonymous":false,"inputs":[{"indexed":true,"internalType":"address","name":"sender","type":"address"},{"indexed":true,"internalType":"address","name":"gauge","type":"address"},{"indexed":false,"internalType":"uint256","name":"amount","type":"uint256"}],"name":"DistributeReward","type":"event"},{"anonymous":false,"inputs":[{"indexed":true,"internalType":"address","name":"gauge","type":"address"},{"indexed":false,"internalType":"address","name":"creator","type":"address"},{"indexed":false,"internalType":"address","name":"internal_bribe","type":"address"},{"indexed":true,"internalType":"address","name":"external_bribe","type":"address"},{"indexed":true,"internalType":"address","name":"pool","type":"address"}],"name":"GaugeCreated","type":"event"},{"anonymous":false,"inputs":[{"indexed":true,"internalType":"address","name":"gauge","type":"address"}],"name":"GaugeKilled","type":"event"},{"anonymous":false,"inputs":[{"indexed":true,"internalType":"address","name":"gauge","type":"address"}],"name":"GaugeRevived","type":"event"},{"anonymous":false,"inputs":[{"indexed":false,"internalType":"uint8","name":"version","type":"uint8"}],"name":"Initialized","type":"event"},{"anonymous":false,"inputs":[{"indexed":true,"internalType":"address","name":"sender","type":"address"},{"indexed":true,"internalType":"address","name":"reward","type":"address"},{"indexed":false,"internalType":"uint256","name":"amount","type":"uint256"}],"name":"NotifyReward","type":"event"},{"anonymous":false,"inputs":[{"indexed":true,"internalType":"address","name":"previousOwner","type":"address"},{"indexed":true,"internalType":"address","name":"newOwner","type":"address"}],"name":"OwnershipTransferred","type":"event"},{"anonymous":false,"inputs":[{"indexed":true,"internalType":"address","name":"voter","type":"address"},{"indexed":false,"internalType":"uint256","name":"tokenId","type":"uint256"},{"indexed":false,"internalType":"uint256","name":"weight","type":"uint256"}],"name":"Voted","type":"event"},{"anonymous":false,"inputs":[{"indexed":true,"internalType":"address","name":"whitelister","type":"address"},{"indexed":true,"internalType":"address","name":"token","type":"address"}],"name":"Whitelisted","type":"event"},{"anonymous":false,"inputs":[{"indexed":true,"internalType":"address","name":"lp","type":"address"},{"indexed":true,"internalType":"address","name":"gauge","type":"address"},{"indexed":false,"internalType":"uint256","name":"tokenId","type":"uint256"},{"indexed":false,"internalType":"uint256","name":"amount","type":"uint256"}],"name":"Withdraw","type":"event"},{"inputs":[{"internalType":"address[]","name":"_tokens","type":"address[]"},{"internalType":"address","name":"_minter","type":"address"}],"name":"_initialize","outputs":[],"stateMutability":"nonpayable","type":"function"},{"inputs":[],"name":"_ve","outputs":[{"internalType":"address","name":"","type":"address"}],"stateMutability":"view","type":"function"},{"inputs":[{"internalType":"uint256","name":"tokenId","type":"uint256"},{"internalType":"address","name":"account","type":"address"}],"name":"attachTokenToGauge","outputs":[],"stateMutability":"nonpayable","type":"function"},{"inputs":[],"name":"bribefactory","outputs":[{"internalType":"address","name":"","type":"address"}],"stateMutability":"view","type":"function"},{"inputs":[{"internalType":"address[]","name":"_bribes","type":"address[]"},{"internalType":"address[][]","name":"_tokens","type":"address[][]"},{"internalType":"uint256","name":"_tokenId","type":"uint256"}],"name":"claimBribes","outputs":[],"stateMutability":"nonpayable","type":"function"},{"inputs":[{"internalType":"address[]","name":"_fees","type":"address[]"},{"internalType":"address[][]","name":"_tokens","type":"address[][]"},{"internalType":"uint256","name":"_tokenId","type":"uint256"}],"name":"claimFees","outputs":[],"stateMutability":"nonpayable","type":"function"},{"inputs":[{"internalType":"address[]","name":"_gauges","type":"address[]"},{"internalType":"address[][]","name":"_tokens","type":"address[][]"}],"name":"claimRewards","outputs":[],"stateMutability":"nonpayable","type":"function"},{"inputs":[{"internalType":"address","name":"","type":"address"}],"name":"claimable","outputs":[{"internalType":"uint256","name":"","type":"uint256"}],"stateMutability":"view","type":"function"},{"inputs":[{"internalType":"address","name":"_pool","type":"address"}],"name":"createGauge","outputs":[{"internalType":"address","name":"","type":"address"}],"stateMutability":"nonpayable","type":"function"},{"inputs":[{"internalType":"uint256","name":"tokenId","type":"uint256"},{"internalType":"address","name":"account","type":"address"}],"name":"detachTokenFromGauge","outputs":[],"stateMutability":"nonpayable","type":"function"},{"inputs":[{"internalType":"address[]","name":"_gauges","type":"address[]"}],"name":"distribute","outputs":[],"stateMutability":"nonpayable","type":"function"},{"inputs":[{"internalType":"address","name":"_gauge","type":"address"}],"name":"distribute","outputs":[],"stateMutability":"nonpayable","type":"function"},{"inputs":[{"internalType":"uint256","name":"start","type":"uint256"},{"internalType":"uint256","name":"finish","type":"uint256"}],"name":"distribute","outputs":[],"stateMutability":"nonpayable","type":"function"},{"inputs":[],"name":"distributeAll","outputs":[],"stateMutability":"nonpayable","type":"function"},{"inputs":[{"internalType":"address[]","name":"_gauges","type":"address[]"}],"name":"distributeFees","outputs":[],"stateMutability":"nonpayable","type":"function"},{"inputs":[],"name":"emergencyCouncil","outputs":[{"internalType":"address","name":"","type":"address"}],"stateMutability":"view","type":"function"},{"inputs":[{"internalType":"uint256","name":"tokenId","type":"uint256"},{"internalType":"address","name":"account","type":"address"},{"internalType":"uint256","name":"amount","type":"uint256"}],"name":"emitDeposit","outputs":[],"stateMutability":"nonpayable","type":"function"},{"inputs":[{"internalType":"uint256","name":"tokenId","type":"uint256"},{"internalType":"address","name":"account","type":"address"},{"internalType":"uint256","name":"amount","type":"uint256"}],"name":"emitWithdraw","outputs":[],"stateMutability":"nonpayable","type":"function"},{"inputs":[{"internalType":"address","name":"","type":"address"}],"name":"external_bribes","outputs":[{"internalType":"address","name":"","type":"address"}],"stateMutability":"view","type":"function"},{"inputs":[],"name":"factory","outputs":[{"internalType":"address","name":"","type":"address"}],"stateMutability":"view","type":"function"},{"inputs":[],"name":"gaugefactory","outputs":[{"internalType":"address","name":"","type":"address"}],"stateMutability":"view","type":"function"},{"inputs":[{"internalType":"address","name":"","type":"address"}],"name":"gauges","outputs":[{"internalType":"address","name":"","type":"address"}],"stateMutability":"view","type":"function"},{"inputs":[{"internalType":"address","name":"","type":"address"}],"name":"gaugesDistributionTimestmap","outputs":[{"internalType":"uint256","name":"","type":"uint256"}],"stateMutability":"view","type":"function"},{"inputs":[],"name":"governor","outputs":[{"internalType":"address","name":"","type":"address"}],"stateMutability":"view","type":"function"},{"inputs":[{"internalType":"address","name":"_gauge","type":"address"}],"name":"increaseGaugeApprovals","outputs":[],"stateMutability":"nonpayable","type":"function"},{"inputs":[{"internalType":"address[]","name":"_gauges","type":"address[]"},{"internalType":"address[]","name":"_pools","type":"address[]"}],"name":"initGauges","outputs":[],"stateMutability":"nonpayable","type":"function"},{"inputs":[{"internalType":"address","name":"__ve","type":"address"},{"internalType":"address","name":"_factory","type":"address"},{"internalType":"address","name":"_gauges","type":"address"},{"internalType":"address","name":"_bribes","type":"address"}],"name":"initialize","outputs":[],"stateMutability":"nonpayable","type":"function"},{"inputs":[{"internalType":"address","name":"","type":"address"}],"name":"internal_bribes","outputs":[{"internalType":"address","name":"","type":"address"}],"stateMutability":"view","type":"function"},{"inputs":[{"internalType":"address","name":"","type":"address"}],"name":"isAlive","outputs":[{"internalType":"bool","name":"","type":"bool"}],"stateMutability":"view","type":"function"},{"inputs":[{"internalType":"address","name":"","type":"address"}],"name":"isGauge","outputs":[{"internalType":"bool","name":"","type":"bool"}],"stateMutability":"view","type":"function"},{"inputs":[{"internalType":"address","name":"","type":"address"}],"name":"isWhitelisted","outputs":[{"internalType":"bool","name":"","type":"bool"}],"stateMutability":"view","type":"function"},{"inputs":[{"internalType":"address","name":"_gauge","type":"address"}],"name":"killGauge","outputs":[],"stateMutability":"nonpayable","type":"function"},{"inputs":[{"internalType":"address","name":"_gauge","type":"address"}],"name":"killGaugeTotally","outputs":[],"stateMutability":"nonpayable","type":"function"},{"inputs":[{"internalType":"uint256","name":"","type":"uint256"}],"name":"lastVoted","outputs":[{"internalType":"uint256","name":"","type":"uint256"}],"stateMutability":"view","type":"function"},{"inputs":[],"name":"length","outputs":[{"internalType":"uint256","name":"","type":"uint256"}],"stateMutability":"view","type":"function"},{"inputs":[],"name":"minter","outputs":[{"internalType":"address","name":"","type":"address"}],"stateMutability":"view","type":"function"},{"inputs":[{"internalType":"uint256","name":"amount","type":"uint256"}],"name":"notifyRewardAmount","outputs":[],"stateMutability":"nonpayable","type":"function"},{"inputs":[],"name":"owner","outputs":[{"internalType":"address","name":"","type":"address"}],"stateMutability":"view","type":"function"},{"inputs":[{"internalType":"uint256","name":"_tokenId","type":"uint256"}],"name":"poke","outputs":[],"stateMutability":"nonpayable","type":"function"},{"inputs":[{"internalType":"address","name":"","type":"address"}],"name":"poolForGauge","outputs":[{"internalType":"address","name":"","type":"address"}],"stateMutability":"view","type":"function"},{"inputs":[{"internalType":"uint256","name":"","type":"uint256"},{"internalType":"uint256","name":"","type":"uint256"}],"name":"poolVote","outputs":[{"internalType":"address","name":"","type":"address"}],"stateMutability":"view","type":"function"},{"inputs":[{"internalType":"uint256","name":"tokenId","type":"uint256"}],"name":"poolVoteLength","outputs":[{"internalType":"uint256","name":"","type":"uint256"}],"stateMutability":"view","type":"function"},{"inputs":[{"internalType":"uint256","name":"","type":"uint256"}],"name":"pools","outputs":[{"internalType":"address","name":"","type":"address"}],"stateMutability":"view","type":"function"},{"inputs":[],"name":"renounceOwnership","outputs":[],"stateMutability":"nonpayable","type":"function"},{"inputs":[{"internalType":"uint256","name":"_tokenId","type":"uint256"}],"name":"reset","outputs":[],"stateMutability":"nonpayable","type":"function"},{"inputs":[{"internalType":"address","name":"_gauge","type":"address"}],"name":"reviveGauge","outputs":[],"stateMutability":"nonpayable","type":"function"},{"inputs":[{"internalType":"address","name":"_bribeFactory","type":"address"}],"name":"setBribeFactory","outputs":[],"stateMutability":"nonpayable","type":"function"},{"inputs":[{"internalType":"address","name":"_council","type":"address"}],"name":"setEmergencyCouncil","outputs":[],"stateMutability":"nonpayable","type":"function"},{"inputs":[{"internalType":"address","name":"_gaugeFactory","type":"address"}],"name":"setGaugeFactory","outputs":[],"stateMutability":"nonpayable","type":"function"},{"inputs":[{"internalType":"address","name":"_governor","type":"address"}],"name":"setGovernor","outputs":[],"stateMutability":"nonpayable","type":"function"},{"inputs":[{"internalType":"address","name":"_minter","type":"address"}],"name":"setMinter","outputs":[],"stateMutability":"nonpayable","type":"function"},{"inputs":[{"internalType":"address","name":"_gauge","type":"address"},{"internalType":"address","name":"_internal","type":"address"},{"internalType":"address","name":"_external","type":"address"}],"name":"setNewBribe","outputs":[],"stateMutability":"nonpayable","type":"function"},{"inputs":[{"internalType":"address","name":"_factory","type":"address"}],"name":"setPairFactory","outputs":[],"stateMutability":"nonpayable","type":"function"},{"inputs":[{"internalType":"address","name":"__ve","type":"address"}],"name":"setVotingEscrow","outputs":[],"stateMutability":"nonpayable","type":"function"},{"inputs":[],"name":"totalWeight","outputs":[{"internalType":"uint256","name":"","type":"uint256"}],"stateMutability":"view","type":"function"},{"inputs":[{"internalType":"address","name":"newOwner","type":"address"}],"name":"transferOwnership","outputs":[],"stateMutability":"nonpayable","type":"function"},{"inputs":[],"name":"updateAll","outputs":[],"stateMutability":"nonpayable","type":"function"},{"inputs":[{"internalType":"address[]","name":"_gauges","type":"address[]"}],"name":"updateFor","outputs":[],"stateMutability":"nonpayable","type":"function"},{"inputs":[{"internalType":"uint256","name":"start","type":"uint256"},{"internalType":"uint256","name":"end","type":"uint256"}],"name":"updateForRange","outputs":[],"stateMutability":"nonpayable","type":"function"},{"inputs":[{"internalType":"address","name":"_gauge","type":"address"}],"name":"updateGauge","outputs":[],"stateMutability":"nonpayable","type":"function"},{"inputs":[{"internalType":"uint256","name":"","type":"uint256"}],"name":"usedWeights","outputs":[{"internalType":"uint256","name":"","type":"uint256"}],"stateMutability":"view","type":"function"},{"inputs":[{"internalType":"uint256","name":"_tokenId","type":"uint256"},{"internalType":"address[]","name":"_poolVote","type":"address[]"},{"internalType":"uint256[]","name":"_weights","type":"uint256[]"}],"name":"vote","outputs":[],"stateMutability":"nonpayable","type":"function"},{"inputs":[{"internalType":"uint256","name":"","type":"uint256"},{"internalType":"address","name":"","type":"address"}],"name":"votes","outputs":[{"internalType":"uint256","name":"","type":"uint256"}],"stateMutability":"view","type":"function"},{"inputs":[{"internalType":"address","name":"","type":"address"}],"name":"weights","outputs":[{"internalType":"uint256","name":"","type":"uint256"}],"stateMutability":"view","type":"function"},{"inputs":[{"internalType":"address","name":"_token","type":"address"}],"name":"whitelist","outputs":[],"stateMutability":"nonpayable","type":"function"},{"inputs":[{"internalType":"address[]","name":"_token","type":"address[]"}],"name":"whitelist","outputs":[],"stateMutability":"nonpayable","type":"function"}],"evm":{"bytecode":{"linkReferences":{},"object":"608060405234801561001057600080fd5b50614598806100206000396000f3fe608060405234801561001057600080fd5b50600436106103e65760003560e01c80638dd598fb1161020a578063b9a09fd511610125578063d560b0d7116100b8578063f2fde38b11610087578063f2fde38b14610954578063f3594be014610967578063f8c8765e14610987578063fca3b5aa1461099a578063ff5f03be146109ad57600080fd5b8063d560b0d7146108f2578063e586875f14610905578063ea94ee4414610918578063eae40f261461092b57600080fd5b8063c45a0155116100f4578063c45a01551461088e578063c527ee1f146108a1578063ce5ec92e146108b4578063d23254b4146108c757600080fd5b8063b9a09fd51461081f578063bd8aa78014610848578063c42cf5351461085b578063c445d88a1461086e57600080fd5b8063a61c713a1161019d578063a9b5aa7e1161016c578063a9b5aa7e146107ad578063aa79979b146107c0578063ac4afa38146107e3578063ae21c4cb146107f657600080fd5b8063a61c713a14610754578063a6357ac614610767578063a7cac8461461077a578063a86a366d1461079a57600080fd5b80639b6a9d72116101d95780639b6a9d72146107085780639edfd4601461071b5780639f06247b1461072e578063a5f4301e1461074157600080fd5b80638dd598fb146106c657806396c82e57146106d9578063992a7933146106e25780639b19251a146106f557600080fd5b806353d78693116103055780636ecbe38a116102985780637778960e116102675780637778960e1461065c5780637964bac91461066f57806379e93824146106825780637ac09bf7146106a25780638da5cb5b146106b557600080fd5b80636ecbe38a1461061b578063715018a61461062e5780637625391a146106365780637715ee751461064957600080fd5b80636447e7da116102d45780636447e7da146105c2578063666256aa146105e257806368c3acb3146105f5578063698473e31461060857600080fd5b806353d7869314610581578063556e091d146105895780636138889b1461059c57806363453ae1146105af57600080fd5b8063310bd74b1161037d5780633c6b16ab1161034c5780633c6b16ab14610533578063402914f514610546578063411b1f7714610566578063436596c41461057957600080fd5b8063310bd74b146104d757806332145f90146104ea57806338752a9d146104fd5780633af32abf1461051057600080fd5b80631703e5f9116103b95780631703e5f91461046c5780631f7b6d321461049f57806320b1cb6f146104b157806323130d11146104c457600080fd5b8063046fddf3146103eb57806306d6a1b21461040057806307546172146104465780630c340a2414610459575b600080fd5b6103fe6103f9366004613cec565b6109c0565b005b61042961040e366004613d3e565b60a6602052600090815260409020546001600160a01b031681565b6040516001600160a01b0390911681526020015b60405180910390f35b609c54610429906001600160a01b031681565b609d54610429906001600160a01b031681565b61048f61047a366004613d3e565b60b06020526000908152604090205460ff1681565b604051901515815260200161043d565b60a3545b60405190815260200161043d565b6103fe6104bf366004613de2565b610a50565b6103fe6104d2366004613d3e565b610b06565b6103fe6104e5366004613e46565b610b3f565b6103fe6104f8366004613e46565b610c48565b609b54610429906001600160a01b031681565b61048f61051e366004613d3e565b60af6020526000908152604090205460ff1681565b6103fe610541366004613e46565b610e23565b6104a3610554366004613d3e565b60a16020526000908152604090205481565b6103fe610574366004613e5f565b610ec6565b6103fe610f84565b6103fe610f95565b6103fe610597366004613d3e565b610fa4565b6103fe6105aa366004613e84565b6110d0565b6103fe6105bd366004613d3e565b611110565b6104a36105d0366004613e46565b600090815260ab602052604090205490565b6103fe6105f0366004613ec1565b611310565b609a54610429906001600160a01b031681565b6103fe610616366004613e5f565b611443565b6103fe610629366004613d3e565b61151d565b6103fe611526565b6103fe610644366004613f2e565b611538565b6103fe610657366004613ec1565b61159e565b609e54610429906001600160a01b031681565b6103fe61067d366004613d3e565b6116cb565b6104a3610690366004613e46565b60ac6020526000908152604090205481565b6103fe6106b0366004613f9c565b611704565b6033546001600160a01b0316610429565b609754610429906001600160a01b031681565b6104a360a25481565b6103fe6106f0366004613d3e565b611823565b6103fe610703366004613d3e565b611909565b6103fe610716366004613f2e565b611929565b6103fe610729366004613d3e565b61198f565b6103fe61073c366004613d3e565b611ad5565b61042961074f366004613d3e565b611baa565b6103fe610762366004614016565b6124b9565b6103fe61077536600461404e565b61253d565b6104a3610788366004613d3e565b60a96020526000908152604090205481565b6104296107a8366004613f2e565b6125bb565b6103fe6107bb366004613d3e565b6125f3565b61048f6107ce366004613d3e565b60ae6020526000908152604090205460ff1681565b6104296107f1366004613e46565b61262c565b610429610804366004613d3e565b60a8602052600090815260409020546001600160a01b031681565b61042961082d366004613d3e565b60a4602052600090815260409020546001600160a01b031681565b6103fe610856366004613e84565b612656565b6103fe610869366004613d3e565b6126a0565b6104a361087c366004613d3e565b60a56020526000908152604090205481565b609854610429906001600160a01b031681565b6103fe6108af366004613e84565b6126d9565b6103fe6108c2366004613d3e565b6127f6565b6104a36108d5366004613e5f565b60aa60209081526000928352604080842090915290825290205481565b6103fe610900366004613e84565b61286d565b6103fe610913366004613d3e565b6128ad565b6103fe610926366004614016565b6128e6565b610429610939366004613d3e565b60a7602052600090815260409020546001600160a01b031681565b6103fe610962366004613d3e565b612945565b6104a3610975366004613e46565b60ad6020526000908152604090205481565b6103fe610995366004614099565b6129bb565b6103fe6109a8366004613d3e565b612bc0565b6103fe6109bb3660046140f5565b612bf9565b609c546001600160a01b03163314806109e35750609e546001600160a01b031633145b6109ec57600080fd5b60005b8251811015610a2c57610a1a838281518110610a0d57610a0d61414f565b60200260200101516130ae565b80610a248161417b565b9150506109ef565b50609c80546001600160a01b0319166001600160a01b039290921691909117905550565b60005b8251811015610b0157828181518110610a6e57610a6e61414f565b60200260200101516001600160a01b03166331279d3d33848481518110610a9757610a9761414f565b60200260200101516040518363ffffffff1660e01b8152600401610abc9291906141d8565b600060405180830381600087803b158015610ad657600080fd5b505af1158015610aea573d6000803e3d6000fd5b505050508080610af99061417b565b915050610a53565b505050565b609e546001600160a01b03163314610b1d57600080fd5b609a80546001600160a01b0319166001600160a01b0392909216919091179055565b610b47613121565b60975460405163430c208160e01b81526001600160a01b039091169063430c208190610b7990339085906004016141fc565b602060405180830381865afa158015610b96573d6000803e3d6000fd5b505050506040513d601f19601f82011682018060405250810190610bba9190614215565b610bc357600080fd5b600081815260ad60205260409020429055610bdd8161317a565b60975460405163c1f0fb9f60e01b8152600481018390526001600160a01b039091169063c1f0fb9f90602401600060405180830381600087803b158015610c2357600080fd5b505af1158015610c37573d6000803e3d6000fd5b50505050610c456001606555565b50565b610c50613121565b60975460405163430c208160e01b81526001600160a01b039091169063430c208190610c8290339085906004016141fc565b602060405180830381865afa158015610c9f573d6000803e3d6000fd5b505050506040513d601f19601f82011682018060405250810190610cc39190614215565b610ccc57600080fd5b600081815260ab6020908152604080832080548251818502810185019093528083529192909190830182828015610d2c57602002820191906000526020600020905b81546001600160a01b03168152600190910190602001808311610d0e575b5050505050905060008151905060008167ffffffffffffffff811115610d5457610d54613bf8565b604051908082528060200260200182016040528015610d7d578160200160208202803683370190505b50905060005b82811015610e0a5760aa60008681526020019081526020016000206000858381518110610db257610db261414f565b60200260200101516001600160a01b03166001600160a01b0316815260200190815260200160002054828281518110610ded57610ded61414f565b602090810291909101015280610e028161417b565b915050610d83565b50610e16848483613428565b505050610c456001606555565b609954610e3b906001600160a01b031633308461386c565b60a254600090610e5383670de0b6b3a7640000614237565b610e5d9190614256565b90508015610e7d5780609f6000828254610e779190614278565b90915550505b6099546040518381526001600160a01b039091169033907ff70d5c697de7ea828df48e5c4573cb2194c659f1901f70110c52b066dcf50826906020015b60405180910390a35050565b33600090815260ae602052604090205460ff16610ee257600080fd5b8115610f4757609754604051634c35bec560e11b8152600481018490526001600160a01b039091169063986b7d8a90602401600060405180830381600087803b158015610f2e57600080fd5b505af1158015610f42573d6000803e3d6000fd5b505050505b60405182815233906001600160a01b038316907fae268d9aab12f3605f58efd74fd3801fa812b03fdb44317eb70f46dff0e19e2290602001610eba565b60a354610f9390600090611538565b565b60a354610f9390600090611929565b609e546001600160a01b03163314610fbb57600080fd5b6001600160a01b038116600090815260ae60205260409020805460ff1916600117905560995460405163095ea7b360e01b81526001600160a01b039091169063095ea7b3906110119084906000906004016141fc565b6020604051808303816000875af1158015611030573d6000803e3d6000fd5b505050506040513d601f19601f820116820180604052508101906110549190614215565b5060995460405163095ea7b360e01b81526001600160a01b039091169063095ea7b390611089908490600019906004016141fc565b6020604051808303816000875af11580156110a8573d6000803e3d6000fd5b505050506040513d601f19601f820116820180604052508101906110cc9190614215565b5050565b60005b81518110156110cc576110fe8282815181106110f1576110f161414f565b6020026020010151611110565b806111088161417b565b9150506110d3565b611118613121565b609c60009054906101000a90046001600160a01b03166001600160a01b031663ed29fc116040518163ffffffff1660e01b81526004016020604051808303816000875af115801561116d573d6000803e3d6000fd5b505050506040513d601f19601f820116820180604052508101906111919190614290565b5061119b81613964565b6001600160a01b03808216600090815260a1602090815260408083205460a5835281842054609c548351631a2732c160e31b81529351929691959491169263d139960892600480830193928290030181865afa1580156111ff573d6000803e3d6000fd5b505050506040513d601f19601f820116820180604052508101906112239190614290565b905060008311801561123457508082105b15610e16576001600160a01b03808516600081815260a1602052604080822091909155609954905163b66503cf60e01b8152919263b66503cf92611280929091169087906004016141fc565b600060405180830381600087803b15801561129a57600080fd5b505af11580156112ae573d6000803e3d6000fd5b505050506001600160a01b038416600081815260a56020908152604091829020849055905185815233917f4fa9693cae526341d334e2862ca2413b2e503f1266255f9e0869fb36e6d89b17910160405180910390a3505050610c456001606555565b60975460405163430c208160e01b81526001600160a01b039091169063430c20819061134290339085906004016141fc565b602060405180830381865afa15801561135f573d6000803e3d6000fd5b505050506040513d601f19601f820116820180604052508101906113839190614215565b61138c57600080fd5b60005b835181101561143d578381815181106113aa576113aa61414f565b60200260200101516001600160a01b031663a7852afa838584815181106113d3576113d361414f565b60200260200101516040518363ffffffff1660e01b81526004016113f89291906142a9565b600060405180830381600087803b15801561141257600080fd5b505af1158015611426573d6000803e3d6000fd5b5050505080806114359061417b565b91505061138f565b50505050565b33600090815260ae602052604090205460ff1661145f57600080fd5b33600090815260b0602052604090205460ff1661147b57600080fd5b81156114e05760975460405163fbd3a29d60e01b8152600481018490526001600160a01b039091169063fbd3a29d90602401600060405180830381600087803b1580156114c757600080fd5b505af11580156114db573d6000803e3d6000fd5b505050505b60405182815233906001600160a01b038316907f60940192810a6fb3bce3fd3e2e3a13fd6ccc7605e963fb87ee971aba829989bd90602001610eba565b610c4581613964565b61152e613a65565b610f936000613abf565b815b81811015610b015761158c60a4600060a3848154811061155c5761155c61414f565b60009182526020808320909101546001600160a01b03908116845290830193909352604090910190205416611110565b806115968161417b565b91505061153a565b60975460405163430c208160e01b81526001600160a01b039091169063430c2081906115d090339085906004016141fc565b602060405180830381865afa1580156115ed573d6000803e3d6000fd5b505050506040513d601f19601f820116820180604052508101906116119190614215565b61161a57600080fd5b60005b835181101561143d578381815181106116385761163861414f565b60200260200101516001600160a01b031663a7852afa838584815181106116615761166161414f565b60200260200101516040518363ffffffff1660e01b81526004016116869291906142a9565b600060405180830381600087803b1580156116a057600080fd5b505af11580156116b4573d6000803e3d6000fd5b5050505080806116c39061417b565b91505061161d565b609e546001600160a01b031633146116e257600080fd5b609880546001600160a01b0319166001600160a01b0392909216919091179055565b61170c613121565b60975460405163430c208160e01b81526001600160a01b039091169063430c20819061173e90339089906004016141fc565b602060405180830381865afa15801561175b573d6000803e3d6000fd5b505050506040513d601f19601f8201168201806040525081019061177f9190614215565b61178857600080fd5b82811461179457600080fd5b600085815260ad602090815260409182902042905581518582028181018301909352858152611812928892889188918291908501908490808284376000920191909152505060408051602080890282810182019093528882529093508892508791829185019084908082843760009201919091525061342892505050565b61181c6001606555565b5050505050565b609e546001600160a01b031633146118565760405162461bcd60e51b815260040161184d906142c2565b60405180910390fd5b6001600160a01b038116600090815260b0602052604090205460ff166118b35760405162461bcd60e51b815260206004820152601260248201527119d85d59d948185b1c9958591e481919585960721b604482015260640161184d565b6001600160a01b038116600081815260b060209081526040808320805460ff1916905560a1909152808220829055517f04a5d3f5d80d22d9345acc80618f4a4e7e663cf9e1aed23b57d975acec002ba79190a250565b609d546001600160a01b0316331461192057600080fd5b610c45816130ae565b815b81811015610b015761197d60a4600060a3848154811061194d5761194d61414f565b60009182526020808320909101546001600160a01b03908116845290830193909352604090910190205416613964565b806119878161417b565b91505061192b565b609e546001600160a01b031633146119b95760405162461bcd60e51b815260040161184d906142c2565b6001600160a01b038116600090815260b0602052604090205460ff16611a165760405162461bcd60e51b815260206004820152601260248201527119d85d59d948185b1c9958591e481919585960721b604482015260640161184d565b6001600160a01b03808216600081815260b060209081526040808320805460ff19908116825560a180855283862086815560a68652848720805460a7885286892080546001600160a01b031990811690915560a88952878a208054821690559a1680895260a4885286892080548c1690558989528154909a16905560ae86528487208054841690558354909216909255925290829055517f04a5d3f5d80d22d9345acc80618f4a4e7e663cf9e1aed23b57d975acec002ba79190a25050565b609e546001600160a01b03163314611aff5760405162461bcd60e51b815260040161184d906142c2565b6001600160a01b038116600090815260b0602052604090205460ff1615611b5e5760405162461bcd60e51b8152602060048201526013602482015272676175676520616c726561647920616c69766560681b604482015260640161184d565b6001600160a01b038116600081815260b06020526040808220805460ff19166001179055517fed18e9faa3dccfd8aa45f69c4de40546b2ca9cccc4538a2323531656516db1aa9190a250565b6001600160a01b03818116600090815260a4602052604081205490911615611bfd5760405162461bcd60e51b815260206004820152600660248201526565786973747360d01b604482015260640161184d565b60408051600380825260808201909252600091602082016060803683375050604080516002808252606082018352939450600093909250906020830190803683370190505060985460405163e5e31b1360e01b81526001600160a01b0387811660048301529293506000929091169063e5e31b1390602401602060405180830381865afa158015611c92573d6000803e3d6000fd5b505050506040513d601f19601f82011682018060405250810190611cb69190614215565b90506000808215611e5e57866001600160a01b0316639d63848a6040518163ffffffff1660e01b81526004016040805180830381865afa158015611cfe573d6000803e3d6000fd5b505050506040513d601f19601f82011682018060405250810190611d2291906142f1565b80925081935050508185600081518110611d3e57611d3e61414f565b60200260200101906001600160a01b031690816001600160a01b0316815250508085600181518110611d7257611d7261414f565b60200260200101906001600160a01b031690816001600160a01b0316815250508184600081518110611da657611da661414f565b60200260200101906001600160a01b031690816001600160a01b0316815250508084600181518110611dda57611dda61414f565b6001600160a01b039283166020918202929092010152609954811690831614801590611e1457506099546001600160a01b03828116911614155b15611e5e5760995485516001600160a01b039091169086906002908110611e3d57611e3d61414f565b60200260200101906001600160a01b031690816001600160a01b0316815250505b609d546001600160a01b03163314611f215782611ea65760405162461bcd60e51b81526020600482015260066024820152650857dc1bdbdb60d21b604482015260640161184d565b6001600160a01b038216600090815260af602052604090205460ff168015611ee657506001600160a01b038116600090815260af602052604090205460ff165b611f215760405162461bcd60e51b815260206004820152600c60248201526b085dda1a5d195b1a5cdd195960a21b604482015260640161184d565b6000876001600160a01b03166395d89b416040518163ffffffff1660e01b8152600401600060405180830381865afa158015611f61573d6000803e3d6000fd5b505050506040513d6000823e601f3d908101601f19168201604052611f89919081019061434c565b604051602001611f9991906143e0565b60408051601f19818403018152919052609b549091506000906001600160a01b031661e66b611fd06033546001600160a01b031690565b8686866040518563ffffffff1660e01b8152600401611ff29493929190614417565b6020604051808303816000875af1158015612011573d6000803e3d6000fd5b505050506040513d601f19601f82011682018060405250810190612035919061446d565b9050886001600160a01b03166395d89b416040518163ffffffff1660e01b8152600401600060405180830381865afa158015612075573d6000803e3d6000fd5b505050506040513d6000823e601f3d908101601f1916820160405261209d919081019061434c565b6040516020016120ad919061448a565b60408051601f19818403018152919052609b549092506000906001600160a01b031661e66b6120e46033546001600160a01b031690565b8787876040518563ffffffff1660e01b81526004016121069493929190614417565b6020604051808303816000875af1158015612125573d6000803e3d6000fd5b505050506040513d601f19601f82011682018060405250810190612149919061446d565b609a546099546097546040516307379e7760e41b81526001600160a01b03928316600482015290821660248201528d82166044820152306064820152858216608482015281841660a482015289151560c4820152929350600092911690637379e7709060e4016020604051808303816000875af11580156121ce573d6000803e3d6000fd5b505050506040513d601f19601f820116820180604052508101906121f2919061446d565b60995460405163095ea7b360e01b81529192506001600160a01b03169063095ea7b390612227908490600019906004016141fc565b6020604051808303816000875af1158015612246573d6000803e3d6000fd5b505050506040513d601f19601f8201168201806040525081019061226a9190614215565b508260a76000836001600160a01b03166001600160a01b0316815260200190815260200160002060006101000a8154816001600160a01b0302191690836001600160a01b031602179055508160a86000836001600160a01b03166001600160a01b0316815260200190815260200160002060006101000a8154816001600160a01b0302191690836001600160a01b031602179055508060a460008d6001600160a01b03166001600160a01b0316815260200190815260200160002060006101000a8154816001600160a01b0302191690836001600160a01b031602179055508a60a66000836001600160a01b03166001600160a01b0316815260200190815260200160002060006101000a8154816001600160a01b0302191690836001600160a01b03160217905550600160ae6000836001600160a01b03166001600160a01b0316815260200190815260200160002060006101000a81548160ff021916908315150217905550600160b06000836001600160a01b03166001600160a01b0316815260200190815260200160002060006101000a81548160ff02191690831515021790555061241881613964565b60a380546001810182556000919091527f60859188cffe297f44dde29f2d2865634621f26215049caeb304ccba566a8b170180546001600160a01b0319166001600160a01b038d8116918217909255604080513381528684166020820152919285811692908516917fa4d97e9e7c65249b4cd01acb82add613adea98af32daf092366982f0a0d4e453910160405180910390a49a9950505050505050505050565b33600090815260ae602052604090205460ff166124d557600080fd5b33600090815260b0602052604090205460ff166124f157600080fd5b604080518481526020810183905233916001600160a01b038516917fdcbc1c05240f31ff3ad067ef1ee35ce4997762752e3a095284754544f4c709d791015b60405180910390a3505050565b609e546001600160a01b0316331461255457600080fd5b6001600160a01b038316600090815260ae60205260409020805460ff191660011790556001600160a01b03928316600090815260a76020908152604080832080549587166001600160a01b031996871617905560a890915290208054919093169116179055565b60ab60205281600052604060002081815481106125d757600080fd5b6000918252602090912001546001600160a01b03169150829050565b609e546001600160a01b0316331461260a57600080fd5b609b80546001600160a01b0319166001600160a01b0392909216919091179055565b60a3818154811061263c57600080fd5b6000918252602090912001546001600160a01b0316905081565b609d546001600160a01b0316331461266d57600080fd5b60005b81518110156110cc5761268e828281518110610a0d57610a0d61414f565b806126988161417b565b915050612670565b609d546001600160a01b031633146126b757600080fd5b609d80546001600160a01b0319166001600160a01b0392909216919091179055565b60005b81518110156110cc578181815181106126f7576126f761414f565b60200260200101516001600160a01b031663e57482136040518163ffffffff1660e01b8152600401602060405180830381865afa15801561273c573d6000803e3d6000fd5b505050506040513d601f19601f820116820180604052508101906127609190614215565b156127e4578181815181106127775761277761414f565b60200260200101516001600160a01b031663d294f0936040518163ffffffff1660e01b815260040160408051808303816000875af11580156127bd573d6000803e3d6000fd5b505050506040513d601f19601f820116820180604052508101906127e191906144c0565b50505b806127ee8161417b565b9150506126dc565b336128096033546001600160a01b031690565b6001600160a01b03161461284b5760405162461bcd60e51b81526020600482015260096024820152683737ba1037bbb732b960b91b604482015260640161184d565b609780546001600160a01b0319166001600160a01b0392909216919091179055565b60005b81518110156110cc5761289b82828151811061288e5761288e61414f565b6020026020010151613964565b806128a58161417b565b915050612870565b609e546001600160a01b031633146128c457600080fd5b609e80546001600160a01b0319166001600160a01b0392909216919091179055565b33600090815260ae602052604090205460ff1661290257600080fd5b604080518481526020810183905233916001600160a01b038516917ff341246adaac6f497bc2a656f546ab9e182111d630394f0c57c710a59a2cb5679101612530565b61294d613a65565b6001600160a01b0381166129b25760405162461bcd60e51b815260206004820152602660248201527f4f776e61626c653a206e6577206f776e657220697320746865207a65726f206160448201526564647265737360d01b606482015260840161184d565b610c4581613abf565b600054610100900460ff16158080156129db5750600054600160ff909116105b806129f55750303b1580156129f5575060005460ff166001145b612a585760405162461bcd60e51b815260206004820152602e60248201527f496e697469616c697a61626c653a20636f6e747261637420697320616c72656160448201526d191e481a5b9a5d1a585b1a5e995960921b606482015260840161184d565b6000805460ff191660011790558015612a7b576000805461ff0019166101001790555b612a83613b11565b612a8b613b40565b609780546001600160a01b038088166001600160a01b03199283168117909355609880549188169190921617905560408051637e062a3560e11b8152905163fc0c546a916004808201926020929091908290030181865afa158015612af4573d6000803e3d6000fd5b505050506040513d601f19601f82011682018060405250810190612b18919061446d565b609980546001600160a01b03199081166001600160a01b0393841617909155609a80548216868416179055609b8054821692851692909217909155609c8054339083168117909155609d8054831682179055609e8054909216179055801561181c576000805461ff0019169055604051600181527f7f26b83ff96e1f2b6a682f133852f6798a09c465da95921460cefb38474024989060200160405180910390a15050505050565b609e546001600160a01b03163314612bd757600080fd5b609c80546001600160a01b0319166001600160a01b0392909216919091179055565b609e546001600160a01b03163314612c1057600080fd5b60005b8151811015610b01576000828281518110612c3057612c3061414f565b602002602001015190506000848381518110612c4e57612c4e61414f565b60200260200101519050600080836001600160a01b0316639d63848a6040518163ffffffff1660e01b81526004016040805180830381865afa158015612c98573d6000803e3d6000fd5b505050506040513d601f19601f82011682018060405250810190612cbc91906142f1565b80925081935050506000846001600160a01b03166395d89b416040518163ffffffff1660e01b8152600401600060405180830381865afa158015612d04573d6000803e3d6000fd5b505050506040513d6000823e601f3d908101601f19168201604052612d2c919081019061434c565b604051602001612d3c91906143e0565b60408051601f19818403018152919052609b549091506000906001600160a01b031661e66b612d736033546001600160a01b031690565b8686866040518563ffffffff1660e01b8152600401612d959493929190614417565b6020604051808303816000875af1158015612db4573d6000803e3d6000fd5b505050506040513d601f19601f82011682018060405250810190612dd8919061446d565b9050856001600160a01b03166395d89b416040518163ffffffff1660e01b8152600401600060405180830381865afa158015612e18573d6000803e3d6000fd5b505050506040513d6000823e601f3d908101601f19168201604052612e40919081019061434c565b604051602001612e50919061448a565b60408051601f19818403018152919052609b549092506000906001600160a01b031661e66b612e876033546001600160a01b031690565b8787876040518563ffffffff1660e01b8152600401612ea99493929190614417565b6020604051808303816000875af1158015612ec8573d6000803e3d6000fd5b505050506040513d601f19601f82011682018060405250810190612eec919061446d565b60995460405163095ea7b360e01b81529192506001600160a01b03169063095ea7b390612f21908990600019906004016141fc565b6020604051808303816000875af1158015612f40573d6000803e3d6000fd5b505050506040513d601f19601f82011682018060405250810190612f649190614215565b506001600160a01b03868116600081815260a76020908152604080832080546001600160a01b03199081168988161790915560a8835281842080548216888816179055948c1680845260a48352818420805487168617905593835260a68252808320805490951690931790935560ae8352818120805460ff19908116600190811790925560b0909452919020805490921617905561300186613964565b60a380546001810182556000919091527f60859188cffe297f44dde29f2d2865634621f26215049caeb304ccba566a8b170180546001600160a01b0319166001600160a01b03898116918217909255604080513381528584166020820152919284811692908a16917fa4d97e9e7c65249b4cd01acb82add613adea98af32daf092366982f0a0d4e453910160405180910390a45050505050505080806130a69061417b565b915050612c13565b6001600160a01b038116600090815260af602052604090205460ff16156130d457600080fd5b6001600160a01b038116600081815260af6020526040808220805460ff191660011790555133917f6661a7108aecd07864384529117d96c319c1163e3010c01390f6b704726e07de91a350565b6002606554036131735760405162461bcd60e51b815260206004820152601f60248201527f5265656e7472616e637947756172643a207265656e7472616e742063616c6c00604482015260640161184d565b6002606555565b600081815260ab6020526040812080549091805b828110156133e55760008482815481106131aa576131aa61414f565b600091825260208083209091015488835260aa825260408084206001600160a01b039092168085529190925291205490915080156133d0576001600160a01b03808316600090815260a460205260409020546132069116613964565b6001600160a01b038216600090815260a960205260408120805483929061322e9084906144e4565b9091555050600087815260aa602090815260408083206001600160a01b0386168452909152812080548392906132659084906144e4565b90915550508015613389576001600160a01b03828116600090815260a460209081526040808320548416835260a79091529081902054905163278afc8b60e21b815260048101849052602481018a9052911690639e2bf22c90604401600060405180830381600087803b1580156132db57600080fd5b505af11580156132ef573d6000803e3d6000fd5b505050506001600160a01b03828116600090815260a460209081526040808320548416835260a89091529081902054905163278afc8b60e21b815260048101849052602481018a9052911690639e2bf22c90604401600060405180830381600087803b15801561335e57600080fd5b505af1158015613372573d6000803e3d6000fd5b5050505080846133829190614278565b9350613396565b61339381856144e4565b93505b60408051888152602081018390527fa9f3ca5f8a9e1580edb2741e0ba560084ec72e0067ba3423f9e9327a176882db910160405180910390a15b505080806133dd9061417b565b91505061318e565b508060a260008282546133f891906144e4565b9091555050600084815260ac6020908152604080832083905560ab909152812061143d91613bc6565b6001606555565b6134318361317a565b81516097546040516339f890b560e21b8152600481018690526000916001600160a01b03169063e7e242d490602401602060405180830381865afa15801561347d573d6000803e3d6000fd5b505050506040513d601f19601f820116820180604052508101906134a19190614290565b90506000806000805b858110156134eb578681815181106134c4576134c461414f565b6020026020010151846134d79190614278565b9350806134e38161417b565b9150506134aa565b5060005b858110156137d457600088828151811061350b5761350b61414f565b6020908102919091018101516001600160a01b03808216600090815260a4845260408082205490921680825260ae909452205490925060ff16156137bf57600086888b868151811061355f5761355f61414f565b60200260200101516135719190614237565b61357b9190614256565b60008d815260aa602090815260408083206001600160a01b0388168452909152902054909150156135ab57600080fd5b806000036135b857600080fd5b6135c182613964565b60008c815260ab6020908152604080832080546001810182559084528284200180546001600160a01b0319166001600160a01b038816908117909155835260a990915281208054839290613616908490614278565b909155505060008c815260aa602090815260408083206001600160a01b03871684529091528120805483929061364d908490614278565b90915550506001600160a01b03808316600090815260a760205260409081902054905163f320772360e01b815260048101849052602481018f905291169063f320772390604401600060405180830381600087803b1580156136ae57600080fd5b505af11580156136c2573d6000803e3d6000fd5b5050505060a86000836001600160a01b03166001600160a01b0316815260200190815260200160002060009054906101000a90046001600160a01b03166001600160a01b031663f3207723828e6040518363ffffffff1660e01b8152600401613735929190918252602082015260400190565b600060405180830381600087803b15801561374f57600080fd5b505af1158015613763573d6000803e3d6000fd5b5050505080856137739190614278565b945061377f8187614278565b604080518e81526020810184905291975033917fea66f58e474bc09f580000e81f31b334d171db387d0c6098ba47bd897741679b910160405180910390a2505b505080806137cc9061417b565b9150506134ef565b50801561383a5760975460405163fd4a77f160e01b8152600481018a90526001600160a01b039091169063fd4a77f190602401600060405180830381600087803b15801561382157600080fd5b505af1158015613835573d6000803e3d6000fd5b505050505b8160a2600082825461384c9190614278565b9091555050600097885260ac602052604090972096909655505050505050565b6000846001600160a01b03163b1161388357600080fd5b604080516001600160a01b0385811660248301528481166044830152606480830185905283518084039091018152608490920183526020820180516001600160e01b03166323b872dd60e01b17905291516000928392908816916138e791906144fb565b6000604051808303816000865af19150503d8060008114613924576040519150601f19603f3d011682016040523d82523d6000602084013e613929565b606091505b50915091508180156139535750805115806139535750808060200190518101906139539190614215565b61395c57600080fd5b505050505050565b6001600160a01b03808216600090815260a6602090815260408083205490931680835260a9909152919020548015613a44576001600160a01b038316600090815260a0602052604081208054609f5491829055916139c283836144e4565b9050801561395c576000670de0b6b3a76400006139df8387614237565b6139e99190614256565b6001600160a01b038816600090815260b0602052604090205490915060ff1615613a3b576001600160a01b038716600090815260a1602052604081208054839290613a35908490614278565b90915550505b50505050505050565b609f546001600160a01b038416600090815260a06020526040902055505050565b6033546001600160a01b03163314610f935760405162461bcd60e51b815260206004820181905260248201527f4f776e61626c653a2063616c6c6572206973206e6f7420746865206f776e6572604482015260640161184d565b603380546001600160a01b038381166001600160a01b0319831681179093556040519116919082907f8be0079c531659141344cd1fd0a4f28419497f9722a3daafe3b4186f6b6457e090600090a35050565b600054610100900460ff16613b385760405162461bcd60e51b815260040161184d90614517565b610f93613b6f565b600054610100900460ff16613b675760405162461bcd60e51b815260040161184d90614517565b610f93613b9f565b600054610100900460ff16613b965760405162461bcd60e51b815260040161184d90614517565b610f9333613abf565b600054610100900460ff166134215760405162461bcd60e51b815260040161184d90614517565b5080546000825590600052602060002090810190610c4591905b80821115613bf45760008155600101613be0565b5090565b634e487b7160e01b600052604160045260246000fd5b604051601f8201601f1916810167ffffffffffffffff81118282101715613c3757613c37613bf8565b604052919050565b600067ffffffffffffffff821115613c5957613c59613bf8565b5060051b60200190565b6001600160a01b0381168114610c4557600080fd5b600082601f830112613c8957600080fd5b81356020613c9e613c9983613c3f565b613c0e565b82815260059290921b84018101918181019086841115613cbd57600080fd5b8286015b84811015613ce1578035613cd481613c63565b8352918301918301613cc1565b509695505050505050565b60008060408385031215613cff57600080fd5b823567ffffffffffffffff811115613d1657600080fd5b613d2285828601613c78565b9250506020830135613d3381613c63565b809150509250929050565b600060208284031215613d5057600080fd5b8135613d5b81613c63565b9392505050565b600082601f830112613d7357600080fd5b81356020613d83613c9983613c3f565b82815260059290921b84018101918181019086841115613da257600080fd5b8286015b84811015613ce157803567ffffffffffffffff811115613dc65760008081fd5b613dd48986838b0101613c78565b845250918301918301613da6565b60008060408385031215613df557600080fd5b823567ffffffffffffffff80821115613e0d57600080fd5b613e1986838701613c78565b93506020850135915080821115613e2f57600080fd5b50613e3c85828601613d62565b9150509250929050565b600060208284031215613e5857600080fd5b5035919050565b60008060408385031215613e7257600080fd5b823591506020830135613d3381613c63565b600060208284031215613e9657600080fd5b813567ffffffffffffffff811115613ead57600080fd5b613eb984828501613c78565b949350505050565b600080600060608486031215613ed657600080fd5b833567ffffffffffffffff80821115613eee57600080fd5b613efa87838801613c78565b94506020860135915080821115613f1057600080fd5b50613f1d86828701613d62565b925050604084013590509250925092565b60008060408385031215613f4157600080fd5b50508035926020909101359150565b60008083601f840112613f6257600080fd5b50813567ffffffffffffffff811115613f7a57600080fd5b6020830191508360208260051b8501011115613f9557600080fd5b9250929050565b600080600080600060608688031215613fb457600080fd5b85359450602086013567ffffffffffffffff80821115613fd357600080fd5b613fdf89838a01613f50565b90965094506040880135915080821115613ff857600080fd5b5061400588828901613f50565b969995985093965092949392505050565b60008060006060848603121561402b57600080fd5b83359250602084013561403d81613c63565b929592945050506040919091013590565b60008060006060848603121561406357600080fd5b833561406e81613c63565b9250602084013561407e81613c63565b9150604084013561408e81613c63565b809150509250925092565b600080600080608085870312156140af57600080fd5b84356140ba81613c63565b935060208501356140ca81613c63565b925060408501356140da81613c63565b915060608501356140ea81613c63565b939692955090935050565b6000806040838503121561410857600080fd5b823567ffffffffffffffff8082111561412057600080fd5b61412c86838701613c78565b9350602085013591508082111561414257600080fd5b50613e3c85828601613c78565b634e487b7160e01b600052603260045260246000fd5b634e487b7160e01b600052601160045260246000fd5b60006001820161418d5761418d614165565b5060010190565b600081518084526020808501945080840160005b838110156141cd5781516001600160a01b0316875295820195908201906001016141a8565b509495945050505050565b6001600160a01b0383168152604060208201819052600090613eb990830184614194565b6001600160a01b03929092168252602082015260400190565b60006020828403121561422757600080fd5b81518015158114613d5b57600080fd5b600081600019048311821515161561425157614251614165565b500290565b60008261427357634e487b7160e01b600052601260045260246000fd5b500490565b6000821982111561428b5761428b614165565b500190565b6000602082840312156142a257600080fd5b5051919050565b828152604060208201526000613eb96040830184614194565b6020808252601590820152741b9bdd08195b595c99d95b98de4818dbdd5b98da5b605a1b604082015260600190565b6000806040838503121561430457600080fd5b825161430f81613c63565b6020840151909250613d3381613c63565b60005b8381101561433b578181015183820152602001614323565b8381111561143d5750506000910152565b60006020828403121561435e57600080fd5b815167ffffffffffffffff8082111561437657600080fd5b818401915084601f83011261438a57600080fd5b81518181111561439c5761439c613bf8565b6143af601f8201601f1916602001613c0e565b91508082528560208285010111156143c657600080fd5b6143d7816020840160208601614320565b50949350505050565b6e02a3432b730902628102332b2b99d1608d1b81526000825161440a81600f850160208701614320565b91909101600f0192915050565b600060018060a01b03808716835280861660208401528085166040840152506080606083015282518060808401526144568160a0850160208701614320565b601f01601f19169190910160a00195945050505050565b60006020828403121561447f57600080fd5b8151613d5b81613c63565b6d02a3432b73090213934b132b99d160951b8152600082516144b381600e850160208701614320565b91909101600e0192915050565b600080604083850312156144d357600080fd5b505080516020909101519092909150565b6000828210156144f6576144f6614165565b500390565b6000825161450d818460208701614320565b9190910192915050565b6020808252602b908201527f496e697469616c697a61626c653a20636f6e7472616374206973206e6f74206960408201526a6e697469616c697a696e6760a81b60608201526080019056fea264697066735822122090661ebe4a823ad1f7308b4b285e77bfe6fd44b43571174d2c419523a1ba318f64736f6c634300080d0033","opcodes":"PUSH1 0x80 PUSH1 0x40 MSTORE CALLVALUE DUP1 ISZERO PUSH2 0x10 JUMPI PUSH1 0x0 DUP1 REVERT JUMPDEST POP PUSH2 0x4598 DUP1 PUSH2 0x20 PUSH1 0x0 CODECOPY PUSH1 0x0 RETURN INVALID PUSH1 0x80 PUSH1 0x40 MSTORE CALLVALUE DUP1 ISZERO PUSH2 0x10 JUMPI PUSH1 0x0 DUP1 REVERT JUMPDEST POP PUSH1 0x4 CALLDATASIZE LT PUSH2 0x3E6 JUMPI PUSH1 0x0 CALLDATALOAD PUSH1 0xE0 SHR DUP1 PUSH4 0x8DD598FB GT PUSH2 0x20A JUMPI DUP1 PUSH4 0xB9A09FD5 GT PUSH2 0x125 JUMPI DUP1 PUSH4 0xD560B0D7 GT PUSH2 0xB8 JUMPI DUP1 PUSH4 0xF2FDE38B GT PUSH2 0x87 JUMPI DUP1 PUSH4 0xF2FDE38B EQ PUSH2 0x954 JUMPI DUP1 PUSH4 0xF3594BE0 EQ PUSH2 0x967 JUMPI DUP1 PUSH4 0xF8C8765E EQ PUSH2 0x987 JUMPI DUP1 PUSH4 0xFCA3B5AA EQ PUSH2 0x99A JUMPI DUP1 PUSH4 0xFF5F03BE EQ PUSH2 0x9AD JUMPI PUSH1 0x0 DUP1 REVERT JUMPDEST DUP1 PUSH4 0xD560B0D7 EQ PUSH2 0x8F2 JUMPI DUP1 PUSH4 0xE586875F EQ PUSH2 0x905 JUMPI DUP1 PUSH4 0xEA94EE44 EQ PUSH2 0x918 JUMPI DUP1 PUSH4 0xEAE40F26 EQ PUSH2 0x92B JUMPI PUSH1 0x0 DUP1 REVERT JUMPDEST DUP1 PUSH4 0xC45A0155 GT PUSH2 0xF4 JUMPI DUP1 PUSH4 0xC45A0155 EQ PUSH2 0x88E JUMPI DUP1 PUSH4 0xC527EE1F EQ PUSH2 0x8A1 JUMPI DUP1 PUSH4 0xCE5EC92E EQ PUSH2 0x8B4 JUMPI DUP1 PUSH4 0xD23254B4 EQ PUSH2 0x8C7 JUMPI PUSH1 0x0 DUP1 REVERT JUMPDEST DUP1 PUSH4 0xB9A09FD5 EQ PUSH2 0x81F JUMPI DUP1 PUSH4 0xBD8AA780 EQ PUSH2 0x848 JUMPI DUP1 PUSH4 0xC42CF535 EQ PUSH2 0x85B JUMPI DUP1 PUSH4 0xC445D88A EQ PUSH2 0x86E JUMPI PUSH1 0x0 DUP1 REVERT JUMPDEST DUP1 PUSH4 0xA61C713A GT PUSH2 0x19D JUMPI DUP1 PUSH4 0xA9B5AA7E GT PUSH2 0x16C JUMPI DUP1 PUSH4 0xA9B5AA7E EQ PUSH2 0x7AD JUMPI DUP1 PUSH4 0xAA79979B EQ PUSH2 0x7C0 JUMPI DUP1 PUSH4 0xAC4AFA38 EQ PUSH2 0x7E3 JUMPI DUP1 PUSH4 0xAE21C4CB EQ PUSH2 0x7F6 JUMPI PUSH1 0x0 DUP1 REVERT JUMPDEST DUP1 PUSH4 0xA61C713A EQ PUSH2 0x754 JUMPI DUP1 PUSH4 0xA6357AC6 EQ PUSH2 0x767 JUMPI DUP1 PUSH4 0xA7CAC846 EQ PUSH2 0x77A JUMPI DUP1 PUSH4 0xA86A366D EQ PUSH2 0x79A JUMPI PUSH1 0x0 DUP1 REVERT JUMPDEST DUP1 PUSH4 0x9B6A9D72 GT PUSH2 0x1D9 JUMPI DUP1 PUSH4 0x9B6A9D72 EQ PUSH2 0x708 JUMPI DUP1 PUSH4 0x9EDFD460 EQ PUSH2 0x71B JUMPI DUP1 PUSH4 0x9F06247B EQ PUSH2 0x72E JUMPI DUP1 PUSH4 0xA5F4301E EQ PUSH2 0x741 JUMPI PUSH1 0x0 DUP1 REVERT JUMPDEST DUP1 PUSH4 0x8DD598FB EQ PUSH2 0x6C6 JUMPI DUP1 PUSH4 0x96C82E57 EQ PUSH2 0x6D9 JUMPI DUP1 PUSH4 0x992A7933 EQ PUSH2 0x6E2 JUMPI DUP1 PUSH4 0x9B19251A EQ PUSH2 0x6F5 JUMPI PUSH1 0x0 DUP1 REVERT JUMPDEST DUP1 PUSH4 0x53D78693 GT PUSH2 0x305 JUMPI DUP1 PUSH4 0x6ECBE38A GT PUSH2 0x298 JUMPI DUP1 PUSH4 0x7778960E GT PUSH2 0x267 JUMPI DUP1 PUSH4 0x7778960E EQ PUSH2 0x65C JUMPI DUP1 PUSH4 0x7964BAC9 EQ PUSH2 0x66F JUMPI DUP1 PUSH4 0x79E93824 EQ PUSH2 0x682 JUMPI DUP1 PUSH4 0x7AC09BF7 EQ PUSH2 0x6A2 JUMPI DUP1 PUSH4 0x8DA5CB5B EQ PUSH2 0x6B5 JUMPI PUSH1 0x0 DUP1 REVERT JUMPDEST DUP1 PUSH4 0x6ECBE38A EQ PUSH2 0x61B JUMPI DUP1 PUSH4 0x715018A6 EQ PUSH2 0x62E JUMPI DUP1 PUSH4 0x7625391A EQ PUSH2 0x636 JUMPI DUP1 PUSH4 0x7715EE75 EQ PUSH2 0x649 JUMPI PUSH1 0x0 DUP1 REVERT JUMPDEST DUP1 PUSH4 0x6447E7DA GT PUSH2 0x2D4 JUMPI DUP1 PUSH4 0x6447E7DA EQ PUSH2 0x5C2 JUMPI DUP1 PUSH4 0x666256AA EQ PUSH2 0x5E2 JUMPI DUP1 PUSH4 0x68C3ACB3 EQ PUSH2 0x5F5 JUMPI DUP1 PUSH4 0x698473E3 EQ PUSH2 0x608 JUMPI PUSH1 0x0 DUP1 REVERT JUMPDEST DUP1 PUSH4 0x53D78693 EQ PUSH2 0x581 JUMPI DUP1 PUSH4 0x556E091D EQ PUSH2 0x589 JUMPI DUP1 PUSH4 0x6138889B EQ PUSH2 0x59C JUMPI DUP1 PUSH4 0x63453AE1 EQ PUSH2 0x5AF JUMPI PUSH1 0x0 DUP1 REVERT JUMPDEST DUP1 PUSH4 0x310BD74B GT PUSH2 0x37D JUMPI DUP1 PUSH4 0x3C6B16AB GT PUSH2 0x34C JUMPI DUP1 PUSH4 0x3C6B16AB EQ PUSH2 0x533 JUMPI DUP1 PUSH4 0x402914F5 EQ PUSH2 0x546 JUMPI DUP1 PUSH4 0x411B1F77 EQ PUSH2 0x566 JUMPI DUP1 PUSH4 0x436596C4 EQ PUSH2 0x579 JUMPI PUSH1 0x0 DUP1 REVERT JUMPDEST DUP1 PUSH4 0x310BD74B EQ PUSH2 0x4D7 JUMPI DUP1 PUSH4 0x32145F90 EQ PUSH2 0x4EA JUMPI DUP1 PUSH4 0x38752A9D EQ PUSH2 0x4FD JUMPI DUP1 PUSH4 0x3AF32ABF EQ PUSH2 0x510 JUMPI PUSH1 0x0 DUP1 REVERT JUMPDEST DUP1 PUSH4 0x1703E5F9 GT PUSH2 0x3B9 JUMPI DUP1 PUSH4 0x1703E5F9 EQ PUSH2 0x46C JUMPI DUP1 PUSH4 0x1F7B6D32 EQ PUSH2 0x49F JUMPI DUP1 PUSH4 0x20B1CB6F EQ PUSH2 0x4B1 JUMPI DUP1 PUSH4 0x23130D11 EQ PUSH2 0x4C4 JUMPI PUSH1 0x0 DUP1 REVERT JUMPDEST DUP1 PUSH4 0x46FDDF3 EQ PUSH2 0x3EB JUMPI DUP1 PUSH4 0x6D6A1B2 EQ PUSH2 0x400 JUMPI DUP1 PUSH4 0x7546172 EQ PUSH2 0x446 JUMPI DUP1 PUSH4 0xC340A24 EQ PUSH2 0x459 JUMPI JUMPDEST PUSH1 0x0 DUP1 REVERT JUMPDEST PUSH2 0x3FE PUSH2 0x3F9 CALLDATASIZE PUSH1 0x4 PUSH2 0x3CEC JUMP JUMPDEST PUSH2 0x9C0 JUMP JUMPDEST STOP JUMPDEST PUSH2 0x429 PUSH2 0x40E CALLDATASIZE PUSH1 0x4 PUSH2 0x3D3E JUMP JUMPDEST PUSH1 0xA6 PUSH1 0x20 MSTORE PUSH1 0x0 SWAP1 DUP2 MSTORE PUSH1 0x40 SWAP1 KECCAK256 SLOAD PUSH1 0x1 PUSH1 0x1 PUSH1 0xA0 SHL SUB AND DUP2 JUMP JUMPDEST PUSH1 0x40 MLOAD PUSH1 0x1 PUSH1 0x1 PUSH1 0xA0 SHL SUB SWAP1 SWAP2 AND DUP2 MSTORE PUSH1 0x20 ADD JUMPDEST PUSH1 0x40 MLOAD DUP1 SWAP2 SUB SWAP1 RETURN JUMPDEST PUSH1 0x9C SLOAD PUSH2 0x429 SWAP1 PUSH1 0x1 PUSH1 0x1 PUSH1 0xA0 SHL SUB AND DUP2 JUMP JUMPDEST PUSH1 0x9D SLOAD PUSH2 0x429 SWAP1 PUSH1 0x1 PUSH1 0x1 PUSH1 0xA0 SHL SUB AND DUP2 JUMP JUMPDEST PUSH2 0x48F PUSH2 0x47A CALLDATASIZE PUSH1 0x4 PUSH2 0x3D3E JUMP JUMPDEST PUSH1 0xB0 PUSH1 0x20 MSTORE PUSH1 0x0 SWAP1 DUP2 MSTORE PUSH1 0x40 SWAP1 KECCAK256 SLOAD PUSH1 0xFF AND DUP2 JUMP JUMPDEST PUSH1 0x40 MLOAD SWAP1 ISZERO ISZERO DUP2 MSTORE PUSH1 0x20 ADD PUSH2 0x43D JUMP JUMPDEST PUSH1 0xA3 SLOAD JUMPDEST PUSH1 0x40 MLOAD SWAP1 DUP2 MSTORE PUSH1 0x20 ADD PUSH2 0x43D JUMP JUMPDEST PUSH2 0x3FE PUSH2 0x4BF CALLDATASIZE PUSH1 0x4 PUSH2 0x3DE2 JUMP JUMPDEST PUSH2 0xA50 JUMP JUMPDEST PUSH2 0x3FE PUSH2 0x4D2 CALLDATASIZE PUSH1 0x4 PUSH2 0x3D3E JUMP JUMPDEST PUSH2 0xB06 JUMP JUMPDEST PUSH2 0x3FE PUSH2 0x4E5 CALLDATASIZE PUSH1 0x4 PUSH2 0x3E46 JUMP JUMPDEST PUSH2 0xB3F JUMP JUMPDEST PUSH2 0x3FE PUSH2 0x4F8 CALLDATASIZE PUSH1 0x4 PUSH2 0x3E46 JUMP JUMPDEST PUSH2 0xC48 JUMP JUMPDEST PUSH1 0x9B SLOAD PUSH2 0x429 SWAP1 PUSH1 0x1 PUSH1 0x1 PUSH1 0xA0 SHL SUB AND DUP2 JUMP JUMPDEST PUSH2 0x48F PUSH2 0x51E CALLDATASIZE PUSH1 0x4 PUSH2 0x3D3E JUMP JUMPDEST PUSH1 0xAF PUSH1 0x20 MSTORE PUSH1 0x0 SWAP1 DUP2 MSTORE PUSH1 0x40 SWAP1 KECCAK256 SLOAD PUSH1 0xFF AND DUP2 JUMP JUMPDEST PUSH2 0x3FE PUSH2 0x541 CALLDATASIZE PUSH1 0x4 PUSH2 0x3E46 JUMP JUMPDEST PUSH2 0xE23 JUMP JUMPDEST PUSH2 0x4A3 PUSH2 0x554 CALLDATASIZE PUSH1 0x4 PUSH2 0x3D3E JUMP JUMPDEST PUSH1 0xA1 PUSH1 0x20 MSTORE PUSH1 0x0 SWAP1 DUP2 MSTORE PUSH1 0x40 SWAP1 KECCAK256 SLOAD DUP2 JUMP JUMPDEST PUSH2 0x3FE PUSH2 0x574 CALLDATASIZE PUSH1 0x4 PUSH2 0x3E5F JUMP JUMPDEST PUSH2 0xEC6 JUMP JUMPDEST PUSH2 0x3FE PUSH2 0xF84 JUMP JUMPDEST PUSH2 0x3FE PUSH2 0xF95 JUMP JUMPDEST PUSH2 0x3FE PUSH2 0x597 CALLDATASIZE PUSH1 0x4 PUSH2 0x3D3E JUMP JUMPDEST PUSH2 0xFA4 JUMP JUMPDEST PUSH2 0x3FE PUSH2 0x5AA CALLDATASIZE PUSH1 0x4 PUSH2 0x3E84 JUMP JUMPDEST PUSH2 0x10D0 JUMP JUMPDEST PUSH2 0x3FE PUSH2 0x5BD CALLDATASIZE PUSH1 0x4 PUSH2 0x3D3E JUMP JUMPDEST PUSH2 0x1110 JUMP JUMPDEST PUSH2 0x4A3 PUSH2 0x5D0 CALLDATASIZE PUSH1 0x4 PUSH2 0x3E46 JUMP JUMPDEST PUSH1 0x0 SWAP1 DUP2 MSTORE PUSH1 0xAB PUSH1 0x20 MSTORE PUSH1 0x40 SWAP1 KECCAK256 SLOAD SWAP1 JUMP JUMPDEST PUSH2 0x3FE PUSH2 0x5F0 CALLDATASIZE PUSH1 0x4 PUSH2 0x3EC1 JUMP JUMPDEST PUSH2 0x1310 JUMP JUMPDEST PUSH1 0x9A SLOAD PUSH2 0x429 SWAP1 PUSH1 0x1 PUSH1 0x1 PUSH1 0xA0 SHL SUB AND DUP2 JUMP JUMPDEST PUSH2 0x3FE PUSH2 0x616 CALLDATASIZE PUSH1 0x4 PUSH2 0x3E5F JUMP JUMPDEST PUSH2 0x1443 JUMP JUMPDEST PUSH2 0x3FE PUSH2 0x629 CALLDATASIZE PUSH1 0x4 PUSH2 0x3D3E JUMP JUMPDEST PUSH2 0x151D JUMP JUMPDEST PUSH2 0x3FE PUSH2 0x1526 JUMP JUMPDEST PUSH2 0x3FE PUSH2 0x644 CALLDATASIZE PUSH1 0x4 PUSH2 0x3F2E JUMP JUMPDEST PUSH2 0x1538 JUMP JUMPDEST PUSH2 0x3FE PUSH2 0x657 CALLDATASIZE PUSH1 0x4 PUSH2 0x3EC1 JUMP JUMPDEST PUSH2 0x159E JUMP JUMPDEST PUSH1 0x9E SLOAD PUSH2 0x429 SWAP1 PUSH1 0x1 PUSH1 0x1 PUSH1 0xA0 SHL SUB AND DUP2 JUMP JUMPDEST PUSH2 0x3FE PUSH2 0x67D CALLDATASIZE PUSH1 0x4 PUSH2 0x3D3E JUMP JUMPDEST PUSH2 0x16CB JUMP JUMPDEST PUSH2 0x4A3 PUSH2 0x690 CALLDATASIZE PUSH1 0x4 PUSH2 0x3E46 JUMP JUMPDEST PUSH1 0xAC PUSH1 0x20 MSTORE PUSH1 0x0 SWAP1 DUP2 MSTORE PUSH1 0x40 SWAP1 KECCAK256 SLOAD DUP2 JUMP JUMPDEST PUSH2 0x3FE PUSH2 0x6B0 CALLDATASIZE PUSH1 0x4 PUSH2 0x3F9C JUMP JUMPDEST PUSH2 0x1704 JUMP JUMPDEST PUSH1 0x33 SLOAD PUSH1 0x1 PUSH1 0x1 PUSH1 0xA0 SHL SUB AND PUSH2 0x429 JUMP JUMPDEST PUSH1 0x97 SLOAD PUSH2 0x429 SWAP1 PUSH1 0x1 PUSH1 0x1 PUSH1 0xA0 SHL SUB AND DUP2 JUMP JUMPDEST PUSH2 0x4A3 PUSH1 0xA2 SLOAD DUP2 JUMP JUMPDEST PUSH2 0x3FE PUSH2 0x6F0 CALLDATASIZE PUSH1 0x4 PUSH2 0x3D3E JUMP JUMPDEST PUSH2 0x1823 JUMP JUMPDEST PUSH2 0x3FE PUSH2 0x703 CALLDATASIZE PUSH1 0x4 PUSH2 0x3D3E JUMP JUMPDEST PUSH2 0x1909 JUMP JUMPDEST PUSH2 0x3FE PUSH2 0x716 CALLDATASIZE PUSH1 0x4 PUSH2 0x3F2E JUMP JUMPDEST PUSH2 0x1929 JUMP JUMPDEST PUSH2 0x3FE PUSH2 0x729 CALLDATASIZE PUSH1 0x4 PUSH2 0x3D3E JUMP JUMPDEST PUSH2 0x198F JUMP JUMPDEST PUSH2 0x3FE PUSH2 0x73C CALLDATASIZE PUSH1 0x4 PUSH2 0x3D3E JUMP JUMPDEST PUSH2 0x1AD5 JUMP JUMPDEST PUSH2 0x429 PUSH2 0x74F CALLDATASIZE PUSH1 0x4 PUSH2 0x3D3E JUMP JUMPDEST PUSH2 0x1BAA JUMP JUMPDEST PUSH2 0x3FE PUSH2 0x762 CALLDATASIZE PUSH1 0x4 PUSH2 0x4016 JUMP JUMPDEST PUSH2 0x24B9 JUMP JUMPDEST PUSH2 0x3FE PUSH2 0x775 CALLDATASIZE PUSH1 0x4 PUSH2 0x404E JUMP JUMPDEST PUSH2 0x253D JUMP JUMPDEST PUSH2 0x4A3 PUSH2 0x788 CALLDATASIZE PUSH1 0x4 PUSH2 0x3D3E JUMP JUMPDEST PUSH1 0xA9 PUSH1 0x20 MSTORE PUSH1 0x0 SWAP1 DUP2 MSTORE PUSH1 0x40 SWAP1 KECCAK256 SLOAD DUP2 JUMP JUMPDEST PUSH2 0x429 PUSH2 0x7A8 CALLDATASIZE PUSH1 0x4 PUSH2 0x3F2E JUMP JUMPDEST PUSH2 0x25BB JUMP JUMPDEST PUSH2 0x3FE PUSH2 0x7BB CALLDATASIZE PUSH1 0x4 PUSH2 0x3D3E JUMP JUMPDEST PUSH2 0x25F3 JUMP JUMPDEST PUSH2 0x48F PUSH2 0x7CE CALLDATASIZE PUSH1 0x4 PUSH2 0x3D3E JUMP JUMPDEST PUSH1 0xAE PUSH1 0x20 MSTORE PUSH1 0x0 SWAP1 DUP2 MSTORE PUSH1 0x40 SWAP1 KECCAK256 SLOAD PUSH1 0xFF AND DUP2 JUMP JUMPDEST PUSH2 0x429 PUSH2 0x7F1 CALLDATASIZE PUSH1 0x4 PUSH2 0x3E46 JUMP JUMPDEST PUSH2 0x262C JUMP JUMPDEST PUSH2 0x429 PUSH2 0x804 CALLDATASIZE PUSH1 0x4 PUSH2 0x3D3E JUMP JUMPDEST PUSH1 0xA8 PUSH1 0x20 MSTORE PUSH1 0x0 SWAP1 DUP2 MSTORE PUSH1 0x40 SWAP1 KECCAK256 SLOAD PUSH1 0x1 PUSH1 0x1 PUSH1 0xA0 SHL SUB AND DUP2 JUMP JUMPDEST PUSH2 0x429 PUSH2 0x82D CALLDATASIZE PUSH1 0x4 PUSH2 0x3D3E JUMP JUMPDEST PUSH1 0xA4 PUSH1 0x20 MSTORE PUSH1 0x0 SWAP1 DUP2 MSTORE PUSH1 0x40 SWAP1 KECCAK256 SLOAD PUSH1 0x1 PUSH1 0x1 PUSH1 0xA0 SHL SUB AND DUP2 JUMP JUMPDEST PUSH2 0x3FE PUSH2 0x856 CALLDATASIZE PUSH1 0x4 PUSH2 0x3E84 JUMP JUMPDEST PUSH2 0x2656 JUMP JUMPDEST PUSH2 0x3FE PUSH2 0x869 CALLDATASIZE PUSH1 0x4 PUSH2 0x3D3E JUMP JUMPDEST PUSH2 0x26A0 JUMP JUMPDEST PUSH2 0x4A3 PUSH2 0x87C CALLDATASIZE PUSH1 0x4 PUSH2 0x3D3E JUMP JUMPDEST PUSH1 0xA5 PUSH1 0x20 MSTORE PUSH1 0x0 SWAP1 DUP2 MSTORE PUSH1 0x40 SWAP1 KECCAK256 SLOAD DUP2 JUMP JUMPDEST PUSH1 0x98 SLOAD PUSH2 0x429 SWAP1 PUSH1 0x1 PUSH1 0x1 PUSH1 0xA0 SHL SUB AND DUP2 JUMP JUMPDEST PUSH2 0x3FE PUSH2 0x8AF CALLDATASIZE PUSH1 0x4 PUSH2 0x3E84 JUMP JUMPDEST PUSH2 0x26D9 JUMP JUMPDEST PUSH2 0x3FE PUSH2 0x8C2 CALLDATASIZE PUSH1 0x4 PUSH2 0x3D3E JUMP JUMPDEST PUSH2 0x27F6 JUMP JUMPDEST PUSH2 0x4A3 PUSH2 0x8D5 CALLDATASIZE PUSH1 0x4 PUSH2 0x3E5F JUMP JUMPDEST PUSH1 0xAA PUSH1 0x20 SWAP1 DUP2 MSTORE PUSH1 0x0 SWAP3 DUP4 MSTORE PUSH1 0x40 DUP1 DUP5 KECCAK256 SWAP1 SWAP2 MSTORE SWAP1 DUP3 MSTORE SWAP1 KECCAK256 SLOAD DUP2 JUMP JUMPDEST PUSH2 0x3FE PUSH2 0x900 CALLDATASIZE PUSH1 0x4 PUSH2 0x3E84 JUMP JUMPDEST PUSH2 0x286D JUMP JUMPDEST PUSH2 0x3FE PUSH2 0x913 CALLDATASIZE PUSH1 0x4 PUSH2 0x3D3E JUMP JUMPDEST PUSH2 0x28AD JUMP JUMPDEST PUSH2 0x3FE PUSH2 0x926 CALLDATASIZE PUSH1 0x4 PUSH2 0x4016 JUMP JUMPDEST PUSH2 0x28E6 JUMP JUMPDEST PUSH2 0x429 PUSH2 0x939 CALLDATASIZE PUSH1 0x4 PUSH2 0x3D3E JUMP JUMPDEST PUSH1 0xA7 PUSH1 0x20 MSTORE PUSH1 0x0 SWAP1 DUP2 MSTORE PUSH1 0x40 SWAP1 KECCAK256 SLOAD PUSH1 0x1 PUSH1 0x1 PUSH1 0xA0 SHL SUB AND DUP2 JUMP JUMPDEST PUSH2 0x3FE PUSH2 0x962 CALLDATASIZE PUSH1 0x4 PUSH2 0x3D3E JUMP JUMPDEST PUSH2 0x2945 JUMP JUMPDEST PUSH2 0x4A3 PUSH2 0x975 CALLDATASIZE PUSH1 0x4 PUSH2 0x3E46 JUMP JUMPDEST PUSH1 0xAD PUSH1 0x20 MSTORE PUSH1 0x0 SWAP1 DUP2 MSTORE PUSH1 0x40 SWAP1 KECCAK256 SLOAD DUP2 JUMP JUMPDEST PUSH2 0x3FE PUSH2 0x995 CALLDATASIZE PUSH1 0x4 PUSH2 0x4099 JUMP JUMPDEST PUSH2 0x29BB JUMP JUMPDEST PUSH2 0x3FE PUSH2 0x9A8 CALLDATASIZE PUSH1 0x4 PUSH2 0x3D3E JUMP JUMPDEST PUSH2 0x2BC0 JUMP JUMPDEST PUSH2 0x3FE PUSH2 0x9BB CALLDATASIZE PUSH1 0x4 PUSH2 0x40F5 JUMP JUMPDEST PUSH2 0x2BF9 JUMP JUMPDEST PUSH1 0x9C SLOAD PUSH1 0x1 PUSH1 0x1 PUSH1 0xA0 SHL SUB AND CALLER EQ DUP1 PUSH2 0x9E3 JUMPI POP PUSH1 0x9E SLOAD PUSH1 0x1 PUSH1 0x1 PUSH1 0xA0 SHL SUB AND CALLER EQ JUMPDEST PUSH2 0x9EC JUMPI PUSH1 0x0 DUP1 REVERT JUMPDEST PUSH1 0x0 JUMPDEST DUP3 MLOAD DUP2 LT ISZERO PUSH2 0xA2C JUMPI PUSH2 0xA1A DUP4 DUP3 DUP2 MLOAD DUP2 LT PUSH2 0xA0D JUMPI PUSH2 0xA0D PUSH2 0x414F JUMP JUMPDEST PUSH1 0x20 MUL PUSH1 0x20 ADD ADD MLOAD PUSH2 0x30AE JUMP JUMPDEST DUP1 PUSH2 0xA24 DUP2 PUSH2 0x417B JUMP JUMPDEST SWAP2 POP POP PUSH2 0x9EF JUMP JUMPDEST POP PUSH1 0x9C DUP1 SLOAD PUSH1 0x1 PUSH1 0x1 PUSH1 0xA0 SHL SUB NOT AND PUSH1 0x1 PUSH1 0x1 PUSH1 0xA0 SHL SUB SWAP3 SWAP1 SWAP3 AND SWAP2 SWAP1 SWAP2 OR SWAP1 SSTORE POP JUMP JUMPDEST PUSH1 0x0 JUMPDEST DUP3 MLOAD DUP2 LT ISZERO PUSH2 0xB01 JUMPI DUP3 DUP2 DUP2 MLOAD DUP2 LT PUSH2 0xA6E JUMPI PUSH2 0xA6E PUSH2 0x414F JUMP JUMPDEST PUSH1 0x20 MUL PUSH1 0x20 ADD ADD MLOAD PUSH1 0x1 PUSH1 0x1 PUSH1 0xA0 SHL SUB AND PUSH4 0x31279D3D CALLER DUP5 DUP5 DUP2 MLOAD DUP2 LT PUSH2 0xA97 JUMPI PUSH2 0xA97 PUSH2 0x414F JUMP JUMPDEST PUSH1 0x20 MUL PUSH1 0x20 ADD ADD MLOAD PUSH1 0x40 MLOAD DUP4 PUSH4 0xFFFFFFFF AND PUSH1 0xE0 SHL DUP2 MSTORE PUSH1 0x4 ADD PUSH2 0xABC SWAP3 SWAP2 SWAP1 PUSH2 0x41D8 JUMP JUMPDEST PUSH1 0x0 PUSH1 0x40 MLOAD DUP1 DUP4 SUB DUP2 PUSH1 0x0 DUP8 DUP1 EXTCODESIZE ISZERO DUP1 ISZERO PUSH2 0xAD6 JUMPI PUSH1 0x0 DUP1 REVERT JUMPDEST POP GAS CALL ISZERO DUP1 ISZERO PUSH2 0xAEA JUMPI RETURNDATASIZE PUSH1 0x0 DUP1 RETURNDATACOPY RETURNDATASIZE PUSH1 0x0 REVERT JUMPDEST POP POP POP POP DUP1 DUP1 PUSH2 0xAF9 SWAP1 PUSH2 0x417B JUMP JUMPDEST SWAP2 POP POP PUSH2 0xA53 JUMP JUMPDEST POP POP POP JUMP JUMPDEST PUSH1 0x9E SLOAD PUSH1 0x1 PUSH1 0x1 PUSH1 0xA0 SHL SUB AND CALLER EQ PUSH2 0xB1D JUMPI PUSH1 0x0 DUP1 REVERT JUMPDEST PUSH1 0x9A DUP1 SLOAD PUSH1 0x1 PUSH1 0x1 PUSH1 0xA0 SHL SUB NOT AND PUSH1 0x1 PUSH1 0x1 PUSH1 0xA0 SHL SUB SWAP3 SWAP1 SWAP3 AND SWAP2 SWAP1 SWAP2 OR SWAP1 SSTORE JUMP JUMPDEST PUSH2 0xB47 PUSH2 0x3121 JUMP JUMPDEST PUSH1 0x97 SLOAD PUSH1 0x40 MLOAD PUSH4 0x430C2081 PUSH1 0xE0 SHL DUP2 MSTORE PUSH1 0x1 PUSH1 0x1 PUSH1 0xA0 SHL SUB SWAP1 SWAP2 AND SWAP1 PUSH4 0x430C2081 SWAP1 PUSH2 0xB79 SWAP1 CALLER SWAP1 DUP6 SWAP1 PUSH1 0x4 ADD PUSH2 0x41FC JUMP JUMPDEST PUSH1 0x20 PUSH1 0x40 MLOAD DUP1 DUP4 SUB DUP2 DUP7 GAS STATICCALL ISZERO DUP1 ISZERO PUSH2 0xB96 JUMPI RETURNDATASIZE PUSH1 0x0 DUP1 RETURNDATACOPY RETURNDATASIZE PUSH1 0x0 REVERT JUMPDEST POP POP POP POP PUSH1 0x40 MLOAD RETURNDATASIZE PUSH1 0x1F NOT PUSH1 0x1F DUP3 ADD AND DUP3 ADD DUP1 PUSH1 0x40 MSTORE POP DUP2 ADD SWAP1 PUSH2 0xBBA SWAP2 SWAP1 PUSH2 0x4215 JUMP JUMPDEST PUSH2 0xBC3 JUMPI PUSH1 0x0 DUP1 REVERT JUMPDEST PUSH1 0x0 DUP2 DUP2 MSTORE PUSH1 0xAD PUSH1 0x20 MSTORE PUSH1 0x40 SWAP1 KECCAK256 TIMESTAMP SWAP1 SSTORE PUSH2 0xBDD DUP2 PUSH2 0x317A JUMP JUMPDEST PUSH1 0x97 SLOAD PUSH1 0x40 MLOAD PUSH4 0xC1F0FB9F PUSH1 0xE0 SHL DUP2 MSTORE PUSH1 0x4 DUP2 ADD DUP4 SWAP1 MSTORE PUSH1 0x1 PUSH1 0x1 PUSH1 0xA0 SHL SUB SWAP1 SWAP2 AND SWAP1 PUSH4 0xC1F0FB9F SWAP1 PUSH1 0x24 ADD PUSH1 0x0 PUSH1 0x40 MLOAD DUP1 DUP4 SUB DUP2 PUSH1 0x0 DUP8 DUP1 EXTCODESIZE ISZERO DUP1 ISZERO PUSH2 0xC23 JUMPI PUSH1 0x0 DUP1 REVERT JUMPDEST POP GAS CALL ISZERO DUP1 ISZERO PUSH2 0xC37 JUMPI RETURNDATASIZE PUSH1 0x0 DUP1 RETURNDATACOPY RETURNDATASIZE PUSH1 0x0 REVERT JUMPDEST POP POP POP POP PUSH2 0xC45 PUSH1 0x1 PUSH1 0x65 SSTORE JUMP JUMPDEST POP JUMP JUMPDEST PUSH2 0xC50 PUSH2 0x3121 JUMP JUMPDEST PUSH1 0x97 SLOAD PUSH1 0x40 MLOAD PUSH4 0x430C2081 PUSH1 0xE0 SHL DUP2 MSTORE PUSH1 0x1 PUSH1 0x1 PUSH1 0xA0 SHL SUB SWAP1 SWAP2 AND SWAP1 PUSH4 0x430C2081 SWAP1 PUSH2 0xC82 SWAP1 CALLER SWAP1 DUP6 SWAP1 PUSH1 0x4 ADD PUSH2 0x41FC JUMP JUMPDEST PUSH1 0x20 PUSH1 0x40 MLOAD DUP1 DUP4 SUB DUP2 DUP7 GAS STATICCALL ISZERO DUP1 ISZERO PUSH2 0xC9F JUMPI RETURNDATASIZE PUSH1 0x0 DUP1 RETURNDATACOPY RETURNDATASIZE PUSH1 0x0 REVERT JUMPDEST POP POP POP POP PUSH1 0x40 MLOAD RETURNDATASIZE PUSH1 0x1F NOT PUSH1 0x1F DUP3 ADD AND DUP3 ADD DUP1 PUSH1 0x40 MSTORE POP DUP2 ADD SWAP1 PUSH2 0xCC3 SWAP2 SWAP1 PUSH2 0x4215 JUMP JUMPDEST PUSH2 0xCCC JUMPI PUSH1 0x0 DUP1 REVERT JUMPDEST PUSH1 0x0 DUP2 DUP2 MSTORE PUSH1 0xAB PUSH1 0x20 SWAP1 DUP2 MSTORE PUSH1 0x40 DUP1 DUP4 KECCAK256 DUP1 SLOAD DUP3 MLOAD DUP2 DUP6 MUL DUP2 ADD DUP6 ADD SWAP1 SWAP4 MSTORE DUP1 DUP4 MSTORE SWAP2 SWAP3 SWAP1 SWAP2 SWAP1 DUP4 ADD DUP3 DUP3 DUP1 ISZERO PUSH2 0xD2C JUMPI PUSH1 0x20 MUL DUP3 ADD SWAP2 SWAP1 PUSH1 0x0 MSTORE PUSH1 0x20 PUSH1 0x0 KECCAK256 SWAP1 JUMPDEST DUP2 SLOAD PUSH1 0x1 PUSH1 0x1 PUSH1 0xA0 SHL SUB AND DUP2 MSTORE PUSH1 0x1 SWAP1 SWAP2 ADD SWAP1 PUSH1 0x20 ADD DUP1 DUP4 GT PUSH2 0xD0E JUMPI JUMPDEST POP POP POP POP POP SWAP1 POP PUSH1 0x0 DUP2 MLOAD SWAP1 POP PUSH1 0x0 DUP2 PUSH8 0xFFFFFFFFFFFFFFFF DUP2 GT ISZERO PUSH2 0xD54 JUMPI PUSH2 0xD54 PUSH2 0x3BF8 JUMP JUMPDEST PUSH1 0x40 MLOAD SWAP1 DUP1 DUP3 MSTORE DUP1 PUSH1 0x20 MUL PUSH1 0x20 ADD DUP3 ADD PUSH1 0x40 MSTORE DUP1 ISZERO PUSH2 0xD7D JUMPI DUP2 PUSH1 0x20 ADD PUSH1 0x20 DUP3 MUL DUP1 CALLDATASIZE DUP4 CALLDATACOPY ADD SWAP1 POP JUMPDEST POP SWAP1 POP PUSH1 0x0 JUMPDEST DUP3 DUP2 LT ISZERO PUSH2 0xE0A JUMPI PUSH1 0xAA PUSH1 0x0 DUP7 DUP2 MSTORE PUSH1 0x20 ADD SWAP1 DUP2 MSTORE PUSH1 0x20 ADD PUSH1 0x0 KECCAK256 PUSH1 0x0 DUP6 DUP4 DUP2 MLOAD DUP2 LT PUSH2 0xDB2 JUMPI PUSH2 0xDB2 PUSH2 0x414F JUMP JUMPDEST PUSH1 0x20 MUL PUSH1 0x20 ADD ADD MLOAD PUSH1 0x1 PUSH1 0x1 PUSH1 0xA0 SHL SUB AND PUSH1 0x1 PUSH1 0x1 PUSH1 0xA0 SHL SUB AND DUP2 MSTORE PUSH1 0x20 ADD SWAP1 DUP2 MSTORE PUSH1 0x20 ADD PUSH1 0x0 KECCAK256 SLOAD DUP3 DUP3 DUP2 MLOAD DUP2 LT PUSH2 0xDED JUMPI PUSH2 0xDED PUSH2 0x414F JUMP JUMPDEST PUSH1 0x20 SWAP1 DUP2 MUL SWAP2 SWAP1 SWAP2 ADD ADD MSTORE DUP1 PUSH2 0xE02 DUP2 PUSH2 0x417B JUMP JUMPDEST SWAP2 POP POP PUSH2 0xD83 JUMP JUMPDEST POP PUSH2 0xE16 DUP5 DUP5 DUP4 PUSH2 0x3428 JUMP JUMPDEST POP POP POP PUSH2 0xC45 PUSH1 0x1 PUSH1 0x65 SSTORE JUMP JUMPDEST PUSH1 0x99 SLOAD PUSH2 0xE3B SWAP1 PUSH1 0x1 PUSH1 0x1 PUSH1 0xA0 SHL SUB AND CALLER ADDRESS DUP5 PUSH2 0x386C JUMP JUMPDEST PUSH1 0xA2 SLOAD PUSH1 0x0 SWAP1 PUSH2 0xE53 DUP4 PUSH8 0xDE0B6B3A7640000 PUSH2 0x4237 JUMP JUMPDEST PUSH2 0xE5D SWAP2 SWAP1 PUSH2 0x4256 JUMP JUMPDEST SWAP1 POP DUP1 ISZERO PUSH2 0xE7D JUMPI DUP1 PUSH1 0x9F PUSH1 0x0 DUP3 DUP3 SLOAD PUSH2 0xE77 SWAP2 SWAP1 PUSH2 0x4278 JUMP JUMPDEST SWAP1 SWAP2 SSTORE POP POP JUMPDEST PUSH1 0x99 SLOAD PUSH1 0x40 MLOAD DUP4 DUP2 MSTORE PUSH1 0x1 PUSH1 0x1 PUSH1 0xA0 SHL SUB SWAP1 SWAP2 AND SWAP1 CALLER SWAP1 PUSH32 0xF70D5C697DE7EA828DF48E5C4573CB2194C659F1901F70110C52B066DCF50826 SWAP1 PUSH1 0x20 ADD JUMPDEST PUSH1 0x40 MLOAD DUP1 SWAP2 SUB SWAP1 LOG3 POP POP JUMP JUMPDEST CALLER PUSH1 0x0 SWAP1 DUP2 MSTORE PUSH1 0xAE PUSH1 0x20 MSTORE PUSH1 0x40 SWAP1 KECCAK256 SLOAD PUSH1 0xFF AND PUSH2 0xEE2 JUMPI PUSH1 0x0 DUP1 REVERT JUMPDEST DUP2 ISZERO PUSH2 0xF47 JUMPI PUSH1 0x97 SLOAD PUSH1 0x40 MLOAD PUSH4 0x4C35BEC5 PUSH1 0xE1 SHL DUP2 MSTORE PUSH1 0x4 DUP2 ADD DUP5 SWAP1 MSTORE PUSH1 0x1 PUSH1 0x1 PUSH1 0xA0 SHL SUB SWAP1 SWAP2 AND SWAP1 PUSH4 0x986B7D8A SWAP1 PUSH1 0x24 ADD PUSH1 0x0 PUSH1 0x40 MLOAD DUP1 DUP4 SUB DUP2 PUSH1 0x0 DUP8 DUP1 EXTCODESIZE ISZERO DUP1 ISZERO PUSH2 0xF2E JUMPI PUSH1 0x0 DUP1 REVERT JUMPDEST POP GAS CALL ISZERO DUP1 ISZERO PUSH2 0xF42 JUMPI RETURNDATASIZE PUSH1 0x0 DUP1 RETURNDATACOPY RETURNDATASIZE PUSH1 0x0 REVERT JUMPDEST POP POP POP POP JUMPDEST PUSH1 0x40 MLOAD DUP3 DUP2 MSTORE CALLER SWAP1 PUSH1 0x1 PUSH1 0x1 PUSH1 0xA0 SHL SUB DUP4 AND SWAP1 PUSH32 0xAE268D9AAB12F3605F58EFD74FD3801FA812B03FDB44317EB70F46DFF0E19E22 SWAP1 PUSH1 0x20 ADD PUSH2 0xEBA JUMP JUMPDEST PUSH1 0xA3 SLOAD PUSH2 0xF93 SWAP1 PUSH1 0x0 SWAP1 PUSH2 0x1538 JUMP JUMPDEST JUMP JUMPDEST PUSH1 0xA3 SLOAD PUSH2 0xF93 SWAP1 PUSH1 0x0 SWAP1 PUSH2 0x1929 JUMP JUMPDEST PUSH1 0x9E SLOAD PUSH1 0x1 PUSH1 0x1 PUSH1 0xA0 SHL SUB AND CALLER EQ PUSH2 0xFBB JUMPI PUSH1 0x0 DUP1 REVERT JUMPDEST PUSH1 0x1 PUSH1 0x1 PUSH1 0xA0 SHL SUB DUP2 AND PUSH1 0x0 SWAP1 DUP2 MSTORE PUSH1 0xAE PUSH1 0x20 MSTORE PUSH1 0x40 SWAP1 KECCAK256 DUP1 SLOAD PUSH1 0xFF NOT AND PUSH1 0x1 OR SWAP1 SSTORE PUSH1 0x99 SLOAD PUSH1 0x40 MLOAD PUSH4 0x95EA7B3 PUSH1 0xE0 SHL DUP2 MSTORE PUSH1 0x1 PUSH1 0x1 PUSH1 0xA0 SHL SUB SWAP1 SWAP2 AND SWAP1 PUSH4 0x95EA7B3 SWAP1 PUSH2 0x1011 SWAP1 DUP5 SWAP1 PUSH1 0x0 SWAP1 PUSH1 0x4 ADD PUSH2 0x41FC JUMP JUMPDEST PUSH1 0x20 PUSH1 0x40 MLOAD DUP1 DUP4 SUB DUP2 PUSH1 0x0 DUP8 GAS CALL ISZERO DUP1 ISZERO PUSH2 0x1030 JUMPI RETURNDATASIZE PUSH1 0x0 DUP1 RETURNDATACOPY RETURNDATASIZE PUSH1 0x0 REVERT JUMPDEST POP POP POP POP PUSH1 0x40 MLOAD RETURNDATASIZE PUSH1 0x1F NOT PUSH1 0x1F DUP3 ADD AND DUP3 ADD DUP1 PUSH1 0x40 MSTORE POP DUP2 ADD SWAP1 PUSH2 0x1054 SWAP2 SWAP1 PUSH2 0x4215 JUMP JUMPDEST POP PUSH1 0x99 SLOAD PUSH1 0x40 MLOAD PUSH4 0x95EA7B3 PUSH1 0xE0 SHL DUP2 MSTORE PUSH1 0x1 PUSH1 0x1 PUSH1 0xA0 SHL SUB SWAP1 SWAP2 AND SWAP1 PUSH4 0x95EA7B3 SWAP1 PUSH2 0x1089 SWAP1 DUP5 SWAP1 PUSH1 0x0 NOT SWAP1 PUSH1 0x4 ADD PUSH2 0x41FC JUMP JUMPDEST PUSH1 0x20 PUSH1 0x40 MLOAD DUP1 DUP4 SUB DUP2 PUSH1 0x0 DUP8 GAS CALL ISZERO DUP1 ISZERO PUSH2 0x10A8 JUMPI RETURNDATASIZE PUSH1 0x0 DUP1 RETURNDATACOPY RETURNDATASIZE PUSH1 0x0 REVERT JUMPDEST POP POP POP POP PUSH1 0x40 MLOAD RETURNDATASIZE PUSH1 0x1F NOT PUSH1 0x1F DUP3 ADD AND DUP3 ADD DUP1 PUSH1 0x40 MSTORE POP DUP2 ADD SWAP1 PUSH2 0x10CC SWAP2 SWAP1 PUSH2 0x4215 JUMP JUMPDEST POP POP JUMP JUMPDEST PUSH1 0x0 JUMPDEST DUP2 MLOAD DUP2 LT ISZERO PUSH2 0x10CC JUMPI PUSH2 0x10FE DUP3 DUP3 DUP2 MLOAD DUP2 LT PUSH2 0x10F1 JUMPI PUSH2 0x10F1 PUSH2 0x414F JUMP JUMPDEST PUSH1 0x20 MUL PUSH1 0x20 ADD ADD MLOAD PUSH2 0x1110 JUMP JUMPDEST DUP1 PUSH2 0x1108 DUP2 PUSH2 0x417B JUMP JUMPDEST SWAP2 POP POP PUSH2 0x10D3 JUMP JUMPDEST PUSH2 0x1118 PUSH2 0x3121 JUMP JUMPDEST PUSH1 0x9C PUSH1 0x0 SWAP1 SLOAD SWAP1 PUSH2 0x100 EXP SWAP1 DIV PUSH1 0x1 PUSH1 0x1 PUSH1 0xA0 SHL SUB AND PUSH1 0x1 PUSH1 0x1 PUSH1 0xA0 SHL SUB AND PUSH4 0xED29FC11 PUSH1 0x40 MLOAD DUP2 PUSH4 0xFFFFFFFF AND PUSH1 0xE0 SHL DUP2 MSTORE PUSH1 0x4 ADD PUSH1 0x20 PUSH1 0x40 MLOAD DUP1 DUP4 SUB DUP2 PUSH1 0x0 DUP8 GAS CALL ISZERO DUP1 ISZERO PUSH2 0x116D JUMPI RETURNDATASIZE PUSH1 0x0 DUP1 RETURNDATACOPY RETURNDATASIZE PUSH1 0x0 REVERT JUMPDEST POP POP POP POP PUSH1 0x40 MLOAD RETURNDATASIZE PUSH1 0x1F NOT PUSH1 0x1F DUP3 ADD AND DUP3 ADD DUP1 PUSH1 0x40 MSTORE POP DUP2 ADD SWAP1 PUSH2 0x1191 SWAP2 SWAP1 PUSH2 0x4290 JUMP JUMPDEST POP PUSH2 0x119B DUP2 PUSH2 0x3964 JUMP JUMPDEST PUSH1 0x1 PUSH1 0x1 PUSH1 0xA0 SHL SUB DUP1 DUP3 AND PUSH1 0x0 SWAP1 DUP2 MSTORE PUSH1 0xA1 PUSH1 0x20 SWAP1 DUP2 MSTORE PUSH1 0x40 DUP1 DUP4 KECCAK256 SLOAD PUSH1 0xA5 DUP4 MSTORE DUP2 DUP5 KECCAK256 SLOAD PUSH1 0x9C SLOAD DUP4 MLOAD PUSH4 0x1A2732C1 PUSH1 0xE3 SHL DUP2 MSTORE SWAP4 MLOAD SWAP3 SWAP7 SWAP2 SWAP6 SWAP5 SWAP2 AND SWAP3 PUSH4 0xD1399608 SWAP3 PUSH1 0x4 DUP1 DUP4 ADD SWAP4 SWAP3 DUP3 SWAP1 SUB ADD DUP2 DUP7 GAS STATICCALL ISZERO DUP1 ISZERO PUSH2 0x11FF JUMPI RETURNDATASIZE PUSH1 0x0 DUP1 RETURNDATACOPY RETURNDATASIZE PUSH1 0x0 REVERT JUMPDEST POP POP POP POP PUSH1 0x40 MLOAD RETURNDATASIZE PUSH1 0x1F NOT PUSH1 0x1F DUP3 ADD AND DUP3 ADD DUP1 PUSH1 0x40 MSTORE POP DUP2 ADD SWAP1 PUSH2 0x1223 SWAP2 SWAP1 PUSH2 0x4290 JUMP JUMPDEST SWAP1 POP PUSH1 0x0 DUP4 GT DUP1 ISZERO PUSH2 0x1234 JUMPI POP DUP1 DUP3 LT JUMPDEST ISZERO PUSH2 0xE16 JUMPI PUSH1 0x1 PUSH1 0x1 PUSH1 0xA0 SHL SUB DUP1 DUP6 AND PUSH1 0x0 DUP2 DUP2 MSTORE PUSH1 0xA1 PUSH1 0x20 MSTORE PUSH1 0x40 DUP1 DUP3 KECCAK256 SWAP2 SWAP1 SWAP2 SSTORE PUSH1 0x99 SLOAD SWAP1 MLOAD PUSH4 0xB66503CF PUSH1 0xE0 SHL DUP2 MSTORE SWAP2 SWAP3 PUSH4 0xB66503CF SWAP3 PUSH2 0x1280 SWAP3 SWAP1 SWAP2 AND SWAP1 DUP8 SWAP1 PUSH1 0x4 ADD PUSH2 0x41FC JUMP JUMPDEST PUSH1 0x0 PUSH1 0x40 MLOAD DUP1 DUP4 SUB DUP2 PUSH1 0x0 DUP8 DUP1 EXTCODESIZE ISZERO DUP1 ISZERO PUSH2 0x129A JUMPI PUSH1 0x0 DUP1 REVERT JUMPDEST POP GAS CALL ISZERO DUP1 ISZERO PUSH2 0x12AE JUMPI RETURNDATASIZE PUSH1 0x0 DUP1 RETURNDATACOPY RETURNDATASIZE PUSH1 0x0 REVERT JUMPDEST POP POP POP POP PUSH1 0x1 PUSH1 0x1 PUSH1 0xA0 SHL SUB DUP5 AND PUSH1 0x0 DUP2 DUP2 MSTORE PUSH1 0xA5 PUSH1 0x20 SWAP1 DUP2 MSTORE PUSH1 0x40 SWAP2 DUP3 SWAP1 KECCAK256 DUP5 SWAP1 SSTORE SWAP1 MLOAD DUP6 DUP2 MSTORE CALLER SWAP2 PUSH32 0x4FA9693CAE526341D334E2862CA2413B2E503F1266255F9E0869FB36E6D89B17 SWAP2 ADD PUSH1 0x40 MLOAD DUP1 SWAP2 SUB SWAP1 LOG3 POP POP POP PUSH2 0xC45 PUSH1 0x1 PUSH1 0x65 SSTORE JUMP JUMPDEST PUSH1 0x97 SLOAD PUSH1 0x40 MLOAD PUSH4 0x430C2081 PUSH1 0xE0 SHL DUP2 MSTORE PUSH1 0x1 PUSH1 0x1 PUSH1 0xA0 SHL SUB SWAP1 SWAP2 AND SWAP1 PUSH4 0x430C2081 SWAP1 PUSH2 0x1342 SWAP1 CALLER SWAP1 DUP6 SWAP1 PUSH1 0x4 ADD PUSH2 0x41FC JUMP JUMPDEST PUSH1 0x20 PUSH1 0x40 MLOAD DUP1 DUP4 SUB DUP2 DUP7 GAS STATICCALL ISZERO DUP1 ISZERO PUSH2 0x135F JUMPI RETURNDATASIZE PUSH1 0x0 DUP1 RETURNDATACOPY RETURNDATASIZE PUSH1 0x0 REVERT JUMPDEST POP POP POP POP PUSH1 0x40 MLOAD RETURNDATASIZE PUSH1 0x1F NOT PUSH1 0x1F DUP3 ADD AND DUP3 ADD DUP1 PUSH1 0x40 MSTORE POP DUP2 ADD SWAP1 PUSH2 0x1383 SWAP2 SWAP1 PUSH2 0x4215 JUMP JUMPDEST PUSH2 0x138C JUMPI PUSH1 0x0 DUP1 REVERT JUMPDEST PUSH1 0x0 JUMPDEST DUP4 MLOAD DUP2 LT ISZERO PUSH2 0x143D JUMPI DUP4 DUP2 DUP2 MLOAD DUP2 LT PUSH2 0x13AA JUMPI PUSH2 0x13AA PUSH2 0x414F JUMP JUMPDEST PUSH1 0x20 MUL PUSH1 0x20 ADD ADD MLOAD PUSH1 0x1 PUSH1 0x1 PUSH1 0xA0 SHL SUB AND PUSH4 0xA7852AFA DUP4 DUP6 DUP5 DUP2 MLOAD DUP2 LT PUSH2 0x13D3 JUMPI PUSH2 0x13D3 PUSH2 0x414F JUMP JUMPDEST PUSH1 0x20 MUL PUSH1 0x20 ADD ADD MLOAD PUSH1 0x40 MLOAD DUP4 PUSH4 0xFFFFFFFF AND PUSH1 0xE0 SHL DUP2 MSTORE PUSH1 0x4 ADD PUSH2 0x13F8 SWAP3 SWAP2 SWAP1 PUSH2 0x42A9 JUMP JUMPDEST PUSH1 0x0 PUSH1 0x40 MLOAD DUP1 DUP4 SUB DUP2 PUSH1 0x0 DUP8 DUP1 EXTCODESIZE ISZERO DUP1 ISZERO PUSH2 0x1412 JUMPI PUSH1 0x0 DUP1 REVERT JUMPDEST POP GAS CALL ISZERO DUP1 ISZERO PUSH2 0x1426 JUMPI RETURNDATASIZE PUSH1 0x0 DUP1 RETURNDATACOPY RETURNDATASIZE PUSH1 0x0 REVERT JUMPDEST POP POP POP POP DUP1 DUP1 PUSH2 0x1435 SWAP1 PUSH2 0x417B JUMP JUMPDEST SWAP2 POP POP PUSH2 0x138F JUMP JUMPDEST POP POP POP POP JUMP JUMPDEST CALLER PUSH1 0x0 SWAP1 DUP2 MSTORE PUSH1 0xAE PUSH1 0x20 MSTORE PUSH1 0x40 SWAP1 KECCAK256 SLOAD PUSH1 0xFF AND PUSH2 0x145F JUMPI PUSH1 0x0 DUP1 REVERT JUMPDEST CALLER PUSH1 0x0 SWAP1 DUP2 MSTORE PUSH1 0xB0 PUSH1 0x20 MSTORE PUSH1 0x40 SWAP1 KECCAK256 SLOAD PUSH1 0xFF AND PUSH2 0x147B JUMPI PUSH1 0x0 DUP1 REVERT JUMPDEST DUP2 ISZERO PUSH2 0x14E0 JUMPI PUSH1 0x97 SLOAD PUSH1 0x40 MLOAD PUSH4 0xFBD3A29D PUSH1 0xE0 SHL DUP2 MSTORE PUSH1 0x4 DUP2 ADD DUP5 SWAP1 MSTORE PUSH1 0x1 PUSH1 0x1 PUSH1 0xA0 SHL SUB SWAP1 SWAP2 AND SWAP1 PUSH4 0xFBD3A29D SWAP1 PUSH1 0x24 ADD PUSH1 0x0 PUSH1 0x40 MLOAD DUP1 DUP4 SUB DUP2 PUSH1 0x0 DUP8 DUP1 EXTCODESIZE ISZERO DUP1 ISZERO PUSH2 0x14C7 JUMPI PUSH1 0x0 DUP1 REVERT JUMPDEST POP GAS CALL ISZERO DUP1 ISZERO PUSH2 0x14DB JUMPI RETURNDATASIZE PUSH1 0x0 DUP1 RETURNDATACOPY RETURNDATASIZE PUSH1 0x0 REVERT JUMPDEST POP POP POP POP JUMPDEST PUSH1 0x40 MLOAD DUP3 DUP2 MSTORE CALLER SWAP1 PUSH1 0x1 PUSH1 0x1 PUSH1 0xA0 SHL SUB DUP4 AND SWAP1 PUSH32 0x60940192810A6FB3BCE3FD3E2E3A13FD6CCC7605E963FB87EE971ABA829989BD SWAP1 PUSH1 0x20 ADD PUSH2 0xEBA JUMP JUMPDEST PUSH2 0xC45 DUP2 PUSH2 0x3964 JUMP JUMPDEST PUSH2 0x152E PUSH2 0x3A65 JUMP JUMPDEST PUSH2 0xF93 PUSH1 0x0 PUSH2 0x3ABF JUMP JUMPDEST DUP2 JUMPDEST DUP2 DUP2 LT ISZERO PUSH2 0xB01 JUMPI PUSH2 0x158C PUSH1 0xA4 PUSH1 0x0 PUSH1 0xA3 DUP5 DUP2 SLOAD DUP2 LT PUSH2 0x155C JUMPI PUSH2 0x155C PUSH2 0x414F JUMP JUMPDEST PUSH1 0x0 SWAP2 DUP3 MSTORE PUSH1 0x20 DUP1 DUP4 KECCAK256 SWAP1 SWAP2 ADD SLOAD PUSH1 0x1 PUSH1 0x1 PUSH1 0xA0 SHL SUB SWAP1 DUP2 AND DUP5 MSTORE SWAP1 DUP4 ADD SWAP4 SWAP1 SWAP4 MSTORE PUSH1 0x40 SWAP1 SWAP2 ADD SWAP1 KECCAK256 SLOAD AND PUSH2 0x1110 JUMP JUMPDEST DUP1 PUSH2 0x1596 DUP2 PUSH2 0x417B JUMP JUMPDEST SWAP2 POP POP PUSH2 0x153A JUMP JUMPDEST PUSH1 0x97 SLOAD PUSH1 0x40 MLOAD PUSH4 0x430C2081 PUSH1 0xE0 SHL DUP2 MSTORE PUSH1 0x1 PUSH1 0x1 PUSH1 0xA0 SHL SUB SWAP1 SWAP2 AND SWAP1 PUSH4 0x430C2081 SWAP1 PUSH2 0x15D0 SWAP1 CALLER SWAP1 DUP6 SWAP1 PUSH1 0x4 ADD PUSH2 0x41FC JUMP JUMPDEST PUSH1 0x20 PUSH1 0x40 MLOAD DUP1 DUP4 SUB DUP2 DUP7 GAS STATICCALL ISZERO DUP1 ISZERO PUSH2 0x15ED JUMPI RETURNDATASIZE PUSH1 0x0 DUP1 RETURNDATACOPY RETURNDATASIZE PUSH1 0x0 REVERT JUMPDEST POP POP POP POP PUSH1 0x40 MLOAD RETURNDATASIZE PUSH1 0x1F NOT PUSH1 0x1F DUP3 ADD AND DUP3 ADD DUP1 PUSH1 0x40 MSTORE POP DUP2 ADD SWAP1 PUSH2 0x1611 SWAP2 SWAP1 PUSH2 0x4215 JUMP JUMPDEST PUSH2 0x161A JUMPI PUSH1 0x0 DUP1 REVERT JUMPDEST PUSH1 0x0 JUMPDEST DUP4 MLOAD DUP2 LT ISZERO PUSH2 0x143D JUMPI DUP4 DUP2 DUP2 MLOAD DUP2 LT PUSH2 0x1638 JUMPI PUSH2 0x1638 PUSH2 0x414F JUMP JUMPDEST PUSH1 0x20 MUL PUSH1 0x20 ADD ADD MLOAD PUSH1 0x1 PUSH1 0x1 PUSH1 0xA0 SHL SUB AND PUSH4 0xA7852AFA DUP4 DUP6 DUP5 DUP2 MLOAD DUP2 LT PUSH2 0x1661 JUMPI PUSH2 0x1661 PUSH2 0x414F JUMP JUMPDEST PUSH1 0x20 MUL PUSH1 0x20 ADD ADD MLOAD PUSH1 0x40 MLOAD DUP4 PUSH4 0xFFFFFFFF AND PUSH1 0xE0 SHL DUP2 MSTORE PUSH1 0x4 ADD PUSH2 0x1686 SWAP3 SWAP2 SWAP1 PUSH2 0x42A9 JUMP JUMPDEST PUSH1 0x0 PUSH1 0x40 MLOAD DUP1 DUP4 SUB DUP2 PUSH1 0x0 DUP8 DUP1 EXTCODESIZE ISZERO DUP1 ISZERO PUSH2 0x16A0 JUMPI PUSH1 0x0 DUP1 REVERT JUMPDEST POP GAS CALL ISZERO DUP1 ISZERO PUSH2 0x16B4 JUMPI RETURNDATASIZE PUSH1 0x0 DUP1 RETURNDATACOPY RETURNDATASIZE PUSH1 0x0 REVERT JUMPDEST POP POP POP POP DUP1 DUP1 PUSH2 0x16C3 SWAP1 PUSH2 0x417B JUMP JUMPDEST SWAP2 POP POP PUSH2 0x161D JUMP JUMPDEST PUSH1 0x9E SLOAD PUSH1 0x1 PUSH1 0x1 PUSH1 0xA0 SHL SUB AND CALLER EQ PUSH2 0x16E2 JUMPI PUSH1 0x0 DUP1 REVERT JUMPDEST PUSH1 0x98 DUP1 SLOAD PUSH1 0x1 PUSH1 0x1 PUSH1 0xA0 SHL SUB NOT AND PUSH1 0x1 PUSH1 0x1 PUSH1 0xA0 SHL SUB SWAP3 SWAP1 SWAP3 AND SWAP2 SWAP1 SWAP2 OR SWAP1 SSTORE JUMP JUMPDEST PUSH2 0x170C PUSH2 0x3121 JUMP JUMPDEST PUSH1 0x97 SLOAD PUSH1 0x40 MLOAD PUSH4 0x430C2081 PUSH1 0xE0 SHL DUP2 MSTORE PUSH1 0x1 PUSH1 0x1 PUSH1 0xA0 SHL SUB SWAP1 SWAP2 AND SWAP1 PUSH4 0x430C2081 SWAP1 PUSH2 0x173E SWAP1 CALLER SWAP1 DUP10 SWAP1 PUSH1 0x4 ADD PUSH2 0x41FC JUMP JUMPDEST PUSH1 0x20 PUSH1 0x40 MLOAD DUP1 DUP4 SUB DUP2 DUP7 GAS STATICCALL ISZERO DUP1 ISZERO PUSH2 0x175B JUMPI RETURNDATASIZE PUSH1 0x0 DUP1 RETURNDATACOPY RETURNDATASIZE PUSH1 0x0 REVERT JUMPDEST POP POP POP POP PUSH1 0x40 MLOAD RETURNDATASIZE PUSH1 0x1F NOT PUSH1 0x1F DUP3 ADD AND DUP3 ADD DUP1 PUSH1 0x40 MSTORE POP DUP2 ADD SWAP1 PUSH2 0x177F SWAP2 SWAP1 PUSH2 0x4215 JUMP JUMPDEST PUSH2 0x1788 JUMPI PUSH1 0x0 DUP1 REVERT JUMPDEST DUP3 DUP2 EQ PUSH2 0x1794 JUMPI PUSH1 0x0 DUP1 REVERT JUMPDEST PUSH1 0x0 DUP6 DUP2 MSTORE PUSH1 0xAD PUSH1 0x20 SWAP1 DUP2 MSTORE PUSH1 0x40 SWAP2 DUP3 SWAP1 KECCAK256 TIMESTAMP SWAP1 SSTORE DUP2 MLOAD DUP6 DUP3 MUL DUP2 DUP2 ADD DUP4 ADD SWAP1 SWAP4 MSTORE DUP6 DUP2 MSTORE PUSH2 0x1812 SWAP3 DUP9 SWAP3 DUP9 SWAP2 DUP9 SWAP2 DUP3 SWAP2 SWAP1 DUP6 ADD SWAP1 DUP5 SWAP1 DUP1 DUP3 DUP5 CALLDATACOPY PUSH1 0x0 SWAP3 ADD SWAP2 SWAP1 SWAP2 MSTORE POP POP PUSH1 0x40 DUP1 MLOAD PUSH1 0x20 DUP1 DUP10 MUL DUP3 DUP2 ADD DUP3 ADD SWAP1 SWAP4 MSTORE DUP9 DUP3 MSTORE SWAP1 SWAP4 POP DUP9 SWAP3 POP DUP8 SWAP2 DUP3 SWAP2 DUP6 ADD SWAP1 DUP5 SWAP1 DUP1 DUP3 DUP5 CALLDATACOPY PUSH1 0x0 SWAP3 ADD SWAP2 SWAP1 SWAP2 MSTORE POP PUSH2 0x3428 SWAP3 POP POP POP JUMP JUMPDEST PUSH2 0x181C PUSH1 0x1 PUSH1 0x65 SSTORE JUMP JUMPDEST POP POP POP POP POP JUMP JUMPDEST PUSH1 0x9E SLOAD PUSH1 0x1 PUSH1 0x1 PUSH1 0xA0 SHL SUB AND CALLER EQ PUSH2 0x1856 JUMPI PUSH1 0x40 MLOAD PUSH3 0x461BCD PUSH1 0xE5 SHL DUP2 MSTORE PUSH1 0x4 ADD PUSH2 0x184D SWAP1 PUSH2 0x42C2 JUMP JUMPDEST PUSH1 0x40 MLOAD DUP1 SWAP2 SUB SWAP1 REVERT JUMPDEST PUSH1 0x1 PUSH1 0x1 PUSH1 0xA0 SHL SUB DUP2 AND PUSH1 0x0 SWAP1 DUP2 MSTORE PUSH1 0xB0 PUSH1 0x20 MSTORE PUSH1 0x40 SWAP1 KECCAK256 SLOAD PUSH1 0xFF AND PUSH2 0x18B3 JUMPI PUSH1 0x40 MLOAD PUSH3 0x461BCD PUSH1 0xE5 SHL DUP2 MSTORE PUSH1 0x20 PUSH1 0x4 DUP3 ADD MSTORE PUSH1 0x12 PUSH1 0x24 DUP3 ADD MSTORE PUSH18 0x19D85D59D948185B1C9958591E4819195859 PUSH1 0x72 SHL PUSH1 0x44 DUP3 ADD MSTORE PUSH1 0x64 ADD PUSH2 0x184D JUMP JUMPDEST PUSH1 0x1 PUSH1 0x1 PUSH1 0xA0 SHL SUB DUP2 AND PUSH1 0x0 DUP2 DUP2 MSTORE PUSH1 0xB0 PUSH1 0x20 SWAP1 DUP2 MSTORE PUSH1 0x40 DUP1 DUP4 KECCAK256 DUP1 SLOAD PUSH1 0xFF NOT AND SWAP1 SSTORE PUSH1 0xA1 SWAP1 SWAP2 MSTORE DUP1 DUP3 KECCAK256 DUP3 SWAP1 SSTORE MLOAD PUSH32 0x4A5D3F5D80D22D9345ACC80618F4A4E7E663CF9E1AED23B57D975ACEC002BA7 SWAP2 SWAP1 LOG2 POP JUMP JUMPDEST PUSH1 0x9D SLOAD PUSH1 0x1 PUSH1 0x1 PUSH1 0xA0 SHL SUB AND CALLER EQ PUSH2 0x1920 JUMPI PUSH1 0x0 DUP1 REVERT JUMPDEST PUSH2 0xC45 DUP2 PUSH2 0x30AE JUMP JUMPDEST DUP2 JUMPDEST DUP2 DUP2 LT ISZERO PUSH2 0xB01 JUMPI PUSH2 0x197D PUSH1 0xA4 PUSH1 0x0 PUSH1 0xA3 DUP5 DUP2 SLOAD DUP2 LT PUSH2 0x194D JUMPI PUSH2 0x194D PUSH2 0x414F JUMP JUMPDEST PUSH1 0x0 SWAP2 DUP3 MSTORE PUSH1 0x20 DUP1 DUP4 KECCAK256 SWAP1 SWAP2 ADD SLOAD PUSH1 0x1 PUSH1 0x1 PUSH1 0xA0 SHL SUB SWAP1 DUP2 AND DUP5 MSTORE SWAP1 DUP4 ADD SWAP4 SWAP1 SWAP4 MSTORE PUSH1 0x40 SWAP1 SWAP2 ADD SWAP1 KECCAK256 SLOAD AND PUSH2 0x3964 JUMP JUMPDEST DUP1 PUSH2 0x1987 DUP2 PUSH2 0x417B JUMP JUMPDEST SWAP2 POP POP PUSH2 0x192B JUMP JUMPDEST PUSH1 0x9E SLOAD PUSH1 0x1 PUSH1 0x1 PUSH1 0xA0 SHL SUB AND CALLER EQ PUSH2 0x19B9 JUMPI PUSH1 0x40 MLOAD PUSH3 0x461BCD PUSH1 0xE5 SHL DUP2 MSTORE PUSH1 0x4 ADD PUSH2 0x184D SWAP1 PUSH2 0x42C2 JUMP JUMPDEST PUSH1 0x1 PUSH1 0x1 PUSH1 0xA0 SHL SUB DUP2 AND PUSH1 0x0 SWAP1 DUP2 MSTORE PUSH1 0xB0 PUSH1 0x20 MSTORE PUSH1 0x40 SWAP1 KECCAK256 SLOAD PUSH1 0xFF AND PUSH2 0x1A16 JUMPI PUSH1 0x40 MLOAD PUSH3 0x461BCD PUSH1 0xE5 SHL DUP2 MSTORE PUSH1 0x20 PUSH1 0x4 DUP3 ADD MSTORE PUSH1 0x12 PUSH1 0x24 DUP3 ADD MSTORE PUSH18 0x19D85D59D948185B1C9958591E4819195859 PUSH1 0x72 SHL PUSH1 0x44 DUP3 ADD MSTORE PUSH1 0x64 ADD PUSH2 0x184D JUMP JUMPDEST PUSH1 0x1 PUSH1 0x1 PUSH1 0xA0 SHL SUB DUP1 DUP3 AND PUSH1 0x0 DUP2 DUP2 MSTORE PUSH1 0xB0 PUSH1 0x20 SWAP1 DUP2 MSTORE PUSH1 0x40 DUP1 DUP4 KECCAK256 DUP1 SLOAD PUSH1 0xFF NOT SWAP1 DUP2 AND DUP3 SSTORE PUSH1 0xA1 DUP1 DUP6 MSTORE DUP4 DUP7 KECCAK256 DUP7 DUP2 SSTORE PUSH1 0xA6 DUP7 MSTORE DUP5 DUP8 KECCAK256 DUP1 SLOAD PUSH1 0xA7 DUP9 MSTORE DUP7 DUP10 KECCAK256 DUP1 SLOAD PUSH1 0x1 PUSH1 0x1 PUSH1 0xA0 SHL SUB NOT SWAP1 DUP2 AND SWAP1 SWAP2 SSTORE PUSH1 0xA8 DUP10 MSTORE DUP8 DUP11 KECCAK256 DUP1 SLOAD DUP3 AND SWAP1 SSTORE SWAP11 AND DUP1 DUP10 MSTORE PUSH1 0xA4 DUP9 MSTORE DUP7 DUP10 KECCAK256 DUP1 SLOAD DUP13 AND SWAP1 SSTORE DUP10 DUP10 MSTORE DUP2 SLOAD SWAP1 SWAP11 AND SWAP1 SSTORE PUSH1 0xAE DUP7 MSTORE DUP5 DUP8 KECCAK256 DUP1 SLOAD DUP5 AND SWAP1 SSTORE DUP4 SLOAD SWAP1 SWAP3 AND SWAP1 SWAP3 SSTORE SWAP3 MSTORE SWAP1 DUP3 SWAP1 SSTORE MLOAD PUSH32 0x4A5D3F5D80D22D9345ACC80618F4A4E7E663CF9E1AED23B57D975ACEC002BA7 SWAP2 SWAP1 LOG2 POP POP JUMP JUMPDEST PUSH1 0x9E SLOAD PUSH1 0x1 PUSH1 0x1 PUSH1 0xA0 SHL SUB AND CALLER EQ PUSH2 0x1AFF JUMPI PUSH1 0x40 MLOAD PUSH3 0x461BCD PUSH1 0xE5 SHL DUP2 MSTORE PUSH1 0x4 ADD PUSH2 0x184D SWAP1 PUSH2 0x42C2 JUMP JUMPDEST PUSH1 0x1 PUSH1 0x1 PUSH1 0xA0 SHL SUB DUP2 AND PUSH1 0x0 SWAP1 DUP2 MSTORE PUSH1 0xB0 PUSH1 0x20 MSTORE PUSH1 0x40 SWAP1 KECCAK256 SLOAD PUSH1 0xFF AND ISZERO PUSH2 0x1B5E JUMPI PUSH1 0x40 MLOAD PUSH3 0x461BCD PUSH1 0xE5 SHL DUP2 MSTORE PUSH1 0x20 PUSH1 0x4 DUP3 ADD MSTORE PUSH1 0x13 PUSH1 0x24 DUP3 ADD MSTORE PUSH19 0x676175676520616C726561647920616C697665 PUSH1 0x68 SHL PUSH1 0x44 DUP3 ADD MSTORE PUSH1 0x64 ADD PUSH2 0x184D JUMP JUMPDEST PUSH1 0x1 PUSH1 0x1 PUSH1 0xA0 SHL SUB DUP2 AND PUSH1 0x0 DUP2 DUP2 MSTORE PUSH1 0xB0 PUSH1 0x20 MSTORE PUSH1 0x40 DUP1 DUP3 KECCAK256 DUP1 SLOAD PUSH1 0xFF NOT AND PUSH1 0x1 OR SWAP1 SSTORE MLOAD PUSH32 0xED18E9FAA3DCCFD8AA45F69C4DE40546B2CA9CCCC4538A2323531656516DB1AA SWAP2 SWAP1 LOG2 POP JUMP JUMPDEST PUSH1 0x1 PUSH1 0x1 PUSH1 0xA0 SHL SUB DUP2 DUP2 AND PUSH1 0x0 SWAP1 DUP2 MSTORE PUSH1 0xA4 PUSH1 0x20 MSTORE PUSH1 0x40 DUP2 KECCAK256 SLOAD SWAP1 SWAP2 AND ISZERO PUSH2 0x1BFD JUMPI PUSH1 0x40 MLOAD PUSH3 0x461BCD PUSH1 0xE5 SHL DUP2 MSTORE PUSH1 0x20 PUSH1 0x4 DUP3 ADD MSTORE PUSH1 0x6 PUSH1 0x24 DUP3 ADD MSTORE PUSH6 0x657869737473 PUSH1 0xD0 SHL PUSH1 0x44 DUP3 ADD MSTORE PUSH1 0x64 ADD PUSH2 0x184D JUMP JUMPDEST PUSH1 0x40 DUP1 MLOAD PUSH1 0x3 DUP1 DUP3 MSTORE PUSH1 0x80 DUP3 ADD SWAP1 SWAP3 MSTORE PUSH1 0x0 SWAP2 PUSH1 0x20 DUP3 ADD PUSH1 0x60 DUP1 CALLDATASIZE DUP4 CALLDATACOPY POP POP PUSH1 0x40 DUP1 MLOAD PUSH1 0x2 DUP1 DUP3 MSTORE PUSH1 0x60 DUP3 ADD DUP4 MSTORE SWAP4 SWAP5 POP PUSH1 0x0 SWAP4 SWAP1 SWAP3 POP SWAP1 PUSH1 0x20 DUP4 ADD SWAP1 DUP1 CALLDATASIZE DUP4 CALLDATACOPY ADD SWAP1 POP POP PUSH1 0x98 SLOAD PUSH1 0x40 MLOAD PUSH4 0xE5E31B13 PUSH1 0xE0 SHL DUP2 MSTORE PUSH1 0x1 PUSH1 0x1 PUSH1 0xA0 SHL SUB DUP8 DUP2 AND PUSH1 0x4 DUP4 ADD MSTORE SWAP3 SWAP4 POP PUSH1 0x0 SWAP3 SWAP1 SWAP2 AND SWAP1 PUSH4 0xE5E31B13 SWAP1 PUSH1 0x24 ADD PUSH1 0x20 PUSH1 0x40 MLOAD DUP1 DUP4 SUB DUP2 DUP7 GAS STATICCALL ISZERO DUP1 ISZERO PUSH2 0x1C92 JUMPI RETURNDATASIZE PUSH1 0x0 DUP1 RETURNDATACOPY RETURNDATASIZE PUSH1 0x0 REVERT JUMPDEST POP POP POP POP PUSH1 0x40 MLOAD RETURNDATASIZE PUSH1 0x1F NOT PUSH1 0x1F DUP3 ADD AND DUP3 ADD DUP1 PUSH1 0x40 MSTORE POP DUP2 ADD SWAP1 PUSH2 0x1CB6 SWAP2 SWAP1 PUSH2 0x4215 JUMP JUMPDEST SWAP1 POP PUSH1 0x0 DUP1 DUP3 ISZERO PUSH2 0x1E5E JUMPI DUP7 PUSH1 0x1 PUSH1 0x1 PUSH1 0xA0 SHL SUB AND PUSH4 0x9D63848A PUSH1 0x40 MLOAD DUP2 PUSH4 0xFFFFFFFF AND PUSH1 0xE0 SHL DUP2 MSTORE PUSH1 0x4 ADD PUSH1 0x40 DUP1 MLOAD DUP1 DUP4 SUB DUP2 DUP7 GAS STATICCALL ISZERO DUP1 ISZERO PUSH2 0x1CFE JUMPI RETURNDATASIZE PUSH1 0x0 DUP1 RETURNDATACOPY RETURNDATASIZE PUSH1 0x0 REVERT JUMPDEST POP POP POP POP PUSH1 0x40 MLOAD RETURNDATASIZE PUSH1 0x1F NOT PUSH1 0x1F DUP3 ADD AND DUP3 ADD DUP1 PUSH1 0x40 MSTORE POP DUP2 ADD SWAP1 PUSH2 0x1D22 SWAP2 SWAP1 PUSH2 0x42F1 JUMP JUMPDEST DUP1 SWAP3 POP DUP2 SWAP4 POP POP POP DUP2 DUP6 PUSH1 0x0 DUP2 MLOAD DUP2 LT PUSH2 0x1D3E JUMPI PUSH2 0x1D3E PUSH2 0x414F JUMP JUMPDEST PUSH1 0x20 MUL PUSH1 0x20 ADD ADD SWAP1 PUSH1 0x1 PUSH1 0x1 PUSH1 0xA0 SHL SUB AND SWAP1 DUP2 PUSH1 0x1 PUSH1 0x1 PUSH1 0xA0 SHL SUB AND DUP2 MSTORE POP POP DUP1 DUP6 PUSH1 0x1 DUP2 MLOAD DUP2 LT PUSH2 0x1D72 JUMPI PUSH2 0x1D72 PUSH2 0x414F JUMP JUMPDEST PUSH1 0x20 MUL PUSH1 0x20 ADD ADD SWAP1 PUSH1 0x1 PUSH1 0x1 PUSH1 0xA0 SHL SUB AND SWAP1 DUP2 PUSH1 0x1 PUSH1 0x1 PUSH1 0xA0 SHL SUB AND DUP2 MSTORE POP POP DUP2 DUP5 PUSH1 0x0 DUP2 MLOAD DUP2 LT PUSH2 0x1DA6 JUMPI PUSH2 0x1DA6 PUSH2 0x414F JUMP JUMPDEST PUSH1 0x20 MUL PUSH1 0x20 ADD ADD SWAP1 PUSH1 0x1 PUSH1 0x1 PUSH1 0xA0 SHL SUB AND SWAP1 DUP2 PUSH1 0x1 PUSH1 0x1 PUSH1 0xA0 SHL SUB AND DUP2 MSTORE POP POP DUP1 DUP5 PUSH1 0x1 DUP2 MLOAD DUP2 LT PUSH2 0x1DDA JUMPI PUSH2 0x1DDA PUSH2 0x414F JUMP JUMPDEST PUSH1 0x1 PUSH1 0x1 PUSH1 0xA0 SHL SUB SWAP3 DUP4 AND PUSH1 0x20 SWAP2 DUP3 MUL SWAP3 SWAP1 SWAP3 ADD ADD MSTORE PUSH1 0x99 SLOAD DUP2 AND SWAP1 DUP4 AND EQ DUP1 ISZERO SWAP1 PUSH2 0x1E14 JUMPI POP PUSH1 0x99 SLOAD PUSH1 0x1 PUSH1 0x1 PUSH1 0xA0 SHL SUB DUP3 DUP2 AND SWAP2 AND EQ ISZERO JUMPDEST ISZERO PUSH2 0x1E5E JUMPI PUSH1 0x99 SLOAD DUP6 MLOAD PUSH1 0x1 PUSH1 0x1 PUSH1 0xA0 SHL SUB SWAP1 SWAP2 AND SWAP1 DUP7 SWAP1 PUSH1 0x2 SWAP1 DUP2 LT PUSH2 0x1E3D JUMPI PUSH2 0x1E3D PUSH2 0x414F JUMP JUMPDEST PUSH1 0x20 MUL PUSH1 0x20 ADD ADD SWAP1 PUSH1 0x1 PUSH1 0x1 PUSH1 0xA0 SHL SUB AND SWAP1 DUP2 PUSH1 0x1 PUSH1 0x1 PUSH1 0xA0 SHL SUB AND DUP2 MSTORE POP POP JUMPDEST PUSH1 0x9D SLOAD PUSH1 0x1 PUSH1 0x1 PUSH1 0xA0 SHL SUB AND CALLER EQ PUSH2 0x1F21 JUMPI DUP3 PUSH2 0x1EA6 JUMPI PUSH1 0x40 MLOAD PUSH3 0x461BCD PUSH1 0xE5 SHL DUP2 MSTORE PUSH1 0x20 PUSH1 0x4 DUP3 ADD MSTORE PUSH1 0x6 PUSH1 0x24 DUP3 ADD MSTORE PUSH6 0x857DC1BDBDB PUSH1 0xD2 SHL PUSH1 0x44 DUP3 ADD MSTORE PUSH1 0x64 ADD PUSH2 0x184D JUMP JUMPDEST PUSH1 0x1 PUSH1 0x1 PUSH1 0xA0 SHL SUB DUP3 AND PUSH1 0x0 SWAP1 DUP2 MSTORE PUSH1 0xAF PUSH1 0x20 MSTORE PUSH1 0x40 SWAP1 KECCAK256 SLOAD PUSH1 0xFF AND DUP1 ISZERO PUSH2 0x1EE6 JUMPI POP PUSH1 0x1 PUSH1 0x1 PUSH1 0xA0 SHL SUB DUP2 AND PUSH1 0x0 SWAP1 DUP2 MSTORE PUSH1 0xAF PUSH1 0x20 MSTORE PUSH1 0x40 SWAP1 KECCAK256 SLOAD PUSH1 0xFF AND JUMPDEST PUSH2 0x1F21 JUMPI PUSH1 0x40 MLOAD PUSH3 0x461BCD PUSH1 0xE5 SHL DUP2 MSTORE PUSH1 0x20 PUSH1 0x4 DUP3 ADD MSTORE PUSH1 0xC PUSH1 0x24 DUP3 ADD MSTORE PUSH12 0x85DDA1A5D195B1A5CDD1959 PUSH1 0xA2 SHL PUSH1 0x44 DUP3 ADD MSTORE PUSH1 0x64 ADD PUSH2 0x184D JUMP JUMPDEST PUSH1 0x0 DUP8 PUSH1 0x1 PUSH1 0x1 PUSH1 0xA0 SHL SUB AND PUSH4 0x95D89B41 PUSH1 0x40 MLOAD DUP2 PUSH4 0xFFFFFFFF AND PUSH1 0xE0 SHL DUP2 MSTORE PUSH1 0x4 ADD PUSH1 0x0 PUSH1 0x40 MLOAD DUP1 DUP4 SUB DUP2 DUP7 GAS STATICCALL ISZERO DUP1 ISZERO PUSH2 0x1F61 JUMPI RETURNDATASIZE PUSH1 0x0 DUP1 RETURNDATACOPY RETURNDATASIZE PUSH1 0x0 REVERT JUMPDEST POP POP POP POP PUSH1 0x40 MLOAD RETURNDATASIZE PUSH1 0x0 DUP3 RETURNDATACOPY PUSH1 0x1F RETURNDATASIZE SWAP1 DUP2 ADD PUSH1 0x1F NOT AND DUP3 ADD PUSH1 0x40 MSTORE PUSH2 0x1F89 SWAP2 SWAP1 DUP2 ADD SWAP1 PUSH2 0x434C JUMP JUMPDEST PUSH1 0x40 MLOAD PUSH1 0x20 ADD PUSH2 0x1F99 SWAP2 SWAP1 PUSH2 0x43E0 JUMP JUMPDEST PUSH1 0x40 DUP1 MLOAD PUSH1 0x1F NOT DUP2 DUP5 SUB ADD DUP2 MSTORE SWAP2 SWAP1 MSTORE PUSH1 0x9B SLOAD SWAP1 SWAP2 POP PUSH1 0x0 SWAP1 PUSH1 0x1 PUSH1 0x1 PUSH1 0xA0 SHL SUB AND PUSH2 0xE66B PUSH2 0x1FD0 PUSH1 0x33 SLOAD PUSH1 0x1 PUSH1 0x1 PUSH1 0xA0 SHL SUB AND SWAP1 JUMP JUMPDEST DUP7 DUP7 DUP7 PUSH1 0x40 MLOAD DUP6 PUSH4 0xFFFFFFFF AND PUSH1 0xE0 SHL DUP2 MSTORE PUSH1 0x4 ADD PUSH2 0x1FF2 SWAP5 SWAP4 SWAP3 SWAP2 SWAP1 PUSH2 0x4417 JUMP JUMPDEST PUSH1 0x20 PUSH1 0x40 MLOAD DUP1 DUP4 SUB DUP2 PUSH1 0x0 DUP8 GAS CALL ISZERO DUP1 ISZERO PUSH2 0x2011 JUMPI RETURNDATASIZE PUSH1 0x0 DUP1 RETURNDATACOPY RETURNDATASIZE PUSH1 0x0 REVERT JUMPDEST POP POP POP POP PUSH1 0x40 MLOAD RETURNDATASIZE PUSH1 0x1F NOT PUSH1 0x1F DUP3 ADD AND DUP3 ADD DUP1 PUSH1 0x40 MSTORE POP DUP2 ADD SWAP1 PUSH2 0x2035 SWAP2 SWAP1 PUSH2 0x446D JUMP JUMPDEST SWAP1 POP DUP9 PUSH1 0x1 PUSH1 0x1 PUSH1 0xA0 SHL SUB AND PUSH4 0x95D89B41 PUSH1 0x40 MLOAD DUP2 PUSH4 0xFFFFFFFF AND PUSH1 0xE0 SHL DUP2 MSTORE PUSH1 0x4 ADD PUSH1 0x0 PUSH1 0x40 MLOAD DUP1 DUP4 SUB DUP2 DUP7 GAS STATICCALL ISZERO DUP1 ISZERO PUSH2 0x2075 JUMPI RETURNDATASIZE PUSH1 0x0 DUP1 RETURNDATACOPY RETURNDATASIZE PUSH1 0x0 REVERT JUMPDEST POP POP POP POP PUSH1 0x40 MLOAD RETURNDATASIZE PUSH1 0x0 DUP3 RETURNDATACOPY PUSH1 0x1F RETURNDATASIZE SWAP1 DUP2 ADD PUSH1 0x1F NOT AND DUP3 ADD PUSH1 0x40 MSTORE PUSH2 0x209D SWAP2 SWAP1 DUP2 ADD SWAP1 PUSH2 0x434C JUMP JUMPDEST PUSH1 0x40 MLOAD PUSH1 0x20 ADD PUSH2 0x20AD SWAP2 SWAP1 PUSH2 0x448A JUMP JUMPDEST PUSH1 0x40 DUP1 MLOAD PUSH1 0x1F NOT DUP2 DUP5 SUB ADD DUP2 MSTORE SWAP2 SWAP1 MSTORE PUSH1 0x9B SLOAD SWAP1 SWAP3 POP PUSH1 0x0 SWAP1 PUSH1 0x1 PUSH1 0x1 PUSH1 0xA0 SHL SUB AND PUSH2 0xE66B PUSH2 0x20E4 PUSH1 0x33 SLOAD PUSH1 0x1 PUSH1 0x1 PUSH1 0xA0 SHL SUB AND SWAP1 JUMP JUMPDEST DUP8 DUP8 DUP8 PUSH1 0x40 MLOAD DUP6 PUSH4 0xFFFFFFFF AND PUSH1 0xE0 SHL DUP2 MSTORE PUSH1 0x4 ADD PUSH2 0x2106 SWAP5 SWAP4 SWAP3 SWAP2 SWAP1 PUSH2 0x4417 JUMP JUMPDEST PUSH1 0x20 PUSH1 0x40 MLOAD DUP1 DUP4 SUB DUP2 PUSH1 0x0 DUP8 GAS CALL ISZERO DUP1 ISZERO PUSH2 0x2125 JUMPI RETURNDATASIZE PUSH1 0x0 DUP1 RETURNDATACOPY RETURNDATASIZE PUSH1 0x0 REVERT JUMPDEST POP POP POP POP PUSH1 0x40 MLOAD RETURNDATASIZE PUSH1 0x1F NOT PUSH1 0x1F DUP3 ADD AND DUP3 ADD DUP1 PUSH1 0x40 MSTORE POP DUP2 ADD SWAP1 PUSH2 0x2149 SWAP2 SWAP1 PUSH2 0x446D JUMP JUMPDEST PUSH1 0x9A SLOAD PUSH1 0x99 SLOAD PUSH1 0x97 SLOAD PUSH1 0x40 MLOAD PUSH4 0x7379E77 PUSH1 0xE4 SHL DUP2 MSTORE PUSH1 0x1 PUSH1 0x1 PUSH1 0xA0 SHL SUB SWAP3 DUP4 AND PUSH1 0x4 DUP3 ADD MSTORE SWAP1 DUP3 AND PUSH1 0x24 DUP3 ADD MSTORE DUP14 DUP3 AND PUSH1 0x44 DUP3 ADD MSTORE ADDRESS PUSH1 0x64 DUP3 ADD MSTORE DUP6 DUP3 AND PUSH1 0x84 DUP3 ADD MSTORE DUP2 DUP5 AND PUSH1 0xA4 DUP3 ADD MSTORE DUP10 ISZERO ISZERO PUSH1 0xC4 DUP3 ADD MSTORE SWAP3 SWAP4 POP PUSH1 0x0 SWAP3 SWAP2 AND SWAP1 PUSH4 0x7379E770 SWAP1 PUSH1 0xE4 ADD PUSH1 0x20 PUSH1 0x40 MLOAD DUP1 DUP4 SUB DUP2 PUSH1 0x0 DUP8 GAS CALL ISZERO DUP1 ISZERO PUSH2 0x21CE JUMPI RETURNDATASIZE PUSH1 0x0 DUP1 RETURNDATACOPY RETURNDATASIZE PUSH1 0x0 REVERT JUMPDEST POP POP POP POP PUSH1 0x40 MLOAD RETURNDATASIZE PUSH1 0x1F NOT PUSH1 0x1F DUP3 ADD AND DUP3 ADD DUP1 PUSH1 0x40 MSTORE POP DUP2 ADD SWAP1 PUSH2 0x21F2 SWAP2 SWAP1 PUSH2 0x446D JUMP JUMPDEST PUSH1 0x99 SLOAD PUSH1 0x40 MLOAD PUSH4 0x95EA7B3 PUSH1 0xE0 SHL DUP2 MSTORE SWAP2 SWAP3 POP PUSH1 0x1 PUSH1 0x1 PUSH1 0xA0 SHL SUB AND SWAP1 PUSH4 0x95EA7B3 SWAP1 PUSH2 0x2227 SWAP1 DUP5 SWAP1 PUSH1 0x0 NOT SWAP1 PUSH1 0x4 ADD PUSH2 0x41FC JUMP JUMPDEST PUSH1 0x20 PUSH1 0x40 MLOAD DUP1 DUP4 SUB DUP2 PUSH1 0x0 DUP8 GAS CALL ISZERO DUP1 ISZERO PUSH2 0x2246 JUMPI RETURNDATASIZE PUSH1 0x0 DUP1 RETURNDATACOPY RETURNDATASIZE PUSH1 0x0 REVERT JUMPDEST POP POP POP POP PUSH1 0x40 MLOAD RETURNDATASIZE PUSH1 0x1F NOT PUSH1 0x1F DUP3 ADD AND DUP3 ADD DUP1 PUSH1 0x40 MSTORE POP DUP2 ADD SWAP1 PUSH2 0x226A SWAP2 SWAP1 PUSH2 0x4215 JUMP JUMPDEST POP DUP3 PUSH1 0xA7 PUSH1 0x0 DUP4 PUSH1 0x1 PUSH1 0x1 PUSH1 0xA0 SHL SUB AND PUSH1 0x1 PUSH1 0x1 PUSH1 0xA0 SHL SUB AND DUP2 MSTORE PUSH1 0x20 ADD SWAP1 DUP2 MSTORE PUSH1 0x20 ADD PUSH1 0x0 KECCAK256 PUSH1 0x0 PUSH2 0x100 EXP DUP2 SLOAD DUP2 PUSH1 0x1 PUSH1 0x1 PUSH1 0xA0 SHL SUB MUL NOT AND SWAP1 DUP4 PUSH1 0x1 PUSH1 0x1 PUSH1 0xA0 SHL SUB AND MUL OR SWAP1 SSTORE POP DUP2 PUSH1 0xA8 PUSH1 0x0 DUP4 PUSH1 0x1 PUSH1 0x1 PUSH1 0xA0 SHL SUB AND PUSH1 0x1 PUSH1 0x1 PUSH1 0xA0 SHL SUB AND DUP2 MSTORE PUSH1 0x20 ADD SWAP1 DUP2 MSTORE PUSH1 0x20 ADD PUSH1 0x0 KECCAK256 PUSH1 0x0 PUSH2 0x100 EXP DUP2 SLOAD DUP2 PUSH1 0x1 PUSH1 0x1 PUSH1 0xA0 SHL SUB MUL NOT AND SWAP1 DUP4 PUSH1 0x1 PUSH1 0x1 PUSH1 0xA0 SHL SUB AND MUL OR SWAP1 SSTORE POP DUP1 PUSH1 0xA4 PUSH1 0x0 DUP14 PUSH1 0x1 PUSH1 0x1 PUSH1 0xA0 SHL SUB AND PUSH1 0x1 PUSH1 0x1 PUSH1 0xA0 SHL SUB AND DUP2 MSTORE PUSH1 0x20 ADD SWAP1 DUP2 MSTORE PUSH1 0x20 ADD PUSH1 0x0 KECCAK256 PUSH1 0x0 PUSH2 0x100 EXP DUP2 SLOAD DUP2 PUSH1 0x1 PUSH1 0x1 PUSH1 0xA0 SHL SUB MUL NOT AND SWAP1 DUP4 PUSH1 0x1 PUSH1 0x1 PUSH1 0xA0 SHL SUB AND MUL OR SWAP1 SSTORE POP DUP11 PUSH1 0xA6 PUSH1 0x0 DUP4 PUSH1 0x1 PUSH1 0x1 PUSH1 0xA0 SHL SUB AND PUSH1 0x1 PUSH1 0x1 PUSH1 0xA0 SHL SUB AND DUP2 MSTORE PUSH1 0x20 ADD SWAP1 DUP2 MSTORE PUSH1 0x20 ADD PUSH1 0x0 KECCAK256 PUSH1 0x0 PUSH2 0x100 EXP DUP2 SLOAD DUP2 PUSH1 0x1 PUSH1 0x1 PUSH1 0xA0 SHL SUB MUL NOT AND SWAP1 DUP4 PUSH1 0x1 PUSH1 0x1 PUSH1 0xA0 SHL SUB AND MUL OR SWAP1 SSTORE POP PUSH1 0x1 PUSH1 0xAE PUSH1 0x0 DUP4 PUSH1 0x1 PUSH1 0x1 PUSH1 0xA0 SHL SUB AND PUSH1 0x1 PUSH1 0x1 PUSH1 0xA0 SHL SUB AND DUP2 MSTORE PUSH1 0x20 ADD SWAP1 DUP2 MSTORE PUSH1 0x20 ADD PUSH1 0x0 KECCAK256 PUSH1 0x0 PUSH2 0x100 EXP DUP2 SLOAD DUP2 PUSH1 0xFF MUL NOT AND SWAP1 DUP4 ISZERO ISZERO MUL OR SWAP1 SSTORE POP PUSH1 0x1 PUSH1 0xB0 PUSH1 0x0 DUP4 PUSH1 0x1 PUSH1 0x1 PUSH1 0xA0 SHL SUB AND PUSH1 0x1 PUSH1 0x1 PUSH1 0xA0 SHL SUB AND DUP2 MSTORE PUSH1 0x20 ADD SWAP1 DUP2 MSTORE PUSH1 0x20 ADD PUSH1 0x0 KECCAK256 PUSH1 0x0 PUSH2 0x100 EXP DUP2 SLOAD DUP2 PUSH1 0xFF MUL NOT AND SWAP1 DUP4 ISZERO ISZERO MUL OR SWAP1 SSTORE POP PUSH2 0x2418 DUP2 PUSH2 0x3964 JUMP JUMPDEST PUSH1 0xA3 DUP1 SLOAD PUSH1 0x1 DUP2 ADD DUP3 SSTORE PUSH1 0x0 SWAP2 SWAP1 SWAP2 MSTORE PUSH32 0x60859188CFFE297F44DDE29F2D2865634621F26215049CAEB304CCBA566A8B17 ADD DUP1 SLOAD PUSH1 0x1 PUSH1 0x1 PUSH1 0xA0 SHL SUB NOT AND PUSH1 0x1 PUSH1 0x1 PUSH1 0xA0 SHL SUB DUP14 DUP2 AND SWAP2 DUP3 OR SWAP1 SWAP3 SSTORE PUSH1 0x40 DUP1 MLOAD CALLER DUP2 MSTORE DUP7 DUP5 AND PUSH1 0x20 DUP3 ADD MSTORE SWAP2 SWAP3 DUP6 DUP2 AND SWAP3 SWAP1 DUP6 AND SWAP2 PUSH32 0xA4D97E9E7C65249B4CD01ACB82ADD613ADEA98AF32DAF092366982F0A0D4E453 SWAP2 ADD PUSH1 0x40 MLOAD DUP1 SWAP2 SUB SWAP1 LOG4 SWAP11 SWAP10 POP POP POP POP POP POP POP POP POP POP JUMP JUMPDEST CALLER PUSH1 0x0 SWAP1 DUP2 MSTORE PUSH1 0xAE PUSH1 0x20 MSTORE PUSH1 0x40 SWAP1 KECCAK256 SLOAD PUSH1 0xFF AND PUSH2 0x24D5 JUMPI PUSH1 0x0 DUP1 REVERT JUMPDEST CALLER PUSH1 0x0 SWAP1 DUP2 MSTORE PUSH1 0xB0 PUSH1 0x20 MSTORE PUSH1 0x40 SWAP1 KECCAK256 SLOAD PUSH1 0xFF AND PUSH2 0x24F1 JUMPI PUSH1 0x0 DUP1 REVERT JUMPDEST PUSH1 0x40 DUP1 MLOAD DUP5 DUP2 MSTORE PUSH1 0x20 DUP2 ADD DUP4 SWAP1 MSTORE CALLER SWAP2 PUSH1 0x1 PUSH1 0x1 PUSH1 0xA0 SHL SUB DUP6 AND SWAP2 PUSH32 0xDCBC1C05240F31FF3AD067EF1EE35CE4997762752E3A095284754544F4C709D7 SWAP2 ADD JUMPDEST PUSH1 0x40 MLOAD DUP1 SWAP2 SUB SWAP1 LOG3 POP POP POP JUMP JUMPDEST PUSH1 0x9E SLOAD PUSH1 0x1 PUSH1 0x1 PUSH1 0xA0 SHL SUB AND CALLER EQ PUSH2 0x2554 JUMPI PUSH1 0x0 DUP1 REVERT JUMPDEST PUSH1 0x1 PUSH1 0x1 PUSH1 0xA0 SHL SUB DUP4 AND PUSH1 0x0 SWAP1 DUP2 MSTORE PUSH1 0xAE PUSH1 0x20 MSTORE PUSH1 0x40 SWAP1 KECCAK256 DUP1 SLOAD PUSH1 0xFF NOT AND PUSH1 0x1 OR SWAP1 SSTORE PUSH1 0x1 PUSH1 0x1 PUSH1 0xA0 SHL SUB SWAP3 DUP4 AND PUSH1 0x0 SWAP1 DUP2 MSTORE PUSH1 0xA7 PUSH1 0x20 SWAP1 DUP2 MSTORE PUSH1 0x40 DUP1 DUP4 KECCAK256 DUP1 SLOAD SWAP6 DUP8 AND PUSH1 0x1 PUSH1 0x1 PUSH1 0xA0 SHL SUB NOT SWAP7 DUP8 AND OR SWAP1 SSTORE PUSH1 0xA8 SWAP1 SWAP2 MSTORE SWAP1 KECCAK256 DUP1 SLOAD SWAP2 SWAP1 SWAP4 AND SWAP2 AND OR SWAP1 SSTORE JUMP JUMPDEST PUSH1 0xAB PUSH1 0x20 MSTORE DUP2 PUSH1 0x0 MSTORE PUSH1 0x40 PUSH1 0x0 KECCAK256 DUP2 DUP2 SLOAD DUP2 LT PUSH2 0x25D7 JUMPI PUSH1 0x0 DUP1 REVERT JUMPDEST PUSH1 0x0 SWAP2 DUP3 MSTORE PUSH1 0x20 SWAP1 SWAP2 KECCAK256 ADD SLOAD PUSH1 0x1 PUSH1 0x1 PUSH1 0xA0 SHL SUB AND SWAP2 POP DUP3 SWAP1 POP JUMP JUMPDEST PUSH1 0x9E SLOAD PUSH1 0x1 PUSH1 0x1 PUSH1 0xA0 SHL SUB AND CALLER EQ PUSH2 0x260A JUMPI PUSH1 0x0 DUP1 REVERT JUMPDEST PUSH1 0x9B DUP1 SLOAD PUSH1 0x1 PUSH1 0x1 PUSH1 0xA0 SHL SUB NOT AND PUSH1 0x1 PUSH1 0x1 PUSH1 0xA0 SHL SUB SWAP3 SWAP1 SWAP3 AND SWAP2 SWAP1 SWAP2 OR SWAP1 SSTORE JUMP JUMPDEST PUSH1 0xA3 DUP2 DUP2 SLOAD DUP2 LT PUSH2 0x263C JUMPI PUSH1 0x0 DUP1 REVERT JUMPDEST PUSH1 0x0 SWAP2 DUP3 MSTORE PUSH1 0x20 SWAP1 SWAP2 KECCAK256 ADD SLOAD PUSH1 0x1 PUSH1 0x1 PUSH1 0xA0 SHL SUB AND SWAP1 POP DUP2 JUMP JUMPDEST PUSH1 0x9D SLOAD PUSH1 0x1 PUSH1 0x1 PUSH1 0xA0 SHL SUB AND CALLER EQ PUSH2 0x266D JUMPI PUSH1 0x0 DUP1 REVERT JUMPDEST PUSH1 0x0 JUMPDEST DUP2 MLOAD DUP2 LT ISZERO PUSH2 0x10CC JUMPI PUSH2 0x268E DUP3 DUP3 DUP2 MLOAD DUP2 LT PUSH2 0xA0D JUMPI PUSH2 0xA0D PUSH2 0x414F JUMP JUMPDEST DUP1 PUSH2 0x2698 DUP2 PUSH2 0x417B JUMP JUMPDEST SWAP2 POP POP PUSH2 0x2670 JUMP JUMPDEST PUSH1 0x9D SLOAD PUSH1 0x1 PUSH1 0x1 PUSH1 0xA0 SHL SUB AND CALLER EQ PUSH2 0x26B7 JUMPI PUSH1 0x0 DUP1 REVERT JUMPDEST PUSH1 0x9D DUP1 SLOAD PUSH1 0x1 PUSH1 0x1 PUSH1 0xA0 SHL SUB NOT AND PUSH1 0x1 PUSH1 0x1 PUSH1 0xA0 SHL SUB SWAP3 SWAP1 SWAP3 AND SWAP2 SWAP1 SWAP2 OR SWAP1 SSTORE JUMP JUMPDEST PUSH1 0x0 JUMPDEST DUP2 MLOAD DUP2 LT ISZERO PUSH2 0x10CC JUMPI DUP2 DUP2 DUP2 MLOAD DUP2 LT PUSH2 0x26F7 JUMPI PUSH2 0x26F7 PUSH2 0x414F JUMP JUMPDEST PUSH1 0x20 MUL PUSH1 0x20 ADD ADD MLOAD PUSH1 0x1 PUSH1 0x1 PUSH1 0xA0 SHL SUB AND PUSH4 0xE5748213 PUSH1 0x40 MLOAD DUP2 PUSH4 0xFFFFFFFF AND PUSH1 0xE0 SHL DUP2 MSTORE PUSH1 0x4 ADD PUSH1 0x20 PUSH1 0x40 MLOAD DUP1 DUP4 SUB DUP2 DUP7 GAS STATICCALL ISZERO DUP1 ISZERO PUSH2 0x273C JUMPI RETURNDATASIZE PUSH1 0x0 DUP1 RETURNDATACOPY RETURNDATASIZE PUSH1 0x0 REVERT JUMPDEST POP POP POP POP PUSH1 0x40 MLOAD RETURNDATASIZE PUSH1 0x1F NOT PUSH1 0x1F DUP3 ADD AND DUP3 ADD DUP1 PUSH1 0x40 MSTORE POP DUP2 ADD SWAP1 PUSH2 0x2760 SWAP2 SWAP1 PUSH2 0x4215 JUMP JUMPDEST ISZERO PUSH2 0x27E4 JUMPI DUP2 DUP2 DUP2 MLOAD DUP2 LT PUSH2 0x2777 JUMPI PUSH2 0x2777 PUSH2 0x414F JUMP JUMPDEST PUSH1 0x20 MUL PUSH1 0x20 ADD ADD MLOAD PUSH1 0x1 PUSH1 0x1 PUSH1 0xA0 SHL SUB AND PUSH4 0xD294F093 PUSH1 0x40 MLOAD DUP2 PUSH4 0xFFFFFFFF AND PUSH1 0xE0 SHL DUP2 MSTORE PUSH1 0x4 ADD PUSH1 0x40 DUP1 MLOAD DUP1 DUP4 SUB DUP2 PUSH1 0x0 DUP8 GAS CALL ISZERO DUP1 ISZERO PUSH2 0x27BD JUMPI RETURNDATASIZE PUSH1 0x0 DUP1 RETURNDATACOPY RETURNDATASIZE PUSH1 0x0 REVERT JUMPDEST POP POP POP POP PUSH1 0x40 MLOAD RETURNDATASIZE PUSH1 0x1F NOT PUSH1 0x1F DUP3 ADD AND DUP3 ADD DUP1 PUSH1 0x40 MSTORE POP DUP2 ADD SWAP1 PUSH2 0x27E1 SWAP2 SWAP1 PUSH2 0x44C0 JUMP JUMPDEST POP POP JUMPDEST DUP1 PUSH2 0x27EE DUP2 PUSH2 0x417B JUMP JUMPDEST SWAP2 POP POP PUSH2 0x26DC JUMP JUMPDEST CALLER PUSH2 0x2809 PUSH1 0x33 SLOAD PUSH1 0x1 PUSH1 0x1 PUSH1 0xA0 SHL SUB AND SWAP1 JUMP JUMPDEST PUSH1 0x1 PUSH1 0x1 PUSH1 0xA0 SHL SUB AND EQ PUSH2 0x284B JUMPI PUSH1 0x40 MLOAD PUSH3 0x461BCD PUSH1 0xE5 SHL DUP2 MSTORE PUSH1 0x20 PUSH1 0x4 DUP3 ADD MSTORE PUSH1 0x9 PUSH1 0x24 DUP3 ADD MSTORE PUSH9 0x3737BA1037BBB732B9 PUSH1 0xB9 SHL PUSH1 0x44 DUP3 ADD MSTORE PUSH1 0x64 ADD PUSH2 0x184D JUMP JUMPDEST PUSH1 0x97 DUP1 SLOAD PUSH1 0x1 PUSH1 0x1 PUSH1 0xA0 SHL SUB NOT AND PUSH1 0x1 PUSH1 0x1 PUSH1 0xA0 SHL SUB SWAP3 SWAP1 SWAP3 AND SWAP2 SWAP1 SWAP2 OR SWAP1 SSTORE JUMP JUMPDEST PUSH1 0x0 JUMPDEST DUP2 MLOAD DUP2 LT ISZERO PUSH2 0x10CC JUMPI PUSH2 0x289B DUP3 DUP3 DUP2 MLOAD DUP2 LT PUSH2 0x288E JUMPI PUSH2 0x288E PUSH2 0x414F JUMP JUMPDEST PUSH1 0x20 MUL PUSH1 0x20 ADD ADD MLOAD PUSH2 0x3964 JUMP JUMPDEST DUP1 PUSH2 0x28A5 DUP2 PUSH2 0x417B JUMP JUMPDEST SWAP2 POP POP PUSH2 0x2870 JUMP JUMPDEST PUSH1 0x9E SLOAD PUSH1 0x1 PUSH1 0x1 PUSH1 0xA0 SHL SUB AND CALLER EQ PUSH2 0x28C4 JUMPI PUSH1 0x0 DUP1 REVERT JUMPDEST PUSH1 0x9E DUP1 SLOAD PUSH1 0x1 PUSH1 0x1 PUSH1 0xA0 SHL SUB NOT AND PUSH1 0x1 PUSH1 0x1 PUSH1 0xA0 SHL SUB SWAP3 SWAP1 SWAP3 AND SWAP2 SWAP1 SWAP2 OR SWAP1 SSTORE JUMP JUMPDEST CALLER PUSH1 0x0 SWAP1 DUP2 MSTORE PUSH1 0xAE PUSH1 0x20 MSTORE PUSH1 0x40 SWAP1 KECCAK256 SLOAD PUSH1 0xFF AND PUSH2 0x2902 JUMPI PUSH1 0x0 DUP1 REVERT JUMPDEST PUSH1 0x40 DUP1 MLOAD DUP5 DUP2 MSTORE PUSH1 0x20 DUP2 ADD DUP4 SWAP1 MSTORE CALLER SWAP2 PUSH1 0x1 PUSH1 0x1 PUSH1 0xA0 SHL SUB DUP6 AND SWAP2 PUSH32 0xF341246ADAAC6F497BC2A656F546AB9E182111D630394F0C57C710A59A2CB567 SWAP2 ADD PUSH2 0x2530 JUMP JUMPDEST PUSH2 0x294D PUSH2 0x3A65 JUMP JUMPDEST PUSH1 0x1 PUSH1 0x1 PUSH1 0xA0 SHL SUB DUP2 AND PUSH2 0x29B2 JUMPI PUSH1 0x40 MLOAD PUSH3 0x461BCD PUSH1 0xE5 SHL DUP2 MSTORE PUSH1 0x20 PUSH1 0x4 DUP3 ADD MSTORE PUSH1 0x26 PUSH1 0x24 DUP3 ADD MSTORE PUSH32 0x4F776E61626C653A206E6577206F776E657220697320746865207A65726F2061 PUSH1 0x44 DUP3 ADD MSTORE PUSH6 0x646472657373 PUSH1 0xD0 SHL PUSH1 0x64 DUP3 ADD MSTORE PUSH1 0x84 ADD PUSH2 0x184D JUMP JUMPDEST PUSH2 0xC45 DUP2 PUSH2 0x3ABF JUMP JUMPDEST PUSH1 0x0 SLOAD PUSH2 0x100 SWAP1 DIV PUSH1 0xFF AND ISZERO DUP1 DUP1 ISZERO PUSH2 0x29DB JUMPI POP PUSH1 0x0 SLOAD PUSH1 0x1 PUSH1 0xFF SWAP1 SWAP2 AND LT JUMPDEST DUP1 PUSH2 0x29F5 JUMPI POP ADDRESS EXTCODESIZE ISZERO DUP1 ISZERO PUSH2 0x29F5 JUMPI POP PUSH1 0x0 SLOAD PUSH1 0xFF AND PUSH1 0x1 EQ JUMPDEST PUSH2 0x2A58 JUMPI PUSH1 0x40 MLOAD PUSH3 0x461BCD PUSH1 0xE5 SHL DUP2 MSTORE PUSH1 0x20 PUSH1 0x4 DUP3 ADD MSTORE PUSH1 0x2E PUSH1 0x24 DUP3 ADD MSTORE PUSH32 0x496E697469616C697A61626C653A20636F6E747261637420697320616C726561 PUSH1 0x44 DUP3 ADD MSTORE PUSH14 0x191E481A5B9A5D1A585B1A5E9959 PUSH1 0x92 SHL PUSH1 0x64 DUP3 ADD MSTORE PUSH1 0x84 ADD PUSH2 0x184D JUMP JUMPDEST PUSH1 0x0 DUP1 SLOAD PUSH1 0xFF NOT AND PUSH1 0x1 OR SWAP1 SSTORE DUP1 ISZERO PUSH2 0x2A7B JUMPI PUSH1 0x0 DUP1 SLOAD PUSH2 0xFF00 NOT AND PUSH2 0x100 OR SWAP1 SSTORE JUMPDEST PUSH2 0x2A83 PUSH2 0x3B11 JUMP JUMPDEST PUSH2 0x2A8B PUSH2 0x3B40 JUMP JUMPDEST PUSH1 0x97 DUP1 SLOAD PUSH1 0x1 PUSH1 0x1 PUSH1 0xA0 SHL SUB DUP1 DUP9 AND PUSH1 0x1 PUSH1 0x1 PUSH1 0xA0 SHL SUB NOT SWAP3 DUP4 AND DUP2 OR SWAP1 SWAP4 SSTORE PUSH1 0x98 DUP1 SLOAD SWAP2 DUP9 AND SWAP2 SWAP1 SWAP3 AND OR SWAP1 SSTORE PUSH1 0x40 DUP1 MLOAD PUSH4 0x7E062A35 PUSH1 0xE1 SHL DUP2 MSTORE SWAP1 MLOAD PUSH4 0xFC0C546A SWAP2 PUSH1 0x4 DUP1 DUP3 ADD SWAP3 PUSH1 0x20 SWAP3 SWAP1 SWAP2 SWAP1 DUP3 SWAP1 SUB ADD DUP2 DUP7 GAS STATICCALL ISZERO DUP1 ISZERO PUSH2 0x2AF4 JUMPI RETURNDATASIZE PUSH1 0x0 DUP1 RETURNDATACOPY RETURNDATASIZE PUSH1 0x0 REVERT JUMPDEST POP POP POP POP PUSH1 0x40 MLOAD RETURNDATASIZE PUSH1 0x1F NOT PUSH1 0x1F DUP3 ADD AND DUP3 ADD DUP1 PUSH1 0x40 MSTORE POP DUP2 ADD SWAP1 PUSH2 0x2B18 SWAP2 SWAP1 PUSH2 0x446D JUMP JUMPDEST PUSH1 0x99 DUP1 SLOAD PUSH1 0x1 PUSH1 0x1 PUSH1 0xA0 SHL SUB NOT SWAP1 DUP2 AND PUSH1 0x1 PUSH1 0x1 PUSH1 0xA0 SHL SUB SWAP4 DUP5 AND OR SWAP1 SWAP2 SSTORE PUSH1 0x9A DUP1 SLOAD DUP3 AND DUP7 DUP5 AND OR SWAP1 SSTORE PUSH1 0x9B DUP1 SLOAD DUP3 AND SWAP3 DUP6 AND SWAP3 SWAP1 SWAP3 OR SWAP1 SWAP2 SSTORE PUSH1 0x9C DUP1 SLOAD CALLER SWAP1 DUP4 AND DUP2 OR SWAP1 SWAP2 SSTORE PUSH1 0x9D DUP1 SLOAD DUP4 AND DUP3 OR SWAP1 SSTORE PUSH1 0x9E DUP1 SLOAD SWAP1 SWAP3 AND OR SWAP1 SSTORE DUP1 ISZERO PUSH2 0x181C JUMPI PUSH1 0x0 DUP1 SLOAD PUSH2 0xFF00 NOT AND SWAP1 SSTORE PUSH1 0x40 MLOAD PUSH1 0x1 DUP2 MSTORE PUSH32 0x7F26B83FF96E1F2B6A682F133852F6798A09C465DA95921460CEFB3847402498 SWAP1 PUSH1 0x20 ADD PUSH1 0x40 MLOAD DUP1 SWAP2 SUB SWAP1 LOG1 POP POP POP POP POP JUMP JUMPDEST PUSH1 0x9E SLOAD PUSH1 0x1 PUSH1 0x1 PUSH1 0xA0 SHL SUB AND CALLER EQ PUSH2 0x2BD7 JUMPI PUSH1 0x0 DUP1 REVERT JUMPDEST PUSH1 0x9C DUP1 SLOAD PUSH1 0x1 PUSH1 0x1 PUSH1 0xA0 SHL SUB NOT AND PUSH1 0x1 PUSH1 0x1 PUSH1 0xA0 SHL SUB SWAP3 SWAP1 SWAP3 AND SWAP2 SWAP1 SWAP2 OR SWAP1 SSTORE JUMP JUMPDEST PUSH1 0x9E SLOAD PUSH1 0x1 PUSH1 0x1 PUSH1 0xA0 SHL SUB AND CALLER EQ PUSH2 0x2C10 JUMPI PUSH1 0x0 DUP1 REVERT JUMPDEST PUSH1 0x0 JUMPDEST DUP2 MLOAD DUP2 LT ISZERO PUSH2 0xB01 JUMPI PUSH1 0x0 DUP3 DUP3 DUP2 MLOAD DUP2 LT PUSH2 0x2C30 JUMPI PUSH2 0x2C30 PUSH2 0x414F JUMP JUMPDEST PUSH1 0x20 MUL PUSH1 0x20 ADD ADD MLOAD SWAP1 POP PUSH1 0x0 DUP5 DUP4 DUP2 MLOAD DUP2 LT PUSH2 0x2C4E JUMPI PUSH2 0x2C4E PUSH2 0x414F JUMP JUMPDEST PUSH1 0x20 MUL PUSH1 0x20 ADD ADD MLOAD SWAP1 POP PUSH1 0x0 DUP1 DUP4 PUSH1 0x1 PUSH1 0x1 PUSH1 0xA0 SHL SUB AND PUSH4 0x9D63848A PUSH1 0x40 MLOAD DUP2 PUSH4 0xFFFFFFFF AND PUSH1 0xE0 SHL DUP2 MSTORE PUSH1 0x4 ADD PUSH1 0x40 DUP1 MLOAD DUP1 DUP4 SUB DUP2 DUP7 GAS STATICCALL ISZERO DUP1 ISZERO PUSH2 0x2C98 JUMPI RETURNDATASIZE PUSH1 0x0 DUP1 RETURNDATACOPY RETURNDATASIZE PUSH1 0x0 REVERT JUMPDEST POP POP POP POP PUSH1 0x40 MLOAD RETURNDATASIZE PUSH1 0x1F NOT PUSH1 0x1F DUP3 ADD AND DUP3 ADD DUP1 PUSH1 0x40 MSTORE POP DUP2 ADD SWAP1 PUSH2 0x2CBC SWAP2 SWAP1 PUSH2 0x42F1 JUMP JUMPDEST DUP1 SWAP3 POP DUP2 SWAP4 POP POP POP PUSH1 0x0 DUP5 PUSH1 0x1 PUSH1 0x1 PUSH1 0xA0 SHL SUB AND PUSH4 0x95D89B41 PUSH1 0x40 MLOAD DUP2 PUSH4 0xFFFFFFFF AND PUSH1 0xE0 SHL DUP2 MSTORE PUSH1 0x4 ADD PUSH1 0x0 PUSH1 0x40 MLOAD DUP1 DUP4 SUB DUP2 DUP7 GAS STATICCALL ISZERO DUP1 ISZERO PUSH2 0x2D04 JUMPI RETURNDATASIZE PUSH1 0x0 DUP1 RETURNDATACOPY RETURNDATASIZE PUSH1 0x0 REVERT JUMPDEST POP POP POP POP PUSH1 0x40 MLOAD RETURNDATASIZE PUSH1 0x0 DUP3 RETURNDATACOPY PUSH1 0x1F RETURNDATASIZE SWAP1 DUP2 ADD PUSH1 0x1F NOT AND DUP3 ADD PUSH1 0x40 MSTORE PUSH2 0x2D2C SWAP2 SWAP1 DUP2 ADD SWAP1 PUSH2 0x434C JUMP JUMPDEST PUSH1 0x40 MLOAD PUSH1 0x20 ADD PUSH2 0x2D3C SWAP2 SWAP1 PUSH2 0x43E0 JUMP JUMPDEST PUSH1 0x40 DUP1 MLOAD PUSH1 0x1F NOT DUP2 DUP5 SUB ADD DUP2 MSTORE SWAP2 SWAP1 MSTORE PUSH1 0x9B SLOAD SWAP1 SWAP2 POP PUSH1 0x0 SWAP1 PUSH1 0x1 PUSH1 0x1 PUSH1 0xA0 SHL SUB AND PUSH2 0xE66B PUSH2 0x2D73 PUSH1 0x33 SLOAD PUSH1 0x1 PUSH1 0x1 PUSH1 0xA0 SHL SUB AND SWAP1 JUMP JUMPDEST DUP7 DUP7 DUP7 PUSH1 0x40 MLOAD DUP6 PUSH4 0xFFFFFFFF AND PUSH1 0xE0 SHL DUP2 MSTORE PUSH1 0x4 ADD PUSH2 0x2D95 SWAP5 SWAP4 SWAP3 SWAP2 SWAP1 PUSH2 0x4417 JUMP JUMPDEST PUSH1 0x20 PUSH1 0x40 MLOAD DUP1 DUP4 SUB DUP2 PUSH1 0x0 DUP8 GAS CALL ISZERO DUP1 ISZERO PUSH2 0x2DB4 JUMPI RETURNDATASIZE PUSH1 0x0 DUP1 RETURNDATACOPY RETURNDATASIZE PUSH1 0x0 REVERT JUMPDEST POP POP POP POP PUSH1 0x40 MLOAD RETURNDATASIZE PUSH1 0x1F NOT PUSH1 0x1F DUP3 ADD AND DUP3 ADD DUP1 PUSH1 0x40 MSTORE POP DUP2 ADD SWAP1 PUSH2 0x2DD8 SWAP2 SWAP1 PUSH2 0x446D JUMP JUMPDEST SWAP1 POP DUP6 PUSH1 0x1 PUSH1 0x1 PUSH1 0xA0 SHL SUB AND PUSH4 0x95D89B41 PUSH1 0x40 MLOAD DUP2 PUSH4 0xFFFFFFFF AND PUSH1 0xE0 SHL DUP2 MSTORE PUSH1 0x4 ADD PUSH1 0x0 PUSH1 0x40 MLOAD DUP1 DUP4 SUB DUP2 DUP7 GAS STATICCALL ISZERO DUP1 ISZERO PUSH2 0x2E18 JUMPI RETURNDATASIZE PUSH1 0x0 DUP1 RETURNDATACOPY RETURNDATASIZE PUSH1 0x0 REVERT JUMPDEST POP POP POP POP PUSH1 0x40 MLOAD RETURNDATASIZE PUSH1 0x0 DUP3 RETURNDATACOPY PUSH1 0x1F RETURNDATASIZE SWAP1 DUP2 ADD PUSH1 0x1F NOT AND DUP3 ADD PUSH1 0x40 MSTORE PUSH2 0x2E40 SWAP2 SWAP1 DUP2 ADD SWAP1 PUSH2 0x434C JUMP JUMPDEST PUSH1 0x40 MLOAD PUSH1 0x20 ADD PUSH2 0x2E50 SWAP2 SWAP1 PUSH2 0x448A JUMP JUMPDEST PUSH1 0x40 DUP1 MLOAD PUSH1 0x1F NOT DUP2 DUP5 SUB ADD DUP2 MSTORE SWAP2 SWAP1 MSTORE PUSH1 0x9B SLOAD SWAP1 SWAP3 POP PUSH1 0x0 SWAP1 PUSH1 0x1 PUSH1 0x1 PUSH1 0xA0 SHL SUB AND PUSH2 0xE66B PUSH2 0x2E87 PUSH1 0x33 SLOAD PUSH1 0x1 PUSH1 0x1 PUSH1 0xA0 SHL SUB AND SWAP1 JUMP JUMPDEST DUP8 DUP8 DUP8 PUSH1 0x40 MLOAD DUP6 PUSH4 0xFFFFFFFF AND PUSH1 0xE0 SHL DUP2 MSTORE PUSH1 0x4 ADD PUSH2 0x2EA9 SWAP5 SWAP4 SWAP3 SWAP2 SWAP1 PUSH2 0x4417 JUMP JUMPDEST PUSH1 0x20 PUSH1 0x40 MLOAD DUP1 DUP4 SUB DUP2 PUSH1 0x0 DUP8 GAS CALL ISZERO DUP1 ISZERO PUSH2 0x2EC8 JUMPI RETURNDATASIZE PUSH1 0x0 DUP1 RETURNDATACOPY RETURNDATASIZE PUSH1 0x0 REVERT JUMPDEST POP POP POP POP PUSH1 0x40 MLOAD RETURNDATASIZE PUSH1 0x1F NOT PUSH1 0x1F DUP3 ADD AND DUP3 ADD DUP1 PUSH1 0x40 MSTORE POP DUP2 ADD SWAP1 PUSH2 0x2EEC SWAP2 SWAP1 PUSH2 0x446D JUMP JUMPDEST PUSH1 0x99 SLOAD PUSH1 0x40 MLOAD PUSH4 0x95EA7B3 PUSH1 0xE0 SHL DUP2 MSTORE SWAP2 SWAP3 POP PUSH1 0x1 PUSH1 0x1 PUSH1 0xA0 SHL SUB AND SWAP1 PUSH4 0x95EA7B3 SWAP1 PUSH2 0x2F21 SWAP1 DUP10 SWAP1 PUSH1 0x0 NOT SWAP1 PUSH1 0x4 ADD PUSH2 0x41FC JUMP JUMPDEST PUSH1 0x20 PUSH1 0x40 MLOAD DUP1 DUP4 SUB DUP2 PUSH1 0x0 DUP8 GAS CALL ISZERO DUP1 ISZERO PUSH2 0x2F40 JUMPI RETURNDATASIZE PUSH1 0x0 DUP1 RETURNDATACOPY RETURNDATASIZE PUSH1 0x0 REVERT JUMPDEST POP POP POP POP PUSH1 0x40 MLOAD RETURNDATASIZE PUSH1 0x1F NOT PUSH1 0x1F DUP3 ADD AND DUP3 ADD DUP1 PUSH1 0x40 MSTORE POP DUP2 ADD SWAP1 PUSH2 0x2F64 SWAP2 SWAP1 PUSH2 0x4215 JUMP JUMPDEST POP PUSH1 0x1 PUSH1 0x1 PUSH1 0xA0 SHL SUB DUP7 DUP2 AND PUSH1 0x0 DUP2 DUP2 MSTORE PUSH1 0xA7 PUSH1 0x20 SWAP1 DUP2 MSTORE PUSH1 0x40 DUP1 DUP4 KECCAK256 DUP1 SLOAD PUSH1 0x1 PUSH1 0x1 PUSH1 0xA0 SHL SUB NOT SWAP1 DUP2 AND DUP10 DUP9 AND OR SWAP1 SWAP2 SSTORE PUSH1 0xA8 DUP4 MSTORE DUP2 DUP5 KECCAK256 DUP1 SLOAD DUP3 AND DUP9 DUP9 AND OR SWAP1 SSTORE SWAP5 DUP13 AND DUP1 DUP5 MSTORE PUSH1 0xA4 DUP4 MSTORE DUP2 DUP5 KECCAK256 DUP1 SLOAD DUP8 AND DUP7 OR SWAP1 SSTORE SWAP4 DUP4 MSTORE PUSH1 0xA6 DUP3 MSTORE DUP1 DUP4 KECCAK256 DUP1 SLOAD SWAP1 SWAP6 AND SWAP1 SWAP4 OR SWAP1 SWAP4 SSTORE PUSH1 0xAE DUP4 MSTORE DUP2 DUP2 KECCAK256 DUP1 SLOAD PUSH1 0xFF NOT SWAP1 DUP2 AND PUSH1 0x1 SWAP1 DUP2 OR SWAP1 SWAP3 SSTORE PUSH1 0xB0 SWAP1 SWAP5 MSTORE SWAP2 SWAP1 KECCAK256 DUP1 SLOAD SWAP1 SWAP3 AND OR SWAP1 SSTORE PUSH2 0x3001 DUP7 PUSH2 0x3964 JUMP JUMPDEST PUSH1 0xA3 DUP1 SLOAD PUSH1 0x1 DUP2 ADD DUP3 SSTORE PUSH1 0x0 SWAP2 SWAP1 SWAP2 MSTORE PUSH32 0x60859188CFFE297F44DDE29F2D2865634621F26215049CAEB304CCBA566A8B17 ADD DUP1 SLOAD PUSH1 0x1 PUSH1 0x1 PUSH1 0xA0 SHL SUB NOT AND PUSH1 0x1 PUSH1 0x1 PUSH1 0xA0 SHL SUB DUP10 DUP2 AND SWAP2 DUP3 OR SWAP1 SWAP3 SSTORE PUSH1 0x40 DUP1 MLOAD CALLER DUP2 MSTORE DUP6 DUP5 AND PUSH1 0x20 DUP3 ADD MSTORE SWAP2 SWAP3 DUP5 DUP2 AND SWAP3 SWAP1 DUP11 AND SWAP2 PUSH32 0xA4D97E9E7C65249B4CD01ACB82ADD613ADEA98AF32DAF092366982F0A0D4E453 SWAP2 ADD PUSH1 0x40 MLOAD DUP1 SWAP2 SUB SWAP1 LOG4 POP POP POP POP POP POP POP DUP1 DUP1 PUSH2 0x30A6 SWAP1 PUSH2 0x417B JUMP JUMPDEST SWAP2 POP POP PUSH2 0x2C13 JUMP JUMPDEST PUSH1 0x1 PUSH1 0x1 PUSH1 0xA0 SHL SUB DUP2 AND PUSH1 0x0 SWAP1 DUP2 MSTORE PUSH1 0xAF PUSH1 0x20 MSTORE PUSH1 0x40 SWAP1 KECCAK256 SLOAD PUSH1 0xFF AND ISZERO PUSH2 0x30D4 JUMPI PUSH1 0x0 DUP1 REVERT JUMPDEST PUSH1 0x1 PUSH1 0x1 PUSH1 0xA0 SHL SUB DUP2 AND PUSH1 0x0 DUP2 DUP2 MSTORE PUSH1 0xAF PUSH1 0x20 MSTORE PUSH1 0x40 DUP1 DUP3 KECCAK256 DUP1 SLOAD PUSH1 0xFF NOT AND PUSH1 0x1 OR SWAP1 SSTORE MLOAD CALLER SWAP2 PUSH32 0x6661A7108AECD07864384529117D96C319C1163E3010C01390F6B704726E07DE SWAP2 LOG3 POP JUMP JUMPDEST PUSH1 0x2 PUSH1 0x65 SLOAD SUB PUSH2 0x3173 JUMPI PUSH1 0x40 MLOAD PUSH3 0x461BCD PUSH1 0xE5 SHL DUP2 MSTORE PUSH1 0x20 PUSH1 0x4 DUP3 ADD MSTORE PUSH1 0x1F PUSH1 0x24 DUP3 ADD MSTORE PUSH32 0x5265656E7472616E637947756172643A207265656E7472616E742063616C6C00 PUSH1 0x44 DUP3 ADD MSTORE PUSH1 0x64 ADD PUSH2 0x184D JUMP JUMPDEST PUSH1 0x2 PUSH1 0x65 SSTORE JUMP JUMPDEST PUSH1 0x0 DUP2 DUP2 MSTORE PUSH1 0xAB PUSH1 0x20 MSTORE PUSH1 0x40 DUP2 KECCAK256 DUP1 SLOAD SWAP1 SWAP2 DUP1 JUMPDEST DUP3 DUP2 LT ISZERO PUSH2 0x33E5 JUMPI PUSH1 0x0 DUP5 DUP3 DUP2 SLOAD DUP2 LT PUSH2 0x31AA JUMPI PUSH2 0x31AA PUSH2 0x414F JUMP JUMPDEST PUSH1 0x0 SWAP2 DUP3 MSTORE PUSH1 0x20 DUP1 DUP4 KECCAK256 SWAP1 SWAP2 ADD SLOAD DUP9 DUP4 MSTORE PUSH1 0xAA DUP3 MSTORE PUSH1 0x40 DUP1 DUP5 KECCAK256 PUSH1 0x1 PUSH1 0x1 PUSH1 0xA0 SHL SUB SWAP1 SWAP3 AND DUP1 DUP6 MSTORE SWAP2 SWAP1 SWAP3 MSTORE SWAP2 KECCAK256 SLOAD SWAP1 SWAP2 POP DUP1 ISZERO PUSH2 0x33D0 JUMPI PUSH1 0x1 PUSH1 0x1 PUSH1 0xA0 SHL SUB DUP1 DUP4 AND PUSH1 0x0 SWAP1 DUP2 MSTORE PUSH1 0xA4 PUSH1 0x20 MSTORE PUSH1 0x40 SWAP1 KECCAK256 SLOAD PUSH2 0x3206 SWAP2 AND PUSH2 0x3964 JUMP JUMPDEST PUSH1 0x1 PUSH1 0x1 PUSH1 0xA0 SHL SUB DUP3 AND PUSH1 0x0 SWAP1 DUP2 MSTORE PUSH1 0xA9 PUSH1 0x20 MSTORE PUSH1 0x40 DUP2 KECCAK256 DUP1 SLOAD DUP4 SWAP3 SWAP1 PUSH2 0x322E SWAP1 DUP5 SWAP1 PUSH2 0x44E4 JUMP JUMPDEST SWAP1 SWAP2 SSTORE POP POP PUSH1 0x0 DUP8 DUP2 MSTORE PUSH1 0xAA PUSH1 0x20 SWAP1 DUP2 MSTORE PUSH1 0x40 DUP1 DUP4 KECCAK256 PUSH1 0x1 PUSH1 0x1 PUSH1 0xA0 SHL SUB DUP7 AND DUP5 MSTORE SWAP1 SWAP2 MSTORE DUP2 KECCAK256 DUP1 SLOAD DUP4 SWAP3 SWAP1 PUSH2 0x3265 SWAP1 DUP5 SWAP1 PUSH2 0x44E4 JUMP JUMPDEST SWAP1 SWAP2 SSTORE POP POP DUP1 ISZERO PUSH2 0x3389 JUMPI PUSH1 0x1 PUSH1 0x1 PUSH1 0xA0 SHL SUB DUP3 DUP2 AND PUSH1 0x0 SWAP1 DUP2 MSTORE PUSH1 0xA4 PUSH1 0x20 SWAP1 DUP2 MSTORE PUSH1 0x40 DUP1 DUP4 KECCAK256 SLOAD DUP5 AND DUP4 MSTORE PUSH1 0xA7 SWAP1 SWAP2 MSTORE SWAP1 DUP2 SWAP1 KECCAK256 SLOAD SWAP1 MLOAD PUSH4 0x278AFC8B PUSH1 0xE2 SHL DUP2 MSTORE PUSH1 0x4 DUP2 ADD DUP5 SWAP1 MSTORE PUSH1 0x24 DUP2 ADD DUP11 SWAP1 MSTORE SWAP2 AND SWAP1 PUSH4 0x9E2BF22C SWAP1 PUSH1 0x44 ADD PUSH1 0x0 PUSH1 0x40 MLOAD DUP1 DUP4 SUB DUP2 PUSH1 0x0 DUP8 DUP1 EXTCODESIZE ISZERO DUP1 ISZERO PUSH2 0x32DB JUMPI PUSH1 0x0 DUP1 REVERT JUMPDEST POP GAS CALL ISZERO DUP1 ISZERO PUSH2 0x32EF JUMPI RETURNDATASIZE PUSH1 0x0 DUP1 RETURNDATACOPY RETURNDATASIZE PUSH1 0x0 REVERT JUMPDEST POP POP POP POP PUSH1 0x1 PUSH1 0x1 PUSH1 0xA0 SHL SUB DUP3 DUP2 AND PUSH1 0x0 SWAP1 DUP2 MSTORE PUSH1 0xA4 PUSH1 0x20 SWAP1 DUP2 MSTORE PUSH1 0x40 DUP1 DUP4 KECCAK256 SLOAD DUP5 AND DUP4 MSTORE PUSH1 0xA8 SWAP1 SWAP2 MSTORE SWAP1 DUP2 SWAP1 KECCAK256 SLOAD SWAP1 MLOAD PUSH4 0x278AFC8B PUSH1 0xE2 SHL DUP2 MSTORE PUSH1 0x4 DUP2 ADD DUP5 SWAP1 MSTORE PUSH1 0x24 DUP2 ADD DUP11 SWAP1 MSTORE SWAP2 AND SWAP1 PUSH4 0x9E2BF22C SWAP1 PUSH1 0x44 ADD PUSH1 0x0 PUSH1 0x40 MLOAD DUP1 DUP4 SUB DUP2 PUSH1 0x0 DUP8 DUP1 EXTCODESIZE ISZERO DUP1 ISZERO PUSH2 0x335E JUMPI PUSH1 0x0 DUP1 REVERT JUMPDEST POP GAS CALL ISZERO DUP1 ISZERO PUSH2 0x3372 JUMPI RETURNDATASIZE PUSH1 0x0 DUP1 RETURNDATACOPY RETURNDATASIZE PUSH1 0x0 REVERT JUMPDEST POP POP POP POP DUP1 DUP5 PUSH2 0x3382 SWAP2 SWAP1 PUSH2 0x4278 JUMP JUMPDEST SWAP4 POP PUSH2 0x3396 JUMP JUMPDEST PUSH2 0x3393 DUP2 DUP6 PUSH2 0x44E4 JUMP JUMPDEST SWAP4 POP JUMPDEST PUSH1 0x40 DUP1 MLOAD DUP9 DUP2 MSTORE PUSH1 0x20 DUP2 ADD DUP4 SWAP1 MSTORE PUSH32 0xA9F3CA5F8A9E1580EDB2741E0BA560084EC72E0067BA3423F9E9327A176882DB SWAP2 ADD PUSH1 0x40 MLOAD DUP1 SWAP2 SUB SWAP1 LOG1 JUMPDEST POP POP DUP1 DUP1 PUSH2 0x33DD SWAP1 PUSH2 0x417B JUMP JUMPDEST SWAP2 POP POP PUSH2 0x318E JUMP JUMPDEST POP DUP1 PUSH1 0xA2 PUSH1 0x0 DUP3 DUP3 SLOAD PUSH2 0x33F8 SWAP2 SWAP1 PUSH2 0x44E4 JUMP JUMPDEST SWAP1 SWAP2 SSTORE POP POP PUSH1 0x0 DUP5 DUP2 MSTORE PUSH1 0xAC PUSH1 0x20 SWAP1 DUP2 MSTORE PUSH1 0x40 DUP1 DUP4 KECCAK256 DUP4 SWAP1 SSTORE PUSH1 0xAB SWAP1 SWAP2 MSTORE DUP2 KECCAK256 PUSH2 0x143D SWAP2 PUSH2 0x3BC6 JUMP JUMPDEST PUSH1 0x1 PUSH1 0x65 SSTORE JUMP JUMPDEST PUSH2 0x3431 DUP4 PUSH2 0x317A JUMP JUMPDEST DUP2 MLOAD PUSH1 0x97 SLOAD PUSH1 0x40 MLOAD PUSH4 0x39F890B5 PUSH1 0xE2 SHL DUP2 MSTORE PUSH1 0x4 DUP2 ADD DUP7 SWAP1 MSTORE PUSH1 0x0 SWAP2 PUSH1 0x1 PUSH1 0x1 PUSH1 0xA0 SHL SUB AND SWAP1 PUSH4 0xE7E242D4 SWAP1 PUSH1 0x24 ADD PUSH1 0x20 PUSH1 0x40 MLOAD DUP1 DUP4 SUB DUP2 DUP7 GAS STATICCALL ISZERO DUP1 ISZERO PUSH2 0x347D JUMPI RETURNDATASIZE PUSH1 0x0 DUP1 RETURNDATACOPY RETURNDATASIZE PUSH1 0x0 REVERT JUMPDEST POP POP POP POP PUSH1 0x40 MLOAD RETURNDATASIZE PUSH1 0x1F NOT PUSH1 0x1F DUP3 ADD AND DUP3 ADD DUP1 PUSH1 0x40 MSTORE POP DUP2 ADD SWAP1 PUSH2 0x34A1 SWAP2 SWAP1 PUSH2 0x4290 JUMP JUMPDEST SWAP1 POP PUSH1 0x0 DUP1 PUSH1 0x0 DUP1 JUMPDEST DUP6 DUP2 LT ISZERO PUSH2 0x34EB JUMPI DUP7 DUP2 DUP2 MLOAD DUP2 LT PUSH2 0x34C4 JUMPI PUSH2 0x34C4 PUSH2 0x414F JUMP JUMPDEST PUSH1 0x20 MUL PUSH1 0x20 ADD ADD MLOAD DUP5 PUSH2 0x34D7 SWAP2 SWAP1 PUSH2 0x4278 JUMP JUMPDEST SWAP4 POP DUP1 PUSH2 0x34E3 DUP2 PUSH2 0x417B JUMP JUMPDEST SWAP2 POP POP PUSH2 0x34AA JUMP JUMPDEST POP PUSH1 0x0 JUMPDEST DUP6 DUP2 LT ISZERO PUSH2 0x37D4 JUMPI PUSH1 0x0 DUP9 DUP3 DUP2 MLOAD DUP2 LT PUSH2 0x350B JUMPI PUSH2 0x350B PUSH2 0x414F JUMP JUMPDEST PUSH1 0x20 SWAP1 DUP2 MUL SWAP2 SWAP1 SWAP2 ADD DUP2 ADD MLOAD PUSH1 0x1 PUSH1 0x1 PUSH1 0xA0 SHL SUB DUP1 DUP3 AND PUSH1 0x0 SWAP1 DUP2 MSTORE PUSH1 0xA4 DUP5 MSTORE PUSH1 0x40 DUP1 DUP3 KECCAK256 SLOAD SWAP1 SWAP3 AND DUP1 DUP3 MSTORE PUSH1 0xAE SWAP1 SWAP5 MSTORE KECCAK256 SLOAD SWAP1 SWAP3 POP PUSH1 0xFF AND ISZERO PUSH2 0x37BF JUMPI PUSH1 0x0 DUP7 DUP9 DUP12 DUP7 DUP2 MLOAD DUP2 LT PUSH2 0x355F JUMPI PUSH2 0x355F PUSH2 0x414F JUMP JUMPDEST PUSH1 0x20 MUL PUSH1 0x20 ADD ADD MLOAD PUSH2 0x3571 SWAP2 SWAP1 PUSH2 0x4237 JUMP JUMPDEST PUSH2 0x357B SWAP2 SWAP1 PUSH2 0x4256 JUMP JUMPDEST PUSH1 0x0 DUP14 DUP2 MSTORE PUSH1 0xAA PUSH1 0x20 SWAP1 DUP2 MSTORE PUSH1 0x40 DUP1 DUP4 KECCAK256 PUSH1 0x1 PUSH1 0x1 PUSH1 0xA0 SHL SUB DUP9 AND DUP5 MSTORE SWAP1 SWAP2 MSTORE SWAP1 KECCAK256 SLOAD SWAP1 SWAP2 POP ISZERO PUSH2 0x35AB JUMPI PUSH1 0x0 DUP1 REVERT JUMPDEST DUP1 PUSH1 0x0 SUB PUSH2 0x35B8 JUMPI PUSH1 0x0 DUP1 REVERT JUMPDEST PUSH2 0x35C1 DUP3 PUSH2 0x3964 JUMP JUMPDEST PUSH1 0x0 DUP13 DUP2 MSTORE PUSH1 0xAB PUSH1 0x20 SWAP1 DUP2 MSTORE PUSH1 0x40 DUP1 DUP4 KECCAK256 DUP1 SLOAD PUSH1 0x1 DUP2 ADD DUP3 SSTORE SWAP1 DUP5 MSTORE DUP3 DUP5 KECCAK256 ADD DUP1 SLOAD PUSH1 0x1 PUSH1 0x1 PUSH1 0xA0 SHL SUB NOT AND PUSH1 0x1 PUSH1 0x1 PUSH1 0xA0 SHL SUB DUP9 AND SWAP1 DUP2 OR SWAP1 SWAP2 SSTORE DUP4 MSTORE PUSH1 0xA9 SWAP1 SWAP2 MSTORE DUP2 KECCAK256 DUP1 SLOAD DUP4 SWAP3 SWAP1 PUSH2 0x3616 SWAP1 DUP5 SWAP1 PUSH2 0x4278 JUMP JUMPDEST SWAP1 SWAP2 SSTORE POP POP PUSH1 0x0 DUP13 DUP2 MSTORE PUSH1 0xAA PUSH1 0x20 SWAP1 DUP2 MSTORE PUSH1 0x40 DUP1 DUP4 KECCAK256 PUSH1 0x1 PUSH1 0x1 PUSH1 0xA0 SHL SUB DUP8 AND DUP5 MSTORE SWAP1 SWAP2 MSTORE DUP2 KECCAK256 DUP1 SLOAD DUP4 SWAP3 SWAP1 PUSH2 0x364D SWAP1 DUP5 SWAP1 PUSH2 0x4278 JUMP JUMPDEST SWAP1 SWAP2 SSTORE POP POP PUSH1 0x1 PUSH1 0x1 PUSH1 0xA0 SHL SUB DUP1 DUP4 AND PUSH1 0x0 SWAP1 DUP2 MSTORE PUSH1 0xA7 PUSH1 0x20 MSTORE PUSH1 0x40 SWAP1 DUP2 SWAP1 KECCAK256 SLOAD SWAP1 MLOAD PUSH4 0xF3207723 PUSH1 0xE0 SHL DUP2 MSTORE PUSH1 0x4 DUP2 ADD DUP5 SWAP1 MSTORE PUSH1 0x24 DUP2 ADD DUP16 SWAP1 MSTORE SWAP2 AND SWAP1 PUSH4 0xF3207723 SWAP1 PUSH1 0x44 ADD PUSH1 0x0 PUSH1 0x40 MLOAD DUP1 DUP4 SUB DUP2 PUSH1 0x0 DUP8 DUP1 EXTCODESIZE ISZERO DUP1 ISZERO PUSH2 0x36AE JUMPI PUSH1 0x0 DUP1 REVERT JUMPDEST POP GAS CALL ISZERO DUP1 ISZERO PUSH2 0x36C2 JUMPI RETURNDATASIZE PUSH1 0x0 DUP1 RETURNDATACOPY RETURNDATASIZE PUSH1 0x0 REVERT JUMPDEST POP POP POP POP PUSH1 0xA8 PUSH1 0x0 DUP4 PUSH1 0x1 PUSH1 0x1 PUSH1 0xA0 SHL SUB AND PUSH1 0x1 PUSH1 0x1 PUSH1 0xA0 SHL SUB AND DUP2 MSTORE PUSH1 0x20 ADD SWAP1 DUP2 MSTORE PUSH1 0x20 ADD PUSH1 0x0 KECCAK256 PUSH1 0x0 SWAP1 SLOAD SWAP1 PUSH2 0x100 EXP SWAP1 DIV PUSH1 0x1 PUSH1 0x1 PUSH1 0xA0 SHL SUB AND PUSH1 0x1 PUSH1 0x1 PUSH1 0xA0 SHL SUB AND PUSH4 0xF3207723 DUP3 DUP15 PUSH1 0x40 MLOAD DUP4 PUSH4 0xFFFFFFFF AND PUSH1 0xE0 SHL DUP2 MSTORE PUSH1 0x4 ADD PUSH2 0x3735 SWAP3 SWAP2 SWAP1 SWAP2 DUP3 MSTORE PUSH1 0x20 DUP3 ADD MSTORE PUSH1 0x40 ADD SWAP1 JUMP JUMPDEST PUSH1 0x0 PUSH1 0x40 MLOAD DUP1 DUP4 SUB DUP2 PUSH1 0x0 DUP8 DUP1 EXTCODESIZE ISZERO DUP1 ISZERO PUSH2 0x374F JUMPI PUSH1 0x0 DUP1 REVERT JUMPDEST POP GAS CALL ISZERO DUP1 ISZERO PUSH2 0x3763 JUMPI RETURNDATASIZE PUSH1 0x0 DUP1 RETURNDATACOPY RETURNDATASIZE PUSH1 0x0 REVERT JUMPDEST POP POP POP POP DUP1 DUP6 PUSH2 0x3773 SWAP2 SWAP1 PUSH2 0x4278 JUMP JUMPDEST SWAP5 POP PUSH2 0x377F DUP2 DUP8 PUSH2 0x4278 JUMP JUMPDEST PUSH1 0x40 DUP1 MLOAD DUP15 DUP2 MSTORE PUSH1 0x20 DUP2 ADD DUP5 SWAP1 MSTORE SWAP2 SWAP8 POP CALLER SWAP2 PUSH32 0xEA66F58E474BC09F580000E81F31B334D171DB387D0C6098BA47BD897741679B SWAP2 ADD PUSH1 0x40 MLOAD DUP1 SWAP2 SUB SWAP1 LOG2 POP JUMPDEST POP POP DUP1 DUP1 PUSH2 0x37CC SWAP1 PUSH2 0x417B JUMP JUMPDEST SWAP2 POP POP PUSH2 0x34EF JUMP JUMPDEST POP DUP1 ISZERO PUSH2 0x383A JUMPI PUSH1 0x97 SLOAD PUSH1 0x40 MLOAD PUSH4 0xFD4A77F1 PUSH1 0xE0 SHL DUP2 MSTORE PUSH1 0x4 DUP2 ADD DUP11 SWAP1 MSTORE PUSH1 0x1 PUSH1 0x1 PUSH1 0xA0 SHL SUB SWAP1 SWAP2 AND SWAP1 PUSH4 0xFD4A77F1 SWAP1 PUSH1 0x24 ADD PUSH1 0x0 PUSH1 0x40 MLOAD DUP1 DUP4 SUB DUP2 PUSH1 0x0 DUP8 DUP1 EXTCODESIZE ISZERO DUP1 ISZERO PUSH2 0x3821 JUMPI PUSH1 0x0 DUP1 REVERT JUMPDEST POP GAS CALL ISZERO DUP1 ISZERO PUSH2 0x3835 JUMPI RETURNDATASIZE PUSH1 0x0 DUP1 RETURNDATACOPY RETURNDATASIZE PUSH1 0x0 REVERT JUMPDEST POP POP POP POP JUMPDEST DUP2 PUSH1 0xA2 PUSH1 0x0 DUP3 DUP3 SLOAD PUSH2 0x384C SWAP2 SWAP1 PUSH2 0x4278 JUMP JUMPDEST SWAP1 SWAP2 SSTORE POP POP PUSH1 0x0 SWAP8 DUP9 MSTORE PUSH1 0xAC PUSH1 0x20 MSTORE PUSH1 0x40 SWAP1 SWAP8 KECCAK256 SWAP7 SWAP1 SWAP7 SSTORE POP POP POP POP POP POP JUMP JUMPDEST PUSH1 0x0 DUP5 PUSH1 0x1 PUSH1 0x1 PUSH1 0xA0 SHL SUB AND EXTCODESIZE GT PUSH2 0x3883 JUMPI PUSH1 0x0 DUP1 REVERT JUMPDEST PUSH1 0x40 DUP1 MLOAD PUSH1 0x1 PUSH1 0x1 PUSH1 0xA0 SHL SUB DUP6 DUP2 AND PUSH1 0x24 DUP4 ADD MSTORE DUP5 DUP2 AND PUSH1 0x44 DUP4 ADD MSTORE PUSH1 0x64 DUP1 DUP4 ADD DUP6 SWAP1 MSTORE DUP4 MLOAD DUP1 DUP5 SUB SWAP1 SWAP2 ADD DUP2 MSTORE PUSH1 0x84 SWAP1 SWAP3 ADD DUP4 MSTORE PUSH1 0x20 DUP3 ADD DUP1 MLOAD PUSH1 0x1 PUSH1 0x1 PUSH1 0xE0 SHL SUB AND PUSH4 0x23B872DD PUSH1 0xE0 SHL OR SWAP1 MSTORE SWAP2 MLOAD PUSH1 0x0 SWAP3 DUP4 SWAP3 SWAP1 DUP9 AND SWAP2 PUSH2 0x38E7 SWAP2 SWAP1 PUSH2 0x44FB JUMP JUMPDEST PUSH1 0x0 PUSH1 0x40 MLOAD DUP1 DUP4 SUB DUP2 PUSH1 0x0 DUP7 GAS CALL SWAP2 POP POP RETURNDATASIZE DUP1 PUSH1 0x0 DUP2 EQ PUSH2 0x3924 JUMPI PUSH1 0x40 MLOAD SWAP2 POP PUSH1 0x1F NOT PUSH1 0x3F RETURNDATASIZE ADD AND DUP3 ADD PUSH1 0x40 MSTORE RETURNDATASIZE DUP3 MSTORE RETURNDATASIZE PUSH1 0x0 PUSH1 0x20 DUP5 ADD RETURNDATACOPY PUSH2 0x3929 JUMP JUMPDEST PUSH1 0x60 SWAP2 POP JUMPDEST POP SWAP2 POP SWAP2 POP DUP2 DUP1 ISZERO PUSH2 0x3953 JUMPI POP DUP1 MLOAD ISZERO DUP1 PUSH2 0x3953 JUMPI POP DUP1 DUP1 PUSH1 0x20 ADD SWAP1 MLOAD DUP2 ADD SWAP1 PUSH2 0x3953 SWAP2 SWAP1 PUSH2 0x4215 JUMP JUMPDEST PUSH2 0x395C JUMPI PUSH1 0x0 DUP1 REVERT JUMPDEST POP POP POP POP POP POP JUMP JUMPDEST PUSH1 0x1 PUSH1 0x1 PUSH1 0xA0 SHL SUB DUP1 DUP3 AND PUSH1 0x0 SWAP1 DUP2 MSTORE PUSH1 0xA6 PUSH1 0x20 SWAP1 DUP2 MSTORE PUSH1 0x40 DUP1 DUP4 KECCAK256 SLOAD SWAP1 SWAP4 AND DUP1 DUP4 MSTORE PUSH1 0xA9 SWAP1 SWAP2 MSTORE SWAP2 SWAP1 KECCAK256 SLOAD DUP1 ISZERO PUSH2 0x3A44 JUMPI PUSH1 0x1 PUSH1 0x1 PUSH1 0xA0 SHL SUB DUP4 AND PUSH1 0x0 SWAP1 DUP2 MSTORE PUSH1 0xA0 PUSH1 0x20 MSTORE PUSH1 0x40 DUP2 KECCAK256 DUP1 SLOAD PUSH1 0x9F SLOAD SWAP2 DUP3 SWAP1 SSTORE SWAP2 PUSH2 0x39C2 DUP4 DUP4 PUSH2 0x44E4 JUMP JUMPDEST SWAP1 POP DUP1 ISZERO PUSH2 0x395C JUMPI PUSH1 0x0 PUSH8 0xDE0B6B3A7640000 PUSH2 0x39DF DUP4 DUP8 PUSH2 0x4237 JUMP JUMPDEST PUSH2 0x39E9 SWAP2 SWAP1 PUSH2 0x4256 JUMP JUMPDEST PUSH1 0x1 PUSH1 0x1 PUSH1 0xA0 SHL SUB DUP9 AND PUSH1 0x0 SWAP1 DUP2 MSTORE PUSH1 0xB0 PUSH1 0x20 MSTORE PUSH1 0x40 SWAP1 KECCAK256 SLOAD SWAP1 SWAP2 POP PUSH1 0xFF AND ISZERO PUSH2 0x3A3B JUMPI PUSH1 0x1 PUSH1 0x1 PUSH1 0xA0 SHL SUB DUP8 AND PUSH1 0x0 SWAP1 DUP2 MSTORE PUSH1 0xA1 PUSH1 0x20 MSTORE PUSH1 0x40 DUP2 KECCAK256 DUP1 SLOAD DUP4 SWAP3 SWAP1 PUSH2 0x3A35 SWAP1 DUP5 SWAP1 PUSH2 0x4278 JUMP JUMPDEST SWAP1 SWAP2 SSTORE POP POP JUMPDEST POP POP POP POP POP POP POP JUMP JUMPDEST PUSH1 0x9F SLOAD PUSH1 0x1 PUSH1 0x1 PUSH1 0xA0 SHL SUB DUP5 AND PUSH1 0x0 SWAP1 DUP2 MSTORE PUSH1 0xA0 PUSH1 0x20 MSTORE PUSH1 0x40 SWAP1 KECCAK256 SSTORE POP POP POP JUMP JUMPDEST PUSH1 0x33 SLOAD PUSH1 0x1 PUSH1 0x1 PUSH1 0xA0 SHL SUB AND CALLER EQ PUSH2 0xF93 JUMPI PUSH1 0x40 MLOAD PUSH3 0x461BCD PUSH1 0xE5 SHL DUP2 MSTORE PUSH1 0x20 PUSH1 0x4 DUP3 ADD DUP2 SWAP1 MSTORE PUSH1 0x24 DUP3 ADD MSTORE PUSH32 0x4F776E61626C653A2063616C6C6572206973206E6F7420746865206F776E6572 PUSH1 0x44 DUP3 ADD MSTORE PUSH1 0x64 ADD PUSH2 0x184D JUMP JUMPDEST PUSH1 0x33 DUP1 SLOAD PUSH1 0x1 PUSH1 0x1 PUSH1 0xA0 SHL SUB DUP4 DUP2 AND PUSH1 0x1 PUSH1 0x1 PUSH1 0xA0 SHL SUB NOT DUP4 AND DUP2 OR SWAP1 SWAP4 SSTORE PUSH1 0x40 MLOAD SWAP2 AND SWAP2 SWAP1 DUP3 SWAP1 PUSH32 0x8BE0079C531659141344CD1FD0A4F28419497F9722A3DAAFE3B4186F6B6457E0 SWAP1 PUSH1 0x0 SWAP1 LOG3 POP POP JUMP JUMPDEST PUSH1 0x0 SLOAD PUSH2 0x100 SWAP1 DIV PUSH1 0xFF AND PUSH2 0x3B38 JUMPI PUSH1 0x40 MLOAD PUSH3 0x461BCD PUSH1 0xE5 SHL DUP2 MSTORE PUSH1 0x4 ADD PUSH2 0x184D SWAP1 PUSH2 0x4517 JUMP JUMPDEST PUSH2 0xF93 PUSH2 0x3B6F JUMP JUMPDEST PUSH1 0x0 SLOAD PUSH2 0x100 SWAP1 DIV PUSH1 0xFF AND PUSH2 0x3B67 JUMPI PUSH1 0x40 MLOAD PUSH3 0x461BCD PUSH1 0xE5 SHL DUP2 MSTORE PUSH1 0x4 ADD PUSH2 0x184D SWAP1 PUSH2 0x4517 JUMP JUMPDEST PUSH2 0xF93 PUSH2 0x3B9F JUMP JUMPDEST PUSH1 0x0 SLOAD PUSH2 0x100 SWAP1 DIV PUSH1 0xFF AND PUSH2 0x3B96 JUMPI PUSH1 0x40 MLOAD PUSH3 0x461BCD PUSH1 0xE5 SHL DUP2 MSTORE PUSH1 0x4 ADD PUSH2 0x184D SWAP1 PUSH2 0x4517 JUMP JUMPDEST PUSH2 0xF93 CALLER PUSH2 0x3ABF JUMP JUMPDEST PUSH1 0x0 SLOAD PUSH2 0x100 SWAP1 DIV PUSH1 0xFF AND PUSH2 0x3421 JUMPI PUSH1 0x40 MLOAD PUSH3 0x461BCD PUSH1 0xE5 SHL DUP2 MSTORE PUSH1 0x4 ADD PUSH2 0x184D SWAP1 PUSH2 0x4517 JUMP JUMPDEST POP DUP1 SLOAD PUSH1 0x0 DUP3 SSTORE SWAP1 PUSH1 0x0 MSTORE PUSH1 0x20 PUSH1 0x0 KECCAK256 SWAP1 DUP2 ADD SWAP1 PUSH2 0xC45 SWAP2 SWAP1 JUMPDEST DUP1 DUP3 GT ISZERO PUSH2 0x3BF4 JUMPI PUSH1 0x0 DUP2 SSTORE PUSH1 0x1 ADD PUSH2 0x3BE0 JUMP JUMPDEST POP SWAP1 JUMP JUMPDEST PUSH4 0x4E487B71 PUSH1 0xE0 SHL PUSH1 0x0 MSTORE PUSH1 0x41 PUSH1 0x4 MSTORE PUSH1 0x24 PUSH1 0x0 REVERT JUMPDEST PUSH1 0x40 MLOAD PUSH1 0x1F DUP3 ADD PUSH1 0x1F NOT AND DUP2 ADD PUSH8 0xFFFFFFFFFFFFFFFF DUP2 GT DUP3 DUP3 LT OR ISZERO PUSH2 0x3C37 JUMPI PUSH2 0x3C37 PUSH2 0x3BF8 JUMP JUMPDEST PUSH1 0x40 MSTORE SWAP2 SWAP1 POP JUMP JUMPDEST PUSH1 0x0 PUSH8 0xFFFFFFFFFFFFFFFF DUP3 GT ISZERO PUSH2 0x3C59 JUMPI PUSH2 0x3C59 PUSH2 0x3BF8 JUMP JUMPDEST POP PUSH1 0x5 SHL PUSH1 0x20 ADD SWAP1 JUMP JUMPDEST PUSH1 0x1 PUSH1 0x1 PUSH1 0xA0 SHL SUB DUP2 AND DUP2 EQ PUSH2 0xC45 JUMPI PUSH1 0x0 DUP1 REVERT JUMPDEST PUSH1 0x0 DUP3 PUSH1 0x1F DUP4 ADD SLT PUSH2 0x3C89 JUMPI PUSH1 0x0 DUP1 REVERT JUMPDEST DUP2 CALLDATALOAD PUSH1 0x20 PUSH2 0x3C9E PUSH2 0x3C99 DUP4 PUSH2 0x3C3F JUMP JUMPDEST PUSH2 0x3C0E JUMP JUMPDEST DUP3 DUP2 MSTORE PUSH1 0x5 SWAP3 SWAP1 SWAP3 SHL DUP5 ADD DUP2 ADD SWAP2 DUP2 DUP2 ADD SWAP1 DUP7 DUP5 GT ISZERO PUSH2 0x3CBD JUMPI PUSH1 0x0 DUP1 REVERT JUMPDEST DUP3 DUP7 ADD JUMPDEST DUP5 DUP2 LT ISZERO PUSH2 0x3CE1 JUMPI DUP1 CALLDATALOAD PUSH2 0x3CD4 DUP2 PUSH2 0x3C63 JUMP JUMPDEST DUP4 MSTORE SWAP2 DUP4 ADD SWAP2 DUP4 ADD PUSH2 0x3CC1 JUMP JUMPDEST POP SWAP7 SWAP6 POP POP POP POP POP POP JUMP JUMPDEST PUSH1 0x0 DUP1 PUSH1 0x40 DUP4 DUP6 SUB SLT ISZERO PUSH2 0x3CFF JUMPI PUSH1 0x0 DUP1 REVERT JUMPDEST DUP3 CALLDATALOAD PUSH8 0xFFFFFFFFFFFFFFFF DUP2 GT ISZERO PUSH2 0x3D16 JUMPI PUSH1 0x0 DUP1 REVERT JUMPDEST PUSH2 0x3D22 DUP6 DUP3 DUP7 ADD PUSH2 0x3C78 JUMP JUMPDEST SWAP3 POP POP PUSH1 0x20 DUP4 ADD CALLDATALOAD PUSH2 0x3D33 DUP2 PUSH2 0x3C63 JUMP JUMPDEST DUP1 SWAP2 POP POP SWAP3 POP SWAP3 SWAP1 POP JUMP JUMPDEST PUSH1 0x0 PUSH1 0x20 DUP3 DUP5 SUB SLT ISZERO PUSH2 0x3D50 JUMPI PUSH1 0x0 DUP1 REVERT JUMPDEST DUP2 CALLDATALOAD PUSH2 0x3D5B DUP2 PUSH2 0x3C63 JUMP JUMPDEST SWAP4 SWAP3 POP POP POP JUMP JUMPDEST PUSH1 0x0 DUP3 PUSH1 0x1F DUP4 ADD SLT PUSH2 0x3D73 JUMPI PUSH1 0x0 DUP1 REVERT JUMPDEST DUP2 CALLDATALOAD PUSH1 0x20 PUSH2 0x3D83 PUSH2 0x3C99 DUP4 PUSH2 0x3C3F JUMP JUMPDEST DUP3 DUP2 MSTORE PUSH1 0x5 SWAP3 SWAP1 SWAP3 SHL DUP5 ADD DUP2 ADD SWAP2 DUP2 DUP2 ADD SWAP1 DUP7 DUP5 GT ISZERO PUSH2 0x3DA2 JUMPI PUSH1 0x0 DUP1 REVERT JUMPDEST DUP3 DUP7 ADD JUMPDEST DUP5 DUP2 LT ISZERO PUSH2 0x3CE1 JUMPI DUP1 CALLDATALOAD PUSH8 0xFFFFFFFFFFFFFFFF DUP2 GT ISZERO PUSH2 0x3DC6 JUMPI PUSH1 0x0 DUP1 DUP2 REVERT JUMPDEST PUSH2 0x3DD4 DUP10 DUP7 DUP4 DUP12 ADD ADD PUSH2 0x3C78 JUMP JUMPDEST DUP5 MSTORE POP SWAP2 DUP4 ADD SWAP2 DUP4 ADD PUSH2 0x3DA6 JUMP JUMPDEST PUSH1 0x0 DUP1 PUSH1 0x40 DUP4 DUP6 SUB SLT ISZERO PUSH2 0x3DF5 JUMPI PUSH1 0x0 DUP1 REVERT JUMPDEST DUP3 CALLDATALOAD PUSH8 0xFFFFFFFFFFFFFFFF DUP1 DUP3 GT ISZERO PUSH2 0x3E0D JUMPI PUSH1 0x0 DUP1 REVERT JUMPDEST PUSH2 0x3E19 DUP7 DUP4 DUP8 ADD PUSH2 0x3C78 JUMP JUMPDEST SWAP4 POP PUSH1 0x20 DUP6 ADD CALLDATALOAD SWAP2 POP DUP1 DUP3 GT ISZERO PUSH2 0x3E2F JUMPI PUSH1 0x0 DUP1 REVERT JUMPDEST POP PUSH2 0x3E3C DUP6 DUP3 DUP7 ADD PUSH2 0x3D62 JUMP JUMPDEST SWAP2 POP POP SWAP3 POP SWAP3 SWAP1 POP JUMP JUMPDEST PUSH1 0x0 PUSH1 0x20 DUP3 DUP5 SUB SLT ISZERO PUSH2 0x3E58 JUMPI PUSH1 0x0 DUP1 REVERT JUMPDEST POP CALLDATALOAD SWAP2 SWAP1 POP JUMP JUMPDEST PUSH1 0x0 DUP1 PUSH1 0x40 DUP4 DUP6 SUB SLT ISZERO PUSH2 0x3E72 JUMPI PUSH1 0x0 DUP1 REVERT JUMPDEST DUP3 CALLDATALOAD SWAP2 POP PUSH1 0x20 DUP4 ADD CALLDATALOAD PUSH2 0x3D33 DUP2 PUSH2 0x3C63 JUMP JUMPDEST PUSH1 0x0 PUSH1 0x20 DUP3 DUP5 SUB SLT ISZERO PUSH2 0x3E96 JUMPI PUSH1 0x0 DUP1 REVERT JUMPDEST DUP2 CALLDATALOAD PUSH8 0xFFFFFFFFFFFFFFFF DUP2 GT ISZERO PUSH2 0x3EAD JUMPI PUSH1 0x0 DUP1 REVERT JUMPDEST PUSH2 0x3EB9 DUP5 DUP3 DUP6 ADD PUSH2 0x3C78 JUMP JUMPDEST SWAP5 SWAP4 POP POP POP POP JUMP JUMPDEST PUSH1 0x0 DUP1 PUSH1 0x0 PUSH1 0x60 DUP5 DUP7 SUB SLT ISZERO PUSH2 0x3ED6 JUMPI PUSH1 0x0 DUP1 REVERT JUMPDEST DUP4 CALLDATALOAD PUSH8 0xFFFFFFFFFFFFFFFF DUP1 DUP3 GT ISZERO PUSH2 0x3EEE JUMPI PUSH1 0x0 DUP1 REVERT JUMPDEST PUSH2 0x3EFA DUP8 DUP4 DUP9 ADD PUSH2 0x3C78 JUMP JUMPDEST SWAP5 POP PUSH1 0x20 DUP7 ADD CALLDATALOAD SWAP2 POP DUP1 DUP3 GT ISZERO PUSH2 0x3F10 JUMPI PUSH1 0x0 DUP1 REVERT JUMPDEST POP PUSH2 0x3F1D DUP7 DUP3 DUP8 ADD PUSH2 0x3D62 JUMP JUMPDEST SWAP3 POP POP PUSH1 0x40 DUP5 ADD CALLDATALOAD SWAP1 POP SWAP3 POP SWAP3 POP SWAP3 JUMP JUMPDEST PUSH1 0x0 DUP1 PUSH1 0x40 DUP4 DUP6 SUB SLT ISZERO PUSH2 0x3F41 JUMPI PUSH1 0x0 DUP1 REVERT JUMPDEST POP POP DUP1 CALLDATALOAD SWAP3 PUSH1 0x20 SWAP1 SWAP2 ADD CALLDATALOAD SWAP2 POP JUMP JUMPDEST PUSH1 0x0 DUP1 DUP4 PUSH1 0x1F DUP5 ADD SLT PUSH2 0x3F62 JUMPI PUSH1 0x0 DUP1 REVERT JUMPDEST POP DUP2 CALLDATALOAD PUSH8 0xFFFFFFFFFFFFFFFF DUP2 GT ISZERO PUSH2 0x3F7A JUMPI PUSH1 0x0 DUP1 REVERT JUMPDEST PUSH1 0x20 DUP4 ADD SWAP2 POP DUP4 PUSH1 0x20 DUP3 PUSH1 0x5 SHL DUP6 ADD ADD GT ISZERO PUSH2 0x3F95 JUMPI PUSH1 0x0 DUP1 REVERT JUMPDEST SWAP3 POP SWAP3 SWAP1 POP JUMP JUMPDEST PUSH1 0x0 DUP1 PUSH1 0x0 DUP1 PUSH1 0x0 PUSH1 0x60 DUP7 DUP9 SUB SLT ISZERO PUSH2 0x3FB4 JUMPI PUSH1 0x0 DUP1 REVERT JUMPDEST DUP6 CALLDATALOAD SWAP5 POP PUSH1 0x20 DUP7 ADD CALLDATALOAD PUSH8 0xFFFFFFFFFFFFFFFF DUP1 DUP3 GT ISZERO PUSH2 0x3FD3 JUMPI PUSH1 0x0 DUP1 REVERT JUMPDEST PUSH2 0x3FDF DUP10 DUP4 DUP11 ADD PUSH2 0x3F50 JUMP JUMPDEST SWAP1 SWAP7 POP SWAP5 POP PUSH1 0x40 DUP9 ADD CALLDATALOAD SWAP2 POP DUP1 DUP3 GT ISZERO PUSH2 0x3FF8 JUMPI PUSH1 0x0 DUP1 REVERT JUMPDEST POP PUSH2 0x4005 DUP9 DUP3 DUP10 ADD PUSH2 0x3F50 JUMP JUMPDEST SWAP7 SWAP10 SWAP6 SWAP9 POP SWAP4 SWAP7 POP SWAP3 SWAP5 SWAP4 SWAP3 POP POP POP JUMP JUMPDEST PUSH1 0x0 DUP1 PUSH1 0x0 PUSH1 0x60 DUP5 DUP7 SUB SLT ISZERO PUSH2 0x402B JUMPI PUSH1 0x0 DUP1 REVERT JUMPDEST DUP4 CALLDATALOAD SWAP3 POP PUSH1 0x20 DUP5 ADD CALLDATALOAD PUSH2 0x403D DUP2 PUSH2 0x3C63 JUMP JUMPDEST SWAP3 SWAP6 SWAP3 SWAP5 POP POP POP PUSH1 0x40 SWAP2 SWAP1 SWAP2 ADD CALLDATALOAD SWAP1 JUMP JUMPDEST PUSH1 0x0 DUP1 PUSH1 0x0 PUSH1 0x60 DUP5 DUP7 SUB SLT ISZERO PUSH2 0x4063 JUMPI PUSH1 0x0 DUP1 REVERT JUMPDEST DUP4 CALLDATALOAD PUSH2 0x406E DUP2 PUSH2 0x3C63 JUMP JUMPDEST SWAP3 POP PUSH1 0x20 DUP5 ADD CALLDATALOAD PUSH2 0x407E DUP2 PUSH2 0x3C63 JUMP JUMPDEST SWAP2 POP PUSH1 0x40 DUP5 ADD CALLDATALOAD PUSH2 0x408E DUP2 PUSH2 0x3C63 JUMP JUMPDEST DUP1 SWAP2 POP POP SWAP3 POP SWAP3 POP SWAP3 JUMP JUMPDEST PUSH1 0x0 DUP1 PUSH1 0x0 DUP1 PUSH1 0x80 DUP6 DUP8 SUB SLT ISZERO PUSH2 0x40AF JUMPI PUSH1 0x0 DUP1 REVERT JUMPDEST DUP5 CALLDATALOAD PUSH2 0x40BA DUP2 PUSH2 0x3C63 JUMP JUMPDEST SWAP4 POP PUSH1 0x20 DUP6 ADD CALLDATALOAD PUSH2 0x40CA DUP2 PUSH2 0x3C63 JUMP JUMPDEST SWAP3 POP PUSH1 0x40 DUP6 ADD CALLDATALOAD PUSH2 0x40DA DUP2 PUSH2 0x3C63 JUMP JUMPDEST SWAP2 POP PUSH1 0x60 DUP6 ADD CALLDATALOAD PUSH2 0x40EA DUP2 PUSH2 0x3C63 JUMP JUMPDEST SWAP4 SWAP7 SWAP3 SWAP6 POP SWAP1 SWAP4 POP POP JUMP JUMPDEST PUSH1 0x0 DUP1 PUSH1 0x40 DUP4 DUP6 SUB SLT ISZERO PUSH2 0x4108 JUMPI PUSH1 0x0 DUP1 REVERT JUMPDEST DUP3 CALLDATALOAD PUSH8 0xFFFFFFFFFFFFFFFF DUP1 DUP3 GT ISZERO PUSH2 0x4120 JUMPI PUSH1 0x0 DUP1 REVERT JUMPDEST PUSH2 0x412C DUP7 DUP4 DUP8 ADD PUSH2 0x3C78 JUMP JUMPDEST SWAP4 POP PUSH1 0x20 DUP6 ADD CALLDATALOAD SWAP2 POP DUP1 DUP3 GT ISZERO PUSH2 0x4142 JUMPI PUSH1 0x0 DUP1 REVERT JUMPDEST POP PUSH2 0x3E3C DUP6 DUP3 DUP7 ADD PUSH2 0x3C78 JUMP JUMPDEST PUSH4 0x4E487B71 PUSH1 0xE0 SHL PUSH1 0x0 MSTORE PUSH1 0x32 PUSH1 0x4 MSTORE PUSH1 0x24 PUSH1 0x0 REVERT JUMPDEST PUSH4 0x4E487B71 PUSH1 0xE0 SHL PUSH1 0x0 MSTORE PUSH1 0x11 PUSH1 0x4 MSTORE PUSH1 0x24 PUSH1 0x0 REVERT JUMPDEST PUSH1 0x0 PUSH1 0x1 DUP3 ADD PUSH2 0x418D JUMPI PUSH2 0x418D PUSH2 0x4165 JUMP JUMPDEST POP PUSH1 0x1 ADD SWAP1 JUMP JUMPDEST PUSH1 0x0 DUP2 MLOAD DUP1 DUP5 MSTORE PUSH1 0x20 DUP1 DUP6 ADD SWAP5 POP DUP1 DUP5 ADD PUSH1 0x0 JUMPDEST DUP4 DUP2 LT ISZERO PUSH2 0x41CD JUMPI DUP2 MLOAD PUSH1 0x1 PUSH1 0x1 PUSH1 0xA0 SHL SUB AND DUP8 MSTORE SWAP6 DUP3 ADD SWAP6 SWAP1 DUP3 ADD SWAP1 PUSH1 0x1 ADD PUSH2 0x41A8 JUMP JUMPDEST POP SWAP5 SWAP6 SWAP5 POP POP POP POP POP JUMP JUMPDEST PUSH1 0x1 PUSH1 0x1 PUSH1 0xA0 SHL SUB DUP4 AND DUP2 MSTORE PUSH1 0x40 PUSH1 0x20 DUP3 ADD DUP2 SWAP1 MSTORE PUSH1 0x0 SWAP1 PUSH2 0x3EB9 SWAP1 DUP4 ADD DUP5 PUSH2 0x4194 JUMP JUMPDEST PUSH1 0x1 PUSH1 0x1 PUSH1 0xA0 SHL SUB SWAP3 SWAP1 SWAP3 AND DUP3 MSTORE PUSH1 0x20 DUP3 ADD MSTORE PUSH1 0x40 ADD SWAP1 JUMP JUMPDEST PUSH1 0x0 PUSH1 0x20 DUP3 DUP5 SUB SLT ISZERO PUSH2 0x4227 JUMPI PUSH1 0x0 DUP1 REVERT JUMPDEST DUP2 MLOAD DUP1 ISZERO ISZERO DUP2 EQ PUSH2 0x3D5B JUMPI PUSH1 0x0 DUP1 REVERT JUMPDEST PUSH1 0x0 DUP2 PUSH1 0x0 NOT DIV DUP4 GT DUP3 ISZERO ISZERO AND ISZERO PUSH2 0x4251 JUMPI PUSH2 0x4251 PUSH2 0x4165 JUMP JUMPDEST POP MUL SWAP1 JUMP JUMPDEST PUSH1 0x0 DUP3 PUSH2 0x4273 JUMPI PUSH4 0x4E487B71 PUSH1 0xE0 SHL PUSH1 0x0 MSTORE PUSH1 0x12 PUSH1 0x4 MSTORE PUSH1 0x24 PUSH1 0x0 REVERT JUMPDEST POP DIV SWAP1 JUMP JUMPDEST PUSH1 0x0 DUP3 NOT DUP3 GT ISZERO PUSH2 0x428B JUMPI PUSH2 0x428B PUSH2 0x4165 JUMP JUMPDEST POP ADD SWAP1 JUMP JUMPDEST PUSH1 0x0 PUSH1 0x20 DUP3 DUP5 SUB SLT ISZERO PUSH2 0x42A2 JUMPI PUSH1 0x0 DUP1 REVERT JUMPDEST POP MLOAD SWAP2 SWAP1 POP JUMP JUMPDEST DUP3 DUP2 MSTORE PUSH1 0x40 PUSH1 0x20 DUP3 ADD MSTORE PUSH1 0x0 PUSH2 0x3EB9 PUSH1 0x40 DUP4 ADD DUP5 PUSH2 0x4194 JUMP JUMPDEST PUSH1 0x20 DUP1 DUP3 MSTORE PUSH1 0x15 SWAP1 DUP3 ADD MSTORE PUSH21 0x1B9BDD08195B595C99D95B98DE4818DBDD5B98DA5B PUSH1 0x5A SHL PUSH1 0x40 DUP3 ADD MSTORE PUSH1 0x60 ADD SWAP1 JUMP JUMPDEST PUSH1 0x0 DUP1 PUSH1 0x40 DUP4 DUP6 SUB SLT ISZERO PUSH2 0x4304 JUMPI PUSH1 0x0 DUP1 REVERT JUMPDEST DUP3 MLOAD PUSH2 0x430F DUP2 PUSH2 0x3C63 JUMP JUMPDEST PUSH1 0x20 DUP5 ADD MLOAD SWAP1 SWAP3 POP PUSH2 0x3D33 DUP2 PUSH2 0x3C63 JUMP JUMPDEST PUSH1 0x0 JUMPDEST DUP4 DUP2 LT ISZERO PUSH2 0x433B JUMPI DUP2 DUP2 ADD MLOAD DUP4 DUP3 ADD MSTORE PUSH1 0x20 ADD PUSH2 0x4323 JUMP JUMPDEST DUP4 DUP2 GT ISZERO PUSH2 0x143D JUMPI POP POP PUSH1 0x0 SWAP2 ADD MSTORE JUMP JUMPDEST PUSH1 0x0 PUSH1 0x20 DUP3 DUP5 SUB SLT ISZERO PUSH2 0x435E JUMPI PUSH1 0x0 DUP1 REVERT JUMPDEST DUP2 MLOAD PUSH8 0xFFFFFFFFFFFFFFFF DUP1 DUP3 GT ISZERO PUSH2 0x4376 JUMPI PUSH1 0x0 DUP1 REVERT JUMPDEST DUP2 DUP5 ADD SWAP2 POP DUP5 PUSH1 0x1F DUP4 ADD SLT PUSH2 0x438A JUMPI PUSH1 0x0 DUP1 REVERT JUMPDEST DUP2 MLOAD DUP2 DUP2 GT ISZERO PUSH2 0x439C JUMPI PUSH2 0x439C PUSH2 0x3BF8 JUMP JUMPDEST PUSH2 0x43AF PUSH1 0x1F DUP3 ADD PUSH1 0x1F NOT AND PUSH1 0x20 ADD PUSH2 0x3C0E JUMP JUMPDEST SWAP2 POP DUP1 DUP3 MSTORE DUP6 PUSH1 0x20 DUP3 DUP6 ADD ADD GT ISZERO PUSH2 0x43C6 JUMPI PUSH1 0x0 DUP1 REVERT JUMPDEST PUSH2 0x43D7 DUP2 PUSH1 0x20 DUP5 ADD PUSH1 0x20 DUP7 ADD PUSH2 0x4320 JUMP JUMPDEST POP SWAP5 SWAP4 POP POP POP POP JUMP JUMPDEST PUSH15 0x2A3432B730902628102332B2B99D1 PUSH1 0x8D SHL DUP2 MSTORE PUSH1 0x0 DUP3 MLOAD PUSH2 0x440A DUP2 PUSH1 0xF DUP6 ADD PUSH1 0x20 DUP8 ADD PUSH2 0x4320 JUMP JUMPDEST SWAP2 SWAP1 SWAP2 ADD PUSH1 0xF ADD SWAP3 SWAP2 POP POP JUMP JUMPDEST PUSH1 0x0 PUSH1 0x1 DUP1 PUSH1 0xA0 SHL SUB DUP1 DUP8 AND DUP4 MSTORE DUP1 DUP7 AND PUSH1 0x20 DUP5 ADD MSTORE DUP1 DUP6 AND PUSH1 0x40 DUP5 ADD MSTORE POP PUSH1 0x80 PUSH1 0x60 DUP4 ADD MSTORE DUP3 MLOAD DUP1 PUSH1 0x80 DUP5 ADD MSTORE PUSH2 0x4456 DUP2 PUSH1 0xA0 DUP6 ADD PUSH1 0x20 DUP8 ADD PUSH2 0x4320 JUMP JUMPDEST PUSH1 0x1F ADD PUSH1 0x1F NOT AND SWAP2 SWAP1 SWAP2 ADD PUSH1 0xA0 ADD SWAP6 SWAP5 POP POP POP POP POP JUMP JUMPDEST PUSH1 0x0 PUSH1 0x20 DUP3 DUP5 SUB SLT ISZERO PUSH2 0x447F JUMPI PUSH1 0x0 DUP1 REVERT JUMPDEST DUP2 MLOAD PUSH2 0x3D5B DUP2 PUSH2 0x3C63 JUMP JUMPDEST PUSH14 0x2A3432B73090213934B132B99D1 PUSH1 0x95 SHL DUP2 MSTORE PUSH1 0x0 DUP3 MLOAD PUSH2 0x44B3 DUP2 PUSH1 0xE DUP6 ADD PUSH1 0x20 DUP8 ADD PUSH2 0x4320 JUMP JUMPDEST SWAP2 SWAP1 SWAP2 ADD PUSH1 0xE ADD SWAP3 SWAP2 POP POP JUMP JUMPDEST PUSH1 0x0 DUP1 PUSH1 0x40 DUP4 DUP6 SUB SLT ISZERO PUSH2 0x44D3 JUMPI PUSH1 0x0 DUP1 REVERT JUMPDEST POP POP DUP1 MLOAD PUSH1 0x20 SWAP1 SWAP2 ADD MLOAD SWAP1 SWAP3 SWAP1 SWAP2 POP JUMP JUMPDEST PUSH1 0x0 DUP3 DUP3 LT ISZERO PUSH2 0x44F6 JUMPI PUSH2 0x44F6 PUSH2 0x4165 JUMP JUMPDEST POP SUB SWAP1 JUMP JUMPDEST PUSH1 0x0 DUP3 MLOAD PUSH2 0x450D DUP2 DUP5 PUSH1 0x20 DUP8 ADD PUSH2 0x4320 JUMP JUMPDEST SWAP2 SWAP1 SWAP2 ADD SWAP3 SWAP2 POP POP JUMP JUMPDEST PUSH1 0x20 DUP1 DUP3 MSTORE PUSH1 0x2B SWAP1 DUP3 ADD MSTORE PUSH32 0x496E697469616C697A61626C653A20636F6E7472616374206973206E6F742069 PUSH1 0x40 DUP3 ADD MSTORE PUSH11 0x6E697469616C697A696E67 PUSH1 0xA8 SHL PUSH1 0x60 DUP3 ADD MSTORE PUSH1 0x80 ADD SWAP1 JUMP INVALID LOG2 PUSH5 0x6970667358 0x22 SLT KECCAK256 SWAP1 PUSH7 0x1EBE4A823AD1F7 ADDRESS DUP12 0x4B 0x28 0x5E PUSH24 0xBFE6FD44B43571174D2C419523A1BA318F64736F6C634300 ADDMOD 0xD STOP CALLER "},"methodIdentifiers":{"_initialize(address[],address)":"046fddf3","_ve()":"8dd598fb","attachTokenToGauge(uint256,address)":"698473e3","bribefactory()":"38752a9d","claimBribes(address[],address[][],uint256)":"7715ee75","claimFees(address[],address[][],uint256)":"666256aa","claimRewards(address[],address[][])":"20b1cb6f","claimable(address)":"402914f5","createGauge(address)":"a5f4301e","detachTokenFromGauge(uint256,address)":"411b1f77","distribute(address)":"63453ae1","distribute(address[])":"6138889b","distribute(uint256,uint256)":"7625391a","distributeAll()":"436596c4","distributeFees(address[])":"c527ee1f","emergencyCouncil()":"7778960e","emitDeposit(uint256,address,uint256)":"a61c713a","emitWithdraw(uint256,address,uint256)":"ea94ee44","external_bribes(address)":"ae21c4cb","factory()":"c45a0155","gaugefactory()":"68c3acb3","gauges(address)":"b9a09fd5","gaugesDistributionTimestmap(address)":"c445d88a","governor()":"0c340a24","increaseGaugeApprovals(address)":"556e091d","initGauges(address[],address[])":"ff5f03be","initialize(address,address,address,address)":"f8c8765e","internal_bribes(address)":"eae40f26","isAlive(address)":"1703e5f9","isGauge(address)":"aa79979b","isWhitelisted(address)":"3af32abf","killGauge(address)":"992a7933","killGaugeTotally(address)":"9edfd460","lastVoted(uint256)":"f3594be0","length()":"1f7b6d32","minter()":"07546172","notifyRewardAmount(uint256)":"3c6b16ab","owner()":"8da5cb5b","poke(uint256)":"32145f90","poolForGauge(address)":"06d6a1b2","poolVote(uint256,uint256)":"a86a366d","poolVoteLength(uint256)":"6447e7da","pools(uint256)":"ac4afa38","renounceOwnership()":"715018a6","reset(uint256)":"310bd74b","reviveGauge(address)":"9f06247b","setBribeFactory(address)":"a9b5aa7e","setEmergencyCouncil(address)":"e586875f","setGaugeFactory(address)":"23130d11","setGovernor(address)":"c42cf535","setMinter(address)":"fca3b5aa","setNewBribe(address,address,address)":"a6357ac6","setPairFactory(address)":"7964bac9","setVotingEscrow(address)":"ce5ec92e","totalWeight()":"96c82e57","transferOwnership(address)":"f2fde38b","updateAll()":"53d78693","updateFor(address[])":"d560b0d7","updateForRange(uint256,uint256)":"9b6a9d72","updateGauge(address)":"6ecbe38a","usedWeights(uint256)":"79e93824","vote(uint256,address[],uint256[])":"7ac09bf7","votes(uint256,address)":"d23254b4","weights(address)":"a7cac846","whitelist(address)":"9b19251a","whitelist(address[])":"bd8aa780"}},"storageLayout":{"storage":[{"astId":138,"contract":"contracts/VoterV2_1.sol:VoterV2_1","label":"_initialized","offset":0,"slot":"0","type":"t_uint8"},{"astId":141,"contract":"contracts/VoterV2_1.sol:VoterV2_1","label":"_initializing","offset":1,"slot":"0","type":"t_bool"},{"astId":698,"contract":"contracts/VoterV2_1.sol:VoterV2_1","label":"__gap","offset":0,"slot":"1","type":"t_array(t_uint256)50_storage"},{"astId":10,"contract":"contracts/VoterV2_1.sol:VoterV2_1","label":"_owner","offset":0,"slot":"51","type":"t_address"},{"astId":130,"contract":"contracts/VoterV2_1.sol:VoterV2_1","label":"__gap","offset":0,"slot":"52","type":"t_array(t_uint256)49_storage"},{"astId":314,"contract":"contracts/VoterV2_1.sol:VoterV2_1","label":"_status","offset":0,"slot":"101","type":"t_uint256"},{"astId":372,"contract":"contracts/VoterV2_1.sol:VoterV2_1","label":"__gap","offset":0,"slot":"102","type":"t_array(t_uint256)49_storage"},{"astId":723,"contract":"contracts/VoterV2_1.sol:VoterV2_1","label":"_ve","offset":0,"slot":"151","type":"t_address"},{"astId":725,"contract":"contracts/VoterV2_1.sol:VoterV2_1","label":"factory","offset":0,"slot":"152","type":"t_address"},{"astId":727,"contract":"contracts/VoterV2_1.sol:VoterV2_1","label":"base","offset":0,"slot":"153","type":"t_address"},{"astId":729,"contract":"contracts/VoterV2_1.sol:VoterV2_1","label":"gaugefactory","offset":0,"slot":"154","type":"t_address"},{"astId":731,"contract":"contracts/VoterV2_1.sol:VoterV2_1","label":"bribefactory","offset":0,"slot":"155","type":"t_address"},{"astId":736,"contract":"contracts/VoterV2_1.sol:VoterV2_1","label":"minter","offset":0,"slot":"156","type":"t_address"},{"astId":738,"contract":"contracts/VoterV2_1.sol:VoterV2_1","label":"governor","offset":0,"slot":"157","type":"t_address"},{"astId":740,"contract":"contracts/VoterV2_1.sol:VoterV2_1","label":"emergencyCouncil","offset":0,"slot":"158","type":"t_address"},{"astId":742,"contract":"contracts/VoterV2_1.sol:VoterV2_1","label":"index","offset":0,"slot":"159","type":"t_uint256"},{"astId":746,"contract":"contracts/VoterV2_1.sol:VoterV2_1","label":"supplyIndex","offset":0,"slot":"160","type":"t_mapping(t_address,t_uint256)"},{"astId":750,"contract":"contracts/VoterV2_1.sol:VoterV2_1","label":"claimable","offset":0,"slot":"161","type":"t_mapping(t_address,t_uint256)"},{"astId":752,"contract":"contracts/VoterV2_1.sol:VoterV2_1","label":"totalWeight","offset":0,"slot":"162","type":"t_uint256"},{"astId":755,"contract":"contracts/VoterV2_1.sol:VoterV2_1","label":"pools","offset":0,"slot":"163","type":"t_array(t_address)dyn_storage"},{"astId":759,"contract":"contracts/VoterV2_1.sol:VoterV2_1","label":"gauges","offset":0,"slot":"164","type":"t_mapping(t_address,t_address)"},{"astId":763,"contract":"contracts/VoterV2_1.sol:VoterV2_1","label":"gaugesDistributionTimestmap","offset":0,"slot":"165","type":"t_mapping(t_address,t_uint256)"},{"astId":767,"contract":"contracts/VoterV2_1.sol:VoterV2_1","label":"poolForGauge","offset":0,"slot":"166","type":"t_mapping(t_address,t_address)"},{"astId":771,"contract":"contracts/VoterV2_1.sol:VoterV2_1","label":"internal_bribes","offset":0,"slot":"167","type":"t_mapping(t_address,t_address)"},{"astId":775,"contract":"contracts/VoterV2_1.sol:VoterV2_1","label":"external_bribes","offset":0,"slot":"168","type":"t_mapping(t_address,t_address)"},{"astId":779,"contract":"contracts/VoterV2_1.sol:VoterV2_1","label":"weights","offset":0,"slot":"169","type":"t_mapping(t_address,t_uint256)"},{"astId":785,"contract":"contracts/VoterV2_1.sol:VoterV2_1","label":"votes","offset":0,"slot":"170","type":"t_mapping(t_uint256,t_mapping(t_address,t_uint256))"},{"astId":790,"contract":"contracts/VoterV2_1.sol:VoterV2_1","label":"poolVote","offset":0,"slot":"171","type":"t_mapping(t_uint256,t_array(t_address)dyn_storage)"},{"astId":794,"contract":"contracts/VoterV2_1.sol:VoterV2_1","label":"usedWeights","offset":0,"slot":"172","type":"t_mapping(t_uint256,t_uint256)"},{"astId":798,"contract":"contracts/VoterV2_1.sol:VoterV2_1","label":"lastVoted","offset":0,"slot":"173","type":"t_mapping(t_uint256,t_uint256)"},{"astId":802,"contract":"contracts/VoterV2_1.sol:VoterV2_1","label":"isGauge","offset":0,"slot":"174","type":"t_mapping(t_address,t_bool)"},{"astId":806,"contract":"contracts/VoterV2_1.sol:VoterV2_1","label":"isWhitelisted","offset":0,"slot":"175","type":"t_mapping(t_address,t_bool)"},{"astId":810,"contract":"contracts/VoterV2_1.sol:VoterV2_1","label":"isAlive","offset":0,"slot":"176","type":"t_mapping(t_address,t_bool)"}],"types":{"t_address":{"encoding":"inplace","label":"address","numberOfBytes":"20"},"t_array(t_address)dyn_storage":{"base":"t_address","encoding":"dynamic_array","label":"address[]","numberOfBytes":"32"},"t_array(t_uint256)49_storage":{"base":"t_uint256","encoding":"inplace","label":"uint256[49]","numberOfBytes":"1568"},"t_array(t_uint256)50_storage":{"base":"t_uint256","encoding":"inplace","label":"uint256[50]","numberOfBytes":"1600"},"t_bool":{"encoding":"inplace","label":"bool","numberOfBytes":"1"},"t_mapping(t_address,t_address)":{"encoding":"mapping","key":"t_address","label":"mapping(address => address)","numberOfBytes":"32","value":"t_address"},"t_mapping(t_address,t_bool)":{"encoding":"mapping","key":"t_address","label":"mapping(address => bool)","numberOfBytes":"32","value":"t_bool"},"t_mapping(t_address,t_uint256)":{"encoding":"mapping","key":"t_address","label":"mapping(address => uint256)","numberOfBytes":"32","value":"t_uint256"},"t_mapping(t_uint256,t_array(t_address)dyn_storage)":{"encoding":"mapping","key":"t_uint256","label":"mapping(uint256 => address[])","numberOfBytes":"32","value":"t_array(t_address)dyn_storage"},"t_mapping(t_uint256,t_mapping(t_address,t_uint256))":{"encoding":"mapping","key":"t_uint256","label":"mapping(uint256 => mapping(address => uint256))","numberOfBytes":"32","value":"t_mapping(t_address,t_uint256)"},"t_mapping(t_uint256,t_uint256)":{"encoding":"mapping","key":"t_uint256","label":"mapping(uint256 => uint256)","numberOfBytes":"32","value":"t_uint256"},"t_uint256":{"encoding":"inplace","label":"uint256","numberOfBytes":"32"},"t_uint8":{"encoding":"inplace","label":"uint8","numberOfBytes":"1"}}}}}}