{"contracts/MinterUpgradeable.sol":{"MinterUpgradeable":{"abi":[{"inputs":[],"stateMutability":"nonpayable","type":"constructor"},{"anonymous":false,"inputs":[{"indexed":false,"internalType":"uint8","name":"version","type":"uint8"}],"name":"Initialized","type":"event"},{"anonymous":false,"inputs":[{"indexed":true,"internalType":"address","name":"sender","type":"address"},{"indexed":false,"internalType":"uint256","name":"weekly","type":"uint256"},{"indexed":false,"internalType":"uint256","name":"circulating_supply","type":"uint256"},{"indexed":false,"internalType":"uint256","name":"circulating_emission","type":"uint256"}],"name":"Mint","type":"event"},{"anonymous":false,"inputs":[{"indexed":true,"internalType":"address","name":"previousOwner","type":"address"},{"indexed":true,"internalType":"address","name":"newOwner","type":"address"}],"name":"OwnershipTransferred","type":"event"},{"inputs":[],"name":"EMISSION","outputs":[{"internalType":"uint256","name":"","type":"uint256"}],"stateMutability":"view","type":"function"},{"inputs":[],"name":"LOCK","outputs":[{"internalType":"uint256","name":"","type":"uint256"}],"stateMutability":"view","type":"function"},{"inputs":[],"name":"MAX_TEAM_RATE","outputs":[{"internalType":"uint256","name":"","type":"uint256"}],"stateMutability":"view","type":"function"},{"inputs":[],"name":"PRECISION","outputs":[{"internalType":"uint256","name":"","type":"uint256"}],"stateMutability":"view","type":"function"},{"inputs":[],"name":"REBASEMAX","outputs":[{"internalType":"uint256","name":"","type":"uint256"}],"stateMutability":"view","type":"function"},{"inputs":[],"name":"TAIL_EMISSION","outputs":[{"internalType":"uint256","name":"","type":"uint256"}],"stateMutability":"view","type":"function"},{"inputs":[],"name":"WEEK","outputs":[{"internalType":"uint256","name":"","type":"uint256"}],"stateMutability":"view","type":"function"},{"inputs":[{"internalType":"address[]","name":"claimants","type":"address[]"},{"internalType":"uint256[]","name":"amounts","type":"uint256[]"},{"internalType":"uint256","name":"max","type":"uint256"}],"name":"_initialize","outputs":[],"stateMutability":"nonpayable","type":"function"},{"inputs":[],"name":"_rewards_distributor","outputs":[{"internalType":"contract IRewardsDistributor","name":"","type":"address"}],"stateMutability":"view","type":"function"},{"inputs":[],"name":"_thena","outputs":[{"internalType":"contract IThena","name":"","type":"address"}],"stateMutability":"view","type":"function"},{"inputs":[],"name":"_ve","outputs":[{"internalType":"contract IVotingEscrow","name":"","type":"address"}],"stateMutability":"view","type":"function"},{"inputs":[],"name":"_voter","outputs":[{"internalType":"contract IVoter","name":"","type":"address"}],"stateMutability":"view","type":"function"},{"inputs":[],"name":"acceptTeam","outputs":[],"stateMutability":"nonpayable","type":"function"},{"inputs":[],"name":"active_period","outputs":[{"internalType":"uint256","name":"","type":"uint256"}],"stateMutability":"view","type":"function"},{"inputs":[],"name":"calculate_emission","outputs":[{"internalType":"uint256","name":"","type":"uint256"}],"stateMutability":"view","type":"function"},{"inputs":[{"internalType":"uint256","name":"_weeklyMint","type":"uint256"}],"name":"calculate_rebate","outputs":[{"internalType":"uint256","name":"","type":"uint256"}],"stateMutability":"view","type":"function"},{"inputs":[],"name":"check","outputs":[{"internalType":"bool","name":"","type":"bool"}],"stateMutability":"view","type":"function"},{"inputs":[],"name":"circulating_emission","outputs":[{"internalType":"uint256","name":"","type":"uint256"}],"stateMutability":"view","type":"function"},{"inputs":[],"name":"circulating_supply","outputs":[{"internalType":"uint256","name":"","type":"uint256"}],"stateMutability":"view","type":"function"},{"inputs":[{"internalType":"address","name":"__voter","type":"address"},{"internalType":"address","name":"__ve","type":"address"},{"internalType":"address","name":"__rewards_distributor","type":"address"}],"name":"initialize","outputs":[],"stateMutability":"nonpayable","type":"function"},{"inputs":[],"name":"isFirstMint","outputs":[{"internalType":"bool","name":"","type":"bool"}],"stateMutability":"view","type":"function"},{"inputs":[],"name":"owner","outputs":[{"internalType":"address","name":"","type":"address"}],"stateMutability":"view","type":"function"},{"inputs":[],"name":"pendingTeam","outputs":[{"internalType":"address","name":"","type":"address"}],"stateMutability":"view","type":"function"},{"inputs":[],"name":"period","outputs":[{"internalType":"uint256","name":"","type":"uint256"}],"stateMutability":"view","type":"function"},{"inputs":[],"name":"renounceOwnership","outputs":[],"stateMutability":"nonpayable","type":"function"},{"inputs":[{"internalType":"uint256","name":"_emission","type":"uint256"}],"name":"setEmission","outputs":[],"stateMutability":"nonpayable","type":"function"},{"inputs":[{"internalType":"uint256","name":"_rebase","type":"uint256"}],"name":"setRebase","outputs":[],"stateMutability":"nonpayable","type":"function"},{"inputs":[{"internalType":"address","name":"_rewardDistro","type":"address"}],"name":"setRewardDistributor","outputs":[],"stateMutability":"nonpayable","type":"function"},{"inputs":[{"internalType":"address","name":"_team","type":"address"}],"name":"setTeam","outputs":[],"stateMutability":"nonpayable","type":"function"},{"inputs":[{"internalType":"uint256","name":"_teamRate","type":"uint256"}],"name":"setTeamRate","outputs":[],"stateMutability":"nonpayable","type":"function"},{"inputs":[{"internalType":"address","name":"__voter","type":"address"}],"name":"setVoter","outputs":[],"stateMutability":"nonpayable","type":"function"},{"inputs":[],"name":"team","outputs":[{"internalType":"address","name":"","type":"address"}],"stateMutability":"view","type":"function"},{"inputs":[],"name":"teamRate","outputs":[{"internalType":"uint256","name":"","type":"uint256"}],"stateMutability":"view","type":"function"},{"inputs":[{"internalType":"address","name":"newOwner","type":"address"}],"name":"transferOwnership","outputs":[],"stateMutability":"nonpayable","type":"function"},{"inputs":[],"name":"update_period","outputs":[{"internalType":"uint256","name":"","type":"uint256"}],"stateMutability":"nonpayable","type":"function"},{"inputs":[],"name":"weekly","outputs":[{"internalType":"uint256","name":"","type":"uint256"}],"stateMutability":"view","type":"function"},{"inputs":[],"name":"weekly_emission","outputs":[{"internalType":"uint256","name":"","type":"uint256"}],"stateMutability":"view","type":"function"}],"evm":{"bytecode":{"linkReferences":{},"object":"608060405234801561001057600080fd5b50611898806100206000396000f3fe608060405234801561001057600080fd5b50600436106102275760003560e01c8063a1809b9511610130578063d1399608116100b8578063e6684de81161007c578063e6684de814610425578063ed29fc111461042e578063ef78d4fd14610436578063f2fde38b1461043e578063f4359ce51461045157600080fd5b8063d1399608146103db578063ddce102f146103e4578063de3e3492146103f7578063e038c75a1461040a578063e536da951461041257600080fd5b8063a9abf7ec116100ff578063a9abf7ec146103a2578063aaf5eb68146103af578063b5cc143a146103b8578063c0c53b8b146103c0578063cfc6c8ff146103d357600080fd5b8063a1809b9514610372578063a18cb95614610385578063a2e23a511461038e578063a4f0d7d01461039757600080fd5b806359d46ffc116101b357806385f2aef21161018257806385f2aef2146103105780638da5cb5b146103235780638dd598fb14610334578063919840ad14610347578063952c820a1461035f57600080fd5b806359d46ffc146102d957806370677e6a146102ec578063715018a6146102ff57806378ef7f021461030757600080fd5b80632e8f7b1f116101fa5780632e8f7b1f1461026d57806336d96faf146102805780633db9b42a146102885780634b1cd5da146102b35780634bc2a657146102c657600080fd5b806301c8e6fd1461022c578063095cf5c6146102475780631eebae801461025c57806326cfc17b14610264575b600080fd5b610234603281565b6040519081526020015b60405180910390f35b61025a61025536600461149f565b61045b565b005b6102346104b0565b610234606a5481565b61025a61027b3660046114bc565b6104d9565b610234610529565b60705461029b906001600160a01b031681565b6040516001600160a01b03909116815260200161023e565b60725461029b906001600160a01b031681565b61025a6102d436600461149f565b61053e565b606e5461029b906001600160a01b031681565b6102346102fa3660046114bc565b61059d565b61025a6106e3565b61023460695481565b606d5461029b906001600160a01b031681565b6033546001600160a01b031661029b565b60715461029b906001600160a01b031681565b61034f6106f7565b604051901515815260200161023e565b61025a61036d3660046115ab565b610728565b61025a61038036600461149f565b610952565b61023460665481565b61023460675481565b6102346303bfc40081565b60655461034f9060ff1681565b6102346103e881565b61025a61098b565b61025a6103ce366004611676565b6109fc565b610234610c45565b610234606b5481565b61025a6103f23660046114bc565b610c5f565b61025a6104053660046114bc565b610cb0565b610234610d01565b606f5461029b906001600160a01b031681565b61023460685481565b610234610df7565b6102346112d3565b61025a61044c36600461149f565b6112ed565b61023462093a8081565b606d546001600160a01b0316331461048e5760405162461bcd60e51b8152600401610485906116c1565b60405180910390fd5b606e80546001600160a01b0319166001600160a01b0392909216919091179055565b60006103e86067546104c0610d01565b6104ca91906116f9565b6104d49190611718565b905090565b606d546001600160a01b031633146105035760405162461bcd60e51b8152600401610485906116c1565b60328111156105245760405162461bcd60e51b81526004016104859061173a565b606955565b60006103e8606654606a546104ca91906116f9565b6001600160a01b03811661055157600080fd5b606d546001600160a01b0316331461057b5760405162461bcd60e51b8152600401610485906116c1565b607080546001600160a01b0319166001600160a01b0392909216919091179055565b606f546071546040516370a0823160e01b81526001600160a01b039182166004820152600092839216906370a0823190602401602060405180830381865afa1580156105ed573d6000803e3d6000fd5b505050506040513d601f19601f820116820180604052508101906106119190611761565b90506000606f60009054906101000a90046001600160a01b03166001600160a01b03166318160ddd6040518163ffffffff1660e01b8152600401602060405180830381865afa158015610668573d6000803e3d6000fd5b505050506040513d601f19601f8201168201806040525081019061068c9190611761565b905060008161069d6103e8856116f9565b6106a79190611718565b905060685481106106d6576103e8606854866106c391906116f9565b6106cd9190611718565b95945050505050565b6103e86106c382876116f9565b6106eb611366565b6106f560006113c0565b565b606b5460009061070a62093a808261177a565b42101580156107225750606c546001600160a01b0316155b91505090565b606c546001600160a01b0316331461073f57600080fd5b801561092257606f546040516340c10f1960e01b8152306004820152602481018390526001600160a01b03909116906340c10f19906044016020604051808303816000875af1158015610796573d6000803e3d6000fd5b505050506040513d601f19601f820116820180604052508101906107ba9190611792565b50606f5460715460405163095ea7b360e01b81526001600160a01b039182166004820152600019602482015291169063095ea7b3906044016020604051808303816000875af1158015610811573d6000803e3d6000fd5b505050506040513d601f19601f820116820180604052508101906108359190611792565b5060005b83518110156109205760715483516001600160a01b039091169063d4e54c3b9085908490811061086b5761086b6117b4565b60200260200101516303bfc40087858151811061088a5761088a6117b4565b60200260200101516040518463ffffffff1660e01b81526004016108ca9392919092835260208301919091526001600160a01b0316604082015260600190565b6020604051808303816000875af11580156108e9573d6000803e3d6000fd5b505050506040513d601f19601f8201168201806040525081019061090d9190611761565b5080610918816117ca565b915050610839565b505b606c80546001600160a01b031916905562093a806109408142611718565b61094a91906116f9565b606b55505050565b606d546001600160a01b0316331461096957600080fd5b607280546001600160a01b0319166001600160a01b0392909216919091179055565b606e546001600160a01b031633146109d85760405162461bcd60e51b815260206004820152601060248201526f6e6f742070656e64696e67207465616d60801b6044820152606401610485565b606e54606d80546001600160a01b0319166001600160a01b03909216919091179055565b600054610100900460ff1615808015610a1c5750600054600160ff909116105b80610a365750303b158015610a36575060005460ff166001145b610a995760405162461bcd60e51b815260206004820152602e60248201527f496e697469616c697a61626c653a20636f6e747261637420697320616c72656160448201526d191e481a5b9a5d1a585b1a5e995960921b6064820152608401610485565b6000805460ff191660011790558015610abc576000805461ff0019166101001790555b610ac4611412565b606c8054336001600160a01b03199182168117909255606d8054909116909117905560286069556103de606655600260675561012c60685560408051637e062a3560e11b815290516001600160a01b0385169163fc0c546a9160048281019260209291908290030181865afa158015610b41573d6000803e3d6000fd5b505050506040513d601f19601f82011682018060405250810190610b6591906117e3565b606f80546001600160a01b03199081166001600160a01b03938416179091556070805482168784161790556071805482168684161790556072805490911691841691909117905562093a8080610bbc8160026116f9565b610bc6904261177a565b610bd09190611718565b610bda91906116f9565b606b556a022692484ce19d09000000606a556065805460ff191660011790558015610c3f576000805461ff0019169055604051600181527f7f26b83ff96e1f2b6a682f133852f6798a09c465da95921460cefb38474024989060200160405180910390a15b50505050565b60006104d4610c52610529565b610c5a6104b0565b611441565b606d546001600160a01b03163314610c895760405162461bcd60e51b8152600401610485906116c1565b6103e8811115610cab5760405162461bcd60e51b81526004016104859061173a565b606655565b606d546001600160a01b03163314610cda5760405162461bcd60e51b8152600401610485906116c1565b6103e8811115610cfc5760405162461bcd60e51b81526004016104859061173a565b606855565b606f546071546040516370a0823160e01b81526001600160a01b03918216600482015260009291909116906370a0823190602401602060405180830381865afa158015610d52573d6000803e3d6000fd5b505050506040513d601f19601f82011682018060405250810190610d769190611761565b606f60009054906101000a90046001600160a01b03166001600160a01b03166318160ddd6040518163ffffffff1660e01b8152600401602060405180830381865afa158015610dc9573d6000803e3d6000fd5b505050506040513d601f19601f82011682018060405250810190610ded9190611761565b6104d49190611800565b606b54600090610e0a62093a808261177a565b4210158015610e225750606c546001600160a01b0316155b156112ce5762093a80610e358142611718565b610e3f91906116f9565b606b81905560655490915060ff16610e6157610e59610c45565b606a55610e6c565b6065805460ff191690555b6000610e79606a5461059d565b905060006103e8606954606a54610e9091906116f9565b610e9a9190611718565b606a54909150600082610ead8584611800565b610eb79190611800565b606f546040516370a0823160e01b81523060048201529192506000916001600160a01b03909116906370a0823190602401602060405180830381865afa158015610f05573d6000803e3d6000fd5b505050506040513d601f19601f82011682018060405250810190610f299190611761565b905082811015610fc057606f546001600160a01b03166340c10f1930610f4f8487611800565b6040516001600160e01b031960e085901b1681526001600160a01b03909216600483015260248201526044016020604051808303816000875af1158015610f9a573d6000803e3d6000fd5b505050506040513d601f19601f82011682018060405250810190610fbe9190611792565b505b606f54606d5460405163a9059cbb60e01b81526001600160a01b0391821660048201526024810187905291169063a9059cbb906044016020604051808303816000875af1158015611015573d6000803e3d6000fd5b505050506040513d601f19601f820116820180604052508101906110399190611792565b61104257600080fd5b606f5460725460405163a9059cbb60e01b81526001600160a01b0391821660048201526024810188905291169063a9059cbb906044016020604051808303816000875af1158015611097573d6000803e3d6000fd5b505050506040513d601f19601f820116820180604052508101906110bb9190611792565b6110c457600080fd5b607260009054906101000a90046001600160a01b03166001600160a01b031663811a40fe6040518163ffffffff1660e01b8152600401600060405180830381600087803b15801561111457600080fd5b505af1158015611128573d6000803e3d6000fd5b50505050607260009054906101000a90046001600160a01b03166001600160a01b031663b21ed5026040518163ffffffff1660e01b8152600401600060405180830381600087803b15801561117c57600080fd5b505af1158015611190573d6000803e3d6000fd5b5050606f5460705460405163095ea7b360e01b81526001600160a01b039182166004820152602481018790529116925063095ea7b391506044016020604051808303816000875af11580156111e9573d6000803e3d6000fd5b505050506040513d601f19601f8201168201806040525081019061120d9190611792565b50607054604051633c6b16ab60e01b8152600481018490526001600160a01b0390911690633c6b16ab90602401600060405180830381600087803b15801561125457600080fd5b505af1158015611268573d6000803e3d6000fd5b50505050336001600160a01b03167fb4c03061fb5b7fed76389d5af8f2e0ddb09f8c70d1333abbb62582835e10accb606a546112a2610d01565b6112aa6104b0565b6040805193845260208401929092529082015260600160405180910390a250505050505b919050565b600062093a806112e38142611718565b6104d491906116f9565b6112f5611366565b6001600160a01b03811661135a5760405162461bcd60e51b815260206004820152602660248201527f4f776e61626c653a206e6577206f776e657220697320746865207a65726f206160448201526564647265737360d01b6064820152608401610485565b611363816113c0565b50565b6033546001600160a01b031633146106f55760405162461bcd60e51b815260206004820181905260248201527f4f776e61626c653a2063616c6c6572206973206e6f7420746865206f776e65726044820152606401610485565b603380546001600160a01b038381166001600160a01b0319831681179093556040519116919082907f8be0079c531659141344cd1fd0a4f28419497f9722a3daafe3b4186f6b6457e090600090a35050565b600054610100900460ff166114395760405162461bcd60e51b815260040161048590611817565b6106f561145a565b6000818310156114515781611453565b825b9392505050565b600054610100900460ff166114815760405162461bcd60e51b815260040161048590611817565b6106f5336113c0565b6001600160a01b038116811461136357600080fd5b6000602082840312156114b157600080fd5b81356114538161148a565b6000602082840312156114ce57600080fd5b5035919050565b634e487b7160e01b600052604160045260246000fd5b604051601f8201601f1916810167ffffffffffffffff81118282101715611514576115146114d5565b604052919050565b600067ffffffffffffffff821115611536576115366114d5565b5060051b60200190565b600082601f83011261155157600080fd5b813560206115666115618361151c565b6114eb565b82815260059290921b8401810191818101908684111561158557600080fd5b8286015b848110156115a05780358352918301918301611589565b509695505050505050565b6000806000606084860312156115c057600080fd5b833567ffffffffffffffff808211156115d857600080fd5b818601915086601f8301126115ec57600080fd5b813560206115fc6115618361151c565b82815260059290921b8401810191818101908a84111561161b57600080fd5b948201945b838610156116425785356116338161148a565b82529482019490820190611620565b9750508701359250508082111561165857600080fd5b5061166586828701611540565b925050604084013590509250925092565b60008060006060848603121561168b57600080fd5b83356116968161148a565b925060208401356116a68161148a565b915060408401356116b68161148a565b809150509250925092565b6020808252600890820152676e6f74207465616d60c01b604082015260600190565b634e487b7160e01b600052601160045260246000fd5b6000816000190483118215151615611713576117136116e3565b500290565b60008261173557634e487b7160e01b600052601260045260246000fd5b500490565b6020808252600d908201526c0e4c2e8ca40e8dede40d0d2ced609b1b604082015260600190565b60006020828403121561177357600080fd5b5051919050565b6000821982111561178d5761178d6116e3565b500190565b6000602082840312156117a457600080fd5b8151801515811461145357600080fd5b634e487b7160e01b600052603260045260246000fd5b6000600182016117dc576117dc6116e3565b5060010190565b6000602082840312156117f557600080fd5b81516114538161148a565b600082821015611812576118126116e3565b500390565b6020808252602b908201527f496e697469616c697a61626c653a20636f6e7472616374206973206e6f74206960408201526a6e697469616c697a696e6760a81b60608201526080019056fea26469706673582212207f712a35744613fcfe093b26afa24306bbab87c49cdb138ec6912e6cd430c04a64736f6c634300080d0033","opcodes":"PUSH1 0x80 PUSH1 0x40 MSTORE CALLVALUE DUP1 ISZERO PUSH2 0x10 JUMPI PUSH1 0x0 DUP1 REVERT JUMPDEST POP PUSH2 0x1898 DUP1 PUSH2 0x20 PUSH1 0x0 CODECOPY PUSH1 0x0 RETURN INVALID PUSH1 0x80 PUSH1 0x40 MSTORE CALLVALUE DUP1 ISZERO PUSH2 0x10 JUMPI PUSH1 0x0 DUP1 REVERT JUMPDEST POP PUSH1 0x4 CALLDATASIZE LT PUSH2 0x227 JUMPI PUSH1 0x0 CALLDATALOAD PUSH1 0xE0 SHR DUP1 PUSH4 0xA1809B95 GT PUSH2 0x130 JUMPI DUP1 PUSH4 0xD1399608 GT PUSH2 0xB8 JUMPI DUP1 PUSH4 0xE6684DE8 GT PUSH2 0x7C JUMPI DUP1 PUSH4 0xE6684DE8 EQ PUSH2 0x425 JUMPI DUP1 PUSH4 0xED29FC11 EQ PUSH2 0x42E JUMPI DUP1 PUSH4 0xEF78D4FD EQ PUSH2 0x436 JUMPI DUP1 PUSH4 0xF2FDE38B EQ PUSH2 0x43E JUMPI DUP1 PUSH4 0xF4359CE5 EQ PUSH2 0x451 JUMPI PUSH1 0x0 DUP1 REVERT JUMPDEST DUP1 PUSH4 0xD1399608 EQ PUSH2 0x3DB JUMPI DUP1 PUSH4 0xDDCE102F EQ PUSH2 0x3E4 JUMPI DUP1 PUSH4 0xDE3E3492 EQ PUSH2 0x3F7 JUMPI DUP1 PUSH4 0xE038C75A EQ PUSH2 0x40A JUMPI DUP1 PUSH4 0xE536DA95 EQ PUSH2 0x412 JUMPI PUSH1 0x0 DUP1 REVERT JUMPDEST DUP1 PUSH4 0xA9ABF7EC GT PUSH2 0xFF JUMPI DUP1 PUSH4 0xA9ABF7EC EQ PUSH2 0x3A2 JUMPI DUP1 PUSH4 0xAAF5EB68 EQ PUSH2 0x3AF JUMPI DUP1 PUSH4 0xB5CC143A EQ PUSH2 0x3B8 JUMPI DUP1 PUSH4 0xC0C53B8B EQ PUSH2 0x3C0 JUMPI DUP1 PUSH4 0xCFC6C8FF EQ PUSH2 0x3D3 JUMPI PUSH1 0x0 DUP1 REVERT JUMPDEST DUP1 PUSH4 0xA1809B95 EQ PUSH2 0x372 JUMPI DUP1 PUSH4 0xA18CB956 EQ PUSH2 0x385 JUMPI DUP1 PUSH4 0xA2E23A51 EQ PUSH2 0x38E JUMPI DUP1 PUSH4 0xA4F0D7D0 EQ PUSH2 0x397 JUMPI PUSH1 0x0 DUP1 REVERT JUMPDEST DUP1 PUSH4 0x59D46FFC GT PUSH2 0x1B3 JUMPI DUP1 PUSH4 0x85F2AEF2 GT PUSH2 0x182 JUMPI DUP1 PUSH4 0x85F2AEF2 EQ PUSH2 0x310 JUMPI DUP1 PUSH4 0x8DA5CB5B EQ PUSH2 0x323 JUMPI DUP1 PUSH4 0x8DD598FB EQ PUSH2 0x334 JUMPI DUP1 PUSH4 0x919840AD EQ PUSH2 0x347 JUMPI DUP1 PUSH4 0x952C820A EQ PUSH2 0x35F JUMPI PUSH1 0x0 DUP1 REVERT JUMPDEST DUP1 PUSH4 0x59D46FFC EQ PUSH2 0x2D9 JUMPI DUP1 PUSH4 0x70677E6A EQ PUSH2 0x2EC JUMPI DUP1 PUSH4 0x715018A6 EQ PUSH2 0x2FF JUMPI DUP1 PUSH4 0x78EF7F02 EQ PUSH2 0x307 JUMPI PUSH1 0x0 DUP1 REVERT JUMPDEST DUP1 PUSH4 0x2E8F7B1F GT PUSH2 0x1FA JUMPI DUP1 PUSH4 0x2E8F7B1F EQ PUSH2 0x26D JUMPI DUP1 PUSH4 0x36D96FAF EQ PUSH2 0x280 JUMPI DUP1 PUSH4 0x3DB9B42A EQ PUSH2 0x288 JUMPI DUP1 PUSH4 0x4B1CD5DA EQ PUSH2 0x2B3 JUMPI DUP1 PUSH4 0x4BC2A657 EQ PUSH2 0x2C6 JUMPI PUSH1 0x0 DUP1 REVERT JUMPDEST DUP1 PUSH4 0x1C8E6FD EQ PUSH2 0x22C JUMPI DUP1 PUSH4 0x95CF5C6 EQ PUSH2 0x247 JUMPI DUP1 PUSH4 0x1EEBAE80 EQ PUSH2 0x25C JUMPI DUP1 PUSH4 0x26CFC17B EQ PUSH2 0x264 JUMPI JUMPDEST PUSH1 0x0 DUP1 REVERT JUMPDEST PUSH2 0x234 PUSH1 0x32 DUP2 JUMP JUMPDEST PUSH1 0x40 MLOAD SWAP1 DUP2 MSTORE PUSH1 0x20 ADD JUMPDEST PUSH1 0x40 MLOAD DUP1 SWAP2 SUB SWAP1 RETURN JUMPDEST PUSH2 0x25A PUSH2 0x255 CALLDATASIZE PUSH1 0x4 PUSH2 0x149F JUMP JUMPDEST PUSH2 0x45B JUMP JUMPDEST STOP JUMPDEST PUSH2 0x234 PUSH2 0x4B0 JUMP JUMPDEST PUSH2 0x234 PUSH1 0x6A SLOAD DUP2 JUMP JUMPDEST PUSH2 0x25A PUSH2 0x27B CALLDATASIZE PUSH1 0x4 PUSH2 0x14BC JUMP JUMPDEST PUSH2 0x4D9 JUMP JUMPDEST PUSH2 0x234 PUSH2 0x529 JUMP JUMPDEST PUSH1 0x70 SLOAD PUSH2 0x29B SWAP1 PUSH1 0x1 PUSH1 0x1 PUSH1 0xA0 SHL SUB AND DUP2 JUMP JUMPDEST PUSH1 0x40 MLOAD PUSH1 0x1 PUSH1 0x1 PUSH1 0xA0 SHL SUB SWAP1 SWAP2 AND DUP2 MSTORE PUSH1 0x20 ADD PUSH2 0x23E JUMP JUMPDEST PUSH1 0x72 SLOAD PUSH2 0x29B SWAP1 PUSH1 0x1 PUSH1 0x1 PUSH1 0xA0 SHL SUB AND DUP2 JUMP JUMPDEST PUSH2 0x25A PUSH2 0x2D4 CALLDATASIZE PUSH1 0x4 PUSH2 0x149F JUMP JUMPDEST PUSH2 0x53E JUMP JUMPDEST PUSH1 0x6E SLOAD PUSH2 0x29B SWAP1 PUSH1 0x1 PUSH1 0x1 PUSH1 0xA0 SHL SUB AND DUP2 JUMP JUMPDEST PUSH2 0x234 PUSH2 0x2FA CALLDATASIZE PUSH1 0x4 PUSH2 0x14BC JUMP JUMPDEST PUSH2 0x59D JUMP JUMPDEST PUSH2 0x25A PUSH2 0x6E3 JUMP JUMPDEST PUSH2 0x234 PUSH1 0x69 SLOAD DUP2 JUMP JUMPDEST PUSH1 0x6D SLOAD PUSH2 0x29B SWAP1 PUSH1 0x1 PUSH1 0x1 PUSH1 0xA0 SHL SUB AND DUP2 JUMP JUMPDEST PUSH1 0x33 SLOAD PUSH1 0x1 PUSH1 0x1 PUSH1 0xA0 SHL SUB AND PUSH2 0x29B JUMP JUMPDEST PUSH1 0x71 SLOAD PUSH2 0x29B SWAP1 PUSH1 0x1 PUSH1 0x1 PUSH1 0xA0 SHL SUB AND DUP2 JUMP JUMPDEST PUSH2 0x34F PUSH2 0x6F7 JUMP JUMPDEST PUSH1 0x40 MLOAD SWAP1 ISZERO ISZERO DUP2 MSTORE PUSH1 0x20 ADD PUSH2 0x23E JUMP JUMPDEST PUSH2 0x25A PUSH2 0x36D CALLDATASIZE PUSH1 0x4 PUSH2 0x15AB JUMP JUMPDEST PUSH2 0x728 JUMP JUMPDEST PUSH2 0x25A PUSH2 0x380 CALLDATASIZE PUSH1 0x4 PUSH2 0x149F JUMP JUMPDEST PUSH2 0x952 JUMP JUMPDEST PUSH2 0x234 PUSH1 0x66 SLOAD DUP2 JUMP JUMPDEST PUSH2 0x234 PUSH1 0x67 SLOAD DUP2 JUMP JUMPDEST PUSH2 0x234 PUSH4 0x3BFC400 DUP2 JUMP JUMPDEST PUSH1 0x65 SLOAD PUSH2 0x34F SWAP1 PUSH1 0xFF AND DUP2 JUMP JUMPDEST PUSH2 0x234 PUSH2 0x3E8 DUP2 JUMP JUMPDEST PUSH2 0x25A PUSH2 0x98B JUMP JUMPDEST PUSH2 0x25A PUSH2 0x3CE CALLDATASIZE PUSH1 0x4 PUSH2 0x1676 JUMP JUMPDEST PUSH2 0x9FC JUMP JUMPDEST PUSH2 0x234 PUSH2 0xC45 JUMP JUMPDEST PUSH2 0x234 PUSH1 0x6B SLOAD DUP2 JUMP JUMPDEST PUSH2 0x25A PUSH2 0x3F2 CALLDATASIZE PUSH1 0x4 PUSH2 0x14BC JUMP JUMPDEST PUSH2 0xC5F JUMP JUMPDEST PUSH2 0x25A PUSH2 0x405 CALLDATASIZE PUSH1 0x4 PUSH2 0x14BC JUMP JUMPDEST PUSH2 0xCB0 JUMP JUMPDEST PUSH2 0x234 PUSH2 0xD01 JUMP JUMPDEST PUSH1 0x6F SLOAD PUSH2 0x29B SWAP1 PUSH1 0x1 PUSH1 0x1 PUSH1 0xA0 SHL SUB AND DUP2 JUMP JUMPDEST PUSH2 0x234 PUSH1 0x68 SLOAD DUP2 JUMP JUMPDEST PUSH2 0x234 PUSH2 0xDF7 JUMP JUMPDEST PUSH2 0x234 PUSH2 0x12D3 JUMP JUMPDEST PUSH2 0x25A PUSH2 0x44C CALLDATASIZE PUSH1 0x4 PUSH2 0x149F JUMP JUMPDEST PUSH2 0x12ED JUMP JUMPDEST PUSH2 0x234 PUSH3 0x93A80 DUP2 JUMP JUMPDEST PUSH1 0x6D SLOAD PUSH1 0x1 PUSH1 0x1 PUSH1 0xA0 SHL SUB AND CALLER EQ PUSH2 0x48E JUMPI PUSH1 0x40 MLOAD PUSH3 0x461BCD PUSH1 0xE5 SHL DUP2 MSTORE PUSH1 0x4 ADD PUSH2 0x485 SWAP1 PUSH2 0x16C1 JUMP JUMPDEST PUSH1 0x40 MLOAD DUP1 SWAP2 SUB SWAP1 REVERT JUMPDEST PUSH1 0x6E DUP1 SLOAD PUSH1 0x1 PUSH1 0x1 PUSH1 0xA0 SHL SUB NOT AND PUSH1 0x1 PUSH1 0x1 PUSH1 0xA0 SHL SUB SWAP3 SWAP1 SWAP3 AND SWAP2 SWAP1 SWAP2 OR SWAP1 SSTORE JUMP JUMPDEST PUSH1 0x0 PUSH2 0x3E8 PUSH1 0x67 SLOAD PUSH2 0x4C0 PUSH2 0xD01 JUMP JUMPDEST PUSH2 0x4CA SWAP2 SWAP1 PUSH2 0x16F9 JUMP JUMPDEST PUSH2 0x4D4 SWAP2 SWAP1 PUSH2 0x1718 JUMP JUMPDEST SWAP1 POP SWAP1 JUMP JUMPDEST PUSH1 0x6D SLOAD PUSH1 0x1 PUSH1 0x1 PUSH1 0xA0 SHL SUB AND CALLER EQ PUSH2 0x503 JUMPI PUSH1 0x40 MLOAD PUSH3 0x461BCD PUSH1 0xE5 SHL DUP2 MSTORE PUSH1 0x4 ADD PUSH2 0x485 SWAP1 PUSH2 0x16C1 JUMP JUMPDEST PUSH1 0x32 DUP2 GT ISZERO PUSH2 0x524 JUMPI PUSH1 0x40 MLOAD PUSH3 0x461BCD PUSH1 0xE5 SHL DUP2 MSTORE PUSH1 0x4 ADD PUSH2 0x485 SWAP1 PUSH2 0x173A JUMP JUMPDEST PUSH1 0x69 SSTORE JUMP JUMPDEST PUSH1 0x0 PUSH2 0x3E8 PUSH1 0x66 SLOAD PUSH1 0x6A SLOAD PUSH2 0x4CA SWAP2 SWAP1 PUSH2 0x16F9 JUMP JUMPDEST PUSH1 0x1 PUSH1 0x1 PUSH1 0xA0 SHL SUB DUP2 AND PUSH2 0x551 JUMPI PUSH1 0x0 DUP1 REVERT JUMPDEST PUSH1 0x6D SLOAD PUSH1 0x1 PUSH1 0x1 PUSH1 0xA0 SHL SUB AND CALLER EQ PUSH2 0x57B JUMPI PUSH1 0x40 MLOAD PUSH3 0x461BCD PUSH1 0xE5 SHL DUP2 MSTORE PUSH1 0x4 ADD PUSH2 0x485 SWAP1 PUSH2 0x16C1 JUMP JUMPDEST PUSH1 0x70 DUP1 SLOAD PUSH1 0x1 PUSH1 0x1 PUSH1 0xA0 SHL SUB NOT AND PUSH1 0x1 PUSH1 0x1 PUSH1 0xA0 SHL SUB SWAP3 SWAP1 SWAP3 AND SWAP2 SWAP1 SWAP2 OR SWAP1 SSTORE JUMP JUMPDEST PUSH1 0x6F SLOAD PUSH1 0x71 SLOAD PUSH1 0x40 MLOAD PUSH4 0x70A08231 PUSH1 0xE0 SHL DUP2 MSTORE PUSH1 0x1 PUSH1 0x1 PUSH1 0xA0 SHL SUB SWAP2 DUP3 AND PUSH1 0x4 DUP3 ADD MSTORE PUSH1 0x0 SWAP3 DUP4 SWAP3 AND SWAP1 PUSH4 0x70A08231 SWAP1 PUSH1 0x24 ADD PUSH1 0x20 PUSH1 0x40 MLOAD DUP1 DUP4 SUB DUP2 DUP7 GAS STATICCALL ISZERO DUP1 ISZERO PUSH2 0x5ED JUMPI RETURNDATASIZE PUSH1 0x0 DUP1 RETURNDATACOPY RETURNDATASIZE PUSH1 0x0 REVERT JUMPDEST POP POP POP POP PUSH1 0x40 MLOAD RETURNDATASIZE PUSH1 0x1F NOT PUSH1 0x1F DUP3 ADD AND DUP3 ADD DUP1 PUSH1 0x40 MSTORE POP DUP2 ADD SWAP1 PUSH2 0x611 SWAP2 SWAP1 PUSH2 0x1761 JUMP JUMPDEST SWAP1 POP PUSH1 0x0 PUSH1 0x6F PUSH1 0x0 SWAP1 SLOAD SWAP1 PUSH2 0x100 EXP SWAP1 DIV PUSH1 0x1 PUSH1 0x1 PUSH1 0xA0 SHL SUB AND PUSH1 0x1 PUSH1 0x1 PUSH1 0xA0 SHL SUB AND PUSH4 0x18160DDD PUSH1 0x40 MLOAD DUP2 PUSH4 0xFFFFFFFF AND PUSH1 0xE0 SHL DUP2 MSTORE PUSH1 0x4 ADD PUSH1 0x20 PUSH1 0x40 MLOAD DUP1 DUP4 SUB DUP2 DUP7 GAS STATICCALL ISZERO DUP1 ISZERO PUSH2 0x668 JUMPI RETURNDATASIZE PUSH1 0x0 DUP1 RETURNDATACOPY RETURNDATASIZE PUSH1 0x0 REVERT JUMPDEST POP POP POP POP PUSH1 0x40 MLOAD RETURNDATASIZE PUSH1 0x1F NOT PUSH1 0x1F DUP3 ADD AND DUP3 ADD DUP1 PUSH1 0x40 MSTORE POP DUP2 ADD SWAP1 PUSH2 0x68C SWAP2 SWAP1 PUSH2 0x1761 JUMP JUMPDEST SWAP1 POP PUSH1 0x0 DUP2 PUSH2 0x69D PUSH2 0x3E8 DUP6 PUSH2 0x16F9 JUMP JUMPDEST PUSH2 0x6A7 SWAP2 SWAP1 PUSH2 0x1718 JUMP JUMPDEST SWAP1 POP PUSH1 0x68 SLOAD DUP2 LT PUSH2 0x6D6 JUMPI PUSH2 0x3E8 PUSH1 0x68 SLOAD DUP7 PUSH2 0x6C3 SWAP2 SWAP1 PUSH2 0x16F9 JUMP JUMPDEST PUSH2 0x6CD SWAP2 SWAP1 PUSH2 0x1718 JUMP JUMPDEST SWAP6 SWAP5 POP POP POP POP POP JUMP JUMPDEST PUSH2 0x3E8 PUSH2 0x6C3 DUP3 DUP8 PUSH2 0x16F9 JUMP JUMPDEST PUSH2 0x6EB PUSH2 0x1366 JUMP JUMPDEST PUSH2 0x6F5 PUSH1 0x0 PUSH2 0x13C0 JUMP JUMPDEST JUMP JUMPDEST PUSH1 0x6B SLOAD PUSH1 0x0 SWAP1 PUSH2 0x70A PUSH3 0x93A80 DUP3 PUSH2 0x177A JUMP JUMPDEST TIMESTAMP LT ISZERO DUP1 ISZERO PUSH2 0x722 JUMPI POP PUSH1 0x6C SLOAD PUSH1 0x1 PUSH1 0x1 PUSH1 0xA0 SHL SUB AND ISZERO JUMPDEST SWAP2 POP POP SWAP1 JUMP JUMPDEST PUSH1 0x6C SLOAD PUSH1 0x1 PUSH1 0x1 PUSH1 0xA0 SHL SUB AND CALLER EQ PUSH2 0x73F JUMPI PUSH1 0x0 DUP1 REVERT JUMPDEST DUP1 ISZERO PUSH2 0x922 JUMPI PUSH1 0x6F SLOAD PUSH1 0x40 MLOAD PUSH4 0x40C10F19 PUSH1 0xE0 SHL DUP2 MSTORE ADDRESS PUSH1 0x4 DUP3 ADD MSTORE PUSH1 0x24 DUP2 ADD DUP4 SWAP1 MSTORE PUSH1 0x1 PUSH1 0x1 PUSH1 0xA0 SHL SUB SWAP1 SWAP2 AND SWAP1 PUSH4 0x40C10F19 SWAP1 PUSH1 0x44 ADD PUSH1 0x20 PUSH1 0x40 MLOAD DUP1 DUP4 SUB DUP2 PUSH1 0x0 DUP8 GAS CALL ISZERO DUP1 ISZERO PUSH2 0x796 JUMPI RETURNDATASIZE PUSH1 0x0 DUP1 RETURNDATACOPY RETURNDATASIZE PUSH1 0x0 REVERT JUMPDEST POP POP POP POP PUSH1 0x40 MLOAD RETURNDATASIZE PUSH1 0x1F NOT PUSH1 0x1F DUP3 ADD AND DUP3 ADD DUP1 PUSH1 0x40 MSTORE POP DUP2 ADD SWAP1 PUSH2 0x7BA SWAP2 SWAP1 PUSH2 0x1792 JUMP JUMPDEST POP PUSH1 0x6F SLOAD PUSH1 0x71 SLOAD PUSH1 0x40 MLOAD PUSH4 0x95EA7B3 PUSH1 0xE0 SHL DUP2 MSTORE PUSH1 0x1 PUSH1 0x1 PUSH1 0xA0 SHL SUB SWAP2 DUP3 AND PUSH1 0x4 DUP3 ADD MSTORE PUSH1 0x0 NOT PUSH1 0x24 DUP3 ADD MSTORE SWAP2 AND SWAP1 PUSH4 0x95EA7B3 SWAP1 PUSH1 0x44 ADD PUSH1 0x20 PUSH1 0x40 MLOAD DUP1 DUP4 SUB DUP2 PUSH1 0x0 DUP8 GAS CALL ISZERO DUP1 ISZERO PUSH2 0x811 JUMPI RETURNDATASIZE PUSH1 0x0 DUP1 RETURNDATACOPY RETURNDATASIZE PUSH1 0x0 REVERT JUMPDEST POP POP POP POP PUSH1 0x40 MLOAD RETURNDATASIZE PUSH1 0x1F NOT PUSH1 0x1F DUP3 ADD AND DUP3 ADD DUP1 PUSH1 0x40 MSTORE POP DUP2 ADD SWAP1 PUSH2 0x835 SWAP2 SWAP1 PUSH2 0x1792 JUMP JUMPDEST POP PUSH1 0x0 JUMPDEST DUP4 MLOAD DUP2 LT ISZERO PUSH2 0x920 JUMPI PUSH1 0x71 SLOAD DUP4 MLOAD PUSH1 0x1 PUSH1 0x1 PUSH1 0xA0 SHL SUB SWAP1 SWAP2 AND SWAP1 PUSH4 0xD4E54C3B SWAP1 DUP6 SWAP1 DUP5 SWAP1 DUP2 LT PUSH2 0x86B JUMPI PUSH2 0x86B PUSH2 0x17B4 JUMP JUMPDEST PUSH1 0x20 MUL PUSH1 0x20 ADD ADD MLOAD PUSH4 0x3BFC400 DUP8 DUP6 DUP2 MLOAD DUP2 LT PUSH2 0x88A JUMPI PUSH2 0x88A PUSH2 0x17B4 JUMP JUMPDEST PUSH1 0x20 MUL PUSH1 0x20 ADD ADD MLOAD PUSH1 0x40 MLOAD DUP5 PUSH4 0xFFFFFFFF AND PUSH1 0xE0 SHL DUP2 MSTORE PUSH1 0x4 ADD PUSH2 0x8CA SWAP4 SWAP3 SWAP2 SWAP1 SWAP3 DUP4 MSTORE PUSH1 0x20 DUP4 ADD SWAP2 SWAP1 SWAP2 MSTORE PUSH1 0x1 PUSH1 0x1 PUSH1 0xA0 SHL SUB AND PUSH1 0x40 DUP3 ADD MSTORE PUSH1 0x60 ADD SWAP1 JUMP JUMPDEST PUSH1 0x20 PUSH1 0x40 MLOAD DUP1 DUP4 SUB DUP2 PUSH1 0x0 DUP8 GAS CALL ISZERO DUP1 ISZERO PUSH2 0x8E9 JUMPI RETURNDATASIZE PUSH1 0x0 DUP1 RETURNDATACOPY RETURNDATASIZE PUSH1 0x0 REVERT JUMPDEST POP POP POP POP PUSH1 0x40 MLOAD RETURNDATASIZE PUSH1 0x1F NOT PUSH1 0x1F DUP3 ADD AND DUP3 ADD DUP1 PUSH1 0x40 MSTORE POP DUP2 ADD SWAP1 PUSH2 0x90D SWAP2 SWAP1 PUSH2 0x1761 JUMP JUMPDEST POP DUP1 PUSH2 0x918 DUP2 PUSH2 0x17CA JUMP JUMPDEST SWAP2 POP POP PUSH2 0x839 JUMP JUMPDEST POP JUMPDEST PUSH1 0x6C DUP1 SLOAD PUSH1 0x1 PUSH1 0x1 PUSH1 0xA0 SHL SUB NOT AND SWAP1 SSTORE PUSH3 0x93A80 PUSH2 0x940 DUP2 TIMESTAMP PUSH2 0x1718 JUMP JUMPDEST PUSH2 0x94A SWAP2 SWAP1 PUSH2 0x16F9 JUMP JUMPDEST PUSH1 0x6B SSTORE POP POP POP JUMP JUMPDEST PUSH1 0x6D SLOAD PUSH1 0x1 PUSH1 0x1 PUSH1 0xA0 SHL SUB AND CALLER EQ PUSH2 0x969 JUMPI PUSH1 0x0 DUP1 REVERT JUMPDEST PUSH1 0x72 DUP1 SLOAD PUSH1 0x1 PUSH1 0x1 PUSH1 0xA0 SHL SUB NOT AND PUSH1 0x1 PUSH1 0x1 PUSH1 0xA0 SHL SUB SWAP3 SWAP1 SWAP3 AND SWAP2 SWAP1 SWAP2 OR SWAP1 SSTORE JUMP JUMPDEST PUSH1 0x6E SLOAD PUSH1 0x1 PUSH1 0x1 PUSH1 0xA0 SHL SUB AND CALLER EQ PUSH2 0x9D8 JUMPI PUSH1 0x40 MLOAD PUSH3 0x461BCD PUSH1 0xE5 SHL DUP2 MSTORE PUSH1 0x20 PUSH1 0x4 DUP3 ADD MSTORE PUSH1 0x10 PUSH1 0x24 DUP3 ADD MSTORE PUSH16 0x6E6F742070656E64696E67207465616D PUSH1 0x80 SHL PUSH1 0x44 DUP3 ADD MSTORE PUSH1 0x64 ADD PUSH2 0x485 JUMP JUMPDEST PUSH1 0x6E SLOAD PUSH1 0x6D DUP1 SLOAD PUSH1 0x1 PUSH1 0x1 PUSH1 0xA0 SHL SUB NOT AND PUSH1 0x1 PUSH1 0x1 PUSH1 0xA0 SHL SUB SWAP1 SWAP3 AND SWAP2 SWAP1 SWAP2 OR SWAP1 SSTORE JUMP JUMPDEST PUSH1 0x0 SLOAD PUSH2 0x100 SWAP1 DIV PUSH1 0xFF AND ISZERO DUP1 DUP1 ISZERO PUSH2 0xA1C JUMPI POP PUSH1 0x0 SLOAD PUSH1 0x1 PUSH1 0xFF SWAP1 SWAP2 AND LT JUMPDEST DUP1 PUSH2 0xA36 JUMPI POP ADDRESS EXTCODESIZE ISZERO DUP1 ISZERO PUSH2 0xA36 JUMPI POP PUSH1 0x0 SLOAD PUSH1 0xFF AND PUSH1 0x1 EQ JUMPDEST PUSH2 0xA99 JUMPI PUSH1 0x40 MLOAD PUSH3 0x461BCD PUSH1 0xE5 SHL DUP2 MSTORE PUSH1 0x20 PUSH1 0x4 DUP3 ADD MSTORE PUSH1 0x2E PUSH1 0x24 DUP3 ADD MSTORE PUSH32 0x496E697469616C697A61626C653A20636F6E747261637420697320616C726561 PUSH1 0x44 DUP3 ADD MSTORE PUSH14 0x191E481A5B9A5D1A585B1A5E9959 PUSH1 0x92 SHL PUSH1 0x64 DUP3 ADD MSTORE PUSH1 0x84 ADD PUSH2 0x485 JUMP JUMPDEST PUSH1 0x0 DUP1 SLOAD PUSH1 0xFF NOT AND PUSH1 0x1 OR SWAP1 SSTORE DUP1 ISZERO PUSH2 0xABC JUMPI PUSH1 0x0 DUP1 SLOAD PUSH2 0xFF00 NOT AND PUSH2 0x100 OR SWAP1 SSTORE JUMPDEST PUSH2 0xAC4 PUSH2 0x1412 JUMP JUMPDEST PUSH1 0x6C DUP1 SLOAD CALLER PUSH1 0x1 PUSH1 0x1 PUSH1 0xA0 SHL SUB NOT SWAP2 DUP3 AND DUP2 OR SWAP1 SWAP3 SSTORE PUSH1 0x6D DUP1 SLOAD SWAP1 SWAP2 AND SWAP1 SWAP2 OR SWAP1 SSTORE PUSH1 0x28 PUSH1 0x69 SSTORE PUSH2 0x3DE PUSH1 0x66 SSTORE PUSH1 0x2 PUSH1 0x67 SSTORE PUSH2 0x12C PUSH1 0x68 SSTORE PUSH1 0x40 DUP1 MLOAD PUSH4 0x7E062A35 PUSH1 0xE1 SHL DUP2 MSTORE SWAP1 MLOAD PUSH1 0x1 PUSH1 0x1 PUSH1 0xA0 SHL SUB DUP6 AND SWAP2 PUSH4 0xFC0C546A SWAP2 PUSH1 0x4 DUP3 DUP2 ADD SWAP3 PUSH1 0x20 SWAP3 SWAP2 SWAP1 DUP3 SWAP1 SUB ADD DUP2 DUP7 GAS STATICCALL ISZERO DUP1 ISZERO PUSH2 0xB41 JUMPI RETURNDATASIZE PUSH1 0x0 DUP1 RETURNDATACOPY RETURNDATASIZE PUSH1 0x0 REVERT JUMPDEST POP POP POP POP PUSH1 0x40 MLOAD RETURNDATASIZE PUSH1 0x1F NOT PUSH1 0x1F DUP3 ADD AND DUP3 ADD DUP1 PUSH1 0x40 MSTORE POP DUP2 ADD SWAP1 PUSH2 0xB65 SWAP2 SWAP1 PUSH2 0x17E3 JUMP JUMPDEST PUSH1 0x6F DUP1 SLOAD PUSH1 0x1 PUSH1 0x1 PUSH1 0xA0 SHL SUB NOT SWAP1 DUP2 AND PUSH1 0x1 PUSH1 0x1 PUSH1 0xA0 SHL SUB SWAP4 DUP5 AND OR SWAP1 SWAP2 SSTORE PUSH1 0x70 DUP1 SLOAD DUP3 AND DUP8 DUP5 AND OR SWAP1 SSTORE PUSH1 0x71 DUP1 SLOAD DUP3 AND DUP7 DUP5 AND OR SWAP1 SSTORE PUSH1 0x72 DUP1 SLOAD SWAP1 SWAP2 AND SWAP2 DUP5 AND SWAP2 SWAP1 SWAP2 OR SWAP1 SSTORE PUSH3 0x93A80 DUP1 PUSH2 0xBBC DUP2 PUSH1 0x2 PUSH2 0x16F9 JUMP JUMPDEST PUSH2 0xBC6 SWAP1 TIMESTAMP PUSH2 0x177A JUMP JUMPDEST PUSH2 0xBD0 SWAP2 SWAP1 PUSH2 0x1718 JUMP JUMPDEST PUSH2 0xBDA SWAP2 SWAP1 PUSH2 0x16F9 JUMP JUMPDEST PUSH1 0x6B SSTORE PUSH11 0x22692484CE19D09000000 PUSH1 0x6A SSTORE PUSH1 0x65 DUP1 SLOAD PUSH1 0xFF NOT AND PUSH1 0x1 OR SWAP1 SSTORE DUP1 ISZERO PUSH2 0xC3F JUMPI PUSH1 0x0 DUP1 SLOAD PUSH2 0xFF00 NOT AND SWAP1 SSTORE PUSH1 0x40 MLOAD PUSH1 0x1 DUP2 MSTORE PUSH32 0x7F26B83FF96E1F2B6A682F133852F6798A09C465DA95921460CEFB3847402498 SWAP1 PUSH1 0x20 ADD PUSH1 0x40 MLOAD DUP1 SWAP2 SUB SWAP1 LOG1 JUMPDEST POP POP POP POP JUMP JUMPDEST PUSH1 0x0 PUSH2 0x4D4 PUSH2 0xC52 PUSH2 0x529 JUMP JUMPDEST PUSH2 0xC5A PUSH2 0x4B0 JUMP JUMPDEST PUSH2 0x1441 JUMP JUMPDEST PUSH1 0x6D SLOAD PUSH1 0x1 PUSH1 0x1 PUSH1 0xA0 SHL SUB AND CALLER EQ PUSH2 0xC89 JUMPI PUSH1 0x40 MLOAD PUSH3 0x461BCD PUSH1 0xE5 SHL DUP2 MSTORE PUSH1 0x4 ADD PUSH2 0x485 SWAP1 PUSH2 0x16C1 JUMP JUMPDEST PUSH2 0x3E8 DUP2 GT ISZERO PUSH2 0xCAB JUMPI PUSH1 0x40 MLOAD PUSH3 0x461BCD PUSH1 0xE5 SHL DUP2 MSTORE PUSH1 0x4 ADD PUSH2 0x485 SWAP1 PUSH2 0x173A JUMP JUMPDEST PUSH1 0x66 SSTORE JUMP JUMPDEST PUSH1 0x6D SLOAD PUSH1 0x1 PUSH1 0x1 PUSH1 0xA0 SHL SUB AND CALLER EQ PUSH2 0xCDA JUMPI PUSH1 0x40 MLOAD PUSH3 0x461BCD PUSH1 0xE5 SHL DUP2 MSTORE PUSH1 0x4 ADD PUSH2 0x485 SWAP1 PUSH2 0x16C1 JUMP JUMPDEST PUSH2 0x3E8 DUP2 GT ISZERO PUSH2 0xCFC JUMPI PUSH1 0x40 MLOAD PUSH3 0x461BCD PUSH1 0xE5 SHL DUP2 MSTORE PUSH1 0x4 ADD PUSH2 0x485 SWAP1 PUSH2 0x173A JUMP JUMPDEST PUSH1 0x68 SSTORE JUMP JUMPDEST PUSH1 0x6F SLOAD PUSH1 0x71 SLOAD PUSH1 0x40 MLOAD PUSH4 0x70A08231 PUSH1 0xE0 SHL DUP2 MSTORE PUSH1 0x1 PUSH1 0x1 PUSH1 0xA0 SHL SUB SWAP2 DUP3 AND PUSH1 0x4 DUP3 ADD MSTORE PUSH1 0x0 SWAP3 SWAP2 SWAP1 SWAP2 AND SWAP1 PUSH4 0x70A08231 SWAP1 PUSH1 0x24 ADD PUSH1 0x20 PUSH1 0x40 MLOAD DUP1 DUP4 SUB DUP2 DUP7 GAS STATICCALL ISZERO DUP1 ISZERO PUSH2 0xD52 JUMPI RETURNDATASIZE PUSH1 0x0 DUP1 RETURNDATACOPY RETURNDATASIZE PUSH1 0x0 REVERT JUMPDEST POP POP POP POP PUSH1 0x40 MLOAD RETURNDATASIZE PUSH1 0x1F NOT PUSH1 0x1F DUP3 ADD AND DUP3 ADD DUP1 PUSH1 0x40 MSTORE POP DUP2 ADD SWAP1 PUSH2 0xD76 SWAP2 SWAP1 PUSH2 0x1761 JUMP JUMPDEST PUSH1 0x6F PUSH1 0x0 SWAP1 SLOAD SWAP1 PUSH2 0x100 EXP SWAP1 DIV PUSH1 0x1 PUSH1 0x1 PUSH1 0xA0 SHL SUB AND PUSH1 0x1 PUSH1 0x1 PUSH1 0xA0 SHL SUB AND PUSH4 0x18160DDD PUSH1 0x40 MLOAD DUP2 PUSH4 0xFFFFFFFF AND PUSH1 0xE0 SHL DUP2 MSTORE PUSH1 0x4 ADD PUSH1 0x20 PUSH1 0x40 MLOAD DUP1 DUP4 SUB DUP2 DUP7 GAS STATICCALL ISZERO DUP1 ISZERO PUSH2 0xDC9 JUMPI RETURNDATASIZE PUSH1 0x0 DUP1 RETURNDATACOPY RETURNDATASIZE PUSH1 0x0 REVERT JUMPDEST POP POP POP POP PUSH1 0x40 MLOAD RETURNDATASIZE PUSH1 0x1F NOT PUSH1 0x1F DUP3 ADD AND DUP3 ADD DUP1 PUSH1 0x40 MSTORE POP DUP2 ADD SWAP1 PUSH2 0xDED SWAP2 SWAP1 PUSH2 0x1761 JUMP JUMPDEST PUSH2 0x4D4 SWAP2 SWAP1 PUSH2 0x1800 JUMP JUMPDEST PUSH1 0x6B SLOAD PUSH1 0x0 SWAP1 PUSH2 0xE0A PUSH3 0x93A80 DUP3 PUSH2 0x177A JUMP JUMPDEST TIMESTAMP LT ISZERO DUP1 ISZERO PUSH2 0xE22 JUMPI POP PUSH1 0x6C SLOAD PUSH1 0x1 PUSH1 0x1 PUSH1 0xA0 SHL SUB AND ISZERO JUMPDEST ISZERO PUSH2 0x12CE JUMPI PUSH3 0x93A80 PUSH2 0xE35 DUP2 TIMESTAMP PUSH2 0x1718 JUMP JUMPDEST PUSH2 0xE3F SWAP2 SWAP1 PUSH2 0x16F9 JUMP JUMPDEST PUSH1 0x6B DUP2 SWAP1 SSTORE PUSH1 0x65 SLOAD SWAP1 SWAP2 POP PUSH1 0xFF AND PUSH2 0xE61 JUMPI PUSH2 0xE59 PUSH2 0xC45 JUMP JUMPDEST PUSH1 0x6A SSTORE PUSH2 0xE6C JUMP JUMPDEST PUSH1 0x65 DUP1 SLOAD PUSH1 0xFF NOT AND SWAP1 SSTORE JUMPDEST PUSH1 0x0 PUSH2 0xE79 PUSH1 0x6A SLOAD PUSH2 0x59D JUMP JUMPDEST SWAP1 POP PUSH1 0x0 PUSH2 0x3E8 PUSH1 0x69 SLOAD PUSH1 0x6A SLOAD PUSH2 0xE90 SWAP2 SWAP1 PUSH2 0x16F9 JUMP JUMPDEST PUSH2 0xE9A SWAP2 SWAP1 PUSH2 0x1718 JUMP JUMPDEST PUSH1 0x6A SLOAD SWAP1 SWAP2 POP PUSH1 0x0 DUP3 PUSH2 0xEAD DUP6 DUP5 PUSH2 0x1800 JUMP JUMPDEST PUSH2 0xEB7 SWAP2 SWAP1 PUSH2 0x1800 JUMP JUMPDEST PUSH1 0x6F SLOAD PUSH1 0x40 MLOAD PUSH4 0x70A08231 PUSH1 0xE0 SHL DUP2 MSTORE ADDRESS PUSH1 0x4 DUP3 ADD MSTORE SWAP2 SWAP3 POP PUSH1 0x0 SWAP2 PUSH1 0x1 PUSH1 0x1 PUSH1 0xA0 SHL SUB SWAP1 SWAP2 AND SWAP1 PUSH4 0x70A08231 SWAP1 PUSH1 0x24 ADD PUSH1 0x20 PUSH1 0x40 MLOAD DUP1 DUP4 SUB DUP2 DUP7 GAS STATICCALL ISZERO DUP1 ISZERO PUSH2 0xF05 JUMPI RETURNDATASIZE PUSH1 0x0 DUP1 RETURNDATACOPY RETURNDATASIZE PUSH1 0x0 REVERT JUMPDEST POP POP POP POP PUSH1 0x40 MLOAD RETURNDATASIZE PUSH1 0x1F NOT PUSH1 0x1F DUP3 ADD AND DUP3 ADD DUP1 PUSH1 0x40 MSTORE POP DUP2 ADD SWAP1 PUSH2 0xF29 SWAP2 SWAP1 PUSH2 0x1761 JUMP JUMPDEST SWAP1 POP DUP3 DUP2 LT ISZERO PUSH2 0xFC0 JUMPI PUSH1 0x6F SLOAD PUSH1 0x1 PUSH1 0x1 PUSH1 0xA0 SHL SUB AND PUSH4 0x40C10F19 ADDRESS PUSH2 0xF4F DUP5 DUP8 PUSH2 0x1800 JUMP JUMPDEST PUSH1 0x40 MLOAD PUSH1 0x1 PUSH1 0x1 PUSH1 0xE0 SHL SUB NOT PUSH1 0xE0 DUP6 SWAP1 SHL AND DUP2 MSTORE PUSH1 0x1 PUSH1 0x1 PUSH1 0xA0 SHL SUB SWAP1 SWAP3 AND PUSH1 0x4 DUP4 ADD MSTORE PUSH1 0x24 DUP3 ADD MSTORE PUSH1 0x44 ADD PUSH1 0x20 PUSH1 0x40 MLOAD DUP1 DUP4 SUB DUP2 PUSH1 0x0 DUP8 GAS CALL ISZERO DUP1 ISZERO PUSH2 0xF9A JUMPI RETURNDATASIZE PUSH1 0x0 DUP1 RETURNDATACOPY RETURNDATASIZE PUSH1 0x0 REVERT JUMPDEST POP POP POP POP PUSH1 0x40 MLOAD RETURNDATASIZE PUSH1 0x1F NOT PUSH1 0x1F DUP3 ADD AND DUP3 ADD DUP1 PUSH1 0x40 MSTORE POP DUP2 ADD SWAP1 PUSH2 0xFBE SWAP2 SWAP1 PUSH2 0x1792 JUMP JUMPDEST POP JUMPDEST PUSH1 0x6F SLOAD PUSH1 0x6D SLOAD PUSH1 0x40 MLOAD PUSH4 0xA9059CBB PUSH1 0xE0 SHL DUP2 MSTORE PUSH1 0x1 PUSH1 0x1 PUSH1 0xA0 SHL SUB SWAP2 DUP3 AND PUSH1 0x4 DUP3 ADD MSTORE PUSH1 0x24 DUP2 ADD DUP8 SWAP1 MSTORE SWAP2 AND SWAP1 PUSH4 0xA9059CBB SWAP1 PUSH1 0x44 ADD PUSH1 0x20 PUSH1 0x40 MLOAD DUP1 DUP4 SUB DUP2 PUSH1 0x0 DUP8 GAS CALL ISZERO DUP1 ISZERO PUSH2 0x1015 JUMPI RETURNDATASIZE PUSH1 0x0 DUP1 RETURNDATACOPY RETURNDATASIZE PUSH1 0x0 REVERT JUMPDEST POP POP POP POP PUSH1 0x40 MLOAD RETURNDATASIZE PUSH1 0x1F NOT PUSH1 0x1F DUP3 ADD AND DUP3 ADD DUP1 PUSH1 0x40 MSTORE POP DUP2 ADD SWAP1 PUSH2 0x1039 SWAP2 SWAP1 PUSH2 0x1792 JUMP JUMPDEST PUSH2 0x1042 JUMPI PUSH1 0x0 DUP1 REVERT JUMPDEST PUSH1 0x6F SLOAD PUSH1 0x72 SLOAD PUSH1 0x40 MLOAD PUSH4 0xA9059CBB PUSH1 0xE0 SHL DUP2 MSTORE PUSH1 0x1 PUSH1 0x1 PUSH1 0xA0 SHL SUB SWAP2 DUP3 AND PUSH1 0x4 DUP3 ADD MSTORE PUSH1 0x24 DUP2 ADD DUP9 SWAP1 MSTORE SWAP2 AND SWAP1 PUSH4 0xA9059CBB SWAP1 PUSH1 0x44 ADD PUSH1 0x20 PUSH1 0x40 MLOAD DUP1 DUP4 SUB DUP2 PUSH1 0x0 DUP8 GAS CALL ISZERO DUP1 ISZERO PUSH2 0x1097 JUMPI RETURNDATASIZE PUSH1 0x0 DUP1 RETURNDATACOPY RETURNDATASIZE PUSH1 0x0 REVERT JUMPDEST POP POP POP POP PUSH1 0x40 MLOAD RETURNDATASIZE PUSH1 0x1F NOT PUSH1 0x1F DUP3 ADD AND DUP3 ADD DUP1 PUSH1 0x40 MSTORE POP DUP2 ADD SWAP1 PUSH2 0x10BB SWAP2 SWAP1 PUSH2 0x1792 JUMP JUMPDEST PUSH2 0x10C4 JUMPI PUSH1 0x0 DUP1 REVERT JUMPDEST PUSH1 0x72 PUSH1 0x0 SWAP1 SLOAD SWAP1 PUSH2 0x100 EXP SWAP1 DIV PUSH1 0x1 PUSH1 0x1 PUSH1 0xA0 SHL SUB AND PUSH1 0x1 PUSH1 0x1 PUSH1 0xA0 SHL SUB AND PUSH4 0x811A40FE PUSH1 0x40 MLOAD DUP2 PUSH4 0xFFFFFFFF AND PUSH1 0xE0 SHL DUP2 MSTORE PUSH1 0x4 ADD PUSH1 0x0 PUSH1 0x40 MLOAD DUP1 DUP4 SUB DUP2 PUSH1 0x0 DUP8 DUP1 EXTCODESIZE ISZERO DUP1 ISZERO PUSH2 0x1114 JUMPI PUSH1 0x0 DUP1 REVERT JUMPDEST POP GAS CALL ISZERO DUP1 ISZERO PUSH2 0x1128 JUMPI RETURNDATASIZE PUSH1 0x0 DUP1 RETURNDATACOPY RETURNDATASIZE PUSH1 0x0 REVERT JUMPDEST POP POP POP POP PUSH1 0x72 PUSH1 0x0 SWAP1 SLOAD SWAP1 PUSH2 0x100 EXP SWAP1 DIV PUSH1 0x1 PUSH1 0x1 PUSH1 0xA0 SHL SUB AND PUSH1 0x1 PUSH1 0x1 PUSH1 0xA0 SHL SUB AND PUSH4 0xB21ED502 PUSH1 0x40 MLOAD DUP2 PUSH4 0xFFFFFFFF AND PUSH1 0xE0 SHL DUP2 MSTORE PUSH1 0x4 ADD PUSH1 0x0 PUSH1 0x40 MLOAD DUP1 DUP4 SUB DUP2 PUSH1 0x0 DUP8 DUP1 EXTCODESIZE ISZERO DUP1 ISZERO PUSH2 0x117C JUMPI PUSH1 0x0 DUP1 REVERT JUMPDEST POP GAS CALL ISZERO DUP1 ISZERO PUSH2 0x1190 JUMPI RETURNDATASIZE PUSH1 0x0 DUP1 RETURNDATACOPY RETURNDATASIZE PUSH1 0x0 REVERT JUMPDEST POP POP PUSH1 0x6F SLOAD PUSH1 0x70 SLOAD PUSH1 0x40 MLOAD PUSH4 0x95EA7B3 PUSH1 0xE0 SHL DUP2 MSTORE PUSH1 0x1 PUSH1 0x1 PUSH1 0xA0 SHL SUB SWAP2 DUP3 AND PUSH1 0x4 DUP3 ADD MSTORE PUSH1 0x24 DUP2 ADD DUP8 SWAP1 MSTORE SWAP2 AND SWAP3 POP PUSH4 0x95EA7B3 SWAP2 POP PUSH1 0x44 ADD PUSH1 0x20 PUSH1 0x40 MLOAD DUP1 DUP4 SUB DUP2 PUSH1 0x0 DUP8 GAS CALL ISZERO DUP1 ISZERO PUSH2 0x11E9 JUMPI RETURNDATASIZE PUSH1 0x0 DUP1 RETURNDATACOPY RETURNDATASIZE PUSH1 0x0 REVERT JUMPDEST POP POP POP POP PUSH1 0x40 MLOAD RETURNDATASIZE PUSH1 0x1F NOT PUSH1 0x1F DUP3 ADD AND DUP3 ADD DUP1 PUSH1 0x40 MSTORE POP DUP2 ADD SWAP1 PUSH2 0x120D SWAP2 SWAP1 PUSH2 0x1792 JUMP JUMPDEST POP PUSH1 0x70 SLOAD PUSH1 0x40 MLOAD PUSH4 0x3C6B16AB PUSH1 0xE0 SHL DUP2 MSTORE PUSH1 0x4 DUP2 ADD DUP5 SWAP1 MSTORE PUSH1 0x1 PUSH1 0x1 PUSH1 0xA0 SHL SUB SWAP1 SWAP2 AND SWAP1 PUSH4 0x3C6B16AB SWAP1 PUSH1 0x24 ADD PUSH1 0x0 PUSH1 0x40 MLOAD DUP1 DUP4 SUB DUP2 PUSH1 0x0 DUP8 DUP1 EXTCODESIZE ISZERO DUP1 ISZERO PUSH2 0x1254 JUMPI PUSH1 0x0 DUP1 REVERT JUMPDEST POP GAS CALL ISZERO DUP1 ISZERO PUSH2 0x1268 JUMPI RETURNDATASIZE PUSH1 0x0 DUP1 RETURNDATACOPY RETURNDATASIZE PUSH1 0x0 REVERT JUMPDEST POP POP POP POP CALLER PUSH1 0x1 PUSH1 0x1 PUSH1 0xA0 SHL SUB AND PUSH32 0xB4C03061FB5B7FED76389D5AF8F2E0DDB09F8C70D1333ABBB62582835E10ACCB PUSH1 0x6A SLOAD PUSH2 0x12A2 PUSH2 0xD01 JUMP JUMPDEST PUSH2 0x12AA PUSH2 0x4B0 JUMP JUMPDEST PUSH1 0x40 DUP1 MLOAD SWAP4 DUP5 MSTORE PUSH1 0x20 DUP5 ADD SWAP3 SWAP1 SWAP3 MSTORE SWAP1 DUP3 ADD MSTORE PUSH1 0x60 ADD PUSH1 0x40 MLOAD DUP1 SWAP2 SUB SWAP1 LOG2 POP POP POP POP POP JUMPDEST SWAP2 SWAP1 POP JUMP JUMPDEST PUSH1 0x0 PUSH3 0x93A80 PUSH2 0x12E3 DUP2 TIMESTAMP PUSH2 0x1718 JUMP JUMPDEST PUSH2 0x4D4 SWAP2 SWAP1 PUSH2 0x16F9 JUMP JUMPDEST PUSH2 0x12F5 PUSH2 0x1366 JUMP JUMPDEST PUSH1 0x1 PUSH1 0x1 PUSH1 0xA0 SHL SUB DUP2 AND PUSH2 0x135A JUMPI PUSH1 0x40 MLOAD PUSH3 0x461BCD PUSH1 0xE5 SHL DUP2 MSTORE PUSH1 0x20 PUSH1 0x4 DUP3 ADD MSTORE PUSH1 0x26 PUSH1 0x24 DUP3 ADD MSTORE PUSH32 0x4F776E61626C653A206E6577206F776E657220697320746865207A65726F2061 PUSH1 0x44 DUP3 ADD MSTORE PUSH6 0x646472657373 PUSH1 0xD0 SHL PUSH1 0x64 DUP3 ADD MSTORE PUSH1 0x84 ADD PUSH2 0x485 JUMP JUMPDEST PUSH2 0x1363 DUP2 PUSH2 0x13C0 JUMP JUMPDEST POP JUMP JUMPDEST PUSH1 0x33 SLOAD PUSH1 0x1 PUSH1 0x1 PUSH1 0xA0 SHL SUB AND CALLER EQ PUSH2 0x6F5 JUMPI PUSH1 0x40 MLOAD PUSH3 0x461BCD PUSH1 0xE5 SHL DUP2 MSTORE PUSH1 0x20 PUSH1 0x4 DUP3 ADD DUP2 SWAP1 MSTORE PUSH1 0x24 DUP3 ADD MSTORE PUSH32 0x4F776E61626C653A2063616C6C6572206973206E6F7420746865206F776E6572 PUSH1 0x44 DUP3 ADD MSTORE PUSH1 0x64 ADD PUSH2 0x485 JUMP JUMPDEST PUSH1 0x33 DUP1 SLOAD PUSH1 0x1 PUSH1 0x1 PUSH1 0xA0 SHL SUB DUP4 DUP2 AND PUSH1 0x1 PUSH1 0x1 PUSH1 0xA0 SHL SUB NOT DUP4 AND DUP2 OR SWAP1 SWAP4 SSTORE PUSH1 0x40 MLOAD SWAP2 AND SWAP2 SWAP1 DUP3 SWAP1 PUSH32 0x8BE0079C531659141344CD1FD0A4F28419497F9722A3DAAFE3B4186F6B6457E0 SWAP1 PUSH1 0x0 SWAP1 LOG3 POP POP JUMP JUMPDEST PUSH1 0x0 SLOAD PUSH2 0x100 SWAP1 DIV PUSH1 0xFF AND PUSH2 0x1439 JUMPI PUSH1 0x40 MLOAD PUSH3 0x461BCD PUSH1 0xE5 SHL DUP2 MSTORE PUSH1 0x4 ADD PUSH2 0x485 SWAP1 PUSH2 0x1817 JUMP JUMPDEST PUSH2 0x6F5 PUSH2 0x145A JUMP JUMPDEST PUSH1 0x0 DUP2 DUP4 LT ISZERO PUSH2 0x1451 JUMPI DUP2 PUSH2 0x1453 JUMP JUMPDEST DUP3 JUMPDEST SWAP4 SWAP3 POP POP POP JUMP JUMPDEST PUSH1 0x0 SLOAD PUSH2 0x100 SWAP1 DIV PUSH1 0xFF AND PUSH2 0x1481 JUMPI PUSH1 0x40 MLOAD PUSH3 0x461BCD PUSH1 0xE5 SHL DUP2 MSTORE PUSH1 0x4 ADD PUSH2 0x485 SWAP1 PUSH2 0x1817 JUMP JUMPDEST PUSH2 0x6F5 CALLER PUSH2 0x13C0 JUMP JUMPDEST PUSH1 0x1 PUSH1 0x1 PUSH1 0xA0 SHL SUB DUP2 AND DUP2 EQ PUSH2 0x1363 JUMPI PUSH1 0x0 DUP1 REVERT JUMPDEST PUSH1 0x0 PUSH1 0x20 DUP3 DUP5 SUB SLT ISZERO PUSH2 0x14B1 JUMPI PUSH1 0x0 DUP1 REVERT JUMPDEST DUP2 CALLDATALOAD PUSH2 0x1453 DUP2 PUSH2 0x148A JUMP JUMPDEST PUSH1 0x0 PUSH1 0x20 DUP3 DUP5 SUB SLT ISZERO PUSH2 0x14CE JUMPI PUSH1 0x0 DUP1 REVERT JUMPDEST POP CALLDATALOAD SWAP2 SWAP1 POP JUMP JUMPDEST PUSH4 0x4E487B71 PUSH1 0xE0 SHL PUSH1 0x0 MSTORE PUSH1 0x41 PUSH1 0x4 MSTORE PUSH1 0x24 PUSH1 0x0 REVERT JUMPDEST PUSH1 0x40 MLOAD PUSH1 0x1F DUP3 ADD PUSH1 0x1F NOT AND DUP2 ADD PUSH8 0xFFFFFFFFFFFFFFFF DUP2 GT DUP3 DUP3 LT OR ISZERO PUSH2 0x1514 JUMPI PUSH2 0x1514 PUSH2 0x14D5 JUMP JUMPDEST PUSH1 0x40 MSTORE SWAP2 SWAP1 POP JUMP JUMPDEST PUSH1 0x0 PUSH8 0xFFFFFFFFFFFFFFFF DUP3 GT ISZERO PUSH2 0x1536 JUMPI PUSH2 0x1536 PUSH2 0x14D5 JUMP JUMPDEST POP PUSH1 0x5 SHL PUSH1 0x20 ADD SWAP1 JUMP JUMPDEST PUSH1 0x0 DUP3 PUSH1 0x1F DUP4 ADD SLT PUSH2 0x1551 JUMPI PUSH1 0x0 DUP1 REVERT JUMPDEST DUP2 CALLDATALOAD PUSH1 0x20 PUSH2 0x1566 PUSH2 0x1561 DUP4 PUSH2 0x151C JUMP JUMPDEST PUSH2 0x14EB JUMP JUMPDEST DUP3 DUP2 MSTORE PUSH1 0x5 SWAP3 SWAP1 SWAP3 SHL DUP5 ADD DUP2 ADD SWAP2 DUP2 DUP2 ADD SWAP1 DUP7 DUP5 GT ISZERO PUSH2 0x1585 JUMPI PUSH1 0x0 DUP1 REVERT JUMPDEST DUP3 DUP7 ADD JUMPDEST DUP5 DUP2 LT ISZERO PUSH2 0x15A0 JUMPI DUP1 CALLDATALOAD DUP4 MSTORE SWAP2 DUP4 ADD SWAP2 DUP4 ADD PUSH2 0x1589 JUMP JUMPDEST POP SWAP7 SWAP6 POP POP POP POP POP POP JUMP JUMPDEST PUSH1 0x0 DUP1 PUSH1 0x0 PUSH1 0x60 DUP5 DUP7 SUB SLT ISZERO PUSH2 0x15C0 JUMPI PUSH1 0x0 DUP1 REVERT JUMPDEST DUP4 CALLDATALOAD PUSH8 0xFFFFFFFFFFFFFFFF DUP1 DUP3 GT ISZERO PUSH2 0x15D8 JUMPI PUSH1 0x0 DUP1 REVERT JUMPDEST DUP2 DUP7 ADD SWAP2 POP DUP7 PUSH1 0x1F DUP4 ADD SLT PUSH2 0x15EC JUMPI PUSH1 0x0 DUP1 REVERT JUMPDEST DUP2 CALLDATALOAD PUSH1 0x20 PUSH2 0x15FC PUSH2 0x1561 DUP4 PUSH2 0x151C JUMP JUMPDEST DUP3 DUP2 MSTORE PUSH1 0x5 SWAP3 SWAP1 SWAP3 SHL DUP5 ADD DUP2 ADD SWAP2 DUP2 DUP2 ADD SWAP1 DUP11 DUP5 GT ISZERO PUSH2 0x161B JUMPI PUSH1 0x0 DUP1 REVERT JUMPDEST SWAP5 DUP3 ADD SWAP5 JUMPDEST DUP4 DUP7 LT ISZERO PUSH2 0x1642 JUMPI DUP6 CALLDATALOAD PUSH2 0x1633 DUP2 PUSH2 0x148A JUMP JUMPDEST DUP3 MSTORE SWAP5 DUP3 ADD SWAP5 SWAP1 DUP3 ADD SWAP1 PUSH2 0x1620 JUMP JUMPDEST SWAP8 POP POP DUP8 ADD CALLDATALOAD SWAP3 POP POP DUP1 DUP3 GT ISZERO PUSH2 0x1658 JUMPI PUSH1 0x0 DUP1 REVERT JUMPDEST POP PUSH2 0x1665 DUP7 DUP3 DUP8 ADD PUSH2 0x1540 JUMP JUMPDEST SWAP3 POP POP PUSH1 0x40 DUP5 ADD CALLDATALOAD SWAP1 POP SWAP3 POP SWAP3 POP SWAP3 JUMP JUMPDEST PUSH1 0x0 DUP1 PUSH1 0x0 PUSH1 0x60 DUP5 DUP7 SUB SLT ISZERO PUSH2 0x168B JUMPI PUSH1 0x0 DUP1 REVERT JUMPDEST DUP4 CALLDATALOAD PUSH2 0x1696 DUP2 PUSH2 0x148A JUMP JUMPDEST SWAP3 POP PUSH1 0x20 DUP5 ADD CALLDATALOAD PUSH2 0x16A6 DUP2 PUSH2 0x148A JUMP JUMPDEST SWAP2 POP PUSH1 0x40 DUP5 ADD CALLDATALOAD PUSH2 0x16B6 DUP2 PUSH2 0x148A JUMP JUMPDEST DUP1 SWAP2 POP POP SWAP3 POP SWAP3 POP SWAP3 JUMP JUMPDEST PUSH1 0x20 DUP1 DUP3 MSTORE PUSH1 0x8 SWAP1 DUP3 ADD MSTORE PUSH8 0x6E6F74207465616D PUSH1 0xC0 SHL PUSH1 0x40 DUP3 ADD MSTORE PUSH1 0x60 ADD SWAP1 JUMP JUMPDEST PUSH4 0x4E487B71 PUSH1 0xE0 SHL PUSH1 0x0 MSTORE PUSH1 0x11 PUSH1 0x4 MSTORE PUSH1 0x24 PUSH1 0x0 REVERT JUMPDEST PUSH1 0x0 DUP2 PUSH1 0x0 NOT DIV DUP4 GT DUP3 ISZERO ISZERO AND ISZERO PUSH2 0x1713 JUMPI PUSH2 0x1713 PUSH2 0x16E3 JUMP JUMPDEST POP MUL SWAP1 JUMP JUMPDEST PUSH1 0x0 DUP3 PUSH2 0x1735 JUMPI PUSH4 0x4E487B71 PUSH1 0xE0 SHL PUSH1 0x0 MSTORE PUSH1 0x12 PUSH1 0x4 MSTORE PUSH1 0x24 PUSH1 0x0 REVERT JUMPDEST POP DIV SWAP1 JUMP JUMPDEST PUSH1 0x20 DUP1 DUP3 MSTORE PUSH1 0xD SWAP1 DUP3 ADD MSTORE PUSH13 0xE4C2E8CA40E8DEDE40D0D2CED PUSH1 0x9B SHL PUSH1 0x40 DUP3 ADD MSTORE PUSH1 0x60 ADD SWAP1 JUMP JUMPDEST PUSH1 0x0 PUSH1 0x20 DUP3 DUP5 SUB SLT ISZERO PUSH2 0x1773 JUMPI PUSH1 0x0 DUP1 REVERT JUMPDEST POP MLOAD SWAP2 SWAP1 POP JUMP JUMPDEST PUSH1 0x0 DUP3 NOT DUP3 GT ISZERO PUSH2 0x178D JUMPI PUSH2 0x178D PUSH2 0x16E3 JUMP JUMPDEST POP ADD SWAP1 JUMP JUMPDEST PUSH1 0x0 PUSH1 0x20 DUP3 DUP5 SUB SLT ISZERO PUSH2 0x17A4 JUMPI PUSH1 0x0 DUP1 REVERT JUMPDEST DUP2 MLOAD DUP1 ISZERO ISZERO DUP2 EQ PUSH2 0x1453 JUMPI PUSH1 0x0 DUP1 REVERT JUMPDEST PUSH4 0x4E487B71 PUSH1 0xE0 SHL PUSH1 0x0 MSTORE PUSH1 0x32 PUSH1 0x4 MSTORE PUSH1 0x24 PUSH1 0x0 REVERT JUMPDEST PUSH1 0x0 PUSH1 0x1 DUP3 ADD PUSH2 0x17DC JUMPI PUSH2 0x17DC PUSH2 0x16E3 JUMP JUMPDEST POP PUSH1 0x1 ADD SWAP1 JUMP JUMPDEST PUSH1 0x0 PUSH1 0x20 DUP3 DUP5 SUB SLT ISZERO PUSH2 0x17F5 JUMPI PUSH1 0x0 DUP1 REVERT JUMPDEST DUP2 MLOAD PUSH2 0x1453 DUP2 PUSH2 0x148A JUMP JUMPDEST PUSH1 0x0 DUP3 DUP3 LT ISZERO PUSH2 0x1812 JUMPI PUSH2 0x1812 PUSH2 0x16E3 JUMP JUMPDEST POP SUB SWAP1 JUMP JUMPDEST PUSH1 0x20 DUP1 DUP3 MSTORE PUSH1 0x2B SWAP1 DUP3 ADD MSTORE PUSH32 0x496E697469616C697A61626C653A20636F6E7472616374206973206E6F742069 PUSH1 0x40 DUP3 ADD MSTORE PUSH11 0x6E697469616C697A696E67 PUSH1 0xA8 SHL PUSH1 0x60 DUP3 ADD MSTORE PUSH1 0x80 ADD SWAP1 JUMP INVALID LOG2 PUSH5 0x6970667358 0x22 SLT KECCAK256 PUSH32 0x712A35744613FCFE093B26AFA24306BBAB87C49CDB138EC6912E6CD430C04A64 PUSH20 0x6F6C634300080D00330000000000000000000000 "},"methodIdentifiers":{"EMISSION()":"a18cb956","LOCK()":"a4f0d7d0","MAX_TEAM_RATE()":"01c8e6fd","PRECISION()":"aaf5eb68","REBASEMAX()":"e6684de8","TAIL_EMISSION()":"a2e23a51","WEEK()":"f4359ce5","_initialize(address[],uint256[],uint256)":"952c820a","_rewards_distributor()":"4b1cd5da","_thena()":"e536da95","_ve()":"8dd598fb","_voter()":"3db9b42a","acceptTeam()":"b5cc143a","active_period()":"d1399608","calculate_emission()":"36d96faf","calculate_rebate(uint256)":"70677e6a","check()":"919840ad","circulating_emission()":"1eebae80","circulating_supply()":"e038c75a","initialize(address,address,address)":"c0c53b8b","isFirstMint()":"a9abf7ec","owner()":"8da5cb5b","pendingTeam()":"59d46ffc","period()":"ef78d4fd","renounceOwnership()":"715018a6","setEmission(uint256)":"ddce102f","setRebase(uint256)":"de3e3492","setRewardDistributor(address)":"a1809b95","setTeam(address)":"095cf5c6","setTeamRate(uint256)":"2e8f7b1f","setVoter(address)":"4bc2a657","team()":"85f2aef2","teamRate()":"78ef7f02","transferOwnership(address)":"f2fde38b","update_period()":"ed29fc11","weekly()":"26cfc17b","weekly_emission()":"cfc6c8ff"}},"storageLayout":{"storage":[{"astId":138,"contract":"contracts/MinterUpgradeable.sol:MinterUpgradeable","label":"_initialized","offset":0,"slot":"0","type":"t_uint8"},{"astId":141,"contract":"contracts/MinterUpgradeable.sol:MinterUpgradeable","label":"_initializing","offset":1,"slot":"0","type":"t_bool"},{"astId":625,"contract":"contracts/MinterUpgradeable.sol:MinterUpgradeable","label":"__gap","offset":0,"slot":"1","type":"t_array(t_uint256)50_storage"},{"astId":10,"contract":"contracts/MinterUpgradeable.sol:MinterUpgradeable","label":"_owner","offset":0,"slot":"51","type":"t_address"},{"astId":130,"contract":"contracts/MinterUpgradeable.sol:MinterUpgradeable","label":"__gap","offset":0,"slot":"52","type":"t_array(t_uint256)49_storage"},{"astId":641,"contract":"contracts/MinterUpgradeable.sol:MinterUpgradeable","label":"isFirstMint","offset":0,"slot":"101","type":"t_bool"},{"astId":643,"contract":"contracts/MinterUpgradeable.sol:MinterUpgradeable","label":"EMISSION","offset":0,"slot":"102","type":"t_uint256"},{"astId":645,"contract":"contracts/MinterUpgradeable.sol:MinterUpgradeable","label":"TAIL_EMISSION","offset":0,"slot":"103","type":"t_uint256"},{"astId":647,"contract":"contracts/MinterUpgradeable.sol:MinterUpgradeable","label":"REBASEMAX","offset":0,"slot":"104","type":"t_uint256"},{"astId":652,"contract":"contracts/MinterUpgradeable.sol:MinterUpgradeable","label":"teamRate","offset":0,"slot":"105","type":"t_uint256"},{"astId":662,"contract":"contracts/MinterUpgradeable.sol:MinterUpgradeable","label":"weekly","offset":0,"slot":"106","type":"t_uint256"},{"astId":664,"contract":"contracts/MinterUpgradeable.sol:MinterUpgradeable","label":"active_period","offset":0,"slot":"107","type":"t_uint256"},{"astId":675,"contract":"contracts/MinterUpgradeable.sol:MinterUpgradeable","label":"_initializer","offset":0,"slot":"108","type":"t_address"},{"astId":677,"contract":"contracts/MinterUpgradeable.sol:MinterUpgradeable","label":"team","offset":0,"slot":"109","type":"t_address"},{"astId":679,"contract":"contracts/MinterUpgradeable.sol:MinterUpgradeable","label":"pendingTeam","offset":0,"slot":"110","type":"t_address"},{"astId":682,"contract":"contracts/MinterUpgradeable.sol:MinterUpgradeable","label":"_thena","offset":0,"slot":"111","type":"t_contract(IThena)5760"},{"astId":685,"contract":"contracts/MinterUpgradeable.sol:MinterUpgradeable","label":"_voter","offset":0,"slot":"112","type":"t_contract(IVoter)5906"},{"astId":688,"contract":"contracts/MinterUpgradeable.sol:MinterUpgradeable","label":"_ve","offset":0,"slot":"113","type":"t_contract(IVotingEscrow)6089"},{"astId":691,"contract":"contracts/MinterUpgradeable.sol:MinterUpgradeable","label":"_rewards_distributor","offset":0,"slot":"114","type":"t_contract(IRewardsDistributor)5702"}],"types":{"t_address":{"encoding":"inplace","label":"address","numberOfBytes":"20"},"t_array(t_uint256)49_storage":{"base":"t_uint256","encoding":"inplace","label":"uint256[49]","numberOfBytes":"1568"},"t_array(t_uint256)50_storage":{"base":"t_uint256","encoding":"inplace","label":"uint256[50]","numberOfBytes":"1600"},"t_bool":{"encoding":"inplace","label":"bool","numberOfBytes":"1"},"t_contract(IRewardsDistributor)5702":{"encoding":"inplace","label":"contract IRewardsDistributor","numberOfBytes":"20"},"t_contract(IThena)5760":{"encoding":"inplace","label":"contract IThena","numberOfBytes":"20"},"t_contract(IVoter)5906":{"encoding":"inplace","label":"contract IVoter","numberOfBytes":"20"},"t_contract(IVotingEscrow)6089":{"encoding":"inplace","label":"contract IVotingEscrow","numberOfBytes":"20"},"t_uint256":{"encoding":"inplace","label":"uint256","numberOfBytes":"32"},"t_uint8":{"encoding":"inplace","label":"uint8","numberOfBytes":"1"}}}}}}