{"contracts/factories/PairFactory.sol":{"PairFactory":{"abi":[{"inputs":[],"stateMutability":"nonpayable","type":"constructor"},{"anonymous":false,"inputs":[{"indexed":true,"internalType":"address","name":"token0","type":"address"},{"indexed":true,"internalType":"address","name":"token1","type":"address"},{"indexed":false,"internalType":"bool","name":"stable","type":"bool"},{"indexed":false,"internalType":"address","name":"pair","type":"address"},{"indexed":false,"internalType":"uint256","name":"","type":"uint256"}],"name":"PairCreated","type":"event"},{"inputs":[],"name":"MAX_FEE","outputs":[{"internalType":"uint256","name":"","type":"uint256"}],"stateMutability":"view","type":"function"},{"inputs":[],"name":"MAX_REFERRAL_FEE","outputs":[{"internalType":"uint256","name":"","type":"uint256"}],"stateMutability":"view","type":"function"},{"inputs":[],"name":"acceptFeeManager","outputs":[],"stateMutability":"nonpayable","type":"function"},{"inputs":[],"name":"acceptPauser","outputs":[],"stateMutability":"nonpayable","type":"function"},{"inputs":[{"internalType":"uint256","name":"","type":"uint256"}],"name":"allPairs","outputs":[{"internalType":"address","name":"","type":"address"}],"stateMutability":"view","type":"function"},{"inputs":[],"name":"allPairsLength","outputs":[{"internalType":"uint256","name":"","type":"uint256"}],"stateMutability":"view","type":"function"},{"inputs":[{"internalType":"address","name":"tokenA","type":"address"},{"internalType":"address","name":"tokenB","type":"address"},{"internalType":"bool","name":"stable","type":"bool"}],"name":"createPair","outputs":[{"internalType":"address","name":"pair","type":"address"}],"stateMutability":"nonpayable","type":"function"},{"inputs":[],"name":"dibs","outputs":[{"internalType":"address","name":"","type":"address"}],"stateMutability":"view","type":"function"},{"inputs":[],"name":"feeManager","outputs":[{"internalType":"address","name":"","type":"address"}],"stateMutability":"view","type":"function"},{"inputs":[{"internalType":"bool","name":"_stable","type":"bool"}],"name":"getFee","outputs":[{"internalType":"uint256","name":"","type":"uint256"}],"stateMutability":"view","type":"function"},{"inputs":[],"name":"getInitializable","outputs":[{"internalType":"address","name":"","type":"address"},{"internalType":"address","name":"","type":"address"},{"internalType":"bool","name":"","type":"bool"}],"stateMutability":"view","type":"function"},{"inputs":[{"internalType":"address","name":"","type":"address"},{"internalType":"address","name":"","type":"address"},{"internalType":"bool","name":"","type":"bool"}],"name":"getPair","outputs":[{"internalType":"address","name":"","type":"address"}],"stateMutability":"view","type":"function"},{"inputs":[{"internalType":"address","name":"","type":"address"}],"name":"isPair","outputs":[{"internalType":"bool","name":"","type":"bool"}],"stateMutability":"view","type":"function"},{"inputs":[],"name":"isPaused","outputs":[{"internalType":"bool","name":"","type":"bool"}],"stateMutability":"view","type":"function"},{"inputs":[],"name":"pairCodeHash","outputs":[{"internalType":"bytes32","name":"","type":"bytes32"}],"stateMutability":"pure","type":"function"},{"inputs":[],"name":"pairs","outputs":[{"internalType":"address[]","name":"","type":"address[]"}],"stateMutability":"view","type":"function"},{"inputs":[],"name":"pauser","outputs":[{"internalType":"address","name":"","type":"address"}],"stateMutability":"view","type":"function"},{"inputs":[],"name":"pendingFeeManager","outputs":[{"internalType":"address","name":"","type":"address"}],"stateMutability":"view","type":"function"},{"inputs":[],"name":"pendingPauser","outputs":[{"internalType":"address","name":"","type":"address"}],"stateMutability":"view","type":"function"},{"inputs":[{"internalType":"address","name":"_dibs","type":"address"}],"name":"setDibs","outputs":[],"stateMutability":"nonpayable","type":"function"},{"inputs":[{"internalType":"bool","name":"_stable","type":"bool"},{"internalType":"uint256","name":"_fee","type":"uint256"}],"name":"setFee","outputs":[],"stateMutability":"nonpayable","type":"function"},{"inputs":[{"internalType":"address","name":"_feeManager","type":"address"}],"name":"setFeeManager","outputs":[],"stateMutability":"nonpayable","type":"function"},{"inputs":[{"internalType":"bool","name":"_state","type":"bool"}],"name":"setPause","outputs":[],"stateMutability":"nonpayable","type":"function"},{"inputs":[{"internalType":"address","name":"_pauser","type":"address"}],"name":"setPauser","outputs":[],"stateMutability":"nonpayable","type":"function"},{"inputs":[{"internalType":"uint256","name":"_refFee","type":"uint256"}],"name":"setReferralFee","outputs":[],"stateMutability":"nonpayable","type":"function"},{"inputs":[{"internalType":"address","name":"_feehandler","type":"address"}],"name":"setStakingFeeAddress","outputs":[],"stateMutability":"nonpayable","type":"function"},{"inputs":[{"internalType":"uint256","name":"_newFee","type":"uint256"}],"name":"setStakingFees","outputs":[],"stateMutability":"nonpayable","type":"function"},{"inputs":[],"name":"stableFee","outputs":[{"internalType":"uint256","name":"","type":"uint256"}],"stateMutability":"view","type":"function"},{"inputs":[],"name":"stakingFeeHandler","outputs":[{"internalType":"address","name":"","type":"address"}],"stateMutability":"view","type":"function"},{"inputs":[],"name":"stakingNFTFee","outputs":[{"internalType":"uint256","name":"","type":"uint256"}],"stateMutability":"view","type":"function"},{"inputs":[],"name":"volatileFee","outputs":[{"internalType":"uint256","name":"","type":"uint256"}],"stateMutability":"view","type":"function"}],"evm":{"bytecode":{"linkReferences":{},"object":"60806040526104b060055534801561001657600080fd5b50600080546001600160a81b03191633610100810260ff1916919091178255600680546001600160a01b0319169091179055600460028190556012600355610bb89055615e9490819061006990396000f3fe60806040523480156200001157600080fd5b50600436106200020d5760003560e01c806382dfdce41162000125578063bedb86fb11620000af578063e5e31b13116200007a578063e5e31b131462000464578063eb13c4cf146200048a578063f94c53c714620004c3578063ffb0a4a014620004cd57600080fd5b8063bedb86fb146200040e578063c124a4a21462000425578063d0fb02031462000439578063e1f76b44146200044d57600080fd5b80639aab924811620000f05780639aab924814620003c35780639fd0506d14620003cd578063b187bd2614620003e6578063bc063e1a146200040557600080fd5b806382dfdce4146200037a5780638a4fa0d21462000391578063956f94a114620003a55780639a7165e414620003af57600080fd5b8063472d35b911620001a7578063574f2ba31162000172578063574f2ba314620003095780636801cc301462000312578063713494d7146200034f5780637be1623e146200036657600080fd5b8063472d35b914620002ba578063482a8d0714620002d15780635084ed0314620002e8578063512b45ea14620002f257600080fd5b80631e61079c11620001e85780631e61079c14620002695780632d88af4a14620002825780634091cb77146200029957806340bbd77514620002b057600080fd5b80630c74db121462000212578063167a6f90146200022b5780631e3dd18b1462000235575b600080fd5b620002296200022336600462000cc8565b620004e6565b005b6200022962000585565b6200024c6200024636600462000ced565b620005c8565b6040516001600160a01b0390911681526020015b60405180910390f35b6200027360055481565b60405190815260200162000260565b620002296200029336600462000cc8565b620005f3565b62000229620002aa36600462000cc8565b62000632565b6200027360025481565b62000229620002cb36600462000cc8565b620006c2565b62000229620002e236600462000ced565b62000711565b6200027360035481565b620002736200030336600462000d18565b62000753565b600b5462000273565b6200024c6200032336600462000d36565b600a6020908152600093845260408085208252928452828420905282529020546001600160a01b031681565b620002296200036036600462000ced565b6200076e565b6008546200024c906001600160a01b031681565b6200024c6200038b36600462000d36565b620007a0565b6007546200024c906001600160a01b031681565b6200027360045481565b6001546200024c906001600160a01b031681565b6200027362000a8b565b6000546200024c9061010090046001600160a01b031681565b600054620003f49060ff1681565b604051901515815260200162000260565b62000273601981565b620002296200041f36600462000d18565b62000abf565b6009546200024c906001600160a01b031681565b6006546200024c906001600160a01b031681565b620002296200045e36600462000d80565b62000aef565b620003f46200047536600462000cc8565b600c6020526000908152604090205460ff1681565b600d54600e54604080516001600160a01b0393841681529282166020840152600160a01b90910460ff1615159082015260600162000260565b6200022962000bb9565b620004d762000c39565b60405162000260919062000dad565b6006546001600160a01b031633146200051c5760405162461bcd60e51b8152600401620005139062000dfc565b60405180910390fd5b6001600160a01b038116620005635760405162461bcd60e51b815260206004820152600c60248201526b61646472657373207a65726f60a01b604482015260640162000513565b600880546001600160a01b0319166001600160a01b0392909216919091179055565b6001546001600160a01b031633146200059d57600080fd5b600154600080546001600160a01b0390921661010002610100600160a81b0319909216919091179055565b600b8181548110620005d957600080fd5b6000918252602090912001546001600160a01b0316905081565b60005461010090046001600160a01b031633146200061057600080fd5b600180546001600160a01b0319166001600160a01b0392909216919091179055565b6006546001600160a01b031633146200065f5760405162461bcd60e51b8152600401620005139062000dfc565b6001600160a01b038116620006a05760405162461bcd60e51b815260206004820152600660248201526506164647220360d41b604482015260640162000513565b600980546001600160a01b0319166001600160a01b0392909216919091179055565b6006546001600160a01b03163314620006ef5760405162461bcd60e51b8152600401620005139062000dfc565b600780546001600160a01b0319166001600160a01b0392909216919091179055565b6006546001600160a01b031633146200073e5760405162461bcd60e51b8152600401620005139062000dfc565b610bb88111156200074e57600080fd5b600455565b600081620007645760035462000768565b6002545b92915050565b6006546001600160a01b031633146200079b5760405162461bcd60e51b8152600401620005139062000dfc565b600555565b6000826001600160a01b0316846001600160a01b031603620007ea5760405162461bcd60e51b8152602060048201526002602482015261494160f01b604482015260640162000513565b600080846001600160a01b0316866001600160a01b0316106200080f57848662000812565b85855b90925090506001600160a01b038216620008545760405162461bcd60e51b81526020600482015260026024820152615a4160f01b604482015260640162000513565b6001600160a01b038281166000908152600a602090815260408083208585168452825280832088151584529091529020541615620008ba5760405162461bcd60e51b8152602060048201526002602482015261504560f01b604482015260640162000513565b6040516bffffffffffffffffffffffff19606084811b8216602084015283901b16603482015284151560f81b604882015260009060490160408051601f19818403018152908290528051602090910120600e80546001600160a01b038087166001600160a01b03198b1515600160a01b0281166001600160a81b03199094169390931717909255600d80549288169290911691909117905591508190620009619062000c9d565b8190604051809103906000f590508015801562000982573d6000803e3d6000fd5b506001600160a01b038481166000818152600a602081815260408084208987168086529083528185208d15158087529084528286208054988a166001600160a01b0319998a168117909155828752948452828620878752845282862081875284528286208054891686179055600b8054600181810183557f0175b7a638427703f0dbe7bb9bbf987a2551717b34e79f33b5b1008d1fa01db99091018054909a168717909955858752600c855295839020805460ff1916909817909755935481519687529186019290925290840152929650907fc4805696c66d7cf352fc1d6bb633ad5ee82f6cb577c453024b6e0eb8306c6fc99060600160405180910390a35050509392505050565b60006040518060200162000a9f9062000c9d565b6020820181038252601f19601f8201166040525080519060200120905090565b60005461010090046001600160a01b0316331462000adc57600080fd5b6000805460ff1916911515919091179055565b6006546001600160a01b0316331462000b1c5760405162461bcd60e51b8152600401620005139062000dfc565b601981111562000b5e5760405162461bcd60e51b815260206004820152600c60248201526b0cccaca40e8dede40d0d2ced60a31b604482015260640162000513565b8060000362000ba65760405162461bcd60e51b8152602060048201526013602482015272666565206d757374206265206e6f6e7a65726f60681b604482015260640162000513565b811562000bb35760025550565b60035550565b6007546001600160a01b0316331462000c155760405162461bcd60e51b815260206004820152601760248201527f6e6f742070656e64696e6720666565206d616e61676572000000000000000000604482015260640162000513565b600754600680546001600160a01b0319166001600160a01b03909216919091179055565b6060600b80548060200260200160405190810160405280929190818152602001828054801562000c9357602002820191906000526020600020905b81546001600160a01b0316815260019091019060200180831162000c74575b5050505050905090565b6150398062000e2683390190565b80356001600160a01b038116811462000cc357600080fd5b919050565b60006020828403121562000cdb57600080fd5b62000ce68262000cab565b9392505050565b60006020828403121562000d0057600080fd5b5035919050565b8035801515811462000cc357600080fd5b60006020828403121562000d2b57600080fd5b62000ce68262000d07565b60008060006060848603121562000d4c57600080fd5b62000d578462000cab565b925062000d676020850162000cab565b915062000d776040850162000d07565b90509250925092565b6000806040838503121562000d9457600080fd5b62000d9f8362000d07565b946020939093013593505050565b6020808252825182820181905260009190848201906040850190845b8181101562000df05783516001600160a01b03168352928401929184019160010162000dc9565b50909695505050505050565b6020808252600f908201526e3737ba103332b29036b0b730b3b2b960891b60408201526060019056fe61016060405260006002556000600d556000600e5560016013553480156200002657600080fd5b50336001600160a01b0316610100816001600160a01b0316815250506000806000336001600160a01b031663eb13c4cf6040518163ffffffff1660e01b8152600401606060405180830381865afa15801562000086573d6000803e3d6000fd5b505050506040513d601f19601f82011682018060405250810190620000ac9190620007c8565b8015156080526001600160a01b0380831660c052831660a052604051929550909350915083908390620000df90620006f7565b6001600160a01b03928316815291166020820152604001604051809103906000f08015801562000113573d6000803e3d6000fd5b506001600160a01b031660e05280156200034557826001600160a01b03166395d89b416040518163ffffffff1660e01b8152600401600060405180830381865afa15801562000166573d6000803e3d6000fd5b505050506040513d6000823e601f3d908101601f1916820160405262000190919081019062000863565b826001600160a01b03166395d89b416040518163ffffffff1660e01b8152600401600060405180830381865afa158015620001cf573d6000803e3d6000fd5b505050506040513d6000823e601f3d908101601f19168201604052620001f9919081019062000863565b6040516020016200020c9291906200091b565b604051602081830303815290604052600090805190602001906200023292919062000705565b50826001600160a01b03166395d89b416040518163ffffffff1660e01b8152600401600060405180830381865afa15801562000272573d6000803e3d6000fd5b505050506040513d6000823e601f3d908101601f191682016040526200029c919081019062000863565b826001600160a01b03166395d89b416040518163ffffffff1660e01b8152600401600060405180830381865afa158015620002db573d6000803e3d6000fd5b505050506040513d6000823e601f3d908101601f1916820160405262000305919081019062000863565b6040516020016200031892919062000976565b604051602081830303815290604052600190805190602001906200033e92919062000705565b506200055e565b826001600160a01b03166395d89b416040518163ffffffff1660e01b8152600401600060405180830381865afa15801562000384573d6000803e3d6000fd5b505050506040513d6000823e601f3d908101601f19168201604052620003ae919081019062000863565b826001600160a01b03166395d89b416040518163ffffffff1660e01b8152600401600060405180830381865afa158015620003ed573d6000803e3d6000fd5b505050506040513d6000823e601f3d908101601f1916820160405262000417919081019062000863565b6040516020016200042a929190620009c7565b604051602081830303815290604052600090805190602001906200045092919062000705565b50826001600160a01b03166395d89b416040518163ffffffff1660e01b8152600401600060405180830381865afa15801562000490573d6000803e3d6000fd5b505050506040513d6000823e601f3d908101601f19168201604052620004ba919081019062000863565b826001600160a01b03166395d89b416040518163ffffffff1660e01b8152600401600060405180830381865afa158015620004f9573d6000803e3d6000fd5b505050506040513d6000823e601f3d908101601f1916820160405262000523919081019062000863565b6040516020016200053692919062000a24565b604051602081830303815290604052600190805190602001906200055c92919062000705565b505b826001600160a01b031663313ce5676040518163ffffffff1660e01b8152600401602060405180830381865afa1580156200059d573d6000803e3d6000fd5b505050506040513d601f19601f82011682018060405250810190620005c3919062000a46565b620005d090600a62000b87565b6101208181525050816001600160a01b031663313ce5676040518163ffffffff1660e01b8152600401602060405180830381865afa15801562000617573d6000803e3d6000fd5b505050506040513d601f19601f820116820180604052508101906200063d919062000a46565b6200064a90600a62000b87565b6101405250506040805160608101825242815260006020820181815292820181815260078054600181018255925291517fa66cc928b5edb82af9bd49922954155ab7b0942694bea4ce44661d9a8736c68860039092029182015591517fa66cc928b5edb82af9bd49922954155ab7b0942694bea4ce44661d9a8736c689830155517fa66cc928b5edb82af9bd49922954155ab7b0942694bea4ce44661d9a8736c68a909101555062000bd4565b6105c58062004a7483390190565b828054620007139062000b98565b90600052602060002090601f01602090048101928262000737576000855562000782565b82601f106200075257805160ff191683800117855562000782565b8280016001018555821562000782579182015b828111156200078257825182559160200191906001019062000765565b506200079092915062000794565b5090565b5b8082111562000790576000815560010162000795565b80516001600160a01b0381168114620007c357600080fd5b919050565b600080600060608486031215620007de57600080fd5b620007e984620007ab565b9250620007f960208501620007ab565b9150604084015180151581146200080f57600080fd5b809150509250925092565b634e487b7160e01b600052604160045260246000fd5b60005b838110156200084d57818101518382015260200162000833565b838111156200085d576000848401525b50505050565b6000602082840312156200087657600080fd5b81516001600160401b03808211156200088e57600080fd5b818401915084601f830112620008a357600080fd5b815181811115620008b857620008b86200081a565b604051601f8201601f19908116603f01168101908382118183101715620008e357620008e36200081a565b81604052828152876020848701011115620008fd57600080fd5b6200091083602083016020880162000830565b979650505050505050565b6e029ba30b13632ab189020a6a690169608d1b8152600083516200094781600f85016020880162000830565b602f60f81b600f9184019182015283516200096a81601084016020880162000830565b01601001949350505050565b6473414d4d2d60d81b8152600083516200099881600585016020880162000830565b602f60f81b6005918401918201528351620009bb81600684016020880162000830565b01600601949350505050565b7002b37b630ba34b632ab189020a6a690169607d1b815260008351620009f581601185016020880162000830565b602f60f81b601191840191820152835162000a1881601284016020880162000830565b01601201949350505050565b6476414d4d2d60d81b8152600083516200099881600585016020880162000830565b60006020828403121562000a5957600080fd5b815160ff8116811462000a6b57600080fd5b9392505050565b634e487b7160e01b600052601160045260246000fd5b600181815b8085111562000ac957816000190482111562000aad5762000aad62000a72565b8085161562000abb57918102915b93841c939080029062000a8d565b509250929050565b60008262000ae25750600162000b81565b8162000af15750600062000b81565b816001811462000b0a576002811462000b155762000b35565b600191505062000b81565b60ff84111562000b295762000b2962000a72565b50506001821b62000b81565b5060208310610133831016604e8410600b841016171562000b5a575081810a62000b81565b62000b66838362000a88565b806000190482111562000b7d5762000b7d62000a72565b0290505b92915050565b600062000a6b60ff84168362000ad1565b600181811c9082168062000bad57607f821691505b60208210810362000bce57634e487b7160e01b600052602260045260246000fd5b50919050565b60805160a05160c05160e051610100516101205161014051613cc462000db06000396000818161046901528181612bb701528181612ea101528181612f63015261306e01526000818161044601528181612b7601528181612e6201528181612fa501526130480152600081816107f801528181610c4701528181610d1801528181612064015281816121ad0152818161247b01528181612501015281816125dc015281816127e90152818161286f015261294a01526000818161062a01528181611cba01528181612106015281816126900152818161271a015281816129fe0152612a880152600081816104f30152818161067f0152818161074c0152818161093301528181610bdb0152818161154f0152818161173a01528181611b610152818161230a015281816129110152612a67015260008181610331015281816104cb0152818161065a0152818161091201528181610bba015281816114b90152818161171801528181611b3f01528181612282015281816125a3015281816126f901528181612ee301528181612f2a0152818161300f01526130b20152600081816102e9015281816103cf0152818161049b01528181610c0f01528181610ce00152818161217c01528181612b4e0152612e2e0152613cc46000f3fe608060405234801561001057600080fd5b506004361061028a5760003560e01c80637ecebe001161015c578063bda39cad116100ce578063d505accf11610087578063d505accf14610776578063dd62ed3e14610789578063ebeb31db146107b4578063f083be3b146107bc578063f140a35a146107c4578063fff6cae9146107d757600080fd5b8063bda39cad14610723578063bf944dbc1461072c578063c245febc14610735578063c5700a021461073e578063d21220a714610747578063d294f0931461076e57600080fd5b80639d63848a116101205780639d63848a1461064c5780639e8cc04b146106aa5780639f767c88146106bd578063a1ac4d13146106dd578063a9059cbb146106fd578063bc25cf771461071057600080fd5b80637ecebe00146105ab57806389afcb44146105cb5780638a7b8cf2146105f357806395d89b411461061d5780639af1d35a1461062557600080fd5b806323b872dd116102005780634d5a9f8a116101b95780634d5a9f8a14610529578063517b3f82146105495780635881c4751461055c5780635a76f25e1461056f5780636a6278421461057857806370a082311461058b57600080fd5b806323b872dd146103f1578063252c09d714610404578063313ce5671461041757806332c0defd14610431578063392f37e91461043a578063443cb4bc1461052057600080fd5b80630dfe1681116102525780630dfe16811461032c57806313345fe11461036b57806318160ddd1461038b5780631df8c717146103a2578063205aabf1146103aa57806322be3de1146103ca57600080fd5b8063022c0d9f1461028f57806306fdde03146102a45780630902f1ac146102c257806309047bdd146102e7578063095ea7b314610319575b600080fd5b6102a261029d36600461370f565b6107df565b005b6102ac610f2c565b6040516102b991906137d5565b60405180910390f35b600854600954600a545b604080519384526020840192909252908201526060016102b9565b7f00000000000000000000000000000000000000000000000000000000000000005b60405190151581526020016102b9565b610309610327366004613808565b610fba565b6103537f000000000000000000000000000000000000000000000000000000000000000081565b6040516001600160a01b0390911681526020016102b9565b61037e610379366004613834565b611027565b6040516102b9919061386f565b61039460025481565b6040519081526020016102b9565b6102cc611223565b6103946103b83660046138b3565b60106020526000908152604090205481565b6103097f000000000000000000000000000000000000000000000000000000000000000081565b6103096103ff3660046138d0565b611292565b6102cc610412366004613911565b61135b565b61041f601281565b60405160ff90911681526020016102b9565b610394600d5481565b600854600954604080517f000000000000000000000000000000000000000000000000000000000000000081527f000000000000000000000000000000000000000000000000000000000000000060208201529081019290925260608201527f0000000000000000000000000000000000000000000000000000000000000000151560808201526001600160a01b037f0000000000000000000000000000000000000000000000000000000000000000811660a08301527f00000000000000000000000000000000000000000000000000000000000000001660c082015260e0016102b9565b61039460085481565b6103946105373660046138b3565b60116020526000908152604090205481565b610394610557366004613808565b61138e565b61037e61056a36600461392a565b611476565b61039460095481565b6103946105863660046138b3565b611485565b6103946105993660046138b3565b60046020526000908152604090205481565b6103946105b93660046138b3565b60066020526000908152604090205481565b6105de6105d93660046138b3565b6116e6565b604080519283526020830191909152016102b9565b6105fb611a03565b60408051825181526020808401519082015291810151908201526060016102b9565b6102ac611a83565b6103537f000000000000000000000000000000000000000000000000000000000000000081565b604080516001600160a01b037f0000000000000000000000000000000000000000000000000000000000000000811682527f0000000000000000000000000000000000000000000000000000000000000000166020820152016102b9565b6103946106b836600461392a565b611a90565b6103946106cb3660046138b3565b600f6020526000908152604090205481565b6103946106eb3660046138b3565b60126020526000908152604090205481565b61030961070b366004613808565b611afd565b6102a261071e3660046138b3565b611b13565b610394600e5481565b610394600b5481565b610394600c5481565b610394600a5481565b6103537f000000000000000000000000000000000000000000000000000000000000000081565b6105de611c31565b6102a261078436600461395f565b611d58565b6103946107973660046139d6565b600360209081526000928352604080842090915290825290205481565b600754610394565b6102a2612060565b6103946107d2366004613a0f565b612167565b6102a2612255565b6013546001146107ee57600080fd5b60026013819055507f00000000000000000000000000000000000000000000000000000000000000006001600160a01b031663b187bd266040518163ffffffff1660e01b8152600401602060405180830381865afa158015610854573d6000803e3d6000fd5b505050506040513d601f19601f820116820180604052508101906108789190613a34565b1561088257600080fd5b60008511806108915750600084115b6108c85760405162461bcd60e51b8152602060048201526003602482015262494f4160e81b60448201526064015b60405180910390fd5b60085460095481871080156108dc57508086105b61090d5760405162461bcd60e51b8152602060048201526002602482015261125360f21b60448201526064016108bf565b6000807f00000000000000000000000000000000000000000000000000000000000000007f00000000000000000000000000000000000000000000000000000000000000006001600160a01b03898116908316148015906109805750806001600160a01b0316896001600160a01b031614155b6109b15760405162461bcd60e51b8152602060048201526002602482015261125560f21b60448201526064016108bf565b8a156109c2576109c2828a8d61238f565b89156109d3576109d3818a8c61238f565b8615610a4057604051639a7bff7960e01b81526001600160a01b038a1690639a7bff7990610a0d9033908f908f908e908e90600401613a56565b600060405180830381600087803b158015610a2757600080fd5b505af1158015610a3b573d6000803e3d6000fd5b505050505b6040516370a0823160e01b81523060048201526001600160a01b038316906370a0823190602401602060405180830381865afa158015610a84573d6000803e3d6000fd5b505050506040513d601f19601f82011682018060405250810190610aa89190613aa2565b6040516370a0823160e01b81523060048201529094506001600160a01b038216906370a0823190602401602060405180830381865afa158015610aef573d6000803e3d6000fd5b505050506040513d601f19601f82011682018060405250810190610b139190613aa2565b9250505060008985610b259190613ad1565b8311610b32576000610b46565b610b3c8a86613ad1565b610b469084613ad1565b90506000610b548a86613ad1565b8311610b61576000610b75565b610b6b8a86613ad1565b610b759084613ad1565b90506000821180610b865750600081115b610bb85760405162461bcd60e51b815260206004820152600360248201526249494160e81b60448201526064016108bf565b7f00000000000000000000000000000000000000000000000000000000000000007f00000000000000000000000000000000000000000000000000000000000000008315610ccb57604051632895a2f560e11b81527f000000000000000000000000000000000000000000000000000000000000000015156004820152610ccb90612710906001600160a01b037f0000000000000000000000000000000000000000000000000000000000000000169063512b45ea90602401602060405180830381865afa158015610c8e573d6000803e3d6000fd5b505050506040513d601f19601f82011682018060405250810190610cb29190613aa2565b610cbc9087613ae8565b610cc69190613b07565b612477565b8215610d9c57604051632895a2f560e11b81527f000000000000000000000000000000000000000000000000000000000000000015156004820152610d9c90612710906001600160a01b037f0000000000000000000000000000000000000000000000000000000000000000169063512b45ea90602401602060405180830381865afa158015610d5f573d6000803e3d6000fd5b505050506040513d601f19601f82011682018060405250810190610d839190613aa2565b610d8d9086613ae8565b610d979190613b07565b6127e5565b6040516370a0823160e01b81523060048201526001600160a01b038316906370a0823190602401602060405180830381865afa158015610de0573d6000803e3d6000fd5b505050506040513d601f19601f82011682018060405250810190610e049190613aa2565b6040516370a0823160e01b81523060048201529096506001600160a01b038216906370a0823190602401602060405180830381865afa158015610e4b573d6000803e3d6000fd5b505050506040513d601f19601f82011682018060405250810190610e6f9190613aa2565b9450610e7b8888612b4a565b610e858787612b4a565b1015610eb75760405162461bcd60e51b81526020600482015260016024820152604b60f81b60448201526064016108bf565b5050610ec584848888612c96565b60408051838152602081018390529081018c9052606081018b90526001600160a01b038a169033907fd78ad95fa46c994b6551d0da85fc275fe613ce37657fb8d5e3d130840159d8229060800160405180910390a350506001601355505050505050505050565b60008054610f3990613b29565b80601f0160208091040260200160405190810160405280929190818152602001828054610f6590613b29565b8015610fb25780601f10610f8757610100808354040283529160200191610fb2565b820191906000526020600020905b815481529060010190602001808311610f9557829003601f168201915b505050505081565b3360008181526003602090815260408083206001600160a01b038716808552925280832085905551919290917f8c5be1e5ebec7d5bd14f71427d1e84f3dd0314c0f7b2291e5b200ac8c7c3b925906110159086815260200190565b60405180910390a35060015b92915050565b606060008367ffffffffffffffff81111561104457611044613b5d565b60405190808252806020026020018201604052801561106d578160200160208202803683370190505b5060075490915060009061108390600190613ad1565b905060006110918587613ae8565b61109b9083613ad1565b90506000805b83831015611213576110b38784613b73565b91506000600784815481106110ca576110ca613b8b565b906000526020600020906003020160000154600784815481106110ef576110ef613b8b565b90600052602060002090600302016000015461110b9190613ad1565b90506000816007868154811061112357611123613b8b565b9060005260206000209060030201600101546007868154811061114857611148613b8b565b9060005260206000209060030201600101546111649190613ad1565b61116e9190613b07565b90506000826007878154811061118657611186613b8b565b906000526020600020906003020160020154600787815481106111ab576111ab613b8b565b9060005260206000209060030201600201546111c79190613ad1565b6111d19190613b07565b90506111df8c8e8484612e2a565b8885815181106111f1576111f1613b8b565b602090810291909101015250505060010161120c8784613b73565b92506110a1565b509293505050505b949350505050565b600b54600c544260008080611241600854600954600a549192909190565b92509250925083811461128a57600061125a8286613ad1565b90506112668185613ae8565b6112709088613b73565b965061127c8184613ae8565b6112869087613b73565b9550505b505050909192565b6001600160a01b0383166000818152600360209081526040808320338085529252822054919290919082148015906112cc57506000198114155b156113425760006112dd8583613ad1565b6001600160a01b038881166000818152600360209081526040808320948916808452948252918290208590559051848152939450919290917f8c5be1e5ebec7d5bd14f71427d1e84f3dd0314c0f7b2291e5b200ac8c7c3b925910160405180910390a3505b61134d86868661311f565b6001925050505b9392505050565b6007818154811061136b57600080fd5b600091825260209091206003909102018054600182015460029092015490925083565b600080611399611a03565b90506000806113a6611223565b5084519193509150420361140e57600780546113c490600290613ad1565b815481106113d4576113d4613b8b565b9060005260206000209060030201604051806060016040529081600082015481526020016001820154815260200160028201548152505092505b825160009061141d9042613ad1565b90506000818560200151856114329190613ad1565b61143c9190613b07565b90506000828660400151856114519190613ad1565b61145b9190613b07565b9050611469888a8484612e2a565b9998505050505050505050565b606061121b8484846001611027565b600060135460011461149657600080fd5b60026013556008546009546040516370a0823160e01b81523060048201526000907f00000000000000000000000000000000000000000000000000000000000000006001600160a01b0316906370a0823190602401602060405180830381865afa158015611508573d6000803e3d6000fd5b505050506040513d601f19601f8201168201806040525081019061152c9190613aa2565b6040516370a0823160e01b81523060048201529091506000906001600160a01b037f000000000000000000000000000000000000000000000000000000000000000016906370a0823190602401602060405180830381865afa158015611596573d6000803e3d6000fd5b505050506040513d601f19601f820116820180604052508101906115ba9190613aa2565b905060006115c88584613ad1565b905060006115d68584613ad1565b6002549091506000819003611618576103e86115fa6115f58486613ae8565b6131df565b6116049190613ad1565b975061161360006103e861324f565b61164d565b61164a876116268386613ae8565b6116309190613b07565b8761163b8486613ae8565b6116459190613b07565b6132e2565b97505b600088116116835760405162461bcd60e51b8152602060048201526003602482015262494c4d60e81b60448201526064016108bf565b61168d898961324f565b61169985858989612c96565b604080518481526020810184905233917f4c209b5fc8ad50758f13e2e1088ba56a560dff690a1c6fef26394f4c03821c4f910160405180910390a250506001601355509395945050505050565b6000806013546001146116f857600080fd5b60026013556008546009546040516370a0823160e01b81523060048201527f0000000000000000000000000000000000000000000000000000000000000000907f0000000000000000000000000000000000000000000000000000000000000000906000906001600160a01b038416906370a0823190602401602060405180830381865afa15801561178e573d6000803e3d6000fd5b505050506040513d601f19601f820116820180604052508101906117b29190613aa2565b6040516370a0823160e01b81523060048201529091506000906001600160a01b038416906370a0823190602401602060405180830381865afa1580156117fc573d6000803e3d6000fd5b505050506040513d601f19601f820116820180604052508101906118209190613aa2565b3060009081526004602052604090205460025491925090806118428584613ae8565b61184c9190613b07565b9950806118598484613ae8565b6118639190613b07565b985060008a1180156118755750600089115b6118a75760405162461bcd60e51b815260206004820152600360248201526224a62160e91b60448201526064016108bf565b6118b130836132f8565b6118bc868c8c61238f565b6118c7858c8b61238f565b6040516370a0823160e01b81523060048201526001600160a01b038716906370a0823190602401602060405180830381865afa15801561190b573d6000803e3d6000fd5b505050506040513d601f19601f8201168201806040525081019061192f9190613aa2565b6040516370a0823160e01b81523060048201529094506001600160a01b038616906370a0823190602401602060405180830381865afa158015611976573d6000803e3d6000fd5b505050506040513d601f19601f8201168201806040525081019061199a9190613aa2565b92506119a884848a8a612c96565b604080518b8152602081018b90526001600160a01b038d169133917fdccd412f0b1252819cb1fd330b93224ca42612892bb3f4f789976e6d81936496910160405180910390a350505050505050506001601381905550915091565b611a2760405180606001604052806000815260200160008152602001600081525090565b60078054611a3790600190613ad1565b81548110611a4757611a47613b8b565b90600052602060002090600302016040518060600160405290816000820154815260200160018201548152602001600282015481525050905090565b60018054610f3990613b29565b600080611aa08585856001611027565b90506000805b8251811015611ae857828181518110611ac157611ac1613b8b565b602002602001015182611ad49190613b73565b915080611ae081613ba1565b915050611aa6565b50611af38482613b07565b9695505050505050565b6000611b0a33848461311f565b50600192915050565b601354600114611b2257600080fd5b60026013556008546040516370a0823160e01b81523060048201527f0000000000000000000000000000000000000000000000000000000000000000917f000000000000000000000000000000000000000000000000000000000000000091611bef9184918691906001600160a01b038416906370a08231906024015b602060405180830381865afa158015611bbc573d6000803e3d6000fd5b505050506040513d601f19601f82011682018060405250810190611be09190613aa2565b611bea9190613ad1565b61238f565b6009546040516370a0823160e01b8152306004820152611c279183918691906001600160a01b038416906370a0823190602401611b9f565b5050600160135550565b600080611c3d33613383565b50503360009081526011602090815260408083205460129092529091205481151580611c695750600081115b15611d54573360008181526011602090815260408083208390556012909152808220919091555163299e7ae760e11b8152600481019190915260248101839052604481018290526001600160a01b037f0000000000000000000000000000000000000000000000000000000000000000169063533cf5ce90606401600060405180830381600087803b158015611cfe57600080fd5b505af1158015611d12573d6000803e3d6000fd5b505060408051858152602081018590523393508392507f865ca08d59f5cb456e85cd2f7ef63664ea4f73327414e9d8152c4158b0e94645910160405180910390a35b9091565b42841015611d985760405162461bcd60e51b815260206004820152600d60248201526c14185a5c8e8811561412549151609a1b60448201526064016108bf565b7f8b73c3c69bb8fe3d512ecc4cf759cc79239f7b179b0ffacaa9a75d522b39400f6000604051611dc89190613bba565b60408051918290038220828201825260018352603160f81b6020938401528151928301939093528101919091527fc89efdaa54c0f20c7adf612882df0950f5a951637e0307cdcb4c672f298b8bc660608201524660808201523060a082015260c00160408051601f19818403018152918152815160209283012060058190556001600160a01b038a166000908152600690935290822080547f6e71edae12b1b97f4d1f60370fef10105fa2faae0126114a169c64845d6126c9918b918b918b919087611e9383613ba1565b909155506040805160208101969096526001600160a01b0394851690860152929091166060840152608083015260a082015260c0810187905260e00160405160208183030381529060405280519060200120604051602001611f0c92919061190160f01b81526002810192909252602282015260420190565b60408051601f198184030181528282528051602091820120600080855291840180845281905260ff88169284019290925260608301869052608083018590529092509060019060a0016020604051602081039080840390855afa158015611f77573d6000803e3d6000fd5b5050604051601f1901519150506001600160a01b03811615801590611fad5750886001600160a01b0316816001600160a01b0316145b611ff95760405162461bcd60e51b815260206004820152601760248201527f506169723a20494e56414c49445f5349474e415455524500000000000000000060448201526064016108bf565b6001600160a01b038981166000818152600360209081526040808320948d16808452948252918290208b905590518a81527f8c5be1e5ebec7d5bd14f71427d1e84f3dd0314c0f7b2291e5b200ac8c7c3b925910160405180910390a3505050505050505050565b60007f00000000000000000000000000000000000000000000000000000000000000006001600160a01b031663c124a4a26040518163ffffffff1660e01b8152600401602060405180830381865afa1580156120c0573d6000803e3d6000fd5b505050506040513d601f19601f820116820180604052508101906120e49190613c55565b60405163f8518b8960e01b81526001600160a01b0380831660048301529192507f00000000000000000000000000000000000000000000000000000000000000009091169063f8518b8990602401600060405180830381600087803b15801561214c57600080fd5b505af1158015612160573d6000803e3d6000fd5b5050505050565b600854600954604051632895a2f560e11b81527f0000000000000000000000000000000000000000000000000000000000000000151560048201526000929190612710907f00000000000000000000000000000000000000000000000000000000000000006001600160a01b03169063512b45ea90602401602060405180830381865afa1580156121fc573d6000803e3d6000fd5b505050506040513d601f19601f820116820180604052508101906122209190613aa2565b61222a9087613ae8565b6122349190613b07565b61223e9086613ad1565b945061224c85858484612e2a565b95945050505050565b60135460011461226457600080fd5b60026013556040516370a0823160e01b8152306004820152612388907f00000000000000000000000000000000000000000000000000000000000000006001600160a01b0316906370a0823190602401602060405180830381865afa1580156122d1573d6000803e3d6000fd5b505050506040513d601f19601f820116820180604052508101906122f59190613aa2565b6040516370a0823160e01b81523060048201527f00000000000000000000000000000000000000000000000000000000000000006001600160a01b0316906370a0823190602401602060405180830381865afa158015612359573d6000803e3d6000fd5b505050506040513d601f19601f8201168201806040525081019061237d9190613aa2565b600854600954612c96565b6001601355565b6000836001600160a01b03163b116123a657600080fd5b604080516001600160a01b038481166024830152604480830185905283518084039091018152606490920183526020820180516001600160e01b031663a9059cbb60e01b17905291516000928392908716916124029190613c72565b6000604051808303816000865af19150503d806000811461243f576040519150601f19603f3d011682016040523d82523d6000602084013e612444565b606091505b509150915081801561246e57508051158061246e57508080602001905181019061246e9190613a34565b61216057600080fd5b60007f00000000000000000000000000000000000000000000000000000000000000006001600160a01b0316637be1623e6040518163ffffffff1660e01b8152600401602060405180830381865afa1580156124d7573d6000803e3d6000fd5b505050506040513d601f19601f820116820180604052508101906124fb9190613c55565b905060007f00000000000000000000000000000000000000000000000000000000000000006001600160a01b0316631e61079c6040518163ffffffff1660e01b8152600401602060405180830381865afa15801561255d573d6000803e3d6000fd5b505050506040513d601f19601f820116820180604052508101906125819190613aa2565b905060006127106125928386613ae8565b61259c9190613b07565b90506125c97f0000000000000000000000000000000000000000000000000000000000000000848361238f565b6125d38185613ad1565b935060006127107f00000000000000000000000000000000000000000000000000000000000000006001600160a01b031663956f94a16040518163ffffffff1660e01b8152600401602060405180830381865afa158015612638573d6000803e3d6000fd5b505050506040513d601f19601f8201168201806040525081019061265c9190613aa2565b6126669087613ae8565b6126709190613b07565b604051638d4dabff60e01b815260048101829052600160248201529091507f00000000000000000000000000000000000000000000000000000000000000006001600160a01b031690638d4dabff90604401600060405180830381600087803b1580156126dc57600080fd5b505af11580156126f0573d6000803e3d6000fd5b5050505061273f7f00000000000000000000000000000000000000000000000000000000000000007f00000000000000000000000000000000000000000000000000000000000000008761238f565b6127498186613ad1565b9450600060025486670de0b6b3a76400006127649190613ae8565b61276e9190613b07565b9050801561278e5780600d60008282546127889190613b73565b90915550505b337f112c256902bf554b6ed882d2936687aaeb4225e8cd5b51303c90ca6cf43a8602846127bb858a613b73565b6127c59190613b73565b6040805191825260006020830152015b60405180910390a2505050505050565b60007f00000000000000000000000000000000000000000000000000000000000000006001600160a01b0316637be1623e6040518163ffffffff1660e01b8152600401602060405180830381865afa158015612845573d6000803e3d6000fd5b505050506040513d601f19601f820116820180604052508101906128699190613c55565b905060007f00000000000000000000000000000000000000000000000000000000000000006001600160a01b0316631e61079c6040518163ffffffff1660e01b8152600401602060405180830381865afa1580156128cb573d6000803e3d6000fd5b505050506040513d601f19601f820116820180604052508101906128ef9190613aa2565b905060006127106129008386613ae8565b61290a9190613b07565b90506129377f0000000000000000000000000000000000000000000000000000000000000000848361238f565b6129418185613ad1565b935060006127107f00000000000000000000000000000000000000000000000000000000000000006001600160a01b031663956f94a16040518163ffffffff1660e01b8152600401602060405180830381865afa1580156129a6573d6000803e3d6000fd5b505050506040513d601f19601f820116820180604052508101906129ca9190613aa2565b6129d49087613ae8565b6129de9190613b07565b604051638d4dabff60e01b815260048101829052600060248201529091507f00000000000000000000000000000000000000000000000000000000000000006001600160a01b031690638d4dabff90604401600060405180830381600087803b158015612a4a57600080fd5b505af1158015612a5e573d6000803e3d6000fd5b50505050612aad7f00000000000000000000000000000000000000000000000000000000000000007f00000000000000000000000000000000000000000000000000000000000000008761238f565b612ab78186613ad1565b9450600060025486670de0b6b3a7640000612ad29190613ae8565b612adc9190613b07565b90508015612afc5780600e6000828254612af69190613b73565b90915550505b337f112c256902bf554b6ed882d2936687aaeb4225e8cd5b51303c90ca6cf43a8602600085612b2b868b613b73565b612b359190613b73565b604080519283526020830191909152016127d5565b60007f000000000000000000000000000000000000000000000000000000000000000015612c855760007f0000000000000000000000000000000000000000000000000000000000000000612ba785670de0b6b3a7640000613ae8565b612bb19190613b07565b905060007f0000000000000000000000000000000000000000000000000000000000000000612be885670de0b6b3a7640000613ae8565b612bf29190613b07565b90506000670de0b6b3a7640000612c098385613ae8565b612c139190613b07565b90506000670de0b6b3a7640000612c2a8480613ae8565b612c349190613b07565b670de0b6b3a7640000612c478680613ae8565b612c519190613b07565b612c5b9190613b73565b9050670de0b6b3a7640000612c708284613ae8565b612c7a9190613b07565b945050505050611021565b612c8f8284613ae8565b9050611021565b600a544290600090612ca89083613ad1565b9050600081118015612cb957508315155b8015612cc457508215155b15612d0b57612cd38185613ae8565b600b6000828254612ce49190613b73565b90915550612cf490508184613ae8565b600c6000828254612d059190613b73565b90915550505b6000612d15611a03565b8051909150612d249084613ad1565b9150610708821115612dd95760408051606081018252848152600b5460208201908152600c549282019283526007805460018101825560009190915291517fa66cc928b5edb82af9bd49922954155ab7b0942694bea4ce44661d9a8736c688600390930292830155517fa66cc928b5edb82af9bd49922954155ab7b0942694bea4ce44661d9a8736c68982015590517fa66cc928b5edb82af9bd49922954155ab7b0942694bea4ce44661d9a8736c68a909101555b60088790556009869055600a83905560408051888152602081018890527fcf2aa50876cdfbb541206f89af0ee78d44a2abf8d328e37fa4917f982149848a910160405180910390a150505050505050565b60007f0000000000000000000000000000000000000000000000000000000000000000156130ad576000612e5e8484612b4a565b90507f0000000000000000000000000000000000000000000000000000000000000000612e9385670de0b6b3a7640000613ae8565b612e9d9190613b07565b93507f0000000000000000000000000000000000000000000000000000000000000000612ed284670de0b6b3a7640000613ae8565b612edc9190613b07565b92506000807f00000000000000000000000000000000000000000000000000000000000000006001600160a01b0316876001600160a01b031614612f21578486612f24565b85855b915091507f00000000000000000000000000000000000000000000000000000000000000006001600160a01b0316876001600160a01b031614612fa3577f0000000000000000000000000000000000000000000000000000000000000000612f9489670de0b6b3a7640000613ae8565b612f9e9190613b07565b612fe0565b7f0000000000000000000000000000000000000000000000000000000000000000612fd689670de0b6b3a7640000613ae8565b612fe09190613b07565b97506000612ff8612ff1848b613b73565b85846134e3565b6130029083613ad1565b9050670de0b6b3a76400007f00000000000000000000000000000000000000000000000000000000000000006001600160a01b0316896001600160a01b03161461306c577f000000000000000000000000000000000000000000000000000000000000000061308e565b7f00000000000000000000000000000000000000000000000000000000000000005b6130989083613ae8565b6130a29190613b07565b94505050505061121b565b6000807f00000000000000000000000000000000000000000000000000000000000000006001600160a01b0316866001600160a01b0316146130f05783856130f3565b84845b90925090506131028783613b73565b61310c8289613ae8565b6131169190613b07565b9250505061121b565b61312883613383565b61313182613383565b6001600160a01b03831660009081526004602052604081208054839290613159908490613ad1565b90915550506001600160a01b03821660009081526004602052604081208054839290613186908490613b73565b92505081905550816001600160a01b0316836001600160a01b03167fddf252ad1be2c89b69c2b068fc378daa952ba7f163c4a11628f55a4df523b3ef836040516131d291815260200190565b60405180910390a3505050565b6000600382111561324057508060006131f9600283613b07565b613204906001613b73565b90505b8181101561323a5790508060028161321f8186613b07565b6132299190613b73565b6132339190613b07565b9050613207565b50919050565b811561324a575060015b919050565b61325882613383565b806002600082825461326a9190613b73565b90915550506001600160a01b03821660009081526004602052604081208054839290613297908490613b73565b90915550506040518181526001600160a01b038316906000907fddf252ad1be2c89b69c2b068fc378daa952ba7f163c4a11628f55a4df523b3ef906020015b60405180910390a35050565b60008183106132f15781611354565b5090919050565b61330182613383565b80600260008282546133139190613ad1565b90915550506001600160a01b03821660009081526004602052604081208054839290613340908490613ad1565b90915550506040518181526000906001600160a01b038416907fddf252ad1be2c89b69c2b068fc378daa952ba7f163c4a11628f55a4df523b3ef906020016132d6565b6001600160a01b03811660009081526004602052604090205480156134b1576001600160a01b0382166000908152600f60209081526040808320805460108085529285208054600d54600e549481905594909552829055936133e58584613ad1565b905060006133f38584613ad1565b9050811561344e576000670de0b6b3a7640000613410848a613ae8565b61341a9190613b07565b6001600160a01b038a16600090815260116020526040812080549293508392909190613447908490613b73565b9091555050505b80156134a7576000670de0b6b3a7640000613469838a613ae8565b6134739190613b07565b6001600160a01b038a166000908152601260205260408120805492935083929091906134a0908490613b73565b9091555050505b5050505050505050565b600d546001600160a01b0383166000908152600f6020908152604080832093909355600e546010909152919020555050565b6000805b60ff8110156135e9578260006134fd87836135f2565b90508581101561354d576000613513888761368f565b61351d8389613ad1565b61352f90670de0b6b3a7640000613ae8565b6135399190613b07565b90506135458187613b73565b95505061358f565b6000613559888761368f565b6135638884613ad1565b61357590670de0b6b3a7640000613ae8565b61357f9190613b07565b905061358b8187613ad1565b9550505b818511156135b85760016135a38387613ad1565b116135b357849350505050611354565b6135d4565b60016135c48684613ad1565b116135d457849350505050611354565b505080806135e190613ba1565b9150506134e7565b50909392505050565b6000670de0b6b3a76400008281858161360b8280613ae8565b6136159190613b07565b61361f9190613ae8565b6136299190613b07565b6136339190613ae8565b61363d9190613b07565b670de0b6b3a76400008084816136538280613ae8565b61365d9190613b07565b6136679190613ae8565b6136719190613b07565b61367b9086613ae8565b6136859190613b07565b6113549190613b73565b6000670de0b6b3a764000083816136a68280613ae8565b6136b09190613b07565b6136ba9190613ae8565b6136c49190613b07565b670de0b6b3a7640000806136d88580613ae8565b6136e29190613b07565b6136ed866003613ae8565b61367b9190613ae8565b6001600160a01b038116811461370c57600080fd5b50565b60008060008060006080868803121561372757600080fd5b85359450602086013593506040860135613740816136f7565b9250606086013567ffffffffffffffff8082111561375d57600080fd5b818801915088601f83011261377157600080fd5b81358181111561378057600080fd5b89602082850101111561379257600080fd5b9699959850939650602001949392505050565b60005b838110156137c05781810151838201526020016137a8565b838111156137cf576000848401525b50505050565b60208152600082518060208401526137f48160408501602087016137a5565b601f01601f19169190910160400192915050565b6000806040838503121561381b57600080fd5b8235613826816136f7565b946020939093013593505050565b6000806000806080858703121561384a57600080fd5b8435613855816136f7565b966020860135965060408601359560600135945092505050565b6020808252825182820181905260009190848201906040850190845b818110156138a75783518352928401929184019160010161388b565b50909695505050505050565b6000602082840312156138c557600080fd5b8135611354816136f7565b6000806000606084860312156138e557600080fd5b83356138f0816136f7565b92506020840135613900816136f7565b929592945050506040919091013590565b60006020828403121561392357600080fd5b5035919050565b60008060006060848603121561393f57600080fd5b833561394a816136f7565b95602085013595506040909401359392505050565b600080600080600080600060e0888a03121561397a57600080fd5b8735613985816136f7565b96506020880135613995816136f7565b95506040880135945060608801359350608088013560ff811681146139b957600080fd5b9699959850939692959460a0840135945060c09093013592915050565b600080604083850312156139e957600080fd5b82356139f4816136f7565b91506020830135613a04816136f7565b809150509250929050565b60008060408385031215613a2257600080fd5b823591506020830135613a04816136f7565b600060208284031215613a4657600080fd5b8151801515811461135457600080fd5b60018060a01b038616815284602082015283604082015260806060820152816080820152818360a0830137600081830160a090810191909152601f909201601f19160101949350505050565b600060208284031215613ab457600080fd5b5051919050565b634e487b7160e01b600052601160045260246000fd5b600082821015613ae357613ae3613abb565b500390565b6000816000190483118215151615613b0257613b02613abb565b500290565b600082613b2457634e487b7160e01b600052601260045260246000fd5b500490565b600181811c90821680613b3d57607f821691505b60208210810361323a57634e487b7160e01b600052602260045260246000fd5b634e487b7160e01b600052604160045260246000fd5b60008219821115613b8657613b86613abb565b500190565b634e487b7160e01b600052603260045260246000fd5b600060018201613bb357613bb3613abb565b5060010190565b600080835481600182811c915080831680613bd657607f831692505b60208084108203613bf557634e487b7160e01b86526022600452602486fd5b818015613c095760018114613c1a57613c47565b60ff19861689528489019650613c47565b60008a81526020902060005b86811015613c3f5781548b820152908501908301613c26565b505084890196505b509498975050505050505050565b600060208284031215613c6757600080fd5b8151611354816136f7565b60008251613c848184602087016137a5565b919091019291505056fea2646970667358221220d78ccf58abc13ed81f4ccd251140e479edfef35c5cfb497a218f8ff13735bc0264736f6c634300080d003360e060405234801561001057600080fd5b506040516105c53803806105c583398101604081905261002f91610066565b336080526001600160a01b0391821660a0521660c052610099565b80516001600160a01b038116811461006157600080fd5b919050565b6000806040838503121561007957600080fd5b6100828361004a565b91506100906020840161004a565b90509250929050565b60805160a05160c0516104e36100e26000396000818161012c015261026001526000818160fb015261022601526000818160c60152818161016201526101ef01526104e36000f3fe608060405234801561001057600080fd5b50600436106100575760003560e01c8063533cf5ce1461005c5780635b3c924814610071578063651d83f91461008c5780638d4dabff14610095578063f8518b89146100a8575b600080fd5b61006f61006a36600461039c565b6100bb565b005b61007a60015481565b60405190815260200160405180910390f35b61007a60005481565b61006f6100a33660046103dd565b610157565b61006f6100b636600461040d565b6101e4565b336001600160a01b037f000000000000000000000000000000000000000000000000000000000000000016146100f057600080fd5b8115610121576101217f00000000000000000000000000000000000000000000000000000000000000008484610291565b8015610152576101527f00000000000000000000000000000000000000000000000000000000000000008483610291565b505050565b336001600160a01b037f0000000000000000000000000000000000000000000000000000000000000000161461018c57600080fd5b6000821180156101995750805b156101b557816000808282546101af919061042f565b90915550505b6000821180156101c3575080155b156101e05781600160008282546101da919061042f565b90915550505b5050565b336001600160a01b037f0000000000000000000000000000000000000000000000000000000000000000161461021957600080fd5b600054156102535761024e7f000000000000000000000000000000000000000000000000000000000000000082600054610291565b600080555b6001541561028e576102887f000000000000000000000000000000000000000000000000000000000000000082600154610291565b60006001555b50565b6000836001600160a01b03163b116102a857600080fd5b604080516001600160a01b038481166024830152604480830185905283518084039091018152606490920183526020820180516001600160e01b031663a9059cbb60e01b17905291516000928392908716916103049190610455565b6000604051808303816000865af19150503d8060008114610341576040519150601f19603f3d011682016040523d82523d6000602084013e610346565b606091505b50915091508180156103705750805115806103705750808060200190518101906103709190610490565b61037957600080fd5b5050505050565b80356001600160a01b038116811461039757600080fd5b919050565b6000806000606084860312156103b157600080fd5b6103ba84610380565b95602085013595506040909401359392505050565b801515811461028e57600080fd5b600080604083850312156103f057600080fd5b823591506020830135610402816103cf565b809150509250929050565b60006020828403121561041f57600080fd5b61042882610380565b9392505050565b6000821982111561045057634e487b7160e01b600052601160045260246000fd5b500190565b6000825160005b81811015610476576020818601810151858301520161045c565b81811115610485576000828501525b509190910192915050565b6000602082840312156104a257600080fd5b8151610428816103cf56fea2646970667358221220bf47ac65349e83399e6f5dcb4d82786b7cb0603a6a9f178955696c4eb73479d364736f6c634300080d0033a26469706673582212206e4bf98684e40577cc2627f889da666d64efb6b32137c8ac61477f2fd20e190e64736f6c634300080d0033","opcodes":"PUSH1 0x80 PUSH1 0x40 MSTORE PUSH2 0x4B0 PUSH1 0x5 SSTORE CALLVALUE DUP1 ISZERO PUSH2 0x16 JUMPI PUSH1 0x0 DUP1 REVERT JUMPDEST POP PUSH1 0x0 DUP1 SLOAD PUSH1 0x1 PUSH1 0x1 PUSH1 0xA8 SHL SUB NOT AND CALLER PUSH2 0x100 DUP2 MUL PUSH1 0xFF NOT AND SWAP2 SWAP1 SWAP2 OR DUP3 SSTORE PUSH1 0x6 DUP1 SLOAD PUSH1 0x1 PUSH1 0x1 PUSH1 0xA0 SHL SUB NOT AND SWAP1 SWAP2 OR SWAP1 SSTORE PUSH1 0x4 PUSH1 0x2 DUP2 SWAP1 SSTORE PUSH1 0x12 PUSH1 0x3 SSTORE PUSH2 0xBB8 SWAP1 SSTORE PUSH2 0x5E94 SWAP1 DUP2 SWAP1 PUSH2 0x69 SWAP1 CODECOPY PUSH1 0x0 RETURN INVALID PUSH1 0x80 PUSH1 0x40 MSTORE CALLVALUE DUP1 ISZERO PUSH3 0x11 JUMPI PUSH1 0x0 DUP1 REVERT JUMPDEST POP PUSH1 0x4 CALLDATASIZE LT PUSH3 0x20D JUMPI PUSH1 0x0 CALLDATALOAD PUSH1 0xE0 SHR DUP1 PUSH4 0x82DFDCE4 GT PUSH3 0x125 JUMPI DUP1 PUSH4 0xBEDB86FB GT PUSH3 0xAF JUMPI DUP1 PUSH4 0xE5E31B13 GT PUSH3 0x7A JUMPI DUP1 PUSH4 0xE5E31B13 EQ PUSH3 0x464 JUMPI DUP1 PUSH4 0xEB13C4CF EQ PUSH3 0x48A JUMPI DUP1 PUSH4 0xF94C53C7 EQ PUSH3 0x4C3 JUMPI DUP1 PUSH4 0xFFB0A4A0 EQ PUSH3 0x4CD JUMPI PUSH1 0x0 DUP1 REVERT JUMPDEST DUP1 PUSH4 0xBEDB86FB EQ PUSH3 0x40E JUMPI DUP1 PUSH4 0xC124A4A2 EQ PUSH3 0x425 JUMPI DUP1 PUSH4 0xD0FB0203 EQ PUSH3 0x439 JUMPI DUP1 PUSH4 0xE1F76B44 EQ PUSH3 0x44D JUMPI PUSH1 0x0 DUP1 REVERT JUMPDEST DUP1 PUSH4 0x9AAB9248 GT PUSH3 0xF0 JUMPI DUP1 PUSH4 0x9AAB9248 EQ PUSH3 0x3C3 JUMPI DUP1 PUSH4 0x9FD0506D EQ PUSH3 0x3CD JUMPI DUP1 PUSH4 0xB187BD26 EQ PUSH3 0x3E6 JUMPI DUP1 PUSH4 0xBC063E1A EQ PUSH3 0x405 JUMPI PUSH1 0x0 DUP1 REVERT JUMPDEST DUP1 PUSH4 0x82DFDCE4 EQ PUSH3 0x37A JUMPI DUP1 PUSH4 0x8A4FA0D2 EQ PUSH3 0x391 JUMPI DUP1 PUSH4 0x956F94A1 EQ PUSH3 0x3A5 JUMPI DUP1 PUSH4 0x9A7165E4 EQ PUSH3 0x3AF JUMPI PUSH1 0x0 DUP1 REVERT JUMPDEST DUP1 PUSH4 0x472D35B9 GT PUSH3 0x1A7 JUMPI DUP1 PUSH4 0x574F2BA3 GT PUSH3 0x172 JUMPI DUP1 PUSH4 0x574F2BA3 EQ PUSH3 0x309 JUMPI DUP1 PUSH4 0x6801CC30 EQ PUSH3 0x312 JUMPI DUP1 PUSH4 0x713494D7 EQ PUSH3 0x34F JUMPI DUP1 PUSH4 0x7BE1623E EQ PUSH3 0x366 JUMPI PUSH1 0x0 DUP1 REVERT JUMPDEST DUP1 PUSH4 0x472D35B9 EQ PUSH3 0x2BA JUMPI DUP1 PUSH4 0x482A8D07 EQ PUSH3 0x2D1 JUMPI DUP1 PUSH4 0x5084ED03 EQ PUSH3 0x2E8 JUMPI DUP1 PUSH4 0x512B45EA EQ PUSH3 0x2F2 JUMPI PUSH1 0x0 DUP1 REVERT JUMPDEST DUP1 PUSH4 0x1E61079C GT PUSH3 0x1E8 JUMPI DUP1 PUSH4 0x1E61079C EQ PUSH3 0x269 JUMPI DUP1 PUSH4 0x2D88AF4A EQ PUSH3 0x282 JUMPI DUP1 PUSH4 0x4091CB77 EQ PUSH3 0x299 JUMPI DUP1 PUSH4 0x40BBD775 EQ PUSH3 0x2B0 JUMPI PUSH1 0x0 DUP1 REVERT JUMPDEST DUP1 PUSH4 0xC74DB12 EQ PUSH3 0x212 JUMPI DUP1 PUSH4 0x167A6F90 EQ PUSH3 0x22B JUMPI DUP1 PUSH4 0x1E3DD18B EQ PUSH3 0x235 JUMPI JUMPDEST PUSH1 0x0 DUP1 REVERT JUMPDEST PUSH3 0x229 PUSH3 0x223 CALLDATASIZE PUSH1 0x4 PUSH3 0xCC8 JUMP JUMPDEST PUSH3 0x4E6 JUMP JUMPDEST STOP JUMPDEST PUSH3 0x229 PUSH3 0x585 JUMP JUMPDEST PUSH3 0x24C PUSH3 0x246 CALLDATASIZE PUSH1 0x4 PUSH3 0xCED JUMP JUMPDEST PUSH3 0x5C8 JUMP JUMPDEST PUSH1 0x40 MLOAD PUSH1 0x1 PUSH1 0x1 PUSH1 0xA0 SHL SUB SWAP1 SWAP2 AND DUP2 MSTORE PUSH1 0x20 ADD JUMPDEST PUSH1 0x40 MLOAD DUP1 SWAP2 SUB SWAP1 RETURN JUMPDEST PUSH3 0x273 PUSH1 0x5 SLOAD DUP2 JUMP JUMPDEST PUSH1 0x40 MLOAD SWAP1 DUP2 MSTORE PUSH1 0x20 ADD PUSH3 0x260 JUMP JUMPDEST PUSH3 0x229 PUSH3 0x293 CALLDATASIZE PUSH1 0x4 PUSH3 0xCC8 JUMP JUMPDEST PUSH3 0x5F3 JUMP JUMPDEST PUSH3 0x229 PUSH3 0x2AA CALLDATASIZE PUSH1 0x4 PUSH3 0xCC8 JUMP JUMPDEST PUSH3 0x632 JUMP JUMPDEST PUSH3 0x273 PUSH1 0x2 SLOAD DUP2 JUMP JUMPDEST PUSH3 0x229 PUSH3 0x2CB CALLDATASIZE PUSH1 0x4 PUSH3 0xCC8 JUMP JUMPDEST PUSH3 0x6C2 JUMP JUMPDEST PUSH3 0x229 PUSH3 0x2E2 CALLDATASIZE PUSH1 0x4 PUSH3 0xCED JUMP JUMPDEST PUSH3 0x711 JUMP JUMPDEST PUSH3 0x273 PUSH1 0x3 SLOAD DUP2 JUMP JUMPDEST PUSH3 0x273 PUSH3 0x303 CALLDATASIZE PUSH1 0x4 PUSH3 0xD18 JUMP JUMPDEST PUSH3 0x753 JUMP JUMPDEST PUSH1 0xB SLOAD PUSH3 0x273 JUMP JUMPDEST PUSH3 0x24C PUSH3 0x323 CALLDATASIZE PUSH1 0x4 PUSH3 0xD36 JUMP JUMPDEST PUSH1 0xA PUSH1 0x20 SWAP1 DUP2 MSTORE PUSH1 0x0 SWAP4 DUP5 MSTORE PUSH1 0x40 DUP1 DUP6 KECCAK256 DUP3 MSTORE SWAP3 DUP5 MSTORE DUP3 DUP5 KECCAK256 SWAP1 MSTORE DUP3 MSTORE SWAP1 KECCAK256 SLOAD PUSH1 0x1 PUSH1 0x1 PUSH1 0xA0 SHL SUB AND DUP2 JUMP JUMPDEST PUSH3 0x229 PUSH3 0x360 CALLDATASIZE PUSH1 0x4 PUSH3 0xCED JUMP JUMPDEST PUSH3 0x76E JUMP JUMPDEST PUSH1 0x8 SLOAD PUSH3 0x24C SWAP1 PUSH1 0x1 PUSH1 0x1 PUSH1 0xA0 SHL SUB AND DUP2 JUMP JUMPDEST PUSH3 0x24C PUSH3 0x38B CALLDATASIZE PUSH1 0x4 PUSH3 0xD36 JUMP JUMPDEST PUSH3 0x7A0 JUMP JUMPDEST PUSH1 0x7 SLOAD PUSH3 0x24C SWAP1 PUSH1 0x1 PUSH1 0x1 PUSH1 0xA0 SHL SUB AND DUP2 JUMP JUMPDEST PUSH3 0x273 PUSH1 0x4 SLOAD DUP2 JUMP JUMPDEST PUSH1 0x1 SLOAD PUSH3 0x24C SWAP1 PUSH1 0x1 PUSH1 0x1 PUSH1 0xA0 SHL SUB AND DUP2 JUMP JUMPDEST PUSH3 0x273 PUSH3 0xA8B JUMP JUMPDEST PUSH1 0x0 SLOAD PUSH3 0x24C SWAP1 PUSH2 0x100 SWAP1 DIV PUSH1 0x1 PUSH1 0x1 PUSH1 0xA0 SHL SUB AND DUP2 JUMP JUMPDEST PUSH1 0x0 SLOAD PUSH3 0x3F4 SWAP1 PUSH1 0xFF AND DUP2 JUMP JUMPDEST PUSH1 0x40 MLOAD SWAP1 ISZERO ISZERO DUP2 MSTORE PUSH1 0x20 ADD PUSH3 0x260 JUMP JUMPDEST PUSH3 0x273 PUSH1 0x19 DUP2 JUMP JUMPDEST PUSH3 0x229 PUSH3 0x41F CALLDATASIZE PUSH1 0x4 PUSH3 0xD18 JUMP JUMPDEST PUSH3 0xABF JUMP JUMPDEST PUSH1 0x9 SLOAD PUSH3 0x24C SWAP1 PUSH1 0x1 PUSH1 0x1 PUSH1 0xA0 SHL SUB AND DUP2 JUMP JUMPDEST PUSH1 0x6 SLOAD PUSH3 0x24C SWAP1 PUSH1 0x1 PUSH1 0x1 PUSH1 0xA0 SHL SUB AND DUP2 JUMP JUMPDEST PUSH3 0x229 PUSH3 0x45E CALLDATASIZE PUSH1 0x4 PUSH3 0xD80 JUMP JUMPDEST PUSH3 0xAEF JUMP JUMPDEST PUSH3 0x3F4 PUSH3 0x475 CALLDATASIZE PUSH1 0x4 PUSH3 0xCC8 JUMP JUMPDEST PUSH1 0xC PUSH1 0x20 MSTORE PUSH1 0x0 SWAP1 DUP2 MSTORE PUSH1 0x40 SWAP1 KECCAK256 SLOAD PUSH1 0xFF AND DUP2 JUMP JUMPDEST PUSH1 0xD SLOAD PUSH1 0xE SLOAD PUSH1 0x40 DUP1 MLOAD PUSH1 0x1 PUSH1 0x1 PUSH1 0xA0 SHL SUB SWAP4 DUP5 AND DUP2 MSTORE SWAP3 DUP3 AND PUSH1 0x20 DUP5 ADD MSTORE PUSH1 0x1 PUSH1 0xA0 SHL SWAP1 SWAP2 DIV PUSH1 0xFF AND ISZERO ISZERO SWAP1 DUP3 ADD MSTORE PUSH1 0x60 ADD PUSH3 0x260 JUMP JUMPDEST PUSH3 0x229 PUSH3 0xBB9 JUMP JUMPDEST PUSH3 0x4D7 PUSH3 0xC39 JUMP JUMPDEST PUSH1 0x40 MLOAD PUSH3 0x260 SWAP2 SWAP1 PUSH3 0xDAD JUMP JUMPDEST PUSH1 0x6 SLOAD PUSH1 0x1 PUSH1 0x1 PUSH1 0xA0 SHL SUB AND CALLER EQ PUSH3 0x51C JUMPI PUSH1 0x40 MLOAD PUSH3 0x461BCD PUSH1 0xE5 SHL DUP2 MSTORE PUSH1 0x4 ADD PUSH3 0x513 SWAP1 PUSH3 0xDFC JUMP JUMPDEST PUSH1 0x40 MLOAD DUP1 SWAP2 SUB SWAP1 REVERT JUMPDEST PUSH1 0x1 PUSH1 0x1 PUSH1 0xA0 SHL SUB DUP2 AND PUSH3 0x563 JUMPI PUSH1 0x40 MLOAD PUSH3 0x461BCD PUSH1 0xE5 SHL DUP2 MSTORE PUSH1 0x20 PUSH1 0x4 DUP3 ADD MSTORE PUSH1 0xC PUSH1 0x24 DUP3 ADD MSTORE PUSH12 0x61646472657373207A65726F PUSH1 0xA0 SHL PUSH1 0x44 DUP3 ADD MSTORE PUSH1 0x64 ADD PUSH3 0x513 JUMP JUMPDEST PUSH1 0x8 DUP1 SLOAD PUSH1 0x1 PUSH1 0x1 PUSH1 0xA0 SHL SUB NOT AND PUSH1 0x1 PUSH1 0x1 PUSH1 0xA0 SHL SUB SWAP3 SWAP1 SWAP3 AND SWAP2 SWAP1 SWAP2 OR SWAP1 SSTORE JUMP JUMPDEST PUSH1 0x1 SLOAD PUSH1 0x1 PUSH1 0x1 PUSH1 0xA0 SHL SUB AND CALLER EQ PUSH3 0x59D JUMPI PUSH1 0x0 DUP1 REVERT JUMPDEST PUSH1 0x1 SLOAD PUSH1 0x0 DUP1 SLOAD PUSH1 0x1 PUSH1 0x1 PUSH1 0xA0 SHL SUB SWAP1 SWAP3 AND PUSH2 0x100 MUL PUSH2 0x100 PUSH1 0x1 PUSH1 0xA8 SHL SUB NOT SWAP1 SWAP3 AND SWAP2 SWAP1 SWAP2 OR SWAP1 SSTORE JUMP JUMPDEST PUSH1 0xB DUP2 DUP2 SLOAD DUP2 LT PUSH3 0x5D9 JUMPI PUSH1 0x0 DUP1 REVERT JUMPDEST PUSH1 0x0 SWAP2 DUP3 MSTORE PUSH1 0x20 SWAP1 SWAP2 KECCAK256 ADD SLOAD PUSH1 0x1 PUSH1 0x1 PUSH1 0xA0 SHL SUB AND SWAP1 POP DUP2 JUMP JUMPDEST PUSH1 0x0 SLOAD PUSH2 0x100 SWAP1 DIV PUSH1 0x1 PUSH1 0x1 PUSH1 0xA0 SHL SUB AND CALLER EQ PUSH3 0x610 JUMPI PUSH1 0x0 DUP1 REVERT JUMPDEST PUSH1 0x1 DUP1 SLOAD PUSH1 0x1 PUSH1 0x1 PUSH1 0xA0 SHL SUB NOT AND PUSH1 0x1 PUSH1 0x1 PUSH1 0xA0 SHL SUB SWAP3 SWAP1 SWAP3 AND SWAP2 SWAP1 SWAP2 OR SWAP1 SSTORE JUMP JUMPDEST PUSH1 0x6 SLOAD PUSH1 0x1 PUSH1 0x1 PUSH1 0xA0 SHL SUB AND CALLER EQ PUSH3 0x65F JUMPI PUSH1 0x40 MLOAD PUSH3 0x461BCD PUSH1 0xE5 SHL DUP2 MSTORE PUSH1 0x4 ADD PUSH3 0x513 SWAP1 PUSH3 0xDFC JUMP JUMPDEST PUSH1 0x1 PUSH1 0x1 PUSH1 0xA0 SHL SUB DUP2 AND PUSH3 0x6A0 JUMPI PUSH1 0x40 MLOAD PUSH3 0x461BCD PUSH1 0xE5 SHL DUP2 MSTORE PUSH1 0x20 PUSH1 0x4 DUP3 ADD MSTORE PUSH1 0x6 PUSH1 0x24 DUP3 ADD MSTORE PUSH6 0x61646472203 PUSH1 0xD4 SHL PUSH1 0x44 DUP3 ADD MSTORE PUSH1 0x64 ADD PUSH3 0x513 JUMP JUMPDEST PUSH1 0x9 DUP1 SLOAD PUSH1 0x1 PUSH1 0x1 PUSH1 0xA0 SHL SUB NOT AND PUSH1 0x1 PUSH1 0x1 PUSH1 0xA0 SHL SUB SWAP3 SWAP1 SWAP3 AND SWAP2 SWAP1 SWAP2 OR SWAP1 SSTORE JUMP JUMPDEST PUSH1 0x6 SLOAD PUSH1 0x1 PUSH1 0x1 PUSH1 0xA0 SHL SUB AND CALLER EQ PUSH3 0x6EF JUMPI PUSH1 0x40 MLOAD PUSH3 0x461BCD PUSH1 0xE5 SHL DUP2 MSTORE PUSH1 0x4 ADD PUSH3 0x513 SWAP1 PUSH3 0xDFC JUMP JUMPDEST PUSH1 0x7 DUP1 SLOAD PUSH1 0x1 PUSH1 0x1 PUSH1 0xA0 SHL SUB NOT AND PUSH1 0x1 PUSH1 0x1 PUSH1 0xA0 SHL SUB SWAP3 SWAP1 SWAP3 AND SWAP2 SWAP1 SWAP2 OR SWAP1 SSTORE JUMP JUMPDEST PUSH1 0x6 SLOAD PUSH1 0x1 PUSH1 0x1 PUSH1 0xA0 SHL SUB AND CALLER EQ PUSH3 0x73E JUMPI PUSH1 0x40 MLOAD PUSH3 0x461BCD PUSH1 0xE5 SHL DUP2 MSTORE PUSH1 0x4 ADD PUSH3 0x513 SWAP1 PUSH3 0xDFC JUMP JUMPDEST PUSH2 0xBB8 DUP2 GT ISZERO PUSH3 0x74E JUMPI PUSH1 0x0 DUP1 REVERT JUMPDEST PUSH1 0x4 SSTORE JUMP JUMPDEST PUSH1 0x0 DUP2 PUSH3 0x764 JUMPI PUSH1 0x3 SLOAD PUSH3 0x768 JUMP JUMPDEST PUSH1 0x2 SLOAD JUMPDEST SWAP3 SWAP2 POP POP JUMP JUMPDEST PUSH1 0x6 SLOAD PUSH1 0x1 PUSH1 0x1 PUSH1 0xA0 SHL SUB AND CALLER EQ PUSH3 0x79B JUMPI PUSH1 0x40 MLOAD PUSH3 0x461BCD PUSH1 0xE5 SHL DUP2 MSTORE PUSH1 0x4 ADD PUSH3 0x513 SWAP1 PUSH3 0xDFC JUMP JUMPDEST PUSH1 0x5 SSTORE JUMP JUMPDEST PUSH1 0x0 DUP3 PUSH1 0x1 PUSH1 0x1 PUSH1 0xA0 SHL SUB AND DUP5 PUSH1 0x1 PUSH1 0x1 PUSH1 0xA0 SHL SUB AND SUB PUSH3 0x7EA JUMPI PUSH1 0x40 MLOAD PUSH3 0x461BCD PUSH1 0xE5 SHL DUP2 MSTORE PUSH1 0x20 PUSH1 0x4 DUP3 ADD MSTORE PUSH1 0x2 PUSH1 0x24 DUP3 ADD MSTORE PUSH2 0x4941 PUSH1 0xF0 SHL PUSH1 0x44 DUP3 ADD MSTORE PUSH1 0x64 ADD PUSH3 0x513 JUMP JUMPDEST PUSH1 0x0 DUP1 DUP5 PUSH1 0x1 PUSH1 0x1 PUSH1 0xA0 SHL SUB AND DUP7 PUSH1 0x1 PUSH1 0x1 PUSH1 0xA0 SHL SUB AND LT PUSH3 0x80F JUMPI DUP5 DUP7 PUSH3 0x812 JUMP JUMPDEST DUP6 DUP6 JUMPDEST SWAP1 SWAP3 POP SWAP1 POP PUSH1 0x1 PUSH1 0x1 PUSH1 0xA0 SHL SUB DUP3 AND PUSH3 0x854 JUMPI PUSH1 0x40 MLOAD PUSH3 0x461BCD PUSH1 0xE5 SHL DUP2 MSTORE PUSH1 0x20 PUSH1 0x4 DUP3 ADD MSTORE PUSH1 0x2 PUSH1 0x24 DUP3 ADD MSTORE PUSH2 0x5A41 PUSH1 0xF0 SHL PUSH1 0x44 DUP3 ADD MSTORE PUSH1 0x64 ADD PUSH3 0x513 JUMP JUMPDEST PUSH1 0x1 PUSH1 0x1 PUSH1 0xA0 SHL SUB DUP3 DUP2 AND PUSH1 0x0 SWAP1 DUP2 MSTORE PUSH1 0xA PUSH1 0x20 SWAP1 DUP2 MSTORE PUSH1 0x40 DUP1 DUP4 KECCAK256 DUP6 DUP6 AND DUP5 MSTORE DUP3 MSTORE DUP1 DUP4 KECCAK256 DUP9 ISZERO ISZERO DUP5 MSTORE SWAP1 SWAP2 MSTORE SWAP1 KECCAK256 SLOAD AND ISZERO PUSH3 0x8BA JUMPI PUSH1 0x40 MLOAD PUSH3 0x461BCD PUSH1 0xE5 SHL DUP2 MSTORE PUSH1 0x20 PUSH1 0x4 DUP3 ADD MSTORE PUSH1 0x2 PUSH1 0x24 DUP3 ADD MSTORE PUSH2 0x5045 PUSH1 0xF0 SHL PUSH1 0x44 DUP3 ADD MSTORE PUSH1 0x64 ADD PUSH3 0x513 JUMP JUMPDEST PUSH1 0x40 MLOAD PUSH12 0xFFFFFFFFFFFFFFFFFFFFFFFF NOT PUSH1 0x60 DUP5 DUP2 SHL DUP3 AND PUSH1 0x20 DUP5 ADD MSTORE DUP4 SWAP1 SHL AND PUSH1 0x34 DUP3 ADD MSTORE DUP5 ISZERO ISZERO PUSH1 0xF8 SHL PUSH1 0x48 DUP3 ADD MSTORE PUSH1 0x0 SWAP1 PUSH1 0x49 ADD PUSH1 0x40 DUP1 MLOAD PUSH1 0x1F NOT DUP2 DUP5 SUB ADD DUP2 MSTORE SWAP1 DUP3 SWAP1 MSTORE DUP1 MLOAD PUSH1 0x20 SWAP1 SWAP2 ADD KECCAK256 PUSH1 0xE DUP1 SLOAD PUSH1 0x1 PUSH1 0x1 PUSH1 0xA0 SHL SUB DUP1 DUP8 AND PUSH1 0x1 PUSH1 0x1 PUSH1 0xA0 SHL SUB NOT DUP12 ISZERO ISZERO PUSH1 0x1 PUSH1 0xA0 SHL MUL DUP2 AND PUSH1 0x1 PUSH1 0x1 PUSH1 0xA8 SHL SUB NOT SWAP1 SWAP5 AND SWAP4 SWAP1 SWAP4 OR OR SWAP1 SWAP3 SSTORE PUSH1 0xD DUP1 SLOAD SWAP3 DUP9 AND SWAP3 SWAP1 SWAP2 AND SWAP2 SWAP1 SWAP2 OR SWAP1 SSTORE SWAP2 POP DUP2 SWAP1 PUSH3 0x961 SWAP1 PUSH3 0xC9D JUMP JUMPDEST DUP2 SWAP1 PUSH1 0x40 MLOAD DUP1 SWAP2 SUB SWAP1 PUSH1 0x0 CREATE2 SWAP1 POP DUP1 ISZERO DUP1 ISZERO PUSH3 0x982 JUMPI RETURNDATASIZE PUSH1 0x0 DUP1 RETURNDATACOPY RETURNDATASIZE PUSH1 0x0 REVERT JUMPDEST POP PUSH1 0x1 PUSH1 0x1 PUSH1 0xA0 SHL SUB DUP5 DUP2 AND PUSH1 0x0 DUP2 DUP2 MSTORE PUSH1 0xA PUSH1 0x20 DUP2 DUP2 MSTORE PUSH1 0x40 DUP1 DUP5 KECCAK256 DUP10 DUP8 AND DUP1 DUP7 MSTORE SWAP1 DUP4 MSTORE DUP2 DUP6 KECCAK256 DUP14 ISZERO ISZERO DUP1 DUP8 MSTORE SWAP1 DUP5 MSTORE DUP3 DUP7 KECCAK256 DUP1 SLOAD SWAP9 DUP11 AND PUSH1 0x1 PUSH1 0x1 PUSH1 0xA0 SHL SUB NOT SWAP10 DUP11 AND DUP2 OR SWAP1 SWAP2 SSTORE DUP3 DUP8 MSTORE SWAP5 DUP5 MSTORE DUP3 DUP7 KECCAK256 DUP8 DUP8 MSTORE DUP5 MSTORE DUP3 DUP7 KECCAK256 DUP2 DUP8 MSTORE DUP5 MSTORE DUP3 DUP7 KECCAK256 DUP1 SLOAD DUP10 AND DUP7 OR SWAP1 SSTORE PUSH1 0xB DUP1 SLOAD PUSH1 0x1 DUP2 DUP2 ADD DUP4 SSTORE PUSH32 0x175B7A638427703F0DBE7BB9BBF987A2551717B34E79F33B5B1008D1FA01DB9 SWAP1 SWAP2 ADD DUP1 SLOAD SWAP1 SWAP11 AND DUP8 OR SWAP1 SWAP10 SSTORE DUP6 DUP8 MSTORE PUSH1 0xC DUP6 MSTORE SWAP6 DUP4 SWAP1 KECCAK256 DUP1 SLOAD PUSH1 0xFF NOT AND SWAP1 SWAP9 OR SWAP1 SWAP8 SSTORE SWAP4 SLOAD DUP2 MLOAD SWAP7 DUP8 MSTORE SWAP2 DUP7 ADD SWAP3 SWAP1 SWAP3 MSTORE SWAP1 DUP5 ADD MSTORE SWAP3 SWAP7 POP SWAP1 PUSH32 0xC4805696C66D7CF352FC1D6BB633AD5EE82F6CB577C453024B6E0EB8306C6FC9 SWAP1 PUSH1 0x60 ADD PUSH1 0x40 MLOAD DUP1 SWAP2 SUB SWAP1 LOG3 POP POP POP SWAP4 SWAP3 POP POP POP JUMP JUMPDEST PUSH1 0x0 PUSH1 0x40 MLOAD DUP1 PUSH1 0x20 ADD PUSH3 0xA9F SWAP1 PUSH3 0xC9D JUMP JUMPDEST PUSH1 0x20 DUP3 ADD DUP2 SUB DUP3 MSTORE PUSH1 0x1F NOT PUSH1 0x1F DUP3 ADD AND PUSH1 0x40 MSTORE POP DUP1 MLOAD SWAP1 PUSH1 0x20 ADD KECCAK256 SWAP1 POP SWAP1 JUMP JUMPDEST PUSH1 0x0 SLOAD PUSH2 0x100 SWAP1 DIV PUSH1 0x1 PUSH1 0x1 PUSH1 0xA0 SHL SUB AND CALLER EQ PUSH3 0xADC JUMPI PUSH1 0x0 DUP1 REVERT JUMPDEST PUSH1 0x0 DUP1 SLOAD PUSH1 0xFF NOT AND SWAP2 ISZERO ISZERO SWAP2 SWAP1 SWAP2 OR SWAP1 SSTORE JUMP JUMPDEST PUSH1 0x6 SLOAD PUSH1 0x1 PUSH1 0x1 PUSH1 0xA0 SHL SUB AND CALLER EQ PUSH3 0xB1C JUMPI PUSH1 0x40 MLOAD PUSH3 0x461BCD PUSH1 0xE5 SHL DUP2 MSTORE PUSH1 0x4 ADD PUSH3 0x513 SWAP1 PUSH3 0xDFC JUMP JUMPDEST PUSH1 0x19 DUP2 GT ISZERO PUSH3 0xB5E JUMPI PUSH1 0x40 MLOAD PUSH3 0x461BCD PUSH1 0xE5 SHL DUP2 MSTORE PUSH1 0x20 PUSH1 0x4 DUP3 ADD MSTORE PUSH1 0xC PUSH1 0x24 DUP3 ADD MSTORE PUSH12 0xCCCACA40E8DEDE40D0D2CED PUSH1 0xA3 SHL PUSH1 0x44 DUP3 ADD MSTORE PUSH1 0x64 ADD PUSH3 0x513 JUMP JUMPDEST DUP1 PUSH1 0x0 SUB PUSH3 0xBA6 JUMPI PUSH1 0x40 MLOAD PUSH3 0x461BCD PUSH1 0xE5 SHL DUP2 MSTORE PUSH1 0x20 PUSH1 0x4 DUP3 ADD MSTORE PUSH1 0x13 PUSH1 0x24 DUP3 ADD MSTORE PUSH19 0x666565206D757374206265206E6F6E7A65726F PUSH1 0x68 SHL PUSH1 0x44 DUP3 ADD MSTORE PUSH1 0x64 ADD PUSH3 0x513 JUMP JUMPDEST DUP2 ISZERO PUSH3 0xBB3 JUMPI PUSH1 0x2 SSTORE POP JUMP JUMPDEST PUSH1 0x3 SSTORE POP JUMP JUMPDEST PUSH1 0x7 SLOAD PUSH1 0x1 PUSH1 0x1 PUSH1 0xA0 SHL SUB AND CALLER EQ PUSH3 0xC15 JUMPI PUSH1 0x40 MLOAD PUSH3 0x461BCD PUSH1 0xE5 SHL DUP2 MSTORE PUSH1 0x20 PUSH1 0x4 DUP3 ADD MSTORE PUSH1 0x17 PUSH1 0x24 DUP3 ADD MSTORE PUSH32 0x6E6F742070656E64696E6720666565206D616E61676572000000000000000000 PUSH1 0x44 DUP3 ADD MSTORE PUSH1 0x64 ADD PUSH3 0x513 JUMP JUMPDEST PUSH1 0x7 SLOAD PUSH1 0x6 DUP1 SLOAD PUSH1 0x1 PUSH1 0x1 PUSH1 0xA0 SHL SUB NOT AND PUSH1 0x1 PUSH1 0x1 PUSH1 0xA0 SHL SUB SWAP1 SWAP3 AND SWAP2 SWAP1 SWAP2 OR SWAP1 SSTORE JUMP JUMPDEST PUSH1 0x60 PUSH1 0xB DUP1 SLOAD DUP1 PUSH1 0x20 MUL PUSH1 0x20 ADD PUSH1 0x40 MLOAD SWAP1 DUP2 ADD PUSH1 0x40 MSTORE DUP1 SWAP3 SWAP2 SWAP1 DUP2 DUP2 MSTORE PUSH1 0x20 ADD DUP3 DUP1 SLOAD DUP1 ISZERO PUSH3 0xC93 JUMPI PUSH1 0x20 MUL DUP3 ADD SWAP2 SWAP1 PUSH1 0x0 MSTORE PUSH1 0x20 PUSH1 0x0 KECCAK256 SWAP1 JUMPDEST DUP2 SLOAD PUSH1 0x1 PUSH1 0x1 PUSH1 0xA0 SHL SUB AND DUP2 MSTORE PUSH1 0x1 SWAP1 SWAP2 ADD SWAP1 PUSH1 0x20 ADD DUP1 DUP4 GT PUSH3 0xC74 JUMPI JUMPDEST POP POP POP POP POP SWAP1 POP SWAP1 JUMP JUMPDEST PUSH2 0x5039 DUP1 PUSH3 0xE26 DUP4 CODECOPY ADD SWAP1 JUMP JUMPDEST DUP1 CALLDATALOAD PUSH1 0x1 PUSH1 0x1 PUSH1 0xA0 SHL SUB DUP2 AND DUP2 EQ PUSH3 0xCC3 JUMPI PUSH1 0x0 DUP1 REVERT JUMPDEST SWAP2 SWAP1 POP JUMP JUMPDEST PUSH1 0x0 PUSH1 0x20 DUP3 DUP5 SUB SLT ISZERO PUSH3 0xCDB JUMPI PUSH1 0x0 DUP1 REVERT JUMPDEST PUSH3 0xCE6 DUP3 PUSH3 0xCAB JUMP JUMPDEST SWAP4 SWAP3 POP POP POP JUMP JUMPDEST PUSH1 0x0 PUSH1 0x20 DUP3 DUP5 SUB SLT ISZERO PUSH3 0xD00 JUMPI PUSH1 0x0 DUP1 REVERT JUMPDEST POP CALLDATALOAD SWAP2 SWAP1 POP JUMP JUMPDEST DUP1 CALLDATALOAD DUP1 ISZERO ISZERO DUP2 EQ PUSH3 0xCC3 JUMPI PUSH1 0x0 DUP1 REVERT JUMPDEST PUSH1 0x0 PUSH1 0x20 DUP3 DUP5 SUB SLT ISZERO PUSH3 0xD2B JUMPI PUSH1 0x0 DUP1 REVERT JUMPDEST PUSH3 0xCE6 DUP3 PUSH3 0xD07 JUMP JUMPDEST PUSH1 0x0 DUP1 PUSH1 0x0 PUSH1 0x60 DUP5 DUP7 SUB SLT ISZERO PUSH3 0xD4C JUMPI PUSH1 0x0 DUP1 REVERT JUMPDEST PUSH3 0xD57 DUP5 PUSH3 0xCAB JUMP JUMPDEST SWAP3 POP PUSH3 0xD67 PUSH1 0x20 DUP6 ADD PUSH3 0xCAB JUMP JUMPDEST SWAP2 POP PUSH3 0xD77 PUSH1 0x40 DUP6 ADD PUSH3 0xD07 JUMP JUMPDEST SWAP1 POP SWAP3 POP SWAP3 POP SWAP3 JUMP JUMPDEST PUSH1 0x0 DUP1 PUSH1 0x40 DUP4 DUP6 SUB SLT ISZERO PUSH3 0xD94 JUMPI PUSH1 0x0 DUP1 REVERT JUMPDEST PUSH3 0xD9F DUP4 PUSH3 0xD07 JUMP JUMPDEST SWAP5 PUSH1 0x20 SWAP4 SWAP1 SWAP4 ADD CALLDATALOAD SWAP4 POP POP POP JUMP JUMPDEST PUSH1 0x20 DUP1 DUP3 MSTORE DUP3 MLOAD DUP3 DUP3 ADD DUP2 SWAP1 MSTORE PUSH1 0x0 SWAP2 SWAP1 DUP5 DUP3 ADD SWAP1 PUSH1 0x40 DUP6 ADD SWAP1 DUP5 JUMPDEST DUP2 DUP2 LT ISZERO PUSH3 0xDF0 JUMPI DUP4 MLOAD PUSH1 0x1 PUSH1 0x1 PUSH1 0xA0 SHL SUB AND DUP4 MSTORE SWAP3 DUP5 ADD SWAP3 SWAP2 DUP5 ADD SWAP2 PUSH1 0x1 ADD PUSH3 0xDC9 JUMP JUMPDEST POP SWAP1 SWAP7 SWAP6 POP POP POP POP POP POP JUMP JUMPDEST PUSH1 0x20 DUP1 DUP3 MSTORE PUSH1 0xF SWAP1 DUP3 ADD MSTORE PUSH15 0x3737BA103332B29036B0B730B3B2B9 PUSH1 0x89 SHL PUSH1 0x40 DUP3 ADD MSTORE PUSH1 0x60 ADD SWAP1 JUMP INVALID PUSH2 0x160 PUSH1 0x40 MSTORE PUSH1 0x0 PUSH1 0x2 SSTORE PUSH1 0x0 PUSH1 0xD SSTORE PUSH1 0x0 PUSH1 0xE SSTORE PUSH1 0x1 PUSH1 0x13 SSTORE CALLVALUE DUP1 ISZERO PUSH3 0x26 JUMPI PUSH1 0x0 DUP1 REVERT JUMPDEST POP CALLER PUSH1 0x1 PUSH1 0x1 PUSH1 0xA0 SHL SUB AND PUSH2 0x100 DUP2 PUSH1 0x1 PUSH1 0x1 PUSH1 0xA0 SHL SUB AND DUP2 MSTORE POP POP PUSH1 0x0 DUP1 PUSH1 0x0 CALLER PUSH1 0x1 PUSH1 0x1 PUSH1 0xA0 SHL SUB AND PUSH4 0xEB13C4CF PUSH1 0x40 MLOAD DUP2 PUSH4 0xFFFFFFFF AND PUSH1 0xE0 SHL DUP2 MSTORE PUSH1 0x4 ADD PUSH1 0x60 PUSH1 0x40 MLOAD DUP1 DUP4 SUB DUP2 DUP7 GAS STATICCALL ISZERO DUP1 ISZERO PUSH3 0x86 JUMPI RETURNDATASIZE PUSH1 0x0 DUP1 RETURNDATACOPY RETURNDATASIZE PUSH1 0x0 REVERT JUMPDEST POP POP POP POP PUSH1 0x40 MLOAD RETURNDATASIZE PUSH1 0x1F NOT PUSH1 0x1F DUP3 ADD AND DUP3 ADD DUP1 PUSH1 0x40 MSTORE POP DUP2 ADD SWAP1 PUSH3 0xAC SWAP2 SWAP1 PUSH3 0x7C8 JUMP JUMPDEST DUP1 ISZERO ISZERO PUSH1 0x80 MSTORE PUSH1 0x1 PUSH1 0x1 PUSH1 0xA0 SHL SUB DUP1 DUP4 AND PUSH1 0xC0 MSTORE DUP4 AND PUSH1 0xA0 MSTORE PUSH1 0x40 MLOAD SWAP3 SWAP6 POP SWAP1 SWAP4 POP SWAP2 POP DUP4 SWAP1 DUP4 SWAP1 PUSH3 0xDF SWAP1 PUSH3 0x6F7 JUMP JUMPDEST PUSH1 0x1 PUSH1 0x1 PUSH1 0xA0 SHL SUB SWAP3 DUP4 AND DUP2 MSTORE SWAP2 AND PUSH1 0x20 DUP3 ADD MSTORE PUSH1 0x40 ADD PUSH1 0x40 MLOAD DUP1 SWAP2 SUB SWAP1 PUSH1 0x0 CREATE DUP1 ISZERO DUP1 ISZERO PUSH3 0x113 JUMPI RETURNDATASIZE PUSH1 0x0 DUP1 RETURNDATACOPY RETURNDATASIZE PUSH1 0x0 REVERT JUMPDEST POP PUSH1 0x1 PUSH1 0x1 PUSH1 0xA0 SHL SUB AND PUSH1 0xE0 MSTORE DUP1 ISZERO PUSH3 0x345 JUMPI DUP3 PUSH1 0x1 PUSH1 0x1 PUSH1 0xA0 SHL SUB AND PUSH4 0x95D89B41 PUSH1 0x40 MLOAD DUP2 PUSH4 0xFFFFFFFF AND PUSH1 0xE0 SHL DUP2 MSTORE PUSH1 0x4 ADD PUSH1 0x0 PUSH1 0x40 MLOAD DUP1 DUP4 SUB DUP2 DUP7 GAS STATICCALL ISZERO DUP1 ISZERO PUSH3 0x166 JUMPI RETURNDATASIZE PUSH1 0x0 DUP1 RETURNDATACOPY RETURNDATASIZE PUSH1 0x0 REVERT JUMPDEST POP POP POP POP PUSH1 0x40 MLOAD RETURNDATASIZE PUSH1 0x0 DUP3 RETURNDATACOPY PUSH1 0x1F RETURNDATASIZE SWAP1 DUP2 ADD PUSH1 0x1F NOT AND DUP3 ADD PUSH1 0x40 MSTORE PUSH3 0x190 SWAP2 SWAP1 DUP2 ADD SWAP1 PUSH3 0x863 JUMP JUMPDEST DUP3 PUSH1 0x1 PUSH1 0x1 PUSH1 0xA0 SHL SUB AND PUSH4 0x95D89B41 PUSH1 0x40 MLOAD DUP2 PUSH4 0xFFFFFFFF AND PUSH1 0xE0 SHL DUP2 MSTORE PUSH1 0x4 ADD PUSH1 0x0 PUSH1 0x40 MLOAD DUP1 DUP4 SUB DUP2 DUP7 GAS STATICCALL ISZERO DUP1 ISZERO PUSH3 0x1CF JUMPI RETURNDATASIZE PUSH1 0x0 DUP1 RETURNDATACOPY RETURNDATASIZE PUSH1 0x0 REVERT JUMPDEST POP POP POP POP PUSH1 0x40 MLOAD RETURNDATASIZE PUSH1 0x0 DUP3 RETURNDATACOPY PUSH1 0x1F RETURNDATASIZE SWAP1 DUP2 ADD PUSH1 0x1F NOT AND DUP3 ADD PUSH1 0x40 MSTORE PUSH3 0x1F9 SWAP2 SWAP1 DUP2 ADD SWAP1 PUSH3 0x863 JUMP JUMPDEST PUSH1 0x40 MLOAD PUSH1 0x20 ADD PUSH3 0x20C SWAP3 SWAP2 SWAP1 PUSH3 0x91B JUMP JUMPDEST PUSH1 0x40 MLOAD PUSH1 0x20 DUP2 DUP4 SUB SUB DUP2 MSTORE SWAP1 PUSH1 0x40 MSTORE PUSH1 0x0 SWAP1 DUP1 MLOAD SWAP1 PUSH1 0x20 ADD SWAP1 PUSH3 0x232 SWAP3 SWAP2 SWAP1 PUSH3 0x705 JUMP JUMPDEST POP DUP3 PUSH1 0x1 PUSH1 0x1 PUSH1 0xA0 SHL SUB AND PUSH4 0x95D89B41 PUSH1 0x40 MLOAD DUP2 PUSH4 0xFFFFFFFF AND PUSH1 0xE0 SHL DUP2 MSTORE PUSH1 0x4 ADD PUSH1 0x0 PUSH1 0x40 MLOAD DUP1 DUP4 SUB DUP2 DUP7 GAS STATICCALL ISZERO DUP1 ISZERO PUSH3 0x272 JUMPI RETURNDATASIZE PUSH1 0x0 DUP1 RETURNDATACOPY RETURNDATASIZE PUSH1 0x0 REVERT JUMPDEST POP POP POP POP PUSH1 0x40 MLOAD RETURNDATASIZE PUSH1 0x0 DUP3 RETURNDATACOPY PUSH1 0x1F RETURNDATASIZE SWAP1 DUP2 ADD PUSH1 0x1F NOT AND DUP3 ADD PUSH1 0x40 MSTORE PUSH3 0x29C SWAP2 SWAP1 DUP2 ADD SWAP1 PUSH3 0x863 JUMP JUMPDEST DUP3 PUSH1 0x1 PUSH1 0x1 PUSH1 0xA0 SHL SUB AND PUSH4 0x95D89B41 PUSH1 0x40 MLOAD DUP2 PUSH4 0xFFFFFFFF AND PUSH1 0xE0 SHL DUP2 MSTORE PUSH1 0x4 ADD PUSH1 0x0 PUSH1 0x40 MLOAD DUP1 DUP4 SUB DUP2 DUP7 GAS STATICCALL ISZERO DUP1 ISZERO PUSH3 0x2DB JUMPI RETURNDATASIZE PUSH1 0x0 DUP1 RETURNDATACOPY RETURNDATASIZE PUSH1 0x0 REVERT JUMPDEST POP POP POP POP PUSH1 0x40 MLOAD RETURNDATASIZE PUSH1 0x0 DUP3 RETURNDATACOPY PUSH1 0x1F RETURNDATASIZE SWAP1 DUP2 ADD PUSH1 0x1F NOT AND DUP3 ADD PUSH1 0x40 MSTORE PUSH3 0x305 SWAP2 SWAP1 DUP2 ADD SWAP1 PUSH3 0x863 JUMP JUMPDEST PUSH1 0x40 MLOAD PUSH1 0x20 ADD PUSH3 0x318 SWAP3 SWAP2 SWAP1 PUSH3 0x976 JUMP JUMPDEST PUSH1 0x40 MLOAD PUSH1 0x20 DUP2 DUP4 SUB SUB DUP2 MSTORE SWAP1 PUSH1 0x40 MSTORE PUSH1 0x1 SWAP1 DUP1 MLOAD SWAP1 PUSH1 0x20 ADD SWAP1 PUSH3 0x33E SWAP3 SWAP2 SWAP1 PUSH3 0x705 JUMP JUMPDEST POP PUSH3 0x55E JUMP JUMPDEST DUP3 PUSH1 0x1 PUSH1 0x1 PUSH1 0xA0 SHL SUB AND PUSH4 0x95D89B41 PUSH1 0x40 MLOAD DUP2 PUSH4 0xFFFFFFFF AND PUSH1 0xE0 SHL DUP2 MSTORE PUSH1 0x4 ADD PUSH1 0x0 PUSH1 0x40 MLOAD DUP1 DUP4 SUB DUP2 DUP7 GAS STATICCALL ISZERO DUP1 ISZERO PUSH3 0x384 JUMPI RETURNDATASIZE PUSH1 0x0 DUP1 RETURNDATACOPY RETURNDATASIZE PUSH1 0x0 REVERT JUMPDEST POP POP POP POP PUSH1 0x40 MLOAD RETURNDATASIZE PUSH1 0x0 DUP3 RETURNDATACOPY PUSH1 0x1F RETURNDATASIZE SWAP1 DUP2 ADD PUSH1 0x1F NOT AND DUP3 ADD PUSH1 0x40 MSTORE PUSH3 0x3AE SWAP2 SWAP1 DUP2 ADD SWAP1 PUSH3 0x863 JUMP JUMPDEST DUP3 PUSH1 0x1 PUSH1 0x1 PUSH1 0xA0 SHL SUB AND PUSH4 0x95D89B41 PUSH1 0x40 MLOAD DUP2 PUSH4 0xFFFFFFFF AND PUSH1 0xE0 SHL DUP2 MSTORE PUSH1 0x4 ADD PUSH1 0x0 PUSH1 0x40 MLOAD DUP1 DUP4 SUB DUP2 DUP7 GAS STATICCALL ISZERO DUP1 ISZERO PUSH3 0x3ED JUMPI RETURNDATASIZE PUSH1 0x0 DUP1 RETURNDATACOPY RETURNDATASIZE PUSH1 0x0 REVERT JUMPDEST POP POP POP POP PUSH1 0x40 MLOAD RETURNDATASIZE PUSH1 0x0 DUP3 RETURNDATACOPY PUSH1 0x1F RETURNDATASIZE SWAP1 DUP2 ADD PUSH1 0x1F NOT AND DUP3 ADD PUSH1 0x40 MSTORE PUSH3 0x417 SWAP2 SWAP1 DUP2 ADD SWAP1 PUSH3 0x863 JUMP JUMPDEST PUSH1 0x40 MLOAD PUSH1 0x20 ADD PUSH3 0x42A SWAP3 SWAP2 SWAP1 PUSH3 0x9C7 JUMP JUMPDEST PUSH1 0x40 MLOAD PUSH1 0x20 DUP2 DUP4 SUB SUB DUP2 MSTORE SWAP1 PUSH1 0x40 MSTORE PUSH1 0x0 SWAP1 DUP1 MLOAD SWAP1 PUSH1 0x20 ADD SWAP1 PUSH3 0x450 SWAP3 SWAP2 SWAP1 PUSH3 0x705 JUMP JUMPDEST POP DUP3 PUSH1 0x1 PUSH1 0x1 PUSH1 0xA0 SHL SUB AND PUSH4 0x95D89B41 PUSH1 0x40 MLOAD DUP2 PUSH4 0xFFFFFFFF AND PUSH1 0xE0 SHL DUP2 MSTORE PUSH1 0x4 ADD PUSH1 0x0 PUSH1 0x40 MLOAD DUP1 DUP4 SUB DUP2 DUP7 GAS STATICCALL ISZERO DUP1 ISZERO PUSH3 0x490 JUMPI RETURNDATASIZE PUSH1 0x0 DUP1 RETURNDATACOPY RETURNDATASIZE PUSH1 0x0 REVERT JUMPDEST POP POP POP POP PUSH1 0x40 MLOAD RETURNDATASIZE PUSH1 0x0 DUP3 RETURNDATACOPY PUSH1 0x1F RETURNDATASIZE SWAP1 DUP2 ADD PUSH1 0x1F NOT AND DUP3 ADD PUSH1 0x40 MSTORE PUSH3 0x4BA SWAP2 SWAP1 DUP2 ADD SWAP1 PUSH3 0x863 JUMP JUMPDEST DUP3 PUSH1 0x1 PUSH1 0x1 PUSH1 0xA0 SHL SUB AND PUSH4 0x95D89B41 PUSH1 0x40 MLOAD DUP2 PUSH4 0xFFFFFFFF AND PUSH1 0xE0 SHL DUP2 MSTORE PUSH1 0x4 ADD PUSH1 0x0 PUSH1 0x40 MLOAD DUP1 DUP4 SUB DUP2 DUP7 GAS STATICCALL ISZERO DUP1 ISZERO PUSH3 0x4F9 JUMPI RETURNDATASIZE PUSH1 0x0 DUP1 RETURNDATACOPY RETURNDATASIZE PUSH1 0x0 REVERT JUMPDEST POP POP POP POP PUSH1 0x40 MLOAD RETURNDATASIZE PUSH1 0x0 DUP3 RETURNDATACOPY PUSH1 0x1F RETURNDATASIZE SWAP1 DUP2 ADD PUSH1 0x1F NOT AND DUP3 ADD PUSH1 0x40 MSTORE PUSH3 0x523 SWAP2 SWAP1 DUP2 ADD SWAP1 PUSH3 0x863 JUMP JUMPDEST PUSH1 0x40 MLOAD PUSH1 0x20 ADD PUSH3 0x536 SWAP3 SWAP2 SWAP1 PUSH3 0xA24 JUMP JUMPDEST PUSH1 0x40 MLOAD PUSH1 0x20 DUP2 DUP4 SUB SUB DUP2 MSTORE SWAP1 PUSH1 0x40 MSTORE PUSH1 0x1 SWAP1 DUP1 MLOAD SWAP1 PUSH1 0x20 ADD SWAP1 PUSH3 0x55C SWAP3 SWAP2 SWAP1 PUSH3 0x705 JUMP JUMPDEST POP JUMPDEST DUP3 PUSH1 0x1 PUSH1 0x1 PUSH1 0xA0 SHL SUB AND PUSH4 0x313CE567 PUSH1 0x40 MLOAD DUP2 PUSH4 0xFFFFFFFF AND PUSH1 0xE0 SHL DUP2 MSTORE PUSH1 0x4 ADD PUSH1 0x20 PUSH1 0x40 MLOAD DUP1 DUP4 SUB DUP2 DUP7 GAS STATICCALL ISZERO DUP1 ISZERO PUSH3 0x59D JUMPI RETURNDATASIZE PUSH1 0x0 DUP1 RETURNDATACOPY RETURNDATASIZE PUSH1 0x0 REVERT JUMPDEST POP POP POP POP PUSH1 0x40 MLOAD RETURNDATASIZE PUSH1 0x1F NOT PUSH1 0x1F DUP3 ADD AND DUP3 ADD DUP1 PUSH1 0x40 MSTORE POP DUP2 ADD SWAP1 PUSH3 0x5C3 SWAP2 SWAP1 PUSH3 0xA46 JUMP JUMPDEST PUSH3 0x5D0 SWAP1 PUSH1 0xA PUSH3 0xB87 JUMP JUMPDEST PUSH2 0x120 DUP2 DUP2 MSTORE POP POP DUP2 PUSH1 0x1 PUSH1 0x1 PUSH1 0xA0 SHL SUB AND PUSH4 0x313CE567 PUSH1 0x40 MLOAD DUP2 PUSH4 0xFFFFFFFF AND PUSH1 0xE0 SHL DUP2 MSTORE PUSH1 0x4 ADD PUSH1 0x20 PUSH1 0x40 MLOAD DUP1 DUP4 SUB DUP2 DUP7 GAS STATICCALL ISZERO DUP1 ISZERO PUSH3 0x617 JUMPI RETURNDATASIZE PUSH1 0x0 DUP1 RETURNDATACOPY RETURNDATASIZE PUSH1 0x0 REVERT JUMPDEST POP POP POP POP PUSH1 0x40 MLOAD RETURNDATASIZE PUSH1 0x1F NOT PUSH1 0x1F DUP3 ADD AND DUP3 ADD DUP1 PUSH1 0x40 MSTORE POP DUP2 ADD SWAP1 PUSH3 0x63D SWAP2 SWAP1 PUSH3 0xA46 JUMP JUMPDEST PUSH3 0x64A SWAP1 PUSH1 0xA PUSH3 0xB87 JUMP JUMPDEST PUSH2 0x140 MSTORE POP POP PUSH1 0x40 DUP1 MLOAD PUSH1 0x60 DUP2 ADD DUP3 MSTORE TIMESTAMP DUP2 MSTORE PUSH1 0x0 PUSH1 0x20 DUP3 ADD DUP2 DUP2 MSTORE SWAP3 DUP3 ADD DUP2 DUP2 MSTORE PUSH1 0x7 DUP1 SLOAD PUSH1 0x1 DUP2 ADD DUP3 SSTORE SWAP3 MSTORE SWAP2 MLOAD PUSH32 0xA66CC928B5EDB82AF9BD49922954155AB7B0942694BEA4CE44661D9A8736C688 PUSH1 0x3 SWAP1 SWAP3 MUL SWAP2 DUP3 ADD SSTORE SWAP2 MLOAD PUSH32 0xA66CC928B5EDB82AF9BD49922954155AB7B0942694BEA4CE44661D9A8736C689 DUP4 ADD SSTORE MLOAD PUSH32 0xA66CC928B5EDB82AF9BD49922954155AB7B0942694BEA4CE44661D9A8736C68A SWAP1 SWAP2 ADD SSTORE POP PUSH3 0xBD4 JUMP JUMPDEST PUSH2 0x5C5 DUP1 PUSH3 0x4A74 DUP4 CODECOPY ADD SWAP1 JUMP JUMPDEST DUP3 DUP1 SLOAD PUSH3 0x713 SWAP1 PUSH3 0xB98 JUMP JUMPDEST SWAP1 PUSH1 0x0 MSTORE PUSH1 0x20 PUSH1 0x0 KECCAK256 SWAP1 PUSH1 0x1F ADD PUSH1 0x20 SWAP1 DIV DUP2 ADD SWAP3 DUP3 PUSH3 0x737 JUMPI PUSH1 0x0 DUP6 SSTORE PUSH3 0x782 JUMP JUMPDEST DUP3 PUSH1 0x1F LT PUSH3 0x752 JUMPI DUP1 MLOAD PUSH1 0xFF NOT AND DUP4 DUP1 ADD OR DUP6 SSTORE PUSH3 0x782 JUMP JUMPDEST DUP3 DUP1 ADD PUSH1 0x1 ADD DUP6 SSTORE DUP3 ISZERO PUSH3 0x782 JUMPI SWAP2 DUP3 ADD JUMPDEST DUP3 DUP2 GT ISZERO PUSH3 0x782 JUMPI DUP3 MLOAD DUP3 SSTORE SWAP2 PUSH1 0x20 ADD SWAP2 SWAP1 PUSH1 0x1 ADD SWAP1 PUSH3 0x765 JUMP JUMPDEST POP PUSH3 0x790 SWAP3 SWAP2 POP PUSH3 0x794 JUMP JUMPDEST POP SWAP1 JUMP JUMPDEST JUMPDEST DUP1 DUP3 GT ISZERO PUSH3 0x790 JUMPI PUSH1 0x0 DUP2 SSTORE PUSH1 0x1 ADD PUSH3 0x795 JUMP JUMPDEST DUP1 MLOAD PUSH1 0x1 PUSH1 0x1 PUSH1 0xA0 SHL SUB DUP2 AND DUP2 EQ PUSH3 0x7C3 JUMPI PUSH1 0x0 DUP1 REVERT JUMPDEST SWAP2 SWAP1 POP JUMP JUMPDEST PUSH1 0x0 DUP1 PUSH1 0x0 PUSH1 0x60 DUP5 DUP7 SUB SLT ISZERO PUSH3 0x7DE JUMPI PUSH1 0x0 DUP1 REVERT JUMPDEST PUSH3 0x7E9 DUP5 PUSH3 0x7AB JUMP JUMPDEST SWAP3 POP PUSH3 0x7F9 PUSH1 0x20 DUP6 ADD PUSH3 0x7AB JUMP JUMPDEST SWAP2 POP PUSH1 0x40 DUP5 ADD MLOAD DUP1 ISZERO ISZERO DUP2 EQ PUSH3 0x80F JUMPI PUSH1 0x0 DUP1 REVERT JUMPDEST DUP1 SWAP2 POP POP SWAP3 POP SWAP3 POP SWAP3 JUMP JUMPDEST PUSH4 0x4E487B71 PUSH1 0xE0 SHL PUSH1 0x0 MSTORE PUSH1 0x41 PUSH1 0x4 MSTORE PUSH1 0x24 PUSH1 0x0 REVERT JUMPDEST PUSH1 0x0 JUMPDEST DUP4 DUP2 LT ISZERO PUSH3 0x84D JUMPI DUP2 DUP2 ADD MLOAD DUP4 DUP3 ADD MSTORE PUSH1 0x20 ADD PUSH3 0x833 JUMP JUMPDEST DUP4 DUP2 GT ISZERO PUSH3 0x85D JUMPI PUSH1 0x0 DUP5 DUP5 ADD MSTORE JUMPDEST POP POP POP POP JUMP JUMPDEST PUSH1 0x0 PUSH1 0x20 DUP3 DUP5 SUB SLT ISZERO PUSH3 0x876 JUMPI PUSH1 0x0 DUP1 REVERT JUMPDEST DUP2 MLOAD PUSH1 0x1 PUSH1 0x1 PUSH1 0x40 SHL SUB DUP1 DUP3 GT ISZERO PUSH3 0x88E JUMPI PUSH1 0x0 DUP1 REVERT JUMPDEST DUP2 DUP5 ADD SWAP2 POP DUP5 PUSH1 0x1F DUP4 ADD SLT PUSH3 0x8A3 JUMPI PUSH1 0x0 DUP1 REVERT JUMPDEST DUP2 MLOAD DUP2 DUP2 GT ISZERO PUSH3 0x8B8 JUMPI PUSH3 0x8B8 PUSH3 0x81A JUMP JUMPDEST PUSH1 0x40 MLOAD PUSH1 0x1F DUP3 ADD PUSH1 0x1F NOT SWAP1 DUP2 AND PUSH1 0x3F ADD AND DUP2 ADD SWAP1 DUP4 DUP3 GT DUP2 DUP4 LT OR ISZERO PUSH3 0x8E3 JUMPI PUSH3 0x8E3 PUSH3 0x81A JUMP JUMPDEST DUP2 PUSH1 0x40 MSTORE DUP3 DUP2 MSTORE DUP8 PUSH1 0x20 DUP5 DUP8 ADD ADD GT ISZERO PUSH3 0x8FD JUMPI PUSH1 0x0 DUP1 REVERT JUMPDEST PUSH3 0x910 DUP4 PUSH1 0x20 DUP4 ADD PUSH1 0x20 DUP9 ADD PUSH3 0x830 JUMP JUMPDEST SWAP8 SWAP7 POP POP POP POP POP POP POP JUMP JUMPDEST PUSH15 0x29BA30B13632AB189020A6A690169 PUSH1 0x8D SHL DUP2 MSTORE PUSH1 0x0 DUP4 MLOAD PUSH3 0x947 DUP2 PUSH1 0xF DUP6 ADD PUSH1 0x20 DUP9 ADD PUSH3 0x830 JUMP JUMPDEST PUSH1 0x2F PUSH1 0xF8 SHL PUSH1 0xF SWAP2 DUP5 ADD SWAP2 DUP3 ADD MSTORE DUP4 MLOAD PUSH3 0x96A DUP2 PUSH1 0x10 DUP5 ADD PUSH1 0x20 DUP9 ADD PUSH3 0x830 JUMP JUMPDEST ADD PUSH1 0x10 ADD SWAP5 SWAP4 POP POP POP POP JUMP JUMPDEST PUSH5 0x73414D4D2D PUSH1 0xD8 SHL DUP2 MSTORE PUSH1 0x0 DUP4 MLOAD PUSH3 0x998 DUP2 PUSH1 0x5 DUP6 ADD PUSH1 0x20 DUP9 ADD PUSH3 0x830 JUMP JUMPDEST PUSH1 0x2F PUSH1 0xF8 SHL PUSH1 0x5 SWAP2 DUP5 ADD SWAP2 DUP3 ADD MSTORE DUP4 MLOAD PUSH3 0x9BB DUP2 PUSH1 0x6 DUP5 ADD PUSH1 0x20 DUP9 ADD PUSH3 0x830 JUMP JUMPDEST ADD PUSH1 0x6 ADD SWAP5 SWAP4 POP POP POP POP JUMP JUMPDEST PUSH17 0x2B37B630BA34B632AB189020A6A690169 PUSH1 0x7D SHL DUP2 MSTORE PUSH1 0x0 DUP4 MLOAD PUSH3 0x9F5 DUP2 PUSH1 0x11 DUP6 ADD PUSH1 0x20 DUP9 ADD PUSH3 0x830 JUMP JUMPDEST PUSH1 0x2F PUSH1 0xF8 SHL PUSH1 0x11 SWAP2 DUP5 ADD SWAP2 DUP3 ADD MSTORE DUP4 MLOAD PUSH3 0xA18 DUP2 PUSH1 0x12 DUP5 ADD PUSH1 0x20 DUP9 ADD PUSH3 0x830 JUMP JUMPDEST ADD PUSH1 0x12 ADD SWAP5 SWAP4 POP POP POP POP JUMP JUMPDEST PUSH5 0x76414D4D2D PUSH1 0xD8 SHL DUP2 MSTORE PUSH1 0x0 DUP4 MLOAD PUSH3 0x998 DUP2 PUSH1 0x5 DUP6 ADD PUSH1 0x20 DUP9 ADD PUSH3 0x830 JUMP JUMPDEST PUSH1 0x0 PUSH1 0x20 DUP3 DUP5 SUB SLT ISZERO PUSH3 0xA59 JUMPI PUSH1 0x0 DUP1 REVERT JUMPDEST DUP2 MLOAD PUSH1 0xFF DUP2 AND DUP2 EQ PUSH3 0xA6B JUMPI PUSH1 0x0 DUP1 REVERT JUMPDEST SWAP4 SWAP3 POP POP POP JUMP JUMPDEST PUSH4 0x4E487B71 PUSH1 0xE0 SHL PUSH1 0x0 MSTORE PUSH1 0x11 PUSH1 0x4 MSTORE PUSH1 0x24 PUSH1 0x0 REVERT JUMPDEST PUSH1 0x1 DUP2 DUP2 JUMPDEST DUP1 DUP6 GT ISZERO PUSH3 0xAC9 JUMPI DUP2 PUSH1 0x0 NOT DIV DUP3 GT ISZERO PUSH3 0xAAD JUMPI PUSH3 0xAAD PUSH3 0xA72 JUMP JUMPDEST DUP1 DUP6 AND ISZERO PUSH3 0xABB JUMPI SWAP2 DUP2 MUL SWAP2 JUMPDEST SWAP4 DUP5 SHR SWAP4 SWAP1 DUP1 MUL SWAP1 PUSH3 0xA8D JUMP JUMPDEST POP SWAP3 POP SWAP3 SWAP1 POP JUMP JUMPDEST PUSH1 0x0 DUP3 PUSH3 0xAE2 JUMPI POP PUSH1 0x1 PUSH3 0xB81 JUMP JUMPDEST DUP2 PUSH3 0xAF1 JUMPI POP PUSH1 0x0 PUSH3 0xB81 JUMP JUMPDEST DUP2 PUSH1 0x1 DUP2 EQ PUSH3 0xB0A JUMPI PUSH1 0x2 DUP2 EQ PUSH3 0xB15 JUMPI PUSH3 0xB35 JUMP JUMPDEST PUSH1 0x1 SWAP2 POP POP PUSH3 0xB81 JUMP JUMPDEST PUSH1 0xFF DUP5 GT ISZERO PUSH3 0xB29 JUMPI PUSH3 0xB29 PUSH3 0xA72 JUMP JUMPDEST POP POP PUSH1 0x1 DUP3 SHL PUSH3 0xB81 JUMP JUMPDEST POP PUSH1 0x20 DUP4 LT PUSH2 0x133 DUP4 LT AND PUSH1 0x4E DUP5 LT PUSH1 0xB DUP5 LT AND OR ISZERO PUSH3 0xB5A JUMPI POP DUP2 DUP2 EXP PUSH3 0xB81 JUMP JUMPDEST PUSH3 0xB66 DUP4 DUP4 PUSH3 0xA88 JUMP JUMPDEST DUP1 PUSH1 0x0 NOT DIV DUP3 GT ISZERO PUSH3 0xB7D JUMPI PUSH3 0xB7D PUSH3 0xA72 JUMP JUMPDEST MUL SWAP1 POP JUMPDEST SWAP3 SWAP2 POP POP JUMP JUMPDEST PUSH1 0x0 PUSH3 0xA6B PUSH1 0xFF DUP5 AND DUP4 PUSH3 0xAD1 JUMP JUMPDEST PUSH1 0x1 DUP2 DUP2 SHR SWAP1 DUP3 AND DUP1 PUSH3 0xBAD JUMPI PUSH1 0x7F DUP3 AND SWAP2 POP JUMPDEST PUSH1 0x20 DUP3 LT DUP2 SUB PUSH3 0xBCE JUMPI PUSH4 0x4E487B71 PUSH1 0xE0 SHL PUSH1 0x0 MSTORE PUSH1 0x22 PUSH1 0x4 MSTORE PUSH1 0x24 PUSH1 0x0 REVERT JUMPDEST POP SWAP2 SWAP1 POP JUMP JUMPDEST PUSH1 0x80 MLOAD PUSH1 0xA0 MLOAD PUSH1 0xC0 MLOAD PUSH1 0xE0 MLOAD PUSH2 0x100 MLOAD PUSH2 0x120 MLOAD PUSH2 0x140 MLOAD PUSH2 0x3CC4 PUSH3 0xDB0 PUSH1 0x0 CODECOPY PUSH1 0x0 DUP2 DUP2 PUSH2 0x469 ADD MSTORE DUP2 DUP2 PUSH2 0x2BB7 ADD MSTORE DUP2 DUP2 PUSH2 0x2EA1 ADD MSTORE DUP2 DUP2 PUSH2 0x2F63 ADD MSTORE PUSH2 0x306E ADD MSTORE PUSH1 0x0 DUP2 DUP2 PUSH2 0x446 ADD MSTORE DUP2 DUP2 PUSH2 0x2B76 ADD MSTORE DUP2 DUP2 PUSH2 0x2E62 ADD MSTORE DUP2 DUP2 PUSH2 0x2FA5 ADD MSTORE PUSH2 0x3048 ADD MSTORE PUSH1 0x0 DUP2 DUP2 PUSH2 0x7F8 ADD MSTORE DUP2 DUP2 PUSH2 0xC47 ADD MSTORE DUP2 DUP2 PUSH2 0xD18 ADD MSTORE DUP2 DUP2 PUSH2 0x2064 ADD MSTORE DUP2 DUP2 PUSH2 0x21AD ADD MSTORE DUP2 DUP2 PUSH2 0x247B ADD MSTORE DUP2 DUP2 PUSH2 0x2501 ADD MSTORE DUP2 DUP2 PUSH2 0x25DC ADD MSTORE DUP2 DUP2 PUSH2 0x27E9 ADD MSTORE DUP2 DUP2 PUSH2 0x286F ADD MSTORE PUSH2 0x294A ADD MSTORE PUSH1 0x0 DUP2 DUP2 PUSH2 0x62A ADD MSTORE DUP2 DUP2 PUSH2 0x1CBA ADD MSTORE DUP2 DUP2 PUSH2 0x2106 ADD MSTORE DUP2 DUP2 PUSH2 0x2690 ADD MSTORE DUP2 DUP2 PUSH2 0x271A ADD MSTORE DUP2 DUP2 PUSH2 0x29FE ADD MSTORE PUSH2 0x2A88 ADD MSTORE PUSH1 0x0 DUP2 DUP2 PUSH2 0x4F3 ADD MSTORE DUP2 DUP2 PUSH2 0x67F ADD MSTORE DUP2 DUP2 PUSH2 0x74C ADD MSTORE DUP2 DUP2 PUSH2 0x933 ADD MSTORE DUP2 DUP2 PUSH2 0xBDB ADD MSTORE DUP2 DUP2 PUSH2 0x154F ADD MSTORE DUP2 DUP2 PUSH2 0x173A ADD MSTORE DUP2 DUP2 PUSH2 0x1B61 ADD MSTORE DUP2 DUP2 PUSH2 0x230A ADD MSTORE DUP2 DUP2 PUSH2 0x2911 ADD MSTORE PUSH2 0x2A67 ADD MSTORE PUSH1 0x0 DUP2 DUP2 PUSH2 0x331 ADD MSTORE DUP2 DUP2 PUSH2 0x4CB ADD MSTORE DUP2 DUP2 PUSH2 0x65A ADD MSTORE DUP2 DUP2 PUSH2 0x912 ADD MSTORE DUP2 DUP2 PUSH2 0xBBA ADD MSTORE DUP2 DUP2 PUSH2 0x14B9 ADD MSTORE DUP2 DUP2 PUSH2 0x1718 ADD MSTORE DUP2 DUP2 PUSH2 0x1B3F ADD MSTORE DUP2 DUP2 PUSH2 0x2282 ADD MSTORE DUP2 DUP2 PUSH2 0x25A3 ADD MSTORE DUP2 DUP2 PUSH2 0x26F9 ADD MSTORE DUP2 DUP2 PUSH2 0x2EE3 ADD MSTORE DUP2 DUP2 PUSH2 0x2F2A ADD MSTORE DUP2 DUP2 PUSH2 0x300F ADD MSTORE PUSH2 0x30B2 ADD MSTORE PUSH1 0x0 DUP2 DUP2 PUSH2 0x2E9 ADD MSTORE DUP2 DUP2 PUSH2 0x3CF ADD MSTORE DUP2 DUP2 PUSH2 0x49B ADD MSTORE DUP2 DUP2 PUSH2 0xC0F ADD MSTORE DUP2 DUP2 PUSH2 0xCE0 ADD MSTORE DUP2 DUP2 PUSH2 0x217C ADD MSTORE DUP2 DUP2 PUSH2 0x2B4E ADD MSTORE PUSH2 0x2E2E ADD MSTORE PUSH2 0x3CC4 PUSH1 0x0 RETURN INVALID PUSH1 0x80 PUSH1 0x40 MSTORE CALLVALUE DUP1 ISZERO PUSH2 0x10 JUMPI PUSH1 0x0 DUP1 REVERT JUMPDEST POP PUSH1 0x4 CALLDATASIZE LT PUSH2 0x28A JUMPI PUSH1 0x0 CALLDATALOAD PUSH1 0xE0 SHR DUP1 PUSH4 0x7ECEBE00 GT PUSH2 0x15C JUMPI DUP1 PUSH4 0xBDA39CAD GT PUSH2 0xCE JUMPI DUP1 PUSH4 0xD505ACCF GT PUSH2 0x87 JUMPI DUP1 PUSH4 0xD505ACCF EQ PUSH2 0x776 JUMPI DUP1 PUSH4 0xDD62ED3E EQ PUSH2 0x789 JUMPI DUP1 PUSH4 0xEBEB31DB EQ PUSH2 0x7B4 JUMPI DUP1 PUSH4 0xF083BE3B EQ PUSH2 0x7BC JUMPI DUP1 PUSH4 0xF140A35A EQ PUSH2 0x7C4 JUMPI DUP1 PUSH4 0xFFF6CAE9 EQ PUSH2 0x7D7 JUMPI PUSH1 0x0 DUP1 REVERT JUMPDEST DUP1 PUSH4 0xBDA39CAD EQ PUSH2 0x723 JUMPI DUP1 PUSH4 0xBF944DBC EQ PUSH2 0x72C JUMPI DUP1 PUSH4 0xC245FEBC EQ PUSH2 0x735 JUMPI DUP1 PUSH4 0xC5700A02 EQ PUSH2 0x73E JUMPI DUP1 PUSH4 0xD21220A7 EQ PUSH2 0x747 JUMPI DUP1 PUSH4 0xD294F093 EQ PUSH2 0x76E JUMPI PUSH1 0x0 DUP1 REVERT JUMPDEST DUP1 PUSH4 0x9D63848A GT PUSH2 0x120 JUMPI DUP1 PUSH4 0x9D63848A EQ PUSH2 0x64C JUMPI DUP1 PUSH4 0x9E8CC04B EQ PUSH2 0x6AA JUMPI DUP1 PUSH4 0x9F767C88 EQ PUSH2 0x6BD JUMPI DUP1 PUSH4 0xA1AC4D13 EQ PUSH2 0x6DD JUMPI DUP1 PUSH4 0xA9059CBB EQ PUSH2 0x6FD JUMPI DUP1 PUSH4 0xBC25CF77 EQ PUSH2 0x710 JUMPI PUSH1 0x0 DUP1 REVERT JUMPDEST DUP1 PUSH4 0x7ECEBE00 EQ PUSH2 0x5AB JUMPI DUP1 PUSH4 0x89AFCB44 EQ PUSH2 0x5CB JUMPI DUP1 PUSH4 0x8A7B8CF2 EQ PUSH2 0x5F3 JUMPI DUP1 PUSH4 0x95D89B41 EQ PUSH2 0x61D JUMPI DUP1 PUSH4 0x9AF1D35A EQ PUSH2 0x625 JUMPI PUSH1 0x0 DUP1 REVERT JUMPDEST DUP1 PUSH4 0x23B872DD GT PUSH2 0x200 JUMPI DUP1 PUSH4 0x4D5A9F8A GT PUSH2 0x1B9 JUMPI DUP1 PUSH4 0x4D5A9F8A EQ PUSH2 0x529 JUMPI DUP1 PUSH4 0x517B3F82 EQ PUSH2 0x549 JUMPI DUP1 PUSH4 0x5881C475 EQ PUSH2 0x55C JUMPI DUP1 PUSH4 0x5A76F25E EQ PUSH2 0x56F JUMPI DUP1 PUSH4 0x6A627842 EQ PUSH2 0x578 JUMPI DUP1 PUSH4 0x70A08231 EQ PUSH2 0x58B JUMPI PUSH1 0x0 DUP1 REVERT JUMPDEST DUP1 PUSH4 0x23B872DD EQ PUSH2 0x3F1 JUMPI DUP1 PUSH4 0x252C09D7 EQ PUSH2 0x404 JUMPI DUP1 PUSH4 0x313CE567 EQ PUSH2 0x417 JUMPI DUP1 PUSH4 0x32C0DEFD EQ PUSH2 0x431 JUMPI DUP1 PUSH4 0x392F37E9 EQ PUSH2 0x43A JUMPI DUP1 PUSH4 0x443CB4BC EQ PUSH2 0x520 JUMPI PUSH1 0x0 DUP1 REVERT JUMPDEST DUP1 PUSH4 0xDFE1681 GT PUSH2 0x252 JUMPI DUP1 PUSH4 0xDFE1681 EQ PUSH2 0x32C JUMPI DUP1 PUSH4 0x13345FE1 EQ PUSH2 0x36B JUMPI DUP1 PUSH4 0x18160DDD EQ PUSH2 0x38B JUMPI DUP1 PUSH4 0x1DF8C717 EQ PUSH2 0x3A2 JUMPI DUP1 PUSH4 0x205AABF1 EQ PUSH2 0x3AA JUMPI DUP1 PUSH4 0x22BE3DE1 EQ PUSH2 0x3CA JUMPI PUSH1 0x0 DUP1 REVERT JUMPDEST DUP1 PUSH4 0x22C0D9F EQ PUSH2 0x28F JUMPI DUP1 PUSH4 0x6FDDE03 EQ PUSH2 0x2A4 JUMPI DUP1 PUSH4 0x902F1AC EQ PUSH2 0x2C2 JUMPI DUP1 PUSH4 0x9047BDD EQ PUSH2 0x2E7 JUMPI DUP1 PUSH4 0x95EA7B3 EQ PUSH2 0x319 JUMPI JUMPDEST PUSH1 0x0 DUP1 REVERT JUMPDEST PUSH2 0x2A2 PUSH2 0x29D CALLDATASIZE PUSH1 0x4 PUSH2 0x370F JUMP JUMPDEST PUSH2 0x7DF JUMP JUMPDEST STOP JUMPDEST PUSH2 0x2AC PUSH2 0xF2C JUMP JUMPDEST PUSH1 0x40 MLOAD PUSH2 0x2B9 SWAP2 SWAP1 PUSH2 0x37D5 JUMP JUMPDEST PUSH1 0x40 MLOAD DUP1 SWAP2 SUB SWAP1 RETURN JUMPDEST PUSH1 0x8 SLOAD PUSH1 0x9 SLOAD PUSH1 0xA SLOAD JUMPDEST PUSH1 0x40 DUP1 MLOAD SWAP4 DUP5 MSTORE PUSH1 0x20 DUP5 ADD SWAP3 SWAP1 SWAP3 MSTORE SWAP1 DUP3 ADD MSTORE PUSH1 0x60 ADD PUSH2 0x2B9 JUMP JUMPDEST PUSH32 0x0 JUMPDEST PUSH1 0x40 MLOAD SWAP1 ISZERO ISZERO DUP2 MSTORE PUSH1 0x20 ADD PUSH2 0x2B9 JUMP JUMPDEST PUSH2 0x309 PUSH2 0x327 CALLDATASIZE PUSH1 0x4 PUSH2 0x3808 JUMP JUMPDEST PUSH2 0xFBA JUMP JUMPDEST PUSH2 0x353 PUSH32 0x0 DUP2 JUMP JUMPDEST PUSH1 0x40 MLOAD PUSH1 0x1 PUSH1 0x1 PUSH1 0xA0 SHL SUB SWAP1 SWAP2 AND DUP2 MSTORE PUSH1 0x20 ADD PUSH2 0x2B9 JUMP JUMPDEST PUSH2 0x37E PUSH2 0x379 CALLDATASIZE PUSH1 0x4 PUSH2 0x3834 JUMP JUMPDEST PUSH2 0x1027 JUMP JUMPDEST PUSH1 0x40 MLOAD PUSH2 0x2B9 SWAP2 SWAP1 PUSH2 0x386F JUMP JUMPDEST PUSH2 0x394 PUSH1 0x2 SLOAD DUP2 JUMP JUMPDEST PUSH1 0x40 MLOAD SWAP1 DUP2 MSTORE PUSH1 0x20 ADD PUSH2 0x2B9 JUMP JUMPDEST PUSH2 0x2CC PUSH2 0x1223 JUMP JUMPDEST PUSH2 0x394 PUSH2 0x3B8 CALLDATASIZE PUSH1 0x4 PUSH2 0x38B3 JUMP JUMPDEST PUSH1 0x10 PUSH1 0x20 MSTORE PUSH1 0x0 SWAP1 DUP2 MSTORE PUSH1 0x40 SWAP1 KECCAK256 SLOAD DUP2 JUMP JUMPDEST PUSH2 0x309 PUSH32 0x0 DUP2 JUMP JUMPDEST PUSH2 0x309 PUSH2 0x3FF CALLDATASIZE PUSH1 0x4 PUSH2 0x38D0 JUMP JUMPDEST PUSH2 0x1292 JUMP JUMPDEST PUSH2 0x2CC PUSH2 0x412 CALLDATASIZE PUSH1 0x4 PUSH2 0x3911 JUMP JUMPDEST PUSH2 0x135B JUMP JUMPDEST PUSH2 0x41F PUSH1 0x12 DUP2 JUMP JUMPDEST PUSH1 0x40 MLOAD PUSH1 0xFF SWAP1 SWAP2 AND DUP2 MSTORE PUSH1 0x20 ADD PUSH2 0x2B9 JUMP JUMPDEST PUSH2 0x394 PUSH1 0xD SLOAD DUP2 JUMP JUMPDEST PUSH1 0x8 SLOAD PUSH1 0x9 SLOAD PUSH1 0x40 DUP1 MLOAD PUSH32 0x0 DUP2 MSTORE PUSH32 0x0 PUSH1 0x20 DUP3 ADD MSTORE SWAP1 DUP2 ADD SWAP3 SWAP1 SWAP3 MSTORE PUSH1 0x60 DUP3 ADD MSTORE PUSH32 0x0 ISZERO ISZERO PUSH1 0x80 DUP3 ADD MSTORE PUSH1 0x1 PUSH1 0x1 PUSH1 0xA0 SHL SUB PUSH32 0x0 DUP2 AND PUSH1 0xA0 DUP4 ADD MSTORE PUSH32 0x0 AND PUSH1 0xC0 DUP3 ADD MSTORE PUSH1 0xE0 ADD PUSH2 0x2B9 JUMP JUMPDEST PUSH2 0x394 PUSH1 0x8 SLOAD DUP2 JUMP JUMPDEST PUSH2 0x394 PUSH2 0x537 CALLDATASIZE PUSH1 0x4 PUSH2 0x38B3 JUMP JUMPDEST PUSH1 0x11 PUSH1 0x20 MSTORE PUSH1 0x0 SWAP1 DUP2 MSTORE PUSH1 0x40 SWAP1 KECCAK256 SLOAD DUP2 JUMP JUMPDEST PUSH2 0x394 PUSH2 0x557 CALLDATASIZE PUSH1 0x4 PUSH2 0x3808 JUMP JUMPDEST PUSH2 0x138E JUMP JUMPDEST PUSH2 0x37E PUSH2 0x56A CALLDATASIZE PUSH1 0x4 PUSH2 0x392A JUMP JUMPDEST PUSH2 0x1476 JUMP JUMPDEST PUSH2 0x394 PUSH1 0x9 SLOAD DUP2 JUMP JUMPDEST PUSH2 0x394 PUSH2 0x586 CALLDATASIZE PUSH1 0x4 PUSH2 0x38B3 JUMP JUMPDEST PUSH2 0x1485 JUMP JUMPDEST PUSH2 0x394 PUSH2 0x599 CALLDATASIZE PUSH1 0x4 PUSH2 0x38B3 JUMP JUMPDEST PUSH1 0x4 PUSH1 0x20 MSTORE PUSH1 0x0 SWAP1 DUP2 MSTORE PUSH1 0x40 SWAP1 KECCAK256 SLOAD DUP2 JUMP JUMPDEST PUSH2 0x394 PUSH2 0x5B9 CALLDATASIZE PUSH1 0x4 PUSH2 0x38B3 JUMP JUMPDEST PUSH1 0x6 PUSH1 0x20 MSTORE PUSH1 0x0 SWAP1 DUP2 MSTORE PUSH1 0x40 SWAP1 KECCAK256 SLOAD DUP2 JUMP JUMPDEST PUSH2 0x5DE PUSH2 0x5D9 CALLDATASIZE PUSH1 0x4 PUSH2 0x38B3 JUMP JUMPDEST PUSH2 0x16E6 JUMP JUMPDEST PUSH1 0x40 DUP1 MLOAD SWAP3 DUP4 MSTORE PUSH1 0x20 DUP4 ADD SWAP2 SWAP1 SWAP2 MSTORE ADD PUSH2 0x2B9 JUMP JUMPDEST PUSH2 0x5FB PUSH2 0x1A03 JUMP JUMPDEST PUSH1 0x40 DUP1 MLOAD DUP3 MLOAD DUP2 MSTORE PUSH1 0x20 DUP1 DUP5 ADD MLOAD SWAP1 DUP3 ADD MSTORE SWAP2 DUP2 ADD MLOAD SWAP1 DUP3 ADD MSTORE PUSH1 0x60 ADD PUSH2 0x2B9 JUMP JUMPDEST PUSH2 0x2AC PUSH2 0x1A83 JUMP JUMPDEST PUSH2 0x353 PUSH32 0x0 DUP2 JUMP JUMPDEST PUSH1 0x40 DUP1 MLOAD PUSH1 0x1 PUSH1 0x1 PUSH1 0xA0 SHL SUB PUSH32 0x0 DUP2 AND DUP3 MSTORE PUSH32 0x0 AND PUSH1 0x20 DUP3 ADD MSTORE ADD PUSH2 0x2B9 JUMP JUMPDEST PUSH2 0x394 PUSH2 0x6B8 CALLDATASIZE PUSH1 0x4 PUSH2 0x392A JUMP JUMPDEST PUSH2 0x1A90 JUMP JUMPDEST PUSH2 0x394 PUSH2 0x6CB CALLDATASIZE PUSH1 0x4 PUSH2 0x38B3 JUMP JUMPDEST PUSH1 0xF PUSH1 0x20 MSTORE PUSH1 0x0 SWAP1 DUP2 MSTORE PUSH1 0x40 SWAP1 KECCAK256 SLOAD DUP2 JUMP JUMPDEST PUSH2 0x394 PUSH2 0x6EB CALLDATASIZE PUSH1 0x4 PUSH2 0x38B3 JUMP JUMPDEST PUSH1 0x12 PUSH1 0x20 MSTORE PUSH1 0x0 SWAP1 DUP2 MSTORE PUSH1 0x40 SWAP1 KECCAK256 SLOAD DUP2 JUMP JUMPDEST PUSH2 0x309 PUSH2 0x70B CALLDATASIZE PUSH1 0x4 PUSH2 0x3808 JUMP JUMPDEST PUSH2 0x1AFD JUMP JUMPDEST PUSH2 0x2A2 PUSH2 0x71E CALLDATASIZE PUSH1 0x4 PUSH2 0x38B3 JUMP JUMPDEST PUSH2 0x1B13 JUMP JUMPDEST PUSH2 0x394 PUSH1 0xE SLOAD DUP2 JUMP JUMPDEST PUSH2 0x394 PUSH1 0xB SLOAD DUP2 JUMP JUMPDEST PUSH2 0x394 PUSH1 0xC SLOAD DUP2 JUMP JUMPDEST PUSH2 0x394 PUSH1 0xA SLOAD DUP2 JUMP JUMPDEST PUSH2 0x353 PUSH32 0x0 DUP2 JUMP JUMPDEST PUSH2 0x5DE PUSH2 0x1C31 JUMP JUMPDEST PUSH2 0x2A2 PUSH2 0x784 CALLDATASIZE PUSH1 0x4 PUSH2 0x395F JUMP JUMPDEST PUSH2 0x1D58 JUMP JUMPDEST PUSH2 0x394 PUSH2 0x797 CALLDATASIZE PUSH1 0x4 PUSH2 0x39D6 JUMP JUMPDEST PUSH1 0x3 PUSH1 0x20 SWAP1 DUP2 MSTORE PUSH1 0x0 SWAP3 DUP4 MSTORE PUSH1 0x40 DUP1 DUP5 KECCAK256 SWAP1 SWAP2 MSTORE SWAP1 DUP3 MSTORE SWAP1 KECCAK256 SLOAD DUP2 JUMP JUMPDEST PUSH1 0x7 SLOAD PUSH2 0x394 JUMP JUMPDEST PUSH2 0x2A2 PUSH2 0x2060 JUMP JUMPDEST PUSH2 0x394 PUSH2 0x7D2 CALLDATASIZE PUSH1 0x4 PUSH2 0x3A0F JUMP JUMPDEST PUSH2 0x2167 JUMP JUMPDEST PUSH2 0x2A2 PUSH2 0x2255 JUMP JUMPDEST PUSH1 0x13 SLOAD PUSH1 0x1 EQ PUSH2 0x7EE JUMPI PUSH1 0x0 DUP1 REVERT JUMPDEST PUSH1 0x2 PUSH1 0x13 DUP2 SWAP1 SSTORE POP PUSH32 0x0 PUSH1 0x1 PUSH1 0x1 PUSH1 0xA0 SHL SUB AND PUSH4 0xB187BD26 PUSH1 0x40 MLOAD DUP2 PUSH4 0xFFFFFFFF AND PUSH1 0xE0 SHL DUP2 MSTORE PUSH1 0x4 ADD PUSH1 0x20 PUSH1 0x40 MLOAD DUP1 DUP4 SUB DUP2 DUP7 GAS STATICCALL ISZERO DUP1 ISZERO PUSH2 0x854 JUMPI RETURNDATASIZE PUSH1 0x0 DUP1 RETURNDATACOPY RETURNDATASIZE PUSH1 0x0 REVERT JUMPDEST POP POP POP POP PUSH1 0x40 MLOAD RETURNDATASIZE PUSH1 0x1F NOT PUSH1 0x1F DUP3 ADD AND DUP3 ADD DUP1 PUSH1 0x40 MSTORE POP DUP2 ADD SWAP1 PUSH2 0x878 SWAP2 SWAP1 PUSH2 0x3A34 JUMP JUMPDEST ISZERO PUSH2 0x882 JUMPI PUSH1 0x0 DUP1 REVERT JUMPDEST PUSH1 0x0 DUP6 GT DUP1 PUSH2 0x891 JUMPI POP PUSH1 0x0 DUP5 GT JUMPDEST PUSH2 0x8C8 JUMPI PUSH1 0x40 MLOAD PUSH3 0x461BCD PUSH1 0xE5 SHL DUP2 MSTORE PUSH1 0x20 PUSH1 0x4 DUP3 ADD MSTORE PUSH1 0x3 PUSH1 0x24 DUP3 ADD MSTORE PUSH3 0x494F41 PUSH1 0xE8 SHL PUSH1 0x44 DUP3 ADD MSTORE PUSH1 0x64 ADD JUMPDEST PUSH1 0x40 MLOAD DUP1 SWAP2 SUB SWAP1 REVERT JUMPDEST PUSH1 0x8 SLOAD PUSH1 0x9 SLOAD DUP2 DUP8 LT DUP1 ISZERO PUSH2 0x8DC JUMPI POP DUP1 DUP7 LT JUMPDEST PUSH2 0x90D JUMPI PUSH1 0x40 MLOAD PUSH3 0x461BCD PUSH1 0xE5 SHL DUP2 MSTORE PUSH1 0x20 PUSH1 0x4 DUP3 ADD MSTORE PUSH1 0x2 PUSH1 0x24 DUP3 ADD MSTORE PUSH2 0x1253 PUSH1 0xF2 SHL PUSH1 0x44 DUP3 ADD MSTORE PUSH1 0x64 ADD PUSH2 0x8BF JUMP JUMPDEST PUSH1 0x0 DUP1 PUSH32 0x0 PUSH32 0x0 PUSH1 0x1 PUSH1 0x1 PUSH1 0xA0 SHL SUB DUP10 DUP2 AND SWAP1 DUP4 AND EQ DUP1 ISZERO SWAP1 PUSH2 0x980 JUMPI POP DUP1 PUSH1 0x1 PUSH1 0x1 PUSH1 0xA0 SHL SUB AND DUP10 PUSH1 0x1 PUSH1 0x1 PUSH1 0xA0 SHL SUB AND EQ ISZERO JUMPDEST PUSH2 0x9B1 JUMPI PUSH1 0x40 MLOAD PUSH3 0x461BCD PUSH1 0xE5 SHL DUP2 MSTORE PUSH1 0x20 PUSH1 0x4 DUP3 ADD MSTORE PUSH1 0x2 PUSH1 0x24 DUP3 ADD MSTORE PUSH2 0x1255 PUSH1 0xF2 SHL PUSH1 0x44 DUP3 ADD MSTORE PUSH1 0x64 ADD PUSH2 0x8BF JUMP JUMPDEST DUP11 ISZERO PUSH2 0x9C2 JUMPI PUSH2 0x9C2 DUP3 DUP11 DUP14 PUSH2 0x238F JUMP JUMPDEST DUP10 ISZERO PUSH2 0x9D3 JUMPI PUSH2 0x9D3 DUP2 DUP11 DUP13 PUSH2 0x238F JUMP JUMPDEST DUP7 ISZERO PUSH2 0xA40 JUMPI PUSH1 0x40 MLOAD PUSH4 0x9A7BFF79 PUSH1 0xE0 SHL DUP2 MSTORE PUSH1 0x1 PUSH1 0x1 PUSH1 0xA0 SHL SUB DUP11 AND SWAP1 PUSH4 0x9A7BFF79 SWAP1 PUSH2 0xA0D SWAP1 CALLER SWAP1 DUP16 SWAP1 DUP16 SWAP1 DUP15 SWAP1 DUP15 SWAP1 PUSH1 0x4 ADD PUSH2 0x3A56 JUMP JUMPDEST PUSH1 0x0 PUSH1 0x40 MLOAD DUP1 DUP4 SUB DUP2 PUSH1 0x0 DUP8 DUP1 EXTCODESIZE ISZERO DUP1 ISZERO PUSH2 0xA27 JUMPI PUSH1 0x0 DUP1 REVERT JUMPDEST POP GAS CALL ISZERO DUP1 ISZERO PUSH2 0xA3B JUMPI RETURNDATASIZE PUSH1 0x0 DUP1 RETURNDATACOPY RETURNDATASIZE PUSH1 0x0 REVERT JUMPDEST POP POP POP POP JUMPDEST PUSH1 0x40 MLOAD PUSH4 0x70A08231 PUSH1 0xE0 SHL DUP2 MSTORE ADDRESS PUSH1 0x4 DUP3 ADD MSTORE PUSH1 0x1 PUSH1 0x1 PUSH1 0xA0 SHL SUB DUP4 AND SWAP1 PUSH4 0x70A08231 SWAP1 PUSH1 0x24 ADD PUSH1 0x20 PUSH1 0x40 MLOAD DUP1 DUP4 SUB DUP2 DUP7 GAS STATICCALL ISZERO DUP1 ISZERO PUSH2 0xA84 JUMPI RETURNDATASIZE PUSH1 0x0 DUP1 RETURNDATACOPY RETURNDATASIZE PUSH1 0x0 REVERT JUMPDEST POP POP POP POP PUSH1 0x40 MLOAD RETURNDATASIZE PUSH1 0x1F NOT PUSH1 0x1F DUP3 ADD AND DUP3 ADD DUP1 PUSH1 0x40 MSTORE POP DUP2 ADD SWAP1 PUSH2 0xAA8 SWAP2 SWAP1 PUSH2 0x3AA2 JUMP JUMPDEST PUSH1 0x40 MLOAD PUSH4 0x70A08231 PUSH1 0xE0 SHL DUP2 MSTORE ADDRESS PUSH1 0x4 DUP3 ADD MSTORE SWAP1 SWAP5 POP PUSH1 0x1 PUSH1 0x1 PUSH1 0xA0 SHL SUB DUP3 AND SWAP1 PUSH4 0x70A08231 SWAP1 PUSH1 0x24 ADD PUSH1 0x20 PUSH1 0x40 MLOAD DUP1 DUP4 SUB DUP2 DUP7 GAS STATICCALL ISZERO DUP1 ISZERO PUSH2 0xAEF JUMPI RETURNDATASIZE PUSH1 0x0 DUP1 RETURNDATACOPY RETURNDATASIZE PUSH1 0x0 REVERT JUMPDEST POP POP POP POP PUSH1 0x40 MLOAD RETURNDATASIZE PUSH1 0x1F NOT PUSH1 0x1F DUP3 ADD AND DUP3 ADD DUP1 PUSH1 0x40 MSTORE POP DUP2 ADD SWAP1 PUSH2 0xB13 SWAP2 SWAP1 PUSH2 0x3AA2 JUMP JUMPDEST SWAP3 POP POP POP PUSH1 0x0 DUP10 DUP6 PUSH2 0xB25 SWAP2 SWAP1 PUSH2 0x3AD1 JUMP JUMPDEST DUP4 GT PUSH2 0xB32 JUMPI PUSH1 0x0 PUSH2 0xB46 JUMP JUMPDEST PUSH2 0xB3C DUP11 DUP7 PUSH2 0x3AD1 JUMP JUMPDEST PUSH2 0xB46 SWAP1 DUP5 PUSH2 0x3AD1 JUMP JUMPDEST SWAP1 POP PUSH1 0x0 PUSH2 0xB54 DUP11 DUP7 PUSH2 0x3AD1 JUMP JUMPDEST DUP4 GT PUSH2 0xB61 JUMPI PUSH1 0x0 PUSH2 0xB75 JUMP JUMPDEST PUSH2 0xB6B DUP11 DUP7 PUSH2 0x3AD1 JUMP JUMPDEST PUSH2 0xB75 SWAP1 DUP5 PUSH2 0x3AD1 JUMP JUMPDEST SWAP1 POP PUSH1 0x0 DUP3 GT DUP1 PUSH2 0xB86 JUMPI POP PUSH1 0x0 DUP2 GT JUMPDEST PUSH2 0xBB8 JUMPI PUSH1 0x40 MLOAD PUSH3 0x461BCD PUSH1 0xE5 SHL DUP2 MSTORE PUSH1 0x20 PUSH1 0x4 DUP3 ADD MSTORE PUSH1 0x3 PUSH1 0x24 DUP3 ADD MSTORE PUSH3 0x494941 PUSH1 0xE8 SHL PUSH1 0x44 DUP3 ADD MSTORE PUSH1 0x64 ADD PUSH2 0x8BF JUMP JUMPDEST PUSH32 0x0 PUSH32 0x0 DUP4 ISZERO PUSH2 0xCCB JUMPI PUSH1 0x40 MLOAD PUSH4 0x2895A2F5 PUSH1 0xE1 SHL DUP2 MSTORE PUSH32 0x0 ISZERO ISZERO PUSH1 0x4 DUP3 ADD MSTORE PUSH2 0xCCB SWAP1 PUSH2 0x2710 SWAP1 PUSH1 0x1 PUSH1 0x1 PUSH1 0xA0 SHL SUB PUSH32 0x0 AND SWAP1 PUSH4 0x512B45EA SWAP1 PUSH1 0x24 ADD PUSH1 0x20 PUSH1 0x40 MLOAD DUP1 DUP4 SUB DUP2 DUP7 GAS STATICCALL ISZERO DUP1 ISZERO PUSH2 0xC8E JUMPI RETURNDATASIZE PUSH1 0x0 DUP1 RETURNDATACOPY RETURNDATASIZE PUSH1 0x0 REVERT JUMPDEST POP POP POP POP PUSH1 0x40 MLOAD RETURNDATASIZE PUSH1 0x1F NOT PUSH1 0x1F DUP3 ADD AND DUP3 ADD DUP1 PUSH1 0x40 MSTORE POP DUP2 ADD SWAP1 PUSH2 0xCB2 SWAP2 SWAP1 PUSH2 0x3AA2 JUMP JUMPDEST PUSH2 0xCBC SWAP1 DUP8 PUSH2 0x3AE8 JUMP JUMPDEST PUSH2 0xCC6 SWAP2 SWAP1 PUSH2 0x3B07 JUMP JUMPDEST PUSH2 0x2477 JUMP JUMPDEST DUP3 ISZERO PUSH2 0xD9C JUMPI PUSH1 0x40 MLOAD PUSH4 0x2895A2F5 PUSH1 0xE1 SHL DUP2 MSTORE PUSH32 0x0 ISZERO ISZERO PUSH1 0x4 DUP3 ADD MSTORE PUSH2 0xD9C SWAP1 PUSH2 0x2710 SWAP1 PUSH1 0x1 PUSH1 0x1 PUSH1 0xA0 SHL SUB PUSH32 0x0 AND SWAP1 PUSH4 0x512B45EA SWAP1 PUSH1 0x24 ADD PUSH1 0x20 PUSH1 0x40 MLOAD DUP1 DUP4 SUB DUP2 DUP7 GAS STATICCALL ISZERO DUP1 ISZERO PUSH2 0xD5F JUMPI RETURNDATASIZE PUSH1 0x0 DUP1 RETURNDATACOPY RETURNDATASIZE PUSH1 0x0 REVERT JUMPDEST POP POP POP POP PUSH1 0x40 MLOAD RETURNDATASIZE PUSH1 0x1F NOT PUSH1 0x1F DUP3 ADD AND DUP3 ADD DUP1 PUSH1 0x40 MSTORE POP DUP2 ADD SWAP1 PUSH2 0xD83 SWAP2 SWAP1 PUSH2 0x3AA2 JUMP JUMPDEST PUSH2 0xD8D SWAP1 DUP7 PUSH2 0x3AE8 JUMP JUMPDEST PUSH2 0xD97 SWAP2 SWAP1 PUSH2 0x3B07 JUMP JUMPDEST PUSH2 0x27E5 JUMP JUMPDEST PUSH1 0x40 MLOAD PUSH4 0x70A08231 PUSH1 0xE0 SHL DUP2 MSTORE ADDRESS PUSH1 0x4 DUP3 ADD MSTORE PUSH1 0x1 PUSH1 0x1 PUSH1 0xA0 SHL SUB DUP4 AND SWAP1 PUSH4 0x70A08231 SWAP1 PUSH1 0x24 ADD PUSH1 0x20 PUSH1 0x40 MLOAD DUP1 DUP4 SUB DUP2 DUP7 GAS STATICCALL ISZERO DUP1 ISZERO PUSH2 0xDE0 JUMPI RETURNDATASIZE PUSH1 0x0 DUP1 RETURNDATACOPY RETURNDATASIZE PUSH1 0x0 REVERT JUMPDEST POP POP POP POP PUSH1 0x40 MLOAD RETURNDATASIZE PUSH1 0x1F NOT PUSH1 0x1F DUP3 ADD AND DUP3 ADD DUP1 PUSH1 0x40 MSTORE POP DUP2 ADD SWAP1 PUSH2 0xE04 SWAP2 SWAP1 PUSH2 0x3AA2 JUMP JUMPDEST PUSH1 0x40 MLOAD PUSH4 0x70A08231 PUSH1 0xE0 SHL DUP2 MSTORE ADDRESS PUSH1 0x4 DUP3 ADD MSTORE SWAP1 SWAP7 POP PUSH1 0x1 PUSH1 0x1 PUSH1 0xA0 SHL SUB DUP3 AND SWAP1 PUSH4 0x70A08231 SWAP1 PUSH1 0x24 ADD PUSH1 0x20 PUSH1 0x40 MLOAD DUP1 DUP4 SUB DUP2 DUP7 GAS STATICCALL ISZERO DUP1 ISZERO PUSH2 0xE4B JUMPI RETURNDATASIZE PUSH1 0x0 DUP1 RETURNDATACOPY RETURNDATASIZE PUSH1 0x0 REVERT JUMPDEST POP POP POP POP PUSH1 0x40 MLOAD RETURNDATASIZE PUSH1 0x1F NOT PUSH1 0x1F DUP3 ADD AND DUP3 ADD DUP1 PUSH1 0x40 MSTORE POP DUP2 ADD SWAP1 PUSH2 0xE6F SWAP2 SWAP1 PUSH2 0x3AA2 JUMP JUMPDEST SWAP5 POP PUSH2 0xE7B DUP9 DUP9 PUSH2 0x2B4A JUMP JUMPDEST PUSH2 0xE85 DUP8 DUP8 PUSH2 0x2B4A JUMP JUMPDEST LT ISZERO PUSH2 0xEB7 JUMPI PUSH1 0x40 MLOAD PUSH3 0x461BCD PUSH1 0xE5 SHL DUP2 MSTORE PUSH1 0x20 PUSH1 0x4 DUP3 ADD MSTORE PUSH1 0x1 PUSH1 0x24 DUP3 ADD MSTORE PUSH1 0x4B PUSH1 0xF8 SHL PUSH1 0x44 DUP3 ADD MSTORE PUSH1 0x64 ADD PUSH2 0x8BF JUMP JUMPDEST POP POP PUSH2 0xEC5 DUP5 DUP5 DUP9 DUP9 PUSH2 0x2C96 JUMP JUMPDEST PUSH1 0x40 DUP1 MLOAD DUP4 DUP2 MSTORE PUSH1 0x20 DUP2 ADD DUP4 SWAP1 MSTORE SWAP1 DUP2 ADD DUP13 SWAP1 MSTORE PUSH1 0x60 DUP2 ADD DUP12 SWAP1 MSTORE PUSH1 0x1 PUSH1 0x1 PUSH1 0xA0 SHL SUB DUP11 AND SWAP1 CALLER SWAP1 PUSH32 0xD78AD95FA46C994B6551D0DA85FC275FE613CE37657FB8D5E3D130840159D822 SWAP1 PUSH1 0x80 ADD PUSH1 0x40 MLOAD DUP1 SWAP2 SUB SWAP1 LOG3 POP POP PUSH1 0x1 PUSH1 0x13 SSTORE POP POP POP POP POP POP POP POP POP JUMP JUMPDEST PUSH1 0x0 DUP1 SLOAD PUSH2 0xF39 SWAP1 PUSH2 0x3B29 JUMP JUMPDEST DUP1 PUSH1 0x1F ADD PUSH1 0x20 DUP1 SWAP2 DIV MUL PUSH1 0x20 ADD PUSH1 0x40 MLOAD SWAP1 DUP2 ADD PUSH1 0x40 MSTORE DUP1 SWAP3 SWAP2 SWAP1 DUP2 DUP2 MSTORE PUSH1 0x20 ADD DUP3 DUP1 SLOAD PUSH2 0xF65 SWAP1 PUSH2 0x3B29 JUMP JUMPDEST DUP1 ISZERO PUSH2 0xFB2 JUMPI DUP1 PUSH1 0x1F LT PUSH2 0xF87 JUMPI PUSH2 0x100 DUP1 DUP4 SLOAD DIV MUL DUP4 MSTORE SWAP2 PUSH1 0x20 ADD SWAP2 PUSH2 0xFB2 JUMP JUMPDEST DUP3 ADD SWAP2 SWAP1 PUSH1 0x0 MSTORE PUSH1 0x20 PUSH1 0x0 KECCAK256 SWAP1 JUMPDEST DUP2 SLOAD DUP2 MSTORE SWAP1 PUSH1 0x1 ADD SWAP1 PUSH1 0x20 ADD DUP1 DUP4 GT PUSH2 0xF95 JUMPI DUP3 SWAP1 SUB PUSH1 0x1F AND DUP3 ADD SWAP2 JUMPDEST POP POP POP POP POP DUP2 JUMP JUMPDEST CALLER PUSH1 0x0 DUP2 DUP2 MSTORE PUSH1 0x3 PUSH1 0x20 SWAP1 DUP2 MSTORE PUSH1 0x40 DUP1 DUP4 KECCAK256 PUSH1 0x1 PUSH1 0x1 PUSH1 0xA0 SHL SUB DUP8 AND DUP1 DUP6 MSTORE SWAP3 MSTORE DUP1 DUP4 KECCAK256 DUP6 SWAP1 SSTORE MLOAD SWAP2 SWAP3 SWAP1 SWAP2 PUSH32 0x8C5BE1E5EBEC7D5BD14F71427D1E84F3DD0314C0F7B2291E5B200AC8C7C3B925 SWAP1 PUSH2 0x1015 SWAP1 DUP7 DUP2 MSTORE PUSH1 0x20 ADD SWAP1 JUMP JUMPDEST PUSH1 0x40 MLOAD DUP1 SWAP2 SUB SWAP1 LOG3 POP PUSH1 0x1 JUMPDEST SWAP3 SWAP2 POP POP JUMP JUMPDEST PUSH1 0x60 PUSH1 0x0 DUP4 PUSH8 0xFFFFFFFFFFFFFFFF DUP2 GT ISZERO PUSH2 0x1044 JUMPI PUSH2 0x1044 PUSH2 0x3B5D JUMP JUMPDEST PUSH1 0x40 MLOAD SWAP1 DUP1 DUP3 MSTORE DUP1 PUSH1 0x20 MUL PUSH1 0x20 ADD DUP3 ADD PUSH1 0x40 MSTORE DUP1 ISZERO PUSH2 0x106D JUMPI DUP2 PUSH1 0x20 ADD PUSH1 0x20 DUP3 MUL DUP1 CALLDATASIZE DUP4 CALLDATACOPY ADD SWAP1 POP JUMPDEST POP PUSH1 0x7 SLOAD SWAP1 SWAP2 POP PUSH1 0x0 SWAP1 PUSH2 0x1083 SWAP1 PUSH1 0x1 SWAP1 PUSH2 0x3AD1 JUMP JUMPDEST SWAP1 POP PUSH1 0x0 PUSH2 0x1091 DUP6 DUP8 PUSH2 0x3AE8 JUMP JUMPDEST PUSH2 0x109B SWAP1 DUP4 PUSH2 0x3AD1 JUMP JUMPDEST SWAP1 POP PUSH1 0x0 DUP1 JUMPDEST DUP4 DUP4 LT ISZERO PUSH2 0x1213 JUMPI PUSH2 0x10B3 DUP8 DUP5 PUSH2 0x3B73 JUMP JUMPDEST SWAP2 POP PUSH1 0x0 PUSH1 0x7 DUP5 DUP2 SLOAD DUP2 LT PUSH2 0x10CA JUMPI PUSH2 0x10CA PUSH2 0x3B8B JUMP JUMPDEST SWAP1 PUSH1 0x0 MSTORE PUSH1 0x20 PUSH1 0x0 KECCAK256 SWAP1 PUSH1 0x3 MUL ADD PUSH1 0x0 ADD SLOAD PUSH1 0x7 DUP5 DUP2 SLOAD DUP2 LT PUSH2 0x10EF JUMPI PUSH2 0x10EF PUSH2 0x3B8B JUMP JUMPDEST SWAP1 PUSH1 0x0 MSTORE PUSH1 0x20 PUSH1 0x0 KECCAK256 SWAP1 PUSH1 0x3 MUL ADD PUSH1 0x0 ADD SLOAD PUSH2 0x110B SWAP2 SWAP1 PUSH2 0x3AD1 JUMP JUMPDEST SWAP1 POP PUSH1 0x0 DUP2 PUSH1 0x7 DUP7 DUP2 SLOAD DUP2 LT PUSH2 0x1123 JUMPI PUSH2 0x1123 PUSH2 0x3B8B JUMP JUMPDEST SWAP1 PUSH1 0x0 MSTORE PUSH1 0x20 PUSH1 0x0 KECCAK256 SWAP1 PUSH1 0x3 MUL ADD PUSH1 0x1 ADD SLOAD PUSH1 0x7 DUP7 DUP2 SLOAD DUP2 LT PUSH2 0x1148 JUMPI PUSH2 0x1148 PUSH2 0x3B8B JUMP JUMPDEST SWAP1 PUSH1 0x0 MSTORE PUSH1 0x20 PUSH1 0x0 KECCAK256 SWAP1 PUSH1 0x3 MUL ADD PUSH1 0x1 ADD SLOAD PUSH2 0x1164 SWAP2 SWAP1 PUSH2 0x3AD1 JUMP JUMPDEST PUSH2 0x116E SWAP2 SWAP1 PUSH2 0x3B07 JUMP JUMPDEST SWAP1 POP PUSH1 0x0 DUP3 PUSH1 0x7 DUP8 DUP2 SLOAD DUP2 LT PUSH2 0x1186 JUMPI PUSH2 0x1186 PUSH2 0x3B8B JUMP JUMPDEST SWAP1 PUSH1 0x0 MSTORE PUSH1 0x20 PUSH1 0x0 KECCAK256 SWAP1 PUSH1 0x3 MUL ADD PUSH1 0x2 ADD SLOAD PUSH1 0x7 DUP8 DUP2 SLOAD DUP2 LT PUSH2 0x11AB JUMPI PUSH2 0x11AB PUSH2 0x3B8B JUMP JUMPDEST SWAP1 PUSH1 0x0 MSTORE PUSH1 0x20 PUSH1 0x0 KECCAK256 SWAP1 PUSH1 0x3 MUL ADD PUSH1 0x2 ADD SLOAD PUSH2 0x11C7 SWAP2 SWAP1 PUSH2 0x3AD1 JUMP JUMPDEST PUSH2 0x11D1 SWAP2 SWAP1 PUSH2 0x3B07 JUMP JUMPDEST SWAP1 POP PUSH2 0x11DF DUP13 DUP15 DUP5 DUP5 PUSH2 0x2E2A JUMP JUMPDEST DUP9 DUP6 DUP2 MLOAD DUP2 LT PUSH2 0x11F1 JUMPI PUSH2 0x11F1 PUSH2 0x3B8B JUMP JUMPDEST PUSH1 0x20 SWAP1 DUP2 MUL SWAP2 SWAP1 SWAP2 ADD ADD MSTORE POP POP POP PUSH1 0x1 ADD PUSH2 0x120C DUP8 DUP5 PUSH2 0x3B73 JUMP JUMPDEST SWAP3 POP PUSH2 0x10A1 JUMP JUMPDEST POP SWAP3 SWAP4 POP POP POP POP JUMPDEST SWAP5 SWAP4 POP POP POP POP JUMP JUMPDEST PUSH1 0xB SLOAD PUSH1 0xC SLOAD TIMESTAMP PUSH1 0x0 DUP1 DUP1 PUSH2 0x1241 PUSH1 0x8 SLOAD PUSH1 0x9 SLOAD PUSH1 0xA SLOAD SWAP2 SWAP3 SWAP1 SWAP2 SWAP1 JUMP JUMPDEST SWAP3 POP SWAP3 POP SWAP3 POP DUP4 DUP2 EQ PUSH2 0x128A JUMPI PUSH1 0x0 PUSH2 0x125A DUP3 DUP7 PUSH2 0x3AD1 JUMP JUMPDEST SWAP1 POP PUSH2 0x1266 DUP2 DUP6 PUSH2 0x3AE8 JUMP JUMPDEST PUSH2 0x1270 SWAP1 DUP9 PUSH2 0x3B73 JUMP JUMPDEST SWAP7 POP PUSH2 0x127C DUP2 DUP5 PUSH2 0x3AE8 JUMP JUMPDEST PUSH2 0x1286 SWAP1 DUP8 PUSH2 0x3B73 JUMP JUMPDEST SWAP6 POP POP JUMPDEST POP POP POP SWAP1 SWAP2 SWAP3 JUMP JUMPDEST PUSH1 0x1 PUSH1 0x1 PUSH1 0xA0 SHL SUB DUP4 AND PUSH1 0x0 DUP2 DUP2 MSTORE PUSH1 0x3 PUSH1 0x20 SWAP1 DUP2 MSTORE PUSH1 0x40 DUP1 DUP4 KECCAK256 CALLER DUP1 DUP6 MSTORE SWAP3 MSTORE DUP3 KECCAK256 SLOAD SWAP2 SWAP3 SWAP1 SWAP2 SWAP1 DUP3 EQ DUP1 ISZERO SWAP1 PUSH2 0x12CC JUMPI POP PUSH1 0x0 NOT DUP2 EQ ISZERO JUMPDEST ISZERO PUSH2 0x1342 JUMPI PUSH1 0x0 PUSH2 0x12DD DUP6 DUP4 PUSH2 0x3AD1 JUMP JUMPDEST PUSH1 0x1 PUSH1 0x1 PUSH1 0xA0 SHL SUB DUP9 DUP2 AND PUSH1 0x0 DUP2 DUP2 MSTORE PUSH1 0x3 PUSH1 0x20 SWAP1 DUP2 MSTORE PUSH1 0x40 DUP1 DUP4 KECCAK256 SWAP5 DUP10 AND DUP1 DUP5 MSTORE SWAP5 DUP3 MSTORE SWAP2 DUP3 SWAP1 KECCAK256 DUP6 SWAP1 SSTORE SWAP1 MLOAD DUP5 DUP2 MSTORE SWAP4 SWAP5 POP SWAP2 SWAP3 SWAP1 SWAP2 PUSH32 0x8C5BE1E5EBEC7D5BD14F71427D1E84F3DD0314C0F7B2291E5B200AC8C7C3B925 SWAP2 ADD PUSH1 0x40 MLOAD DUP1 SWAP2 SUB SWAP1 LOG3 POP JUMPDEST PUSH2 0x134D DUP7 DUP7 DUP7 PUSH2 0x311F JUMP JUMPDEST PUSH1 0x1 SWAP3 POP POP POP JUMPDEST SWAP4 SWAP3 POP POP POP JUMP JUMPDEST PUSH1 0x7 DUP2 DUP2 SLOAD DUP2 LT PUSH2 0x136B JUMPI PUSH1 0x0 DUP1 REVERT JUMPDEST PUSH1 0x0 SWAP2 DUP3 MSTORE PUSH1 0x20 SWAP1 SWAP2 KECCAK256 PUSH1 0x3 SWAP1 SWAP2 MUL ADD DUP1 SLOAD PUSH1 0x1 DUP3 ADD SLOAD PUSH1 0x2 SWAP1 SWAP3 ADD SLOAD SWAP1 SWAP3 POP DUP4 JUMP JUMPDEST PUSH1 0x0 DUP1 PUSH2 0x1399 PUSH2 0x1A03 JUMP JUMPDEST SWAP1 POP PUSH1 0x0 DUP1 PUSH2 0x13A6 PUSH2 0x1223 JUMP JUMPDEST POP DUP5 MLOAD SWAP2 SWAP4 POP SWAP2 POP TIMESTAMP SUB PUSH2 0x140E JUMPI PUSH1 0x7 DUP1 SLOAD PUSH2 0x13C4 SWAP1 PUSH1 0x2 SWAP1 PUSH2 0x3AD1 JUMP JUMPDEST DUP2 SLOAD DUP2 LT PUSH2 0x13D4 JUMPI PUSH2 0x13D4 PUSH2 0x3B8B JUMP JUMPDEST SWAP1 PUSH1 0x0 MSTORE PUSH1 0x20 PUSH1 0x0 KECCAK256 SWAP1 PUSH1 0x3 MUL ADD PUSH1 0x40 MLOAD DUP1 PUSH1 0x60 ADD PUSH1 0x40 MSTORE SWAP1 DUP2 PUSH1 0x0 DUP3 ADD SLOAD DUP2 MSTORE PUSH1 0x20 ADD PUSH1 0x1 DUP3 ADD SLOAD DUP2 MSTORE PUSH1 0x20 ADD PUSH1 0x2 DUP3 ADD SLOAD DUP2 MSTORE POP POP SWAP3 POP JUMPDEST DUP3 MLOAD PUSH1 0x0 SWAP1 PUSH2 0x141D SWAP1 TIMESTAMP PUSH2 0x3AD1 JUMP JUMPDEST SWAP1 POP PUSH1 0x0 DUP2 DUP6 PUSH1 0x20 ADD MLOAD DUP6 PUSH2 0x1432 SWAP2 SWAP1 PUSH2 0x3AD1 JUMP JUMPDEST PUSH2 0x143C SWAP2 SWAP1 PUSH2 0x3B07 JUMP JUMPDEST SWAP1 POP PUSH1 0x0 DUP3 DUP7 PUSH1 0x40 ADD MLOAD DUP6 PUSH2 0x1451 SWAP2 SWAP1 PUSH2 0x3AD1 JUMP JUMPDEST PUSH2 0x145B SWAP2 SWAP1 PUSH2 0x3B07 JUMP JUMPDEST SWAP1 POP PUSH2 0x1469 DUP9 DUP11 DUP5 DUP5 PUSH2 0x2E2A JUMP JUMPDEST SWAP10 SWAP9 POP POP POP POP POP POP POP POP POP JUMP JUMPDEST PUSH1 0x60 PUSH2 0x121B DUP5 DUP5 DUP5 PUSH1 0x1 PUSH2 0x1027 JUMP JUMPDEST PUSH1 0x0 PUSH1 0x13 SLOAD PUSH1 0x1 EQ PUSH2 0x1496 JUMPI PUSH1 0x0 DUP1 REVERT JUMPDEST PUSH1 0x2 PUSH1 0x13 SSTORE PUSH1 0x8 SLOAD PUSH1 0x9 SLOAD PUSH1 0x40 MLOAD PUSH4 0x70A08231 PUSH1 0xE0 SHL DUP2 MSTORE ADDRESS PUSH1 0x4 DUP3 ADD MSTORE PUSH1 0x0 SWAP1 PUSH32 0x0 PUSH1 0x1 PUSH1 0x1 PUSH1 0xA0 SHL SUB AND SWAP1 PUSH4 0x70A08231 SWAP1 PUSH1 0x24 ADD PUSH1 0x20 PUSH1 0x40 MLOAD DUP1 DUP4 SUB DUP2 DUP7 GAS STATICCALL ISZERO DUP1 ISZERO PUSH2 0x1508 JUMPI RETURNDATASIZE PUSH1 0x0 DUP1 RETURNDATACOPY RETURNDATASIZE PUSH1 0x0 REVERT JUMPDEST POP POP POP POP PUSH1 0x40 MLOAD RETURNDATASIZE PUSH1 0x1F NOT PUSH1 0x1F DUP3 ADD AND DUP3 ADD DUP1 PUSH1 0x40 MSTORE POP DUP2 ADD SWAP1 PUSH2 0x152C SWAP2 SWAP1 PUSH2 0x3AA2 JUMP JUMPDEST PUSH1 0x40 MLOAD PUSH4 0x70A08231 PUSH1 0xE0 SHL DUP2 MSTORE ADDRESS PUSH1 0x4 DUP3 ADD MSTORE SWAP1 SWAP2 POP PUSH1 0x0 SWAP1 PUSH1 0x1 PUSH1 0x1 PUSH1 0xA0 SHL SUB PUSH32 0x0 AND SWAP1 PUSH4 0x70A08231 SWAP1 PUSH1 0x24 ADD PUSH1 0x20 PUSH1 0x40 MLOAD DUP1 DUP4 SUB DUP2 DUP7 GAS STATICCALL ISZERO DUP1 ISZERO PUSH2 0x1596 JUMPI RETURNDATASIZE PUSH1 0x0 DUP1 RETURNDATACOPY RETURNDATASIZE PUSH1 0x0 REVERT JUMPDEST POP POP POP POP PUSH1 0x40 MLOAD RETURNDATASIZE PUSH1 0x1F NOT PUSH1 0x1F DUP3 ADD AND DUP3 ADD DUP1 PUSH1 0x40 MSTORE POP DUP2 ADD SWAP1 PUSH2 0x15BA SWAP2 SWAP1 PUSH2 0x3AA2 JUMP JUMPDEST SWAP1 POP PUSH1 0x0 PUSH2 0x15C8 DUP6 DUP5 PUSH2 0x3AD1 JUMP JUMPDEST SWAP1 POP PUSH1 0x0 PUSH2 0x15D6 DUP6 DUP5 PUSH2 0x3AD1 JUMP JUMPDEST PUSH1 0x2 SLOAD SWAP1 SWAP2 POP PUSH1 0x0 DUP2 SWAP1 SUB PUSH2 0x1618 JUMPI PUSH2 0x3E8 PUSH2 0x15FA PUSH2 0x15F5 DUP5 DUP7 PUSH2 0x3AE8 JUMP JUMPDEST PUSH2 0x31DF JUMP JUMPDEST PUSH2 0x1604 SWAP2 SWAP1 PUSH2 0x3AD1 JUMP JUMPDEST SWAP8 POP PUSH2 0x1613 PUSH1 0x0 PUSH2 0x3E8 PUSH2 0x324F JUMP JUMPDEST PUSH2 0x164D JUMP JUMPDEST PUSH2 0x164A DUP8 PUSH2 0x1626 DUP4 DUP7 PUSH2 0x3AE8 JUMP JUMPDEST PUSH2 0x1630 SWAP2 SWAP1 PUSH2 0x3B07 JUMP JUMPDEST DUP8 PUSH2 0x163B DUP5 DUP7 PUSH2 0x3AE8 JUMP JUMPDEST PUSH2 0x1645 SWAP2 SWAP1 PUSH2 0x3B07 JUMP JUMPDEST PUSH2 0x32E2 JUMP JUMPDEST SWAP8 POP JUMPDEST PUSH1 0x0 DUP9 GT PUSH2 0x1683 JUMPI PUSH1 0x40 MLOAD PUSH3 0x461BCD PUSH1 0xE5 SHL DUP2 MSTORE PUSH1 0x20 PUSH1 0x4 DUP3 ADD MSTORE PUSH1 0x3 PUSH1 0x24 DUP3 ADD MSTORE PUSH3 0x494C4D PUSH1 0xE8 SHL PUSH1 0x44 DUP3 ADD MSTORE PUSH1 0x64 ADD PUSH2 0x8BF JUMP JUMPDEST PUSH2 0x168D DUP10 DUP10 PUSH2 0x324F JUMP JUMPDEST PUSH2 0x1699 DUP6 DUP6 DUP10 DUP10 PUSH2 0x2C96 JUMP JUMPDEST PUSH1 0x40 DUP1 MLOAD DUP5 DUP2 MSTORE PUSH1 0x20 DUP2 ADD DUP5 SWAP1 MSTORE CALLER SWAP2 PUSH32 0x4C209B5FC8AD50758F13E2E1088BA56A560DFF690A1C6FEF26394F4C03821C4F SWAP2 ADD PUSH1 0x40 MLOAD DUP1 SWAP2 SUB SWAP1 LOG2 POP POP PUSH1 0x1 PUSH1 0x13 SSTORE POP SWAP4 SWAP6 SWAP5 POP POP POP POP POP JUMP JUMPDEST PUSH1 0x0 DUP1 PUSH1 0x13 SLOAD PUSH1 0x1 EQ PUSH2 0x16F8 JUMPI PUSH1 0x0 DUP1 REVERT JUMPDEST PUSH1 0x2 PUSH1 0x13 SSTORE PUSH1 0x8 SLOAD PUSH1 0x9 SLOAD PUSH1 0x40 MLOAD PUSH4 0x70A08231 PUSH1 0xE0 SHL DUP2 MSTORE ADDRESS PUSH1 0x4 DUP3 ADD MSTORE PUSH32 0x0 SWAP1 PUSH32 0x0 SWAP1 PUSH1 0x0 SWAP1 PUSH1 0x1 PUSH1 0x1 PUSH1 0xA0 SHL SUB DUP5 AND SWAP1 PUSH4 0x70A08231 SWAP1 PUSH1 0x24 ADD PUSH1 0x20 PUSH1 0x40 MLOAD DUP1 DUP4 SUB DUP2 DUP7 GAS STATICCALL ISZERO DUP1 ISZERO PUSH2 0x178E JUMPI RETURNDATASIZE PUSH1 0x0 DUP1 RETURNDATACOPY RETURNDATASIZE PUSH1 0x0 REVERT JUMPDEST POP POP POP POP PUSH1 0x40 MLOAD RETURNDATASIZE PUSH1 0x1F NOT PUSH1 0x1F DUP3 ADD AND DUP3 ADD DUP1 PUSH1 0x40 MSTORE POP DUP2 ADD SWAP1 PUSH2 0x17B2 SWAP2 SWAP1 PUSH2 0x3AA2 JUMP JUMPDEST PUSH1 0x40 MLOAD PUSH4 0x70A08231 PUSH1 0xE0 SHL DUP2 MSTORE ADDRESS PUSH1 0x4 DUP3 ADD MSTORE SWAP1 SWAP2 POP PUSH1 0x0 SWAP1 PUSH1 0x1 PUSH1 0x1 PUSH1 0xA0 SHL SUB DUP5 AND SWAP1 PUSH4 0x70A08231 SWAP1 PUSH1 0x24 ADD PUSH1 0x20 PUSH1 0x40 MLOAD DUP1 DUP4 SUB DUP2 DUP7 GAS STATICCALL ISZERO DUP1 ISZERO PUSH2 0x17FC JUMPI RETURNDATASIZE PUSH1 0x0 DUP1 RETURNDATACOPY RETURNDATASIZE PUSH1 0x0 REVERT JUMPDEST POP POP POP POP PUSH1 0x40 MLOAD RETURNDATASIZE PUSH1 0x1F NOT PUSH1 0x1F DUP3 ADD AND DUP3 ADD DUP1 PUSH1 0x40 MSTORE POP DUP2 ADD SWAP1 PUSH2 0x1820 SWAP2 SWAP1 PUSH2 0x3AA2 JUMP JUMPDEST ADDRESS PUSH1 0x0 SWAP1 DUP2 MSTORE PUSH1 0x4 PUSH1 0x20 MSTORE PUSH1 0x40 SWAP1 KECCAK256 SLOAD PUSH1 0x2 SLOAD SWAP2 SWAP3 POP SWAP1 DUP1 PUSH2 0x1842 DUP6 DUP5 PUSH2 0x3AE8 JUMP JUMPDEST PUSH2 0x184C SWAP2 SWAP1 PUSH2 0x3B07 JUMP JUMPDEST SWAP10 POP DUP1 PUSH2 0x1859 DUP5 DUP5 PUSH2 0x3AE8 JUMP JUMPDEST PUSH2 0x1863 SWAP2 SWAP1 PUSH2 0x3B07 JUMP JUMPDEST SWAP9 POP PUSH1 0x0 DUP11 GT DUP1 ISZERO PUSH2 0x1875 JUMPI POP PUSH1 0x0 DUP10 GT JUMPDEST PUSH2 0x18A7 JUMPI PUSH1 0x40 MLOAD PUSH3 0x461BCD PUSH1 0xE5 SHL DUP2 MSTORE PUSH1 0x20 PUSH1 0x4 DUP3 ADD MSTORE PUSH1 0x3 PUSH1 0x24 DUP3 ADD MSTORE PUSH3 0x24A621 PUSH1 0xE9 SHL PUSH1 0x44 DUP3 ADD MSTORE PUSH1 0x64 ADD PUSH2 0x8BF JUMP JUMPDEST PUSH2 0x18B1 ADDRESS DUP4 PUSH2 0x32F8 JUMP JUMPDEST PUSH2 0x18BC DUP7 DUP13 DUP13 PUSH2 0x238F JUMP JUMPDEST PUSH2 0x18C7 DUP6 DUP13 DUP12 PUSH2 0x238F JUMP JUMPDEST PUSH1 0x40 MLOAD PUSH4 0x70A08231 PUSH1 0xE0 SHL DUP2 MSTORE ADDRESS PUSH1 0x4 DUP3 ADD MSTORE PUSH1 0x1 PUSH1 0x1 PUSH1 0xA0 SHL SUB DUP8 AND SWAP1 PUSH4 0x70A08231 SWAP1 PUSH1 0x24 ADD PUSH1 0x20 PUSH1 0x40 MLOAD DUP1 DUP4 SUB DUP2 DUP7 GAS STATICCALL ISZERO DUP1 ISZERO PUSH2 0x190B JUMPI RETURNDATASIZE PUSH1 0x0 DUP1 RETURNDATACOPY RETURNDATASIZE PUSH1 0x0 REVERT JUMPDEST POP POP POP POP PUSH1 0x40 MLOAD RETURNDATASIZE PUSH1 0x1F NOT PUSH1 0x1F DUP3 ADD AND DUP3 ADD DUP1 PUSH1 0x40 MSTORE POP DUP2 ADD SWAP1 PUSH2 0x192F SWAP2 SWAP1 PUSH2 0x3AA2 JUMP JUMPDEST PUSH1 0x40 MLOAD PUSH4 0x70A08231 PUSH1 0xE0 SHL DUP2 MSTORE ADDRESS PUSH1 0x4 DUP3 ADD MSTORE SWAP1 SWAP5 POP PUSH1 0x1 PUSH1 0x1 PUSH1 0xA0 SHL SUB DUP7 AND SWAP1 PUSH4 0x70A08231 SWAP1 PUSH1 0x24 ADD PUSH1 0x20 PUSH1 0x40 MLOAD DUP1 DUP4 SUB DUP2 DUP7 GAS STATICCALL ISZERO DUP1 ISZERO PUSH2 0x1976 JUMPI RETURNDATASIZE PUSH1 0x0 DUP1 RETURNDATACOPY RETURNDATASIZE PUSH1 0x0 REVERT JUMPDEST POP POP POP POP PUSH1 0x40 MLOAD RETURNDATASIZE PUSH1 0x1F NOT PUSH1 0x1F DUP3 ADD AND DUP3 ADD DUP1 PUSH1 0x40 MSTORE POP DUP2 ADD SWAP1 PUSH2 0x199A SWAP2 SWAP1 PUSH2 0x3AA2 JUMP JUMPDEST SWAP3 POP PUSH2 0x19A8 DUP5 DUP5 DUP11 DUP11 PUSH2 0x2C96 JUMP JUMPDEST PUSH1 0x40 DUP1 MLOAD DUP12 DUP2 MSTORE PUSH1 0x20 DUP2 ADD DUP12 SWAP1 MSTORE PUSH1 0x1 PUSH1 0x1 PUSH1 0xA0 SHL SUB DUP14 AND SWAP2 CALLER SWAP2 PUSH32 0xDCCD412F0B1252819CB1FD330B93224CA42612892BB3F4F789976E6D81936496 SWAP2 ADD PUSH1 0x40 MLOAD DUP1 SWAP2 SUB SWAP1 LOG3 POP POP POP POP POP POP POP POP PUSH1 0x1 PUSH1 0x13 DUP2 SWAP1 SSTORE POP SWAP2 POP SWAP2 JUMP JUMPDEST PUSH2 0x1A27 PUSH1 0x40 MLOAD DUP1 PUSH1 0x60 ADD PUSH1 0x40 MSTORE DUP1 PUSH1 0x0 DUP2 MSTORE PUSH1 0x20 ADD PUSH1 0x0 DUP2 MSTORE PUSH1 0x20 ADD PUSH1 0x0 DUP2 MSTORE POP SWAP1 JUMP JUMPDEST PUSH1 0x7 DUP1 SLOAD PUSH2 0x1A37 SWAP1 PUSH1 0x1 SWAP1 PUSH2 0x3AD1 JUMP JUMPDEST DUP2 SLOAD DUP2 LT PUSH2 0x1A47 JUMPI PUSH2 0x1A47 PUSH2 0x3B8B JUMP JUMPDEST SWAP1 PUSH1 0x0 MSTORE PUSH1 0x20 PUSH1 0x0 KECCAK256 SWAP1 PUSH1 0x3 MUL ADD PUSH1 0x40 MLOAD DUP1 PUSH1 0x60 ADD PUSH1 0x40 MSTORE SWAP1 DUP2 PUSH1 0x0 DUP3 ADD SLOAD DUP2 MSTORE PUSH1 0x20 ADD PUSH1 0x1 DUP3 ADD SLOAD DUP2 MSTORE PUSH1 0x20 ADD PUSH1 0x2 DUP3 ADD SLOAD DUP2 MSTORE POP POP SWAP1 POP SWAP1 JUMP JUMPDEST PUSH1 0x1 DUP1 SLOAD PUSH2 0xF39 SWAP1 PUSH2 0x3B29 JUMP JUMPDEST PUSH1 0x0 DUP1 PUSH2 0x1AA0 DUP6 DUP6 DUP6 PUSH1 0x1 PUSH2 0x1027 JUMP JUMPDEST SWAP1 POP PUSH1 0x0 DUP1 JUMPDEST DUP3 MLOAD DUP2 LT ISZERO PUSH2 0x1AE8 JUMPI DUP3 DUP2 DUP2 MLOAD DUP2 LT PUSH2 0x1AC1 JUMPI PUSH2 0x1AC1 PUSH2 0x3B8B JUMP JUMPDEST PUSH1 0x20 MUL PUSH1 0x20 ADD ADD MLOAD DUP3 PUSH2 0x1AD4 SWAP2 SWAP1 PUSH2 0x3B73 JUMP JUMPDEST SWAP2 POP DUP1 PUSH2 0x1AE0 DUP2 PUSH2 0x3BA1 JUMP JUMPDEST SWAP2 POP POP PUSH2 0x1AA6 JUMP JUMPDEST POP PUSH2 0x1AF3 DUP5 DUP3 PUSH2 0x3B07 JUMP JUMPDEST SWAP7 SWAP6 POP POP POP POP POP POP JUMP JUMPDEST PUSH1 0x0 PUSH2 0x1B0A CALLER DUP5 DUP5 PUSH2 0x311F JUMP JUMPDEST POP PUSH1 0x1 SWAP3 SWAP2 POP POP JUMP JUMPDEST PUSH1 0x13 SLOAD PUSH1 0x1 EQ PUSH2 0x1B22 JUMPI PUSH1 0x0 DUP1 REVERT JUMPDEST PUSH1 0x2 PUSH1 0x13 SSTORE PUSH1 0x8 SLOAD PUSH1 0x40 MLOAD PUSH4 0x70A08231 PUSH1 0xE0 SHL DUP2 MSTORE ADDRESS PUSH1 0x4 DUP3 ADD MSTORE PUSH32 0x0 SWAP2 PUSH32 0x0 SWAP2 PUSH2 0x1BEF SWAP2 DUP5 SWAP2 DUP7 SWAP2 SWAP1 PUSH1 0x1 PUSH1 0x1 PUSH1 0xA0 SHL SUB DUP5 AND SWAP1 PUSH4 0x70A08231 SWAP1 PUSH1 0x24 ADD JUMPDEST PUSH1 0x20 PUSH1 0x40 MLOAD DUP1 DUP4 SUB DUP2 DUP7 GAS STATICCALL ISZERO DUP1 ISZERO PUSH2 0x1BBC JUMPI RETURNDATASIZE PUSH1 0x0 DUP1 RETURNDATACOPY RETURNDATASIZE PUSH1 0x0 REVERT JUMPDEST POP POP POP POP PUSH1 0x40 MLOAD RETURNDATASIZE PUSH1 0x1F NOT PUSH1 0x1F DUP3 ADD AND DUP3 ADD DUP1 PUSH1 0x40 MSTORE POP DUP2 ADD SWAP1 PUSH2 0x1BE0 SWAP2 SWAP1 PUSH2 0x3AA2 JUMP JUMPDEST PUSH2 0x1BEA SWAP2 SWAP1 PUSH2 0x3AD1 JUMP JUMPDEST PUSH2 0x238F JUMP JUMPDEST PUSH1 0x9 SLOAD PUSH1 0x40 MLOAD PUSH4 0x70A08231 PUSH1 0xE0 SHL DUP2 MSTORE ADDRESS PUSH1 0x4 DUP3 ADD MSTORE PUSH2 0x1C27 SWAP2 DUP4 SWAP2 DUP7 SWAP2 SWAP1 PUSH1 0x1 PUSH1 0x1 PUSH1 0xA0 SHL SUB DUP5 AND SWAP1 PUSH4 0x70A08231 SWAP1 PUSH1 0x24 ADD PUSH2 0x1B9F JUMP JUMPDEST POP POP PUSH1 0x1 PUSH1 0x13 SSTORE POP JUMP JUMPDEST PUSH1 0x0 DUP1 PUSH2 0x1C3D CALLER PUSH2 0x3383 JUMP JUMPDEST POP POP CALLER PUSH1 0x0 SWAP1 DUP2 MSTORE PUSH1 0x11 PUSH1 0x20 SWAP1 DUP2 MSTORE PUSH1 0x40 DUP1 DUP4 KECCAK256 SLOAD PUSH1 0x12 SWAP1 SWAP3 MSTORE SWAP1 SWAP2 KECCAK256 SLOAD DUP2 ISZERO ISZERO DUP1 PUSH2 0x1C69 JUMPI POP PUSH1 0x0 DUP2 GT JUMPDEST ISZERO PUSH2 0x1D54 JUMPI CALLER PUSH1 0x0 DUP2 DUP2 MSTORE PUSH1 0x11 PUSH1 0x20 SWAP1 DUP2 MSTORE PUSH1 0x40 DUP1 DUP4 KECCAK256 DUP4 SWAP1 SSTORE PUSH1 0x12 SWAP1 SWAP2 MSTORE DUP1 DUP3 KECCAK256 SWAP2 SWAP1 SWAP2 SSTORE MLOAD PUSH4 0x299E7AE7 PUSH1 0xE1 SHL DUP2 MSTORE PUSH1 0x4 DUP2 ADD SWAP2 SWAP1 SWAP2 MSTORE PUSH1 0x24 DUP2 ADD DUP4 SWAP1 MSTORE PUSH1 0x44 DUP2 ADD DUP3 SWAP1 MSTORE PUSH1 0x1 PUSH1 0x1 PUSH1 0xA0 SHL SUB PUSH32 0x0 AND SWAP1 PUSH4 0x533CF5CE SWAP1 PUSH1 0x64 ADD PUSH1 0x0 PUSH1 0x40 MLOAD DUP1 DUP4 SUB DUP2 PUSH1 0x0 DUP8 DUP1 EXTCODESIZE ISZERO DUP1 ISZERO PUSH2 0x1CFE JUMPI PUSH1 0x0 DUP1 REVERT JUMPDEST POP GAS CALL ISZERO DUP1 ISZERO PUSH2 0x1D12 JUMPI RETURNDATASIZE PUSH1 0x0 DUP1 RETURNDATACOPY RETURNDATASIZE PUSH1 0x0 REVERT JUMPDEST POP POP PUSH1 0x40 DUP1 MLOAD DUP6 DUP2 MSTORE PUSH1 0x20 DUP2 ADD DUP6 SWAP1 MSTORE CALLER SWAP4 POP DUP4 SWAP3 POP PUSH32 0x865CA08D59F5CB456E85CD2F7EF63664EA4F73327414E9D8152C4158B0E94645 SWAP2 ADD PUSH1 0x40 MLOAD DUP1 SWAP2 SUB SWAP1 LOG3 JUMPDEST SWAP1 SWAP2 JUMP JUMPDEST TIMESTAMP DUP5 LT ISZERO PUSH2 0x1D98 JUMPI PUSH1 0x40 MLOAD PUSH3 0x461BCD PUSH1 0xE5 SHL DUP2 MSTORE PUSH1 0x20 PUSH1 0x4 DUP3 ADD MSTORE PUSH1 0xD PUSH1 0x24 DUP3 ADD MSTORE PUSH13 0x14185A5C8E8811561412549151 PUSH1 0x9A SHL PUSH1 0x44 DUP3 ADD MSTORE PUSH1 0x64 ADD PUSH2 0x8BF JUMP JUMPDEST PUSH32 0x8B73C3C69BB8FE3D512ECC4CF759CC79239F7B179B0FFACAA9A75D522B39400F PUSH1 0x0 PUSH1 0x40 MLOAD PUSH2 0x1DC8 SWAP2 SWAP1 PUSH2 0x3BBA JUMP JUMPDEST PUSH1 0x40 DUP1 MLOAD SWAP2 DUP3 SWAP1 SUB DUP3 KECCAK256 DUP3 DUP3 ADD DUP3 MSTORE PUSH1 0x1 DUP4 MSTORE PUSH1 0x31 PUSH1 0xF8 SHL PUSH1 0x20 SWAP4 DUP5 ADD MSTORE DUP2 MLOAD SWAP3 DUP4 ADD SWAP4 SWAP1 SWAP4 MSTORE DUP2 ADD SWAP2 SWAP1 SWAP2 MSTORE PUSH32 0xC89EFDAA54C0F20C7ADF612882DF0950F5A951637E0307CDCB4C672F298B8BC6 PUSH1 0x60 DUP3 ADD MSTORE CHAINID PUSH1 0x80 DUP3 ADD MSTORE ADDRESS PUSH1 0xA0 DUP3 ADD MSTORE PUSH1 0xC0 ADD PUSH1 0x40 DUP1 MLOAD PUSH1 0x1F NOT DUP2 DUP5 SUB ADD DUP2 MSTORE SWAP2 DUP2 MSTORE DUP2 MLOAD PUSH1 0x20 SWAP3 DUP4 ADD KECCAK256 PUSH1 0x5 DUP2 SWAP1 SSTORE PUSH1 0x1 PUSH1 0x1 PUSH1 0xA0 SHL SUB DUP11 AND PUSH1 0x0 SWAP1 DUP2 MSTORE PUSH1 0x6 SWAP1 SWAP4 MSTORE SWAP1 DUP3 KECCAK256 DUP1 SLOAD PUSH32 0x6E71EDAE12B1B97F4D1F60370FEF10105FA2FAAE0126114A169C64845D6126C9 SWAP2 DUP12 SWAP2 DUP12 SWAP2 DUP12 SWAP2 SWAP1 DUP8 PUSH2 0x1E93 DUP4 PUSH2 0x3BA1 JUMP JUMPDEST SWAP1 SWAP2 SSTORE POP PUSH1 0x40 DUP1 MLOAD PUSH1 0x20 DUP2 ADD SWAP7 SWAP1 SWAP7 MSTORE PUSH1 0x1 PUSH1 0x1 PUSH1 0xA0 SHL SUB SWAP5 DUP6 AND SWAP1 DUP7 ADD MSTORE SWAP3 SWAP1 SWAP2 AND PUSH1 0x60 DUP5 ADD MSTORE PUSH1 0x80 DUP4 ADD MSTORE PUSH1 0xA0 DUP3 ADD MSTORE PUSH1 0xC0 DUP2 ADD DUP8 SWAP1 MSTORE PUSH1 0xE0 ADD PUSH1 0x40 MLOAD PUSH1 0x20 DUP2 DUP4 SUB SUB DUP2 MSTORE SWAP1 PUSH1 0x40 MSTORE DUP1 MLOAD SWAP1 PUSH1 0x20 ADD KECCAK256 PUSH1 0x40 MLOAD PUSH1 0x20 ADD PUSH2 0x1F0C SWAP3 SWAP2 SWAP1 PUSH2 0x1901 PUSH1 0xF0 SHL DUP2 MSTORE PUSH1 0x2 DUP2 ADD SWAP3 SWAP1 SWAP3 MSTORE PUSH1 0x22 DUP3 ADD MSTORE PUSH1 0x42 ADD SWAP1 JUMP JUMPDEST PUSH1 0x40 DUP1 MLOAD PUSH1 0x1F NOT DUP2 DUP5 SUB ADD DUP2 MSTORE DUP3 DUP3 MSTORE DUP1 MLOAD PUSH1 0x20 SWAP2 DUP3 ADD KECCAK256 PUSH1 0x0 DUP1 DUP6 MSTORE SWAP2 DUP5 ADD DUP1 DUP5 MSTORE DUP2 SWAP1 MSTORE PUSH1 0xFF DUP9 AND SWAP3 DUP5 ADD SWAP3 SWAP1 SWAP3 MSTORE PUSH1 0x60 DUP4 ADD DUP7 SWAP1 MSTORE PUSH1 0x80 DUP4 ADD DUP6 SWAP1 MSTORE SWAP1 SWAP3 POP SWAP1 PUSH1 0x1 SWAP1 PUSH1 0xA0 ADD PUSH1 0x20 PUSH1 0x40 MLOAD PUSH1 0x20 DUP2 SUB SWAP1 DUP1 DUP5 SUB SWAP1 DUP6 GAS STATICCALL ISZERO DUP1 ISZERO PUSH2 0x1F77 JUMPI RETURNDATASIZE PUSH1 0x0 DUP1 RETURNDATACOPY RETURNDATASIZE PUSH1 0x0 REVERT JUMPDEST POP POP PUSH1 0x40 MLOAD PUSH1 0x1F NOT ADD MLOAD SWAP2 POP POP PUSH1 0x1 PUSH1 0x1 PUSH1 0xA0 SHL SUB DUP2 AND ISZERO DUP1 ISZERO SWAP1 PUSH2 0x1FAD JUMPI POP DUP9 PUSH1 0x1 PUSH1 0x1 PUSH1 0xA0 SHL SUB AND DUP2 PUSH1 0x1 PUSH1 0x1 PUSH1 0xA0 SHL SUB AND EQ JUMPDEST PUSH2 0x1FF9 JUMPI PUSH1 0x40 MLOAD PUSH3 0x461BCD PUSH1 0xE5 SHL DUP2 MSTORE PUSH1 0x20 PUSH1 0x4 DUP3 ADD MSTORE PUSH1 0x17 PUSH1 0x24 DUP3 ADD MSTORE PUSH32 0x506169723A20494E56414C49445F5349474E4154555245000000000000000000 PUSH1 0x44 DUP3 ADD MSTORE PUSH1 0x64 ADD PUSH2 0x8BF JUMP JUMPDEST PUSH1 0x1 PUSH1 0x1 PUSH1 0xA0 SHL SUB DUP10 DUP2 AND PUSH1 0x0 DUP2 DUP2 MSTORE PUSH1 0x3 PUSH1 0x20 SWAP1 DUP2 MSTORE PUSH1 0x40 DUP1 DUP4 KECCAK256 SWAP5 DUP14 AND DUP1 DUP5 MSTORE SWAP5 DUP3 MSTORE SWAP2 DUP3 SWAP1 KECCAK256 DUP12 SWAP1 SSTORE SWAP1 MLOAD DUP11 DUP2 MSTORE PUSH32 0x8C5BE1E5EBEC7D5BD14F71427D1E84F3DD0314C0F7B2291E5B200AC8C7C3B925 SWAP2 ADD PUSH1 0x40 MLOAD DUP1 SWAP2 SUB SWAP1 LOG3 POP POP POP POP POP POP POP POP POP JUMP JUMPDEST PUSH1 0x0 PUSH32 0x0 PUSH1 0x1 PUSH1 0x1 PUSH1 0xA0 SHL SUB AND PUSH4 0xC124A4A2 PUSH1 0x40 MLOAD DUP2 PUSH4 0xFFFFFFFF AND PUSH1 0xE0 SHL DUP2 MSTORE PUSH1 0x4 ADD PUSH1 0x20 PUSH1 0x40 MLOAD DUP1 DUP4 SUB DUP2 DUP7 GAS STATICCALL ISZERO DUP1 ISZERO PUSH2 0x20C0 JUMPI RETURNDATASIZE PUSH1 0x0 DUP1 RETURNDATACOPY RETURNDATASIZE PUSH1 0x0 REVERT JUMPDEST POP POP POP POP PUSH1 0x40 MLOAD RETURNDATASIZE PUSH1 0x1F NOT PUSH1 0x1F DUP3 ADD AND DUP3 ADD DUP1 PUSH1 0x40 MSTORE POP DUP2 ADD SWAP1 PUSH2 0x20E4 SWAP2 SWAP1 PUSH2 0x3C55 JUMP JUMPDEST PUSH1 0x40 MLOAD PUSH4 0xF8518B89 PUSH1 0xE0 SHL DUP2 MSTORE PUSH1 0x1 PUSH1 0x1 PUSH1 0xA0 SHL SUB DUP1 DUP4 AND PUSH1 0x4 DUP4 ADD MSTORE SWAP2 SWAP3 POP PUSH32 0x0 SWAP1 SWAP2 AND SWAP1 PUSH4 0xF8518B89 SWAP1 PUSH1 0x24 ADD PUSH1 0x0 PUSH1 0x40 MLOAD DUP1 DUP4 SUB DUP2 PUSH1 0x0 DUP8 DUP1 EXTCODESIZE ISZERO DUP1 ISZERO PUSH2 0x214C JUMPI PUSH1 0x0 DUP1 REVERT JUMPDEST POP GAS CALL ISZERO DUP1 ISZERO PUSH2 0x2160 JUMPI RETURNDATASIZE PUSH1 0x0 DUP1 RETURNDATACOPY RETURNDATASIZE PUSH1 0x0 REVERT JUMPDEST POP POP POP POP POP JUMP JUMPDEST PUSH1 0x8 SLOAD PUSH1 0x9 SLOAD PUSH1 0x40 MLOAD PUSH4 0x2895A2F5 PUSH1 0xE1 SHL DUP2 MSTORE PUSH32 0x0 ISZERO ISZERO PUSH1 0x4 DUP3 ADD MSTORE PUSH1 0x0 SWAP3 SWAP2 SWAP1 PUSH2 0x2710 SWAP1 PUSH32 0x0 PUSH1 0x1 PUSH1 0x1 PUSH1 0xA0 SHL SUB AND SWAP1 PUSH4 0x512B45EA SWAP1 PUSH1 0x24 ADD PUSH1 0x20 PUSH1 0x40 MLOAD DUP1 DUP4 SUB DUP2 DUP7 GAS STATICCALL ISZERO DUP1 ISZERO PUSH2 0x21FC JUMPI RETURNDATASIZE PUSH1 0x0 DUP1 RETURNDATACOPY RETURNDATASIZE PUSH1 0x0 REVERT JUMPDEST POP POP POP POP PUSH1 0x40 MLOAD RETURNDATASIZE PUSH1 0x1F NOT PUSH1 0x1F DUP3 ADD AND DUP3 ADD DUP1 PUSH1 0x40 MSTORE POP DUP2 ADD SWAP1 PUSH2 0x2220 SWAP2 SWAP1 PUSH2 0x3AA2 JUMP JUMPDEST PUSH2 0x222A SWAP1 DUP8 PUSH2 0x3AE8 JUMP JUMPDEST PUSH2 0x2234 SWAP2 SWAP1 PUSH2 0x3B07 JUMP JUMPDEST PUSH2 0x223E SWAP1 DUP7 PUSH2 0x3AD1 JUMP JUMPDEST SWAP5 POP PUSH2 0x224C DUP6 DUP6 DUP5 DUP5 PUSH2 0x2E2A JUMP JUMPDEST SWAP6 SWAP5 POP POP POP POP POP JUMP JUMPDEST PUSH1 0x13 SLOAD PUSH1 0x1 EQ PUSH2 0x2264 JUMPI PUSH1 0x0 DUP1 REVERT JUMPDEST PUSH1 0x2 PUSH1 0x13 SSTORE PUSH1 0x40 MLOAD PUSH4 0x70A08231 PUSH1 0xE0 SHL DUP2 MSTORE ADDRESS PUSH1 0x4 DUP3 ADD MSTORE PUSH2 0x2388 SWAP1 PUSH32 0x0 PUSH1 0x1 PUSH1 0x1 PUSH1 0xA0 SHL SUB AND SWAP1 PUSH4 0x70A08231 SWAP1 PUSH1 0x24 ADD PUSH1 0x20 PUSH1 0x40 MLOAD DUP1 DUP4 SUB DUP2 DUP7 GAS STATICCALL ISZERO DUP1 ISZERO PUSH2 0x22D1 JUMPI RETURNDATASIZE PUSH1 0x0 DUP1 RETURNDATACOPY RETURNDATASIZE PUSH1 0x0 REVERT JUMPDEST POP POP POP POP PUSH1 0x40 MLOAD RETURNDATASIZE PUSH1 0x1F NOT PUSH1 0x1F DUP3 ADD AND DUP3 ADD DUP1 PUSH1 0x40 MSTORE POP DUP2 ADD SWAP1 PUSH2 0x22F5 SWAP2 SWAP1 PUSH2 0x3AA2 JUMP JUMPDEST PUSH1 0x40 MLOAD PUSH4 0x70A08231 PUSH1 0xE0 SHL DUP2 MSTORE ADDRESS PUSH1 0x4 DUP3 ADD MSTORE PUSH32 0x0 PUSH1 0x1 PUSH1 0x1 PUSH1 0xA0 SHL SUB AND SWAP1 PUSH4 0x70A08231 SWAP1 PUSH1 0x24 ADD PUSH1 0x20 PUSH1 0x40 MLOAD DUP1 DUP4 SUB DUP2 DUP7 GAS STATICCALL ISZERO DUP1 ISZERO PUSH2 0x2359 JUMPI RETURNDATASIZE PUSH1 0x0 DUP1 RETURNDATACOPY RETURNDATASIZE PUSH1 0x0 REVERT JUMPDEST POP POP POP POP PUSH1 0x40 MLOAD RETURNDATASIZE PUSH1 0x1F NOT PUSH1 0x1F DUP3 ADD AND DUP3 ADD DUP1 PUSH1 0x40 MSTORE POP DUP2 ADD SWAP1 PUSH2 0x237D SWAP2 SWAP1 PUSH2 0x3AA2 JUMP JUMPDEST PUSH1 0x8 SLOAD PUSH1 0x9 SLOAD PUSH2 0x2C96 JUMP JUMPDEST PUSH1 0x1 PUSH1 0x13 SSTORE JUMP JUMPDEST PUSH1 0x0 DUP4 PUSH1 0x1 PUSH1 0x1 PUSH1 0xA0 SHL SUB AND EXTCODESIZE GT PUSH2 0x23A6 JUMPI PUSH1 0x0 DUP1 REVERT JUMPDEST PUSH1 0x40 DUP1 MLOAD PUSH1 0x1 PUSH1 0x1 PUSH1 0xA0 SHL SUB DUP5 DUP2 AND PUSH1 0x24 DUP4 ADD MSTORE PUSH1 0x44 DUP1 DUP4 ADD DUP6 SWAP1 MSTORE DUP4 MLOAD DUP1 DUP5 SUB SWAP1 SWAP2 ADD DUP2 MSTORE PUSH1 0x64 SWAP1 SWAP3 ADD DUP4 MSTORE PUSH1 0x20 DUP3 ADD DUP1 MLOAD PUSH1 0x1 PUSH1 0x1 PUSH1 0xE0 SHL SUB AND PUSH4 0xA9059CBB PUSH1 0xE0 SHL OR SWAP1 MSTORE SWAP2 MLOAD PUSH1 0x0 SWAP3 DUP4 SWAP3 SWAP1 DUP8 AND SWAP2 PUSH2 0x2402 SWAP2 SWAP1 PUSH2 0x3C72 JUMP JUMPDEST PUSH1 0x0 PUSH1 0x40 MLOAD DUP1 DUP4 SUB DUP2 PUSH1 0x0 DUP7 GAS CALL SWAP2 POP POP RETURNDATASIZE DUP1 PUSH1 0x0 DUP2 EQ PUSH2 0x243F JUMPI PUSH1 0x40 MLOAD SWAP2 POP PUSH1 0x1F NOT PUSH1 0x3F RETURNDATASIZE ADD AND DUP3 ADD PUSH1 0x40 MSTORE RETURNDATASIZE DUP3 MSTORE RETURNDATASIZE PUSH1 0x0 PUSH1 0x20 DUP5 ADD RETURNDATACOPY PUSH2 0x2444 JUMP JUMPDEST PUSH1 0x60 SWAP2 POP JUMPDEST POP SWAP2 POP SWAP2 POP DUP2 DUP1 ISZERO PUSH2 0x246E JUMPI POP DUP1 MLOAD ISZERO DUP1 PUSH2 0x246E JUMPI POP DUP1 DUP1 PUSH1 0x20 ADD SWAP1 MLOAD DUP2 ADD SWAP1 PUSH2 0x246E SWAP2 SWAP1 PUSH2 0x3A34 JUMP JUMPDEST PUSH2 0x2160 JUMPI PUSH1 0x0 DUP1 REVERT JUMPDEST PUSH1 0x0 PUSH32 0x0 PUSH1 0x1 PUSH1 0x1 PUSH1 0xA0 SHL SUB AND PUSH4 0x7BE1623E PUSH1 0x40 MLOAD DUP2 PUSH4 0xFFFFFFFF AND PUSH1 0xE0 SHL DUP2 MSTORE PUSH1 0x4 ADD PUSH1 0x20 PUSH1 0x40 MLOAD DUP1 DUP4 SUB DUP2 DUP7 GAS STATICCALL ISZERO DUP1 ISZERO PUSH2 0x24D7 JUMPI RETURNDATASIZE PUSH1 0x0 DUP1 RETURNDATACOPY RETURNDATASIZE PUSH1 0x0 REVERT JUMPDEST POP POP POP POP PUSH1 0x40 MLOAD RETURNDATASIZE PUSH1 0x1F NOT PUSH1 0x1F DUP3 ADD AND DUP3 ADD DUP1 PUSH1 0x40 MSTORE POP DUP2 ADD SWAP1 PUSH2 0x24FB SWAP2 SWAP1 PUSH2 0x3C55 JUMP JUMPDEST SWAP1 POP PUSH1 0x0 PUSH32 0x0 PUSH1 0x1 PUSH1 0x1 PUSH1 0xA0 SHL SUB AND PUSH4 0x1E61079C PUSH1 0x40 MLOAD DUP2 PUSH4 0xFFFFFFFF AND PUSH1 0xE0 SHL DUP2 MSTORE PUSH1 0x4 ADD PUSH1 0x20 PUSH1 0x40 MLOAD DUP1 DUP4 SUB DUP2 DUP7 GAS STATICCALL ISZERO DUP1 ISZERO PUSH2 0x255D JUMPI RETURNDATASIZE PUSH1 0x0 DUP1 RETURNDATACOPY RETURNDATASIZE PUSH1 0x0 REVERT JUMPDEST POP POP POP POP PUSH1 0x40 MLOAD RETURNDATASIZE PUSH1 0x1F NOT PUSH1 0x1F DUP3 ADD AND DUP3 ADD DUP1 PUSH1 0x40 MSTORE POP DUP2 ADD SWAP1 PUSH2 0x2581 SWAP2 SWAP1 PUSH2 0x3AA2 JUMP JUMPDEST SWAP1 POP PUSH1 0x0 PUSH2 0x2710 PUSH2 0x2592 DUP4 DUP7 PUSH2 0x3AE8 JUMP JUMPDEST PUSH2 0x259C SWAP2 SWAP1 PUSH2 0x3B07 JUMP JUMPDEST SWAP1 POP PUSH2 0x25C9 PUSH32 0x0 DUP5 DUP4 PUSH2 0x238F JUMP JUMPDEST PUSH2 0x25D3 DUP2 DUP6 PUSH2 0x3AD1 JUMP JUMPDEST SWAP4 POP PUSH1 0x0 PUSH2 0x2710 PUSH32 0x0 PUSH1 0x1 PUSH1 0x1 PUSH1 0xA0 SHL SUB AND PUSH4 0x956F94A1 PUSH1 0x40 MLOAD DUP2 PUSH4 0xFFFFFFFF AND PUSH1 0xE0 SHL DUP2 MSTORE PUSH1 0x4 ADD PUSH1 0x20 PUSH1 0x40 MLOAD DUP1 DUP4 SUB DUP2 DUP7 GAS STATICCALL ISZERO DUP1 ISZERO PUSH2 0x2638 JUMPI RETURNDATASIZE PUSH1 0x0 DUP1 RETURNDATACOPY RETURNDATASIZE PUSH1 0x0 REVERT JUMPDEST POP POP POP POP PUSH1 0x40 MLOAD RETURNDATASIZE PUSH1 0x1F NOT PUSH1 0x1F DUP3 ADD AND DUP3 ADD DUP1 PUSH1 0x40 MSTORE POP DUP2 ADD SWAP1 PUSH2 0x265C SWAP2 SWAP1 PUSH2 0x3AA2 JUMP JUMPDEST PUSH2 0x2666 SWAP1 DUP8 PUSH2 0x3AE8 JUMP JUMPDEST PUSH2 0x2670 SWAP2 SWAP1 PUSH2 0x3B07 JUMP JUMPDEST PUSH1 0x40 MLOAD PUSH4 0x8D4DABFF PUSH1 0xE0 SHL DUP2 MSTORE PUSH1 0x4 DUP2 ADD DUP3 SWAP1 MSTORE PUSH1 0x1 PUSH1 0x24 DUP3 ADD MSTORE SWAP1 SWAP2 POP PUSH32 0x0 PUSH1 0x1 PUSH1 0x1 PUSH1 0xA0 SHL SUB AND SWAP1 PUSH4 0x8D4DABFF SWAP1 PUSH1 0x44 ADD PUSH1 0x0 PUSH1 0x40 MLOAD DUP1 DUP4 SUB DUP2 PUSH1 0x0 DUP8 DUP1 EXTCODESIZE ISZERO DUP1 ISZERO PUSH2 0x26DC JUMPI PUSH1 0x0 DUP1 REVERT JUMPDEST POP GAS CALL ISZERO DUP1 ISZERO PUSH2 0x26F0 JUMPI RETURNDATASIZE PUSH1 0x0 DUP1 RETURNDATACOPY RETURNDATASIZE PUSH1 0x0 REVERT JUMPDEST POP POP POP POP PUSH2 0x273F PUSH32 0x0 PUSH32 0x0 DUP8 PUSH2 0x238F JUMP JUMPDEST PUSH2 0x2749 DUP2 DUP7 PUSH2 0x3AD1 JUMP JUMPDEST SWAP5 POP PUSH1 0x0 PUSH1 0x2 SLOAD DUP7 PUSH8 0xDE0B6B3A7640000 PUSH2 0x2764 SWAP2 SWAP1 PUSH2 0x3AE8 JUMP JUMPDEST PUSH2 0x276E SWAP2 SWAP1 PUSH2 0x3B07 JUMP JUMPDEST SWAP1 POP DUP1 ISZERO PUSH2 0x278E JUMPI DUP1 PUSH1 0xD PUSH1 0x0 DUP3 DUP3 SLOAD PUSH2 0x2788 SWAP2 SWAP1 PUSH2 0x3B73 JUMP JUMPDEST SWAP1 SWAP2 SSTORE POP POP JUMPDEST CALLER PUSH32 0x112C256902BF554B6ED882D2936687AAEB4225E8CD5B51303C90CA6CF43A8602 DUP5 PUSH2 0x27BB DUP6 DUP11 PUSH2 0x3B73 JUMP JUMPDEST PUSH2 0x27C5 SWAP2 SWAP1 PUSH2 0x3B73 JUMP JUMPDEST PUSH1 0x40 DUP1 MLOAD SWAP2 DUP3 MSTORE PUSH1 0x0 PUSH1 0x20 DUP4 ADD MSTORE ADD JUMPDEST PUSH1 0x40 MLOAD DUP1 SWAP2 SUB SWAP1 LOG2 POP POP POP POP POP POP JUMP JUMPDEST PUSH1 0x0 PUSH32 0x0 PUSH1 0x1 PUSH1 0x1 PUSH1 0xA0 SHL SUB AND PUSH4 0x7BE1623E PUSH1 0x40 MLOAD DUP2 PUSH4 0xFFFFFFFF AND PUSH1 0xE0 SHL DUP2 MSTORE PUSH1 0x4 ADD PUSH1 0x20 PUSH1 0x40 MLOAD DUP1 DUP4 SUB DUP2 DUP7 GAS STATICCALL ISZERO DUP1 ISZERO PUSH2 0x2845 JUMPI RETURNDATASIZE PUSH1 0x0 DUP1 RETURNDATACOPY RETURNDATASIZE PUSH1 0x0 REVERT JUMPDEST POP POP POP POP PUSH1 0x40 MLOAD RETURNDATASIZE PUSH1 0x1F NOT PUSH1 0x1F DUP3 ADD AND DUP3 ADD DUP1 PUSH1 0x40 MSTORE POP DUP2 ADD SWAP1 PUSH2 0x2869 SWAP2 SWAP1 PUSH2 0x3C55 JUMP JUMPDEST SWAP1 POP PUSH1 0x0 PUSH32 0x0 PUSH1 0x1 PUSH1 0x1 PUSH1 0xA0 SHL SUB AND PUSH4 0x1E61079C PUSH1 0x40 MLOAD DUP2 PUSH4 0xFFFFFFFF AND PUSH1 0xE0 SHL DUP2 MSTORE PUSH1 0x4 ADD PUSH1 0x20 PUSH1 0x40 MLOAD DUP1 DUP4 SUB DUP2 DUP7 GAS STATICCALL ISZERO DUP1 ISZERO PUSH2 0x28CB JUMPI RETURNDATASIZE PUSH1 0x0 DUP1 RETURNDATACOPY RETURNDATASIZE PUSH1 0x0 REVERT JUMPDEST POP POP POP POP PUSH1 0x40 MLOAD RETURNDATASIZE PUSH1 0x1F NOT PUSH1 0x1F DUP3 ADD AND DUP3 ADD DUP1 PUSH1 0x40 MSTORE POP DUP2 ADD SWAP1 PUSH2 0x28EF SWAP2 SWAP1 PUSH2 0x3AA2 JUMP JUMPDEST SWAP1 POP PUSH1 0x0 PUSH2 0x2710 PUSH2 0x2900 DUP4 DUP7 PUSH2 0x3AE8 JUMP JUMPDEST PUSH2 0x290A SWAP2 SWAP1 PUSH2 0x3B07 JUMP JUMPDEST SWAP1 POP PUSH2 0x2937 PUSH32 0x0 DUP5 DUP4 PUSH2 0x238F JUMP JUMPDEST PUSH2 0x2941 DUP2 DUP6 PUSH2 0x3AD1 JUMP JUMPDEST SWAP4 POP PUSH1 0x0 PUSH2 0x2710 PUSH32 0x0 PUSH1 0x1 PUSH1 0x1 PUSH1 0xA0 SHL SUB AND PUSH4 0x956F94A1 PUSH1 0x40 MLOAD DUP2 PUSH4 0xFFFFFFFF AND PUSH1 0xE0 SHL DUP2 MSTORE PUSH1 0x4 ADD PUSH1 0x20 PUSH1 0x40 MLOAD DUP1 DUP4 SUB DUP2 DUP7 GAS STATICCALL ISZERO DUP1 ISZERO PUSH2 0x29A6 JUMPI RETURNDATASIZE PUSH1 0x0 DUP1 RETURNDATACOPY RETURNDATASIZE PUSH1 0x0 REVERT JUMPDEST POP POP POP POP PUSH1 0x40 MLOAD RETURNDATASIZE PUSH1 0x1F NOT PUSH1 0x1F DUP3 ADD AND DUP3 ADD DUP1 PUSH1 0x40 MSTORE POP DUP2 ADD SWAP1 PUSH2 0x29CA SWAP2 SWAP1 PUSH2 0x3AA2 JUMP JUMPDEST PUSH2 0x29D4 SWAP1 DUP8 PUSH2 0x3AE8 JUMP JUMPDEST PUSH2 0x29DE SWAP2 SWAP1 PUSH2 0x3B07 JUMP JUMPDEST PUSH1 0x40 MLOAD PUSH4 0x8D4DABFF PUSH1 0xE0 SHL DUP2 MSTORE PUSH1 0x4 DUP2 ADD DUP3 SWAP1 MSTORE PUSH1 0x0 PUSH1 0x24 DUP3 ADD MSTORE SWAP1 SWAP2 POP PUSH32 0x0 PUSH1 0x1 PUSH1 0x1 PUSH1 0xA0 SHL SUB AND SWAP1 PUSH4 0x8D4DABFF SWAP1 PUSH1 0x44 ADD PUSH1 0x0 PUSH1 0x40 MLOAD DUP1 DUP4 SUB DUP2 PUSH1 0x0 DUP8 DUP1 EXTCODESIZE ISZERO DUP1 ISZERO PUSH2 0x2A4A JUMPI PUSH1 0x0 DUP1 REVERT JUMPDEST POP GAS CALL ISZERO DUP1 ISZERO PUSH2 0x2A5E JUMPI RETURNDATASIZE PUSH1 0x0 DUP1 RETURNDATACOPY RETURNDATASIZE PUSH1 0x0 REVERT JUMPDEST POP POP POP POP PUSH2 0x2AAD PUSH32 0x0 PUSH32 0x0 DUP8 PUSH2 0x238F JUMP JUMPDEST PUSH2 0x2AB7 DUP2 DUP7 PUSH2 0x3AD1 JUMP JUMPDEST SWAP5 POP PUSH1 0x0 PUSH1 0x2 SLOAD DUP7 PUSH8 0xDE0B6B3A7640000 PUSH2 0x2AD2 SWAP2 SWAP1 PUSH2 0x3AE8 JUMP JUMPDEST PUSH2 0x2ADC SWAP2 SWAP1 PUSH2 0x3B07 JUMP JUMPDEST SWAP1 POP DUP1 ISZERO PUSH2 0x2AFC JUMPI DUP1 PUSH1 0xE PUSH1 0x0 DUP3 DUP3 SLOAD PUSH2 0x2AF6 SWAP2 SWAP1 PUSH2 0x3B73 JUMP JUMPDEST SWAP1 SWAP2 SSTORE POP POP JUMPDEST CALLER PUSH32 0x112C256902BF554B6ED882D2936687AAEB4225E8CD5B51303C90CA6CF43A8602 PUSH1 0x0 DUP6 PUSH2 0x2B2B DUP7 DUP12 PUSH2 0x3B73 JUMP JUMPDEST PUSH2 0x2B35 SWAP2 SWAP1 PUSH2 0x3B73 JUMP JUMPDEST PUSH1 0x40 DUP1 MLOAD SWAP3 DUP4 MSTORE PUSH1 0x20 DUP4 ADD SWAP2 SWAP1 SWAP2 MSTORE ADD PUSH2 0x27D5 JUMP JUMPDEST PUSH1 0x0 PUSH32 0x0 ISZERO PUSH2 0x2C85 JUMPI PUSH1 0x0 PUSH32 0x0 PUSH2 0x2BA7 DUP6 PUSH8 0xDE0B6B3A7640000 PUSH2 0x3AE8 JUMP JUMPDEST PUSH2 0x2BB1 SWAP2 SWAP1 PUSH2 0x3B07 JUMP JUMPDEST SWAP1 POP PUSH1 0x0 PUSH32 0x0 PUSH2 0x2BE8 DUP6 PUSH8 0xDE0B6B3A7640000 PUSH2 0x3AE8 JUMP JUMPDEST PUSH2 0x2BF2 SWAP2 SWAP1 PUSH2 0x3B07 JUMP JUMPDEST SWAP1 POP PUSH1 0x0 PUSH8 0xDE0B6B3A7640000 PUSH2 0x2C09 DUP4 DUP6 PUSH2 0x3AE8 JUMP JUMPDEST PUSH2 0x2C13 SWAP2 SWAP1 PUSH2 0x3B07 JUMP JUMPDEST SWAP1 POP PUSH1 0x0 PUSH8 0xDE0B6B3A7640000 PUSH2 0x2C2A DUP5 DUP1 PUSH2 0x3AE8 JUMP JUMPDEST PUSH2 0x2C34 SWAP2 SWAP1 PUSH2 0x3B07 JUMP JUMPDEST PUSH8 0xDE0B6B3A7640000 PUSH2 0x2C47 DUP7 DUP1 PUSH2 0x3AE8 JUMP JUMPDEST PUSH2 0x2C51 SWAP2 SWAP1 PUSH2 0x3B07 JUMP JUMPDEST PUSH2 0x2C5B SWAP2 SWAP1 PUSH2 0x3B73 JUMP JUMPDEST SWAP1 POP PUSH8 0xDE0B6B3A7640000 PUSH2 0x2C70 DUP3 DUP5 PUSH2 0x3AE8 JUMP JUMPDEST PUSH2 0x2C7A SWAP2 SWAP1 PUSH2 0x3B07 JUMP JUMPDEST SWAP5 POP POP POP POP POP PUSH2 0x1021 JUMP JUMPDEST PUSH2 0x2C8F DUP3 DUP5 PUSH2 0x3AE8 JUMP JUMPDEST SWAP1 POP PUSH2 0x1021 JUMP JUMPDEST PUSH1 0xA SLOAD TIMESTAMP SWAP1 PUSH1 0x0 SWAP1 PUSH2 0x2CA8 SWAP1 DUP4 PUSH2 0x3AD1 JUMP JUMPDEST SWAP1 POP PUSH1 0x0 DUP2 GT DUP1 ISZERO PUSH2 0x2CB9 JUMPI POP DUP4 ISZERO ISZERO JUMPDEST DUP1 ISZERO PUSH2 0x2CC4 JUMPI POP DUP3 ISZERO ISZERO JUMPDEST ISZERO PUSH2 0x2D0B JUMPI PUSH2 0x2CD3 DUP2 DUP6 PUSH2 0x3AE8 JUMP JUMPDEST PUSH1 0xB PUSH1 0x0 DUP3 DUP3 SLOAD PUSH2 0x2CE4 SWAP2 SWAP1 PUSH2 0x3B73 JUMP JUMPDEST SWAP1 SWAP2 SSTORE POP PUSH2 0x2CF4 SWAP1 POP DUP2 DUP5 PUSH2 0x3AE8 JUMP JUMPDEST PUSH1 0xC PUSH1 0x0 DUP3 DUP3 SLOAD PUSH2 0x2D05 SWAP2 SWAP1 PUSH2 0x3B73 JUMP JUMPDEST SWAP1 SWAP2 SSTORE POP POP JUMPDEST PUSH1 0x0 PUSH2 0x2D15 PUSH2 0x1A03 JUMP JUMPDEST DUP1 MLOAD SWAP1 SWAP2 POP PUSH2 0x2D24 SWAP1 DUP5 PUSH2 0x3AD1 JUMP JUMPDEST SWAP2 POP PUSH2 0x708 DUP3 GT ISZERO PUSH2 0x2DD9 JUMPI PUSH1 0x40 DUP1 MLOAD PUSH1 0x60 DUP2 ADD DUP3 MSTORE DUP5 DUP2 MSTORE PUSH1 0xB SLOAD PUSH1 0x20 DUP3 ADD SWAP1 DUP2 MSTORE PUSH1 0xC SLOAD SWAP3 DUP3 ADD SWAP3 DUP4 MSTORE PUSH1 0x7 DUP1 SLOAD PUSH1 0x1 DUP2 ADD DUP3 SSTORE PUSH1 0x0 SWAP2 SWAP1 SWAP2 MSTORE SWAP2 MLOAD PUSH32 0xA66CC928B5EDB82AF9BD49922954155AB7B0942694BEA4CE44661D9A8736C688 PUSH1 0x3 SWAP1 SWAP4 MUL SWAP3 DUP4 ADD SSTORE MLOAD PUSH32 0xA66CC928B5EDB82AF9BD49922954155AB7B0942694BEA4CE44661D9A8736C689 DUP3 ADD SSTORE SWAP1 MLOAD PUSH32 0xA66CC928B5EDB82AF9BD49922954155AB7B0942694BEA4CE44661D9A8736C68A SWAP1 SWAP2 ADD SSTORE JUMPDEST PUSH1 0x8 DUP8 SWAP1 SSTORE PUSH1 0x9 DUP7 SWAP1 SSTORE PUSH1 0xA DUP4 SWAP1 SSTORE PUSH1 0x40 DUP1 MLOAD DUP9 DUP2 MSTORE PUSH1 0x20 DUP2 ADD DUP9 SWAP1 MSTORE PUSH32 0xCF2AA50876CDFBB541206F89AF0EE78D44A2ABF8D328E37FA4917F982149848A SWAP2 ADD PUSH1 0x40 MLOAD DUP1 SWAP2 SUB SWAP1 LOG1 POP POP POP POP POP POP POP JUMP JUMPDEST PUSH1 0x0 PUSH32 0x0 ISZERO PUSH2 0x30AD JUMPI PUSH1 0x0 PUSH2 0x2E5E DUP5 DUP5 PUSH2 0x2B4A JUMP JUMPDEST SWAP1 POP PUSH32 0x0 PUSH2 0x2E93 DUP6 PUSH8 0xDE0B6B3A7640000 PUSH2 0x3AE8 JUMP JUMPDEST PUSH2 0x2E9D SWAP2 SWAP1 PUSH2 0x3B07 JUMP JUMPDEST SWAP4 POP PUSH32 0x0 PUSH2 0x2ED2 DUP5 PUSH8 0xDE0B6B3A7640000 PUSH2 0x3AE8 JUMP JUMPDEST PUSH2 0x2EDC SWAP2 SWAP1 PUSH2 0x3B07 JUMP JUMPDEST SWAP3 POP PUSH1 0x0 DUP1 PUSH32 0x0 PUSH1 0x1 PUSH1 0x1 PUSH1 0xA0 SHL SUB AND DUP8 PUSH1 0x1 PUSH1 0x1 PUSH1 0xA0 SHL SUB AND EQ PUSH2 0x2F21 JUMPI DUP5 DUP7 PUSH2 0x2F24 JUMP JUMPDEST DUP6 DUP6 JUMPDEST SWAP2 POP SWAP2 POP PUSH32 0x0 PUSH1 0x1 PUSH1 0x1 PUSH1 0xA0 SHL SUB AND DUP8 PUSH1 0x1 PUSH1 0x1 PUSH1 0xA0 SHL SUB AND EQ PUSH2 0x2FA3 JUMPI PUSH32 0x0 PUSH2 0x2F94 DUP10 PUSH8 0xDE0B6B3A7640000 PUSH2 0x3AE8 JUMP JUMPDEST PUSH2 0x2F9E SWAP2 SWAP1 PUSH2 0x3B07 JUMP JUMPDEST PUSH2 0x2FE0 JUMP JUMPDEST PUSH32 0x0 PUSH2 0x2FD6 DUP10 PUSH8 0xDE0B6B3A7640000 PUSH2 0x3AE8 JUMP JUMPDEST PUSH2 0x2FE0 SWAP2 SWAP1 PUSH2 0x3B07 JUMP JUMPDEST SWAP8 POP PUSH1 0x0 PUSH2 0x2FF8 PUSH2 0x2FF1 DUP5 DUP12 PUSH2 0x3B73 JUMP JUMPDEST DUP6 DUP5 PUSH2 0x34E3 JUMP JUMPDEST PUSH2 0x3002 SWAP1 DUP4 PUSH2 0x3AD1 JUMP JUMPDEST SWAP1 POP PUSH8 0xDE0B6B3A7640000 PUSH32 0x0 PUSH1 0x1 PUSH1 0x1 PUSH1 0xA0 SHL SUB AND DUP10 PUSH1 0x1 PUSH1 0x1 PUSH1 0xA0 SHL SUB AND EQ PUSH2 0x306C JUMPI PUSH32 0x0 PUSH2 0x308E JUMP JUMPDEST PUSH32 0x0 JUMPDEST PUSH2 0x3098 SWAP1 DUP4 PUSH2 0x3AE8 JUMP JUMPDEST PUSH2 0x30A2 SWAP2 SWAP1 PUSH2 0x3B07 JUMP JUMPDEST SWAP5 POP POP POP POP POP PUSH2 0x121B JUMP JUMPDEST PUSH1 0x0 DUP1 PUSH32 0x0 PUSH1 0x1 PUSH1 0x1 PUSH1 0xA0 SHL SUB AND DUP7 PUSH1 0x1 PUSH1 0x1 PUSH1 0xA0 SHL SUB AND EQ PUSH2 0x30F0 JUMPI DUP4 DUP6 PUSH2 0x30F3 JUMP JUMPDEST DUP5 DUP5 JUMPDEST SWAP1 SWAP3 POP SWAP1 POP PUSH2 0x3102 DUP8 DUP4 PUSH2 0x3B73 JUMP JUMPDEST PUSH2 0x310C DUP3 DUP10 PUSH2 0x3AE8 JUMP JUMPDEST PUSH2 0x3116 SWAP2 SWAP1 PUSH2 0x3B07 JUMP JUMPDEST SWAP3 POP POP POP PUSH2 0x121B JUMP JUMPDEST PUSH2 0x3128 DUP4 PUSH2 0x3383 JUMP JUMPDEST PUSH2 0x3131 DUP3 PUSH2 0x3383 JUMP JUMPDEST PUSH1 0x1 PUSH1 0x1 PUSH1 0xA0 SHL SUB DUP4 AND PUSH1 0x0 SWAP1 DUP2 MSTORE PUSH1 0x4 PUSH1 0x20 MSTORE PUSH1 0x40 DUP2 KECCAK256 DUP1 SLOAD DUP4 SWAP3 SWAP1 PUSH2 0x3159 SWAP1 DUP5 SWAP1 PUSH2 0x3AD1 JUMP JUMPDEST SWAP1 SWAP2 SSTORE POP POP PUSH1 0x1 PUSH1 0x1 PUSH1 0xA0 SHL SUB DUP3 AND PUSH1 0x0 SWAP1 DUP2 MSTORE PUSH1 0x4 PUSH1 0x20 MSTORE PUSH1 0x40 DUP2 KECCAK256 DUP1 SLOAD DUP4 SWAP3 SWAP1 PUSH2 0x3186 SWAP1 DUP5 SWAP1 PUSH2 0x3B73 JUMP JUMPDEST SWAP3 POP POP DUP2 SWAP1 SSTORE POP DUP2 PUSH1 0x1 PUSH1 0x1 PUSH1 0xA0 SHL SUB AND DUP4 PUSH1 0x1 PUSH1 0x1 PUSH1 0xA0 SHL SUB AND PUSH32 0xDDF252AD1BE2C89B69C2B068FC378DAA952BA7F163C4A11628F55A4DF523B3EF DUP4 PUSH1 0x40 MLOAD PUSH2 0x31D2 SWAP2 DUP2 MSTORE PUSH1 0x20 ADD SWAP1 JUMP JUMPDEST PUSH1 0x40 MLOAD DUP1 SWAP2 SUB SWAP1 LOG3 POP POP POP JUMP JUMPDEST PUSH1 0x0 PUSH1 0x3 DUP3 GT ISZERO PUSH2 0x3240 JUMPI POP DUP1 PUSH1 0x0 PUSH2 0x31F9 PUSH1 0x2 DUP4 PUSH2 0x3B07 JUMP JUMPDEST PUSH2 0x3204 SWAP1 PUSH1 0x1 PUSH2 0x3B73 JUMP JUMPDEST SWAP1 POP JUMPDEST DUP2 DUP2 LT ISZERO PUSH2 0x323A JUMPI SWAP1 POP DUP1 PUSH1 0x2 DUP2 PUSH2 0x321F DUP2 DUP7 PUSH2 0x3B07 JUMP JUMPDEST PUSH2 0x3229 SWAP2 SWAP1 PUSH2 0x3B73 JUMP JUMPDEST PUSH2 0x3233 SWAP2 SWAP1 PUSH2 0x3B07 JUMP JUMPDEST SWAP1 POP PUSH2 0x3207 JUMP JUMPDEST POP SWAP2 SWAP1 POP JUMP JUMPDEST DUP2 ISZERO PUSH2 0x324A JUMPI POP PUSH1 0x1 JUMPDEST SWAP2 SWAP1 POP JUMP JUMPDEST PUSH2 0x3258 DUP3 PUSH2 0x3383 JUMP JUMPDEST DUP1 PUSH1 0x2 PUSH1 0x0 DUP3 DUP3 SLOAD PUSH2 0x326A SWAP2 SWAP1 PUSH2 0x3B73 JUMP JUMPDEST SWAP1 SWAP2 SSTORE POP POP PUSH1 0x1 PUSH1 0x1 PUSH1 0xA0 SHL SUB DUP3 AND PUSH1 0x0 SWAP1 DUP2 MSTORE PUSH1 0x4 PUSH1 0x20 MSTORE PUSH1 0x40 DUP2 KECCAK256 DUP1 SLOAD DUP4 SWAP3 SWAP1 PUSH2 0x3297 SWAP1 DUP5 SWAP1 PUSH2 0x3B73 JUMP JUMPDEST SWAP1 SWAP2 SSTORE POP POP PUSH1 0x40 MLOAD DUP2 DUP2 MSTORE PUSH1 0x1 PUSH1 0x1 PUSH1 0xA0 SHL SUB DUP4 AND SWAP1 PUSH1 0x0 SWAP1 PUSH32 0xDDF252AD1BE2C89B69C2B068FC378DAA952BA7F163C4A11628F55A4DF523B3EF SWAP1 PUSH1 0x20 ADD JUMPDEST PUSH1 0x40 MLOAD DUP1 SWAP2 SUB SWAP1 LOG3 POP POP JUMP JUMPDEST PUSH1 0x0 DUP2 DUP4 LT PUSH2 0x32F1 JUMPI DUP2 PUSH2 0x1354 JUMP JUMPDEST POP SWAP1 SWAP2 SWAP1 POP JUMP JUMPDEST PUSH2 0x3301 DUP3 PUSH2 0x3383 JUMP JUMPDEST DUP1 PUSH1 0x2 PUSH1 0x0 DUP3 DUP3 SLOAD PUSH2 0x3313 SWAP2 SWAP1 PUSH2 0x3AD1 JUMP JUMPDEST SWAP1 SWAP2 SSTORE POP POP PUSH1 0x1 PUSH1 0x1 PUSH1 0xA0 SHL SUB DUP3 AND PUSH1 0x0 SWAP1 DUP2 MSTORE PUSH1 0x4 PUSH1 0x20 MSTORE PUSH1 0x40 DUP2 KECCAK256 DUP1 SLOAD DUP4 SWAP3 SWAP1 PUSH2 0x3340 SWAP1 DUP5 SWAP1 PUSH2 0x3AD1 JUMP JUMPDEST SWAP1 SWAP2 SSTORE POP POP PUSH1 0x40 MLOAD DUP2 DUP2 MSTORE PUSH1 0x0 SWAP1 PUSH1 0x1 PUSH1 0x1 PUSH1 0xA0 SHL SUB DUP5 AND SWAP1 PUSH32 0xDDF252AD1BE2C89B69C2B068FC378DAA952BA7F163C4A11628F55A4DF523B3EF SWAP1 PUSH1 0x20 ADD PUSH2 0x32D6 JUMP JUMPDEST PUSH1 0x1 PUSH1 0x1 PUSH1 0xA0 SHL SUB DUP2 AND PUSH1 0x0 SWAP1 DUP2 MSTORE PUSH1 0x4 PUSH1 0x20 MSTORE PUSH1 0x40 SWAP1 KECCAK256 SLOAD DUP1 ISZERO PUSH2 0x34B1 JUMPI PUSH1 0x1 PUSH1 0x1 PUSH1 0xA0 SHL SUB DUP3 AND PUSH1 0x0 SWAP1 DUP2 MSTORE PUSH1 0xF PUSH1 0x20 SWAP1 DUP2 MSTORE PUSH1 0x40 DUP1 DUP4 KECCAK256 DUP1 SLOAD PUSH1 0x10 DUP1 DUP6 MSTORE SWAP3 DUP6 KECCAK256 DUP1 SLOAD PUSH1 0xD SLOAD PUSH1 0xE SLOAD SWAP5 DUP2 SWAP1 SSTORE SWAP5 SWAP1 SWAP6 MSTORE DUP3 SWAP1 SSTORE SWAP4 PUSH2 0x33E5 DUP6 DUP5 PUSH2 0x3AD1 JUMP JUMPDEST SWAP1 POP PUSH1 0x0 PUSH2 0x33F3 DUP6 DUP5 PUSH2 0x3AD1 JUMP JUMPDEST SWAP1 POP DUP2 ISZERO PUSH2 0x344E JUMPI PUSH1 0x0 PUSH8 0xDE0B6B3A7640000 PUSH2 0x3410 DUP5 DUP11 PUSH2 0x3AE8 JUMP JUMPDEST PUSH2 0x341A SWAP2 SWAP1 PUSH2 0x3B07 JUMP JUMPDEST PUSH1 0x1 PUSH1 0x1 PUSH1 0xA0 SHL SUB DUP11 AND PUSH1 0x0 SWAP1 DUP2 MSTORE PUSH1 0x11 PUSH1 0x20 MSTORE PUSH1 0x40 DUP2 KECCAK256 DUP1 SLOAD SWAP3 SWAP4 POP DUP4 SWAP3 SWAP1 SWAP2 SWAP1 PUSH2 0x3447 SWAP1 DUP5 SWAP1 PUSH2 0x3B73 JUMP JUMPDEST SWAP1 SWAP2 SSTORE POP POP POP JUMPDEST DUP1 ISZERO PUSH2 0x34A7 JUMPI PUSH1 0x0 PUSH8 0xDE0B6B3A7640000 PUSH2 0x3469 DUP4 DUP11 PUSH2 0x3AE8 JUMP JUMPDEST PUSH2 0x3473 SWAP2 SWAP1 PUSH2 0x3B07 JUMP JUMPDEST PUSH1 0x1 PUSH1 0x1 PUSH1 0xA0 SHL SUB DUP11 AND PUSH1 0x0 SWAP1 DUP2 MSTORE PUSH1 0x12 PUSH1 0x20 MSTORE PUSH1 0x40 DUP2 KECCAK256 DUP1 SLOAD SWAP3 SWAP4 POP DUP4 SWAP3 SWAP1 SWAP2 SWAP1 PUSH2 0x34A0 SWAP1 DUP5 SWAP1 PUSH2 0x3B73 JUMP JUMPDEST SWAP1 SWAP2 SSTORE POP POP POP JUMPDEST POP POP POP POP POP POP POP POP JUMP JUMPDEST PUSH1 0xD SLOAD PUSH1 0x1 PUSH1 0x1 PUSH1 0xA0 SHL SUB DUP4 AND PUSH1 0x0 SWAP1 DUP2 MSTORE PUSH1 0xF PUSH1 0x20 SWAP1 DUP2 MSTORE PUSH1 0x40 DUP1 DUP4 KECCAK256 SWAP4 SWAP1 SWAP4 SSTORE PUSH1 0xE SLOAD PUSH1 0x10 SWAP1 SWAP2 MSTORE SWAP2 SWAP1 KECCAK256 SSTORE POP POP JUMP JUMPDEST PUSH1 0x0 DUP1 JUMPDEST PUSH1 0xFF DUP2 LT ISZERO PUSH2 0x35E9 JUMPI DUP3 PUSH1 0x0 PUSH2 0x34FD DUP8 DUP4 PUSH2 0x35F2 JUMP JUMPDEST SWAP1 POP DUP6 DUP2 LT ISZERO PUSH2 0x354D JUMPI PUSH1 0x0 PUSH2 0x3513 DUP9 DUP8 PUSH2 0x368F JUMP JUMPDEST PUSH2 0x351D DUP4 DUP10 PUSH2 0x3AD1 JUMP JUMPDEST PUSH2 0x352F SWAP1 PUSH8 0xDE0B6B3A7640000 PUSH2 0x3AE8 JUMP JUMPDEST PUSH2 0x3539 SWAP2 SWAP1 PUSH2 0x3B07 JUMP JUMPDEST SWAP1 POP PUSH2 0x3545 DUP2 DUP8 PUSH2 0x3B73 JUMP JUMPDEST SWAP6 POP POP PUSH2 0x358F JUMP JUMPDEST PUSH1 0x0 PUSH2 0x3559 DUP9 DUP8 PUSH2 0x368F JUMP JUMPDEST PUSH2 0x3563 DUP9 DUP5 PUSH2 0x3AD1 JUMP JUMPDEST PUSH2 0x3575 SWAP1 PUSH8 0xDE0B6B3A7640000 PUSH2 0x3AE8 JUMP JUMPDEST PUSH2 0x357F SWAP2 SWAP1 PUSH2 0x3B07 JUMP JUMPDEST SWAP1 POP PUSH2 0x358B DUP2 DUP8 PUSH2 0x3AD1 JUMP JUMPDEST SWAP6 POP POP JUMPDEST DUP2 DUP6 GT ISZERO PUSH2 0x35B8 JUMPI PUSH1 0x1 PUSH2 0x35A3 DUP4 DUP8 PUSH2 0x3AD1 JUMP JUMPDEST GT PUSH2 0x35B3 JUMPI DUP5 SWAP4 POP POP POP POP PUSH2 0x1354 JUMP JUMPDEST PUSH2 0x35D4 JUMP JUMPDEST PUSH1 0x1 PUSH2 0x35C4 DUP7 DUP5 PUSH2 0x3AD1 JUMP JUMPDEST GT PUSH2 0x35D4 JUMPI DUP5 SWAP4 POP POP POP POP PUSH2 0x1354 JUMP JUMPDEST POP POP DUP1 DUP1 PUSH2 0x35E1 SWAP1 PUSH2 0x3BA1 JUMP JUMPDEST SWAP2 POP POP PUSH2 0x34E7 JUMP JUMPDEST POP SWAP1 SWAP4 SWAP3 POP POP POP JUMP JUMPDEST PUSH1 0x0 PUSH8 0xDE0B6B3A7640000 DUP3 DUP2 DUP6 DUP2 PUSH2 0x360B DUP3 DUP1 PUSH2 0x3AE8 JUMP JUMPDEST PUSH2 0x3615 SWAP2 SWAP1 PUSH2 0x3B07 JUMP JUMPDEST PUSH2 0x361F SWAP2 SWAP1 PUSH2 0x3AE8 JUMP JUMPDEST PUSH2 0x3629 SWAP2 SWAP1 PUSH2 0x3B07 JUMP JUMPDEST PUSH2 0x3633 SWAP2 SWAP1 PUSH2 0x3AE8 JUMP JUMPDEST PUSH2 0x363D SWAP2 SWAP1 PUSH2 0x3B07 JUMP JUMPDEST PUSH8 0xDE0B6B3A7640000 DUP1 DUP5 DUP2 PUSH2 0x3653 DUP3 DUP1 PUSH2 0x3AE8 JUMP JUMPDEST PUSH2 0x365D SWAP2 SWAP1 PUSH2 0x3B07 JUMP JUMPDEST PUSH2 0x3667 SWAP2 SWAP1 PUSH2 0x3AE8 JUMP JUMPDEST PUSH2 0x3671 SWAP2 SWAP1 PUSH2 0x3B07 JUMP JUMPDEST PUSH2 0x367B SWAP1 DUP7 PUSH2 0x3AE8 JUMP JUMPDEST PUSH2 0x3685 SWAP2 SWAP1 PUSH2 0x3B07 JUMP JUMPDEST PUSH2 0x1354 SWAP2 SWAP1 PUSH2 0x3B73 JUMP JUMPDEST PUSH1 0x0 PUSH8 0xDE0B6B3A7640000 DUP4 DUP2 PUSH2 0x36A6 DUP3 DUP1 PUSH2 0x3AE8 JUMP JUMPDEST PUSH2 0x36B0 SWAP2 SWAP1 PUSH2 0x3B07 JUMP JUMPDEST PUSH2 0x36BA SWAP2 SWAP1 PUSH2 0x3AE8 JUMP JUMPDEST PUSH2 0x36C4 SWAP2 SWAP1 PUSH2 0x3B07 JUMP JUMPDEST PUSH8 0xDE0B6B3A7640000 DUP1 PUSH2 0x36D8 DUP6 DUP1 PUSH2 0x3AE8 JUMP JUMPDEST PUSH2 0x36E2 SWAP2 SWAP1 PUSH2 0x3B07 JUMP JUMPDEST PUSH2 0x36ED DUP7 PUSH1 0x3 PUSH2 0x3AE8 JUMP JUMPDEST PUSH2 0x367B SWAP2 SWAP1 PUSH2 0x3AE8 JUMP JUMPDEST PUSH1 0x1 PUSH1 0x1 PUSH1 0xA0 SHL SUB DUP2 AND DUP2 EQ PUSH2 0x370C JUMPI PUSH1 0x0 DUP1 REVERT JUMPDEST POP JUMP JUMPDEST PUSH1 0x0 DUP1 PUSH1 0x0 DUP1 PUSH1 0x0 PUSH1 0x80 DUP7 DUP9 SUB SLT ISZERO PUSH2 0x3727 JUMPI PUSH1 0x0 DUP1 REVERT JUMPDEST DUP6 CALLDATALOAD SWAP5 POP PUSH1 0x20 DUP7 ADD CALLDATALOAD SWAP4 POP PUSH1 0x40 DUP7 ADD CALLDATALOAD PUSH2 0x3740 DUP2 PUSH2 0x36F7 JUMP JUMPDEST SWAP3 POP PUSH1 0x60 DUP7 ADD CALLDATALOAD PUSH8 0xFFFFFFFFFFFFFFFF DUP1 DUP3 GT ISZERO PUSH2 0x375D JUMPI PUSH1 0x0 DUP1 REVERT JUMPDEST DUP2 DUP9 ADD SWAP2 POP DUP9 PUSH1 0x1F DUP4 ADD SLT PUSH2 0x3771 JUMPI PUSH1 0x0 DUP1 REVERT JUMPDEST DUP2 CALLDATALOAD DUP2 DUP2 GT ISZERO PUSH2 0x3780 JUMPI PUSH1 0x0 DUP1 REVERT JUMPDEST DUP10 PUSH1 0x20 DUP3 DUP6 ADD ADD GT ISZERO PUSH2 0x3792 JUMPI PUSH1 0x0 DUP1 REVERT JUMPDEST SWAP7 SWAP10 SWAP6 SWAP9 POP SWAP4 SWAP7 POP PUSH1 0x20 ADD SWAP5 SWAP4 SWAP3 POP POP POP JUMP JUMPDEST PUSH1 0x0 JUMPDEST DUP4 DUP2 LT ISZERO PUSH2 0x37C0 JUMPI DUP2 DUP2 ADD MLOAD DUP4 DUP3 ADD MSTORE PUSH1 0x20 ADD PUSH2 0x37A8 JUMP JUMPDEST DUP4 DUP2 GT ISZERO PUSH2 0x37CF JUMPI PUSH1 0x0 DUP5 DUP5 ADD MSTORE JUMPDEST POP POP POP POP JUMP JUMPDEST PUSH1 0x20 DUP2 MSTORE PUSH1 0x0 DUP3 MLOAD DUP1 PUSH1 0x20 DUP5 ADD MSTORE PUSH2 0x37F4 DUP2 PUSH1 0x40 DUP6 ADD PUSH1 0x20 DUP8 ADD PUSH2 0x37A5 JUMP JUMPDEST PUSH1 0x1F ADD PUSH1 0x1F NOT AND SWAP2 SWAP1 SWAP2 ADD PUSH1 0x40 ADD SWAP3 SWAP2 POP POP JUMP JUMPDEST PUSH1 0x0 DUP1 PUSH1 0x40 DUP4 DUP6 SUB SLT ISZERO PUSH2 0x381B JUMPI PUSH1 0x0 DUP1 REVERT JUMPDEST DUP3 CALLDATALOAD PUSH2 0x3826 DUP2 PUSH2 0x36F7 JUMP JUMPDEST SWAP5 PUSH1 0x20 SWAP4 SWAP1 SWAP4 ADD CALLDATALOAD SWAP4 POP POP POP JUMP JUMPDEST PUSH1 0x0 DUP1 PUSH1 0x0 DUP1 PUSH1 0x80 DUP6 DUP8 SUB SLT ISZERO PUSH2 0x384A JUMPI PUSH1 0x0 DUP1 REVERT JUMPDEST DUP5 CALLDATALOAD PUSH2 0x3855 DUP2 PUSH2 0x36F7 JUMP JUMPDEST SWAP7 PUSH1 0x20 DUP7 ADD CALLDATALOAD SWAP7 POP PUSH1 0x40 DUP7 ADD CALLDATALOAD SWAP6 PUSH1 0x60 ADD CALLDATALOAD SWAP5 POP SWAP3 POP POP POP JUMP JUMPDEST PUSH1 0x20 DUP1 DUP3 MSTORE DUP3 MLOAD DUP3 DUP3 ADD DUP2 SWAP1 MSTORE PUSH1 0x0 SWAP2 SWAP1 DUP5 DUP3 ADD SWAP1 PUSH1 0x40 DUP6 ADD SWAP1 DUP5 JUMPDEST DUP2 DUP2 LT ISZERO PUSH2 0x38A7 JUMPI DUP4 MLOAD DUP4 MSTORE SWAP3 DUP5 ADD SWAP3 SWAP2 DUP5 ADD SWAP2 PUSH1 0x1 ADD PUSH2 0x388B JUMP JUMPDEST POP SWAP1 SWAP7 SWAP6 POP POP POP POP POP POP JUMP JUMPDEST PUSH1 0x0 PUSH1 0x20 DUP3 DUP5 SUB SLT ISZERO PUSH2 0x38C5 JUMPI PUSH1 0x0 DUP1 REVERT JUMPDEST DUP2 CALLDATALOAD PUSH2 0x1354 DUP2 PUSH2 0x36F7 JUMP JUMPDEST PUSH1 0x0 DUP1 PUSH1 0x0 PUSH1 0x60 DUP5 DUP7 SUB SLT ISZERO PUSH2 0x38E5 JUMPI PUSH1 0x0 DUP1 REVERT JUMPDEST DUP4 CALLDATALOAD PUSH2 0x38F0 DUP2 PUSH2 0x36F7 JUMP JUMPDEST SWAP3 POP PUSH1 0x20 DUP5 ADD CALLDATALOAD PUSH2 0x3900 DUP2 PUSH2 0x36F7 JUMP JUMPDEST SWAP3 SWAP6 SWAP3 SWAP5 POP POP POP PUSH1 0x40 SWAP2 SWAP1 SWAP2 ADD CALLDATALOAD SWAP1 JUMP JUMPDEST PUSH1 0x0 PUSH1 0x20 DUP3 DUP5 SUB SLT ISZERO PUSH2 0x3923 JUMPI PUSH1 0x0 DUP1 REVERT JUMPDEST POP CALLDATALOAD SWAP2 SWAP1 POP JUMP JUMPDEST PUSH1 0x0 DUP1 PUSH1 0x0 PUSH1 0x60 DUP5 DUP7 SUB SLT ISZERO PUSH2 0x393F JUMPI PUSH1 0x0 DUP1 REVERT JUMPDEST DUP4 CALLDATALOAD PUSH2 0x394A DUP2 PUSH2 0x36F7 JUMP JUMPDEST SWAP6 PUSH1 0x20 DUP6 ADD CALLDATALOAD SWAP6 POP PUSH1 0x40 SWAP1 SWAP5 ADD CALLDATALOAD SWAP4 SWAP3 POP POP POP JUMP JUMPDEST PUSH1 0x0 DUP1 PUSH1 0x0 DUP1 PUSH1 0x0 DUP1 PUSH1 0x0 PUSH1 0xE0 DUP9 DUP11 SUB SLT ISZERO PUSH2 0x397A JUMPI PUSH1 0x0 DUP1 REVERT JUMPDEST DUP8 CALLDATALOAD PUSH2 0x3985 DUP2 PUSH2 0x36F7 JUMP JUMPDEST SWAP7 POP PUSH1 0x20 DUP9 ADD CALLDATALOAD PUSH2 0x3995 DUP2 PUSH2 0x36F7 JUMP JUMPDEST SWAP6 POP PUSH1 0x40 DUP9 ADD CALLDATALOAD SWAP5 POP PUSH1 0x60 DUP9 ADD CALLDATALOAD SWAP4 POP PUSH1 0x80 DUP9 ADD CALLDATALOAD PUSH1 0xFF DUP2 AND DUP2 EQ PUSH2 0x39B9 JUMPI PUSH1 0x0 DUP1 REVERT JUMPDEST SWAP7 SWAP10 SWAP6 SWAP9 POP SWAP4 SWAP7 SWAP3 SWAP6 SWAP5 PUSH1 0xA0 DUP5 ADD CALLDATALOAD SWAP5 POP PUSH1 0xC0 SWAP1 SWAP4 ADD CALLDATALOAD SWAP3 SWAP2 POP POP JUMP JUMPDEST PUSH1 0x0 DUP1 PUSH1 0x40 DUP4 DUP6 SUB SLT ISZERO PUSH2 0x39E9 JUMPI PUSH1 0x0 DUP1 REVERT JUMPDEST DUP3 CALLDATALOAD PUSH2 0x39F4 DUP2 PUSH2 0x36F7 JUMP JUMPDEST SWAP2 POP PUSH1 0x20 DUP4 ADD CALLDATALOAD PUSH2 0x3A04 DUP2 PUSH2 0x36F7 JUMP JUMPDEST DUP1 SWAP2 POP POP SWAP3 POP SWAP3 SWAP1 POP JUMP JUMPDEST PUSH1 0x0 DUP1 PUSH1 0x40 DUP4 DUP6 SUB SLT ISZERO PUSH2 0x3A22 JUMPI PUSH1 0x0 DUP1 REVERT JUMPDEST DUP3 CALLDATALOAD SWAP2 POP PUSH1 0x20 DUP4 ADD CALLDATALOAD PUSH2 0x3A04 DUP2 PUSH2 0x36F7 JUMP JUMPDEST PUSH1 0x0 PUSH1 0x20 DUP3 DUP5 SUB SLT ISZERO PUSH2 0x3A46 JUMPI PUSH1 0x0 DUP1 REVERT JUMPDEST DUP2 MLOAD DUP1 ISZERO ISZERO DUP2 EQ PUSH2 0x1354 JUMPI PUSH1 0x0 DUP1 REVERT JUMPDEST PUSH1 0x1 DUP1 PUSH1 0xA0 SHL SUB DUP7 AND DUP2 MSTORE DUP5 PUSH1 0x20 DUP3 ADD MSTORE DUP4 PUSH1 0x40 DUP3 ADD MSTORE PUSH1 0x80 PUSH1 0x60 DUP3 ADD MSTORE DUP2 PUSH1 0x80 DUP3 ADD MSTORE DUP2 DUP4 PUSH1 0xA0 DUP4 ADD CALLDATACOPY PUSH1 0x0 DUP2 DUP4 ADD PUSH1 0xA0 SWAP1 DUP2 ADD SWAP2 SWAP1 SWAP2 MSTORE PUSH1 0x1F SWAP1 SWAP3 ADD PUSH1 0x1F NOT AND ADD ADD SWAP5 SWAP4 POP POP POP POP JUMP JUMPDEST PUSH1 0x0 PUSH1 0x20 DUP3 DUP5 SUB SLT ISZERO PUSH2 0x3AB4 JUMPI PUSH1 0x0 DUP1 REVERT JUMPDEST POP MLOAD SWAP2 SWAP1 POP JUMP JUMPDEST PUSH4 0x4E487B71 PUSH1 0xE0 SHL PUSH1 0x0 MSTORE PUSH1 0x11 PUSH1 0x4 MSTORE PUSH1 0x24 PUSH1 0x0 REVERT JUMPDEST PUSH1 0x0 DUP3 DUP3 LT ISZERO PUSH2 0x3AE3 JUMPI PUSH2 0x3AE3 PUSH2 0x3ABB JUMP JUMPDEST POP SUB SWAP1 JUMP JUMPDEST PUSH1 0x0 DUP2 PUSH1 0x0 NOT DIV DUP4 GT DUP3 ISZERO ISZERO AND ISZERO PUSH2 0x3B02 JUMPI PUSH2 0x3B02 PUSH2 0x3ABB JUMP JUMPDEST POP MUL SWAP1 JUMP JUMPDEST PUSH1 0x0 DUP3 PUSH2 0x3B24 JUMPI PUSH4 0x4E487B71 PUSH1 0xE0 SHL PUSH1 0x0 MSTORE PUSH1 0x12 PUSH1 0x4 MSTORE PUSH1 0x24 PUSH1 0x0 REVERT JUMPDEST POP DIV SWAP1 JUMP JUMPDEST PUSH1 0x1 DUP2 DUP2 SHR SWAP1 DUP3 AND DUP1 PUSH2 0x3B3D JUMPI PUSH1 0x7F DUP3 AND SWAP2 POP JUMPDEST PUSH1 0x20 DUP3 LT DUP2 SUB PUSH2 0x323A JUMPI PUSH4 0x4E487B71 PUSH1 0xE0 SHL PUSH1 0x0 MSTORE PUSH1 0x22 PUSH1 0x4 MSTORE PUSH1 0x24 PUSH1 0x0 REVERT JUMPDEST PUSH4 0x4E487B71 PUSH1 0xE0 SHL PUSH1 0x0 MSTORE PUSH1 0x41 PUSH1 0x4 MSTORE PUSH1 0x24 PUSH1 0x0 REVERT JUMPDEST PUSH1 0x0 DUP3 NOT DUP3 GT ISZERO PUSH2 0x3B86 JUMPI PUSH2 0x3B86 PUSH2 0x3ABB JUMP JUMPDEST POP ADD SWAP1 JUMP JUMPDEST PUSH4 0x4E487B71 PUSH1 0xE0 SHL PUSH1 0x0 MSTORE PUSH1 0x32 PUSH1 0x4 MSTORE PUSH1 0x24 PUSH1 0x0 REVERT JUMPDEST PUSH1 0x0 PUSH1 0x1 DUP3 ADD PUSH2 0x3BB3 JUMPI PUSH2 0x3BB3 PUSH2 0x3ABB JUMP JUMPDEST POP PUSH1 0x1 ADD SWAP1 JUMP JUMPDEST PUSH1 0x0 DUP1 DUP4 SLOAD DUP2 PUSH1 0x1 DUP3 DUP2 SHR SWAP2 POP DUP1 DUP4 AND DUP1 PUSH2 0x3BD6 JUMPI PUSH1 0x7F DUP4 AND SWAP3 POP JUMPDEST PUSH1 0x20 DUP1 DUP5 LT DUP3 SUB PUSH2 0x3BF5 JUMPI PUSH4 0x4E487B71 PUSH1 0xE0 SHL DUP7 MSTORE PUSH1 0x22 PUSH1 0x4 MSTORE PUSH1 0x24 DUP7 REVERT JUMPDEST DUP2 DUP1 ISZERO PUSH2 0x3C09 JUMPI PUSH1 0x1 DUP2 EQ PUSH2 0x3C1A JUMPI PUSH2 0x3C47 JUMP JUMPDEST PUSH1 0xFF NOT DUP7 AND DUP10 MSTORE DUP5 DUP10 ADD SWAP7 POP PUSH2 0x3C47 JUMP JUMPDEST PUSH1 0x0 DUP11 DUP2 MSTORE PUSH1 0x20 SWAP1 KECCAK256 PUSH1 0x0 JUMPDEST DUP7 DUP2 LT ISZERO PUSH2 0x3C3F JUMPI DUP2 SLOAD DUP12 DUP3 ADD MSTORE SWAP1 DUP6 ADD SWAP1 DUP4 ADD PUSH2 0x3C26 JUMP JUMPDEST POP POP DUP5 DUP10 ADD SWAP7 POP JUMPDEST POP SWAP5 SWAP9 SWAP8 POP POP POP POP POP POP POP POP JUMP JUMPDEST PUSH1 0x0 PUSH1 0x20 DUP3 DUP5 SUB SLT ISZERO PUSH2 0x3C67 JUMPI PUSH1 0x0 DUP1 REVERT JUMPDEST DUP2 MLOAD PUSH2 0x1354 DUP2 PUSH2 0x36F7 JUMP JUMPDEST PUSH1 0x0 DUP3 MLOAD PUSH2 0x3C84 DUP2 DUP5 PUSH1 0x20 DUP8 ADD PUSH2 0x37A5 JUMP JUMPDEST SWAP2 SWAP1 SWAP2 ADD SWAP3 SWAP2 POP POP JUMP INVALID LOG2 PUSH5 0x6970667358 0x22 SLT KECCAK256 0xD7 DUP13 0xCF PC 0xAB 0xC1 RETURNDATACOPY 0xD8 0x1F 0x4C 0xCD 0x25 GT BLOCKHASH 0xE4 PUSH26 0xEDFEF35C5CFB497A218F8FF13735BC0264736F6C634300080D00 CALLER PUSH1 0xE0 PUSH1 0x40 MSTORE CALLVALUE DUP1 ISZERO PUSH2 0x10 JUMPI PUSH1 0x0 DUP1 REVERT JUMPDEST POP PUSH1 0x40 MLOAD PUSH2 0x5C5 CODESIZE SUB DUP1 PUSH2 0x5C5 DUP4 CODECOPY DUP2 ADD PUSH1 0x40 DUP2 SWAP1 MSTORE PUSH2 0x2F SWAP2 PUSH2 0x66 JUMP JUMPDEST CALLER PUSH1 0x80 MSTORE PUSH1 0x1 PUSH1 0x1 PUSH1 0xA0 SHL SUB SWAP2 DUP3 AND PUSH1 0xA0 MSTORE AND PUSH1 0xC0 MSTORE PUSH2 0x99 JUMP JUMPDEST DUP1 MLOAD PUSH1 0x1 PUSH1 0x1 PUSH1 0xA0 SHL SUB DUP2 AND DUP2 EQ PUSH2 0x61 JUMPI PUSH1 0x0 DUP1 REVERT JUMPDEST SWAP2 SWAP1 POP JUMP JUMPDEST PUSH1 0x0 DUP1 PUSH1 0x40 DUP4 DUP6 SUB SLT ISZERO PUSH2 0x79 JUMPI PUSH1 0x0 DUP1 REVERT JUMPDEST PUSH2 0x82 DUP4 PUSH2 0x4A JUMP JUMPDEST SWAP2 POP PUSH2 0x90 PUSH1 0x20 DUP5 ADD PUSH2 0x4A JUMP JUMPDEST SWAP1 POP SWAP3 POP SWAP3 SWAP1 POP JUMP JUMPDEST PUSH1 0x80 MLOAD PUSH1 0xA0 MLOAD PUSH1 0xC0 MLOAD PUSH2 0x4E3 PUSH2 0xE2 PUSH1 0x0 CODECOPY PUSH1 0x0 DUP2 DUP2 PUSH2 0x12C ADD MSTORE PUSH2 0x260 ADD MSTORE PUSH1 0x0 DUP2 DUP2 PUSH1 0xFB ADD MSTORE PUSH2 0x226 ADD MSTORE PUSH1 0x0 DUP2 DUP2 PUSH1 0xC6 ADD MSTORE DUP2 DUP2 PUSH2 0x162 ADD MSTORE PUSH2 0x1EF ADD MSTORE PUSH2 0x4E3 PUSH1 0x0 RETURN INVALID PUSH1 0x80 PUSH1 0x40 MSTORE CALLVALUE DUP1 ISZERO PUSH2 0x10 JUMPI PUSH1 0x0 DUP1 REVERT JUMPDEST POP PUSH1 0x4 CALLDATASIZE LT PUSH2 0x57 JUMPI PUSH1 0x0 CALLDATALOAD PUSH1 0xE0 SHR DUP1 PUSH4 0x533CF5CE EQ PUSH2 0x5C JUMPI DUP1 PUSH4 0x5B3C9248 EQ PUSH2 0x71 JUMPI DUP1 PUSH4 0x651D83F9 EQ PUSH2 0x8C JUMPI DUP1 PUSH4 0x8D4DABFF EQ PUSH2 0x95 JUMPI DUP1 PUSH4 0xF8518B89 EQ PUSH2 0xA8 JUMPI JUMPDEST PUSH1 0x0 DUP1 REVERT JUMPDEST PUSH2 0x6F PUSH2 0x6A CALLDATASIZE PUSH1 0x4 PUSH2 0x39C JUMP JUMPDEST PUSH2 0xBB JUMP JUMPDEST STOP JUMPDEST PUSH2 0x7A PUSH1 0x1 SLOAD DUP2 JUMP JUMPDEST PUSH1 0x40 MLOAD SWAP1 DUP2 MSTORE PUSH1 0x20 ADD PUSH1 0x40 MLOAD DUP1 SWAP2 SUB SWAP1 RETURN JUMPDEST PUSH2 0x7A PUSH1 0x0 SLOAD DUP2 JUMP JUMPDEST PUSH2 0x6F PUSH2 0xA3 CALLDATASIZE PUSH1 0x4 PUSH2 0x3DD JUMP JUMPDEST PUSH2 0x157 JUMP JUMPDEST PUSH2 0x6F PUSH2 0xB6 CALLDATASIZE PUSH1 0x4 PUSH2 0x40D JUMP JUMPDEST PUSH2 0x1E4 JUMP JUMPDEST CALLER PUSH1 0x1 PUSH1 0x1 PUSH1 0xA0 SHL SUB PUSH32 0x0 AND EQ PUSH2 0xF0 JUMPI PUSH1 0x0 DUP1 REVERT JUMPDEST DUP2 ISZERO PUSH2 0x121 JUMPI PUSH2 0x121 PUSH32 0x0 DUP5 DUP5 PUSH2 0x291 JUMP JUMPDEST DUP1 ISZERO PUSH2 0x152 JUMPI PUSH2 0x152 PUSH32 0x0 DUP5 DUP4 PUSH2 0x291 JUMP JUMPDEST POP POP POP JUMP JUMPDEST CALLER PUSH1 0x1 PUSH1 0x1 PUSH1 0xA0 SHL SUB PUSH32 0x0 AND EQ PUSH2 0x18C JUMPI PUSH1 0x0 DUP1 REVERT JUMPDEST PUSH1 0x0 DUP3 GT DUP1 ISZERO PUSH2 0x199 JUMPI POP DUP1 JUMPDEST ISZERO PUSH2 0x1B5 JUMPI DUP2 PUSH1 0x0 DUP1 DUP3 DUP3 SLOAD PUSH2 0x1AF SWAP2 SWAP1 PUSH2 0x42F JUMP JUMPDEST SWAP1 SWAP2 SSTORE POP POP JUMPDEST PUSH1 0x0 DUP3 GT DUP1 ISZERO PUSH2 0x1C3 JUMPI POP DUP1 ISZERO JUMPDEST ISZERO PUSH2 0x1E0 JUMPI DUP2 PUSH1 0x1 PUSH1 0x0 DUP3 DUP3 SLOAD PUSH2 0x1DA SWAP2 SWAP1 PUSH2 0x42F JUMP JUMPDEST SWAP1 SWAP2 SSTORE POP POP JUMPDEST POP POP JUMP JUMPDEST CALLER PUSH1 0x1 PUSH1 0x1 PUSH1 0xA0 SHL SUB PUSH32 0x0 AND EQ PUSH2 0x219 JUMPI PUSH1 0x0 DUP1 REVERT JUMPDEST PUSH1 0x0 SLOAD ISZERO PUSH2 0x253 JUMPI PUSH2 0x24E PUSH32 0x0 DUP3 PUSH1 0x0 SLOAD PUSH2 0x291 JUMP JUMPDEST PUSH1 0x0 DUP1 SSTORE JUMPDEST PUSH1 0x1 SLOAD ISZERO PUSH2 0x28E JUMPI PUSH2 0x288 PUSH32 0x0 DUP3 PUSH1 0x1 SLOAD PUSH2 0x291 JUMP JUMPDEST PUSH1 0x0 PUSH1 0x1 SSTORE JUMPDEST POP JUMP JUMPDEST PUSH1 0x0 DUP4 PUSH1 0x1 PUSH1 0x1 PUSH1 0xA0 SHL SUB AND EXTCODESIZE GT PUSH2 0x2A8 JUMPI PUSH1 0x0 DUP1 REVERT JUMPDEST PUSH1 0x40 DUP1 MLOAD PUSH1 0x1 PUSH1 0x1 PUSH1 0xA0 SHL SUB DUP5 DUP2 AND PUSH1 0x24 DUP4 ADD MSTORE PUSH1 0x44 DUP1 DUP4 ADD DUP6 SWAP1 MSTORE DUP4 MLOAD DUP1 DUP5 SUB SWAP1 SWAP2 ADD DUP2 MSTORE PUSH1 0x64 SWAP1 SWAP3 ADD DUP4 MSTORE PUSH1 0x20 DUP3 ADD DUP1 MLOAD PUSH1 0x1 PUSH1 0x1 PUSH1 0xE0 SHL SUB AND PUSH4 0xA9059CBB PUSH1 0xE0 SHL OR SWAP1 MSTORE SWAP2 MLOAD PUSH1 0x0 SWAP3 DUP4 SWAP3 SWAP1 DUP8 AND SWAP2 PUSH2 0x304 SWAP2 SWAP1 PUSH2 0x455 JUMP JUMPDEST PUSH1 0x0 PUSH1 0x40 MLOAD DUP1 DUP4 SUB DUP2 PUSH1 0x0 DUP7 GAS CALL SWAP2 POP POP RETURNDATASIZE DUP1 PUSH1 0x0 DUP2 EQ PUSH2 0x341 JUMPI PUSH1 0x40 MLOAD SWAP2 POP PUSH1 0x1F NOT PUSH1 0x3F RETURNDATASIZE ADD AND DUP3 ADD PUSH1 0x40 MSTORE RETURNDATASIZE DUP3 MSTORE RETURNDATASIZE PUSH1 0x0 PUSH1 0x20 DUP5 ADD RETURNDATACOPY PUSH2 0x346 JUMP JUMPDEST PUSH1 0x60 SWAP2 POP JUMPDEST POP SWAP2 POP SWAP2 POP DUP2 DUP1 ISZERO PUSH2 0x370 JUMPI POP DUP1 MLOAD ISZERO DUP1 PUSH2 0x370 JUMPI POP DUP1 DUP1 PUSH1 0x20 ADD SWAP1 MLOAD DUP2 ADD SWAP1 PUSH2 0x370 SWAP2 SWAP1 PUSH2 0x490 JUMP JUMPDEST PUSH2 0x379 JUMPI PUSH1 0x0 DUP1 REVERT JUMPDEST POP POP POP POP POP JUMP JUMPDEST DUP1 CALLDATALOAD PUSH1 0x1 PUSH1 0x1 PUSH1 0xA0 SHL SUB DUP2 AND DUP2 EQ PUSH2 0x397 JUMPI PUSH1 0x0 DUP1 REVERT JUMPDEST SWAP2 SWAP1 POP JUMP JUMPDEST PUSH1 0x0 DUP1 PUSH1 0x0 PUSH1 0x60 DUP5 DUP7 SUB SLT ISZERO PUSH2 0x3B1 JUMPI PUSH1 0x0 DUP1 REVERT JUMPDEST PUSH2 0x3BA DUP5 PUSH2 0x380 JUMP JUMPDEST SWAP6 PUSH1 0x20 DUP6 ADD CALLDATALOAD SWAP6 POP PUSH1 0x40 SWAP1 SWAP5 ADD CALLDATALOAD SWAP4 SWAP3 POP POP POP JUMP JUMPDEST DUP1 ISZERO ISZERO DUP2 EQ PUSH2 0x28E JUMPI PUSH1 0x0 DUP1 REVERT JUMPDEST PUSH1 0x0 DUP1 PUSH1 0x40 DUP4 DUP6 SUB SLT ISZERO PUSH2 0x3F0 JUMPI PUSH1 0x0 DUP1 REVERT JUMPDEST DUP3 CALLDATALOAD SWAP2 POP PUSH1 0x20 DUP4 ADD CALLDATALOAD PUSH2 0x402 DUP2 PUSH2 0x3CF JUMP JUMPDEST DUP1 SWAP2 POP POP SWAP3 POP SWAP3 SWAP1 POP JUMP JUMPDEST PUSH1 0x0 PUSH1 0x20 DUP3 DUP5 SUB SLT ISZERO PUSH2 0x41F JUMPI PUSH1 0x0 DUP1 REVERT JUMPDEST PUSH2 0x428 DUP3 PUSH2 0x380 JUMP JUMPDEST SWAP4 SWAP3 POP POP POP JUMP JUMPDEST PUSH1 0x0 DUP3 NOT DUP3 GT ISZERO PUSH2 0x450 JUMPI PUSH4 0x4E487B71 PUSH1 0xE0 SHL PUSH1 0x0 MSTORE PUSH1 0x11 PUSH1 0x4 MSTORE PUSH1 0x24 PUSH1 0x0 REVERT JUMPDEST POP ADD SWAP1 JUMP JUMPDEST PUSH1 0x0 DUP3 MLOAD PUSH1 0x0 JUMPDEST DUP2 DUP2 LT ISZERO PUSH2 0x476 JUMPI PUSH1 0x20 DUP2 DUP7 ADD DUP2 ADD MLOAD DUP6 DUP4 ADD MSTORE ADD PUSH2 0x45C JUMP JUMPDEST DUP2 DUP2 GT ISZERO PUSH2 0x485 JUMPI PUSH1 0x0 DUP3 DUP6 ADD MSTORE JUMPDEST POP SWAP2 SWAP1 SWAP2 ADD SWAP3 SWAP2 POP POP JUMP JUMPDEST PUSH1 0x0 PUSH1 0x20 DUP3 DUP5 SUB SLT ISZERO PUSH2 0x4A2 JUMPI PUSH1 0x0 DUP1 REVERT JUMPDEST DUP2 MLOAD PUSH2 0x428 DUP2 PUSH2 0x3CF JUMP INVALID LOG2 PUSH5 0x6970667358 0x22 SLT KECCAK256 0xBF SELFBALANCE 0xAC PUSH6 0x349E83399E6F 0x5D 0xCB 0x4D DUP3 PUSH25 0x6B7CB0603A6A9F178955696C4EB73479D364736F6C63430008 0xD STOP CALLER LOG2 PUSH5 0x6970667358 0x22 SLT KECCAK256 PUSH15 0x4BF98684E40577CC2627F889DA666D PUSH5 0xEFB6B32137 0xC8 0xAC PUSH2 0x477F 0x2F 0xD2 0xE NOT 0xE PUSH5 0x736F6C6343 STOP ADDMOD 0xD STOP CALLER "},"methodIdentifiers":{"MAX_FEE()":"bc063e1a","MAX_REFERRAL_FEE()":"1e61079c","acceptFeeManager()":"f94c53c7","acceptPauser()":"167a6f90","allPairs(uint256)":"1e3dd18b","allPairsLength()":"574f2ba3","createPair(address,address,bool)":"82dfdce4","dibs()":"7be1623e","feeManager()":"d0fb0203","getFee(bool)":"512b45ea","getInitializable()":"eb13c4cf","getPair(address,address,bool)":"6801cc30","isPair(address)":"e5e31b13","isPaused()":"b187bd26","pairCodeHash()":"9aab9248","pairs()":"ffb0a4a0","pauser()":"9fd0506d","pendingFeeManager()":"8a4fa0d2","pendingPauser()":"9a7165e4","setDibs(address)":"0c74db12","setFee(bool,uint256)":"e1f76b44","setFeeManager(address)":"472d35b9","setPause(bool)":"bedb86fb","setPauser(address)":"2d88af4a","setReferralFee(uint256)":"713494d7","setStakingFeeAddress(address)":"4091cb77","setStakingFees(uint256)":"482a8d07","stableFee()":"40bbd775","stakingFeeHandler()":"c124a4a2","stakingNFTFee()":"956f94a1","volatileFee()":"5084ed03"}},"storageLayout":{"storage":[{"astId":4381,"contract":"contracts/factories/PairFactory.sol:PairFactory","label":"isPaused","offset":0,"slot":"0","type":"t_bool"},{"astId":4383,"contract":"contracts/factories/PairFactory.sol:PairFactory","label":"pauser","offset":1,"slot":"0","type":"t_address"},{"astId":4385,"contract":"contracts/factories/PairFactory.sol:PairFactory","label":"pendingPauser","offset":0,"slot":"1","type":"t_address"},{"astId":4387,"contract":"contracts/factories/PairFactory.sol:PairFactory","label":"stableFee","offset":0,"slot":"2","type":"t_uint256"},{"astId":4389,"contract":"contracts/factories/PairFactory.sol:PairFactory","label":"volatileFee","offset":0,"slot":"3","type":"t_uint256"},{"astId":4391,"contract":"contracts/factories/PairFactory.sol:PairFactory","label":"stakingNFTFee","offset":0,"slot":"4","type":"t_uint256"},{"astId":4394,"contract":"contracts/factories/PairFactory.sol:PairFactory","label":"MAX_REFERRAL_FEE","offset":0,"slot":"5","type":"t_uint256"},{"astId":4399,"contract":"contracts/factories/PairFactory.sol:PairFactory","label":"feeManager","offset":0,"slot":"6","type":"t_address"},{"astId":4401,"contract":"contracts/factories/PairFactory.sol:PairFactory","label":"pendingFeeManager","offset":0,"slot":"7","type":"t_address"},{"astId":4403,"contract":"contracts/factories/PairFactory.sol:PairFactory","label":"dibs","offset":0,"slot":"8","type":"t_address"},{"astId":4405,"contract":"contracts/factories/PairFactory.sol:PairFactory","label":"stakingFeeHandler","offset":0,"slot":"9","type":"t_address"},{"astId":4413,"contract":"contracts/factories/PairFactory.sol:PairFactory","label":"getPair","offset":0,"slot":"10","type":"t_mapping(t_address,t_mapping(t_address,t_mapping(t_bool,t_address)))"},{"astId":4416,"contract":"contracts/factories/PairFactory.sol:PairFactory","label":"allPairs","offset":0,"slot":"11","type":"t_array(t_address)dyn_storage"},{"astId":4420,"contract":"contracts/factories/PairFactory.sol:PairFactory","label":"isPair","offset":0,"slot":"12","type":"t_mapping(t_address,t_bool)"},{"astId":4422,"contract":"contracts/factories/PairFactory.sol:PairFactory","label":"_temp0","offset":0,"slot":"13","type":"t_address"},{"astId":4424,"contract":"contracts/factories/PairFactory.sol:PairFactory","label":"_temp1","offset":0,"slot":"14","type":"t_address"},{"astId":4426,"contract":"contracts/factories/PairFactory.sol:PairFactory","label":"_temp","offset":20,"slot":"14","type":"t_bool"}],"types":{"t_address":{"encoding":"inplace","label":"address","numberOfBytes":"20"},"t_array(t_address)dyn_storage":{"base":"t_address","encoding":"dynamic_array","label":"address[]","numberOfBytes":"32"},"t_bool":{"encoding":"inplace","label":"bool","numberOfBytes":"1"},"t_mapping(t_address,t_bool)":{"encoding":"mapping","key":"t_address","label":"mapping(address => bool)","numberOfBytes":"32","value":"t_bool"},"t_mapping(t_address,t_mapping(t_address,t_mapping(t_bool,t_address)))":{"encoding":"mapping","key":"t_address","label":"mapping(address => mapping(address => mapping(bool => address)))","numberOfBytes":"32","value":"t_mapping(t_address,t_mapping(t_bool,t_address))"},"t_mapping(t_address,t_mapping(t_bool,t_address))":{"encoding":"mapping","key":"t_address","label":"mapping(address => mapping(bool => address))","numberOfBytes":"32","value":"t_mapping(t_bool,t_address)"},"t_mapping(t_bool,t_address)":{"encoding":"mapping","key":"t_bool","label":"mapping(bool => address)","numberOfBytes":"32","value":"t_address"},"t_uint256":{"encoding":"inplace","label":"uint256","numberOfBytes":"32"}}}}}}