{"contracts/PairFees.sol":{"PairFees":{"abi":[{"inputs":[{"internalType":"address","name":"_token0","type":"address"},{"internalType":"address","name":"_token1","type":"address"}],"stateMutability":"nonpayable","type":"constructor"},{"inputs":[{"internalType":"address","name":"recipient","type":"address"},{"internalType":"uint256","name":"amount0","type":"uint256"},{"internalType":"uint256","name":"amount1","type":"uint256"}],"name":"claimFeesFor","outputs":[],"stateMutability":"nonpayable","type":"function"},{"inputs":[{"internalType":"uint256","name":"amount","type":"uint256"},{"internalType":"bool","name":"isTokenZero","type":"bool"}],"name":"processStakingFees","outputs":[],"stateMutability":"nonpayable","type":"function"},{"inputs":[],"name":"toStake0","outputs":[{"internalType":"uint256","name":"","type":"uint256"}],"stateMutability":"view","type":"function"},{"inputs":[],"name":"toStake1","outputs":[{"internalType":"uint256","name":"","type":"uint256"}],"stateMutability":"view","type":"function"},{"inputs":[{"internalType":"address","name":"recipient","type":"address"}],"name":"withdrawStakingFees","outputs":[],"stateMutability":"nonpayable","type":"function"}],"evm":{"bytecode":{"linkReferences":{},"object":"60e060405234801561001057600080fd5b506040516105c53803806105c583398101604081905261002f91610066565b336080526001600160a01b0391821660a0521660c052610099565b80516001600160a01b038116811461006157600080fd5b919050565b6000806040838503121561007957600080fd5b6100828361004a565b91506100906020840161004a565b90509250929050565b60805160a05160c0516104e36100e26000396000818161012c015261026001526000818160fb015261022601526000818160c60152818161016201526101ef01526104e36000f3fe608060405234801561001057600080fd5b50600436106100575760003560e01c8063533cf5ce1461005c5780635b3c924814610071578063651d83f91461008c5780638d4dabff14610095578063f8518b89146100a8575b600080fd5b61006f61006a36600461039c565b6100bb565b005b61007a60015481565b60405190815260200160405180910390f35b61007a60005481565b61006f6100a33660046103dd565b610157565b61006f6100b636600461040d565b6101e4565b336001600160a01b037f000000000000000000000000000000000000000000000000000000000000000016146100f057600080fd5b8115610121576101217f00000000000000000000000000000000000000000000000000000000000000008484610291565b8015610152576101527f00000000000000000000000000000000000000000000000000000000000000008483610291565b505050565b336001600160a01b037f0000000000000000000000000000000000000000000000000000000000000000161461018c57600080fd5b6000821180156101995750805b156101b557816000808282546101af919061042f565b90915550505b6000821180156101c3575080155b156101e05781600160008282546101da919061042f565b90915550505b5050565b336001600160a01b037f0000000000000000000000000000000000000000000000000000000000000000161461021957600080fd5b600054156102535761024e7f000000000000000000000000000000000000000000000000000000000000000082600054610291565b600080555b6001541561028e576102887f000000000000000000000000000000000000000000000000000000000000000082600154610291565b60006001555b50565b6000836001600160a01b03163b116102a857600080fd5b604080516001600160a01b038481166024830152604480830185905283518084039091018152606490920183526020820180516001600160e01b031663a9059cbb60e01b17905291516000928392908716916103049190610455565b6000604051808303816000865af19150503d8060008114610341576040519150601f19603f3d011682016040523d82523d6000602084013e610346565b606091505b50915091508180156103705750805115806103705750808060200190518101906103709190610490565b61037957600080fd5b5050505050565b80356001600160a01b038116811461039757600080fd5b919050565b6000806000606084860312156103b157600080fd5b6103ba84610380565b95602085013595506040909401359392505050565b801515811461028e57600080fd5b600080604083850312156103f057600080fd5b823591506020830135610402816103cf565b809150509250929050565b60006020828403121561041f57600080fd5b61042882610380565b9392505050565b6000821982111561045057634e487b7160e01b600052601160045260246000fd5b500190565b6000825160005b81811015610476576020818601810151858301520161045c565b81811115610485576000828501525b509190910192915050565b6000602082840312156104a257600080fd5b8151610428816103cf56fea2646970667358221220bf47ac65349e83399e6f5dcb4d82786b7cb0603a6a9f178955696c4eb73479d364736f6c634300080d0033","opcodes":"PUSH1 0xE0 PUSH1 0x40 MSTORE CALLVALUE DUP1 ISZERO PUSH2 0x10 JUMPI PUSH1 0x0 DUP1 REVERT JUMPDEST POP PUSH1 0x40 MLOAD PUSH2 0x5C5 CODESIZE SUB DUP1 PUSH2 0x5C5 DUP4 CODECOPY DUP2 ADD PUSH1 0x40 DUP2 SWAP1 MSTORE PUSH2 0x2F SWAP2 PUSH2 0x66 JUMP JUMPDEST CALLER PUSH1 0x80 MSTORE PUSH1 0x1 PUSH1 0x1 PUSH1 0xA0 SHL SUB SWAP2 DUP3 AND PUSH1 0xA0 MSTORE AND PUSH1 0xC0 MSTORE PUSH2 0x99 JUMP JUMPDEST DUP1 MLOAD PUSH1 0x1 PUSH1 0x1 PUSH1 0xA0 SHL SUB DUP2 AND DUP2 EQ PUSH2 0x61 JUMPI PUSH1 0x0 DUP1 REVERT JUMPDEST SWAP2 SWAP1 POP JUMP JUMPDEST PUSH1 0x0 DUP1 PUSH1 0x40 DUP4 DUP6 SUB SLT ISZERO PUSH2 0x79 JUMPI PUSH1 0x0 DUP1 REVERT JUMPDEST PUSH2 0x82 DUP4 PUSH2 0x4A JUMP JUMPDEST SWAP2 POP PUSH2 0x90 PUSH1 0x20 DUP5 ADD PUSH2 0x4A JUMP JUMPDEST SWAP1 POP SWAP3 POP SWAP3 SWAP1 POP JUMP JUMPDEST PUSH1 0x80 MLOAD PUSH1 0xA0 MLOAD PUSH1 0xC0 MLOAD PUSH2 0x4E3 PUSH2 0xE2 PUSH1 0x0 CODECOPY PUSH1 0x0 DUP2 DUP2 PUSH2 0x12C ADD MSTORE PUSH2 0x260 ADD MSTORE PUSH1 0x0 DUP2 DUP2 PUSH1 0xFB ADD MSTORE PUSH2 0x226 ADD MSTORE PUSH1 0x0 DUP2 DUP2 PUSH1 0xC6 ADD MSTORE DUP2 DUP2 PUSH2 0x162 ADD MSTORE PUSH2 0x1EF ADD MSTORE PUSH2 0x4E3 PUSH1 0x0 RETURN INVALID PUSH1 0x80 PUSH1 0x40 MSTORE CALLVALUE DUP1 ISZERO PUSH2 0x10 JUMPI PUSH1 0x0 DUP1 REVERT JUMPDEST POP PUSH1 0x4 CALLDATASIZE LT PUSH2 0x57 JUMPI PUSH1 0x0 CALLDATALOAD PUSH1 0xE0 SHR DUP1 PUSH4 0x533CF5CE EQ PUSH2 0x5C JUMPI DUP1 PUSH4 0x5B3C9248 EQ PUSH2 0x71 JUMPI DUP1 PUSH4 0x651D83F9 EQ PUSH2 0x8C JUMPI DUP1 PUSH4 0x8D4DABFF EQ PUSH2 0x95 JUMPI DUP1 PUSH4 0xF8518B89 EQ PUSH2 0xA8 JUMPI JUMPDEST PUSH1 0x0 DUP1 REVERT JUMPDEST PUSH2 0x6F PUSH2 0x6A CALLDATASIZE PUSH1 0x4 PUSH2 0x39C JUMP JUMPDEST PUSH2 0xBB JUMP JUMPDEST STOP JUMPDEST PUSH2 0x7A PUSH1 0x1 SLOAD DUP2 JUMP JUMPDEST PUSH1 0x40 MLOAD SWAP1 DUP2 MSTORE PUSH1 0x20 ADD PUSH1 0x40 MLOAD DUP1 SWAP2 SUB SWAP1 RETURN JUMPDEST PUSH2 0x7A PUSH1 0x0 SLOAD DUP2 JUMP JUMPDEST PUSH2 0x6F PUSH2 0xA3 CALLDATASIZE PUSH1 0x4 PUSH2 0x3DD JUMP JUMPDEST PUSH2 0x157 JUMP JUMPDEST PUSH2 0x6F PUSH2 0xB6 CALLDATASIZE PUSH1 0x4 PUSH2 0x40D JUMP JUMPDEST PUSH2 0x1E4 JUMP JUMPDEST CALLER PUSH1 0x1 PUSH1 0x1 PUSH1 0xA0 SHL SUB PUSH32 0x0 AND EQ PUSH2 0xF0 JUMPI PUSH1 0x0 DUP1 REVERT JUMPDEST DUP2 ISZERO PUSH2 0x121 JUMPI PUSH2 0x121 PUSH32 0x0 DUP5 DUP5 PUSH2 0x291 JUMP JUMPDEST DUP1 ISZERO PUSH2 0x152 JUMPI PUSH2 0x152 PUSH32 0x0 DUP5 DUP4 PUSH2 0x291 JUMP JUMPDEST POP POP POP JUMP JUMPDEST CALLER PUSH1 0x1 PUSH1 0x1 PUSH1 0xA0 SHL SUB PUSH32 0x0 AND EQ PUSH2 0x18C JUMPI PUSH1 0x0 DUP1 REVERT JUMPDEST PUSH1 0x0 DUP3 GT DUP1 ISZERO PUSH2 0x199 JUMPI POP DUP1 JUMPDEST ISZERO PUSH2 0x1B5 JUMPI DUP2 PUSH1 0x0 DUP1 DUP3 DUP3 SLOAD PUSH2 0x1AF SWAP2 SWAP1 PUSH2 0x42F JUMP JUMPDEST SWAP1 SWAP2 SSTORE POP POP JUMPDEST PUSH1 0x0 DUP3 GT DUP1 ISZERO PUSH2 0x1C3 JUMPI POP DUP1 ISZERO JUMPDEST ISZERO PUSH2 0x1E0 JUMPI DUP2 PUSH1 0x1 PUSH1 0x0 DUP3 DUP3 SLOAD PUSH2 0x1DA SWAP2 SWAP1 PUSH2 0x42F JUMP JUMPDEST SWAP1 SWAP2 SSTORE POP POP JUMPDEST POP POP JUMP JUMPDEST CALLER PUSH1 0x1 PUSH1 0x1 PUSH1 0xA0 SHL SUB PUSH32 0x0 AND EQ PUSH2 0x219 JUMPI PUSH1 0x0 DUP1 REVERT JUMPDEST PUSH1 0x0 SLOAD ISZERO PUSH2 0x253 JUMPI PUSH2 0x24E PUSH32 0x0 DUP3 PUSH1 0x0 SLOAD PUSH2 0x291 JUMP JUMPDEST PUSH1 0x0 DUP1 SSTORE JUMPDEST PUSH1 0x1 SLOAD ISZERO PUSH2 0x28E JUMPI PUSH2 0x288 PUSH32 0x0 DUP3 PUSH1 0x1 SLOAD PUSH2 0x291 JUMP JUMPDEST PUSH1 0x0 PUSH1 0x1 SSTORE JUMPDEST POP JUMP JUMPDEST PUSH1 0x0 DUP4 PUSH1 0x1 PUSH1 0x1 PUSH1 0xA0 SHL SUB AND EXTCODESIZE GT PUSH2 0x2A8 JUMPI PUSH1 0x0 DUP1 REVERT JUMPDEST PUSH1 0x40 DUP1 MLOAD PUSH1 0x1 PUSH1 0x1 PUSH1 0xA0 SHL SUB DUP5 DUP2 AND PUSH1 0x24 DUP4 ADD MSTORE PUSH1 0x44 DUP1 DUP4 ADD DUP6 SWAP1 MSTORE DUP4 MLOAD DUP1 DUP5 SUB SWAP1 SWAP2 ADD DUP2 MSTORE PUSH1 0x64 SWAP1 SWAP3 ADD DUP4 MSTORE PUSH1 0x20 DUP3 ADD DUP1 MLOAD PUSH1 0x1 PUSH1 0x1 PUSH1 0xE0 SHL SUB AND PUSH4 0xA9059CBB PUSH1 0xE0 SHL OR SWAP1 MSTORE SWAP2 MLOAD PUSH1 0x0 SWAP3 DUP4 SWAP3 SWAP1 DUP8 AND SWAP2 PUSH2 0x304 SWAP2 SWAP1 PUSH2 0x455 JUMP JUMPDEST PUSH1 0x0 PUSH1 0x40 MLOAD DUP1 DUP4 SUB DUP2 PUSH1 0x0 DUP7 GAS CALL SWAP2 POP POP RETURNDATASIZE DUP1 PUSH1 0x0 DUP2 EQ PUSH2 0x341 JUMPI PUSH1 0x40 MLOAD SWAP2 POP PUSH1 0x1F NOT PUSH1 0x3F RETURNDATASIZE ADD AND DUP3 ADD PUSH1 0x40 MSTORE RETURNDATASIZE DUP3 MSTORE RETURNDATASIZE PUSH1 0x0 PUSH1 0x20 DUP5 ADD RETURNDATACOPY PUSH2 0x346 JUMP JUMPDEST PUSH1 0x60 SWAP2 POP JUMPDEST POP SWAP2 POP SWAP2 POP DUP2 DUP1 ISZERO PUSH2 0x370 JUMPI POP DUP1 MLOAD ISZERO DUP1 PUSH2 0x370 JUMPI POP DUP1 DUP1 PUSH1 0x20 ADD SWAP1 MLOAD DUP2 ADD SWAP1 PUSH2 0x370 SWAP2 SWAP1 PUSH2 0x490 JUMP JUMPDEST PUSH2 0x379 JUMPI PUSH1 0x0 DUP1 REVERT JUMPDEST POP POP POP POP POP JUMP JUMPDEST DUP1 CALLDATALOAD PUSH1 0x1 PUSH1 0x1 PUSH1 0xA0 SHL SUB DUP2 AND DUP2 EQ PUSH2 0x397 JUMPI PUSH1 0x0 DUP1 REVERT JUMPDEST SWAP2 SWAP1 POP JUMP JUMPDEST PUSH1 0x0 DUP1 PUSH1 0x0 PUSH1 0x60 DUP5 DUP7 SUB SLT ISZERO PUSH2 0x3B1 JUMPI PUSH1 0x0 DUP1 REVERT JUMPDEST PUSH2 0x3BA DUP5 PUSH2 0x380 JUMP JUMPDEST SWAP6 PUSH1 0x20 DUP6 ADD CALLDATALOAD SWAP6 POP PUSH1 0x40 SWAP1 SWAP5 ADD CALLDATALOAD SWAP4 SWAP3 POP POP POP JUMP JUMPDEST DUP1 ISZERO ISZERO DUP2 EQ PUSH2 0x28E JUMPI PUSH1 0x0 DUP1 REVERT JUMPDEST PUSH1 0x0 DUP1 PUSH1 0x40 DUP4 DUP6 SUB SLT ISZERO PUSH2 0x3F0 JUMPI PUSH1 0x0 DUP1 REVERT JUMPDEST DUP3 CALLDATALOAD SWAP2 POP PUSH1 0x20 DUP4 ADD CALLDATALOAD PUSH2 0x402 DUP2 PUSH2 0x3CF JUMP JUMPDEST DUP1 SWAP2 POP POP SWAP3 POP SWAP3 SWAP1 POP JUMP JUMPDEST PUSH1 0x0 PUSH1 0x20 DUP3 DUP5 SUB SLT ISZERO PUSH2 0x41F JUMPI PUSH1 0x0 DUP1 REVERT JUMPDEST PUSH2 0x428 DUP3 PUSH2 0x380 JUMP JUMPDEST SWAP4 SWAP3 POP POP POP JUMP JUMPDEST PUSH1 0x0 DUP3 NOT DUP3 GT ISZERO PUSH2 0x450 JUMPI PUSH4 0x4E487B71 PUSH1 0xE0 SHL PUSH1 0x0 MSTORE PUSH1 0x11 PUSH1 0x4 MSTORE PUSH1 0x24 PUSH1 0x0 REVERT JUMPDEST POP ADD SWAP1 JUMP JUMPDEST PUSH1 0x0 DUP3 MLOAD PUSH1 0x0 JUMPDEST DUP2 DUP2 LT ISZERO PUSH2 0x476 JUMPI PUSH1 0x20 DUP2 DUP7 ADD DUP2 ADD MLOAD DUP6 DUP4 ADD MSTORE ADD PUSH2 0x45C JUMP JUMPDEST DUP2 DUP2 GT ISZERO PUSH2 0x485 JUMPI PUSH1 0x0 DUP3 DUP6 ADD MSTORE JUMPDEST POP SWAP2 SWAP1 SWAP2 ADD SWAP3 SWAP2 POP POP JUMP JUMPDEST PUSH1 0x0 PUSH1 0x20 DUP3 DUP5 SUB SLT ISZERO PUSH2 0x4A2 JUMPI PUSH1 0x0 DUP1 REVERT JUMPDEST DUP2 MLOAD PUSH2 0x428 DUP2 PUSH2 0x3CF JUMP INVALID LOG2 PUSH5 0x6970667358 0x22 SLT KECCAK256 0xBF SELFBALANCE 0xAC PUSH6 0x349E83399E6F 0x5D 0xCB 0x4D DUP3 PUSH25 0x6B7CB0603A6A9F178955696C4EB73479D364736F6C63430008 0xD STOP CALLER "},"methodIdentifiers":{"claimFeesFor(address,uint256,uint256)":"533cf5ce","processStakingFees(uint256,bool)":"8d4dabff","toStake0()":"651d83f9","toStake1()":"5b3c9248","withdrawStakingFees(address)":"f8518b89"}},"storageLayout":{"storage":[{"astId":4179,"contract":"contracts/PairFees.sol:PairFees","label":"toStake0","offset":0,"slot":"0","type":"t_uint256"},{"astId":4181,"contract":"contracts/PairFees.sol:PairFees","label":"toStake1","offset":0,"slot":"1","type":"t_uint256"}],"types":{"t_uint256":{"encoding":"inplace","label":"uint256","numberOfBytes":"32"}}}}}}