{"contracts/RewardsDistributor.sol":{"RewardsDistributor":{"abi":[{"inputs":[{"internalType":"address","name":"_voting_escrow","type":"address"}],"stateMutability":"nonpayable","type":"constructor"},{"anonymous":false,"inputs":[{"indexed":false,"internalType":"uint256","name":"time","type":"uint256"},{"indexed":false,"internalType":"uint256","name":"tokens","type":"uint256"}],"name":"CheckpointToken","type":"event"},{"anonymous":false,"inputs":[{"indexed":false,"internalType":"uint256","name":"tokenId","type":"uint256"},{"indexed":false,"internalType":"uint256","name":"amount","type":"uint256"},{"indexed":false,"internalType":"uint256","name":"claim_epoch","type":"uint256"},{"indexed":false,"internalType":"uint256","name":"max_epoch","type":"uint256"}],"name":"Claimed","type":"event"},{"inputs":[],"name":"checkpoint_token","outputs":[],"stateMutability":"nonpayable","type":"function"},{"inputs":[],"name":"checkpoint_total_supply","outputs":[],"stateMutability":"nonpayable","type":"function"},{"inputs":[{"internalType":"uint256","name":"_tokenId","type":"uint256"}],"name":"claim","outputs":[{"internalType":"uint256","name":"","type":"uint256"}],"stateMutability":"nonpayable","type":"function"},{"inputs":[{"internalType":"uint256[]","name":"_tokenIds","type":"uint256[]"}],"name":"claim_many","outputs":[{"internalType":"bool","name":"","type":"bool"}],"stateMutability":"nonpayable","type":"function"},{"inputs":[{"internalType":"uint256","name":"_tokenId","type":"uint256"}],"name":"claimable","outputs":[{"internalType":"uint256","name":"","type":"uint256"}],"stateMutability":"view","type":"function"},{"inputs":[],"name":"depositor","outputs":[{"internalType":"address","name":"","type":"address"}],"stateMutability":"view","type":"function"},{"inputs":[],"name":"last_token_time","outputs":[{"internalType":"uint256","name":"","type":"uint256"}],"stateMutability":"view","type":"function"},{"inputs":[],"name":"owner","outputs":[{"internalType":"address","name":"","type":"address"}],"stateMutability":"view","type":"function"},{"inputs":[{"internalType":"address","name":"_depositor","type":"address"}],"name":"setDepositor","outputs":[],"stateMutability":"nonpayable","type":"function"},{"inputs":[{"internalType":"address","name":"_owner","type":"address"}],"name":"setOwner","outputs":[],"stateMutability":"nonpayable","type":"function"},{"inputs":[],"name":"start_time","outputs":[{"internalType":"uint256","name":"","type":"uint256"}],"stateMutability":"view","type":"function"},{"inputs":[],"name":"time_cursor","outputs":[{"internalType":"uint256","name":"","type":"uint256"}],"stateMutability":"view","type":"function"},{"inputs":[{"internalType":"uint256","name":"","type":"uint256"}],"name":"time_cursor_of","outputs":[{"internalType":"uint256","name":"","type":"uint256"}],"stateMutability":"view","type":"function"},{"inputs":[],"name":"timestamp","outputs":[{"internalType":"uint256","name":"","type":"uint256"}],"stateMutability":"view","type":"function"},{"inputs":[],"name":"token","outputs":[{"internalType":"address","name":"","type":"address"}],"stateMutability":"view","type":"function"},{"inputs":[],"name":"token_last_balance","outputs":[{"internalType":"uint256","name":"","type":"uint256"}],"stateMutability":"view","type":"function"},{"inputs":[{"internalType":"uint256","name":"","type":"uint256"}],"name":"tokens_per_week","outputs":[{"internalType":"uint256","name":"","type":"uint256"}],"stateMutability":"view","type":"function"},{"inputs":[{"internalType":"uint256","name":"","type":"uint256"}],"name":"user_epoch_of","outputs":[{"internalType":"uint256","name":"","type":"uint256"}],"stateMutability":"view","type":"function"},{"inputs":[{"internalType":"uint256","name":"_tokenId","type":"uint256"},{"internalType":"uint256","name":"_timestamp","type":"uint256"}],"name":"ve_for_at","outputs":[{"internalType":"uint256","name":"","type":"uint256"}],"stateMutability":"view","type":"function"},{"inputs":[{"internalType":"uint256","name":"","type":"uint256"}],"name":"ve_supply","outputs":[{"internalType":"uint256","name":"","type":"uint256"}],"stateMutability":"view","type":"function"},{"inputs":[],"name":"voting_escrow","outputs":[{"internalType":"address","name":"","type":"address"}],"stateMutability":"view","type":"function"},{"inputs":[{"internalType":"address","name":"_token","type":"address"}],"name":"withdrawERC20","outputs":[],"stateMutability":"nonpayable","type":"function"}],"evm":{"bytecode":{"linkReferences":{},"object":"60806040523480156200001157600080fd5b50604051620020f4380380620020f48339810160408190526200003491620001b1565b600062093a80620000468142620001e3565b62000052919062000206565b90508060008190555080600481905550806001819055506000826001600160a01b031663fc0c546a6040518163ffffffff1660e01b8152600401602060405180830381865afa158015620000aa573d6000803e3d6000fd5b505050506040513d601f19601f82011682018060405250810190620000d09190620001b1565b66071afd498d000880546001600160a01b03199081166001600160a01b0384811691821790935566071afd498d000780548316938816938417905566071afd498d0009805433908416811790915566071afd498d000680549093161790915560405163095ea7b360e01b81526004810192909252600019602483015291925063095ea7b3906044016020604051808303816000875af115801562000178573d6000803e3d6000fd5b505050506040513d601f19601f820116820180604052508101906200019e919062000234565b620001a857600080fd5b50505062000258565b600060208284031215620001c457600080fd5b81516001600160a01b0381168114620001dc57600080fd5b9392505050565b6000826200020157634e487b7160e01b600052601260045260246000fd5b500490565b60008160001904831182151516156200022f57634e487b7160e01b600052601160045260246000fd5b500290565b6000602082840312156200024757600080fd5b81518015158114620001dc57600080fd5b611e8c80620002686000396000f3fe608060405234801561001057600080fd5b50600436106101425760003560e01c80638da5cb5b116100b8578063d4dafba81161007c578063d4dafba814610297578063dfe05031146102aa578063edf59997146102c3578063f2c098b7146102d6578063f4f3b200146102e9578063fc0c546a146102fc57600080fd5b80638da5cb5b1461022a578063b21ed5021461025b578063b80777ea14610263578063c7c4ff461461026b578063d1d58b251461028457600080fd5b8063379607f51161010a578063379607f5146101ca578063486d25fe146101dd57806368809889146101fd5780637f58e8f814610210578063811a40fe14610219578063834ee4171461022157600080fd5b8063127dcbd31461014757806313af40351461016357806316aea5c0146101785780631f1db0431461019857806322b04bfc146101bb575b600080fd5b61015060015481565b6040519081526020015b60405180910390f35b610176610171366004611a20565b610315565b005b610150610186366004611a3d565b60036020526000908152604090205481565b6101ab6101a6366004611a9d565b61035a565b604051901515815260200161015a565b61015066038d7ea4c680055481565b6101506101d8366004611a3d565b61060b565b6101506101eb366004611a3d565b60026020526000908152604090205481565b61015061020b366004611b43565b610872565b61015060045481565b6101766109b5565b61015060005481565b66071afd498d000654610243906001600160a01b031681565b6040516001600160a01b03909116815260200161015a565b6101766109df565b6101506109e7565b66071afd498d000954610243906001600160a01b031681565b610150610292366004611a3d565b610a06565b6101506102a5366004611a3d565b610a46565b66071afd498d000754610243906001600160a01b031681565b6101506102d1366004611a3d565b610a69565b6101766102e4366004611a20565b610a7f565b6101766102f7366004611a20565b610ac4565b66071afd498d000854610243906001600160a01b031681565b66071afd498d0006546001600160a01b0316331461033257600080fd5b66071afd498d000680546001600160a01b0319166001600160a01b0392909216919091179055565b6000600154421061036d5761036d610bd8565b60045462093a8061037e8183611b7b565b6103889190611b9d565b66071afd498d0007549091506001600160a01b03166000805b85518110156105db5760008682815181106103be576103be611bbc565b60200260200101519050806000036103d657506105db565b60006103e3828688610d7b565b905080156105c657604051635a2d1e0760e11b8152600481018390526000906001600160a01b0387169063b45a3c0e906024016040805180830381865afa158015610432573d6000803e3d6000fd5b505050506040513d601f19601f820116820180604052508101906104569190611be9565b90504281602001511015610556576040516331a9108f60e11b8152600481018490526000906001600160a01b03881690636352211e90602401602060405180830381865afa1580156104ac573d6000803e3d6000fd5b505050506040513d601f19601f820116820180604052508101906104d09190611c40565b66071afd498d00085460405163a9059cbb60e01b81526001600160a01b0380841660048301526024820187905292935091169063a9059cbb906044016020604051808303816000875af115801561052b573d6000803e3d6000fd5b505050506040513d601f19601f8201168201806040525081019061054f9190611c5d565b50506105b8565b604051631dd33fc560e31b815260048101849052602481018390526001600160a01b0387169063ee99fe2890604401600060405180830381600087803b15801561059f57600080fd5b505af11580156105b3573d6000803e3d6000fd5b505050505b6105c28286611c7f565b9450505b505080806105d390611c97565b9150506103a1565b508015610600578066038d7ea4c6800560008282546105fa9190611cb0565b90915550505b506001949350505050565b6000600154421061061e5761061e610bd8565b60045462093a8061062f8183611b7b565b6106399190611b9d565b66071afd498d00075490915060009061065d9085906001600160a01b031684610d7b565b9050801561086b5766071afd498d000754604051635a2d1e0760e11b8152600481018690526000916001600160a01b03169063b45a3c0e906024016040805180830381865afa1580156106b4573d6000803e3d6000fd5b505050506040513d601f19601f820116820180604052508101906106d89190611be9565b905042816020015110156107e05766071afd498d0007546040516331a9108f60e11b8152600481018790526000916001600160a01b031690636352211e90602401602060405180830381865afa158015610736573d6000803e3d6000fd5b505050506040513d601f19601f8201168201806040525081019061075a9190611c40565b66071afd498d00085460405163a9059cbb60e01b81526001600160a01b0380841660048301526024820187905292935091169063a9059cbb906044016020604051808303816000875af11580156107b5573d6000803e3d6000fd5b505050506040513d601f19601f820116820180604052508101906107d99190611c5d565b505061084c565b66071afd498d000754604051631dd33fc560e31b815260048101879052602481018490526001600160a01b039091169063ee99fe2890604401600060405180830381600087803b15801561083357600080fd5b505af1158015610847573d6000803e3d6000fd5b505050505b8166038d7ea4c6800560008282546108649190611cb0565b9091555050505b9392505050565b66071afd498d00075460405163391044d760e21b8152600481018490526000916001600160a01b0316908290829063e441135c90602401602060405180830381865afa1580156108c6573d6000803e3d6000fd5b505050506040513d601f19601f820116820180604052508101906108ea9190611cc7565b905060006108fa8387878561119f565b6040516309bb79ed60e11b815260048101889052602481018290529091506000906001600160a01b03851690631376f3da90604401608060405180830381865afa15801561094c573d6000803e3d6000fd5b505050506040513d601f19601f820116820180604052508101906109709190611ce0565b90506109aa8160400151876109859190611cb0565b82602001516109949190611d52565b82516109a09190611df0565b600f0b6000611293565b979650505050505050565b66071afd498d0009546001600160a01b031633146109d5576109d5611e40565b6109dd6112aa565b565b6109dd610bd8565b600062093a806109f78142611b7b565b610a019190611b9d565b905090565b60008062093a8080600454610a1b9190611b7b565b610a259190611b9d565b66071afd498d00075490915061086b9084906001600160a01b031683611507565b66038d7ea4c680068166038d7ea4c680008110610a6257600080fd5b0154905081565b60058166038d7ea4c680008110610a6257600080fd5b66071afd498d0006546001600160a01b03163314610a9c57600080fd5b66071afd498d000980546001600160a01b0319166001600160a01b0392909216919091179055565b66071afd498d0006546001600160a01b03163314610ae157600080fd5b6001600160a01b038116610af457600080fd5b6040516370a0823160e01b81523060048201526000906001600160a01b038316906370a0823190602401602060405180830381865afa158015610b3b573d6000803e3d6000fd5b505050506040513d601f19601f82011682018060405250810190610b5f9190611cc7565b60405163a9059cbb60e01b8152336004820152602481018290529091506001600160a01b0383169063a9059cbb906044016020604051808303816000875af1158015610baf573d6000803e3d6000fd5b505050506040513d601f19601f82011682018060405250810190610bd39190611c5d565b505050565b66071afd498d0007546001546001600160a01b0390911690600062093a80610c008142611b7b565b610c0a9190611b9d565b9050826001600160a01b031663c2c4c5c16040518163ffffffff1660e01b8152600401600060405180830381600087803b158015610c4757600080fd5b505af1158015610c5b573d6000803e3d6000fd5b5050505060005b6014811015610d7357818311610d73576000610c7e85856118a4565b60405163d1febfb960e01b8152600481018290529091506000906001600160a01b0387169063d1febfb990602401608060405180830381865afa158015610cc9573d6000803e3d6000fd5b505050506040513d601f19601f82011682018060405250810190610ced9190611ce0565b905060008160400151861115610d0f576040820151610d0c9087611cb0565b90505b610d2e818360200151610d229190611d52565b83516109a09190611df0565b66038d7ea4c680068766038d7ea4c680008110610d4d57610d4d611bbc565b0155505050610d5f62093a8084611c7f565b925080610d6b81611c97565b915050610c62565b505060015550565b60405163391044d760e21b8152600481018490526000908190819081906001600160a01b0387169063e441135c90602401602060405180830381865afa158015610dc9573d6000803e3d6000fd5b505050506040513d601f19601f82011682018060405250810190610ded9190611cc7565b60008054919250829003610e0857600094505050505061086b565b60008881526002602052604081205490819003610e3257610e2b888a848661119f565b9450610e44565b60008981526003602052604090205494505b84600003610e5157600194505b6040516309bb79ed60e11b8152600481018a9052602481018690526000906001600160a01b038a1690631376f3da90604401608060405180830381865afa158015610ea0573d6000803e3d6000fd5b505050506040513d601f19601f82011682018060405250810190610ec49190611ce0565b905081600003610f095762093a8080600162093a808460400151610ee89190611c7f565b610ef29190611cb0565b610efc9190611b7b565b610f069190611b9d565b91505b6004548210610f21576000965050505050505061086b565b82821015610f2d578291505b6040805160808101825260008082526020820181905291810182905260608101829052905b603281101561111457898410156111145782604001518410158015610f775750858811155b1561103d57610f87600189611c7f565b975082915085881115610fc65760405180608001604052806000600f0b81526020016000600f0b81526020016000815260200160008152509250611102565b6040516309bb79ed60e11b8152600481018d9052602481018990526001600160a01b038c1690631376f3da90604401608060405180830381865afa158015611012573d6000803e3d6000fd5b505050506040513d601f19601f820116820180604052508101906110369190611ce0565b9250611102565b600082604001518561104f9190611cb0565b905060006110728460200151836110669190611d52565b85516109a09190611df0565b9050801580156110815750878a115b1561108d575050611114565b80156110f05766038d7ea4c680068666038d7ea4c6800081106110b2576110b2611bbc565b015460058766038d7ea4c6800081106110cd576110cd611bbc565b01546110d99083611b9d565b6110e39190611b7b565b6110ed908a611c7f565b98505b6110fd62093a8087611c7f565b955050505b8061110c81611c97565b915050610f52565b506111298561112460018a611cb0565b6119f9565b60008c8152600360209081526040808320849055600282529182902086905581518e8152908101899052908101829052606081018790529097507fcae2990aa9af8eb1c64713b7eddb3a80bf18e49a94a13fe0d0002b5d61d58f009060800160405180910390a150939998505050505050505050565b60008082815b6080811015611287578183101561128757600060026111c48486611c7f565b6111cf906002611c7f565b6111d99190611b7b565b6040516309bb79ed60e11b8152600481018a9052602481018290529091506000906001600160a01b038b1690631376f3da90604401608060405180830381865afa15801561122b573d6000803e3d6000fd5b505050506040513d601f19601f8201168201806040525081019061124f9190611ce0565b90508781604001511161126457819450611272565b61126f600183611cb0565b93505b5050808061127f90611c97565b9150506111a5565b50909695505050505050565b6000818310156112a3578161086b565b5090919050565b66071afd498d0008546040516370a0823160e01b81523060048201526000916001600160a01b0316906370a0823190602401602060405180830381865afa1580156112f9573d6000803e3d6000fd5b505050506040513d601f19601f8201168201806040525081019061131d9190611cc7565b9050600066038d7ea4c6800554826113359190611cb0565b66038d7ea4c6800583905560045490915060006113528242611cb0565b426004559050600062093a806113688185611b7b565b6113729190611b9d565b90506000805b60148110156114c55761138e62093a8084611c7f565b91508142101561141757831580156113a557508442145b156113df578560058466038d7ea4c6800081106113c4576113c4611bbc565b0160008282546113d49190611c7f565b909155506114c59050565b836113ea8642611cb0565b6113f49088611b9d565b6113fe9190611b7b565b60058466038d7ea4c6800081106113c4576113c4611bbc565b8315801561142457508482145b1561145e578560058466038d7ea4c68000811061144357611443611bbc565b0160008282546114539190611c7f565b909155506114ac9050565b836114698684611cb0565b6114739088611b9d565b61147d9190611b7b565b60058466038d7ea4c68000811061149657611496611bbc565b0160008282546114a69190611c7f565b90915550505b81945081925080806114bd90611c97565b915050611378565b5060408051428152602081018790527fce749457b74e10f393f2c6b1ce4261b78791376db5a3f501477a809f03f500d6910160405180910390a1505050505050565b60405163391044d760e21b8152600481018490526000908190819081906001600160a01b0387169063e441135c90602401602060405180830381865afa158015611555573d6000803e3d6000fd5b505050506040513d601f19601f820116820180604052508101906115799190611cc7565b6000805491925082900361159457600094505050505061086b565b600088815260026020526040812054908190036115be576115b7888a848661119f565b94506115d0565b60008981526003602052604090205494505b846000036115dd57600194505b6040516309bb79ed60e11b8152600481018a9052602481018690526000906001600160a01b038a1690631376f3da90604401608060405180830381865afa15801561162c573d6000803e3d6000fd5b505050506040513d601f19601f820116820180604052508101906116509190611ce0565b9050816000036116955762093a8080600162093a8084604001516116749190611c7f565b61167e9190611cb0565b6116889190611b7b565b6116929190611b9d565b91505b60045482106116ad576000965050505050505061086b565b828210156116b9578291505b6040805160808101825260008082526020820181905291810182905260608101829052905b6032811015611894578984101561189457826040015184101580156117035750858811155b156117c957611713600189611c7f565b9750829150858811156117525760405180608001604052806000600f0b81526020016000600f0b81526020016000815260200160008152509250611882565b6040516309bb79ed60e11b8152600481018d9052602481018990526001600160a01b038c1690631376f3da90604401608060405180830381865afa15801561179e573d6000803e3d6000fd5b505050506040513d601f19601f820116820180604052508101906117c29190611ce0565b9250611882565b60008260400151856117db9190611cb0565b905060006117f28460200151836110669190611d52565b9050801580156118015750878a115b1561180d575050611894565b80156118705766038d7ea4c680068666038d7ea4c68000811061183257611832611bbc565b015460058766038d7ea4c68000811061184d5761184d611bbc565b01546118599083611b9d565b6118639190611b7b565b61186d908a611c7f565b98505b61187d62093a8087611c7f565b955050505b8061188c81611c97565b9150506116de565b50949a9950505050505050505050565b600080600090506000846001600160a01b031663900cf0cf6040518163ffffffff1660e01b8152600401602060405180830381865afa1580156118eb573d6000803e3d6000fd5b505050506040513d601f19601f8201168201806040525081019061190f9190611cc7565b905060005b60808110156119ef57818310156119ef57600060026119338486611c7f565b61193e906002611c7f565b6119489190611b7b565b60405163d1febfb960e01b8152600481018290529091506000906001600160a01b0389169063d1febfb990602401608060405180830381865afa158015611993573d6000803e3d6000fd5b505050506040513d601f19601f820116820180604052508101906119b79190611ce0565b9050868160400151116119cc578194506119da565b6119d7600183611cb0565b93505b505080806119e790611c97565b915050611914565b5090949350505050565b60008183106112a3578161086b565b6001600160a01b0381168114611a1d57600080fd5b50565b600060208284031215611a3257600080fd5b813561086b81611a08565b600060208284031215611a4f57600080fd5b5035919050565b634e487b7160e01b600052604160045260246000fd5b604051601f8201601f1916810167ffffffffffffffff81118282101715611a9557611a95611a56565b604052919050565b60006020808385031215611ab057600080fd5b823567ffffffffffffffff80821115611ac857600080fd5b818501915085601f830112611adc57600080fd5b813581811115611aee57611aee611a56565b8060051b9150611aff848301611a6c565b8181529183018401918481019088841115611b1957600080fd5b938501935b83851015611b3757843582529385019390850190611b1e565b98975050505050505050565b60008060408385031215611b5657600080fd5b50508035926020909101359150565b634e487b7160e01b600052601160045260246000fd5b600082611b9857634e487b7160e01b600052601260045260246000fd5b500490565b6000816000190483118215151615611bb757611bb7611b65565b500290565b634e487b7160e01b600052603260045260246000fd5b8051600f81900b8114611be457600080fd5b919050565b600060408284031215611bfb57600080fd5b6040516040810181811067ffffffffffffffff82111715611c1e57611c1e611a56565b604052611c2a83611bd2565b8152602083015160208201528091505092915050565b600060208284031215611c5257600080fd5b815161086b81611a08565b600060208284031215611c6f57600080fd5b8151801515811461086b57600080fd5b60008219821115611c9257611c92611b65565b500190565b600060018201611ca957611ca9611b65565b5060010190565b600082821015611cc257611cc2611b65565b500390565b600060208284031215611cd957600080fd5b5051919050565b600060808284031215611cf257600080fd5b6040516080810181811067ffffffffffffffff82111715611d1557611d15611a56565b604052611d2183611bd2565b8152611d2f60208401611bd2565b602082015260408301516040820152606083015160608201528091505092915050565b600081600f0b83600f0b60016001607f1b03600082136000841383830485118282161615611d8257611d82611b65565b6f7fffffffffffffffffffffffffffffff196000851282811687830587121615611dae57611dae611b65565b60008712925085820587128484161615611dca57611dca611b65565b85850587128184161615611de057611de0611b65565b5050509290910295945050505050565b600081600f0b83600f0b600081128160016001607f1b031901831281151615611e1b57611e1b611b65565b8160016001607f1b03018313811615611e3657611e36611b65565b5090039392505050565b634e487b7160e01b600052600160045260246000fdfea264697066735822122043456269e9b6cb918511e6c8e8100bcd2afc2d480fad1502844f638cdc6d379d64736f6c634300080d0033","opcodes":"PUSH1 0x80 PUSH1 0x40 MSTORE CALLVALUE DUP1 ISZERO PUSH3 0x11 JUMPI PUSH1 0x0 DUP1 REVERT JUMPDEST POP PUSH1 0x40 MLOAD PUSH3 0x20F4 CODESIZE SUB DUP1 PUSH3 0x20F4 DUP4 CODECOPY DUP2 ADD PUSH1 0x40 DUP2 SWAP1 MSTORE PUSH3 0x34 SWAP2 PUSH3 0x1B1 JUMP JUMPDEST PUSH1 0x0 PUSH3 0x93A80 PUSH3 0x46 DUP2 TIMESTAMP PUSH3 0x1E3 JUMP JUMPDEST PUSH3 0x52 SWAP2 SWAP1 PUSH3 0x206 JUMP JUMPDEST SWAP1 POP DUP1 PUSH1 0x0 DUP2 SWAP1 SSTORE POP DUP1 PUSH1 0x4 DUP2 SWAP1 SSTORE POP DUP1 PUSH1 0x1 DUP2 SWAP1 SSTORE POP PUSH1 0x0 DUP3 PUSH1 0x1 PUSH1 0x1 PUSH1 0xA0 SHL SUB AND PUSH4 0xFC0C546A PUSH1 0x40 MLOAD DUP2 PUSH4 0xFFFFFFFF AND PUSH1 0xE0 SHL DUP2 MSTORE PUSH1 0x4 ADD PUSH1 0x20 PUSH1 0x40 MLOAD DUP1 DUP4 SUB DUP2 DUP7 GAS STATICCALL ISZERO DUP1 ISZERO PUSH3 0xAA JUMPI RETURNDATASIZE PUSH1 0x0 DUP1 RETURNDATACOPY RETURNDATASIZE PUSH1 0x0 REVERT JUMPDEST POP POP POP POP PUSH1 0x40 MLOAD RETURNDATASIZE PUSH1 0x1F NOT PUSH1 0x1F DUP3 ADD AND DUP3 ADD DUP1 PUSH1 0x40 MSTORE POP DUP2 ADD SWAP1 PUSH3 0xD0 SWAP2 SWAP1 PUSH3 0x1B1 JUMP JUMPDEST PUSH7 0x71AFD498D0008 DUP1 SLOAD PUSH1 0x1 PUSH1 0x1 PUSH1 0xA0 SHL SUB NOT SWAP1 DUP2 AND PUSH1 0x1 PUSH1 0x1 PUSH1 0xA0 SHL SUB DUP5 DUP2 AND SWAP2 DUP3 OR SWAP1 SWAP4 SSTORE PUSH7 0x71AFD498D0007 DUP1 SLOAD DUP4 AND SWAP4 DUP9 AND SWAP4 DUP5 OR SWAP1 SSTORE PUSH7 0x71AFD498D0009 DUP1 SLOAD CALLER SWAP1 DUP5 AND DUP2 OR SWAP1 SWAP2 SSTORE PUSH7 0x71AFD498D0006 DUP1 SLOAD SWAP1 SWAP4 AND OR SWAP1 SWAP2 SSTORE PUSH1 0x40 MLOAD PUSH4 0x95EA7B3 PUSH1 0xE0 SHL DUP2 MSTORE PUSH1 0x4 DUP2 ADD SWAP3 SWAP1 SWAP3 MSTORE PUSH1 0x0 NOT PUSH1 0x24 DUP4 ADD MSTORE SWAP2 SWAP3 POP PUSH4 0x95EA7B3 SWAP1 PUSH1 0x44 ADD PUSH1 0x20 PUSH1 0x40 MLOAD DUP1 DUP4 SUB DUP2 PUSH1 0x0 DUP8 GAS CALL ISZERO DUP1 ISZERO PUSH3 0x178 JUMPI RETURNDATASIZE PUSH1 0x0 DUP1 RETURNDATACOPY RETURNDATASIZE PUSH1 0x0 REVERT JUMPDEST POP POP POP POP PUSH1 0x40 MLOAD RETURNDATASIZE PUSH1 0x1F NOT PUSH1 0x1F DUP3 ADD AND DUP3 ADD DUP1 PUSH1 0x40 MSTORE POP DUP2 ADD SWAP1 PUSH3 0x19E SWAP2 SWAP1 PUSH3 0x234 JUMP JUMPDEST PUSH3 0x1A8 JUMPI PUSH1 0x0 DUP1 REVERT JUMPDEST POP POP POP PUSH3 0x258 JUMP JUMPDEST PUSH1 0x0 PUSH1 0x20 DUP3 DUP5 SUB SLT ISZERO PUSH3 0x1C4 JUMPI PUSH1 0x0 DUP1 REVERT JUMPDEST DUP2 MLOAD PUSH1 0x1 PUSH1 0x1 PUSH1 0xA0 SHL SUB DUP2 AND DUP2 EQ PUSH3 0x1DC JUMPI PUSH1 0x0 DUP1 REVERT JUMPDEST SWAP4 SWAP3 POP POP POP JUMP JUMPDEST PUSH1 0x0 DUP3 PUSH3 0x201 JUMPI PUSH4 0x4E487B71 PUSH1 0xE0 SHL PUSH1 0x0 MSTORE PUSH1 0x12 PUSH1 0x4 MSTORE PUSH1 0x24 PUSH1 0x0 REVERT JUMPDEST POP DIV SWAP1 JUMP JUMPDEST PUSH1 0x0 DUP2 PUSH1 0x0 NOT DIV DUP4 GT DUP3 ISZERO ISZERO AND ISZERO PUSH3 0x22F JUMPI PUSH4 0x4E487B71 PUSH1 0xE0 SHL PUSH1 0x0 MSTORE PUSH1 0x11 PUSH1 0x4 MSTORE PUSH1 0x24 PUSH1 0x0 REVERT JUMPDEST POP MUL SWAP1 JUMP JUMPDEST PUSH1 0x0 PUSH1 0x20 DUP3 DUP5 SUB SLT ISZERO PUSH3 0x247 JUMPI PUSH1 0x0 DUP1 REVERT JUMPDEST DUP2 MLOAD DUP1 ISZERO ISZERO DUP2 EQ PUSH3 0x1DC JUMPI PUSH1 0x0 DUP1 REVERT JUMPDEST PUSH2 0x1E8C DUP1 PUSH3 0x268 PUSH1 0x0 CODECOPY PUSH1 0x0 RETURN INVALID PUSH1 0x80 PUSH1 0x40 MSTORE CALLVALUE DUP1 ISZERO PUSH2 0x10 JUMPI PUSH1 0x0 DUP1 REVERT JUMPDEST POP PUSH1 0x4 CALLDATASIZE LT PUSH2 0x142 JUMPI PUSH1 0x0 CALLDATALOAD PUSH1 0xE0 SHR DUP1 PUSH4 0x8DA5CB5B GT PUSH2 0xB8 JUMPI DUP1 PUSH4 0xD4DAFBA8 GT PUSH2 0x7C JUMPI DUP1 PUSH4 0xD4DAFBA8 EQ PUSH2 0x297 JUMPI DUP1 PUSH4 0xDFE05031 EQ PUSH2 0x2AA JUMPI DUP1 PUSH4 0xEDF59997 EQ PUSH2 0x2C3 JUMPI DUP1 PUSH4 0xF2C098B7 EQ PUSH2 0x2D6 JUMPI DUP1 PUSH4 0xF4F3B200 EQ PUSH2 0x2E9 JUMPI DUP1 PUSH4 0xFC0C546A EQ PUSH2 0x2FC JUMPI PUSH1 0x0 DUP1 REVERT JUMPDEST DUP1 PUSH4 0x8DA5CB5B EQ PUSH2 0x22A JUMPI DUP1 PUSH4 0xB21ED502 EQ PUSH2 0x25B JUMPI DUP1 PUSH4 0xB80777EA EQ PUSH2 0x263 JUMPI DUP1 PUSH4 0xC7C4FF46 EQ PUSH2 0x26B JUMPI DUP1 PUSH4 0xD1D58B25 EQ PUSH2 0x284 JUMPI PUSH1 0x0 DUP1 REVERT JUMPDEST DUP1 PUSH4 0x379607F5 GT PUSH2 0x10A JUMPI DUP1 PUSH4 0x379607F5 EQ PUSH2 0x1CA JUMPI DUP1 PUSH4 0x486D25FE EQ PUSH2 0x1DD JUMPI DUP1 PUSH4 0x68809889 EQ PUSH2 0x1FD JUMPI DUP1 PUSH4 0x7F58E8F8 EQ PUSH2 0x210 JUMPI DUP1 PUSH4 0x811A40FE EQ PUSH2 0x219 JUMPI DUP1 PUSH4 0x834EE417 EQ PUSH2 0x221 JUMPI PUSH1 0x0 DUP1 REVERT JUMPDEST DUP1 PUSH4 0x127DCBD3 EQ PUSH2 0x147 JUMPI DUP1 PUSH4 0x13AF4035 EQ PUSH2 0x163 JUMPI DUP1 PUSH4 0x16AEA5C0 EQ PUSH2 0x178 JUMPI DUP1 PUSH4 0x1F1DB043 EQ PUSH2 0x198 JUMPI DUP1 PUSH4 0x22B04BFC EQ PUSH2 0x1BB JUMPI JUMPDEST PUSH1 0x0 DUP1 REVERT JUMPDEST PUSH2 0x150 PUSH1 0x1 SLOAD DUP2 JUMP JUMPDEST PUSH1 0x40 MLOAD SWAP1 DUP2 MSTORE PUSH1 0x20 ADD JUMPDEST PUSH1 0x40 MLOAD DUP1 SWAP2 SUB SWAP1 RETURN JUMPDEST PUSH2 0x176 PUSH2 0x171 CALLDATASIZE PUSH1 0x4 PUSH2 0x1A20 JUMP JUMPDEST PUSH2 0x315 JUMP JUMPDEST STOP JUMPDEST PUSH2 0x150 PUSH2 0x186 CALLDATASIZE PUSH1 0x4 PUSH2 0x1A3D JUMP JUMPDEST PUSH1 0x3 PUSH1 0x20 MSTORE PUSH1 0x0 SWAP1 DUP2 MSTORE PUSH1 0x40 SWAP1 KECCAK256 SLOAD DUP2 JUMP JUMPDEST PUSH2 0x1AB PUSH2 0x1A6 CALLDATASIZE PUSH1 0x4 PUSH2 0x1A9D JUMP JUMPDEST PUSH2 0x35A JUMP JUMPDEST PUSH1 0x40 MLOAD SWAP1 ISZERO ISZERO DUP2 MSTORE PUSH1 0x20 ADD PUSH2 0x15A JUMP JUMPDEST PUSH2 0x150 PUSH7 0x38D7EA4C68005 SLOAD DUP2 JUMP JUMPDEST PUSH2 0x150 PUSH2 0x1D8 CALLDATASIZE PUSH1 0x4 PUSH2 0x1A3D JUMP JUMPDEST PUSH2 0x60B JUMP JUMPDEST PUSH2 0x150 PUSH2 0x1EB CALLDATASIZE PUSH1 0x4 PUSH2 0x1A3D JUMP JUMPDEST PUSH1 0x2 PUSH1 0x20 MSTORE PUSH1 0x0 SWAP1 DUP2 MSTORE PUSH1 0x40 SWAP1 KECCAK256 SLOAD DUP2 JUMP JUMPDEST PUSH2 0x150 PUSH2 0x20B CALLDATASIZE PUSH1 0x4 PUSH2 0x1B43 JUMP JUMPDEST PUSH2 0x872 JUMP JUMPDEST PUSH2 0x150 PUSH1 0x4 SLOAD DUP2 JUMP JUMPDEST PUSH2 0x176 PUSH2 0x9B5 JUMP JUMPDEST PUSH2 0x150 PUSH1 0x0 SLOAD DUP2 JUMP JUMPDEST PUSH7 0x71AFD498D0006 SLOAD PUSH2 0x243 SWAP1 PUSH1 0x1 PUSH1 0x1 PUSH1 0xA0 SHL SUB AND DUP2 JUMP JUMPDEST PUSH1 0x40 MLOAD PUSH1 0x1 PUSH1 0x1 PUSH1 0xA0 SHL SUB SWAP1 SWAP2 AND DUP2 MSTORE PUSH1 0x20 ADD PUSH2 0x15A JUMP JUMPDEST PUSH2 0x176 PUSH2 0x9DF JUMP JUMPDEST PUSH2 0x150 PUSH2 0x9E7 JUMP JUMPDEST PUSH7 0x71AFD498D0009 SLOAD PUSH2 0x243 SWAP1 PUSH1 0x1 PUSH1 0x1 PUSH1 0xA0 SHL SUB AND DUP2 JUMP JUMPDEST PUSH2 0x150 PUSH2 0x292 CALLDATASIZE PUSH1 0x4 PUSH2 0x1A3D JUMP JUMPDEST PUSH2 0xA06 JUMP JUMPDEST PUSH2 0x150 PUSH2 0x2A5 CALLDATASIZE PUSH1 0x4 PUSH2 0x1A3D JUMP JUMPDEST PUSH2 0xA46 JUMP JUMPDEST PUSH7 0x71AFD498D0007 SLOAD PUSH2 0x243 SWAP1 PUSH1 0x1 PUSH1 0x1 PUSH1 0xA0 SHL SUB AND DUP2 JUMP JUMPDEST PUSH2 0x150 PUSH2 0x2D1 CALLDATASIZE PUSH1 0x4 PUSH2 0x1A3D JUMP JUMPDEST PUSH2 0xA69 JUMP JUMPDEST PUSH2 0x176 PUSH2 0x2E4 CALLDATASIZE PUSH1 0x4 PUSH2 0x1A20 JUMP JUMPDEST PUSH2 0xA7F JUMP JUMPDEST PUSH2 0x176 PUSH2 0x2F7 CALLDATASIZE PUSH1 0x4 PUSH2 0x1A20 JUMP JUMPDEST PUSH2 0xAC4 JUMP JUMPDEST PUSH7 0x71AFD498D0008 SLOAD PUSH2 0x243 SWAP1 PUSH1 0x1 PUSH1 0x1 PUSH1 0xA0 SHL SUB AND DUP2 JUMP JUMPDEST PUSH7 0x71AFD498D0006 SLOAD PUSH1 0x1 PUSH1 0x1 PUSH1 0xA0 SHL SUB AND CALLER EQ PUSH2 0x332 JUMPI PUSH1 0x0 DUP1 REVERT JUMPDEST PUSH7 0x71AFD498D0006 DUP1 SLOAD PUSH1 0x1 PUSH1 0x1 PUSH1 0xA0 SHL SUB NOT AND PUSH1 0x1 PUSH1 0x1 PUSH1 0xA0 SHL SUB SWAP3 SWAP1 SWAP3 AND SWAP2 SWAP1 SWAP2 OR SWAP1 SSTORE JUMP JUMPDEST PUSH1 0x0 PUSH1 0x1 SLOAD TIMESTAMP LT PUSH2 0x36D JUMPI PUSH2 0x36D PUSH2 0xBD8 JUMP JUMPDEST PUSH1 0x4 SLOAD PUSH3 0x93A80 PUSH2 0x37E DUP2 DUP4 PUSH2 0x1B7B JUMP JUMPDEST PUSH2 0x388 SWAP2 SWAP1 PUSH2 0x1B9D JUMP JUMPDEST PUSH7 0x71AFD498D0007 SLOAD SWAP1 SWAP2 POP PUSH1 0x1 PUSH1 0x1 PUSH1 0xA0 SHL SUB AND PUSH1 0x0 DUP1 JUMPDEST DUP6 MLOAD DUP2 LT ISZERO PUSH2 0x5DB JUMPI PUSH1 0x0 DUP7 DUP3 DUP2 MLOAD DUP2 LT PUSH2 0x3BE JUMPI PUSH2 0x3BE PUSH2 0x1BBC JUMP JUMPDEST PUSH1 0x20 MUL PUSH1 0x20 ADD ADD MLOAD SWAP1 POP DUP1 PUSH1 0x0 SUB PUSH2 0x3D6 JUMPI POP PUSH2 0x5DB JUMP JUMPDEST PUSH1 0x0 PUSH2 0x3E3 DUP3 DUP7 DUP9 PUSH2 0xD7B JUMP JUMPDEST SWAP1 POP DUP1 ISZERO PUSH2 0x5C6 JUMPI PUSH1 0x40 MLOAD PUSH4 0x5A2D1E07 PUSH1 0xE1 SHL DUP2 MSTORE PUSH1 0x4 DUP2 ADD DUP4 SWAP1 MSTORE PUSH1 0x0 SWAP1 PUSH1 0x1 PUSH1 0x1 PUSH1 0xA0 SHL SUB DUP8 AND SWAP1 PUSH4 0xB45A3C0E SWAP1 PUSH1 0x24 ADD PUSH1 0x40 DUP1 MLOAD DUP1 DUP4 SUB DUP2 DUP7 GAS STATICCALL ISZERO DUP1 ISZERO PUSH2 0x432 JUMPI RETURNDATASIZE PUSH1 0x0 DUP1 RETURNDATACOPY RETURNDATASIZE PUSH1 0x0 REVERT JUMPDEST POP POP POP POP PUSH1 0x40 MLOAD RETURNDATASIZE PUSH1 0x1F NOT PUSH1 0x1F DUP3 ADD AND DUP3 ADD DUP1 PUSH1 0x40 MSTORE POP DUP2 ADD SWAP1 PUSH2 0x456 SWAP2 SWAP1 PUSH2 0x1BE9 JUMP JUMPDEST SWAP1 POP TIMESTAMP DUP2 PUSH1 0x20 ADD MLOAD LT ISZERO PUSH2 0x556 JUMPI PUSH1 0x40 MLOAD PUSH4 0x31A9108F PUSH1 0xE1 SHL DUP2 MSTORE PUSH1 0x4 DUP2 ADD DUP5 SWAP1 MSTORE PUSH1 0x0 SWAP1 PUSH1 0x1 PUSH1 0x1 PUSH1 0xA0 SHL SUB DUP9 AND SWAP1 PUSH4 0x6352211E SWAP1 PUSH1 0x24 ADD PUSH1 0x20 PUSH1 0x40 MLOAD DUP1 DUP4 SUB DUP2 DUP7 GAS STATICCALL ISZERO DUP1 ISZERO PUSH2 0x4AC JUMPI RETURNDATASIZE PUSH1 0x0 DUP1 RETURNDATACOPY RETURNDATASIZE PUSH1 0x0 REVERT JUMPDEST POP POP POP POP PUSH1 0x40 MLOAD RETURNDATASIZE PUSH1 0x1F NOT PUSH1 0x1F DUP3 ADD AND DUP3 ADD DUP1 PUSH1 0x40 MSTORE POP DUP2 ADD SWAP1 PUSH2 0x4D0 SWAP2 SWAP1 PUSH2 0x1C40 JUMP JUMPDEST PUSH7 0x71AFD498D0008 SLOAD PUSH1 0x40 MLOAD PUSH4 0xA9059CBB PUSH1 0xE0 SHL DUP2 MSTORE PUSH1 0x1 PUSH1 0x1 PUSH1 0xA0 SHL SUB DUP1 DUP5 AND PUSH1 0x4 DUP4 ADD MSTORE PUSH1 0x24 DUP3 ADD DUP8 SWAP1 MSTORE SWAP3 SWAP4 POP SWAP2 AND SWAP1 PUSH4 0xA9059CBB SWAP1 PUSH1 0x44 ADD PUSH1 0x20 PUSH1 0x40 MLOAD DUP1 DUP4 SUB DUP2 PUSH1 0x0 DUP8 GAS CALL ISZERO DUP1 ISZERO PUSH2 0x52B JUMPI RETURNDATASIZE PUSH1 0x0 DUP1 RETURNDATACOPY RETURNDATASIZE PUSH1 0x0 REVERT JUMPDEST POP POP POP POP PUSH1 0x40 MLOAD RETURNDATASIZE PUSH1 0x1F NOT PUSH1 0x1F DUP3 ADD AND DUP3 ADD DUP1 PUSH1 0x40 MSTORE POP DUP2 ADD SWAP1 PUSH2 0x54F SWAP2 SWAP1 PUSH2 0x1C5D JUMP JUMPDEST POP POP PUSH2 0x5B8 JUMP JUMPDEST PUSH1 0x40 MLOAD PUSH4 0x1DD33FC5 PUSH1 0xE3 SHL DUP2 MSTORE PUSH1 0x4 DUP2 ADD DUP5 SWAP1 MSTORE PUSH1 0x24 DUP2 ADD DUP4 SWAP1 MSTORE PUSH1 0x1 PUSH1 0x1 PUSH1 0xA0 SHL SUB DUP8 AND SWAP1 PUSH4 0xEE99FE28 SWAP1 PUSH1 0x44 ADD PUSH1 0x0 PUSH1 0x40 MLOAD DUP1 DUP4 SUB DUP2 PUSH1 0x0 DUP8 DUP1 EXTCODESIZE ISZERO DUP1 ISZERO PUSH2 0x59F JUMPI PUSH1 0x0 DUP1 REVERT JUMPDEST POP GAS CALL ISZERO DUP1 ISZERO PUSH2 0x5B3 JUMPI RETURNDATASIZE PUSH1 0x0 DUP1 RETURNDATACOPY RETURNDATASIZE PUSH1 0x0 REVERT JUMPDEST POP POP POP POP JUMPDEST PUSH2 0x5C2 DUP3 DUP7 PUSH2 0x1C7F JUMP JUMPDEST SWAP5 POP POP JUMPDEST POP POP DUP1 DUP1 PUSH2 0x5D3 SWAP1 PUSH2 0x1C97 JUMP JUMPDEST SWAP2 POP POP PUSH2 0x3A1 JUMP JUMPDEST POP DUP1 ISZERO PUSH2 0x600 JUMPI DUP1 PUSH7 0x38D7EA4C68005 PUSH1 0x0 DUP3 DUP3 SLOAD PUSH2 0x5FA SWAP2 SWAP1 PUSH2 0x1CB0 JUMP JUMPDEST SWAP1 SWAP2 SSTORE POP POP JUMPDEST POP PUSH1 0x1 SWAP5 SWAP4 POP POP POP POP JUMP JUMPDEST PUSH1 0x0 PUSH1 0x1 SLOAD TIMESTAMP LT PUSH2 0x61E JUMPI PUSH2 0x61E PUSH2 0xBD8 JUMP JUMPDEST PUSH1 0x4 SLOAD PUSH3 0x93A80 PUSH2 0x62F DUP2 DUP4 PUSH2 0x1B7B JUMP JUMPDEST PUSH2 0x639 SWAP2 SWAP1 PUSH2 0x1B9D JUMP JUMPDEST PUSH7 0x71AFD498D0007 SLOAD SWAP1 SWAP2 POP PUSH1 0x0 SWAP1 PUSH2 0x65D SWAP1 DUP6 SWAP1 PUSH1 0x1 PUSH1 0x1 PUSH1 0xA0 SHL SUB AND DUP5 PUSH2 0xD7B JUMP JUMPDEST SWAP1 POP DUP1 ISZERO PUSH2 0x86B JUMPI PUSH7 0x71AFD498D0007 SLOAD PUSH1 0x40 MLOAD PUSH4 0x5A2D1E07 PUSH1 0xE1 SHL DUP2 MSTORE PUSH1 0x4 DUP2 ADD DUP7 SWAP1 MSTORE PUSH1 0x0 SWAP2 PUSH1 0x1 PUSH1 0x1 PUSH1 0xA0 SHL SUB AND SWAP1 PUSH4 0xB45A3C0E SWAP1 PUSH1 0x24 ADD PUSH1 0x40 DUP1 MLOAD DUP1 DUP4 SUB DUP2 DUP7 GAS STATICCALL ISZERO DUP1 ISZERO PUSH2 0x6B4 JUMPI RETURNDATASIZE PUSH1 0x0 DUP1 RETURNDATACOPY RETURNDATASIZE PUSH1 0x0 REVERT JUMPDEST POP POP POP POP PUSH1 0x40 MLOAD RETURNDATASIZE PUSH1 0x1F NOT PUSH1 0x1F DUP3 ADD AND DUP3 ADD DUP1 PUSH1 0x40 MSTORE POP DUP2 ADD SWAP1 PUSH2 0x6D8 SWAP2 SWAP1 PUSH2 0x1BE9 JUMP JUMPDEST SWAP1 POP TIMESTAMP DUP2 PUSH1 0x20 ADD MLOAD LT ISZERO PUSH2 0x7E0 JUMPI PUSH7 0x71AFD498D0007 SLOAD PUSH1 0x40 MLOAD PUSH4 0x31A9108F PUSH1 0xE1 SHL DUP2 MSTORE PUSH1 0x4 DUP2 ADD DUP8 SWAP1 MSTORE PUSH1 0x0 SWAP2 PUSH1 0x1 PUSH1 0x1 PUSH1 0xA0 SHL SUB AND SWAP1 PUSH4 0x6352211E SWAP1 PUSH1 0x24 ADD PUSH1 0x20 PUSH1 0x40 MLOAD DUP1 DUP4 SUB DUP2 DUP7 GAS STATICCALL ISZERO DUP1 ISZERO PUSH2 0x736 JUMPI RETURNDATASIZE PUSH1 0x0 DUP1 RETURNDATACOPY RETURNDATASIZE PUSH1 0x0 REVERT JUMPDEST POP POP POP POP PUSH1 0x40 MLOAD RETURNDATASIZE PUSH1 0x1F NOT PUSH1 0x1F DUP3 ADD AND DUP3 ADD DUP1 PUSH1 0x40 MSTORE POP DUP2 ADD SWAP1 PUSH2 0x75A SWAP2 SWAP1 PUSH2 0x1C40 JUMP JUMPDEST PUSH7 0x71AFD498D0008 SLOAD PUSH1 0x40 MLOAD PUSH4 0xA9059CBB PUSH1 0xE0 SHL DUP2 MSTORE PUSH1 0x1 PUSH1 0x1 PUSH1 0xA0 SHL SUB DUP1 DUP5 AND PUSH1 0x4 DUP4 ADD MSTORE PUSH1 0x24 DUP3 ADD DUP8 SWAP1 MSTORE SWAP3 SWAP4 POP SWAP2 AND SWAP1 PUSH4 0xA9059CBB SWAP1 PUSH1 0x44 ADD PUSH1 0x20 PUSH1 0x40 MLOAD DUP1 DUP4 SUB DUP2 PUSH1 0x0 DUP8 GAS CALL ISZERO DUP1 ISZERO PUSH2 0x7B5 JUMPI RETURNDATASIZE PUSH1 0x0 DUP1 RETURNDATACOPY RETURNDATASIZE PUSH1 0x0 REVERT JUMPDEST POP POP POP POP PUSH1 0x40 MLOAD RETURNDATASIZE PUSH1 0x1F NOT PUSH1 0x1F DUP3 ADD AND DUP3 ADD DUP1 PUSH1 0x40 MSTORE POP DUP2 ADD SWAP1 PUSH2 0x7D9 SWAP2 SWAP1 PUSH2 0x1C5D JUMP JUMPDEST POP POP PUSH2 0x84C JUMP JUMPDEST PUSH7 0x71AFD498D0007 SLOAD PUSH1 0x40 MLOAD PUSH4 0x1DD33FC5 PUSH1 0xE3 SHL DUP2 MSTORE PUSH1 0x4 DUP2 ADD DUP8 SWAP1 MSTORE PUSH1 0x24 DUP2 ADD DUP5 SWAP1 MSTORE PUSH1 0x1 PUSH1 0x1 PUSH1 0xA0 SHL SUB SWAP1 SWAP2 AND SWAP1 PUSH4 0xEE99FE28 SWAP1 PUSH1 0x44 ADD PUSH1 0x0 PUSH1 0x40 MLOAD DUP1 DUP4 SUB DUP2 PUSH1 0x0 DUP8 DUP1 EXTCODESIZE ISZERO DUP1 ISZERO PUSH2 0x833 JUMPI PUSH1 0x0 DUP1 REVERT JUMPDEST POP GAS CALL ISZERO DUP1 ISZERO PUSH2 0x847 JUMPI RETURNDATASIZE PUSH1 0x0 DUP1 RETURNDATACOPY RETURNDATASIZE PUSH1 0x0 REVERT JUMPDEST POP POP POP POP JUMPDEST DUP2 PUSH7 0x38D7EA4C68005 PUSH1 0x0 DUP3 DUP3 SLOAD PUSH2 0x864 SWAP2 SWAP1 PUSH2 0x1CB0 JUMP JUMPDEST SWAP1 SWAP2 SSTORE POP POP POP JUMPDEST SWAP4 SWAP3 POP POP POP JUMP JUMPDEST PUSH7 0x71AFD498D0007 SLOAD PUSH1 0x40 MLOAD PUSH4 0x391044D7 PUSH1 0xE2 SHL DUP2 MSTORE PUSH1 0x4 DUP2 ADD DUP5 SWAP1 MSTORE PUSH1 0x0 SWAP2 PUSH1 0x1 PUSH1 0x1 PUSH1 0xA0 SHL SUB AND SWAP1 DUP3 SWAP1 DUP3 SWAP1 PUSH4 0xE441135C SWAP1 PUSH1 0x24 ADD PUSH1 0x20 PUSH1 0x40 MLOAD DUP1 DUP4 SUB DUP2 DUP7 GAS STATICCALL ISZERO DUP1 ISZERO PUSH2 0x8C6 JUMPI RETURNDATASIZE PUSH1 0x0 DUP1 RETURNDATACOPY RETURNDATASIZE PUSH1 0x0 REVERT JUMPDEST POP POP POP POP PUSH1 0x40 MLOAD RETURNDATASIZE PUSH1 0x1F NOT PUSH1 0x1F DUP3 ADD AND DUP3 ADD DUP1 PUSH1 0x40 MSTORE POP DUP2 ADD SWAP1 PUSH2 0x8EA SWAP2 SWAP1 PUSH2 0x1CC7 JUMP JUMPDEST SWAP1 POP PUSH1 0x0 PUSH2 0x8FA DUP4 DUP8 DUP8 DUP6 PUSH2 0x119F JUMP JUMPDEST PUSH1 0x40 MLOAD PUSH4 0x9BB79ED PUSH1 0xE1 SHL DUP2 MSTORE PUSH1 0x4 DUP2 ADD DUP9 SWAP1 MSTORE PUSH1 0x24 DUP2 ADD DUP3 SWAP1 MSTORE SWAP1 SWAP2 POP PUSH1 0x0 SWAP1 PUSH1 0x1 PUSH1 0x1 PUSH1 0xA0 SHL SUB DUP6 AND SWAP1 PUSH4 0x1376F3DA SWAP1 PUSH1 0x44 ADD PUSH1 0x80 PUSH1 0x40 MLOAD DUP1 DUP4 SUB DUP2 DUP7 GAS STATICCALL ISZERO DUP1 ISZERO PUSH2 0x94C JUMPI RETURNDATASIZE PUSH1 0x0 DUP1 RETURNDATACOPY RETURNDATASIZE PUSH1 0x0 REVERT JUMPDEST POP POP POP POP PUSH1 0x40 MLOAD RETURNDATASIZE PUSH1 0x1F NOT PUSH1 0x1F DUP3 ADD AND DUP3 ADD DUP1 PUSH1 0x40 MSTORE POP DUP2 ADD SWAP1 PUSH2 0x970 SWAP2 SWAP1 PUSH2 0x1CE0 JUMP JUMPDEST SWAP1 POP PUSH2 0x9AA DUP2 PUSH1 0x40 ADD MLOAD DUP8 PUSH2 0x985 SWAP2 SWAP1 PUSH2 0x1CB0 JUMP JUMPDEST DUP3 PUSH1 0x20 ADD MLOAD PUSH2 0x994 SWAP2 SWAP1 PUSH2 0x1D52 JUMP JUMPDEST DUP3 MLOAD PUSH2 0x9A0 SWAP2 SWAP1 PUSH2 0x1DF0 JUMP JUMPDEST PUSH1 0xF SIGNEXTEND PUSH1 0x0 PUSH2 0x1293 JUMP JUMPDEST SWAP8 SWAP7 POP POP POP POP POP POP POP JUMP JUMPDEST PUSH7 0x71AFD498D0009 SLOAD PUSH1 0x1 PUSH1 0x1 PUSH1 0xA0 SHL SUB AND CALLER EQ PUSH2 0x9D5 JUMPI PUSH2 0x9D5 PUSH2 0x1E40 JUMP JUMPDEST PUSH2 0x9DD PUSH2 0x12AA JUMP JUMPDEST JUMP JUMPDEST PUSH2 0x9DD PUSH2 0xBD8 JUMP JUMPDEST PUSH1 0x0 PUSH3 0x93A80 PUSH2 0x9F7 DUP2 TIMESTAMP PUSH2 0x1B7B JUMP JUMPDEST PUSH2 0xA01 SWAP2 SWAP1 PUSH2 0x1B9D JUMP JUMPDEST SWAP1 POP SWAP1 JUMP JUMPDEST PUSH1 0x0 DUP1 PUSH3 0x93A80 DUP1 PUSH1 0x4 SLOAD PUSH2 0xA1B SWAP2 SWAP1 PUSH2 0x1B7B JUMP JUMPDEST PUSH2 0xA25 SWAP2 SWAP1 PUSH2 0x1B9D JUMP JUMPDEST PUSH7 0x71AFD498D0007 SLOAD SWAP1 SWAP2 POP PUSH2 0x86B SWAP1 DUP5 SWAP1 PUSH1 0x1 PUSH1 0x1 PUSH1 0xA0 SHL SUB AND DUP4 PUSH2 0x1507 JUMP JUMPDEST PUSH7 0x38D7EA4C68006 DUP2 PUSH7 0x38D7EA4C68000 DUP2 LT PUSH2 0xA62 JUMPI PUSH1 0x0 DUP1 REVERT JUMPDEST ADD SLOAD SWAP1 POP DUP2 JUMP JUMPDEST PUSH1 0x5 DUP2 PUSH7 0x38D7EA4C68000 DUP2 LT PUSH2 0xA62 JUMPI PUSH1 0x0 DUP1 REVERT JUMPDEST PUSH7 0x71AFD498D0006 SLOAD PUSH1 0x1 PUSH1 0x1 PUSH1 0xA0 SHL SUB AND CALLER EQ PUSH2 0xA9C JUMPI PUSH1 0x0 DUP1 REVERT JUMPDEST PUSH7 0x71AFD498D0009 DUP1 SLOAD PUSH1 0x1 PUSH1 0x1 PUSH1 0xA0 SHL SUB NOT AND PUSH1 0x1 PUSH1 0x1 PUSH1 0xA0 SHL SUB SWAP3 SWAP1 SWAP3 AND SWAP2 SWAP1 SWAP2 OR SWAP1 SSTORE JUMP JUMPDEST PUSH7 0x71AFD498D0006 SLOAD PUSH1 0x1 PUSH1 0x1 PUSH1 0xA0 SHL SUB AND CALLER EQ PUSH2 0xAE1 JUMPI PUSH1 0x0 DUP1 REVERT JUMPDEST PUSH1 0x1 PUSH1 0x1 PUSH1 0xA0 SHL SUB DUP2 AND PUSH2 0xAF4 JUMPI PUSH1 0x0 DUP1 REVERT JUMPDEST PUSH1 0x40 MLOAD PUSH4 0x70A08231 PUSH1 0xE0 SHL DUP2 MSTORE ADDRESS PUSH1 0x4 DUP3 ADD MSTORE PUSH1 0x0 SWAP1 PUSH1 0x1 PUSH1 0x1 PUSH1 0xA0 SHL SUB DUP4 AND SWAP1 PUSH4 0x70A08231 SWAP1 PUSH1 0x24 ADD PUSH1 0x20 PUSH1 0x40 MLOAD DUP1 DUP4 SUB DUP2 DUP7 GAS STATICCALL ISZERO DUP1 ISZERO PUSH2 0xB3B JUMPI RETURNDATASIZE PUSH1 0x0 DUP1 RETURNDATACOPY RETURNDATASIZE PUSH1 0x0 REVERT JUMPDEST POP POP POP POP PUSH1 0x40 MLOAD RETURNDATASIZE PUSH1 0x1F NOT PUSH1 0x1F DUP3 ADD AND DUP3 ADD DUP1 PUSH1 0x40 MSTORE POP DUP2 ADD SWAP1 PUSH2 0xB5F SWAP2 SWAP1 PUSH2 0x1CC7 JUMP JUMPDEST PUSH1 0x40 MLOAD PUSH4 0xA9059CBB PUSH1 0xE0 SHL DUP2 MSTORE CALLER PUSH1 0x4 DUP3 ADD MSTORE PUSH1 0x24 DUP2 ADD DUP3 SWAP1 MSTORE SWAP1 SWAP2 POP PUSH1 0x1 PUSH1 0x1 PUSH1 0xA0 SHL SUB DUP4 AND SWAP1 PUSH4 0xA9059CBB SWAP1 PUSH1 0x44 ADD PUSH1 0x20 PUSH1 0x40 MLOAD DUP1 DUP4 SUB DUP2 PUSH1 0x0 DUP8 GAS CALL ISZERO DUP1 ISZERO PUSH2 0xBAF JUMPI RETURNDATASIZE PUSH1 0x0 DUP1 RETURNDATACOPY RETURNDATASIZE PUSH1 0x0 REVERT JUMPDEST POP POP POP POP PUSH1 0x40 MLOAD RETURNDATASIZE PUSH1 0x1F NOT PUSH1 0x1F DUP3 ADD AND DUP3 ADD DUP1 PUSH1 0x40 MSTORE POP DUP2 ADD SWAP1 PUSH2 0xBD3 SWAP2 SWAP1 PUSH2 0x1C5D JUMP JUMPDEST POP POP POP JUMP JUMPDEST PUSH7 0x71AFD498D0007 SLOAD PUSH1 0x1 SLOAD PUSH1 0x1 PUSH1 0x1 PUSH1 0xA0 SHL SUB SWAP1 SWAP2 AND SWAP1 PUSH1 0x0 PUSH3 0x93A80 PUSH2 0xC00 DUP2 TIMESTAMP PUSH2 0x1B7B JUMP JUMPDEST PUSH2 0xC0A SWAP2 SWAP1 PUSH2 0x1B9D JUMP JUMPDEST SWAP1 POP DUP3 PUSH1 0x1 PUSH1 0x1 PUSH1 0xA0 SHL SUB AND PUSH4 0xC2C4C5C1 PUSH1 0x40 MLOAD DUP2 PUSH4 0xFFFFFFFF AND PUSH1 0xE0 SHL DUP2 MSTORE PUSH1 0x4 ADD PUSH1 0x0 PUSH1 0x40 MLOAD DUP1 DUP4 SUB DUP2 PUSH1 0x0 DUP8 DUP1 EXTCODESIZE ISZERO DUP1 ISZERO PUSH2 0xC47 JUMPI PUSH1 0x0 DUP1 REVERT JUMPDEST POP GAS CALL ISZERO DUP1 ISZERO PUSH2 0xC5B JUMPI RETURNDATASIZE PUSH1 0x0 DUP1 RETURNDATACOPY RETURNDATASIZE PUSH1 0x0 REVERT JUMPDEST POP POP POP POP PUSH1 0x0 JUMPDEST PUSH1 0x14 DUP2 LT ISZERO PUSH2 0xD73 JUMPI DUP2 DUP4 GT PUSH2 0xD73 JUMPI PUSH1 0x0 PUSH2 0xC7E DUP6 DUP6 PUSH2 0x18A4 JUMP JUMPDEST PUSH1 0x40 MLOAD PUSH4 0xD1FEBFB9 PUSH1 0xE0 SHL DUP2 MSTORE PUSH1 0x4 DUP2 ADD DUP3 SWAP1 MSTORE SWAP1 SWAP2 POP PUSH1 0x0 SWAP1 PUSH1 0x1 PUSH1 0x1 PUSH1 0xA0 SHL SUB DUP8 AND SWAP1 PUSH4 0xD1FEBFB9 SWAP1 PUSH1 0x24 ADD PUSH1 0x80 PUSH1 0x40 MLOAD DUP1 DUP4 SUB DUP2 DUP7 GAS STATICCALL ISZERO DUP1 ISZERO PUSH2 0xCC9 JUMPI RETURNDATASIZE PUSH1 0x0 DUP1 RETURNDATACOPY RETURNDATASIZE PUSH1 0x0 REVERT JUMPDEST POP POP POP POP PUSH1 0x40 MLOAD RETURNDATASIZE PUSH1 0x1F NOT PUSH1 0x1F DUP3 ADD AND DUP3 ADD DUP1 PUSH1 0x40 MSTORE POP DUP2 ADD SWAP1 PUSH2 0xCED SWAP2 SWAP1 PUSH2 0x1CE0 JUMP JUMPDEST SWAP1 POP PUSH1 0x0 DUP2 PUSH1 0x40 ADD MLOAD DUP7 GT ISZERO PUSH2 0xD0F JUMPI PUSH1 0x40 DUP3 ADD MLOAD PUSH2 0xD0C SWAP1 DUP8 PUSH2 0x1CB0 JUMP JUMPDEST SWAP1 POP JUMPDEST PUSH2 0xD2E DUP2 DUP4 PUSH1 0x20 ADD MLOAD PUSH2 0xD22 SWAP2 SWAP1 PUSH2 0x1D52 JUMP JUMPDEST DUP4 MLOAD PUSH2 0x9A0 SWAP2 SWAP1 PUSH2 0x1DF0 JUMP JUMPDEST PUSH7 0x38D7EA4C68006 DUP8 PUSH7 0x38D7EA4C68000 DUP2 LT PUSH2 0xD4D JUMPI PUSH2 0xD4D PUSH2 0x1BBC JUMP JUMPDEST ADD SSTORE POP POP POP PUSH2 0xD5F PUSH3 0x93A80 DUP5 PUSH2 0x1C7F JUMP JUMPDEST SWAP3 POP DUP1 PUSH2 0xD6B DUP2 PUSH2 0x1C97 JUMP JUMPDEST SWAP2 POP POP PUSH2 0xC62 JUMP JUMPDEST POP POP PUSH1 0x1 SSTORE POP JUMP JUMPDEST PUSH1 0x40 MLOAD PUSH4 0x391044D7 PUSH1 0xE2 SHL DUP2 MSTORE PUSH1 0x4 DUP2 ADD DUP5 SWAP1 MSTORE PUSH1 0x0 SWAP1 DUP2 SWAP1 DUP2 SWAP1 DUP2 SWAP1 PUSH1 0x1 PUSH1 0x1 PUSH1 0xA0 SHL SUB DUP8 AND SWAP1 PUSH4 0xE441135C SWAP1 PUSH1 0x24 ADD PUSH1 0x20 PUSH1 0x40 MLOAD DUP1 DUP4 SUB DUP2 DUP7 GAS STATICCALL ISZERO DUP1 ISZERO PUSH2 0xDC9 JUMPI RETURNDATASIZE PUSH1 0x0 DUP1 RETURNDATACOPY RETURNDATASIZE PUSH1 0x0 REVERT JUMPDEST POP POP POP POP PUSH1 0x40 MLOAD RETURNDATASIZE PUSH1 0x1F NOT PUSH1 0x1F DUP3 ADD AND DUP3 ADD DUP1 PUSH1 0x40 MSTORE POP DUP2 ADD SWAP1 PUSH2 0xDED SWAP2 SWAP1 PUSH2 0x1CC7 JUMP JUMPDEST PUSH1 0x0 DUP1 SLOAD SWAP2 SWAP3 POP DUP3 SWAP1 SUB PUSH2 0xE08 JUMPI PUSH1 0x0 SWAP5 POP POP POP POP POP PUSH2 0x86B JUMP JUMPDEST PUSH1 0x0 DUP9 DUP2 MSTORE PUSH1 0x2 PUSH1 0x20 MSTORE PUSH1 0x40 DUP2 KECCAK256 SLOAD SWAP1 DUP2 SWAP1 SUB PUSH2 0xE32 JUMPI PUSH2 0xE2B DUP9 DUP11 DUP5 DUP7 PUSH2 0x119F JUMP JUMPDEST SWAP5 POP PUSH2 0xE44 JUMP JUMPDEST PUSH1 0x0 DUP10 DUP2 MSTORE PUSH1 0x3 PUSH1 0x20 MSTORE PUSH1 0x40 SWAP1 KECCAK256 SLOAD SWAP5 POP JUMPDEST DUP5 PUSH1 0x0 SUB PUSH2 0xE51 JUMPI PUSH1 0x1 SWAP5 POP JUMPDEST PUSH1 0x40 MLOAD PUSH4 0x9BB79ED PUSH1 0xE1 SHL DUP2 MSTORE PUSH1 0x4 DUP2 ADD DUP11 SWAP1 MSTORE PUSH1 0x24 DUP2 ADD DUP7 SWAP1 MSTORE PUSH1 0x0 SWAP1 PUSH1 0x1 PUSH1 0x1 PUSH1 0xA0 SHL SUB DUP11 AND SWAP1 PUSH4 0x1376F3DA SWAP1 PUSH1 0x44 ADD PUSH1 0x80 PUSH1 0x40 MLOAD DUP1 DUP4 SUB DUP2 DUP7 GAS STATICCALL ISZERO DUP1 ISZERO PUSH2 0xEA0 JUMPI RETURNDATASIZE PUSH1 0x0 DUP1 RETURNDATACOPY RETURNDATASIZE PUSH1 0x0 REVERT JUMPDEST POP POP POP POP PUSH1 0x40 MLOAD RETURNDATASIZE PUSH1 0x1F NOT PUSH1 0x1F DUP3 ADD AND DUP3 ADD DUP1 PUSH1 0x40 MSTORE POP DUP2 ADD SWAP1 PUSH2 0xEC4 SWAP2 SWAP1 PUSH2 0x1CE0 JUMP JUMPDEST SWAP1 POP DUP2 PUSH1 0x0 SUB PUSH2 0xF09 JUMPI PUSH3 0x93A80 DUP1 PUSH1 0x1 PUSH3 0x93A80 DUP5 PUSH1 0x40 ADD MLOAD PUSH2 0xEE8 SWAP2 SWAP1 PUSH2 0x1C7F JUMP JUMPDEST PUSH2 0xEF2 SWAP2 SWAP1 PUSH2 0x1CB0 JUMP JUMPDEST PUSH2 0xEFC SWAP2 SWAP1 PUSH2 0x1B7B JUMP JUMPDEST PUSH2 0xF06 SWAP2 SWAP1 PUSH2 0x1B9D JUMP JUMPDEST SWAP2 POP JUMPDEST PUSH1 0x4 SLOAD DUP3 LT PUSH2 0xF21 JUMPI PUSH1 0x0 SWAP7 POP POP POP POP POP POP POP PUSH2 0x86B JUMP JUMPDEST DUP3 DUP3 LT ISZERO PUSH2 0xF2D JUMPI DUP3 SWAP2 POP JUMPDEST PUSH1 0x40 DUP1 MLOAD PUSH1 0x80 DUP2 ADD DUP3 MSTORE PUSH1 0x0 DUP1 DUP3 MSTORE PUSH1 0x20 DUP3 ADD DUP2 SWAP1 MSTORE SWAP2 DUP2 ADD DUP3 SWAP1 MSTORE PUSH1 0x60 DUP2 ADD DUP3 SWAP1 MSTORE SWAP1 JUMPDEST PUSH1 0x32 DUP2 LT ISZERO PUSH2 0x1114 JUMPI DUP10 DUP5 LT ISZERO PUSH2 0x1114 JUMPI DUP3 PUSH1 0x40 ADD MLOAD DUP5 LT ISZERO DUP1 ISZERO PUSH2 0xF77 JUMPI POP DUP6 DUP9 GT ISZERO JUMPDEST ISZERO PUSH2 0x103D JUMPI PUSH2 0xF87 PUSH1 0x1 DUP10 PUSH2 0x1C7F JUMP JUMPDEST SWAP8 POP DUP3 SWAP2 POP DUP6 DUP9 GT ISZERO PUSH2 0xFC6 JUMPI PUSH1 0x40 MLOAD DUP1 PUSH1 0x80 ADD PUSH1 0x40 MSTORE DUP1 PUSH1 0x0 PUSH1 0xF SIGNEXTEND DUP2 MSTORE PUSH1 0x20 ADD PUSH1 0x0 PUSH1 0xF SIGNEXTEND DUP2 MSTORE PUSH1 0x20 ADD PUSH1 0x0 DUP2 MSTORE PUSH1 0x20 ADD PUSH1 0x0 DUP2 MSTORE POP SWAP3 POP PUSH2 0x1102 JUMP JUMPDEST PUSH1 0x40 MLOAD PUSH4 0x9BB79ED PUSH1 0xE1 SHL DUP2 MSTORE PUSH1 0x4 DUP2 ADD DUP14 SWAP1 MSTORE PUSH1 0x24 DUP2 ADD DUP10 SWAP1 MSTORE PUSH1 0x1 PUSH1 0x1 PUSH1 0xA0 SHL SUB DUP13 AND SWAP1 PUSH4 0x1376F3DA SWAP1 PUSH1 0x44 ADD PUSH1 0x80 PUSH1 0x40 MLOAD DUP1 DUP4 SUB DUP2 DUP7 GAS STATICCALL ISZERO DUP1 ISZERO PUSH2 0x1012 JUMPI RETURNDATASIZE PUSH1 0x0 DUP1 RETURNDATACOPY RETURNDATASIZE PUSH1 0x0 REVERT JUMPDEST POP POP POP POP PUSH1 0x40 MLOAD RETURNDATASIZE PUSH1 0x1F NOT PUSH1 0x1F DUP3 ADD AND DUP3 ADD DUP1 PUSH1 0x40 MSTORE POP DUP2 ADD SWAP1 PUSH2 0x1036 SWAP2 SWAP1 PUSH2 0x1CE0 JUMP JUMPDEST SWAP3 POP PUSH2 0x1102 JUMP JUMPDEST PUSH1 0x0 DUP3 PUSH1 0x40 ADD MLOAD DUP6 PUSH2 0x104F SWAP2 SWAP1 PUSH2 0x1CB0 JUMP JUMPDEST SWAP1 POP PUSH1 0x0 PUSH2 0x1072 DUP5 PUSH1 0x20 ADD MLOAD DUP4 PUSH2 0x1066 SWAP2 SWAP1 PUSH2 0x1D52 JUMP JUMPDEST DUP6 MLOAD PUSH2 0x9A0 SWAP2 SWAP1 PUSH2 0x1DF0 JUMP JUMPDEST SWAP1 POP DUP1 ISZERO DUP1 ISZERO PUSH2 0x1081 JUMPI POP DUP8 DUP11 GT JUMPDEST ISZERO PUSH2 0x108D JUMPI POP POP PUSH2 0x1114 JUMP JUMPDEST DUP1 ISZERO PUSH2 0x10F0 JUMPI PUSH7 0x38D7EA4C68006 DUP7 PUSH7 0x38D7EA4C68000 DUP2 LT PUSH2 0x10B2 JUMPI PUSH2 0x10B2 PUSH2 0x1BBC JUMP JUMPDEST ADD SLOAD PUSH1 0x5 DUP8 PUSH7 0x38D7EA4C68000 DUP2 LT PUSH2 0x10CD JUMPI PUSH2 0x10CD PUSH2 0x1BBC JUMP JUMPDEST ADD SLOAD PUSH2 0x10D9 SWAP1 DUP4 PUSH2 0x1B9D JUMP JUMPDEST PUSH2 0x10E3 SWAP2 SWAP1 PUSH2 0x1B7B JUMP JUMPDEST PUSH2 0x10ED SWAP1 DUP11 PUSH2 0x1C7F JUMP JUMPDEST SWAP9 POP JUMPDEST PUSH2 0x10FD PUSH3 0x93A80 DUP8 PUSH2 0x1C7F JUMP JUMPDEST SWAP6 POP POP POP JUMPDEST DUP1 PUSH2 0x110C DUP2 PUSH2 0x1C97 JUMP JUMPDEST SWAP2 POP POP PUSH2 0xF52 JUMP JUMPDEST POP PUSH2 0x1129 DUP6 PUSH2 0x1124 PUSH1 0x1 DUP11 PUSH2 0x1CB0 JUMP JUMPDEST PUSH2 0x19F9 JUMP JUMPDEST PUSH1 0x0 DUP13 DUP2 MSTORE PUSH1 0x3 PUSH1 0x20 SWAP1 DUP2 MSTORE PUSH1 0x40 DUP1 DUP4 KECCAK256 DUP5 SWAP1 SSTORE PUSH1 0x2 DUP3 MSTORE SWAP2 DUP3 SWAP1 KECCAK256 DUP7 SWAP1 SSTORE DUP2 MLOAD DUP15 DUP2 MSTORE SWAP1 DUP2 ADD DUP10 SWAP1 MSTORE SWAP1 DUP2 ADD DUP3 SWAP1 MSTORE PUSH1 0x60 DUP2 ADD DUP8 SWAP1 MSTORE SWAP1 SWAP8 POP PUSH32 0xCAE2990AA9AF8EB1C64713B7EDDB3A80BF18E49A94A13FE0D0002B5D61D58F00 SWAP1 PUSH1 0x80 ADD PUSH1 0x40 MLOAD DUP1 SWAP2 SUB SWAP1 LOG1 POP SWAP4 SWAP10 SWAP9 POP POP POP POP POP POP POP POP POP JUMP JUMPDEST PUSH1 0x0 DUP1 DUP3 DUP2 JUMPDEST PUSH1 0x80 DUP2 LT ISZERO PUSH2 0x1287 JUMPI DUP2 DUP4 LT ISZERO PUSH2 0x1287 JUMPI PUSH1 0x0 PUSH1 0x2 PUSH2 0x11C4 DUP5 DUP7 PUSH2 0x1C7F JUMP JUMPDEST PUSH2 0x11CF SWAP1 PUSH1 0x2 PUSH2 0x1C7F JUMP JUMPDEST PUSH2 0x11D9 SWAP2 SWAP1 PUSH2 0x1B7B JUMP JUMPDEST PUSH1 0x40 MLOAD PUSH4 0x9BB79ED PUSH1 0xE1 SHL DUP2 MSTORE PUSH1 0x4 DUP2 ADD DUP11 SWAP1 MSTORE PUSH1 0x24 DUP2 ADD DUP3 SWAP1 MSTORE SWAP1 SWAP2 POP PUSH1 0x0 SWAP1 PUSH1 0x1 PUSH1 0x1 PUSH1 0xA0 SHL SUB DUP12 AND SWAP1 PUSH4 0x1376F3DA SWAP1 PUSH1 0x44 ADD PUSH1 0x80 PUSH1 0x40 MLOAD DUP1 DUP4 SUB DUP2 DUP7 GAS STATICCALL ISZERO DUP1 ISZERO PUSH2 0x122B JUMPI RETURNDATASIZE PUSH1 0x0 DUP1 RETURNDATACOPY RETURNDATASIZE PUSH1 0x0 REVERT JUMPDEST POP POP POP POP PUSH1 0x40 MLOAD RETURNDATASIZE PUSH1 0x1F NOT PUSH1 0x1F DUP3 ADD AND DUP3 ADD DUP1 PUSH1 0x40 MSTORE POP DUP2 ADD SWAP1 PUSH2 0x124F SWAP2 SWAP1 PUSH2 0x1CE0 JUMP JUMPDEST SWAP1 POP DUP8 DUP2 PUSH1 0x40 ADD MLOAD GT PUSH2 0x1264 JUMPI DUP2 SWAP5 POP PUSH2 0x1272 JUMP JUMPDEST PUSH2 0x126F PUSH1 0x1 DUP4 PUSH2 0x1CB0 JUMP JUMPDEST SWAP4 POP JUMPDEST POP POP DUP1 DUP1 PUSH2 0x127F SWAP1 PUSH2 0x1C97 JUMP JUMPDEST SWAP2 POP POP PUSH2 0x11A5 JUMP JUMPDEST POP SWAP1 SWAP7 SWAP6 POP POP POP POP POP POP JUMP JUMPDEST PUSH1 0x0 DUP2 DUP4 LT ISZERO PUSH2 0x12A3 JUMPI DUP2 PUSH2 0x86B JUMP JUMPDEST POP SWAP1 SWAP2 SWAP1 POP JUMP JUMPDEST PUSH7 0x71AFD498D0008 SLOAD PUSH1 0x40 MLOAD PUSH4 0x70A08231 PUSH1 0xE0 SHL DUP2 MSTORE ADDRESS PUSH1 0x4 DUP3 ADD MSTORE PUSH1 0x0 SWAP2 PUSH1 0x1 PUSH1 0x1 PUSH1 0xA0 SHL SUB AND SWAP1 PUSH4 0x70A08231 SWAP1 PUSH1 0x24 ADD PUSH1 0x20 PUSH1 0x40 MLOAD DUP1 DUP4 SUB DUP2 DUP7 GAS STATICCALL ISZERO DUP1 ISZERO PUSH2 0x12F9 JUMPI RETURNDATASIZE PUSH1 0x0 DUP1 RETURNDATACOPY RETURNDATASIZE PUSH1 0x0 REVERT JUMPDEST POP POP POP POP PUSH1 0x40 MLOAD RETURNDATASIZE PUSH1 0x1F NOT PUSH1 0x1F DUP3 ADD AND DUP3 ADD DUP1 PUSH1 0x40 MSTORE POP DUP2 ADD SWAP1 PUSH2 0x131D SWAP2 SWAP1 PUSH2 0x1CC7 JUMP JUMPDEST SWAP1 POP PUSH1 0x0 PUSH7 0x38D7EA4C68005 SLOAD DUP3 PUSH2 0x1335 SWAP2 SWAP1 PUSH2 0x1CB0 JUMP JUMPDEST PUSH7 0x38D7EA4C68005 DUP4 SWAP1 SSTORE PUSH1 0x4 SLOAD SWAP1 SWAP2 POP PUSH1 0x0 PUSH2 0x1352 DUP3 TIMESTAMP PUSH2 0x1CB0 JUMP JUMPDEST TIMESTAMP PUSH1 0x4 SSTORE SWAP1 POP PUSH1 0x0 PUSH3 0x93A80 PUSH2 0x1368 DUP2 DUP6 PUSH2 0x1B7B JUMP JUMPDEST PUSH2 0x1372 SWAP2 SWAP1 PUSH2 0x1B9D JUMP JUMPDEST SWAP1 POP PUSH1 0x0 DUP1 JUMPDEST PUSH1 0x14 DUP2 LT ISZERO PUSH2 0x14C5 JUMPI PUSH2 0x138E PUSH3 0x93A80 DUP5 PUSH2 0x1C7F JUMP JUMPDEST SWAP2 POP DUP2 TIMESTAMP LT ISZERO PUSH2 0x1417 JUMPI DUP4 ISZERO DUP1 ISZERO PUSH2 0x13A5 JUMPI POP DUP5 TIMESTAMP EQ JUMPDEST ISZERO PUSH2 0x13DF JUMPI DUP6 PUSH1 0x5 DUP5 PUSH7 0x38D7EA4C68000 DUP2 LT PUSH2 0x13C4 JUMPI PUSH2 0x13C4 PUSH2 0x1BBC JUMP JUMPDEST ADD PUSH1 0x0 DUP3 DUP3 SLOAD PUSH2 0x13D4 SWAP2 SWAP1 PUSH2 0x1C7F JUMP JUMPDEST SWAP1 SWAP2 SSTORE POP PUSH2 0x14C5 SWAP1 POP JUMP JUMPDEST DUP4 PUSH2 0x13EA DUP7 TIMESTAMP PUSH2 0x1CB0 JUMP JUMPDEST PUSH2 0x13F4 SWAP1 DUP9 PUSH2 0x1B9D JUMP JUMPDEST PUSH2 0x13FE SWAP2 SWAP1 PUSH2 0x1B7B JUMP JUMPDEST PUSH1 0x5 DUP5 PUSH7 0x38D7EA4C68000 DUP2 LT PUSH2 0x13C4 JUMPI PUSH2 0x13C4 PUSH2 0x1BBC JUMP JUMPDEST DUP4 ISZERO DUP1 ISZERO PUSH2 0x1424 JUMPI POP DUP5 DUP3 EQ JUMPDEST ISZERO PUSH2 0x145E JUMPI DUP6 PUSH1 0x5 DUP5 PUSH7 0x38D7EA4C68000 DUP2 LT PUSH2 0x1443 JUMPI PUSH2 0x1443 PUSH2 0x1BBC JUMP JUMPDEST ADD PUSH1 0x0 DUP3 DUP3 SLOAD PUSH2 0x1453 SWAP2 SWAP1 PUSH2 0x1C7F JUMP JUMPDEST SWAP1 SWAP2 SSTORE POP PUSH2 0x14AC SWAP1 POP JUMP JUMPDEST DUP4 PUSH2 0x1469 DUP7 DUP5 PUSH2 0x1CB0 JUMP JUMPDEST PUSH2 0x1473 SWAP1 DUP9 PUSH2 0x1B9D JUMP JUMPDEST PUSH2 0x147D SWAP2 SWAP1 PUSH2 0x1B7B JUMP JUMPDEST PUSH1 0x5 DUP5 PUSH7 0x38D7EA4C68000 DUP2 LT PUSH2 0x1496 JUMPI PUSH2 0x1496 PUSH2 0x1BBC JUMP JUMPDEST ADD PUSH1 0x0 DUP3 DUP3 SLOAD PUSH2 0x14A6 SWAP2 SWAP1 PUSH2 0x1C7F JUMP JUMPDEST SWAP1 SWAP2 SSTORE POP POP JUMPDEST DUP2 SWAP5 POP DUP2 SWAP3 POP DUP1 DUP1 PUSH2 0x14BD SWAP1 PUSH2 0x1C97 JUMP JUMPDEST SWAP2 POP POP PUSH2 0x1378 JUMP JUMPDEST POP PUSH1 0x40 DUP1 MLOAD TIMESTAMP DUP2 MSTORE PUSH1 0x20 DUP2 ADD DUP8 SWAP1 MSTORE PUSH32 0xCE749457B74E10F393F2C6B1CE4261B78791376DB5A3F501477A809F03F500D6 SWAP2 ADD PUSH1 0x40 MLOAD DUP1 SWAP2 SUB SWAP1 LOG1 POP POP POP POP POP POP JUMP JUMPDEST PUSH1 0x40 MLOAD PUSH4 0x391044D7 PUSH1 0xE2 SHL DUP2 MSTORE PUSH1 0x4 DUP2 ADD DUP5 SWAP1 MSTORE PUSH1 0x0 SWAP1 DUP2 SWAP1 DUP2 SWAP1 DUP2 SWAP1 PUSH1 0x1 PUSH1 0x1 PUSH1 0xA0 SHL SUB DUP8 AND SWAP1 PUSH4 0xE441135C SWAP1 PUSH1 0x24 ADD PUSH1 0x20 PUSH1 0x40 MLOAD DUP1 DUP4 SUB DUP2 DUP7 GAS STATICCALL ISZERO DUP1 ISZERO PUSH2 0x1555 JUMPI RETURNDATASIZE PUSH1 0x0 DUP1 RETURNDATACOPY RETURNDATASIZE PUSH1 0x0 REVERT JUMPDEST POP POP POP POP PUSH1 0x40 MLOAD RETURNDATASIZE PUSH1 0x1F NOT PUSH1 0x1F DUP3 ADD AND DUP3 ADD DUP1 PUSH1 0x40 MSTORE POP DUP2 ADD SWAP1 PUSH2 0x1579 SWAP2 SWAP1 PUSH2 0x1CC7 JUMP JUMPDEST PUSH1 0x0 DUP1 SLOAD SWAP2 SWAP3 POP DUP3 SWAP1 SUB PUSH2 0x1594 JUMPI PUSH1 0x0 SWAP5 POP POP POP POP POP PUSH2 0x86B JUMP JUMPDEST PUSH1 0x0 DUP9 DUP2 MSTORE PUSH1 0x2 PUSH1 0x20 MSTORE PUSH1 0x40 DUP2 KECCAK256 SLOAD SWAP1 DUP2 SWAP1 SUB PUSH2 0x15BE JUMPI PUSH2 0x15B7 DUP9 DUP11 DUP5 DUP7 PUSH2 0x119F JUMP JUMPDEST SWAP5 POP PUSH2 0x15D0 JUMP JUMPDEST PUSH1 0x0 DUP10 DUP2 MSTORE PUSH1 0x3 PUSH1 0x20 MSTORE PUSH1 0x40 SWAP1 KECCAK256 SLOAD SWAP5 POP JUMPDEST DUP5 PUSH1 0x0 SUB PUSH2 0x15DD JUMPI PUSH1 0x1 SWAP5 POP JUMPDEST PUSH1 0x40 MLOAD PUSH4 0x9BB79ED PUSH1 0xE1 SHL DUP2 MSTORE PUSH1 0x4 DUP2 ADD DUP11 SWAP1 MSTORE PUSH1 0x24 DUP2 ADD DUP7 SWAP1 MSTORE PUSH1 0x0 SWAP1 PUSH1 0x1 PUSH1 0x1 PUSH1 0xA0 SHL SUB DUP11 AND SWAP1 PUSH4 0x1376F3DA SWAP1 PUSH1 0x44 ADD PUSH1 0x80 PUSH1 0x40 MLOAD DUP1 DUP4 SUB DUP2 DUP7 GAS STATICCALL ISZERO DUP1 ISZERO PUSH2 0x162C JUMPI RETURNDATASIZE PUSH1 0x0 DUP1 RETURNDATACOPY RETURNDATASIZE PUSH1 0x0 REVERT JUMPDEST POP POP POP POP PUSH1 0x40 MLOAD RETURNDATASIZE PUSH1 0x1F NOT PUSH1 0x1F DUP3 ADD AND DUP3 ADD DUP1 PUSH1 0x40 MSTORE POP DUP2 ADD SWAP1 PUSH2 0x1650 SWAP2 SWAP1 PUSH2 0x1CE0 JUMP JUMPDEST SWAP1 POP DUP2 PUSH1 0x0 SUB PUSH2 0x1695 JUMPI PUSH3 0x93A80 DUP1 PUSH1 0x1 PUSH3 0x93A80 DUP5 PUSH1 0x40 ADD MLOAD PUSH2 0x1674 SWAP2 SWAP1 PUSH2 0x1C7F JUMP JUMPDEST PUSH2 0x167E SWAP2 SWAP1 PUSH2 0x1CB0 JUMP JUMPDEST PUSH2 0x1688 SWAP2 SWAP1 PUSH2 0x1B7B JUMP JUMPDEST PUSH2 0x1692 SWAP2 SWAP1 PUSH2 0x1B9D JUMP JUMPDEST SWAP2 POP JUMPDEST PUSH1 0x4 SLOAD DUP3 LT PUSH2 0x16AD JUMPI PUSH1 0x0 SWAP7 POP POP POP POP POP POP POP PUSH2 0x86B JUMP JUMPDEST DUP3 DUP3 LT ISZERO PUSH2 0x16B9 JUMPI DUP3 SWAP2 POP JUMPDEST PUSH1 0x40 DUP1 MLOAD PUSH1 0x80 DUP2 ADD DUP3 MSTORE PUSH1 0x0 DUP1 DUP3 MSTORE PUSH1 0x20 DUP3 ADD DUP2 SWAP1 MSTORE SWAP2 DUP2 ADD DUP3 SWAP1 MSTORE PUSH1 0x60 DUP2 ADD DUP3 SWAP1 MSTORE SWAP1 JUMPDEST PUSH1 0x32 DUP2 LT ISZERO PUSH2 0x1894 JUMPI DUP10 DUP5 LT ISZERO PUSH2 0x1894 JUMPI DUP3 PUSH1 0x40 ADD MLOAD DUP5 LT ISZERO DUP1 ISZERO PUSH2 0x1703 JUMPI POP DUP6 DUP9 GT ISZERO JUMPDEST ISZERO PUSH2 0x17C9 JUMPI PUSH2 0x1713 PUSH1 0x1 DUP10 PUSH2 0x1C7F JUMP JUMPDEST SWAP8 POP DUP3 SWAP2 POP DUP6 DUP9 GT ISZERO PUSH2 0x1752 JUMPI PUSH1 0x40 MLOAD DUP1 PUSH1 0x80 ADD PUSH1 0x40 MSTORE DUP1 PUSH1 0x0 PUSH1 0xF SIGNEXTEND DUP2 MSTORE PUSH1 0x20 ADD PUSH1 0x0 PUSH1 0xF SIGNEXTEND DUP2 MSTORE PUSH1 0x20 ADD PUSH1 0x0 DUP2 MSTORE PUSH1 0x20 ADD PUSH1 0x0 DUP2 MSTORE POP SWAP3 POP PUSH2 0x1882 JUMP JUMPDEST PUSH1 0x40 MLOAD PUSH4 0x9BB79ED PUSH1 0xE1 SHL DUP2 MSTORE PUSH1 0x4 DUP2 ADD DUP14 SWAP1 MSTORE PUSH1 0x24 DUP2 ADD DUP10 SWAP1 MSTORE PUSH1 0x1 PUSH1 0x1 PUSH1 0xA0 SHL SUB DUP13 AND SWAP1 PUSH4 0x1376F3DA SWAP1 PUSH1 0x44 ADD PUSH1 0x80 PUSH1 0x40 MLOAD DUP1 DUP4 SUB DUP2 DUP7 GAS STATICCALL ISZERO DUP1 ISZERO PUSH2 0x179E JUMPI RETURNDATASIZE PUSH1 0x0 DUP1 RETURNDATACOPY RETURNDATASIZE PUSH1 0x0 REVERT JUMPDEST POP POP POP POP PUSH1 0x40 MLOAD RETURNDATASIZE PUSH1 0x1F NOT PUSH1 0x1F DUP3 ADD AND DUP3 ADD DUP1 PUSH1 0x40 MSTORE POP DUP2 ADD SWAP1 PUSH2 0x17C2 SWAP2 SWAP1 PUSH2 0x1CE0 JUMP JUMPDEST SWAP3 POP PUSH2 0x1882 JUMP JUMPDEST PUSH1 0x0 DUP3 PUSH1 0x40 ADD MLOAD DUP6 PUSH2 0x17DB SWAP2 SWAP1 PUSH2 0x1CB0 JUMP JUMPDEST SWAP1 POP PUSH1 0x0 PUSH2 0x17F2 DUP5 PUSH1 0x20 ADD MLOAD DUP4 PUSH2 0x1066 SWAP2 SWAP1 PUSH2 0x1D52 JUMP JUMPDEST SWAP1 POP DUP1 ISZERO DUP1 ISZERO PUSH2 0x1801 JUMPI POP DUP8 DUP11 GT JUMPDEST ISZERO PUSH2 0x180D JUMPI POP POP PUSH2 0x1894 JUMP JUMPDEST DUP1 ISZERO PUSH2 0x1870 JUMPI PUSH7 0x38D7EA4C68006 DUP7 PUSH7 0x38D7EA4C68000 DUP2 LT PUSH2 0x1832 JUMPI PUSH2 0x1832 PUSH2 0x1BBC JUMP JUMPDEST ADD SLOAD PUSH1 0x5 DUP8 PUSH7 0x38D7EA4C68000 DUP2 LT PUSH2 0x184D JUMPI PUSH2 0x184D PUSH2 0x1BBC JUMP JUMPDEST ADD SLOAD PUSH2 0x1859 SWAP1 DUP4 PUSH2 0x1B9D JUMP JUMPDEST PUSH2 0x1863 SWAP2 SWAP1 PUSH2 0x1B7B JUMP JUMPDEST PUSH2 0x186D SWAP1 DUP11 PUSH2 0x1C7F JUMP JUMPDEST SWAP9 POP JUMPDEST PUSH2 0x187D PUSH3 0x93A80 DUP8 PUSH2 0x1C7F JUMP JUMPDEST SWAP6 POP POP POP JUMPDEST DUP1 PUSH2 0x188C DUP2 PUSH2 0x1C97 JUMP JUMPDEST SWAP2 POP POP PUSH2 0x16DE JUMP JUMPDEST POP SWAP5 SWAP11 SWAP10 POP POP POP POP POP POP POP POP POP POP JUMP JUMPDEST PUSH1 0x0 DUP1 PUSH1 0x0 SWAP1 POP PUSH1 0x0 DUP5 PUSH1 0x1 PUSH1 0x1 PUSH1 0xA0 SHL SUB AND PUSH4 0x900CF0CF PUSH1 0x40 MLOAD DUP2 PUSH4 0xFFFFFFFF AND PUSH1 0xE0 SHL DUP2 MSTORE PUSH1 0x4 ADD PUSH1 0x20 PUSH1 0x40 MLOAD DUP1 DUP4 SUB DUP2 DUP7 GAS STATICCALL ISZERO DUP1 ISZERO PUSH2 0x18EB JUMPI RETURNDATASIZE PUSH1 0x0 DUP1 RETURNDATACOPY RETURNDATASIZE PUSH1 0x0 REVERT JUMPDEST POP POP POP POP PUSH1 0x40 MLOAD RETURNDATASIZE PUSH1 0x1F NOT PUSH1 0x1F DUP3 ADD AND DUP3 ADD DUP1 PUSH1 0x40 MSTORE POP DUP2 ADD SWAP1 PUSH2 0x190F SWAP2 SWAP1 PUSH2 0x1CC7 JUMP JUMPDEST SWAP1 POP PUSH1 0x0 JUMPDEST PUSH1 0x80 DUP2 LT ISZERO PUSH2 0x19EF JUMPI DUP2 DUP4 LT ISZERO PUSH2 0x19EF JUMPI PUSH1 0x0 PUSH1 0x2 PUSH2 0x1933 DUP5 DUP7 PUSH2 0x1C7F JUMP JUMPDEST PUSH2 0x193E SWAP1 PUSH1 0x2 PUSH2 0x1C7F JUMP JUMPDEST PUSH2 0x1948 SWAP2 SWAP1 PUSH2 0x1B7B JUMP JUMPDEST PUSH1 0x40 MLOAD PUSH4 0xD1FEBFB9 PUSH1 0xE0 SHL DUP2 MSTORE PUSH1 0x4 DUP2 ADD DUP3 SWAP1 MSTORE SWAP1 SWAP2 POP PUSH1 0x0 SWAP1 PUSH1 0x1 PUSH1 0x1 PUSH1 0xA0 SHL SUB DUP10 AND SWAP1 PUSH4 0xD1FEBFB9 SWAP1 PUSH1 0x24 ADD PUSH1 0x80 PUSH1 0x40 MLOAD DUP1 DUP4 SUB DUP2 DUP7 GAS STATICCALL ISZERO DUP1 ISZERO PUSH2 0x1993 JUMPI RETURNDATASIZE PUSH1 0x0 DUP1 RETURNDATACOPY RETURNDATASIZE PUSH1 0x0 REVERT JUMPDEST POP POP POP POP PUSH1 0x40 MLOAD RETURNDATASIZE PUSH1 0x1F NOT PUSH1 0x1F DUP3 ADD AND DUP3 ADD DUP1 PUSH1 0x40 MSTORE POP DUP2 ADD SWAP1 PUSH2 0x19B7 SWAP2 SWAP1 PUSH2 0x1CE0 JUMP JUMPDEST SWAP1 POP DUP7 DUP2 PUSH1 0x40 ADD MLOAD GT PUSH2 0x19CC JUMPI DUP2 SWAP5 POP PUSH2 0x19DA JUMP JUMPDEST PUSH2 0x19D7 PUSH1 0x1 DUP4 PUSH2 0x1CB0 JUMP JUMPDEST SWAP4 POP JUMPDEST POP POP DUP1 DUP1 PUSH2 0x19E7 SWAP1 PUSH2 0x1C97 JUMP JUMPDEST SWAP2 POP POP PUSH2 0x1914 JUMP JUMPDEST POP SWAP1 SWAP5 SWAP4 POP POP POP POP JUMP JUMPDEST PUSH1 0x0 DUP2 DUP4 LT PUSH2 0x12A3 JUMPI DUP2 PUSH2 0x86B JUMP JUMPDEST PUSH1 0x1 PUSH1 0x1 PUSH1 0xA0 SHL SUB DUP2 AND DUP2 EQ PUSH2 0x1A1D JUMPI PUSH1 0x0 DUP1 REVERT JUMPDEST POP JUMP JUMPDEST PUSH1 0x0 PUSH1 0x20 DUP3 DUP5 SUB SLT ISZERO PUSH2 0x1A32 JUMPI PUSH1 0x0 DUP1 REVERT JUMPDEST DUP2 CALLDATALOAD PUSH2 0x86B DUP2 PUSH2 0x1A08 JUMP JUMPDEST PUSH1 0x0 PUSH1 0x20 DUP3 DUP5 SUB SLT ISZERO PUSH2 0x1A4F JUMPI PUSH1 0x0 DUP1 REVERT JUMPDEST POP CALLDATALOAD SWAP2 SWAP1 POP JUMP JUMPDEST PUSH4 0x4E487B71 PUSH1 0xE0 SHL PUSH1 0x0 MSTORE PUSH1 0x41 PUSH1 0x4 MSTORE PUSH1 0x24 PUSH1 0x0 REVERT JUMPDEST PUSH1 0x40 MLOAD PUSH1 0x1F DUP3 ADD PUSH1 0x1F NOT AND DUP2 ADD PUSH8 0xFFFFFFFFFFFFFFFF DUP2 GT DUP3 DUP3 LT OR ISZERO PUSH2 0x1A95 JUMPI PUSH2 0x1A95 PUSH2 0x1A56 JUMP JUMPDEST PUSH1 0x40 MSTORE SWAP2 SWAP1 POP JUMP JUMPDEST PUSH1 0x0 PUSH1 0x20 DUP1 DUP4 DUP6 SUB SLT ISZERO PUSH2 0x1AB0 JUMPI PUSH1 0x0 DUP1 REVERT JUMPDEST DUP3 CALLDATALOAD PUSH8 0xFFFFFFFFFFFFFFFF DUP1 DUP3 GT ISZERO PUSH2 0x1AC8 JUMPI PUSH1 0x0 DUP1 REVERT JUMPDEST DUP2 DUP6 ADD SWAP2 POP DUP6 PUSH1 0x1F DUP4 ADD SLT PUSH2 0x1ADC JUMPI PUSH1 0x0 DUP1 REVERT JUMPDEST DUP2 CALLDATALOAD DUP2 DUP2 GT ISZERO PUSH2 0x1AEE JUMPI PUSH2 0x1AEE PUSH2 0x1A56 JUMP JUMPDEST DUP1 PUSH1 0x5 SHL SWAP2 POP PUSH2 0x1AFF DUP5 DUP4 ADD PUSH2 0x1A6C JUMP JUMPDEST DUP2 DUP2 MSTORE SWAP2 DUP4 ADD DUP5 ADD SWAP2 DUP5 DUP2 ADD SWAP1 DUP9 DUP5 GT ISZERO PUSH2 0x1B19 JUMPI PUSH1 0x0 DUP1 REVERT JUMPDEST SWAP4 DUP6 ADD SWAP4 JUMPDEST DUP4 DUP6 LT ISZERO PUSH2 0x1B37 JUMPI DUP5 CALLDATALOAD DUP3 MSTORE SWAP4 DUP6 ADD SWAP4 SWAP1 DUP6 ADD SWAP1 PUSH2 0x1B1E JUMP JUMPDEST SWAP9 SWAP8 POP POP POP POP POP POP POP POP JUMP JUMPDEST PUSH1 0x0 DUP1 PUSH1 0x40 DUP4 DUP6 SUB SLT ISZERO PUSH2 0x1B56 JUMPI PUSH1 0x0 DUP1 REVERT JUMPDEST POP POP DUP1 CALLDATALOAD SWAP3 PUSH1 0x20 SWAP1 SWAP2 ADD CALLDATALOAD SWAP2 POP JUMP JUMPDEST PUSH4 0x4E487B71 PUSH1 0xE0 SHL PUSH1 0x0 MSTORE PUSH1 0x11 PUSH1 0x4 MSTORE PUSH1 0x24 PUSH1 0x0 REVERT JUMPDEST PUSH1 0x0 DUP3 PUSH2 0x1B98 JUMPI PUSH4 0x4E487B71 PUSH1 0xE0 SHL PUSH1 0x0 MSTORE PUSH1 0x12 PUSH1 0x4 MSTORE PUSH1 0x24 PUSH1 0x0 REVERT JUMPDEST POP DIV SWAP1 JUMP JUMPDEST PUSH1 0x0 DUP2 PUSH1 0x0 NOT DIV DUP4 GT DUP3 ISZERO ISZERO AND ISZERO PUSH2 0x1BB7 JUMPI PUSH2 0x1BB7 PUSH2 0x1B65 JUMP JUMPDEST POP MUL SWAP1 JUMP JUMPDEST PUSH4 0x4E487B71 PUSH1 0xE0 SHL PUSH1 0x0 MSTORE PUSH1 0x32 PUSH1 0x4 MSTORE PUSH1 0x24 PUSH1 0x0 REVERT JUMPDEST DUP1 MLOAD PUSH1 0xF DUP2 SWAP1 SIGNEXTEND DUP2 EQ PUSH2 0x1BE4 JUMPI PUSH1 0x0 DUP1 REVERT JUMPDEST SWAP2 SWAP1 POP JUMP JUMPDEST PUSH1 0x0 PUSH1 0x40 DUP3 DUP5 SUB SLT ISZERO PUSH2 0x1BFB JUMPI PUSH1 0x0 DUP1 REVERT JUMPDEST PUSH1 0x40 MLOAD PUSH1 0x40 DUP2 ADD DUP2 DUP2 LT PUSH8 0xFFFFFFFFFFFFFFFF DUP3 GT OR ISZERO PUSH2 0x1C1E JUMPI PUSH2 0x1C1E PUSH2 0x1A56 JUMP JUMPDEST PUSH1 0x40 MSTORE PUSH2 0x1C2A DUP4 PUSH2 0x1BD2 JUMP JUMPDEST DUP2 MSTORE PUSH1 0x20 DUP4 ADD MLOAD PUSH1 0x20 DUP3 ADD MSTORE DUP1 SWAP2 POP POP SWAP3 SWAP2 POP POP JUMP JUMPDEST PUSH1 0x0 PUSH1 0x20 DUP3 DUP5 SUB SLT ISZERO PUSH2 0x1C52 JUMPI PUSH1 0x0 DUP1 REVERT JUMPDEST DUP2 MLOAD PUSH2 0x86B DUP2 PUSH2 0x1A08 JUMP JUMPDEST PUSH1 0x0 PUSH1 0x20 DUP3 DUP5 SUB SLT ISZERO PUSH2 0x1C6F JUMPI PUSH1 0x0 DUP1 REVERT JUMPDEST DUP2 MLOAD DUP1 ISZERO ISZERO DUP2 EQ PUSH2 0x86B JUMPI PUSH1 0x0 DUP1 REVERT JUMPDEST PUSH1 0x0 DUP3 NOT DUP3 GT ISZERO PUSH2 0x1C92 JUMPI PUSH2 0x1C92 PUSH2 0x1B65 JUMP JUMPDEST POP ADD SWAP1 JUMP JUMPDEST PUSH1 0x0 PUSH1 0x1 DUP3 ADD PUSH2 0x1CA9 JUMPI PUSH2 0x1CA9 PUSH2 0x1B65 JUMP JUMPDEST POP PUSH1 0x1 ADD SWAP1 JUMP JUMPDEST PUSH1 0x0 DUP3 DUP3 LT ISZERO PUSH2 0x1CC2 JUMPI PUSH2 0x1CC2 PUSH2 0x1B65 JUMP JUMPDEST POP SUB SWAP1 JUMP JUMPDEST PUSH1 0x0 PUSH1 0x20 DUP3 DUP5 SUB SLT ISZERO PUSH2 0x1CD9 JUMPI PUSH1 0x0 DUP1 REVERT JUMPDEST POP MLOAD SWAP2 SWAP1 POP JUMP JUMPDEST PUSH1 0x0 PUSH1 0x80 DUP3 DUP5 SUB SLT ISZERO PUSH2 0x1CF2 JUMPI PUSH1 0x0 DUP1 REVERT JUMPDEST PUSH1 0x40 MLOAD PUSH1 0x80 DUP2 ADD DUP2 DUP2 LT PUSH8 0xFFFFFFFFFFFFFFFF DUP3 GT OR ISZERO PUSH2 0x1D15 JUMPI PUSH2 0x1D15 PUSH2 0x1A56 JUMP JUMPDEST PUSH1 0x40 MSTORE PUSH2 0x1D21 DUP4 PUSH2 0x1BD2 JUMP JUMPDEST DUP2 MSTORE PUSH2 0x1D2F PUSH1 0x20 DUP5 ADD PUSH2 0x1BD2 JUMP JUMPDEST PUSH1 0x20 DUP3 ADD MSTORE PUSH1 0x40 DUP4 ADD MLOAD PUSH1 0x40 DUP3 ADD MSTORE PUSH1 0x60 DUP4 ADD MLOAD PUSH1 0x60 DUP3 ADD MSTORE DUP1 SWAP2 POP POP SWAP3 SWAP2 POP POP JUMP JUMPDEST PUSH1 0x0 DUP2 PUSH1 0xF SIGNEXTEND DUP4 PUSH1 0xF SIGNEXTEND PUSH1 0x1 PUSH1 0x1 PUSH1 0x7F SHL SUB PUSH1 0x0 DUP3 SGT PUSH1 0x0 DUP5 SGT DUP4 DUP4 DIV DUP6 GT DUP3 DUP3 AND AND ISZERO PUSH2 0x1D82 JUMPI PUSH2 0x1D82 PUSH2 0x1B65 JUMP JUMPDEST PUSH16 0x7FFFFFFFFFFFFFFFFFFFFFFFFFFFFFFF NOT PUSH1 0x0 DUP6 SLT DUP3 DUP2 AND DUP8 DUP4 SDIV DUP8 SLT AND ISZERO PUSH2 0x1DAE JUMPI PUSH2 0x1DAE PUSH2 0x1B65 JUMP JUMPDEST PUSH1 0x0 DUP8 SLT SWAP3 POP DUP6 DUP3 SDIV DUP8 SLT DUP5 DUP5 AND AND ISZERO PUSH2 0x1DCA JUMPI PUSH2 0x1DCA PUSH2 0x1B65 JUMP JUMPDEST DUP6 DUP6 SDIV DUP8 SLT DUP2 DUP5 AND AND ISZERO PUSH2 0x1DE0 JUMPI PUSH2 0x1DE0 PUSH2 0x1B65 JUMP JUMPDEST POP POP POP SWAP3 SWAP1 SWAP2 MUL SWAP6 SWAP5 POP POP POP POP POP JUMP JUMPDEST PUSH1 0x0 DUP2 PUSH1 0xF SIGNEXTEND DUP4 PUSH1 0xF SIGNEXTEND PUSH1 0x0 DUP2 SLT DUP2 PUSH1 0x1 PUSH1 0x1 PUSH1 0x7F SHL SUB NOT ADD DUP4 SLT DUP2 ISZERO AND ISZERO PUSH2 0x1E1B JUMPI PUSH2 0x1E1B PUSH2 0x1B65 JUMP JUMPDEST DUP2 PUSH1 0x1 PUSH1 0x1 PUSH1 0x7F SHL SUB ADD DUP4 SGT DUP2 AND ISZERO PUSH2 0x1E36 JUMPI PUSH2 0x1E36 PUSH2 0x1B65 JUMP JUMPDEST POP SWAP1 SUB SWAP4 SWAP3 POP POP POP JUMP JUMPDEST PUSH4 0x4E487B71 PUSH1 0xE0 SHL PUSH1 0x0 MSTORE PUSH1 0x1 PUSH1 0x4 MSTORE PUSH1 0x24 PUSH1 0x0 REVERT INVALID LOG2 PUSH5 0x6970667358 0x22 SLT KECCAK256 NUMBER GASLIMIT PUSH3 0x69E9B6 0xCB SWAP2 DUP6 GT 0xE6 0xC8 0xE8 LT SIGNEXTEND 0xCD 0x2A 0xFC 0x2D BASEFEE 0xF 0xAD ISZERO MUL DUP5 0x4F PUSH4 0x8CDC6D37 SWAP14 PUSH5 0x736F6C6343 STOP ADDMOD 0xD STOP CALLER "},"methodIdentifiers":{"checkpoint_token()":"811a40fe","checkpoint_total_supply()":"b21ed502","claim(uint256)":"379607f5","claim_many(uint256[])":"1f1db043","claimable(uint256)":"d1d58b25","depositor()":"c7c4ff46","last_token_time()":"7f58e8f8","owner()":"8da5cb5b","setDepositor(address)":"f2c098b7","setOwner(address)":"13af4035","start_time()":"834ee417","time_cursor()":"127dcbd3","time_cursor_of(uint256)":"486d25fe","timestamp()":"b80777ea","token()":"fc0c546a","token_last_balance()":"22b04bfc","tokens_per_week(uint256)":"edf59997","user_epoch_of(uint256)":"16aea5c0","ve_for_at(uint256,uint256)":"68809889","ve_supply(uint256)":"d4dafba8","voting_escrow()":"dfe05031","withdrawERC20(address)":"f4f3b200"}},"storageLayout":{"storage":[{"astId":3328,"contract":"contracts/RewardsDistributor.sol:RewardsDistributor","label":"start_time","offset":0,"slot":"0","type":"t_uint256"},{"astId":3330,"contract":"contracts/RewardsDistributor.sol:RewardsDistributor","label":"time_cursor","offset":0,"slot":"1","type":"t_uint256"},{"astId":3334,"contract":"contracts/RewardsDistributor.sol:RewardsDistributor","label":"time_cursor_of","offset":0,"slot":"2","type":"t_mapping(t_uint256,t_uint256)"},{"astId":3338,"contract":"contracts/RewardsDistributor.sol:RewardsDistributor","label":"user_epoch_of","offset":0,"slot":"3","type":"t_mapping(t_uint256,t_uint256)"},{"astId":3340,"contract":"contracts/RewardsDistributor.sol:RewardsDistributor","label":"last_token_time","offset":0,"slot":"4","type":"t_uint256"},{"astId":3344,"contract":"contracts/RewardsDistributor.sol:RewardsDistributor","label":"tokens_per_week","offset":0,"slot":"5","type":"t_array(t_uint256)1000000000000000_storage"},{"astId":3346,"contract":"contracts/RewardsDistributor.sol:RewardsDistributor","label":"token_last_balance","offset":0,"slot":"1000000000000005","type":"t_uint256"},{"astId":3350,"contract":"contracts/RewardsDistributor.sol:RewardsDistributor","label":"ve_supply","offset":0,"slot":"1000000000000006","type":"t_array(t_uint256)1000000000000000_storage"},{"astId":3352,"contract":"contracts/RewardsDistributor.sol:RewardsDistributor","label":"owner","offset":0,"slot":"2000000000000006","type":"t_address"},{"astId":3354,"contract":"contracts/RewardsDistributor.sol:RewardsDistributor","label":"voting_escrow","offset":0,"slot":"2000000000000007","type":"t_address"},{"astId":3356,"contract":"contracts/RewardsDistributor.sol:RewardsDistributor","label":"token","offset":0,"slot":"2000000000000008","type":"t_address"},{"astId":3358,"contract":"contracts/RewardsDistributor.sol:RewardsDistributor","label":"depositor","offset":0,"slot":"2000000000000009","type":"t_address"}],"types":{"t_address":{"encoding":"inplace","label":"address","numberOfBytes":"20"},"t_array(t_uint256)1000000000000000_storage":{"base":"t_uint256","encoding":"inplace","label":"uint256[1000000000000000]","numberOfBytes":"32000000000000000"},"t_mapping(t_uint256,t_uint256)":{"encoding":"mapping","key":"t_uint256","label":"mapping(uint256 => uint256)","numberOfBytes":"32","value":"t_uint256"},"t_uint256":{"encoding":"inplace","label":"uint256","numberOfBytes":"32"}}}}}}