{"contracts/factories/GaugeFactoryV3.sol":{"GaugeFactoryV3":{"abi":[{"inputs":[],"stateMutability":"nonpayable","type":"constructor"},{"anonymous":false,"inputs":[{"indexed":false,"internalType":"uint8","name":"version","type":"uint8"}],"name":"Initialized","type":"event"},{"anonymous":false,"inputs":[{"indexed":true,"internalType":"address","name":"previousOwner","type":"address"},{"indexed":true,"internalType":"address","name":"newOwner","type":"address"}],"name":"OwnershipTransferred","type":"event"},{"inputs":[{"internalType":"address","name":"_rewardToken","type":"address"},{"internalType":"address","name":"_ve","type":"address"},{"internalType":"address","name":"_token","type":"address"},{"internalType":"address","name":"_distribution","type":"address"},{"internalType":"address","name":"_internal_bribe","type":"address"},{"internalType":"address","name":"_external_bribe","type":"address"},{"internalType":"bool","name":"_isPair","type":"bool"}],"name":"createGaugeV3","outputs":[{"internalType":"address","name":"","type":"address"}],"stateMutability":"nonpayable","type":"function"},{"inputs":[],"name":"initialize","outputs":[],"stateMutability":"nonpayable","type":"function"},{"inputs":[],"name":"last_gauge","outputs":[{"internalType":"address","name":"","type":"address"}],"stateMutability":"view","type":"function"},{"inputs":[],"name":"owner","outputs":[{"internalType":"address","name":"","type":"address"}],"stateMutability":"view","type":"function"},{"inputs":[],"name":"renounceOwnership","outputs":[],"stateMutability":"nonpayable","type":"function"},{"inputs":[{"internalType":"address","name":"_gauge","type":"address"},{"internalType":"address","name":"_newDistribution","type":"address"}],"name":"setDistribution","outputs":[],"stateMutability":"nonpayable","type":"function"},{"inputs":[{"internalType":"address","name":"newOwner","type":"address"}],"name":"transferOwnership","outputs":[],"stateMutability":"nonpayable","type":"function"}],"evm":{"bytecode":{"linkReferences":{},"object":"608060405234801561001057600080fd5b50612462806100206000396000f3fe608060405234801561001057600080fd5b506004361061007d5760003560e01c80638da5cb5b1161005b5780638da5cb5b146100c3578063d38c07f8146100d4578063e42d5be0146100e7578063f2fde38b146100fa57600080fd5b8063715018a614610082578063730a8bdb1461008c5780638129fc1c146100bb575b600080fd5b61008a61010d565b005b60655461009f906001600160a01b031681565b6040516001600160a01b03909116815260200160405180910390f35b61008a610121565b6033546001600160a01b031661009f565b61009f6100e23660046104df565b610237565b61008a6100f536600461056e565b6102d3565b61008a6101083660046105a1565b61033a565b6101156103b0565b61011f600061040a565b565b600054610100900460ff16158080156101415750600054600160ff909116105b8061015b5750303b15801561015b575060005460ff166001145b6101c35760405162461bcd60e51b815260206004820152602e60248201527f496e697469616c697a61626c653a20636f6e747261637420697320616c72656160448201526d191e481a5b9a5d1a585b1a5e995960921b60648201526084015b60405180910390fd5b6000805460ff1916600117905580156101e6576000805461ff0019166101001790555b6101ee61045c565b8015610234576000805461ff0019169055604051600181527f7f26b83ff96e1f2b6a682f133852f6798a09c465da95921460cefb38474024989060200160405180910390a15b50565b60008787878787878760405161024c906104b6565b6001600160a01b0397881681529587166020870152938616604086015291851660608501528416608084015290921660a082015290151560c082015260e001604051809103906000f0801580156102a7573d6000803e3d6000fd5b50606580546001600160a01b0319166001600160a01b0392909216918217905598975050505050505050565b6102db6103b0565b604051637f69901560e01b81526001600160a01b038281166004830152831690637f69901590602401600060405180830381600087803b15801561031e57600080fd5b505af1158015610332573d6000803e3d6000fd5b505050505050565b6103426103b0565b6001600160a01b0381166103a75760405162461bcd60e51b815260206004820152602660248201527f4f776e61626c653a206e6577206f776e657220697320746865207a65726f206160448201526564647265737360d01b60648201526084016101ba565b6102348161040a565b6033546001600160a01b0316331461011f5760405162461bcd60e51b815260206004820181905260248201527f4f776e61626c653a2063616c6c6572206973206e6f7420746865206f776e657260448201526064016101ba565b603380546001600160a01b038381166001600160a01b0319831681179093556040519116919082907f8be0079c531659141344cd1fd0a4f28419497f9722a3daafe3b4186f6b6457e090600090a35050565b600054610100900460ff166104835760405162461bcd60e51b81526004016101ba906105c3565b61011f600054610100900460ff166104ad5760405162461bcd60e51b81526004016101ba906105c3565b61011f3361040a565b611e1e8061060f83390190565b80356001600160a01b03811681146104da57600080fd5b919050565b600080600080600080600060e0888a0312156104fa57600080fd5b610503886104c3565b9650610511602089016104c3565b955061051f604089016104c3565b945061052d606089016104c3565b935061053b608089016104c3565b925061054960a089016104c3565b915060c0880135801515811461055e57600080fd5b8091505092959891949750929550565b6000806040838503121561058157600080fd5b61058a836104c3565b9150610598602084016104c3565b90509250929050565b6000602082840312156105b357600080fd5b6105bc826104c3565b9392505050565b6020808252602b908201527f496e697469616c697a61626c653a20636f6e7472616374206973206e6f74206960408201526a6e697469616c697a696e6760a81b60608201526080019056fe60806040523480156200001157600080fd5b5060405162001e1e38038062001e1e83398101604081905262000034916200014a565b60016000556200004433620000db565b600280546001600160a01b03199081166001600160a01b03998a161790915560038054821697891697909717909655600480548716958816959095179094556005805486169387169390931790925562093a80600a556007805485169186169190911790556008805490931693169290921790556001805460ff60a01b1916600160a01b92151592909202919091179055620001e7565b600180546001600160a01b038381166001600160a01b0319831681179093556040519116919082907f8be0079c531659141344cd1fd0a4f28419497f9722a3daafe3b4186f6b6457e090600090a35050565b80516001600160a01b03811681146200014557600080fd5b919050565b600080600080600080600060e0888a0312156200016657600080fd5b62000171886200012d565b965062000181602089016200012d565b955062000191604089016200012d565b9450620001a1606089016200012d565b9350620001b1608089016200012d565b9250620001c160a089016200012d565b915060c08801518015158114620001d757600080fd5b8091505092959891949750929550565b611c2780620001f76000396000f3fe608060405234801561001057600080fd5b50600436106102525760003560e01c806380faa57d11610146578063b6b55f25116100c3578063df136d6511610087578063df136d65146104ae578063e5748213146104b7578063ebe2b12b146104db578063f2fde38b146104e4578063f7c618c1146104f7578063f97d21141461050a57600080fd5b8063b6b55f2514610465578063c8f33c9114610478578063cd3daf9d14610481578063d294f09314610489578063de5f6268146104a657600080fd5b80638da5cb5b1161010a5780638da5cb5b1461041c5780638f67b0131461042d57806393f1c442146104365780639f6d7d5b1461043f578063b66503cf1461045257600080fd5b806380faa57d146103c657806382bfefc8146103ce578063853828b6146103e1578063863e2442146103e95780638b876347146103fc57600080fd5b80636946a235116101d4578063715018a611610198578063715018a61461037c578063770f8571146103845780637b0a47ee146103975780637c91e4eb146103a05780637f699015146103b357600080fd5b80636946a235146103105780636e9852f2146103185780636ebcf6071461032057806370a082311461034057806370b15e6d1461036957600080fd5b80631be052891161021b5780631be05289146102d85780632e1a7d4d146102e15780633d18b912146102f65780633eaaf86b146102fe5780634c02a21c1461030757600080fd5b80628cc2621461025757806303fbf83a1461027d5780630700037d146102a85780631407c664146102c857806318160ddd146102d0575b600080fd5b61026a61026536600461198f565b61051d565b6040519081526020015b60405180910390f35b600854610290906001600160a01b031681565b6040516001600160a01b039091168152602001610274565b61026a6102b636600461198f565b60126020526000908152604090205481565b600b5461026a565b60135461026a565b61026a600a5481565b6102f46102ef3660046119ac565b61059b565b005b6102f46105a7565b61026a60135481565b61026a60105481565b61026a61073e565b6102f461075c565b61026a61032e36600461198f565b60146020526000908152604090205481565b61026a61034e36600461198f565b6001600160a01b031660009081526014602052604090205490565b6102f46103773660046119ac565b61077f565b6102f46107c8565b600754610290906001600160a01b031681565b61026a600c5481565b600554610290906001600160a01b031681565b6102f46103c136600461198f565b6107da565b61026a610890565b600454610290906001600160a01b031681565b6102f461089e565b600654610290906001600160a01b031681565b61026a61040a36600461198f565b60116020526000908152604090205481565b6001546001600160a01b0316610290565b61026a60095481565b61026a600f5481565b600354610290906001600160a01b031681565b6102f46104603660046119c5565b6108b7565b6102f46104733660046119ac565b610b6a565b61026a600d5481565b61026a610b74565b610491610bbf565b60408051928352602083019190915201610274565b6102f4610bfe565b61026a600e5481565b6001546104cb90600160a01b900460ff1681565b6040519015158152602001610274565b61026a600b5481565b6102f46104f236600461198f565b610c77565b600254610290906001600160a01b031681565b6102f461051836600461198f565b610ced565b6001600160a01b0381166000908152601260209081526040808320546011909252822054610595919061058f90670de0b6b3a7640000906105899061056a90610564610b74565b90610da3565b6001600160a01b03881660009081526014602052604090205490610db6565b90610dc2565b90610dce565b92915050565b6105a481610dda565b50565b6002600054036105d25760405162461bcd60e51b81526004016105c9906119f1565b60405180910390fd5b6002600055336105e0610b74565b600e556105eb610890565b600d556001600160a01b03811615610632576106068161051d565b6001600160a01b038216600090815260126020908152604080832093909355600e546011909152919020555b3360009081526012602052604090205480156106a75733600081815260126020526040812055600254610671916001600160a01b03909116908361104f565b60405181815233907fc9695243a805adb74c91f28311176c65b417e842d5699893cef56d18bfa48cba9060200160405180910390a25b6006546001600160a01b0316156107355760065460095433600081815260146020526040908190205490516344af0fa760e01b81526001600160a01b03909416936344af0fa793610702939092909182918891600401611a28565b600060405180830381600087803b15801561071c57600080fd5b505af1158015610730573d6000803e3d6000fd5b505050505b50506001600055565b6000610757600a54600c54610db690919063ffffffff16565b905090565b3360009081526014602052604090205461077590610dda565b61077d6105a7565b565b6107876110b7565b60095481036107c35760405162461bcd60e51b81526020600482015260086024820152671cd85b59481c1a5960c21b60448201526064016105c9565b600955565b6107d06110b7565b61077d6000611111565b6107e26110b7565b6001600160a01b0381166108245760405162461bcd60e51b81526020600482015260096024820152683d32b9379030b2323960b91b60448201526064016105c9565b6005546001600160a01b039081169082160361086e5760405162461bcd60e51b815260206004820152600960248201526839b0b6b29030b2323960b91b60448201526064016105c9565b600580546001600160a01b0319166001600160a01b0392909216919091179055565b600061075742600b54611163565b3360009081526014602052604090205461077d90610dda565b6002600054036108d95760405162461bcd60e51b81526004016105c9906119f1565b60026000556005546001600160a01b0316331461094b5760405162461bcd60e51b815260206004820152602a60248201527f43616c6c6572206973206e6f742052657761726473446973747269627574696f6044820152691b8818dbdb9d1c9858dd60b21b60648201526084016105c9565b6000610955610b74565b600e55610960610890565b600d556001600160a01b038116156109a75761097b8161051d565b6001600160a01b038216600090815260126020908152604080832093909355600e546011909152919020555b6002546001600160a01b038481169116146109c157600080fd5b6005546002546109df916001600160a01b0391821691163085611179565b600b5442106109fe57600a546109f6908390610dc2565b600c55610a41565b600b54600090610a0e9042610da3565b90506000610a27600c5483610db690919063ffffffff16565b600a54909150610a3b906105898684610dce565b600c5550505b6002546040516370a0823160e01b81523060048201526000916001600160a01b0316906370a0823190602401602060405180830381865afa158015610a8a573d6000803e3d6000fd5b505050506040513d601f19601f82011682018060405250810190610aae9190611a57565b9050610ac5600a5482610dc290919063ffffffff16565b600c541115610b165760405162461bcd60e51b815260206004820152601860248201527f50726f76696465642072657761726420746f6f2068696768000000000000000060448201526064016105c9565b42600d819055600a54610b299190610dce565b600b556040518381527fde88a922e0d3b88b24e9623efeb464919c6bf9f66857a65e2bfcf2ce87a9433d9060200160405180910390a1505060016000555050565b6105a481336111b7565b6000601354600003610b875750600e5490565b610757610bb6601354610589670de0b6b3a7640000610bb0600c54610bb0600d54610564610890565b90610db6565b600e5490610dce565b600080600260005403610be45760405162461bcd60e51b81526004016105c9906119f1565b6002600055610bf16113c8565b9150915060016000559091565b600480546040516370a0823160e01b8152339281019290925261077d916001600160a01b03909116906370a0823190602401602060405180830381865afa158015610c4d573d6000803e3d6000fd5b505050506040513d601f19601f82011682018060405250810190610c719190611a57565b336111b7565b610c7f6110b7565b6001600160a01b038116610ce45760405162461bcd60e51b815260206004820152602660248201527f4f776e61626c653a206e6577206f776e657220697320746865207a65726f206160448201526564647265737360d01b60648201526084016105c9565b6105a481611111565b610cf56110b7565b6001600160a01b038116610d375760405162461bcd60e51b81526020600482015260096024820152683d32b9379030b2323960b91b60448201526064016105c9565b6006546001600160a01b0390811690821603610d815760405162461bcd60e51b815260206004820152600960248201526839b0b6b29030b2323960b91b60448201526064016105c9565b600680546001600160a01b0319166001600160a01b0392909216919091179055565b6000610daf8284611a86565b9392505050565b6000610daf8284611a9d565b6000610daf8284611abc565b6000610daf8284611ade565b600260005403610dfc5760405162461bcd60e51b81526004016105c9906119f1565b600260005533610e0a610b74565b600e55610e15610890565b600d556001600160a01b03811615610e5c57610e308161051d565b6001600160a01b038216600090815260126020908152604080832093909355600e546011909152919020555b60008211610ea05760405162461bcd60e51b8152602060048201526011602482015270043616e6e6f74207769746864726177203607c1b60448201526064016105c9565b601354600090610eb09084610da3565b1015610eeb5760405162461bcd60e51b815260206004820152600a6024820152690737570706c79203c20360b41b60448201526064016105c9565b33600090815260146020526040902054610f355760405162461bcd60e51b815260206004820152600b60248201526a6e6f2062616c616e63657360a81b60448201526064016105c9565b601354610f429083610da3565b60135533600090815260146020526040902054610f5f9083610da3565b336000908152601460205260409020556006546001600160a01b031615610ffa57600654600954336000818152601460205260408082205490516344af0fa760e01b81526001600160a01b03909516946344af0fa794610fc794909390928392600401611a28565b600060405180830381600087803b158015610fe157600080fd5b505af1158015610ff5573d6000803e3d6000fd5b505050505b600454611011906001600160a01b0316338461104f565b60405182815233907f884edad9ce6fa2440d8a54cc123490eb96d2768479d49ff9c7366125a94243649060200160405180910390a250506001600055565b6040516001600160a01b0383166024820152604481018290526110b290849063a9059cbb60e01b906064015b60408051601f198184030181529190526020810180516001600160e01b03166001600160e01b031990931692909217909152611727565b505050565b6001546001600160a01b0316331461077d5760405162461bcd60e51b815260206004820181905260248201527f4f776e61626c653a2063616c6c6572206973206e6f7420746865206f776e657260448201526064016105c9565b600180546001600160a01b038381166001600160a01b0319831681179093556040519116919082907f8be0079c531659141344cd1fd0a4f28419497f9722a3daafe3b4186f6b6457e090600090a35050565b60008183106111725781610daf565b5090919050565b6040516001600160a01b03808516602483015283166044820152606481018290526111b19085906323b872dd60e01b9060840161107b565b50505050565b6002600054036111d95760405162461bcd60e51b81526004016105c9906119f1565b6002600055806111e7610b74565b600e556111f2610890565b600d556001600160a01b038116156112395761120d8161051d565b6001600160a01b038216600090815260126020908152604080832093909355600e546011909152919020555b600083116112895760405162461bcd60e51b815260206004820152601e60248201527f6465706f736974284761756765293a2063616e6e6f74207374616b652030000060448201526064016105c9565b6001600160a01b0382166000908152601460205260409020546112ac9084610dce565b6001600160a01b0383166000908152601460205260409020556013546112d29084610dce565b6013556004546112ed906001600160a01b0316833086611179565b6006546001600160a01b03161561137b576006546009546001600160a01b038481166000908152601460205260408082205490516344af0fa760e01b815292909416936344af0fa79361134893909288928392600401611a28565b600060405180830381600087803b15801561136257600080fd5b505af1158015611376573d6000803e3d6000fd5b505050505b816001600160a01b03167fe1fffcc4923d04b559f4d29a8bfc6cda04eb5b0d3c460751c2402c5c5cc9109c846040516113b691815260200190565b60405180910390a25050600160005550565b6001546000908190600160a01b900460ff166113e75750600091829150565b600480546040805163d294f09360e01b815281516001600160a01b0390931693849363d294f093938383019390929082900301816000875af1158015611431573d6000803e3d6000fd5b505050506040513d601f19601f820116820180604052508101906114559190611af6565b9093509150821515806114685750600082115b1561172257600083600f5461147d9190611ade565b905060008360105461148f9190611ade565b9050600080846001600160a01b0316639d63848a6040518163ffffffff1660e01b81526004016040805180830381865afa1580156114d1573d6000803e3d6000fd5b505050506040513d601f19601f820116820180604052508101906114f59190611b1a565b909250905083156115e8576000600f5560075460405163095ea7b360e01b81526001600160a01b039182166004820152602481018690529083169063095ea7b3906044016020604051808303816000875af1158015611558573d6000803e3d6000fd5b505050506040513d601f19601f8201168201806040525081019061157c9190611b54565b5060075460405163b66503cf60e01b81526001600160a01b038481166004830152602482018790529091169063b66503cf90604401600060405180830381600087803b1580156115cb57600080fd5b505af11580156115df573d6000803e3d6000fd5b505050506115ee565b600f8490555b82156116dc57600060105560075460405163095ea7b360e01b81526001600160a01b039182166004820152602481018590529082169063095ea7b3906044016020604051808303816000875af115801561164c573d6000803e3d6000fd5b505050506040513d601f19601f820116820180604052508101906116709190611b54565b5060075460405163b66503cf60e01b81526001600160a01b038381166004830152602482018690529091169063b66503cf90604401600060405180830381600087803b1580156116bf57600080fd5b505af11580156116d3573d6000803e3d6000fd5b505050506116e2565b60108390555b604080518881526020810188905233917fbc567d6cbad26368064baa0ab5a757be46aae4d70f707f9203d9d9b6c8ccbfa3910160405180910390a2505050505b509091565b600061177c826040518060400160405280602081526020017f5361666545524332303a206c6f772d6c6576656c2063616c6c206661696c6564815250856001600160a01b03166117f99092919063ffffffff16565b8051909150156110b2578080602001905181019061179a9190611b54565b6110b25760405162461bcd60e51b815260206004820152602a60248201527f5361666545524332303a204552433230206f7065726174696f6e20646964206e6044820152691bdd081cdd58d8d9595960b21b60648201526084016105c9565b60606118088484600085611810565b949350505050565b6060824710156118715760405162461bcd60e51b815260206004820152602660248201527f416464726573733a20696e73756666696369656e742062616c616e636520666f6044820152651c8818d85b1b60d21b60648201526084016105c9565b6001600160a01b0385163b6118c85760405162461bcd60e51b815260206004820152601d60248201527f416464726573733a2063616c6c20746f206e6f6e2d636f6e747261637400000060448201526064016105c9565b600080866001600160a01b031685876040516118e49190611ba2565b60006040518083038185875af1925050503d8060008114611921576040519150601f19603f3d011682016040523d82523d6000602084013e611926565b606091505b5091509150611936828286611941565b979650505050505050565b60608315611950575081610daf565b8251156119605782518084602001fd5b8160405162461bcd60e51b81526004016105c99190611bbe565b6001600160a01b03811681146105a457600080fd5b6000602082840312156119a157600080fd5b8135610daf8161197a565b6000602082840312156119be57600080fd5b5035919050565b600080604083850312156119d857600080fd5b82356119e38161197a565b946020939093013593505050565b6020808252601f908201527f5265656e7472616e637947756172643a207265656e7472616e742063616c6c00604082015260600190565b9485526001600160a01b0393841660208601529190921660408401526060830191909152608082015260a00190565b600060208284031215611a6957600080fd5b5051919050565b634e487b7160e01b600052601160045260246000fd5b600082821015611a9857611a98611a70565b500390565b6000816000190483118215151615611ab757611ab7611a70565b500290565b600082611ad957634e487b7160e01b600052601260045260246000fd5b500490565b60008219821115611af157611af1611a70565b500190565b60008060408385031215611b0957600080fd5b505080516020909101519092909150565b60008060408385031215611b2d57600080fd5b8251611b388161197a565b6020840151909250611b498161197a565b809150509250929050565b600060208284031215611b6657600080fd5b81518015158114610daf57600080fd5b60005b83811015611b91578181015183820152602001611b79565b838111156111b15750506000910152565b60008251611bb4818460208701611b76565b9190910192915050565b6020815260008251806020840152611bdd816040850160208701611b76565b601f01601f1916919091016040019291505056fea26469706673582212209ec65b8981c835787b12a83f15cd8455d690e1d149c6faa9dc459e06850e1d6d64736f6c634300080d0033a26469706673582212206aeb2aca701b498f68e8aa5ec806029068dc226ab76d0e6aeb1e4d8ea76a5f2364736f6c634300080d0033","opcodes":"PUSH1 0x80 PUSH1 0x40 MSTORE CALLVALUE DUP1 ISZERO PUSH2 0x10 JUMPI PUSH1 0x0 DUP1 REVERT JUMPDEST POP PUSH2 0x2462 DUP1 PUSH2 0x20 PUSH1 0x0 CODECOPY PUSH1 0x0 RETURN INVALID PUSH1 0x80 PUSH1 0x40 MSTORE CALLVALUE DUP1 ISZERO PUSH2 0x10 JUMPI PUSH1 0x0 DUP1 REVERT JUMPDEST POP PUSH1 0x4 CALLDATASIZE LT PUSH2 0x7D JUMPI PUSH1 0x0 CALLDATALOAD PUSH1 0xE0 SHR DUP1 PUSH4 0x8DA5CB5B GT PUSH2 0x5B JUMPI DUP1 PUSH4 0x8DA5CB5B EQ PUSH2 0xC3 JUMPI DUP1 PUSH4 0xD38C07F8 EQ PUSH2 0xD4 JUMPI DUP1 PUSH4 0xE42D5BE0 EQ PUSH2 0xE7 JUMPI DUP1 PUSH4 0xF2FDE38B EQ PUSH2 0xFA JUMPI PUSH1 0x0 DUP1 REVERT JUMPDEST DUP1 PUSH4 0x715018A6 EQ PUSH2 0x82 JUMPI DUP1 PUSH4 0x730A8BDB EQ PUSH2 0x8C JUMPI DUP1 PUSH4 0x8129FC1C EQ PUSH2 0xBB JUMPI JUMPDEST PUSH1 0x0 DUP1 REVERT JUMPDEST PUSH2 0x8A PUSH2 0x10D JUMP JUMPDEST STOP JUMPDEST PUSH1 0x65 SLOAD PUSH2 0x9F SWAP1 PUSH1 0x1 PUSH1 0x1 PUSH1 0xA0 SHL SUB AND DUP2 JUMP JUMPDEST PUSH1 0x40 MLOAD PUSH1 0x1 PUSH1 0x1 PUSH1 0xA0 SHL SUB SWAP1 SWAP2 AND DUP2 MSTORE PUSH1 0x20 ADD PUSH1 0x40 MLOAD DUP1 SWAP2 SUB SWAP1 RETURN JUMPDEST PUSH2 0x8A PUSH2 0x121 JUMP JUMPDEST PUSH1 0x33 SLOAD PUSH1 0x1 PUSH1 0x1 PUSH1 0xA0 SHL SUB AND PUSH2 0x9F JUMP JUMPDEST PUSH2 0x9F PUSH2 0xE2 CALLDATASIZE PUSH1 0x4 PUSH2 0x4DF JUMP JUMPDEST PUSH2 0x237 JUMP JUMPDEST PUSH2 0x8A PUSH2 0xF5 CALLDATASIZE PUSH1 0x4 PUSH2 0x56E JUMP JUMPDEST PUSH2 0x2D3 JUMP JUMPDEST PUSH2 0x8A PUSH2 0x108 CALLDATASIZE PUSH1 0x4 PUSH2 0x5A1 JUMP JUMPDEST PUSH2 0x33A JUMP JUMPDEST PUSH2 0x115 PUSH2 0x3B0 JUMP JUMPDEST PUSH2 0x11F PUSH1 0x0 PUSH2 0x40A JUMP JUMPDEST JUMP JUMPDEST PUSH1 0x0 SLOAD PUSH2 0x100 SWAP1 DIV PUSH1 0xFF AND ISZERO DUP1 DUP1 ISZERO PUSH2 0x141 JUMPI POP PUSH1 0x0 SLOAD PUSH1 0x1 PUSH1 0xFF SWAP1 SWAP2 AND LT JUMPDEST DUP1 PUSH2 0x15B JUMPI POP ADDRESS EXTCODESIZE ISZERO DUP1 ISZERO PUSH2 0x15B JUMPI POP PUSH1 0x0 SLOAD PUSH1 0xFF AND PUSH1 0x1 EQ JUMPDEST PUSH2 0x1C3 JUMPI PUSH1 0x40 MLOAD PUSH3 0x461BCD PUSH1 0xE5 SHL DUP2 MSTORE PUSH1 0x20 PUSH1 0x4 DUP3 ADD MSTORE PUSH1 0x2E PUSH1 0x24 DUP3 ADD MSTORE PUSH32 0x496E697469616C697A61626C653A20636F6E747261637420697320616C726561 PUSH1 0x44 DUP3 ADD MSTORE PUSH14 0x191E481A5B9A5D1A585B1A5E9959 PUSH1 0x92 SHL PUSH1 0x64 DUP3 ADD MSTORE PUSH1 0x84 ADD JUMPDEST PUSH1 0x40 MLOAD DUP1 SWAP2 SUB SWAP1 REVERT JUMPDEST PUSH1 0x0 DUP1 SLOAD PUSH1 0xFF NOT AND PUSH1 0x1 OR SWAP1 SSTORE DUP1 ISZERO PUSH2 0x1E6 JUMPI PUSH1 0x0 DUP1 SLOAD PUSH2 0xFF00 NOT AND PUSH2 0x100 OR SWAP1 SSTORE JUMPDEST PUSH2 0x1EE PUSH2 0x45C JUMP JUMPDEST DUP1 ISZERO PUSH2 0x234 JUMPI PUSH1 0x0 DUP1 SLOAD PUSH2 0xFF00 NOT AND SWAP1 SSTORE PUSH1 0x40 MLOAD PUSH1 0x1 DUP2 MSTORE PUSH32 0x7F26B83FF96E1F2B6A682F133852F6798A09C465DA95921460CEFB3847402498 SWAP1 PUSH1 0x20 ADD PUSH1 0x40 MLOAD DUP1 SWAP2 SUB SWAP1 LOG1 JUMPDEST POP JUMP JUMPDEST PUSH1 0x0 DUP8 DUP8 DUP8 DUP8 DUP8 DUP8 DUP8 PUSH1 0x40 MLOAD PUSH2 0x24C SWAP1 PUSH2 0x4B6 JUMP JUMPDEST PUSH1 0x1 PUSH1 0x1 PUSH1 0xA0 SHL SUB SWAP8 DUP9 AND DUP2 MSTORE SWAP6 DUP8 AND PUSH1 0x20 DUP8 ADD MSTORE SWAP4 DUP7 AND PUSH1 0x40 DUP7 ADD MSTORE SWAP2 DUP6 AND PUSH1 0x60 DUP6 ADD MSTORE DUP5 AND PUSH1 0x80 DUP5 ADD MSTORE SWAP1 SWAP3 AND PUSH1 0xA0 DUP3 ADD MSTORE SWAP1 ISZERO ISZERO PUSH1 0xC0 DUP3 ADD MSTORE PUSH1 0xE0 ADD PUSH1 0x40 MLOAD DUP1 SWAP2 SUB SWAP1 PUSH1 0x0 CREATE DUP1 ISZERO DUP1 ISZERO PUSH2 0x2A7 JUMPI RETURNDATASIZE PUSH1 0x0 DUP1 RETURNDATACOPY RETURNDATASIZE PUSH1 0x0 REVERT JUMPDEST POP PUSH1 0x65 DUP1 SLOAD PUSH1 0x1 PUSH1 0x1 PUSH1 0xA0 SHL SUB NOT AND PUSH1 0x1 PUSH1 0x1 PUSH1 0xA0 SHL SUB SWAP3 SWAP1 SWAP3 AND SWAP2 DUP3 OR SWAP1 SSTORE SWAP9 SWAP8 POP POP POP POP POP POP POP POP JUMP JUMPDEST PUSH2 0x2DB PUSH2 0x3B0 JUMP JUMPDEST PUSH1 0x40 MLOAD PUSH4 0x7F699015 PUSH1 0xE0 SHL DUP2 MSTORE PUSH1 0x1 PUSH1 0x1 PUSH1 0xA0 SHL SUB DUP3 DUP2 AND PUSH1 0x4 DUP4 ADD MSTORE DUP4 AND SWAP1 PUSH4 0x7F699015 SWAP1 PUSH1 0x24 ADD PUSH1 0x0 PUSH1 0x40 MLOAD DUP1 DUP4 SUB DUP2 PUSH1 0x0 DUP8 DUP1 EXTCODESIZE ISZERO DUP1 ISZERO PUSH2 0x31E JUMPI PUSH1 0x0 DUP1 REVERT JUMPDEST POP GAS CALL ISZERO DUP1 ISZERO PUSH2 0x332 JUMPI RETURNDATASIZE PUSH1 0x0 DUP1 RETURNDATACOPY RETURNDATASIZE PUSH1 0x0 REVERT JUMPDEST POP POP POP POP POP POP JUMP JUMPDEST PUSH2 0x342 PUSH2 0x3B0 JUMP JUMPDEST PUSH1 0x1 PUSH1 0x1 PUSH1 0xA0 SHL SUB DUP2 AND PUSH2 0x3A7 JUMPI PUSH1 0x40 MLOAD PUSH3 0x461BCD PUSH1 0xE5 SHL DUP2 MSTORE PUSH1 0x20 PUSH1 0x4 DUP3 ADD MSTORE PUSH1 0x26 PUSH1 0x24 DUP3 ADD MSTORE PUSH32 0x4F776E61626C653A206E6577206F776E657220697320746865207A65726F2061 PUSH1 0x44 DUP3 ADD MSTORE PUSH6 0x646472657373 PUSH1 0xD0 SHL PUSH1 0x64 DUP3 ADD MSTORE PUSH1 0x84 ADD PUSH2 0x1BA JUMP JUMPDEST PUSH2 0x234 DUP2 PUSH2 0x40A JUMP JUMPDEST PUSH1 0x33 SLOAD PUSH1 0x1 PUSH1 0x1 PUSH1 0xA0 SHL SUB AND CALLER EQ PUSH2 0x11F JUMPI PUSH1 0x40 MLOAD PUSH3 0x461BCD PUSH1 0xE5 SHL DUP2 MSTORE PUSH1 0x20 PUSH1 0x4 DUP3 ADD DUP2 SWAP1 MSTORE PUSH1 0x24 DUP3 ADD MSTORE PUSH32 0x4F776E61626C653A2063616C6C6572206973206E6F7420746865206F776E6572 PUSH1 0x44 DUP3 ADD MSTORE PUSH1 0x64 ADD PUSH2 0x1BA JUMP JUMPDEST PUSH1 0x33 DUP1 SLOAD PUSH1 0x1 PUSH1 0x1 PUSH1 0xA0 SHL SUB DUP4 DUP2 AND PUSH1 0x1 PUSH1 0x1 PUSH1 0xA0 SHL SUB NOT DUP4 AND DUP2 OR SWAP1 SWAP4 SSTORE PUSH1 0x40 MLOAD SWAP2 AND SWAP2 SWAP1 DUP3 SWAP1 PUSH32 0x8BE0079C531659141344CD1FD0A4F28419497F9722A3DAAFE3B4186F6B6457E0 SWAP1 PUSH1 0x0 SWAP1 LOG3 POP POP JUMP JUMPDEST PUSH1 0x0 SLOAD PUSH2 0x100 SWAP1 DIV PUSH1 0xFF AND PUSH2 0x483 JUMPI PUSH1 0x40 MLOAD PUSH3 0x461BCD PUSH1 0xE5 SHL DUP2 MSTORE PUSH1 0x4 ADD PUSH2 0x1BA SWAP1 PUSH2 0x5C3 JUMP JUMPDEST PUSH2 0x11F PUSH1 0x0 SLOAD PUSH2 0x100 SWAP1 DIV PUSH1 0xFF AND PUSH2 0x4AD JUMPI PUSH1 0x40 MLOAD PUSH3 0x461BCD PUSH1 0xE5 SHL DUP2 MSTORE PUSH1 0x4 ADD PUSH2 0x1BA SWAP1 PUSH2 0x5C3 JUMP JUMPDEST PUSH2 0x11F CALLER PUSH2 0x40A JUMP JUMPDEST PUSH2 0x1E1E DUP1 PUSH2 0x60F DUP4 CODECOPY ADD SWAP1 JUMP JUMPDEST DUP1 CALLDATALOAD PUSH1 0x1 PUSH1 0x1 PUSH1 0xA0 SHL SUB DUP2 AND DUP2 EQ PUSH2 0x4DA JUMPI PUSH1 0x0 DUP1 REVERT JUMPDEST SWAP2 SWAP1 POP JUMP JUMPDEST PUSH1 0x0 DUP1 PUSH1 0x0 DUP1 PUSH1 0x0 DUP1 PUSH1 0x0 PUSH1 0xE0 DUP9 DUP11 SUB SLT ISZERO PUSH2 0x4FA JUMPI PUSH1 0x0 DUP1 REVERT JUMPDEST PUSH2 0x503 DUP9 PUSH2 0x4C3 JUMP JUMPDEST SWAP7 POP PUSH2 0x511 PUSH1 0x20 DUP10 ADD PUSH2 0x4C3 JUMP JUMPDEST SWAP6 POP PUSH2 0x51F PUSH1 0x40 DUP10 ADD PUSH2 0x4C3 JUMP JUMPDEST SWAP5 POP PUSH2 0x52D PUSH1 0x60 DUP10 ADD PUSH2 0x4C3 JUMP JUMPDEST SWAP4 POP PUSH2 0x53B PUSH1 0x80 DUP10 ADD PUSH2 0x4C3 JUMP JUMPDEST SWAP3 POP PUSH2 0x549 PUSH1 0xA0 DUP10 ADD PUSH2 0x4C3 JUMP JUMPDEST SWAP2 POP PUSH1 0xC0 DUP9 ADD CALLDATALOAD DUP1 ISZERO ISZERO DUP2 EQ PUSH2 0x55E JUMPI PUSH1 0x0 DUP1 REVERT JUMPDEST DUP1 SWAP2 POP POP SWAP3 SWAP6 SWAP9 SWAP2 SWAP5 SWAP8 POP SWAP3 SWAP6 POP JUMP JUMPDEST PUSH1 0x0 DUP1 PUSH1 0x40 DUP4 DUP6 SUB SLT ISZERO PUSH2 0x581 JUMPI PUSH1 0x0 DUP1 REVERT JUMPDEST PUSH2 0x58A DUP4 PUSH2 0x4C3 JUMP JUMPDEST SWAP2 POP PUSH2 0x598 PUSH1 0x20 DUP5 ADD PUSH2 0x4C3 JUMP JUMPDEST SWAP1 POP SWAP3 POP SWAP3 SWAP1 POP JUMP JUMPDEST PUSH1 0x0 PUSH1 0x20 DUP3 DUP5 SUB SLT ISZERO PUSH2 0x5B3 JUMPI PUSH1 0x0 DUP1 REVERT JUMPDEST PUSH2 0x5BC DUP3 PUSH2 0x4C3 JUMP JUMPDEST SWAP4 SWAP3 POP POP POP JUMP JUMPDEST PUSH1 0x20 DUP1 DUP3 MSTORE PUSH1 0x2B SWAP1 DUP3 ADD MSTORE PUSH32 0x496E697469616C697A61626C653A20636F6E7472616374206973206E6F742069 PUSH1 0x40 DUP3 ADD MSTORE PUSH11 0x6E697469616C697A696E67 PUSH1 0xA8 SHL PUSH1 0x60 DUP3 ADD MSTORE PUSH1 0x80 ADD SWAP1 JUMP INVALID PUSH1 0x80 PUSH1 0x40 MSTORE CALLVALUE DUP1 ISZERO PUSH3 0x11 JUMPI PUSH1 0x0 DUP1 REVERT JUMPDEST POP PUSH1 0x40 MLOAD PUSH3 0x1E1E CODESIZE SUB DUP1 PUSH3 0x1E1E DUP4 CODECOPY DUP2 ADD PUSH1 0x40 DUP2 SWAP1 MSTORE PUSH3 0x34 SWAP2 PUSH3 0x14A JUMP JUMPDEST PUSH1 0x1 PUSH1 0x0 SSTORE PUSH3 0x44 CALLER PUSH3 0xDB JUMP JUMPDEST PUSH1 0x2 DUP1 SLOAD PUSH1 0x1 PUSH1 0x1 PUSH1 0xA0 SHL SUB NOT SWAP1 DUP2 AND PUSH1 0x1 PUSH1 0x1 PUSH1 0xA0 SHL SUB SWAP10 DUP11 AND OR SWAP1 SWAP2 SSTORE PUSH1 0x3 DUP1 SLOAD DUP3 AND SWAP8 DUP10 AND SWAP8 SWAP1 SWAP8 OR SWAP1 SWAP7 SSTORE PUSH1 0x4 DUP1 SLOAD DUP8 AND SWAP6 DUP9 AND SWAP6 SWAP1 SWAP6 OR SWAP1 SWAP5 SSTORE PUSH1 0x5 DUP1 SLOAD DUP7 AND SWAP4 DUP8 AND SWAP4 SWAP1 SWAP4 OR SWAP1 SWAP3 SSTORE PUSH3 0x93A80 PUSH1 0xA SSTORE PUSH1 0x7 DUP1 SLOAD DUP6 AND SWAP2 DUP7 AND SWAP2 SWAP1 SWAP2 OR SWAP1 SSTORE PUSH1 0x8 DUP1 SLOAD SWAP1 SWAP4 AND SWAP4 AND SWAP3 SWAP1 SWAP3 OR SWAP1 SSTORE PUSH1 0x1 DUP1 SLOAD PUSH1 0xFF PUSH1 0xA0 SHL NOT AND PUSH1 0x1 PUSH1 0xA0 SHL SWAP3 ISZERO ISZERO SWAP3 SWAP1 SWAP3 MUL SWAP2 SWAP1 SWAP2 OR SWAP1 SSTORE PUSH3 0x1E7 JUMP JUMPDEST PUSH1 0x1 DUP1 SLOAD PUSH1 0x1 PUSH1 0x1 PUSH1 0xA0 SHL SUB DUP4 DUP2 AND PUSH1 0x1 PUSH1 0x1 PUSH1 0xA0 SHL SUB NOT DUP4 AND DUP2 OR SWAP1 SWAP4 SSTORE PUSH1 0x40 MLOAD SWAP2 AND SWAP2 SWAP1 DUP3 SWAP1 PUSH32 0x8BE0079C531659141344CD1FD0A4F28419497F9722A3DAAFE3B4186F6B6457E0 SWAP1 PUSH1 0x0 SWAP1 LOG3 POP POP JUMP JUMPDEST DUP1 MLOAD PUSH1 0x1 PUSH1 0x1 PUSH1 0xA0 SHL SUB DUP2 AND DUP2 EQ PUSH3 0x145 JUMPI PUSH1 0x0 DUP1 REVERT JUMPDEST SWAP2 SWAP1 POP JUMP JUMPDEST PUSH1 0x0 DUP1 PUSH1 0x0 DUP1 PUSH1 0x0 DUP1 PUSH1 0x0 PUSH1 0xE0 DUP9 DUP11 SUB SLT ISZERO PUSH3 0x166 JUMPI PUSH1 0x0 DUP1 REVERT JUMPDEST PUSH3 0x171 DUP9 PUSH3 0x12D JUMP JUMPDEST SWAP7 POP PUSH3 0x181 PUSH1 0x20 DUP10 ADD PUSH3 0x12D JUMP JUMPDEST SWAP6 POP PUSH3 0x191 PUSH1 0x40 DUP10 ADD PUSH3 0x12D JUMP JUMPDEST SWAP5 POP PUSH3 0x1A1 PUSH1 0x60 DUP10 ADD PUSH3 0x12D JUMP JUMPDEST SWAP4 POP PUSH3 0x1B1 PUSH1 0x80 DUP10 ADD PUSH3 0x12D JUMP JUMPDEST SWAP3 POP PUSH3 0x1C1 PUSH1 0xA0 DUP10 ADD PUSH3 0x12D JUMP JUMPDEST SWAP2 POP PUSH1 0xC0 DUP9 ADD MLOAD DUP1 ISZERO ISZERO DUP2 EQ PUSH3 0x1D7 JUMPI PUSH1 0x0 DUP1 REVERT JUMPDEST DUP1 SWAP2 POP POP SWAP3 SWAP6 SWAP9 SWAP2 SWAP5 SWAP8 POP SWAP3 SWAP6 POP JUMP JUMPDEST PUSH2 0x1C27 DUP1 PUSH3 0x1F7 PUSH1 0x0 CODECOPY PUSH1 0x0 RETURN INVALID PUSH1 0x80 PUSH1 0x40 MSTORE CALLVALUE DUP1 ISZERO PUSH2 0x10 JUMPI PUSH1 0x0 DUP1 REVERT JUMPDEST POP PUSH1 0x4 CALLDATASIZE LT PUSH2 0x252 JUMPI PUSH1 0x0 CALLDATALOAD PUSH1 0xE0 SHR DUP1 PUSH4 0x80FAA57D GT PUSH2 0x146 JUMPI DUP1 PUSH4 0xB6B55F25 GT PUSH2 0xC3 JUMPI DUP1 PUSH4 0xDF136D65 GT PUSH2 0x87 JUMPI DUP1 PUSH4 0xDF136D65 EQ PUSH2 0x4AE JUMPI DUP1 PUSH4 0xE5748213 EQ PUSH2 0x4B7 JUMPI DUP1 PUSH4 0xEBE2B12B EQ PUSH2 0x4DB JUMPI DUP1 PUSH4 0xF2FDE38B EQ PUSH2 0x4E4 JUMPI DUP1 PUSH4 0xF7C618C1 EQ PUSH2 0x4F7 JUMPI DUP1 PUSH4 0xF97D2114 EQ PUSH2 0x50A JUMPI PUSH1 0x0 DUP1 REVERT JUMPDEST DUP1 PUSH4 0xB6B55F25 EQ PUSH2 0x465 JUMPI DUP1 PUSH4 0xC8F33C91 EQ PUSH2 0x478 JUMPI DUP1 PUSH4 0xCD3DAF9D EQ PUSH2 0x481 JUMPI DUP1 PUSH4 0xD294F093 EQ PUSH2 0x489 JUMPI DUP1 PUSH4 0xDE5F6268 EQ PUSH2 0x4A6 JUMPI PUSH1 0x0 DUP1 REVERT JUMPDEST DUP1 PUSH4 0x8DA5CB5B GT PUSH2 0x10A JUMPI DUP1 PUSH4 0x8DA5CB5B EQ PUSH2 0x41C JUMPI DUP1 PUSH4 0x8F67B013 EQ PUSH2 0x42D JUMPI DUP1 PUSH4 0x93F1C442 EQ PUSH2 0x436 JUMPI DUP1 PUSH4 0x9F6D7D5B EQ PUSH2 0x43F JUMPI DUP1 PUSH4 0xB66503CF EQ PUSH2 0x452 JUMPI PUSH1 0x0 DUP1 REVERT JUMPDEST DUP1 PUSH4 0x80FAA57D EQ PUSH2 0x3C6 JUMPI DUP1 PUSH4 0x82BFEFC8 EQ PUSH2 0x3CE JUMPI DUP1 PUSH4 0x853828B6 EQ PUSH2 0x3E1 JUMPI DUP1 PUSH4 0x863E2442 EQ PUSH2 0x3E9 JUMPI DUP1 PUSH4 0x8B876347 EQ PUSH2 0x3FC JUMPI PUSH1 0x0 DUP1 REVERT JUMPDEST DUP1 PUSH4 0x6946A235 GT PUSH2 0x1D4 JUMPI DUP1 PUSH4 0x715018A6 GT PUSH2 0x198 JUMPI DUP1 PUSH4 0x715018A6 EQ PUSH2 0x37C JUMPI DUP1 PUSH4 0x770F8571 EQ PUSH2 0x384 JUMPI DUP1 PUSH4 0x7B0A47EE EQ PUSH2 0x397 JUMPI DUP1 PUSH4 0x7C91E4EB EQ PUSH2 0x3A0 JUMPI DUP1 PUSH4 0x7F699015 EQ PUSH2 0x3B3 JUMPI PUSH1 0x0 DUP1 REVERT JUMPDEST DUP1 PUSH4 0x6946A235 EQ PUSH2 0x310 JUMPI DUP1 PUSH4 0x6E9852F2 EQ PUSH2 0x318 JUMPI DUP1 PUSH4 0x6EBCF607 EQ PUSH2 0x320 JUMPI DUP1 PUSH4 0x70A08231 EQ PUSH2 0x340 JUMPI DUP1 PUSH4 0x70B15E6D EQ PUSH2 0x369 JUMPI PUSH1 0x0 DUP1 REVERT JUMPDEST DUP1 PUSH4 0x1BE05289 GT PUSH2 0x21B JUMPI DUP1 PUSH4 0x1BE05289 EQ PUSH2 0x2D8 JUMPI DUP1 PUSH4 0x2E1A7D4D EQ PUSH2 0x2E1 JUMPI DUP1 PUSH4 0x3D18B912 EQ PUSH2 0x2F6 JUMPI DUP1 PUSH4 0x3EAAF86B EQ PUSH2 0x2FE JUMPI DUP1 PUSH4 0x4C02A21C EQ PUSH2 0x307 JUMPI PUSH1 0x0 DUP1 REVERT JUMPDEST DUP1 PUSH3 0x8CC262 EQ PUSH2 0x257 JUMPI DUP1 PUSH4 0x3FBF83A EQ PUSH2 0x27D JUMPI DUP1 PUSH4 0x700037D EQ PUSH2 0x2A8 JUMPI DUP1 PUSH4 0x1407C664 EQ PUSH2 0x2C8 JUMPI DUP1 PUSH4 0x18160DDD EQ PUSH2 0x2D0 JUMPI JUMPDEST PUSH1 0x0 DUP1 REVERT JUMPDEST PUSH2 0x26A PUSH2 0x265 CALLDATASIZE PUSH1 0x4 PUSH2 0x198F JUMP JUMPDEST PUSH2 0x51D JUMP JUMPDEST PUSH1 0x40 MLOAD SWAP1 DUP2 MSTORE PUSH1 0x20 ADD JUMPDEST PUSH1 0x40 MLOAD DUP1 SWAP2 SUB SWAP1 RETURN JUMPDEST PUSH1 0x8 SLOAD PUSH2 0x290 SWAP1 PUSH1 0x1 PUSH1 0x1 PUSH1 0xA0 SHL SUB AND DUP2 JUMP JUMPDEST PUSH1 0x40 MLOAD PUSH1 0x1 PUSH1 0x1 PUSH1 0xA0 SHL SUB SWAP1 SWAP2 AND DUP2 MSTORE PUSH1 0x20 ADD PUSH2 0x274 JUMP JUMPDEST PUSH2 0x26A PUSH2 0x2B6 CALLDATASIZE PUSH1 0x4 PUSH2 0x198F JUMP JUMPDEST PUSH1 0x12 PUSH1 0x20 MSTORE PUSH1 0x0 SWAP1 DUP2 MSTORE PUSH1 0x40 SWAP1 KECCAK256 SLOAD DUP2 JUMP JUMPDEST PUSH1 0xB SLOAD PUSH2 0x26A JUMP JUMPDEST PUSH1 0x13 SLOAD PUSH2 0x26A JUMP JUMPDEST PUSH2 0x26A PUSH1 0xA SLOAD DUP2 JUMP JUMPDEST PUSH2 0x2F4 PUSH2 0x2EF CALLDATASIZE PUSH1 0x4 PUSH2 0x19AC JUMP JUMPDEST PUSH2 0x59B JUMP JUMPDEST STOP JUMPDEST PUSH2 0x2F4 PUSH2 0x5A7 JUMP JUMPDEST PUSH2 0x26A PUSH1 0x13 SLOAD DUP2 JUMP JUMPDEST PUSH2 0x26A PUSH1 0x10 SLOAD DUP2 JUMP JUMPDEST PUSH2 0x26A PUSH2 0x73E JUMP JUMPDEST PUSH2 0x2F4 PUSH2 0x75C JUMP JUMPDEST PUSH2 0x26A PUSH2 0x32E CALLDATASIZE PUSH1 0x4 PUSH2 0x198F JUMP JUMPDEST PUSH1 0x14 PUSH1 0x20 MSTORE PUSH1 0x0 SWAP1 DUP2 MSTORE PUSH1 0x40 SWAP1 KECCAK256 SLOAD DUP2 JUMP JUMPDEST PUSH2 0x26A PUSH2 0x34E CALLDATASIZE PUSH1 0x4 PUSH2 0x198F JUMP JUMPDEST PUSH1 0x1 PUSH1 0x1 PUSH1 0xA0 SHL SUB AND PUSH1 0x0 SWAP1 DUP2 MSTORE PUSH1 0x14 PUSH1 0x20 MSTORE PUSH1 0x40 SWAP1 KECCAK256 SLOAD SWAP1 JUMP JUMPDEST PUSH2 0x2F4 PUSH2 0x377 CALLDATASIZE PUSH1 0x4 PUSH2 0x19AC JUMP JUMPDEST PUSH2 0x77F JUMP JUMPDEST PUSH2 0x2F4 PUSH2 0x7C8 JUMP JUMPDEST PUSH1 0x7 SLOAD PUSH2 0x290 SWAP1 PUSH1 0x1 PUSH1 0x1 PUSH1 0xA0 SHL SUB AND DUP2 JUMP JUMPDEST PUSH2 0x26A PUSH1 0xC SLOAD DUP2 JUMP JUMPDEST PUSH1 0x5 SLOAD PUSH2 0x290 SWAP1 PUSH1 0x1 PUSH1 0x1 PUSH1 0xA0 SHL SUB AND DUP2 JUMP JUMPDEST PUSH2 0x2F4 PUSH2 0x3C1 CALLDATASIZE PUSH1 0x4 PUSH2 0x198F JUMP JUMPDEST PUSH2 0x7DA JUMP JUMPDEST PUSH2 0x26A PUSH2 0x890 JUMP JUMPDEST PUSH1 0x4 SLOAD PUSH2 0x290 SWAP1 PUSH1 0x1 PUSH1 0x1 PUSH1 0xA0 SHL SUB AND DUP2 JUMP JUMPDEST PUSH2 0x2F4 PUSH2 0x89E JUMP JUMPDEST PUSH1 0x6 SLOAD PUSH2 0x290 SWAP1 PUSH1 0x1 PUSH1 0x1 PUSH1 0xA0 SHL SUB AND DUP2 JUMP JUMPDEST PUSH2 0x26A PUSH2 0x40A CALLDATASIZE PUSH1 0x4 PUSH2 0x198F JUMP JUMPDEST PUSH1 0x11 PUSH1 0x20 MSTORE PUSH1 0x0 SWAP1 DUP2 MSTORE PUSH1 0x40 SWAP1 KECCAK256 SLOAD DUP2 JUMP JUMPDEST PUSH1 0x1 SLOAD PUSH1 0x1 PUSH1 0x1 PUSH1 0xA0 SHL SUB AND PUSH2 0x290 JUMP JUMPDEST PUSH2 0x26A PUSH1 0x9 SLOAD DUP2 JUMP JUMPDEST PUSH2 0x26A PUSH1 0xF SLOAD DUP2 JUMP JUMPDEST PUSH1 0x3 SLOAD PUSH2 0x290 SWAP1 PUSH1 0x1 PUSH1 0x1 PUSH1 0xA0 SHL SUB AND DUP2 JUMP JUMPDEST PUSH2 0x2F4 PUSH2 0x460 CALLDATASIZE PUSH1 0x4 PUSH2 0x19C5 JUMP JUMPDEST PUSH2 0x8B7 JUMP JUMPDEST PUSH2 0x2F4 PUSH2 0x473 CALLDATASIZE PUSH1 0x4 PUSH2 0x19AC JUMP JUMPDEST PUSH2 0xB6A JUMP JUMPDEST PUSH2 0x26A PUSH1 0xD SLOAD DUP2 JUMP JUMPDEST PUSH2 0x26A PUSH2 0xB74 JUMP JUMPDEST PUSH2 0x491 PUSH2 0xBBF JUMP JUMPDEST PUSH1 0x40 DUP1 MLOAD SWAP3 DUP4 MSTORE PUSH1 0x20 DUP4 ADD SWAP2 SWAP1 SWAP2 MSTORE ADD PUSH2 0x274 JUMP JUMPDEST PUSH2 0x2F4 PUSH2 0xBFE JUMP JUMPDEST PUSH2 0x26A PUSH1 0xE SLOAD DUP2 JUMP JUMPDEST PUSH1 0x1 SLOAD PUSH2 0x4CB SWAP1 PUSH1 0x1 PUSH1 0xA0 SHL SWAP1 DIV PUSH1 0xFF AND DUP2 JUMP JUMPDEST PUSH1 0x40 MLOAD SWAP1 ISZERO ISZERO DUP2 MSTORE PUSH1 0x20 ADD PUSH2 0x274 JUMP JUMPDEST PUSH2 0x26A PUSH1 0xB SLOAD DUP2 JUMP JUMPDEST PUSH2 0x2F4 PUSH2 0x4F2 CALLDATASIZE PUSH1 0x4 PUSH2 0x198F JUMP JUMPDEST PUSH2 0xC77 JUMP JUMPDEST PUSH1 0x2 SLOAD PUSH2 0x290 SWAP1 PUSH1 0x1 PUSH1 0x1 PUSH1 0xA0 SHL SUB AND DUP2 JUMP JUMPDEST PUSH2 0x2F4 PUSH2 0x518 CALLDATASIZE PUSH1 0x4 PUSH2 0x198F JUMP JUMPDEST PUSH2 0xCED JUMP JUMPDEST PUSH1 0x1 PUSH1 0x1 PUSH1 0xA0 SHL SUB DUP2 AND PUSH1 0x0 SWAP1 DUP2 MSTORE PUSH1 0x12 PUSH1 0x20 SWAP1 DUP2 MSTORE PUSH1 0x40 DUP1 DUP4 KECCAK256 SLOAD PUSH1 0x11 SWAP1 SWAP3 MSTORE DUP3 KECCAK256 SLOAD PUSH2 0x595 SWAP2 SWAP1 PUSH2 0x58F SWAP1 PUSH8 0xDE0B6B3A7640000 SWAP1 PUSH2 0x589 SWAP1 PUSH2 0x56A SWAP1 PUSH2 0x564 PUSH2 0xB74 JUMP JUMPDEST SWAP1 PUSH2 0xDA3 JUMP JUMPDEST PUSH1 0x1 PUSH1 0x1 PUSH1 0xA0 SHL SUB DUP9 AND PUSH1 0x0 SWAP1 DUP2 MSTORE PUSH1 0x14 PUSH1 0x20 MSTORE PUSH1 0x40 SWAP1 KECCAK256 SLOAD SWAP1 PUSH2 0xDB6 JUMP JUMPDEST SWAP1 PUSH2 0xDC2 JUMP JUMPDEST SWAP1 PUSH2 0xDCE JUMP JUMPDEST SWAP3 SWAP2 POP POP JUMP JUMPDEST PUSH2 0x5A4 DUP2 PUSH2 0xDDA JUMP JUMPDEST POP JUMP JUMPDEST PUSH1 0x2 PUSH1 0x0 SLOAD SUB PUSH2 0x5D2 JUMPI PUSH1 0x40 MLOAD PUSH3 0x461BCD PUSH1 0xE5 SHL DUP2 MSTORE PUSH1 0x4 ADD PUSH2 0x5C9 SWAP1 PUSH2 0x19F1 JUMP JUMPDEST PUSH1 0x40 MLOAD DUP1 SWAP2 SUB SWAP1 REVERT JUMPDEST PUSH1 0x2 PUSH1 0x0 SSTORE CALLER PUSH2 0x5E0 PUSH2 0xB74 JUMP JUMPDEST PUSH1 0xE SSTORE PUSH2 0x5EB PUSH2 0x890 JUMP JUMPDEST PUSH1 0xD SSTORE PUSH1 0x1 PUSH1 0x1 PUSH1 0xA0 SHL SUB DUP2 AND ISZERO PUSH2 0x632 JUMPI PUSH2 0x606 DUP2 PUSH2 0x51D JUMP JUMPDEST PUSH1 0x1 PUSH1 0x1 PUSH1 0xA0 SHL SUB DUP3 AND PUSH1 0x0 SWAP1 DUP2 MSTORE PUSH1 0x12 PUSH1 0x20 SWAP1 DUP2 MSTORE PUSH1 0x40 DUP1 DUP4 KECCAK256 SWAP4 SWAP1 SWAP4 SSTORE PUSH1 0xE SLOAD PUSH1 0x11 SWAP1 SWAP2 MSTORE SWAP2 SWAP1 KECCAK256 SSTORE JUMPDEST CALLER PUSH1 0x0 SWAP1 DUP2 MSTORE PUSH1 0x12 PUSH1 0x20 MSTORE PUSH1 0x40 SWAP1 KECCAK256 SLOAD DUP1 ISZERO PUSH2 0x6A7 JUMPI CALLER PUSH1 0x0 DUP2 DUP2 MSTORE PUSH1 0x12 PUSH1 0x20 MSTORE PUSH1 0x40 DUP2 KECCAK256 SSTORE PUSH1 0x2 SLOAD PUSH2 0x671 SWAP2 PUSH1 0x1 PUSH1 0x1 PUSH1 0xA0 SHL SUB SWAP1 SWAP2 AND SWAP1 DUP4 PUSH2 0x104F JUMP JUMPDEST PUSH1 0x40 MLOAD DUP2 DUP2 MSTORE CALLER SWAP1 PUSH32 0xC9695243A805ADB74C91F28311176C65B417E842D5699893CEF56D18BFA48CBA SWAP1 PUSH1 0x20 ADD PUSH1 0x40 MLOAD DUP1 SWAP2 SUB SWAP1 LOG2 JUMPDEST PUSH1 0x6 SLOAD PUSH1 0x1 PUSH1 0x1 PUSH1 0xA0 SHL SUB AND ISZERO PUSH2 0x735 JUMPI PUSH1 0x6 SLOAD PUSH1 0x9 SLOAD CALLER PUSH1 0x0 DUP2 DUP2 MSTORE PUSH1 0x14 PUSH1 0x20 MSTORE PUSH1 0x40 SWAP1 DUP2 SWAP1 KECCAK256 SLOAD SWAP1 MLOAD PUSH4 0x44AF0FA7 PUSH1 0xE0 SHL DUP2 MSTORE PUSH1 0x1 PUSH1 0x1 PUSH1 0xA0 SHL SUB SWAP1 SWAP5 AND SWAP4 PUSH4 0x44AF0FA7 SWAP4 PUSH2 0x702 SWAP4 SWAP1 SWAP3 SWAP1 SWAP2 DUP3 SWAP2 DUP9 SWAP2 PUSH1 0x4 ADD PUSH2 0x1A28 JUMP JUMPDEST PUSH1 0x0 PUSH1 0x40 MLOAD DUP1 DUP4 SUB DUP2 PUSH1 0x0 DUP8 DUP1 EXTCODESIZE ISZERO DUP1 ISZERO PUSH2 0x71C JUMPI PUSH1 0x0 DUP1 REVERT JUMPDEST POP GAS CALL ISZERO DUP1 ISZERO PUSH2 0x730 JUMPI RETURNDATASIZE PUSH1 0x0 DUP1 RETURNDATACOPY RETURNDATASIZE PUSH1 0x0 REVERT JUMPDEST POP POP POP POP JUMPDEST POP POP PUSH1 0x1 PUSH1 0x0 SSTORE JUMP JUMPDEST PUSH1 0x0 PUSH2 0x757 PUSH1 0xA SLOAD PUSH1 0xC SLOAD PUSH2 0xDB6 SWAP1 SWAP2 SWAP1 PUSH4 0xFFFFFFFF AND JUMP JUMPDEST SWAP1 POP SWAP1 JUMP JUMPDEST CALLER PUSH1 0x0 SWAP1 DUP2 MSTORE PUSH1 0x14 PUSH1 0x20 MSTORE PUSH1 0x40 SWAP1 KECCAK256 SLOAD PUSH2 0x775 SWAP1 PUSH2 0xDDA JUMP JUMPDEST PUSH2 0x77D PUSH2 0x5A7 JUMP JUMPDEST JUMP JUMPDEST PUSH2 0x787 PUSH2 0x10B7 JUMP JUMPDEST PUSH1 0x9 SLOAD DUP2 SUB PUSH2 0x7C3 JUMPI PUSH1 0x40 MLOAD PUSH3 0x461BCD PUSH1 0xE5 SHL DUP2 MSTORE PUSH1 0x20 PUSH1 0x4 DUP3 ADD MSTORE PUSH1 0x8 PUSH1 0x24 DUP3 ADD MSTORE PUSH8 0x1CD85B59481C1A59 PUSH1 0xC2 SHL PUSH1 0x44 DUP3 ADD MSTORE PUSH1 0x64 ADD PUSH2 0x5C9 JUMP JUMPDEST PUSH1 0x9 SSTORE JUMP JUMPDEST PUSH2 0x7D0 PUSH2 0x10B7 JUMP JUMPDEST PUSH2 0x77D PUSH1 0x0 PUSH2 0x1111 JUMP JUMPDEST PUSH2 0x7E2 PUSH2 0x10B7 JUMP JUMPDEST PUSH1 0x1 PUSH1 0x1 PUSH1 0xA0 SHL SUB DUP2 AND PUSH2 0x824 JUMPI PUSH1 0x40 MLOAD PUSH3 0x461BCD PUSH1 0xE5 SHL DUP2 MSTORE PUSH1 0x20 PUSH1 0x4 DUP3 ADD MSTORE PUSH1 0x9 PUSH1 0x24 DUP3 ADD MSTORE PUSH9 0x3D32B9379030B23239 PUSH1 0xB9 SHL PUSH1 0x44 DUP3 ADD MSTORE PUSH1 0x64 ADD PUSH2 0x5C9 JUMP JUMPDEST PUSH1 0x5 SLOAD PUSH1 0x1 PUSH1 0x1 PUSH1 0xA0 SHL SUB SWAP1 DUP2 AND SWAP1 DUP3 AND SUB PUSH2 0x86E JUMPI PUSH1 0x40 MLOAD PUSH3 0x461BCD PUSH1 0xE5 SHL DUP2 MSTORE PUSH1 0x20 PUSH1 0x4 DUP3 ADD MSTORE PUSH1 0x9 PUSH1 0x24 DUP3 ADD MSTORE PUSH9 0x39B0B6B29030B23239 PUSH1 0xB9 SHL PUSH1 0x44 DUP3 ADD MSTORE PUSH1 0x64 ADD PUSH2 0x5C9 JUMP JUMPDEST PUSH1 0x5 DUP1 SLOAD PUSH1 0x1 PUSH1 0x1 PUSH1 0xA0 SHL SUB NOT AND PUSH1 0x1 PUSH1 0x1 PUSH1 0xA0 SHL SUB SWAP3 SWAP1 SWAP3 AND SWAP2 SWAP1 SWAP2 OR SWAP1 SSTORE JUMP JUMPDEST PUSH1 0x0 PUSH2 0x757 TIMESTAMP PUSH1 0xB SLOAD PUSH2 0x1163 JUMP JUMPDEST CALLER PUSH1 0x0 SWAP1 DUP2 MSTORE PUSH1 0x14 PUSH1 0x20 MSTORE PUSH1 0x40 SWAP1 KECCAK256 SLOAD PUSH2 0x77D SWAP1 PUSH2 0xDDA JUMP JUMPDEST PUSH1 0x2 PUSH1 0x0 SLOAD SUB PUSH2 0x8D9 JUMPI PUSH1 0x40 MLOAD PUSH3 0x461BCD PUSH1 0xE5 SHL DUP2 MSTORE PUSH1 0x4 ADD PUSH2 0x5C9 SWAP1 PUSH2 0x19F1 JUMP JUMPDEST PUSH1 0x2 PUSH1 0x0 SSTORE PUSH1 0x5 SLOAD PUSH1 0x1 PUSH1 0x1 PUSH1 0xA0 SHL SUB AND CALLER EQ PUSH2 0x94B JUMPI PUSH1 0x40 MLOAD PUSH3 0x461BCD PUSH1 0xE5 SHL DUP2 MSTORE PUSH1 0x20 PUSH1 0x4 DUP3 ADD MSTORE PUSH1 0x2A PUSH1 0x24 DUP3 ADD MSTORE PUSH32 0x43616C6C6572206973206E6F742052657761726473446973747269627574696F PUSH1 0x44 DUP3 ADD MSTORE PUSH10 0x1B8818DBDB9D1C9858DD PUSH1 0xB2 SHL PUSH1 0x64 DUP3 ADD MSTORE PUSH1 0x84 ADD PUSH2 0x5C9 JUMP JUMPDEST PUSH1 0x0 PUSH2 0x955 PUSH2 0xB74 JUMP JUMPDEST PUSH1 0xE SSTORE PUSH2 0x960 PUSH2 0x890 JUMP JUMPDEST PUSH1 0xD SSTORE PUSH1 0x1 PUSH1 0x1 PUSH1 0xA0 SHL SUB DUP2 AND ISZERO PUSH2 0x9A7 JUMPI PUSH2 0x97B DUP2 PUSH2 0x51D JUMP JUMPDEST PUSH1 0x1 PUSH1 0x1 PUSH1 0xA0 SHL SUB DUP3 AND PUSH1 0x0 SWAP1 DUP2 MSTORE PUSH1 0x12 PUSH1 0x20 SWAP1 DUP2 MSTORE PUSH1 0x40 DUP1 DUP4 KECCAK256 SWAP4 SWAP1 SWAP4 SSTORE PUSH1 0xE SLOAD PUSH1 0x11 SWAP1 SWAP2 MSTORE SWAP2 SWAP1 KECCAK256 SSTORE JUMPDEST PUSH1 0x2 SLOAD PUSH1 0x1 PUSH1 0x1 PUSH1 0xA0 SHL SUB DUP5 DUP2 AND SWAP2 AND EQ PUSH2 0x9C1 JUMPI PUSH1 0x0 DUP1 REVERT JUMPDEST PUSH1 0x5 SLOAD PUSH1 0x2 SLOAD PUSH2 0x9DF SWAP2 PUSH1 0x1 PUSH1 0x1 PUSH1 0xA0 SHL SUB SWAP2 DUP3 AND SWAP2 AND ADDRESS DUP6 PUSH2 0x1179 JUMP JUMPDEST PUSH1 0xB SLOAD TIMESTAMP LT PUSH2 0x9FE JUMPI PUSH1 0xA SLOAD PUSH2 0x9F6 SWAP1 DUP4 SWAP1 PUSH2 0xDC2 JUMP JUMPDEST PUSH1 0xC SSTORE PUSH2 0xA41 JUMP JUMPDEST PUSH1 0xB SLOAD PUSH1 0x0 SWAP1 PUSH2 0xA0E SWAP1 TIMESTAMP PUSH2 0xDA3 JUMP JUMPDEST SWAP1 POP PUSH1 0x0 PUSH2 0xA27 PUSH1 0xC SLOAD DUP4 PUSH2 0xDB6 SWAP1 SWAP2 SWAP1 PUSH4 0xFFFFFFFF AND JUMP JUMPDEST PUSH1 0xA SLOAD SWAP1 SWAP2 POP PUSH2 0xA3B SWAP1 PUSH2 0x589 DUP7 DUP5 PUSH2 0xDCE JUMP JUMPDEST PUSH1 0xC SSTORE POP POP JUMPDEST PUSH1 0x2 SLOAD PUSH1 0x40 MLOAD PUSH4 0x70A08231 PUSH1 0xE0 SHL DUP2 MSTORE ADDRESS PUSH1 0x4 DUP3 ADD MSTORE PUSH1 0x0 SWAP2 PUSH1 0x1 PUSH1 0x1 PUSH1 0xA0 SHL SUB AND SWAP1 PUSH4 0x70A08231 SWAP1 PUSH1 0x24 ADD PUSH1 0x20 PUSH1 0x40 MLOAD DUP1 DUP4 SUB DUP2 DUP7 GAS STATICCALL ISZERO DUP1 ISZERO PUSH2 0xA8A JUMPI RETURNDATASIZE PUSH1 0x0 DUP1 RETURNDATACOPY RETURNDATASIZE PUSH1 0x0 REVERT JUMPDEST POP POP POP POP PUSH1 0x40 MLOAD RETURNDATASIZE PUSH1 0x1F NOT PUSH1 0x1F DUP3 ADD AND DUP3 ADD DUP1 PUSH1 0x40 MSTORE POP DUP2 ADD SWAP1 PUSH2 0xAAE SWAP2 SWAP1 PUSH2 0x1A57 JUMP JUMPDEST SWAP1 POP PUSH2 0xAC5 PUSH1 0xA SLOAD DUP3 PUSH2 0xDC2 SWAP1 SWAP2 SWAP1 PUSH4 0xFFFFFFFF AND JUMP JUMPDEST PUSH1 0xC SLOAD GT ISZERO PUSH2 0xB16 JUMPI PUSH1 0x40 MLOAD PUSH3 0x461BCD PUSH1 0xE5 SHL DUP2 MSTORE PUSH1 0x20 PUSH1 0x4 DUP3 ADD MSTORE PUSH1 0x18 PUSH1 0x24 DUP3 ADD MSTORE PUSH32 0x50726F76696465642072657761726420746F6F20686967680000000000000000 PUSH1 0x44 DUP3 ADD MSTORE PUSH1 0x64 ADD PUSH2 0x5C9 JUMP JUMPDEST TIMESTAMP PUSH1 0xD DUP2 SWAP1 SSTORE PUSH1 0xA SLOAD PUSH2 0xB29 SWAP2 SWAP1 PUSH2 0xDCE JUMP JUMPDEST PUSH1 0xB SSTORE PUSH1 0x40 MLOAD DUP4 DUP2 MSTORE PUSH32 0xDE88A922E0D3B88B24E9623EFEB464919C6BF9F66857A65E2BFCF2CE87A9433D SWAP1 PUSH1 0x20 ADD PUSH1 0x40 MLOAD DUP1 SWAP2 SUB SWAP1 LOG1 POP POP PUSH1 0x1 PUSH1 0x0 SSTORE POP POP JUMP JUMPDEST PUSH2 0x5A4 DUP2 CALLER PUSH2 0x11B7 JUMP JUMPDEST PUSH1 0x0 PUSH1 0x13 SLOAD PUSH1 0x0 SUB PUSH2 0xB87 JUMPI POP PUSH1 0xE SLOAD SWAP1 JUMP JUMPDEST PUSH2 0x757 PUSH2 0xBB6 PUSH1 0x13 SLOAD PUSH2 0x589 PUSH8 0xDE0B6B3A7640000 PUSH2 0xBB0 PUSH1 0xC SLOAD PUSH2 0xBB0 PUSH1 0xD SLOAD PUSH2 0x564 PUSH2 0x890 JUMP JUMPDEST SWAP1 PUSH2 0xDB6 JUMP JUMPDEST PUSH1 0xE SLOAD SWAP1 PUSH2 0xDCE JUMP JUMPDEST PUSH1 0x0 DUP1 PUSH1 0x2 PUSH1 0x0 SLOAD SUB PUSH2 0xBE4 JUMPI PUSH1 0x40 MLOAD PUSH3 0x461BCD PUSH1 0xE5 SHL DUP2 MSTORE PUSH1 0x4 ADD PUSH2 0x5C9 SWAP1 PUSH2 0x19F1 JUMP JUMPDEST PUSH1 0x2 PUSH1 0x0 SSTORE PUSH2 0xBF1 PUSH2 0x13C8 JUMP JUMPDEST SWAP2 POP SWAP2 POP PUSH1 0x1 PUSH1 0x0 SSTORE SWAP1 SWAP2 JUMP JUMPDEST PUSH1 0x4 DUP1 SLOAD PUSH1 0x40 MLOAD PUSH4 0x70A08231 PUSH1 0xE0 SHL DUP2 MSTORE CALLER SWAP3 DUP2 ADD SWAP3 SWAP1 SWAP3 MSTORE PUSH2 0x77D SWAP2 PUSH1 0x1 PUSH1 0x1 PUSH1 0xA0 SHL SUB SWAP1 SWAP2 AND SWAP1 PUSH4 0x70A08231 SWAP1 PUSH1 0x24 ADD PUSH1 0x20 PUSH1 0x40 MLOAD DUP1 DUP4 SUB DUP2 DUP7 GAS STATICCALL ISZERO DUP1 ISZERO PUSH2 0xC4D JUMPI RETURNDATASIZE PUSH1 0x0 DUP1 RETURNDATACOPY RETURNDATASIZE PUSH1 0x0 REVERT JUMPDEST POP POP POP POP PUSH1 0x40 MLOAD RETURNDATASIZE PUSH1 0x1F NOT PUSH1 0x1F DUP3 ADD AND DUP3 ADD DUP1 PUSH1 0x40 MSTORE POP DUP2 ADD SWAP1 PUSH2 0xC71 SWAP2 SWAP1 PUSH2 0x1A57 JUMP JUMPDEST CALLER PUSH2 0x11B7 JUMP JUMPDEST PUSH2 0xC7F PUSH2 0x10B7 JUMP JUMPDEST PUSH1 0x1 PUSH1 0x1 PUSH1 0xA0 SHL SUB DUP2 AND PUSH2 0xCE4 JUMPI PUSH1 0x40 MLOAD PUSH3 0x461BCD PUSH1 0xE5 SHL DUP2 MSTORE PUSH1 0x20 PUSH1 0x4 DUP3 ADD MSTORE PUSH1 0x26 PUSH1 0x24 DUP3 ADD MSTORE PUSH32 0x4F776E61626C653A206E6577206F776E657220697320746865207A65726F2061 PUSH1 0x44 DUP3 ADD MSTORE PUSH6 0x646472657373 PUSH1 0xD0 SHL PUSH1 0x64 DUP3 ADD MSTORE PUSH1 0x84 ADD PUSH2 0x5C9 JUMP JUMPDEST PUSH2 0x5A4 DUP2 PUSH2 0x1111 JUMP JUMPDEST PUSH2 0xCF5 PUSH2 0x10B7 JUMP JUMPDEST PUSH1 0x1 PUSH1 0x1 PUSH1 0xA0 SHL SUB DUP2 AND PUSH2 0xD37 JUMPI PUSH1 0x40 MLOAD PUSH3 0x461BCD PUSH1 0xE5 SHL DUP2 MSTORE PUSH1 0x20 PUSH1 0x4 DUP3 ADD MSTORE PUSH1 0x9 PUSH1 0x24 DUP3 ADD MSTORE PUSH9 0x3D32B9379030B23239 PUSH1 0xB9 SHL PUSH1 0x44 DUP3 ADD MSTORE PUSH1 0x64 ADD PUSH2 0x5C9 JUMP JUMPDEST PUSH1 0x6 SLOAD PUSH1 0x1 PUSH1 0x1 PUSH1 0xA0 SHL SUB SWAP1 DUP2 AND SWAP1 DUP3 AND SUB PUSH2 0xD81 JUMPI PUSH1 0x40 MLOAD PUSH3 0x461BCD PUSH1 0xE5 SHL DUP2 MSTORE PUSH1 0x20 PUSH1 0x4 DUP3 ADD MSTORE PUSH1 0x9 PUSH1 0x24 DUP3 ADD MSTORE PUSH9 0x39B0B6B29030B23239 PUSH1 0xB9 SHL PUSH1 0x44 DUP3 ADD MSTORE PUSH1 0x64 ADD PUSH2 0x5C9 JUMP JUMPDEST PUSH1 0x6 DUP1 SLOAD PUSH1 0x1 PUSH1 0x1 PUSH1 0xA0 SHL SUB NOT AND PUSH1 0x1 PUSH1 0x1 PUSH1 0xA0 SHL SUB SWAP3 SWAP1 SWAP3 AND SWAP2 SWAP1 SWAP2 OR SWAP1 SSTORE JUMP JUMPDEST PUSH1 0x0 PUSH2 0xDAF DUP3 DUP5 PUSH2 0x1A86 JUMP JUMPDEST SWAP4 SWAP3 POP POP POP JUMP JUMPDEST PUSH1 0x0 PUSH2 0xDAF DUP3 DUP5 PUSH2 0x1A9D JUMP JUMPDEST PUSH1 0x0 PUSH2 0xDAF DUP3 DUP5 PUSH2 0x1ABC JUMP JUMPDEST PUSH1 0x0 PUSH2 0xDAF DUP3 DUP5 PUSH2 0x1ADE JUMP JUMPDEST PUSH1 0x2 PUSH1 0x0 SLOAD SUB PUSH2 0xDFC JUMPI PUSH1 0x40 MLOAD PUSH3 0x461BCD PUSH1 0xE5 SHL DUP2 MSTORE PUSH1 0x4 ADD PUSH2 0x5C9 SWAP1 PUSH2 0x19F1 JUMP JUMPDEST PUSH1 0x2 PUSH1 0x0 SSTORE CALLER PUSH2 0xE0A PUSH2 0xB74 JUMP JUMPDEST PUSH1 0xE SSTORE PUSH2 0xE15 PUSH2 0x890 JUMP JUMPDEST PUSH1 0xD SSTORE PUSH1 0x1 PUSH1 0x1 PUSH1 0xA0 SHL SUB DUP2 AND ISZERO PUSH2 0xE5C JUMPI PUSH2 0xE30 DUP2 PUSH2 0x51D JUMP JUMPDEST PUSH1 0x1 PUSH1 0x1 PUSH1 0xA0 SHL SUB DUP3 AND PUSH1 0x0 SWAP1 DUP2 MSTORE PUSH1 0x12 PUSH1 0x20 SWAP1 DUP2 MSTORE PUSH1 0x40 DUP1 DUP4 KECCAK256 SWAP4 SWAP1 SWAP4 SSTORE PUSH1 0xE SLOAD PUSH1 0x11 SWAP1 SWAP2 MSTORE SWAP2 SWAP1 KECCAK256 SSTORE JUMPDEST PUSH1 0x0 DUP3 GT PUSH2 0xEA0 JUMPI PUSH1 0x40 MLOAD PUSH3 0x461BCD PUSH1 0xE5 SHL DUP2 MSTORE PUSH1 0x20 PUSH1 0x4 DUP3 ADD MSTORE PUSH1 0x11 PUSH1 0x24 DUP3 ADD MSTORE PUSH17 0x43616E6E6F74207769746864726177203 PUSH1 0x7C SHL PUSH1 0x44 DUP3 ADD MSTORE PUSH1 0x64 ADD PUSH2 0x5C9 JUMP JUMPDEST PUSH1 0x13 SLOAD PUSH1 0x0 SWAP1 PUSH2 0xEB0 SWAP1 DUP5 PUSH2 0xDA3 JUMP JUMPDEST LT ISZERO PUSH2 0xEEB JUMPI PUSH1 0x40 MLOAD PUSH3 0x461BCD PUSH1 0xE5 SHL DUP2 MSTORE PUSH1 0x20 PUSH1 0x4 DUP3 ADD MSTORE PUSH1 0xA PUSH1 0x24 DUP3 ADD MSTORE PUSH10 0x737570706C79203C203 PUSH1 0xB4 SHL PUSH1 0x44 DUP3 ADD MSTORE PUSH1 0x64 ADD PUSH2 0x5C9 JUMP JUMPDEST CALLER PUSH1 0x0 SWAP1 DUP2 MSTORE PUSH1 0x14 PUSH1 0x20 MSTORE PUSH1 0x40 SWAP1 KECCAK256 SLOAD PUSH2 0xF35 JUMPI PUSH1 0x40 MLOAD PUSH3 0x461BCD PUSH1 0xE5 SHL DUP2 MSTORE PUSH1 0x20 PUSH1 0x4 DUP3 ADD MSTORE PUSH1 0xB PUSH1 0x24 DUP3 ADD MSTORE PUSH11 0x6E6F2062616C616E636573 PUSH1 0xA8 SHL PUSH1 0x44 DUP3 ADD MSTORE PUSH1 0x64 ADD PUSH2 0x5C9 JUMP JUMPDEST PUSH1 0x13 SLOAD PUSH2 0xF42 SWAP1 DUP4 PUSH2 0xDA3 JUMP JUMPDEST PUSH1 0x13 SSTORE CALLER PUSH1 0x0 SWAP1 DUP2 MSTORE PUSH1 0x14 PUSH1 0x20 MSTORE PUSH1 0x40 SWAP1 KECCAK256 SLOAD PUSH2 0xF5F SWAP1 DUP4 PUSH2 0xDA3 JUMP JUMPDEST CALLER PUSH1 0x0 SWAP1 DUP2 MSTORE PUSH1 0x14 PUSH1 0x20 MSTORE PUSH1 0x40 SWAP1 KECCAK256 SSTORE PUSH1 0x6 SLOAD PUSH1 0x1 PUSH1 0x1 PUSH1 0xA0 SHL SUB AND ISZERO PUSH2 0xFFA JUMPI PUSH1 0x6 SLOAD PUSH1 0x9 SLOAD CALLER PUSH1 0x0 DUP2 DUP2 MSTORE PUSH1 0x14 PUSH1 0x20 MSTORE PUSH1 0x40 DUP1 DUP3 KECCAK256 SLOAD SWAP1 MLOAD PUSH4 0x44AF0FA7 PUSH1 0xE0 SHL DUP2 MSTORE PUSH1 0x1 PUSH1 0x1 PUSH1 0xA0 SHL SUB SWAP1 SWAP6 AND SWAP5 PUSH4 0x44AF0FA7 SWAP5 PUSH2 0xFC7 SWAP5 SWAP1 SWAP4 SWAP1 SWAP3 DUP4 SWAP3 PUSH1 0x4 ADD PUSH2 0x1A28 JUMP JUMPDEST PUSH1 0x0 PUSH1 0x40 MLOAD DUP1 DUP4 SUB DUP2 PUSH1 0x0 DUP8 DUP1 EXTCODESIZE ISZERO DUP1 ISZERO PUSH2 0xFE1 JUMPI PUSH1 0x0 DUP1 REVERT JUMPDEST POP GAS CALL ISZERO DUP1 ISZERO PUSH2 0xFF5 JUMPI RETURNDATASIZE PUSH1 0x0 DUP1 RETURNDATACOPY RETURNDATASIZE PUSH1 0x0 REVERT JUMPDEST POP POP POP POP JUMPDEST PUSH1 0x4 SLOAD PUSH2 0x1011 SWAP1 PUSH1 0x1 PUSH1 0x1 PUSH1 0xA0 SHL SUB AND CALLER DUP5 PUSH2 0x104F JUMP JUMPDEST PUSH1 0x40 MLOAD DUP3 DUP2 MSTORE CALLER SWAP1 PUSH32 0x884EDAD9CE6FA2440D8A54CC123490EB96D2768479D49FF9C7366125A9424364 SWAP1 PUSH1 0x20 ADD PUSH1 0x40 MLOAD DUP1 SWAP2 SUB SWAP1 LOG2 POP POP PUSH1 0x1 PUSH1 0x0 SSTORE JUMP JUMPDEST PUSH1 0x40 MLOAD PUSH1 0x1 PUSH1 0x1 PUSH1 0xA0 SHL SUB DUP4 AND PUSH1 0x24 DUP3 ADD MSTORE PUSH1 0x44 DUP2 ADD DUP3 SWAP1 MSTORE PUSH2 0x10B2 SWAP1 DUP5 SWAP1 PUSH4 0xA9059CBB PUSH1 0xE0 SHL SWAP1 PUSH1 0x64 ADD JUMPDEST PUSH1 0x40 DUP1 MLOAD PUSH1 0x1F NOT DUP2 DUP5 SUB ADD DUP2 MSTORE SWAP2 SWAP1 MSTORE PUSH1 0x20 DUP2 ADD DUP1 MLOAD PUSH1 0x1 PUSH1 0x1 PUSH1 0xE0 SHL SUB AND PUSH1 0x1 PUSH1 0x1 PUSH1 0xE0 SHL SUB NOT SWAP1 SWAP4 AND SWAP3 SWAP1 SWAP3 OR SWAP1 SWAP2 MSTORE PUSH2 0x1727 JUMP JUMPDEST POP POP POP JUMP JUMPDEST PUSH1 0x1 SLOAD PUSH1 0x1 PUSH1 0x1 PUSH1 0xA0 SHL SUB AND CALLER EQ PUSH2 0x77D JUMPI PUSH1 0x40 MLOAD PUSH3 0x461BCD PUSH1 0xE5 SHL DUP2 MSTORE PUSH1 0x20 PUSH1 0x4 DUP3 ADD DUP2 SWAP1 MSTORE PUSH1 0x24 DUP3 ADD MSTORE PUSH32 0x4F776E61626C653A2063616C6C6572206973206E6F7420746865206F776E6572 PUSH1 0x44 DUP3 ADD MSTORE PUSH1 0x64 ADD PUSH2 0x5C9 JUMP JUMPDEST PUSH1 0x1 DUP1 SLOAD PUSH1 0x1 PUSH1 0x1 PUSH1 0xA0 SHL SUB DUP4 DUP2 AND PUSH1 0x1 PUSH1 0x1 PUSH1 0xA0 SHL SUB NOT DUP4 AND DUP2 OR SWAP1 SWAP4 SSTORE PUSH1 0x40 MLOAD SWAP2 AND SWAP2 SWAP1 DUP3 SWAP1 PUSH32 0x8BE0079C531659141344CD1FD0A4F28419497F9722A3DAAFE3B4186F6B6457E0 SWAP1 PUSH1 0x0 SWAP1 LOG3 POP POP JUMP JUMPDEST PUSH1 0x0 DUP2 DUP4 LT PUSH2 0x1172 JUMPI DUP2 PUSH2 0xDAF JUMP JUMPDEST POP SWAP1 SWAP2 SWAP1 POP JUMP JUMPDEST PUSH1 0x40 MLOAD PUSH1 0x1 PUSH1 0x1 PUSH1 0xA0 SHL SUB DUP1 DUP6 AND PUSH1 0x24 DUP4 ADD MSTORE DUP4 AND PUSH1 0x44 DUP3 ADD MSTORE PUSH1 0x64 DUP2 ADD DUP3 SWAP1 MSTORE PUSH2 0x11B1 SWAP1 DUP6 SWAP1 PUSH4 0x23B872DD PUSH1 0xE0 SHL SWAP1 PUSH1 0x84 ADD PUSH2 0x107B JUMP JUMPDEST POP POP POP POP JUMP JUMPDEST PUSH1 0x2 PUSH1 0x0 SLOAD SUB PUSH2 0x11D9 JUMPI PUSH1 0x40 MLOAD PUSH3 0x461BCD PUSH1 0xE5 SHL DUP2 MSTORE PUSH1 0x4 ADD PUSH2 0x5C9 SWAP1 PUSH2 0x19F1 JUMP JUMPDEST PUSH1 0x2 PUSH1 0x0 SSTORE DUP1 PUSH2 0x11E7 PUSH2 0xB74 JUMP JUMPDEST PUSH1 0xE SSTORE PUSH2 0x11F2 PUSH2 0x890 JUMP JUMPDEST PUSH1 0xD SSTORE PUSH1 0x1 PUSH1 0x1 PUSH1 0xA0 SHL SUB DUP2 AND ISZERO PUSH2 0x1239 JUMPI PUSH2 0x120D DUP2 PUSH2 0x51D JUMP JUMPDEST PUSH1 0x1 PUSH1 0x1 PUSH1 0xA0 SHL SUB DUP3 AND PUSH1 0x0 SWAP1 DUP2 MSTORE PUSH1 0x12 PUSH1 0x20 SWAP1 DUP2 MSTORE PUSH1 0x40 DUP1 DUP4 KECCAK256 SWAP4 SWAP1 SWAP4 SSTORE PUSH1 0xE SLOAD PUSH1 0x11 SWAP1 SWAP2 MSTORE SWAP2 SWAP1 KECCAK256 SSTORE JUMPDEST PUSH1 0x0 DUP4 GT PUSH2 0x1289 JUMPI PUSH1 0x40 MLOAD PUSH3 0x461BCD PUSH1 0xE5 SHL DUP2 MSTORE PUSH1 0x20 PUSH1 0x4 DUP3 ADD MSTORE PUSH1 0x1E PUSH1 0x24 DUP3 ADD MSTORE PUSH32 0x6465706F736974284761756765293A2063616E6E6F74207374616B6520300000 PUSH1 0x44 DUP3 ADD MSTORE PUSH1 0x64 ADD PUSH2 0x5C9 JUMP JUMPDEST PUSH1 0x1 PUSH1 0x1 PUSH1 0xA0 SHL SUB DUP3 AND PUSH1 0x0 SWAP1 DUP2 MSTORE PUSH1 0x14 PUSH1 0x20 MSTORE PUSH1 0x40 SWAP1 KECCAK256 SLOAD PUSH2 0x12AC SWAP1 DUP5 PUSH2 0xDCE JUMP JUMPDEST PUSH1 0x1 PUSH1 0x1 PUSH1 0xA0 SHL SUB DUP4 AND PUSH1 0x0 SWAP1 DUP2 MSTORE PUSH1 0x14 PUSH1 0x20 MSTORE PUSH1 0x40 SWAP1 KECCAK256 SSTORE PUSH1 0x13 SLOAD PUSH2 0x12D2 SWAP1 DUP5 PUSH2 0xDCE JUMP JUMPDEST PUSH1 0x13 SSTORE PUSH1 0x4 SLOAD PUSH2 0x12ED SWAP1 PUSH1 0x1 PUSH1 0x1 PUSH1 0xA0 SHL SUB AND DUP4 ADDRESS DUP7 PUSH2 0x1179 JUMP JUMPDEST PUSH1 0x6 SLOAD PUSH1 0x1 PUSH1 0x1 PUSH1 0xA0 SHL SUB AND ISZERO PUSH2 0x137B JUMPI PUSH1 0x6 SLOAD PUSH1 0x9 SLOAD PUSH1 0x1 PUSH1 0x1 PUSH1 0xA0 SHL SUB DUP5 DUP2 AND PUSH1 0x0 SWAP1 DUP2 MSTORE PUSH1 0x14 PUSH1 0x20 MSTORE PUSH1 0x40 DUP1 DUP3 KECCAK256 SLOAD SWAP1 MLOAD PUSH4 0x44AF0FA7 PUSH1 0xE0 SHL DUP2 MSTORE SWAP3 SWAP1 SWAP5 AND SWAP4 PUSH4 0x44AF0FA7 SWAP4 PUSH2 0x1348 SWAP4 SWAP1 SWAP3 DUP9 SWAP3 DUP4 SWAP3 PUSH1 0x4 ADD PUSH2 0x1A28 JUMP JUMPDEST PUSH1 0x0 PUSH1 0x40 MLOAD DUP1 DUP4 SUB DUP2 PUSH1 0x0 DUP8 DUP1 EXTCODESIZE ISZERO DUP1 ISZERO PUSH2 0x1362 JUMPI PUSH1 0x0 DUP1 REVERT JUMPDEST POP GAS CALL ISZERO DUP1 ISZERO PUSH2 0x1376 JUMPI RETURNDATASIZE PUSH1 0x0 DUP1 RETURNDATACOPY RETURNDATASIZE PUSH1 0x0 REVERT JUMPDEST POP POP POP POP JUMPDEST DUP2 PUSH1 0x1 PUSH1 0x1 PUSH1 0xA0 SHL SUB AND PUSH32 0xE1FFFCC4923D04B559F4D29A8BFC6CDA04EB5B0D3C460751C2402C5C5CC9109C DUP5 PUSH1 0x40 MLOAD PUSH2 0x13B6 SWAP2 DUP2 MSTORE PUSH1 0x20 ADD SWAP1 JUMP JUMPDEST PUSH1 0x40 MLOAD DUP1 SWAP2 SUB SWAP1 LOG2 POP POP PUSH1 0x1 PUSH1 0x0 SSTORE POP JUMP JUMPDEST PUSH1 0x1 SLOAD PUSH1 0x0 SWAP1 DUP2 SWAP1 PUSH1 0x1 PUSH1 0xA0 SHL SWAP1 DIV PUSH1 0xFF AND PUSH2 0x13E7 JUMPI POP PUSH1 0x0 SWAP2 DUP3 SWAP2 POP JUMP JUMPDEST PUSH1 0x4 DUP1 SLOAD PUSH1 0x40 DUP1 MLOAD PUSH4 0xD294F093 PUSH1 0xE0 SHL DUP2 MSTORE DUP2 MLOAD PUSH1 0x1 PUSH1 0x1 PUSH1 0xA0 SHL SUB SWAP1 SWAP4 AND SWAP4 DUP5 SWAP4 PUSH4 0xD294F093 SWAP4 DUP4 DUP4 ADD SWAP4 SWAP1 SWAP3 SWAP1 DUP3 SWAP1 SUB ADD DUP2 PUSH1 0x0 DUP8 GAS CALL ISZERO DUP1 ISZERO PUSH2 0x1431 JUMPI RETURNDATASIZE PUSH1 0x0 DUP1 RETURNDATACOPY RETURNDATASIZE PUSH1 0x0 REVERT JUMPDEST POP POP POP POP PUSH1 0x40 MLOAD RETURNDATASIZE PUSH1 0x1F NOT PUSH1 0x1F DUP3 ADD AND DUP3 ADD DUP1 PUSH1 0x40 MSTORE POP DUP2 ADD SWAP1 PUSH2 0x1455 SWAP2 SWAP1 PUSH2 0x1AF6 JUMP JUMPDEST SWAP1 SWAP4 POP SWAP2 POP DUP3 ISZERO ISZERO DUP1 PUSH2 0x1468 JUMPI POP PUSH1 0x0 DUP3 GT JUMPDEST ISZERO PUSH2 0x1722 JUMPI PUSH1 0x0 DUP4 PUSH1 0xF SLOAD PUSH2 0x147D SWAP2 SWAP1 PUSH2 0x1ADE JUMP JUMPDEST SWAP1 POP PUSH1 0x0 DUP4 PUSH1 0x10 SLOAD PUSH2 0x148F SWAP2 SWAP1 PUSH2 0x1ADE JUMP JUMPDEST SWAP1 POP PUSH1 0x0 DUP1 DUP5 PUSH1 0x1 PUSH1 0x1 PUSH1 0xA0 SHL SUB AND PUSH4 0x9D63848A PUSH1 0x40 MLOAD DUP2 PUSH4 0xFFFFFFFF AND PUSH1 0xE0 SHL DUP2 MSTORE PUSH1 0x4 ADD PUSH1 0x40 DUP1 MLOAD DUP1 DUP4 SUB DUP2 DUP7 GAS STATICCALL ISZERO DUP1 ISZERO PUSH2 0x14D1 JUMPI RETURNDATASIZE PUSH1 0x0 DUP1 RETURNDATACOPY RETURNDATASIZE PUSH1 0x0 REVERT JUMPDEST POP POP POP POP PUSH1 0x40 MLOAD RETURNDATASIZE PUSH1 0x1F NOT PUSH1 0x1F DUP3 ADD AND DUP3 ADD DUP1 PUSH1 0x40 MSTORE POP DUP2 ADD SWAP1 PUSH2 0x14F5 SWAP2 SWAP1 PUSH2 0x1B1A JUMP JUMPDEST SWAP1 SWAP3 POP SWAP1 POP DUP4 ISZERO PUSH2 0x15E8 JUMPI PUSH1 0x0 PUSH1 0xF SSTORE PUSH1 0x7 SLOAD PUSH1 0x40 MLOAD PUSH4 0x95EA7B3 PUSH1 0xE0 SHL DUP2 MSTORE PUSH1 0x1 PUSH1 0x1 PUSH1 0xA0 SHL SUB SWAP2 DUP3 AND PUSH1 0x4 DUP3 ADD MSTORE PUSH1 0x24 DUP2 ADD DUP7 SWAP1 MSTORE SWAP1 DUP4 AND SWAP1 PUSH4 0x95EA7B3 SWAP1 PUSH1 0x44 ADD PUSH1 0x20 PUSH1 0x40 MLOAD DUP1 DUP4 SUB DUP2 PUSH1 0x0 DUP8 GAS CALL ISZERO DUP1 ISZERO PUSH2 0x1558 JUMPI RETURNDATASIZE PUSH1 0x0 DUP1 RETURNDATACOPY RETURNDATASIZE PUSH1 0x0 REVERT JUMPDEST POP POP POP POP PUSH1 0x40 MLOAD RETURNDATASIZE PUSH1 0x1F NOT PUSH1 0x1F DUP3 ADD AND DUP3 ADD DUP1 PUSH1 0x40 MSTORE POP DUP2 ADD SWAP1 PUSH2 0x157C SWAP2 SWAP1 PUSH2 0x1B54 JUMP JUMPDEST POP PUSH1 0x7 SLOAD PUSH1 0x40 MLOAD PUSH4 0xB66503CF PUSH1 0xE0 SHL DUP2 MSTORE PUSH1 0x1 PUSH1 0x1 PUSH1 0xA0 SHL SUB DUP5 DUP2 AND PUSH1 0x4 DUP4 ADD MSTORE PUSH1 0x24 DUP3 ADD DUP8 SWAP1 MSTORE SWAP1 SWAP2 AND SWAP1 PUSH4 0xB66503CF SWAP1 PUSH1 0x44 ADD PUSH1 0x0 PUSH1 0x40 MLOAD DUP1 DUP4 SUB DUP2 PUSH1 0x0 DUP8 DUP1 EXTCODESIZE ISZERO DUP1 ISZERO PUSH2 0x15CB JUMPI PUSH1 0x0 DUP1 REVERT JUMPDEST POP GAS CALL ISZERO DUP1 ISZERO PUSH2 0x15DF JUMPI RETURNDATASIZE PUSH1 0x0 DUP1 RETURNDATACOPY RETURNDATASIZE PUSH1 0x0 REVERT JUMPDEST POP POP POP POP PUSH2 0x15EE JUMP JUMPDEST PUSH1 0xF DUP5 SWAP1 SSTORE JUMPDEST DUP3 ISZERO PUSH2 0x16DC JUMPI PUSH1 0x0 PUSH1 0x10 SSTORE PUSH1 0x7 SLOAD PUSH1 0x40 MLOAD PUSH4 0x95EA7B3 PUSH1 0xE0 SHL DUP2 MSTORE PUSH1 0x1 PUSH1 0x1 PUSH1 0xA0 SHL SUB SWAP2 DUP3 AND PUSH1 0x4 DUP3 ADD MSTORE PUSH1 0x24 DUP2 ADD DUP6 SWAP1 MSTORE SWAP1 DUP3 AND SWAP1 PUSH4 0x95EA7B3 SWAP1 PUSH1 0x44 ADD PUSH1 0x20 PUSH1 0x40 MLOAD DUP1 DUP4 SUB DUP2 PUSH1 0x0 DUP8 GAS CALL ISZERO DUP1 ISZERO PUSH2 0x164C JUMPI RETURNDATASIZE PUSH1 0x0 DUP1 RETURNDATACOPY RETURNDATASIZE PUSH1 0x0 REVERT JUMPDEST POP POP POP POP PUSH1 0x40 MLOAD RETURNDATASIZE PUSH1 0x1F NOT PUSH1 0x1F DUP3 ADD AND DUP3 ADD DUP1 PUSH1 0x40 MSTORE POP DUP2 ADD SWAP1 PUSH2 0x1670 SWAP2 SWAP1 PUSH2 0x1B54 JUMP JUMPDEST POP PUSH1 0x7 SLOAD PUSH1 0x40 MLOAD PUSH4 0xB66503CF PUSH1 0xE0 SHL DUP2 MSTORE PUSH1 0x1 PUSH1 0x1 PUSH1 0xA0 SHL SUB DUP4 DUP2 AND PUSH1 0x4 DUP4 ADD MSTORE PUSH1 0x24 DUP3 ADD DUP7 SWAP1 MSTORE SWAP1 SWAP2 AND SWAP1 PUSH4 0xB66503CF SWAP1 PUSH1 0x44 ADD PUSH1 0x0 PUSH1 0x40 MLOAD DUP1 DUP4 SUB DUP2 PUSH1 0x0 DUP8 DUP1 EXTCODESIZE ISZERO DUP1 ISZERO PUSH2 0x16BF JUMPI PUSH1 0x0 DUP1 REVERT JUMPDEST POP GAS CALL ISZERO DUP1 ISZERO PUSH2 0x16D3 JUMPI RETURNDATASIZE PUSH1 0x0 DUP1 RETURNDATACOPY RETURNDATASIZE PUSH1 0x0 REVERT JUMPDEST POP POP POP POP PUSH2 0x16E2 JUMP JUMPDEST PUSH1 0x10 DUP4 SWAP1 SSTORE JUMPDEST PUSH1 0x40 DUP1 MLOAD DUP9 DUP2 MSTORE PUSH1 0x20 DUP2 ADD DUP9 SWAP1 MSTORE CALLER SWAP2 PUSH32 0xBC567D6CBAD26368064BAA0AB5A757BE46AAE4D70F707F9203D9D9B6C8CCBFA3 SWAP2 ADD PUSH1 0x40 MLOAD DUP1 SWAP2 SUB SWAP1 LOG2 POP POP POP POP JUMPDEST POP SWAP1 SWAP2 JUMP JUMPDEST PUSH1 0x0 PUSH2 0x177C DUP3 PUSH1 0x40 MLOAD DUP1 PUSH1 0x40 ADD PUSH1 0x40 MSTORE DUP1 PUSH1 0x20 DUP2 MSTORE PUSH1 0x20 ADD PUSH32 0x5361666545524332303A206C6F772D6C6576656C2063616C6C206661696C6564 DUP2 MSTORE POP DUP6 PUSH1 0x1 PUSH1 0x1 PUSH1 0xA0 SHL SUB AND PUSH2 0x17F9 SWAP1 SWAP3 SWAP2 SWAP1 PUSH4 0xFFFFFFFF AND JUMP JUMPDEST DUP1 MLOAD SWAP1 SWAP2 POP ISZERO PUSH2 0x10B2 JUMPI DUP1 DUP1 PUSH1 0x20 ADD SWAP1 MLOAD DUP2 ADD SWAP1 PUSH2 0x179A SWAP2 SWAP1 PUSH2 0x1B54 JUMP JUMPDEST PUSH2 0x10B2 JUMPI PUSH1 0x40 MLOAD PUSH3 0x461BCD PUSH1 0xE5 SHL DUP2 MSTORE PUSH1 0x20 PUSH1 0x4 DUP3 ADD MSTORE PUSH1 0x2A PUSH1 0x24 DUP3 ADD MSTORE PUSH32 0x5361666545524332303A204552433230206F7065726174696F6E20646964206E PUSH1 0x44 DUP3 ADD MSTORE PUSH10 0x1BDD081CDD58D8D95959 PUSH1 0xB2 SHL PUSH1 0x64 DUP3 ADD MSTORE PUSH1 0x84 ADD PUSH2 0x5C9 JUMP JUMPDEST PUSH1 0x60 PUSH2 0x1808 DUP5 DUP5 PUSH1 0x0 DUP6 PUSH2 0x1810 JUMP JUMPDEST SWAP5 SWAP4 POP POP POP POP JUMP JUMPDEST PUSH1 0x60 DUP3 SELFBALANCE LT ISZERO PUSH2 0x1871 JUMPI PUSH1 0x40 MLOAD PUSH3 0x461BCD PUSH1 0xE5 SHL DUP2 MSTORE PUSH1 0x20 PUSH1 0x4 DUP3 ADD MSTORE PUSH1 0x26 PUSH1 0x24 DUP3 ADD MSTORE PUSH32 0x416464726573733A20696E73756666696369656E742062616C616E636520666F PUSH1 0x44 DUP3 ADD MSTORE PUSH6 0x1C8818D85B1B PUSH1 0xD2 SHL PUSH1 0x64 DUP3 ADD MSTORE PUSH1 0x84 ADD PUSH2 0x5C9 JUMP JUMPDEST PUSH1 0x1 PUSH1 0x1 PUSH1 0xA0 SHL SUB DUP6 AND EXTCODESIZE PUSH2 0x18C8 JUMPI PUSH1 0x40 MLOAD PUSH3 0x461BCD PUSH1 0xE5 SHL DUP2 MSTORE PUSH1 0x20 PUSH1 0x4 DUP3 ADD MSTORE PUSH1 0x1D PUSH1 0x24 DUP3 ADD MSTORE PUSH32 0x416464726573733A2063616C6C20746F206E6F6E2D636F6E7472616374000000 PUSH1 0x44 DUP3 ADD MSTORE PUSH1 0x64 ADD PUSH2 0x5C9 JUMP JUMPDEST PUSH1 0x0 DUP1 DUP7 PUSH1 0x1 PUSH1 0x1 PUSH1 0xA0 SHL SUB AND DUP6 DUP8 PUSH1 0x40 MLOAD PUSH2 0x18E4 SWAP2 SWAP1 PUSH2 0x1BA2 JUMP JUMPDEST PUSH1 0x0 PUSH1 0x40 MLOAD DUP1 DUP4 SUB DUP2 DUP6 DUP8 GAS CALL SWAP3 POP POP POP RETURNDATASIZE DUP1 PUSH1 0x0 DUP2 EQ PUSH2 0x1921 JUMPI PUSH1 0x40 MLOAD SWAP2 POP PUSH1 0x1F NOT PUSH1 0x3F RETURNDATASIZE ADD AND DUP3 ADD PUSH1 0x40 MSTORE RETURNDATASIZE DUP3 MSTORE RETURNDATASIZE PUSH1 0x0 PUSH1 0x20 DUP5 ADD RETURNDATACOPY PUSH2 0x1926 JUMP JUMPDEST PUSH1 0x60 SWAP2 POP JUMPDEST POP SWAP2 POP SWAP2 POP PUSH2 0x1936 DUP3 DUP3 DUP7 PUSH2 0x1941 JUMP JUMPDEST SWAP8 SWAP7 POP POP POP POP POP POP POP JUMP JUMPDEST PUSH1 0x60 DUP4 ISZERO PUSH2 0x1950 JUMPI POP DUP2 PUSH2 0xDAF JUMP JUMPDEST DUP3 MLOAD ISZERO PUSH2 0x1960 JUMPI DUP3 MLOAD DUP1 DUP5 PUSH1 0x20 ADD REVERT JUMPDEST DUP2 PUSH1 0x40 MLOAD PUSH3 0x461BCD PUSH1 0xE5 SHL DUP2 MSTORE PUSH1 0x4 ADD PUSH2 0x5C9 SWAP2 SWAP1 PUSH2 0x1BBE JUMP JUMPDEST PUSH1 0x1 PUSH1 0x1 PUSH1 0xA0 SHL SUB DUP2 AND DUP2 EQ PUSH2 0x5A4 JUMPI PUSH1 0x0 DUP1 REVERT JUMPDEST PUSH1 0x0 PUSH1 0x20 DUP3 DUP5 SUB SLT ISZERO PUSH2 0x19A1 JUMPI PUSH1 0x0 DUP1 REVERT JUMPDEST DUP2 CALLDATALOAD PUSH2 0xDAF DUP2 PUSH2 0x197A JUMP JUMPDEST PUSH1 0x0 PUSH1 0x20 DUP3 DUP5 SUB SLT ISZERO PUSH2 0x19BE JUMPI PUSH1 0x0 DUP1 REVERT JUMPDEST POP CALLDATALOAD SWAP2 SWAP1 POP JUMP JUMPDEST PUSH1 0x0 DUP1 PUSH1 0x40 DUP4 DUP6 SUB SLT ISZERO PUSH2 0x19D8 JUMPI PUSH1 0x0 DUP1 REVERT JUMPDEST DUP3 CALLDATALOAD PUSH2 0x19E3 DUP2 PUSH2 0x197A JUMP JUMPDEST SWAP5 PUSH1 0x20 SWAP4 SWAP1 SWAP4 ADD CALLDATALOAD SWAP4 POP POP POP JUMP JUMPDEST PUSH1 0x20 DUP1 DUP3 MSTORE PUSH1 0x1F SWAP1 DUP3 ADD MSTORE PUSH32 0x5265656E7472616E637947756172643A207265656E7472616E742063616C6C00 PUSH1 0x40 DUP3 ADD MSTORE PUSH1 0x60 ADD SWAP1 JUMP JUMPDEST SWAP5 DUP6 MSTORE PUSH1 0x1 PUSH1 0x1 PUSH1 0xA0 SHL SUB SWAP4 DUP5 AND PUSH1 0x20 DUP7 ADD MSTORE SWAP2 SWAP1 SWAP3 AND PUSH1 0x40 DUP5 ADD MSTORE PUSH1 0x60 DUP4 ADD SWAP2 SWAP1 SWAP2 MSTORE PUSH1 0x80 DUP3 ADD MSTORE PUSH1 0xA0 ADD SWAP1 JUMP JUMPDEST PUSH1 0x0 PUSH1 0x20 DUP3 DUP5 SUB SLT ISZERO PUSH2 0x1A69 JUMPI PUSH1 0x0 DUP1 REVERT JUMPDEST POP MLOAD SWAP2 SWAP1 POP JUMP JUMPDEST PUSH4 0x4E487B71 PUSH1 0xE0 SHL PUSH1 0x0 MSTORE PUSH1 0x11 PUSH1 0x4 MSTORE PUSH1 0x24 PUSH1 0x0 REVERT JUMPDEST PUSH1 0x0 DUP3 DUP3 LT ISZERO PUSH2 0x1A98 JUMPI PUSH2 0x1A98 PUSH2 0x1A70 JUMP JUMPDEST POP SUB SWAP1 JUMP JUMPDEST PUSH1 0x0 DUP2 PUSH1 0x0 NOT DIV DUP4 GT DUP3 ISZERO ISZERO AND ISZERO PUSH2 0x1AB7 JUMPI PUSH2 0x1AB7 PUSH2 0x1A70 JUMP JUMPDEST POP MUL SWAP1 JUMP JUMPDEST PUSH1 0x0 DUP3 PUSH2 0x1AD9 JUMPI PUSH4 0x4E487B71 PUSH1 0xE0 SHL PUSH1 0x0 MSTORE PUSH1 0x12 PUSH1 0x4 MSTORE PUSH1 0x24 PUSH1 0x0 REVERT JUMPDEST POP DIV SWAP1 JUMP JUMPDEST PUSH1 0x0 DUP3 NOT DUP3 GT ISZERO PUSH2 0x1AF1 JUMPI PUSH2 0x1AF1 PUSH2 0x1A70 JUMP JUMPDEST POP ADD SWAP1 JUMP JUMPDEST PUSH1 0x0 DUP1 PUSH1 0x40 DUP4 DUP6 SUB SLT ISZERO PUSH2 0x1B09 JUMPI PUSH1 0x0 DUP1 REVERT JUMPDEST POP POP DUP1 MLOAD PUSH1 0x20 SWAP1 SWAP2 ADD MLOAD SWAP1 SWAP3 SWAP1 SWAP2 POP JUMP JUMPDEST PUSH1 0x0 DUP1 PUSH1 0x40 DUP4 DUP6 SUB SLT ISZERO PUSH2 0x1B2D JUMPI PUSH1 0x0 DUP1 REVERT JUMPDEST DUP3 MLOAD PUSH2 0x1B38 DUP2 PUSH2 0x197A JUMP JUMPDEST PUSH1 0x20 DUP5 ADD MLOAD SWAP1 SWAP3 POP PUSH2 0x1B49 DUP2 PUSH2 0x197A JUMP JUMPDEST DUP1 SWAP2 POP POP SWAP3 POP SWAP3 SWAP1 POP JUMP JUMPDEST PUSH1 0x0 PUSH1 0x20 DUP3 DUP5 SUB SLT ISZERO PUSH2 0x1B66 JUMPI PUSH1 0x0 DUP1 REVERT JUMPDEST DUP2 MLOAD DUP1 ISZERO ISZERO DUP2 EQ PUSH2 0xDAF JUMPI PUSH1 0x0 DUP1 REVERT JUMPDEST PUSH1 0x0 JUMPDEST DUP4 DUP2 LT ISZERO PUSH2 0x1B91 JUMPI DUP2 DUP2 ADD MLOAD DUP4 DUP3 ADD MSTORE PUSH1 0x20 ADD PUSH2 0x1B79 JUMP JUMPDEST DUP4 DUP2 GT ISZERO PUSH2 0x11B1 JUMPI POP POP PUSH1 0x0 SWAP2 ADD MSTORE JUMP JUMPDEST PUSH1 0x0 DUP3 MLOAD PUSH2 0x1BB4 DUP2 DUP5 PUSH1 0x20 DUP8 ADD PUSH2 0x1B76 JUMP JUMPDEST SWAP2 SWAP1 SWAP2 ADD SWAP3 SWAP2 POP POP JUMP JUMPDEST PUSH1 0x20 DUP2 MSTORE PUSH1 0x0 DUP3 MLOAD DUP1 PUSH1 0x20 DUP5 ADD MSTORE PUSH2 0x1BDD DUP2 PUSH1 0x40 DUP6 ADD PUSH1 0x20 DUP8 ADD PUSH2 0x1B76 JUMP JUMPDEST PUSH1 0x1F ADD PUSH1 0x1F NOT AND SWAP2 SWAP1 SWAP2 ADD PUSH1 0x40 ADD SWAP3 SWAP2 POP POP JUMP INVALID LOG2 PUSH5 0x6970667358 0x22 SLT KECCAK256 SWAP15 0xC6 JUMPDEST DUP10 DUP2 0xC8 CALLDATALOAD PUSH25 0x7B12A83F15CD8455D690E1D149C6FAA9DC459E06850E1D6D64 PUSH20 0x6F6C634300080D0033A26469706673582212206A 0xEB 0x2A 0xCA PUSH17 0x1B498F68E8AA5EC806029068DC226AB76D 0xE PUSH11 0xEB1E4D8EA76A5F2364736F PUSH13 0x634300080D0033000000000000 "},"methodIdentifiers":{"createGaugeV3(address,address,address,address,address,address,bool)":"d38c07f8","initialize()":"8129fc1c","last_gauge()":"730a8bdb","owner()":"8da5cb5b","renounceOwnership()":"715018a6","setDistribution(address,address)":"e42d5be0","transferOwnership(address)":"f2fde38b"}},"storageLayout":{"storage":[{"astId":138,"contract":"contracts/factories/GaugeFactoryV3.sol:GaugeFactoryV3","label":"_initialized","offset":0,"slot":"0","type":"t_uint8"},{"astId":141,"contract":"contracts/factories/GaugeFactoryV3.sol:GaugeFactoryV3","label":"_initializing","offset":1,"slot":"0","type":"t_bool"},{"astId":625,"contract":"contracts/factories/GaugeFactoryV3.sol:GaugeFactoryV3","label":"__gap","offset":0,"slot":"1","type":"t_array(t_uint256)50_storage"},{"astId":10,"contract":"contracts/factories/GaugeFactoryV3.sol:GaugeFactoryV3","label":"_owner","offset":0,"slot":"51","type":"t_address"},{"astId":130,"contract":"contracts/factories/GaugeFactoryV3.sol:GaugeFactoryV3","label":"__gap","offset":0,"slot":"52","type":"t_array(t_uint256)49_storage"},{"astId":2822,"contract":"contracts/factories/GaugeFactoryV3.sol:GaugeFactoryV3","label":"last_gauge","offset":0,"slot":"101","type":"t_address"}],"types":{"t_address":{"encoding":"inplace","label":"address","numberOfBytes":"20"},"t_array(t_uint256)49_storage":{"base":"t_uint256","encoding":"inplace","label":"uint256[49]","numberOfBytes":"1568"},"t_array(t_uint256)50_storage":{"base":"t_uint256","encoding":"inplace","label":"uint256[50]","numberOfBytes":"1600"},"t_bool":{"encoding":"inplace","label":"bool","numberOfBytes":"1"},"t_uint256":{"encoding":"inplace","label":"uint256","numberOfBytes":"32"},"t_uint8":{"encoding":"inplace","label":"uint8","numberOfBytes":"1"}}}}}}