{"contracts/StakingNFTFeeConverter.sol":{"StakingNFTFeeConverter":{"abi":[{"inputs":[{"internalType":"address","name":"_wbnb","type":"address"}],"stateMutability":"nonpayable","type":"constructor"},{"anonymous":false,"inputs":[{"indexed":true,"internalType":"address","name":"_pair","type":"address"},{"indexed":false,"internalType":"uint256","name":"timestamp","type":"uint256"}],"name":"ClaimFee","type":"event"},{"anonymous":false,"inputs":[{"indexed":true,"internalType":"address","name":"_pair","type":"address"},{"indexed":false,"internalType":"uint256","name":"timestamp","type":"uint256"}],"name":"ClaimFeeError","type":"event"},{"anonymous":false,"inputs":[{"indexed":false,"internalType":"uint256","name":"_timestamp","type":"uint256"},{"indexed":false,"internalType":"uint256","name":"_wbnbAmount","type":"uint256"}],"name":"StakingReward","type":"event"},{"anonymous":false,"inputs":[{"indexed":true,"internalType":"address","name":"_tokenIn","type":"address"},{"indexed":false,"internalType":"uint256","name":"_balanceIn","type":"uint256"},{"indexed":false,"internalType":"uint256","name":"timestamp","type":"uint256"}],"name":"SwapError","type":"event"},{"anonymous":false,"inputs":[{"indexed":false,"internalType":"address","name":"oldOwner","type":"address"},{"indexed":false,"internalType":"address","name":"newOwner","type":"address"}],"name":"TransferOwnership","type":"event"},{"inputs":[],"name":"_pairs","outputs":[{"internalType":"address[]","name":"","type":"address[]"}],"stateMutability":"view","type":"function"},{"inputs":[],"name":"_tokens","outputs":[{"internalType":"address[]","name":"","type":"address[]"}],"stateMutability":"view","type":"function"},{"inputs":[{"internalType":"address","name":"token","type":"address"},{"components":[{"internalType":"address","name":"from","type":"address"},{"internalType":"address","name":"to","type":"address"},{"internalType":"bool","name":"stable","type":"bool"}],"internalType":"struct IRouter01.route","name":"routes","type":"tuple"}],"name":"addToken","outputs":[],"stateMutability":"nonpayable","type":"function"},{"inputs":[],"name":"claimFees","outputs":[],"stateMutability":"nonpayable","type":"function"},{"inputs":[{"internalType":"address","name":"_pair","type":"address"}],"name":"claimSingleFee","outputs":[],"stateMutability":"nonpayable","type":"function"},{"inputs":[{"internalType":"address","name":"","type":"address"}],"name":"isKeeper","outputs":[{"internalType":"bool","name":"","type":"bool"}],"stateMutability":"view","type":"function"},{"inputs":[{"internalType":"address","name":"","type":"address"}],"name":"isToken","outputs":[{"internalType":"bool","name":"","type":"bool"}],"stateMutability":"view","type":"function"},{"inputs":[],"name":"lastRewardtime","outputs":[{"internalType":"uint256","name":"","type":"uint256"}],"stateMutability":"view","type":"function"},{"inputs":[],"name":"masterchef","outputs":[{"internalType":"address","name":"","type":"address"}],"stateMutability":"view","type":"function"},{"inputs":[],"name":"owner","outputs":[{"internalType":"address","name":"","type":"address"}],"stateMutability":"view","type":"function"},{"inputs":[],"name":"pairFactory","outputs":[{"internalType":"address","name":"","type":"address"}],"stateMutability":"view","type":"function"},{"inputs":[{"internalType":"uint256","name":"","type":"uint256"}],"name":"pairs","outputs":[{"internalType":"address","name":"","type":"address"}],"stateMutability":"view","type":"function"},{"inputs":[{"internalType":"address","name":"_keeper","type":"address"}],"name":"removeKeeper","outputs":[],"stateMutability":"nonpayable","type":"function"},{"inputs":[{"internalType":"address","name":"token","type":"address"}],"name":"removeToken","outputs":[],"stateMutability":"nonpayable","type":"function"},{"inputs":[],"name":"router","outputs":[{"internalType":"address","name":"","type":"address"}],"stateMutability":"view","type":"function"},{"inputs":[],"name":"setDistribution","outputs":[],"stateMutability":"nonpayable","type":"function"},{"inputs":[{"internalType":"address","name":"_keeper","type":"address"}],"name":"setKeeper","outputs":[],"stateMutability":"nonpayable","type":"function"},{"inputs":[{"internalType":"address","name":"_masterchef","type":"address"}],"name":"setMasterchef","outputs":[],"stateMutability":"nonpayable","type":"function"},{"inputs":[{"internalType":"address[]","name":"__pairs","type":"address[]"}],"name":"setPair","outputs":[],"stateMutability":"nonpayable","type":"function"},{"inputs":[{"internalType":"address","name":"_pairFactory","type":"address"}],"name":"setPairFactory","outputs":[],"stateMutability":"nonpayable","type":"function"},{"inputs":[{"internalType":"address","name":"_router","type":"address"}],"name":"setRouter","outputs":[],"stateMutability":"nonpayable","type":"function"},{"inputs":[{"internalType":"address","name":"token","type":"address"},{"components":[{"internalType":"address","name":"from","type":"address"},{"internalType":"address","name":"to","type":"address"},{"internalType":"bool","name":"stable","type":"bool"}],"internalType":"struct IRouter01.route","name":"routes","type":"tuple"}],"name":"setRoutesFor","outputs":[],"stateMutability":"nonpayable","type":"function"},{"inputs":[],"name":"swap","outputs":[],"stateMutability":"nonpayable","type":"function"},{"inputs":[{"internalType":"uint256","name":"amountIn","type":"uint256"},{"internalType":"uint256","name":"amountOutMin","type":"uint256"},{"components":[{"internalType":"address","name":"from","type":"address"},{"internalType":"address","name":"to","type":"address"},{"internalType":"bool","name":"stable","type":"bool"}],"internalType":"struct IRouter01.route[]","name":"_routes","type":"tuple[]"},{"internalType":"uint256","name":"deadline","type":"uint256"}],"name":"swapManual","outputs":[{"internalType":"uint256[]","name":"amounts","type":"uint256[]"}],"stateMutability":"nonpayable","type":"function"},{"inputs":[{"internalType":"address","name":"","type":"address"}],"name":"tokenToRoutes","outputs":[{"internalType":"address","name":"from","type":"address"},{"internalType":"address","name":"to","type":"address"},{"internalType":"bool","name":"stable","type":"bool"}],"stateMutability":"view","type":"function"},{"inputs":[{"internalType":"uint256","name":"","type":"uint256"}],"name":"tokens","outputs":[{"internalType":"address","name":"","type":"address"}],"stateMutability":"view","type":"function"},{"inputs":[{"internalType":"address","name":"newOwner","type":"address"}],"name":"transferOwnership","outputs":[],"stateMutability":"nonpayable","type":"function"},{"inputs":[],"name":"wbnb","outputs":[{"internalType":"address","name":"","type":"address"}],"stateMutability":"view","type":"function"},{"inputs":[{"internalType":"address","name":"_token","type":"address"}],"name":"withdrawERC20","outputs":[],"stateMutability":"nonpayable","type":"function"}],"evm":{"bytecode":{"linkReferences":{},"object":"608060405234801561001057600080fd5b50604051620024303803806200243083398101604081905261003191610068565b60038054336001600160a01b03199182161790915560008055600280549091166001600160a01b0392909216919091179055610098565b60006020828403121561007a57600080fd5b81516001600160a01b038116811461009157600080fd5b9392505050565b61238880620000a86000396000f3fe608060405234801561001057600080fd5b50600436106101ce5760003560e01c80638d72647e11610104578063bd98194c116100a2578063f2fde38b11610071578063f2fde38b14610439578063f4f3b2001461044c578063f887ea401461045f578063fb1db2781461047257600080fd5b8063bd98194c146103f8578063c0d786551461040b578063d294f0931461041e578063e14f870d1461042657600080fd5b8063933baa86116100de578063933baa86146103a85780639fbf5771146103bb578063a0d91a28146103ce578063b91ac788146103e557600080fd5b80638d72647e1461036f5780638da5cb5b146103825780638e6e38461461039557600080fd5b80636ba42aaa116101715780637964bac91161014b5780637964bac91461032c5780638119c0651461033f5780638594e9e6146103475780638970d84c1461036757600080fd5b80636ba42aaa146102ee578063748747e61461031157806374f6b2c51461032457600080fd5b80634b55c2c6116101ad5780634b55c2c6146102335780634f64b2be1461029b578063586960dd146102c65780635fa7b584146102db57600080fd5b8062a0ce06146101d357806314ae9f2e146101e857806319f37361146101fb575b600080fd5b6101e66101e1366004611d8d565b610485565b005b6101e66101f6366004611e2c565b610583565b61021e610209366004611e2c565b60086020526000908152604090205460ff1681565b60405190151581526020015b60405180910390f35b610273610241366004611e2c565b600a60205260009081526040902080546001909101546001600160a01b0391821691811690600160a01b900460ff1683565b604080516001600160a01b03948516815293909216602084015215159082015260600161022a565b6102ae6102a9366004611e50565b61060b565b6040516001600160a01b03909116815260200161022a565b6102ce610635565b60405161022a9190611e69565b6101e66102e9366004611e2c565b610697565b61021e6102fc366004611e2c565b600b6020526000908152604090205460ff1681565b6101e661031f366004611e2c565b61087b565b6101e6610902565b6101e661033a366004611e2c565b610a79565b6101e6610aeb565b61035a610355366004611eb6565b610ef2565b60405161022a9190611f41565b6102ce610fc8565b6002546102ae906001600160a01b031681565b6003546102ae906001600160a01b031681565b6101e66103a3366004611e2c565b611028565b6101e66103b6366004611e2c565b6110da565b6101e66103c9366004611f87565b61114c565b6103d760005481565b60405190815260200161022a565b6102ae6103f3366004611e50565b61126d565b6101e6610406366004611f87565b61127d565b6101e6610419366004611e2c565b61136b565b6101e66113dd565b6005546102ae906001600160a01b031681565b6101e6610447366004611e2c565b611611565b6101e661045a366004611e2c565b611701565b6004546102ae906001600160a01b031681565b6001546102ae906001600160a01b031681565b6003546001600160a01b031633146104b85760405162461bcd60e51b81526004016104af90612022565b60405180910390fd5b60005b815181101561057f5760006001600160a01b03168282815181106104e1576104e1612047565b60200260200101516001600160a01b0316036104fc57600080fd5b61051e82828151811061051157610511612047565b60200260200101516117b6565b600782828151811061053257610532612047565b60209081029190910181015182546001810184556000938452919092200180546001600160a01b0319166001600160a01b039092169190911790558061057781612073565b9150506104bb565b5050565b6003546001600160a01b031633146105ad5760405162461bcd60e51b81526004016104af90612022565b6001600160a01b0381166105c057600080fd5b6001600160a01b0381166000908152600b602052604090205460ff1615156001146105ea57600080fd5b6001600160a01b03166000908152600b60205260409020805460ff19169055565b6006818154811061061b57600080fd5b6000918252602090912001546001600160a01b0316905081565b6060600780548060200260200160405190810160405280929190818152602001828054801561068d57602002820191906000526020600020905b81546001600160a01b0316815260019091019060200180831161066f575b5050505050905090565b6003546001600160a01b031633146106c15760405162461bcd60e51b81526004016104af90612022565b6001600160a01b0381166106d457600080fd5b6001600160a01b03811660009081526008602052604090205460ff1615156001146106fe57600080fd5b6001600160a01b03811660009081526009602090815260408083208054600a845282852080546001600160a01b03199081168255600180830180546001600160a81b03199081168255958990558354909216909255805490931690925560089093529220805460ff191690556006549091829161077b919061208c565b036107b7576006805480610791576107916120a3565b600082815260209020810160001990810180546001600160a01b03191690550190555050565b60068054600091906107cb9060019061208c565b815481106107db576107db612047565b600091825260209091200154600680546001600160a01b03909216925082918490811061080a5761080a612047565b600091825260208083209190910180546001600160a01b0319166001600160a01b0394851617905591831681526009909152604090208290556006805480610854576108546120a3565b600082815260209020810160001990810180546001600160a01b0319169055019055505050565b6003546001600160a01b031633146108a55760405162461bcd60e51b81526004016104af90612022565b6001600160a01b0381166108b857600080fd5b6001600160a01b0381166000908152600b602052604090205460ff16156108de57600080fd5b6001600160a01b03166000908152600b60205260409020805460ff19166001179055565b336000908152600b602052604090205460ff1615156001148061092f57506003546001600160a01b031633145b61094b5760405162461bcd60e51b81526004016104af906120b9565b6002546040516370a0823160e01b81523060048201526000916001600160a01b0316906370a0823190602401602060405180830381865afa158015610994573d6000803e3d6000fd5b505050506040513d601f19601f820116820180604052508101906109b891906120dd565b6002546001549192506109d8916001600160a01b03918216911683611ae2565b600154604051631998325160e01b8152600481018390526001600160a01b0390911690631998325190602401600060405180830381600087803b158015610a1e57600080fd5b505af1158015610a32573d6000803e3d6000fd5b505042600081905560408051918252602082018590527f4b7716bc5b5b26ece4410befaf3e3f5432de88e4593fdc339eaef715d0a0489c935001905060405180910390a150565b6003546001600160a01b03163314610aa35760405162461bcd60e51b81526004016104af90612022565b6001600160a01b038116610ac95760405162461bcd60e51b81526004016104af906120f6565b600580546001600160a01b0319166001600160a01b0392909216919091179055565b336000908152600b602052604090205460ff16151560011480610b1857506003546001600160a01b031633145b610b345760405162461bcd60e51b81526004016104af906120b9565b60408051600180825281830190925260009182918291829190816020015b6040805160608101825260008082526020808301829052928201528252600019909201910181610b52579050509050600091505b600654821015610dbd5760068281548110610ba357610ba3612047565b6000918252602090912001546040516370a0823160e01b81523060048201526001600160a01b03909116935083906370a0823190602401602060405180830381865afa158015610bf7573d6000803e3d6000fd5b505050506040513d601f19601f82011682018060405250810190610c1b91906120dd565b9350600084118015610c4557506001600160a01b03831660009081526008602052604090205460ff165b15610dab576001600160a01b038381166000908152600a60209081526040808320815160608101835281548616815260019091015494851692810192909252600160a01b90930460ff161515928101929092528251839190610ca957610ca9612047565b6020908102919091010152600454610ccd9084906001600160a01b03166000611bdb565b600454610ce59084906001600160a01b031686611bdb565b60048054604051631e82ecdb60e31b81526001600160a01b039091169163f41766d891610d1d91889160019187913091429101612116565b6000604051808303816000875af1925050508015610d5d57506040513d6000823e601f3d908101601f19168201604052610d5a91908101906121ab565b60015b610da957604080518581524260208201526001600160a01b038516917f24bb57c4c135223eb3fa5d03c9aa5958f103cc3ec9b2d7c8d35fffad65779d06910160405180910390a2610dab565b505b81610db581612073565b925050610b86565b6002546040516370a0823160e01b81523060048201526001600160a01b03909116906370a0823190602401602060405180830381865afa158015610e05573d6000803e3d6000fd5b505050506040513d601f19601f82011682018060405250810190610e2991906120dd565b93508315610ead57600254600154610e4e916001600160a01b03908116911686611ae2565b600154604051631998325160e01b8152600481018690526001600160a01b0390911690631998325190602401600060405180830381600087803b158015610e9457600080fd5b505af1158015610ea8573d6000803e3d6000fd5b505050505b42600081905560408051918252602082018690527f4b7716bc5b5b26ece4410befaf3e3f5432de88e4593fdc339eaef715d0a0489c910160405180910390a150505050565b336000908152600b602052604090205460609060ff16151560011480610f2257506003546001600160a01b031633145b610f3e5760405162461bcd60e51b81526004016104af906120b9565b60048054604051631e82ecdb60e31b81526001600160a01b039091169163f41766d891610f77918a918a918a918a9130918b9101612231565b6000604051808303816000875af1158015610f96573d6000803e3d6000fd5b505050506040513d6000823e601f3d908101601f19168201604052610fbe91908101906121ab565b9695505050505050565b6060600680548060200260200160405190810160405280929190818152602001828054801561068d576020028201919060005260206000209081546001600160a01b0316815260019091019060200180831161066f575050505050905090565b336000908152600b602052604090205460ff1615156001148061105557506003546001600160a01b031633145b6110715760405162461bcd60e51b81526004016104af906120b9565b6001600160a01b03811661108457600080fd5b806001600160a01b031663f083be3b6040518163ffffffff1660e01b8152600401600060405180830381600087803b1580156110bf57600080fd5b505af11580156110d3573d6000803e3d6000fd5b5050505050565b6003546001600160a01b031633146111045760405162461bcd60e51b81526004016104af90612022565b6001600160a01b03811661112a5760405162461bcd60e51b81526004016104af906120f6565b600180546001600160a01b0319166001600160a01b0392909216919091179055565b6003546001600160a01b031633146111765760405162461bcd60e51b81526004016104af90612022565b6001600160a01b03821661118957600080fd5b6001600160a01b03821660009081526008602052604090205460ff16156111af57600080fd5b6001600160a01b039182166000818152600860209081526040808320805460ff19166001908117909155600a8352818420865181549089166001600160a01b0319918216178255878501519183018054988501511515600160a01b026001600160a81b031990991692909916919091179690961790965560068054600990935290832082905594810185559390527ff652222313e28459528d920b65115c16c04f3efc82aaedc97be59f3f377c0d3f90920180549091169091179055565b6007818154811061061b57600080fd5b6003546001600160a01b031633146112a75760405162461bcd60e51b81526004016104af90612022565b6001600160a01b0382166112ba57600080fd5b6001600160a01b03821660009081526008602052604090205460ff1615156001146112e457600080fd5b816001600160a01b031681600001516001600160a01b03161461130657600080fd5b6001600160a01b039182166000908152600a6020908152604091829020835181549086166001600160a01b0319909116178155908301516001909101805492909301511515600160a01b026001600160a81b0319909216931692909217919091179055565b6003546001600160a01b031633146113955760405162461bcd60e51b81526004016104af90612022565b6001600160a01b0381166113bb5760405162461bcd60e51b81526004016104af906120f6565b600480546001600160a01b0319166001600160a01b0392909216919091179055565b336000908152600b602052604090205460ff1615156001148061140a57506003546001600160a01b031633145b6114265760405162461bcd60e51b81526004016104af906120b9565b600754600090818167ffffffffffffffff81111561144657611446611d0a565b60405190808252806020026020018201604052801561146f578160200160208202803683370190505b5060078054604080516020808402820181019092528281529394508301828280156114c357602002820191906000526020600020905b81546001600160a01b031681526001909101906020018083116114a5575b505050505090505b8183101561160c578083815181106114e5576114e5612047565b60200260200101516001600160a01b031663f083be3b6040518163ffffffff1660e01b8152600401600060405180830381600087803b15801561152757600080fd5b505af1925050508015611538575060015b61159d5780838151811061154e5761154e612047565b60200260200101516001600160a01b03167fe1563b4dfb06394fe84449e66b5c42f40347d03a3e1398ffeeb85a298cc338ea4260405161159091815260200190565b60405180910390a26115fa565b8083815181106115af576115af612047565b60200260200101516001600160a01b03167ff40b9ca28516abde647ef8ed0e7b155e16347eb4d8dd6eb29989ed2c0c3d27e8426040516115f191815260200190565b60405180910390a25b8261160481612073565b9350506114cb565b505050565b6003546001600160a01b0316331461163b5760405162461bcd60e51b81526004016104af90612022565b6001600160a01b0381166116a05760405162461bcd60e51b815260206004820152602660248201527f4f776e61626c653a206e6577206f776e657220697320746865207a65726f206160448201526564647265737360d01b60648201526084016104af565b600380546001600160a01b038381166001600160a01b031983168117909355604080519190921680825260208201939093527f5c486528ec3e3f0ea91181cff8116f02bfa350e03b8b6f12e00765adbb5af85c910160405180910390a15050565b6003546001600160a01b0316331461172b5760405162461bcd60e51b81526004016104af90612022565b6001600160a01b03811661173e57600080fd5b6040516370a0823160e01b81523060048201526000906001600160a01b038316906370a0823190602401602060405180830381865afa158015611785573d6000803e3d6000fd5b505050506040513d601f19601f820116820180604052508101906117a991906120dd565b905061057f823383611ae2565b6001600160a01b0381166117c957600080fd5b6000816001600160a01b0316630dfe16816040518163ffffffff1660e01b8152600401602060405180830381865afa158015611809573d6000803e3d6000fd5b505050506040513d601f19601f8201168201806040525081019061182d91906122dd565b90506000826001600160a01b031663d21220a76040518163ffffffff1660e01b8152600401602060405180830381865afa15801561186f573d6000803e3d6000fd5b505050506040513d601f19601f8201168201806040525081019061189391906122dd565b90506001600160a01b0382166118a857600080fd5b6001600160a01b0381166118bb57600080fd5b60408051606081018252600080825260208201819052918101919091526002546001600160a01b0384811691161480159061190f57506001600160a01b03831660009081526008602052604090205460ff16155b156119da576001600160a01b038084168083526002548216602080850191825260006040808701828152858352600a8452818320885181549089166001600160a01b031991821617825595516001918201805493511515600160a01b026001600160a81b031990941691909916179190911790965560088352808220805460ff1916871790556006805460099094529082208390559482018555939093527ff652222313e28459528d920b65115c16c04f3efc82aaedc97be59f3f377c0d3f90920180549092161790555b6002546001600160a01b03838116911614801590611a1157506001600160a01b03821660009081526008602052604090205460ff16155b15611adc576001600160a01b038083168083526002548216602080850191825260006040808701828152858352600a8452818320885181549089166001600160a01b031991821617825595516001918201805493511515600160a01b026001600160a81b031990941691909916179190911790965560088352808220805460ff1916871790556006805460099094529082208390559482018555939093527ff652222313e28459528d920b65115c16c04f3efc82aaedc97be59f3f377c0d3f90920180549092161790555b50505050565b6000836001600160a01b03163b11611af957600080fd5b6040516001600160a01b03838116602483015260448201839052600091829186169063a9059cbb60e01b906064015b60408051601f198184030181529181526020820180516001600160e01b03166001600160e01b0319909416939093179092529051611b6691906122fa565b6000604051808303816000865af19150503d8060008114611ba3576040519150601f19603f3d011682016040523d82523d6000602084013e611ba8565b606091505b5091509150818015611bd2575080511580611bd2575080806020019051810190611bd29190612335565b6110d357600080fd5b6000836001600160a01b03163b11611bf257600080fd5b801580611c6c5750604051636eb1769f60e11b81523060048201526001600160a01b03838116602483015284169063dd62ed3e90604401602060405180830381865afa158015611c46573d6000803e3d6000fd5b505050506040513d601f19601f82011682018060405250810190611c6a91906120dd565b155b611cd75760405162461bcd60e51b815260206004820152603660248201527f5361666545524332303a20617070726f76652066726f6d206e6f6e2d7a65726f60448201527520746f206e6f6e2d7a65726f20616c6c6f77616e636560501b60648201526084016104af565b6040516001600160a01b03838116602483015260448201839052600091829186169063095ea7b360e01b90606401611b28565b634e487b7160e01b600052604160045260246000fd5b604051601f8201601f1916810167ffffffffffffffff81118282101715611d4957611d49611d0a565b604052919050565b600067ffffffffffffffff821115611d6b57611d6b611d0a565b5060051b60200190565b6001600160a01b0381168114611d8a57600080fd5b50565b60006020808385031215611da057600080fd5b823567ffffffffffffffff811115611db757600080fd5b8301601f81018513611dc857600080fd5b8035611ddb611dd682611d51565b611d20565b81815260059190911b82018301908381019087831115611dfa57600080fd5b928401925b82841015611e21578335611e1281611d75565b82529284019290840190611dff565b979650505050505050565b600060208284031215611e3e57600080fd5b8135611e4981611d75565b9392505050565b600060208284031215611e6257600080fd5b5035919050565b6020808252825182820181905260009190848201906040850190845b81811015611eaa5783516001600160a01b031683529284019291840191600101611e85565b50909695505050505050565b600080600080600060808688031215611ece57600080fd5b8535945060208601359350604086013567ffffffffffffffff80821115611ef457600080fd5b818801915088601f830112611f0857600080fd5b813581811115611f1757600080fd5b896020606083028501011115611f2c57600080fd5b96999598505060200195606001359392505050565b6020808252825182820181905260009190848201906040850190845b81811015611eaa57835183529284019291840191600101611f5d565b8015158114611d8a57600080fd5b6000808284036080811215611f9b57600080fd5b8335611fa681611d75565b92506060601f1982011215611fba57600080fd5b506040516060810181811067ffffffffffffffff82111715611fde57611fde611d0a565b6040526020840135611fef81611d75565b81526040840135611fff81611d75565b6020820152606084013561201281611f79565b6040820152919491935090915050565b6020808252600b908201526a1b9bdd08185b1b1bddd95960aa1b604082015260600190565b634e487b7160e01b600052603260045260246000fd5b634e487b7160e01b600052601160045260246000fd5b6000600182016120855761208561205d565b5060010190565b60008282101561209e5761209e61205d565b500390565b634e487b7160e01b600052603160045260246000fd5b6020808252600a90820152693737ba1035b2b2b832b960b11b604082015260600190565b6000602082840312156120ef57600080fd5b5051919050565b60208082526006908201526506164647220360d41b604082015260600190565b600060a0820187835260208781850152604060a08186015282885180855260c087019150838a01945060005b8181101561217f57855180516001600160a01b03908116855286820151168685015284015115158484015294840194606090920191600101612142565b50506001600160a01b0388166060870152935061219b92505050565b8260808301529695505050505050565b600060208083850312156121be57600080fd5b825167ffffffffffffffff8111156121d557600080fd5b8301601f810185136121e657600080fd5b80516121f4611dd682611d51565b81815260059190911b8201830190838101908783111561221357600080fd5b928401925b82841015611e2157835182529284019290840190612218565b600060a0820188835260208881850152604060a0818601528288845260c08601905089935060005b898110156122b157843561226c81611d75565b6001600160a01b039081168352858501359061228782611d75565b16828501528483013561229981611f79565b15158284015260609485019490910190600101612259565b506001600160a01b038816606087015293506122cc92505050565b826080830152979650505050505050565b6000602082840312156122ef57600080fd5b8151611e4981611d75565b6000825160005b8181101561231b5760208186018101518583015201612301565b8181111561232a576000828501525b509190910192915050565b60006020828403121561234757600080fd5b8151611e4981611f7956fea2646970667358221220888079b15869cecad72e91f8948898608f7fa651d55c4010d1bc6dfa3f45ee6e64736f6c634300080d0033","opcodes":"PUSH1 0x80 PUSH1 0x40 MSTORE CALLVALUE DUP1 ISZERO PUSH2 0x10 JUMPI PUSH1 0x0 DUP1 REVERT JUMPDEST POP PUSH1 0x40 MLOAD PUSH3 0x2430 CODESIZE SUB DUP1 PUSH3 0x2430 DUP4 CODECOPY DUP2 ADD PUSH1 0x40 DUP2 SWAP1 MSTORE PUSH2 0x31 SWAP2 PUSH2 0x68 JUMP JUMPDEST PUSH1 0x3 DUP1 SLOAD CALLER PUSH1 0x1 PUSH1 0x1 PUSH1 0xA0 SHL SUB NOT SWAP2 DUP3 AND OR SWAP1 SWAP2 SSTORE PUSH1 0x0 DUP1 SSTORE PUSH1 0x2 DUP1 SLOAD SWAP1 SWAP2 AND PUSH1 0x1 PUSH1 0x1 PUSH1 0xA0 SHL SUB SWAP3 SWAP1 SWAP3 AND SWAP2 SWAP1 SWAP2 OR SWAP1 SSTORE PUSH2 0x98 JUMP JUMPDEST PUSH1 0x0 PUSH1 0x20 DUP3 DUP5 SUB SLT ISZERO PUSH2 0x7A JUMPI PUSH1 0x0 DUP1 REVERT JUMPDEST DUP2 MLOAD PUSH1 0x1 PUSH1 0x1 PUSH1 0xA0 SHL SUB DUP2 AND DUP2 EQ PUSH2 0x91 JUMPI PUSH1 0x0 DUP1 REVERT JUMPDEST SWAP4 SWAP3 POP POP POP JUMP JUMPDEST PUSH2 0x2388 DUP1 PUSH3 0xA8 PUSH1 0x0 CODECOPY PUSH1 0x0 RETURN INVALID PUSH1 0x80 PUSH1 0x40 MSTORE CALLVALUE DUP1 ISZERO PUSH2 0x10 JUMPI PUSH1 0x0 DUP1 REVERT JUMPDEST POP PUSH1 0x4 CALLDATASIZE LT PUSH2 0x1CE JUMPI PUSH1 0x0 CALLDATALOAD PUSH1 0xE0 SHR DUP1 PUSH4 0x8D72647E GT PUSH2 0x104 JUMPI DUP1 PUSH4 0xBD98194C GT PUSH2 0xA2 JUMPI DUP1 PUSH4 0xF2FDE38B GT PUSH2 0x71 JUMPI DUP1 PUSH4 0xF2FDE38B EQ PUSH2 0x439 JUMPI DUP1 PUSH4 0xF4F3B200 EQ PUSH2 0x44C JUMPI DUP1 PUSH4 0xF887EA40 EQ PUSH2 0x45F JUMPI DUP1 PUSH4 0xFB1DB278 EQ PUSH2 0x472 JUMPI PUSH1 0x0 DUP1 REVERT JUMPDEST DUP1 PUSH4 0xBD98194C EQ PUSH2 0x3F8 JUMPI DUP1 PUSH4 0xC0D78655 EQ PUSH2 0x40B JUMPI DUP1 PUSH4 0xD294F093 EQ PUSH2 0x41E JUMPI DUP1 PUSH4 0xE14F870D EQ PUSH2 0x426 JUMPI PUSH1 0x0 DUP1 REVERT JUMPDEST DUP1 PUSH4 0x933BAA86 GT PUSH2 0xDE JUMPI DUP1 PUSH4 0x933BAA86 EQ PUSH2 0x3A8 JUMPI DUP1 PUSH4 0x9FBF5771 EQ PUSH2 0x3BB JUMPI DUP1 PUSH4 0xA0D91A28 EQ PUSH2 0x3CE JUMPI DUP1 PUSH4 0xB91AC788 EQ PUSH2 0x3E5 JUMPI PUSH1 0x0 DUP1 REVERT JUMPDEST DUP1 PUSH4 0x8D72647E EQ PUSH2 0x36F JUMPI DUP1 PUSH4 0x8DA5CB5B EQ PUSH2 0x382 JUMPI DUP1 PUSH4 0x8E6E3846 EQ PUSH2 0x395 JUMPI PUSH1 0x0 DUP1 REVERT JUMPDEST DUP1 PUSH4 0x6BA42AAA GT PUSH2 0x171 JUMPI DUP1 PUSH4 0x7964BAC9 GT PUSH2 0x14B JUMPI DUP1 PUSH4 0x7964BAC9 EQ PUSH2 0x32C JUMPI DUP1 PUSH4 0x8119C065 EQ PUSH2 0x33F JUMPI DUP1 PUSH4 0x8594E9E6 EQ PUSH2 0x347 JUMPI DUP1 PUSH4 0x8970D84C EQ PUSH2 0x367 JUMPI PUSH1 0x0 DUP1 REVERT JUMPDEST DUP1 PUSH4 0x6BA42AAA EQ PUSH2 0x2EE JUMPI DUP1 PUSH4 0x748747E6 EQ PUSH2 0x311 JUMPI DUP1 PUSH4 0x74F6B2C5 EQ PUSH2 0x324 JUMPI PUSH1 0x0 DUP1 REVERT JUMPDEST DUP1 PUSH4 0x4B55C2C6 GT PUSH2 0x1AD JUMPI DUP1 PUSH4 0x4B55C2C6 EQ PUSH2 0x233 JUMPI DUP1 PUSH4 0x4F64B2BE EQ PUSH2 0x29B JUMPI DUP1 PUSH4 0x586960DD EQ PUSH2 0x2C6 JUMPI DUP1 PUSH4 0x5FA7B584 EQ PUSH2 0x2DB JUMPI PUSH1 0x0 DUP1 REVERT JUMPDEST DUP1 PUSH3 0xA0CE06 EQ PUSH2 0x1D3 JUMPI DUP1 PUSH4 0x14AE9F2E EQ PUSH2 0x1E8 JUMPI DUP1 PUSH4 0x19F37361 EQ PUSH2 0x1FB JUMPI JUMPDEST PUSH1 0x0 DUP1 REVERT JUMPDEST PUSH2 0x1E6 PUSH2 0x1E1 CALLDATASIZE PUSH1 0x4 PUSH2 0x1D8D JUMP JUMPDEST PUSH2 0x485 JUMP JUMPDEST STOP JUMPDEST PUSH2 0x1E6 PUSH2 0x1F6 CALLDATASIZE PUSH1 0x4 PUSH2 0x1E2C JUMP JUMPDEST PUSH2 0x583 JUMP JUMPDEST PUSH2 0x21E PUSH2 0x209 CALLDATASIZE PUSH1 0x4 PUSH2 0x1E2C JUMP JUMPDEST PUSH1 0x8 PUSH1 0x20 MSTORE PUSH1 0x0 SWAP1 DUP2 MSTORE PUSH1 0x40 SWAP1 KECCAK256 SLOAD PUSH1 0xFF AND DUP2 JUMP JUMPDEST PUSH1 0x40 MLOAD SWAP1 ISZERO ISZERO DUP2 MSTORE PUSH1 0x20 ADD JUMPDEST PUSH1 0x40 MLOAD DUP1 SWAP2 SUB SWAP1 RETURN JUMPDEST PUSH2 0x273 PUSH2 0x241 CALLDATASIZE PUSH1 0x4 PUSH2 0x1E2C JUMP JUMPDEST PUSH1 0xA PUSH1 0x20 MSTORE PUSH1 0x0 SWAP1 DUP2 MSTORE PUSH1 0x40 SWAP1 KECCAK256 DUP1 SLOAD PUSH1 0x1 SWAP1 SWAP2 ADD SLOAD PUSH1 0x1 PUSH1 0x1 PUSH1 0xA0 SHL SUB SWAP2 DUP3 AND SWAP2 DUP2 AND SWAP1 PUSH1 0x1 PUSH1 0xA0 SHL SWAP1 DIV PUSH1 0xFF AND DUP4 JUMP JUMPDEST PUSH1 0x40 DUP1 MLOAD PUSH1 0x1 PUSH1 0x1 PUSH1 0xA0 SHL SUB SWAP5 DUP6 AND DUP2 MSTORE SWAP4 SWAP1 SWAP3 AND PUSH1 0x20 DUP5 ADD MSTORE ISZERO ISZERO SWAP1 DUP3 ADD MSTORE PUSH1 0x60 ADD PUSH2 0x22A JUMP JUMPDEST PUSH2 0x2AE PUSH2 0x2A9 CALLDATASIZE PUSH1 0x4 PUSH2 0x1E50 JUMP JUMPDEST PUSH2 0x60B JUMP JUMPDEST PUSH1 0x40 MLOAD PUSH1 0x1 PUSH1 0x1 PUSH1 0xA0 SHL SUB SWAP1 SWAP2 AND DUP2 MSTORE PUSH1 0x20 ADD PUSH2 0x22A JUMP JUMPDEST PUSH2 0x2CE PUSH2 0x635 JUMP JUMPDEST PUSH1 0x40 MLOAD PUSH2 0x22A SWAP2 SWAP1 PUSH2 0x1E69 JUMP JUMPDEST PUSH2 0x1E6 PUSH2 0x2E9 CALLDATASIZE PUSH1 0x4 PUSH2 0x1E2C JUMP JUMPDEST PUSH2 0x697 JUMP JUMPDEST PUSH2 0x21E PUSH2 0x2FC CALLDATASIZE PUSH1 0x4 PUSH2 0x1E2C JUMP JUMPDEST PUSH1 0xB PUSH1 0x20 MSTORE PUSH1 0x0 SWAP1 DUP2 MSTORE PUSH1 0x40 SWAP1 KECCAK256 SLOAD PUSH1 0xFF AND DUP2 JUMP JUMPDEST PUSH2 0x1E6 PUSH2 0x31F CALLDATASIZE PUSH1 0x4 PUSH2 0x1E2C JUMP JUMPDEST PUSH2 0x87B JUMP JUMPDEST PUSH2 0x1E6 PUSH2 0x902 JUMP JUMPDEST PUSH2 0x1E6 PUSH2 0x33A CALLDATASIZE PUSH1 0x4 PUSH2 0x1E2C JUMP JUMPDEST PUSH2 0xA79 JUMP JUMPDEST PUSH2 0x1E6 PUSH2 0xAEB JUMP JUMPDEST PUSH2 0x35A PUSH2 0x355 CALLDATASIZE PUSH1 0x4 PUSH2 0x1EB6 JUMP JUMPDEST PUSH2 0xEF2 JUMP JUMPDEST PUSH1 0x40 MLOAD PUSH2 0x22A SWAP2 SWAP1 PUSH2 0x1F41 JUMP JUMPDEST PUSH2 0x2CE PUSH2 0xFC8 JUMP JUMPDEST PUSH1 0x2 SLOAD PUSH2 0x2AE SWAP1 PUSH1 0x1 PUSH1 0x1 PUSH1 0xA0 SHL SUB AND DUP2 JUMP JUMPDEST PUSH1 0x3 SLOAD PUSH2 0x2AE SWAP1 PUSH1 0x1 PUSH1 0x1 PUSH1 0xA0 SHL SUB AND DUP2 JUMP JUMPDEST PUSH2 0x1E6 PUSH2 0x3A3 CALLDATASIZE PUSH1 0x4 PUSH2 0x1E2C JUMP JUMPDEST PUSH2 0x1028 JUMP JUMPDEST PUSH2 0x1E6 PUSH2 0x3B6 CALLDATASIZE PUSH1 0x4 PUSH2 0x1E2C JUMP JUMPDEST PUSH2 0x10DA JUMP JUMPDEST PUSH2 0x1E6 PUSH2 0x3C9 CALLDATASIZE PUSH1 0x4 PUSH2 0x1F87 JUMP JUMPDEST PUSH2 0x114C JUMP JUMPDEST PUSH2 0x3D7 PUSH1 0x0 SLOAD DUP2 JUMP JUMPDEST PUSH1 0x40 MLOAD SWAP1 DUP2 MSTORE PUSH1 0x20 ADD PUSH2 0x22A JUMP JUMPDEST PUSH2 0x2AE PUSH2 0x3F3 CALLDATASIZE PUSH1 0x4 PUSH2 0x1E50 JUMP JUMPDEST PUSH2 0x126D JUMP JUMPDEST PUSH2 0x1E6 PUSH2 0x406 CALLDATASIZE PUSH1 0x4 PUSH2 0x1F87 JUMP JUMPDEST PUSH2 0x127D JUMP JUMPDEST PUSH2 0x1E6 PUSH2 0x419 CALLDATASIZE PUSH1 0x4 PUSH2 0x1E2C JUMP JUMPDEST PUSH2 0x136B JUMP JUMPDEST PUSH2 0x1E6 PUSH2 0x13DD JUMP JUMPDEST PUSH1 0x5 SLOAD PUSH2 0x2AE SWAP1 PUSH1 0x1 PUSH1 0x1 PUSH1 0xA0 SHL SUB AND DUP2 JUMP JUMPDEST PUSH2 0x1E6 PUSH2 0x447 CALLDATASIZE PUSH1 0x4 PUSH2 0x1E2C JUMP JUMPDEST PUSH2 0x1611 JUMP JUMPDEST PUSH2 0x1E6 PUSH2 0x45A CALLDATASIZE PUSH1 0x4 PUSH2 0x1E2C JUMP JUMPDEST PUSH2 0x1701 JUMP JUMPDEST PUSH1 0x4 SLOAD PUSH2 0x2AE SWAP1 PUSH1 0x1 PUSH1 0x1 PUSH1 0xA0 SHL SUB AND DUP2 JUMP JUMPDEST PUSH1 0x1 SLOAD PUSH2 0x2AE SWAP1 PUSH1 0x1 PUSH1 0x1 PUSH1 0xA0 SHL SUB AND DUP2 JUMP JUMPDEST PUSH1 0x3 SLOAD PUSH1 0x1 PUSH1 0x1 PUSH1 0xA0 SHL SUB AND CALLER EQ PUSH2 0x4B8 JUMPI PUSH1 0x40 MLOAD PUSH3 0x461BCD PUSH1 0xE5 SHL DUP2 MSTORE PUSH1 0x4 ADD PUSH2 0x4AF SWAP1 PUSH2 0x2022 JUMP JUMPDEST PUSH1 0x40 MLOAD DUP1 SWAP2 SUB SWAP1 REVERT JUMPDEST PUSH1 0x0 JUMPDEST DUP2 MLOAD DUP2 LT ISZERO PUSH2 0x57F JUMPI PUSH1 0x0 PUSH1 0x1 PUSH1 0x1 PUSH1 0xA0 SHL SUB AND DUP3 DUP3 DUP2 MLOAD DUP2 LT PUSH2 0x4E1 JUMPI PUSH2 0x4E1 PUSH2 0x2047 JUMP JUMPDEST PUSH1 0x20 MUL PUSH1 0x20 ADD ADD MLOAD PUSH1 0x1 PUSH1 0x1 PUSH1 0xA0 SHL SUB AND SUB PUSH2 0x4FC JUMPI PUSH1 0x0 DUP1 REVERT JUMPDEST PUSH2 0x51E DUP3 DUP3 DUP2 MLOAD DUP2 LT PUSH2 0x511 JUMPI PUSH2 0x511 PUSH2 0x2047 JUMP JUMPDEST PUSH1 0x20 MUL PUSH1 0x20 ADD ADD MLOAD PUSH2 0x17B6 JUMP JUMPDEST PUSH1 0x7 DUP3 DUP3 DUP2 MLOAD DUP2 LT PUSH2 0x532 JUMPI PUSH2 0x532 PUSH2 0x2047 JUMP JUMPDEST PUSH1 0x20 SWAP1 DUP2 MUL SWAP2 SWAP1 SWAP2 ADD DUP2 ADD MLOAD DUP3 SLOAD PUSH1 0x1 DUP2 ADD DUP5 SSTORE PUSH1 0x0 SWAP4 DUP5 MSTORE SWAP2 SWAP1 SWAP3 KECCAK256 ADD DUP1 SLOAD PUSH1 0x1 PUSH1 0x1 PUSH1 0xA0 SHL SUB NOT AND PUSH1 0x1 PUSH1 0x1 PUSH1 0xA0 SHL SUB SWAP1 SWAP3 AND SWAP2 SWAP1 SWAP2 OR SWAP1 SSTORE DUP1 PUSH2 0x577 DUP2 PUSH2 0x2073 JUMP JUMPDEST SWAP2 POP POP PUSH2 0x4BB JUMP JUMPDEST POP POP JUMP JUMPDEST PUSH1 0x3 SLOAD PUSH1 0x1 PUSH1 0x1 PUSH1 0xA0 SHL SUB AND CALLER EQ PUSH2 0x5AD JUMPI PUSH1 0x40 MLOAD PUSH3 0x461BCD PUSH1 0xE5 SHL DUP2 MSTORE PUSH1 0x4 ADD PUSH2 0x4AF SWAP1 PUSH2 0x2022 JUMP JUMPDEST PUSH1 0x1 PUSH1 0x1 PUSH1 0xA0 SHL SUB DUP2 AND PUSH2 0x5C0 JUMPI PUSH1 0x0 DUP1 REVERT JUMPDEST PUSH1 0x1 PUSH1 0x1 PUSH1 0xA0 SHL SUB DUP2 AND PUSH1 0x0 SWAP1 DUP2 MSTORE PUSH1 0xB PUSH1 0x20 MSTORE PUSH1 0x40 SWAP1 KECCAK256 SLOAD PUSH1 0xFF AND ISZERO ISZERO PUSH1 0x1 EQ PUSH2 0x5EA JUMPI PUSH1 0x0 DUP1 REVERT JUMPDEST PUSH1 0x1 PUSH1 0x1 PUSH1 0xA0 SHL SUB AND PUSH1 0x0 SWAP1 DUP2 MSTORE PUSH1 0xB PUSH1 0x20 MSTORE PUSH1 0x40 SWAP1 KECCAK256 DUP1 SLOAD PUSH1 0xFF NOT AND SWAP1 SSTORE JUMP JUMPDEST PUSH1 0x6 DUP2 DUP2 SLOAD DUP2 LT PUSH2 0x61B JUMPI PUSH1 0x0 DUP1 REVERT JUMPDEST PUSH1 0x0 SWAP2 DUP3 MSTORE PUSH1 0x20 SWAP1 SWAP2 KECCAK256 ADD SLOAD PUSH1 0x1 PUSH1 0x1 PUSH1 0xA0 SHL SUB AND SWAP1 POP DUP2 JUMP JUMPDEST PUSH1 0x60 PUSH1 0x7 DUP1 SLOAD DUP1 PUSH1 0x20 MUL PUSH1 0x20 ADD PUSH1 0x40 MLOAD SWAP1 DUP2 ADD PUSH1 0x40 MSTORE DUP1 SWAP3 SWAP2 SWAP1 DUP2 DUP2 MSTORE PUSH1 0x20 ADD DUP3 DUP1 SLOAD DUP1 ISZERO PUSH2 0x68D JUMPI PUSH1 0x20 MUL DUP3 ADD SWAP2 SWAP1 PUSH1 0x0 MSTORE PUSH1 0x20 PUSH1 0x0 KECCAK256 SWAP1 JUMPDEST DUP2 SLOAD PUSH1 0x1 PUSH1 0x1 PUSH1 0xA0 SHL SUB AND DUP2 MSTORE PUSH1 0x1 SWAP1 SWAP2 ADD SWAP1 PUSH1 0x20 ADD DUP1 DUP4 GT PUSH2 0x66F JUMPI JUMPDEST POP POP POP POP POP SWAP1 POP SWAP1 JUMP JUMPDEST PUSH1 0x3 SLOAD PUSH1 0x1 PUSH1 0x1 PUSH1 0xA0 SHL SUB AND CALLER EQ PUSH2 0x6C1 JUMPI PUSH1 0x40 MLOAD PUSH3 0x461BCD PUSH1 0xE5 SHL DUP2 MSTORE PUSH1 0x4 ADD PUSH2 0x4AF SWAP1 PUSH2 0x2022 JUMP JUMPDEST PUSH1 0x1 PUSH1 0x1 PUSH1 0xA0 SHL SUB DUP2 AND PUSH2 0x6D4 JUMPI PUSH1 0x0 DUP1 REVERT JUMPDEST PUSH1 0x1 PUSH1 0x1 PUSH1 0xA0 SHL SUB DUP2 AND PUSH1 0x0 SWAP1 DUP2 MSTORE PUSH1 0x8 PUSH1 0x20 MSTORE PUSH1 0x40 SWAP1 KECCAK256 SLOAD PUSH1 0xFF AND ISZERO ISZERO PUSH1 0x1 EQ PUSH2 0x6FE JUMPI PUSH1 0x0 DUP1 REVERT JUMPDEST PUSH1 0x1 PUSH1 0x1 PUSH1 0xA0 SHL SUB DUP2 AND PUSH1 0x0 SWAP1 DUP2 MSTORE PUSH1 0x9 PUSH1 0x20 SWAP1 DUP2 MSTORE PUSH1 0x40 DUP1 DUP4 KECCAK256 DUP1 SLOAD PUSH1 0xA DUP5 MSTORE DUP3 DUP6 KECCAK256 DUP1 SLOAD PUSH1 0x1 PUSH1 0x1 PUSH1 0xA0 SHL SUB NOT SWAP1 DUP2 AND DUP3 SSTORE PUSH1 0x1 DUP1 DUP4 ADD DUP1 SLOAD PUSH1 0x1 PUSH1 0x1 PUSH1 0xA8 SHL SUB NOT SWAP1 DUP2 AND DUP3 SSTORE SWAP6 DUP10 SWAP1 SSTORE DUP4 SLOAD SWAP1 SWAP3 AND SWAP1 SWAP3 SSTORE DUP1 SLOAD SWAP1 SWAP4 AND SWAP1 SWAP3 SSTORE PUSH1 0x8 SWAP1 SWAP4 MSTORE SWAP3 KECCAK256 DUP1 SLOAD PUSH1 0xFF NOT AND SWAP1 SSTORE PUSH1 0x6 SLOAD SWAP1 SWAP2 DUP3 SWAP2 PUSH2 0x77B SWAP2 SWAP1 PUSH2 0x208C JUMP JUMPDEST SUB PUSH2 0x7B7 JUMPI PUSH1 0x6 DUP1 SLOAD DUP1 PUSH2 0x791 JUMPI PUSH2 0x791 PUSH2 0x20A3 JUMP JUMPDEST PUSH1 0x0 DUP3 DUP2 MSTORE PUSH1 0x20 SWAP1 KECCAK256 DUP2 ADD PUSH1 0x0 NOT SWAP1 DUP2 ADD DUP1 SLOAD PUSH1 0x1 PUSH1 0x1 PUSH1 0xA0 SHL SUB NOT AND SWAP1 SSTORE ADD SWAP1 SSTORE POP POP JUMP JUMPDEST PUSH1 0x6 DUP1 SLOAD PUSH1 0x0 SWAP2 SWAP1 PUSH2 0x7CB SWAP1 PUSH1 0x1 SWAP1 PUSH2 0x208C JUMP JUMPDEST DUP2 SLOAD DUP2 LT PUSH2 0x7DB JUMPI PUSH2 0x7DB PUSH2 0x2047 JUMP JUMPDEST PUSH1 0x0 SWAP2 DUP3 MSTORE PUSH1 0x20 SWAP1 SWAP2 KECCAK256 ADD SLOAD PUSH1 0x6 DUP1 SLOAD PUSH1 0x1 PUSH1 0x1 PUSH1 0xA0 SHL SUB SWAP1 SWAP3 AND SWAP3 POP DUP3 SWAP2 DUP5 SWAP1 DUP2 LT PUSH2 0x80A JUMPI PUSH2 0x80A PUSH2 0x2047 JUMP JUMPDEST PUSH1 0x0 SWAP2 DUP3 MSTORE PUSH1 0x20 DUP1 DUP4 KECCAK256 SWAP2 SWAP1 SWAP2 ADD DUP1 SLOAD PUSH1 0x1 PUSH1 0x1 PUSH1 0xA0 SHL SUB NOT AND PUSH1 0x1 PUSH1 0x1 PUSH1 0xA0 SHL SUB SWAP5 DUP6 AND OR SWAP1 SSTORE SWAP2 DUP4 AND DUP2 MSTORE PUSH1 0x9 SWAP1 SWAP2 MSTORE PUSH1 0x40 SWAP1 KECCAK256 DUP3 SWAP1 SSTORE PUSH1 0x6 DUP1 SLOAD DUP1 PUSH2 0x854 JUMPI PUSH2 0x854 PUSH2 0x20A3 JUMP JUMPDEST PUSH1 0x0 DUP3 DUP2 MSTORE PUSH1 0x20 SWAP1 KECCAK256 DUP2 ADD PUSH1 0x0 NOT SWAP1 DUP2 ADD DUP1 SLOAD PUSH1 0x1 PUSH1 0x1 PUSH1 0xA0 SHL SUB NOT AND SWAP1 SSTORE ADD SWAP1 SSTORE POP POP POP JUMP JUMPDEST PUSH1 0x3 SLOAD PUSH1 0x1 PUSH1 0x1 PUSH1 0xA0 SHL SUB AND CALLER EQ PUSH2 0x8A5 JUMPI PUSH1 0x40 MLOAD PUSH3 0x461BCD PUSH1 0xE5 SHL DUP2 MSTORE PUSH1 0x4 ADD PUSH2 0x4AF SWAP1 PUSH2 0x2022 JUMP JUMPDEST PUSH1 0x1 PUSH1 0x1 PUSH1 0xA0 SHL SUB DUP2 AND PUSH2 0x8B8 JUMPI PUSH1 0x0 DUP1 REVERT JUMPDEST PUSH1 0x1 PUSH1 0x1 PUSH1 0xA0 SHL SUB DUP2 AND PUSH1 0x0 SWAP1 DUP2 MSTORE PUSH1 0xB PUSH1 0x20 MSTORE PUSH1 0x40 SWAP1 KECCAK256 SLOAD PUSH1 0xFF AND ISZERO PUSH2 0x8DE JUMPI PUSH1 0x0 DUP1 REVERT JUMPDEST PUSH1 0x1 PUSH1 0x1 PUSH1 0xA0 SHL SUB AND PUSH1 0x0 SWAP1 DUP2 MSTORE PUSH1 0xB PUSH1 0x20 MSTORE PUSH1 0x40 SWAP1 KECCAK256 DUP1 SLOAD PUSH1 0xFF NOT AND PUSH1 0x1 OR SWAP1 SSTORE JUMP JUMPDEST CALLER PUSH1 0x0 SWAP1 DUP2 MSTORE PUSH1 0xB PUSH1 0x20 MSTORE PUSH1 0x40 SWAP1 KECCAK256 SLOAD PUSH1 0xFF AND ISZERO ISZERO PUSH1 0x1 EQ DUP1 PUSH2 0x92F JUMPI POP PUSH1 0x3 SLOAD PUSH1 0x1 PUSH1 0x1 PUSH1 0xA0 SHL SUB AND CALLER EQ JUMPDEST PUSH2 0x94B JUMPI PUSH1 0x40 MLOAD PUSH3 0x461BCD PUSH1 0xE5 SHL DUP2 MSTORE PUSH1 0x4 ADD PUSH2 0x4AF SWAP1 PUSH2 0x20B9 JUMP JUMPDEST PUSH1 0x2 SLOAD PUSH1 0x40 MLOAD PUSH4 0x70A08231 PUSH1 0xE0 SHL DUP2 MSTORE ADDRESS PUSH1 0x4 DUP3 ADD MSTORE PUSH1 0x0 SWAP2 PUSH1 0x1 PUSH1 0x1 PUSH1 0xA0 SHL SUB AND SWAP1 PUSH4 0x70A08231 SWAP1 PUSH1 0x24 ADD PUSH1 0x20 PUSH1 0x40 MLOAD DUP1 DUP4 SUB DUP2 DUP7 GAS STATICCALL ISZERO DUP1 ISZERO PUSH2 0x994 JUMPI RETURNDATASIZE PUSH1 0x0 DUP1 RETURNDATACOPY RETURNDATASIZE PUSH1 0x0 REVERT JUMPDEST POP POP POP POP PUSH1 0x40 MLOAD RETURNDATASIZE PUSH1 0x1F NOT PUSH1 0x1F DUP3 ADD AND DUP3 ADD DUP1 PUSH1 0x40 MSTORE POP DUP2 ADD SWAP1 PUSH2 0x9B8 SWAP2 SWAP1 PUSH2 0x20DD JUMP JUMPDEST PUSH1 0x2 SLOAD PUSH1 0x1 SLOAD SWAP2 SWAP3 POP PUSH2 0x9D8 SWAP2 PUSH1 0x1 PUSH1 0x1 PUSH1 0xA0 SHL SUB SWAP2 DUP3 AND SWAP2 AND DUP4 PUSH2 0x1AE2 JUMP JUMPDEST PUSH1 0x1 SLOAD PUSH1 0x40 MLOAD PUSH4 0x19983251 PUSH1 0xE0 SHL DUP2 MSTORE PUSH1 0x4 DUP2 ADD DUP4 SWAP1 MSTORE PUSH1 0x1 PUSH1 0x1 PUSH1 0xA0 SHL SUB SWAP1 SWAP2 AND SWAP1 PUSH4 0x19983251 SWAP1 PUSH1 0x24 ADD PUSH1 0x0 PUSH1 0x40 MLOAD DUP1 DUP4 SUB DUP2 PUSH1 0x0 DUP8 DUP1 EXTCODESIZE ISZERO DUP1 ISZERO PUSH2 0xA1E JUMPI PUSH1 0x0 DUP1 REVERT JUMPDEST POP GAS CALL ISZERO DUP1 ISZERO PUSH2 0xA32 JUMPI RETURNDATASIZE PUSH1 0x0 DUP1 RETURNDATACOPY RETURNDATASIZE PUSH1 0x0 REVERT JUMPDEST POP POP TIMESTAMP PUSH1 0x0 DUP2 SWAP1 SSTORE PUSH1 0x40 DUP1 MLOAD SWAP2 DUP3 MSTORE PUSH1 0x20 DUP3 ADD DUP6 SWAP1 MSTORE PUSH32 0x4B7716BC5B5B26ECE4410BEFAF3E3F5432DE88E4593FDC339EAEF715D0A0489C SWAP4 POP ADD SWAP1 POP PUSH1 0x40 MLOAD DUP1 SWAP2 SUB SWAP1 LOG1 POP JUMP JUMPDEST PUSH1 0x3 SLOAD PUSH1 0x1 PUSH1 0x1 PUSH1 0xA0 SHL SUB AND CALLER EQ PUSH2 0xAA3 JUMPI PUSH1 0x40 MLOAD PUSH3 0x461BCD PUSH1 0xE5 SHL DUP2 MSTORE PUSH1 0x4 ADD PUSH2 0x4AF SWAP1 PUSH2 0x2022 JUMP JUMPDEST PUSH1 0x1 PUSH1 0x1 PUSH1 0xA0 SHL SUB DUP2 AND PUSH2 0xAC9 JUMPI PUSH1 0x40 MLOAD PUSH3 0x461BCD PUSH1 0xE5 SHL DUP2 MSTORE PUSH1 0x4 ADD PUSH2 0x4AF SWAP1 PUSH2 0x20F6 JUMP JUMPDEST PUSH1 0x5 DUP1 SLOAD PUSH1 0x1 PUSH1 0x1 PUSH1 0xA0 SHL SUB NOT AND PUSH1 0x1 PUSH1 0x1 PUSH1 0xA0 SHL SUB SWAP3 SWAP1 SWAP3 AND SWAP2 SWAP1 SWAP2 OR SWAP1 SSTORE JUMP JUMPDEST CALLER PUSH1 0x0 SWAP1 DUP2 MSTORE PUSH1 0xB PUSH1 0x20 MSTORE PUSH1 0x40 SWAP1 KECCAK256 SLOAD PUSH1 0xFF AND ISZERO ISZERO PUSH1 0x1 EQ DUP1 PUSH2 0xB18 JUMPI POP PUSH1 0x3 SLOAD PUSH1 0x1 PUSH1 0x1 PUSH1 0xA0 SHL SUB AND CALLER EQ JUMPDEST PUSH2 0xB34 JUMPI PUSH1 0x40 MLOAD PUSH3 0x461BCD PUSH1 0xE5 SHL DUP2 MSTORE PUSH1 0x4 ADD PUSH2 0x4AF SWAP1 PUSH2 0x20B9 JUMP JUMPDEST PUSH1 0x40 DUP1 MLOAD PUSH1 0x1 DUP1 DUP3 MSTORE DUP2 DUP4 ADD SWAP1 SWAP3 MSTORE PUSH1 0x0 SWAP2 DUP3 SWAP2 DUP3 SWAP2 DUP3 SWAP2 SWAP1 DUP2 PUSH1 0x20 ADD JUMPDEST PUSH1 0x40 DUP1 MLOAD PUSH1 0x60 DUP2 ADD DUP3 MSTORE PUSH1 0x0 DUP1 DUP3 MSTORE PUSH1 0x20 DUP1 DUP4 ADD DUP3 SWAP1 MSTORE SWAP3 DUP3 ADD MSTORE DUP3 MSTORE PUSH1 0x0 NOT SWAP1 SWAP3 ADD SWAP2 ADD DUP2 PUSH2 0xB52 JUMPI SWAP1 POP POP SWAP1 POP PUSH1 0x0 SWAP2 POP JUMPDEST PUSH1 0x6 SLOAD DUP3 LT ISZERO PUSH2 0xDBD JUMPI PUSH1 0x6 DUP3 DUP2 SLOAD DUP2 LT PUSH2 0xBA3 JUMPI PUSH2 0xBA3 PUSH2 0x2047 JUMP JUMPDEST PUSH1 0x0 SWAP2 DUP3 MSTORE PUSH1 0x20 SWAP1 SWAP2 KECCAK256 ADD SLOAD PUSH1 0x40 MLOAD PUSH4 0x70A08231 PUSH1 0xE0 SHL DUP2 MSTORE ADDRESS PUSH1 0x4 DUP3 ADD MSTORE PUSH1 0x1 PUSH1 0x1 PUSH1 0xA0 SHL SUB SWAP1 SWAP2 AND SWAP4 POP DUP4 SWAP1 PUSH4 0x70A08231 SWAP1 PUSH1 0x24 ADD PUSH1 0x20 PUSH1 0x40 MLOAD DUP1 DUP4 SUB DUP2 DUP7 GAS STATICCALL ISZERO DUP1 ISZERO PUSH2 0xBF7 JUMPI RETURNDATASIZE PUSH1 0x0 DUP1 RETURNDATACOPY RETURNDATASIZE PUSH1 0x0 REVERT JUMPDEST POP POP POP POP PUSH1 0x40 MLOAD RETURNDATASIZE PUSH1 0x1F NOT PUSH1 0x1F DUP3 ADD AND DUP3 ADD DUP1 PUSH1 0x40 MSTORE POP DUP2 ADD SWAP1 PUSH2 0xC1B SWAP2 SWAP1 PUSH2 0x20DD JUMP JUMPDEST SWAP4 POP PUSH1 0x0 DUP5 GT DUP1 ISZERO PUSH2 0xC45 JUMPI POP PUSH1 0x1 PUSH1 0x1 PUSH1 0xA0 SHL SUB DUP4 AND PUSH1 0x0 SWAP1 DUP2 MSTORE PUSH1 0x8 PUSH1 0x20 MSTORE PUSH1 0x40 SWAP1 KECCAK256 SLOAD PUSH1 0xFF AND JUMPDEST ISZERO PUSH2 0xDAB JUMPI PUSH1 0x1 PUSH1 0x1 PUSH1 0xA0 SHL SUB DUP4 DUP2 AND PUSH1 0x0 SWAP1 DUP2 MSTORE PUSH1 0xA PUSH1 0x20 SWAP1 DUP2 MSTORE PUSH1 0x40 DUP1 DUP4 KECCAK256 DUP2 MLOAD PUSH1 0x60 DUP2 ADD DUP4 MSTORE DUP2 SLOAD DUP7 AND DUP2 MSTORE PUSH1 0x1 SWAP1 SWAP2 ADD SLOAD SWAP5 DUP6 AND SWAP3 DUP2 ADD SWAP3 SWAP1 SWAP3 MSTORE PUSH1 0x1 PUSH1 0xA0 SHL SWAP1 SWAP4 DIV PUSH1 0xFF AND ISZERO ISZERO SWAP3 DUP2 ADD SWAP3 SWAP1 SWAP3 MSTORE DUP3 MLOAD DUP4 SWAP2 SWAP1 PUSH2 0xCA9 JUMPI PUSH2 0xCA9 PUSH2 0x2047 JUMP JUMPDEST PUSH1 0x20 SWAP1 DUP2 MUL SWAP2 SWAP1 SWAP2 ADD ADD MSTORE PUSH1 0x4 SLOAD PUSH2 0xCCD SWAP1 DUP5 SWAP1 PUSH1 0x1 PUSH1 0x1 PUSH1 0xA0 SHL SUB AND PUSH1 0x0 PUSH2 0x1BDB JUMP JUMPDEST PUSH1 0x4 SLOAD PUSH2 0xCE5 SWAP1 DUP5 SWAP1 PUSH1 0x1 PUSH1 0x1 PUSH1 0xA0 SHL SUB AND DUP7 PUSH2 0x1BDB JUMP JUMPDEST PUSH1 0x4 DUP1 SLOAD PUSH1 0x40 MLOAD PUSH4 0x1E82ECDB PUSH1 0xE3 SHL DUP2 MSTORE PUSH1 0x1 PUSH1 0x1 PUSH1 0xA0 SHL SUB SWAP1 SWAP2 AND SWAP2 PUSH4 0xF41766D8 SWAP2 PUSH2 0xD1D SWAP2 DUP9 SWAP2 PUSH1 0x1 SWAP2 DUP8 SWAP2 ADDRESS SWAP2 TIMESTAMP SWAP2 ADD PUSH2 0x2116 JUMP JUMPDEST PUSH1 0x0 PUSH1 0x40 MLOAD DUP1 DUP4 SUB DUP2 PUSH1 0x0 DUP8 GAS CALL SWAP3 POP POP POP DUP1 ISZERO PUSH2 0xD5D JUMPI POP PUSH1 0x40 MLOAD RETURNDATASIZE PUSH1 0x0 DUP3 RETURNDATACOPY PUSH1 0x1F RETURNDATASIZE SWAP1 DUP2 ADD PUSH1 0x1F NOT AND DUP3 ADD PUSH1 0x40 MSTORE PUSH2 0xD5A SWAP2 SWAP1 DUP2 ADD SWAP1 PUSH2 0x21AB JUMP JUMPDEST PUSH1 0x1 JUMPDEST PUSH2 0xDA9 JUMPI PUSH1 0x40 DUP1 MLOAD DUP6 DUP2 MSTORE TIMESTAMP PUSH1 0x20 DUP3 ADD MSTORE PUSH1 0x1 PUSH1 0x1 PUSH1 0xA0 SHL SUB DUP6 AND SWAP2 PUSH32 0x24BB57C4C135223EB3FA5D03C9AA5958F103CC3EC9B2D7C8D35FFFAD65779D06 SWAP2 ADD PUSH1 0x40 MLOAD DUP1 SWAP2 SUB SWAP1 LOG2 PUSH2 0xDAB JUMP JUMPDEST POP JUMPDEST DUP2 PUSH2 0xDB5 DUP2 PUSH2 0x2073 JUMP JUMPDEST SWAP3 POP POP PUSH2 0xB86 JUMP JUMPDEST PUSH1 0x2 SLOAD PUSH1 0x40 MLOAD PUSH4 0x70A08231 PUSH1 0xE0 SHL DUP2 MSTORE ADDRESS PUSH1 0x4 DUP3 ADD MSTORE PUSH1 0x1 PUSH1 0x1 PUSH1 0xA0 SHL SUB SWAP1 SWAP2 AND SWAP1 PUSH4 0x70A08231 SWAP1 PUSH1 0x24 ADD PUSH1 0x20 PUSH1 0x40 MLOAD DUP1 DUP4 SUB DUP2 DUP7 GAS STATICCALL ISZERO DUP1 ISZERO PUSH2 0xE05 JUMPI RETURNDATASIZE PUSH1 0x0 DUP1 RETURNDATACOPY RETURNDATASIZE PUSH1 0x0 REVERT JUMPDEST POP POP POP POP PUSH1 0x40 MLOAD RETURNDATASIZE PUSH1 0x1F NOT PUSH1 0x1F DUP3 ADD AND DUP3 ADD DUP1 PUSH1 0x40 MSTORE POP DUP2 ADD SWAP1 PUSH2 0xE29 SWAP2 SWAP1 PUSH2 0x20DD JUMP JUMPDEST SWAP4 POP DUP4 ISZERO PUSH2 0xEAD JUMPI PUSH1 0x2 SLOAD PUSH1 0x1 SLOAD PUSH2 0xE4E SWAP2 PUSH1 0x1 PUSH1 0x1 PUSH1 0xA0 SHL SUB SWAP1 DUP2 AND SWAP2 AND DUP7 PUSH2 0x1AE2 JUMP JUMPDEST PUSH1 0x1 SLOAD PUSH1 0x40 MLOAD PUSH4 0x19983251 PUSH1 0xE0 SHL DUP2 MSTORE PUSH1 0x4 DUP2 ADD DUP7 SWAP1 MSTORE PUSH1 0x1 PUSH1 0x1 PUSH1 0xA0 SHL SUB SWAP1 SWAP2 AND SWAP1 PUSH4 0x19983251 SWAP1 PUSH1 0x24 ADD PUSH1 0x0 PUSH1 0x40 MLOAD DUP1 DUP4 SUB DUP2 PUSH1 0x0 DUP8 DUP1 EXTCODESIZE ISZERO DUP1 ISZERO PUSH2 0xE94 JUMPI PUSH1 0x0 DUP1 REVERT JUMPDEST POP GAS CALL ISZERO DUP1 ISZERO PUSH2 0xEA8 JUMPI RETURNDATASIZE PUSH1 0x0 DUP1 RETURNDATACOPY RETURNDATASIZE PUSH1 0x0 REVERT JUMPDEST POP POP POP POP JUMPDEST TIMESTAMP PUSH1 0x0 DUP2 SWAP1 SSTORE PUSH1 0x40 DUP1 MLOAD SWAP2 DUP3 MSTORE PUSH1 0x20 DUP3 ADD DUP7 SWAP1 MSTORE PUSH32 0x4B7716BC5B5B26ECE4410BEFAF3E3F5432DE88E4593FDC339EAEF715D0A0489C SWAP2 ADD PUSH1 0x40 MLOAD DUP1 SWAP2 SUB SWAP1 LOG1 POP POP POP POP JUMP JUMPDEST CALLER PUSH1 0x0 SWAP1 DUP2 MSTORE PUSH1 0xB PUSH1 0x20 MSTORE PUSH1 0x40 SWAP1 KECCAK256 SLOAD PUSH1 0x60 SWAP1 PUSH1 0xFF AND ISZERO ISZERO PUSH1 0x1 EQ DUP1 PUSH2 0xF22 JUMPI POP PUSH1 0x3 SLOAD PUSH1 0x1 PUSH1 0x1 PUSH1 0xA0 SHL SUB AND CALLER EQ JUMPDEST PUSH2 0xF3E JUMPI PUSH1 0x40 MLOAD PUSH3 0x461BCD PUSH1 0xE5 SHL DUP2 MSTORE PUSH1 0x4 ADD PUSH2 0x4AF SWAP1 PUSH2 0x20B9 JUMP JUMPDEST PUSH1 0x4 DUP1 SLOAD PUSH1 0x40 MLOAD PUSH4 0x1E82ECDB PUSH1 0xE3 SHL DUP2 MSTORE PUSH1 0x1 PUSH1 0x1 PUSH1 0xA0 SHL SUB SWAP1 SWAP2 AND SWAP2 PUSH4 0xF41766D8 SWAP2 PUSH2 0xF77 SWAP2 DUP11 SWAP2 DUP11 SWAP2 DUP11 SWAP2 DUP11 SWAP2 ADDRESS SWAP2 DUP12 SWAP2 ADD PUSH2 0x2231 JUMP JUMPDEST PUSH1 0x0 PUSH1 0x40 MLOAD DUP1 DUP4 SUB DUP2 PUSH1 0x0 DUP8 GAS CALL ISZERO DUP1 ISZERO PUSH2 0xF96 JUMPI RETURNDATASIZE PUSH1 0x0 DUP1 RETURNDATACOPY RETURNDATASIZE PUSH1 0x0 REVERT JUMPDEST POP POP POP POP PUSH1 0x40 MLOAD RETURNDATASIZE PUSH1 0x0 DUP3 RETURNDATACOPY PUSH1 0x1F RETURNDATASIZE SWAP1 DUP2 ADD PUSH1 0x1F NOT AND DUP3 ADD PUSH1 0x40 MSTORE PUSH2 0xFBE SWAP2 SWAP1 DUP2 ADD SWAP1 PUSH2 0x21AB JUMP JUMPDEST SWAP7 SWAP6 POP POP POP POP POP POP JUMP JUMPDEST PUSH1 0x60 PUSH1 0x6 DUP1 SLOAD DUP1 PUSH1 0x20 MUL PUSH1 0x20 ADD PUSH1 0x40 MLOAD SWAP1 DUP2 ADD PUSH1 0x40 MSTORE DUP1 SWAP3 SWAP2 SWAP1 DUP2 DUP2 MSTORE PUSH1 0x20 ADD DUP3 DUP1 SLOAD DUP1 ISZERO PUSH2 0x68D JUMPI PUSH1 0x20 MUL DUP3 ADD SWAP2 SWAP1 PUSH1 0x0 MSTORE PUSH1 0x20 PUSH1 0x0 KECCAK256 SWAP1 DUP2 SLOAD PUSH1 0x1 PUSH1 0x1 PUSH1 0xA0 SHL SUB AND DUP2 MSTORE PUSH1 0x1 SWAP1 SWAP2 ADD SWAP1 PUSH1 0x20 ADD DUP1 DUP4 GT PUSH2 0x66F JUMPI POP POP POP POP POP SWAP1 POP SWAP1 JUMP JUMPDEST CALLER PUSH1 0x0 SWAP1 DUP2 MSTORE PUSH1 0xB PUSH1 0x20 MSTORE PUSH1 0x40 SWAP1 KECCAK256 SLOAD PUSH1 0xFF AND ISZERO ISZERO PUSH1 0x1 EQ DUP1 PUSH2 0x1055 JUMPI POP PUSH1 0x3 SLOAD PUSH1 0x1 PUSH1 0x1 PUSH1 0xA0 SHL SUB AND CALLER EQ JUMPDEST PUSH2 0x1071 JUMPI PUSH1 0x40 MLOAD PUSH3 0x461BCD PUSH1 0xE5 SHL DUP2 MSTORE PUSH1 0x4 ADD PUSH2 0x4AF SWAP1 PUSH2 0x20B9 JUMP JUMPDEST PUSH1 0x1 PUSH1 0x1 PUSH1 0xA0 SHL SUB DUP2 AND PUSH2 0x1084 JUMPI PUSH1 0x0 DUP1 REVERT JUMPDEST DUP1 PUSH1 0x1 PUSH1 0x1 PUSH1 0xA0 SHL SUB AND PUSH4 0xF083BE3B PUSH1 0x40 MLOAD DUP2 PUSH4 0xFFFFFFFF AND PUSH1 0xE0 SHL DUP2 MSTORE PUSH1 0x4 ADD PUSH1 0x0 PUSH1 0x40 MLOAD DUP1 DUP4 SUB DUP2 PUSH1 0x0 DUP8 DUP1 EXTCODESIZE ISZERO DUP1 ISZERO PUSH2 0x10BF JUMPI PUSH1 0x0 DUP1 REVERT JUMPDEST POP GAS CALL ISZERO DUP1 ISZERO PUSH2 0x10D3 JUMPI RETURNDATASIZE PUSH1 0x0 DUP1 RETURNDATACOPY RETURNDATASIZE PUSH1 0x0 REVERT JUMPDEST POP POP POP POP POP JUMP JUMPDEST PUSH1 0x3 SLOAD PUSH1 0x1 PUSH1 0x1 PUSH1 0xA0 SHL SUB AND CALLER EQ PUSH2 0x1104 JUMPI PUSH1 0x40 MLOAD PUSH3 0x461BCD PUSH1 0xE5 SHL DUP2 MSTORE PUSH1 0x4 ADD PUSH2 0x4AF SWAP1 PUSH2 0x2022 JUMP JUMPDEST PUSH1 0x1 PUSH1 0x1 PUSH1 0xA0 SHL SUB DUP2 AND PUSH2 0x112A JUMPI PUSH1 0x40 MLOAD PUSH3 0x461BCD PUSH1 0xE5 SHL DUP2 MSTORE PUSH1 0x4 ADD PUSH2 0x4AF SWAP1 PUSH2 0x20F6 JUMP JUMPDEST PUSH1 0x1 DUP1 SLOAD PUSH1 0x1 PUSH1 0x1 PUSH1 0xA0 SHL SUB NOT AND PUSH1 0x1 PUSH1 0x1 PUSH1 0xA0 SHL SUB SWAP3 SWAP1 SWAP3 AND SWAP2 SWAP1 SWAP2 OR SWAP1 SSTORE JUMP JUMPDEST PUSH1 0x3 SLOAD PUSH1 0x1 PUSH1 0x1 PUSH1 0xA0 SHL SUB AND CALLER EQ PUSH2 0x1176 JUMPI PUSH1 0x40 MLOAD PUSH3 0x461BCD PUSH1 0xE5 SHL DUP2 MSTORE PUSH1 0x4 ADD PUSH2 0x4AF SWAP1 PUSH2 0x2022 JUMP JUMPDEST PUSH1 0x1 PUSH1 0x1 PUSH1 0xA0 SHL SUB DUP3 AND PUSH2 0x1189 JUMPI PUSH1 0x0 DUP1 REVERT JUMPDEST PUSH1 0x1 PUSH1 0x1 PUSH1 0xA0 SHL SUB DUP3 AND PUSH1 0x0 SWAP1 DUP2 MSTORE PUSH1 0x8 PUSH1 0x20 MSTORE PUSH1 0x40 SWAP1 KECCAK256 SLOAD PUSH1 0xFF AND ISZERO PUSH2 0x11AF JUMPI PUSH1 0x0 DUP1 REVERT JUMPDEST PUSH1 0x1 PUSH1 0x1 PUSH1 0xA0 SHL SUB SWAP2 DUP3 AND PUSH1 0x0 DUP2 DUP2 MSTORE PUSH1 0x8 PUSH1 0x20 SWAP1 DUP2 MSTORE PUSH1 0x40 DUP1 DUP4 KECCAK256 DUP1 SLOAD PUSH1 0xFF NOT AND PUSH1 0x1 SWAP1 DUP2 OR SWAP1 SWAP2 SSTORE PUSH1 0xA DUP4 MSTORE DUP2 DUP5 KECCAK256 DUP7 MLOAD DUP2 SLOAD SWAP1 DUP10 AND PUSH1 0x1 PUSH1 0x1 PUSH1 0xA0 SHL SUB NOT SWAP2 DUP3 AND OR DUP3 SSTORE DUP8 DUP6 ADD MLOAD SWAP2 DUP4 ADD DUP1 SLOAD SWAP9 DUP6 ADD MLOAD ISZERO ISZERO PUSH1 0x1 PUSH1 0xA0 SHL MUL PUSH1 0x1 PUSH1 0x1 PUSH1 0xA8 SHL SUB NOT SWAP1 SWAP10 AND SWAP3 SWAP1 SWAP10 AND SWAP2 SWAP1 SWAP2 OR SWAP7 SWAP1 SWAP7 OR SWAP1 SWAP7 SSTORE PUSH1 0x6 DUP1 SLOAD PUSH1 0x9 SWAP1 SWAP4 MSTORE SWAP1 DUP4 KECCAK256 DUP3 SWAP1 SSTORE SWAP5 DUP2 ADD DUP6 SSTORE SWAP4 SWAP1 MSTORE PUSH32 0xF652222313E28459528D920B65115C16C04F3EFC82AAEDC97BE59F3F377C0D3F SWAP1 SWAP3 ADD DUP1 SLOAD SWAP1 SWAP2 AND SWAP1 SWAP2 OR SWAP1 SSTORE JUMP JUMPDEST PUSH1 0x7 DUP2 DUP2 SLOAD DUP2 LT PUSH2 0x61B JUMPI PUSH1 0x0 DUP1 REVERT JUMPDEST PUSH1 0x3 SLOAD PUSH1 0x1 PUSH1 0x1 PUSH1 0xA0 SHL SUB AND CALLER EQ PUSH2 0x12A7 JUMPI PUSH1 0x40 MLOAD PUSH3 0x461BCD PUSH1 0xE5 SHL DUP2 MSTORE PUSH1 0x4 ADD PUSH2 0x4AF SWAP1 PUSH2 0x2022 JUMP JUMPDEST PUSH1 0x1 PUSH1 0x1 PUSH1 0xA0 SHL SUB DUP3 AND PUSH2 0x12BA JUMPI PUSH1 0x0 DUP1 REVERT JUMPDEST PUSH1 0x1 PUSH1 0x1 PUSH1 0xA0 SHL SUB DUP3 AND PUSH1 0x0 SWAP1 DUP2 MSTORE PUSH1 0x8 PUSH1 0x20 MSTORE PUSH1 0x40 SWAP1 KECCAK256 SLOAD PUSH1 0xFF AND ISZERO ISZERO PUSH1 0x1 EQ PUSH2 0x12E4 JUMPI PUSH1 0x0 DUP1 REVERT JUMPDEST DUP2 PUSH1 0x1 PUSH1 0x1 PUSH1 0xA0 SHL SUB AND DUP2 PUSH1 0x0 ADD MLOAD PUSH1 0x1 PUSH1 0x1 PUSH1 0xA0 SHL SUB AND EQ PUSH2 0x1306 JUMPI PUSH1 0x0 DUP1 REVERT JUMPDEST PUSH1 0x1 PUSH1 0x1 PUSH1 0xA0 SHL SUB SWAP2 DUP3 AND PUSH1 0x0 SWAP1 DUP2 MSTORE PUSH1 0xA PUSH1 0x20 SWAP1 DUP2 MSTORE PUSH1 0x40 SWAP2 DUP3 SWAP1 KECCAK256 DUP4 MLOAD DUP2 SLOAD SWAP1 DUP7 AND PUSH1 0x1 PUSH1 0x1 PUSH1 0xA0 SHL SUB NOT SWAP1 SWAP2 AND OR DUP2 SSTORE SWAP1 DUP4 ADD MLOAD PUSH1 0x1 SWAP1 SWAP2 ADD DUP1 SLOAD SWAP3 SWAP1 SWAP4 ADD MLOAD ISZERO ISZERO PUSH1 0x1 PUSH1 0xA0 SHL MUL PUSH1 0x1 PUSH1 0x1 PUSH1 0xA8 SHL SUB NOT SWAP1 SWAP3 AND SWAP4 AND SWAP3 SWAP1 SWAP3 OR SWAP2 SWAP1 SWAP2 OR SWAP1 SSTORE JUMP JUMPDEST PUSH1 0x3 SLOAD PUSH1 0x1 PUSH1 0x1 PUSH1 0xA0 SHL SUB AND CALLER EQ PUSH2 0x1395 JUMPI PUSH1 0x40 MLOAD PUSH3 0x461BCD PUSH1 0xE5 SHL DUP2 MSTORE PUSH1 0x4 ADD PUSH2 0x4AF SWAP1 PUSH2 0x2022 JUMP JUMPDEST PUSH1 0x1 PUSH1 0x1 PUSH1 0xA0 SHL SUB DUP2 AND PUSH2 0x13BB JUMPI PUSH1 0x40 MLOAD PUSH3 0x461BCD PUSH1 0xE5 SHL DUP2 MSTORE PUSH1 0x4 ADD PUSH2 0x4AF SWAP1 PUSH2 0x20F6 JUMP JUMPDEST PUSH1 0x4 DUP1 SLOAD PUSH1 0x1 PUSH1 0x1 PUSH1 0xA0 SHL SUB NOT AND PUSH1 0x1 PUSH1 0x1 PUSH1 0xA0 SHL SUB SWAP3 SWAP1 SWAP3 AND SWAP2 SWAP1 SWAP2 OR SWAP1 SSTORE JUMP JUMPDEST CALLER PUSH1 0x0 SWAP1 DUP2 MSTORE PUSH1 0xB PUSH1 0x20 MSTORE PUSH1 0x40 SWAP1 KECCAK256 SLOAD PUSH1 0xFF AND ISZERO ISZERO PUSH1 0x1 EQ DUP1 PUSH2 0x140A JUMPI POP PUSH1 0x3 SLOAD PUSH1 0x1 PUSH1 0x1 PUSH1 0xA0 SHL SUB AND CALLER EQ JUMPDEST PUSH2 0x1426 JUMPI PUSH1 0x40 MLOAD PUSH3 0x461BCD PUSH1 0xE5 SHL DUP2 MSTORE PUSH1 0x4 ADD PUSH2 0x4AF SWAP1 PUSH2 0x20B9 JUMP JUMPDEST PUSH1 0x7 SLOAD PUSH1 0x0 SWAP1 DUP2 DUP2 PUSH8 0xFFFFFFFFFFFFFFFF DUP2 GT ISZERO PUSH2 0x1446 JUMPI PUSH2 0x1446 PUSH2 0x1D0A JUMP JUMPDEST PUSH1 0x40 MLOAD SWAP1 DUP1 DUP3 MSTORE DUP1 PUSH1 0x20 MUL PUSH1 0x20 ADD DUP3 ADD PUSH1 0x40 MSTORE DUP1 ISZERO PUSH2 0x146F JUMPI DUP2 PUSH1 0x20 ADD PUSH1 0x20 DUP3 MUL DUP1 CALLDATASIZE DUP4 CALLDATACOPY ADD SWAP1 POP JUMPDEST POP PUSH1 0x7 DUP1 SLOAD PUSH1 0x40 DUP1 MLOAD PUSH1 0x20 DUP1 DUP5 MUL DUP3 ADD DUP2 ADD SWAP1 SWAP3 MSTORE DUP3 DUP2 MSTORE SWAP4 SWAP5 POP DUP4 ADD DUP3 DUP3 DUP1 ISZERO PUSH2 0x14C3 JUMPI PUSH1 0x20 MUL DUP3 ADD SWAP2 SWAP1 PUSH1 0x0 MSTORE PUSH1 0x20 PUSH1 0x0 KECCAK256 SWAP1 JUMPDEST DUP2 SLOAD PUSH1 0x1 PUSH1 0x1 PUSH1 0xA0 SHL SUB AND DUP2 MSTORE PUSH1 0x1 SWAP1 SWAP2 ADD SWAP1 PUSH1 0x20 ADD DUP1 DUP4 GT PUSH2 0x14A5 JUMPI JUMPDEST POP POP POP POP POP SWAP1 POP JUMPDEST DUP2 DUP4 LT ISZERO PUSH2 0x160C JUMPI DUP1 DUP4 DUP2 MLOAD DUP2 LT PUSH2 0x14E5 JUMPI PUSH2 0x14E5 PUSH2 0x2047 JUMP JUMPDEST PUSH1 0x20 MUL PUSH1 0x20 ADD ADD MLOAD PUSH1 0x1 PUSH1 0x1 PUSH1 0xA0 SHL SUB AND PUSH4 0xF083BE3B PUSH1 0x40 MLOAD DUP2 PUSH4 0xFFFFFFFF AND PUSH1 0xE0 SHL DUP2 MSTORE PUSH1 0x4 ADD PUSH1 0x0 PUSH1 0x40 MLOAD DUP1 DUP4 SUB DUP2 PUSH1 0x0 DUP8 DUP1 EXTCODESIZE ISZERO DUP1 ISZERO PUSH2 0x1527 JUMPI PUSH1 0x0 DUP1 REVERT JUMPDEST POP GAS CALL SWAP3 POP POP POP DUP1 ISZERO PUSH2 0x1538 JUMPI POP PUSH1 0x1 JUMPDEST PUSH2 0x159D JUMPI DUP1 DUP4 DUP2 MLOAD DUP2 LT PUSH2 0x154E JUMPI PUSH2 0x154E PUSH2 0x2047 JUMP JUMPDEST PUSH1 0x20 MUL PUSH1 0x20 ADD ADD MLOAD PUSH1 0x1 PUSH1 0x1 PUSH1 0xA0 SHL SUB AND PUSH32 0xE1563B4DFB06394FE84449E66B5C42F40347D03A3E1398FFEEB85A298CC338EA TIMESTAMP PUSH1 0x40 MLOAD PUSH2 0x1590 SWAP2 DUP2 MSTORE PUSH1 0x20 ADD SWAP1 JUMP JUMPDEST PUSH1 0x40 MLOAD DUP1 SWAP2 SUB SWAP1 LOG2 PUSH2 0x15FA JUMP JUMPDEST DUP1 DUP4 DUP2 MLOAD DUP2 LT PUSH2 0x15AF JUMPI PUSH2 0x15AF PUSH2 0x2047 JUMP JUMPDEST PUSH1 0x20 MUL PUSH1 0x20 ADD ADD MLOAD PUSH1 0x1 PUSH1 0x1 PUSH1 0xA0 SHL SUB AND PUSH32 0xF40B9CA28516ABDE647EF8ED0E7B155E16347EB4D8DD6EB29989ED2C0C3D27E8 TIMESTAMP PUSH1 0x40 MLOAD PUSH2 0x15F1 SWAP2 DUP2 MSTORE PUSH1 0x20 ADD SWAP1 JUMP JUMPDEST PUSH1 0x40 MLOAD DUP1 SWAP2 SUB SWAP1 LOG2 JUMPDEST DUP3 PUSH2 0x1604 DUP2 PUSH2 0x2073 JUMP JUMPDEST SWAP4 POP POP PUSH2 0x14CB JUMP JUMPDEST POP POP POP JUMP JUMPDEST PUSH1 0x3 SLOAD PUSH1 0x1 PUSH1 0x1 PUSH1 0xA0 SHL SUB AND CALLER EQ PUSH2 0x163B JUMPI PUSH1 0x40 MLOAD PUSH3 0x461BCD PUSH1 0xE5 SHL DUP2 MSTORE PUSH1 0x4 ADD PUSH2 0x4AF SWAP1 PUSH2 0x2022 JUMP JUMPDEST PUSH1 0x1 PUSH1 0x1 PUSH1 0xA0 SHL SUB DUP2 AND PUSH2 0x16A0 JUMPI PUSH1 0x40 MLOAD PUSH3 0x461BCD PUSH1 0xE5 SHL DUP2 MSTORE PUSH1 0x20 PUSH1 0x4 DUP3 ADD MSTORE PUSH1 0x26 PUSH1 0x24 DUP3 ADD MSTORE PUSH32 0x4F776E61626C653A206E6577206F776E657220697320746865207A65726F2061 PUSH1 0x44 DUP3 ADD MSTORE PUSH6 0x646472657373 PUSH1 0xD0 SHL PUSH1 0x64 DUP3 ADD MSTORE PUSH1 0x84 ADD PUSH2 0x4AF JUMP JUMPDEST PUSH1 0x3 DUP1 SLOAD PUSH1 0x1 PUSH1 0x1 PUSH1 0xA0 SHL SUB DUP4 DUP2 AND PUSH1 0x1 PUSH1 0x1 PUSH1 0xA0 SHL SUB NOT DUP4 AND DUP2 OR SWAP1 SWAP4 SSTORE PUSH1 0x40 DUP1 MLOAD SWAP2 SWAP1 SWAP3 AND DUP1 DUP3 MSTORE PUSH1 0x20 DUP3 ADD SWAP4 SWAP1 SWAP4 MSTORE PUSH32 0x5C486528EC3E3F0EA91181CFF8116F02BFA350E03B8B6F12E00765ADBB5AF85C SWAP2 ADD PUSH1 0x40 MLOAD DUP1 SWAP2 SUB SWAP1 LOG1 POP POP JUMP JUMPDEST PUSH1 0x3 SLOAD PUSH1 0x1 PUSH1 0x1 PUSH1 0xA0 SHL SUB AND CALLER EQ PUSH2 0x172B JUMPI PUSH1 0x40 MLOAD PUSH3 0x461BCD PUSH1 0xE5 SHL DUP2 MSTORE PUSH1 0x4 ADD PUSH2 0x4AF SWAP1 PUSH2 0x2022 JUMP JUMPDEST PUSH1 0x1 PUSH1 0x1 PUSH1 0xA0 SHL SUB DUP2 AND PUSH2 0x173E JUMPI PUSH1 0x0 DUP1 REVERT JUMPDEST PUSH1 0x40 MLOAD PUSH4 0x70A08231 PUSH1 0xE0 SHL DUP2 MSTORE ADDRESS PUSH1 0x4 DUP3 ADD MSTORE PUSH1 0x0 SWAP1 PUSH1 0x1 PUSH1 0x1 PUSH1 0xA0 SHL SUB DUP4 AND SWAP1 PUSH4 0x70A08231 SWAP1 PUSH1 0x24 ADD PUSH1 0x20 PUSH1 0x40 MLOAD DUP1 DUP4 SUB DUP2 DUP7 GAS STATICCALL ISZERO DUP1 ISZERO PUSH2 0x1785 JUMPI RETURNDATASIZE PUSH1 0x0 DUP1 RETURNDATACOPY RETURNDATASIZE PUSH1 0x0 REVERT JUMPDEST POP POP POP POP PUSH1 0x40 MLOAD RETURNDATASIZE PUSH1 0x1F NOT PUSH1 0x1F DUP3 ADD AND DUP3 ADD DUP1 PUSH1 0x40 MSTORE POP DUP2 ADD SWAP1 PUSH2 0x17A9 SWAP2 SWAP1 PUSH2 0x20DD JUMP JUMPDEST SWAP1 POP PUSH2 0x57F DUP3 CALLER DUP4 PUSH2 0x1AE2 JUMP JUMPDEST PUSH1 0x1 PUSH1 0x1 PUSH1 0xA0 SHL SUB DUP2 AND PUSH2 0x17C9 JUMPI PUSH1 0x0 DUP1 REVERT JUMPDEST PUSH1 0x0 DUP2 PUSH1 0x1 PUSH1 0x1 PUSH1 0xA0 SHL SUB AND PUSH4 0xDFE1681 PUSH1 0x40 MLOAD DUP2 PUSH4 0xFFFFFFFF AND PUSH1 0xE0 SHL DUP2 MSTORE PUSH1 0x4 ADD PUSH1 0x20 PUSH1 0x40 MLOAD DUP1 DUP4 SUB DUP2 DUP7 GAS STATICCALL ISZERO DUP1 ISZERO PUSH2 0x1809 JUMPI RETURNDATASIZE PUSH1 0x0 DUP1 RETURNDATACOPY RETURNDATASIZE PUSH1 0x0 REVERT JUMPDEST POP POP POP POP PUSH1 0x40 MLOAD RETURNDATASIZE PUSH1 0x1F NOT PUSH1 0x1F DUP3 ADD AND DUP3 ADD DUP1 PUSH1 0x40 MSTORE POP DUP2 ADD SWAP1 PUSH2 0x182D SWAP2 SWAP1 PUSH2 0x22DD JUMP JUMPDEST SWAP1 POP PUSH1 0x0 DUP3 PUSH1 0x1 PUSH1 0x1 PUSH1 0xA0 SHL SUB AND PUSH4 0xD21220A7 PUSH1 0x40 MLOAD DUP2 PUSH4 0xFFFFFFFF AND PUSH1 0xE0 SHL DUP2 MSTORE PUSH1 0x4 ADD PUSH1 0x20 PUSH1 0x40 MLOAD DUP1 DUP4 SUB DUP2 DUP7 GAS STATICCALL ISZERO DUP1 ISZERO PUSH2 0x186F JUMPI RETURNDATASIZE PUSH1 0x0 DUP1 RETURNDATACOPY RETURNDATASIZE PUSH1 0x0 REVERT JUMPDEST POP POP POP POP PUSH1 0x40 MLOAD RETURNDATASIZE PUSH1 0x1F NOT PUSH1 0x1F DUP3 ADD AND DUP3 ADD DUP1 PUSH1 0x40 MSTORE POP DUP2 ADD SWAP1 PUSH2 0x1893 SWAP2 SWAP1 PUSH2 0x22DD JUMP JUMPDEST SWAP1 POP PUSH1 0x1 PUSH1 0x1 PUSH1 0xA0 SHL SUB DUP3 AND PUSH2 0x18A8 JUMPI PUSH1 0x0 DUP1 REVERT JUMPDEST PUSH1 0x1 PUSH1 0x1 PUSH1 0xA0 SHL SUB DUP2 AND PUSH2 0x18BB JUMPI PUSH1 0x0 DUP1 REVERT JUMPDEST PUSH1 0x40 DUP1 MLOAD PUSH1 0x60 DUP2 ADD DUP3 MSTORE PUSH1 0x0 DUP1 DUP3 MSTORE PUSH1 0x20 DUP3 ADD DUP2 SWAP1 MSTORE SWAP2 DUP2 ADD SWAP2 SWAP1 SWAP2 MSTORE PUSH1 0x2 SLOAD PUSH1 0x1 PUSH1 0x1 PUSH1 0xA0 SHL SUB DUP5 DUP2 AND SWAP2 AND EQ DUP1 ISZERO SWAP1 PUSH2 0x190F JUMPI POP PUSH1 0x1 PUSH1 0x1 PUSH1 0xA0 SHL SUB DUP4 AND PUSH1 0x0 SWAP1 DUP2 MSTORE PUSH1 0x8 PUSH1 0x20 MSTORE PUSH1 0x40 SWAP1 KECCAK256 SLOAD PUSH1 0xFF AND ISZERO JUMPDEST ISZERO PUSH2 0x19DA JUMPI PUSH1 0x1 PUSH1 0x1 PUSH1 0xA0 SHL SUB DUP1 DUP5 AND DUP1 DUP4 MSTORE PUSH1 0x2 SLOAD DUP3 AND PUSH1 0x20 DUP1 DUP6 ADD SWAP2 DUP3 MSTORE PUSH1 0x0 PUSH1 0x40 DUP1 DUP8 ADD DUP3 DUP2 MSTORE DUP6 DUP4 MSTORE PUSH1 0xA DUP5 MSTORE DUP2 DUP4 KECCAK256 DUP9 MLOAD DUP2 SLOAD SWAP1 DUP10 AND PUSH1 0x1 PUSH1 0x1 PUSH1 0xA0 SHL SUB NOT SWAP2 DUP3 AND OR DUP3 SSTORE SWAP6 MLOAD PUSH1 0x1 SWAP2 DUP3 ADD DUP1 SLOAD SWAP4 MLOAD ISZERO ISZERO PUSH1 0x1 PUSH1 0xA0 SHL MUL PUSH1 0x1 PUSH1 0x1 PUSH1 0xA8 SHL SUB NOT SWAP1 SWAP5 AND SWAP2 SWAP1 SWAP10 AND OR SWAP2 SWAP1 SWAP2 OR SWAP1 SWAP7 SSTORE PUSH1 0x8 DUP4 MSTORE DUP1 DUP3 KECCAK256 DUP1 SLOAD PUSH1 0xFF NOT AND DUP8 OR SWAP1 SSTORE PUSH1 0x6 DUP1 SLOAD PUSH1 0x9 SWAP1 SWAP5 MSTORE SWAP1 DUP3 KECCAK256 DUP4 SWAP1 SSTORE SWAP5 DUP3 ADD DUP6 SSTORE SWAP4 SWAP1 SWAP4 MSTORE PUSH32 0xF652222313E28459528D920B65115C16C04F3EFC82AAEDC97BE59F3F377C0D3F SWAP1 SWAP3 ADD DUP1 SLOAD SWAP1 SWAP3 AND OR SWAP1 SSTORE JUMPDEST PUSH1 0x2 SLOAD PUSH1 0x1 PUSH1 0x1 PUSH1 0xA0 SHL SUB DUP4 DUP2 AND SWAP2 AND EQ DUP1 ISZERO SWAP1 PUSH2 0x1A11 JUMPI POP PUSH1 0x1 PUSH1 0x1 PUSH1 0xA0 SHL SUB DUP3 AND PUSH1 0x0 SWAP1 DUP2 MSTORE PUSH1 0x8 PUSH1 0x20 MSTORE PUSH1 0x40 SWAP1 KECCAK256 SLOAD PUSH1 0xFF AND ISZERO JUMPDEST ISZERO PUSH2 0x1ADC JUMPI PUSH1 0x1 PUSH1 0x1 PUSH1 0xA0 SHL SUB DUP1 DUP4 AND DUP1 DUP4 MSTORE PUSH1 0x2 SLOAD DUP3 AND PUSH1 0x20 DUP1 DUP6 ADD SWAP2 DUP3 MSTORE PUSH1 0x0 PUSH1 0x40 DUP1 DUP8 ADD DUP3 DUP2 MSTORE DUP6 DUP4 MSTORE PUSH1 0xA DUP5 MSTORE DUP2 DUP4 KECCAK256 DUP9 MLOAD DUP2 SLOAD SWAP1 DUP10 AND PUSH1 0x1 PUSH1 0x1 PUSH1 0xA0 SHL SUB NOT SWAP2 DUP3 AND OR DUP3 SSTORE SWAP6 MLOAD PUSH1 0x1 SWAP2 DUP3 ADD DUP1 SLOAD SWAP4 MLOAD ISZERO ISZERO PUSH1 0x1 PUSH1 0xA0 SHL MUL PUSH1 0x1 PUSH1 0x1 PUSH1 0xA8 SHL SUB NOT SWAP1 SWAP5 AND SWAP2 SWAP1 SWAP10 AND OR SWAP2 SWAP1 SWAP2 OR SWAP1 SWAP7 SSTORE PUSH1 0x8 DUP4 MSTORE DUP1 DUP3 KECCAK256 DUP1 SLOAD PUSH1 0xFF NOT AND DUP8 OR SWAP1 SSTORE PUSH1 0x6 DUP1 SLOAD PUSH1 0x9 SWAP1 SWAP5 MSTORE SWAP1 DUP3 KECCAK256 DUP4 SWAP1 SSTORE SWAP5 DUP3 ADD DUP6 SSTORE SWAP4 SWAP1 SWAP4 MSTORE PUSH32 0xF652222313E28459528D920B65115C16C04F3EFC82AAEDC97BE59F3F377C0D3F SWAP1 SWAP3 ADD DUP1 SLOAD SWAP1 SWAP3 AND OR SWAP1 SSTORE JUMPDEST POP POP POP POP JUMP JUMPDEST PUSH1 0x0 DUP4 PUSH1 0x1 PUSH1 0x1 PUSH1 0xA0 SHL SUB AND EXTCODESIZE GT PUSH2 0x1AF9 JUMPI PUSH1 0x0 DUP1 REVERT JUMPDEST PUSH1 0x40 MLOAD PUSH1 0x1 PUSH1 0x1 PUSH1 0xA0 SHL SUB DUP4 DUP2 AND PUSH1 0x24 DUP4 ADD MSTORE PUSH1 0x44 DUP3 ADD DUP4 SWAP1 MSTORE PUSH1 0x0 SWAP2 DUP3 SWAP2 DUP7 AND SWAP1 PUSH4 0xA9059CBB PUSH1 0xE0 SHL SWAP1 PUSH1 0x64 ADD JUMPDEST PUSH1 0x40 DUP1 MLOAD PUSH1 0x1F NOT DUP2 DUP5 SUB ADD DUP2 MSTORE SWAP2 DUP2 MSTORE PUSH1 0x20 DUP3 ADD DUP1 MLOAD PUSH1 0x1 PUSH1 0x1 PUSH1 0xE0 SHL SUB AND PUSH1 0x1 PUSH1 0x1 PUSH1 0xE0 SHL SUB NOT SWAP1 SWAP5 AND SWAP4 SWAP1 SWAP4 OR SWAP1 SWAP3 MSTORE SWAP1 MLOAD PUSH2 0x1B66 SWAP2 SWAP1 PUSH2 0x22FA JUMP JUMPDEST PUSH1 0x0 PUSH1 0x40 MLOAD DUP1 DUP4 SUB DUP2 PUSH1 0x0 DUP7 GAS CALL SWAP2 POP POP RETURNDATASIZE DUP1 PUSH1 0x0 DUP2 EQ PUSH2 0x1BA3 JUMPI PUSH1 0x40 MLOAD SWAP2 POP PUSH1 0x1F NOT PUSH1 0x3F RETURNDATASIZE ADD AND DUP3 ADD PUSH1 0x40 MSTORE RETURNDATASIZE DUP3 MSTORE RETURNDATASIZE PUSH1 0x0 PUSH1 0x20 DUP5 ADD RETURNDATACOPY PUSH2 0x1BA8 JUMP JUMPDEST PUSH1 0x60 SWAP2 POP JUMPDEST POP SWAP2 POP SWAP2 POP DUP2 DUP1 ISZERO PUSH2 0x1BD2 JUMPI POP DUP1 MLOAD ISZERO DUP1 PUSH2 0x1BD2 JUMPI POP DUP1 DUP1 PUSH1 0x20 ADD SWAP1 MLOAD DUP2 ADD SWAP1 PUSH2 0x1BD2 SWAP2 SWAP1 PUSH2 0x2335 JUMP JUMPDEST PUSH2 0x10D3 JUMPI PUSH1 0x0 DUP1 REVERT JUMPDEST PUSH1 0x0 DUP4 PUSH1 0x1 PUSH1 0x1 PUSH1 0xA0 SHL SUB AND EXTCODESIZE GT PUSH2 0x1BF2 JUMPI PUSH1 0x0 DUP1 REVERT JUMPDEST DUP1 ISZERO DUP1 PUSH2 0x1C6C JUMPI POP PUSH1 0x40 MLOAD PUSH4 0x6EB1769F PUSH1 0xE1 SHL DUP2 MSTORE ADDRESS PUSH1 0x4 DUP3 ADD MSTORE PUSH1 0x1 PUSH1 0x1 PUSH1 0xA0 SHL SUB DUP4 DUP2 AND PUSH1 0x24 DUP4 ADD MSTORE DUP5 AND SWAP1 PUSH4 0xDD62ED3E SWAP1 PUSH1 0x44 ADD PUSH1 0x20 PUSH1 0x40 MLOAD DUP1 DUP4 SUB DUP2 DUP7 GAS STATICCALL ISZERO DUP1 ISZERO PUSH2 0x1C46 JUMPI RETURNDATASIZE PUSH1 0x0 DUP1 RETURNDATACOPY RETURNDATASIZE PUSH1 0x0 REVERT JUMPDEST POP POP POP POP PUSH1 0x40 MLOAD RETURNDATASIZE PUSH1 0x1F NOT PUSH1 0x1F DUP3 ADD AND DUP3 ADD DUP1 PUSH1 0x40 MSTORE POP DUP2 ADD SWAP1 PUSH2 0x1C6A SWAP2 SWAP1 PUSH2 0x20DD JUMP JUMPDEST ISZERO JUMPDEST PUSH2 0x1CD7 JUMPI PUSH1 0x40 MLOAD PUSH3 0x461BCD PUSH1 0xE5 SHL DUP2 MSTORE PUSH1 0x20 PUSH1 0x4 DUP3 ADD MSTORE PUSH1 0x36 PUSH1 0x24 DUP3 ADD MSTORE PUSH32 0x5361666545524332303A20617070726F76652066726F6D206E6F6E2D7A65726F PUSH1 0x44 DUP3 ADD MSTORE PUSH22 0x20746F206E6F6E2D7A65726F20616C6C6F77616E6365 PUSH1 0x50 SHL PUSH1 0x64 DUP3 ADD MSTORE PUSH1 0x84 ADD PUSH2 0x4AF JUMP JUMPDEST PUSH1 0x40 MLOAD PUSH1 0x1 PUSH1 0x1 PUSH1 0xA0 SHL SUB DUP4 DUP2 AND PUSH1 0x24 DUP4 ADD MSTORE PUSH1 0x44 DUP3 ADD DUP4 SWAP1 MSTORE PUSH1 0x0 SWAP2 DUP3 SWAP2 DUP7 AND SWAP1 PUSH4 0x95EA7B3 PUSH1 0xE0 SHL SWAP1 PUSH1 0x64 ADD PUSH2 0x1B28 JUMP JUMPDEST PUSH4 0x4E487B71 PUSH1 0xE0 SHL PUSH1 0x0 MSTORE PUSH1 0x41 PUSH1 0x4 MSTORE PUSH1 0x24 PUSH1 0x0 REVERT JUMPDEST PUSH1 0x40 MLOAD PUSH1 0x1F DUP3 ADD PUSH1 0x1F NOT AND DUP2 ADD PUSH8 0xFFFFFFFFFFFFFFFF DUP2 GT DUP3 DUP3 LT OR ISZERO PUSH2 0x1D49 JUMPI PUSH2 0x1D49 PUSH2 0x1D0A JUMP JUMPDEST PUSH1 0x40 MSTORE SWAP2 SWAP1 POP JUMP JUMPDEST PUSH1 0x0 PUSH8 0xFFFFFFFFFFFFFFFF DUP3 GT ISZERO PUSH2 0x1D6B JUMPI PUSH2 0x1D6B PUSH2 0x1D0A JUMP JUMPDEST POP PUSH1 0x5 SHL PUSH1 0x20 ADD SWAP1 JUMP JUMPDEST PUSH1 0x1 PUSH1 0x1 PUSH1 0xA0 SHL SUB DUP2 AND DUP2 EQ PUSH2 0x1D8A JUMPI PUSH1 0x0 DUP1 REVERT JUMPDEST POP JUMP JUMPDEST PUSH1 0x0 PUSH1 0x20 DUP1 DUP4 DUP6 SUB SLT ISZERO PUSH2 0x1DA0 JUMPI PUSH1 0x0 DUP1 REVERT JUMPDEST DUP3 CALLDATALOAD PUSH8 0xFFFFFFFFFFFFFFFF DUP2 GT ISZERO PUSH2 0x1DB7 JUMPI PUSH1 0x0 DUP1 REVERT JUMPDEST DUP4 ADD PUSH1 0x1F DUP2 ADD DUP6 SGT PUSH2 0x1DC8 JUMPI PUSH1 0x0 DUP1 REVERT JUMPDEST DUP1 CALLDATALOAD PUSH2 0x1DDB PUSH2 0x1DD6 DUP3 PUSH2 0x1D51 JUMP JUMPDEST PUSH2 0x1D20 JUMP JUMPDEST DUP2 DUP2 MSTORE PUSH1 0x5 SWAP2 SWAP1 SWAP2 SHL DUP3 ADD DUP4 ADD SWAP1 DUP4 DUP2 ADD SWAP1 DUP8 DUP4 GT ISZERO PUSH2 0x1DFA JUMPI PUSH1 0x0 DUP1 REVERT JUMPDEST SWAP3 DUP5 ADD SWAP3 JUMPDEST DUP3 DUP5 LT ISZERO PUSH2 0x1E21 JUMPI DUP4 CALLDATALOAD PUSH2 0x1E12 DUP2 PUSH2 0x1D75 JUMP JUMPDEST DUP3 MSTORE SWAP3 DUP5 ADD SWAP3 SWAP1 DUP5 ADD SWAP1 PUSH2 0x1DFF JUMP JUMPDEST SWAP8 SWAP7 POP POP POP POP POP POP POP JUMP JUMPDEST PUSH1 0x0 PUSH1 0x20 DUP3 DUP5 SUB SLT ISZERO PUSH2 0x1E3E JUMPI PUSH1 0x0 DUP1 REVERT JUMPDEST DUP2 CALLDATALOAD PUSH2 0x1E49 DUP2 PUSH2 0x1D75 JUMP JUMPDEST SWAP4 SWAP3 POP POP POP JUMP JUMPDEST PUSH1 0x0 PUSH1 0x20 DUP3 DUP5 SUB SLT ISZERO PUSH2 0x1E62 JUMPI PUSH1 0x0 DUP1 REVERT JUMPDEST POP CALLDATALOAD SWAP2 SWAP1 POP JUMP JUMPDEST PUSH1 0x20 DUP1 DUP3 MSTORE DUP3 MLOAD DUP3 DUP3 ADD DUP2 SWAP1 MSTORE PUSH1 0x0 SWAP2 SWAP1 DUP5 DUP3 ADD SWAP1 PUSH1 0x40 DUP6 ADD SWAP1 DUP5 JUMPDEST DUP2 DUP2 LT ISZERO PUSH2 0x1EAA JUMPI DUP4 MLOAD PUSH1 0x1 PUSH1 0x1 PUSH1 0xA0 SHL SUB AND DUP4 MSTORE SWAP3 DUP5 ADD SWAP3 SWAP2 DUP5 ADD SWAP2 PUSH1 0x1 ADD PUSH2 0x1E85 JUMP JUMPDEST POP SWAP1 SWAP7 SWAP6 POP POP POP POP POP POP JUMP JUMPDEST PUSH1 0x0 DUP1 PUSH1 0x0 DUP1 PUSH1 0x0 PUSH1 0x80 DUP7 DUP9 SUB SLT ISZERO PUSH2 0x1ECE JUMPI PUSH1 0x0 DUP1 REVERT JUMPDEST DUP6 CALLDATALOAD SWAP5 POP PUSH1 0x20 DUP7 ADD CALLDATALOAD SWAP4 POP PUSH1 0x40 DUP7 ADD CALLDATALOAD PUSH8 0xFFFFFFFFFFFFFFFF DUP1 DUP3 GT ISZERO PUSH2 0x1EF4 JUMPI PUSH1 0x0 DUP1 REVERT JUMPDEST DUP2 DUP9 ADD SWAP2 POP DUP9 PUSH1 0x1F DUP4 ADD SLT PUSH2 0x1F08 JUMPI PUSH1 0x0 DUP1 REVERT JUMPDEST DUP2 CALLDATALOAD DUP2 DUP2 GT ISZERO PUSH2 0x1F17 JUMPI PUSH1 0x0 DUP1 REVERT JUMPDEST DUP10 PUSH1 0x20 PUSH1 0x60 DUP4 MUL DUP6 ADD ADD GT ISZERO PUSH2 0x1F2C JUMPI PUSH1 0x0 DUP1 REVERT JUMPDEST SWAP7 SWAP10 SWAP6 SWAP9 POP POP PUSH1 0x20 ADD SWAP6 PUSH1 0x60 ADD CALLDATALOAD SWAP4 SWAP3 POP POP POP JUMP JUMPDEST PUSH1 0x20 DUP1 DUP3 MSTORE DUP3 MLOAD DUP3 DUP3 ADD DUP2 SWAP1 MSTORE PUSH1 0x0 SWAP2 SWAP1 DUP5 DUP3 ADD SWAP1 PUSH1 0x40 DUP6 ADD SWAP1 DUP5 JUMPDEST DUP2 DUP2 LT ISZERO PUSH2 0x1EAA JUMPI DUP4 MLOAD DUP4 MSTORE SWAP3 DUP5 ADD SWAP3 SWAP2 DUP5 ADD SWAP2 PUSH1 0x1 ADD PUSH2 0x1F5D JUMP JUMPDEST DUP1 ISZERO ISZERO DUP2 EQ PUSH2 0x1D8A JUMPI PUSH1 0x0 DUP1 REVERT JUMPDEST PUSH1 0x0 DUP1 DUP3 DUP5 SUB PUSH1 0x80 DUP2 SLT ISZERO PUSH2 0x1F9B JUMPI PUSH1 0x0 DUP1 REVERT JUMPDEST DUP4 CALLDATALOAD PUSH2 0x1FA6 DUP2 PUSH2 0x1D75 JUMP JUMPDEST SWAP3 POP PUSH1 0x60 PUSH1 0x1F NOT DUP3 ADD SLT ISZERO PUSH2 0x1FBA JUMPI PUSH1 0x0 DUP1 REVERT JUMPDEST POP PUSH1 0x40 MLOAD PUSH1 0x60 DUP2 ADD DUP2 DUP2 LT PUSH8 0xFFFFFFFFFFFFFFFF DUP3 GT OR ISZERO PUSH2 0x1FDE JUMPI PUSH2 0x1FDE PUSH2 0x1D0A JUMP JUMPDEST PUSH1 0x40 MSTORE PUSH1 0x20 DUP5 ADD CALLDATALOAD PUSH2 0x1FEF DUP2 PUSH2 0x1D75 JUMP JUMPDEST DUP2 MSTORE PUSH1 0x40 DUP5 ADD CALLDATALOAD PUSH2 0x1FFF DUP2 PUSH2 0x1D75 JUMP JUMPDEST PUSH1 0x20 DUP3 ADD MSTORE PUSH1 0x60 DUP5 ADD CALLDATALOAD PUSH2 0x2012 DUP2 PUSH2 0x1F79 JUMP JUMPDEST PUSH1 0x40 DUP3 ADD MSTORE SWAP2 SWAP5 SWAP2 SWAP4 POP SWAP1 SWAP2 POP POP JUMP JUMPDEST PUSH1 0x20 DUP1 DUP3 MSTORE PUSH1 0xB SWAP1 DUP3 ADD MSTORE PUSH11 0x1B9BDD08185B1B1BDDD959 PUSH1 0xAA SHL PUSH1 0x40 DUP3 ADD MSTORE PUSH1 0x60 ADD SWAP1 JUMP JUMPDEST PUSH4 0x4E487B71 PUSH1 0xE0 SHL PUSH1 0x0 MSTORE PUSH1 0x32 PUSH1 0x4 MSTORE PUSH1 0x24 PUSH1 0x0 REVERT JUMPDEST PUSH4 0x4E487B71 PUSH1 0xE0 SHL PUSH1 0x0 MSTORE PUSH1 0x11 PUSH1 0x4 MSTORE PUSH1 0x24 PUSH1 0x0 REVERT JUMPDEST PUSH1 0x0 PUSH1 0x1 DUP3 ADD PUSH2 0x2085 JUMPI PUSH2 0x2085 PUSH2 0x205D JUMP JUMPDEST POP PUSH1 0x1 ADD SWAP1 JUMP JUMPDEST PUSH1 0x0 DUP3 DUP3 LT ISZERO PUSH2 0x209E JUMPI PUSH2 0x209E PUSH2 0x205D JUMP JUMPDEST POP SUB SWAP1 JUMP JUMPDEST PUSH4 0x4E487B71 PUSH1 0xE0 SHL PUSH1 0x0 MSTORE PUSH1 0x31 PUSH1 0x4 MSTORE PUSH1 0x24 PUSH1 0x0 REVERT JUMPDEST PUSH1 0x20 DUP1 DUP3 MSTORE PUSH1 0xA SWAP1 DUP3 ADD MSTORE PUSH10 0x3737BA1035B2B2B832B9 PUSH1 0xB1 SHL PUSH1 0x40 DUP3 ADD MSTORE PUSH1 0x60 ADD SWAP1 JUMP JUMPDEST PUSH1 0x0 PUSH1 0x20 DUP3 DUP5 SUB SLT ISZERO PUSH2 0x20EF JUMPI PUSH1 0x0 DUP1 REVERT JUMPDEST POP MLOAD SWAP2 SWAP1 POP JUMP JUMPDEST PUSH1 0x20 DUP1 DUP3 MSTORE PUSH1 0x6 SWAP1 DUP3 ADD MSTORE PUSH6 0x61646472203 PUSH1 0xD4 SHL PUSH1 0x40 DUP3 ADD MSTORE PUSH1 0x60 ADD SWAP1 JUMP JUMPDEST PUSH1 0x0 PUSH1 0xA0 DUP3 ADD DUP8 DUP4 MSTORE PUSH1 0x20 DUP8 DUP2 DUP6 ADD MSTORE PUSH1 0x40 PUSH1 0xA0 DUP2 DUP7 ADD MSTORE DUP3 DUP9 MLOAD DUP1 DUP6 MSTORE PUSH1 0xC0 DUP8 ADD SWAP2 POP DUP4 DUP11 ADD SWAP5 POP PUSH1 0x0 JUMPDEST DUP2 DUP2 LT ISZERO PUSH2 0x217F JUMPI DUP6 MLOAD DUP1 MLOAD PUSH1 0x1 PUSH1 0x1 PUSH1 0xA0 SHL SUB SWAP1 DUP2 AND DUP6 MSTORE DUP7 DUP3 ADD MLOAD AND DUP7 DUP6 ADD MSTORE DUP5 ADD MLOAD ISZERO ISZERO DUP5 DUP5 ADD MSTORE SWAP5 DUP5 ADD SWAP5 PUSH1 0x60 SWAP1 SWAP3 ADD SWAP2 PUSH1 0x1 ADD PUSH2 0x2142 JUMP JUMPDEST POP POP PUSH1 0x1 PUSH1 0x1 PUSH1 0xA0 SHL SUB DUP9 AND PUSH1 0x60 DUP8 ADD MSTORE SWAP4 POP PUSH2 0x219B SWAP3 POP POP POP JUMP JUMPDEST DUP3 PUSH1 0x80 DUP4 ADD MSTORE SWAP7 SWAP6 POP POP POP POP POP POP JUMP JUMPDEST PUSH1 0x0 PUSH1 0x20 DUP1 DUP4 DUP6 SUB SLT ISZERO PUSH2 0x21BE JUMPI PUSH1 0x0 DUP1 REVERT JUMPDEST DUP3 MLOAD PUSH8 0xFFFFFFFFFFFFFFFF DUP2 GT ISZERO PUSH2 0x21D5 JUMPI PUSH1 0x0 DUP1 REVERT JUMPDEST DUP4 ADD PUSH1 0x1F DUP2 ADD DUP6 SGT PUSH2 0x21E6 JUMPI PUSH1 0x0 DUP1 REVERT JUMPDEST DUP1 MLOAD PUSH2 0x21F4 PUSH2 0x1DD6 DUP3 PUSH2 0x1D51 JUMP JUMPDEST DUP2 DUP2 MSTORE PUSH1 0x5 SWAP2 SWAP1 SWAP2 SHL DUP3 ADD DUP4 ADD SWAP1 DUP4 DUP2 ADD SWAP1 DUP8 DUP4 GT ISZERO PUSH2 0x2213 JUMPI PUSH1 0x0 DUP1 REVERT JUMPDEST SWAP3 DUP5 ADD SWAP3 JUMPDEST DUP3 DUP5 LT ISZERO PUSH2 0x1E21 JUMPI DUP4 MLOAD DUP3 MSTORE SWAP3 DUP5 ADD SWAP3 SWAP1 DUP5 ADD SWAP1 PUSH2 0x2218 JUMP JUMPDEST PUSH1 0x0 PUSH1 0xA0 DUP3 ADD DUP9 DUP4 MSTORE PUSH1 0x20 DUP9 DUP2 DUP6 ADD MSTORE PUSH1 0x40 PUSH1 0xA0 DUP2 DUP7 ADD MSTORE DUP3 DUP9 DUP5 MSTORE PUSH1 0xC0 DUP7 ADD SWAP1 POP DUP10 SWAP4 POP PUSH1 0x0 JUMPDEST DUP10 DUP2 LT ISZERO PUSH2 0x22B1 JUMPI DUP5 CALLDATALOAD PUSH2 0x226C DUP2 PUSH2 0x1D75 JUMP JUMPDEST PUSH1 0x1 PUSH1 0x1 PUSH1 0xA0 SHL SUB SWAP1 DUP2 AND DUP4 MSTORE DUP6 DUP6 ADD CALLDATALOAD SWAP1 PUSH2 0x2287 DUP3 PUSH2 0x1D75 JUMP JUMPDEST AND DUP3 DUP6 ADD MSTORE DUP5 DUP4 ADD CALLDATALOAD PUSH2 0x2299 DUP2 PUSH2 0x1F79 JUMP JUMPDEST ISZERO ISZERO DUP3 DUP5 ADD MSTORE PUSH1 0x60 SWAP5 DUP6 ADD SWAP5 SWAP1 SWAP2 ADD SWAP1 PUSH1 0x1 ADD PUSH2 0x2259 JUMP JUMPDEST POP PUSH1 0x1 PUSH1 0x1 PUSH1 0xA0 SHL SUB DUP9 AND PUSH1 0x60 DUP8 ADD MSTORE SWAP4 POP PUSH2 0x22CC SWAP3 POP POP POP JUMP JUMPDEST DUP3 PUSH1 0x80 DUP4 ADD MSTORE SWAP8 SWAP7 POP POP POP POP POP POP POP JUMP JUMPDEST PUSH1 0x0 PUSH1 0x20 DUP3 DUP5 SUB SLT ISZERO PUSH2 0x22EF JUMPI PUSH1 0x0 DUP1 REVERT JUMPDEST DUP2 MLOAD PUSH2 0x1E49 DUP2 PUSH2 0x1D75 JUMP JUMPDEST PUSH1 0x0 DUP3 MLOAD PUSH1 0x0 JUMPDEST DUP2 DUP2 LT ISZERO PUSH2 0x231B JUMPI PUSH1 0x20 DUP2 DUP7 ADD DUP2 ADD MLOAD DUP6 DUP4 ADD MSTORE ADD PUSH2 0x2301 JUMP JUMPDEST DUP2 DUP2 GT ISZERO PUSH2 0x232A JUMPI PUSH1 0x0 DUP3 DUP6 ADD MSTORE JUMPDEST POP SWAP2 SWAP1 SWAP2 ADD SWAP3 SWAP2 POP POP JUMP JUMPDEST PUSH1 0x0 PUSH1 0x20 DUP3 DUP5 SUB SLT ISZERO PUSH2 0x2347 JUMPI PUSH1 0x0 DUP1 REVERT JUMPDEST DUP2 MLOAD PUSH2 0x1E49 DUP2 PUSH2 0x1F79 JUMP INVALID LOG2 PUSH5 0x6970667358 0x22 SLT KECCAK256 DUP9 DUP1 PUSH26 0xB15869CECAD72E91F8948898608F7FA651D55C4010D1BC6DFA3F GASLIMIT 0xEE PUSH15 0x64736F6C634300080D003300000000 "},"methodIdentifiers":{"_pairs()":"586960dd","_tokens()":"8970d84c","addToken(address,(address,address,bool))":"9fbf5771","claimFees()":"d294f093","claimSingleFee(address)":"8e6e3846","isKeeper(address)":"6ba42aaa","isToken(address)":"19f37361","lastRewardtime()":"a0d91a28","masterchef()":"fb1db278","owner()":"8da5cb5b","pairFactory()":"e14f870d","pairs(uint256)":"b91ac788","removeKeeper(address)":"14ae9f2e","removeToken(address)":"5fa7b584","router()":"f887ea40","setDistribution()":"74f6b2c5","setKeeper(address)":"748747e6","setMasterchef(address)":"933baa86","setPair(address[])":"00a0ce06","setPairFactory(address)":"7964bac9","setRouter(address)":"c0d78655","setRoutesFor(address,(address,address,bool))":"bd98194c","swap()":"8119c065","swapManual(uint256,uint256,(address,address,bool)[],uint256)":"8594e9e6","tokenToRoutes(address)":"4b55c2c6","tokens(uint256)":"4f64b2be","transferOwnership(address)":"f2fde38b","wbnb()":"8d72647e","withdrawERC20(address)":"f4f3b200"}},"storageLayout":{"storage":[{"astId":22,"contract":"contracts/StakingNFTFeeConverter.sol:StakingNFTFeeConverter","label":"lastRewardtime","offset":0,"slot":"0","type":"t_uint256"},{"astId":24,"contract":"contracts/StakingNFTFeeConverter.sol:StakingNFTFeeConverter","label":"masterchef","offset":0,"slot":"1","type":"t_address"},{"astId":26,"contract":"contracts/StakingNFTFeeConverter.sol:StakingNFTFeeConverter","label":"wbnb","offset":0,"slot":"2","type":"t_address"},{"astId":28,"contract":"contracts/StakingNFTFeeConverter.sol:StakingNFTFeeConverter","label":"owner","offset":0,"slot":"3","type":"t_address"},{"astId":30,"contract":"contracts/StakingNFTFeeConverter.sol:StakingNFTFeeConverter","label":"router","offset":0,"slot":"4","type":"t_address"},{"astId":32,"contract":"contracts/StakingNFTFeeConverter.sol:StakingNFTFeeConverter","label":"pairFactory","offset":0,"slot":"5","type":"t_address"},{"astId":35,"contract":"contracts/StakingNFTFeeConverter.sol:StakingNFTFeeConverter","label":"tokens","offset":0,"slot":"6","type":"t_array(t_address)dyn_storage"},{"astId":38,"contract":"contracts/StakingNFTFeeConverter.sol:StakingNFTFeeConverter","label":"pairs","offset":0,"slot":"7","type":"t_array(t_address)dyn_storage"},{"astId":42,"contract":"contracts/StakingNFTFeeConverter.sol:StakingNFTFeeConverter","label":"isToken","offset":0,"slot":"8","type":"t_mapping(t_address,t_bool)"},{"astId":46,"contract":"contracts/StakingNFTFeeConverter.sol:StakingNFTFeeConverter","label":"tokenToPosition","offset":0,"slot":"9","type":"t_mapping(t_address,t_uint256)"},{"astId":51,"contract":"contracts/StakingNFTFeeConverter.sol:StakingNFTFeeConverter","label":"tokenToRoutes","offset":0,"slot":"10","type":"t_mapping(t_address,t_struct(route)1298_storage)"},{"astId":55,"contract":"contracts/StakingNFTFeeConverter.sol:StakingNFTFeeConverter","label":"isKeeper","offset":0,"slot":"11","type":"t_mapping(t_address,t_bool)"}],"types":{"t_address":{"encoding":"inplace","label":"address","numberOfBytes":"20"},"t_array(t_address)dyn_storage":{"base":"t_address","encoding":"dynamic_array","label":"address[]","numberOfBytes":"32"},"t_bool":{"encoding":"inplace","label":"bool","numberOfBytes":"1"},"t_mapping(t_address,t_bool)":{"encoding":"mapping","key":"t_address","label":"mapping(address => bool)","numberOfBytes":"32","value":"t_bool"},"t_mapping(t_address,t_struct(route)1298_storage)":{"encoding":"mapping","key":"t_address","label":"mapping(address => struct IRouter01.route)","numberOfBytes":"32","value":"t_struct(route)1298_storage"},"t_mapping(t_address,t_uint256)":{"encoding":"mapping","key":"t_address","label":"mapping(address => uint256)","numberOfBytes":"32","value":"t_uint256"},"t_struct(route)1298_storage":{"encoding":"inplace","label":"struct IRouter01.route","members":[{"astId":1293,"contract":"contracts/StakingNFTFeeConverter.sol:StakingNFTFeeConverter","label":"from","offset":0,"slot":"0","type":"t_address"},{"astId":1295,"contract":"contracts/StakingNFTFeeConverter.sol:StakingNFTFeeConverter","label":"to","offset":0,"slot":"1","type":"t_address"},{"astId":1297,"contract":"contracts/StakingNFTFeeConverter.sol:StakingNFTFeeConverter","label":"stable","offset":20,"slot":"1","type":"t_bool"}],"numberOfBytes":"64"},"t_uint256":{"encoding":"inplace","label":"uint256","numberOfBytes":"32"}}}}}}