{
  "_format": "hh-sol-artifact-1",
  "contractName": "NFTSplitAutomation",
  "sourceName": "contracts/chainlink/NFTSplitAutomation.sol",
  "abi": [
    {
      "inputs": [],
      "stateMutability": "nonpayable",
      "type": "constructor"
    },
    {
      "anonymous": false,
      "inputs": [
        {
          "indexed": false,
          "internalType": "uint8",
          "name": "version",
          "type": "uint8"
        }
      ],
      "name": "Initialized",
      "type": "event"
    },
    {
      "anonymous": false,
      "inputs": [
        {
          "indexed": true,
          "internalType": "address",
          "name": "previousOwner",
          "type": "address"
        },
        {
          "indexed": true,
          "internalType": "address",
          "name": "newOwner",
          "type": "address"
        }
      ],
      "name": "OwnershipTransferred",
      "type": "event"
    },
    {
      "inputs": [],
      "name": "WEEK",
      "outputs": [
        {
          "internalType": "uint256",
          "name": "",
          "type": "uint256"
        }
      ],
      "stateMutability": "view",
      "type": "function"
    },
    {
      "inputs": [],
      "name": "caller",
      "outputs": [
        {
          "internalType": "address",
          "name": "",
          "type": "address"
        }
      ],
      "stateMutability": "view",
      "type": "function"
    },
    {
      "inputs": [],
      "name": "check",
      "outputs": [
        {
          "internalType": "bool",
          "name": "upkeepNeeded",
          "type": "bool"
        }
      ],
      "stateMutability": "view",
      "type": "function"
    },
    {
      "inputs": [
        {
          "internalType": "address",
          "name": "_target",
          "type": "address"
        },
        {
          "internalType": "address",
          "name": "_caller",
          "type": "address"
        }
      ],
      "name": "initialize",
      "outputs": [],
      "stateMutability": "nonpayable",
      "type": "function"
    },
    {
      "inputs": [],
      "name": "lastSplit",
      "outputs": [
        {
          "internalType": "uint256",
          "name": "",
          "type": "uint256"
        }
      ],
      "stateMutability": "view",
      "type": "function"
    },
    {
      "inputs": [],
      "name": "nextSplit",
      "outputs": [
        {
          "internalType": "uint256",
          "name": "",
          "type": "uint256"
        }
      ],
      "stateMutability": "view",
      "type": "function"
    },
    {
      "inputs": [],
      "name": "owner",
      "outputs": [
        {
          "internalType": "address",
          "name": "",
          "type": "address"
        }
      ],
      "stateMutability": "view",
      "type": "function"
    },
    {
      "inputs": [],
      "name": "performUpkeep",
      "outputs": [],
      "stateMutability": "nonpayable",
      "type": "function"
    },
    {
      "inputs": [],
      "name": "renounceOwnership",
      "outputs": [],
      "stateMutability": "nonpayable",
      "type": "function"
    },
    {
      "inputs": [
        {
          "internalType": "address",
          "name": "_caller",
          "type": "address"
        }
      ],
      "name": "setCaller",
      "outputs": [],
      "stateMutability": "nonpayable",
      "type": "function"
    },
    {
      "inputs": [
        {
          "internalType": "address",
          "name": "_target",
          "type": "address"
        }
      ],
      "name": "setTarget",
      "outputs": [],
      "stateMutability": "nonpayable",
      "type": "function"
    },
    {
      "inputs": [],
      "name": "target",
      "outputs": [
        {
          "internalType": "address",
          "name": "",
          "type": "address"
        }
      ],
      "stateMutability": "view",
      "type": "function"
    },
    {
      "inputs": [
        {
          "internalType": "address",
          "name": "newOwner",
          "type": "address"
        }
      ],
      "name": "transferOwnership",
      "outputs": [],
      "stateMutability": "nonpayable",
      "type": "function"
    }
  ],
  "bytecode": "0x608060405234801561001057600080fd5b5061081f806100206000396000f3fe608060405234801561001057600080fd5b50600436106100cf5760003560e01c8063919840ad1161008c578063d4b8399211610066578063d4b8399214610180578063f2fde38b14610193578063f4359ce5146101a6578063fc9c8d39146101b057600080fd5b8063919840ad1461014c578063a1bdbdbb14610164578063beb92f551461016d57600080fd5b80633121ce7f146100d4578063485cc955146100ef5780636e4d243a14610104578063715018a61461010c578063776d1a01146101145780638da5cb5b14610127575b600080fd5b6100dc6101c3565b6040519081526020015b60405180910390f35b6101026100fd3660046106da565b6101db565b005b610102610368565b610102610491565b61010261012236600461070d565b6104a5565b6033546001600160a01b03165b6040516001600160a01b0390911681526020016100e6565b6101546104e2565b60405190151581526020016100e6565b6100dc60655481565b61010261017b36600461070d565b6104fd565b606754610134906001600160a01b031681565b6101026101a136600461070d565b61053a565b6100dc62093a8081565b606654610134906001600160a01b031681565b600062093a806065546101d69190610745565b905090565b600054610100900460ff16158080156101fb5750600054600160ff909116105b806102155750303b158015610215575060005460ff166001145b61027d5760405162461bcd60e51b815260206004820152602e60248201527f496e697469616c697a61626c653a20636f6e747261637420697320616c72656160448201526d191e481a5b9a5d1a585b1a5e995960921b60648201526084015b60405180910390fd5b6000805460ff1916600117905580156102a0576000805461ff0019166101001790555b6102a86105b3565b606780546001600160a01b0319166001600160a01b03858116919091179091558216156102d557816102d7565b335b606680546001600160a01b0319166001600160a01b039290921691909117905562093a8080610306814261075d565b610310919061077f565b61031a9190610745565b6065558015610363576000805461ff0019169055604051600181527f7f26b83ff96e1f2b6a682f133852f6798a09c465da95921460cefb38474024989060200160405180910390a15b505050565b6066546001600160a01b031633148061038b57506033546001600160a01b031633145b61039457600080fd5b6066546001600160a01b03163314806103b757506033546001600160a01b031633145b6103f45760405162461bcd60e51b815260206004820152600e60248201526d63616e6e6f74206578656375746560901b6044820152606401610274565b6103fc6104e2565b151560011461040a57600080fd5b606760009054906101000a90046001600160a01b03166001600160a01b031663f76541766040518163ffffffff1660e01b8152600401600060405180830381600087803b15801561045a57600080fd5b505af115801561046e573d6000803e3d6000fd5b5050505062093a808042610482919061075d565b61048c919061077f565b606555565b6104996105e2565b6104a3600061063c565b565b6104ad6105e2565b6001600160a01b0381166104c057600080fd5b606780546001600160a01b0319166001600160a01b0392909216919091179055565b600062093a806065546104f59190610745565b421015905090565b6105056105e2565b6001600160a01b03811661051857600080fd5b606680546001600160a01b0319166001600160a01b0392909216919091179055565b6105426105e2565b6001600160a01b0381166105a75760405162461bcd60e51b815260206004820152602660248201527f4f776e61626c653a206e6577206f776e657220697320746865207a65726f206160448201526564647265737360d01b6064820152608401610274565b6105b08161063c565b50565b600054610100900460ff166105da5760405162461bcd60e51b81526004016102749061079e565b6104a361068e565b6033546001600160a01b031633146104a35760405162461bcd60e51b815260206004820181905260248201527f4f776e61626c653a2063616c6c6572206973206e6f7420746865206f776e65726044820152606401610274565b603380546001600160a01b038381166001600160a01b0319831681179093556040519116919082907f8be0079c531659141344cd1fd0a4f28419497f9722a3daafe3b4186f6b6457e090600090a35050565b600054610100900460ff166106b55760405162461bcd60e51b81526004016102749061079e565b6104a33361063c565b80356001600160a01b03811681146106d557600080fd5b919050565b600080604083850312156106ed57600080fd5b6106f6836106be565b9150610704602084016106be565b90509250929050565b60006020828403121561071f57600080fd5b610728826106be565b9392505050565b634e487b7160e01b600052601160045260246000fd5b600082198211156107585761075861072f565b500190565b60008261077a57634e487b7160e01b600052601260045260246000fd5b500490565b60008160001904831182151516156107995761079961072f565b500290565b6020808252602b908201527f496e697469616c697a61626c653a20636f6e7472616374206973206e6f74206960408201526a6e697469616c697a696e6760a81b60608201526080019056fea26469706673582212201d85dfc74f64d308a8e3e9b09d0805708d6a6cdbae6e3b12a34288f36958dbc364736f6c634300080d0033",
  "linkReferences": {},
  "deployedLinkReferences": {}
}