{
  "_format": "hh-sol-artifact-1",
  "contractName": "AirdropClaim",
  "sourceName": "contracts/MerkleTree/AirdropClaim.sol",
  "abi": [
    {
      "inputs": [
        {
          "internalType": "address",
          "name": "_token",
          "type": "address"
        },
        {
          "internalType": "address",
          "name": "_ve",
          "type": "address"
        }
      ],
      "stateMutability": "nonpayable",
      "type": "constructor"
    },
    {
      "anonymous": false,
      "inputs": [
        {
          "indexed": false,
          "internalType": "uint256",
          "name": "amount",
          "type": "uint256"
        }
      ],
      "name": "Deposit",
      "type": "event"
    },
    {
      "anonymous": false,
      "inputs": [
        {
          "indexed": false,
          "internalType": "uint256",
          "name": "amount",
          "type": "uint256"
        }
      ],
      "name": "Withdraw",
      "type": "event"
    },
    {
      "inputs": [],
      "name": "DISTRIBUTION_PERIOD",
      "outputs": [
        {
          "internalType": "uint256",
          "name": "",
          "type": "uint256"
        }
      ],
      "stateMutability": "view",
      "type": "function"
    },
    {
      "inputs": [],
      "name": "INIT_SHARE",
      "outputs": [
        {
          "internalType": "uint256",
          "name": "",
          "type": "uint256"
        }
      ],
      "stateMutability": "view",
      "type": "function"
    },
    {
      "inputs": [],
      "name": "LINEAR_DISTRO",
      "outputs": [
        {
          "internalType": "uint256",
          "name": "",
          "type": "uint256"
        }
      ],
      "stateMutability": "view",
      "type": "function"
    },
    {
      "inputs": [],
      "name": "PRECISION",
      "outputs": [
        {
          "internalType": "uint256",
          "name": "",
          "type": "uint256"
        }
      ],
      "stateMutability": "view",
      "type": "function"
    },
    {
      "inputs": [],
      "name": "VESTED_SHARE",
      "outputs": [
        {
          "internalType": "uint256",
          "name": "",
          "type": "uint256"
        }
      ],
      "stateMutability": "view",
      "type": "function"
    },
    {
      "inputs": [],
      "name": "_init",
      "outputs": [],
      "stateMutability": "nonpayable",
      "type": "function"
    },
    {
      "inputs": [],
      "name": "claim",
      "outputs": [],
      "stateMutability": "nonpayable",
      "type": "function"
    },
    {
      "inputs": [
        {
          "internalType": "address",
          "name": "user",
          "type": "address"
        }
      ],
      "name": "claimable",
      "outputs": [
        {
          "internalType": "uint256",
          "name": "_claimable",
          "type": "uint256"
        }
      ],
      "stateMutability": "view",
      "type": "function"
    },
    {
      "inputs": [
        {
          "internalType": "uint256",
          "name": "amount",
          "type": "uint256"
        }
      ],
      "name": "deposit",
      "outputs": [],
      "stateMutability": "nonpayable",
      "type": "function"
    },
    {
      "inputs": [
        {
          "internalType": "address",
          "name": "",
          "type": "address"
        }
      ],
      "name": "depositors",
      "outputs": [
        {
          "internalType": "bool",
          "name": "",
          "type": "bool"
        }
      ],
      "stateMutability": "view",
      "type": "function"
    },
    {
      "inputs": [],
      "name": "init",
      "outputs": [
        {
          "internalType": "bool",
          "name": "",
          "type": "bool"
        }
      ],
      "stateMutability": "view",
      "type": "function"
    },
    {
      "inputs": [],
      "name": "merkle",
      "outputs": [
        {
          "internalType": "address",
          "name": "",
          "type": "address"
        }
      ],
      "stateMutability": "view",
      "type": "function"
    },
    {
      "inputs": [],
      "name": "owner",
      "outputs": [
        {
          "internalType": "address",
          "name": "",
          "type": "address"
        }
      ],
      "stateMutability": "view",
      "type": "function"
    },
    {
      "inputs": [
        {
          "internalType": "address",
          "name": "depositor",
          "type": "address"
        }
      ],
      "name": "setDepositor",
      "outputs": [],
      "stateMutability": "nonpayable",
      "type": "function"
    },
    {
      "inputs": [
        {
          "internalType": "address",
          "name": "_merkle",
          "type": "address"
        }
      ],
      "name": "setMerkleTreeContract",
      "outputs": [],
      "stateMutability": "nonpayable",
      "type": "function"
    },
    {
      "inputs": [
        {
          "internalType": "address",
          "name": "_owner",
          "type": "address"
        }
      ],
      "name": "setOwner",
      "outputs": [],
      "stateMutability": "nonpayable",
      "type": "function"
    },
    {
      "inputs": [
        {
          "internalType": "address",
          "name": "_who",
          "type": "address"
        },
        {
          "internalType": "address",
          "name": "_to",
          "type": "address"
        },
        {
          "internalType": "uint256",
          "name": "_amount",
          "type": "uint256"
        }
      ],
      "name": "setUserInfo",
      "outputs": [
        {
          "internalType": "bool",
          "name": "status",
          "type": "bool"
        }
      ],
      "stateMutability": "nonpayable",
      "type": "function"
    },
    {
      "inputs": [],
      "name": "startTimestamp",
      "outputs": [
        {
          "internalType": "uint256",
          "name": "",
          "type": "uint256"
        }
      ],
      "stateMutability": "view",
      "type": "function"
    },
    {
      "inputs": [],
      "name": "token",
      "outputs": [
        {
          "internalType": "contract IERC20",
          "name": "",
          "type": "address"
        }
      ],
      "stateMutability": "view",
      "type": "function"
    },
    {
      "inputs": [],
      "name": "tokenPerSec",
      "outputs": [
        {
          "internalType": "uint256",
          "name": "",
          "type": "uint256"
        }
      ],
      "stateMutability": "view",
      "type": "function"
    },
    {
      "inputs": [],
      "name": "totalAirdrop",
      "outputs": [
        {
          "internalType": "uint256",
          "name": "",
          "type": "uint256"
        }
      ],
      "stateMutability": "view",
      "type": "function"
    },
    {
      "inputs": [
        {
          "internalType": "address",
          "name": "",
          "type": "address"
        }
      ],
      "name": "users",
      "outputs": [
        {
          "internalType": "uint256",
          "name": "totalAmount",
          "type": "uint256"
        },
        {
          "internalType": "uint256",
          "name": "initAmount",
          "type": "uint256"
        },
        {
          "internalType": "uint256",
          "name": "vestedAmount",
          "type": "uint256"
        },
        {
          "internalType": "uint256",
          "name": "lockedAmount",
          "type": "uint256"
        },
        {
          "internalType": "uint256",
          "name": "tokenPerSec",
          "type": "uint256"
        },
        {
          "internalType": "uint256",
          "name": "lastTimestamp",
          "type": "uint256"
        },
        {
          "internalType": "uint256",
          "name": "claimed",
          "type": "uint256"
        },
        {
          "internalType": "address",
          "name": "to",
          "type": "address"
        }
      ],
      "stateMutability": "view",
      "type": "function"
    },
    {
      "inputs": [
        {
          "internalType": "address",
          "name": "",
          "type": "address"
        }
      ],
      "name": "usersFlag",
      "outputs": [
        {
          "internalType": "bool",
          "name": "",
          "type": "bool"
        }
      ],
      "stateMutability": "view",
      "type": "function"
    },
    {
      "inputs": [],
      "name": "ve",
      "outputs": [
        {
          "internalType": "address",
          "name": "",
          "type": "address"
        }
      ],
      "stateMutability": "view",
      "type": "function"
    },
    {
      "inputs": [
        {
          "internalType": "uint256",
          "name": "amount",
          "type": "uint256"
        },
        {
          "internalType": "address",
          "name": "_token",
          "type": "address"
        },
        {
          "internalType": "address",
          "name": "_to",
          "type": "address"
        }
      ],
      "name": "withdraw",
      "outputs": [],
      "stateMutability": "nonpayable",
      "type": "function"
    }
  ],
  "bytecode": "0x608060405234801561001057600080fd5b506040516115d33803806115d383398101604081905261002f9161008c565b6001600055600680546001600160a01b03199081163317909155600980546001600160a01b03948516908316179055600780549290931691161790556100bf565b80516001600160a01b038116811461008757600080fd5b919050565b6000806040838503121561009f57600080fd5b6100a883610070565b91506100b660208401610070565b90509250929050565b611505806100ce6000396000f3fe608060405234801561001057600080fd5b50600436106101735760003560e01c8063b349b973116100de578063d5a703b511610097578063e900ea7c11610071578063e900ea7c1461037d578063eed75f6d14610386578063f2c098b7146103a9578063fc0c546a146103bc57600080fd5b8063d5a703b514610354578063e1c7392a14610367578063e6fd48bc1461037457600080fd5b8063b349b97314610302578063b460af941461030a578063b6b55f251461031d578063c584b9b514610330578063cb3a644014610343578063d402e5831461034b57600080fd5b806350fd1f3e1161013057806350fd1f3e1461022c5780635ce97dbb146102355780638da5cb5b1461023e578063a87430ba14610251578063aaf5eb68146102ef578063b092deb1146102f857600080fd5b806306ad05ab1461017857806306e6712c1461018d57806313af4035146101c55780631f850716146101d8578063402914f5146102035780634e71d92d14610224575b600080fd5b61018b6101863660046112c4565b6103cf565b005b6101b061019b3660046112c4565b600b6020526000908152604090205460ff1681565b60405190151581526020015b60405180910390f35b61018b6101d33660046112c4565b610437565b6007546101eb906001600160a01b031681565b6040516001600160a01b0390911681526020016101bc565b6102166102113660046112c4565b610496565b6040519081526020016101bc565b61018b610648565b61021660045481565b61021660055481565b6006546101eb906001600160a01b031681565b6102ab61025f3660046112c4565b600a60205260009081526040902080546001820154600283015460038401546004850154600586015460068701546007909701549596949593949293919290916001600160a01b031688565b604080519889526020890197909752958701949094526060860192909252608085015260a084015260c08301526001600160a01b031660e0820152610100016101bc565b6102166103e881565b610216621baf8081565b61018b6108f2565b61018b6103183660046112df565b610942565b61018b61032b36600461131b565b6109db565b6008546101eb906001600160a01b031681565b61021660fa81565b61021660025481565b6101b0610362366004611334565b610a86565b6001546101b09060ff1681565b61021660035481565b6102166101f481565b6101b06103943660046112c4565b600c6020526000908152604090205460ff1681565b61018b6103b73660046112c4565b610ed3565b6009546101eb906001600160a01b031681565b6006546001600160a01b031633146104025760405162461bcd60e51b81526004016103f990611370565b60405180910390fd5b6001600160a01b03811661041557600080fd5b600880546001600160a01b0319166001600160a01b0392909216919091179055565b6006546001600160a01b031633146104615760405162461bcd60e51b81526004016103f990611370565b6001600160a01b03811661047457600080fd5b600680546001600160a01b0319166001600160a01b0392909216919091179055565b6001600160a01b0381166000908152600b602052604081205460ff166104bb57600080fd5b6001600160a01b038083166000908152600a602090815260409182902082516101008101845281548152600182015492810192909252600281015492820192909252600380830154606083015260048301546080830152600583015460a0830152600683015460c083015260079092015490921660e08301525461054390621baf80906113a9565b8160a00151111561058a5760405162461bcd60e51b81526020600482015260116024820152701d1a5b594e8818db185a5b595908185b1b607a1b60448201526064016103f9565b805160c082015111156105d35760405162461bcd60e51b8152602060048201526011602482015270185b5b9d0e8818db185a5b595908185b1b607a1b60448201526064016103f9565b60035442906105e690621baf80906113a9565b81111561060157621baf806003546105fe91906113a9565b90505b60008260a001518261061391906113c1565b90506000811161062257600080fd5b6103e883608001518261063591906113d8565b61063f91906113f7565b95945050505050565b610650610f47565b336000908152600b602052604090205460ff1661066c57600080fd5b336000908152600a602090815260409182902082516101008101845281548152600182015492810192909252600281015492820192909252600380830154606083015260048301546080830152600583015460a0830152600683015460c08301526007909201546001600160a01b031660e082015290546106f190621baf80906113a9565b8160a0015111156107385760405162461bcd60e51b81526020600482015260116024820152701d1a5b594e8818db185a5b595908185b1b607a1b60448201526064016103f9565b805160c082015111156107815760405162461bcd60e51b8152602060048201526011602482015270185b5b9d0e8818db185a5b595908185b1b607a1b60448201526064016103f9565b60e0810151600354429061079990621baf80906113a9565b8111156107b457621baf806003546107b191906113a9565b90505b60008360a00151826107c691906113c1565b9050600081116107d557600080fd5b60006103e88560800151836107ea91906113d8565b6107f491906113f7565b60a0860184905260c08601805191925082916108119083906113a9565b905250845160c0860151111561085d5760405162461bcd60e51b815260206004820152601160248201527018db185a5b5959080f881d1bdd105b5b9d607a1b60448201526064016103f9565b336000908152600a602090815260409182902087518155908701516001820155908601516002820155606086015160038201556080860151600482015560a0860151600582015560c0860151600682015560e0860151600790910180546001600160a01b0319166001600160a01b039283161790556009546108e191168583610fa0565b50505050506108f06001600055565b565b6006546001600160a01b0316331461091c5760405162461bcd60e51b81526004016103f990611370565b60015460ff161561092c57600080fd5b6001805460ff1916811790556363b6d7e0600355565b336000908152600c602052604090205460ff1615156001148061096f57506006546001600160a01b031633145b61097857600080fd5b61098c6001600160a01b0383168285610fa0565b826005600082825461099e91906113c1565b90915550506040518381527f5b6b431d4476a211bb7d41c20d1aab9ae2321deee0d20be3d9fc9b1093fa6e3d9060200160405180910390a1505050565b336000908152600c602052604090205460ff16151560011480610a0857506006546001600160a01b031633145b610a1157600080fd5b60015460ff1615610a2157600080fd5b600954610a39906001600160a01b0316333084611008565b8060056000828254610a4b91906113a9565b90915550506040518181527f4d6ce1e535dbade1c23defba91e23b8f791ce5edc0cc320257a2b364e4e384269060200160405180910390a150565b6008546000906001600160a01b03163314610ab35760405162461bcd60e51b81526004016103f990611370565b610abb610f47565b6001600160a01b038416610afa5760405162461bcd60e51b815260206004820152600660248201526506164647220360d41b60448201526064016103f9565b6001600160a01b038316610b395760405162461bcd60e51b815260206004820152600660248201526506164647220360d41b60448201526064016103f9565b60008211610b725760405162461bcd60e51b81526020600482015260066024820152650616d6e7420360d41b60448201526064016103f9565b6001600160a01b0384166000908152600b602052604090205460ff1615610bc35760405162461bcd60e51b815260206004820152600560248201526421666c616760d81b60448201526064016103f9565b60015460ff16610c005760405162461bcd60e51b81526020600482015260086024820152671b9bdd081a5b9a5d60c21b60448201526064016103f9565b60006103e8610c116101f4856113d8565b610c1b91906113f7565b905060006103e8610c2d60fa866113d8565b610c3791906113f7565b9050806000621baf80610c4c6103e8846113d8565b610c5691906113f7565b9050600060405180610100016040528088815260200185815260200186815260200184815260200183815260200160035481526020018686610c9891906113a9565b81526001600160a01b038a81166020928301528b81166000908152600a835260408082208551815585850151600180830191909155868301516002830155606087015160038301556080870151600483015560a0870151600583015560c0870151600683015560e0870151600790920180546001600160a01b03191692861692909217909155600b9094529020805460ff1916909217909155600954919250610d4391168986610fa0565b60095460075460405163095ea7b360e01b81526001600160a01b0391821660048201526000602482015291169063095ea7b3906044016020604051808303816000875af1158015610d98573d6000803e3d6000fd5b505050506040513d601f19601f82011682018060405250810190610dbc9190611419565b5060095460075460405163095ea7b360e01b81526001600160a01b0391821660048201526024810188905291169063095ea7b3906044016020604051808303816000875af1158015610e12573d6000803e3d6000fd5b505050506040513d601f19601f82011682018060405250810190610e369190611419565b5060075460405163d4e54c3b60e01b8152600481018790526303bfc40060248201526001600160a01b038b811660448301529091169063d4e54c3b906064016020604051808303816000875af1158015610e94573d6000803e3d6000fd5b505050506040513d601f19601f82011682018060405250810190610eb8919061143b565b50600195505050505050610ecc6001600055565b9392505050565b6006546001600160a01b03163314610efd5760405162461bcd60e51b81526004016103f990611370565b6001600160a01b0381166000908152600c602052604090205460ff1615610f2357600080fd5b6001600160a01b03166000908152600c60205260409020805460ff19166001179055565b600260005403610f995760405162461bcd60e51b815260206004820152601f60248201527f5265656e7472616e637947756172643a207265656e7472616e742063616c6c0060448201526064016103f9565b6002600055565b6040516001600160a01b03831660248201526044810182905261100390849063a9059cbb60e01b906064015b60408051601f198184030181529190526020810180516001600160e01b03166001600160e01b031990931692909217909152611046565b505050565b6040516001600160a01b03808516602483015283166044820152606481018290526110409085906323b872dd60e01b90608401610fcc565b50505050565b600061109b826040518060400160405280602081526020017f5361666545524332303a206c6f772d6c6576656c2063616c6c206661696c6564815250856001600160a01b03166111189092919063ffffffff16565b80519091501561100357808060200190518101906110b99190611419565b6110035760405162461bcd60e51b815260206004820152602a60248201527f5361666545524332303a204552433230206f7065726174696f6e20646964206e6044820152691bdd081cdd58d8d9595960b21b60648201526084016103f9565b6060611127848460008561112f565b949350505050565b6060824710156111905760405162461bcd60e51b815260206004820152602660248201527f416464726573733a20696e73756666696369656e742062616c616e636520666f6044820152651c8818d85b1b60d21b60648201526084016103f9565b600080866001600160a01b031685876040516111ac9190611480565b60006040518083038185875af1925050503d80600081146111e9576040519150601f19603f3d011682016040523d82523d6000602084013e6111ee565b606091505b50915091506111ff8783838761120a565b979650505050505050565b60608315611279578251600003611272576001600160a01b0385163b6112725760405162461bcd60e51b815260206004820152601d60248201527f416464726573733a2063616c6c20746f206e6f6e2d636f6e747261637400000060448201526064016103f9565b5081611127565b611127838381511561128e5781518083602001fd5b8060405162461bcd60e51b81526004016103f9919061149c565b80356001600160a01b03811681146112bf57600080fd5b919050565b6000602082840312156112d657600080fd5b610ecc826112a8565b6000806000606084860312156112f457600080fd5b83359250611304602085016112a8565b9150611312604085016112a8565b90509250925092565b60006020828403121561132d57600080fd5b5035919050565b60008060006060848603121561134957600080fd5b611352846112a8565b9250611360602085016112a8565b9150604084013590509250925092565b6020808252600990820152683737ba1037bbb732b960b91b604082015260600190565b634e487b7160e01b600052601160045260246000fd5b600082198211156113bc576113bc611393565b500190565b6000828210156113d3576113d3611393565b500390565b60008160001904831182151516156113f2576113f2611393565b500290565b60008261141457634e487b7160e01b600052601260045260246000fd5b500490565b60006020828403121561142b57600080fd5b81518015158114610ecc57600080fd5b60006020828403121561144d57600080fd5b5051919050565b60005b8381101561146f578181015183820152602001611457565b838111156110405750506000910152565b60008251611492818460208701611454565b9190910192915050565b60208152600082518060208401526114bb816040850160208701611454565b601f01601f1916919091016040019291505056fea26469706673582212201644f7452bc3c8a1034d81788e8019cd114a459bb09f1e5ca3f5daefa33f8f8464736f6c634300080d0033",
  "linkReferences": {},
  "deployedLinkReferences": {}
}