{
  "_format": "hh-sol-artifact-1",
  "contractName": "AirdropClaim",
  "sourceName": "contracts/MerkleTree/AirdropClaim.sol",
  "abi": [
    {
      "inputs": [
        {
          "internalType": "address",
          "name": "_token",
          "type": "address"
        },
        {
          "internalType": "address",
          "name": "_ve",
          "type": "address"
        }
      ],
      "stateMutability": "nonpayable",
      "type": "constructor"
    },
    {
      "anonymous": false,
      "inputs": [
        {
          "indexed": false,
          "internalType": "uint256",
          "name": "amount",
          "type": "uint256"
        }
      ],
      "name": "Deposit",
      "type": "event"
    },
    {
      "anonymous": false,
      "inputs": [
        {
          "indexed": false,
          "internalType": "uint256",
          "name": "amount",
          "type": "uint256"
        }
      ],
      "name": "Withdraw",
      "type": "event"
    },
    {
      "inputs": [],
      "name": "DISTRIBUTION_PERIOD",
      "outputs": [
        {
          "internalType": "uint256",
          "name": "",
          "type": "uint256"
        }
      ],
      "stateMutability": "view",
      "type": "function"
    },
    {
      "inputs": [],
      "name": "INIT_SHARE",
      "outputs": [
        {
          "internalType": "uint256",
          "name": "",
          "type": "uint256"
        }
      ],
      "stateMutability": "view",
      "type": "function"
    },
    {
      "inputs": [],
      "name": "LINEAR_DISTRO",
      "outputs": [
        {
          "internalType": "uint256",
          "name": "",
          "type": "uint256"
        }
      ],
      "stateMutability": "view",
      "type": "function"
    },
    {
      "inputs": [],
      "name": "PRECISION",
      "outputs": [
        {
          "internalType": "uint256",
          "name": "",
          "type": "uint256"
        }
      ],
      "stateMutability": "view",
      "type": "function"
    },
    {
      "inputs": [],
      "name": "VESTED_SHARE",
      "outputs": [
        {
          "internalType": "uint256",
          "name": "",
          "type": "uint256"
        }
      ],
      "stateMutability": "view",
      "type": "function"
    },
    {
      "inputs": [],
      "name": "_init",
      "outputs": [],
      "stateMutability": "nonpayable",
      "type": "function"
    },
    {
      "inputs": [],
      "name": "claim",
      "outputs": [],
      "stateMutability": "nonpayable",
      "type": "function"
    },
    {
      "inputs": [
        {
          "internalType": "address",
          "name": "user",
          "type": "address"
        }
      ],
      "name": "claimable",
      "outputs": [
        {
          "internalType": "uint256",
          "name": "_claimable",
          "type": "uint256"
        }
      ],
      "stateMutability": "view",
      "type": "function"
    },
    {
      "inputs": [
        {
          "internalType": "uint256",
          "name": "amount",
          "type": "uint256"
        }
      ],
      "name": "deposit",
      "outputs": [],
      "stateMutability": "nonpayable",
      "type": "function"
    },
    {
      "inputs": [
        {
          "internalType": "address",
          "name": "",
          "type": "address"
        }
      ],
      "name": "depositors",
      "outputs": [
        {
          "internalType": "bool",
          "name": "",
          "type": "bool"
        }
      ],
      "stateMutability": "view",
      "type": "function"
    },
    {
      "inputs": [],
      "name": "init",
      "outputs": [
        {
          "internalType": "bool",
          "name": "",
          "type": "bool"
        }
      ],
      "stateMutability": "view",
      "type": "function"
    },
    {
      "inputs": [],
      "name": "merkle",
      "outputs": [
        {
          "internalType": "address",
          "name": "",
          "type": "address"
        }
      ],
      "stateMutability": "view",
      "type": "function"
    },
    {
      "inputs": [],
      "name": "owner",
      "outputs": [
        {
          "internalType": "address",
          "name": "",
          "type": "address"
        }
      ],
      "stateMutability": "view",
      "type": "function"
    },
    {
      "inputs": [
        {
          "internalType": "address",
          "name": "depositor",
          "type": "address"
        }
      ],
      "name": "setDepositor",
      "outputs": [],
      "stateMutability": "nonpayable",
      "type": "function"
    },
    {
      "inputs": [
        {
          "internalType": "address",
          "name": "_merkle",
          "type": "address"
        }
      ],
      "name": "setMerkleTreeContract",
      "outputs": [],
      "stateMutability": "nonpayable",
      "type": "function"
    },
    {
      "inputs": [
        {
          "internalType": "address",
          "name": "_owner",
          "type": "address"
        }
      ],
      "name": "setOwner",
      "outputs": [],
      "stateMutability": "nonpayable",
      "type": "function"
    },
    {
      "inputs": [
        {
          "internalType": "address",
          "name": "_who",
          "type": "address"
        },
        {
          "internalType": "address",
          "name": "_to",
          "type": "address"
        },
        {
          "internalType": "uint256",
          "name": "_amount",
          "type": "uint256"
        }
      ],
      "name": "setUserInfo",
      "outputs": [
        {
          "internalType": "bool",
          "name": "status",
          "type": "bool"
        }
      ],
      "stateMutability": "nonpayable",
      "type": "function"
    },
    {
      "inputs": [],
      "name": "startTimestamp",
      "outputs": [
        {
          "internalType": "uint256",
          "name": "",
          "type": "uint256"
        }
      ],
      "stateMutability": "view",
      "type": "function"
    },
    {
      "inputs": [],
      "name": "token",
      "outputs": [
        {
          "internalType": "contract IERC20",
          "name": "",
          "type": "address"
        }
      ],
      "stateMutability": "view",
      "type": "function"
    },
    {
      "inputs": [],
      "name": "tokenPerSec",
      "outputs": [
        {
          "internalType": "uint256",
          "name": "",
          "type": "uint256"
        }
      ],
      "stateMutability": "view",
      "type": "function"
    },
    {
      "inputs": [],
      "name": "totalAirdrop",
      "outputs": [
        {
          "internalType": "uint256",
          "name": "",
          "type": "uint256"
        }
      ],
      "stateMutability": "view",
      "type": "function"
    },
    {
      "inputs": [
        {
          "internalType": "address",
          "name": "",
          "type": "address"
        }
      ],
      "name": "users",
      "outputs": [
        {
          "internalType": "uint256",
          "name": "totalAmount",
          "type": "uint256"
        },
        {
          "internalType": "uint256",
          "name": "initAmount",
          "type": "uint256"
        },
        {
          "internalType": "uint256",
          "name": "vestedAmount",
          "type": "uint256"
        },
        {
          "internalType": "uint256",
          "name": "lockedAmount",
          "type": "uint256"
        },
        {
          "internalType": "uint256",
          "name": "tokenPerSec",
          "type": "uint256"
        },
        {
          "internalType": "uint256",
          "name": "lastTimestamp",
          "type": "uint256"
        },
        {
          "internalType": "uint256",
          "name": "claimed",
          "type": "uint256"
        },
        {
          "internalType": "address",
          "name": "to",
          "type": "address"
        }
      ],
      "stateMutability": "view",
      "type": "function"
    },
    {
      "inputs": [
        {
          "internalType": "address",
          "name": "",
          "type": "address"
        }
      ],
      "name": "usersFlag",
      "outputs": [
        {
          "internalType": "bool",
          "name": "",
          "type": "bool"
        }
      ],
      "stateMutability": "view",
      "type": "function"
    },
    {
      "inputs": [],
      "name": "ve",
      "outputs": [
        {
          "internalType": "address",
          "name": "",
          "type": "address"
        }
      ],
      "stateMutability": "view",
      "type": "function"
    },
    {
      "inputs": [
        {
          "internalType": "uint256",
          "name": "amount",
          "type": "uint256"
        },
        {
          "internalType": "address",
          "name": "_token",
          "type": "address"
        },
        {
          "internalType": "address",
          "name": "_to",
          "type": "address"
        }
      ],
      "name": "withdraw",
      "outputs": [],
      "stateMutability": "nonpayable",
      "type": "function"
    }
  ],
  "bytecode": "0x608060405234801561001057600080fd5b506040516115ff3803806115ff83398101604081905261002f9161008c565b6001600055600680546001600160a01b03199081163317909155600980546001600160a01b03948516908316179055600780549290931691161790556100bf565b80516001600160a01b038116811461008757600080fd5b919050565b6000806040838503121561009f57600080fd5b6100a883610070565b91506100b660208401610070565b90509250929050565b611531806100ce6000396000f3fe608060405234801561001057600080fd5b50600436106101735760003560e01c8063b349b973116100de578063d5a703b511610097578063e900ea7c11610071578063e900ea7c1461037d578063eed75f6d14610386578063f2c098b7146103a9578063fc0c546a146103bc57600080fd5b8063d5a703b514610354578063e1c7392a14610367578063e6fd48bc1461037457600080fd5b8063b349b97314610302578063b460af941461030a578063b6b55f251461031d578063c584b9b514610330578063cb3a644014610343578063d402e5831461034b57600080fd5b806350fd1f3e1161013057806350fd1f3e1461022c5780635ce97dbb146102355780638da5cb5b1461023e578063a87430ba14610251578063aaf5eb68146102ef578063b092deb1146102f857600080fd5b806306ad05ab1461017857806306e6712c1461018d57806313af4035146101c55780631f850716146101d8578063402914f5146102035780634e71d92d14610224575b600080fd5b61018b6101863660046112f0565b6103cf565b005b6101b061019b3660046112f0565b600b6020526000908152604090205460ff1681565b60405190151581526020015b60405180910390f35b61018b6101d33660046112f0565b610437565b6007546101eb906001600160a01b031681565b6040516001600160a01b0390911681526020016101bc565b6102166102113660046112f0565b610496565b6040519081526020016101bc565b61018b610648565b61021660045481565b61021660055481565b6006546101eb906001600160a01b031681565b6102ab61025f3660046112f0565b600a60205260009081526040902080546001820154600283015460038401546004850154600586015460068701546007909701549596949593949293919290916001600160a01b031688565b604080519889526020890197909752958701949094526060860192909252608085015260a084015260c08301526001600160a01b031660e0820152610100016101bc565b6102166103e881565b610216621baf8081565b61018b61093b565b61018b61031836600461130b565b61098b565b61018b61032b366004611347565b610a24565b6008546101eb906001600160a01b031681565b61021660fa81565b61021660025481565b6101b0610362366004611360565b610acf565b6001546101b09060ff1681565b61021660035481565b6102166101f481565b6101b06103943660046112f0565b600c6020526000908152604090205460ff1681565b61018b6103b73660046112f0565b610f65565b6009546101eb906001600160a01b031681565b6006546001600160a01b031633146104025760405162461bcd60e51b81526004016103f99061139c565b60405180910390fd5b6001600160a01b03811661041557600080fd5b600880546001600160a01b0319166001600160a01b0392909216919091179055565b6006546001600160a01b031633146104615760405162461bcd60e51b81526004016103f99061139c565b6001600160a01b03811661047457600080fd5b600680546001600160a01b0319166001600160a01b0392909216919091179055565b6001600160a01b0381166000908152600b602052604081205460ff166104bb57600080fd5b6001600160a01b038083166000908152600a602090815260409182902082516101008101845281548152600182015492810192909252600281015492820192909252600380830154606083015260048301546080830152600583015460a0830152600683015460c083015260079092015490921660e08301525461054390621baf80906113d5565b8160a00151111561058a5760405162461bcd60e51b81526020600482015260116024820152701d1a5b594e8818db185a5b595908185b1b607a1b60448201526064016103f9565b805160c082015111156105d35760405162461bcd60e51b8152602060048201526011602482015270185b5b9d0e8818db185a5b595908185b1b607a1b60448201526064016103f9565b60035442906105e690621baf80906113d5565b81111561060157621baf806003546105fe91906113d5565b90505b60008260a001518261061391906113ed565b90506000811161062257600080fd5b6103e88360800151826106359190611404565b61063f9190611423565b95945050505050565b60026000540361069a5760405162461bcd60e51b815260206004820152601f60248201527f5265656e7472616e637947756172643a207265656e7472616e742063616c6c0060448201526064016103f9565b60026000908155338152600b602052604090205460ff166106ba57600080fd5b336000908152600a602090815260409182902082516101008101845281548152600182015492810192909252600281015492820192909252600380830154606083015260048301546080830152600583015460a0830152600683015460c08301526007909201546001600160a01b031660e0820152905461073f90621baf80906113d5565b8160a0015111156107865760405162461bcd60e51b81526020600482015260116024820152701d1a5b594e8818db185a5b595908185b1b607a1b60448201526064016103f9565b805160c082015111156107cf5760405162461bcd60e51b8152602060048201526011602482015270185b5b9d0e8818db185a5b595908185b1b607a1b60448201526064016103f9565b60e081015160035442906107e790621baf80906113d5565b81111561080257621baf806003546107ff91906113d5565b90505b60008360a001518261081491906113ed565b90506000811161082357600080fd5b60006103e88560800151836108389190611404565b6108429190611423565b60a0860184905260c086018051919250829161085f9083906113d5565b905250845160c086015111156108ab5760405162461bcd60e51b815260206004820152601160248201527018db185a5b5959080f881d1bdd105b5b9d607a1b60448201526064016103f9565b336000908152600a602090815260409182902087518155908701516001820155908601516002820155606086015160038201556080860151600482015560a0860151600582015560c0860151600682015560e0860151600790910180546001600160a01b0319166001600160a01b0392831617905560095461092f91168583610fd9565b50506001600055505050565b6006546001600160a01b031633146109655760405162461bcd60e51b81526004016103f99061139c565b60015460ff161561097557600080fd5b6001805460ff1916811790556363b6d7e0600355565b336000908152600c602052604090205460ff161515600114806109b857506006546001600160a01b031633145b6109c157600080fd5b6109d56001600160a01b0383168285610fd9565b82600560008282546109e791906113ed565b90915550506040518381527f5b6b431d4476a211bb7d41c20d1aab9ae2321deee0d20be3d9fc9b1093fa6e3d9060200160405180910390a1505050565b336000908152600c602052604090205460ff16151560011480610a5157506006546001600160a01b031633145b610a5a57600080fd5b60015460ff1615610a6a57600080fd5b600954610a82906001600160a01b0316333084611041565b8060056000828254610a9491906113d5565b90915550506040518181527f4d6ce1e535dbade1c23defba91e23b8f791ce5edc0cc320257a2b364e4e384269060200160405180910390a150565b6008546000906001600160a01b03163314610afc5760405162461bcd60e51b81526004016103f99061139c565b600260005403610b4e5760405162461bcd60e51b815260206004820152601f60248201527f5265656e7472616e637947756172643a207265656e7472616e742063616c6c0060448201526064016103f9565b60026000556001600160a01b038416610b925760405162461bcd60e51b815260206004820152600660248201526506164647220360d41b60448201526064016103f9565b6001600160a01b038316610bd15760405162461bcd60e51b815260206004820152600660248201526506164647220360d41b60448201526064016103f9565b60008211610c0a5760405162461bcd60e51b81526020600482015260066024820152650616d6e7420360d41b60448201526064016103f9565b6001600160a01b0384166000908152600b602052604090205460ff1615610c5b5760405162461bcd60e51b815260206004820152600560248201526421666c616760d81b60448201526064016103f9565b60015460ff16610c985760405162461bcd60e51b81526020600482015260086024820152671b9bdd081a5b9a5d60c21b60448201526064016103f9565b60006103e8610ca96101f485611404565b610cb39190611423565b905060006103e8610cc560fa86611404565b610ccf9190611423565b9050806000621baf80610ce46103e884611404565b610cee9190611423565b9050600060405180610100016040528088815260200185815260200186815260200184815260200183815260200160035481526020018686610d3091906113d5565b81526001600160a01b038a81166020928301528b81166000908152600a835260408082208551815585850151600180830191909155868301516002830155606087015160038301556080870151600483015560a0870151600583015560c0870151600683015560e0870151600790920180546001600160a01b03191692861692909217909155600b9094529020805460ff1916909217909155600954919250610ddb91168986610fd9565b60095460075460405163095ea7b360e01b81526001600160a01b0391821660048201526000602482015291169063095ea7b3906044016020604051808303816000875af1158015610e30573d6000803e3d6000fd5b505050506040513d601f19601f82011682018060405250810190610e549190611445565b5060095460075460405163095ea7b360e01b81526001600160a01b0391821660048201526024810188905291169063095ea7b3906044016020604051808303816000875af1158015610eaa573d6000803e3d6000fd5b505050506040513d601f19601f82011682018060405250810190610ece9190611445565b5060075460405163d4e54c3b60e01b8152600481018790526303bfc40060248201526001600160a01b038b811660448301529091169063d4e54c3b906064016020604051808303816000875af1158015610f2c573d6000803e3d6000fd5b505050506040513d601f19601f82011682018060405250810190610f509190611467565b50506001600081905598975050505050505050565b6006546001600160a01b03163314610f8f5760405162461bcd60e51b81526004016103f99061139c565b6001600160a01b0381166000908152600c602052604090205460ff1615610fb557600080fd5b6001600160a01b03166000908152600c60205260409020805460ff19166001179055565b6040516001600160a01b03831660248201526044810182905261103c90849063a9059cbb60e01b906064015b60408051601f198184030181529190526020810180516001600160e01b03166001600160e01b03199093169290921790915261107f565b505050565b6040516001600160a01b03808516602483015283166044820152606481018290526110799085906323b872dd60e01b90608401611005565b50505050565b60006110d4826040518060400160405280602081526020017f5361666545524332303a206c6f772d6c6576656c2063616c6c206661696c6564815250856001600160a01b03166111519092919063ffffffff16565b80519091501561103c57808060200190518101906110f29190611445565b61103c5760405162461bcd60e51b815260206004820152602a60248201527f5361666545524332303a204552433230206f7065726174696f6e20646964206e6044820152691bdd081cdd58d8d9595960b21b60648201526084016103f9565b6060611160848460008561116a565b90505b9392505050565b6060824710156111cb5760405162461bcd60e51b815260206004820152602660248201527f416464726573733a20696e73756666696369656e742062616c616e636520666f6044820152651c8818d85b1b60d21b60648201526084016103f9565b6001600160a01b0385163b6112225760405162461bcd60e51b815260206004820152601d60248201527f416464726573733a2063616c6c20746f206e6f6e2d636f6e747261637400000060448201526064016103f9565b600080866001600160a01b0316858760405161123e91906114ac565b60006040518083038185875af1925050503d806000811461127b576040519150601f19603f3d011682016040523d82523d6000602084013e611280565b606091505b509150915061129082828661129b565b979650505050505050565b606083156112aa575081611163565b8251156112ba5782518084602001fd5b8160405162461bcd60e51b81526004016103f991906114c8565b80356001600160a01b03811681146112eb57600080fd5b919050565b60006020828403121561130257600080fd5b611163826112d4565b60008060006060848603121561132057600080fd5b83359250611330602085016112d4565b915061133e604085016112d4565b90509250925092565b60006020828403121561135957600080fd5b5035919050565b60008060006060848603121561137557600080fd5b61137e846112d4565b925061138c602085016112d4565b9150604084013590509250925092565b6020808252600990820152683737ba1037bbb732b960b91b604082015260600190565b634e487b7160e01b600052601160045260246000fd5b600082198211156113e8576113e86113bf565b500190565b6000828210156113ff576113ff6113bf565b500390565b600081600019048311821515161561141e5761141e6113bf565b500290565b60008261144057634e487b7160e01b600052601260045260246000fd5b500490565b60006020828403121561145757600080fd5b8151801515811461116357600080fd5b60006020828403121561147957600080fd5b5051919050565b60005b8381101561149b578181015183820152602001611483565b838111156110795750506000910152565b600082516114be818460208701611480565b9190910192915050565b60208152600082518060208401526114e7816040850160208701611480565b601f01601f1916919091016040019291505056fea26469706673582212203edf134d1b7e25ab761e74fc7409d196c5e44ad18f8ec3346a2ced6a8be0c80364736f6c634300080d0033",
  "linkReferences": {},
  "deployedLinkReferences": {}
}