{
  "_format": "hh-sol-artifact-1",
  "contractName": "Thenian",
  "sourceName": "contracts/Thenian.sol",
  "abi": [
    {
      "inputs": [
        {
          "internalType": "uint256",
          "name": "_maxSupply",
          "type": "uint256"
        },
        {
          "internalType": "uint256",
          "name": "_nftPrice",
          "type": "uint256"
        },
        {
          "internalType": "uint256",
          "name": "_startTimestamp",
          "type": "uint256"
        },
        {
          "internalType": "address",
          "name": "_contractReceiver",
          "type": "address"
        }
      ],
      "stateMutability": "nonpayable",
      "type": "constructor"
    },
    {
      "anonymous": false,
      "inputs": [
        {
          "indexed": true,
          "internalType": "address",
          "name": "owner",
          "type": "address"
        },
        {
          "indexed": true,
          "internalType": "address",
          "name": "approved",
          "type": "address"
        },
        {
          "indexed": true,
          "internalType": "uint256",
          "name": "tokenId",
          "type": "uint256"
        }
      ],
      "name": "Approval",
      "type": "event"
    },
    {
      "anonymous": false,
      "inputs": [
        {
          "indexed": true,
          "internalType": "address",
          "name": "owner",
          "type": "address"
        },
        {
          "indexed": true,
          "internalType": "address",
          "name": "operator",
          "type": "address"
        },
        {
          "indexed": false,
          "internalType": "bool",
          "name": "approved",
          "type": "bool"
        }
      ],
      "name": "ApprovalForAll",
      "type": "event"
    },
    {
      "anonymous": false,
      "inputs": [
        {
          "indexed": true,
          "internalType": "address",
          "name": "previousOwner",
          "type": "address"
        },
        {
          "indexed": true,
          "internalType": "address",
          "name": "newOwner",
          "type": "address"
        }
      ],
      "name": "OwnershipTransferred",
      "type": "event"
    },
    {
      "anonymous": false,
      "inputs": [
        {
          "indexed": true,
          "internalType": "address",
          "name": "from",
          "type": "address"
        },
        {
          "indexed": true,
          "internalType": "address",
          "name": "to",
          "type": "address"
        },
        {
          "indexed": true,
          "internalType": "uint256",
          "name": "tokenId",
          "type": "uint256"
        }
      ],
      "name": "Transfer",
      "type": "event"
    },
    {
      "inputs": [],
      "name": "MAX_PER_MINT",
      "outputs": [
        {
          "internalType": "uint256",
          "name": "",
          "type": "uint256"
        }
      ],
      "stateMutability": "view",
      "type": "function"
    },
    {
      "inputs": [],
      "name": "MAX_RESERVE",
      "outputs": [
        {
          "internalType": "uint256",
          "name": "",
          "type": "uint256"
        }
      ],
      "stateMutability": "view",
      "type": "function"
    },
    {
      "inputs": [],
      "name": "MAX_SUPPLY",
      "outputs": [
        {
          "internalType": "uint256",
          "name": "",
          "type": "uint256"
        }
      ],
      "stateMutability": "view",
      "type": "function"
    },
    {
      "inputs": [],
      "name": "NFT_PRICE",
      "outputs": [
        {
          "internalType": "uint256",
          "name": "",
          "type": "uint256"
        }
      ],
      "stateMutability": "view",
      "type": "function"
    },
    {
      "inputs": [],
      "name": "SALE_START_TIMESTAMP",
      "outputs": [
        {
          "internalType": "uint256",
          "name": "",
          "type": "uint256"
        }
      ],
      "stateMutability": "view",
      "type": "function"
    },
    {
      "inputs": [
        {
          "internalType": "address",
          "name": "to",
          "type": "address"
        },
        {
          "internalType": "uint256",
          "name": "tokenId",
          "type": "uint256"
        }
      ],
      "name": "approve",
      "outputs": [],
      "stateMutability": "nonpayable",
      "type": "function"
    },
    {
      "inputs": [
        {
          "internalType": "address",
          "name": "owner",
          "type": "address"
        }
      ],
      "name": "balanceOf",
      "outputs": [
        {
          "internalType": "uint256",
          "name": "",
          "type": "uint256"
        }
      ],
      "stateMutability": "view",
      "type": "function"
    },
    {
      "inputs": [],
      "name": "baseURI",
      "outputs": [
        {
          "internalType": "string",
          "name": "",
          "type": "string"
        }
      ],
      "stateMutability": "view",
      "type": "function"
    },
    {
      "inputs": [],
      "name": "contractReceiver",
      "outputs": [
        {
          "internalType": "address",
          "name": "",
          "type": "address"
        }
      ],
      "stateMutability": "view",
      "type": "function"
    },
    {
      "inputs": [
        {
          "internalType": "address",
          "name": "",
          "type": "address"
        }
      ],
      "name": "firstMint",
      "outputs": [
        {
          "internalType": "bool",
          "name": "",
          "type": "bool"
        }
      ],
      "stateMutability": "view",
      "type": "function"
    },
    {
      "inputs": [
        {
          "internalType": "uint256",
          "name": "tokenId",
          "type": "uint256"
        }
      ],
      "name": "getApproved",
      "outputs": [
        {
          "internalType": "address",
          "name": "",
          "type": "address"
        }
      ],
      "stateMutability": "view",
      "type": "function"
    },
    {
      "inputs": [
        {
          "internalType": "address",
          "name": "owner",
          "type": "address"
        },
        {
          "internalType": "address",
          "name": "operator",
          "type": "address"
        }
      ],
      "name": "isApprovedForAll",
      "outputs": [
        {
          "internalType": "bool",
          "name": "",
          "type": "bool"
        }
      ],
      "stateMutability": "view",
      "type": "function"
    },
    {
      "inputs": [
        {
          "internalType": "bytes32[]",
          "name": "proof",
          "type": "bytes32[]"
        }
      ],
      "name": "mintFirst",
      "outputs": [],
      "stateMutability": "payable",
      "type": "function"
    },
    {
      "inputs": [
        {
          "internalType": "uint256",
          "name": "amount",
          "type": "uint256"
        }
      ],
      "name": "mintPublic",
      "outputs": [],
      "stateMutability": "payable",
      "type": "function"
    },
    {
      "inputs": [
        {
          "internalType": "uint256",
          "name": "amount",
          "type": "uint256"
        },
        {
          "internalType": "bytes32[]",
          "name": "proof",
          "type": "bytes32[]"
        }
      ],
      "name": "mintSecond",
      "outputs": [],
      "stateMutability": "payable",
      "type": "function"
    },
    {
      "inputs": [],
      "name": "name",
      "outputs": [
        {
          "internalType": "string",
          "name": "",
          "type": "string"
        }
      ],
      "stateMutability": "view",
      "type": "function"
    },
    {
      "inputs": [
        {
          "internalType": "address",
          "name": "",
          "type": "address"
        }
      ],
      "name": "originalMinters",
      "outputs": [
        {
          "internalType": "uint256",
          "name": "",
          "type": "uint256"
        }
      ],
      "stateMutability": "view",
      "type": "function"
    },
    {
      "inputs": [],
      "name": "owner",
      "outputs": [
        {
          "internalType": "address",
          "name": "",
          "type": "address"
        }
      ],
      "stateMutability": "view",
      "type": "function"
    },
    {
      "inputs": [
        {
          "internalType": "uint256",
          "name": "tokenId",
          "type": "uint256"
        }
      ],
      "name": "ownerOf",
      "outputs": [
        {
          "internalType": "address",
          "name": "",
          "type": "address"
        }
      ],
      "stateMutability": "view",
      "type": "function"
    },
    {
      "inputs": [],
      "name": "renounceOwnership",
      "outputs": [],
      "stateMutability": "nonpayable",
      "type": "function"
    },
    {
      "inputs": [
        {
          "internalType": "address",
          "name": "_to",
          "type": "address"
        },
        {
          "internalType": "uint256",
          "name": "_amount",
          "type": "uint256"
        }
      ],
      "name": "reserveNFTs",
      "outputs": [],
      "stateMutability": "nonpayable",
      "type": "function"
    },
    {
      "inputs": [],
      "name": "reservedAmount",
      "outputs": [
        {
          "internalType": "uint256",
          "name": "",
          "type": "uint256"
        }
      ],
      "stateMutability": "view",
      "type": "function"
    },
    {
      "inputs": [],
      "name": "root",
      "outputs": [
        {
          "internalType": "bytes32",
          "name": "",
          "type": "bytes32"
        }
      ],
      "stateMutability": "view",
      "type": "function"
    },
    {
      "inputs": [
        {
          "internalType": "address",
          "name": "from",
          "type": "address"
        },
        {
          "internalType": "address",
          "name": "to",
          "type": "address"
        },
        {
          "internalType": "uint256",
          "name": "tokenId",
          "type": "uint256"
        }
      ],
      "name": "safeTransferFrom",
      "outputs": [],
      "stateMutability": "nonpayable",
      "type": "function"
    },
    {
      "inputs": [
        {
          "internalType": "address",
          "name": "from",
          "type": "address"
        },
        {
          "internalType": "address",
          "name": "to",
          "type": "address"
        },
        {
          "internalType": "uint256",
          "name": "tokenId",
          "type": "uint256"
        },
        {
          "internalType": "bytes",
          "name": "data",
          "type": "bytes"
        }
      ],
      "name": "safeTransferFrom",
      "outputs": [],
      "stateMutability": "nonpayable",
      "type": "function"
    },
    {
      "inputs": [
        {
          "internalType": "address",
          "name": "",
          "type": "address"
        }
      ],
      "name": "secondMint",
      "outputs": [
        {
          "internalType": "uint256",
          "name": "",
          "type": "uint256"
        }
      ],
      "stateMutability": "view",
      "type": "function"
    },
    {
      "inputs": [
        {
          "internalType": "address",
          "name": "operator",
          "type": "address"
        },
        {
          "internalType": "bool",
          "name": "approved",
          "type": "bool"
        }
      ],
      "name": "setApprovalForAll",
      "outputs": [],
      "stateMutability": "nonpayable",
      "type": "function"
    },
    {
      "inputs": [
        {
          "internalType": "string",
          "name": "baseURI_",
          "type": "string"
        }
      ],
      "name": "setBaseURI",
      "outputs": [],
      "stateMutability": "nonpayable",
      "type": "function"
    },
    {
      "inputs": [
        {
          "internalType": "address",
          "name": "_contractReceiver",
          "type": "address"
        }
      ],
      "name": "setContractReceiver",
      "outputs": [],
      "stateMutability": "nonpayable",
      "type": "function"
    },
    {
      "inputs": [
        {
          "internalType": "uint256",
          "name": "_nftPrice",
          "type": "uint256"
        }
      ],
      "name": "setNftPrice",
      "outputs": [],
      "stateMutability": "nonpayable",
      "type": "function"
    },
    {
      "inputs": [
        {
          "internalType": "bytes32",
          "name": "_root",
          "type": "bytes32"
        }
      ],
      "name": "setRoot",
      "outputs": [],
      "stateMutability": "nonpayable",
      "type": "function"
    },
    {
      "inputs": [
        {
          "internalType": "bytes4",
          "name": "interfaceId",
          "type": "bytes4"
        }
      ],
      "name": "supportsInterface",
      "outputs": [
        {
          "internalType": "bool",
          "name": "",
          "type": "bool"
        }
      ],
      "stateMutability": "view",
      "type": "function"
    },
    {
      "inputs": [],
      "name": "symbol",
      "outputs": [
        {
          "internalType": "string",
          "name": "",
          "type": "string"
        }
      ],
      "stateMutability": "view",
      "type": "function"
    },
    {
      "inputs": [
        {
          "internalType": "uint256",
          "name": "index",
          "type": "uint256"
        }
      ],
      "name": "tokenByIndex",
      "outputs": [
        {
          "internalType": "uint256",
          "name": "",
          "type": "uint256"
        }
      ],
      "stateMutability": "view",
      "type": "function"
    },
    {
      "inputs": [
        {
          "internalType": "address",
          "name": "owner",
          "type": "address"
        },
        {
          "internalType": "uint256",
          "name": "index",
          "type": "uint256"
        }
      ],
      "name": "tokenOfOwnerByIndex",
      "outputs": [
        {
          "internalType": "uint256",
          "name": "",
          "type": "uint256"
        }
      ],
      "stateMutability": "view",
      "type": "function"
    },
    {
      "inputs": [
        {
          "internalType": "uint256",
          "name": "tokenId",
          "type": "uint256"
        }
      ],
      "name": "tokenURI",
      "outputs": [
        {
          "internalType": "string",
          "name": "",
          "type": "string"
        }
      ],
      "stateMutability": "view",
      "type": "function"
    },
    {
      "inputs": [
        {
          "internalType": "address",
          "name": "_owner",
          "type": "address"
        }
      ],
      "name": "tokensOfOwner",
      "outputs": [
        {
          "internalType": "uint256[]",
          "name": "",
          "type": "uint256[]"
        }
      ],
      "stateMutability": "view",
      "type": "function"
    },
    {
      "inputs": [],
      "name": "totalSupply",
      "outputs": [
        {
          "internalType": "uint256",
          "name": "",
          "type": "uint256"
        }
      ],
      "stateMutability": "view",
      "type": "function"
    },
    {
      "inputs": [
        {
          "internalType": "address",
          "name": "from",
          "type": "address"
        },
        {
          "internalType": "address",
          "name": "to",
          "type": "address"
        },
        {
          "internalType": "uint256",
          "name": "tokenId",
          "type": "uint256"
        }
      ],
      "name": "transferFrom",
      "outputs": [],
      "stateMutability": "nonpayable",
      "type": "function"
    },
    {
      "inputs": [
        {
          "internalType": "address",
          "name": "newOwner",
          "type": "address"
        }
      ],
      "name": "transferOwnership",
      "outputs": [],
      "stateMutability": "nonpayable",
      "type": "function"
    },
    {
      "inputs": [],
      "name": "withdraw",
      "outputs": [],
      "stateMutability": "nonpayable",
      "type": "function"
    }
  ],
  "bytecode": "0x6080604052600a600e5560966010553480156200001b57600080fd5b5060405162002c5638038062002c568339810160408190526200003e91620001ee565b60408051808201825260078152662a3432b734b0b760c91b6020808301918252835180850190945260068452651d1a1953919560d21b9084015281519192916200008b9160009162000148565b508051620000a190600190602084019062000148565b505050620000be620000b8620000f260201b60201c565b620000f6565b600c93909355600d91909155600f55601380546001600160a01b0319166001600160a01b039092169190911790556200027b565b3390565b600a80546001600160a01b038381166001600160a01b0319831681179093556040519116919082907f8be0079c531659141344cd1fd0a4f28419497f9722a3daafe3b4186f6b6457e090600090a35050565b82805462000156906200023f565b90600052602060002090601f0160209004810192826200017a5760008555620001c5565b82601f106200019557805160ff1916838001178555620001c5565b82800160010185558215620001c5579182015b82811115620001c5578251825591602001919060010190620001a8565b50620001d3929150620001d7565b5090565b5b80821115620001d35760008155600101620001d8565b600080600080608085870312156200020557600080fd5b845160208601516040870151606088015192965090945092506001600160a01b03811681146200023457600080fd5b939692955090935050565b600181811c908216806200025457607f821691505b6020821081036200027557634e487b7160e01b600052602260045260246000fd5b50919050565b6129cb806200028b6000396000f3fe6080604052600436106102465760003560e01c8063715018a611610139578063b65d8d10116100b6578063e985e9c51161007a578063e985e9c5146106a6578063ebf0c717146106ef578063efd0cbf914610705578063eff31e9e14610718578063f2fde38b1461072e578063f92c45b71461074e57600080fd5b8063b65d8d10146105f9578063b88d4fde14610619578063c87b56dd14610639578063d113d59d14610659578063dab5f3401461068657600080fd5b80638da5cb5b116100fd5780638da5cb5b1461057d578063946807fd1461059b57806395d89b41146105b1578063a16c31fc146105c6578063a22cb465146105d957600080fd5b8063715018a6146104db5780637d9a7a4c146104f057806383ea85d7146105105780638462151c1461053d5780638afbc96b1461056a57600080fd5b80633ccfd60b116101c75780636352211e1161018b5780636352211e14610450578063676dd563146104705780636c0360eb1461048657806370a082311461049b57806370a8de86146104bb57600080fd5b80633ccfd60b146103bb57806342842e0e146103d05780634f6ccce7146103f057806355f804b314610410578063615e1be61461043057600080fd5b806309d42b301161020e57806309d42b301461032c57806318160ddd1461035057806323b872dd146103655780632f745c591461038557806332cb6b0c146103a557600080fd5b806301ffc9a71461024b57806305afb3a41461028057806306fdde03146102b0578063081812fc146102d2578063095ea7b31461030a575b600080fd5b34801561025757600080fd5b5061026b610266366004612300565b610764565b60405190151581526020015b60405180910390f35b34801561028c57600080fd5b5061026b61029b366004612339565b60146020526000908152604090205460ff1681565b3480156102bc57600080fd5b506102c561078f565b60405161027791906123ac565b3480156102de57600080fd5b506102f26102ed3660046123bf565b610821565b6040516001600160a01b039091168152602001610277565b34801561031657600080fd5b5061032a6103253660046123d8565b610848565b005b34801561033857600080fd5b50610342600e5481565b604051908152602001610277565b34801561035c57600080fd5b50600854610342565b34801561037157600080fd5b5061032a610380366004612402565b610962565b34801561039157600080fd5b506103426103a03660046123d8565b610993565b3480156103b157600080fd5b50610342600c5481565b3480156103c757600080fd5b5061032a610a29565b3480156103dc57600080fd5b5061032a6103eb366004612402565b610aca565b3480156103fc57600080fd5b5061034261040b3660046123bf565b610ae5565b34801561041c57600080fd5b5061032a61042b3660046124dd565b610b78565b34801561043c57600080fd5b5061032a61044b366004612339565b610b97565b34801561045c57600080fd5b506102f261046b3660046123bf565b610bc1565b34801561047c57600080fd5b50610342600d5481565b34801561049257600080fd5b506102c5610c21565b3480156104a757600080fd5b506103426104b6366004612339565b610c30565b3480156104c757600080fd5b5061032a6104d63660046123d8565b610cb6565b3480156104e757600080fd5b5061032a610db3565b3480156104fc57600080fd5b5061032a61050b3660046123bf565b610dc7565b34801561051c57600080fd5b5061034261052b366004612339565b60156020526000908152604090205481565b34801561054957600080fd5b5061055d610558366004612339565b610dd4565b6040516102779190612526565b61032a6105783660046125ea565b610e96565b34801561058957600080fd5b50600a546001600160a01b03166102f2565b3480156105a757600080fd5b50610342600f5481565b3480156105bd57600080fd5b506102c5611060565b61032a6105d436600461261f565b61106f565b3480156105e557600080fd5b5061032a6105f4366004612666565b6112af565b34801561060557600080fd5b506013546102f2906001600160a01b031681565b34801561062557600080fd5b5061032a6106343660046126a2565b6112ba565b34801561064557600080fd5b506102c56106543660046123bf565b6112f2565b34801561066557600080fd5b50610342610674366004612339565b60166020526000908152604090205481565b34801561069257600080fd5b5061032a6106a13660046123bf565b611359565b3480156106b257600080fd5b5061026b6106c136600461271e565b6001600160a01b03918216600090815260056020908152604080832093909416825291909152205460ff1690565b3480156106fb57600080fd5b5061034260125481565b61032a6107133660046123bf565b611366565b34801561072457600080fd5b5061034260105481565b34801561073a57600080fd5b5061032a610749366004612339565b61155b565b34801561075a57600080fd5b5061034260115481565b60006001600160e01b0319821663780e9d6360e01b14806107895750610789826115d1565b92915050565b60606000805461079e90612751565b80601f01602080910402602001604051908101604052809291908181526020018280546107ca90612751565b80156108175780601f106107ec57610100808354040283529160200191610817565b820191906000526020600020905b8154815290600101906020018083116107fa57829003601f168201915b5050505050905090565b600061082c82611621565b506000908152600460205260409020546001600160a01b031690565b600061085382610bc1565b9050806001600160a01b0316836001600160a01b0316036108c55760405162461bcd60e51b815260206004820152602160248201527f4552433732313a20617070726f76616c20746f2063757272656e74206f776e656044820152603960f91b60648201526084015b60405180910390fd5b336001600160a01b03821614806108e157506108e181336106c1565b6109535760405162461bcd60e51b815260206004820152603e60248201527f4552433732313a20617070726f76652063616c6c6572206973206e6f7420746f60448201527f6b656e206f776e6572206e6f7220617070726f76656420666f7220616c6c000060648201526084016108bc565b61095d8383611680565b505050565b61096c33826116ee565b6109885760405162461bcd60e51b81526004016108bc90612785565b61095d83838361176d565b600061099e83610c30565b8210610a005760405162461bcd60e51b815260206004820152602b60248201527f455243373231456e756d657261626c653a206f776e657220696e646578206f7560448201526a74206f6620626f756e647360a81b60648201526084016108bc565b506001600160a01b03919091166000908152600660209081526040808320938352929052205490565b610a31611914565b6013546040516000916001600160a01b03169047908381818185875af1925050503d8060008114610a7e576040519150601f19603f3d011682016040523d82523d6000602084013e610a83565b606091505b5050905080610ac75760405162461bcd60e51b815260206004820152601060248201526f2bb4ba34323930bb902330b4b632b21760811b60448201526064016108bc565b50565b61095d838383604051806020016040528060008152506112ba565b6000610af060085490565b8210610b535760405162461bcd60e51b815260206004820152602c60248201527f455243373231456e756d657261626c653a20676c6f62616c20696e646578206f60448201526b7574206f6620626f756e647360a01b60648201526084016108bc565b60088281548110610b6657610b666127d3565b90600052602060002001549050919050565b610b80611914565b8051610b9390600b906020840190612251565b5050565b610b9f611914565b601380546001600160a01b0319166001600160a01b0392909216919091179055565b6000818152600260205260408120546001600160a01b0316806107895760405162461bcd60e51b8152602060048201526018602482015277115490cdcc8c4e881a5b9d985b1a59081d1bdad95b88125160421b60448201526064016108bc565b6060610c2b61196e565b905090565b60006001600160a01b038216610c9a5760405162461bcd60e51b815260206004820152602960248201527f4552433732313a2061646472657373207a65726f206973206e6f7420612076616044820152683634b21037bbb732b960b91b60648201526084016108bc565b506001600160a01b031660009081526003602052604090205490565b610cbe611914565b6001600160a01b038216610d145760405162461bcd60e51b815260206004820152601b60248201527f496e76616c6964206164647265737320746f20726573657276652e000000000060448201526064016108bc565b601054601154610d24908361197d565b1115610d635760405162461bcd60e51b815260206004820152600e60248201526d125b9d985b1a5908185b5bdd5b9d60921b60448201526064016108bc565b60005b81811015610d9e57600c546008541015610d8c57610d8c83610d8760085490565b611989565b80610d96816127ff565b915050610d66565b50601154610dac908261197d565b6011555050565b610dbb611914565b610dc560006119a3565b565b610dcf611914565b600d55565b60606000610de183610c30565b905080600003610e055760408051600080825260208201909252905b509392505050565b60008167ffffffffffffffff811115610e2057610e2061243e565b604051908082528060200260200182016040528015610e49578160200160208202803683370190505b50905060005b82811015610dfd57610e618582610993565b828281518110610e7357610e736127d3565b602090810291909101015280610e88816127ff565b915050610e4f565b50919050565b600f54421015610ee85760405162461bcd60e51b815260206004820152601960248201527f53616c6520686173206e6f742073746172746564207965742e0000000000000060448201526064016108bc565b600f54610ef89062015180612818565b4210610f3f5760405162461bcd60e51b81526020600482015260166024820152752334b939ba103937bab732103430b99032b73232b21760511b60448201526064016108bc565b610f4981336119f5565b610f885760405162461bcd60e51b815260206004820152601060248201526f2737ba103bb434ba32b634b9ba32b21760811b60448201526064016108bc565b34600d5414610fd95760405162461bcd60e51b815260206004820152601e60248201527f424e422076616c75652073656e74206973206e6f7420636f72726563742e000060448201526064016108bc565b3360009081526014602052604090205460ff161561102b5760405162461bcd60e51b815260206004820152600f60248201526e416c7265616479206d696e7465642160881b60448201526064016108bc565b336000818152601460209081526040808320805460ff191660019081179091556016909252909120819055610ac79190611a5b565b60606001805461079e90612751565b600f5461107f9062015180612818565b4210156110d85760405162461bcd60e51b815260206004820152602160248201527f5365636f6e6420726f756e6420686173206e6f742073746172746564207965746044820152601760f91b60648201526084016108bc565b600f546110e8906202a300612818565b42106111365760405162461bcd60e51b815260206004820152601760248201527f5365636f6e6420726f756e642068617320656e6465642e00000000000000000060448201526064016108bc565b61114081336119f5565b61117f5760405162461bcd60e51b815260206004820152601060248201526f2737ba103bb434ba32b634b9ba32b21760811b60448201526064016108bc565b600d54349061118e9084611aef565b146111db5760405162461bcd60e51b815260206004820152601d60248201527f424e422076616c75652073656e74206973206e6f7420636f727265637400000060448201526064016108bc565b600e54336000908152601560205260409020546111f8908461197d565b11156112525760405162461bcd60e51b8152602060048201526024808201527f43616e206f6e6c79206d696e7420313020696e20746865207365636f6e6420726044820152631bdd5b9960e21b60648201526084016108bc565b3360009081526015602052604090205461126c908361197d565b33600090815260156020908152604080832093909355601690522054611292908361197d565b33600081815260166020526040902091909155610b939083611a5b565b610b93338383611afb565b6112c433836116ee565b6112e05760405162461bcd60e51b81526004016108bc90612785565b6112ec84848484611bc9565b50505050565b60606112fd82611621565b600061130761196e565b905060008151116113275760405180602001604052806000815250611352565b8061133184611bfc565b604051602001611342929190612830565b6040516020818303038152906040525b9392505050565b611361611914565b601255565b600f54611376906202a300612818565b4210156113c55760405162461bcd60e51b815260206004820181905260248201527f5075626c69632053616c6520686173206e6f742073746172746564207965742e60448201526064016108bc565b600f546113d59062069780612818565b42106114135760405162461bcd60e51b815260206004820152600d60248201526c29b0b6329034b99037bb32b91760991b60448201526064016108bc565b600e548111156114655760405162461bcd60e51b815260206004820152601f60248201527f43616e206f6e6c79206d696e74203130204e46547320617420612074696d650060448201526064016108bc565b600f61147a8261147433610c30565b9061197d565b11156114c85760405162461bcd60e51b815260206004820181905260248201527f43616e206f6e6c79206d696e74203135204e465473207065722077616c6c657460448201526064016108bc565b600d5434906114d79083611aef565b146115245760405162461bcd60e51b815260206004820152601d60248201527f424e422076616c75652073656e74206973206e6f7420636f727265637400000060448201526064016108bc565b3360009081526016602052604090205461153e908261197d565b33600081815260166020526040902091909155610ac79082611a5b565b611563611914565b6001600160a01b0381166115c85760405162461bcd60e51b815260206004820152602660248201527f4f776e61626c653a206e6577206f776e657220697320746865207a65726f206160448201526564647265737360d01b60648201526084016108bc565b610ac7816119a3565b60006001600160e01b031982166380ac58cd60e01b148061160257506001600160e01b03198216635b5e139f60e01b145b8061078957506301ffc9a760e01b6001600160e01b0319831614610789565b6000818152600260205260409020546001600160a01b0316610ac75760405162461bcd60e51b8152602060048201526018602482015277115490cdcc8c4e881a5b9d985b1a59081d1bdad95b88125160421b60448201526064016108bc565b600081815260046020526040902080546001600160a01b0319166001600160a01b03841690811790915581906116b582610bc1565b6001600160a01b03167f8c5be1e5ebec7d5bd14f71427d1e84f3dd0314c0f7b2291e5b200ac8c7c3b92560405160405180910390a45050565b6000806116fa83610bc1565b9050806001600160a01b0316846001600160a01b0316148061174157506001600160a01b0380821660009081526005602090815260408083209388168352929052205460ff165b806117655750836001600160a01b031661175a84610821565b6001600160a01b0316145b949350505050565b826001600160a01b031661178082610bc1565b6001600160a01b0316146117e45760405162461bcd60e51b815260206004820152602560248201527f4552433732313a207472616e736665722066726f6d20696e636f72726563742060448201526437bbb732b960d91b60648201526084016108bc565b6001600160a01b0382166118465760405162461bcd60e51b8152602060048201526024808201527f4552433732313a207472616e7366657220746f20746865207a65726f206164646044820152637265737360e01b60648201526084016108bc565b611851838383611cfd565b61185c600082611680565b6001600160a01b038316600090815260036020526040812080546001929061188590849061285f565b90915550506001600160a01b03821660009081526003602052604081208054600192906118b3908490612818565b909155505060008181526002602052604080822080546001600160a01b0319166001600160a01b0386811691821790925591518493918716917fddf252ad1be2c89b69c2b068fc378daa952ba7f163c4a11628f55a4df523b3ef91a4505050565b600a546001600160a01b03163314610dc55760405162461bcd60e51b815260206004820181905260248201527f4f776e61626c653a2063616c6c6572206973206e6f7420746865206f776e657260448201526064016108bc565b6060600b805461079e90612751565b60006113528284612818565b610b93828260405180602001604052806000815250611db5565b600a80546001600160a01b038381166001600160a01b0319831681179093556040519116919082907f8be0079c531659141344cd1fd0a4f28419497f9722a3daafe3b4186f6b6457e090600090a35050565b6040516bffffffffffffffffffffffff19606083901b166020820152600090819060340160408051601f19818403018152828252805160209182012090830152016040516020818303038152906040528051906020012090506117658460125483611de8565b600c54611a6b8261147460085490565b1115611ab95760405162461bcd60e51b815260206004820152601d60248201527f4d696e7420776f756c6420657863656564206d617820737570706c792e00000060448201526064016108bc565b60005b8181101561095d57600c546008541015611add57611add83610d8760085490565b80611ae7816127ff565b915050611abc565b60006113528284612876565b816001600160a01b0316836001600160a01b031603611b5c5760405162461bcd60e51b815260206004820152601960248201527f4552433732313a20617070726f766520746f2063616c6c65720000000000000060448201526064016108bc565b6001600160a01b03838116600081815260056020908152604080832094871680845294825291829020805460ff191686151590811790915591519182527f17307eab39ab6107e8899845ad3d59bd9653f200f220920489ca2b5937696c31910160405180910390a3505050565b611bd484848461176d565b611be084848484611dfe565b6112ec5760405162461bcd60e51b81526004016108bc90612895565b606081600003611c235750506040805180820190915260018152600360fc1b602082015290565b8160005b8115611c4d5780611c37816127ff565b9150611c469050600a836128fd565b9150611c27565b60008167ffffffffffffffff811115611c6857611c6861243e565b6040519080825280601f01601f191660200182016040528015611c92576020820181803683370190505b5090505b841561176557611ca760018361285f565b9150611cb4600a86612911565b611cbf906030612818565b60f81b818381518110611cd457611cd46127d3565b60200101906001600160f81b031916908160001a905350611cf6600a866128fd565b9450611c96565b6001600160a01b038316611d5857611d5381600880546000838152600960205260408120829055600182018355919091527ff3f7a9fe364faab93b216da50a3214154f22a0a2b415b23a84c8169e8b636ee30155565b611d7b565b816001600160a01b0316836001600160a01b031614611d7b57611d7b8382611eff565b6001600160a01b038216611d925761095d81611f9c565b826001600160a01b0316826001600160a01b03161461095d5761095d828261204b565b611dbf838361208f565b611dcc6000848484611dfe565b61095d5760405162461bcd60e51b81526004016108bc90612895565b600082611df585846121dd565b14949350505050565b60006001600160a01b0384163b15611ef457604051630a85bd0160e11b81526001600160a01b0385169063150b7a0290611e42903390899088908890600401612925565b6020604051808303816000875af1925050508015611e7d575060408051601f3d908101601f19168201909252611e7a91810190612962565b60015b611eda573d808015611eab576040519150601f19603f3d011682016040523d82523d6000602084013e611eb0565b606091505b508051600003611ed25760405162461bcd60e51b81526004016108bc90612895565b805181602001fd5b6001600160e01b031916630a85bd0160e11b149050611765565b506001949350505050565b60006001611f0c84610c30565b611f16919061285f565b600083815260076020526040902054909150808214611f69576001600160a01b03841660009081526006602090815260408083208584528252808320548484528184208190558352600790915290208190555b5060009182526007602090815260408084208490556001600160a01b039094168352600681528383209183525290812055565b600854600090611fae9060019061285f565b60008381526009602052604081205460088054939450909284908110611fd657611fd66127d3565b906000526020600020015490508060088381548110611ff757611ff76127d3565b600091825260208083209091019290925582815260099091526040808220849055858252812055600880548061202f5761202f61297f565b6001900381819060005260206000200160009055905550505050565b600061205683610c30565b6001600160a01b039093166000908152600660209081526040808320868452825280832085905593825260079052919091209190915550565b6001600160a01b0382166120e55760405162461bcd60e51b815260206004820181905260248201527f4552433732313a206d696e7420746f20746865207a65726f206164647265737360448201526064016108bc565b6000818152600260205260409020546001600160a01b03161561214a5760405162461bcd60e51b815260206004820152601c60248201527f4552433732313a20746f6b656e20616c7265616479206d696e7465640000000060448201526064016108bc565b61215660008383611cfd565b6001600160a01b038216600090815260036020526040812080546001929061217f908490612818565b909155505060008181526002602052604080822080546001600160a01b0319166001600160a01b03861690811790915590518392907fddf252ad1be2c89b69c2b068fc378daa952ba7f163c4a11628f55a4df523b3ef908290a45050565b600081815b8451811015610dfd5761220e82868381518110612201576122016127d3565b6020026020010151612222565b91508061221a816127ff565b9150506121e2565b600081831061223e576000828152602084905260409020611352565b6000838152602083905260409020611352565b82805461225d90612751565b90600052602060002090601f01602090048101928261227f57600085556122c5565b82601f1061229857805160ff19168380011785556122c5565b828001600101855582156122c5579182015b828111156122c55782518255916020019190600101906122aa565b506122d19291506122d5565b5090565b5b808211156122d157600081556001016122d6565b6001600160e01b031981168114610ac757600080fd5b60006020828403121561231257600080fd5b8135611352816122ea565b80356001600160a01b038116811461233457600080fd5b919050565b60006020828403121561234b57600080fd5b6113528261231d565b60005b8381101561236f578181015183820152602001612357565b838111156112ec5750506000910152565b60008151808452612398816020860160208601612354565b601f01601f19169290920160200192915050565b6020815260006113526020830184612380565b6000602082840312156123d157600080fd5b5035919050565b600080604083850312156123eb57600080fd5b6123f48361231d565b946020939093013593505050565b60008060006060848603121561241757600080fd5b6124208461231d565b925061242e6020850161231d565b9150604084013590509250925092565b634e487b7160e01b600052604160045260246000fd5b604051601f8201601f1916810167ffffffffffffffff8111828210171561247d5761247d61243e565b604052919050565b600067ffffffffffffffff83111561249f5761249f61243e565b6124b2601f8401601f1916602001612454565b90508281528383830111156124c657600080fd5b828260208301376000602084830101529392505050565b6000602082840312156124ef57600080fd5b813567ffffffffffffffff81111561250657600080fd5b8201601f8101841361251757600080fd5b61176584823560208401612485565b6020808252825182820181905260009190848201906040850190845b8181101561255e57835183529284019291840191600101612542565b50909695505050505050565b600082601f83011261257b57600080fd5b8135602067ffffffffffffffff8211156125975761259761243e565b8160051b6125a6828201612454565b92835284810182019282810190878511156125c057600080fd5b83870192505b848310156125df578235825291830191908301906125c6565b979650505050505050565b6000602082840312156125fc57600080fd5b813567ffffffffffffffff81111561261357600080fd5b6117658482850161256a565b6000806040838503121561263257600080fd5b82359150602083013567ffffffffffffffff81111561265057600080fd5b61265c8582860161256a565b9150509250929050565b6000806040838503121561267957600080fd5b6126828361231d565b91506020830135801515811461269757600080fd5b809150509250929050565b600080600080608085870312156126b857600080fd5b6126c18561231d565b93506126cf6020860161231d565b925060408501359150606085013567ffffffffffffffff8111156126f257600080fd5b8501601f8101871361270357600080fd5b61271287823560208401612485565b91505092959194509250565b6000806040838503121561273157600080fd5b61273a8361231d565b91506127486020840161231d565b90509250929050565b600181811c9082168061276557607f821691505b602082108103610e9057634e487b7160e01b600052602260045260246000fd5b6020808252602e908201527f4552433732313a2063616c6c6572206973206e6f7420746f6b656e206f776e6560408201526d1c881b9bdc88185c1c1c9bdd995960921b606082015260800190565b634e487b7160e01b600052603260045260246000fd5b634e487b7160e01b600052601160045260246000fd5b600060018201612811576128116127e9565b5060010190565b6000821982111561282b5761282b6127e9565b500190565b60008351612842818460208801612354565b835190830190612856818360208801612354565b01949350505050565b600082821015612871576128716127e9565b500390565b6000816000190483118215151615612890576128906127e9565b500290565b60208082526032908201527f4552433732313a207472616e7366657220746f206e6f6e20455243373231526560408201527131b2b4bb32b91034b6b83632b6b2b73a32b960711b606082015260800190565b634e487b7160e01b600052601260045260246000fd5b60008261290c5761290c6128e7565b500490565b600082612920576129206128e7565b500690565b6001600160a01b038581168252841660208201526040810183905260806060820181905260009061295890830184612380565b9695505050505050565b60006020828403121561297457600080fd5b8151611352816122ea565b634e487b7160e01b600052603160045260246000fdfea26469706673582212208e902bc3e0f0d76689274a4c96be7957d1bd6d6e983f5067002d1c870c50661364736f6c634300080d0033",
  "linkReferences": {},
  "deployedLinkReferences": {}
}