{
  "_format": "hh-sol-artifact-1",
  "contractName": "Thenian",
  "sourceName": "contracts/Thenian.sol",
  "abi": [
    {
      "inputs": [
        {
          "internalType": "uint256",
          "name": "_maxSupply",
          "type": "uint256"
        },
        {
          "internalType": "uint256",
          "name": "_nftPrice",
          "type": "uint256"
        },
        {
          "internalType": "uint256",
          "name": "_startTimestamp",
          "type": "uint256"
        }
      ],
      "stateMutability": "nonpayable",
      "type": "constructor"
    },
    {
      "anonymous": false,
      "inputs": [
        {
          "indexed": true,
          "internalType": "address",
          "name": "owner",
          "type": "address"
        },
        {
          "indexed": true,
          "internalType": "address",
          "name": "approved",
          "type": "address"
        },
        {
          "indexed": true,
          "internalType": "uint256",
          "name": "tokenId",
          "type": "uint256"
        }
      ],
      "name": "Approval",
      "type": "event"
    },
    {
      "anonymous": false,
      "inputs": [
        {
          "indexed": true,
          "internalType": "address",
          "name": "owner",
          "type": "address"
        },
        {
          "indexed": true,
          "internalType": "address",
          "name": "operator",
          "type": "address"
        },
        {
          "indexed": false,
          "internalType": "bool",
          "name": "approved",
          "type": "bool"
        }
      ],
      "name": "ApprovalForAll",
      "type": "event"
    },
    {
      "anonymous": false,
      "inputs": [
        {
          "indexed": true,
          "internalType": "address",
          "name": "previousOwner",
          "type": "address"
        },
        {
          "indexed": true,
          "internalType": "address",
          "name": "newOwner",
          "type": "address"
        }
      ],
      "name": "OwnershipTransferred",
      "type": "event"
    },
    {
      "anonymous": false,
      "inputs": [
        {
          "indexed": true,
          "internalType": "address",
          "name": "from",
          "type": "address"
        },
        {
          "indexed": true,
          "internalType": "address",
          "name": "to",
          "type": "address"
        },
        {
          "indexed": true,
          "internalType": "uint256",
          "name": "tokenId",
          "type": "uint256"
        }
      ],
      "name": "Transfer",
      "type": "event"
    },
    {
      "inputs": [],
      "name": "MAX_PER_MINT",
      "outputs": [
        {
          "internalType": "uint256",
          "name": "",
          "type": "uint256"
        }
      ],
      "stateMutability": "view",
      "type": "function"
    },
    {
      "inputs": [],
      "name": "MAX_RESERVE",
      "outputs": [
        {
          "internalType": "uint256",
          "name": "",
          "type": "uint256"
        }
      ],
      "stateMutability": "view",
      "type": "function"
    },
    {
      "inputs": [],
      "name": "MAX_SUPPLY",
      "outputs": [
        {
          "internalType": "uint256",
          "name": "",
          "type": "uint256"
        }
      ],
      "stateMutability": "view",
      "type": "function"
    },
    {
      "inputs": [],
      "name": "NFT_PRICE",
      "outputs": [
        {
          "internalType": "uint256",
          "name": "",
          "type": "uint256"
        }
      ],
      "stateMutability": "view",
      "type": "function"
    },
    {
      "inputs": [],
      "name": "SALE_START_TIMESTAMP",
      "outputs": [
        {
          "internalType": "uint256",
          "name": "",
          "type": "uint256"
        }
      ],
      "stateMutability": "view",
      "type": "function"
    },
    {
      "inputs": [
        {
          "internalType": "address",
          "name": "to",
          "type": "address"
        },
        {
          "internalType": "uint256",
          "name": "tokenId",
          "type": "uint256"
        }
      ],
      "name": "approve",
      "outputs": [],
      "stateMutability": "nonpayable",
      "type": "function"
    },
    {
      "inputs": [
        {
          "internalType": "address",
          "name": "owner",
          "type": "address"
        }
      ],
      "name": "balanceOf",
      "outputs": [
        {
          "internalType": "uint256",
          "name": "",
          "type": "uint256"
        }
      ],
      "stateMutability": "view",
      "type": "function"
    },
    {
      "inputs": [],
      "name": "baseURI",
      "outputs": [
        {
          "internalType": "string",
          "name": "",
          "type": "string"
        }
      ],
      "stateMutability": "view",
      "type": "function"
    },
    {
      "inputs": [
        {
          "internalType": "address",
          "name": "",
          "type": "address"
        }
      ],
      "name": "firstMint",
      "outputs": [
        {
          "internalType": "bool",
          "name": "",
          "type": "bool"
        }
      ],
      "stateMutability": "view",
      "type": "function"
    },
    {
      "inputs": [
        {
          "internalType": "uint256",
          "name": "tokenId",
          "type": "uint256"
        }
      ],
      "name": "getApproved",
      "outputs": [
        {
          "internalType": "address",
          "name": "",
          "type": "address"
        }
      ],
      "stateMutability": "view",
      "type": "function"
    },
    {
      "inputs": [
        {
          "internalType": "address",
          "name": "owner",
          "type": "address"
        },
        {
          "internalType": "address",
          "name": "operator",
          "type": "address"
        }
      ],
      "name": "isApprovedForAll",
      "outputs": [
        {
          "internalType": "bool",
          "name": "",
          "type": "bool"
        }
      ],
      "stateMutability": "view",
      "type": "function"
    },
    {
      "inputs": [
        {
          "internalType": "bytes32[]",
          "name": "proof",
          "type": "bytes32[]"
        }
      ],
      "name": "mintFirst",
      "outputs": [],
      "stateMutability": "payable",
      "type": "function"
    },
    {
      "inputs": [
        {
          "internalType": "uint256",
          "name": "amount",
          "type": "uint256"
        }
      ],
      "name": "mintPublic",
      "outputs": [],
      "stateMutability": "payable",
      "type": "function"
    },
    {
      "inputs": [
        {
          "internalType": "uint256",
          "name": "amount",
          "type": "uint256"
        },
        {
          "internalType": "bytes32[]",
          "name": "proof",
          "type": "bytes32[]"
        }
      ],
      "name": "mintSecond",
      "outputs": [],
      "stateMutability": "payable",
      "type": "function"
    },
    {
      "inputs": [],
      "name": "multiSig",
      "outputs": [
        {
          "internalType": "address",
          "name": "",
          "type": "address"
        }
      ],
      "stateMutability": "view",
      "type": "function"
    },
    {
      "inputs": [],
      "name": "name",
      "outputs": [
        {
          "internalType": "string",
          "name": "",
          "type": "string"
        }
      ],
      "stateMutability": "view",
      "type": "function"
    },
    {
      "inputs": [
        {
          "internalType": "address",
          "name": "",
          "type": "address"
        }
      ],
      "name": "originalMinters",
      "outputs": [
        {
          "internalType": "uint256",
          "name": "",
          "type": "uint256"
        }
      ],
      "stateMutability": "view",
      "type": "function"
    },
    {
      "inputs": [],
      "name": "owner",
      "outputs": [
        {
          "internalType": "address",
          "name": "",
          "type": "address"
        }
      ],
      "stateMutability": "view",
      "type": "function"
    },
    {
      "inputs": [
        {
          "internalType": "uint256",
          "name": "tokenId",
          "type": "uint256"
        }
      ],
      "name": "ownerOf",
      "outputs": [
        {
          "internalType": "address",
          "name": "",
          "type": "address"
        }
      ],
      "stateMutability": "view",
      "type": "function"
    },
    {
      "inputs": [],
      "name": "renounceOwnership",
      "outputs": [],
      "stateMutability": "nonpayable",
      "type": "function"
    },
    {
      "inputs": [
        {
          "internalType": "address",
          "name": "_to",
          "type": "address"
        },
        {
          "internalType": "uint256",
          "name": "_amount",
          "type": "uint256"
        }
      ],
      "name": "reserveNFTs",
      "outputs": [],
      "stateMutability": "nonpayable",
      "type": "function"
    },
    {
      "inputs": [],
      "name": "reservedAmount",
      "outputs": [
        {
          "internalType": "uint256",
          "name": "",
          "type": "uint256"
        }
      ],
      "stateMutability": "view",
      "type": "function"
    },
    {
      "inputs": [],
      "name": "root",
      "outputs": [
        {
          "internalType": "bytes32",
          "name": "",
          "type": "bytes32"
        }
      ],
      "stateMutability": "view",
      "type": "function"
    },
    {
      "inputs": [
        {
          "internalType": "address",
          "name": "from",
          "type": "address"
        },
        {
          "internalType": "address",
          "name": "to",
          "type": "address"
        },
        {
          "internalType": "uint256",
          "name": "tokenId",
          "type": "uint256"
        }
      ],
      "name": "safeTransferFrom",
      "outputs": [],
      "stateMutability": "nonpayable",
      "type": "function"
    },
    {
      "inputs": [
        {
          "internalType": "address",
          "name": "from",
          "type": "address"
        },
        {
          "internalType": "address",
          "name": "to",
          "type": "address"
        },
        {
          "internalType": "uint256",
          "name": "tokenId",
          "type": "uint256"
        },
        {
          "internalType": "bytes",
          "name": "data",
          "type": "bytes"
        }
      ],
      "name": "safeTransferFrom",
      "outputs": [],
      "stateMutability": "nonpayable",
      "type": "function"
    },
    {
      "inputs": [
        {
          "internalType": "address",
          "name": "",
          "type": "address"
        }
      ],
      "name": "secondMint",
      "outputs": [
        {
          "internalType": "uint256",
          "name": "",
          "type": "uint256"
        }
      ],
      "stateMutability": "view",
      "type": "function"
    },
    {
      "inputs": [
        {
          "internalType": "address",
          "name": "operator",
          "type": "address"
        },
        {
          "internalType": "bool",
          "name": "approved",
          "type": "bool"
        }
      ],
      "name": "setApprovalForAll",
      "outputs": [],
      "stateMutability": "nonpayable",
      "type": "function"
    },
    {
      "inputs": [
        {
          "internalType": "string",
          "name": "baseURI_",
          "type": "string"
        }
      ],
      "name": "setBaseURI",
      "outputs": [],
      "stateMutability": "nonpayable",
      "type": "function"
    },
    {
      "inputs": [
        {
          "internalType": "uint256",
          "name": "_nftPrice",
          "type": "uint256"
        }
      ],
      "name": "setNftPrice",
      "outputs": [],
      "stateMutability": "nonpayable",
      "type": "function"
    },
    {
      "inputs": [
        {
          "internalType": "bytes32",
          "name": "_root",
          "type": "bytes32"
        }
      ],
      "name": "setRoot",
      "outputs": [],
      "stateMutability": "nonpayable",
      "type": "function"
    },
    {
      "inputs": [
        {
          "internalType": "bytes4",
          "name": "interfaceId",
          "type": "bytes4"
        }
      ],
      "name": "supportsInterface",
      "outputs": [
        {
          "internalType": "bool",
          "name": "",
          "type": "bool"
        }
      ],
      "stateMutability": "view",
      "type": "function"
    },
    {
      "inputs": [],
      "name": "symbol",
      "outputs": [
        {
          "internalType": "string",
          "name": "",
          "type": "string"
        }
      ],
      "stateMutability": "view",
      "type": "function"
    },
    {
      "inputs": [
        {
          "internalType": "uint256",
          "name": "index",
          "type": "uint256"
        }
      ],
      "name": "tokenByIndex",
      "outputs": [
        {
          "internalType": "uint256",
          "name": "",
          "type": "uint256"
        }
      ],
      "stateMutability": "view",
      "type": "function"
    },
    {
      "inputs": [
        {
          "internalType": "address",
          "name": "owner",
          "type": "address"
        },
        {
          "internalType": "uint256",
          "name": "index",
          "type": "uint256"
        }
      ],
      "name": "tokenOfOwnerByIndex",
      "outputs": [
        {
          "internalType": "uint256",
          "name": "",
          "type": "uint256"
        }
      ],
      "stateMutability": "view",
      "type": "function"
    },
    {
      "inputs": [
        {
          "internalType": "uint256",
          "name": "tokenId",
          "type": "uint256"
        }
      ],
      "name": "tokenURI",
      "outputs": [
        {
          "internalType": "string",
          "name": "",
          "type": "string"
        }
      ],
      "stateMutability": "view",
      "type": "function"
    },
    {
      "inputs": [
        {
          "internalType": "address",
          "name": "_owner",
          "type": "address"
        }
      ],
      "name": "tokensOfOwner",
      "outputs": [
        {
          "internalType": "uint256[]",
          "name": "",
          "type": "uint256[]"
        }
      ],
      "stateMutability": "view",
      "type": "function"
    },
    {
      "inputs": [],
      "name": "totalSupply",
      "outputs": [
        {
          "internalType": "uint256",
          "name": "",
          "type": "uint256"
        }
      ],
      "stateMutability": "view",
      "type": "function"
    },
    {
      "inputs": [
        {
          "internalType": "address",
          "name": "from",
          "type": "address"
        },
        {
          "internalType": "address",
          "name": "to",
          "type": "address"
        },
        {
          "internalType": "uint256",
          "name": "tokenId",
          "type": "uint256"
        }
      ],
      "name": "transferFrom",
      "outputs": [],
      "stateMutability": "nonpayable",
      "type": "function"
    },
    {
      "inputs": [
        {
          "internalType": "address",
          "name": "newOwner",
          "type": "address"
        }
      ],
      "name": "transferOwnership",
      "outputs": [],
      "stateMutability": "nonpayable",
      "type": "function"
    },
    {
      "inputs": [],
      "name": "withdraw",
      "outputs": [],
      "stateMutability": "nonpayable",
      "type": "function"
    }
  ],
  "bytecode": "0x6080604052600a600e556096601055601380546001600160a01b031916737d70ee3774325c51e021af1f7987c214d2caa1841790553480156200004157600080fd5b5060405162002be338038062002be38339810160408190526200006491620001f2565b60408051808201825260078152662a3432b734b0b760c91b6020808301918252835180850190945260068452651d1a1953919560d21b908401528151919291620000b1916000916200014c565b508051620000c79060019060208401906200014c565b505050620000e4620000de620000f660201b60201c565b620000fa565b600c92909255600d55600f556200025d565b3390565b600a80546001600160a01b038381166001600160a01b0319831681179093556040519116919082907f8be0079c531659141344cd1fd0a4f28419497f9722a3daafe3b4186f6b6457e090600090a35050565b8280546200015a9062000221565b90600052602060002090601f0160209004810192826200017e5760008555620001c9565b82601f106200019957805160ff1916838001178555620001c9565b82800160010185558215620001c9579182015b82811115620001c9578251825591602001919060010190620001ac565b50620001d7929150620001db565b5090565b5b80821115620001d75760008155600101620001dc565b6000806000606084860312156200020857600080fd5b8351925060208401519150604084015190509250925092565b600181811c908216806200023657607f821691505b6020821081036200025757634e487b7160e01b600052602260045260246000fd5b50919050565b612976806200026d6000396000f3fe60806040526004361061023b5760003560e01c8063715018a61161012e578063b88d4fde116100ab578063ebf0c7171161006f578063ebf0c717146106c4578063efd0cbf9146106da578063eff31e9e146106ed578063f2fde38b14610703578063f92c45b71461072357600080fd5b8063b88d4fde146105ee578063c87b56dd1461060e578063d113d59d1461062e578063dab5f3401461065b578063e985e9c51461067b57600080fd5b80638da5cb5b116100f25780638da5cb5b14610572578063946807fd1461059057806395d89b41146105a6578063a16c31fc146105bb578063a22cb465146105ce57600080fd5b8063715018a6146104d05780637d9a7a4c146104e557806383ea85d7146105055780638462151c146105325780638afbc96b1461055f57600080fd5b806336e0004a116101bc5780636352211e116101805780636352211e14610445578063676dd563146104655780636c0360eb1461047b57806370a082311461049057806370a8de86146104b057600080fd5b806336e0004a146103b05780633ccfd60b146103d057806342842e0e146103e55780634f6ccce71461040557806355f804b31461042557600080fd5b806309d42b301161020357806309d42b301461032157806318160ddd1461034557806323b872dd1461035a5780632f745c591461037a57806332cb6b0c1461039a57600080fd5b806301ffc9a71461024057806305afb3a41461027557806306fdde03146102a5578063081812fc146102c7578063095ea7b3146102ff575b600080fd5b34801561024c57600080fd5b5061026061025b3660046122ab565b610739565b60405190151581526020015b60405180910390f35b34801561028157600080fd5b506102606102903660046122e4565b60146020526000908152604090205460ff1681565b3480156102b157600080fd5b506102ba610764565b60405161026c9190612357565b3480156102d357600080fd5b506102e76102e236600461236a565b6107f6565b6040516001600160a01b03909116815260200161026c565b34801561030b57600080fd5b5061031f61031a366004612383565b61081d565b005b34801561032d57600080fd5b50610337600e5481565b60405190815260200161026c565b34801561035157600080fd5b50600854610337565b34801561036657600080fd5b5061031f6103753660046123ad565b610937565b34801561038657600080fd5b50610337610395366004612383565b610968565b3480156103a657600080fd5b50610337600c5481565b3480156103bc57600080fd5b506013546102e7906001600160a01b031681565b3480156103dc57600080fd5b5061031f6109fe565b3480156103f157600080fd5b5061031f6104003660046123ad565b610a9f565b34801561041157600080fd5b5061033761042036600461236a565b610aba565b34801561043157600080fd5b5061031f610440366004612488565b610b4d565b34801561045157600080fd5b506102e761046036600461236a565b610b6c565b34801561047157600080fd5b50610337600d5481565b34801561048757600080fd5b506102ba610bcc565b34801561049c57600080fd5b506103376104ab3660046122e4565b610bdb565b3480156104bc57600080fd5b5061031f6104cb366004612383565b610c61565b3480156104dc57600080fd5b5061031f610d5e565b3480156104f157600080fd5b5061031f61050036600461236a565b610d72565b34801561051157600080fd5b506103376105203660046122e4565b60156020526000908152604090205481565b34801561053e57600080fd5b5061055261054d3660046122e4565b610d7f565b60405161026c91906124d1565b61031f61056d366004612595565b610e41565b34801561057e57600080fd5b50600a546001600160a01b03166102e7565b34801561059c57600080fd5b50610337600f5481565b3480156105b257600080fd5b506102ba61100b565b61031f6105c93660046125ca565b61101a565b3480156105da57600080fd5b5061031f6105e9366004612611565b61125a565b3480156105fa57600080fd5b5061031f61060936600461264d565b611265565b34801561061a57600080fd5b506102ba61062936600461236a565b61129d565b34801561063a57600080fd5b506103376106493660046122e4565b60166020526000908152604090205481565b34801561066757600080fd5b5061031f61067636600461236a565b611304565b34801561068757600080fd5b506102606106963660046126c9565b6001600160a01b03918216600090815260056020908152604080832093909416825291909152205460ff1690565b3480156106d057600080fd5b5061033760125481565b61031f6106e836600461236a565b611311565b3480156106f957600080fd5b5061033760105481565b34801561070f57600080fd5b5061031f61071e3660046122e4565b611506565b34801561072f57600080fd5b5061033760115481565b60006001600160e01b0319821663780e9d6360e01b148061075e575061075e8261157c565b92915050565b606060008054610773906126fc565b80601f016020809104026020016040519081016040528092919081815260200182805461079f906126fc565b80156107ec5780601f106107c1576101008083540402835291602001916107ec565b820191906000526020600020905b8154815290600101906020018083116107cf57829003601f168201915b5050505050905090565b6000610801826115cc565b506000908152600460205260409020546001600160a01b031690565b600061082882610b6c565b9050806001600160a01b0316836001600160a01b03160361089a5760405162461bcd60e51b815260206004820152602160248201527f4552433732313a20617070726f76616c20746f2063757272656e74206f776e656044820152603960f91b60648201526084015b60405180910390fd5b336001600160a01b03821614806108b657506108b68133610696565b6109285760405162461bcd60e51b815260206004820152603e60248201527f4552433732313a20617070726f76652063616c6c6572206973206e6f7420746f60448201527f6b656e206f776e6572206e6f7220617070726f76656420666f7220616c6c00006064820152608401610891565b610932838361162b565b505050565b6109413382611699565b61095d5760405162461bcd60e51b815260040161089190612730565b610932838383611718565b600061097383610bdb565b82106109d55760405162461bcd60e51b815260206004820152602b60248201527f455243373231456e756d657261626c653a206f776e657220696e646578206f7560448201526a74206f6620626f756e647360a81b6064820152608401610891565b506001600160a01b03919091166000908152600660209081526040808320938352929052205490565b610a066118bf565b6013546040516000916001600160a01b03169047908381818185875af1925050503d8060008114610a53576040519150601f19603f3d011682016040523d82523d6000602084013e610a58565b606091505b5050905080610a9c5760405162461bcd60e51b815260206004820152601060248201526f2bb4ba34323930bb902330b4b632b21760811b6044820152606401610891565b50565b61093283838360405180602001604052806000815250611265565b6000610ac560085490565b8210610b285760405162461bcd60e51b815260206004820152602c60248201527f455243373231456e756d657261626c653a20676c6f62616c20696e646578206f60448201526b7574206f6620626f756e647360a01b6064820152608401610891565b60088281548110610b3b57610b3b61277e565b90600052602060002001549050919050565b610b556118bf565b8051610b6890600b9060208401906121fc565b5050565b6000818152600260205260408120546001600160a01b03168061075e5760405162461bcd60e51b8152602060048201526018602482015277115490cdcc8c4e881a5b9d985b1a59081d1bdad95b88125160421b6044820152606401610891565b6060610bd6611919565b905090565b60006001600160a01b038216610c455760405162461bcd60e51b815260206004820152602960248201527f4552433732313a2061646472657373207a65726f206973206e6f7420612076616044820152683634b21037bbb732b960b91b6064820152608401610891565b506001600160a01b031660009081526003602052604090205490565b610c696118bf565b6001600160a01b038216610cbf5760405162461bcd60e51b815260206004820152601b60248201527f496e76616c6964206164647265737320746f20726573657276652e00000000006044820152606401610891565b601054601154610ccf9083611928565b1115610d0e5760405162461bcd60e51b815260206004820152600e60248201526d125b9d985b1a5908185b5bdd5b9d60921b6044820152606401610891565b60005b81811015610d4957600c546008541015610d3757610d3783610d3260085490565b611934565b80610d41816127aa565b915050610d11565b50601154610d579082611928565b6011555050565b610d666118bf565b610d70600061194e565b565b610d7a6118bf565b600d55565b60606000610d8c83610bdb565b905080600003610db05760408051600080825260208201909252905b509392505050565b60008167ffffffffffffffff811115610dcb57610dcb6123e9565b604051908082528060200260200182016040528015610df4578160200160208202803683370190505b50905060005b82811015610da857610e0c8582610968565b828281518110610e1e57610e1e61277e565b602090810291909101015280610e33816127aa565b915050610dfa565b50919050565b600f54421015610e935760405162461bcd60e51b815260206004820152601960248201527f53616c6520686173206e6f742073746172746564207965742e000000000000006044820152606401610891565b600f54610ea390620151806127c3565b4210610eea5760405162461bcd60e51b81526020600482015260166024820152752334b939ba103937bab732103430b99032b73232b21760511b6044820152606401610891565b610ef481336119a0565b610f335760405162461bcd60e51b815260206004820152601060248201526f2737ba103bb434ba32b634b9ba32b21760811b6044820152606401610891565b34600d5414610f845760405162461bcd60e51b815260206004820152601e60248201527f424e422076616c75652073656e74206973206e6f7420636f72726563742e00006044820152606401610891565b3360009081526014602052604090205460ff1615610fd65760405162461bcd60e51b815260206004820152600f60248201526e416c7265616479206d696e7465642160881b6044820152606401610891565b336000818152601460209081526040808320805460ff191660019081179091556016909252909120819055610a9c9190611a06565b606060018054610773906126fc565b600f5461102a90620151806127c3565b4210156110835760405162461bcd60e51b815260206004820152602160248201527f5365636f6e6420726f756e6420686173206e6f742073746172746564207965746044820152601760f91b6064820152608401610891565b600f54611093906202a3006127c3565b42106110e15760405162461bcd60e51b815260206004820152601760248201527f5365636f6e6420726f756e642068617320656e6465642e0000000000000000006044820152606401610891565b6110eb81336119a0565b61112a5760405162461bcd60e51b815260206004820152601060248201526f2737ba103bb434ba32b634b9ba32b21760811b6044820152606401610891565b600d5434906111399084611a9a565b146111865760405162461bcd60e51b815260206004820152601d60248201527f424e422076616c75652073656e74206973206e6f7420636f72726563740000006044820152606401610891565b600e54336000908152601560205260409020546111a39084611928565b11156111fd5760405162461bcd60e51b8152602060048201526024808201527f43616e206f6e6c79206d696e7420313020696e20746865207365636f6e6420726044820152631bdd5b9960e21b6064820152608401610891565b336000908152601560205260409020546112179083611928565b3360009081526015602090815260408083209390935560169052205461123d9083611928565b33600081815260166020526040902091909155610b689083611a06565b610b68338383611aa6565b61126f3383611699565b61128b5760405162461bcd60e51b815260040161089190612730565b61129784848484611b74565b50505050565b60606112a8826115cc565b60006112b2611919565b905060008151116112d257604051806020016040528060008152506112fd565b806112dc84611ba7565b6040516020016112ed9291906127db565b6040516020818303038152906040525b9392505050565b61130c6118bf565b601255565b600f54611321906202a3006127c3565b4210156113705760405162461bcd60e51b815260206004820181905260248201527f5075626c69632053616c6520686173206e6f742073746172746564207965742e6044820152606401610891565b600f5461138090620697806127c3565b42106113be5760405162461bcd60e51b815260206004820152600d60248201526c29b0b6329034b99037bb32b91760991b6044820152606401610891565b600e548111156114105760405162461bcd60e51b815260206004820152601f60248201527f43616e206f6e6c79206d696e74203130204e46547320617420612074696d65006044820152606401610891565b600f6114258261141f33610bdb565b90611928565b11156114735760405162461bcd60e51b815260206004820181905260248201527f43616e206f6e6c79206d696e74203135204e465473207065722077616c6c65746044820152606401610891565b600d5434906114829083611a9a565b146114cf5760405162461bcd60e51b815260206004820152601d60248201527f424e422076616c75652073656e74206973206e6f7420636f72726563740000006044820152606401610891565b336000908152601660205260409020546114e99082611928565b33600081815260166020526040902091909155610a9c9082611a06565b61150e6118bf565b6001600160a01b0381166115735760405162461bcd60e51b815260206004820152602660248201527f4f776e61626c653a206e6577206f776e657220697320746865207a65726f206160448201526564647265737360d01b6064820152608401610891565b610a9c8161194e565b60006001600160e01b031982166380ac58cd60e01b14806115ad57506001600160e01b03198216635b5e139f60e01b145b8061075e57506301ffc9a760e01b6001600160e01b031983161461075e565b6000818152600260205260409020546001600160a01b0316610a9c5760405162461bcd60e51b8152602060048201526018602482015277115490cdcc8c4e881a5b9d985b1a59081d1bdad95b88125160421b6044820152606401610891565b600081815260046020526040902080546001600160a01b0319166001600160a01b038416908117909155819061166082610b6c565b6001600160a01b03167f8c5be1e5ebec7d5bd14f71427d1e84f3dd0314c0f7b2291e5b200ac8c7c3b92560405160405180910390a45050565b6000806116a583610b6c565b9050806001600160a01b0316846001600160a01b031614806116ec57506001600160a01b0380821660009081526005602090815260408083209388168352929052205460ff165b806117105750836001600160a01b0316611705846107f6565b6001600160a01b0316145b949350505050565b826001600160a01b031661172b82610b6c565b6001600160a01b03161461178f5760405162461bcd60e51b815260206004820152602560248201527f4552433732313a207472616e736665722066726f6d20696e636f72726563742060448201526437bbb732b960d91b6064820152608401610891565b6001600160a01b0382166117f15760405162461bcd60e51b8152602060048201526024808201527f4552433732313a207472616e7366657220746f20746865207a65726f206164646044820152637265737360e01b6064820152608401610891565b6117fc838383611ca8565b61180760008261162b565b6001600160a01b038316600090815260036020526040812080546001929061183090849061280a565b90915550506001600160a01b038216600090815260036020526040812080546001929061185e9084906127c3565b909155505060008181526002602052604080822080546001600160a01b0319166001600160a01b0386811691821790925591518493918716917fddf252ad1be2c89b69c2b068fc378daa952ba7f163c4a11628f55a4df523b3ef91a4505050565b600a546001600160a01b03163314610d705760405162461bcd60e51b815260206004820181905260248201527f4f776e61626c653a2063616c6c6572206973206e6f7420746865206f776e65726044820152606401610891565b6060600b8054610773906126fc565b60006112fd82846127c3565b610b68828260405180602001604052806000815250611d60565b600a80546001600160a01b038381166001600160a01b0319831681179093556040519116919082907f8be0079c531659141344cd1fd0a4f28419497f9722a3daafe3b4186f6b6457e090600090a35050565b6040516bffffffffffffffffffffffff19606083901b166020820152600090819060340160408051601f19818403018152828252805160209182012090830152016040516020818303038152906040528051906020012090506117108460125483611d93565b600c54611a168261141f60085490565b1115611a645760405162461bcd60e51b815260206004820152601d60248201527f4d696e7420776f756c6420657863656564206d617820737570706c792e0000006044820152606401610891565b60005b8181101561093257600c546008541015611a8857611a8883610d3260085490565b80611a92816127aa565b915050611a67565b60006112fd8284612821565b816001600160a01b0316836001600160a01b031603611b075760405162461bcd60e51b815260206004820152601960248201527f4552433732313a20617070726f766520746f2063616c6c6572000000000000006044820152606401610891565b6001600160a01b03838116600081815260056020908152604080832094871680845294825291829020805460ff191686151590811790915591519182527f17307eab39ab6107e8899845ad3d59bd9653f200f220920489ca2b5937696c31910160405180910390a3505050565b611b7f848484611718565b611b8b84848484611da9565b6112975760405162461bcd60e51b815260040161089190612840565b606081600003611bce5750506040805180820190915260018152600360fc1b602082015290565b8160005b8115611bf85780611be2816127aa565b9150611bf19050600a836128a8565b9150611bd2565b60008167ffffffffffffffff811115611c1357611c136123e9565b6040519080825280601f01601f191660200182016040528015611c3d576020820181803683370190505b5090505b841561171057611c5260018361280a565b9150611c5f600a866128bc565b611c6a9060306127c3565b60f81b818381518110611c7f57611c7f61277e565b60200101906001600160f81b031916908160001a905350611ca1600a866128a8565b9450611c41565b6001600160a01b038316611d0357611cfe81600880546000838152600960205260408120829055600182018355919091527ff3f7a9fe364faab93b216da50a3214154f22a0a2b415b23a84c8169e8b636ee30155565b611d26565b816001600160a01b0316836001600160a01b031614611d2657611d268382611eaa565b6001600160a01b038216611d3d5761093281611f47565b826001600160a01b0316826001600160a01b031614610932576109328282611ff6565b611d6a838361203a565b611d776000848484611da9565b6109325760405162461bcd60e51b815260040161089190612840565b600082611da08584612188565b14949350505050565b60006001600160a01b0384163b15611e9f57604051630a85bd0160e11b81526001600160a01b0385169063150b7a0290611ded9033908990889088906004016128d0565b6020604051808303816000875af1925050508015611e28575060408051601f3d908101601f19168201909252611e259181019061290d565b60015b611e85573d808015611e56576040519150601f19603f3d011682016040523d82523d6000602084013e611e5b565b606091505b508051600003611e7d5760405162461bcd60e51b815260040161089190612840565b805181602001fd5b6001600160e01b031916630a85bd0160e11b149050611710565b506001949350505050565b60006001611eb784610bdb565b611ec1919061280a565b600083815260076020526040902054909150808214611f14576001600160a01b03841660009081526006602090815260408083208584528252808320548484528184208190558352600790915290208190555b5060009182526007602090815260408084208490556001600160a01b039094168352600681528383209183525290812055565b600854600090611f599060019061280a565b60008381526009602052604081205460088054939450909284908110611f8157611f8161277e565b906000526020600020015490508060088381548110611fa257611fa261277e565b6000918252602080832090910192909255828152600990915260408082208490558582528120556008805480611fda57611fda61292a565b6001900381819060005260206000200160009055905550505050565b600061200183610bdb565b6001600160a01b039093166000908152600660209081526040808320868452825280832085905593825260079052919091209190915550565b6001600160a01b0382166120905760405162461bcd60e51b815260206004820181905260248201527f4552433732313a206d696e7420746f20746865207a65726f20616464726573736044820152606401610891565b6000818152600260205260409020546001600160a01b0316156120f55760405162461bcd60e51b815260206004820152601c60248201527f4552433732313a20746f6b656e20616c7265616479206d696e746564000000006044820152606401610891565b61210160008383611ca8565b6001600160a01b038216600090815260036020526040812080546001929061212a9084906127c3565b909155505060008181526002602052604080822080546001600160a01b0319166001600160a01b03861690811790915590518392907fddf252ad1be2c89b69c2b068fc378daa952ba7f163c4a11628f55a4df523b3ef908290a45050565b600081815b8451811015610da8576121b9828683815181106121ac576121ac61277e565b60200260200101516121cd565b9150806121c5816127aa565b91505061218d565b60008183106121e95760008281526020849052604090206112fd565b60008381526020839052604090206112fd565b828054612208906126fc565b90600052602060002090601f01602090048101928261222a5760008555612270565b82601f1061224357805160ff1916838001178555612270565b82800160010185558215612270579182015b82811115612270578251825591602001919060010190612255565b5061227c929150612280565b5090565b5b8082111561227c5760008155600101612281565b6001600160e01b031981168114610a9c57600080fd5b6000602082840312156122bd57600080fd5b81356112fd81612295565b80356001600160a01b03811681146122df57600080fd5b919050565b6000602082840312156122f657600080fd5b6112fd826122c8565b60005b8381101561231a578181015183820152602001612302565b838111156112975750506000910152565b600081518084526123438160208601602086016122ff565b601f01601f19169290920160200192915050565b6020815260006112fd602083018461232b565b60006020828403121561237c57600080fd5b5035919050565b6000806040838503121561239657600080fd5b61239f836122c8565b946020939093013593505050565b6000806000606084860312156123c257600080fd5b6123cb846122c8565b92506123d9602085016122c8565b9150604084013590509250925092565b634e487b7160e01b600052604160045260246000fd5b604051601f8201601f1916810167ffffffffffffffff81118282101715612428576124286123e9565b604052919050565b600067ffffffffffffffff83111561244a5761244a6123e9565b61245d601f8401601f19166020016123ff565b905082815283838301111561247157600080fd5b828260208301376000602084830101529392505050565b60006020828403121561249a57600080fd5b813567ffffffffffffffff8111156124b157600080fd5b8201601f810184136124c257600080fd5b61171084823560208401612430565b6020808252825182820181905260009190848201906040850190845b81811015612509578351835292840192918401916001016124ed565b50909695505050505050565b600082601f83011261252657600080fd5b8135602067ffffffffffffffff821115612542576125426123e9565b8160051b6125518282016123ff565b928352848101820192828101908785111561256b57600080fd5b83870192505b8483101561258a57823582529183019190830190612571565b979650505050505050565b6000602082840312156125a757600080fd5b813567ffffffffffffffff8111156125be57600080fd5b61171084828501612515565b600080604083850312156125dd57600080fd5b82359150602083013567ffffffffffffffff8111156125fb57600080fd5b61260785828601612515565b9150509250929050565b6000806040838503121561262457600080fd5b61262d836122c8565b91506020830135801515811461264257600080fd5b809150509250929050565b6000806000806080858703121561266357600080fd5b61266c856122c8565b935061267a602086016122c8565b925060408501359150606085013567ffffffffffffffff81111561269d57600080fd5b8501601f810187136126ae57600080fd5b6126bd87823560208401612430565b91505092959194509250565b600080604083850312156126dc57600080fd5b6126e5836122c8565b91506126f3602084016122c8565b90509250929050565b600181811c9082168061271057607f821691505b602082108103610e3b57634e487b7160e01b600052602260045260246000fd5b6020808252602e908201527f4552433732313a2063616c6c6572206973206e6f7420746f6b656e206f776e6560408201526d1c881b9bdc88185c1c1c9bdd995960921b606082015260800190565b634e487b7160e01b600052603260045260246000fd5b634e487b7160e01b600052601160045260246000fd5b6000600182016127bc576127bc612794565b5060010190565b600082198211156127d6576127d6612794565b500190565b600083516127ed8184602088016122ff565b8351908301906128018183602088016122ff565b01949350505050565b60008282101561281c5761281c612794565b500390565b600081600019048311821515161561283b5761283b612794565b500290565b60208082526032908201527f4552433732313a207472616e7366657220746f206e6f6e20455243373231526560408201527131b2b4bb32b91034b6b83632b6b2b73a32b960711b606082015260800190565b634e487b7160e01b600052601260045260246000fd5b6000826128b7576128b7612892565b500490565b6000826128cb576128cb612892565b500690565b6001600160a01b03858116825284166020820152604081018390526080606082018190526000906129039083018461232b565b9695505050505050565b60006020828403121561291f57600080fd5b81516112fd81612295565b634e487b7160e01b600052603160045260246000fdfea2646970667358221220bfe6c5d75849c8f53d0622eaee979579c7395a7b3f8d58ba8ad2077859619ef564736f6c634300080d0033",
  "linkReferences": {},
  "deployedLinkReferences": {}
}