{
  "_format": "hh-sol-artifact-1",
  "contractName": "Bribe",
  "sourceName": "contracts/Bribes.sol",
  "abi": [
    {
      "inputs": [
        {
          "internalType": "address",
          "name": "_owner",
          "type": "address"
        },
        {
          "internalType": "address",
          "name": "_voter",
          "type": "address"
        },
        {
          "internalType": "address",
          "name": "_bribeFactory",
          "type": "address"
        },
        {
          "internalType": "string",
          "name": "_type",
          "type": "string"
        }
      ],
      "stateMutability": "nonpayable",
      "type": "constructor"
    },
    {
      "anonymous": false,
      "inputs": [
        {
          "indexed": false,
          "internalType": "address",
          "name": "token",
          "type": "address"
        },
        {
          "indexed": false,
          "internalType": "uint256",
          "name": "amount",
          "type": "uint256"
        }
      ],
      "name": "Recovered",
      "type": "event"
    },
    {
      "anonymous": false,
      "inputs": [
        {
          "indexed": false,
          "internalType": "address",
          "name": "rewardToken",
          "type": "address"
        },
        {
          "indexed": false,
          "internalType": "uint256",
          "name": "reward",
          "type": "uint256"
        },
        {
          "indexed": false,
          "internalType": "uint256",
          "name": "startTimestamp",
          "type": "uint256"
        }
      ],
      "name": "RewardAdded",
      "type": "event"
    },
    {
      "anonymous": false,
      "inputs": [
        {
          "indexed": true,
          "internalType": "address",
          "name": "user",
          "type": "address"
        },
        {
          "indexed": true,
          "internalType": "address",
          "name": "rewardsToken",
          "type": "address"
        },
        {
          "indexed": false,
          "internalType": "uint256",
          "name": "reward",
          "type": "uint256"
        }
      ],
      "name": "RewardPaid",
      "type": "event"
    },
    {
      "anonymous": false,
      "inputs": [
        {
          "indexed": true,
          "internalType": "uint256",
          "name": "tokenId",
          "type": "uint256"
        },
        {
          "indexed": false,
          "internalType": "uint256",
          "name": "amount",
          "type": "uint256"
        }
      ],
      "name": "Staked",
      "type": "event"
    },
    {
      "anonymous": false,
      "inputs": [
        {
          "indexed": true,
          "internalType": "uint256",
          "name": "tokenId",
          "type": "uint256"
        },
        {
          "indexed": false,
          "internalType": "uint256",
          "name": "amount",
          "type": "uint256"
        }
      ],
      "name": "Withdrawn",
      "type": "event"
    },
    {
      "inputs": [],
      "name": "TYPE",
      "outputs": [
        {
          "internalType": "string",
          "name": "",
          "type": "string"
        }
      ],
      "stateMutability": "view",
      "type": "function"
    },
    {
      "inputs": [],
      "name": "WEEK",
      "outputs": [
        {
          "internalType": "uint256",
          "name": "",
          "type": "uint256"
        }
      ],
      "stateMutability": "view",
      "type": "function"
    },
    {
      "inputs": [
        {
          "internalType": "uint256",
          "name": "amount",
          "type": "uint256"
        },
        {
          "internalType": "uint256",
          "name": "tokenId",
          "type": "uint256"
        }
      ],
      "name": "_deposit",
      "outputs": [],
      "stateMutability": "nonpayable",
      "type": "function"
    },
    {
      "inputs": [
        {
          "internalType": "uint256",
          "name": "",
          "type": "uint256"
        }
      ],
      "name": "_totalSupply",
      "outputs": [
        {
          "internalType": "uint256",
          "name": "",
          "type": "uint256"
        }
      ],
      "stateMutability": "view",
      "type": "function"
    },
    {
      "inputs": [
        {
          "internalType": "uint256",
          "name": "amount",
          "type": "uint256"
        },
        {
          "internalType": "uint256",
          "name": "tokenId",
          "type": "uint256"
        }
      ],
      "name": "_withdraw",
      "outputs": [],
      "stateMutability": "nonpayable",
      "type": "function"
    },
    {
      "inputs": [
        {
          "internalType": "address",
          "name": "_rewardsToken",
          "type": "address"
        }
      ],
      "name": "addReward",
      "outputs": [],
      "stateMutability": "nonpayable",
      "type": "function"
    },
    {
      "inputs": [
        {
          "internalType": "address",
          "name": "_token",
          "type": "address"
        }
      ],
      "name": "addRewardToken",
      "outputs": [],
      "stateMutability": "nonpayable",
      "type": "function"
    },
    {
      "inputs": [
        {
          "internalType": "uint256",
          "name": "tokenId",
          "type": "uint256"
        }
      ],
      "name": "balanceOf",
      "outputs": [
        {
          "internalType": "uint256",
          "name": "",
          "type": "uint256"
        }
      ],
      "stateMutability": "view",
      "type": "function"
    },
    {
      "inputs": [
        {
          "internalType": "uint256",
          "name": "tokenId",
          "type": "uint256"
        },
        {
          "internalType": "uint256",
          "name": "_timestamp",
          "type": "uint256"
        }
      ],
      "name": "balanceOfAt",
      "outputs": [
        {
          "internalType": "uint256",
          "name": "",
          "type": "uint256"
        }
      ],
      "stateMutability": "view",
      "type": "function"
    },
    {
      "inputs": [],
      "name": "bribeFactory",
      "outputs": [
        {
          "internalType": "address",
          "name": "",
          "type": "address"
        }
      ],
      "stateMutability": "view",
      "type": "function"
    },
    {
      "inputs": [
        {
          "internalType": "uint256",
          "name": "tokenId",
          "type": "uint256"
        },
        {
          "internalType": "address",
          "name": "_rewardToken",
          "type": "address"
        }
      ],
      "name": "earned",
      "outputs": [
        {
          "internalType": "uint256",
          "name": "",
          "type": "uint256"
        }
      ],
      "stateMutability": "view",
      "type": "function"
    },
    {
      "inputs": [],
      "name": "firstBribeTimestamp",
      "outputs": [
        {
          "internalType": "uint256",
          "name": "",
          "type": "uint256"
        }
      ],
      "stateMutability": "view",
      "type": "function"
    },
    {
      "inputs": [],
      "name": "getEpochStart",
      "outputs": [
        {
          "internalType": "uint256",
          "name": "",
          "type": "uint256"
        }
      ],
      "stateMutability": "view",
      "type": "function"
    },
    {
      "inputs": [],
      "name": "getNextEpochStart",
      "outputs": [
        {
          "internalType": "uint256",
          "name": "",
          "type": "uint256"
        }
      ],
      "stateMutability": "view",
      "type": "function"
    },
    {
      "inputs": [
        {
          "internalType": "uint256",
          "name": "tokenId",
          "type": "uint256"
        },
        {
          "internalType": "address[]",
          "name": "tokens",
          "type": "address[]"
        }
      ],
      "name": "getReward",
      "outputs": [],
      "stateMutability": "nonpayable",
      "type": "function"
    },
    {
      "inputs": [
        {
          "internalType": "uint256",
          "name": "tokenId",
          "type": "uint256"
        },
        {
          "internalType": "address[]",
          "name": "tokens",
          "type": "address[]"
        }
      ],
      "name": "getRewardForOwner",
      "outputs": [],
      "stateMutability": "nonpayable",
      "type": "function"
    },
    {
      "inputs": [
        {
          "internalType": "address",
          "name": "",
          "type": "address"
        }
      ],
      "name": "isRewardToken",
      "outputs": [
        {
          "internalType": "bool",
          "name": "",
          "type": "bool"
        }
      ],
      "stateMutability": "view",
      "type": "function"
    },
    {
      "inputs": [],
      "name": "minter",
      "outputs": [
        {
          "internalType": "address",
          "name": "",
          "type": "address"
        }
      ],
      "stateMutability": "view",
      "type": "function"
    },
    {
      "inputs": [
        {
          "internalType": "address",
          "name": "_rewardsToken",
          "type": "address"
        },
        {
          "internalType": "uint256",
          "name": "reward",
          "type": "uint256"
        }
      ],
      "name": "notifyRewardAmount",
      "outputs": [],
      "stateMutability": "nonpayable",
      "type": "function"
    },
    {
      "inputs": [],
      "name": "owner",
      "outputs": [
        {
          "internalType": "address",
          "name": "",
          "type": "address"
        }
      ],
      "stateMutability": "view",
      "type": "function"
    },
    {
      "inputs": [
        {
          "internalType": "address",
          "name": "tokenAddress",
          "type": "address"
        },
        {
          "internalType": "uint256",
          "name": "tokenAmount",
          "type": "uint256"
        }
      ],
      "name": "recoverERC20",
      "outputs": [],
      "stateMutability": "nonpayable",
      "type": "function"
    },
    {
      "inputs": [
        {
          "internalType": "address",
          "name": "",
          "type": "address"
        },
        {
          "internalType": "uint256",
          "name": "",
          "type": "uint256"
        }
      ],
      "name": "rewardData",
      "outputs": [
        {
          "internalType": "uint256",
          "name": "periodFinish",
          "type": "uint256"
        },
        {
          "internalType": "uint256",
          "name": "rewardsPerEpoch",
          "type": "uint256"
        },
        {
          "internalType": "uint256",
          "name": "lastUpdateTime",
          "type": "uint256"
        }
      ],
      "stateMutability": "view",
      "type": "function"
    },
    {
      "inputs": [
        {
          "internalType": "address",
          "name": "_rewardsToken",
          "type": "address"
        },
        {
          "internalType": "uint256",
          "name": "_timestmap",
          "type": "uint256"
        }
      ],
      "name": "rewardPerToken",
      "outputs": [
        {
          "internalType": "uint256",
          "name": "",
          "type": "uint256"
        }
      ],
      "stateMutability": "view",
      "type": "function"
    },
    {
      "inputs": [
        {
          "internalType": "uint256",
          "name": "",
          "type": "uint256"
        }
      ],
      "name": "rewardTokens",
      "outputs": [
        {
          "internalType": "address",
          "name": "",
          "type": "address"
        }
      ],
      "stateMutability": "view",
      "type": "function"
    },
    {
      "inputs": [],
      "name": "rewardsListLength",
      "outputs": [
        {
          "internalType": "uint256",
          "name": "",
          "type": "uint256"
        }
      ],
      "stateMutability": "view",
      "type": "function"
    },
    {
      "inputs": [
        {
          "internalType": "address",
          "name": "_minter",
          "type": "address"
        }
      ],
      "name": "setMinter",
      "outputs": [],
      "stateMutability": "nonpayable",
      "type": "function"
    },
    {
      "inputs": [
        {
          "internalType": "address",
          "name": "_owner",
          "type": "address"
        }
      ],
      "name": "setOwner",
      "outputs": [],
      "stateMutability": "nonpayable",
      "type": "function"
    },
    {
      "inputs": [
        {
          "internalType": "string",
          "name": "_type",
          "type": "string"
        }
      ],
      "name": "setType",
      "outputs": [],
      "stateMutability": "nonpayable",
      "type": "function"
    },
    {
      "inputs": [
        {
          "internalType": "address",
          "name": "_Voter",
          "type": "address"
        }
      ],
      "name": "setVoter",
      "outputs": [],
      "stateMutability": "nonpayable",
      "type": "function"
    },
    {
      "inputs": [],
      "name": "totalSupply",
      "outputs": [
        {
          "internalType": "uint256",
          "name": "",
          "type": "uint256"
        }
      ],
      "stateMutability": "view",
      "type": "function"
    },
    {
      "inputs": [
        {
          "internalType": "uint256",
          "name": "_timestamp",
          "type": "uint256"
        }
      ],
      "name": "totalSupplyAt",
      "outputs": [
        {
          "internalType": "uint256",
          "name": "",
          "type": "uint256"
        }
      ],
      "stateMutability": "view",
      "type": "function"
    },
    {
      "inputs": [
        {
          "internalType": "uint256",
          "name": "",
          "type": "uint256"
        },
        {
          "internalType": "address",
          "name": "",
          "type": "address"
        }
      ],
      "name": "userRewardPerTokenPaid",
      "outputs": [
        {
          "internalType": "uint256",
          "name": "",
          "type": "uint256"
        }
      ],
      "stateMutability": "view",
      "type": "function"
    },
    {
      "inputs": [
        {
          "internalType": "uint256",
          "name": "",
          "type": "uint256"
        },
        {
          "internalType": "address",
          "name": "",
          "type": "address"
        }
      ],
      "name": "userTimestamp",
      "outputs": [
        {
          "internalType": "uint256",
          "name": "",
          "type": "uint256"
        }
      ],
      "stateMutability": "view",
      "type": "function"
    },
    {
      "inputs": [],
      "name": "ve",
      "outputs": [
        {
          "internalType": "address",
          "name": "",
          "type": "address"
        }
      ],
      "stateMutability": "view",
      "type": "function"
    },
    {
      "inputs": [],
      "name": "voter",
      "outputs": [
        {
          "internalType": "address",
          "name": "",
          "type": "address"
        }
      ],
      "stateMutability": "view",
      "type": "function"
    }
  ],
  "bytecode": "0x60806040523480156200001157600080fd5b50604051620022fe380380620022fe8339810160408190526200003491620002d6565b60016000556001600160a01b038216158015906200005a57506001600160a01b03831615155b80156200006f57506001600160a01b03841615155b6200007957600080fd5b600580546001600160a01b038086166001600160a01b031992831681179093556006805491861691909216179055600060015560408051638dd598fb60e01b81529051638dd598fb916004818101926020929091908290030181865afa158015620000e8573d6000803e3d6000fd5b505050506040513d601f19601f820116820180604052508101906200010e9190620003eb565b600860006101000a8154816001600160a01b0302191690836001600160a01b03160217905550826001600160a01b031663075461726040518163ffffffff1660e01b8152600401602060405180830381865afa15801562000173573d6000803e3d6000fd5b505050506040513d601f19601f82011682018060405250810190620001999190620003eb565b600780546001600160a01b0319166001600160a01b03929092169182179055620001c257600080fd5b600980546001600160a01b0319166001600160a01b0386161790558051620001f290600a906020840190620001fd565b50505050506200044c565b8280546200020b9062000410565b90600052602060002090601f0160209004810192826200022f57600085556200027a565b82601f106200024a57805160ff19168380011785556200027a565b828001600101855582156200027a579182015b828111156200027a5782518255916020019190600101906200025d565b50620002889291506200028c565b5090565b5b808211156200028857600081556001016200028d565b80516001600160a01b0381168114620002bb57600080fd5b919050565b634e487b7160e01b600052604160045260246000fd5b60008060008060808587031215620002ed57600080fd5b620002f885620002a3565b9350602062000309818701620002a3565b93506200031960408701620002a3565b60608701519093506001600160401b03808211156200033757600080fd5b818801915088601f8301126200034c57600080fd5b815181811115620003615762000361620002c0565b604051601f8201601f19908116603f011681019083821181831017156200038c576200038c620002c0565b816040528281528b86848701011115620003a557600080fd5b600093505b82841015620003c95784840186015181850187015292850192620003aa565b82841115620003db5760008684830101525b989b979a50959850505050505050565b600060208284031215620003fe57600080fd5b6200040982620002a3565b9392505050565b600181811c908216806200042557607f821691505b6020821081036200044657634e487b7160e01b600052602260045260246000fd5b50919050565b611ea2806200045c6000396000f3fe608060405234801561001057600080fd5b50600436106102105760003560e01c80638f2b554c11610125578063b66503cf116100ad578063eb4a78e01161007c578063eb4a78e014610508578063f32077231461051b578063f4359ce51461052e578063f5f8d36514610538578063fca3b5aa1461054b57600080fd5b8063b66503cf146104c5578063bb24fe8a146104d8578063e39c08fc146104ed578063e68863961461050057600080fd5b80639cc7f708116100f45780639cc7f708146104515780639e2bf22c14610464578063a4a3e03514610477578063a7852afa1461047f578063b5fd73f81461049257600080fd5b80638f2b554c146103e057806396282ba31461040b578063981b24d01461041e5780639c9b2e211461043e57600080fd5b80634bc2a657116101a857806365c5f94a1161017757806365c5f94a146103745780637bb7bed11461037c578063853c8aeb1461038f5780638980f11f146103ba5780638da5cb5b146103cd57600080fd5b80634bc2a6571461032557806355288eea1461033857806357bc5614146103415780635977e82a1461035457600080fd5b80631c03e6cc116101e45780631c03e6cc1461029b5780631f850716146102ae57806338174862146102c157806346c96aac1461031257600080fd5b8062a47ddd14610215578063075461721461025357806313af40351461027e57806318160ddd14610293575b600080fd5b610240610223366004611a5c565b600b60209081526000928352604080842090915290825290205481565b6040519081526020015b60405180910390f35b600754610266906001600160a01b031681565b6040516001600160a01b03909116815260200161024a565b61029161028c366004611a8c565b61055e565b005b6102406105aa565b6102916102a9366004611a8c565b610639565b600854610266906001600160a01b031681565b6102f76102cf366004611aa9565b6002602081815260009384526040808520909152918352912080546001820154919092015483565b6040805193845260208401929092529082015260600161024a565b600554610266906001600160a01b031681565b610291610333366004611a8c565b6106c9565b61024060015481565b61024061034f366004611aa9565b610715565b610240610362366004611ad5565b600d6020526000908152604090205481565b6102406107ae565b61026661038a366004611ad5565b6107cb565b61024061039d366004611aee565b6000918252600e6020908152604080842092845291905290205490565b6102916103c8366004611aa9565b6107f5565b600954610266906001600160a01b031681565b6102406103ee366004611a5c565b600c60209081526000928352604080842090915290825290205481565b610291610419366004611b57565b6108e0565b61024061042c366004611ad5565b6000908152600d602052604090205490565b61029161044c366004611a8c565b61090e565b61024061045f366004611ad5565b6109eb565b610291610472366004611aee565b610a17565b610240610bca565b61029161048d366004611bec565b610c38565b6104b56104a0366004611a8c565b60036020526000908152604090205460ff1681565b604051901515815260200161024a565b6102916104d3366004611aa9565b610e1d565b6104e061101b565b60405161024a9190611cd6565b6102406104fb366004611a5c565b6110a9565b600454610240565b600654610266906001600160a01b031681565b610291610529366004611aee565b6111c8565b61024062093a8081565b610291610546366004611bec565b611357565b610291610559366004611a8c565b611593565b6009546001600160a01b0316331461057557600080fd5b6001600160a01b03811661058857600080fd5b600980546001600160a01b0319166001600160a01b0392909216919091179055565b600080600760009054906101000a90046001600160a01b03166001600160a01b031663d13996086040518163ffffffff1660e01b8152600401602060405180830381865afa158015610600573d6000803e3d6000fd5b505050506040513d601f19601f820116820180604052508101906106249190611d09565b6000908152600d602052604090205492915050565b6009546001600160a01b0316331461065057600080fd5b6001600160a01b03811661066357600080fd5b6001600160a01b03166000818152600360205260408120805460ff191660019081179091556004805491820181559091527f8a35acfbc15ff81a39ae7d344fd709f28e8600b4aa8c65c6b64bfe7fe36bd19b0180546001600160a01b0319169091179055565b6009546001600160a01b031633146106e057600080fd5b6001600160a01b0381166106f357600080fd5b600580546001600160a01b0319166001600160a01b0392909216919091179055565b6000818152600d6020526040812054810361075757506001600160a01b03821660009081526002602090815260408083208484529091529020600101546107a8565b6000828152600d60209081526040808320546001600160a01b0387168452600283528184208685529092529091206001015461079b90670de0b6b3a7640000611d38565b6107a59190611d57565b90505b92915050565b600062093a806107bc610bca565b6107c69190611d79565b905090565b600481815481106107db57600080fd5b6000918252602090912001546001600160a01b0316905081565b6009546001600160a01b0316331461080c57600080fd5b6040516370a0823160e01b81523060048201526001600160a01b038316906370a0823190602401602060405180830381865afa158015610850573d6000803e3d6000fd5b505050506040513d601f19601f820116820180604052508101906108749190611d09565b81111561088057600080fd5b60095461089a906001600160a01b038481169116836115df565b604080516001600160a01b0384168152602081018390527f8c1256b8896378cd5044f80c202f9772b9d77dc85c8a6eb51967210b09bfaa28910160405180910390a15050565b6009546001600160a01b031633146108f757600080fd5b805161090a90600a9060208401906119ab565b5050565b6009546001600160a01b031633148061093157506006546001600160a01b031633145b6109825760405162461bcd60e51b815260206004820181905260248201527f6164645265776172643a207065726d697373696f6e2069732064656e6965642160448201526064015b60405180910390fd5b6001600160a01b03811660009081526003602052604090205460ff16156106635760405162461bcd60e51b815260206004820152601b60248201527f52657761726420746f6b656e20616c72656164792065786973747300000000006044820152606401610979565b6000806109f66107ae565b6000938452600e602090815260408086209286529190529092205492915050565b610a1f611647565b60008211610a635760405162461bcd60e51b8152602060048201526011602482015270043616e6e6f74207769746864726177203607c1b6044820152606401610979565b6005546001600160a01b03163314610a7a57600080fd5b600062093a80600760009054906101000a90046001600160a01b03166001600160a01b031663d13996086040518163ffffffff1660e01b8152600401602060405180830381865afa158015610ad3573d6000803e3d6000fd5b505050506040513d601f19601f82011682018060405250810190610af79190611d09565b610b019190611d79565b6000838152600e602090815260408083208484529091529020549091508311610bbf576000818152600d6020908152604080832054858452600e835281842085855290925290912054610b548583611d91565b6000848152600d6020526040902055610b6d8582611d91565b6000858152600e60209081526040808320878452825291829020929092555186815285917f0c875c8d391179c5cf7ad8303d268efd50b8beb78b671f85cd54bfb91eb8ef40910160405180910390a250505b5061090a6001600055565b60075460408051631a2732c160e31b815290516000926001600160a01b03169163d13996089160048083019260209291908290030181865afa158015610c14573d6000803e3d6000fd5b505050506040513d601f19601f820116820180604052508101906107c69190611d09565b610c40611647565b6005546001600160a01b03163314610c5757600080fd5b60075460408051631a2732c160e31b815290516000926001600160a01b03169163d13996089160048083019260209291908290030181865afa158015610ca1573d6000803e3d6000fd5b505050506040513d601f19601f82011682018060405250810190610cc59190611d09565b6008546040516331a9108f60e11b81526004810186905291925060009182916001600160a01b031690636352211e90602401602060405180830381865afa158015610d14573d6000803e3d6000fd5b505050506040513d601f19601f82011682018060405250810190610d389190611da8565b905060005b8451811015610e0f576000858281518110610d5a57610d5a611dc5565b60200260200101519050610d6e87826110a9565b93508315610dd857610d8a6001600160a01b03821684866115df565b806001600160a01b0316836001600160a01b03167f540798df468d7b23d11f156fdb954cb19ad414d150722a7b6d55ba369dea792e86604051610dcf91815260200190565b60405180910390a35b6000878152600c602090815260408083206001600160a01b0390941683529290522084905580610e0781611ddb565b915050610d3d565b5050505061090a6001600055565b610e25611647565b6001600160a01b03821660009081526003602052604090205460ff16610e8d5760405162461bcd60e51b815260206004820152601960248201527f72657761726420746f6b656e206e6f74207665726966696564000000000000006044820152606401610979565b610ea26001600160a01b0383163330846116a0565b600062093a80600760009054906101000a90046001600160a01b03166001600160a01b031663d13996086040518163ffffffff1660e01b8152600401602060405180830381865afa158015610efb573d6000803e3d6000fd5b505050506040513d601f19601f82011682018060405250810190610f1f9190611d09565b610f299190611d79565b9050600154600003610f3b5760018190555b6001600160a01b0383166000908152600260209081526040808320848452909152902060010154610f6c8382611d79565b6001600160a01b0385166000908152600260208181526040808420878552909152909120600181019290925542910155610fa962093a8083611d79565b6001600160a01b03851660008181526002602090815260408083208784528252918290209390935580519182529181018590529081018390527f6a6f77044107a33658235d41bedbbaf2fe9ccdceb313143c947a5e76e1ec84749060600160405180910390a1505061090a6001600055565b600a805461102890611df4565b80601f016020809104026020016040519081016040528092919081815260200182805461105490611df4565b80156110a15780601f10611076576101008083540402835291602001916110a1565b820191906000526020600020905b81548152906001019060200180831161108457829003601f168201915b505050505081565b60075460408051631a2732c160e31b815290516000928392839283926001600160a01b03169163d13996089160048083019260209291908290030181865afa1580156110f9573d6000803e3d6000fd5b505050506040513d601f19601f8201168201806040525081019061111d9190611d09565b6000878152600c602090815260408083206001600160a01b038a1684529091529020549091508082036111575760009450505050506107a8565b6001548110156111755762093a806001546111729190611d91565b90505b60328410156111bd578082146111bd576111908787836116de565b61119a9084611d79565b92506111a962093a8082611d79565b9050836111b581611ddb565b945050611175565b509095945050505050565b6111d0611647565b600082116112115760405162461bcd60e51b815260206004820152600e60248201526d043616e6e6f74207374616b6520360941b6044820152606401610979565b6005546001600160a01b0316331461122857600080fd5b600062093a80600760009054906101000a90046001600160a01b03166001600160a01b031663d13996086040518163ffffffff1660e01b8152600401602060405180830381865afa158015611281573d6000803e3d6000fd5b505050506040513d601f19601f820116820180604052508101906112a59190611d09565b6112af9190611d79565b6000818152600d60205260409020549091506112cb8482611d79565b6000838152600d6020908152604080832093909355858252600e8152828220858352905220546112fc908590611d79565b6000848152600e60209081526040808320868452825291829020929092555185815284917f925435fa7e37e5d9555bb18ce0d62bb9627d0846942e58e5291e9a2dded462ed910160405180910390a2505061090a6001600055565b61135f611647565b60085460405163430c208160e01b8152336004820152602481018490526001600160a01b039091169063430c208190604401602060405180830381865afa1580156113ae573d6000803e3d6000fd5b505050506040513d601f19601f820116820180604052508101906113d29190611e2e565b6113db57600080fd5b60075460408051631a2732c160e31b815290516000926001600160a01b03169163d13996089160048083019260209291908290030181865afa158015611425573d6000803e3d6000fd5b505050506040513d601f19601f820116820180604052508101906114499190611d09565b6008546040516331a9108f60e11b81526004810186905291925060009182916001600160a01b031690636352211e90602401602060405180830381865afa158015611498573d6000803e3d6000fd5b505050506040513d601f19601f820116820180604052508101906114bc9190611da8565b905060005b8451811015610e0f5760008582815181106114de576114de611dc5565b602002602001015190506114f287826110a9565b9350831561155c5761150e6001600160a01b03821684866115df565b806001600160a01b0316836001600160a01b03167f540798df468d7b23d11f156fdb954cb19ad414d150722a7b6d55ba369dea792e8660405161155391815260200190565b60405180910390a35b6000878152600c602090815260408083206001600160a01b039094168352929052208490558061158b81611ddb565b9150506114c1565b6009546001600160a01b031633146115aa57600080fd5b6001600160a01b0381166115bd57600080fd5b600780546001600160a01b0319166001600160a01b0392909216919091179055565b6040516001600160a01b03831660248201526044810182905261164290849063a9059cbb60e01b906064015b60408051601f198184030181529190526020810180516001600160e01b03166001600160e01b031990931692909217909152611749565b505050565b6002600054036116995760405162461bcd60e51b815260206004820152601f60248201527f5265656e7472616e637947756172643a207265656e7472616e742063616c6c006044820152606401610979565b6002600055565b6040516001600160a01b03808516602483015283166044820152606481018290526116d89085906323b872dd60e01b9060840161160b565b50505050565b6000838152600e602090815260408083208484529091528120548060000361170a576000915050611742565b60006117168585610715565b90506000670de0b6b3a764000061172d8484611d38565b6117379190611d57565b935061174292505050565b9392505050565b600061179e826040518060400160405280602081526020017f5361666545524332303a206c6f772d6c6576656c2063616c6c206661696c6564815250856001600160a01b031661181b9092919063ffffffff16565b80519091501561164257808060200190518101906117bc9190611e2e565b6116425760405162461bcd60e51b815260206004820152602a60248201527f5361666545524332303a204552433230206f7065726174696f6e20646964206e6044820152691bdd081cdd58d8d9595960b21b6064820152608401610979565b606061182a8484600085611832565b949350505050565b6060824710156118935760405162461bcd60e51b815260206004820152602660248201527f416464726573733a20696e73756666696369656e742062616c616e636520666f6044820152651c8818d85b1b60d21b6064820152608401610979565b600080866001600160a01b031685876040516118af9190611e50565b60006040518083038185875af1925050503d80600081146118ec576040519150601f19603f3d011682016040523d82523d6000602084013e6118f1565b606091505b50915091506119028783838761190d565b979650505050505050565b6060831561197c578251600003611975576001600160a01b0385163b6119755760405162461bcd60e51b815260206004820152601d60248201527f416464726573733a2063616c6c20746f206e6f6e2d636f6e74726163740000006044820152606401610979565b508161182a565b61182a83838151156119915781518083602001fd5b8060405162461bcd60e51b81526004016109799190611cd6565b8280546119b790611df4565b90600052602060002090601f0160209004810192826119d95760008555611a1f565b82601f106119f257805160ff1916838001178555611a1f565b82800160010185558215611a1f579182015b82811115611a1f578251825591602001919060010190611a04565b50611a2b929150611a2f565b5090565b5b80821115611a2b5760008155600101611a30565b6001600160a01b0381168114611a5957600080fd5b50565b60008060408385031215611a6f57600080fd5b823591506020830135611a8181611a44565b809150509250929050565b600060208284031215611a9e57600080fd5b813561174281611a44565b60008060408385031215611abc57600080fd5b8235611ac781611a44565b946020939093013593505050565b600060208284031215611ae757600080fd5b5035919050565b60008060408385031215611b0157600080fd5b50508035926020909101359150565b634e487b7160e01b600052604160045260246000fd5b604051601f8201601f1916810167ffffffffffffffff81118282101715611b4f57611b4f611b10565b604052919050565b60006020808385031215611b6a57600080fd5b823567ffffffffffffffff80821115611b8257600080fd5b818501915085601f830112611b9657600080fd5b813581811115611ba857611ba8611b10565b611bba601f8201601f19168501611b26565b91508082528684828501011115611bd057600080fd5b8084840185840137600090820190930192909252509392505050565b60008060408385031215611bff57600080fd5b8235915060208084013567ffffffffffffffff80821115611c1f57600080fd5b818601915086601f830112611c3357600080fd5b813581811115611c4557611c45611b10565b8060051b9150611c56848301611b26565b8181529183018401918481019089841115611c7057600080fd5b938501935b83851015611c9a5784359250611c8a83611a44565b8282529385019390850190611c75565b8096505050505050509250929050565b60005b83811015611cc5578181015183820152602001611cad565b838111156116d85750506000910152565b6020815260008251806020840152611cf5816040850160208701611caa565b601f01601f19169190910160400192915050565b600060208284031215611d1b57600080fd5b5051919050565b634e487b7160e01b600052601160045260246000fd5b6000816000190483118215151615611d5257611d52611d22565b500290565b600082611d7457634e487b7160e01b600052601260045260246000fd5b500490565b60008219821115611d8c57611d8c611d22565b500190565b600082821015611da357611da3611d22565b500390565b600060208284031215611dba57600080fd5b815161174281611a44565b634e487b7160e01b600052603260045260246000fd5b600060018201611ded57611ded611d22565b5060010190565b600181811c90821680611e0857607f821691505b602082108103611e2857634e487b7160e01b600052602260045260246000fd5b50919050565b600060208284031215611e4057600080fd5b8151801515811461174257600080fd5b60008251611e62818460208701611caa565b919091019291505056fea264697066735822122070767a35aa46314b22bed148ffc558ac6e7ad36c830d63e358ee73c44686be1c64736f6c634300080d0033",
  "linkReferences": {},
  "deployedLinkReferences": {}
}