{
  "_format": "hh-sol-artifact-1",
  "contractName": "Bribe",
  "sourceName": "contracts/Bribes.sol",
  "abi": [
    {
      "inputs": [
        {
          "internalType": "address",
          "name": "_owner",
          "type": "address"
        },
        {
          "internalType": "address",
          "name": "_voter",
          "type": "address"
        },
        {
          "internalType": "address",
          "name": "_bribeFactory",
          "type": "address"
        },
        {
          "internalType": "string",
          "name": "_type",
          "type": "string"
        }
      ],
      "stateMutability": "nonpayable",
      "type": "constructor"
    },
    {
      "anonymous": false,
      "inputs": [
        {
          "indexed": false,
          "internalType": "address",
          "name": "token",
          "type": "address"
        },
        {
          "indexed": false,
          "internalType": "uint256",
          "name": "amount",
          "type": "uint256"
        }
      ],
      "name": "Recovered",
      "type": "event"
    },
    {
      "anonymous": false,
      "inputs": [
        {
          "indexed": false,
          "internalType": "address",
          "name": "rewardToken",
          "type": "address"
        },
        {
          "indexed": false,
          "internalType": "uint256",
          "name": "reward",
          "type": "uint256"
        },
        {
          "indexed": false,
          "internalType": "uint256",
          "name": "startTimestamp",
          "type": "uint256"
        }
      ],
      "name": "RewardAdded",
      "type": "event"
    },
    {
      "anonymous": false,
      "inputs": [
        {
          "indexed": true,
          "internalType": "address",
          "name": "user",
          "type": "address"
        },
        {
          "indexed": true,
          "internalType": "address",
          "name": "rewardsToken",
          "type": "address"
        },
        {
          "indexed": false,
          "internalType": "uint256",
          "name": "reward",
          "type": "uint256"
        }
      ],
      "name": "RewardPaid",
      "type": "event"
    },
    {
      "anonymous": false,
      "inputs": [
        {
          "indexed": true,
          "internalType": "uint256",
          "name": "tokenId",
          "type": "uint256"
        },
        {
          "indexed": false,
          "internalType": "uint256",
          "name": "amount",
          "type": "uint256"
        }
      ],
      "name": "Staked",
      "type": "event"
    },
    {
      "anonymous": false,
      "inputs": [
        {
          "indexed": true,
          "internalType": "uint256",
          "name": "tokenId",
          "type": "uint256"
        },
        {
          "indexed": false,
          "internalType": "uint256",
          "name": "amount",
          "type": "uint256"
        }
      ],
      "name": "Withdrawn",
      "type": "event"
    },
    {
      "inputs": [],
      "name": "TYPE",
      "outputs": [
        {
          "internalType": "string",
          "name": "",
          "type": "string"
        }
      ],
      "stateMutability": "view",
      "type": "function"
    },
    {
      "inputs": [],
      "name": "WEEK",
      "outputs": [
        {
          "internalType": "uint256",
          "name": "",
          "type": "uint256"
        }
      ],
      "stateMutability": "view",
      "type": "function"
    },
    {
      "inputs": [
        {
          "internalType": "uint256",
          "name": "amount",
          "type": "uint256"
        },
        {
          "internalType": "uint256",
          "name": "tokenId",
          "type": "uint256"
        }
      ],
      "name": "_deposit",
      "outputs": [],
      "stateMutability": "nonpayable",
      "type": "function"
    },
    {
      "inputs": [
        {
          "internalType": "uint256",
          "name": "",
          "type": "uint256"
        }
      ],
      "name": "_totalSupply",
      "outputs": [
        {
          "internalType": "uint256",
          "name": "",
          "type": "uint256"
        }
      ],
      "stateMutability": "view",
      "type": "function"
    },
    {
      "inputs": [
        {
          "internalType": "uint256",
          "name": "amount",
          "type": "uint256"
        },
        {
          "internalType": "uint256",
          "name": "tokenId",
          "type": "uint256"
        }
      ],
      "name": "_withdraw",
      "outputs": [],
      "stateMutability": "nonpayable",
      "type": "function"
    },
    {
      "inputs": [
        {
          "internalType": "address",
          "name": "_rewardsToken",
          "type": "address"
        }
      ],
      "name": "addReward",
      "outputs": [],
      "stateMutability": "nonpayable",
      "type": "function"
    },
    {
      "inputs": [
        {
          "internalType": "address",
          "name": "_token",
          "type": "address"
        }
      ],
      "name": "addRewardToken",
      "outputs": [],
      "stateMutability": "nonpayable",
      "type": "function"
    },
    {
      "inputs": [
        {
          "internalType": "uint256",
          "name": "tokenId",
          "type": "uint256"
        }
      ],
      "name": "balanceOf",
      "outputs": [
        {
          "internalType": "uint256",
          "name": "",
          "type": "uint256"
        }
      ],
      "stateMutability": "view",
      "type": "function"
    },
    {
      "inputs": [
        {
          "internalType": "uint256",
          "name": "tokenId",
          "type": "uint256"
        },
        {
          "internalType": "uint256",
          "name": "_timestamp",
          "type": "uint256"
        }
      ],
      "name": "balanceOfAt",
      "outputs": [
        {
          "internalType": "uint256",
          "name": "",
          "type": "uint256"
        }
      ],
      "stateMutability": "view",
      "type": "function"
    },
    {
      "inputs": [],
      "name": "bribeFactory",
      "outputs": [
        {
          "internalType": "address",
          "name": "",
          "type": "address"
        }
      ],
      "stateMutability": "view",
      "type": "function"
    },
    {
      "inputs": [
        {
          "internalType": "uint256",
          "name": "tokenId",
          "type": "uint256"
        },
        {
          "internalType": "address",
          "name": "_rewardToken",
          "type": "address"
        }
      ],
      "name": "earned",
      "outputs": [
        {
          "internalType": "uint256",
          "name": "",
          "type": "uint256"
        }
      ],
      "stateMutability": "view",
      "type": "function"
    },
    {
      "inputs": [],
      "name": "firstBribeTimestamp",
      "outputs": [
        {
          "internalType": "uint256",
          "name": "",
          "type": "uint256"
        }
      ],
      "stateMutability": "view",
      "type": "function"
    },
    {
      "inputs": [],
      "name": "getEpochStart",
      "outputs": [
        {
          "internalType": "uint256",
          "name": "",
          "type": "uint256"
        }
      ],
      "stateMutability": "view",
      "type": "function"
    },
    {
      "inputs": [],
      "name": "getNextEpochStart",
      "outputs": [
        {
          "internalType": "uint256",
          "name": "",
          "type": "uint256"
        }
      ],
      "stateMutability": "view",
      "type": "function"
    },
    {
      "inputs": [
        {
          "internalType": "uint256",
          "name": "tokenId",
          "type": "uint256"
        },
        {
          "internalType": "address[]",
          "name": "tokens",
          "type": "address[]"
        }
      ],
      "name": "getReward",
      "outputs": [],
      "stateMutability": "nonpayable",
      "type": "function"
    },
    {
      "inputs": [
        {
          "internalType": "uint256",
          "name": "tokenId",
          "type": "uint256"
        },
        {
          "internalType": "address[]",
          "name": "tokens",
          "type": "address[]"
        }
      ],
      "name": "getRewardForOwner",
      "outputs": [],
      "stateMutability": "nonpayable",
      "type": "function"
    },
    {
      "inputs": [
        {
          "internalType": "address",
          "name": "",
          "type": "address"
        }
      ],
      "name": "isRewardToken",
      "outputs": [
        {
          "internalType": "bool",
          "name": "",
          "type": "bool"
        }
      ],
      "stateMutability": "view",
      "type": "function"
    },
    {
      "inputs": [],
      "name": "minter",
      "outputs": [
        {
          "internalType": "address",
          "name": "",
          "type": "address"
        }
      ],
      "stateMutability": "view",
      "type": "function"
    },
    {
      "inputs": [
        {
          "internalType": "address",
          "name": "_rewardsToken",
          "type": "address"
        },
        {
          "internalType": "uint256",
          "name": "reward",
          "type": "uint256"
        }
      ],
      "name": "notifyRewardAmount",
      "outputs": [],
      "stateMutability": "nonpayable",
      "type": "function"
    },
    {
      "inputs": [],
      "name": "owner",
      "outputs": [
        {
          "internalType": "address",
          "name": "",
          "type": "address"
        }
      ],
      "stateMutability": "view",
      "type": "function"
    },
    {
      "inputs": [
        {
          "internalType": "address",
          "name": "tokenAddress",
          "type": "address"
        },
        {
          "internalType": "uint256",
          "name": "tokenAmount",
          "type": "uint256"
        }
      ],
      "name": "recoverERC20",
      "outputs": [],
      "stateMutability": "nonpayable",
      "type": "function"
    },
    {
      "inputs": [
        {
          "internalType": "address",
          "name": "",
          "type": "address"
        },
        {
          "internalType": "uint256",
          "name": "",
          "type": "uint256"
        }
      ],
      "name": "rewardData",
      "outputs": [
        {
          "internalType": "uint256",
          "name": "periodFinish",
          "type": "uint256"
        },
        {
          "internalType": "uint256",
          "name": "rewardsPerEpoch",
          "type": "uint256"
        },
        {
          "internalType": "uint256",
          "name": "lastUpdateTime",
          "type": "uint256"
        }
      ],
      "stateMutability": "view",
      "type": "function"
    },
    {
      "inputs": [
        {
          "internalType": "address",
          "name": "_rewardsToken",
          "type": "address"
        },
        {
          "internalType": "uint256",
          "name": "_timestmap",
          "type": "uint256"
        }
      ],
      "name": "rewardPerToken",
      "outputs": [
        {
          "internalType": "uint256",
          "name": "",
          "type": "uint256"
        }
      ],
      "stateMutability": "view",
      "type": "function"
    },
    {
      "inputs": [
        {
          "internalType": "uint256",
          "name": "",
          "type": "uint256"
        }
      ],
      "name": "rewardTokens",
      "outputs": [
        {
          "internalType": "address",
          "name": "",
          "type": "address"
        }
      ],
      "stateMutability": "view",
      "type": "function"
    },
    {
      "inputs": [],
      "name": "rewardsListLength",
      "outputs": [
        {
          "internalType": "uint256",
          "name": "",
          "type": "uint256"
        }
      ],
      "stateMutability": "view",
      "type": "function"
    },
    {
      "inputs": [
        {
          "internalType": "address",
          "name": "_minter",
          "type": "address"
        }
      ],
      "name": "setMinter",
      "outputs": [],
      "stateMutability": "nonpayable",
      "type": "function"
    },
    {
      "inputs": [
        {
          "internalType": "address",
          "name": "_owner",
          "type": "address"
        }
      ],
      "name": "setOwner",
      "outputs": [],
      "stateMutability": "nonpayable",
      "type": "function"
    },
    {
      "inputs": [
        {
          "internalType": "string",
          "name": "_type",
          "type": "string"
        }
      ],
      "name": "setType",
      "outputs": [],
      "stateMutability": "nonpayable",
      "type": "function"
    },
    {
      "inputs": [
        {
          "internalType": "address",
          "name": "_Voter",
          "type": "address"
        }
      ],
      "name": "setVoter",
      "outputs": [],
      "stateMutability": "nonpayable",
      "type": "function"
    },
    {
      "inputs": [],
      "name": "totalSupply",
      "outputs": [
        {
          "internalType": "uint256",
          "name": "",
          "type": "uint256"
        }
      ],
      "stateMutability": "view",
      "type": "function"
    },
    {
      "inputs": [
        {
          "internalType": "uint256",
          "name": "_timestamp",
          "type": "uint256"
        }
      ],
      "name": "totalSupplyAt",
      "outputs": [
        {
          "internalType": "uint256",
          "name": "",
          "type": "uint256"
        }
      ],
      "stateMutability": "view",
      "type": "function"
    },
    {
      "inputs": [
        {
          "internalType": "uint256",
          "name": "",
          "type": "uint256"
        },
        {
          "internalType": "address",
          "name": "",
          "type": "address"
        }
      ],
      "name": "userRewardPerTokenPaid",
      "outputs": [
        {
          "internalType": "uint256",
          "name": "",
          "type": "uint256"
        }
      ],
      "stateMutability": "view",
      "type": "function"
    },
    {
      "inputs": [
        {
          "internalType": "uint256",
          "name": "",
          "type": "uint256"
        },
        {
          "internalType": "address",
          "name": "",
          "type": "address"
        }
      ],
      "name": "userTimestamp",
      "outputs": [
        {
          "internalType": "uint256",
          "name": "",
          "type": "uint256"
        }
      ],
      "stateMutability": "view",
      "type": "function"
    },
    {
      "inputs": [],
      "name": "ve",
      "outputs": [
        {
          "internalType": "address",
          "name": "",
          "type": "address"
        }
      ],
      "stateMutability": "view",
      "type": "function"
    },
    {
      "inputs": [],
      "name": "voter",
      "outputs": [
        {
          "internalType": "address",
          "name": "",
          "type": "address"
        }
      ],
      "stateMutability": "view",
      "type": "function"
    }
  ],
  "bytecode": "0x60806040523480156200001157600080fd5b506040516200235d3803806200235d8339810160408190526200003491620002d6565b60016000556001600160a01b038216158015906200005a57506001600160a01b03831615155b80156200006f57506001600160a01b03841615155b6200007957600080fd5b600580546001600160a01b038086166001600160a01b031992831681179093556006805491861691909216179055600060015560408051638dd598fb60e01b81529051638dd598fb916004818101926020929091908290030181865afa158015620000e8573d6000803e3d6000fd5b505050506040513d601f19601f820116820180604052508101906200010e9190620003eb565b600860006101000a8154816001600160a01b0302191690836001600160a01b03160217905550826001600160a01b031663075461726040518163ffffffff1660e01b8152600401602060405180830381865afa15801562000173573d6000803e3d6000fd5b505050506040513d601f19601f82011682018060405250810190620001999190620003eb565b600780546001600160a01b0319166001600160a01b03929092169182179055620001c257600080fd5b600980546001600160a01b0319166001600160a01b0386161790558051620001f290600a906020840190620001fd565b50505050506200044c565b8280546200020b9062000410565b90600052602060002090601f0160209004810192826200022f57600085556200027a565b82601f106200024a57805160ff19168380011785556200027a565b828001600101855582156200027a579182015b828111156200027a5782518255916020019190600101906200025d565b50620002889291506200028c565b5090565b5b808211156200028857600081556001016200028d565b80516001600160a01b0381168114620002bb57600080fd5b919050565b634e487b7160e01b600052604160045260246000fd5b60008060008060808587031215620002ed57600080fd5b620002f885620002a3565b9350602062000309818701620002a3565b93506200031960408701620002a3565b60608701519093506001600160401b03808211156200033757600080fd5b818801915088601f8301126200034c57600080fd5b815181811115620003615762000361620002c0565b604051601f8201601f19908116603f011681019083821181831017156200038c576200038c620002c0565b816040528281528b86848701011115620003a557600080fd5b600093505b82841015620003c95784840186015181850187015292850192620003aa565b82841115620003db5760008684830101525b989b979a50959850505050505050565b600060208284031215620003fe57600080fd5b6200040982620002a3565b9392505050565b600181811c908216806200042557607f821691505b6020821081036200044657634e487b7160e01b600052602260045260246000fd5b50919050565b611f01806200045c6000396000f3fe608060405234801561001057600080fd5b50600436106102105760003560e01c80638f2b554c11610125578063b66503cf116100ad578063eb4a78e01161007c578063eb4a78e014610508578063f32077231461051b578063f4359ce51461052e578063f5f8d36514610538578063fca3b5aa1461054b57600080fd5b8063b66503cf146104c5578063bb24fe8a146104d8578063e39c08fc146104ed578063e68863961461050057600080fd5b80639cc7f708116100f45780639cc7f708146104515780639e2bf22c14610464578063a4a3e03514610477578063a7852afa1461047f578063b5fd73f81461049257600080fd5b80638f2b554c146103e057806396282ba31461040b578063981b24d01461041e5780639c9b2e211461043e57600080fd5b80634bc2a657116101a857806365c5f94a1161017757806365c5f94a146103745780637bb7bed11461037c578063853c8aeb1461038f5780638980f11f146103ba5780638da5cb5b146103cd57600080fd5b80634bc2a6571461032557806355288eea1461033857806357bc5614146103415780635977e82a1461035457600080fd5b80631c03e6cc116101e45780631c03e6cc1461029b5780631f850716146102ae57806338174862146102c157806346c96aac1461031257600080fd5b8062a47ddd14610215578063075461721461025357806313af40351461027e57806318160ddd14610293575b600080fd5b610240610223366004611a84565b600b60209081526000928352604080842090915290825290205481565b6040519081526020015b60405180910390f35b600754610266906001600160a01b031681565b6040516001600160a01b03909116815260200161024a565b61029161028c366004611ab4565b61055e565b005b6102406105aa565b6102916102a9366004611ab4565b610639565b600854610266906001600160a01b031681565b6102f76102cf366004611ad1565b6002602081815260009384526040808520909152918352912080546001820154919092015483565b6040805193845260208401929092529082015260600161024a565b600554610266906001600160a01b031681565b610291610333366004611ab4565b6106c9565b61024060015481565b61024061034f366004611ad1565b610715565b610240610362366004611afd565b600d6020526000908152604090205481565b6102406107ae565b61026661038a366004611afd565b6107cb565b61024061039d366004611b16565b6000918252600e6020908152604080842092845291905290205490565b6102916103c8366004611ad1565b6107f5565b600954610266906001600160a01b031681565b6102406103ee366004611a84565b600c60209081526000928352604080842090915290825290205481565b610291610419366004611b7f565b6108e0565b61024061042c366004611afd565b6000908152600d602052604090205490565b61029161044c366004611ab4565b61090e565b61024061045f366004611afd565b6109eb565b610291610472366004611b16565b610a17565b610240610be5565b61029161048d366004611c14565b610c53565b6104b56104a0366004611ab4565b60036020526000908152604090205460ff1681565b604051901515815260200161024a565b6102916104d3366004611ad1565b610e56565b6104e0611071565b60405161024a9190611cfe565b6102406104fb366004611a84565b6110ff565b600454610240565b600654610266906001600160a01b031681565b610291610529366004611b16565b61121e565b61024062093a8081565b610291610546366004611c14565b6113c8565b610291610559366004611ab4565b611623565b6009546001600160a01b0316331461057557600080fd5b6001600160a01b03811661058857600080fd5b600980546001600160a01b0319166001600160a01b0392909216919091179055565b600080600760009054906101000a90046001600160a01b03166001600160a01b031663d13996086040518163ffffffff1660e01b8152600401602060405180830381865afa158015610600573d6000803e3d6000fd5b505050506040513d601f19601f820116820180604052508101906106249190611d31565b6000908152600d602052604090205492915050565b6009546001600160a01b0316331461065057600080fd5b6001600160a01b03811661066357600080fd5b6001600160a01b03166000818152600360205260408120805460ff191660019081179091556004805491820181559091527f8a35acfbc15ff81a39ae7d344fd709f28e8600b4aa8c65c6b64bfe7fe36bd19b0180546001600160a01b0319169091179055565b6009546001600160a01b031633146106e057600080fd5b6001600160a01b0381166106f357600080fd5b600580546001600160a01b0319166001600160a01b0392909216919091179055565b6000818152600d6020526040812054810361075757506001600160a01b03821660009081526002602090815260408083208484529091529020600101546107a8565b6000828152600d60209081526040808320546001600160a01b0387168452600283528184208685529092529091206001015461079b90670de0b6b3a7640000611d60565b6107a59190611d7f565b90505b92915050565b600062093a806107bc610be5565b6107c69190611da1565b905090565b600481815481106107db57600080fd5b6000918252602090912001546001600160a01b0316905081565b6009546001600160a01b0316331461080c57600080fd5b6040516370a0823160e01b81523060048201526001600160a01b038316906370a0823190602401602060405180830381865afa158015610850573d6000803e3d6000fd5b505050506040513d601f19601f820116820180604052508101906108749190611d31565b81111561088057600080fd5b60095461089a906001600160a01b0384811691168361166f565b604080516001600160a01b0384168152602081018390527f8c1256b8896378cd5044f80c202f9772b9d77dc85c8a6eb51967210b09bfaa28910160405180910390a15050565b6009546001600160a01b031633146108f757600080fd5b805161090a90600a9060208401906119d3565b5050565b6009546001600160a01b031633148061093157506006546001600160a01b031633145b6109825760405162461bcd60e51b815260206004820181905260248201527f6164645265776172643a207065726d697373696f6e2069732064656e6965642160448201526064015b60405180910390fd5b6001600160a01b03811660009081526003602052604090205460ff16156106635760405162461bcd60e51b815260206004820152601b60248201527f52657761726420746f6b656e20616c72656164792065786973747300000000006044820152606401610979565b6000806109f66107ae565b6000938452600e602090815260408086209286529190529092205492915050565b600260005403610a395760405162461bcd60e51b815260040161097990611db9565b600260005581610a7f5760405162461bcd60e51b8152602060048201526011602482015270043616e6e6f74207769746864726177203607c1b6044820152606401610979565b6005546001600160a01b03163314610a9657600080fd5b600062093a80600760009054906101000a90046001600160a01b03166001600160a01b031663d13996086040518163ffffffff1660e01b8152600401602060405180830381865afa158015610aef573d6000803e3d6000fd5b505050506040513d601f19601f82011682018060405250810190610b139190611d31565b610b1d9190611da1565b6000838152600e602090815260408083208484529091529020549091508311610bdb576000818152600d6020908152604080832054858452600e835281842085855290925290912054610b708583611df0565b6000848152600d6020526040902055610b898582611df0565b6000858152600e60209081526040808320878452825291829020929092555186815285917f0c875c8d391179c5cf7ad8303d268efd50b8beb78b671f85cd54bfb91eb8ef40910160405180910390a250505b5050600160005550565b60075460408051631a2732c160e31b815290516000926001600160a01b03169163d13996089160048083019260209291908290030181865afa158015610c2f573d6000803e3d6000fd5b505050506040513d601f19601f820116820180604052508101906107c69190611d31565b600260005403610c755760405162461bcd60e51b815260040161097990611db9565b60026000556005546001600160a01b03163314610c9157600080fd5b60075460408051631a2732c160e31b815290516000926001600160a01b03169163d13996089160048083019260209291908290030181865afa158015610cdb573d6000803e3d6000fd5b505050506040513d601f19601f82011682018060405250810190610cff9190611d31565b6008546040516331a9108f60e11b81526004810186905291925060009182916001600160a01b031690636352211e90602401602060405180830381865afa158015610d4e573d6000803e3d6000fd5b505050506040513d601f19601f82011682018060405250810190610d729190611e07565b905060005b8451811015610e49576000858281518110610d9457610d94611e24565b60200260200101519050610da887826110ff565b93508315610e1257610dc46001600160a01b038216848661166f565b806001600160a01b0316836001600160a01b03167f540798df468d7b23d11f156fdb954cb19ad414d150722a7b6d55ba369dea792e86604051610e0991815260200190565b60405180910390a35b6000878152600c602090815260408083206001600160a01b0390941683529290522084905580610e4181611e3a565b915050610d77565b5050600160005550505050565b600260005403610e785760405162461bcd60e51b815260040161097990611db9565b600260009081556001600160a01b03831681526003602052604090205460ff16610ee45760405162461bcd60e51b815260206004820152601960248201527f72657761726420746f6b656e206e6f74207665726966696564000000000000006044820152606401610979565b610ef96001600160a01b0383163330846116d7565b600062093a80600760009054906101000a90046001600160a01b03166001600160a01b031663d13996086040518163ffffffff1660e01b8152600401602060405180830381865afa158015610f52573d6000803e3d6000fd5b505050506040513d601f19601f82011682018060405250810190610f769190611d31565b610f809190611da1565b9050600154600003610f925760018190555b6001600160a01b0383166000908152600260209081526040808320848452909152902060010154610fc38382611da1565b6001600160a01b038516600090815260026020818152604080842087855290915290912060018101929092554291015561100062093a8083611da1565b6001600160a01b03851660008181526002602090815260408083208784528252918290209390935580519182529181018590529081018390527f6a6f77044107a33658235d41bedbbaf2fe9ccdceb313143c947a5e76e1ec84749060600160405180910390a1505060016000555050565b600a805461107e90611e53565b80601f01602080910402602001604051908101604052809291908181526020018280546110aa90611e53565b80156110f75780601f106110cc576101008083540402835291602001916110f7565b820191906000526020600020905b8154815290600101906020018083116110da57829003601f168201915b505050505081565b60075460408051631a2732c160e31b815290516000928392839283926001600160a01b03169163d13996089160048083019260209291908290030181865afa15801561114f573d6000803e3d6000fd5b505050506040513d601f19601f820116820180604052508101906111739190611d31565b6000878152600c602090815260408083206001600160a01b038a1684529091529020549091508082036111ad5760009450505050506107a8565b6001548110156111cb5762093a806001546111c89190611df0565b90505b603284101561121357808214611213576111e6878783611715565b6111f09084611da1565b92506111ff62093a8082611da1565b90508361120b81611e3a565b9450506111cb565b509095945050505050565b6002600054036112405760405162461bcd60e51b815260040161097990611db9565b6002600055816112835760405162461bcd60e51b815260206004820152600e60248201526d043616e6e6f74207374616b6520360941b6044820152606401610979565b6005546001600160a01b0316331461129a57600080fd5b600062093a80600760009054906101000a90046001600160a01b03166001600160a01b031663d13996086040518163ffffffff1660e01b8152600401602060405180830381865afa1580156112f3573d6000803e3d6000fd5b505050506040513d601f19601f820116820180604052508101906113179190611d31565b6113219190611da1565b6000818152600d602052604090205490915061133d8482611da1565b6000838152600d6020908152604080832093909355858252600e81528282208583529052205461136e908590611da1565b6000848152600e60209081526040808320868452825291829020929092555185815284917f925435fa7e37e5d9555bb18ce0d62bb9627d0846942e58e5291e9a2dded462ed910160405180910390a2505060016000555050565b6002600054036113ea5760405162461bcd60e51b815260040161097990611db9565b600260005560085460405163430c208160e01b8152336004820152602481018490526001600160a01b039091169063430c208190604401602060405180830381865afa15801561143e573d6000803e3d6000fd5b505050506040513d601f19601f820116820180604052508101906114629190611e8d565b61146b57600080fd5b60075460408051631a2732c160e31b815290516000926001600160a01b03169163d13996089160048083019260209291908290030181865afa1580156114b5573d6000803e3d6000fd5b505050506040513d601f19601f820116820180604052508101906114d99190611d31565b6008546040516331a9108f60e11b81526004810186905291925060009182916001600160a01b031690636352211e90602401602060405180830381865afa158015611528573d6000803e3d6000fd5b505050506040513d601f19601f8201168201806040525081019061154c9190611e07565b905060005b8451811015610e4957600085828151811061156e5761156e611e24565b6020026020010151905061158287826110ff565b935083156115ec5761159e6001600160a01b038216848661166f565b806001600160a01b0316836001600160a01b03167f540798df468d7b23d11f156fdb954cb19ad414d150722a7b6d55ba369dea792e866040516115e391815260200190565b60405180910390a35b6000878152600c602090815260408083206001600160a01b039094168352929052208490558061161b81611e3a565b915050611551565b6009546001600160a01b0316331461163a57600080fd5b6001600160a01b03811661164d57600080fd5b600780546001600160a01b0319166001600160a01b0392909216919091179055565b6040516001600160a01b0383166024820152604481018290526116d290849063a9059cbb60e01b906064015b60408051601f198184030181529190526020810180516001600160e01b03166001600160e01b031990931692909217909152611780565b505050565b6040516001600160a01b038085166024830152831660448201526064810182905261170f9085906323b872dd60e01b9060840161169b565b50505050565b6000838152600e6020908152604080832084845290915281205480600003611741576000915050611779565b600061174d8585610715565b90506000670de0b6b3a76400006117648484611d60565b61176e9190611d7f565b935061177992505050565b9392505050565b60006117d5826040518060400160405280602081526020017f5361666545524332303a206c6f772d6c6576656c2063616c6c206661696c6564815250856001600160a01b03166118529092919063ffffffff16565b8051909150156116d257808060200190518101906117f39190611e8d565b6116d25760405162461bcd60e51b815260206004820152602a60248201527f5361666545524332303a204552433230206f7065726174696f6e20646964206e6044820152691bdd081cdd58d8d9595960b21b6064820152608401610979565b60606118618484600085611869565b949350505050565b6060824710156118ca5760405162461bcd60e51b815260206004820152602660248201527f416464726573733a20696e73756666696369656e742062616c616e636520666f6044820152651c8818d85b1b60d21b6064820152608401610979565b6001600160a01b0385163b6119215760405162461bcd60e51b815260206004820152601d60248201527f416464726573733a2063616c6c20746f206e6f6e2d636f6e74726163740000006044820152606401610979565b600080866001600160a01b0316858760405161193d9190611eaf565b60006040518083038185875af1925050503d806000811461197a576040519150601f19603f3d011682016040523d82523d6000602084013e61197f565b606091505b509150915061198f82828661199a565b979650505050505050565b606083156119a9575081611779565b8251156119b95782518084602001fd5b8160405162461bcd60e51b81526004016109799190611cfe565b8280546119df90611e53565b90600052602060002090601f016020900481019282611a015760008555611a47565b82601f10611a1a57805160ff1916838001178555611a47565b82800160010185558215611a47579182015b82811115611a47578251825591602001919060010190611a2c565b50611a53929150611a57565b5090565b5b80821115611a535760008155600101611a58565b6001600160a01b0381168114611a8157600080fd5b50565b60008060408385031215611a9757600080fd5b823591506020830135611aa981611a6c565b809150509250929050565b600060208284031215611ac657600080fd5b813561177981611a6c565b60008060408385031215611ae457600080fd5b8235611aef81611a6c565b946020939093013593505050565b600060208284031215611b0f57600080fd5b5035919050565b60008060408385031215611b2957600080fd5b50508035926020909101359150565b634e487b7160e01b600052604160045260246000fd5b604051601f8201601f1916810167ffffffffffffffff81118282101715611b7757611b77611b38565b604052919050565b60006020808385031215611b9257600080fd5b823567ffffffffffffffff80821115611baa57600080fd5b818501915085601f830112611bbe57600080fd5b813581811115611bd057611bd0611b38565b611be2601f8201601f19168501611b4e565b91508082528684828501011115611bf857600080fd5b8084840185840137600090820190930192909252509392505050565b60008060408385031215611c2757600080fd5b8235915060208084013567ffffffffffffffff80821115611c4757600080fd5b818601915086601f830112611c5b57600080fd5b813581811115611c6d57611c6d611b38565b8060051b9150611c7e848301611b4e565b8181529183018401918481019089841115611c9857600080fd5b938501935b83851015611cc25784359250611cb283611a6c565b8282529385019390850190611c9d565b8096505050505050509250929050565b60005b83811015611ced578181015183820152602001611cd5565b8381111561170f5750506000910152565b6020815260008251806020840152611d1d816040850160208701611cd2565b601f01601f19169190910160400192915050565b600060208284031215611d4357600080fd5b5051919050565b634e487b7160e01b600052601160045260246000fd5b6000816000190483118215151615611d7a57611d7a611d4a565b500290565b600082611d9c57634e487b7160e01b600052601260045260246000fd5b500490565b60008219821115611db457611db4611d4a565b500190565b6020808252601f908201527f5265656e7472616e637947756172643a207265656e7472616e742063616c6c00604082015260600190565b600082821015611e0257611e02611d4a565b500390565b600060208284031215611e1957600080fd5b815161177981611a6c565b634e487b7160e01b600052603260045260246000fd5b600060018201611e4c57611e4c611d4a565b5060010190565b600181811c90821680611e6757607f821691505b602082108103611e8757634e487b7160e01b600052602260045260246000fd5b50919050565b600060208284031215611e9f57600080fd5b8151801515811461177957600080fd5b60008251611ec1818460208701611cd2565b919091019291505056fea264697066735822122041a0f7f739611c10ee4bce444228397dc475a81f7e49e6181f5635a33633a80a64736f6c634300080d0033",
  "linkReferences": {},
  "deployedLinkReferences": {}
}