{
  "_format": "hh-sol-artifact-1",
  "contractName": "Bribe",
  "sourceName": "contracts/Bribes.sol",
  "abi": [
    {
      "inputs": [
        {
          "internalType": "address",
          "name": "_owner",
          "type": "address"
        },
        {
          "internalType": "address",
          "name": "_voter",
          "type": "address"
        },
        {
          "internalType": "address",
          "name": "_bribeFactory",
          "type": "address"
        },
        {
          "internalType": "string",
          "name": "_type",
          "type": "string"
        }
      ],
      "stateMutability": "nonpayable",
      "type": "constructor"
    },
    {
      "anonymous": false,
      "inputs": [
        {
          "indexed": false,
          "internalType": "address",
          "name": "token",
          "type": "address"
        },
        {
          "indexed": false,
          "internalType": "uint256",
          "name": "amount",
          "type": "uint256"
        }
      ],
      "name": "Recovered",
      "type": "event"
    },
    {
      "anonymous": false,
      "inputs": [
        {
          "indexed": false,
          "internalType": "address",
          "name": "rewardToken",
          "type": "address"
        },
        {
          "indexed": false,
          "internalType": "uint256",
          "name": "reward",
          "type": "uint256"
        },
        {
          "indexed": false,
          "internalType": "uint256",
          "name": "startTimestamp",
          "type": "uint256"
        }
      ],
      "name": "RewardAdded",
      "type": "event"
    },
    {
      "anonymous": false,
      "inputs": [
        {
          "indexed": true,
          "internalType": "address",
          "name": "user",
          "type": "address"
        },
        {
          "indexed": true,
          "internalType": "address",
          "name": "rewardsToken",
          "type": "address"
        },
        {
          "indexed": false,
          "internalType": "uint256",
          "name": "reward",
          "type": "uint256"
        }
      ],
      "name": "RewardPaid",
      "type": "event"
    },
    {
      "anonymous": false,
      "inputs": [
        {
          "indexed": true,
          "internalType": "uint256",
          "name": "tokenId",
          "type": "uint256"
        },
        {
          "indexed": false,
          "internalType": "uint256",
          "name": "amount",
          "type": "uint256"
        }
      ],
      "name": "Staked",
      "type": "event"
    },
    {
      "anonymous": false,
      "inputs": [
        {
          "indexed": true,
          "internalType": "uint256",
          "name": "tokenId",
          "type": "uint256"
        },
        {
          "indexed": false,
          "internalType": "uint256",
          "name": "amount",
          "type": "uint256"
        }
      ],
      "name": "Withdrawn",
      "type": "event"
    },
    {
      "inputs": [],
      "name": "TYPE",
      "outputs": [
        {
          "internalType": "string",
          "name": "",
          "type": "string"
        }
      ],
      "stateMutability": "view",
      "type": "function"
    },
    {
      "inputs": [],
      "name": "WEEK",
      "outputs": [
        {
          "internalType": "uint256",
          "name": "",
          "type": "uint256"
        }
      ],
      "stateMutability": "view",
      "type": "function"
    },
    {
      "inputs": [
        {
          "internalType": "uint256",
          "name": "amount",
          "type": "uint256"
        },
        {
          "internalType": "uint256",
          "name": "tokenId",
          "type": "uint256"
        }
      ],
      "name": "_deposit",
      "outputs": [],
      "stateMutability": "nonpayable",
      "type": "function"
    },
    {
      "inputs": [
        {
          "internalType": "uint256",
          "name": "",
          "type": "uint256"
        }
      ],
      "name": "_totalSupply",
      "outputs": [
        {
          "internalType": "uint256",
          "name": "",
          "type": "uint256"
        }
      ],
      "stateMutability": "view",
      "type": "function"
    },
    {
      "inputs": [
        {
          "internalType": "uint256",
          "name": "amount",
          "type": "uint256"
        },
        {
          "internalType": "uint256",
          "name": "tokenId",
          "type": "uint256"
        }
      ],
      "name": "_withdraw",
      "outputs": [],
      "stateMutability": "nonpayable",
      "type": "function"
    },
    {
      "inputs": [
        {
          "internalType": "address",
          "name": "_rewardsToken",
          "type": "address"
        }
      ],
      "name": "addReward",
      "outputs": [],
      "stateMutability": "nonpayable",
      "type": "function"
    },
    {
      "inputs": [
        {
          "internalType": "address",
          "name": "_token",
          "type": "address"
        }
      ],
      "name": "addRewardToken",
      "outputs": [],
      "stateMutability": "nonpayable",
      "type": "function"
    },
    {
      "inputs": [
        {
          "internalType": "uint256",
          "name": "tokenId",
          "type": "uint256"
        }
      ],
      "name": "balanceOf",
      "outputs": [
        {
          "internalType": "uint256",
          "name": "",
          "type": "uint256"
        }
      ],
      "stateMutability": "view",
      "type": "function"
    },
    {
      "inputs": [
        {
          "internalType": "uint256",
          "name": "tokenId",
          "type": "uint256"
        },
        {
          "internalType": "uint256",
          "name": "_timestamp",
          "type": "uint256"
        }
      ],
      "name": "balanceOfAt",
      "outputs": [
        {
          "internalType": "uint256",
          "name": "",
          "type": "uint256"
        }
      ],
      "stateMutability": "view",
      "type": "function"
    },
    {
      "inputs": [],
      "name": "bribeFactory",
      "outputs": [
        {
          "internalType": "address",
          "name": "",
          "type": "address"
        }
      ],
      "stateMutability": "view",
      "type": "function"
    },
    {
      "inputs": [
        {
          "internalType": "uint256",
          "name": "tokenId",
          "type": "uint256"
        },
        {
          "internalType": "address",
          "name": "_rewardToken",
          "type": "address"
        }
      ],
      "name": "earned",
      "outputs": [
        {
          "internalType": "uint256",
          "name": "",
          "type": "uint256"
        }
      ],
      "stateMutability": "view",
      "type": "function"
    },
    {
      "inputs": [],
      "name": "firstBribeTimestamp",
      "outputs": [
        {
          "internalType": "uint256",
          "name": "",
          "type": "uint256"
        }
      ],
      "stateMutability": "view",
      "type": "function"
    },
    {
      "inputs": [],
      "name": "getEpochStart",
      "outputs": [
        {
          "internalType": "uint256",
          "name": "",
          "type": "uint256"
        }
      ],
      "stateMutability": "view",
      "type": "function"
    },
    {
      "inputs": [],
      "name": "getNextEpochStart",
      "outputs": [
        {
          "internalType": "uint256",
          "name": "",
          "type": "uint256"
        }
      ],
      "stateMutability": "view",
      "type": "function"
    },
    {
      "inputs": [
        {
          "internalType": "uint256",
          "name": "tokenId",
          "type": "uint256"
        },
        {
          "internalType": "address[]",
          "name": "tokens",
          "type": "address[]"
        }
      ],
      "name": "getReward",
      "outputs": [],
      "stateMutability": "nonpayable",
      "type": "function"
    },
    {
      "inputs": [
        {
          "internalType": "uint256",
          "name": "tokenId",
          "type": "uint256"
        },
        {
          "internalType": "address[]",
          "name": "tokens",
          "type": "address[]"
        }
      ],
      "name": "getRewardForOwner",
      "outputs": [],
      "stateMutability": "nonpayable",
      "type": "function"
    },
    {
      "inputs": [
        {
          "internalType": "address",
          "name": "",
          "type": "address"
        }
      ],
      "name": "isRewardToken",
      "outputs": [
        {
          "internalType": "bool",
          "name": "",
          "type": "bool"
        }
      ],
      "stateMutability": "view",
      "type": "function"
    },
    {
      "inputs": [],
      "name": "minter",
      "outputs": [
        {
          "internalType": "address",
          "name": "",
          "type": "address"
        }
      ],
      "stateMutability": "view",
      "type": "function"
    },
    {
      "inputs": [
        {
          "internalType": "address",
          "name": "_rewardsToken",
          "type": "address"
        },
        {
          "internalType": "uint256",
          "name": "reward",
          "type": "uint256"
        }
      ],
      "name": "notifyRewardAmount",
      "outputs": [],
      "stateMutability": "nonpayable",
      "type": "function"
    },
    {
      "inputs": [],
      "name": "owner",
      "outputs": [
        {
          "internalType": "address",
          "name": "",
          "type": "address"
        }
      ],
      "stateMutability": "view",
      "type": "function"
    },
    {
      "inputs": [
        {
          "internalType": "address",
          "name": "tokenAddress",
          "type": "address"
        },
        {
          "internalType": "uint256",
          "name": "tokenAmount",
          "type": "uint256"
        }
      ],
      "name": "recoverERC20",
      "outputs": [],
      "stateMutability": "nonpayable",
      "type": "function"
    },
    {
      "inputs": [
        {
          "internalType": "address",
          "name": "",
          "type": "address"
        },
        {
          "internalType": "uint256",
          "name": "",
          "type": "uint256"
        }
      ],
      "name": "rewardData",
      "outputs": [
        {
          "internalType": "uint256",
          "name": "periodFinish",
          "type": "uint256"
        },
        {
          "internalType": "uint256",
          "name": "rewardsPerEpoch",
          "type": "uint256"
        },
        {
          "internalType": "uint256",
          "name": "lastUpdateTime",
          "type": "uint256"
        }
      ],
      "stateMutability": "view",
      "type": "function"
    },
    {
      "inputs": [
        {
          "internalType": "address",
          "name": "_rewardsToken",
          "type": "address"
        },
        {
          "internalType": "uint256",
          "name": "_timestmap",
          "type": "uint256"
        }
      ],
      "name": "rewardPerToken",
      "outputs": [
        {
          "internalType": "uint256",
          "name": "",
          "type": "uint256"
        }
      ],
      "stateMutability": "view",
      "type": "function"
    },
    {
      "inputs": [
        {
          "internalType": "uint256",
          "name": "",
          "type": "uint256"
        }
      ],
      "name": "rewardTokens",
      "outputs": [
        {
          "internalType": "address",
          "name": "",
          "type": "address"
        }
      ],
      "stateMutability": "view",
      "type": "function"
    },
    {
      "inputs": [],
      "name": "rewardsListLength",
      "outputs": [
        {
          "internalType": "uint256",
          "name": "",
          "type": "uint256"
        }
      ],
      "stateMutability": "view",
      "type": "function"
    },
    {
      "inputs": [
        {
          "internalType": "address",
          "name": "_minter",
          "type": "address"
        }
      ],
      "name": "setMinter",
      "outputs": [],
      "stateMutability": "nonpayable",
      "type": "function"
    },
    {
      "inputs": [
        {
          "internalType": "address",
          "name": "_owner",
          "type": "address"
        }
      ],
      "name": "setOwner",
      "outputs": [],
      "stateMutability": "nonpayable",
      "type": "function"
    },
    {
      "inputs": [
        {
          "internalType": "address",
          "name": "_Voter",
          "type": "address"
        }
      ],
      "name": "setVoter",
      "outputs": [],
      "stateMutability": "nonpayable",
      "type": "function"
    },
    {
      "inputs": [],
      "name": "totalSupply",
      "outputs": [
        {
          "internalType": "uint256",
          "name": "",
          "type": "uint256"
        }
      ],
      "stateMutability": "view",
      "type": "function"
    },
    {
      "inputs": [
        {
          "internalType": "uint256",
          "name": "_timestamp",
          "type": "uint256"
        }
      ],
      "name": "totalSupplyAt",
      "outputs": [
        {
          "internalType": "uint256",
          "name": "",
          "type": "uint256"
        }
      ],
      "stateMutability": "view",
      "type": "function"
    },
    {
      "inputs": [
        {
          "internalType": "uint256",
          "name": "",
          "type": "uint256"
        },
        {
          "internalType": "address",
          "name": "",
          "type": "address"
        }
      ],
      "name": "userRewardPerTokenPaid",
      "outputs": [
        {
          "internalType": "uint256",
          "name": "",
          "type": "uint256"
        }
      ],
      "stateMutability": "view",
      "type": "function"
    },
    {
      "inputs": [
        {
          "internalType": "uint256",
          "name": "",
          "type": "uint256"
        },
        {
          "internalType": "address",
          "name": "",
          "type": "address"
        }
      ],
      "name": "userTimestamp",
      "outputs": [
        {
          "internalType": "uint256",
          "name": "",
          "type": "uint256"
        }
      ],
      "stateMutability": "view",
      "type": "function"
    },
    {
      "inputs": [],
      "name": "ve",
      "outputs": [
        {
          "internalType": "address",
          "name": "",
          "type": "address"
        }
      ],
      "stateMutability": "view",
      "type": "function"
    },
    {
      "inputs": [],
      "name": "voter",
      "outputs": [
        {
          "internalType": "address",
          "name": "",
          "type": "address"
        }
      ],
      "stateMutability": "view",
      "type": "function"
    }
  ],
  "bytecode": "0x60806040523480156200001157600080fd5b506040516200217a3803806200217a8339810160408190526200003491620002d6565b60016000556001600160a01b038216158015906200005a57506001600160a01b03831615155b80156200006f57506001600160a01b03841615155b6200007957600080fd5b600580546001600160a01b038086166001600160a01b031992831681179093556006805491861691909216179055600060015560408051638dd598fb60e01b81529051638dd598fb916004818101926020929091908290030181865afa158015620000e8573d6000803e3d6000fd5b505050506040513d601f19601f820116820180604052508101906200010e9190620003eb565b600860006101000a8154816001600160a01b0302191690836001600160a01b03160217905550826001600160a01b031663075461726040518163ffffffff1660e01b8152600401602060405180830381865afa15801562000173573d6000803e3d6000fd5b505050506040513d601f19601f82011682018060405250810190620001999190620003eb565b600780546001600160a01b0319166001600160a01b03929092169182179055620001c257600080fd5b600980546001600160a01b0319166001600160a01b0386161790558051620001f290600a906020840190620001fd565b50505050506200044c565b8280546200020b9062000410565b90600052602060002090601f0160209004810192826200022f57600085556200027a565b82601f106200024a57805160ff19168380011785556200027a565b828001600101855582156200027a579182015b828111156200027a5782518255916020019190600101906200025d565b50620002889291506200028c565b5090565b5b808211156200028857600081556001016200028d565b80516001600160a01b0381168114620002bb57600080fd5b919050565b634e487b7160e01b600052604160045260246000fd5b60008060008060808587031215620002ed57600080fd5b620002f885620002a3565b9350602062000309818701620002a3565b93506200031960408701620002a3565b60608701519093506001600160401b03808211156200033757600080fd5b818801915088601f8301126200034c57600080fd5b815181811115620003615762000361620002c0565b604051601f8201601f19908116603f011681019083821181831017156200038c576200038c620002c0565b816040528281528b86848701011115620003a557600080fd5b600093505b82841015620003c95784840186015181850187015292850192620003aa565b82841115620003db5760008684830101525b989b979a50959850505050505050565b600060208284031215620003fe57600080fd5b6200040982620002a3565b9392505050565b600181811c908216806200042557607f821691505b6020821081036200044657634e487b7160e01b600052602260045260246000fd5b50919050565b611d1e806200045c6000396000f3fe608060405234801561001057600080fd5b50600436106102055760003560e01c80638f2b554c1161011a578063b66503cf116100ad578063eb4a78e01161007c578063eb4a78e0146104ea578063f3207723146104fd578063f4359ce514610510578063f5f8d3651461051a578063fca3b5aa1461052d57600080fd5b8063b66503cf146104a7578063bb24fe8a146104ba578063e39c08fc146104cf578063e6886396146104e257600080fd5b80639e2bf22c116100e95780639e2bf22c14610446578063a4a3e03514610459578063a7852afa14610461578063b5fd73f81461047457600080fd5b80638f2b554c146103d5578063981b24d0146104005780639c9b2e21146104205780639cc7f7081461043357600080fd5b80634bc2a6571161019d57806365c5f94a1161016c57806365c5f94a146103695780637bb7bed114610371578063853c8aeb146103845780638980f11f146103af5780638da5cb5b146103c257600080fd5b80634bc2a6571461031a57806355288eea1461032d57806357bc5614146103365780635977e82a1461034957600080fd5b80631c03e6cc116101d95780631c03e6cc146102905780631f850716146102a357806338174862146102b657806346c96aac1461030757600080fd5b8062a47ddd1461020a578063075461721461024857806313af40351461027357806318160ddd14610288575b600080fd5b61023561021836600461198b565b600b60209081526000928352604080842090915290825290205481565b6040519081526020015b60405180910390f35b60075461025b906001600160a01b031681565b6040516001600160a01b03909116815260200161023f565b6102866102813660046119bb565b610540565b005b61023561058c565b61028661029e3660046119bb565b61061b565b60085461025b906001600160a01b031681565b6102ec6102c43660046119d8565b6002602081815260009384526040808520909152918352912080546001820154919092015483565b6040805193845260208401929092529082015260600161023f565b60055461025b906001600160a01b031681565b6102866103283660046119bb565b6106ab565b61023560015481565b6102356103443660046119d8565b6106f7565b610235610357366004611a04565b600d6020526000908152604090205481565b610235610790565b61025b61037f366004611a04565b6107ad565b610235610392366004611a1d565b6000918252600e6020908152604080842092845291905290205490565b6102866103bd3660046119d8565b6107d7565b60095461025b906001600160a01b031681565b6102356103e336600461198b565b600c60209081526000928352604080842090915290825290205481565b61023561040e366004611a04565b6000908152600d602052604090205490565b61028661042e3660046119bb565b6108c2565b610235610441366004611a04565b61099f565b610286610454366004611a1d565b6109cb565b610235610b82565b61028661046f366004611a55565b610bf0565b6104976104823660046119bb565b60036020526000908152604090205460ff1681565b604051901515815260200161023f565b6102866104b53660046119d8565b610dd5565b6104c2610fd3565b60405161023f9190611b52565b6102356104dd36600461198b565b611061565b600454610235565b60065461025b906001600160a01b031681565b61028661050b366004611a1d565b611180565b61023562093a8081565b610286610528366004611a55565b61130f565b61028661053b3660046119bb565b61154b565b6009546001600160a01b0316331461055757600080fd5b6001600160a01b03811661056a57600080fd5b600980546001600160a01b0319166001600160a01b0392909216919091179055565b600080600760009054906101000a90046001600160a01b03166001600160a01b031663d13996086040518163ffffffff1660e01b8152600401602060405180830381865afa1580156105e2573d6000803e3d6000fd5b505050506040513d601f19601f820116820180604052508101906106069190611b85565b6000908152600d602052604090205492915050565b6009546001600160a01b0316331461063257600080fd5b6001600160a01b03811661064557600080fd5b6001600160a01b03166000818152600360205260408120805460ff191660019081179091556004805491820181559091527f8a35acfbc15ff81a39ae7d344fd709f28e8600b4aa8c65c6b64bfe7fe36bd19b0180546001600160a01b0319169091179055565b6009546001600160a01b031633146106c257600080fd5b6001600160a01b0381166106d557600080fd5b600580546001600160a01b0319166001600160a01b0392909216919091179055565b6000818152600d6020526040812054810361073957506001600160a01b038216600090815260026020908152604080832084845290915290206001015461078a565b6000828152600d60209081526040808320546001600160a01b0387168452600283528184208685529092529091206001015461077d90670de0b6b3a7640000611bb4565b6107879190611bd3565b90505b92915050565b600062093a8061079e610b82565b6107a89190611bf5565b905090565b600481815481106107bd57600080fd5b6000918252602090912001546001600160a01b0316905081565b6009546001600160a01b031633146107ee57600080fd5b6040516370a0823160e01b81523060048201526001600160a01b038316906370a0823190602401602060405180830381865afa158015610832573d6000803e3d6000fd5b505050506040513d601f19601f820116820180604052508101906108569190611b85565b81111561086257600080fd5b60095461087c906001600160a01b03848116911683611597565b604080516001600160a01b0384168152602081018390527f8c1256b8896378cd5044f80c202f9772b9d77dc85c8a6eb51967210b09bfaa28910160405180910390a15050565b6009546001600160a01b03163314806108e557506006546001600160a01b031633145b6109365760405162461bcd60e51b815260206004820181905260248201527f6164645265776172643a207065726d697373696f6e2069732064656e6965642160448201526064015b60405180910390fd5b6001600160a01b03811660009081526003602052604090205460ff16156106455760405162461bcd60e51b815260206004820152601b60248201527f52657761726420746f6b656e20616c7265616479206578697374730000000000604482015260640161092d565b6000806109aa610790565b6000938452600e602090815260408086209286529190529092205492915050565b6109d36115ff565b60008211610a175760405162461bcd60e51b8152602060048201526011602482015270043616e6e6f74207769746864726177203607c1b604482015260640161092d565b6005546001600160a01b03163314610a2e57600080fd5b600062093a80600760009054906101000a90046001600160a01b03166001600160a01b031663d13996086040518163ffffffff1660e01b8152600401602060405180830381865afa158015610a87573d6000803e3d6000fd5b505050506040513d601f19601f82011682018060405250810190610aab9190611b85565b610ab59190611bf5565b6000838152600e602090815260408083208484529091529020549091508311610b73576000818152600d6020908152604080832054858452600e835281842085855290925290912054610b088583611c0d565b6000848152600d6020526040902055610b218582611c0d565b6000858152600e60209081526040808320878452825291829020929092555186815285917f0c875c8d391179c5cf7ad8303d268efd50b8beb78b671f85cd54bfb91eb8ef40910160405180910390a250505b50610b7e6001600055565b5050565b60075460408051631a2732c160e31b815290516000926001600160a01b03169163d13996089160048083019260209291908290030181865afa158015610bcc573d6000803e3d6000fd5b505050506040513d601f19601f820116820180604052508101906107a89190611b85565b610bf86115ff565b6005546001600160a01b03163314610c0f57600080fd5b60075460408051631a2732c160e31b815290516000926001600160a01b03169163d13996089160048083019260209291908290030181865afa158015610c59573d6000803e3d6000fd5b505050506040513d601f19601f82011682018060405250810190610c7d9190611b85565b6008546040516331a9108f60e11b81526004810186905291925060009182916001600160a01b031690636352211e90602401602060405180830381865afa158015610ccc573d6000803e3d6000fd5b505050506040513d601f19601f82011682018060405250810190610cf09190611c24565b905060005b8451811015610dc7576000858281518110610d1257610d12611c41565b60200260200101519050610d268782611061565b93508315610d9057610d426001600160a01b0382168486611597565b806001600160a01b0316836001600160a01b03167f540798df468d7b23d11f156fdb954cb19ad414d150722a7b6d55ba369dea792e86604051610d8791815260200190565b60405180910390a35b6000878152600c602090815260408083206001600160a01b0390941683529290522084905580610dbf81611c57565b915050610cf5565b50505050610b7e6001600055565b610ddd6115ff565b6001600160a01b03821660009081526003602052604090205460ff16610e455760405162461bcd60e51b815260206004820152601960248201527f72657761726420746f6b656e206e6f7420766572696669656400000000000000604482015260640161092d565b610e5a6001600160a01b038316333084611658565b600062093a80600760009054906101000a90046001600160a01b03166001600160a01b031663d13996086040518163ffffffff1660e01b8152600401602060405180830381865afa158015610eb3573d6000803e3d6000fd5b505050506040513d601f19601f82011682018060405250810190610ed79190611b85565b610ee19190611bf5565b9050600154600003610ef35760018190555b6001600160a01b0383166000908152600260209081526040808320848452909152902060010154610f248382611bf5565b6001600160a01b0385166000908152600260208181526040808420878552909152909120600181019290925542910155610f6162093a8083611bf5565b6001600160a01b03851660008181526002602090815260408083208784528252918290209390935580519182529181018590529081018390527f6a6f77044107a33658235d41bedbbaf2fe9ccdceb313143c947a5e76e1ec84749060600160405180910390a15050610b7e6001600055565b600a8054610fe090611c70565b80601f016020809104026020016040519081016040528092919081815260200182805461100c90611c70565b80156110595780601f1061102e57610100808354040283529160200191611059565b820191906000526020600020905b81548152906001019060200180831161103c57829003601f168201915b505050505081565b60075460408051631a2732c160e31b815290516000928392839283926001600160a01b03169163d13996089160048083019260209291908290030181865afa1580156110b1573d6000803e3d6000fd5b505050506040513d601f19601f820116820180604052508101906110d59190611b85565b6000878152600c602090815260408083206001600160a01b038a16845290915290205490915080820361110f57600094505050505061078a565b60015481101561112d5762093a8060015461112a9190611c0d565b90505b60328410156111755780821461117557611148878783611696565b6111529084611bf5565b925061116162093a8082611bf5565b90508361116d81611c57565b94505061112d565b509095945050505050565b6111886115ff565b600082116111c95760405162461bcd60e51b815260206004820152600e60248201526d043616e6e6f74207374616b6520360941b604482015260640161092d565b6005546001600160a01b031633146111e057600080fd5b600062093a80600760009054906101000a90046001600160a01b03166001600160a01b031663d13996086040518163ffffffff1660e01b8152600401602060405180830381865afa158015611239573d6000803e3d6000fd5b505050506040513d601f19601f8201168201806040525081019061125d9190611b85565b6112679190611bf5565b6000818152600d60205260409020549091506112838482611bf5565b6000838152600d6020908152604080832093909355858252600e8152828220858352905220546112b4908590611bf5565b6000848152600e60209081526040808320868452825291829020929092555185815284917f925435fa7e37e5d9555bb18ce0d62bb9627d0846942e58e5291e9a2dded462ed910160405180910390a25050610b7e6001600055565b6113176115ff565b60085460405163430c208160e01b8152336004820152602481018490526001600160a01b039091169063430c208190604401602060405180830381865afa158015611366573d6000803e3d6000fd5b505050506040513d601f19601f8201168201806040525081019061138a9190611caa565b61139357600080fd5b60075460408051631a2732c160e31b815290516000926001600160a01b03169163d13996089160048083019260209291908290030181865afa1580156113dd573d6000803e3d6000fd5b505050506040513d601f19601f820116820180604052508101906114019190611b85565b6008546040516331a9108f60e11b81526004810186905291925060009182916001600160a01b031690636352211e90602401602060405180830381865afa158015611450573d6000803e3d6000fd5b505050506040513d601f19601f820116820180604052508101906114749190611c24565b905060005b8451811015610dc757600085828151811061149657611496611c41565b602002602001015190506114aa8782611061565b93508315611514576114c66001600160a01b0382168486611597565b806001600160a01b0316836001600160a01b03167f540798df468d7b23d11f156fdb954cb19ad414d150722a7b6d55ba369dea792e8660405161150b91815260200190565b60405180910390a35b6000878152600c602090815260408083206001600160a01b039094168352929052208490558061154381611c57565b915050611479565b6009546001600160a01b0316331461156257600080fd5b6001600160a01b03811661157557600080fd5b600780546001600160a01b0319166001600160a01b0392909216919091179055565b6040516001600160a01b0383166024820152604481018290526115fa90849063a9059cbb60e01b906064015b60408051601f198184030181529190526020810180516001600160e01b03166001600160e01b031990931692909217909152611701565b505050565b6002600054036116515760405162461bcd60e51b815260206004820152601f60248201527f5265656e7472616e637947756172643a207265656e7472616e742063616c6c00604482015260640161092d565b6002600055565b6040516001600160a01b03808516602483015283166044820152606481018290526116909085906323b872dd60e01b906084016115c3565b50505050565b6000838152600e60209081526040808320848452909152812054806000036116c25760009150506116fa565b60006116ce85856106f7565b90506000670de0b6b3a76400006116e58484611bb4565b6116ef9190611bd3565b93506116fa92505050565b9392505050565b6000611756826040518060400160405280602081526020017f5361666545524332303a206c6f772d6c6576656c2063616c6c206661696c6564815250856001600160a01b03166117d39092919063ffffffff16565b8051909150156115fa57808060200190518101906117749190611caa565b6115fa5760405162461bcd60e51b815260206004820152602a60248201527f5361666545524332303a204552433230206f7065726174696f6e20646964206e6044820152691bdd081cdd58d8d9595960b21b606482015260840161092d565b60606117e284846000856117ea565b949350505050565b60608247101561184b5760405162461bcd60e51b815260206004820152602660248201527f416464726573733a20696e73756666696369656e742062616c616e636520666f6044820152651c8818d85b1b60d21b606482015260840161092d565b600080866001600160a01b031685876040516118679190611ccc565b60006040518083038185875af1925050503d80600081146118a4576040519150601f19603f3d011682016040523d82523d6000602084013e6118a9565b606091505b50915091506118ba878383876118c5565b979650505050505050565b6060831561193457825160000361192d576001600160a01b0385163b61192d5760405162461bcd60e51b815260206004820152601d60248201527f416464726573733a2063616c6c20746f206e6f6e2d636f6e7472616374000000604482015260640161092d565b50816117e2565b6117e283838151156119495781518083602001fd5b8060405162461bcd60e51b815260040161092d9190611b52565b6001600160a01b038116811461197857600080fd5b50565b803561198681611963565b919050565b6000806040838503121561199e57600080fd5b8235915060208301356119b081611963565b809150509250929050565b6000602082840312156119cd57600080fd5b81356116fa81611963565b600080604083850312156119eb57600080fd5b82356119f681611963565b946020939093013593505050565b600060208284031215611a1657600080fd5b5035919050565b60008060408385031215611a3057600080fd5b50508035926020909101359150565b634e487b7160e01b600052604160045260246000fd5b60008060408385031215611a6857600080fd5b8235915060208084013567ffffffffffffffff80821115611a8857600080fd5b818601915086601f830112611a9c57600080fd5b813581811115611aae57611aae611a3f565b8060051b604051601f19603f83011681018181108582111715611ad357611ad3611a3f565b604052918252848201925083810185019189831115611af157600080fd5b938501935b82851015611b1657611b078561197b565b84529385019392850192611af6565b8096505050505050509250929050565b60005b83811015611b41578181015183820152602001611b29565b838111156116905750506000910152565b6020815260008251806020840152611b71816040850160208701611b26565b601f01601f19169190910160400192915050565b600060208284031215611b9757600080fd5b5051919050565b634e487b7160e01b600052601160045260246000fd5b6000816000190483118215151615611bce57611bce611b9e565b500290565b600082611bf057634e487b7160e01b600052601260045260246000fd5b500490565b60008219821115611c0857611c08611b9e565b500190565b600082821015611c1f57611c1f611b9e565b500390565b600060208284031215611c3657600080fd5b81516116fa81611963565b634e487b7160e01b600052603260045260246000fd5b600060018201611c6957611c69611b9e565b5060010190565b600181811c90821680611c8457607f821691505b602082108103611ca457634e487b7160e01b600052602260045260246000fd5b50919050565b600060208284031215611cbc57600080fd5b815180151581146116fa57600080fd5b60008251611cde818460208701611b26565b919091019291505056fea26469706673582212202de17c50da40f792cd28ba6eb50f7887dcd139c0809e5f065ba647be498968fb64736f6c634300080d0033",
  "linkReferences": {},
  "deployedLinkReferences": {}
}