{
  "_format": "hh-sol-artifact-1",
  "contractName": "Bribe",
  "sourceName": "contracts/Bribes.sol",
  "abi": [
    {
      "inputs": [
        {
          "internalType": "address",
          "name": "_owner",
          "type": "address"
        },
        {
          "internalType": "address",
          "name": "_voter",
          "type": "address"
        },
        {
          "internalType": "address",
          "name": "_bribeFactory",
          "type": "address"
        },
        {
          "internalType": "string",
          "name": "_type",
          "type": "string"
        }
      ],
      "stateMutability": "nonpayable",
      "type": "constructor"
    },
    {
      "anonymous": false,
      "inputs": [
        {
          "indexed": false,
          "internalType": "address",
          "name": "token",
          "type": "address"
        },
        {
          "indexed": false,
          "internalType": "uint256",
          "name": "amount",
          "type": "uint256"
        }
      ],
      "name": "Recovered",
      "type": "event"
    },
    {
      "anonymous": false,
      "inputs": [
        {
          "indexed": false,
          "internalType": "address",
          "name": "rewardToken",
          "type": "address"
        },
        {
          "indexed": false,
          "internalType": "uint256",
          "name": "reward",
          "type": "uint256"
        },
        {
          "indexed": false,
          "internalType": "uint256",
          "name": "startTimestamp",
          "type": "uint256"
        }
      ],
      "name": "RewardAdded",
      "type": "event"
    },
    {
      "anonymous": false,
      "inputs": [
        {
          "indexed": true,
          "internalType": "address",
          "name": "user",
          "type": "address"
        },
        {
          "indexed": true,
          "internalType": "address",
          "name": "rewardsToken",
          "type": "address"
        },
        {
          "indexed": false,
          "internalType": "uint256",
          "name": "reward",
          "type": "uint256"
        }
      ],
      "name": "RewardPaid",
      "type": "event"
    },
    {
      "anonymous": false,
      "inputs": [
        {
          "indexed": true,
          "internalType": "uint256",
          "name": "tokenId",
          "type": "uint256"
        },
        {
          "indexed": false,
          "internalType": "uint256",
          "name": "amount",
          "type": "uint256"
        }
      ],
      "name": "Staked",
      "type": "event"
    },
    {
      "anonymous": false,
      "inputs": [
        {
          "indexed": true,
          "internalType": "uint256",
          "name": "tokenId",
          "type": "uint256"
        },
        {
          "indexed": false,
          "internalType": "uint256",
          "name": "amount",
          "type": "uint256"
        }
      ],
      "name": "Withdrawn",
      "type": "event"
    },
    {
      "inputs": [],
      "name": "TYPE",
      "outputs": [
        {
          "internalType": "string",
          "name": "",
          "type": "string"
        }
      ],
      "stateMutability": "view",
      "type": "function"
    },
    {
      "inputs": [],
      "name": "WEEK",
      "outputs": [
        {
          "internalType": "uint256",
          "name": "",
          "type": "uint256"
        }
      ],
      "stateMutability": "view",
      "type": "function"
    },
    {
      "inputs": [
        {
          "internalType": "uint256",
          "name": "",
          "type": "uint256"
        }
      ],
      "name": "_totalSupply",
      "outputs": [
        {
          "internalType": "uint256",
          "name": "",
          "type": "uint256"
        }
      ],
      "stateMutability": "view",
      "type": "function"
    },
    {
      "inputs": [
        {
          "internalType": "address",
          "name": "_rewardsToken",
          "type": "address"
        }
      ],
      "name": "addReward",
      "outputs": [],
      "stateMutability": "nonpayable",
      "type": "function"
    },
    {
      "inputs": [
        {
          "internalType": "address",
          "name": "_token",
          "type": "address"
        }
      ],
      "name": "addRewardToken",
      "outputs": [],
      "stateMutability": "nonpayable",
      "type": "function"
    },
    {
      "inputs": [
        {
          "internalType": "uint256",
          "name": "tokenId",
          "type": "uint256"
        }
      ],
      "name": "balanceOf",
      "outputs": [
        {
          "internalType": "uint256",
          "name": "",
          "type": "uint256"
        }
      ],
      "stateMutability": "view",
      "type": "function"
    },
    {
      "inputs": [
        {
          "internalType": "uint256",
          "name": "tokenId",
          "type": "uint256"
        },
        {
          "internalType": "uint256",
          "name": "_timestamp",
          "type": "uint256"
        }
      ],
      "name": "balanceOfAt",
      "outputs": [
        {
          "internalType": "uint256",
          "name": "",
          "type": "uint256"
        }
      ],
      "stateMutability": "view",
      "type": "function"
    },
    {
      "inputs": [],
      "name": "bribeFactory",
      "outputs": [
        {
          "internalType": "address",
          "name": "",
          "type": "address"
        }
      ],
      "stateMutability": "view",
      "type": "function"
    },
    {
      "inputs": [
        {
          "internalType": "uint256",
          "name": "amount",
          "type": "uint256"
        },
        {
          "internalType": "uint256",
          "name": "tokenId",
          "type": "uint256"
        }
      ],
      "name": "deposit",
      "outputs": [],
      "stateMutability": "nonpayable",
      "type": "function"
    },
    {
      "inputs": [
        {
          "internalType": "uint256",
          "name": "tokenId",
          "type": "uint256"
        },
        {
          "internalType": "address",
          "name": "_rewardToken",
          "type": "address"
        }
      ],
      "name": "earned",
      "outputs": [
        {
          "internalType": "uint256",
          "name": "",
          "type": "uint256"
        }
      ],
      "stateMutability": "view",
      "type": "function"
    },
    {
      "inputs": [],
      "name": "firstBribeTimestamp",
      "outputs": [
        {
          "internalType": "uint256",
          "name": "",
          "type": "uint256"
        }
      ],
      "stateMutability": "view",
      "type": "function"
    },
    {
      "inputs": [],
      "name": "getEpochStart",
      "outputs": [
        {
          "internalType": "uint256",
          "name": "",
          "type": "uint256"
        }
      ],
      "stateMutability": "view",
      "type": "function"
    },
    {
      "inputs": [],
      "name": "getNextEpochStart",
      "outputs": [
        {
          "internalType": "uint256",
          "name": "",
          "type": "uint256"
        }
      ],
      "stateMutability": "view",
      "type": "function"
    },
    {
      "inputs": [
        {
          "internalType": "uint256",
          "name": "tokenId",
          "type": "uint256"
        },
        {
          "internalType": "address[]",
          "name": "tokens",
          "type": "address[]"
        }
      ],
      "name": "getReward",
      "outputs": [],
      "stateMutability": "nonpayable",
      "type": "function"
    },
    {
      "inputs": [
        {
          "internalType": "uint256",
          "name": "tokenId",
          "type": "uint256"
        },
        {
          "internalType": "address[]",
          "name": "tokens",
          "type": "address[]"
        }
      ],
      "name": "getRewardForOwner",
      "outputs": [],
      "stateMutability": "nonpayable",
      "type": "function"
    },
    {
      "inputs": [
        {
          "internalType": "address",
          "name": "",
          "type": "address"
        }
      ],
      "name": "isRewardToken",
      "outputs": [
        {
          "internalType": "bool",
          "name": "",
          "type": "bool"
        }
      ],
      "stateMutability": "view",
      "type": "function"
    },
    {
      "inputs": [],
      "name": "minter",
      "outputs": [
        {
          "internalType": "address",
          "name": "",
          "type": "address"
        }
      ],
      "stateMutability": "view",
      "type": "function"
    },
    {
      "inputs": [
        {
          "internalType": "address",
          "name": "_rewardsToken",
          "type": "address"
        },
        {
          "internalType": "uint256",
          "name": "reward",
          "type": "uint256"
        }
      ],
      "name": "notifyRewardAmount",
      "outputs": [],
      "stateMutability": "nonpayable",
      "type": "function"
    },
    {
      "inputs": [],
      "name": "owner",
      "outputs": [
        {
          "internalType": "address",
          "name": "",
          "type": "address"
        }
      ],
      "stateMutability": "view",
      "type": "function"
    },
    {
      "inputs": [
        {
          "internalType": "address",
          "name": "tokenAddress",
          "type": "address"
        },
        {
          "internalType": "uint256",
          "name": "tokenAmount",
          "type": "uint256"
        }
      ],
      "name": "recoverERC20",
      "outputs": [],
      "stateMutability": "nonpayable",
      "type": "function"
    },
    {
      "inputs": [
        {
          "internalType": "address",
          "name": "",
          "type": "address"
        },
        {
          "internalType": "uint256",
          "name": "",
          "type": "uint256"
        }
      ],
      "name": "rewardData",
      "outputs": [
        {
          "internalType": "uint256",
          "name": "periodFinish",
          "type": "uint256"
        },
        {
          "internalType": "uint256",
          "name": "rewardsPerEpoch",
          "type": "uint256"
        },
        {
          "internalType": "uint256",
          "name": "lastUpdateTime",
          "type": "uint256"
        }
      ],
      "stateMutability": "view",
      "type": "function"
    },
    {
      "inputs": [
        {
          "internalType": "address",
          "name": "_rewardsToken",
          "type": "address"
        },
        {
          "internalType": "uint256",
          "name": "_timestmap",
          "type": "uint256"
        }
      ],
      "name": "rewardPerToken",
      "outputs": [
        {
          "internalType": "uint256",
          "name": "",
          "type": "uint256"
        }
      ],
      "stateMutability": "view",
      "type": "function"
    },
    {
      "inputs": [
        {
          "internalType": "uint256",
          "name": "",
          "type": "uint256"
        }
      ],
      "name": "rewardTokens",
      "outputs": [
        {
          "internalType": "address",
          "name": "",
          "type": "address"
        }
      ],
      "stateMutability": "view",
      "type": "function"
    },
    {
      "inputs": [],
      "name": "rewardsListLength",
      "outputs": [
        {
          "internalType": "uint256",
          "name": "",
          "type": "uint256"
        }
      ],
      "stateMutability": "view",
      "type": "function"
    },
    {
      "inputs": [
        {
          "internalType": "address",
          "name": "_minter",
          "type": "address"
        }
      ],
      "name": "setMinter",
      "outputs": [],
      "stateMutability": "nonpayable",
      "type": "function"
    },
    {
      "inputs": [
        {
          "internalType": "address",
          "name": "_owner",
          "type": "address"
        }
      ],
      "name": "setOwner",
      "outputs": [],
      "stateMutability": "nonpayable",
      "type": "function"
    },
    {
      "inputs": [
        {
          "internalType": "string",
          "name": "_type",
          "type": "string"
        }
      ],
      "name": "setType",
      "outputs": [],
      "stateMutability": "nonpayable",
      "type": "function"
    },
    {
      "inputs": [
        {
          "internalType": "address",
          "name": "_Voter",
          "type": "address"
        }
      ],
      "name": "setVoter",
      "outputs": [],
      "stateMutability": "nonpayable",
      "type": "function"
    },
    {
      "inputs": [],
      "name": "totalSupply",
      "outputs": [
        {
          "internalType": "uint256",
          "name": "",
          "type": "uint256"
        }
      ],
      "stateMutability": "view",
      "type": "function"
    },
    {
      "inputs": [
        {
          "internalType": "uint256",
          "name": "_timestamp",
          "type": "uint256"
        }
      ],
      "name": "totalSupplyAt",
      "outputs": [
        {
          "internalType": "uint256",
          "name": "",
          "type": "uint256"
        }
      ],
      "stateMutability": "view",
      "type": "function"
    },
    {
      "inputs": [
        {
          "internalType": "uint256",
          "name": "",
          "type": "uint256"
        },
        {
          "internalType": "address",
          "name": "",
          "type": "address"
        }
      ],
      "name": "userRewardPerTokenPaid",
      "outputs": [
        {
          "internalType": "uint256",
          "name": "",
          "type": "uint256"
        }
      ],
      "stateMutability": "view",
      "type": "function"
    },
    {
      "inputs": [
        {
          "internalType": "uint256",
          "name": "",
          "type": "uint256"
        },
        {
          "internalType": "address",
          "name": "",
          "type": "address"
        }
      ],
      "name": "userTimestamp",
      "outputs": [
        {
          "internalType": "uint256",
          "name": "",
          "type": "uint256"
        }
      ],
      "stateMutability": "view",
      "type": "function"
    },
    {
      "inputs": [],
      "name": "ve",
      "outputs": [
        {
          "internalType": "address",
          "name": "",
          "type": "address"
        }
      ],
      "stateMutability": "view",
      "type": "function"
    },
    {
      "inputs": [],
      "name": "voter",
      "outputs": [
        {
          "internalType": "address",
          "name": "",
          "type": "address"
        }
      ],
      "stateMutability": "view",
      "type": "function"
    },
    {
      "inputs": [
        {
          "internalType": "uint256",
          "name": "amount",
          "type": "uint256"
        },
        {
          "internalType": "uint256",
          "name": "tokenId",
          "type": "uint256"
        }
      ],
      "name": "withdraw",
      "outputs": [],
      "stateMutability": "nonpayable",
      "type": "function"
    }
  ],
  "bytecode": "0x60806040523480156200001157600080fd5b5060405162002361380380620023618339810160408190526200003491620002d6565b60016000556001600160a01b038216158015906200005a57506001600160a01b03831615155b80156200006f57506001600160a01b03841615155b6200007957600080fd5b600580546001600160a01b038086166001600160a01b031992831681179093556006805491861691909216179055600060015560408051638dd598fb60e01b81529051638dd598fb916004818101926020929091908290030181865afa158015620000e8573d6000803e3d6000fd5b505050506040513d601f19601f820116820180604052508101906200010e9190620003eb565b600860006101000a8154816001600160a01b0302191690836001600160a01b03160217905550826001600160a01b031663075461726040518163ffffffff1660e01b8152600401602060405180830381865afa15801562000173573d6000803e3d6000fd5b505050506040513d601f19601f82011682018060405250810190620001999190620003eb565b600780546001600160a01b0319166001600160a01b03929092169182179055620001c257600080fd5b600980546001600160a01b0319166001600160a01b0386161790558051620001f290600a906020840190620001fd565b50505050506200044c565b8280546200020b9062000410565b90600052602060002090601f0160209004810192826200022f57600085556200027a565b82601f106200024a57805160ff19168380011785556200027a565b828001600101855582156200027a579182015b828111156200027a5782518255916020019190600101906200025d565b50620002889291506200028c565b5090565b5b808211156200028857600081556001016200028d565b80516001600160a01b0381168114620002bb57600080fd5b919050565b634e487b7160e01b600052604160045260246000fd5b60008060008060808587031215620002ed57600080fd5b620002f885620002a3565b9350602062000309818701620002a3565b93506200031960408701620002a3565b60608701519093506001600160401b03808211156200033757600080fd5b818801915088601f8301126200034c57600080fd5b815181811115620003615762000361620002c0565b604051601f8201601f19908116603f011681019083821181831017156200038c576200038c620002c0565b816040528281528b86848701011115620003a557600080fd5b600093505b82841015620003c95784840186015181850187015292850192620003aa565b82841115620003db5760008684830101525b989b979a50959850505050505050565b600060208284031215620003fe57600080fd5b6200040982620002a3565b9392505050565b600181811c908216806200042557607f821691505b6020821081036200044657634e487b7160e01b600052602260045260246000fd5b50919050565b611f05806200045c6000396000f3fe608060405234801561001057600080fd5b50600436106102105760003560e01c80638da5cb5b11610125578063b66503cf116100ad578063e68863961161007c578063e688639614610513578063eb4a78e01461051b578063f4359ce51461052e578063f5f8d36514610538578063fca3b5aa1461054b57600080fd5b8063b66503cf146104c5578063bb24fe8a146104d8578063e2bbb158146104ed578063e39c08fc1461050057600080fd5b80639c9b2e21116100f45780639c9b2e21146104515780639cc7f70814610464578063a4a3e03514610477578063a7852afa1461047f578063b5fd73f81461049257600080fd5b80638da5cb5b146103e05780638f2b554c146103f357806396282ba31461041e578063981b24d01461043157600080fd5b806346c96aac116101a85780635977e82a116101775780635977e82a1461036757806365c5f94a146103875780637bb7bed11461038f578063853c8aeb146103a25780638980f11f146103cd57600080fd5b806346c96aac146103255780634bc2a6571461033857806355288eea1461034b57806357bc56141461035457600080fd5b80631c03e6cc116101e45780631c03e6cc1461029b5780631f850716146102ae57806338174862146102c1578063441a3e701461031257600080fd5b8062a47ddd14610215578063075461721461025357806313af40351461027e57806318160ddd14610293575b600080fd5b610240610223366004611a88565b600b60209081526000928352604080842090915290825290205481565b6040519081526020015b60405180910390f35b600754610266906001600160a01b031681565b6040516001600160a01b03909116815260200161024a565b61029161028c366004611ab8565b61055e565b005b6102406105aa565b6102916102a9366004611ab8565b610639565b600854610266906001600160a01b031681565b6102f76102cf366004611ad5565b6002602081815260009384526040808520909152918352912080546001820154919092015483565b6040805193845260208401929092529082015260600161024a565b610291610320366004611b01565b6106c9565b600554610266906001600160a01b031681565b610291610346366004611ab8565b6108a0565b61024060015481565b610240610362366004611ad5565b6108ec565b610240610375366004611b23565b600d6020526000908152604090205481565b610240610985565b61026661039d366004611b23565b6109a2565b6102406103b0366004611b01565b6000918252600e6020908152604080842092845291905290205490565b6102916103db366004611ad5565b6109cc565b600954610266906001600160a01b031681565b610240610401366004611a88565b600c60209081526000928352604080842090915290825290205481565b61029161042c366004611b83565b610ab7565b61024061043f366004611b23565b6000908152600d602052604090205490565b61029161045f366004611ab8565b610ae5565b610240610472366004611b23565b610bbd565b610240610be9565b61029161048d366004611c18565b610c57565b6104b56104a0366004611ab8565b60036020526000908152604090205460ff1681565b604051901515815260200161024a565b6102916104d3366004611ad5565b610e5a565b6104e0611075565b60405161024a9190611d02565b6102916104fb366004611b01565b611103565b61024061050e366004611a88565b6112ad565b600454610240565b600654610266906001600160a01b031681565b61024062093a8081565b610291610546366004611c18565b6113cc565b610291610559366004611ab8565b611627565b6009546001600160a01b0316331461057557600080fd5b6001600160a01b03811661058857600080fd5b600980546001600160a01b0319166001600160a01b0392909216919091179055565b600080600760009054906101000a90046001600160a01b03166001600160a01b0316630a441f7b6040518163ffffffff1660e01b8152600401602060405180830381865afa158015610600573d6000803e3d6000fd5b505050506040513d601f19601f820116820180604052508101906106249190611d35565b6000908152600d602052604090205492915050565b6009546001600160a01b0316331461065057600080fd5b6001600160a01b03811661066357600080fd5b6001600160a01b03166000818152600360205260408120805460ff191660019081179091556004805491820181559091527f8a35acfbc15ff81a39ae7d344fd709f28e8600b4aa8c65c6b64bfe7fe36bd19b0180546001600160a01b0319169091179055565b6002600054036106f45760405162461bcd60e51b81526004016106eb90611d4e565b60405180910390fd5b60026000558161073a5760405162461bcd60e51b8152602060048201526011602482015270043616e6e6f74207769746864726177203607c1b60448201526064016106eb565b6005546001600160a01b0316331461075157600080fd5b600062093a80600760009054906101000a90046001600160a01b03166001600160a01b0316630a441f7b6040518163ffffffff1660e01b8152600401602060405180830381865afa1580156107aa573d6000803e3d6000fd5b505050506040513d601f19601f820116820180604052508101906107ce9190611d35565b6107d89190611d9b565b6000838152600e602090815260408083208484529091529020549091508311610896576000818152600d6020908152604080832054858452600e83528184208585529092529091205461082b8583611db3565b6000848152600d60205260409020556108448582611db3565b6000858152600e60209081526040808320878452825291829020929092555186815285917f0c875c8d391179c5cf7ad8303d268efd50b8beb78b671f85cd54bfb91eb8ef40910160405180910390a250505b5050600160005550565b6009546001600160a01b031633146108b757600080fd5b6001600160a01b0381166108ca57600080fd5b600580546001600160a01b0319166001600160a01b0392909216919091179055565b6000818152600d6020526040812054810361092e57506001600160a01b038216600090815260026020908152604080832084845290915290206001015461097f565b6000828152600d60209081526040808320546001600160a01b0387168452600283528184208685529092529091206001015461097290670de0b6b3a7640000611dca565b61097c9190611de9565b90505b92915050565b600062093a80610993610be9565b61099d9190611d9b565b905090565b600481815481106109b257600080fd5b6000918252602090912001546001600160a01b0316905081565b6009546001600160a01b031633146109e357600080fd5b6040516370a0823160e01b81523060048201526001600160a01b038316906370a0823190602401602060405180830381865afa158015610a27573d6000803e3d6000fd5b505050506040513d601f19601f82011682018060405250810190610a4b9190611d35565b811115610a5757600080fd5b600954610a71906001600160a01b03848116911683611673565b604080516001600160a01b0384168152602081018390527f8c1256b8896378cd5044f80c202f9772b9d77dc85c8a6eb51967210b09bfaa28910160405180910390a15050565b6009546001600160a01b03163314610ace57600080fd5b8051610ae190600a9060208401906119d7565b5050565b6009546001600160a01b0316331480610b0857506006546001600160a01b031633145b610b545760405162461bcd60e51b815260206004820181905260248201527f6164645265776172643a207065726d697373696f6e2069732064656e6965642160448201526064016106eb565b6001600160a01b03811660009081526003602052604090205460ff16156106635760405162461bcd60e51b815260206004820152601b60248201527f52657761726420746f6b656e20616c726561647920657869737473000000000060448201526064016106eb565b600080610bc8610985565b6000938452600e602090815260408086209286529190529092205492915050565b60075460408051630a441f7b60e01b815290516000926001600160a01b031691630a441f7b9160048083019260209291908290030181865afa158015610c33573d6000803e3d6000fd5b505050506040513d601f19601f8201168201806040525081019061099d9190611d35565b600260005403610c795760405162461bcd60e51b81526004016106eb90611d4e565b60026000556005546001600160a01b03163314610c9557600080fd5b60075460408051630a441f7b60e01b815290516000926001600160a01b031691630a441f7b9160048083019260209291908290030181865afa158015610cdf573d6000803e3d6000fd5b505050506040513d601f19601f82011682018060405250810190610d039190611d35565b6008546040516331a9108f60e11b81526004810186905291925060009182916001600160a01b031690636352211e90602401602060405180830381865afa158015610d52573d6000803e3d6000fd5b505050506040513d601f19601f82011682018060405250810190610d769190611e0b565b905060005b8451811015610e4d576000858281518110610d9857610d98611e28565b60200260200101519050610dac87826112ad565b93508315610e1657610dc86001600160a01b0382168486611673565b806001600160a01b0316836001600160a01b03167f540798df468d7b23d11f156fdb954cb19ad414d150722a7b6d55ba369dea792e86604051610e0d91815260200190565b60405180910390a35b6000878152600c602090815260408083206001600160a01b0390941683529290522084905580610e4581611e3e565b915050610d7b565b5050600160005550505050565b600260005403610e7c5760405162461bcd60e51b81526004016106eb90611d4e565b600260009081556001600160a01b03831681526003602052604090205460ff16610ee85760405162461bcd60e51b815260206004820152601960248201527f72657761726420746f6b656e206e6f742076657269666965640000000000000060448201526064016106eb565b610efd6001600160a01b0383163330846116db565b600062093a80600760009054906101000a90046001600160a01b03166001600160a01b0316630a441f7b6040518163ffffffff1660e01b8152600401602060405180830381865afa158015610f56573d6000803e3d6000fd5b505050506040513d601f19601f82011682018060405250810190610f7a9190611d35565b610f849190611d9b565b9050600154600003610f965760018190555b6001600160a01b0383166000908152600260209081526040808320848452909152902060010154610fc78382611d9b565b6001600160a01b038516600090815260026020818152604080842087855290915290912060018101929092554291015561100462093a8083611d9b565b6001600160a01b03851660008181526002602090815260408083208784528252918290209390935580519182529181018590529081018390527f6a6f77044107a33658235d41bedbbaf2fe9ccdceb313143c947a5e76e1ec84749060600160405180910390a1505060016000555050565b600a805461108290611e57565b80601f01602080910402602001604051908101604052809291908181526020018280546110ae90611e57565b80156110fb5780601f106110d0576101008083540402835291602001916110fb565b820191906000526020600020905b8154815290600101906020018083116110de57829003601f168201915b505050505081565b6002600054036111255760405162461bcd60e51b81526004016106eb90611d4e565b6002600055816111685760405162461bcd60e51b815260206004820152600e60248201526d043616e6e6f74207374616b6520360941b60448201526064016106eb565b6005546001600160a01b0316331461117f57600080fd5b600062093a80600760009054906101000a90046001600160a01b03166001600160a01b0316630a441f7b6040518163ffffffff1660e01b8152600401602060405180830381865afa1580156111d8573d6000803e3d6000fd5b505050506040513d601f19601f820116820180604052508101906111fc9190611d35565b6112069190611d9b565b6000818152600d60205260409020549091506112228482611d9b565b6000838152600d6020908152604080832093909355858252600e815282822085835290522054611253908590611d9b565b6000848152600e60209081526040808320868452825291829020929092555185815284917f925435fa7e37e5d9555bb18ce0d62bb9627d0846942e58e5291e9a2dded462ed910160405180910390a2505060016000555050565b60075460408051630a441f7b60e01b815290516000928392839283926001600160a01b031691630a441f7b9160048083019260209291908290030181865afa1580156112fd573d6000803e3d6000fd5b505050506040513d601f19601f820116820180604052508101906113219190611d35565b6000878152600c602090815260408083206001600160a01b038a16845290915290205490915080820361135b57600094505050505061097f565b6001548110156113795762093a806001546113769190611db3565b90505b60328410156113c1578082146113c157611394878783611719565b61139e9084611d9b565b92506113ad62093a8082611d9b565b9050836113b981611e3e565b945050611379565b509095945050505050565b6002600054036113ee5760405162461bcd60e51b81526004016106eb90611d4e565b600260005560085460405163430c208160e01b8152336004820152602481018490526001600160a01b039091169063430c208190604401602060405180830381865afa158015611442573d6000803e3d6000fd5b505050506040513d601f19601f820116820180604052508101906114669190611e91565b61146f57600080fd5b60075460408051630a441f7b60e01b815290516000926001600160a01b031691630a441f7b9160048083019260209291908290030181865afa1580156114b9573d6000803e3d6000fd5b505050506040513d601f19601f820116820180604052508101906114dd9190611d35565b6008546040516331a9108f60e11b81526004810186905291925060009182916001600160a01b031690636352211e90602401602060405180830381865afa15801561152c573d6000803e3d6000fd5b505050506040513d601f19601f820116820180604052508101906115509190611e0b565b905060005b8451811015610e4d57600085828151811061157257611572611e28565b6020026020010151905061158687826112ad565b935083156115f0576115a26001600160a01b0382168486611673565b806001600160a01b0316836001600160a01b03167f540798df468d7b23d11f156fdb954cb19ad414d150722a7b6d55ba369dea792e866040516115e791815260200190565b60405180910390a35b6000878152600c602090815260408083206001600160a01b039094168352929052208490558061161f81611e3e565b915050611555565b6009546001600160a01b0316331461163e57600080fd5b6001600160a01b03811661165157600080fd5b600780546001600160a01b0319166001600160a01b0392909216919091179055565b6040516001600160a01b0383166024820152604481018290526116d690849063a9059cbb60e01b906064015b60408051601f198184030181529190526020810180516001600160e01b03166001600160e01b031990931692909217909152611784565b505050565b6040516001600160a01b03808516602483015283166044820152606481018290526117139085906323b872dd60e01b9060840161169f565b50505050565b6000838152600e602090815260408083208484529091528120548060000361174557600091505061177d565b600061175185856108ec565b90506000670de0b6b3a76400006117688484611dca565b6117729190611de9565b935061177d92505050565b9392505050565b60006117d9826040518060400160405280602081526020017f5361666545524332303a206c6f772d6c6576656c2063616c6c206661696c6564815250856001600160a01b03166118569092919063ffffffff16565b8051909150156116d657808060200190518101906117f79190611e91565b6116d65760405162461bcd60e51b815260206004820152602a60248201527f5361666545524332303a204552433230206f7065726174696f6e20646964206e6044820152691bdd081cdd58d8d9595960b21b60648201526084016106eb565b6060611865848460008561186d565b949350505050565b6060824710156118ce5760405162461bcd60e51b815260206004820152602660248201527f416464726573733a20696e73756666696369656e742062616c616e636520666f6044820152651c8818d85b1b60d21b60648201526084016106eb565b6001600160a01b0385163b6119255760405162461bcd60e51b815260206004820152601d60248201527f416464726573733a2063616c6c20746f206e6f6e2d636f6e747261637400000060448201526064016106eb565b600080866001600160a01b031685876040516119419190611eb3565b60006040518083038185875af1925050503d806000811461197e576040519150601f19603f3d011682016040523d82523d6000602084013e611983565b606091505b509150915061199382828661199e565b979650505050505050565b606083156119ad57508161177d565b8251156119bd5782518084602001fd5b8160405162461bcd60e51b81526004016106eb9190611d02565b8280546119e390611e57565b90600052602060002090601f016020900481019282611a055760008555611a4b565b82601f10611a1e57805160ff1916838001178555611a4b565b82800160010185558215611a4b579182015b82811115611a4b578251825591602001919060010190611a30565b50611a57929150611a5b565b5090565b5b80821115611a575760008155600101611a5c565b6001600160a01b0381168114611a8557600080fd5b50565b60008060408385031215611a9b57600080fd5b823591506020830135611aad81611a70565b809150509250929050565b600060208284031215611aca57600080fd5b813561177d81611a70565b60008060408385031215611ae857600080fd5b8235611af381611a70565b946020939093013593505050565b60008060408385031215611b1457600080fd5b50508035926020909101359150565b600060208284031215611b3557600080fd5b5035919050565b634e487b7160e01b600052604160045260246000fd5b604051601f8201601f1916810167ffffffffffffffff81118282101715611b7b57611b7b611b3c565b604052919050565b60006020808385031215611b9657600080fd5b823567ffffffffffffffff80821115611bae57600080fd5b818501915085601f830112611bc257600080fd5b813581811115611bd457611bd4611b3c565b611be6601f8201601f19168501611b52565b91508082528684828501011115611bfc57600080fd5b8084840185840137600090820190930192909252509392505050565b60008060408385031215611c2b57600080fd5b8235915060208084013567ffffffffffffffff80821115611c4b57600080fd5b818601915086601f830112611c5f57600080fd5b813581811115611c7157611c71611b3c565b8060051b9150611c82848301611b52565b8181529183018401918481019089841115611c9c57600080fd5b938501935b83851015611cc65784359250611cb683611a70565b8282529385019390850190611ca1565b8096505050505050509250929050565b60005b83811015611cf1578181015183820152602001611cd9565b838111156117135750506000910152565b6020815260008251806020840152611d21816040850160208701611cd6565b601f01601f19169190910160400192915050565b600060208284031215611d4757600080fd5b5051919050565b6020808252601f908201527f5265656e7472616e637947756172643a207265656e7472616e742063616c6c00604082015260600190565b634e487b7160e01b600052601160045260246000fd5b60008219821115611dae57611dae611d85565b500190565b600082821015611dc557611dc5611d85565b500390565b6000816000190483118215151615611de457611de4611d85565b500290565b600082611e0657634e487b7160e01b600052601260045260246000fd5b500490565b600060208284031215611e1d57600080fd5b815161177d81611a70565b634e487b7160e01b600052603260045260246000fd5b600060018201611e5057611e50611d85565b5060010190565b600181811c90821680611e6b57607f821691505b602082108103611e8b57634e487b7160e01b600052602260045260246000fd5b50919050565b600060208284031215611ea357600080fd5b8151801515811461177d57600080fd5b60008251611ec5818460208701611cd6565b919091019291505056fea264697066735822122090630a8fc3a11fb284c3945e0fb5b018d1b7c3e2c39a0595c6273f03bfe7c5b764736f6c634300080d0033",
  "linkReferences": {},
  "deployedLinkReferences": {}
}