{
  "_format": "hh-sol-artifact-1",
  "contractName": "StakingNFTFeeConverter",
  "sourceName": "contracts/StakingNFTFeeConverter.sol",
  "abi": [
    {
      "inputs": [
        {
          "internalType": "address",
          "name": "_wbnb",
          "type": "address"
        }
      ],
      "stateMutability": "nonpayable",
      "type": "constructor"
    },
    {
      "anonymous": false,
      "inputs": [
        {
          "indexed": true,
          "internalType": "address",
          "name": "_pair",
          "type": "address"
        },
        {
          "indexed": false,
          "internalType": "uint256",
          "name": "timestamp",
          "type": "uint256"
        }
      ],
      "name": "ClaimFee",
      "type": "event"
    },
    {
      "anonymous": false,
      "inputs": [
        {
          "indexed": true,
          "internalType": "address",
          "name": "_pair",
          "type": "address"
        },
        {
          "indexed": false,
          "internalType": "uint256",
          "name": "timestamp",
          "type": "uint256"
        }
      ],
      "name": "ClaimFeeError",
      "type": "event"
    },
    {
      "anonymous": false,
      "inputs": [
        {
          "indexed": false,
          "internalType": "uint256",
          "name": "_timestamp",
          "type": "uint256"
        },
        {
          "indexed": false,
          "internalType": "uint256",
          "name": "_wbnbAmount",
          "type": "uint256"
        }
      ],
      "name": "StakingReward",
      "type": "event"
    },
    {
      "anonymous": false,
      "inputs": [
        {
          "indexed": true,
          "internalType": "address",
          "name": "_tokenIn",
          "type": "address"
        },
        {
          "indexed": false,
          "internalType": "uint256",
          "name": "_balanceIn",
          "type": "uint256"
        },
        {
          "indexed": false,
          "internalType": "uint256",
          "name": "timestamp",
          "type": "uint256"
        }
      ],
      "name": "SwapError",
      "type": "event"
    },
    {
      "anonymous": false,
      "inputs": [
        {
          "indexed": false,
          "internalType": "address",
          "name": "oldOwner",
          "type": "address"
        },
        {
          "indexed": false,
          "internalType": "address",
          "name": "newOwner",
          "type": "address"
        }
      ],
      "name": "TransferOwnership",
      "type": "event"
    },
    {
      "inputs": [],
      "name": "NFTStaking",
      "outputs": [
        {
          "internalType": "address",
          "name": "",
          "type": "address"
        }
      ],
      "stateMutability": "view",
      "type": "function"
    },
    {
      "inputs": [],
      "name": "_pairs",
      "outputs": [
        {
          "internalType": "address[]",
          "name": "",
          "type": "address[]"
        }
      ],
      "stateMutability": "view",
      "type": "function"
    },
    {
      "inputs": [],
      "name": "_tokens",
      "outputs": [
        {
          "internalType": "address[]",
          "name": "",
          "type": "address[]"
        }
      ],
      "stateMutability": "view",
      "type": "function"
    },
    {
      "inputs": [
        {
          "internalType": "address",
          "name": "token",
          "type": "address"
        },
        {
          "components": [
            {
              "internalType": "address",
              "name": "from",
              "type": "address"
            },
            {
              "internalType": "address",
              "name": "to",
              "type": "address"
            },
            {
              "internalType": "bool",
              "name": "stable",
              "type": "bool"
            }
          ],
          "internalType": "struct IRouter01.route",
          "name": "routes",
          "type": "tuple"
        }
      ],
      "name": "addToken",
      "outputs": [],
      "stateMutability": "nonpayable",
      "type": "function"
    },
    {
      "inputs": [],
      "name": "claimFees",
      "outputs": [],
      "stateMutability": "nonpayable",
      "type": "function"
    },
    {
      "inputs": [
        {
          "internalType": "address",
          "name": "_pair",
          "type": "address"
        }
      ],
      "name": "claimSingleFee",
      "outputs": [],
      "stateMutability": "nonpayable",
      "type": "function"
    },
    {
      "inputs": [
        {
          "internalType": "address",
          "name": "",
          "type": "address"
        }
      ],
      "name": "isKeeper",
      "outputs": [
        {
          "internalType": "bool",
          "name": "",
          "type": "bool"
        }
      ],
      "stateMutability": "view",
      "type": "function"
    },
    {
      "inputs": [
        {
          "internalType": "address",
          "name": "",
          "type": "address"
        }
      ],
      "name": "isToken",
      "outputs": [
        {
          "internalType": "bool",
          "name": "",
          "type": "bool"
        }
      ],
      "stateMutability": "view",
      "type": "function"
    },
    {
      "inputs": [],
      "name": "lastRewardtime",
      "outputs": [
        {
          "internalType": "uint256",
          "name": "",
          "type": "uint256"
        }
      ],
      "stateMutability": "view",
      "type": "function"
    },
    {
      "inputs": [],
      "name": "owner",
      "outputs": [
        {
          "internalType": "address",
          "name": "",
          "type": "address"
        }
      ],
      "stateMutability": "view",
      "type": "function"
    },
    {
      "inputs": [],
      "name": "pairFactory",
      "outputs": [
        {
          "internalType": "address",
          "name": "",
          "type": "address"
        }
      ],
      "stateMutability": "view",
      "type": "function"
    },
    {
      "inputs": [
        {
          "internalType": "uint256",
          "name": "",
          "type": "uint256"
        }
      ],
      "name": "pairs",
      "outputs": [
        {
          "internalType": "address",
          "name": "",
          "type": "address"
        }
      ],
      "stateMutability": "view",
      "type": "function"
    },
    {
      "inputs": [
        {
          "internalType": "address",
          "name": "_keeper",
          "type": "address"
        }
      ],
      "name": "removeKeeper",
      "outputs": [],
      "stateMutability": "nonpayable",
      "type": "function"
    },
    {
      "inputs": [
        {
          "internalType": "address",
          "name": "token",
          "type": "address"
        }
      ],
      "name": "removeToken",
      "outputs": [],
      "stateMutability": "nonpayable",
      "type": "function"
    },
    {
      "inputs": [],
      "name": "router",
      "outputs": [
        {
          "internalType": "address",
          "name": "",
          "type": "address"
        }
      ],
      "stateMutability": "view",
      "type": "function"
    },
    {
      "inputs": [],
      "name": "setDistribution",
      "outputs": [],
      "stateMutability": "nonpayable",
      "type": "function"
    },
    {
      "inputs": [
        {
          "internalType": "address",
          "name": "_keeper",
          "type": "address"
        }
      ],
      "name": "setKeeper",
      "outputs": [],
      "stateMutability": "nonpayable",
      "type": "function"
    },
    {
      "inputs": [
        {
          "internalType": "address",
          "name": "_NFTStaking",
          "type": "address"
        }
      ],
      "name": "setNFTStaking",
      "outputs": [],
      "stateMutability": "nonpayable",
      "type": "function"
    },
    {
      "inputs": [
        {
          "internalType": "address[]",
          "name": "__pairs",
          "type": "address[]"
        }
      ],
      "name": "setPair",
      "outputs": [],
      "stateMutability": "nonpayable",
      "type": "function"
    },
    {
      "inputs": [
        {
          "internalType": "address",
          "name": "_pairFactory",
          "type": "address"
        }
      ],
      "name": "setPairFactory",
      "outputs": [],
      "stateMutability": "nonpayable",
      "type": "function"
    },
    {
      "inputs": [
        {
          "internalType": "address",
          "name": "_router",
          "type": "address"
        }
      ],
      "name": "setRouter",
      "outputs": [],
      "stateMutability": "nonpayable",
      "type": "function"
    },
    {
      "inputs": [
        {
          "internalType": "address",
          "name": "token",
          "type": "address"
        },
        {
          "components": [
            {
              "internalType": "address",
              "name": "from",
              "type": "address"
            },
            {
              "internalType": "address",
              "name": "to",
              "type": "address"
            },
            {
              "internalType": "bool",
              "name": "stable",
              "type": "bool"
            }
          ],
          "internalType": "struct IRouter01.route",
          "name": "routes",
          "type": "tuple"
        }
      ],
      "name": "setRoutesFor",
      "outputs": [],
      "stateMutability": "nonpayable",
      "type": "function"
    },
    {
      "inputs": [],
      "name": "swap",
      "outputs": [],
      "stateMutability": "nonpayable",
      "type": "function"
    },
    {
      "inputs": [
        {
          "internalType": "uint256",
          "name": "amountIn",
          "type": "uint256"
        },
        {
          "internalType": "uint256",
          "name": "amountOutMin",
          "type": "uint256"
        },
        {
          "components": [
            {
              "internalType": "address",
              "name": "from",
              "type": "address"
            },
            {
              "internalType": "address",
              "name": "to",
              "type": "address"
            },
            {
              "internalType": "bool",
              "name": "stable",
              "type": "bool"
            }
          ],
          "internalType": "struct IRouter01.route[]",
          "name": "_routes",
          "type": "tuple[]"
        },
        {
          "internalType": "uint256",
          "name": "deadline",
          "type": "uint256"
        }
      ],
      "name": "swapManual",
      "outputs": [
        {
          "internalType": "uint256[]",
          "name": "amounts",
          "type": "uint256[]"
        }
      ],
      "stateMutability": "nonpayable",
      "type": "function"
    },
    {
      "inputs": [
        {
          "internalType": "address",
          "name": "",
          "type": "address"
        }
      ],
      "name": "tokenToRoutes",
      "outputs": [
        {
          "internalType": "address",
          "name": "from",
          "type": "address"
        },
        {
          "internalType": "address",
          "name": "to",
          "type": "address"
        },
        {
          "internalType": "bool",
          "name": "stable",
          "type": "bool"
        }
      ],
      "stateMutability": "view",
      "type": "function"
    },
    {
      "inputs": [
        {
          "internalType": "uint256",
          "name": "",
          "type": "uint256"
        }
      ],
      "name": "tokens",
      "outputs": [
        {
          "internalType": "address",
          "name": "",
          "type": "address"
        }
      ],
      "stateMutability": "view",
      "type": "function"
    },
    {
      "inputs": [
        {
          "internalType": "address",
          "name": "newOwner",
          "type": "address"
        }
      ],
      "name": "transferOwnership",
      "outputs": [],
      "stateMutability": "nonpayable",
      "type": "function"
    },
    {
      "inputs": [],
      "name": "wbnb",
      "outputs": [
        {
          "internalType": "address",
          "name": "",
          "type": "address"
        }
      ],
      "stateMutability": "view",
      "type": "function"
    },
    {
      "inputs": [
        {
          "internalType": "address",
          "name": "_token",
          "type": "address"
        }
      ],
      "name": "withdrawERC20",
      "outputs": [],
      "stateMutability": "nonpayable",
      "type": "function"
    }
  ],
  "bytecode": "0x608060405234801561001057600080fd5b50604051620024303803806200243083398101604081905261003191610068565b60038054336001600160a01b03199182161790915560008055600280549091166001600160a01b0392909216919091179055610098565b60006020828403121561007a57600080fd5b81516001600160a01b038116811461009157600080fd5b9392505050565b61238880620000a86000396000f3fe608060405234801561001057600080fd5b50600436106101ce5760003560e01c80638970d84c11610104578063b91ac788116100a2578063e14f870d11610071578063e14f870d14610439578063f2fde38b1461044c578063f4f3b2001461045f578063f887ea401461047257600080fd5b8063b91ac788146103f8578063bd98194c1461040b578063c0d786551461041e578063d294f0931461043157600080fd5b80638e6e3846116100de5780638e6e3846146103a85780639fbf5771146103bb578063a0d91a28146103ce578063b3fc970a146103e557600080fd5b80638970d84c1461037a5780638d72647e146103825780638da5cb5b1461039557600080fd5b80635fa7b5841161017157806374f6b2c51161014b57806374f6b2c5146103375780637964bac91461033f5780638119c065146103525780638594e9e61461035a57600080fd5b80635fa7b584146102ee5780636ba42aaa14610301578063748747e61461032457600080fd5b80631f41ce4b116101ad5780631f41ce4b146102335780634b55c2c6146102465780634f64b2be146102ae578063586960dd146102d957600080fd5b8062a0ce06146101d357806314ae9f2e146101e857806319f37361146101fb575b600080fd5b6101e66101e1366004611d8d565b610485565b005b6101e66101f6366004611e2c565b610583565b61021e610209366004611e2c565b60086020526000908152604090205460ff1681565b60405190151581526020015b60405180910390f35b6101e6610241366004611e2c565b61060b565b610286610254366004611e2c565b600a60205260009081526040902080546001909101546001600160a01b0391821691811690600160a01b900460ff1683565b604080516001600160a01b03948516815293909216602084015215159082015260600161022a565b6102c16102bc366004611e50565b61067d565b6040516001600160a01b03909116815260200161022a565b6102e16106a7565b60405161022a9190611e69565b6101e66102fc366004611e2c565b610709565b61021e61030f366004611e2c565b600b6020526000908152604090205460ff1681565b6101e6610332366004611e2c565b6108ed565b6101e6610974565b6101e661034d366004611e2c565b610aeb565b6101e6610b5d565b61036d610368366004611eb6565b610f64565b60405161022a9190611f41565b6102e161103a565b6002546102c1906001600160a01b031681565b6003546102c1906001600160a01b031681565b6101e66103b6366004611e2c565b61109a565b6101e66103c9366004611f87565b61114c565b6103d760005481565b60405190815260200161022a565b6001546102c1906001600160a01b031681565b6102c1610406366004611e50565b61126d565b6101e6610419366004611f87565b61127d565b6101e661042c366004611e2c565b61136b565b6101e66113dd565b6005546102c1906001600160a01b031681565b6101e661045a366004611e2c565b611611565b6101e661046d366004611e2c565b611701565b6004546102c1906001600160a01b031681565b6003546001600160a01b031633146104b85760405162461bcd60e51b81526004016104af90612022565b60405180910390fd5b60005b815181101561057f5760006001600160a01b03168282815181106104e1576104e1612047565b60200260200101516001600160a01b0316036104fc57600080fd5b61051e82828151811061051157610511612047565b60200260200101516117b6565b600782828151811061053257610532612047565b60209081029190910181015182546001810184556000938452919092200180546001600160a01b0319166001600160a01b039092169190911790558061057781612073565b9150506104bb565b5050565b6003546001600160a01b031633146105ad5760405162461bcd60e51b81526004016104af90612022565b6001600160a01b0381166105c057600080fd5b6001600160a01b0381166000908152600b602052604090205460ff1615156001146105ea57600080fd5b6001600160a01b03166000908152600b60205260409020805460ff19169055565b6003546001600160a01b031633146106355760405162461bcd60e51b81526004016104af90612022565b6001600160a01b03811661065b5760405162461bcd60e51b81526004016104af9061208c565b600180546001600160a01b0319166001600160a01b0392909216919091179055565b6006818154811061068d57600080fd5b6000918252602090912001546001600160a01b0316905081565b606060078054806020026020016040519081016040528092919081815260200182805480156106ff57602002820191906000526020600020905b81546001600160a01b031681526001909101906020018083116106e1575b5050505050905090565b6003546001600160a01b031633146107335760405162461bcd60e51b81526004016104af90612022565b6001600160a01b03811661074657600080fd5b6001600160a01b03811660009081526008602052604090205460ff16151560011461077057600080fd5b6001600160a01b03811660009081526009602090815260408083208054600a845282852080546001600160a01b03199081168255600180830180546001600160a81b03199081168255958990558354909216909255805490931690925560089093529220805460ff19169055600654909182916107ed91906120ac565b03610829576006805480610803576108036120c3565b600082815260209020810160001990810180546001600160a01b03191690550190555050565b600680546000919061083d906001906120ac565b8154811061084d5761084d612047565b600091825260209091200154600680546001600160a01b03909216925082918490811061087c5761087c612047565b600091825260208083209190910180546001600160a01b0319166001600160a01b03948516179055918316815260099091526040902082905560068054806108c6576108c66120c3565b600082815260209020810160001990810180546001600160a01b0319169055019055505050565b6003546001600160a01b031633146109175760405162461bcd60e51b81526004016104af90612022565b6001600160a01b03811661092a57600080fd5b6001600160a01b0381166000908152600b602052604090205460ff161561095057600080fd5b6001600160a01b03166000908152600b60205260409020805460ff19166001179055565b336000908152600b602052604090205460ff161515600114806109a157506003546001600160a01b031633145b6109bd5760405162461bcd60e51b81526004016104af906120d9565b6002546040516370a0823160e01b81523060048201526000916001600160a01b0316906370a0823190602401602060405180830381865afa158015610a06573d6000803e3d6000fd5b505050506040513d601f19601f82011682018060405250810190610a2a91906120fd565b600254600154919250610a4a916001600160a01b03918216911683611ae2565b600154604051631998325160e01b8152600481018390526001600160a01b0390911690631998325190602401600060405180830381600087803b158015610a9057600080fd5b505af1158015610aa4573d6000803e3d6000fd5b505042600081905560408051918252602082018590527f4b7716bc5b5b26ece4410befaf3e3f5432de88e4593fdc339eaef715d0a0489c935001905060405180910390a150565b6003546001600160a01b03163314610b155760405162461bcd60e51b81526004016104af90612022565b6001600160a01b038116610b3b5760405162461bcd60e51b81526004016104af9061208c565b600580546001600160a01b0319166001600160a01b0392909216919091179055565b336000908152600b602052604090205460ff16151560011480610b8a57506003546001600160a01b031633145b610ba65760405162461bcd60e51b81526004016104af906120d9565b60408051600180825281830190925260009182918291829190816020015b6040805160608101825260008082526020808301829052928201528252600019909201910181610bc4579050509050600091505b600654821015610e2f5760068281548110610c1557610c15612047565b6000918252602090912001546040516370a0823160e01b81523060048201526001600160a01b03909116935083906370a0823190602401602060405180830381865afa158015610c69573d6000803e3d6000fd5b505050506040513d601f19601f82011682018060405250810190610c8d91906120fd565b9350600084118015610cb757506001600160a01b03831660009081526008602052604090205460ff165b15610e1d576001600160a01b038381166000908152600a60209081526040808320815160608101835281548616815260019091015494851692810192909252600160a01b90930460ff161515928101929092528251839190610d1b57610d1b612047565b6020908102919091010152600454610d3f9084906001600160a01b03166000611bdb565b600454610d579084906001600160a01b031686611bdb565b60048054604051631e82ecdb60e31b81526001600160a01b039091169163f41766d891610d8f91889160019187913091429101612116565b6000604051808303816000875af1925050508015610dcf57506040513d6000823e601f3d908101601f19168201604052610dcc91908101906121ab565b60015b610e1b57604080518581524260208201526001600160a01b038516917f24bb57c4c135223eb3fa5d03c9aa5958f103cc3ec9b2d7c8d35fffad65779d06910160405180910390a2610e1d565b505b81610e2781612073565b925050610bf8565b6002546040516370a0823160e01b81523060048201526001600160a01b03909116906370a0823190602401602060405180830381865afa158015610e77573d6000803e3d6000fd5b505050506040513d601f19601f82011682018060405250810190610e9b91906120fd565b93508315610f1f57600254600154610ec0916001600160a01b03908116911686611ae2565b600154604051631998325160e01b8152600481018690526001600160a01b0390911690631998325190602401600060405180830381600087803b158015610f0657600080fd5b505af1158015610f1a573d6000803e3d6000fd5b505050505b42600081905560408051918252602082018690527f4b7716bc5b5b26ece4410befaf3e3f5432de88e4593fdc339eaef715d0a0489c910160405180910390a150505050565b336000908152600b602052604090205460609060ff16151560011480610f9457506003546001600160a01b031633145b610fb05760405162461bcd60e51b81526004016104af906120d9565b60048054604051631e82ecdb60e31b81526001600160a01b039091169163f41766d891610fe9918a918a918a918a9130918b9101612231565b6000604051808303816000875af1158015611008573d6000803e3d6000fd5b505050506040513d6000823e601f3d908101601f1916820160405261103091908101906121ab565b9695505050505050565b606060068054806020026020016040519081016040528092919081815260200182805480156106ff576020028201919060005260206000209081546001600160a01b031681526001909101906020018083116106e1575050505050905090565b336000908152600b602052604090205460ff161515600114806110c757506003546001600160a01b031633145b6110e35760405162461bcd60e51b81526004016104af906120d9565b6001600160a01b0381166110f657600080fd5b806001600160a01b031663f083be3b6040518163ffffffff1660e01b8152600401600060405180830381600087803b15801561113157600080fd5b505af1158015611145573d6000803e3d6000fd5b5050505050565b6003546001600160a01b031633146111765760405162461bcd60e51b81526004016104af90612022565b6001600160a01b03821661118957600080fd5b6001600160a01b03821660009081526008602052604090205460ff16156111af57600080fd5b6001600160a01b039182166000818152600860209081526040808320805460ff19166001908117909155600a8352818420865181549089166001600160a01b0319918216178255878501519183018054988501511515600160a01b026001600160a81b031990991692909916919091179690961790965560068054600990935290832082905594810185559390527ff652222313e28459528d920b65115c16c04f3efc82aaedc97be59f3f377c0d3f90920180549091169091179055565b6007818154811061068d57600080fd5b6003546001600160a01b031633146112a75760405162461bcd60e51b81526004016104af90612022565b6001600160a01b0382166112ba57600080fd5b6001600160a01b03821660009081526008602052604090205460ff1615156001146112e457600080fd5b816001600160a01b031681600001516001600160a01b03161461130657600080fd5b6001600160a01b039182166000908152600a6020908152604091829020835181549086166001600160a01b0319909116178155908301516001909101805492909301511515600160a01b026001600160a81b0319909216931692909217919091179055565b6003546001600160a01b031633146113955760405162461bcd60e51b81526004016104af90612022565b6001600160a01b0381166113bb5760405162461bcd60e51b81526004016104af9061208c565b600480546001600160a01b0319166001600160a01b0392909216919091179055565b336000908152600b602052604090205460ff1615156001148061140a57506003546001600160a01b031633145b6114265760405162461bcd60e51b81526004016104af906120d9565b600754600090818167ffffffffffffffff81111561144657611446611d0a565b60405190808252806020026020018201604052801561146f578160200160208202803683370190505b5060078054604080516020808402820181019092528281529394508301828280156114c357602002820191906000526020600020905b81546001600160a01b031681526001909101906020018083116114a5575b505050505090505b8183101561160c578083815181106114e5576114e5612047565b60200260200101516001600160a01b031663f083be3b6040518163ffffffff1660e01b8152600401600060405180830381600087803b15801561152757600080fd5b505af1925050508015611538575060015b61159d5780838151811061154e5761154e612047565b60200260200101516001600160a01b03167fe1563b4dfb06394fe84449e66b5c42f40347d03a3e1398ffeeb85a298cc338ea4260405161159091815260200190565b60405180910390a26115fa565b8083815181106115af576115af612047565b60200260200101516001600160a01b03167ff40b9ca28516abde647ef8ed0e7b155e16347eb4d8dd6eb29989ed2c0c3d27e8426040516115f191815260200190565b60405180910390a25b8261160481612073565b9350506114cb565b505050565b6003546001600160a01b0316331461163b5760405162461bcd60e51b81526004016104af90612022565b6001600160a01b0381166116a05760405162461bcd60e51b815260206004820152602660248201527f4f776e61626c653a206e6577206f776e657220697320746865207a65726f206160448201526564647265737360d01b60648201526084016104af565b600380546001600160a01b038381166001600160a01b031983168117909355604080519190921680825260208201939093527f5c486528ec3e3f0ea91181cff8116f02bfa350e03b8b6f12e00765adbb5af85c910160405180910390a15050565b6003546001600160a01b0316331461172b5760405162461bcd60e51b81526004016104af90612022565b6001600160a01b03811661173e57600080fd5b6040516370a0823160e01b81523060048201526000906001600160a01b038316906370a0823190602401602060405180830381865afa158015611785573d6000803e3d6000fd5b505050506040513d601f19601f820116820180604052508101906117a991906120fd565b905061057f823383611ae2565b6001600160a01b0381166117c957600080fd5b6000816001600160a01b0316630dfe16816040518163ffffffff1660e01b8152600401602060405180830381865afa158015611809573d6000803e3d6000fd5b505050506040513d601f19601f8201168201806040525081019061182d91906122dd565b90506000826001600160a01b031663d21220a76040518163ffffffff1660e01b8152600401602060405180830381865afa15801561186f573d6000803e3d6000fd5b505050506040513d601f19601f8201168201806040525081019061189391906122dd565b90506001600160a01b0382166118a857600080fd5b6001600160a01b0381166118bb57600080fd5b60408051606081018252600080825260208201819052918101919091526002546001600160a01b0384811691161480159061190f57506001600160a01b03831660009081526008602052604090205460ff16155b156119da576001600160a01b038084168083526002548216602080850191825260006040808701828152858352600a8452818320885181549089166001600160a01b031991821617825595516001918201805493511515600160a01b026001600160a81b031990941691909916179190911790965560088352808220805460ff1916871790556006805460099094529082208390559482018555939093527ff652222313e28459528d920b65115c16c04f3efc82aaedc97be59f3f377c0d3f90920180549092161790555b6002546001600160a01b03838116911614801590611a1157506001600160a01b03821660009081526008602052604090205460ff16155b15611adc576001600160a01b038083168083526002548216602080850191825260006040808701828152858352600a8452818320885181549089166001600160a01b031991821617825595516001918201805493511515600160a01b026001600160a81b031990941691909916179190911790965560088352808220805460ff1916871790556006805460099094529082208390559482018555939093527ff652222313e28459528d920b65115c16c04f3efc82aaedc97be59f3f377c0d3f90920180549092161790555b50505050565b6000836001600160a01b03163b11611af957600080fd5b6040516001600160a01b03838116602483015260448201839052600091829186169063a9059cbb60e01b906064015b60408051601f198184030181529181526020820180516001600160e01b03166001600160e01b0319909416939093179092529051611b6691906122fa565b6000604051808303816000865af19150503d8060008114611ba3576040519150601f19603f3d011682016040523d82523d6000602084013e611ba8565b606091505b5091509150818015611bd2575080511580611bd2575080806020019051810190611bd29190612335565b61114557600080fd5b6000836001600160a01b03163b11611bf257600080fd5b801580611c6c5750604051636eb1769f60e11b81523060048201526001600160a01b03838116602483015284169063dd62ed3e90604401602060405180830381865afa158015611c46573d6000803e3d6000fd5b505050506040513d601f19601f82011682018060405250810190611c6a91906120fd565b155b611cd75760405162461bcd60e51b815260206004820152603660248201527f5361666545524332303a20617070726f76652066726f6d206e6f6e2d7a65726f60448201527520746f206e6f6e2d7a65726f20616c6c6f77616e636560501b60648201526084016104af565b6040516001600160a01b03838116602483015260448201839052600091829186169063095ea7b360e01b90606401611b28565b634e487b7160e01b600052604160045260246000fd5b604051601f8201601f1916810167ffffffffffffffff81118282101715611d4957611d49611d0a565b604052919050565b600067ffffffffffffffff821115611d6b57611d6b611d0a565b5060051b60200190565b6001600160a01b0381168114611d8a57600080fd5b50565b60006020808385031215611da057600080fd5b823567ffffffffffffffff811115611db757600080fd5b8301601f81018513611dc857600080fd5b8035611ddb611dd682611d51565b611d20565b81815260059190911b82018301908381019087831115611dfa57600080fd5b928401925b82841015611e21578335611e1281611d75565b82529284019290840190611dff565b979650505050505050565b600060208284031215611e3e57600080fd5b8135611e4981611d75565b9392505050565b600060208284031215611e6257600080fd5b5035919050565b6020808252825182820181905260009190848201906040850190845b81811015611eaa5783516001600160a01b031683529284019291840191600101611e85565b50909695505050505050565b600080600080600060808688031215611ece57600080fd5b8535945060208601359350604086013567ffffffffffffffff80821115611ef457600080fd5b818801915088601f830112611f0857600080fd5b813581811115611f1757600080fd5b896020606083028501011115611f2c57600080fd5b96999598505060200195606001359392505050565b6020808252825182820181905260009190848201906040850190845b81811015611eaa57835183529284019291840191600101611f5d565b8015158114611d8a57600080fd5b6000808284036080811215611f9b57600080fd5b8335611fa681611d75565b92506060601f1982011215611fba57600080fd5b506040516060810181811067ffffffffffffffff82111715611fde57611fde611d0a565b6040526020840135611fef81611d75565b81526040840135611fff81611d75565b6020820152606084013561201281611f79565b6040820152919491935090915050565b6020808252600b908201526a1b9bdd08185b1b1bddd95960aa1b604082015260600190565b634e487b7160e01b600052603260045260246000fd5b634e487b7160e01b600052601160045260246000fd5b6000600182016120855761208561205d565b5060010190565b60208082526006908201526506164647220360d41b604082015260600190565b6000828210156120be576120be61205d565b500390565b634e487b7160e01b600052603160045260246000fd5b6020808252600a90820152693737ba1035b2b2b832b960b11b604082015260600190565b60006020828403121561210f57600080fd5b5051919050565b600060a0820187835260208781850152604060a08186015282885180855260c087019150838a01945060005b8181101561217f57855180516001600160a01b03908116855286820151168685015284015115158484015294840194606090920191600101612142565b50506001600160a01b0388166060870152935061219b92505050565b8260808301529695505050505050565b600060208083850312156121be57600080fd5b825167ffffffffffffffff8111156121d557600080fd5b8301601f810185136121e657600080fd5b80516121f4611dd682611d51565b81815260059190911b8201830190838101908783111561221357600080fd5b928401925b82841015611e2157835182529284019290840190612218565b600060a0820188835260208881850152604060a0818601528288845260c08601905089935060005b898110156122b157843561226c81611d75565b6001600160a01b039081168352858501359061228782611d75565b16828501528483013561229981611f79565b15158284015260609485019490910190600101612259565b506001600160a01b038816606087015293506122cc92505050565b826080830152979650505050505050565b6000602082840312156122ef57600080fd5b8151611e4981611d75565b6000825160005b8181101561231b5760208186018101518583015201612301565b8181111561232a576000828501525b509190910192915050565b60006020828403121561234757600080fd5b8151611e4981611f7956fea2646970667358221220caef1729a6c406fa6738c247c1cb464a439a70674bccadf385be3a9fbbb749e364736f6c634300080d0033",
  "linkReferences": {},
  "deployedLinkReferences": {}
}