{
  "_format": "hh-sol-artifact-1",
  "contractName": "MerkleTreeTHENFT",
  "sourceName": "contracts/MerkleTree/MerkleTreeTHENFT.sol",
  "abi": [
    {
      "inputs": [
        {
          "internalType": "address",
          "name": "_airdropClaim",
          "type": "address"
        }
      ],
      "stateMutability": "nonpayable",
      "type": "constructor"
    },
    {
      "inputs": [
        {
          "internalType": "address",
          "name": "_who",
          "type": "address"
        }
      ],
      "name": "AlreadyClaimed",
      "type": "error"
    },
    {
      "inputs": [
        {
          "internalType": "address",
          "name": "_who",
          "type": "address"
        },
        {
          "internalType": "uint256",
          "name": "_amnt",
          "type": "uint256"
        }
      ],
      "name": "NotInMerkle",
      "type": "error"
    },
    {
      "anonymous": false,
      "inputs": [
        {
          "indexed": true,
          "internalType": "address",
          "name": "who",
          "type": "address"
        },
        {
          "indexed": true,
          "internalType": "address",
          "name": "to",
          "type": "address"
        },
        {
          "indexed": false,
          "internalType": "uint256",
          "name": "amount",
          "type": "uint256"
        }
      ],
      "name": "ClaimSet",
      "type": "event"
    },
    {
      "inputs": [],
      "name": "_init",
      "outputs": [],
      "stateMutability": "nonpayable",
      "type": "function"
    },
    {
      "inputs": [],
      "name": "airdropClaim",
      "outputs": [
        {
          "internalType": "address",
          "name": "",
          "type": "address"
        }
      ],
      "stateMutability": "view",
      "type": "function"
    },
    {
      "inputs": [
        {
          "internalType": "address",
          "name": "to",
          "type": "address"
        },
        {
          "internalType": "uint256",
          "name": "amount",
          "type": "uint256"
        },
        {
          "internalType": "bytes32[]",
          "name": "proof",
          "type": "bytes32[]"
        }
      ],
      "name": "claim",
      "outputs": [],
      "stateMutability": "nonpayable",
      "type": "function"
    },
    {
      "inputs": [
        {
          "internalType": "address",
          "name": "",
          "type": "address"
        }
      ],
      "name": "hasClaimed",
      "outputs": [
        {
          "internalType": "bool",
          "name": "",
          "type": "bool"
        }
      ],
      "stateMutability": "view",
      "type": "function"
    },
    {
      "inputs": [],
      "name": "info",
      "outputs": [
        {
          "internalType": "string",
          "name": "",
          "type": "string"
        }
      ],
      "stateMutability": "view",
      "type": "function"
    },
    {
      "inputs": [],
      "name": "init",
      "outputs": [
        {
          "internalType": "bool",
          "name": "",
          "type": "bool"
        }
      ],
      "stateMutability": "view",
      "type": "function"
    },
    {
      "inputs": [],
      "name": "merkleRoot",
      "outputs": [
        {
          "internalType": "bytes32",
          "name": "",
          "type": "bytes32"
        }
      ],
      "stateMutability": "view",
      "type": "function"
    },
    {
      "inputs": [],
      "name": "owner",
      "outputs": [
        {
          "internalType": "address",
          "name": "",
          "type": "address"
        }
      ],
      "stateMutability": "view",
      "type": "function"
    },
    {
      "inputs": [
        {
          "internalType": "bytes32",
          "name": "_merkleRoot",
          "type": "bytes32"
        }
      ],
      "name": "setMerkleRoot",
      "outputs": [],
      "stateMutability": "nonpayable",
      "type": "function"
    },
    {
      "inputs": [
        {
          "internalType": "address",
          "name": "_owner",
          "type": "address"
        }
      ],
      "name": "setOwner",
      "outputs": [],
      "stateMutability": "nonpayable",
      "type": "function"
    }
  ],
  "bytecode": "0x60c0604052601960808190527f4d65726b6c6554726565207468654e46542041697264726f700000000000000060a090815261003e9160049190610098565b5034801561004b57600080fd5b506040516109fc3803806109fc83398101604081905261006a91610131565b600180546001600160a01b039092166001600160a01b0319928316179055600280549091163317905561019b565b8280546100a490610161565b90600052602060002090601f0160209004810192826100c6576000855561010c565b82601f106100df57805160ff191683800117855561010c565b8280016001018555821561010c579182015b8281111561010c5782518255916020019190600101906100f1565b5061011892915061011c565b5090565b5b80821115610118576000815560010161011d565b60006020828403121561014357600080fd5b81516001600160a01b038116811461015a57600080fd5b9392505050565b600181811c9082168061017557607f821691505b60208210810361019557634e487b7160e01b600052602260045260246000fd5b50919050565b610852806101aa6000396000f3fe608060405234801561001057600080fd5b506004361061009e5760003560e01c80637cb64759116100665780637cb647591461012f5780638da5cb5b14610142578063b349b9731461016d578063b6d6ed4e14610175578063e1c7392a1461018857600080fd5b806313af4035146100a35780632eb4a7ab146100b8578063370158ea146100d45780633d13f874146100e957806373b2e80e146100fc575b600080fd5b6100b66100b136600461064d565b61019c565b005b6100c160005481565b6040519081526020015b60405180910390f35b6100dc610204565b6040516100cb9190610668565b6100b66100f73660046106bd565b610292565b61011f61010a36600461064d565b60036020526000908152604090205460ff1681565b60405190151581526020016100cb565b6100b661013d366004610747565b6104a9565b600254610155906001600160a01b031681565b6040516001600160a01b0390911681526020016100cb565b6100b661050e565b600154610155906001600160a01b031681565b60025461011f90600160a01b900460ff1681565b6002546001600160a01b031633146101cf5760405162461bcd60e51b81526004016101c690610760565b60405180910390fd5b6001600160a01b0381166101e257600080fd5b600280546001600160a01b0319166001600160a01b0392909216919091179055565b6004805461021190610783565b80601f016020809104026020016040519081016040528092919081815260200182805461023d90610783565b801561028a5780601f1061025f5761010080835404028352916020019161028a565b820191906000526020600020905b81548152906001019060200180831161026d57829003601f168201915b505050505081565b600254600160a01b900460ff166102d95760405162461bcd60e51b815260206004820152600b60248201526a1b9bdd081cdd185c9d195960aa1b60448201526064016101c6565b3360009081526003602052604090205460ff161561030c57604051632058b6db60e01b81523360048201526024016101c6565b6040516bffffffffffffffffffffffff193360601b16602082015260348101849052600090605401604051602081830303815290604052805190602001209050600061038d848480806020026020016040519081016040528093929190818152602001838360200280828437600092018290525054925086915061059c9050565b9050806103b65760405163057365dd60e31b8152336004820152602481018690526044016101c6565b6001546040516304f4b51360e51b8152336004820152602481018790526001600160a01b0388811660448301526000921690639e96a260906064016020604051808303816000875af1158015610410573d6000803e3d6000fd5b505050506040513d601f19601f8201168201806040525081019061043491906107bd565b90508061044057600080fd5b3360008181526003602052604090819020805460ff19166001179055516001600160a01b03891691907fdc2005f113f1c2ccd6bd35df2a16954f0ff4e029277b9d76ea10b0b3b29ae96490610498908a815260200190565b60405180910390a350505050505050565b6002546001600160a01b031633146104d35760405162461bcd60e51b81526004016101c690610760565b806105095760405162461bcd60e51b81526020600482015260066024820152650726f6f7420360d41b60448201526064016101c6565b600055565b6002546001600160a01b031633146105385760405162461bcd60e51b81526004016101c690610760565b600254600160a01b900460ff161561054f57600080fd5b6000546105875760405162461bcd60e51b81526020600482015260066024820152650726f6f7420360d41b60448201526064016101c6565b6002805460ff60a01b1916600160a01b179055565b6000826105a985846105b2565b14949350505050565b600081815b84518110156105f7576105e3828683815181106105d6576105d66107df565b60200260200101516105ff565b9150806105ef816107f5565b9150506105b7565b509392505050565b600081831061061b57600082815260208490526040902061062a565b60008381526020839052604090205b9392505050565b80356001600160a01b038116811461064857600080fd5b919050565b60006020828403121561065f57600080fd5b61062a82610631565b600060208083528351808285015260005b8181101561069557858101830151858201604001528201610679565b818111156106a7576000604083870101525b50601f01601f1916929092016040019392505050565b600080600080606085870312156106d357600080fd5b6106dc85610631565b935060208501359250604085013567ffffffffffffffff8082111561070057600080fd5b818701915087601f83011261071457600080fd5b81358181111561072357600080fd5b8860208260051b850101111561073857600080fd5b95989497505060200194505050565b60006020828403121561075957600080fd5b5035919050565b6020808252600990820152683737ba1037bbb732b960b91b604082015260600190565b600181811c9082168061079757607f821691505b6020821081036107b757634e487b7160e01b600052602260045260246000fd5b50919050565b6000602082840312156107cf57600080fd5b8151801515811461062a57600080fd5b634e487b7160e01b600052603260045260246000fd5b60006001820161081557634e487b7160e01b600052601160045260246000fd5b506001019056fea2646970667358221220a83b6132b50b123b7ce435f0f2768bb19f1d8fe9240c7ccd07c69a6e0910962664736f6c634300080d0033",
  "linkReferences": {},
  "deployedLinkReferences": {}
}