{
  "_format": "hh-sol-artifact-1",
  "contractName": "RewardAPI",
  "sourceName": "contracts/APIHelper/RewardAPI.sol",
  "abi": [
    {
      "inputs": [],
      "stateMutability": "nonpayable",
      "type": "constructor"
    },
    {
      "anonymous": false,
      "inputs": [
        {
          "indexed": false,
          "internalType": "uint8",
          "name": "version",
          "type": "uint8"
        }
      ],
      "name": "Initialized",
      "type": "event"
    },
    {
      "inputs": [
        {
          "internalType": "address",
          "name": "_token",
          "type": "address"
        }
      ],
      "name": "addNotReward",
      "outputs": [],
      "stateMutability": "nonpayable",
      "type": "function"
    },
    {
      "inputs": [
        {
          "internalType": "uint256",
          "name": "tokenId",
          "type": "uint256"
        },
        {
          "internalType": "address[]",
          "name": "pairs",
          "type": "address[]"
        }
      ],
      "name": "getExpectedClaimForNextEpoch",
      "outputs": [
        {
          "components": [
            {
              "components": [
                {
                  "internalType": "address[]",
                  "name": "tokens",
                  "type": "address[]"
                },
                {
                  "internalType": "string[]",
                  "name": "symbols",
                  "type": "string[]"
                },
                {
                  "internalType": "uint256[]",
                  "name": "decimals",
                  "type": "uint256[]"
                },
                {
                  "internalType": "uint256[]",
                  "name": "amounts",
                  "type": "uint256[]"
                }
              ],
              "internalType": "struct RewardAPI.Bribes[]",
              "name": "bribes",
              "type": "tuple[]"
            }
          ],
          "internalType": "struct RewardAPI.Rewards[]",
          "name": "",
          "type": "tuple[]"
        }
      ],
      "stateMutability": "view",
      "type": "function"
    },
    {
      "inputs": [
        {
          "internalType": "address",
          "name": "pair",
          "type": "address"
        }
      ],
      "name": "getPairBribe",
      "outputs": [
        {
          "components": [
            {
              "internalType": "address[]",
              "name": "tokens",
              "type": "address[]"
            },
            {
              "internalType": "string[]",
              "name": "symbols",
              "type": "string[]"
            },
            {
              "internalType": "uint256[]",
              "name": "decimals",
              "type": "uint256[]"
            },
            {
              "internalType": "uint256[]",
              "name": "amounts",
              "type": "uint256[]"
            }
          ],
          "internalType": "struct RewardAPI.Bribes[]",
          "name": "",
          "type": "tuple[]"
        }
      ],
      "stateMutability": "view",
      "type": "function"
    },
    {
      "inputs": [
        {
          "internalType": "address",
          "name": "_voter",
          "type": "address"
        }
      ],
      "name": "initialize",
      "outputs": [],
      "stateMutability": "nonpayable",
      "type": "function"
    },
    {
      "inputs": [
        {
          "internalType": "address",
          "name": "",
          "type": "address"
        }
      ],
      "name": "notReward",
      "outputs": [
        {
          "internalType": "bool",
          "name": "",
          "type": "bool"
        }
      ],
      "stateMutability": "view",
      "type": "function"
    },
    {
      "inputs": [],
      "name": "owner",
      "outputs": [
        {
          "internalType": "address",
          "name": "",
          "type": "address"
        }
      ],
      "stateMutability": "view",
      "type": "function"
    },
    {
      "inputs": [],
      "name": "pairFactory",
      "outputs": [
        {
          "internalType": "contract IPairFactory",
          "name": "",
          "type": "address"
        }
      ],
      "stateMutability": "view",
      "type": "function"
    },
    {
      "inputs": [
        {
          "internalType": "address",
          "name": "_token",
          "type": "address"
        }
      ],
      "name": "removeNotReward",
      "outputs": [],
      "stateMutability": "nonpayable",
      "type": "function"
    },
    {
      "inputs": [
        {
          "internalType": "address",
          "name": "_owner",
          "type": "address"
        }
      ],
      "name": "setOwner",
      "outputs": [],
      "stateMutability": "nonpayable",
      "type": "function"
    },
    {
      "inputs": [
        {
          "internalType": "address",
          "name": "_voter",
          "type": "address"
        }
      ],
      "name": "setVoter",
      "outputs": [],
      "stateMutability": "nonpayable",
      "type": "function"
    },
    {
      "inputs": [],
      "name": "underlyingToken",
      "outputs": [
        {
          "internalType": "address",
          "name": "",
          "type": "address"
        }
      ],
      "stateMutability": "view",
      "type": "function"
    },
    {
      "inputs": [],
      "name": "voter",
      "outputs": [
        {
          "internalType": "contract IVoter",
          "name": "",
          "type": "address"
        }
      ],
      "stateMutability": "view",
      "type": "function"
    }
  ],
  "bytecode": "0x608060405234801561001057600080fd5b50611e5d806100206000396000f3fe608060405234801561001057600080fd5b50600436106100b45760003560e01c80638da5cb5b116100715780638da5cb5b146101575780638fbc1b5a1461016a578063a81d9e511461017d578063c4d66de8146101b0578063e14f870d146101c3578063f8d7fd68146101dc57600080fd5b806313af4035146100b95780632495a599146100ce57806333c281ab146100fe57806346c96aac146101115780634bc2a65714610124578063639fdb6c14610137575b600080fd5b6100cc6100c73660046118d8565b6101fc565b005b6002546100e1906001600160a01b031681565b6040516001600160a01b0390911681526020015b60405180910390f35b6100cc61010c3660046118d8565b610292565b6001546100e1906001600160a01b031681565b6100cc6101323660046118d8565b6102e0565b61014a6101453660046118d8565b6104d5565b6040516100f59190611ab7565b6003546100e1906001600160a01b031681565b6100cc6101783660046118d8565b6106d9565b6101a061018b3660046118d8565b60046020526000908152604090205460ff1681565b60405190151581526020016100f5565b6100cc6101be3660046118d8565b610724565b6000546100e1906201000090046001600160a01b031681565b6101ef6101ea366004611b10565b610a09565b6040516100f59190611bcd565b6003546001600160a01b0316331461022f5760405162461bcd60e51b815260040161022690611c37565b60405180910390fd5b6001600160a01b0381166102705760405162461bcd60e51b81526020600482015260086024820152673d32b937a0b2323960c11b6044820152606401610226565b600380546001600160a01b0319166001600160a01b0392909216919091179055565b6003546001600160a01b031633146102bc5760405162461bcd60e51b815260040161022690611c37565b6001600160a01b03166000908152600460205260409020805460ff19166001179055565b6003546001600160a01b0316331461030a5760405162461bcd60e51b815260040161022690611c37565b6001600160a01b03811661034b5760405162461bcd60e51b81526020600482015260086024820152673d32b937a0b2323960c11b6044820152606401610226565b600180546001600160a01b0319166001600160a01b0383169081179091556040805163c45a015560e01b8152905163c45a0155916004808201926020929091908290030181865afa1580156103a4573d6000803e3d6000fd5b505050506040513d601f19601f820116820180604052508101906103c89190611c5a565b6000805462010000600160b01b031916620100006001600160a01b039384160217905560015460408051638dd598fb60e01b815290519190921691638dd598fb9160048083019260209291908290030181865afa15801561042d573d6000803e3d6000fd5b505050506040513d601f19601f820116820180604052508101906104519190611c5a565b6001600160a01b031663fc0c546a6040518163ffffffff1660e01b8152600401602060405180830381865afa15801561048e573d6000803e3d6000fd5b505050506040513d601f19601f820116820180604052508101906104b29190611c5a565b600280546001600160a01b0319166001600160a01b039290921691909117905550565b60408051600280825260608281019093526000918291829190816020015b61051e6040518060800160405280606081526020016060815260200160608152602001606081525090565b8152602001906001900390816104f35790505060015460405163b9a09fd560e01b81526001600160a01b03888116600483015292935091169063b9a09fd590602401602060405180830381865afa15801561057d573d6000803e3d6000fd5b505050506040513d601f19601f820116820180604052508101906105a19190611c5a565b60015460405163ae21c4cb60e01b81526001600160a01b03808416600483015292955091169063ae21c4cb90602401602060405180830381865afa1580156105ed573d6000803e3d6000fd5b505050506040513d601f19601f820116820180604052508101906106119190611c5a565b915061061c82610ce4565b8160008151811061062f5761062f611c77565b6020908102919091010152600154604051637572079360e11b81526001600160a01b0385811660048301529091169063eae40f2690602401602060405180830381865afa158015610684573d6000803e3d6000fd5b505050506040513d601f19601f820116820180604052508101906106a89190611c5a565b91506106b382610ce4565b816001815181106106c6576106c6611c77565b6020908102919091010152949350505050565b6003546001600160a01b031633146107035760405162461bcd60e51b815260040161022690611c37565b6001600160a01b03166000908152600460205260409020805460ff19169055565b600054610100900460ff16158080156107445750600054600160ff909116105b8061075e5750303b15801561075e575060005460ff166001145b6107c15760405162461bcd60e51b815260206004820152602e60248201527f496e697469616c697a61626c653a20636f6e747261637420697320616c72656160448201526d191e481a5b9a5d1a585b1a5e995960921b6064820152608401610226565b6000805460ff1916600117905580156107e4576000805461ff0019166101001790555b600380546001600160a01b03199081163317909155600180546001600160a01b0385169216821790556040805163c45a015560e01b8152905163c45a0155916004808201926020929091908290030181865afa158015610848573d6000803e3d6000fd5b505050506040513d601f19601f8201168201806040525081019061086c9190611c5a565b6000805462010000600160b01b031916620100006001600160a01b039384160217905560015460408051638dd598fb60e01b815290519190921691638dd598fb9160048083019260209291908290030181865afa1580156108d1573d6000803e3d6000fd5b505050506040513d601f19601f820116820180604052508101906108f59190611c5a565b6001600160a01b031663fc0c546a6040518163ffffffff1660e01b8152600401602060405180830381865afa158015610932573d6000803e3d6000fd5b505050506040513d601f19601f820116820180604052508101906109569190611c5a565b600280546001600160a01b0319166001600160a01b039290921691909117905573f0308d005717858756acaa6b3dcd4d0de4a1ca5460005260046020527f98064dd0ce096a748f2ddaf4d7af5c1cb30acb72c61f40282d505e14af7c2e02805460ff191660011790558015610a05576000805461ff0019169055604051600181527f7f26b83ff96e1f2b6a682f133852f6798a09c465da95921460cefb38474024989060200160405180910390a15b5050565b8051604080516002808252606082810190935291926000929091839182918291816020015b610a596040518060800160405280606081526020016060815260200160608152602001606081525090565b815260200190600190039081610a2e5790505090506000846001600160401b03811115610a8857610a88611aca565b604051908082528060200260200182016040528015610ac857816020015b604080516020810190915260608152815260200190600190039081610aa65790505b509050600095505b84861015610cd85760015488516001600160a01b039091169063b9a09fd5908a9089908110610b0157610b01611c77565b60200260200101516040518263ffffffff1660e01b8152600401610b3491906001600160a01b0391909116815260200190565b602060405180830381865afa158015610b51573d6000803e3d6000fd5b505050506040513d601f19601f82011682018060405250810190610b759190611c5a565b60015460405163ae21c4cb60e01b81526001600160a01b03808416600483015292965091169063ae21c4cb90602401602060405180830381865afa158015610bc1573d6000803e3d6000fd5b505050506040513d601f19601f82011682018060405250810190610be59190611c5a565b9250610bf18984611251565b82600081518110610c0457610c04611c77565b6020908102919091010152600154604051637572079360e11b81526001600160a01b0386811660048301529091169063eae40f2690602401602060405180830381865afa158015610c59573d6000803e3d6000fd5b505050506040513d601f19601f82011682018060405250810190610c7d9190611c5a565b9250610c898984611251565b82600181518110610c9c57610c9c611c77565b602002602001018190525081818781518110610cba57610cba611c77565b60209081029190910101515285610cd081611ca3565b965050610ad0565b98975050505050505050565b610d0f6040518060800160405280606081526020016060815260200160608152602001606081525090565b6000826001600160a01b031663e68863966040518163ffffffff1660e01b8152600401602060405180830381865afa158015610d4f573d6000803e3d6000fd5b505050506040513d601f19601f82011682018060405250810190610d739190611cbc565b90506000816001600160401b03811115610d8f57610d8f611aca565b604051908082528060200260200182016040528015610db8578160200160208202803683370190505b5090506000826001600160401b03811115610dd557610dd5611aca565b604051908082528060200260200182016040528015610dfe578160200160208202803683370190505b5090506000836001600160401b03811115610e1b57610e1b611aca565b604051908082528060200260200182016040528015610e4e57816020015b6060815260200190600190039081610e395790505b5090506000846001600160401b03811115610e6b57610e6b611aca565b604051908082528060200260200182016040528015610e94578160200160208202803683370190505b5090506000876001600160a01b03166365c5f94a6040518163ffffffff1660e01b8152600401602060405180830381865afa158015610ed7573d6000803e3d6000fd5b505050506040513d601f19601f82011682018060405250810190610efb9190611cbc565b9050600080610f2460405180606001604052806000815260200160008152602001600081525090565b8883101561123257604051637bb7bed160e01b8152600481018490526001600160a01b038c1690637bb7bed190602401602060405180830381865afa158015610f71573d6000803e3d6000fd5b505050506040513d601f19601f82011682018060405250810190610f959190611c5a565b915081878481518110610faa57610faa611c77565b6001600160a01b0392831660209182029290920181019190915290831660009081526004909152604090205460ff1615611084576000888481518110610ff257610ff2611c77565b602002602001018181525050600087848151811061101257611012611c77565b60200260200101906001600160a01b031690816001600160a01b0316815250506040518060200160405280600081525086848151811061105457611054611c77565b6020026020010181905250600085848151811061107357611073611c77565b602002602001018181525050611220565b816001600160a01b03166395d89b416040518163ffffffff1660e01b8152600401600060405180830381865afa1580156110c2573d6000803e3d6000fd5b505050506040513d6000823e601f3d908101601f191682016040526110ea9190810190611cd5565b8684815181106110fc576110fc611c77565b6020026020010181905250816001600160a01b031663313ce5676040518163ffffffff1660e01b8152600401602060405180830381865afa158015611145573d6000803e3d6000fd5b505050506040513d601f19601f820116820180604052508101906111699190611d68565b60ff1685848151811061117e5761117e611c77565b6020908102919091010152604051631c0ba43160e11b81526001600160a01b038381166004830152602482018690528c1690633817486290604401606060405180830381865afa1580156111d6573d6000803e3d6000fd5b505050506040513d601f19601f820116820180604052508101906111fa9190611d8b565b9050806020015188848151811061121357611213611c77565b6020026020010181815250505b8261122a81611ca3565b935050610f24565b5050509286526060860193909352602085015250604083015250919050565b61127c6040518060800160405280606081526020016060815260200160608152602001606081525090565b6000826001600160a01b031663e68863966040518163ffffffff1660e01b8152600401602060405180830381865afa1580156112bc573d6000803e3d6000fd5b505050506040513d601f19601f820116820180604052508101906112e09190611cbc565b90506000816001600160401b038111156112fc576112fc611aca565b604051908082528060200260200182016040528015611325578160200160208202803683370190505b5090506000826001600160401b0381111561134257611342611aca565b60405190808252806020026020018201604052801561136b578160200160208202803683370190505b5090506000836001600160401b0381111561138857611388611aca565b6040519080825280602002602001820160405280156113bb57816020015b60608152602001906001900390816113a65790505b5090506000846001600160401b038111156113d8576113d8611aca565b604051908082528060200260200182016040528015611401578160200160208202803683370190505b5090506000876001600160a01b031663a4a3e0356040518163ffffffff1660e01b8152600401602060405180830381865afa158015611444573d6000803e3d6000fd5b505050506040513d601f19601f820116820180604052508101906114689190611cbc565b9050600080896001600160a01b031663981b24d0846040518263ffffffff1660e01b815260040161149b91815260200190565b602060405180830381865afa1580156114b8573d6000803e3d6000fd5b505050506040513d601f19601f820116820180604052508101906114dc9190611cbc565b60405163853c8aeb60e01b8152600481018d9052602481018590529091506000906001600160a01b038c169063853c8aeb90604401602060405180830381865afa15801561152e573d6000803e3d6000fd5b505050506040513d601f19601f820116820180604052508101906115529190611cbc565b9050600061157a60405180606001604052806000815260200160008152602001600081525090565b8a85101561189e57604051637bb7bed160e01b8152600481018690526001600160a01b038e1690637bb7bed190602401602060405180830381865afa1580156115c7573d6000803e3d6000fd5b505050506040513d601f19601f820116820180604052508101906115eb9190611c5a565b91508189868151811061160057611600611c77565b6001600160a01b039092166020928302919091019091015282158061163d57506001600160a01b03821660009081526004602052604090205460ff165b156116b45760008a868151811061165657611656611c77565b6020026020010181815250506040518060200160405280600081525088868151811061168457611684611c77565b602002602001018190525060008786815181106116a3576116a3611c77565b60200260200101818152505061188c565b816001600160a01b03166395d89b416040518163ffffffff1660e01b8152600401600060405180830381865afa1580156116f2573d6000803e3d6000fd5b505050506040513d6000823e601f3d908101601f1916820160405261171a9190810190611cd5565b88868151811061172c5761172c611c77565b6020026020010181905250816001600160a01b031663313ce5676040518163ffffffff1660e01b8152600401602060405180830381865afa158015611775573d6000803e3d6000fd5b505050506040513d601f19601f820116820180604052508101906117999190611d68565b60ff168786815181106117ae576117ae611c77565b6020908102919091010152604051631c0ba43160e11b81526001600160a01b038381166004830152602482018890528e1690633817486290604401606060405180830381865afa158015611806573d6000803e3d6000fd5b505050506040513d601f19601f8201168201806040525081019061182a9190611d8b565b9050670de0b6b3a764000083858360200151670de0b6b3a764000061184f9190611de6565b6118599190611e05565b6118639190611de6565b61186d9190611e05565b8a868151811061187f5761187f611c77565b6020026020010181815250505b8461189681611ca3565b95505061157a565b5050509488525050606086019390935260208501525060408301525092915050565b6001600160a01b03811681146118d557600080fd5b50565b6000602082840312156118ea57600080fd5b81356118f5816118c0565b9392505050565b60005b838110156119175781810151838201526020016118ff565b83811115611926576000848401525b50505050565b600081518084526020808501808196508360051b8101915082860160005b8581101561198c5782840389528151805180865261196d818888018985016118fc565b99860199601f01601f191694909401850193509084019060010161194a565b5091979650505050505050565b600081518084526020808501945080840160005b838110156119c9578151875295820195908201906001016119ad565b509495945050505050565b600081518084526020808501808196508360051b810191508286016000805b86811015611aa9578385038a52825180516080808852815190880181905260a088019189019085905b80821015611a455782516001600160a01b03168452928a0192918a019160019190910190611a1c565b5050508782015187820389890152611a5d828261192c565b915050604080830151888303828a0152611a778382611999565b9250505060608083015192508782038189015250611a958183611999565b9b88019b96505050918501916001016119f3565b509298975050505050505050565b6020815260006118f560208301846119d4565b634e487b7160e01b600052604160045260246000fd5b604051601f8201601f191681016001600160401b0381118282101715611b0857611b08611aca565b604052919050565b60008060408385031215611b2357600080fd5b823591506020808401356001600160401b0380821115611b4257600080fd5b818601915086601f830112611b5657600080fd5b813581811115611b6857611b68611aca565b8060051b9150611b79848301611ae0565b8181529183018401918481019089841115611b9357600080fd5b938501935b83851015611bbd5784359250611bad836118c0565b8282529385019390850190611b98565b8096505050505050509250929050565b6000602080830181845280855180835260408601915060408160051b870101925083870160005b82811015611c2a57878503603f19018452815151868652611c17878701826119d4565b9550509285019290850190600101611bf4565b5092979650505050505050565b6020808252600990820152683737ba1037bbb732b960b91b604082015260600190565b600060208284031215611c6c57600080fd5b81516118f5816118c0565b634e487b7160e01b600052603260045260246000fd5b634e487b7160e01b600052601160045260246000fd5b600060018201611cb557611cb5611c8d565b5060010190565b600060208284031215611cce57600080fd5b5051919050565b600060208284031215611ce757600080fd5b81516001600160401b0380821115611cfe57600080fd5b818401915084601f830112611d1257600080fd5b815181811115611d2457611d24611aca565b611d37601f8201601f1916602001611ae0565b9150808252856020828501011115611d4e57600080fd5b611d5f8160208401602086016118fc565b50949350505050565b600060208284031215611d7a57600080fd5b815160ff811681146118f557600080fd5b600060608284031215611d9d57600080fd5b604051606081018181106001600160401b0382111715611dbf57611dbf611aca565b80604052508251815260208301516020820152604083015160408201528091505092915050565b6000816000190483118215151615611e0057611e00611c8d565b500290565b600082611e2257634e487b7160e01b600052601260045260246000fd5b50049056fea264697066735822122037019bd97d209c04c6550ee5a44ae74b6ead63af6ba276d6cb6899cc6a8151ff64736f6c634300080d0033",
  "linkReferences": {},
  "deployedLinkReferences": {}
}