{
  "_format": "hh-sol-artifact-1",
  "contractName": "RewardAPI",
  "sourceName": "contracts/APIHelper/RewardAPI.sol",
  "abi": [
    {
      "anonymous": false,
      "inputs": [
        {
          "indexed": false,
          "internalType": "uint8",
          "name": "version",
          "type": "uint8"
        }
      ],
      "name": "Initialized",
      "type": "event"
    },
    {
      "anonymous": false,
      "inputs": [
        {
          "indexed": true,
          "internalType": "address",
          "name": "previousOwner",
          "type": "address"
        },
        {
          "indexed": true,
          "internalType": "address",
          "name": "newOwner",
          "type": "address"
        }
      ],
      "name": "OwnershipTransferred",
      "type": "event"
    },
    {
      "inputs": [
        {
          "internalType": "address",
          "name": "_token",
          "type": "address"
        }
      ],
      "name": "addNotReward",
      "outputs": [],
      "stateMutability": "nonpayable",
      "type": "function"
    },
    {
      "inputs": [
        {
          "internalType": "uint256",
          "name": "tokenId",
          "type": "uint256"
        },
        {
          "internalType": "address[]",
          "name": "pairs",
          "type": "address[]"
        }
      ],
      "name": "getExpectedClaimForNextEpoch",
      "outputs": [
        {
          "components": [
            {
              "components": [
                {
                  "internalType": "address[]",
                  "name": "tokens",
                  "type": "address[]"
                },
                {
                  "internalType": "string[]",
                  "name": "symbols",
                  "type": "string[]"
                },
                {
                  "internalType": "uint256[]",
                  "name": "decimals",
                  "type": "uint256[]"
                },
                {
                  "internalType": "uint256[]",
                  "name": "amounts",
                  "type": "uint256[]"
                }
              ],
              "internalType": "struct RewardAPI.Bribes[]",
              "name": "bribes",
              "type": "tuple[]"
            }
          ],
          "internalType": "struct RewardAPI.Rewards[]",
          "name": "",
          "type": "tuple[]"
        }
      ],
      "stateMutability": "view",
      "type": "function"
    },
    {
      "inputs": [
        {
          "internalType": "address",
          "name": "pair",
          "type": "address"
        }
      ],
      "name": "getPairBribe",
      "outputs": [
        {
          "components": [
            {
              "internalType": "address[]",
              "name": "tokens",
              "type": "address[]"
            },
            {
              "internalType": "string[]",
              "name": "symbols",
              "type": "string[]"
            },
            {
              "internalType": "uint256[]",
              "name": "decimals",
              "type": "uint256[]"
            },
            {
              "internalType": "uint256[]",
              "name": "amounts",
              "type": "uint256[]"
            }
          ],
          "internalType": "struct RewardAPI.Bribes[]",
          "name": "",
          "type": "tuple[]"
        }
      ],
      "stateMutability": "view",
      "type": "function"
    },
    {
      "inputs": [
        {
          "internalType": "address",
          "name": "_voter",
          "type": "address"
        }
      ],
      "name": "initialize",
      "outputs": [],
      "stateMutability": "nonpayable",
      "type": "function"
    },
    {
      "inputs": [
        {
          "internalType": "address",
          "name": "",
          "type": "address"
        }
      ],
      "name": "notReward",
      "outputs": [
        {
          "internalType": "bool",
          "name": "",
          "type": "bool"
        }
      ],
      "stateMutability": "view",
      "type": "function"
    },
    {
      "inputs": [],
      "name": "owner",
      "outputs": [
        {
          "internalType": "address",
          "name": "",
          "type": "address"
        }
      ],
      "stateMutability": "view",
      "type": "function"
    },
    {
      "inputs": [],
      "name": "pairFactory",
      "outputs": [
        {
          "internalType": "contract IPairFactory",
          "name": "",
          "type": "address"
        }
      ],
      "stateMutability": "view",
      "type": "function"
    },
    {
      "inputs": [
        {
          "internalType": "address",
          "name": "_token",
          "type": "address"
        }
      ],
      "name": "removeNotReward",
      "outputs": [],
      "stateMutability": "nonpayable",
      "type": "function"
    },
    {
      "inputs": [],
      "name": "renounceOwnership",
      "outputs": [],
      "stateMutability": "nonpayable",
      "type": "function"
    },
    {
      "inputs": [
        {
          "internalType": "address",
          "name": "_voter",
          "type": "address"
        }
      ],
      "name": "setVoter",
      "outputs": [],
      "stateMutability": "nonpayable",
      "type": "function"
    },
    {
      "inputs": [
        {
          "internalType": "address",
          "name": "newOwner",
          "type": "address"
        }
      ],
      "name": "transferOwnership",
      "outputs": [],
      "stateMutability": "nonpayable",
      "type": "function"
    },
    {
      "inputs": [],
      "name": "underlyingToken",
      "outputs": [
        {
          "internalType": "address",
          "name": "",
          "type": "address"
        }
      ],
      "stateMutability": "view",
      "type": "function"
    },
    {
      "inputs": [],
      "name": "voter",
      "outputs": [
        {
          "internalType": "contract IVoter",
          "name": "",
          "type": "address"
        }
      ],
      "stateMutability": "view",
      "type": "function"
    }
  ],
  "bytecode": "0x608060405234801561001057600080fd5b50611f30806100206000396000f3fe608060405234801561001057600080fd5b50600436106100cf5760003560e01c80638da5cb5b1161008c578063c4d66de811610066578063c4d66de8146101be578063e14f870d146101d1578063f2fde38b146101e4578063f8d7fd68146101f757600080fd5b80638da5cb5b146101675780638fbc1b5a14610178578063a81d9e511461018b57600080fd5b80632495a599146100d457806333c281ab1461010457806346c96aac146101195780634bc2a6571461012c578063639fdb6c1461013f578063715018a61461015f575b600080fd5b6067546100e7906001600160a01b031681565b6040516001600160a01b0390911681526020015b60405180910390f35b610117610112366004611980565b610217565b005b6066546100e7906001600160a01b031681565b61011761013a366004611980565b610243565b61015261014d366004611980565b610414565b6040516100fb9190611b62565b610117610618565b6033546001600160a01b03166100e7565b610117610186366004611980565b61062c565b6101ae610199366004611980565b60686020526000908152604090205460ff1681565b60405190151581526020016100fb565b6101176101cc366004611980565b610655565b6065546100e7906001600160a01b031681565b6101176101f2366004611980565b610930565b61020a610205366004611bbb565b6109a9565b6040516100fb9190611c78565b61021f610c84565b6001600160a01b03166000908152606860205260409020805460ff19166001179055565b61024b610c84565b6001600160a01b0381166102915760405162461bcd60e51b81526020600482015260086024820152673d32b937a0b2323960c11b60448201526064015b60405180910390fd5b606680546001600160a01b0319166001600160a01b0383169081179091556040805163c45a015560e01b8152905163c45a0155916004808201926020929091908290030181865afa1580156102ea573d6000803e3d6000fd5b505050506040513d601f19601f8201168201806040525081019061030e9190611ce2565b606580546001600160a01b0319166001600160a01b0392831617905560665460408051638dd598fb60e01b815290519190921691638dd598fb9160048083019260209291908290030181865afa15801561036c573d6000803e3d6000fd5b505050506040513d601f19601f820116820180604052508101906103909190611ce2565b6001600160a01b031663fc0c546a6040518163ffffffff1660e01b8152600401602060405180830381865afa1580156103cd573d6000803e3d6000fd5b505050506040513d601f19601f820116820180604052508101906103f19190611ce2565b606780546001600160a01b0319166001600160a01b039290921691909117905550565b60408051600280825260608281019093526000918291829190816020015b61045d6040518060800160405280606081526020016060815260200160608152602001606081525090565b8152602001906001900390816104325790505060665460405163b9a09fd560e01b81526001600160a01b03888116600483015292935091169063b9a09fd590602401602060405180830381865afa1580156104bc573d6000803e3d6000fd5b505050506040513d601f19601f820116820180604052508101906104e09190611ce2565b60665460405163ae21c4cb60e01b81526001600160a01b03808416600483015292955091169063ae21c4cb90602401602060405180830381865afa15801561052c573d6000803e3d6000fd5b505050506040513d601f19601f820116820180604052508101906105509190611ce2565b915061055b82610cde565b8160008151811061056e5761056e611cff565b6020908102919091010152606654604051637572079360e11b81526001600160a01b0385811660048301529091169063eae40f2690602401602060405180830381865afa1580156105c3573d6000803e3d6000fd5b505050506040513d601f19601f820116820180604052508101906105e79190611ce2565b91506105f282610cde565b8160018151811061060557610605611cff565b6020908102919091010152949350505050565b610620610c84565b61062a600061124b565b565b610634610c84565b6001600160a01b03166000908152606860205260409020805460ff19169055565b600054610100900460ff16158080156106755750600054600160ff909116105b8061068f5750303b15801561068f575060005460ff166001145b6106f25760405162461bcd60e51b815260206004820152602e60248201527f496e697469616c697a61626c653a20636f6e747261637420697320616c72656160448201526d191e481a5b9a5d1a585b1a5e995960921b6064820152608401610288565b6000805460ff191660011790558015610715576000805461ff0019166101001790555b61071d61129d565b606680546001600160a01b0319166001600160a01b0384169081179091556040805163c45a015560e01b8152905163c45a0155916004808201926020929091908290030181865afa158015610776573d6000803e3d6000fd5b505050506040513d601f19601f8201168201806040525081019061079a9190611ce2565b606580546001600160a01b0319166001600160a01b0392831617905560665460408051638dd598fb60e01b815290519190921691638dd598fb9160048083019260209291908290030181865afa1580156107f8573d6000803e3d6000fd5b505050506040513d601f19601f8201168201806040525081019061081c9190611ce2565b6001600160a01b031663fc0c546a6040518163ffffffff1660e01b8152600401602060405180830381865afa158015610859573d6000803e3d6000fd5b505050506040513d601f19601f8201168201806040525081019061087d9190611ce2565b606780546001600160a01b0319166001600160a01b039290921691909117905573f0308d005717858756acaa6b3dcd4d0de4a1ca5460005260686020527f19e96205609be447f9eea5bf8992437697d106e3e3b7ba2d6b58f1ad2bbabba6805460ff19166001179055801561092c576000805461ff0019169055604051600181527f7f26b83ff96e1f2b6a682f133852f6798a09c465da95921460cefb38474024989060200160405180910390a15b5050565b610938610c84565b6001600160a01b03811661099d5760405162461bcd60e51b815260206004820152602660248201527f4f776e61626c653a206e6577206f776e657220697320746865207a65726f206160448201526564647265737360d01b6064820152608401610288565b6109a68161124b565b50565b8051604080516002808252606082810190935291926000929091839182918291816020015b6109f96040518060800160405280606081526020016060815260200160608152602001606081525090565b8152602001906001900390816109ce5790505090506000846001600160401b03811115610a2857610a28611b75565b604051908082528060200260200182016040528015610a6857816020015b604080516020810190915260608152815260200190600190039081610a465790505b509050600095505b84861015610c785760665488516001600160a01b039091169063b9a09fd5908a9089908110610aa157610aa1611cff565b60200260200101516040518263ffffffff1660e01b8152600401610ad491906001600160a01b0391909116815260200190565b602060405180830381865afa158015610af1573d6000803e3d6000fd5b505050506040513d601f19601f82011682018060405250810190610b159190611ce2565b60665460405163ae21c4cb60e01b81526001600160a01b03808416600483015292965091169063ae21c4cb90602401602060405180830381865afa158015610b61573d6000803e3d6000fd5b505050506040513d601f19601f82011682018060405250810190610b859190611ce2565b9250610b9189846112cc565b82600081518110610ba457610ba4611cff565b6020908102919091010152606654604051637572079360e11b81526001600160a01b0386811660048301529091169063eae40f2690602401602060405180830381865afa158015610bf9573d6000803e3d6000fd5b505050506040513d601f19601f82011682018060405250810190610c1d9190611ce2565b9250610c2989846112cc565b82600181518110610c3c57610c3c611cff565b602002602001018190525081818781518110610c5a57610c5a611cff565b60209081029190910101515285610c7081611d2b565b965050610a70565b98975050505050505050565b6033546001600160a01b0316331461062a5760405162461bcd60e51b815260206004820181905260248201527f4f776e61626c653a2063616c6c6572206973206e6f7420746865206f776e65726044820152606401610288565b610d096040518060800160405280606081526020016060815260200160608152602001606081525090565b6000826001600160a01b031663e68863966040518163ffffffff1660e01b8152600401602060405180830381865afa158015610d49573d6000803e3d6000fd5b505050506040513d601f19601f82011682018060405250810190610d6d9190611d44565b90506000816001600160401b03811115610d8957610d89611b75565b604051908082528060200260200182016040528015610db2578160200160208202803683370190505b5090506000826001600160401b03811115610dcf57610dcf611b75565b604051908082528060200260200182016040528015610df8578160200160208202803683370190505b5090506000836001600160401b03811115610e1557610e15611b75565b604051908082528060200260200182016040528015610e4857816020015b6060815260200190600190039081610e335790505b5090506000846001600160401b03811115610e6557610e65611b75565b604051908082528060200260200182016040528015610e8e578160200160208202803683370190505b5090506000876001600160a01b03166365c5f94a6040518163ffffffff1660e01b8152600401602060405180830381865afa158015610ed1573d6000803e3d6000fd5b505050506040513d601f19601f82011682018060405250810190610ef59190611d44565b9050600080610f1e60405180606001604052806000815260200160008152602001600081525090565b8883101561122c57604051637bb7bed160e01b8152600481018490526001600160a01b038c1690637bb7bed190602401602060405180830381865afa158015610f6b573d6000803e3d6000fd5b505050506040513d601f19601f82011682018060405250810190610f8f9190611ce2565b915081878481518110610fa457610fa4611cff565b6001600160a01b0392831660209182029290920181019190915290831660009081526068909152604090205460ff161561107e576000888481518110610fec57610fec611cff565b602002602001018181525050600087848151811061100c5761100c611cff565b60200260200101906001600160a01b031690816001600160a01b0316815250506040518060200160405280600081525086848151811061104e5761104e611cff565b6020026020010181905250600085848151811061106d5761106d611cff565b60200260200101818152505061121a565b816001600160a01b03166395d89b416040518163ffffffff1660e01b8152600401600060405180830381865afa1580156110bc573d6000803e3d6000fd5b505050506040513d6000823e601f3d908101601f191682016040526110e49190810190611d5d565b8684815181106110f6576110f6611cff565b6020026020010181905250816001600160a01b031663313ce5676040518163ffffffff1660e01b8152600401602060405180830381865afa15801561113f573d6000803e3d6000fd5b505050506040513d601f19601f820116820180604052508101906111639190611df0565b60ff1685848151811061117857611178611cff565b6020908102919091010152604051631c0ba43160e11b81526001600160a01b038381166004830152602482018690528c1690633817486290604401606060405180830381865afa1580156111d0573d6000803e3d6000fd5b505050506040513d601f19601f820116820180604052508101906111f49190611e13565b9050806020015188848151811061120d5761120d611cff565b6020026020010181815250505b8261122481611d2b565b935050610f1e565b5050509286526060860193909352602085015250604083015250919050565b603380546001600160a01b038381166001600160a01b0319831681179093556040519116919082907f8be0079c531659141344cd1fd0a4f28419497f9722a3daafe3b4186f6b6457e090600090a35050565b600054610100900460ff166112c45760405162461bcd60e51b815260040161028890611e6e565b61062a61193b565b6112f76040518060800160405280606081526020016060815260200160608152602001606081525090565b6000826001600160a01b031663e68863966040518163ffffffff1660e01b8152600401602060405180830381865afa158015611337573d6000803e3d6000fd5b505050506040513d601f19601f8201168201806040525081019061135b9190611d44565b90506000816001600160401b0381111561137757611377611b75565b6040519080825280602002602001820160405280156113a0578160200160208202803683370190505b5090506000826001600160401b038111156113bd576113bd611b75565b6040519080825280602002602001820160405280156113e6578160200160208202803683370190505b5090506000836001600160401b0381111561140357611403611b75565b60405190808252806020026020018201604052801561143657816020015b60608152602001906001900390816114215790505b5090506000846001600160401b0381111561145357611453611b75565b60405190808252806020026020018201604052801561147c578160200160208202803683370190505b5090506000876001600160a01b031663a4a3e0356040518163ffffffff1660e01b8152600401602060405180830381865afa1580156114bf573d6000803e3d6000fd5b505050506040513d601f19601f820116820180604052508101906114e39190611d44565b9050600080896001600160a01b031663981b24d0846040518263ffffffff1660e01b815260040161151691815260200190565b602060405180830381865afa158015611533573d6000803e3d6000fd5b505050506040513d601f19601f820116820180604052508101906115579190611d44565b60405163853c8aeb60e01b8152600481018d9052602481018590529091506000906001600160a01b038c169063853c8aeb90604401602060405180830381865afa1580156115a9573d6000803e3d6000fd5b505050506040513d601f19601f820116820180604052508101906115cd9190611d44565b905060006115f560405180606001604052806000815260200160008152602001600081525090565b8a85101561191957604051637bb7bed160e01b8152600481018690526001600160a01b038e1690637bb7bed190602401602060405180830381865afa158015611642573d6000803e3d6000fd5b505050506040513d601f19601f820116820180604052508101906116669190611ce2565b91508189868151811061167b5761167b611cff565b6001600160a01b03909216602092830291909101909101528215806116b857506001600160a01b03821660009081526068602052604090205460ff165b1561172f5760008a86815181106116d1576116d1611cff565b602002602001018181525050604051806020016040528060008152508886815181106116ff576116ff611cff565b6020026020010181905250600087868151811061171e5761171e611cff565b602002602001018181525050611907565b816001600160a01b03166395d89b416040518163ffffffff1660e01b8152600401600060405180830381865afa15801561176d573d6000803e3d6000fd5b505050506040513d6000823e601f3d908101601f191682016040526117959190810190611d5d565b8886815181106117a7576117a7611cff565b6020026020010181905250816001600160a01b031663313ce5676040518163ffffffff1660e01b8152600401602060405180830381865afa1580156117f0573d6000803e3d6000fd5b505050506040513d601f19601f820116820180604052508101906118149190611df0565b60ff1687868151811061182957611829611cff565b6020908102919091010152604051631c0ba43160e11b81526001600160a01b038381166004830152602482018890528e1690633817486290604401606060405180830381865afa158015611881573d6000803e3d6000fd5b505050506040513d601f19601f820116820180604052508101906118a59190611e13565b9050670de0b6b3a764000083858360200151670de0b6b3a76400006118ca9190611eb9565b6118d49190611ed8565b6118de9190611eb9565b6118e89190611ed8565b8a86815181106118fa576118fa611cff565b6020026020010181815250505b8461191181611d2b565b9550506115f5565b5050509488525050606086019390935260208501525060408301525092915050565b600054610100900460ff166119625760405162461bcd60e51b815260040161028890611e6e565b61062a3361124b565b6001600160a01b03811681146109a657600080fd5b60006020828403121561199257600080fd5b813561199d8161196b565b9392505050565b60005b838110156119bf5781810151838201526020016119a7565b838111156119ce576000848401525b50505050565b600082825180855260208086019550808260051b84010181860160005b84811015611a3757601f1980878503018a5282518051808652611a19818888018985016119a4565b9a86019a601f019091169390930184019250908301906001016119f1565b5090979650505050505050565b600081518084526020808501945080840160005b83811015611a7457815187529582019590820190600101611a58565b509495945050505050565b600081518084526020808501808196508360051b810191508286016000805b86811015611b54578385038a52825180516080808852815190880181905260a088019189019085905b80821015611af05782516001600160a01b03168452928a0192918a019160019190910190611ac7565b5050508782015187820389890152611b0882826119d4565b915050604080830151888303828a0152611b228382611a44565b9250505060608083015192508782038189015250611b408183611a44565b9b88019b9650505091850191600101611a9e565b509298975050505050505050565b60208152600061199d6020830184611a7f565b634e487b7160e01b600052604160045260246000fd5b604051601f8201601f191681016001600160401b0381118282101715611bb357611bb3611b75565b604052919050565b60008060408385031215611bce57600080fd5b823591506020808401356001600160401b0380821115611bed57600080fd5b818601915086601f830112611c0157600080fd5b813581811115611c1357611c13611b75565b8060051b9150611c24848301611b8b565b8181529183018401918481019089841115611c3e57600080fd5b938501935b83851015611c685784359250611c588361196b565b8282529385019390850190611c43565b8096505050505050509250929050565b6000602080830181845280855180835260408601915060408160051b870101925083870160005b82811015611cd557878503603f19018452815151868652611cc287870182611a7f565b9550509285019290850190600101611c9f565b5092979650505050505050565b600060208284031215611cf457600080fd5b815161199d8161196b565b634e487b7160e01b600052603260045260246000fd5b634e487b7160e01b600052601160045260246000fd5b600060018201611d3d57611d3d611d15565b5060010190565b600060208284031215611d5657600080fd5b5051919050565b600060208284031215611d6f57600080fd5b81516001600160401b0380821115611d8657600080fd5b818401915084601f830112611d9a57600080fd5b815181811115611dac57611dac611b75565b611dbf601f8201601f1916602001611b8b565b9150808252856020828501011115611dd657600080fd5b611de78160208401602086016119a4565b50949350505050565b600060208284031215611e0257600080fd5b815160ff8116811461199d57600080fd5b600060608284031215611e2557600080fd5b604051606081018181106001600160401b0382111715611e4757611e47611b75565b80604052508251815260208301516020820152604083015160408201528091505092915050565b6020808252602b908201527f496e697469616c697a61626c653a20636f6e7472616374206973206e6f74206960408201526a6e697469616c697a696e6760a81b606082015260800190565b6000816000190483118215151615611ed357611ed3611d15565b500290565b600082611ef557634e487b7160e01b600052601260045260246000fd5b50049056fea2646970667358221220480a9ed25547443b9e27d144221709bea6dbfa180b1939fad00d9ec0859fce5064736f6c634300080d0033",
  "linkReferences": {},
  "deployedLinkReferences": {}
}