{
  "_format": "hh-sol-artifact-1",
  "contractName": "StarBugToken",
  "sourceName": "contracts/StarBugToken.sol",
  "abi": [
    {
      "inputs": [],
      "stateMutability": "nonpayable",
      "type": "constructor"
    },
    {
      "anonymous": false,
      "inputs": [
        {
          "indexed": true,
          "internalType": "address",
          "name": "owner",
          "type": "address"
        },
        {
          "indexed": true,
          "internalType": "address",
          "name": "spender",
          "type": "address"
        },
        {
          "indexed": false,
          "internalType": "uint256",
          "name": "value",
          "type": "uint256"
        }
      ],
      "name": "Approval",
      "type": "event"
    },
    {
      "anonymous": false,
      "inputs": [
        {
          "indexed": true,
          "internalType": "address",
          "name": "from",
          "type": "address"
        },
        {
          "indexed": true,
          "internalType": "address",
          "name": "to",
          "type": "address"
        },
        {
          "indexed": false,
          "internalType": "uint256",
          "name": "value",
          "type": "uint256"
        }
      ],
      "name": "Transfer",
      "type": "event"
    },
    {
      "inputs": [
        {
          "internalType": "address",
          "name": "",
          "type": "address"
        },
        {
          "internalType": "address",
          "name": "",
          "type": "address"
        }
      ],
      "name": "allowance",
      "outputs": [
        {
          "internalType": "uint256",
          "name": "",
          "type": "uint256"
        }
      ],
      "stateMutability": "view",
      "type": "function"
    },
    {
      "inputs": [
        {
          "internalType": "address",
          "name": "_spender",
          "type": "address"
        },
        {
          "internalType": "uint256",
          "name": "_value",
          "type": "uint256"
        }
      ],
      "name": "approve",
      "outputs": [
        {
          "internalType": "bool",
          "name": "",
          "type": "bool"
        }
      ],
      "stateMutability": "nonpayable",
      "type": "function"
    },
    {
      "inputs": [
        {
          "internalType": "address",
          "name": "",
          "type": "address"
        }
      ],
      "name": "balanceOf",
      "outputs": [
        {
          "internalType": "uint256",
          "name": "",
          "type": "uint256"
        }
      ],
      "stateMutability": "view",
      "type": "function"
    },
    {
      "inputs": [],
      "name": "decimals",
      "outputs": [
        {
          "internalType": "uint8",
          "name": "",
          "type": "uint8"
        }
      ],
      "stateMutability": "view",
      "type": "function"
    },
    {
      "inputs": [
        {
          "internalType": "address",
          "name": "_recipient",
          "type": "address"
        }
      ],
      "name": "initialMint",
      "outputs": [],
      "stateMutability": "nonpayable",
      "type": "function"
    },
    {
      "inputs": [],
      "name": "initialMinted",
      "outputs": [
        {
          "internalType": "bool",
          "name": "",
          "type": "bool"
        }
      ],
      "stateMutability": "view",
      "type": "function"
    },
    {
      "inputs": [],
      "name": "merkleClaim",
      "outputs": [
        {
          "internalType": "address",
          "name": "",
          "type": "address"
        }
      ],
      "stateMutability": "view",
      "type": "function"
    },
    {
      "inputs": [
        {
          "internalType": "address",
          "name": "account",
          "type": "address"
        },
        {
          "internalType": "uint256",
          "name": "amount",
          "type": "uint256"
        }
      ],
      "name": "mint",
      "outputs": [
        {
          "internalType": "bool",
          "name": "",
          "type": "bool"
        }
      ],
      "stateMutability": "nonpayable",
      "type": "function"
    },
    {
      "inputs": [],
      "name": "minter",
      "outputs": [
        {
          "internalType": "address",
          "name": "",
          "type": "address"
        }
      ],
      "stateMutability": "view",
      "type": "function"
    },
    {
      "inputs": [],
      "name": "name",
      "outputs": [
        {
          "internalType": "string",
          "name": "",
          "type": "string"
        }
      ],
      "stateMutability": "view",
      "type": "function"
    },
    {
      "inputs": [],
      "name": "redemptionReceiver",
      "outputs": [
        {
          "internalType": "address",
          "name": "",
          "type": "address"
        }
      ],
      "stateMutability": "view",
      "type": "function"
    },
    {
      "inputs": [
        {
          "internalType": "address",
          "name": "_minter",
          "type": "address"
        }
      ],
      "name": "setMinter",
      "outputs": [],
      "stateMutability": "nonpayable",
      "type": "function"
    },
    {
      "inputs": [],
      "name": "symbol",
      "outputs": [
        {
          "internalType": "string",
          "name": "",
          "type": "string"
        }
      ],
      "stateMutability": "view",
      "type": "function"
    },
    {
      "inputs": [],
      "name": "totalSupply",
      "outputs": [
        {
          "internalType": "uint256",
          "name": "",
          "type": "uint256"
        }
      ],
      "stateMutability": "view",
      "type": "function"
    },
    {
      "inputs": [
        {
          "internalType": "address",
          "name": "_to",
          "type": "address"
        },
        {
          "internalType": "uint256",
          "name": "_value",
          "type": "uint256"
        }
      ],
      "name": "transfer",
      "outputs": [
        {
          "internalType": "bool",
          "name": "",
          "type": "bool"
        }
      ],
      "stateMutability": "nonpayable",
      "type": "function"
    },
    {
      "inputs": [
        {
          "internalType": "address",
          "name": "_from",
          "type": "address"
        },
        {
          "internalType": "address",
          "name": "_to",
          "type": "address"
        },
        {
          "internalType": "uint256",
          "name": "_value",
          "type": "uint256"
        }
      ],
      "name": "transferFrom",
      "outputs": [
        {
          "internalType": "bool",
          "name": "",
          "type": "bool"
        }
      ],
      "stateMutability": "nonpayable",
      "type": "function"
    }
  ],
  "bytecode": "0x60806040526000805534801561001457600080fd5b5060038054610100600160a81b0319163361010081029190911790915561003c906000610042565b506100d9565b60008160008082825461005591906100b3565b90915550506001600160a01b0383166000818152600160209081526040808320805487019055518581527fddf252ad1be2c89b69c2b068fc378daa952ba7f163c4a11628f55a4df523b3ef910160405180910390a350600192915050565b600082198211156100d457634e487b7160e01b600052601160045260246000fd5b500190565b610760806100e86000396000f3fe608060405234801561001057600080fd5b50600436106101005760003560e01c806370a0823111610097578063ca1c4de911610066578063ca1c4de91461026f578063dd62ed3e1461027c578063e752c44a146102a7578063fca3b5aa146102ba57600080fd5b806370a082311461020557806395d89b4114610225578063a9059cbb14610247578063c268f9ba1461025a57600080fd5b806323b872dd116100d357806323b872dd146101b2578063313ce567146101c557806340c10f19146101df5780635e05fe50146101f257600080fd5b806306fdde03146101055780630754617214610148578063095ea7b31461017857806318160ddd1461019b575b600080fd5b6101326040518060400160405280600e81526020016d29ba30b910213ab3902a37b5b2b760911b81525081565b60405161013f91906105c0565b60405180910390f35b6003546101609061010090046001600160a01b031681565b6040516001600160a01b03909116815260200161013f565b61018b610186366004610631565b6102cd565b604051901515815260200161013f565b6101a460005481565b60405190815260200161013f565b61018b6101c036600461065b565b610339565b6101cd601281565b60405160ff909116815260200161013f565b61018b6101ed366004610631565b6103b3565b600454610160906001600160a01b031681565b6101a4610213366004610697565b60016020526000908152604090205481565b6101326040518060400160405280600381526020016214d09560ea1b81525081565b61018b610255366004610631565b61041b565b61026d610268366004610697565b61042f565b005b60035461018b9060ff1681565b6101a461028a3660046106b2565b600260209081526000928352604080842090915290825290205481565b600554610160906001600160a01b031681565b61026d6102c8366004610697565b610480565b3360008181526002602090815260408083206001600160a01b038716808552925280832085905551919290917f8c5be1e5ebec7d5bd14f71427d1e84f3dd0314c0f7b2291e5b200ac8c7c3b925906103289086815260200190565b60405180910390a350600192915050565b6001600160a01b0383166000908152600260209081526040808320338452909152812054600019811461039f576001600160a01b0385166000908152600260209081526040808320338452909152812080548592906103999084906106fb565b90915550505b6103aa8585856104c4565b95945050505050565b60035460009061010090046001600160a01b031633146104075760405162461bcd60e51b815260206004820152600b60248201526a1b9bdd08185b1b1bddd95960aa1b604482015260640160405180910390fd5b610411838361055b565b5060019392505050565b60006104283384846104c4565b9392505050565b60035461010090046001600160a01b031633148015610451575060035460ff16155b61045a57600080fd5b6003805460ff1916600117905561047c816a295be96e6406697200000061055b565b5050565b60035461010090046001600160a01b0316331461049c57600080fd5b600380546001600160a01b0390921661010002610100600160a81b0319909216919091179055565b6001600160a01b0383166000908152600160205260408120805483919083906104ee9084906106fb565b90915550506001600160a01b03808416600081815260016020526040908190208054860190555190918616907fddf252ad1be2c89b69c2b068fc378daa952ba7f163c4a11628f55a4df523b3ef906105499086815260200190565b60405180910390a35060019392505050565b60008160008082825461056e9190610712565b90915550506001600160a01b0383166000818152600160209081526040808320805487019055518581527fddf252ad1be2c89b69c2b068fc378daa952ba7f163c4a11628f55a4df523b3ef9101610328565b600060208083528351808285015260005b818110156105ed578581018301518582016040015282016105d1565b818111156105ff576000604083870101525b50601f01601f1916929092016040019392505050565b80356001600160a01b038116811461062c57600080fd5b919050565b6000806040838503121561064457600080fd5b61064d83610615565b946020939093013593505050565b60008060006060848603121561067057600080fd5b61067984610615565b925061068760208501610615565b9150604084013590509250925092565b6000602082840312156106a957600080fd5b61042882610615565b600080604083850312156106c557600080fd5b6106ce83610615565b91506106dc60208401610615565b90509250929050565b634e487b7160e01b600052601160045260246000fd5b60008282101561070d5761070d6106e5565b500390565b60008219821115610725576107256106e5565b50019056fea2646970667358221220456e41f2f026ac326351a41046b4e6ca63591df9d512e35658ae73512ab7c26664736f6c634300080d0033",
  "linkReferences": {},
  "deployedLinkReferences": {}
}