{
  "_format": "hh-sol-artifact-1",
  "contractName": "Thena",
  "sourceName": "contracts/Thena.sol",
  "abi": [
    {
      "inputs": [],
      "stateMutability": "nonpayable",
      "type": "constructor"
    },
    {
      "anonymous": false,
      "inputs": [
        {
          "indexed": true,
          "internalType": "address",
          "name": "owner",
          "type": "address"
        },
        {
          "indexed": true,
          "internalType": "address",
          "name": "spender",
          "type": "address"
        },
        {
          "indexed": false,
          "internalType": "uint256",
          "name": "value",
          "type": "uint256"
        }
      ],
      "name": "Approval",
      "type": "event"
    },
    {
      "anonymous": false,
      "inputs": [
        {
          "indexed": true,
          "internalType": "address",
          "name": "from",
          "type": "address"
        },
        {
          "indexed": true,
          "internalType": "address",
          "name": "to",
          "type": "address"
        },
        {
          "indexed": false,
          "internalType": "uint256",
          "name": "value",
          "type": "uint256"
        }
      ],
      "name": "Transfer",
      "type": "event"
    },
    {
      "inputs": [
        {
          "internalType": "address",
          "name": "",
          "type": "address"
        },
        {
          "internalType": "address",
          "name": "",
          "type": "address"
        }
      ],
      "name": "allowance",
      "outputs": [
        {
          "internalType": "uint256",
          "name": "",
          "type": "uint256"
        }
      ],
      "stateMutability": "view",
      "type": "function"
    },
    {
      "inputs": [
        {
          "internalType": "address",
          "name": "_spender",
          "type": "address"
        },
        {
          "internalType": "uint256",
          "name": "_value",
          "type": "uint256"
        }
      ],
      "name": "approve",
      "outputs": [
        {
          "internalType": "bool",
          "name": "",
          "type": "bool"
        }
      ],
      "stateMutability": "nonpayable",
      "type": "function"
    },
    {
      "inputs": [
        {
          "internalType": "address",
          "name": "",
          "type": "address"
        }
      ],
      "name": "balanceOf",
      "outputs": [
        {
          "internalType": "uint256",
          "name": "",
          "type": "uint256"
        }
      ],
      "stateMutability": "view",
      "type": "function"
    },
    {
      "inputs": [],
      "name": "decimals",
      "outputs": [
        {
          "internalType": "uint8",
          "name": "",
          "type": "uint8"
        }
      ],
      "stateMutability": "view",
      "type": "function"
    },
    {
      "inputs": [
        {
          "internalType": "address",
          "name": "_recipient",
          "type": "address"
        }
      ],
      "name": "initialMint",
      "outputs": [],
      "stateMutability": "nonpayable",
      "type": "function"
    },
    {
      "inputs": [],
      "name": "initialMinted",
      "outputs": [
        {
          "internalType": "bool",
          "name": "",
          "type": "bool"
        }
      ],
      "stateMutability": "view",
      "type": "function"
    },
    {
      "inputs": [],
      "name": "merkleClaim",
      "outputs": [
        {
          "internalType": "address",
          "name": "",
          "type": "address"
        }
      ],
      "stateMutability": "view",
      "type": "function"
    },
    {
      "inputs": [
        {
          "internalType": "address",
          "name": "account",
          "type": "address"
        },
        {
          "internalType": "uint256",
          "name": "amount",
          "type": "uint256"
        }
      ],
      "name": "mint",
      "outputs": [
        {
          "internalType": "bool",
          "name": "",
          "type": "bool"
        }
      ],
      "stateMutability": "nonpayable",
      "type": "function"
    },
    {
      "inputs": [],
      "name": "minter",
      "outputs": [
        {
          "internalType": "address",
          "name": "",
          "type": "address"
        }
      ],
      "stateMutability": "view",
      "type": "function"
    },
    {
      "inputs": [],
      "name": "name",
      "outputs": [
        {
          "internalType": "string",
          "name": "",
          "type": "string"
        }
      ],
      "stateMutability": "view",
      "type": "function"
    },
    {
      "inputs": [],
      "name": "redemptionReceiver",
      "outputs": [
        {
          "internalType": "address",
          "name": "",
          "type": "address"
        }
      ],
      "stateMutability": "view",
      "type": "function"
    },
    {
      "inputs": [
        {
          "internalType": "address",
          "name": "_minter",
          "type": "address"
        }
      ],
      "name": "setMinter",
      "outputs": [],
      "stateMutability": "nonpayable",
      "type": "function"
    },
    {
      "inputs": [],
      "name": "symbol",
      "outputs": [
        {
          "internalType": "string",
          "name": "",
          "type": "string"
        }
      ],
      "stateMutability": "view",
      "type": "function"
    },
    {
      "inputs": [],
      "name": "totalSupply",
      "outputs": [
        {
          "internalType": "uint256",
          "name": "",
          "type": "uint256"
        }
      ],
      "stateMutability": "view",
      "type": "function"
    },
    {
      "inputs": [
        {
          "internalType": "address",
          "name": "_to",
          "type": "address"
        },
        {
          "internalType": "uint256",
          "name": "_value",
          "type": "uint256"
        }
      ],
      "name": "transfer",
      "outputs": [
        {
          "internalType": "bool",
          "name": "",
          "type": "bool"
        }
      ],
      "stateMutability": "nonpayable",
      "type": "function"
    },
    {
      "inputs": [
        {
          "internalType": "address",
          "name": "_from",
          "type": "address"
        },
        {
          "internalType": "address",
          "name": "_to",
          "type": "address"
        },
        {
          "internalType": "uint256",
          "name": "_value",
          "type": "uint256"
        }
      ],
      "name": "transferFrom",
      "outputs": [
        {
          "internalType": "bool",
          "name": "",
          "type": "bool"
        }
      ],
      "stateMutability": "nonpayable",
      "type": "function"
    }
  ],
  "bytecode": "0x60806040526000805534801561001457600080fd5b5060038054610100600160a81b0319163361010081029190911790915561003c906000610042565b506100d9565b60008160008082825461005591906100b3565b90915550506001600160a01b0383166000818152600160209081526040808320805487019055518581527fddf252ad1be2c89b69c2b068fc378daa952ba7f163c4a11628f55a4df523b3ef910160405180910390a350600192915050565b600082198211156100d457634e487b7160e01b600052601160045260246000fd5b500190565b610757806100e86000396000f3fe608060405234801561001057600080fd5b50600436106101005760003560e01c806370a0823111610097578063ca1c4de911610066578063ca1c4de914610266578063dd62ed3e14610273578063e752c44a1461029e578063fca3b5aa146102b157600080fd5b806370a08231146101fc57806395d89b411461021c578063a9059cbb1461023e578063c268f9ba1461025157600080fd5b806323b872dd116100d357806323b872dd146101a9578063313ce567146101bc57806340c10f19146101d65780635e05fe50146101e957600080fd5b806306fdde0314610105578063075461721461013f578063095ea7b31461016f57806318160ddd14610192575b600080fd5b610129604051806040016040528060058152602001645448454e4160d81b81525081565b60405161013691906105b7565b60405180910390f35b6003546101579061010090046001600160a01b031681565b6040516001600160a01b039091168152602001610136565b61018261017d366004610628565b6102c4565b6040519015158152602001610136565b61019b60005481565b604051908152602001610136565b6101826101b7366004610652565b610330565b6101c4601281565b60405160ff9091168152602001610136565b6101826101e4366004610628565b6103aa565b600454610157906001600160a01b031681565b61019b61020a36600461068e565b60016020526000908152604090205481565b6101296040518060400160405280600381526020016254484560e81b81525081565b61018261024c366004610628565b610412565b61026461025f36600461068e565b610426565b005b6003546101829060ff1681565b61019b6102813660046106a9565b600260209081526000928352604080842090915290825290205481565b600554610157906001600160a01b031681565b6102646102bf36600461068e565b610477565b3360008181526002602090815260408083206001600160a01b038716808552925280832085905551919290917f8c5be1e5ebec7d5bd14f71427d1e84f3dd0314c0f7b2291e5b200ac8c7c3b9259061031f9086815260200190565b60405180910390a350600192915050565b6001600160a01b03831660009081526002602090815260408083203384529091528120546000198114610396576001600160a01b0385166000908152600260209081526040808320338452909152812080548592906103909084906106f2565b90915550505b6103a18585856104bb565b95945050505050565b60035460009061010090046001600160a01b031633146103fe5760405162461bcd60e51b815260206004820152600b60248201526a1b9bdd08185b1b1bddd95960aa1b604482015260640160405180910390fd5b6104088383610552565b5060019392505050565b600061041f3384846104bb565b9392505050565b60035461010090046001600160a01b031633148015610448575060035460ff16155b61045157600080fd5b6003805460ff19166001179055610473816a295be96e64066972000000610552565b5050565b60035461010090046001600160a01b0316331461049357600080fd5b600380546001600160a01b0390921661010002610100600160a81b0319909216919091179055565b6001600160a01b0383166000908152600160205260408120805483919083906104e59084906106f2565b90915550506001600160a01b03808416600081815260016020526040908190208054860190555190918616907fddf252ad1be2c89b69c2b068fc378daa952ba7f163c4a11628f55a4df523b3ef906105409086815260200190565b60405180910390a35060019392505050565b6000816000808282546105659190610709565b90915550506001600160a01b0383166000818152600160209081526040808320805487019055518581527fddf252ad1be2c89b69c2b068fc378daa952ba7f163c4a11628f55a4df523b3ef910161031f565b600060208083528351808285015260005b818110156105e4578581018301518582016040015282016105c8565b818111156105f6576000604083870101525b50601f01601f1916929092016040019392505050565b80356001600160a01b038116811461062357600080fd5b919050565b6000806040838503121561063b57600080fd5b6106448361060c565b946020939093013593505050565b60008060006060848603121561066757600080fd5b6106708461060c565b925061067e6020850161060c565b9150604084013590509250925092565b6000602082840312156106a057600080fd5b61041f8261060c565b600080604083850312156106bc57600080fd5b6106c58361060c565b91506106d36020840161060c565b90509250929050565b634e487b7160e01b600052601160045260246000fd5b600082821015610704576107046106dc565b500390565b6000821982111561071c5761071c6106dc565b50019056fea26469706673582212204a9bc46438706c5a02e135b5c1c6e337f8ce00ea68f99d280e7f8c9e67756f0964736f6c634300080d0033",
  "linkReferences": {},
  "deployedLinkReferences": {}
}