{
  "_format": "hh-sol-artifact-1",
  "contractName": "NFTStaking",
  "sourceName": "contracts/NFTStaking.sol",
  "abi": [
    {
      "inputs": [
        {
          "internalType": "contract IERC20",
          "name": "_WBNB",
          "type": "address"
        },
        {
          "internalType": "contract IERC721",
          "name": "_NFT",
          "type": "address"
        }
      ],
      "stateMutability": "nonpayable",
      "type": "constructor"
    },
    {
      "anonymous": false,
      "inputs": [
        {
          "indexed": true,
          "internalType": "address",
          "name": "user",
          "type": "address"
        },
        {
          "indexed": false,
          "internalType": "uint256",
          "name": "amount",
          "type": "uint256"
        },
        {
          "indexed": true,
          "internalType": "address",
          "name": "to",
          "type": "address"
        }
      ],
      "name": "Deposit",
      "type": "event"
    },
    {
      "anonymous": false,
      "inputs": [
        {
          "indexed": true,
          "internalType": "address",
          "name": "user",
          "type": "address"
        },
        {
          "indexed": false,
          "internalType": "uint256",
          "name": "amount",
          "type": "uint256"
        }
      ],
      "name": "Harvest",
      "type": "event"
    },
    {
      "anonymous": false,
      "inputs": [
        {
          "indexed": false,
          "internalType": "uint256",
          "name": "rewardPerSecond",
          "type": "uint256"
        }
      ],
      "name": "LogRewardPerSecond",
      "type": "event"
    },
    {
      "anonymous": false,
      "inputs": [
        {
          "indexed": false,
          "internalType": "uint256",
          "name": "lastRewardTime",
          "type": "uint256"
        },
        {
          "indexed": false,
          "internalType": "uint256",
          "name": "nftSupply",
          "type": "uint256"
        },
        {
          "indexed": false,
          "internalType": "uint256",
          "name": "accRewardPerShare",
          "type": "uint256"
        }
      ],
      "name": "LogUpdatePool",
      "type": "event"
    },
    {
      "anonymous": false,
      "inputs": [
        {
          "indexed": true,
          "internalType": "address",
          "name": "previousOwner",
          "type": "address"
        },
        {
          "indexed": true,
          "internalType": "address",
          "name": "newOwner",
          "type": "address"
        }
      ],
      "name": "OwnershipTransferred",
      "type": "event"
    },
    {
      "anonymous": false,
      "inputs": [
        {
          "indexed": true,
          "internalType": "address",
          "name": "user",
          "type": "address"
        },
        {
          "indexed": false,
          "internalType": "uint256",
          "name": "amount",
          "type": "uint256"
        },
        {
          "indexed": true,
          "internalType": "address",
          "name": "to",
          "type": "address"
        }
      ],
      "name": "Withdraw",
      "type": "event"
    },
    {
      "inputs": [],
      "name": "NFT",
      "outputs": [
        {
          "internalType": "contract IERC721",
          "name": "",
          "type": "address"
        }
      ],
      "stateMutability": "view",
      "type": "function"
    },
    {
      "inputs": [],
      "name": "WBNB",
      "outputs": [
        {
          "internalType": "contract IERC20",
          "name": "",
          "type": "address"
        }
      ],
      "stateMutability": "view",
      "type": "function"
    },
    {
      "inputs": [
        {
          "internalType": "address[]",
          "name": "_keepers",
          "type": "address[]"
        }
      ],
      "name": "addKeeper",
      "outputs": [],
      "stateMutability": "nonpayable",
      "type": "function"
    },
    {
      "inputs": [
        {
          "internalType": "uint256[]",
          "name": "tokenIds",
          "type": "uint256[]"
        }
      ],
      "name": "deposit",
      "outputs": [],
      "stateMutability": "nonpayable",
      "type": "function"
    },
    {
      "inputs": [],
      "name": "distributePeriod",
      "outputs": [
        {
          "internalType": "uint256",
          "name": "",
          "type": "uint256"
        }
      ],
      "stateMutability": "view",
      "type": "function"
    },
    {
      "inputs": [],
      "name": "harvest",
      "outputs": [],
      "stateMutability": "nonpayable",
      "type": "function"
    },
    {
      "inputs": [
        {
          "internalType": "address",
          "name": "",
          "type": "address"
        }
      ],
      "name": "isKeeper",
      "outputs": [
        {
          "internalType": "bool",
          "name": "",
          "type": "bool"
        }
      ],
      "stateMutability": "view",
      "type": "function"
    },
    {
      "inputs": [],
      "name": "lastDistributedTime",
      "outputs": [
        {
          "internalType": "uint256",
          "name": "",
          "type": "uint256"
        }
      ],
      "stateMutability": "view",
      "type": "function"
    },
    {
      "inputs": [
        {
          "internalType": "address",
          "name": "",
          "type": "address"
        },
        {
          "internalType": "address",
          "name": "",
          "type": "address"
        },
        {
          "internalType": "uint256",
          "name": "",
          "type": "uint256"
        },
        {
          "internalType": "bytes",
          "name": "",
          "type": "bytes"
        }
      ],
      "name": "onERC721Received",
      "outputs": [
        {
          "internalType": "bytes4",
          "name": "",
          "type": "bytes4"
        }
      ],
      "stateMutability": "pure",
      "type": "function"
    },
    {
      "inputs": [],
      "name": "owner",
      "outputs": [
        {
          "internalType": "address",
          "name": "",
          "type": "address"
        }
      ],
      "stateMutability": "view",
      "type": "function"
    },
    {
      "inputs": [
        {
          "internalType": "address",
          "name": "_user",
          "type": "address"
        }
      ],
      "name": "pendingReward",
      "outputs": [
        {
          "internalType": "uint256",
          "name": "pending",
          "type": "uint256"
        }
      ],
      "stateMutability": "view",
      "type": "function"
    },
    {
      "inputs": [],
      "name": "poolInfo",
      "outputs": [
        {
          "internalType": "uint256",
          "name": "accRewardPerShare",
          "type": "uint256"
        },
        {
          "internalType": "uint256",
          "name": "lastRewardTime",
          "type": "uint256"
        }
      ],
      "stateMutability": "view",
      "type": "function"
    },
    {
      "inputs": [
        {
          "internalType": "address[]",
          "name": "_keepers",
          "type": "address[]"
        }
      ],
      "name": "removeKeeper",
      "outputs": [],
      "stateMutability": "nonpayable",
      "type": "function"
    },
    {
      "inputs": [],
      "name": "renounceOwnership",
      "outputs": [],
      "stateMutability": "nonpayable",
      "type": "function"
    },
    {
      "inputs": [],
      "name": "rewardPerSecond",
      "outputs": [
        {
          "internalType": "uint256",
          "name": "",
          "type": "uint256"
        }
      ],
      "stateMutability": "view",
      "type": "function"
    },
    {
      "inputs": [
        {
          "internalType": "uint256",
          "name": "amount",
          "type": "uint256"
        }
      ],
      "name": "setDistributionRate",
      "outputs": [],
      "stateMutability": "nonpayable",
      "type": "function"
    },
    {
      "inputs": [
        {
          "internalType": "uint256",
          "name": "_rewardPerSecond",
          "type": "uint256"
        }
      ],
      "name": "setRewardPerSecond",
      "outputs": [],
      "stateMutability": "nonpayable",
      "type": "function"
    },
    {
      "inputs": [
        {
          "internalType": "address",
          "name": "_user",
          "type": "address"
        }
      ],
      "name": "stakedTokenIds",
      "outputs": [
        {
          "internalType": "uint256[]",
          "name": "tokenIds",
          "type": "uint256[]"
        }
      ],
      "stateMutability": "view",
      "type": "function"
    },
    {
      "inputs": [
        {
          "internalType": "uint256",
          "name": "",
          "type": "uint256"
        }
      ],
      "name": "tokenOwner",
      "outputs": [
        {
          "internalType": "address",
          "name": "",
          "type": "address"
        }
      ],
      "stateMutability": "view",
      "type": "function"
    },
    {
      "inputs": [
        {
          "internalType": "address",
          "name": "newOwner",
          "type": "address"
        }
      ],
      "name": "transferOwnership",
      "outputs": [],
      "stateMutability": "nonpayable",
      "type": "function"
    },
    {
      "inputs": [],
      "name": "updatePool",
      "outputs": [
        {
          "components": [
            {
              "internalType": "uint256",
              "name": "accRewardPerShare",
              "type": "uint256"
            },
            {
              "internalType": "uint256",
              "name": "lastRewardTime",
              "type": "uint256"
            }
          ],
          "internalType": "struct NFTStaking.PoolInfo",
          "name": "pool",
          "type": "tuple"
        }
      ],
      "stateMutability": "nonpayable",
      "type": "function"
    },
    {
      "inputs": [
        {
          "internalType": "address",
          "name": "",
          "type": "address"
        }
      ],
      "name": "userInfo",
      "outputs": [
        {
          "internalType": "uint256",
          "name": "amount",
          "type": "uint256"
        },
        {
          "internalType": "int256",
          "name": "rewardDebt",
          "type": "int256"
        }
      ],
      "stateMutability": "view",
      "type": "function"
    },
    {
      "inputs": [
        {
          "internalType": "uint256[]",
          "name": "tokenIds",
          "type": "uint256[]"
        }
      ],
      "name": "withdraw",
      "outputs": [],
      "stateMutability": "nonpayable",
      "type": "function"
    }
  ],
  "bytecode": "0x60806040523480156200001157600080fd5b5060405162001bf638038062001bf6833981016040819052620000349162000108565b6200003f336200009f565b600180546001600160a01b039384166001600160a01b0319918216179091556002805492909316911617905562093a80600a5564e8d4a5100060095560408051808201909152600080825242602090920182905260035560045562000147565b600080546001600160a01b038381166001600160a01b0319831681178455604051919092169283917f8be0079c531659141344cd1fd0a4f28419497f9722a3daafe3b4186f6b6457e09190a35050565b6001600160a01b03811681146200010557600080fd5b50565b600080604083850312156200011c57600080fd5b82516200012981620000ef565b60208401519092506200013c81620000ef565b809150509250929050565b611a9f80620001576000396000f3fe608060405234801561001057600080fd5b506004361061014d5760003560e01c80636fce8234116100c35780638f10369a1161007c5780638f10369a14610315578063983d95ce1461031e5780639e71310314610331578063e3161ddd14610351578063f2fde38b14610374578063f40f0f521461038757600080fd5b80636fce8234146102b0578063715018a6146102c35780637542b4d3146102cb5780637c0b8de2146102de5780638da5cb5b146102f15780638dd950021461030257600080fd5b80634641257d116101155780634641257d146102385780634def1c8214610240578063598b8e71146102495780635a2f3d091461025c57806366da58151461026a5780636ba42aaa1461027d57600080fd5b806314b9302e14610152578063150b7a021461016e5780631959a002146101a657806319983251146101e25780631caaa487146101f7575b600080fd5b61015b600a5481565b6040519081526020015b60405180910390f35b61018d61017c3660046115de565b630a85bd0160e11b95945050505050565b6040516001600160e01b03199091168152602001610165565b6101cd6101b436600461167d565b6006602052600090815260409020805460019091015482565b60408051928352602083019190915201610165565b6101f56101f036600461169a565b61039a565b005b61022061020536600461169a565b6005602052600090815260409020546001600160a01b031681565b6040516001600160a01b039091168152602001610165565b6101f56104ba565b61015b600b5481565b6101f56102573660046116b3565b610579565b6003546004546101cd919082565b6101f561027836600461169a565b61085f565b6102a061028b36600461167d565b60076020526000908152604090205460ff1681565b6040519015158152602001610165565b6101f56102be36600461173e565b6108ab565b6101f5610941565b6101f56102d936600461173e565b610955565b600254610220906001600160a01b031681565b6000546001600160a01b0316610220565b600154610220906001600160a01b031681565b61015b60085481565b6101f561032c3660046116b3565b6109e4565b61034461033f36600461167d565b610d34565b6040516101659190611803565b610359610da3565b60408051825181526020928301519281019290925201610165565b6101f561038236600461167d565b610f02565b61015b61039536600461167d565b610f7b565b6000546001600160a01b03163314806103c257503360009081526007602052604090205460ff165b6104005760405162461bcd60e51b815260206004820152600a6024820152693737ba1035b2b2b832b960b11b60448201526064015b60405180910390fd5b610408610da3565b50600080600b5411801561041d5750600b5442105b1561044657600b5460009061043290426110d7565b60085490915061044290826110ea565b9150505b61045082826110f6565b91506000610469600a548461110290919063ffffffff16565b6008819055600a5490915061047f9042906110f6565b600b556040518181527fde89cb17ac7f58f94792b3e91e086ed85403819c24ceea882491f960ccb1a2789060200160405180910390a1505050565b60006104c4610da3565b33600090815260066020526040812060095483518254949550919390916104eb91906110ea565b6104f5919061185d565b9050600061051861051384600101548461110e90919063ffffffff16565b61119b565b600184018390559050801561053e5760015461053e906001600160a01b031633836111df565b60405181815233907fc9695243a805adb74c91f28311176c65b417e842d5699893cef56d18bfa48cba9060200160405180910390a250505050565b6000610583610da3565b3360009081526006602052604090208054919250906105a290846110f6565b815560095482516105ce91906105b99086906110ea565b6105c3919061185d565b600183015490611231565b600182015560005b838110156108205760025433906001600160a01b0316636352211e8787858181106106035761060361187f565b905060200201356040518263ffffffff1660e01b815260040161062891815260200190565b602060405180830381865afa158015610645573d6000803e3d6000fd5b505050506040513d601f19601f820116820180604052508101906106699190611895565b6001600160a01b0316146106cb5760405162461bcd60e51b815260206004820152602360248201527f54686973204e544620646f6573206e6f742062656c6f6e6720746f206164647260448201526265737360e81b60648201526084016103f7565b60028201546003830160008787858181106106e8576106e861187f565b90506020020135815260200190815260200160002081905550816002018585838181106107175761071761187f565b8354600181018555600094855260208086209202939093013592019190915550339060059087878581811061074e5761074e61187f565b6020908102929092013583525081019190915260400160002080546001600160a01b0319166001600160a01b03928316179055600254166323b872dd333088888681811061079e5761079e61187f565b6040516001600160e01b031960e088901b1681526001600160a01b03958616600482015294909316602485015250602090910201356044820152606401600060405180830381600087803b1580156107f557600080fd5b505af1158015610809573d6000803e3d6000fd5b505050508080610818906118b2565b9150506105d6565b50604051838152339081907fe31c7b8d08ee7db0afa68782e1028ef92305caeea8626633ad44d413e30f6b2f906020015b60405180910390a350505050565b6108676112bc565b61086f610da3565b5060088190556040518181527fde89cb17ac7f58f94792b3e91e086ed85403819c24ceea882491f960ccb1a2789060200160405180910390a150565b6108b36112bc565b80516000905b8082101561093c5760008383815181106108d5576108d561187f565b6020908102919091018101516001600160a01b0381166000908152600790925260409091205490915060ff16610929576001600160a01b0381166000908152600760205260409020805460ff191660011790555b5081610934816118b2565b9250506108b9565b505050565b6109496112bc565b6109536000611316565b565b61095d6112bc565b80516000905b8082101561093c57600083838151811061097f5761097f61187f565b6020908102919091018101516001600160a01b0381166000908152600790925260409091205490915060ff16156109d1576001600160a01b0381166000908152600760205260409020805460ff191690555b50816109dc816118b2565b925050610963565b60006109ee610da3565b33600090815260066020526040902060095482519293509091610a2c9190610a179086906110ea565b610a21919061185d565b60018301549061110e565b60018201558054610a3d90846110d7565b815560005b83811015610cff573360056000878785818110610a6157610a6161187f565b60209081029290920135835250810191909152604001600020546001600160a01b031614610af75760405162461bcd60e51b815260206004820152603c60248201527f4e6674205374616b696e672053797374656d3a2075736572206d75737420626560448201527f20746865206f776e6572206f6620746865207374616b6564206e66740000000060648201526084016103f7565b6002546001600160a01b03166323b872dd3033888886818110610b1c57610b1c61187f565b6040516001600160e01b031960e088901b1681526001600160a01b03958616600482015294909316602485015250602090910201356044820152606401600060405180830381600087803b158015610b7357600080fd5b505af1158015610b87573d6000803e3d6000fd5b50505060028301805460009250610ba0906001906118cb565b81548110610bb057610bb061187f565b906000526020600020015490508083600201846003016000898987818110610bda57610bda61187f565b9050602002013581526020019081526020016000205481548110610c0057610c0061187f565b9060005260206000200181905550826003016000878785818110610c2657610c2661187f565b905060200201358152602001908152602001600020548360030160008381526020019081526020016000208190555082600201805480610c6857610c686118e2565b60019003818190600052602060002001600090559055826003016000878785818110610c9657610c9661187f565b9050602002013581526020019081526020016000206000905560056000878785818110610cc557610cc561187f565b6020908102929092013583525081019190915260400160002080546001600160a01b03191690555080610cf7816118b2565b915050610a42565b50604051838152339081907f56c54ba9bd38d8fd62012e42c7ee564519b09763c426d331b3661b537ead19b290602001610851565b6001600160a01b038116600090815260066020908152604091829020600201805483518184028101840190945280845260609392830182828015610d9757602002820191906000526020600020905b815481526020019060010190808311610d83575b50505050509050919050565b604080518082018252600080825260209182015281518083019092526003548252600454908201819052421115610eff576002546040516370a0823160e01b81523060048201526000916001600160a01b0316906370a0823190602401602060405180830381865afa158015610e1d573d6000803e3d6000fd5b505050506040513d601f19601f82011682018060405250810190610e4191906118f8565b90508015610eac576000610e628360200151426110d790919063ffffffff16565b90506000610e7b600854836110ea90919063ffffffff16565b9050610ea7610e9f84610e99600954856110ea90919063ffffffff16565b90611102565b8551906110f6565b845250505b4260208381018290528351600381905560048390556040805193845291830184905282820152517f1f2d1a9fde053af46b5db3dc92a8aa8696e56a677998fdd1311b45be341f78539181900360600190a1505b90565b610f0a6112bc565b6001600160a01b038116610f6f5760405162461bcd60e51b815260206004820152602660248201527f4f776e61626c653a206e6577206f776e657220697320746865207a65726f206160448201526564647265737360d01b60648201526084016103f7565b610f7881611316565b50565b6040805180820182526003548152600480546020808401919091526001600160a01b0385811660009081526006909252848220845160025496516370a0823160e01b8152309581019590955292959093869291909116906370a0823190602401602060405180830381865afa158015610ff8573d6000803e3d6000fd5b505050506040513d601f19601f8201168201806040525081019061101c91906118f8565b905083602001514211801561103057508015155b1561109857600061104e8560200151426110d790919063ffffffff16565b90506000611067600854836110ea90919063ffffffff16565b905061109383611082600954846110ea90919063ffffffff16565b61108c919061185d565b85906110f6565b935050505b6110cd61051384600101546009546110bd8688600001546110ea90919063ffffffff16565b6110c7919061185d565b9061110e565b9695505050505050565b60006110e382846118cb565b9392505050565b60006110e38284611911565b60006110e38284611930565b60006110e3828461185d565b60008061111b8385611948565b90506000831215801561112e5750838113155b80611143575060008312801561114357508381135b6110e35760405162461bcd60e51b8152602060048201526024808201527f5369676e6564536166654d6174683a207375627472616374696f6e206f766572604482015263666c6f7760e01b60648201526084016103f7565b6000808212156111db5760405162461bcd60e51b815260206004820152600b60248201526a0496e7465676572203c20360ac1b60448201526064016103f7565b5090565b604080516001600160a01b038416602482015260448082018490528251808303909101815260649091019091526020810180516001600160e01b031663a9059cbb60e01b17905261093c908490611366565b60008061123e8385611987565b9050600083121580156112515750838112155b80611266575060008312801561126657508381125b6110e35760405162461bcd60e51b815260206004820152602160248201527f5369676e6564536166654d6174683a206164646974696f6e206f766572666c6f6044820152607760f81b60648201526084016103f7565b6000546001600160a01b031633146109535760405162461bcd60e51b815260206004820181905260248201527f4f776e61626c653a2063616c6c6572206973206e6f7420746865206f776e657260448201526064016103f7565b600080546001600160a01b038381166001600160a01b0319831681178455604051919092169283917f8be0079c531659141344cd1fd0a4f28419497f9722a3daafe3b4186f6b6457e09190a35050565b60006113bb826040518060400160405280602081526020017f5361666545524332303a206c6f772d6c6576656c2063616c6c206661696c6564815250856001600160a01b03166114389092919063ffffffff16565b80519091501561093c57808060200190518101906113d991906119c8565b61093c5760405162461bcd60e51b815260206004820152602a60248201527f5361666545524332303a204552433230206f7065726174696f6e20646964206e6044820152691bdd081cdd58d8d9595960b21b60648201526084016103f7565b6060611447848460008561144f565b949350505050565b6060824710156114b05760405162461bcd60e51b815260206004820152602660248201527f416464726573733a20696e73756666696369656e742062616c616e636520666f6044820152651c8818d85b1b60d21b60648201526084016103f7565b6001600160a01b0385163b6115075760405162461bcd60e51b815260206004820152601d60248201527f416464726573733a2063616c6c20746f206e6f6e2d636f6e747261637400000060448201526064016103f7565b600080866001600160a01b031685876040516115239190611a1a565b60006040518083038185875af1925050503d8060008114611560576040519150601f19603f3d011682016040523d82523d6000602084013e611565565b606091505b5091509150611575828286611580565b979650505050505050565b6060831561158f5750816110e3565b82511561159f5782518084602001fd5b8160405162461bcd60e51b81526004016103f79190611a36565b6001600160a01b0381168114610f7857600080fd5b80356115d9816115b9565b919050565b6000806000806000608086880312156115f657600080fd5b8535611601816115b9565b94506020860135611611816115b9565b935060408601359250606086013567ffffffffffffffff8082111561163557600080fd5b818801915088601f83011261164957600080fd5b81358181111561165857600080fd5b89602082850101111561166a57600080fd5b9699959850939650602001949392505050565b60006020828403121561168f57600080fd5b81356110e3816115b9565b6000602082840312156116ac57600080fd5b5035919050565b600080602083850312156116c657600080fd5b823567ffffffffffffffff808211156116de57600080fd5b818501915085601f8301126116f257600080fd5b81358181111561170157600080fd5b8660208260051b850101111561171657600080fd5b60209290920196919550909350505050565b634e487b7160e01b600052604160045260246000fd5b6000602080838503121561175157600080fd5b823567ffffffffffffffff8082111561176957600080fd5b818501915085601f83011261177d57600080fd5b81358181111561178f5761178f611728565b8060051b604051601f19603f830116810181811085821117156117b4576117b4611728565b6040529182528482019250838101850191888311156117d257600080fd5b938501935b828510156117f7576117e8856115ce565b845293850193928501926117d7565b98975050505050505050565b6020808252825182820181905260009190848201906040850190845b8181101561183b5783518352928401929184019160010161181f565b50909695505050505050565b634e487b7160e01b600052601160045260246000fd5b60008261187a57634e487b7160e01b600052601260045260246000fd5b500490565b634e487b7160e01b600052603260045260246000fd5b6000602082840312156118a757600080fd5b81516110e3816115b9565b6000600182016118c4576118c4611847565b5060010190565b6000828210156118dd576118dd611847565b500390565b634e487b7160e01b600052603160045260246000fd5b60006020828403121561190a57600080fd5b5051919050565b600081600019048311821515161561192b5761192b611847565b500290565b6000821982111561194357611943611847565b500190565b60008083128015600160ff1b85018412161561196657611966611847565b6001600160ff1b038401831381161561198157611981611847565b50500390565b600080821280156001600160ff1b03849003851316156119a9576119a9611847565b600160ff1b83900384128116156119c2576119c2611847565b50500190565b6000602082840312156119da57600080fd5b815180151581146110e357600080fd5b60005b83811015611a055781810151838201526020016119ed565b83811115611a14576000848401525b50505050565b60008251611a2c8184602087016119ea565b9190910192915050565b6020815260008251806020840152611a558160408501602087016119ea565b601f01601f1916919091016040019291505056fea26469706673582212207b363e2a2261d48bdab10d20d48b6f92a755d174d3784425f69ae5464443198b64736f6c634300080d0033",
  "linkReferences": {},
  "deployedLinkReferences": {}
}