{
  "_format": "hh-sol-artifact-1",
  "contractName": "NFTSalesSplitter",
  "sourceName": "contracts/NFTSalesSplitter.sol",
  "abi": [
    {
      "anonymous": false,
      "inputs": [
        {
          "indexed": false,
          "internalType": "uint8",
          "name": "version",
          "type": "uint8"
        }
      ],
      "name": "Initialized",
      "type": "event"
    },
    {
      "anonymous": false,
      "inputs": [
        {
          "indexed": true,
          "internalType": "address",
          "name": "previousOwner",
          "type": "address"
        },
        {
          "indexed": true,
          "internalType": "address",
          "name": "newOwner",
          "type": "address"
        }
      ],
      "name": "OwnershipTransferred",
      "type": "event"
    },
    {
      "anonymous": false,
      "inputs": [
        {
          "indexed": true,
          "internalType": "uint256",
          "name": "timestamp",
          "type": "uint256"
        },
        {
          "indexed": false,
          "internalType": "uint256",
          "name": "toStake",
          "type": "uint256"
        },
        {
          "indexed": false,
          "internalType": "uint256",
          "name": "toRoyalties",
          "type": "uint256"
        }
      ],
      "name": "Split",
      "type": "event"
    },
    {
      "inputs": [],
      "name": "PRECISION",
      "outputs": [
        {
          "internalType": "uint256",
          "name": "",
          "type": "uint256"
        }
      ],
      "stateMutability": "view",
      "type": "function"
    },
    {
      "inputs": [],
      "name": "WEEK",
      "outputs": [
        {
          "internalType": "uint256",
          "name": "",
          "type": "uint256"
        }
      ],
      "stateMutability": "view",
      "type": "function"
    },
    {
      "inputs": [
        {
          "internalType": "address",
          "name": "_token",
          "type": "address"
        }
      ],
      "name": "balanceOf",
      "outputs": [
        {
          "internalType": "uint256",
          "name": "",
          "type": "uint256"
        }
      ],
      "stateMutability": "view",
      "type": "function"
    },
    {
      "inputs": [],
      "name": "converterFee",
      "outputs": [
        {
          "internalType": "uint256",
          "name": "",
          "type": "uint256"
        }
      ],
      "stateMutability": "view",
      "type": "function"
    },
    {
      "inputs": [
        {
          "internalType": "address",
          "name": "_wbnb",
          "type": "address"
        },
        {
          "internalType": "address",
          "name": "_stakingConverter",
          "type": "address"
        },
        {
          "internalType": "address",
          "name": "_royalties",
          "type": "address"
        }
      ],
      "name": "initialize",
      "outputs": [],
      "stateMutability": "nonpayable",
      "type": "function"
    },
    {
      "inputs": [],
      "name": "owner",
      "outputs": [
        {
          "internalType": "address",
          "name": "",
          "type": "address"
        }
      ],
      "stateMutability": "view",
      "type": "function"
    },
    {
      "inputs": [],
      "name": "renounceOwnership",
      "outputs": [],
      "stateMutability": "nonpayable",
      "type": "function"
    },
    {
      "inputs": [],
      "name": "royalties",
      "outputs": [
        {
          "internalType": "address",
          "name": "",
          "type": "address"
        }
      ],
      "stateMutability": "view",
      "type": "function"
    },
    {
      "inputs": [],
      "name": "royaltiesFee",
      "outputs": [
        {
          "internalType": "uint256",
          "name": "",
          "type": "uint256"
        }
      ],
      "stateMutability": "view",
      "type": "function"
    },
    {
      "inputs": [
        {
          "internalType": "address",
          "name": "_converter",
          "type": "address"
        }
      ],
      "name": "setConverter",
      "outputs": [],
      "stateMutability": "nonpayable",
      "type": "function"
    },
    {
      "inputs": [
        {
          "internalType": "uint256",
          "name": "_amountToStaking",
          "type": "uint256"
        },
        {
          "internalType": "uint256",
          "name": "_amountToRoyalties",
          "type": "uint256"
        }
      ],
      "name": "setFees",
      "outputs": [],
      "stateMutability": "nonpayable",
      "type": "function"
    },
    {
      "inputs": [
        {
          "internalType": "address",
          "name": "_royal",
          "type": "address"
        }
      ],
      "name": "setRoyalties",
      "outputs": [],
      "stateMutability": "nonpayable",
      "type": "function"
    },
    {
      "inputs": [
        {
          "internalType": "address",
          "name": "_splitter",
          "type": "address"
        },
        {
          "internalType": "bool",
          "name": "_what",
          "type": "bool"
        }
      ],
      "name": "setSplitter",
      "outputs": [],
      "stateMutability": "nonpayable",
      "type": "function"
    },
    {
      "inputs": [],
      "name": "split",
      "outputs": [],
      "stateMutability": "nonpayable",
      "type": "function"
    },
    {
      "inputs": [
        {
          "internalType": "address",
          "name": "",
          "type": "address"
        }
      ],
      "name": "splitter",
      "outputs": [
        {
          "internalType": "bool",
          "name": "",
          "type": "bool"
        }
      ],
      "stateMutability": "view",
      "type": "function"
    },
    {
      "inputs": [],
      "name": "stakingConverter",
      "outputs": [
        {
          "internalType": "address",
          "name": "",
          "type": "address"
        }
      ],
      "stateMutability": "view",
      "type": "function"
    },
    {
      "inputs": [],
      "name": "swapBNBToWBNB",
      "outputs": [],
      "stateMutability": "nonpayable",
      "type": "function"
    },
    {
      "inputs": [
        {
          "internalType": "address",
          "name": "newOwner",
          "type": "address"
        }
      ],
      "name": "transferOwnership",
      "outputs": [],
      "stateMutability": "nonpayable",
      "type": "function"
    },
    {
      "inputs": [],
      "name": "wbnb",
      "outputs": [
        {
          "internalType": "address",
          "name": "",
          "type": "address"
        }
      ],
      "stateMutability": "view",
      "type": "function"
    },
    {
      "inputs": [
        {
          "internalType": "address",
          "name": "_token",
          "type": "address"
        }
      ],
      "name": "withdrawERC20",
      "outputs": [],
      "stateMutability": "nonpayable",
      "type": "function"
    },
    {
      "stateMutability": "payable",
      "type": "receive"
    }
  ],
  "bytecode": "0x608060405234801561001057600080fd5b50610fb4806100206000396000f3fe6080604052600436106101235760003560e01c8063c0c53b8b116100a0578063f053dc5c11610064578063f053dc5c14610326578063f2fde38b14610346578063f4359ce514610366578063f4f3b2001461037d578063f76541761461039d57600080fd5b8063c0c53b8b1461029b578063ce08baa7146102bb578063d3c3653b146102db578063d3ce9ab3146102f0578063de74d4991461031057600080fd5b80638d72647e116100e75780638d72647e146101f95780638da5cb5b1461023157806399093a331461024f578063aaf5eb6814610265578063b19337a41461027b57600080fd5b80630b78f9c01461012f5780632a9e63c614610151578063351ad5e81461017157806370a08231146101b6578063715018a6146101e457600080fd5b3661012a57005b600080fd5b34801561013b57600080fd5b5061014f61014a366004610da6565b6103b2565b005b34801561015d57600080fd5b5061014f61016c366004610de4565b610416565b34801561017d57600080fd5b506101a161018c366004610de4565b606a6020526000908152604090205460ff1681565b60405190151581526020015b60405180910390f35b3480156101c257600080fd5b506101d66101d1366004610de4565b610453565b6040519081526020016101ad565b3480156101f057600080fd5b5061014f6104c4565b34801561020557600080fd5b50606754610219906001600160a01b031681565b6040516001600160a01b0390911681526020016101ad565b34801561023d57600080fd5b506033546001600160a01b0316610219565b34801561025b57600080fd5b506101d660665481565b34801561027157600080fd5b506101d66103e881565b34801561028757600080fd5b5061014f610296366004610de4565b6104d8565b3480156102a757600080fd5b5061014f6102b6366004610e06565b610515565b3480156102c757600080fd5b50606854610219906001600160a01b031681565b3480156102e757600080fd5b5061014f610672565b3480156102fc57600080fd5b5061014f61030b366004610e57565b6106ab565b34801561031c57600080fd5b506101d660655481565b34801561033257600080fd5b50606954610219906001600160a01b031681565b34801561035257600080fd5b5061014f610361366004610de4565b6106de565b34801561037257600080fd5b506101d662093a8081565b34801561038957600080fd5b5061014f610398366004610de4565b610757565b3480156103a957600080fd5b5061014f6107f6565b6103ba61082f565b6103e86066546065546103cd9190610ea4565b111561040b5760405162461bcd60e51b8152602060048201526008602482015267746f6f206d616e7960c01b60448201526064015b60405180910390fd5b606591909155606655565b61041e61082f565b6001600160a01b03811661043157600080fd5b606980546001600160a01b0319166001600160a01b0392909216919091179055565b6040516370a0823160e01b81523060048201526000906001600160a01b038316906370a0823190602401602060405180830381865afa15801561049a573d6000803e3d6000fd5b505050506040513d601f19601f820116820180604052508101906104be9190610ebc565b92915050565b6104cc61082f565b6104d66000610889565b565b6104e061082f565b6001600160a01b0381166104f357600080fd5b606880546001600160a01b0319166001600160a01b0392909216919091179055565b600054610100900460ff16158080156105355750600054600160ff909116105b8061054f5750303b15801561054f575060005460ff166001145b6105b25760405162461bcd60e51b815260206004820152602e60248201527f496e697469616c697a61626c653a20636f6e747261637420697320616c72656160448201526d191e481a5b9a5d1a585b1a5e995960921b6064820152608401610402565b6000805460ff1916600117905580156105d5576000805461ff0019166101001790555b6105dd6108db565b606780546001600160a01b038087166001600160a01b03199283161790925560688054868416908316179055606980549285169290911691909117905561014d60655561029b606655801561066c576000805461ff0019169055604051600181527f7f26b83ff96e1f2b6a682f133852f6798a09c465da95921460cefb38474024989060200160405180910390a15b50505050565b6033546001600160a01b031633148061069a5750336000908152606a602052604090205460ff165b6106a357600080fd5b6104d661090a565b6106b361082f565b6001600160a01b03919091166000908152606a60205260409020805460ff1916911515919091179055565b6106e661082f565b6001600160a01b03811661074b5760405162461bcd60e51b815260206004820152602660248201527f4f776e61626c653a206e6577206f776e657220697320746865207a65726f206160448201526564647265737360d01b6064820152608401610402565b61075481610889565b50565b61075f61082f565b6001600160a01b03811661077257600080fd5b600061077d82610453565b60405163a9059cbb60e01b8152336004820152602481018290529091506001600160a01b0383169063a9059cbb906044016020604051808303816000875af11580156107cd573d6000803e3d6000fd5b505050506040513d601f19601f820116820180604052508101906107f19190610ed5565b505050565b6033546001600160a01b031633148061081e5750336000908152606a602052604090205460ff165b61082757600080fd5b6104d661097b565b6033546001600160a01b031633146104d65760405162461bcd60e51b815260206004820181905260248201527f4f776e61626c653a2063616c6c6572206973206e6f7420746865206f776e65726044820152606401610402565b603380546001600160a01b038381166001600160a01b0319831681179093556040519116919082907f8be0079c531659141344cd1fd0a4f28419497f9722a3daafe3b4186f6b6457e090600090a35050565b600054610100900460ff166109025760405162461bcd60e51b815260040161040290610ef2565b6104d6610d76565b47156104d657606760009054906101000a90046001600160a01b03166001600160a01b031663d0e30db0476040518263ffffffff1660e01b81526004016000604051808303818588803b15801561096057600080fd5b505af1158015610974573d6000803e3d6000fd5b5050505050565b61098361090a565b60675460009061099b906001600160a01b0316610453565b90506000808062093a806109af8142610f3d565b6109b99190610f5f565b90506103e8841115610d35576068546001600160a01b031615610b3e576103e8606554856109e79190610f5f565b6109f19190610f3d565b60675460685460405163a9059cbb60e01b81526001600160a01b03918216600482015260248101849052929550169063a9059cbb906044016020604051808303816000875af1158015610a48573d6000803e3d6000fd5b505050506040513d601f19601f82011682018060405250810190610a6c9190610ed5565b50606860009054906101000a90046001600160a01b03166001600160a01b031663d294f0936040518163ffffffff1660e01b8152600401600060405180830381600087803b158015610abd57600080fd5b505af1158015610ad1573d6000803e3d6000fd5b50505050606860009054906101000a90046001600160a01b03166001600160a01b0316638119c0656040518163ffffffff1660e01b8152600401600060405180830381600087803b158015610b2557600080fd5b505af1158015610b39573d6000803e3d6000fd5b505050505b6069546001600160a01b031615610cf5576103e860665485610b609190610f5f565b610b6a9190610f3d565b6067549092508290610b84906001600160a01b0316610453565b1015610ba257606754610b9f906001600160a01b0316610453565b91505b60675460695460405163095ea7b360e01b81526001600160a01b0391821660048201526000602482015291169063095ea7b3906044016020604051808303816000875af1158015610bf7573d6000803e3d6000fd5b505050506040513d601f19601f82011682018060405250810190610c1b9190610ed5565b5060675460695460405163095ea7b360e01b81526001600160a01b0391821660048201526024810185905291169063095ea7b3906044016020604051808303816000875af1158015610c71573d6000803e3d6000fd5b505050506040513d601f19601f82011682018060405250810190610c959190610ed5565b5060695460405163b6b55f2560e01b8152600481018490526001600160a01b039091169063b6b55f2590602401600060405180830381600087803b158015610cdc57600080fd5b505af1158015610cf0573d6000803e3d6000fd5b505050505b604080518481526020810184905282917fcf0974dfd867840133a0d4b02f1672f24017796fb8892d1e0d587692e4da90ab910160405180910390a261066c565b604080516000808252602082015282917fcf0974dfd867840133a0d4b02f1672f24017796fb8892d1e0d587692e4da90ab910160405180910390a250505050565b600054610100900460ff16610d9d5760405162461bcd60e51b815260040161040290610ef2565b6104d633610889565b60008060408385031215610db957600080fd5b50508035926020909101359150565b80356001600160a01b0381168114610ddf57600080fd5b919050565b600060208284031215610df657600080fd5b610dff82610dc8565b9392505050565b600080600060608486031215610e1b57600080fd5b610e2484610dc8565b9250610e3260208501610dc8565b9150610e4060408501610dc8565b90509250925092565b801515811461075457600080fd5b60008060408385031215610e6a57600080fd5b610e7383610dc8565b91506020830135610e8381610e49565b809150509250929050565b634e487b7160e01b600052601160045260246000fd5b60008219821115610eb757610eb7610e8e565b500190565b600060208284031215610ece57600080fd5b5051919050565b600060208284031215610ee757600080fd5b8151610dff81610e49565b6020808252602b908201527f496e697469616c697a61626c653a20636f6e7472616374206973206e6f74206960408201526a6e697469616c697a696e6760a81b606082015260800190565b600082610f5a57634e487b7160e01b600052601260045260246000fd5b500490565b6000816000190483118215151615610f7957610f79610e8e565b50029056fea2646970667358221220d7bd3b258c4593498636c502020f778afb2dc25e55ab761072793891d604bdbb64736f6c634300080d0033",
  "linkReferences": {},
  "deployedLinkReferences": {}
}