{
  "_format": "hh-sol-artifact-1",
  "contractName": "NFTSalesSplitter",
  "sourceName": "contracts/NFTSalesSplitter.sol",
  "abi": [
    {
      "inputs": [],
      "stateMutability": "nonpayable",
      "type": "constructor"
    },
    {
      "anonymous": false,
      "inputs": [
        {
          "indexed": false,
          "internalType": "uint8",
          "name": "version",
          "type": "uint8"
        }
      ],
      "name": "Initialized",
      "type": "event"
    },
    {
      "anonymous": false,
      "inputs": [
        {
          "indexed": true,
          "internalType": "address",
          "name": "previousOwner",
          "type": "address"
        },
        {
          "indexed": true,
          "internalType": "address",
          "name": "newOwner",
          "type": "address"
        }
      ],
      "name": "OwnershipTransferred",
      "type": "event"
    },
    {
      "anonymous": false,
      "inputs": [
        {
          "indexed": true,
          "internalType": "uint256",
          "name": "timestamp",
          "type": "uint256"
        },
        {
          "indexed": false,
          "internalType": "uint256",
          "name": "toStake",
          "type": "uint256"
        },
        {
          "indexed": false,
          "internalType": "uint256",
          "name": "toRoyalties",
          "type": "uint256"
        }
      ],
      "name": "Split",
      "type": "event"
    },
    {
      "inputs": [],
      "name": "PRECISION",
      "outputs": [
        {
          "internalType": "uint256",
          "name": "",
          "type": "uint256"
        }
      ],
      "stateMutability": "view",
      "type": "function"
    },
    {
      "inputs": [],
      "name": "WEEK",
      "outputs": [
        {
          "internalType": "uint256",
          "name": "",
          "type": "uint256"
        }
      ],
      "stateMutability": "view",
      "type": "function"
    },
    {
      "inputs": [],
      "name": "balanceOf",
      "outputs": [
        {
          "internalType": "uint256",
          "name": "",
          "type": "uint256"
        }
      ],
      "stateMutability": "view",
      "type": "function"
    },
    {
      "inputs": [],
      "name": "converterFee",
      "outputs": [
        {
          "internalType": "uint256",
          "name": "",
          "type": "uint256"
        }
      ],
      "stateMutability": "view",
      "type": "function"
    },
    {
      "inputs": [],
      "name": "initialize",
      "outputs": [],
      "stateMutability": "nonpayable",
      "type": "function"
    },
    {
      "inputs": [],
      "name": "owner",
      "outputs": [
        {
          "internalType": "address",
          "name": "",
          "type": "address"
        }
      ],
      "stateMutability": "view",
      "type": "function"
    },
    {
      "inputs": [],
      "name": "renounceOwnership",
      "outputs": [],
      "stateMutability": "nonpayable",
      "type": "function"
    },
    {
      "inputs": [],
      "name": "royalties",
      "outputs": [
        {
          "internalType": "address",
          "name": "",
          "type": "address"
        }
      ],
      "stateMutability": "view",
      "type": "function"
    },
    {
      "inputs": [],
      "name": "royaltiesFee",
      "outputs": [
        {
          "internalType": "uint256",
          "name": "",
          "type": "uint256"
        }
      ],
      "stateMutability": "view",
      "type": "function"
    },
    {
      "inputs": [
        {
          "internalType": "address",
          "name": "_converter",
          "type": "address"
        }
      ],
      "name": "setConverter",
      "outputs": [],
      "stateMutability": "nonpayable",
      "type": "function"
    },
    {
      "inputs": [
        {
          "internalType": "uint256",
          "name": "_amountToStaking",
          "type": "uint256"
        },
        {
          "internalType": "uint256",
          "name": "_amountToRoyalties",
          "type": "uint256"
        }
      ],
      "name": "setFees",
      "outputs": [],
      "stateMutability": "nonpayable",
      "type": "function"
    },
    {
      "inputs": [
        {
          "internalType": "address",
          "name": "_royal",
          "type": "address"
        }
      ],
      "name": "setRoyalties",
      "outputs": [],
      "stateMutability": "nonpayable",
      "type": "function"
    },
    {
      "inputs": [
        {
          "internalType": "address",
          "name": "_splitter",
          "type": "address"
        },
        {
          "internalType": "bool",
          "name": "_what",
          "type": "bool"
        }
      ],
      "name": "setSplitter",
      "outputs": [],
      "stateMutability": "nonpayable",
      "type": "function"
    },
    {
      "inputs": [],
      "name": "split",
      "outputs": [],
      "stateMutability": "nonpayable",
      "type": "function"
    },
    {
      "inputs": [
        {
          "internalType": "address",
          "name": "",
          "type": "address"
        }
      ],
      "name": "splitter",
      "outputs": [
        {
          "internalType": "bool",
          "name": "",
          "type": "bool"
        }
      ],
      "stateMutability": "view",
      "type": "function"
    },
    {
      "inputs": [],
      "name": "stakingConverter",
      "outputs": [
        {
          "internalType": "address",
          "name": "",
          "type": "address"
        }
      ],
      "stateMutability": "view",
      "type": "function"
    },
    {
      "inputs": [],
      "name": "swapWBNBToBNB",
      "outputs": [],
      "stateMutability": "nonpayable",
      "type": "function"
    },
    {
      "inputs": [
        {
          "internalType": "address",
          "name": "newOwner",
          "type": "address"
        }
      ],
      "name": "transferOwnership",
      "outputs": [],
      "stateMutability": "nonpayable",
      "type": "function"
    },
    {
      "inputs": [],
      "name": "wbnb",
      "outputs": [
        {
          "internalType": "address",
          "name": "",
          "type": "address"
        }
      ],
      "stateMutability": "view",
      "type": "function"
    },
    {
      "inputs": [
        {
          "internalType": "address",
          "name": "_token",
          "type": "address"
        }
      ],
      "name": "withdrawERC20",
      "outputs": [],
      "stateMutability": "nonpayable",
      "type": "function"
    },
    {
      "stateMutability": "payable",
      "type": "receive"
    }
  ],
  "bytecode": "0x608060405234801561001057600080fd5b50610fae806100206000396000f3fe6080604052600436106101235760003560e01c8063b19337a4116100a0578063f053dc5c11610064578063f053dc5c14610310578063f2fde38b14610330578063f4359ce514610350578063f4f3b20014610367578063f76541761461038757600080fd5b8063b19337a414610285578063ce08baa7146102a5578063d3ce9ab3146102c5578063de3b8b12146102e5578063de74d499146102fa57600080fd5b80638129fc1c116100e75780638129fc1c146101ee5780638d72647e146102035780638da5cb5b1461023b57806399093a3314610259578063aaf5eb681461026f57600080fd5b80630b78f9c01461012f5780632a9e63c614610151578063351ad5e814610171578063715018a6146101b6578063722713f7146101cb57600080fd5b3661012a57005b600080fd5b34801561013b57600080fd5b5061014f61014a366004610de3565b61039c565b005b34801561015d57600080fd5b5061014f61016c366004610e21565b610400565b34801561017d57600080fd5b506101a161018c366004610e21565b606a6020526000908152604090205460ff1681565b60405190151581526020015b60405180910390f35b3480156101c257600080fd5b5061014f61043d565b3480156101d757600080fd5b506101e0610451565b6040519081526020016101ad565b3480156101fa57600080fd5b5061014f6104c3565b34801561020f57600080fd5b50606754610223906001600160a01b031681565b6040516001600160a01b0390911681526020016101ad565b34801561024757600080fd5b506033546001600160a01b0316610223565b34801561026557600080fd5b506101e060665481565b34801561027b57600080fd5b506101e06103e881565b34801561029157600080fd5b5061014f6102a0366004610e21565b610646565b3480156102b157600080fd5b50606854610223906001600160a01b031681565b3480156102d157600080fd5b5061014f6102e0366004610e51565b610683565b3480156102f157600080fd5b5061014f6106b6565b34801561030657600080fd5b506101e060655481565b34801561031c57600080fd5b50606954610223906001600160a01b031681565b34801561033c57600080fd5b5061014f61034b366004610e21565b6106ef565b34801561035c57600080fd5b506101e062093a8081565b34801561037357600080fd5b5061014f610382366004610e21565b610765565b34801561039357600080fd5b5061014f610864565b6103a4610c67565b6103e86066546065546103b79190610e9e565b11156103f55760405162461bcd60e51b8152602060048201526008602482015267746f6f206d616e7960c01b60448201526064015b60405180910390fd5b606591909155606655565b610408610c67565b6001600160a01b03811661041b57600080fd5b606980546001600160a01b0319166001600160a01b0392909216919091179055565b610445610c67565b61044f6000610cc1565b565b6067546040516370a0823160e01b81523060048201526000916001600160a01b0316906370a0823190602401602060405180830381865afa15801561049a573d6000803e3d6000fd5b505050506040513d601f19601f820116820180604052508101906104be9190610eb6565b905090565b600054610100900460ff16158080156104e35750600054600160ff909116105b806104fd5750303b1580156104fd575060005460ff166001145b6105605760405162461bcd60e51b815260206004820152602e60248201527f496e697469616c697a61626c653a20636f6e747261637420697320616c72656160448201526d191e481a5b9a5d1a585b1a5e995960921b60648201526084016103ec565b6000805460ff191660011790558015610583576000805461ff0019166101001790555b61058b610d13565b606780546001600160a01b031990811673bb4cdb9cbd36b01bd1cbaebf2de08d9173bc095c179091556068805482167314cbeee51410c4e3b8269b534933404aee416a961790556069805490911673be3b34b69b9d7a4a919a7b7da1ae34061e46c49d17905561014d60655561029b6066558015610643576000805461ff0019169055604051600181527f7f26b83ff96e1f2b6a682f133852f6798a09c465da95921460cefb38474024989060200160405180910390a15b50565b61064e610c67565b6001600160a01b03811661066157600080fd5b606880546001600160a01b0319166001600160a01b0392909216919091179055565b61068b610c67565b6001600160a01b03919091166000908152606a60205260409020805460ff1916911515919091179055565b6033546001600160a01b03163314806106de5750336000908152606a602052604090205460ff165b6106e757600080fd5b61044f610d42565b6106f7610c67565b6001600160a01b03811661075c5760405162461bcd60e51b815260206004820152602660248201527f4f776e61626c653a206e6577206f776e657220697320746865207a65726f206160448201526564647265737360d01b60648201526084016103ec565b61064381610cc1565b61076d610c67565b6001600160a01b03811661078057600080fd5b6040516370a0823160e01b81523060048201526000906001600160a01b038316906370a0823190602401602060405180830381865afa1580156107c7573d6000803e3d6000fd5b505050506040513d601f19601f820116820180604052508101906107eb9190610eb6565b60405163a9059cbb60e01b8152336004820152602481018290529091506001600160a01b0383169063a9059cbb906044016020604051808303816000875af115801561083b573d6000803e3d6000fd5b505050506040513d601f19601f8201168201806040525081019061085f9190610ecf565b505050565b6033546001600160a01b031633148061088c5750336000908152606a602052604090205460ff165b61089557600080fd5b61089d610d42565b60006108a7610451565b90506000808062093a806108bb8142610eec565b6108c59190610f0e565b90506103e8841115610c25576068546001600160a01b031615610a4a576103e8606554856108f39190610f0e565b6108fd9190610eec565b60675460685460405163a9059cbb60e01b81526001600160a01b03918216600482015260248101849052929550169063a9059cbb906044016020604051808303816000875af1158015610954573d6000803e3d6000fd5b505050506040513d601f19601f820116820180604052508101906109789190610ecf565b50606860009054906101000a90046001600160a01b03166001600160a01b031663d294f0936040518163ffffffff1660e01b8152600401600060405180830381600087803b1580156109c957600080fd5b505af11580156109dd573d6000803e3d6000fd5b50505050606860009054906101000a90046001600160a01b03166001600160a01b0316638119c0656040518163ffffffff1660e01b8152600401600060405180830381600087803b158015610a3157600080fd5b505af1158015610a45573d6000803e3d6000fd5b505050505b6069546001600160a01b031615610be5576103e860665485610a6c9190610f0e565b610a769190610eec565b915081610a81610451565b1015610a9257610a8f610451565b91505b60675460695460405163095ea7b360e01b81526001600160a01b0391821660048201526000602482015291169063095ea7b3906044016020604051808303816000875af1158015610ae7573d6000803e3d6000fd5b505050506040513d601f19601f82011682018060405250810190610b0b9190610ecf565b5060675460695460405163095ea7b360e01b81526001600160a01b0391821660048201526024810185905291169063095ea7b3906044016020604051808303816000875af1158015610b61573d6000803e3d6000fd5b505050506040513d601f19601f82011682018060405250810190610b859190610ecf565b5060695460405163b6b55f2560e01b8152600481018490526001600160a01b039091169063b6b55f2590602401600060405180830381600087803b158015610bcc57600080fd5b505af1158015610be0573d6000803e3d6000fd5b505050505b604080518481526020810184905282917fcf0974dfd867840133a0d4b02f1672f24017796fb8892d1e0d587692e4da90ab910160405180910390a2610c61565b604080516000808252602082015282917fcf0974dfd867840133a0d4b02f1672f24017796fb8892d1e0d587692e4da90ab910160405180910390a25b50505050565b6033546001600160a01b0316331461044f5760405162461bcd60e51b815260206004820181905260248201527f4f776e61626c653a2063616c6c6572206973206e6f7420746865206f776e657260448201526064016103ec565b603380546001600160a01b038381166001600160a01b0319831681179093556040519116919082907f8be0079c531659141344cd1fd0a4f28419497f9722a3daafe3b4186f6b6457e090600090a35050565b600054610100900460ff16610d3a5760405162461bcd60e51b81526004016103ec90610f2d565b61044f610db3565b471561044f57606760009054906101000a90046001600160a01b03166001600160a01b031663d0e30db0476040518263ffffffff1660e01b81526004016000604051808303818588803b158015610d9857600080fd5b505af1158015610dac573d6000803e3d6000fd5b5050505050565b600054610100900460ff16610dda5760405162461bcd60e51b81526004016103ec90610f2d565b61044f33610cc1565b60008060408385031215610df657600080fd5b50508035926020909101359150565b80356001600160a01b0381168114610e1c57600080fd5b919050565b600060208284031215610e3357600080fd5b610e3c82610e05565b9392505050565b801515811461064357600080fd5b60008060408385031215610e6457600080fd5b610e6d83610e05565b91506020830135610e7d81610e43565b809150509250929050565b634e487b7160e01b600052601160045260246000fd5b60008219821115610eb157610eb1610e88565b500190565b600060208284031215610ec857600080fd5b5051919050565b600060208284031215610ee157600080fd5b8151610e3c81610e43565b600082610f0957634e487b7160e01b600052601260045260246000fd5b500490565b6000816000190483118215151615610f2857610f28610e88565b500290565b6020808252602b908201527f496e697469616c697a61626c653a20636f6e7472616374206973206e6f74206960408201526a6e697469616c697a696e6760a81b60608201526080019056fea2646970667358221220d58109614989a5a969b55f51b6a8a1725acf64aa47420e6e86b54c7a29cfb0c964736f6c634300080d0033",
  "linkReferences": {},
  "deployedLinkReferences": {}
}