{
  "_format": "hh-sol-artifact-1",
  "contractName": "NFTSalesSplitter",
  "sourceName": "contracts/NFTSalesSplitter.sol",
  "abi": [
    {
      "inputs": [],
      "stateMutability": "nonpayable",
      "type": "constructor"
    },
    {
      "anonymous": false,
      "inputs": [
        {
          "indexed": false,
          "internalType": "uint8",
          "name": "version",
          "type": "uint8"
        }
      ],
      "name": "Initialized",
      "type": "event"
    },
    {
      "anonymous": false,
      "inputs": [
        {
          "indexed": true,
          "internalType": "address",
          "name": "previousOwner",
          "type": "address"
        },
        {
          "indexed": true,
          "internalType": "address",
          "name": "newOwner",
          "type": "address"
        }
      ],
      "name": "OwnershipTransferred",
      "type": "event"
    },
    {
      "anonymous": false,
      "inputs": [
        {
          "indexed": true,
          "internalType": "uint256",
          "name": "timestamp",
          "type": "uint256"
        },
        {
          "indexed": false,
          "internalType": "uint256",
          "name": "toStake",
          "type": "uint256"
        },
        {
          "indexed": false,
          "internalType": "uint256",
          "name": "toRoyalties",
          "type": "uint256"
        }
      ],
      "name": "Split",
      "type": "event"
    },
    {
      "inputs": [],
      "name": "PRECISION",
      "outputs": [
        {
          "internalType": "uint256",
          "name": "",
          "type": "uint256"
        }
      ],
      "stateMutability": "view",
      "type": "function"
    },
    {
      "inputs": [],
      "name": "WEEK",
      "outputs": [
        {
          "internalType": "uint256",
          "name": "",
          "type": "uint256"
        }
      ],
      "stateMutability": "view",
      "type": "function"
    },
    {
      "inputs": [],
      "name": "balanceOf",
      "outputs": [
        {
          "internalType": "uint256",
          "name": "",
          "type": "uint256"
        }
      ],
      "stateMutability": "view",
      "type": "function"
    },
    {
      "inputs": [],
      "name": "converterFee",
      "outputs": [
        {
          "internalType": "uint256",
          "name": "",
          "type": "uint256"
        }
      ],
      "stateMutability": "view",
      "type": "function"
    },
    {
      "inputs": [
        {
          "internalType": "address",
          "name": "_wbnb",
          "type": "address"
        },
        {
          "internalType": "address",
          "name": "_stakingConverter",
          "type": "address"
        },
        {
          "internalType": "address",
          "name": "_royalties",
          "type": "address"
        }
      ],
      "name": "initialize",
      "outputs": [],
      "stateMutability": "nonpayable",
      "type": "function"
    },
    {
      "inputs": [],
      "name": "owner",
      "outputs": [
        {
          "internalType": "address",
          "name": "",
          "type": "address"
        }
      ],
      "stateMutability": "view",
      "type": "function"
    },
    {
      "inputs": [],
      "name": "renounceOwnership",
      "outputs": [],
      "stateMutability": "nonpayable",
      "type": "function"
    },
    {
      "inputs": [],
      "name": "royalties",
      "outputs": [
        {
          "internalType": "address",
          "name": "",
          "type": "address"
        }
      ],
      "stateMutability": "view",
      "type": "function"
    },
    {
      "inputs": [],
      "name": "royaltiesFee",
      "outputs": [
        {
          "internalType": "uint256",
          "name": "",
          "type": "uint256"
        }
      ],
      "stateMutability": "view",
      "type": "function"
    },
    {
      "inputs": [
        {
          "internalType": "address",
          "name": "_converter",
          "type": "address"
        }
      ],
      "name": "setConverter",
      "outputs": [],
      "stateMutability": "nonpayable",
      "type": "function"
    },
    {
      "inputs": [
        {
          "internalType": "uint256",
          "name": "_amountToStaking",
          "type": "uint256"
        },
        {
          "internalType": "uint256",
          "name": "_amountToRoyalties",
          "type": "uint256"
        }
      ],
      "name": "setFees",
      "outputs": [],
      "stateMutability": "nonpayable",
      "type": "function"
    },
    {
      "inputs": [
        {
          "internalType": "address",
          "name": "_royal",
          "type": "address"
        }
      ],
      "name": "setRoyalties",
      "outputs": [],
      "stateMutability": "nonpayable",
      "type": "function"
    },
    {
      "inputs": [
        {
          "internalType": "address",
          "name": "_splitter",
          "type": "address"
        },
        {
          "internalType": "bool",
          "name": "_what",
          "type": "bool"
        }
      ],
      "name": "setSplitter",
      "outputs": [],
      "stateMutability": "nonpayable",
      "type": "function"
    },
    {
      "inputs": [],
      "name": "split",
      "outputs": [],
      "stateMutability": "nonpayable",
      "type": "function"
    },
    {
      "inputs": [
        {
          "internalType": "address",
          "name": "",
          "type": "address"
        }
      ],
      "name": "splitter",
      "outputs": [
        {
          "internalType": "bool",
          "name": "",
          "type": "bool"
        }
      ],
      "stateMutability": "view",
      "type": "function"
    },
    {
      "inputs": [],
      "name": "stakingConverter",
      "outputs": [
        {
          "internalType": "address",
          "name": "",
          "type": "address"
        }
      ],
      "stateMutability": "view",
      "type": "function"
    },
    {
      "inputs": [],
      "name": "swapWBNBToBNB",
      "outputs": [],
      "stateMutability": "nonpayable",
      "type": "function"
    },
    {
      "inputs": [
        {
          "internalType": "address",
          "name": "newOwner",
          "type": "address"
        }
      ],
      "name": "transferOwnership",
      "outputs": [],
      "stateMutability": "nonpayable",
      "type": "function"
    },
    {
      "inputs": [],
      "name": "wbnb",
      "outputs": [
        {
          "internalType": "address",
          "name": "",
          "type": "address"
        }
      ],
      "stateMutability": "view",
      "type": "function"
    },
    {
      "inputs": [
        {
          "internalType": "address",
          "name": "_token",
          "type": "address"
        }
      ],
      "name": "withdrawERC20",
      "outputs": [],
      "stateMutability": "nonpayable",
      "type": "function"
    },
    {
      "stateMutability": "payable",
      "type": "receive"
    }
  ],
  "bytecode": "0x608060405234801561001057600080fd5b50610fd8806100206000396000f3fe6080604052600436106101235760003560e01c8063c0c53b8b116100a0578063f053dc5c11610064578063f053dc5c1461031b578063f2fde38b1461033b578063f4359ce51461035b578063f4f3b20014610372578063f76541761461039257600080fd5b8063c0c53b8b14610290578063ce08baa7146102b0578063d3ce9ab3146102d0578063de3b8b12146102f0578063de74d4991461030557600080fd5b80638d72647e116100e75780638d72647e146101ee5780638da5cb5b1461022657806399093a3314610244578063aaf5eb681461025a578063b19337a41461027057600080fd5b80630b78f9c01461012f5780632a9e63c614610151578063351ad5e814610171578063715018a6146101b6578063722713f7146101cb57600080fd5b3661012a57005b600080fd5b34801561013b57600080fd5b5061014f61014a366004610dca565b6103a7565b005b34801561015d57600080fd5b5061014f61016c366004610e08565b61040b565b34801561017d57600080fd5b506101a161018c366004610e08565b606a6020526000908152604090205460ff1681565b60405190151581526020015b60405180910390f35b3480156101c257600080fd5b5061014f610448565b3480156101d757600080fd5b506101e061045c565b6040519081526020016101ad565b3480156101fa57600080fd5b5060675461020e906001600160a01b031681565b6040516001600160a01b0390911681526020016101ad565b34801561023257600080fd5b506033546001600160a01b031661020e565b34801561025057600080fd5b506101e060665481565b34801561026657600080fd5b506101e06103e881565b34801561027c57600080fd5b5061014f61028b366004610e08565b6104ce565b34801561029c57600080fd5b5061014f6102ab366004610e2a565b61050b565b3480156102bc57600080fd5b5060685461020e906001600160a01b031681565b3480156102dc57600080fd5b5061014f6102eb366004610e7b565b610668565b3480156102fc57600080fd5b5061014f61069b565b34801561031157600080fd5b506101e060655481565b34801561032757600080fd5b5060695461020e906001600160a01b031681565b34801561034757600080fd5b5061014f610356366004610e08565b6106d4565b34801561036757600080fd5b506101e062093a8081565b34801561037e57600080fd5b5061014f61038d366004610e08565b61074d565b34801561039e57600080fd5b5061014f61084c565b6103af610c4e565b6103e86066546065546103c29190610ec8565b11156104005760405162461bcd60e51b8152602060048201526008602482015267746f6f206d616e7960c01b60448201526064015b60405180910390fd5b606591909155606655565b610413610c4e565b6001600160a01b03811661042657600080fd5b606980546001600160a01b0319166001600160a01b0392909216919091179055565b610450610c4e565b61045a6000610ca8565b565b6067546040516370a0823160e01b81523060048201526000916001600160a01b0316906370a0823190602401602060405180830381865afa1580156104a5573d6000803e3d6000fd5b505050506040513d601f19601f820116820180604052508101906104c99190610ee0565b905090565b6104d6610c4e565b6001600160a01b0381166104e957600080fd5b606880546001600160a01b0319166001600160a01b0392909216919091179055565b600054610100900460ff161580801561052b5750600054600160ff909116105b806105455750303b158015610545575060005460ff166001145b6105a85760405162461bcd60e51b815260206004820152602e60248201527f496e697469616c697a61626c653a20636f6e747261637420697320616c72656160448201526d191e481a5b9a5d1a585b1a5e995960921b60648201526084016103f7565b6000805460ff1916600117905580156105cb576000805461ff0019166101001790555b6105d3610cfa565b606780546001600160a01b038087166001600160a01b03199283161790925560688054868416908316179055606980549285169290911691909117905561014d60655561029b6066558015610662576000805461ff0019169055604051600181527f7f26b83ff96e1f2b6a682f133852f6798a09c465da95921460cefb38474024989060200160405180910390a15b50505050565b610670610c4e565b6001600160a01b03919091166000908152606a60205260409020805460ff1916911515919091179055565b6033546001600160a01b03163314806106c35750336000908152606a602052604090205460ff165b6106cc57600080fd5b61045a610d29565b6106dc610c4e565b6001600160a01b0381166107415760405162461bcd60e51b815260206004820152602660248201527f4f776e61626c653a206e6577206f776e657220697320746865207a65726f206160448201526564647265737360d01b60648201526084016103f7565b61074a81610ca8565b50565b610755610c4e565b6001600160a01b03811661076857600080fd5b6040516370a0823160e01b81523060048201526000906001600160a01b038316906370a0823190602401602060405180830381865afa1580156107af573d6000803e3d6000fd5b505050506040513d601f19601f820116820180604052508101906107d39190610ee0565b60405163a9059cbb60e01b8152336004820152602481018290529091506001600160a01b0383169063a9059cbb906044016020604051808303816000875af1158015610823573d6000803e3d6000fd5b505050506040513d601f19601f820116820180604052508101906108479190610ef9565b505050565b6033546001600160a01b03163314806108745750336000908152606a602052604090205460ff165b61087d57600080fd5b610885610d29565b600061088f61045c565b90506000808062093a806108a38142610f16565b6108ad9190610f38565b90506103e8841115610c0d576068546001600160a01b031615610a32576103e8606554856108db9190610f38565b6108e59190610f16565b60675460685460405163a9059cbb60e01b81526001600160a01b03918216600482015260248101849052929550169063a9059cbb906044016020604051808303816000875af115801561093c573d6000803e3d6000fd5b505050506040513d601f19601f820116820180604052508101906109609190610ef9565b50606860009054906101000a90046001600160a01b03166001600160a01b031663d294f0936040518163ffffffff1660e01b8152600401600060405180830381600087803b1580156109b157600080fd5b505af11580156109c5573d6000803e3d6000fd5b50505050606860009054906101000a90046001600160a01b03166001600160a01b0316638119c0656040518163ffffffff1660e01b8152600401600060405180830381600087803b158015610a1957600080fd5b505af1158015610a2d573d6000803e3d6000fd5b505050505b6069546001600160a01b031615610bcd576103e860665485610a549190610f38565b610a5e9190610f16565b915081610a6961045c565b1015610a7a57610a7761045c565b91505b60675460695460405163095ea7b360e01b81526001600160a01b0391821660048201526000602482015291169063095ea7b3906044016020604051808303816000875af1158015610acf573d6000803e3d6000fd5b505050506040513d601f19601f82011682018060405250810190610af39190610ef9565b5060675460695460405163095ea7b360e01b81526001600160a01b0391821660048201526024810185905291169063095ea7b3906044016020604051808303816000875af1158015610b49573d6000803e3d6000fd5b505050506040513d601f19601f82011682018060405250810190610b6d9190610ef9565b5060695460405163b6b55f2560e01b8152600481018490526001600160a01b039091169063b6b55f2590602401600060405180830381600087803b158015610bb457600080fd5b505af1158015610bc8573d6000803e3d6000fd5b505050505b604080518481526020810184905282917fcf0974dfd867840133a0d4b02f1672f24017796fb8892d1e0d587692e4da90ab910160405180910390a2610662565b604080516000808252602082015282917fcf0974dfd867840133a0d4b02f1672f24017796fb8892d1e0d587692e4da90ab910160405180910390a250505050565b6033546001600160a01b0316331461045a5760405162461bcd60e51b815260206004820181905260248201527f4f776e61626c653a2063616c6c6572206973206e6f7420746865206f776e657260448201526064016103f7565b603380546001600160a01b038381166001600160a01b0319831681179093556040519116919082907f8be0079c531659141344cd1fd0a4f28419497f9722a3daafe3b4186f6b6457e090600090a35050565b600054610100900460ff16610d215760405162461bcd60e51b81526004016103f790610f57565b61045a610d9a565b471561045a57606760009054906101000a90046001600160a01b03166001600160a01b031663d0e30db0476040518263ffffffff1660e01b81526004016000604051808303818588803b158015610d7f57600080fd5b505af1158015610d93573d6000803e3d6000fd5b5050505050565b600054610100900460ff16610dc15760405162461bcd60e51b81526004016103f790610f57565b61045a33610ca8565b60008060408385031215610ddd57600080fd5b50508035926020909101359150565b80356001600160a01b0381168114610e0357600080fd5b919050565b600060208284031215610e1a57600080fd5b610e2382610dec565b9392505050565b600080600060608486031215610e3f57600080fd5b610e4884610dec565b9250610e5660208501610dec565b9150610e6460408501610dec565b90509250925092565b801515811461074a57600080fd5b60008060408385031215610e8e57600080fd5b610e9783610dec565b91506020830135610ea781610e6d565b809150509250929050565b634e487b7160e01b600052601160045260246000fd5b60008219821115610edb57610edb610eb2565b500190565b600060208284031215610ef257600080fd5b5051919050565b600060208284031215610f0b57600080fd5b8151610e2381610e6d565b600082610f3357634e487b7160e01b600052601260045260246000fd5b500490565b6000816000190483118215151615610f5257610f52610eb2565b500290565b6020808252602b908201527f496e697469616c697a61626c653a20636f6e7472616374206973206e6f74206960408201526a6e697469616c697a696e6760a81b60608201526080019056fea2646970667358221220eca634117905dc8a9afbaddcae57a6e88c161a0796752c356aac130dfbdb660764736f6c634300080d0033",
  "linkReferences": {},
  "deployedLinkReferences": {}
}