{
	"contracts/NFTSalesSplitter.sol": {
		"NFTSalesSplitter": {
			"abi": [
				{
					"inputs": [],
					"stateMutability": "nonpayable",
					"type": "constructor"
				},
				{
					"anonymous": false,
					"inputs": [
						{
							"indexed": false,
							"internalType": "uint8",
							"name": "version",
							"type": "uint8"
						}
					],
					"name": "Initialized",
					"type": "event"
				},
				{
					"anonymous": false,
					"inputs": [
						{
							"indexed": true,
							"internalType": "address",
							"name": "previousOwner",
							"type": "address"
						},
						{
							"indexed": true,
							"internalType": "address",
							"name": "newOwner",
							"type": "address"
						}
					],
					"name": "OwnershipTransferred",
					"type": "event"
				},
				{
					"anonymous": false,
					"inputs": [
						{
							"indexed": true,
							"internalType": "uint256",
							"name": "timestamp",
							"type": "uint256"
						},
						{
							"indexed": false,
							"internalType": "uint256",
							"name": "toStake",
							"type": "uint256"
						},
						{
							"indexed": false,
							"internalType": "uint256",
							"name": "toRoyalties",
							"type": "uint256"
						}
					],
					"name": "Split",
					"type": "event"
				},
				{
					"inputs": [],
					"name": "PRECISION",
					"outputs": [
						{
							"internalType": "uint256",
							"name": "",
							"type": "uint256"
						}
					],
					"stateMutability": "view",
					"type": "function"
				},
				{
					"inputs": [],
					"name": "WEEK",
					"outputs": [
						{
							"internalType": "uint256",
							"name": "",
							"type": "uint256"
						}
					],
					"stateMutability": "view",
					"type": "function"
				},
				{
					"inputs": [],
					"name": "balanceOf",
					"outputs": [
						{
							"internalType": "uint256",
							"name": "",
							"type": "uint256"
						}
					],
					"stateMutability": "view",
					"type": "function"
				},
				{
					"inputs": [],
					"name": "converterFee",
					"outputs": [
						{
							"internalType": "uint256",
							"name": "",
							"type": "uint256"
						}
					],
					"stateMutability": "view",
					"type": "function"
				},
				{
					"inputs": [
						{
							"internalType": "address",
							"name": "_wbnb",
							"type": "address"
						},
						{
							"internalType": "address",
							"name": "_stakingConverter",
							"type": "address"
						},
						{
							"internalType": "address",
							"name": "_royalties",
							"type": "address"
						}
					],
					"name": "initialize",
					"outputs": [],
					"stateMutability": "nonpayable",
					"type": "function"
				},
				{
					"inputs": [],
					"name": "owner",
					"outputs": [
						{
							"internalType": "address",
							"name": "",
							"type": "address"
						}
					],
					"stateMutability": "view",
					"type": "function"
				},
				{
					"inputs": [],
					"name": "renounceOwnership",
					"outputs": [],
					"stateMutability": "nonpayable",
					"type": "function"
				},
				{
					"inputs": [],
					"name": "royalties",
					"outputs": [
						{
							"internalType": "address",
							"name": "",
							"type": "address"
						}
					],
					"stateMutability": "view",
					"type": "function"
				},
				{
					"inputs": [],
					"name": "royaltiesFee",
					"outputs": [
						{
							"internalType": "uint256",
							"name": "",
							"type": "uint256"
						}
					],
					"stateMutability": "view",
					"type": "function"
				},
				{
					"inputs": [
						{
							"internalType": "address",
							"name": "_converter",
							"type": "address"
						}
					],
					"name": "setConverter",
					"outputs": [],
					"stateMutability": "nonpayable",
					"type": "function"
				},
				{
					"inputs": [
						{
							"internalType": "uint256",
							"name": "_amountToStaking",
							"type": "uint256"
						},
						{
							"internalType": "uint256",
							"name": "_amountToRoyalties",
							"type": "uint256"
						}
					],
					"name": "setFees",
					"outputs": [],
					"stateMutability": "nonpayable",
					"type": "function"
				},
				{
					"inputs": [
						{
							"internalType": "address",
							"name": "_royal",
							"type": "address"
						}
					],
					"name": "setRoyalties",
					"outputs": [],
					"stateMutability": "nonpayable",
					"type": "function"
				},
				{
					"inputs": [
						{
							"internalType": "address",
							"name": "_splitter",
							"type": "address"
						},
						{
							"internalType": "bool",
							"name": "_what",
							"type": "bool"
						}
					],
					"name": "setSplitter",
					"outputs": [],
					"stateMutability": "nonpayable",
					"type": "function"
				},
				{
					"inputs": [],
					"name": "split",
					"outputs": [],
					"stateMutability": "nonpayable",
					"type": "function"
				},
				{
					"inputs": [
						{
							"internalType": "address",
							"name": "",
							"type": "address"
						}
					],
					"name": "splitter",
					"outputs": [
						{
							"internalType": "bool",
							"name": "",
							"type": "bool"
						}
					],
					"stateMutability": "view",
					"type": "function"
				},
				{
					"inputs": [],
					"name": "stakingConverter",
					"outputs": [
						{
							"internalType": "address",
							"name": "",
							"type": "address"
						}
					],
					"stateMutability": "view",
					"type": "function"
				},
				{
					"inputs": [],
					"name": "swapWBNBToBNB",
					"outputs": [],
					"stateMutability": "nonpayable",
					"type": "function"
				},
				{
					"inputs": [
						{
							"internalType": "address",
							"name": "newOwner",
							"type": "address"
						}
					],
					"name": "transferOwnership",
					"outputs": [],
					"stateMutability": "nonpayable",
					"type": "function"
				},
				{
					"inputs": [],
					"name": "wbnb",
					"outputs": [
						{
							"internalType": "address",
							"name": "",
							"type": "address"
						}
					],
					"stateMutability": "view",
					"type": "function"
				},
				{
					"inputs": [
						{
							"internalType": "address",
							"name": "_token",
							"type": "address"
						}
					],
					"name": "withdrawERC20",
					"outputs": [],
					"stateMutability": "nonpayable",
					"type": "function"
				},
				{
					"stateMutability": "payable",
					"type": "receive"
				}
			],
			"devdoc": {
				"kind": "dev",
				"methods": {
					"owner()": {
						"details": "Returns the address of the current owner."
					},
					"renounceOwnership()": {
						"details": "Leaves the contract without owner. It will not be possible to call `onlyOwner` functions anymore. Can only be called by the current owner. NOTE: Renouncing ownership will leave the contract without an owner, thereby removing any functionality that is only available to the owner."
					},
					"transferOwnership(address)": {
						"details": "Transfers ownership of the contract to a new account (`newOwner`). Can only be called by the current owner."
					}
				},
				"version": 1
			},
			"evm": {
				"assembly": "    /* \"contracts/NFTSalesSplitter.sol\":458:4203  contract NFTSalesSplitter is OwnableUpgradeable  {... */\n  mstore(0x40, 0x80)\n    /* \"contracts/NFTSalesSplitter.sol\":1023:1039  constructor() {} */\n  callvalue\n  dup1\n  iszero\n  tag_1\n  jumpi\n  0x00\n  dup1\n  revert\ntag_1:\n  pop\n    /* \"contracts/NFTSalesSplitter.sol\":458:4203  contract NFTSalesSplitter is OwnableUpgradeable  {... */\n  dataSize(sub_0)\n  dup1\n  dataOffset(sub_0)\n  0x00\n  codecopy\n  0x00\n  return\nstop\n\nsub_0: assembly {\n        /* \"contracts/NFTSalesSplitter.sol\":458:4203  contract NFTSalesSplitter is OwnableUpgradeable  {... */\n      mstore(0x40, 0x80)\n      jumpi(tag_1, lt(calldatasize, 0x04))\n      shr(0xe0, calldataload(0x00))\n      dup1\n      0xc0c53b8b\n      gt\n      tag_23\n      jumpi\n      dup1\n      0xf053dc5c\n      gt\n      tag_24\n      jumpi\n      dup1\n      0xf053dc5c\n      eq\n      tag_18\n      jumpi\n      dup1\n      0xf2fde38b\n      eq\n      tag_19\n      jumpi\n      dup1\n      0xf4359ce5\n      eq\n      tag_20\n      jumpi\n      dup1\n      0xf4f3b200\n      eq\n      tag_21\n      jumpi\n      dup1\n      0xf7654176\n      eq\n      tag_22\n      jumpi\n      jump(tag_2)\n    tag_24:\n      dup1\n      0xc0c53b8b\n      eq\n      tag_13\n      jumpi\n      dup1\n      0xce08baa7\n      eq\n      tag_14\n      jumpi\n      dup1\n      0xd3ce9ab3\n      eq\n      tag_15\n      jumpi\n      dup1\n      0xde3b8b12\n      eq\n      tag_16\n      jumpi\n      dup1\n      0xde74d499\n      eq\n      tag_17\n      jumpi\n      jump(tag_2)\n    tag_23:\n      dup1\n      0x8d72647e\n      gt\n      tag_25\n      jumpi\n      dup1\n      0x8d72647e\n      eq\n      tag_8\n      jumpi\n      dup1\n      0x8da5cb5b\n      eq\n      tag_9\n      jumpi\n      dup1\n      0x99093a33\n      eq\n      tag_10\n      jumpi\n      dup1\n      0xaaf5eb68\n      eq\n      tag_11\n      jumpi\n      dup1\n      0xb19337a4\n      eq\n      tag_12\n      jumpi\n      jump(tag_2)\n    tag_25:\n      dup1\n      0x0b78f9c0\n      eq\n      tag_3\n      jumpi\n      dup1\n      0x2a9e63c6\n      eq\n      tag_4\n      jumpi\n      dup1\n      0x351ad5e8\n      eq\n      tag_5\n      jumpi\n      dup1\n      0x715018a6\n      eq\n      tag_6\n      jumpi\n      dup1\n      0x722713f7\n      eq\n      tag_7\n      jumpi\n      jump(tag_2)\n    tag_1:\n      jumpi(tag_2, calldatasize)\n      stop\n    tag_2:\n      0x00\n      dup1\n      revert\n        /* \"contracts/NFTSalesSplitter.sol\":3912:4165  function setFees(uint256 _amountToStaking, uint256 _amountToRoyalties ) external onlyOwner {... */\n    tag_3:\n      callvalue\n      dup1\n      iszero\n      tag_28\n      jumpi\n      0x00\n      dup1\n      revert\n    tag_28:\n      pop\n      tag_29\n      0x04\n      dup1\n      calldatasize\n      sub\n      dup2\n      add\n      swap1\n      tag_30\n      swap2\n      swap1\n      tag_31\n      jump\t// in\n    tag_30:\n      tag_32\n      jump\t// in\n    tag_29:\n      stop\n        /* \"contracts/NFTSalesSplitter.sol\":3376:3507  function setRoyalties(address _royal) external onlyOwner {... */\n    tag_4:\n      callvalue\n      dup1\n      iszero\n      tag_33\n      jumpi\n      0x00\n      dup1\n      revert\n    tag_33:\n      pop\n      tag_34\n      0x04\n      dup1\n      calldatasize\n      sub\n      dup2\n      add\n      swap1\n      tag_35\n      swap2\n      swap1\n      tag_36\n      jump\t// in\n    tag_35:\n      tag_37\n      jump\t// in\n    tag_34:\n      stop\n        /* \"contracts/NFTSalesSplitter.sol\":777:817  mapping(address => bool) public splitter */\n    tag_5:\n      callvalue\n      dup1\n      iszero\n      tag_38\n      jumpi\n      0x00\n      dup1\n      revert\n    tag_38:\n      pop\n      tag_39\n      0x04\n      dup1\n      calldatasize\n      sub\n      dup2\n      add\n      swap1\n      tag_40\n      swap2\n      swap1\n      tag_36\n      jump\t// in\n    tag_40:\n      tag_41\n      jump\t// in\n    tag_39:\n      mload(0x40)\n      tag_42\n      swap2\n      swap1\n      tag_43\n      jump\t// in\n    tag_42:\n      mload(0x40)\n      dup1\n      swap2\n      sub\n      swap1\n      return\n        /* \"@openzeppelin/contracts-upgradeable/access/OwnableUpgradeable.sol\":2071:2172  function renounceOwnership() public virtual onlyOwner {... */\n    tag_6:\n      callvalue\n      dup1\n      iszero\n      tag_44\n      jumpi\n      0x00\n      dup1\n      revert\n    tag_44:\n      pop\n      tag_45\n      tag_46\n      jump\t// in\n    tag_45:\n      stop\n        /* \"contracts/NFTSalesSplitter.sol\":3107:3214  function balanceOf() public view returns(uint){... */\n    tag_7:\n      callvalue\n      dup1\n      iszero\n      tag_47\n      jumpi\n      0x00\n      dup1\n      revert\n    tag_47:\n      pop\n      tag_48\n      tag_49\n      jump\t// in\n    tag_48:\n      mload(0x40)\n      tag_50\n      swap2\n      swap1\n      tag_51\n      jump\t// in\n    tag_50:\n      mload(0x40)\n      dup1\n      swap2\n      sub\n      swap1\n      return\n        /* \"contracts/NFTSalesSplitter.sol\":678:697  address public wbnb */\n    tag_8:\n      callvalue\n      dup1\n      iszero\n      tag_52\n      jumpi\n      0x00\n      dup1\n      revert\n    tag_52:\n      pop\n      tag_53\n      tag_54\n      jump\t// in\n    tag_53:\n      mload(0x40)\n      tag_55\n      swap2\n      swap1\n      tag_56\n      jump\t// in\n    tag_55:\n      mload(0x40)\n      dup1\n      swap2\n      sub\n      swap1\n      return\n        /* \"@openzeppelin/contracts-upgradeable/access/OwnableUpgradeable.sol\":1441:1526  function owner() public view virtual returns (address) {... */\n    tag_9:\n      callvalue\n      dup1\n      iszero\n      tag_57\n      jumpi\n      0x00\n      dup1\n      revert\n    tag_57:\n      pop\n      tag_58\n      tag_59\n      jump\t// in\n    tag_58:\n      mload(0x40)\n      tag_60\n      swap2\n      swap1\n      tag_56\n      jump\t// in\n    tag_60:\n      mload(0x40)\n      dup1\n      swap2\n      sub\n      swap1\n      return\n        /* \"contracts/NFTSalesSplitter.sol\":639:666  uint256 public royaltiesFee */\n    tag_10:\n      callvalue\n      dup1\n      iszero\n      tag_61\n      jumpi\n      0x00\n      dup1\n      revert\n    tag_61:\n      pop\n      tag_62\n      tag_63\n      jump\t// in\n    tag_62:\n      mload(0x40)\n      tag_64\n      swap2\n      swap1\n      tag_51\n      jump\t// in\n    tag_64:\n      mload(0x40)\n      dup1\n      swap2\n      sub\n      swap1\n      return\n        /* \"contracts/NFTSalesSplitter.sol\":514:554  uint256 constant public PRECISION = 1000 */\n    tag_11:\n      callvalue\n      dup1\n      iszero\n      tag_65\n      jumpi\n      0x00\n      dup1\n      revert\n    tag_65:\n      pop\n      tag_66\n      tag_67\n      jump\t// in\n    tag_66:\n      mload(0x40)\n      tag_68\n      swap2\n      swap1\n      tag_51\n      jump\t// in\n    tag_68:\n      mload(0x40)\n      dup1\n      swap2\n      sub\n      swap1\n      return\n        /* \"contracts/NFTSalesSplitter.sol\":3220:3370  function setConverter(address _converter) external onlyOwner {... */\n    tag_12:\n      callvalue\n      dup1\n      iszero\n      tag_69\n      jumpi\n      0x00\n      dup1\n      revert\n    tag_69:\n      pop\n      tag_70\n      0x04\n      dup1\n      calldatasize\n      sub\n      dup2\n      add\n      swap1\n      tag_71\n      swap2\n      swap1\n      tag_36\n      jump\t// in\n    tag_71:\n      tag_72\n      jump\t// in\n    tag_70:\n      stop\n        /* \"contracts/NFTSalesSplitter.sol\":1045:1563  function initialize(address _wbnb, address _stakingConverter, address _royalties) initializer  public {... */\n    tag_13:\n      callvalue\n      dup1\n      iszero\n      tag_73\n      jumpi\n      0x00\n      dup1\n      revert\n    tag_73:\n      pop\n      tag_74\n      0x04\n      dup1\n      calldatasize\n      sub\n      dup2\n      add\n      swap1\n      tag_75\n      swap2\n      swap1\n      tag_76\n      jump\t// in\n    tag_75:\n      tag_77\n      jump\t// in\n    tag_74:\n      stop\n        /* \"contracts/NFTSalesSplitter.sol\":708:739  address public stakingConverter */\n    tag_14:\n      callvalue\n      dup1\n      iszero\n      tag_78\n      jumpi\n      0x00\n      dup1\n      revert\n    tag_78:\n      pop\n      tag_79\n      tag_80\n      jump\t// in\n    tag_79:\n      mload(0x40)\n      tag_81\n      swap2\n      swap1\n      tag_56\n      jump\t// in\n    tag_81:\n      mload(0x40)\n      dup1\n      swap2\n      sub\n      swap1\n      return\n        /* \"contracts/NFTSalesSplitter.sol\":3513:3628  function setSplitter(address _splitter, bool _what) external onlyOwner {... */\n    tag_15:\n      callvalue\n      dup1\n      iszero\n      tag_82\n      jumpi\n      0x00\n      dup1\n      revert\n    tag_82:\n      pop\n      tag_83\n      0x04\n      dup1\n      calldatasize\n      sub\n      dup2\n      add\n      swap1\n      tag_84\n      swap2\n      swap1\n      tag_85\n      jump\t// in\n    tag_84:\n      tag_86\n      jump\t// in\n    tag_83:\n      stop\n        /* \"contracts/NFTSalesSplitter.sol\":1569:1646  function swapWBNBToBNB() public onlyAllowed {... */\n    tag_16:\n      callvalue\n      dup1\n      iszero\n      tag_87\n      jumpi\n      0x00\n      dup1\n      revert\n    tag_87:\n      pop\n      tag_88\n      tag_89\n      jump\t// in\n    tag_88:\n      stop\n        /* \"contracts/NFTSalesSplitter.sol\":606:633  uint256 public converterFee */\n    tag_17:\n      callvalue\n      dup1\n      iszero\n      tag_90\n      jumpi\n      0x00\n      dup1\n      revert\n    tag_90:\n      pop\n      tag_91\n      tag_92\n      jump\t// in\n    tag_91:\n      mload(0x40)\n      tag_93\n      swap2\n      swap1\n      tag_51\n      jump\t// in\n    tag_93:\n      mload(0x40)\n      dup1\n      swap2\n      sub\n      swap1\n      return\n        /* \"contracts/NFTSalesSplitter.sol\":745:769  address public royalties */\n    tag_18:\n      callvalue\n      dup1\n      iszero\n      tag_94\n      jumpi\n      0x00\n      dup1\n      revert\n    tag_94:\n      pop\n      tag_95\n      tag_96\n      jump\t// in\n    tag_95:\n      mload(0x40)\n      tag_97\n      swap2\n      swap1\n      tag_56\n      jump\t// in\n    tag_97:\n      mload(0x40)\n      dup1\n      swap2\n      sub\n      swap1\n      return\n        /* \"@openzeppelin/contracts-upgradeable/access/OwnableUpgradeable.sol\":2321:2519  function transferOwnership(address newOwner) public virtual onlyOwner {... */\n    tag_19:\n      callvalue\n      dup1\n      iszero\n      tag_98\n      jumpi\n      0x00\n      dup1\n      revert\n    tag_98:\n      pop\n      tag_99\n      0x04\n      dup1\n      calldatasize\n      sub\n      dup2\n      add\n      swap1\n      tag_100\n      swap2\n      swap1\n      tag_36\n      jump\t// in\n    tag_100:\n      tag_101\n      jump\t// in\n    tag_99:\n      stop\n        /* \"contracts/NFTSalesSplitter.sol\":560:600  uint256 constant public WEEK = 86400 * 7 */\n    tag_20:\n      callvalue\n      dup1\n      iszero\n      tag_102\n      jumpi\n      0x00\n      dup1\n      revert\n    tag_102:\n      pop\n      tag_103\n      tag_104\n      jump\t// in\n    tag_103:\n      mload(0x40)\n      tag_105\n      swap2\n      swap1\n      tag_51\n      jump\t// in\n    tag_105:\n      mload(0x40)\n      dup1\n      swap2\n      sub\n      swap1\n      return\n        /* \"contracts/NFTSalesSplitter.sol\":3679:3906  function withdrawERC20(address _token) external onlyOwner {... */\n    tag_21:\n      callvalue\n      dup1\n      iszero\n      tag_106\n      jumpi\n      0x00\n      dup1\n      revert\n    tag_106:\n      pop\n      tag_107\n      0x04\n      dup1\n      calldatasize\n      sub\n      dup2\n      add\n      swap1\n      tag_108\n      swap2\n      swap1\n      tag_36\n      jump\t// in\n    tag_108:\n      tag_109\n      jump\t// in\n    tag_107:\n      stop\n        /* \"contracts/NFTSalesSplitter.sol\":1814:3101  function split() public onlyAllowed {... */\n    tag_22:\n      callvalue\n      dup1\n      iszero\n      tag_110\n      jumpi\n      0x00\n      dup1\n      revert\n    tag_110:\n      pop\n      tag_111\n      tag_112\n      jump\t// in\n    tag_111:\n      stop\n        /* \"contracts/NFTSalesSplitter.sol\":3912:4165  function setFees(uint256 _amountToStaking, uint256 _amountToRoyalties ) external onlyOwner {... */\n    tag_32:\n        /* \"@openzeppelin/contracts-upgradeable/access/OwnableUpgradeable.sol\":1334:1347  _checkOwner() */\n      tag_114\n        /* \"@openzeppelin/contracts-upgradeable/access/OwnableUpgradeable.sol\":1334:1345  _checkOwner */\n      tag_115\n        /* \"@openzeppelin/contracts-upgradeable/access/OwnableUpgradeable.sol\":1334:1347  _checkOwner() */\n      jump\t// in\n    tag_114:\n        /* \"contracts/NFTSalesSplitter.sol\":550:554  1000 */\n      0x03e8\n        /* \"contracts/NFTSalesSplitter.sol\":4036:4048  royaltiesFee */\n      sload(0x66)\n        /* \"contracts/NFTSalesSplitter.sol\":4021:4033  converterFee */\n      sload(0x65)\n        /* \"contracts/NFTSalesSplitter.sol\":4021:4048  converterFee + royaltiesFee */\n      tag_117\n      swap2\n      swap1\n      tag_118\n      jump\t// in\n    tag_117:\n        /* \"contracts/NFTSalesSplitter.sol\":4021:4061  converterFee + royaltiesFee <= PRECISION */\n      gt\n      iszero\n        /* \"contracts/NFTSalesSplitter.sol\":4013:4074  require(converterFee + royaltiesFee <= PRECISION, 'too many') */\n      tag_119\n      jumpi\n      mload(0x40)\n      0x08c379a000000000000000000000000000000000000000000000000000000000\n      dup2\n      mstore\n      0x04\n      add\n      tag_120\n      swap1\n      tag_121\n      jump\t// in\n    tag_120:\n      mload(0x40)\n      dup1\n      swap2\n      sub\n      swap1\n      revert\n    tag_119:\n        /* \"contracts/NFTSalesSplitter.sol\":4099:4115  _amountToStaking */\n      dup2\n        /* \"contracts/NFTSalesSplitter.sol\":4084:4096  converterFee */\n      0x65\n        /* \"contracts/NFTSalesSplitter.sol\":4084:4115  converterFee = _amountToStaking */\n      dup2\n      swap1\n      sstore\n      pop\n        /* \"contracts/NFTSalesSplitter.sol\":4140:4158  _amountToRoyalties */\n      dup1\n        /* \"contracts/NFTSalesSplitter.sol\":4125:4137  royaltiesFee */\n      0x66\n        /* \"contracts/NFTSalesSplitter.sol\":4125:4158  royaltiesFee = _amountToRoyalties */\n      dup2\n      swap1\n      sstore\n      pop\n        /* \"contracts/NFTSalesSplitter.sol\":3912:4165  function setFees(uint256 _amountToStaking, uint256 _amountToRoyalties ) external onlyOwner {... */\n      pop\n      pop\n      jump\t// out\n        /* \"contracts/NFTSalesSplitter.sol\":3376:3507  function setRoyalties(address _royal) external onlyOwner {... */\n    tag_37:\n        /* \"@openzeppelin/contracts-upgradeable/access/OwnableUpgradeable.sol\":1334:1347  _checkOwner() */\n      tag_123\n        /* \"@openzeppelin/contracts-upgradeable/access/OwnableUpgradeable.sol\":1334:1345  _checkOwner */\n      tag_115\n        /* \"@openzeppelin/contracts-upgradeable/access/OwnableUpgradeable.sol\":1334:1347  _checkOwner() */\n      jump\t// in\n    tag_123:\n        /* \"contracts/NFTSalesSplitter.sol\":3469:3470  0 */\n      0x00\n        /* \"contracts/NFTSalesSplitter.sol\":3451:3471  _royal != address(0) */\n      0xffffffffffffffffffffffffffffffffffffffff\n      and\n        /* \"contracts/NFTSalesSplitter.sol\":3451:3457  _royal */\n      dup2\n        /* \"contracts/NFTSalesSplitter.sol\":3451:3471  _royal != address(0) */\n      0xffffffffffffffffffffffffffffffffffffffff\n      and\n      sub\n        /* \"contracts/NFTSalesSplitter.sol\":3443:3472  require(_royal != address(0)) */\n      tag_125\n      jumpi\n      0x00\n      dup1\n      revert\n    tag_125:\n        /* \"contracts/NFTSalesSplitter.sol\":3494:3500  _royal */\n      dup1\n        /* \"contracts/NFTSalesSplitter.sol\":3482:3491  royalties */\n      0x69\n      0x00\n        /* \"contracts/NFTSalesSplitter.sol\":3482:3500  royalties = _royal */\n      0x0100\n      exp\n      dup2\n      sload\n      dup2\n      0xffffffffffffffffffffffffffffffffffffffff\n      mul\n      not\n      and\n      swap1\n      dup4\n      0xffffffffffffffffffffffffffffffffffffffff\n      and\n      mul\n      or\n      swap1\n      sstore\n      pop\n        /* \"contracts/NFTSalesSplitter.sol\":3376:3507  function setRoyalties(address _royal) external onlyOwner {... */\n      pop\n      jump\t// out\n        /* \"contracts/NFTSalesSplitter.sol\":777:817  mapping(address => bool) public splitter */\n    tag_41:\n      mstore(0x20, 0x6a)\n      dup1\n      0x00\n      mstore\n      keccak256(0x00, 0x40)\n      0x00\n      swap2\n      pop\n      sload\n      swap1\n      0x0100\n      exp\n      swap1\n      div\n      0xff\n      and\n      dup2\n      jump\t// out\n        /* \"@openzeppelin/contracts-upgradeable/access/OwnableUpgradeable.sol\":2071:2172  function renounceOwnership() public virtual onlyOwner {... */\n    tag_46:\n        /* \"@openzeppelin/contracts-upgradeable/access/OwnableUpgradeable.sol\":1334:1347  _checkOwner() */\n      tag_127\n        /* \"@openzeppelin/contracts-upgradeable/access/OwnableUpgradeable.sol\":1334:1345  _checkOwner */\n      tag_115\n        /* \"@openzeppelin/contracts-upgradeable/access/OwnableUpgradeable.sol\":1334:1347  _checkOwner() */\n      jump\t// in\n    tag_127:\n        /* \"@openzeppelin/contracts-upgradeable/access/OwnableUpgradeable.sol\":2135:2165  _transferOwnership(address(0)) */\n      tag_129\n        /* \"@openzeppelin/contracts-upgradeable/access/OwnableUpgradeable.sol\":2162:2163  0 */\n      0x00\n        /* \"@openzeppelin/contracts-upgradeable/access/OwnableUpgradeable.sol\":2135:2153  _transferOwnership */\n      tag_130\n        /* \"@openzeppelin/contracts-upgradeable/access/OwnableUpgradeable.sol\":2135:2165  _transferOwnership(address(0)) */\n      jump\t// in\n    tag_129:\n        /* \"@openzeppelin/contracts-upgradeable/access/OwnableUpgradeable.sol\":2071:2172  function renounceOwnership() public virtual onlyOwner {... */\n      jump\t// out\n        /* \"contracts/NFTSalesSplitter.sol\":3107:3214  function balanceOf() public view returns(uint){... */\n    tag_49:\n        /* \"contracts/NFTSalesSplitter.sol\":3148:3152  uint */\n      0x00\n        /* \"contracts/NFTSalesSplitter.sol\":3177:3181  wbnb */\n      0x67\n      0x00\n      swap1\n      sload\n      swap1\n      0x0100\n      exp\n      swap1\n      div\n      0xffffffffffffffffffffffffffffffffffffffff\n      and\n        /* \"contracts/NFTSalesSplitter.sol\":3170:3192  IERC20(wbnb).balanceOf */\n      0xffffffffffffffffffffffffffffffffffffffff\n      and\n      0x70a08231\n        /* \"contracts/NFTSalesSplitter.sol\":3201:3205  this */\n      address\n        /* \"contracts/NFTSalesSplitter.sol\":3170:3207  IERC20(wbnb).balanceOf(address(this)) */\n      mload(0x40)\n      dup3\n      0xffffffff\n      and\n      0xe0\n      shl\n      dup2\n      mstore\n      0x04\n      add\n      tag_132\n      swap2\n      swap1\n      tag_56\n      jump\t// in\n    tag_132:\n      0x20\n      mload(0x40)\n      dup1\n      dup4\n      sub\n      dup2\n      dup7\n      gas\n      staticcall\n      iszero\n      dup1\n      iszero\n      tag_134\n      jumpi\n      returndatasize\n      0x00\n      dup1\n      returndatacopy\n      revert(0x00, returndatasize)\n    tag_134:\n      pop\n      pop\n      pop\n      pop\n      mload(0x40)\n      returndatasize\n      not(0x1f)\n      0x1f\n      dup3\n      add\n      and\n      dup3\n      add\n      dup1\n      0x40\n      mstore\n      pop\n      dup2\n      add\n      swap1\n      tag_135\n      swap2\n      swap1\n      tag_136\n      jump\t// in\n    tag_135:\n        /* \"contracts/NFTSalesSplitter.sol\":3163:3207  return IERC20(wbnb).balanceOf(address(this)) */\n      swap1\n      pop\n        /* \"contracts/NFTSalesSplitter.sol\":3107:3214  function balanceOf() public view returns(uint){... */\n      swap1\n      jump\t// out\n        /* \"contracts/NFTSalesSplitter.sol\":678:697  address public wbnb */\n    tag_54:\n      0x67\n      0x00\n      swap1\n      sload\n      swap1\n      0x0100\n      exp\n      swap1\n      div\n      0xffffffffffffffffffffffffffffffffffffffff\n      and\n      dup2\n      jump\t// out\n        /* \"@openzeppelin/contracts-upgradeable/access/OwnableUpgradeable.sol\":1441:1526  function owner() public view virtual returns (address) {... */\n    tag_59:\n        /* \"@openzeppelin/contracts-upgradeable/access/OwnableUpgradeable.sol\":1487:1494  address */\n      0x00\n        /* \"@openzeppelin/contracts-upgradeable/access/OwnableUpgradeable.sol\":1513:1519  _owner */\n      0x33\n      0x00\n      swap1\n      sload\n      swap1\n      0x0100\n      exp\n      swap1\n      div\n      0xffffffffffffffffffffffffffffffffffffffff\n      and\n        /* \"@openzeppelin/contracts-upgradeable/access/OwnableUpgradeable.sol\":1506:1519  return _owner */\n      swap1\n      pop\n        /* \"@openzeppelin/contracts-upgradeable/access/OwnableUpgradeable.sol\":1441:1526  function owner() public view virtual returns (address) {... */\n      swap1\n      jump\t// out\n        /* \"contracts/NFTSalesSplitter.sol\":639:666  uint256 public royaltiesFee */\n    tag_63:\n      sload(0x66)\n      dup2\n      jump\t// out\n        /* \"contracts/NFTSalesSplitter.sol\":514:554  uint256 constant public PRECISION = 1000 */\n    tag_67:\n        /* \"contracts/NFTSalesSplitter.sol\":550:554  1000 */\n      0x03e8\n        /* \"contracts/NFTSalesSplitter.sol\":514:554  uint256 constant public PRECISION = 1000 */\n      dup2\n      jump\t// out\n        /* \"contracts/NFTSalesSplitter.sol\":3220:3370  function setConverter(address _converter) external onlyOwner {... */\n    tag_72:\n        /* \"@openzeppelin/contracts-upgradeable/access/OwnableUpgradeable.sol\":1334:1347  _checkOwner() */\n      tag_139\n        /* \"@openzeppelin/contracts-upgradeable/access/OwnableUpgradeable.sol\":1334:1345  _checkOwner */\n      tag_115\n        /* \"@openzeppelin/contracts-upgradeable/access/OwnableUpgradeable.sol\":1334:1347  _checkOwner() */\n      jump\t// in\n    tag_139:\n        /* \"contracts/NFTSalesSplitter.sol\":3321:3322  0 */\n      0x00\n        /* \"contracts/NFTSalesSplitter.sol\":3299:3323  _converter != address(0) */\n      0xffffffffffffffffffffffffffffffffffffffff\n      and\n        /* \"contracts/NFTSalesSplitter.sol\":3299:3309  _converter */\n      dup2\n        /* \"contracts/NFTSalesSplitter.sol\":3299:3323  _converter != address(0) */\n      0xffffffffffffffffffffffffffffffffffffffff\n      and\n      sub\n        /* \"contracts/NFTSalesSplitter.sol\":3291:3324  require(_converter != address(0)) */\n      tag_141\n      jumpi\n      0x00\n      dup1\n      revert\n    tag_141:\n        /* \"contracts/NFTSalesSplitter.sol\":3353:3363  _converter */\n      dup1\n        /* \"contracts/NFTSalesSplitter.sol\":3334:3350  stakingConverter */\n      0x68\n      0x00\n        /* \"contracts/NFTSalesSplitter.sol\":3334:3363  stakingConverter = _converter */\n      0x0100\n      exp\n      dup2\n      sload\n      dup2\n      0xffffffffffffffffffffffffffffffffffffffff\n      mul\n      not\n      and\n      swap1\n      dup4\n      0xffffffffffffffffffffffffffffffffffffffff\n      and\n      mul\n      or\n      swap1\n      sstore\n      pop\n        /* \"contracts/NFTSalesSplitter.sol\":3220:3370  function setConverter(address _converter) external onlyOwner {... */\n      pop\n      jump\t// out\n        /* \"contracts/NFTSalesSplitter.sol\":1045:1563  function initialize(address _wbnb, address _stakingConverter, address _royalties) initializer  public {... */\n    tag_77:\n        /* \"@openzeppelin/contracts-upgradeable/proxy/utils/Initializable.sol\":3268:3287  bool isTopLevelCall */\n      0x00\n        /* \"@openzeppelin/contracts-upgradeable/proxy/utils/Initializable.sol\":3291:3304  _initializing */\n      dup1\n      0x01\n      swap1\n      sload\n      swap1\n      0x0100\n      exp\n      swap1\n      div\n      0xff\n      and\n        /* \"@openzeppelin/contracts-upgradeable/proxy/utils/Initializable.sol\":3290:3304  !_initializing */\n      iszero\n        /* \"@openzeppelin/contracts-upgradeable/proxy/utils/Initializable.sol\":3268:3304  bool isTopLevelCall = !_initializing */\n      swap1\n      pop\n        /* \"@openzeppelin/contracts-upgradeable/proxy/utils/Initializable.sol\":3336:3350  isTopLevelCall */\n      dup1\n        /* \"@openzeppelin/contracts-upgradeable/proxy/utils/Initializable.sol\":3336:3370  isTopLevelCall && _initialized < 1 */\n      dup1\n      iszero\n      tag_143\n      jumpi\n      pop\n        /* \"@openzeppelin/contracts-upgradeable/proxy/utils/Initializable.sol\":3369:3370  1 */\n      0x01\n        /* \"@openzeppelin/contracts-upgradeable/proxy/utils/Initializable.sol\":3354:3366  _initialized */\n      0x00\n      dup1\n      sload\n      swap1\n      0x0100\n      exp\n      swap1\n      div\n      0xff\n      and\n        /* \"@openzeppelin/contracts-upgradeable/proxy/utils/Initializable.sol\":3354:3370  _initialized < 1 */\n      0xff\n      and\n      lt\n        /* \"@openzeppelin/contracts-upgradeable/proxy/utils/Initializable.sol\":3336:3370  isTopLevelCall && _initialized < 1 */\n    tag_143:\n        /* \"@openzeppelin/contracts-upgradeable/proxy/utils/Initializable.sol\":3335:3443  (isTopLevelCall && _initialized < 1) || (!AddressUpgradeable.isContract(address(this)) && _initialized == 1) */\n      dup1\n      tag_144\n      jumpi\n      pop\n        /* \"@openzeppelin/contracts-upgradeable/proxy/utils/Initializable.sol\":3377:3421  AddressUpgradeable.isContract(address(this)) */\n      tag_145\n        /* \"@openzeppelin/contracts-upgradeable/proxy/utils/Initializable.sol\":3415:3419  this */\n      address\n        /* \"@openzeppelin/contracts-upgradeable/proxy/utils/Initializable.sol\":3377:3406  AddressUpgradeable.isContract */\n      tag_146\n        /* \"@openzeppelin/contracts-upgradeable/proxy/utils/Initializable.sol\":3377:3421  AddressUpgradeable.isContract(address(this)) */\n      jump\t// in\n    tag_145:\n        /* \"@openzeppelin/contracts-upgradeable/proxy/utils/Initializable.sol\":3376:3421  !AddressUpgradeable.isContract(address(this)) */\n      iszero\n        /* \"@openzeppelin/contracts-upgradeable/proxy/utils/Initializable.sol\":3376:3442  !AddressUpgradeable.isContract(address(this)) && _initialized == 1 */\n      dup1\n      iszero\n      tag_147\n      jumpi\n      pop\n        /* \"@openzeppelin/contracts-upgradeable/proxy/utils/Initializable.sol\":3441:3442  1 */\n      0x01\n        /* \"@openzeppelin/contracts-upgradeable/proxy/utils/Initializable.sol\":3425:3437  _initialized */\n      0x00\n      dup1\n      sload\n      swap1\n      0x0100\n      exp\n      swap1\n      div\n      0xff\n      and\n        /* \"@openzeppelin/contracts-upgradeable/proxy/utils/Initializable.sol\":3425:3442  _initialized == 1 */\n      0xff\n      and\n      eq\n        /* \"@openzeppelin/contracts-upgradeable/proxy/utils/Initializable.sol\":3376:3442  !AddressUpgradeable.isContract(address(this)) && _initialized == 1 */\n    tag_147:\n        /* \"@openzeppelin/contracts-upgradeable/proxy/utils/Initializable.sol\":3335:3443  (isTopLevelCall && _initialized < 1) || (!AddressUpgradeable.isContract(address(this)) && _initialized == 1) */\n    tag_144:\n        /* \"@openzeppelin/contracts-upgradeable/proxy/utils/Initializable.sol\":3314:3515  require(... */\n      tag_148\n      jumpi\n      mload(0x40)\n      0x08c379a000000000000000000000000000000000000000000000000000000000\n      dup2\n      mstore\n      0x04\n      add\n      tag_149\n      swap1\n      tag_150\n      jump\t// in\n    tag_149:\n      mload(0x40)\n      dup1\n      swap2\n      sub\n      swap1\n      revert\n    tag_148:\n        /* \"@openzeppelin/contracts-upgradeable/proxy/utils/Initializable.sol\":3540:3541  1 */\n      0x01\n        /* \"@openzeppelin/contracts-upgradeable/proxy/utils/Initializable.sol\":3525:3537  _initialized */\n      0x00\n      dup1\n        /* \"@openzeppelin/contracts-upgradeable/proxy/utils/Initializable.sol\":3525:3541  _initialized = 1 */\n      0x0100\n      exp\n      dup2\n      sload\n      dup2\n      0xff\n      mul\n      not\n      and\n      swap1\n      dup4\n      0xff\n      and\n      mul\n      or\n      swap1\n      sstore\n      pop\n        /* \"@openzeppelin/contracts-upgradeable/proxy/utils/Initializable.sol\":3555:3569  isTopLevelCall */\n      dup1\n        /* \"@openzeppelin/contracts-upgradeable/proxy/utils/Initializable.sol\":3551:3616  if (isTopLevelCall) {... */\n      iszero\n      tag_151\n      jumpi\n        /* \"@openzeppelin/contracts-upgradeable/proxy/utils/Initializable.sol\":3601:3605  true */\n      0x01\n        /* \"@openzeppelin/contracts-upgradeable/proxy/utils/Initializable.sol\":3585:3598  _initializing */\n      0x00\n      0x01\n        /* \"@openzeppelin/contracts-upgradeable/proxy/utils/Initializable.sol\":3585:3605  _initializing = true */\n      0x0100\n      exp\n      dup2\n      sload\n      dup2\n      0xff\n      mul\n      not\n      and\n      swap1\n      dup4\n      iszero\n      iszero\n      mul\n      or\n      swap1\n      sstore\n      pop\n        /* \"@openzeppelin/contracts-upgradeable/proxy/utils/Initializable.sol\":3551:3616  if (isTopLevelCall) {... */\n    tag_151:\n        /* \"contracts/NFTSalesSplitter.sol\":1157:1173  __Ownable_init() */\n      tag_153\n        /* \"contracts/NFTSalesSplitter.sol\":1157:1171  __Ownable_init */\n      tag_154\n        /* \"contracts/NFTSalesSplitter.sol\":1157:1173  __Ownable_init() */\n      jump\t// in\n    tag_153:\n        /* \"contracts/NFTSalesSplitter.sol\":1411:1416  _wbnb */\n      dup4\n        /* \"contracts/NFTSalesSplitter.sol\":1404:1408  wbnb */\n      0x67\n      0x00\n        /* \"contracts/NFTSalesSplitter.sol\":1404:1416  wbnb = _wbnb */\n      0x0100\n      exp\n      dup2\n      sload\n      dup2\n      0xffffffffffffffffffffffffffffffffffffffff\n      mul\n      not\n      and\n      swap1\n      dup4\n      0xffffffffffffffffffffffffffffffffffffffff\n      and\n      mul\n      or\n      swap1\n      sstore\n      pop\n        /* \"contracts/NFTSalesSplitter.sol\":1445:1462  _stakingConverter */\n      dup3\n        /* \"contracts/NFTSalesSplitter.sol\":1426:1442  stakingConverter */\n      0x68\n      0x00\n        /* \"contracts/NFTSalesSplitter.sol\":1426:1462  stakingConverter = _stakingConverter */\n      0x0100\n      exp\n      dup2\n      sload\n      dup2\n      0xffffffffffffffffffffffffffffffffffffffff\n      mul\n      not\n      and\n      swap1\n      dup4\n      0xffffffffffffffffffffffffffffffffffffffff\n      and\n      mul\n      or\n      swap1\n      sstore\n      pop\n        /* \"contracts/NFTSalesSplitter.sol\":1484:1494  _royalties */\n      dup2\n        /* \"contracts/NFTSalesSplitter.sol\":1472:1481  royalties */\n      0x69\n      0x00\n        /* \"contracts/NFTSalesSplitter.sol\":1472:1494  royalties = _royalties */\n      0x0100\n      exp\n      dup2\n      sload\n      dup2\n      0xffffffffffffffffffffffffffffffffffffffff\n      mul\n      not\n      and\n      swap1\n      dup4\n      0xffffffffffffffffffffffffffffffffffffffff\n      and\n      mul\n      or\n      swap1\n      sstore\n      pop\n        /* \"contracts/NFTSalesSplitter.sol\":1524:1527  333 */\n      0x014d\n        /* \"contracts/NFTSalesSplitter.sol\":1509:1521  converterFee */\n      0x65\n        /* \"contracts/NFTSalesSplitter.sol\":1509:1527  converterFee = 333 */\n      dup2\n      swap1\n      sstore\n      pop\n        /* \"contracts/NFTSalesSplitter.sol\":1552:1555  667 */\n      0x029b\n        /* \"contracts/NFTSalesSplitter.sol\":1537:1549  royaltiesFee */\n      0x66\n        /* \"contracts/NFTSalesSplitter.sol\":1537:1555  royaltiesFee = 667 */\n      dup2\n      swap1\n      sstore\n      pop\n        /* \"@openzeppelin/contracts-upgradeable/proxy/utils/Initializable.sol\":3640:3654  isTopLevelCall */\n      dup1\n        /* \"@openzeppelin/contracts-upgradeable/proxy/utils/Initializable.sol\":3636:3735  if (isTopLevelCall) {... */\n      iszero\n      tag_155\n      jumpi\n        /* \"@openzeppelin/contracts-upgradeable/proxy/utils/Initializable.sol\":3686:3691  false */\n      0x00\n        /* \"@openzeppelin/contracts-upgradeable/proxy/utils/Initializable.sol\":3670:3683  _initializing */\n      dup1\n      0x01\n        /* \"@openzeppelin/contracts-upgradeable/proxy/utils/Initializable.sol\":3670:3691  _initializing = false */\n      0x0100\n      exp\n      dup2\n      sload\n      dup2\n      0xff\n      mul\n      not\n      and\n      swap1\n      dup4\n      iszero\n      iszero\n      mul\n      or\n      swap1\n      sstore\n      pop\n        /* \"@openzeppelin/contracts-upgradeable/proxy/utils/Initializable.sol\":3710:3724  Initialized(1) */\n      0x7f26b83ff96e1f2b6a682f133852f6798a09c465da95921460cefb3847402498\n        /* \"@openzeppelin/contracts-upgradeable/proxy/utils/Initializable.sol\":3722:3723  1 */\n      0x01\n        /* \"@openzeppelin/contracts-upgradeable/proxy/utils/Initializable.sol\":3710:3724  Initialized(1) */\n      mload(0x40)\n      tag_156\n      swap2\n      swap1\n      tag_157\n      jump\t// in\n    tag_156:\n      mload(0x40)\n      dup1\n      swap2\n      sub\n      swap1\n      log1\n        /* \"@openzeppelin/contracts-upgradeable/proxy/utils/Initializable.sol\":3636:3735  if (isTopLevelCall) {... */\n    tag_155:\n        /* \"@openzeppelin/contracts-upgradeable/proxy/utils/Initializable.sol\":3258:3741  {... */\n      pop\n        /* \"contracts/NFTSalesSplitter.sol\":1045:1563  function initialize(address _wbnb, address _stakingConverter, address _royalties) initializer  public {... */\n      pop\n      pop\n      pop\n      jump\t// out\n        /* \"contracts/NFTSalesSplitter.sol\":708:739  address public stakingConverter */\n    tag_80:\n      0x68\n      0x00\n      swap1\n      sload\n      swap1\n      0x0100\n      exp\n      swap1\n      div\n      0xffffffffffffffffffffffffffffffffffffffff\n      and\n      dup2\n      jump\t// out\n        /* \"contracts/NFTSalesSplitter.sol\":3513:3628  function setSplitter(address _splitter, bool _what) external onlyOwner {... */\n    tag_86:\n        /* \"@openzeppelin/contracts-upgradeable/access/OwnableUpgradeable.sol\":1334:1347  _checkOwner() */\n      tag_159\n        /* \"@openzeppelin/contracts-upgradeable/access/OwnableUpgradeable.sol\":1334:1345  _checkOwner */\n      tag_115\n        /* \"@openzeppelin/contracts-upgradeable/access/OwnableUpgradeable.sol\":1334:1347  _checkOwner() */\n      jump\t// in\n    tag_159:\n        /* \"contracts/NFTSalesSplitter.sol\":3616:3621  _what */\n      dup1\n        /* \"contracts/NFTSalesSplitter.sol\":3594:3602  splitter */\n      0x6a\n        /* \"contracts/NFTSalesSplitter.sol\":3594:3613  splitter[_splitter] */\n      0x00\n        /* \"contracts/NFTSalesSplitter.sol\":3603:3612  _splitter */\n      dup5\n        /* \"contracts/NFTSalesSplitter.sol\":3594:3613  splitter[_splitter] */\n      0xffffffffffffffffffffffffffffffffffffffff\n      and\n      0xffffffffffffffffffffffffffffffffffffffff\n      and\n      dup2\n      mstore\n      0x20\n      add\n      swap1\n      dup2\n      mstore\n      0x20\n      add\n      0x00\n      keccak256\n      0x00\n        /* \"contracts/NFTSalesSplitter.sol\":3594:3621  splitter[_splitter] = _what */\n      0x0100\n      exp\n      dup2\n      sload\n      dup2\n      0xff\n      mul\n      not\n      and\n      swap1\n      dup4\n      iszero\n      iszero\n      mul\n      or\n      swap1\n      sstore\n      pop\n        /* \"contracts/NFTSalesSplitter.sol\":3513:3628  function setSplitter(address _splitter, bool _what) external onlyOwner {... */\n      pop\n      pop\n      jump\t// out\n        /* \"contracts/NFTSalesSplitter.sol\":1569:1646  function swapWBNBToBNB() public onlyAllowed {... */\n    tag_89:\n        /* \"contracts/NFTSalesSplitter.sol\":967:974  owner() */\n      tag_162\n        /* \"contracts/NFTSalesSplitter.sol\":967:972  owner */\n      tag_59\n        /* \"contracts/NFTSalesSplitter.sol\":967:974  owner() */\n      jump\t// in\n    tag_162:\n        /* \"contracts/NFTSalesSplitter.sol\":953:974  msg.sender == owner() */\n      0xffffffffffffffffffffffffffffffffffffffff\n      and\n        /* \"contracts/NFTSalesSplitter.sol\":953:963  msg.sender */\n      caller\n        /* \"contracts/NFTSalesSplitter.sol\":953:974  msg.sender == owner() */\n      0xffffffffffffffffffffffffffffffffffffffff\n      and\n      eq\n        /* \"contracts/NFTSalesSplitter.sol\":953:998  msg.sender == owner() || splitter[msg.sender] */\n      dup1\n      tag_163\n      jumpi\n      pop\n        /* \"contracts/NFTSalesSplitter.sol\":978:986  splitter */\n      0x6a\n        /* \"contracts/NFTSalesSplitter.sol\":978:998  splitter[msg.sender] */\n      0x00\n        /* \"contracts/NFTSalesSplitter.sol\":987:997  msg.sender */\n      caller\n        /* \"contracts/NFTSalesSplitter.sol\":978:998  splitter[msg.sender] */\n      0xffffffffffffffffffffffffffffffffffffffff\n      and\n      0xffffffffffffffffffffffffffffffffffffffff\n      and\n      dup2\n      mstore\n      0x20\n      add\n      swap1\n      dup2\n      mstore\n      0x20\n      add\n      0x00\n      keccak256\n      0x00\n      swap1\n      sload\n      swap1\n      0x0100\n      exp\n      swap1\n      div\n      0xff\n      and\n        /* \"contracts/NFTSalesSplitter.sol\":953:998  msg.sender == owner() || splitter[msg.sender] */\n    tag_163:\n        /* \"contracts/NFTSalesSplitter.sol\":945:999  require(msg.sender == owner() || splitter[msg.sender]) */\n      tag_164\n      jumpi\n      0x00\n      dup1\n      revert\n    tag_164:\n        /* \"contracts/NFTSalesSplitter.sol\":1623:1639  _swapWBNBToBNB() */\n      tag_166\n        /* \"contracts/NFTSalesSplitter.sol\":1623:1637  _swapWBNBToBNB */\n      tag_167\n        /* \"contracts/NFTSalesSplitter.sol\":1623:1639  _swapWBNBToBNB() */\n      jump\t// in\n    tag_166:\n        /* \"contracts/NFTSalesSplitter.sol\":1569:1646  function swapWBNBToBNB() public onlyAllowed {... */\n      jump\t// out\n        /* \"contracts/NFTSalesSplitter.sol\":606:633  uint256 public converterFee */\n    tag_92:\n      sload(0x65)\n      dup2\n      jump\t// out\n        /* \"contracts/NFTSalesSplitter.sol\":745:769  address public royalties */\n    tag_96:\n      0x69\n      0x00\n      swap1\n      sload\n      swap1\n      0x0100\n      exp\n      swap1\n      div\n      0xffffffffffffffffffffffffffffffffffffffff\n      and\n      dup2\n      jump\t// out\n        /* \"@openzeppelin/contracts-upgradeable/access/OwnableUpgradeable.sol\":2321:2519  function transferOwnership(address newOwner) public virtual onlyOwner {... */\n    tag_101:\n        /* \"@openzeppelin/contracts-upgradeable/access/OwnableUpgradeable.sol\":1334:1347  _checkOwner() */\n      tag_169\n        /* \"@openzeppelin/contracts-upgradeable/access/OwnableUpgradeable.sol\":1334:1345  _checkOwner */\n      tag_115\n        /* \"@openzeppelin/contracts-upgradeable/access/OwnableUpgradeable.sol\":1334:1347  _checkOwner() */\n      jump\t// in\n    tag_169:\n        /* \"@openzeppelin/contracts-upgradeable/access/OwnableUpgradeable.sol\":2429:2430  0 */\n      0x00\n        /* \"@openzeppelin/contracts-upgradeable/access/OwnableUpgradeable.sol\":2409:2431  newOwner != address(0) */\n      0xffffffffffffffffffffffffffffffffffffffff\n      and\n        /* \"@openzeppelin/contracts-upgradeable/access/OwnableUpgradeable.sol\":2409:2417  newOwner */\n      dup2\n        /* \"@openzeppelin/contracts-upgradeable/access/OwnableUpgradeable.sol\":2409:2431  newOwner != address(0) */\n      0xffffffffffffffffffffffffffffffffffffffff\n      and\n      sub\n        /* \"@openzeppelin/contracts-upgradeable/access/OwnableUpgradeable.sol\":2401:2474  require(newOwner != address(0), \"Ownable: new owner is the zero address\") */\n      tag_171\n      jumpi\n      mload(0x40)\n      0x08c379a000000000000000000000000000000000000000000000000000000000\n      dup2\n      mstore\n      0x04\n      add\n      tag_172\n      swap1\n      tag_173\n      jump\t// in\n    tag_172:\n      mload(0x40)\n      dup1\n      swap2\n      sub\n      swap1\n      revert\n    tag_171:\n        /* \"@openzeppelin/contracts-upgradeable/access/OwnableUpgradeable.sol\":2484:2512  _transferOwnership(newOwner) */\n      tag_174\n        /* \"@openzeppelin/contracts-upgradeable/access/OwnableUpgradeable.sol\":2503:2511  newOwner */\n      dup2\n        /* \"@openzeppelin/contracts-upgradeable/access/OwnableUpgradeable.sol\":2484:2502  _transferOwnership */\n      tag_130\n        /* \"@openzeppelin/contracts-upgradeable/access/OwnableUpgradeable.sol\":2484:2512  _transferOwnership(newOwner) */\n      jump\t// in\n    tag_174:\n        /* \"@openzeppelin/contracts-upgradeable/access/OwnableUpgradeable.sol\":2321:2519  function transferOwnership(address newOwner) public virtual onlyOwner {... */\n      pop\n      jump\t// out\n        /* \"contracts/NFTSalesSplitter.sol\":560:600  uint256 constant public WEEK = 86400 * 7 */\n    tag_104:\n        /* \"contracts/NFTSalesSplitter.sol\":591:600  86400 * 7 */\n      0x093a80\n        /* \"contracts/NFTSalesSplitter.sol\":560:600  uint256 constant public WEEK = 86400 * 7 */\n      dup2\n      jump\t// out\n        /* \"contracts/NFTSalesSplitter.sol\":3679:3906  function withdrawERC20(address _token) external onlyOwner {... */\n    tag_109:\n        /* \"@openzeppelin/contracts-upgradeable/access/OwnableUpgradeable.sol\":1334:1347  _checkOwner() */\n      tag_176\n        /* \"@openzeppelin/contracts-upgradeable/access/OwnableUpgradeable.sol\":1334:1345  _checkOwner */\n      tag_115\n        /* \"@openzeppelin/contracts-upgradeable/access/OwnableUpgradeable.sol\":1334:1347  _checkOwner() */\n      jump\t// in\n    tag_176:\n        /* \"contracts/NFTSalesSplitter.sol\":3773:3774  0 */\n      0x00\n        /* \"contracts/NFTSalesSplitter.sol\":3755:3775  _token != address(0) */\n      0xffffffffffffffffffffffffffffffffffffffff\n      and\n        /* \"contracts/NFTSalesSplitter.sol\":3755:3761  _token */\n      dup2\n        /* \"contracts/NFTSalesSplitter.sol\":3755:3775  _token != address(0) */\n      0xffffffffffffffffffffffffffffffffffffffff\n      and\n      sub\n        /* \"contracts/NFTSalesSplitter.sol\":3747:3776  require(_token != address(0)) */\n      tag_178\n      jumpi\n      0x00\n      dup1\n      revert\n    tag_178:\n        /* \"contracts/NFTSalesSplitter.sol\":3786:3802  uint256 _balance */\n      0x00\n        /* \"contracts/NFTSalesSplitter.sol\":3812:3818  _token */\n      dup2\n        /* \"contracts/NFTSalesSplitter.sol\":3805:3829  IERC20(_token).balanceOf */\n      0xffffffffffffffffffffffffffffffffffffffff\n      and\n      0x70a08231\n        /* \"contracts/NFTSalesSplitter.sol\":3838:3842  this */\n      address\n        /* \"contracts/NFTSalesSplitter.sol\":3805:3844  IERC20(_token).balanceOf(address(this)) */\n      mload(0x40)\n      dup3\n      0xffffffff\n      and\n      0xe0\n      shl\n      dup2\n      mstore\n      0x04\n      add\n      tag_179\n      swap2\n      swap1\n      tag_56\n      jump\t// in\n    tag_179:\n      0x20\n      mload(0x40)\n      dup1\n      dup4\n      sub\n      dup2\n      dup7\n      gas\n      staticcall\n      iszero\n      dup1\n      iszero\n      tag_181\n      jumpi\n      returndatasize\n      0x00\n      dup1\n      returndatacopy\n      revert(0x00, returndatasize)\n    tag_181:\n      pop\n      pop\n      pop\n      pop\n      mload(0x40)\n      returndatasize\n      not(0x1f)\n      0x1f\n      dup3\n      add\n      and\n      dup3\n      add\n      dup1\n      0x40\n      mstore\n      pop\n      dup2\n      add\n      swap1\n      tag_182\n      swap2\n      swap1\n      tag_136\n      jump\t// in\n    tag_182:\n        /* \"contracts/NFTSalesSplitter.sol\":3786:3844  uint256 _balance = IERC20(_token).balanceOf(address(this)) */\n      swap1\n      pop\n        /* \"contracts/NFTSalesSplitter.sol\":3861:3867  _token */\n      dup2\n        /* \"contracts/NFTSalesSplitter.sol\":3854:3877  IERC20(_token).transfer */\n      0xffffffffffffffffffffffffffffffffffffffff\n      and\n      0xa9059cbb\n        /* \"contracts/NFTSalesSplitter.sol\":3878:3888  msg.sender */\n      caller\n        /* \"contracts/NFTSalesSplitter.sol\":3890:3898  _balance */\n      dup4\n        /* \"contracts/NFTSalesSplitter.sol\":3854:3899  IERC20(_token).transfer(msg.sender, _balance) */\n      mload(0x40)\n      dup4\n      0xffffffff\n      and\n      0xe0\n      shl\n      dup2\n      mstore\n      0x04\n      add\n      tag_183\n      swap3\n      swap2\n      swap1\n      tag_184\n      jump\t// in\n    tag_183:\n      0x20\n      mload(0x40)\n      dup1\n      dup4\n      sub\n      dup2\n      0x00\n      dup8\n      gas\n      call\n      iszero\n      dup1\n      iszero\n      tag_186\n      jumpi\n      returndatasize\n      0x00\n      dup1\n      returndatacopy\n      revert(0x00, returndatasize)\n    tag_186:\n      pop\n      pop\n      pop\n      pop\n      mload(0x40)\n      returndatasize\n      not(0x1f)\n      0x1f\n      dup3\n      add\n      and\n      dup3\n      add\n      dup1\n      0x40\n      mstore\n      pop\n      dup2\n      add\n      swap1\n      tag_187\n      swap2\n      swap1\n      tag_188\n      jump\t// in\n    tag_187:\n      pop\n        /* \"contracts/NFTSalesSplitter.sol\":3737:3906  {... */\n      pop\n        /* \"contracts/NFTSalesSplitter.sol\":3679:3906  function withdrawERC20(address _token) external onlyOwner {... */\n      pop\n      jump\t// out\n        /* \"contracts/NFTSalesSplitter.sol\":1814:3101  function split() public onlyAllowed {... */\n    tag_112:\n        /* \"contracts/NFTSalesSplitter.sol\":967:974  owner() */\n      tag_190\n        /* \"contracts/NFTSalesSplitter.sol\":967:972  owner */\n      tag_59\n        /* \"contracts/NFTSalesSplitter.sol\":967:974  owner() */\n      jump\t// in\n    tag_190:\n        /* \"contracts/NFTSalesSplitter.sol\":953:974  msg.sender == owner() */\n      0xffffffffffffffffffffffffffffffffffffffff\n      and\n        /* \"contracts/NFTSalesSplitter.sol\":953:963  msg.sender */\n      caller\n        /* \"contracts/NFTSalesSplitter.sol\":953:974  msg.sender == owner() */\n      0xffffffffffffffffffffffffffffffffffffffff\n      and\n      eq\n        /* \"contracts/NFTSalesSplitter.sol\":953:998  msg.sender == owner() || splitter[msg.sender] */\n      dup1\n      tag_191\n      jumpi\n      pop\n        /* \"contracts/NFTSalesSplitter.sol\":978:986  splitter */\n      0x6a\n        /* \"contracts/NFTSalesSplitter.sol\":978:998  splitter[msg.sender] */\n      0x00\n        /* \"contracts/NFTSalesSplitter.sol\":987:997  msg.sender */\n      caller\n        /* \"contracts/NFTSalesSplitter.sol\":978:998  splitter[msg.sender] */\n      0xffffffffffffffffffffffffffffffffffffffff\n      and\n      0xffffffffffffffffffffffffffffffffffffffff\n      and\n      dup2\n      mstore\n      0x20\n      add\n      swap1\n      dup2\n      mstore\n      0x20\n      add\n      0x00\n      keccak256\n      0x00\n      swap1\n      sload\n      swap1\n      0x0100\n      exp\n      swap1\n      div\n      0xff\n      and\n        /* \"contracts/NFTSalesSplitter.sol\":953:998  msg.sender == owner() || splitter[msg.sender] */\n    tag_191:\n        /* \"contracts/NFTSalesSplitter.sol\":945:999  require(msg.sender == owner() || splitter[msg.sender]) */\n      tag_192\n      jumpi\n      0x00\n      dup1\n      revert\n    tag_192:\n        /* \"contracts/NFTSalesSplitter.sol\":1918:1934  _swapWBNBToBNB() */\n      tag_194\n        /* \"contracts/NFTSalesSplitter.sol\":1918:1932  _swapWBNBToBNB */\n      tag_167\n        /* \"contracts/NFTSalesSplitter.sol\":1918:1934  _swapWBNBToBNB() */\n      jump\t// in\n    tag_194:\n        /* \"contracts/NFTSalesSplitter.sol\":1945:1960  uint256 balance */\n      0x00\n        /* \"contracts/NFTSalesSplitter.sol\":1963:1974  balanceOf() */\n      tag_195\n        /* \"contracts/NFTSalesSplitter.sol\":1963:1972  balanceOf */\n      tag_49\n        /* \"contracts/NFTSalesSplitter.sol\":1963:1974  balanceOf() */\n      jump\t// in\n    tag_195:\n        /* \"contracts/NFTSalesSplitter.sol\":1945:1974  uint256 balance = balanceOf() */\n      swap1\n      pop\n        /* \"contracts/NFTSalesSplitter.sol\":1984:2005  uint256 stakingAmount */\n      0x00\n        /* \"contracts/NFTSalesSplitter.sol\":2019:2042  uint256 royaltiesAmount */\n      dup1\n        /* \"contracts/NFTSalesSplitter.sol\":2056:2073  uint256 timestamp */\n      0x00\n        /* \"contracts/NFTSalesSplitter.sol\":591:600  86400 * 7 */\n      0x093a80\n      dup1\n        /* \"contracts/NFTSalesSplitter.sol\":2076:2091  block.timestamp */\n      timestamp\n        /* \"contracts/NFTSalesSplitter.sol\":2076:2098  block.timestamp / WEEK */\n      tag_196\n      swap2\n      swap1\n      tag_197\n      jump\t// in\n    tag_196:\n        /* \"contracts/NFTSalesSplitter.sol\":2076:2105  block.timestamp / WEEK * WEEK */\n      tag_198\n      swap2\n      swap1\n      tag_199\n      jump\t// in\n    tag_198:\n        /* \"contracts/NFTSalesSplitter.sol\":2056:2105  uint256 timestamp = block.timestamp / WEEK * WEEK */\n      swap1\n      pop\n        /* \"contracts/NFTSalesSplitter.sol\":2128:2132  1000 */\n      0x03e8\n        /* \"contracts/NFTSalesSplitter.sol\":2118:2125  balance */\n      dup5\n        /* \"contracts/NFTSalesSplitter.sol\":2118:2132  balance > 1000 */\n      gt\n        /* \"contracts/NFTSalesSplitter.sol\":2115:3090  if(balance > 1000){... */\n      iszero\n      tag_200\n      jumpi\n        /* \"contracts/NFTSalesSplitter.sol\":2178:2179  0 */\n      0x00\n        /* \"contracts/NFTSalesSplitter.sol\":2150:2180  stakingConverter != address(0) */\n      0xffffffffffffffffffffffffffffffffffffffff\n      and\n        /* \"contracts/NFTSalesSplitter.sol\":2150:2166  stakingConverter */\n      0x68\n      0x00\n      swap1\n      sload\n      swap1\n      0x0100\n      exp\n      swap1\n      div\n      0xffffffffffffffffffffffffffffffffffffffff\n      and\n        /* \"contracts/NFTSalesSplitter.sol\":2150:2180  stakingConverter != address(0) */\n      0xffffffffffffffffffffffffffffffffffffffff\n      and\n      eq\n        /* \"contracts/NFTSalesSplitter.sol\":2147:2467  if(stakingConverter != address(0)){... */\n      tag_201\n      jumpi\n        /* \"contracts/NFTSalesSplitter.sol\":550:554  1000 */\n      0x03e8\n        /* \"contracts/NFTSalesSplitter.sol\":2225:2237  converterFee */\n      sload(0x65)\n        /* \"contracts/NFTSalesSplitter.sol\":2215:2222  balance */\n      dup6\n        /* \"contracts/NFTSalesSplitter.sol\":2215:2237  balance * converterFee */\n      tag_202\n      swap2\n      swap1\n      tag_199\n      jump\t// in\n    tag_202:\n        /* \"contracts/NFTSalesSplitter.sol\":2215:2249  balance * converterFee / PRECISION */\n      tag_203\n      swap2\n      swap1\n      tag_197\n      jump\t// in\n    tag_203:\n        /* \"contracts/NFTSalesSplitter.sol\":2199:2249  stakingAmount = balance * converterFee / PRECISION */\n      swap3\n      pop\n        /* \"contracts/NFTSalesSplitter.sol\":2274:2278  wbnb */\n      0x67\n      0x00\n      swap1\n      sload\n      swap1\n      0x0100\n      exp\n      swap1\n      div\n      0xffffffffffffffffffffffffffffffffffffffff\n      and\n        /* \"contracts/NFTSalesSplitter.sol\":2267:2288  IERC20(wbnb).transfer */\n      0xffffffffffffffffffffffffffffffffffffffff\n      and\n      0xa9059cbb\n        /* \"contracts/NFTSalesSplitter.sol\":2289:2305  stakingConverter */\n      0x68\n      0x00\n      swap1\n      sload\n      swap1\n      0x0100\n      exp\n      swap1\n      div\n      0xffffffffffffffffffffffffffffffffffffffff\n      and\n        /* \"contracts/NFTSalesSplitter.sol\":2307:2320  stakingAmount */\n      dup6\n        /* \"contracts/NFTSalesSplitter.sol\":2267:2321  IERC20(wbnb).transfer(stakingConverter, stakingAmount) */\n      mload(0x40)\n      dup4\n      0xffffffff\n      and\n      0xe0\n      shl\n      dup2\n      mstore\n      0x04\n      add\n      tag_204\n      swap3\n      swap2\n      swap1\n      tag_184\n      jump\t// in\n    tag_204:\n      0x20\n      mload(0x40)\n      dup1\n      dup4\n      sub\n      dup2\n      0x00\n      dup8\n      gas\n      call\n      iszero\n      dup1\n      iszero\n      tag_206\n      jumpi\n      returndatasize\n      0x00\n      dup1\n      returndatacopy\n      revert(0x00, returndatasize)\n    tag_206:\n      pop\n      pop\n      pop\n      pop\n      mload(0x40)\n      returndatasize\n      not(0x1f)\n      0x1f\n      dup3\n      add\n      and\n      dup3\n      add\n      dup1\n      0x40\n      mstore\n      pop\n      dup2\n      add\n      swap1\n      tag_207\n      swap2\n      swap1\n      tag_188\n      jump\t// in\n    tag_207:\n      pop\n        /* \"contracts/NFTSalesSplitter.sol\":2360:2376  stakingConverter */\n      0x68\n      0x00\n      swap1\n      sload\n      swap1\n      0x0100\n      exp\n      swap1\n      div\n      0xffffffffffffffffffffffffffffffffffffffff\n      and\n        /* \"contracts/NFTSalesSplitter.sol\":2339:2387  IStakingNFTConverter(stakingConverter).claimFees */\n      0xffffffffffffffffffffffffffffffffffffffff\n      and\n      0xd294f093\n        /* \"contracts/NFTSalesSplitter.sol\":2339:2389  IStakingNFTConverter(stakingConverter).claimFees() */\n      mload(0x40)\n      dup2\n      0xffffffff\n      and\n      0xe0\n      shl\n      dup2\n      mstore\n      0x04\n      add\n      0x00\n      mload(0x40)\n      dup1\n      dup4\n      sub\n      dup2\n      0x00\n      dup8\n      dup1\n      extcodesize\n      iszero\n      dup1\n      iszero\n      tag_208\n      jumpi\n      0x00\n      dup1\n      revert\n    tag_208:\n      pop\n      gas\n      call\n      iszero\n      dup1\n      iszero\n      tag_210\n      jumpi\n      returndatasize\n      0x00\n      dup1\n      returndatacopy\n      revert(0x00, returndatasize)\n    tag_210:\n      pop\n      pop\n      pop\n      pop\n        /* \"contracts/NFTSalesSplitter.sol\":2428:2444  stakingConverter */\n      0x68\n      0x00\n      swap1\n      sload\n      swap1\n      0x0100\n      exp\n      swap1\n      div\n      0xffffffffffffffffffffffffffffffffffffffff\n      and\n        /* \"contracts/NFTSalesSplitter.sol\":2407:2450  IStakingNFTConverter(stakingConverter).swap */\n      0xffffffffffffffffffffffffffffffffffffffff\n      and\n      0x8119c065\n        /* \"contracts/NFTSalesSplitter.sol\":2407:2452  IStakingNFTConverter(stakingConverter).swap() */\n      mload(0x40)\n      dup2\n      0xffffffff\n      and\n      0xe0\n      shl\n      dup2\n      mstore\n      0x04\n      add\n      0x00\n      mload(0x40)\n      dup1\n      dup4\n      sub\n      dup2\n      0x00\n      dup8\n      dup1\n      extcodesize\n      iszero\n      dup1\n      iszero\n      tag_211\n      jumpi\n      0x00\n      dup1\n      revert\n    tag_211:\n      pop\n      gas\n      call\n      iszero\n      dup1\n      iszero\n      tag_213\n      jumpi\n      returndatasize\n      0x00\n      dup1\n      returndatacopy\n      revert(0x00, returndatasize)\n    tag_213:\n      pop\n      pop\n      pop\n      pop\n        /* \"contracts/NFTSalesSplitter.sol\":2147:2467  if(stakingConverter != address(0)){... */\n    tag_201:\n        /* \"contracts/NFTSalesSplitter.sol\":2505:2506  0 */\n      0x00\n        /* \"contracts/NFTSalesSplitter.sol\":2484:2507  royalties != address(0) */\n      0xffffffffffffffffffffffffffffffffffffffff\n      and\n        /* \"contracts/NFTSalesSplitter.sol\":2484:2493  royalties */\n      0x69\n      0x00\n      swap1\n      sload\n      swap1\n      0x0100\n      exp\n      swap1\n      div\n      0xffffffffffffffffffffffffffffffffffffffff\n      and\n        /* \"contracts/NFTSalesSplitter.sol\":2484:2507  royalties != address(0) */\n      0xffffffffffffffffffffffffffffffffffffffff\n      and\n      eq\n        /* \"contracts/NFTSalesSplitter.sol\":2481:2952  if(royalties != address(0)){... */\n      tag_214\n      jumpi\n        /* \"contracts/NFTSalesSplitter.sol\":550:554  1000 */\n      0x03e8\n        /* \"contracts/NFTSalesSplitter.sol\":2554:2566  royaltiesFee */\n      sload(0x66)\n        /* \"contracts/NFTSalesSplitter.sol\":2544:2551  balance */\n      dup6\n        /* \"contracts/NFTSalesSplitter.sol\":2544:2566  balance * royaltiesFee */\n      tag_215\n      swap2\n      swap1\n      tag_199\n      jump\t// in\n    tag_215:\n        /* \"contracts/NFTSalesSplitter.sol\":2544:2578  balance * royaltiesFee / PRECISION */\n      tag_216\n      swap2\n      swap1\n      tag_197\n      jump\t// in\n    tag_216:\n        /* \"contracts/NFTSalesSplitter.sol\":2526:2578  royaltiesAmount = balance * royaltiesFee / PRECISION */\n      swap2\n      pop\n        /* \"contracts/NFTSalesSplitter.sol\":2670:2685  royaltiesAmount */\n      dup2\n        /* \"contracts/NFTSalesSplitter.sol\":2656:2667  balanceOf() */\n      tag_217\n        /* \"contracts/NFTSalesSplitter.sol\":2656:2665  balanceOf */\n      tag_49\n        /* \"contracts/NFTSalesSplitter.sol\":2656:2667  balanceOf() */\n      jump\t// in\n    tag_217:\n        /* \"contracts/NFTSalesSplitter.sol\":2656:2685  balanceOf() < royaltiesAmount */\n      lt\n        /* \"contracts/NFTSalesSplitter.sol\":2653:2756  if(balanceOf() < royaltiesAmount){... */\n      iszero\n      tag_218\n      jumpi\n        /* \"contracts/NFTSalesSplitter.sol\":2726:2737  balanceOf() */\n      tag_219\n        /* \"contracts/NFTSalesSplitter.sol\":2726:2735  balanceOf */\n      tag_49\n        /* \"contracts/NFTSalesSplitter.sol\":2726:2737  balanceOf() */\n      jump\t// in\n    tag_219:\n        /* \"contracts/NFTSalesSplitter.sol\":2708:2737  royaltiesAmount = balanceOf() */\n      swap2\n      pop\n        /* \"contracts/NFTSalesSplitter.sol\":2653:2756  if(balanceOf() < royaltiesAmount){... */\n    tag_218:\n        /* \"contracts/NFTSalesSplitter.sol\":2780:2784  wbnb */\n      0x67\n      0x00\n      swap1\n      sload\n      swap1\n      0x0100\n      exp\n      swap1\n      div\n      0xffffffffffffffffffffffffffffffffffffffff\n      and\n        /* \"contracts/NFTSalesSplitter.sol\":2773:2793  IERC20(wbnb).approve */\n      0xffffffffffffffffffffffffffffffffffffffff\n      and\n      0x095ea7b3\n        /* \"contracts/NFTSalesSplitter.sol\":2794:2803  royalties */\n      0x69\n      0x00\n      swap1\n      sload\n      swap1\n      0x0100\n      exp\n      swap1\n      div\n      0xffffffffffffffffffffffffffffffffffffffff\n      and\n        /* \"contracts/NFTSalesSplitter.sol\":2805:2806  0 */\n      0x00\n        /* \"contracts/NFTSalesSplitter.sol\":2773:2807  IERC20(wbnb).approve(royalties, 0) */\n      mload(0x40)\n      dup4\n      0xffffffff\n      and\n      0xe0\n      shl\n      dup2\n      mstore\n      0x04\n      add\n      tag_220\n      swap3\n      swap2\n      swap1\n      tag_221\n      jump\t// in\n    tag_220:\n      0x20\n      mload(0x40)\n      dup1\n      dup4\n      sub\n      dup2\n      0x00\n      dup8\n      gas\n      call\n      iszero\n      dup1\n      iszero\n      tag_223\n      jumpi\n      returndatasize\n      0x00\n      dup1\n      returndatacopy\n      revert(0x00, returndatasize)\n    tag_223:\n      pop\n      pop\n      pop\n      pop\n      mload(0x40)\n      returndatasize\n      not(0x1f)\n      0x1f\n      dup3\n      add\n      and\n      dup3\n      add\n      dup1\n      0x40\n      mstore\n      pop\n      dup2\n      add\n      swap1\n      tag_224\n      swap2\n      swap1\n      tag_188\n      jump\t// in\n    tag_224:\n      pop\n        /* \"contracts/NFTSalesSplitter.sol\":2832:2836  wbnb */\n      0x67\n      0x00\n      swap1\n      sload\n      swap1\n      0x0100\n      exp\n      swap1\n      div\n      0xffffffffffffffffffffffffffffffffffffffff\n      and\n        /* \"contracts/NFTSalesSplitter.sol\":2825:2845  IERC20(wbnb).approve */\n      0xffffffffffffffffffffffffffffffffffffffff\n      and\n      0x095ea7b3\n        /* \"contracts/NFTSalesSplitter.sol\":2846:2855  royalties */\n      0x69\n      0x00\n      swap1\n      sload\n      swap1\n      0x0100\n      exp\n      swap1\n      div\n      0xffffffffffffffffffffffffffffffffffffffff\n      and\n        /* \"contracts/NFTSalesSplitter.sol\":2857:2872  royaltiesAmount */\n      dup5\n        /* \"contracts/NFTSalesSplitter.sol\":2825:2873  IERC20(wbnb).approve(royalties, royaltiesAmount) */\n      mload(0x40)\n      dup4\n      0xffffffff\n      and\n      0xe0\n      shl\n      dup2\n      mstore\n      0x04\n      add\n      tag_225\n      swap3\n      swap2\n      swap1\n      tag_184\n      jump\t// in\n    tag_225:\n      0x20\n      mload(0x40)\n      dup1\n      dup4\n      sub\n      dup2\n      0x00\n      dup8\n      gas\n      call\n      iszero\n      dup1\n      iszero\n      tag_227\n      jumpi\n      returndatasize\n      0x00\n      dup1\n      returndatacopy\n      revert(0x00, returndatasize)\n    tag_227:\n      pop\n      pop\n      pop\n      pop\n      mload(0x40)\n      returndatasize\n      not(0x1f)\n      0x1f\n      dup3\n      add\n      and\n      dup3\n      add\n      dup1\n      0x40\n      mstore\n      pop\n      dup2\n      add\n      swap1\n      tag_228\n      swap2\n      swap1\n      tag_188\n      jump\t// in\n    tag_228:\n      pop\n        /* \"contracts/NFTSalesSplitter.sol\":2902:2911  royalties */\n      0x69\n      0x00\n      swap1\n      sload\n      swap1\n      0x0100\n      exp\n      swap1\n      div\n      0xffffffffffffffffffffffffffffffffffffffff\n      and\n        /* \"contracts/NFTSalesSplitter.sol\":2891:2920  IRoyalties(royalties).deposit */\n      0xffffffffffffffffffffffffffffffffffffffff\n      and\n      0xb6b55f25\n        /* \"contracts/NFTSalesSplitter.sol\":2921:2936  royaltiesAmount */\n      dup4\n        /* \"contracts/NFTSalesSplitter.sol\":2891:2937  IRoyalties(royalties).deposit(royaltiesAmount) */\n      mload(0x40)\n      dup3\n      0xffffffff\n      and\n      0xe0\n      shl\n      dup2\n      mstore\n      0x04\n      add\n      tag_229\n      swap2\n      swap1\n      tag_51\n      jump\t// in\n    tag_229:\n      0x00\n      mload(0x40)\n      dup1\n      dup4\n      sub\n      dup2\n      0x00\n      dup8\n      dup1\n      extcodesize\n      iszero\n      dup1\n      iszero\n      tag_230\n      jumpi\n      0x00\n      dup1\n      revert\n    tag_230:\n      pop\n      gas\n      call\n      iszero\n      dup1\n      iszero\n      tag_232\n      jumpi\n      returndatasize\n      0x00\n      dup1\n      returndatacopy\n      revert(0x00, returndatasize)\n    tag_232:\n      pop\n      pop\n      pop\n      pop\n        /* \"contracts/NFTSalesSplitter.sol\":2481:2952  if(royalties != address(0)){... */\n    tag_214:\n        /* \"contracts/NFTSalesSplitter.sol\":2979:2988  timestamp */\n      dup1\n        /* \"contracts/NFTSalesSplitter.sol\":2973:3021  Split(timestamp, stakingAmount, royaltiesAmount) */\n      0xcf0974dfd867840133a0d4b02f1672f24017796fb8892d1e0d587692e4da90ab\n        /* \"contracts/NFTSalesSplitter.sol\":2990:3003  stakingAmount */\n      dup5\n        /* \"contracts/NFTSalesSplitter.sol\":3005:3020  royaltiesAmount */\n      dup5\n        /* \"contracts/NFTSalesSplitter.sol\":2973:3021  Split(timestamp, stakingAmount, royaltiesAmount) */\n      mload(0x40)\n      tag_233\n      swap3\n      swap2\n      swap1\n      tag_234\n      jump\t// in\n    tag_233:\n      mload(0x40)\n      dup1\n      swap2\n      sub\n      swap1\n      log2\n        /* \"contracts/NFTSalesSplitter.sol\":2115:3090  if(balance > 1000){... */\n      jump(tag_235)\n    tag_200:\n        /* \"contracts/NFTSalesSplitter.sol\":3063:3072  timestamp */\n      dup1\n        /* \"contracts/NFTSalesSplitter.sol\":3057:3079  Split(timestamp, 0, 0) */\n      0xcf0974dfd867840133a0d4b02f1672f24017796fb8892d1e0d587692e4da90ab\n        /* \"contracts/NFTSalesSplitter.sol\":3074:3075  0 */\n      0x00\n        /* \"contracts/NFTSalesSplitter.sol\":3077:3078  0 */\n      dup1\n        /* \"contracts/NFTSalesSplitter.sol\":3057:3079  Split(timestamp, 0, 0) */\n      mload(0x40)\n      tag_236\n      swap3\n      swap2\n      swap1\n      tag_237\n      jump\t// in\n    tag_236:\n      mload(0x40)\n      dup1\n      swap2\n      sub\n      swap1\n      log2\n        /* \"contracts/NFTSalesSplitter.sol\":2115:3090  if(balance > 1000){... */\n    tag_235:\n        /* \"contracts/NFTSalesSplitter.sol\":1850:3101  {... */\n      pop\n      pop\n      pop\n      pop\n        /* \"contracts/NFTSalesSplitter.sol\":1814:3101  function split() public onlyAllowed {... */\n      jump\t// out\n        /* \"@openzeppelin/contracts-upgradeable/access/OwnableUpgradeable.sol\":1599:1729  function _checkOwner() internal view virtual {... */\n    tag_115:\n        /* \"@openzeppelin/contracts-upgradeable/access/OwnableUpgradeable.sol\":1673:1685  _msgSender() */\n      tag_239\n        /* \"@openzeppelin/contracts-upgradeable/access/OwnableUpgradeable.sol\":1673:1683  _msgSender */\n      tag_240\n        /* \"@openzeppelin/contracts-upgradeable/access/OwnableUpgradeable.sol\":1673:1685  _msgSender() */\n      jump\t// in\n    tag_239:\n        /* \"@openzeppelin/contracts-upgradeable/access/OwnableUpgradeable.sol\":1662:1685  owner() == _msgSender() */\n      0xffffffffffffffffffffffffffffffffffffffff\n      and\n        /* \"@openzeppelin/contracts-upgradeable/access/OwnableUpgradeable.sol\":1662:1669  owner() */\n      tag_241\n        /* \"@openzeppelin/contracts-upgradeable/access/OwnableUpgradeable.sol\":1662:1667  owner */\n      tag_59\n        /* \"@openzeppelin/contracts-upgradeable/access/OwnableUpgradeable.sol\":1662:1669  owner() */\n      jump\t// in\n    tag_241:\n        /* \"@openzeppelin/contracts-upgradeable/access/OwnableUpgradeable.sol\":1662:1685  owner() == _msgSender() */\n      0xffffffffffffffffffffffffffffffffffffffff\n      and\n      eq\n        /* \"@openzeppelin/contracts-upgradeable/access/OwnableUpgradeable.sol\":1654:1722  require(owner() == _msgSender(), \"Ownable: caller is not the owner\") */\n      tag_242\n      jumpi\n      mload(0x40)\n      0x08c379a000000000000000000000000000000000000000000000000000000000\n      dup2\n      mstore\n      0x04\n      add\n      tag_243\n      swap1\n      tag_244\n      jump\t// in\n    tag_243:\n      mload(0x40)\n      dup1\n      swap2\n      sub\n      swap1\n      revert\n    tag_242:\n        /* \"@openzeppelin/contracts-upgradeable/access/OwnableUpgradeable.sol\":1599:1729  function _checkOwner() internal view virtual {... */\n      jump\t// out\n        /* \"@openzeppelin/contracts-upgradeable/access/OwnableUpgradeable.sol\":2673:2860  function _transferOwnership(address newOwner) internal virtual {... */\n    tag_130:\n        /* \"@openzeppelin/contracts-upgradeable/access/OwnableUpgradeable.sol\":2746:2762  address oldOwner */\n      0x00\n        /* \"@openzeppelin/contracts-upgradeable/access/OwnableUpgradeable.sol\":2765:2771  _owner */\n      0x33\n      0x00\n      swap1\n      sload\n      swap1\n      0x0100\n      exp\n      swap1\n      div\n      0xffffffffffffffffffffffffffffffffffffffff\n      and\n        /* \"@openzeppelin/contracts-upgradeable/access/OwnableUpgradeable.sol\":2746:2771  address oldOwner = _owner */\n      swap1\n      pop\n        /* \"@openzeppelin/contracts-upgradeable/access/OwnableUpgradeable.sol\":2790:2798  newOwner */\n      dup2\n        /* \"@openzeppelin/contracts-upgradeable/access/OwnableUpgradeable.sol\":2781:2787  _owner */\n      0x33\n      0x00\n        /* \"@openzeppelin/contracts-upgradeable/access/OwnableUpgradeable.sol\":2781:2798  _owner = newOwner */\n      0x0100\n      exp\n      dup2\n      sload\n      dup2\n      0xffffffffffffffffffffffffffffffffffffffff\n      mul\n      not\n      and\n      swap1\n      dup4\n      0xffffffffffffffffffffffffffffffffffffffff\n      and\n      mul\n      or\n      swap1\n      sstore\n      pop\n        /* \"@openzeppelin/contracts-upgradeable/access/OwnableUpgradeable.sol\":2844:2852  newOwner */\n      dup2\n        /* \"@openzeppelin/contracts-upgradeable/access/OwnableUpgradeable.sol\":2813:2853  OwnershipTransferred(oldOwner, newOwner) */\n      0xffffffffffffffffffffffffffffffffffffffff\n      and\n        /* \"@openzeppelin/contracts-upgradeable/access/OwnableUpgradeable.sol\":2834:2842  oldOwner */\n      dup2\n        /* \"@openzeppelin/contracts-upgradeable/access/OwnableUpgradeable.sol\":2813:2853  OwnershipTransferred(oldOwner, newOwner) */\n      0xffffffffffffffffffffffffffffffffffffffff\n      and\n      0x8be0079c531659141344cd1fd0a4f28419497f9722a3daafe3b4186f6b6457e0\n      mload(0x40)\n      mload(0x40)\n      dup1\n      swap2\n      sub\n      swap1\n      log3\n        /* \"@openzeppelin/contracts-upgradeable/access/OwnableUpgradeable.sol\":2736:2860  {... */\n      pop\n        /* \"@openzeppelin/contracts-upgradeable/access/OwnableUpgradeable.sol\":2673:2860  function _transferOwnership(address newOwner) internal virtual {... */\n      pop\n      jump\t// out\n        /* \"@openzeppelin/contracts-upgradeable/utils/AddressUpgradeable.sol\":1186:1506  function isContract(address account) internal view returns (bool) {... */\n    tag_146:\n        /* \"@openzeppelin/contracts-upgradeable/utils/AddressUpgradeable.sol\":1246:1250  bool */\n      0x00\n        /* \"@openzeppelin/contracts-upgradeable/utils/AddressUpgradeable.sol\":1498:1499  0 */\n      dup1\n        /* \"@openzeppelin/contracts-upgradeable/utils/AddressUpgradeable.sol\":1476:1483  account */\n      dup3\n        /* \"@openzeppelin/contracts-upgradeable/utils/AddressUpgradeable.sol\":1476:1495  account.code.length */\n      0xffffffffffffffffffffffffffffffffffffffff\n      and\n      extcodesize\n        /* \"@openzeppelin/contracts-upgradeable/utils/AddressUpgradeable.sol\":1476:1499  account.code.length > 0 */\n      gt\n        /* \"@openzeppelin/contracts-upgradeable/utils/AddressUpgradeable.sol\":1469:1499  return account.code.length > 0 */\n      swap1\n      pop\n        /* \"@openzeppelin/contracts-upgradeable/utils/AddressUpgradeable.sol\":1186:1506  function isContract(address account) internal view returns (bool) {... */\n      swap2\n      swap1\n      pop\n      jump\t// out\n        /* \"@openzeppelin/contracts-upgradeable/access/OwnableUpgradeable.sol\":1003:1098  function __Ownable_init() internal onlyInitializing {... */\n    tag_154:\n        /* \"@openzeppelin/contracts-upgradeable/proxy/utils/Initializable.sol\":5363:5376  _initializing */\n      0x00\n      0x01\n      swap1\n      sload\n      swap1\n      0x0100\n      exp\n      swap1\n      div\n      0xff\n      and\n        /* \"@openzeppelin/contracts-upgradeable/proxy/utils/Initializable.sol\":5355:5424  require(_initializing, \"Initializable: contract is not initializing\") */\n      tag_248\n      jumpi\n      mload(0x40)\n      0x08c379a000000000000000000000000000000000000000000000000000000000\n      dup2\n      mstore\n      0x04\n      add\n      tag_249\n      swap1\n      tag_250\n      jump\t// in\n    tag_249:\n      mload(0x40)\n      dup1\n      swap2\n      sub\n      swap1\n      revert\n    tag_248:\n        /* \"@openzeppelin/contracts-upgradeable/access/OwnableUpgradeable.sol\":1065:1091  __Ownable_init_unchained() */\n      tag_252\n        /* \"@openzeppelin/contracts-upgradeable/access/OwnableUpgradeable.sol\":1065:1089  __Ownable_init_unchained */\n      tag_253\n        /* \"@openzeppelin/contracts-upgradeable/access/OwnableUpgradeable.sol\":1065:1091  __Ownable_init_unchained() */\n      jump\t// in\n    tag_252:\n        /* \"@openzeppelin/contracts-upgradeable/access/OwnableUpgradeable.sol\":1003:1098  function __Ownable_init() internal onlyInitializing {... */\n      jump\t// out\n        /* \"contracts/NFTSalesSplitter.sol\":1652:1808  function _swapWBNBToBNB() internal {... */\n    tag_167:\n        /* \"contracts/NFTSalesSplitter.sol\":1724:1725  0 */\n      0x00\n        /* \"contracts/NFTSalesSplitter.sol\":1700:1721  address(this).balance */\n      selfbalance\n        /* \"contracts/NFTSalesSplitter.sol\":1700:1725  address(this).balance > 0 */\n      gt\n        /* \"contracts/NFTSalesSplitter.sol\":1697:1802  if(address(this).balance > 0){... */\n      iszero\n      tag_255\n      jumpi\n        /* \"contracts/NFTSalesSplitter.sol\":1746:1750  wbnb */\n      0x67\n      0x00\n      swap1\n      sload\n      swap1\n      0x0100\n      exp\n      swap1\n      div\n      0xffffffffffffffffffffffffffffffffffffffff\n      and\n        /* \"contracts/NFTSalesSplitter.sol\":1740:1759  IWBNB(wbnb).deposit */\n      0xffffffffffffffffffffffffffffffffffffffff\n      and\n      0xd0e30db0\n        /* \"contracts/NFTSalesSplitter.sol\":1767:1788  address(this).balance */\n      selfbalance\n        /* \"contracts/NFTSalesSplitter.sol\":1740:1791  IWBNB(wbnb).deposit{value: address(this).balance}() */\n      mload(0x40)\n      dup3\n      0xffffffff\n      and\n      0xe0\n      shl\n      dup2\n      mstore\n      0x04\n      add\n      0x00\n      mload(0x40)\n      dup1\n      dup4\n      sub\n      dup2\n      dup6\n      dup9\n      dup1\n      extcodesize\n      iszero\n      dup1\n      iszero\n      tag_256\n      jumpi\n      0x00\n      dup1\n      revert\n    tag_256:\n      pop\n      gas\n      call\n      iszero\n      dup1\n      iszero\n      tag_258\n      jumpi\n      returndatasize\n      0x00\n      dup1\n      returndatacopy\n      revert(0x00, returndatasize)\n    tag_258:\n      pop\n      pop\n      pop\n      pop\n      pop\n        /* \"contracts/NFTSalesSplitter.sol\":1697:1802  if(address(this).balance > 0){... */\n    tag_255:\n        /* \"contracts/NFTSalesSplitter.sol\":1652:1808  function _swapWBNBToBNB() internal {... */\n      jump\t// out\n        /* \"@openzeppelin/contracts-upgradeable/utils/ContextUpgradeable.sol\":850:946  function _msgSender() internal view virtual returns (address) {... */\n    tag_240:\n        /* \"@openzeppelin/contracts-upgradeable/utils/ContextUpgradeable.sol\":903:910  address */\n      0x00\n        /* \"@openzeppelin/contracts-upgradeable/utils/ContextUpgradeable.sol\":929:939  msg.sender */\n      caller\n        /* \"@openzeppelin/contracts-upgradeable/utils/ContextUpgradeable.sol\":922:939  return msg.sender */\n      swap1\n      pop\n        /* \"@openzeppelin/contracts-upgradeable/utils/ContextUpgradeable.sol\":850:946  function _msgSender() internal view virtual returns (address) {... */\n      swap1\n      jump\t// out\n        /* \"@openzeppelin/contracts-upgradeable/access/OwnableUpgradeable.sol\":1104:1215  function __Ownable_init_unchained() internal onlyInitializing {... */\n    tag_253:\n        /* \"@openzeppelin/contracts-upgradeable/proxy/utils/Initializable.sol\":5363:5376  _initializing */\n      0x00\n      0x01\n      swap1\n      sload\n      swap1\n      0x0100\n      exp\n      swap1\n      div\n      0xff\n      and\n        /* \"@openzeppelin/contracts-upgradeable/proxy/utils/Initializable.sol\":5355:5424  require(_initializing, \"Initializable: contract is not initializing\") */\n      tag_261\n      jumpi\n      mload(0x40)\n      0x08c379a000000000000000000000000000000000000000000000000000000000\n      dup2\n      mstore\n      0x04\n      add\n      tag_262\n      swap1\n      tag_250\n      jump\t// in\n    tag_262:\n      mload(0x40)\n      dup1\n      swap2\n      sub\n      swap1\n      revert\n    tag_261:\n        /* \"@openzeppelin/contracts-upgradeable/access/OwnableUpgradeable.sol\":1176:1208  _transferOwnership(_msgSender()) */\n      tag_264\n        /* \"@openzeppelin/contracts-upgradeable/access/OwnableUpgradeable.sol\":1195:1207  _msgSender() */\n      tag_265\n        /* \"@openzeppelin/contracts-upgradeable/access/OwnableUpgradeable.sol\":1195:1205  _msgSender */\n      tag_240\n        /* \"@openzeppelin/contracts-upgradeable/access/OwnableUpgradeable.sol\":1195:1207  _msgSender() */\n      jump\t// in\n    tag_265:\n        /* \"@openzeppelin/contracts-upgradeable/access/OwnableUpgradeable.sol\":1176:1194  _transferOwnership */\n      tag_130\n        /* \"@openzeppelin/contracts-upgradeable/access/OwnableUpgradeable.sol\":1176:1208  _transferOwnership(_msgSender()) */\n      jump\t// in\n    tag_264:\n        /* \"@openzeppelin/contracts-upgradeable/access/OwnableUpgradeable.sol\":1104:1215  function __Ownable_init_unchained() internal onlyInitializing {... */\n      jump\t// out\n        /* \"#utility.yul\":88:205   */\n    tag_267:\n        /* \"#utility.yul\":197:198   */\n      0x00\n        /* \"#utility.yul\":194:195   */\n      dup1\n        /* \"#utility.yul\":187:199   */\n      revert\n        /* \"#utility.yul\":334:411   */\n    tag_269:\n        /* \"#utility.yul\":371:378   */\n      0x00\n        /* \"#utility.yul\":400:405   */\n      dup2\n        /* \"#utility.yul\":389:405   */\n      swap1\n      pop\n        /* \"#utility.yul\":334:411   */\n      swap2\n      swap1\n      pop\n      jump\t// out\n        /* \"#utility.yul\":417:539   */\n    tag_270:\n        /* \"#utility.yul\":490:514   */\n      tag_311\n        /* \"#utility.yul\":508:513   */\n      dup2\n        /* \"#utility.yul\":490:514   */\n      tag_269\n      jump\t// in\n    tag_311:\n        /* \"#utility.yul\":483:488   */\n      dup2\n        /* \"#utility.yul\":480:515   */\n      eq\n        /* \"#utility.yul\":470:533   */\n      tag_312\n      jumpi\n        /* \"#utility.yul\":529:530   */\n      0x00\n        /* \"#utility.yul\":526:527   */\n      dup1\n        /* \"#utility.yul\":519:531   */\n      revert\n        /* \"#utility.yul\":470:533   */\n    tag_312:\n        /* \"#utility.yul\":417:539   */\n      pop\n      jump\t// out\n        /* \"#utility.yul\":545:684   */\n    tag_271:\n        /* \"#utility.yul\":591:596   */\n      0x00\n        /* \"#utility.yul\":629:635   */\n      dup2\n        /* \"#utility.yul\":616:636   */\n      calldataload\n        /* \"#utility.yul\":607:636   */\n      swap1\n      pop\n        /* \"#utility.yul\":645:678   */\n      tag_314\n        /* \"#utility.yul\":672:677   */\n      dup2\n        /* \"#utility.yul\":645:678   */\n      tag_270\n      jump\t// in\n    tag_314:\n        /* \"#utility.yul\":545:684   */\n      swap3\n      swap2\n      pop\n      pop\n      jump\t// out\n        /* \"#utility.yul\":690:1164   */\n    tag_31:\n        /* \"#utility.yul\":758:764   */\n      0x00\n        /* \"#utility.yul\":766:772   */\n      dup1\n        /* \"#utility.yul\":815:817   */\n      0x40\n        /* \"#utility.yul\":803:812   */\n      dup4\n        /* \"#utility.yul\":794:801   */\n      dup6\n        /* \"#utility.yul\":790:813   */\n      sub\n        /* \"#utility.yul\":786:818   */\n      slt\n        /* \"#utility.yul\":783:902   */\n      iszero\n      tag_316\n      jumpi\n        /* \"#utility.yul\":821:900   */\n      tag_317\n      tag_267\n      jump\t// in\n    tag_317:\n        /* \"#utility.yul\":783:902   */\n    tag_316:\n        /* \"#utility.yul\":941:942   */\n      0x00\n        /* \"#utility.yul\":966:1019   */\n      tag_318\n        /* \"#utility.yul\":1011:1018   */\n      dup6\n        /* \"#utility.yul\":1002:1008   */\n      dup3\n        /* \"#utility.yul\":991:1000   */\n      dup7\n        /* \"#utility.yul\":987:1009   */\n      add\n        /* \"#utility.yul\":966:1019   */\n      tag_271\n      jump\t// in\n    tag_318:\n        /* \"#utility.yul\":956:1019   */\n      swap3\n      pop\n        /* \"#utility.yul\":912:1029   */\n      pop\n        /* \"#utility.yul\":1068:1070   */\n      0x20\n        /* \"#utility.yul\":1094:1147   */\n      tag_319\n        /* \"#utility.yul\":1139:1146   */\n      dup6\n        /* \"#utility.yul\":1130:1136   */\n      dup3\n        /* \"#utility.yul\":1119:1128   */\n      dup7\n        /* \"#utility.yul\":1115:1137   */\n      add\n        /* \"#utility.yul\":1094:1147   */\n      tag_271\n      jump\t// in\n    tag_319:\n        /* \"#utility.yul\":1084:1147   */\n      swap2\n      pop\n        /* \"#utility.yul\":1039:1157   */\n      pop\n        /* \"#utility.yul\":690:1164   */\n      swap3\n      pop\n      swap3\n      swap1\n      pop\n      jump\t// out\n        /* \"#utility.yul\":1170:1296   */\n    tag_272:\n        /* \"#utility.yul\":1207:1214   */\n      0x00\n        /* \"#utility.yul\":1247:1289   */\n      0xffffffffffffffffffffffffffffffffffffffff\n        /* \"#utility.yul\":1240:1245   */\n      dup3\n        /* \"#utility.yul\":1236:1290   */\n      and\n        /* \"#utility.yul\":1225:1290   */\n      swap1\n      pop\n        /* \"#utility.yul\":1170:1296   */\n      swap2\n      swap1\n      pop\n      jump\t// out\n        /* \"#utility.yul\":1302:1398   */\n    tag_273:\n        /* \"#utility.yul\":1339:1346   */\n      0x00\n        /* \"#utility.yul\":1368:1392   */\n      tag_322\n        /* \"#utility.yul\":1386:1391   */\n      dup3\n        /* \"#utility.yul\":1368:1392   */\n      tag_272\n      jump\t// in\n    tag_322:\n        /* \"#utility.yul\":1357:1392   */\n      swap1\n      pop\n        /* \"#utility.yul\":1302:1398   */\n      swap2\n      swap1\n      pop\n      jump\t// out\n        /* \"#utility.yul\":1404:1526   */\n    tag_274:\n        /* \"#utility.yul\":1477:1501   */\n      tag_324\n        /* \"#utility.yul\":1495:1500   */\n      dup2\n        /* \"#utility.yul\":1477:1501   */\n      tag_273\n      jump\t// in\n    tag_324:\n        /* \"#utility.yul\":1470:1475   */\n      dup2\n        /* \"#utility.yul\":1467:1502   */\n      eq\n        /* \"#utility.yul\":1457:1520   */\n      tag_325\n      jumpi\n        /* \"#utility.yul\":1516:1517   */\n      0x00\n        /* \"#utility.yul\":1513:1514   */\n      dup1\n        /* \"#utility.yul\":1506:1518   */\n      revert\n        /* \"#utility.yul\":1457:1520   */\n    tag_325:\n        /* \"#utility.yul\":1404:1526   */\n      pop\n      jump\t// out\n        /* \"#utility.yul\":1532:1671   */\n    tag_275:\n        /* \"#utility.yul\":1578:1583   */\n      0x00\n        /* \"#utility.yul\":1616:1622   */\n      dup2\n        /* \"#utility.yul\":1603:1623   */\n      calldataload\n        /* \"#utility.yul\":1594:1623   */\n      swap1\n      pop\n        /* \"#utility.yul\":1632:1665   */\n      tag_327\n        /* \"#utility.yul\":1659:1664   */\n      dup2\n        /* \"#utility.yul\":1632:1665   */\n      tag_274\n      jump\t// in\n    tag_327:\n        /* \"#utility.yul\":1532:1671   */\n      swap3\n      swap2\n      pop\n      pop\n      jump\t// out\n        /* \"#utility.yul\":1677:2006   */\n    tag_36:\n        /* \"#utility.yul\":1736:1742   */\n      0x00\n        /* \"#utility.yul\":1785:1787   */\n      0x20\n        /* \"#utility.yul\":1773:1782   */\n      dup3\n        /* \"#utility.yul\":1764:1771   */\n      dup5\n        /* \"#utility.yul\":1760:1783   */\n      sub\n        /* \"#utility.yul\":1756:1788   */\n      slt\n        /* \"#utility.yul\":1753:1872   */\n      iszero\n      tag_329\n      jumpi\n        /* \"#utility.yul\":1791:1870   */\n      tag_330\n      tag_267\n      jump\t// in\n    tag_330:\n        /* \"#utility.yul\":1753:1872   */\n    tag_329:\n        /* \"#utility.yul\":1911:1912   */\n      0x00\n        /* \"#utility.yul\":1936:1989   */\n      tag_331\n        /* \"#utility.yul\":1981:1988   */\n      dup5\n        /* \"#utility.yul\":1972:1978   */\n      dup3\n        /* \"#utility.yul\":1961:1970   */\n      dup6\n        /* \"#utility.yul\":1957:1979   */\n      add\n        /* \"#utility.yul\":1936:1989   */\n      tag_275\n      jump\t// in\n    tag_331:\n        /* \"#utility.yul\":1926:1989   */\n      swap2\n      pop\n        /* \"#utility.yul\":1882:1999   */\n      pop\n        /* \"#utility.yul\":1677:2006   */\n      swap3\n      swap2\n      pop\n      pop\n      jump\t// out\n        /* \"#utility.yul\":2012:2102   */\n    tag_276:\n        /* \"#utility.yul\":2046:2053   */\n      0x00\n        /* \"#utility.yul\":2089:2094   */\n      dup2\n        /* \"#utility.yul\":2082:2095   */\n      iszero\n        /* \"#utility.yul\":2075:2096   */\n      iszero\n        /* \"#utility.yul\":2064:2096   */\n      swap1\n      pop\n        /* \"#utility.yul\":2012:2102   */\n      swap2\n      swap1\n      pop\n      jump\t// out\n        /* \"#utility.yul\":2108:2217   */\n    tag_277:\n        /* \"#utility.yul\":2189:2210   */\n      tag_334\n        /* \"#utility.yul\":2204:2209   */\n      dup2\n        /* \"#utility.yul\":2189:2210   */\n      tag_276\n      jump\t// in\n    tag_334:\n        /* \"#utility.yul\":2184:2187   */\n      dup3\n        /* \"#utility.yul\":2177:2211   */\n      mstore\n        /* \"#utility.yul\":2108:2217   */\n      pop\n      pop\n      jump\t// out\n        /* \"#utility.yul\":2223:2433   */\n    tag_43:\n        /* \"#utility.yul\":2310:2314   */\n      0x00\n        /* \"#utility.yul\":2348:2350   */\n      0x20\n        /* \"#utility.yul\":2337:2346   */\n      dup3\n        /* \"#utility.yul\":2333:2351   */\n      add\n        /* \"#utility.yul\":2325:2351   */\n      swap1\n      pop\n        /* \"#utility.yul\":2361:2426   */\n      tag_336\n        /* \"#utility.yul\":2423:2424   */\n      0x00\n        /* \"#utility.yul\":2412:2421   */\n      dup4\n        /* \"#utility.yul\":2408:2425   */\n      add\n        /* \"#utility.yul\":2399:2405   */\n      dup5\n        /* \"#utility.yul\":2361:2426   */\n      tag_277\n      jump\t// in\n    tag_336:\n        /* \"#utility.yul\":2223:2433   */\n      swap3\n      swap2\n      pop\n      pop\n      jump\t// out\n        /* \"#utility.yul\":2439:2557   */\n    tag_278:\n        /* \"#utility.yul\":2526:2550   */\n      tag_338\n        /* \"#utility.yul\":2544:2549   */\n      dup2\n        /* \"#utility.yul\":2526:2550   */\n      tag_269\n      jump\t// in\n    tag_338:\n        /* \"#utility.yul\":2521:2524   */\n      dup3\n        /* \"#utility.yul\":2514:2551   */\n      mstore\n        /* \"#utility.yul\":2439:2557   */\n      pop\n      pop\n      jump\t// out\n        /* \"#utility.yul\":2563:2785   */\n    tag_51:\n        /* \"#utility.yul\":2656:2660   */\n      0x00\n        /* \"#utility.yul\":2694:2696   */\n      0x20\n        /* \"#utility.yul\":2683:2692   */\n      dup3\n        /* \"#utility.yul\":2679:2697   */\n      add\n        /* \"#utility.yul\":2671:2697   */\n      swap1\n      pop\n        /* \"#utility.yul\":2707:2778   */\n      tag_340\n        /* \"#utility.yul\":2775:2776   */\n      0x00\n        /* \"#utility.yul\":2764:2773   */\n      dup4\n        /* \"#utility.yul\":2760:2777   */\n      add\n        /* \"#utility.yul\":2751:2757   */\n      dup5\n        /* \"#utility.yul\":2707:2778   */\n      tag_278\n      jump\t// in\n    tag_340:\n        /* \"#utility.yul\":2563:2785   */\n      swap3\n      swap2\n      pop\n      pop\n      jump\t// out\n        /* \"#utility.yul\":2791:2909   */\n    tag_279:\n        /* \"#utility.yul\":2878:2902   */\n      tag_342\n        /* \"#utility.yul\":2896:2901   */\n      dup2\n        /* \"#utility.yul\":2878:2902   */\n      tag_273\n      jump\t// in\n    tag_342:\n        /* \"#utility.yul\":2873:2876   */\n      dup3\n        /* \"#utility.yul\":2866:2903   */\n      mstore\n        /* \"#utility.yul\":2791:2909   */\n      pop\n      pop\n      jump\t// out\n        /* \"#utility.yul\":2915:3137   */\n    tag_56:\n        /* \"#utility.yul\":3008:3012   */\n      0x00\n        /* \"#utility.yul\":3046:3048   */\n      0x20\n        /* \"#utility.yul\":3035:3044   */\n      dup3\n        /* \"#utility.yul\":3031:3049   */\n      add\n        /* \"#utility.yul\":3023:3049   */\n      swap1\n      pop\n        /* \"#utility.yul\":3059:3130   */\n      tag_344\n        /* \"#utility.yul\":3127:3128   */\n      0x00\n        /* \"#utility.yul\":3116:3125   */\n      dup4\n        /* \"#utility.yul\":3112:3129   */\n      add\n        /* \"#utility.yul\":3103:3109   */\n      dup5\n        /* \"#utility.yul\":3059:3130   */\n      tag_279\n      jump\t// in\n    tag_344:\n        /* \"#utility.yul\":2915:3137   */\n      swap3\n      swap2\n      pop\n      pop\n      jump\t// out\n        /* \"#utility.yul\":3143:3762   */\n    tag_76:\n        /* \"#utility.yul\":3220:3226   */\n      0x00\n        /* \"#utility.yul\":3228:3234   */\n      dup1\n        /* \"#utility.yul\":3236:3242   */\n      0x00\n        /* \"#utility.yul\":3285:3287   */\n      0x60\n        /* \"#utility.yul\":3273:3282   */\n      dup5\n        /* \"#utility.yul\":3264:3271   */\n      dup7\n        /* \"#utility.yul\":3260:3283   */\n      sub\n        /* \"#utility.yul\":3256:3288   */\n      slt\n        /* \"#utility.yul\":3253:3372   */\n      iszero\n      tag_346\n      jumpi\n        /* \"#utility.yul\":3291:3370   */\n      tag_347\n      tag_267\n      jump\t// in\n    tag_347:\n        /* \"#utility.yul\":3253:3372   */\n    tag_346:\n        /* \"#utility.yul\":3411:3412   */\n      0x00\n        /* \"#utility.yul\":3436:3489   */\n      tag_348\n        /* \"#utility.yul\":3481:3488   */\n      dup7\n        /* \"#utility.yul\":3472:3478   */\n      dup3\n        /* \"#utility.yul\":3461:3470   */\n      dup8\n        /* \"#utility.yul\":3457:3479   */\n      add\n        /* \"#utility.yul\":3436:3489   */\n      tag_275\n      jump\t// in\n    tag_348:\n        /* \"#utility.yul\":3426:3489   */\n      swap4\n      pop\n        /* \"#utility.yul\":3382:3499   */\n      pop\n        /* \"#utility.yul\":3538:3540   */\n      0x20\n        /* \"#utility.yul\":3564:3617   */\n      tag_349\n        /* \"#utility.yul\":3609:3616   */\n      dup7\n        /* \"#utility.yul\":3600:3606   */\n      dup3\n        /* \"#utility.yul\":3589:3598   */\n      dup8\n        /* \"#utility.yul\":3585:3607   */\n      add\n        /* \"#utility.yul\":3564:3617   */\n      tag_275\n      jump\t// in\n    tag_349:\n        /* \"#utility.yul\":3554:3617   */\n      swap3\n      pop\n        /* \"#utility.yul\":3509:3627   */\n      pop\n        /* \"#utility.yul\":3666:3668   */\n      0x40\n        /* \"#utility.yul\":3692:3745   */\n      tag_350\n        /* \"#utility.yul\":3737:3744   */\n      dup7\n        /* \"#utility.yul\":3728:3734   */\n      dup3\n        /* \"#utility.yul\":3717:3726   */\n      dup8\n        /* \"#utility.yul\":3713:3735   */\n      add\n        /* \"#utility.yul\":3692:3745   */\n      tag_275\n      jump\t// in\n    tag_350:\n        /* \"#utility.yul\":3682:3745   */\n      swap2\n      pop\n        /* \"#utility.yul\":3637:3755   */\n      pop\n        /* \"#utility.yul\":3143:3762   */\n      swap3\n      pop\n      swap3\n      pop\n      swap3\n      jump\t// out\n        /* \"#utility.yul\":3768:3884   */\n    tag_280:\n        /* \"#utility.yul\":3838:3859   */\n      tag_352\n        /* \"#utility.yul\":3853:3858   */\n      dup2\n        /* \"#utility.yul\":3838:3859   */\n      tag_276\n      jump\t// in\n    tag_352:\n        /* \"#utility.yul\":3831:3836   */\n      dup2\n        /* \"#utility.yul\":3828:3860   */\n      eq\n        /* \"#utility.yul\":3818:3878   */\n      tag_353\n      jumpi\n        /* \"#utility.yul\":3874:3875   */\n      0x00\n        /* \"#utility.yul\":3871:3872   */\n      dup1\n        /* \"#utility.yul\":3864:3876   */\n      revert\n        /* \"#utility.yul\":3818:3878   */\n    tag_353:\n        /* \"#utility.yul\":3768:3884   */\n      pop\n      jump\t// out\n        /* \"#utility.yul\":3890:4023   */\n    tag_281:\n        /* \"#utility.yul\":3933:3938   */\n      0x00\n        /* \"#utility.yul\":3971:3977   */\n      dup2\n        /* \"#utility.yul\":3958:3978   */\n      calldataload\n        /* \"#utility.yul\":3949:3978   */\n      swap1\n      pop\n        /* \"#utility.yul\":3987:4017   */\n      tag_355\n        /* \"#utility.yul\":4011:4016   */\n      dup2\n        /* \"#utility.yul\":3987:4017   */\n      tag_280\n      jump\t// in\n    tag_355:\n        /* \"#utility.yul\":3890:4023   */\n      swap3\n      swap2\n      pop\n      pop\n      jump\t// out\n        /* \"#utility.yul\":4029:4497   */\n    tag_85:\n        /* \"#utility.yul\":4094:4100   */\n      0x00\n        /* \"#utility.yul\":4102:4108   */\n      dup1\n        /* \"#utility.yul\":4151:4153   */\n      0x40\n        /* \"#utility.yul\":4139:4148   */\n      dup4\n        /* \"#utility.yul\":4130:4137   */\n      dup6\n        /* \"#utility.yul\":4126:4149   */\n      sub\n        /* \"#utility.yul\":4122:4154   */\n      slt\n        /* \"#utility.yul\":4119:4238   */\n      iszero\n      tag_357\n      jumpi\n        /* \"#utility.yul\":4157:4236   */\n      tag_358\n      tag_267\n      jump\t// in\n    tag_358:\n        /* \"#utility.yul\":4119:4238   */\n    tag_357:\n        /* \"#utility.yul\":4277:4278   */\n      0x00\n        /* \"#utility.yul\":4302:4355   */\n      tag_359\n        /* \"#utility.yul\":4347:4354   */\n      dup6\n        /* \"#utility.yul\":4338:4344   */\n      dup3\n        /* \"#utility.yul\":4327:4336   */\n      dup7\n        /* \"#utility.yul\":4323:4345   */\n      add\n        /* \"#utility.yul\":4302:4355   */\n      tag_275\n      jump\t// in\n    tag_359:\n        /* \"#utility.yul\":4292:4355   */\n      swap3\n      pop\n        /* \"#utility.yul\":4248:4365   */\n      pop\n        /* \"#utility.yul\":4404:4406   */\n      0x20\n        /* \"#utility.yul\":4430:4480   */\n      tag_360\n        /* \"#utility.yul\":4472:4479   */\n      dup6\n        /* \"#utility.yul\":4463:4469   */\n      dup3\n        /* \"#utility.yul\":4452:4461   */\n      dup7\n        /* \"#utility.yul\":4448:4470   */\n      add\n        /* \"#utility.yul\":4430:4480   */\n      tag_281\n      jump\t// in\n    tag_360:\n        /* \"#utility.yul\":4420:4480   */\n      swap2\n      pop\n        /* \"#utility.yul\":4375:4490   */\n      pop\n        /* \"#utility.yul\":4029:4497   */\n      swap3\n      pop\n      swap3\n      swap1\n      pop\n      jump\t// out\n        /* \"#utility.yul\":4503:4683   */\n    tag_282:\n        /* \"#utility.yul\":4551:4628   */\n      0x4e487b7100000000000000000000000000000000000000000000000000000000\n        /* \"#utility.yul\":4548:4549   */\n      0x00\n        /* \"#utility.yul\":4541:4629   */\n      mstore\n        /* \"#utility.yul\":4648:4652   */\n      0x11\n        /* \"#utility.yul\":4645:4646   */\n      0x04\n        /* \"#utility.yul\":4638:4653   */\n      mstore\n        /* \"#utility.yul\":4672:4676   */\n      0x24\n        /* \"#utility.yul\":4669:4670   */\n      0x00\n        /* \"#utility.yul\":4662:4677   */\n      revert\n        /* \"#utility.yul\":4689:4994   */\n    tag_118:\n        /* \"#utility.yul\":4729:4732   */\n      0x00\n        /* \"#utility.yul\":4748:4768   */\n      tag_363\n        /* \"#utility.yul\":4766:4767   */\n      dup3\n        /* \"#utility.yul\":4748:4768   */\n      tag_269\n      jump\t// in\n    tag_363:\n        /* \"#utility.yul\":4743:4768   */\n      swap2\n      pop\n        /* \"#utility.yul\":4782:4802   */\n      tag_364\n        /* \"#utility.yul\":4800:4801   */\n      dup4\n        /* \"#utility.yul\":4782:4802   */\n      tag_269\n      jump\t// in\n    tag_364:\n        /* \"#utility.yul\":4777:4802   */\n      swap3\n      pop\n        /* \"#utility.yul\":4936:4937   */\n      dup3\n        /* \"#utility.yul\":4868:4934   */\n      0xffffffffffffffffffffffffffffffffffffffffffffffffffffffffffffffff\n        /* \"#utility.yul\":4864:4938   */\n      sub\n        /* \"#utility.yul\":4861:4862   */\n      dup3\n        /* \"#utility.yul\":4858:4939   */\n      gt\n        /* \"#utility.yul\":4855:4962   */\n      iszero\n      tag_365\n      jumpi\n        /* \"#utility.yul\":4942:4960   */\n      tag_366\n      tag_282\n      jump\t// in\n    tag_366:\n        /* \"#utility.yul\":4855:4962   */\n    tag_365:\n        /* \"#utility.yul\":4986:4987   */\n      dup3\n        /* \"#utility.yul\":4983:4984   */\n      dup3\n        /* \"#utility.yul\":4979:4988   */\n      add\n        /* \"#utility.yul\":4972:4988   */\n      swap1\n      pop\n        /* \"#utility.yul\":4689:4994   */\n      swap3\n      swap2\n      pop\n      pop\n      jump\t// out\n        /* \"#utility.yul\":5000:5169   */\n    tag_283:\n        /* \"#utility.yul\":5084:5095   */\n      0x00\n        /* \"#utility.yul\":5118:5124   */\n      dup3\n        /* \"#utility.yul\":5113:5116   */\n      dup3\n        /* \"#utility.yul\":5106:5125   */\n      mstore\n        /* \"#utility.yul\":5158:5162   */\n      0x20\n        /* \"#utility.yul\":5153:5156   */\n      dup3\n        /* \"#utility.yul\":5149:5163   */\n      add\n        /* \"#utility.yul\":5134:5163   */\n      swap1\n      pop\n        /* \"#utility.yul\":5000:5169   */\n      swap3\n      swap2\n      pop\n      pop\n      jump\t// out\n        /* \"#utility.yul\":5175:5333   */\n    tag_284:\n        /* \"#utility.yul\":5315:5325   */\n      0x746f6f206d616e79000000000000000000000000000000000000000000000000\n        /* \"#utility.yul\":5311:5312   */\n      0x00\n        /* \"#utility.yul\":5303:5309   */\n      dup3\n        /* \"#utility.yul\":5299:5313   */\n      add\n        /* \"#utility.yul\":5292:5326   */\n      mstore\n        /* \"#utility.yul\":5175:5333   */\n      pop\n      jump\t// out\n        /* \"#utility.yul\":5339:5704   */\n    tag_285:\n        /* \"#utility.yul\":5481:5484   */\n      0x00\n        /* \"#utility.yul\":5502:5568   */\n      tag_370\n        /* \"#utility.yul\":5566:5567   */\n      0x08\n        /* \"#utility.yul\":5561:5564   */\n      dup4\n        /* \"#utility.yul\":5502:5568   */\n      tag_283\n      jump\t// in\n    tag_370:\n        /* \"#utility.yul\":5495:5568   */\n      swap2\n      pop\n        /* \"#utility.yul\":5577:5670   */\n      tag_371\n        /* \"#utility.yul\":5666:5669   */\n      dup3\n        /* \"#utility.yul\":5577:5670   */\n      tag_284\n      jump\t// in\n    tag_371:\n        /* \"#utility.yul\":5695:5697   */\n      0x20\n        /* \"#utility.yul\":5690:5693   */\n      dup3\n        /* \"#utility.yul\":5686:5698   */\n      add\n        /* \"#utility.yul\":5679:5698   */\n      swap1\n      pop\n        /* \"#utility.yul\":5339:5704   */\n      swap2\n      swap1\n      pop\n      jump\t// out\n        /* \"#utility.yul\":5710:6129   */\n    tag_121:\n        /* \"#utility.yul\":5876:5880   */\n      0x00\n        /* \"#utility.yul\":5914:5916   */\n      0x20\n        /* \"#utility.yul\":5903:5912   */\n      dup3\n        /* \"#utility.yul\":5899:5917   */\n      add\n        /* \"#utility.yul\":5891:5917   */\n      swap1\n      pop\n        /* \"#utility.yul\":5963:5972   */\n      dup2\n        /* \"#utility.yul\":5957:5961   */\n      dup2\n        /* \"#utility.yul\":5953:5973   */\n      sub\n        /* \"#utility.yul\":5949:5950   */\n      0x00\n        /* \"#utility.yul\":5938:5947   */\n      dup4\n        /* \"#utility.yul\":5934:5951   */\n      add\n        /* \"#utility.yul\":5927:5974   */\n      mstore\n        /* \"#utility.yul\":5991:6122   */\n      tag_373\n        /* \"#utility.yul\":6117:6121   */\n      dup2\n        /* \"#utility.yul\":5991:6122   */\n      tag_285\n      jump\t// in\n    tag_373:\n        /* \"#utility.yul\":5983:6122   */\n      swap1\n      pop\n        /* \"#utility.yul\":5710:6129   */\n      swap2\n      swap1\n      pop\n      jump\t// out\n        /* \"#utility.yul\":6135:6278   */\n    tag_286:\n        /* \"#utility.yul\":6192:6197   */\n      0x00\n        /* \"#utility.yul\":6223:6229   */\n      dup2\n        /* \"#utility.yul\":6217:6230   */\n      mload\n        /* \"#utility.yul\":6208:6230   */\n      swap1\n      pop\n        /* \"#utility.yul\":6239:6272   */\n      tag_375\n        /* \"#utility.yul\":6266:6271   */\n      dup2\n        /* \"#utility.yul\":6239:6272   */\n      tag_270\n      jump\t// in\n    tag_375:\n        /* \"#utility.yul\":6135:6278   */\n      swap3\n      swap2\n      pop\n      pop\n      jump\t// out\n        /* \"#utility.yul\":6284:6635   */\n    tag_136:\n        /* \"#utility.yul\":6354:6360   */\n      0x00\n        /* \"#utility.yul\":6403:6405   */\n      0x20\n        /* \"#utility.yul\":6391:6400   */\n      dup3\n        /* \"#utility.yul\":6382:6389   */\n      dup5\n        /* \"#utility.yul\":6378:6401   */\n      sub\n        /* \"#utility.yul\":6374:6406   */\n      slt\n        /* \"#utility.yul\":6371:6490   */\n      iszero\n      tag_377\n      jumpi\n        /* \"#utility.yul\":6409:6488   */\n      tag_378\n      tag_267\n      jump\t// in\n    tag_378:\n        /* \"#utility.yul\":6371:6490   */\n    tag_377:\n        /* \"#utility.yul\":6529:6530   */\n      0x00\n        /* \"#utility.yul\":6554:6618   */\n      tag_379\n        /* \"#utility.yul\":6610:6617   */\n      dup5\n        /* \"#utility.yul\":6601:6607   */\n      dup3\n        /* \"#utility.yul\":6590:6599   */\n      dup6\n        /* \"#utility.yul\":6586:6608   */\n      add\n        /* \"#utility.yul\":6554:6618   */\n      tag_286\n      jump\t// in\n    tag_379:\n        /* \"#utility.yul\":6544:6618   */\n      swap2\n      pop\n        /* \"#utility.yul\":6500:6628   */\n      pop\n        /* \"#utility.yul\":6284:6635   */\n      swap3\n      swap2\n      pop\n      pop\n      jump\t// out\n        /* \"#utility.yul\":6641:6874   */\n    tag_287:\n        /* \"#utility.yul\":6781:6815   */\n      0x496e697469616c697a61626c653a20636f6e747261637420697320616c726561\n        /* \"#utility.yul\":6777:6778   */\n      0x00\n        /* \"#utility.yul\":6769:6775   */\n      dup3\n        /* \"#utility.yul\":6765:6779   */\n      add\n        /* \"#utility.yul\":6758:6816   */\n      mstore\n        /* \"#utility.yul\":6850:6866   */\n      0x647920696e697469616c697a6564000000000000000000000000000000000000\n        /* \"#utility.yul\":6845:6847   */\n      0x20\n        /* \"#utility.yul\":6837:6843   */\n      dup3\n        /* \"#utility.yul\":6833:6848   */\n      add\n        /* \"#utility.yul\":6826:6867   */\n      mstore\n        /* \"#utility.yul\":6641:6874   */\n      pop\n      jump\t// out\n        /* \"#utility.yul\":6880:7246   */\n    tag_288:\n        /* \"#utility.yul\":7022:7025   */\n      0x00\n        /* \"#utility.yul\":7043:7110   */\n      tag_382\n        /* \"#utility.yul\":7107:7109   */\n      0x2e\n        /* \"#utility.yul\":7102:7105   */\n      dup4\n        /* \"#utility.yul\":7043:7110   */\n      tag_283\n      jump\t// in\n    tag_382:\n        /* \"#utility.yul\":7036:7110   */\n      swap2\n      pop\n        /* \"#utility.yul\":7119:7212   */\n      tag_383\n        /* \"#utility.yul\":7208:7211   */\n      dup3\n        /* \"#utility.yul\":7119:7212   */\n      tag_287\n      jump\t// in\n    tag_383:\n        /* \"#utility.yul\":7237:7239   */\n      0x40\n        /* \"#utility.yul\":7232:7235   */\n      dup3\n        /* \"#utility.yul\":7228:7240   */\n      add\n        /* \"#utility.yul\":7221:7240   */\n      swap1\n      pop\n        /* \"#utility.yul\":6880:7246   */\n      swap2\n      swap1\n      pop\n      jump\t// out\n        /* \"#utility.yul\":7252:7671   */\n    tag_150:\n        /* \"#utility.yul\":7418:7422   */\n      0x00\n        /* \"#utility.yul\":7456:7458   */\n      0x20\n        /* \"#utility.yul\":7445:7454   */\n      dup3\n        /* \"#utility.yul\":7441:7459   */\n      add\n        /* \"#utility.yul\":7433:7459   */\n      swap1\n      pop\n        /* \"#utility.yul\":7505:7514   */\n      dup2\n        /* \"#utility.yul\":7499:7503   */\n      dup2\n        /* \"#utility.yul\":7495:7515   */\n      sub\n        /* \"#utility.yul\":7491:7492   */\n      0x00\n        /* \"#utility.yul\":7480:7489   */\n      dup4\n        /* \"#utility.yul\":7476:7493   */\n      add\n        /* \"#utility.yul\":7469:7516   */\n      mstore\n        /* \"#utility.yul\":7533:7664   */\n      tag_385\n        /* \"#utility.yul\":7659:7663   */\n      dup2\n        /* \"#utility.yul\":7533:7664   */\n      tag_288\n      jump\t// in\n    tag_385:\n        /* \"#utility.yul\":7525:7664   */\n      swap1\n      pop\n        /* \"#utility.yul\":7252:7671   */\n      swap2\n      swap1\n      pop\n      jump\t// out\n        /* \"#utility.yul\":7677:7762   */\n    tag_289:\n        /* \"#utility.yul\":7722:7729   */\n      0x00\n        /* \"#utility.yul\":7751:7756   */\n      dup2\n        /* \"#utility.yul\":7740:7756   */\n      swap1\n      pop\n        /* \"#utility.yul\":7677:7762   */\n      swap2\n      swap1\n      pop\n      jump\t// out\n        /* \"#utility.yul\":7768:7854   */\n    tag_290:\n        /* \"#utility.yul\":7803:7810   */\n      0x00\n        /* \"#utility.yul\":7843:7847   */\n      0xff\n        /* \"#utility.yul\":7836:7841   */\n      dup3\n        /* \"#utility.yul\":7832:7848   */\n      and\n        /* \"#utility.yul\":7821:7848   */\n      swap1\n      pop\n        /* \"#utility.yul\":7768:7854   */\n      swap2\n      swap1\n      pop\n      jump\t// out\n        /* \"#utility.yul\":7860:7920   */\n    tag_291:\n        /* \"#utility.yul\":7888:7891   */\n      0x00\n        /* \"#utility.yul\":7909:7914   */\n      dup2\n        /* \"#utility.yul\":7902:7914   */\n      swap1\n      pop\n        /* \"#utility.yul\":7860:7920   */\n      swap2\n      swap1\n      pop\n      jump\t// out\n        /* \"#utility.yul\":7926:8080   */\n    tag_292:\n        /* \"#utility.yul\":7982:7991   */\n      0x00\n        /* \"#utility.yul\":8015:8074   */\n      tag_390\n        /* \"#utility.yul\":8031:8073   */\n      tag_391\n        /* \"#utility.yul\":8040:8072   */\n      tag_392\n        /* \"#utility.yul\":8066:8071   */\n      dup5\n        /* \"#utility.yul\":8040:8072   */\n      tag_289\n      jump\t// in\n    tag_392:\n        /* \"#utility.yul\":8031:8073   */\n      tag_291\n      jump\t// in\n    tag_391:\n        /* \"#utility.yul\":8015:8074   */\n      tag_290\n      jump\t// in\n    tag_390:\n        /* \"#utility.yul\":8002:8074   */\n      swap1\n      pop\n        /* \"#utility.yul\":7926:8080   */\n      swap2\n      swap1\n      pop\n      jump\t// out\n        /* \"#utility.yul\":8086:8229   */\n    tag_293:\n        /* \"#utility.yul\":8179:8222   */\n      tag_394\n        /* \"#utility.yul\":8216:8221   */\n      dup2\n        /* \"#utility.yul\":8179:8222   */\n      tag_292\n      jump\t// in\n    tag_394:\n        /* \"#utility.yul\":8174:8177   */\n      dup3\n        /* \"#utility.yul\":8167:8223   */\n      mstore\n        /* \"#utility.yul\":8086:8229   */\n      pop\n      pop\n      jump\t// out\n        /* \"#utility.yul\":8235:8469   */\n    tag_157:\n        /* \"#utility.yul\":8334:8338   */\n      0x00\n        /* \"#utility.yul\":8372:8374   */\n      0x20\n        /* \"#utility.yul\":8361:8370   */\n      dup3\n        /* \"#utility.yul\":8357:8375   */\n      add\n        /* \"#utility.yul\":8349:8375   */\n      swap1\n      pop\n        /* \"#utility.yul\":8385:8462   */\n      tag_396\n        /* \"#utility.yul\":8459:8460   */\n      0x00\n        /* \"#utility.yul\":8448:8457   */\n      dup4\n        /* \"#utility.yul\":8444:8461   */\n      add\n        /* \"#utility.yul\":8435:8441   */\n      dup5\n        /* \"#utility.yul\":8385:8462   */\n      tag_293\n      jump\t// in\n    tag_396:\n        /* \"#utility.yul\":8235:8469   */\n      swap3\n      swap2\n      pop\n      pop\n      jump\t// out\n        /* \"#utility.yul\":8475:8700   */\n    tag_294:\n        /* \"#utility.yul\":8615:8649   */\n      0x4f776e61626c653a206e6577206f776e657220697320746865207a65726f2061\n        /* \"#utility.yul\":8611:8612   */\n      0x00\n        /* \"#utility.yul\":8603:8609   */\n      dup3\n        /* \"#utility.yul\":8599:8613   */\n      add\n        /* \"#utility.yul\":8592:8650   */\n      mstore\n        /* \"#utility.yul\":8684:8692   */\n      0x6464726573730000000000000000000000000000000000000000000000000000\n        /* \"#utility.yul\":8679:8681   */\n      0x20\n        /* \"#utility.yul\":8671:8677   */\n      dup3\n        /* \"#utility.yul\":8667:8682   */\n      add\n        /* \"#utility.yul\":8660:8693   */\n      mstore\n        /* \"#utility.yul\":8475:8700   */\n      pop\n      jump\t// out\n        /* \"#utility.yul\":8706:9072   */\n    tag_295:\n        /* \"#utility.yul\":8848:8851   */\n      0x00\n        /* \"#utility.yul\":8869:8936   */\n      tag_399\n        /* \"#utility.yul\":8933:8935   */\n      0x26\n        /* \"#utility.yul\":8928:8931   */\n      dup4\n        /* \"#utility.yul\":8869:8936   */\n      tag_283\n      jump\t// in\n    tag_399:\n        /* \"#utility.yul\":8862:8936   */\n      swap2\n      pop\n        /* \"#utility.yul\":8945:9038   */\n      tag_400\n        /* \"#utility.yul\":9034:9037   */\n      dup3\n        /* \"#utility.yul\":8945:9038   */\n      tag_294\n      jump\t// in\n    tag_400:\n        /* \"#utility.yul\":9063:9065   */\n      0x40\n        /* \"#utility.yul\":9058:9061   */\n      dup3\n        /* \"#utility.yul\":9054:9066   */\n      add\n        /* \"#utility.yul\":9047:9066   */\n      swap1\n      pop\n        /* \"#utility.yul\":8706:9072   */\n      swap2\n      swap1\n      pop\n      jump\t// out\n        /* \"#utility.yul\":9078:9497   */\n    tag_173:\n        /* \"#utility.yul\":9244:9248   */\n      0x00\n        /* \"#utility.yul\":9282:9284   */\n      0x20\n        /* \"#utility.yul\":9271:9280   */\n      dup3\n        /* \"#utility.yul\":9267:9285   */\n      add\n        /* \"#utility.yul\":9259:9285   */\n      swap1\n      pop\n        /* \"#utility.yul\":9331:9340   */\n      dup2\n        /* \"#utility.yul\":9325:9329   */\n      dup2\n        /* \"#utility.yul\":9321:9341   */\n      sub\n        /* \"#utility.yul\":9317:9318   */\n      0x00\n        /* \"#utility.yul\":9306:9315   */\n      dup4\n        /* \"#utility.yul\":9302:9319   */\n      add\n        /* \"#utility.yul\":9295:9342   */\n      mstore\n        /* \"#utility.yul\":9359:9490   */\n      tag_402\n        /* \"#utility.yul\":9485:9489   */\n      dup2\n        /* \"#utility.yul\":9359:9490   */\n      tag_295\n      jump\t// in\n    tag_402:\n        /* \"#utility.yul\":9351:9490   */\n      swap1\n      pop\n        /* \"#utility.yul\":9078:9497   */\n      swap2\n      swap1\n      pop\n      jump\t// out\n        /* \"#utility.yul\":9503:9835   */\n    tag_184:\n        /* \"#utility.yul\":9624:9628   */\n      0x00\n        /* \"#utility.yul\":9662:9664   */\n      0x40\n        /* \"#utility.yul\":9651:9660   */\n      dup3\n        /* \"#utility.yul\":9647:9665   */\n      add\n        /* \"#utility.yul\":9639:9665   */\n      swap1\n      pop\n        /* \"#utility.yul\":9675:9746   */\n      tag_404\n        /* \"#utility.yul\":9743:9744   */\n      0x00\n        /* \"#utility.yul\":9732:9741   */\n      dup4\n        /* \"#utility.yul\":9728:9745   */\n      add\n        /* \"#utility.yul\":9719:9725   */\n      dup6\n        /* \"#utility.yul\":9675:9746   */\n      tag_279\n      jump\t// in\n    tag_404:\n        /* \"#utility.yul\":9756:9828   */\n      tag_405\n        /* \"#utility.yul\":9824:9826   */\n      0x20\n        /* \"#utility.yul\":9813:9822   */\n      dup4\n        /* \"#utility.yul\":9809:9827   */\n      add\n        /* \"#utility.yul\":9800:9806   */\n      dup5\n        /* \"#utility.yul\":9756:9828   */\n      tag_278\n      jump\t// in\n    tag_405:\n        /* \"#utility.yul\":9503:9835   */\n      swap4\n      swap3\n      pop\n      pop\n      pop\n      jump\t// out\n        /* \"#utility.yul\":9841:9978   */\n    tag_296:\n        /* \"#utility.yul\":9895:9900   */\n      0x00\n        /* \"#utility.yul\":9926:9932   */\n      dup2\n        /* \"#utility.yul\":9920:9933   */\n      mload\n        /* \"#utility.yul\":9911:9933   */\n      swap1\n      pop\n        /* \"#utility.yul\":9942:9972   */\n      tag_407\n        /* \"#utility.yul\":9966:9971   */\n      dup2\n        /* \"#utility.yul\":9942:9972   */\n      tag_280\n      jump\t// in\n    tag_407:\n        /* \"#utility.yul\":9841:9978   */\n      swap3\n      swap2\n      pop\n      pop\n      jump\t// out\n        /* \"#utility.yul\":9984:10329   */\n    tag_188:\n        /* \"#utility.yul\":10051:10057   */\n      0x00\n        /* \"#utility.yul\":10100:10102   */\n      0x20\n        /* \"#utility.yul\":10088:10097   */\n      dup3\n        /* \"#utility.yul\":10079:10086   */\n      dup5\n        /* \"#utility.yul\":10075:10098   */\n      sub\n        /* \"#utility.yul\":10071:10103   */\n      slt\n        /* \"#utility.yul\":10068:10187   */\n      iszero\n      tag_409\n      jumpi\n        /* \"#utility.yul\":10106:10185   */\n      tag_410\n      tag_267\n      jump\t// in\n    tag_410:\n        /* \"#utility.yul\":10068:10187   */\n    tag_409:\n        /* \"#utility.yul\":10226:10227   */\n      0x00\n        /* \"#utility.yul\":10251:10312   */\n      tag_411\n        /* \"#utility.yul\":10304:10311   */\n      dup5\n        /* \"#utility.yul\":10295:10301   */\n      dup3\n        /* \"#utility.yul\":10284:10293   */\n      dup6\n        /* \"#utility.yul\":10280:10302   */\n      add\n        /* \"#utility.yul\":10251:10312   */\n      tag_296\n      jump\t// in\n    tag_411:\n        /* \"#utility.yul\":10241:10312   */\n      swap2\n      pop\n        /* \"#utility.yul\":10197:10322   */\n      pop\n        /* \"#utility.yul\":9984:10329   */\n      swap3\n      swap2\n      pop\n      pop\n      jump\t// out\n        /* \"#utility.yul\":10335:10515   */\n    tag_297:\n        /* \"#utility.yul\":10383:10460   */\n      0x4e487b7100000000000000000000000000000000000000000000000000000000\n        /* \"#utility.yul\":10380:10381   */\n      0x00\n        /* \"#utility.yul\":10373:10461   */\n      mstore\n        /* \"#utility.yul\":10480:10484   */\n      0x12\n        /* \"#utility.yul\":10477:10478   */\n      0x04\n        /* \"#utility.yul\":10470:10485   */\n      mstore\n        /* \"#utility.yul\":10504:10508   */\n      0x24\n        /* \"#utility.yul\":10501:10502   */\n      0x00\n        /* \"#utility.yul\":10494:10509   */\n      revert\n        /* \"#utility.yul\":10521:10706   */\n    tag_197:\n        /* \"#utility.yul\":10561:10562   */\n      0x00\n        /* \"#utility.yul\":10578:10598   */\n      tag_414\n        /* \"#utility.yul\":10596:10597   */\n      dup3\n        /* \"#utility.yul\":10578:10598   */\n      tag_269\n      jump\t// in\n    tag_414:\n        /* \"#utility.yul\":10573:10598   */\n      swap2\n      pop\n        /* \"#utility.yul\":10612:10632   */\n      tag_415\n        /* \"#utility.yul\":10630:10631   */\n      dup4\n        /* \"#utility.yul\":10612:10632   */\n      tag_269\n      jump\t// in\n    tag_415:\n        /* \"#utility.yul\":10607:10632   */\n      swap3\n      pop\n        /* \"#utility.yul\":10651:10652   */\n      dup3\n        /* \"#utility.yul\":10641:10676   */\n      tag_416\n      jumpi\n        /* \"#utility.yul\":10656:10674   */\n      tag_417\n      tag_297\n      jump\t// in\n    tag_417:\n        /* \"#utility.yul\":10641:10676   */\n    tag_416:\n        /* \"#utility.yul\":10698:10699   */\n      dup3\n        /* \"#utility.yul\":10695:10696   */\n      dup3\n        /* \"#utility.yul\":10691:10700   */\n      div\n        /* \"#utility.yul\":10686:10700   */\n      swap1\n      pop\n        /* \"#utility.yul\":10521:10706   */\n      swap3\n      swap2\n      pop\n      pop\n      jump\t// out\n        /* \"#utility.yul\":10712:11060   */\n    tag_199:\n        /* \"#utility.yul\":10752:10759   */\n      0x00\n        /* \"#utility.yul\":10775:10795   */\n      tag_419\n        /* \"#utility.yul\":10793:10794   */\n      dup3\n        /* \"#utility.yul\":10775:10795   */\n      tag_269\n      jump\t// in\n    tag_419:\n        /* \"#utility.yul\":10770:10795   */\n      swap2\n      pop\n        /* \"#utility.yul\":10809:10829   */\n      tag_420\n        /* \"#utility.yul\":10827:10828   */\n      dup4\n        /* \"#utility.yul\":10809:10829   */\n      tag_269\n      jump\t// in\n    tag_420:\n        /* \"#utility.yul\":10804:10829   */\n      swap3\n      pop\n        /* \"#utility.yul\":10997:10998   */\n      dup2\n        /* \"#utility.yul\":10929:10995   */\n      0xffffffffffffffffffffffffffffffffffffffffffffffffffffffffffffffff\n        /* \"#utility.yul\":10925:10999   */\n      div\n        /* \"#utility.yul\":10922:10923   */\n      dup4\n        /* \"#utility.yul\":10919:11000   */\n      gt\n        /* \"#utility.yul\":10914:10915   */\n      dup3\n        /* \"#utility.yul\":10907:10916   */\n      iszero\n        /* \"#utility.yul\":10900:10917   */\n      iszero\n        /* \"#utility.yul\":10896:11001   */\n      and\n        /* \"#utility.yul\":10893:11024   */\n      iszero\n      tag_421\n      jumpi\n        /* \"#utility.yul\":11004:11022   */\n      tag_422\n      tag_282\n      jump\t// in\n    tag_422:\n        /* \"#utility.yul\":10893:11024   */\n    tag_421:\n        /* \"#utility.yul\":11052:11053   */\n      dup3\n        /* \"#utility.yul\":11049:11050   */\n      dup3\n        /* \"#utility.yul\":11045:11054   */\n      mul\n        /* \"#utility.yul\":11034:11054   */\n      swap1\n      pop\n        /* \"#utility.yul\":10712:11060   */\n      swap3\n      swap2\n      pop\n      pop\n      jump\t// out\n        /* \"#utility.yul\":11066:11151   */\n    tag_298:\n        /* \"#utility.yul\":11111:11118   */\n      0x00\n        /* \"#utility.yul\":11140:11145   */\n      dup2\n        /* \"#utility.yul\":11129:11145   */\n      swap1\n      pop\n        /* \"#utility.yul\":11066:11151   */\n      swap2\n      swap1\n      pop\n      jump\t// out\n        /* \"#utility.yul\":11157:11315   */\n    tag_299:\n        /* \"#utility.yul\":11215:11224   */\n      0x00\n        /* \"#utility.yul\":11248:11309   */\n      tag_425\n        /* \"#utility.yul\":11266:11308   */\n      tag_426\n        /* \"#utility.yul\":11275:11307   */\n      tag_427\n        /* \"#utility.yul\":11301:11306   */\n      dup5\n        /* \"#utility.yul\":11275:11307   */\n      tag_298\n      jump\t// in\n    tag_427:\n        /* \"#utility.yul\":11266:11308   */\n      tag_291\n      jump\t// in\n    tag_426:\n        /* \"#utility.yul\":11248:11309   */\n      tag_269\n      jump\t// in\n    tag_425:\n        /* \"#utility.yul\":11235:11309   */\n      swap1\n      pop\n        /* \"#utility.yul\":11157:11315   */\n      swap2\n      swap1\n      pop\n      jump\t// out\n        /* \"#utility.yul\":11321:11468   */\n    tag_300:\n        /* \"#utility.yul\":11416:11461   */\n      tag_429\n        /* \"#utility.yul\":11455:11460   */\n      dup2\n        /* \"#utility.yul\":11416:11461   */\n      tag_299\n      jump\t// in\n    tag_429:\n        /* \"#utility.yul\":11411:11414   */\n      dup3\n        /* \"#utility.yul\":11404:11462   */\n      mstore\n        /* \"#utility.yul\":11321:11468   */\n      pop\n      pop\n      jump\t// out\n        /* \"#utility.yul\":11474:11822   */\n    tag_221:\n        /* \"#utility.yul\":11603:11607   */\n      0x00\n        /* \"#utility.yul\":11641:11643   */\n      0x40\n        /* \"#utility.yul\":11630:11639   */\n      dup3\n        /* \"#utility.yul\":11626:11644   */\n      add\n        /* \"#utility.yul\":11618:11644   */\n      swap1\n      pop\n        /* \"#utility.yul\":11654:11725   */\n      tag_431\n        /* \"#utility.yul\":11722:11723   */\n      0x00\n        /* \"#utility.yul\":11711:11720   */\n      dup4\n        /* \"#utility.yul\":11707:11724   */\n      add\n        /* \"#utility.yul\":11698:11704   */\n      dup6\n        /* \"#utility.yul\":11654:11725   */\n      tag_279\n      jump\t// in\n    tag_431:\n        /* \"#utility.yul\":11735:11815   */\n      tag_432\n        /* \"#utility.yul\":11811:11813   */\n      0x20\n        /* \"#utility.yul\":11800:11809   */\n      dup4\n        /* \"#utility.yul\":11796:11814   */\n      add\n        /* \"#utility.yul\":11787:11793   */\n      dup5\n        /* \"#utility.yul\":11735:11815   */\n      tag_300\n      jump\t// in\n    tag_432:\n        /* \"#utility.yul\":11474:11822   */\n      swap4\n      swap3\n      pop\n      pop\n      pop\n      jump\t// out\n        /* \"#utility.yul\":11828:12160   */\n    tag_234:\n        /* \"#utility.yul\":11949:11953   */\n      0x00\n        /* \"#utility.yul\":11987:11989   */\n      0x40\n        /* \"#utility.yul\":11976:11985   */\n      dup3\n        /* \"#utility.yul\":11972:11990   */\n      add\n        /* \"#utility.yul\":11964:11990   */\n      swap1\n      pop\n        /* \"#utility.yul\":12000:12071   */\n      tag_434\n        /* \"#utility.yul\":12068:12069   */\n      0x00\n        /* \"#utility.yul\":12057:12066   */\n      dup4\n        /* \"#utility.yul\":12053:12070   */\n      add\n        /* \"#utility.yul\":12044:12050   */\n      dup6\n        /* \"#utility.yul\":12000:12071   */\n      tag_278\n      jump\t// in\n    tag_434:\n        /* \"#utility.yul\":12081:12153   */\n      tag_435\n        /* \"#utility.yul\":12149:12151   */\n      0x20\n        /* \"#utility.yul\":12138:12147   */\n      dup4\n        /* \"#utility.yul\":12134:12152   */\n      add\n        /* \"#utility.yul\":12125:12131   */\n      dup5\n        /* \"#utility.yul\":12081:12153   */\n      tag_278\n      jump\t// in\n    tag_435:\n        /* \"#utility.yul\":11828:12160   */\n      swap4\n      swap3\n      pop\n      pop\n      pop\n      jump\t// out\n        /* \"#utility.yul\":12166:12530   */\n    tag_237:\n        /* \"#utility.yul\":12303:12307   */\n      0x00\n        /* \"#utility.yul\":12341:12343   */\n      0x40\n        /* \"#utility.yul\":12330:12339   */\n      dup3\n        /* \"#utility.yul\":12326:12344   */\n      add\n        /* \"#utility.yul\":12318:12344   */\n      swap1\n      pop\n        /* \"#utility.yul\":12354:12433   */\n      tag_437\n        /* \"#utility.yul\":12430:12431   */\n      0x00\n        /* \"#utility.yul\":12419:12428   */\n      dup4\n        /* \"#utility.yul\":12415:12432   */\n      add\n        /* \"#utility.yul\":12406:12412   */\n      dup6\n        /* \"#utility.yul\":12354:12433   */\n      tag_300\n      jump\t// in\n    tag_437:\n        /* \"#utility.yul\":12443:12523   */\n      tag_438\n        /* \"#utility.yul\":12519:12521   */\n      0x20\n        /* \"#utility.yul\":12508:12517   */\n      dup4\n        /* \"#utility.yul\":12504:12522   */\n      add\n        /* \"#utility.yul\":12495:12501   */\n      dup5\n        /* \"#utility.yul\":12443:12523   */\n      tag_300\n      jump\t// in\n    tag_438:\n        /* \"#utility.yul\":12166:12530   */\n      swap4\n      swap3\n      pop\n      pop\n      pop\n      jump\t// out\n        /* \"#utility.yul\":12536:12718   */\n    tag_301:\n        /* \"#utility.yul\":12676:12710   */\n      0x4f776e61626c653a2063616c6c6572206973206e6f7420746865206f776e6572\n        /* \"#utility.yul\":12672:12673   */\n      0x00\n        /* \"#utility.yul\":12664:12670   */\n      dup3\n        /* \"#utility.yul\":12660:12674   */\n      add\n        /* \"#utility.yul\":12653:12711   */\n      mstore\n        /* \"#utility.yul\":12536:12718   */\n      pop\n      jump\t// out\n        /* \"#utility.yul\":12724:13090   */\n    tag_302:\n        /* \"#utility.yul\":12866:12869   */\n      0x00\n        /* \"#utility.yul\":12887:12954   */\n      tag_441\n        /* \"#utility.yul\":12951:12953   */\n      0x20\n        /* \"#utility.yul\":12946:12949   */\n      dup4\n        /* \"#utility.yul\":12887:12954   */\n      tag_283\n      jump\t// in\n    tag_441:\n        /* \"#utility.yul\":12880:12954   */\n      swap2\n      pop\n        /* \"#utility.yul\":12963:13056   */\n      tag_442\n        /* \"#utility.yul\":13052:13055   */\n      dup3\n        /* \"#utility.yul\":12963:13056   */\n      tag_301\n      jump\t// in\n    tag_442:\n        /* \"#utility.yul\":13081:13083   */\n      0x20\n        /* \"#utility.yul\":13076:13079   */\n      dup3\n        /* \"#utility.yul\":13072:13084   */\n      add\n        /* \"#utility.yul\":13065:13084   */\n      swap1\n      pop\n        /* \"#utility.yul\":12724:13090   */\n      swap2\n      swap1\n      pop\n      jump\t// out\n        /* \"#utility.yul\":13096:13515   */\n    tag_244:\n        /* \"#utility.yul\":13262:13266   */\n      0x00\n        /* \"#utility.yul\":13300:13302   */\n      0x20\n        /* \"#utility.yul\":13289:13298   */\n      dup3\n        /* \"#utility.yul\":13285:13303   */\n      add\n        /* \"#utility.yul\":13277:13303   */\n      swap1\n      pop\n        /* \"#utility.yul\":13349:13358   */\n      dup2\n        /* \"#utility.yul\":13343:13347   */\n      dup2\n        /* \"#utility.yul\":13339:13359   */\n      sub\n        /* \"#utility.yul\":13335:13336   */\n      0x00\n        /* \"#utility.yul\":13324:13333   */\n      dup4\n        /* \"#utility.yul\":13320:13337   */\n      add\n        /* \"#utility.yul\":13313:13360   */\n      mstore\n        /* \"#utility.yul\":13377:13508   */\n      tag_444\n        /* \"#utility.yul\":13503:13507   */\n      dup2\n        /* \"#utility.yul\":13377:13508   */\n      tag_302\n      jump\t// in\n    tag_444:\n        /* \"#utility.yul\":13369:13508   */\n      swap1\n      pop\n        /* \"#utility.yul\":13096:13515   */\n      swap2\n      swap1\n      pop\n      jump\t// out\n        /* \"#utility.yul\":13521:13751   */\n    tag_303:\n        /* \"#utility.yul\":13661:13695   */\n      0x496e697469616c697a61626c653a20636f6e7472616374206973206e6f742069\n        /* \"#utility.yul\":13657:13658   */\n      0x00\n        /* \"#utility.yul\":13649:13655   */\n      dup3\n        /* \"#utility.yul\":13645:13659   */\n      add\n        /* \"#utility.yul\":13638:13696   */\n      mstore\n        /* \"#utility.yul\":13730:13743   */\n      0x6e697469616c697a696e67000000000000000000000000000000000000000000\n        /* \"#utility.yul\":13725:13727   */\n      0x20\n        /* \"#utility.yul\":13717:13723   */\n      dup3\n        /* \"#utility.yul\":13713:13728   */\n      add\n        /* \"#utility.yul\":13706:13744   */\n      mstore\n        /* \"#utility.yul\":13521:13751   */\n      pop\n      jump\t// out\n        /* \"#utility.yul\":13757:14123   */\n    tag_304:\n        /* \"#utility.yul\":13899:13902   */\n      0x00\n        /* \"#utility.yul\":13920:13987   */\n      tag_447\n        /* \"#utility.yul\":13984:13986   */\n      0x2b\n        /* \"#utility.yul\":13979:13982   */\n      dup4\n        /* \"#utility.yul\":13920:13987   */\n      tag_283\n      jump\t// in\n    tag_447:\n        /* \"#utility.yul\":13913:13987   */\n      swap2\n      pop\n        /* \"#utility.yul\":13996:14089   */\n      tag_448\n        /* \"#utility.yul\":14085:14088   */\n      dup3\n        /* \"#utility.yul\":13996:14089   */\n      tag_303\n      jump\t// in\n    tag_448:\n        /* \"#utility.yul\":14114:14116   */\n      0x40\n        /* \"#utility.yul\":14109:14112   */\n      dup3\n        /* \"#utility.yul\":14105:14117   */\n      add\n        /* \"#utility.yul\":14098:14117   */\n      swap1\n      pop\n        /* \"#utility.yul\":13757:14123   */\n      swap2\n      swap1\n      pop\n      jump\t// out\n        /* \"#utility.yul\":14129:14548   */\n    tag_250:\n        /* \"#utility.yul\":14295:14299   */\n      0x00\n        /* \"#utility.yul\":14333:14335   */\n      0x20\n        /* \"#utility.yul\":14322:14331   */\n      dup3\n        /* \"#utility.yul\":14318:14336   */\n      add\n        /* \"#utility.yul\":14310:14336   */\n      swap1\n      pop\n        /* \"#utility.yul\":14382:14391   */\n      dup2\n        /* \"#utility.yul\":14376:14380   */\n      dup2\n        /* \"#utility.yul\":14372:14392   */\n      sub\n        /* \"#utility.yul\":14368:14369   */\n      0x00\n        /* \"#utility.yul\":14357:14366   */\n      dup4\n        /* \"#utility.yul\":14353:14370   */\n      add\n        /* \"#utility.yul\":14346:14393   */\n      mstore\n        /* \"#utility.yul\":14410:14541   */\n      tag_450\n        /* \"#utility.yul\":14536:14540   */\n      dup2\n        /* \"#utility.yul\":14410:14541   */\n      tag_304\n      jump\t// in\n    tag_450:\n        /* \"#utility.yul\":14402:14541   */\n      swap1\n      pop\n        /* \"#utility.yul\":14129:14548   */\n      swap2\n      swap1\n      pop\n      jump\t// out\n\n    auxdata: 0xa2646970667358221220545ce4084d0594998deca282e9152f0ddc54300ca022a1a4c942ae544c917d3a64736f6c634300080d0033\n}\n",
				"bytecode": {
					"linkReferences": {},
					"object": "608060405234801561001057600080fd5b50611d4d806100206000396000f3fe6080604052600436106101235760003560e01c8063c0c53b8b116100a0578063f053dc5c11610064578063f053dc5c14610394578063f2fde38b146103bf578063f4359ce5146103e8578063f4f3b20014610413578063f76541761461043c5761012a565b8063c0c53b8b146102d5578063ce08baa7146102fe578063d3ce9ab314610329578063de3b8b1214610352578063de74d499146103695761012a565b80638d72647e116100e75780638d72647e146102005780638da5cb5b1461022b57806399093a3314610256578063aaf5eb6814610281578063b19337a4146102ac5761012a565b80630b78f9c01461012f5780632a9e63c614610158578063351ad5e814610181578063715018a6146101be578063722713f7146101d55761012a565b3661012a57005b600080fd5b34801561013b57600080fd5b5061015660048036038101906101519190611555565b610453565b005b34801561016457600080fd5b5061017f600480360381019061017a91906115f3565b6104c1565b005b34801561018d57600080fd5b506101a860048036038101906101a391906115f3565b610546565b6040516101b5919061163b565b60405180910390f35b3480156101ca57600080fd5b506101d3610566565b005b3480156101e157600080fd5b506101ea61057a565b6040516101f79190611665565b60405180910390f35b34801561020c57600080fd5b5061021561061d565b604051610222919061168f565b60405180910390f35b34801561023757600080fd5b50610240610643565b60405161024d919061168f565b60405180910390f35b34801561026257600080fd5b5061026b61066d565b6040516102789190611665565b60405180910390f35b34801561028d57600080fd5b50610296610673565b6040516102a39190611665565b60405180910390f35b3480156102b857600080fd5b506102d360048036038101906102ce91906115f3565b610679565b005b3480156102e157600080fd5b506102fc60048036038101906102f791906116aa565b6106fe565b005b34801561030a57600080fd5b50610313610914565b604051610320919061168f565b60405180910390f35b34801561033557600080fd5b50610350600480360381019061034b9190611729565b61093a565b005b34801561035e57600080fd5b5061036761099d565b005b34801561037557600080fd5b5061037e610a3a565b60405161038b9190611665565b60405180910390f35b3480156103a057600080fd5b506103a9610a40565b6040516103b6919061168f565b60405180910390f35b3480156103cb57600080fd5b506103e660048036038101906103e191906115f3565b610a66565b005b3480156103f457600080fd5b506103fd610ae9565b60405161040a9190611665565b60405180910390f35b34801561041f57600080fd5b5061043a600480360381019061043591906115f3565b610af0565b005b34801561044857600080fd5b50610451610c32565b005b61045b611262565b6103e860665460655461046e9190611798565b11156104af576040517f08c379a00000000000000000000000000000000000000000000000000000000081526004016104a69061184b565b60405180910390fd5b81606581905550806066819055505050565b6104c9611262565b600073ffffffffffffffffffffffffffffffffffffffff168173ffffffffffffffffffffffffffffffffffffffff160361050257600080fd5b80606960006101000a81548173ffffffffffffffffffffffffffffffffffffffff021916908373ffffffffffffffffffffffffffffffffffffffff16021790555050565b606a6020528060005260406000206000915054906101000a900460ff1681565b61056e611262565b61057860006112e0565b565b6000606760009054906101000a900473ffffffffffffffffffffffffffffffffffffffff1673ffffffffffffffffffffffffffffffffffffffff166370a08231306040518263ffffffff1660e01b81526004016105d7919061168f565b602060405180830381865afa1580156105f4573d6000803e3d6000fd5b505050506040513d601f19601f820116820180604052508101906106189190611880565b905090565b606760009054906101000a900473ffffffffffffffffffffffffffffffffffffffff1681565b6000603360009054906101000a900473ffffffffffffffffffffffffffffffffffffffff16905090565b60665481565b6103e881565b610681611262565b600073ffffffffffffffffffffffffffffffffffffffff168173ffffffffffffffffffffffffffffffffffffffff16036106ba57600080fd5b80606860006101000a81548173ffffffffffffffffffffffffffffffffffffffff021916908373ffffffffffffffffffffffffffffffffffffffff16021790555050565b60008060019054906101000a900460ff1615905080801561072f5750600160008054906101000a900460ff1660ff16105b8061075c575061073e306113a6565b15801561075b5750600160008054906101000a900460ff1660ff16145b5b61079b576040517f08c379a00000000000000000000000000000000000000000000000000000000081526004016107929061191f565b60405180910390fd5b60016000806101000a81548160ff021916908360ff16021790555080156107d8576001600060016101000a81548160ff0219169083151502179055505b6107e06113c9565b83606760006101000a81548173ffffffffffffffffffffffffffffffffffffffff021916908373ffffffffffffffffffffffffffffffffffffffff16021790555082606860006101000a81548173ffffffffffffffffffffffffffffffffffffffff021916908373ffffffffffffffffffffffffffffffffffffffff16021790555081606960006101000a81548173ffffffffffffffffffffffffffffffffffffffff021916908373ffffffffffffffffffffffffffffffffffffffff16021790555061014d60658190555061029b606681905550801561090e5760008060016101000a81548160ff0219169083151502179055507f7f26b83ff96e1f2b6a682f133852f6798a09c465da95921460cefb384740249860016040516109059190611991565b60405180910390a15b50505050565b606860009054906101000a900473ffffffffffffffffffffffffffffffffffffffff1681565b610942611262565b80606a60008473ffffffffffffffffffffffffffffffffffffffff1673ffffffffffffffffffffffffffffffffffffffff16815260200190815260200160002060006101000a81548160ff0219169083151502179055505050565b6109a5610643565b73ffffffffffffffffffffffffffffffffffffffff163373ffffffffffffffffffffffffffffffffffffffff161480610a275750606a60003373ffffffffffffffffffffffffffffffffffffffff1673ffffffffffffffffffffffffffffffffffffffff16815260200190815260200160002060009054906101000a900460ff165b610a3057600080fd5b610a38611422565b565b60655481565b606960009054906101000a900473ffffffffffffffffffffffffffffffffffffffff1681565b610a6e611262565b600073ffffffffffffffffffffffffffffffffffffffff168173ffffffffffffffffffffffffffffffffffffffff1603610add576040517f08c379a0000000000000000000000000000000000000000000000000000000008152600401610ad490611a1e565b60405180910390fd5b610ae6816112e0565b50565b62093a8081565b610af8611262565b600073ffffffffffffffffffffffffffffffffffffffff168173ffffffffffffffffffffffffffffffffffffffff1603610b3157600080fd5b60008173ffffffffffffffffffffffffffffffffffffffff166370a08231306040518263ffffffff1660e01b8152600401610b6c919061168f565b602060405180830381865afa158015610b89573d6000803e3d6000fd5b505050506040513d601f19601f82011682018060405250810190610bad9190611880565b90508173ffffffffffffffffffffffffffffffffffffffff1663a9059cbb33836040518363ffffffff1660e01b8152600401610bea929190611a3e565b6020604051808303816000875af1158015610c09573d6000803e3d6000fd5b505050506040513d601f19601f82011682018060405250810190610c2d9190611a7c565b505050565b610c3a610643565b73ffffffffffffffffffffffffffffffffffffffff163373ffffffffffffffffffffffffffffffffffffffff161480610cbc5750606a60003373ffffffffffffffffffffffffffffffffffffffff1673ffffffffffffffffffffffffffffffffffffffff16815260200190815260200160002060009054906101000a900460ff165b610cc557600080fd5b610ccd611422565b6000610cd761057a565b9050600080600062093a808042610cee9190611ad8565b610cf89190611b09565b90506103e884111561122057600073ffffffffffffffffffffffffffffffffffffffff16606860009054906101000a900473ffffffffffffffffffffffffffffffffffffffff1673ffffffffffffffffffffffffffffffffffffffff1614610f3f576103e860655485610d6b9190611b09565b610d759190611ad8565b9250606760009054906101000a900473ffffffffffffffffffffffffffffffffffffffff1673ffffffffffffffffffffffffffffffffffffffff1663a9059cbb606860009054906101000a900473ffffffffffffffffffffffffffffffffffffffff16856040518363ffffffff1660e01b8152600401610df6929190611a3e565b6020604051808303816000875af1158015610e15573d6000803e3d6000fd5b505050506040513d601f19601f82011682018060405250810190610e399190611a7c565b50606860009054906101000a900473ffffffffffffffffffffffffffffffffffffffff1673ffffffffffffffffffffffffffffffffffffffff1663d294f0936040518163ffffffff1660e01b8152600401600060405180830381600087803b158015610ea457600080fd5b505af1158015610eb8573d6000803e3d6000fd5b50505050606860009054906101000a900473ffffffffffffffffffffffffffffffffffffffff1673ffffffffffffffffffffffffffffffffffffffff16638119c0656040518163ffffffff1660e01b8152600401600060405180830381600087803b158015610f2657600080fd5b505af1158015610f3a573d6000803e3d6000fd5b505050505b600073ffffffffffffffffffffffffffffffffffffffff16606960009054906101000a900473ffffffffffffffffffffffffffffffffffffffff1673ffffffffffffffffffffffffffffffffffffffff16146111e1576103e860665485610fa69190611b09565b610fb09190611ad8565b915081610fbb61057a565b1015610fcc57610fc961057a565b91505b606760009054906101000a900473ffffffffffffffffffffffffffffffffffffffff1673ffffffffffffffffffffffffffffffffffffffff1663095ea7b3606960009054906101000a900473ffffffffffffffffffffffffffffffffffffffff1660006040518363ffffffff1660e01b815260040161104c929190611b9e565b6020604051808303816000875af115801561106b573d6000803e3d6000fd5b505050506040513d601f19601f8201168201806040525081019061108f9190611a7c565b50606760009054906101000a900473ffffffffffffffffffffffffffffffffffffffff1673ffffffffffffffffffffffffffffffffffffffff1663095ea7b3606960009054906101000a900473ffffffffffffffffffffffffffffffffffffffff16846040518363ffffffff1660e01b815260040161110f929190611a3e565b6020604051808303816000875af115801561112e573d6000803e3d6000fd5b505050506040513d601f19601f820116820180604052508101906111529190611a7c565b50606960009054906101000a900473ffffffffffffffffffffffffffffffffffffffff1673ffffffffffffffffffffffffffffffffffffffff1663b6b55f25836040518263ffffffff1660e01b81526004016111ae9190611665565b600060405180830381600087803b1580156111c857600080fd5b505af11580156111dc573d6000803e3d6000fd5b505050505b807fcf0974dfd867840133a0d4b02f1672f24017796fb8892d1e0d587692e4da90ab8484604051611213929190611bc7565b60405180910390a261125c565b807fcf0974dfd867840133a0d4b02f1672f24017796fb8892d1e0d587692e4da90ab600080604051611253929190611bf0565b60405180910390a25b50505050565b61126a6114b1565b73ffffffffffffffffffffffffffffffffffffffff16611288610643565b73ffffffffffffffffffffffffffffffffffffffff16146112de576040517f08c379a00000000000000000000000000000000000000000000000000000000081526004016112d590611c65565b60405180910390fd5b565b6000603360009054906101000a900473ffffffffffffffffffffffffffffffffffffffff16905081603360006101000a81548173ffffffffffffffffffffffffffffffffffffffff021916908373ffffffffffffffffffffffffffffffffffffffff1602179055508173ffffffffffffffffffffffffffffffffffffffff168173ffffffffffffffffffffffffffffffffffffffff167f8be0079c531659141344cd1fd0a4f28419497f9722a3daafe3b4186f6b6457e060405160405180910390a35050565b6000808273ffffffffffffffffffffffffffffffffffffffff163b119050919050565b600060019054906101000a900460ff16611418576040517f08c379a000000000000000000000000000000000000000000000000000000000815260040161140f90611cf7565b60405180910390fd5b6114206114b9565b565b60004711156114af57606760009054906101000a900473ffffffffffffffffffffffffffffffffffffffff1673ffffffffffffffffffffffffffffffffffffffff1663d0e30db0476040518263ffffffff1660e01b81526004016000604051808303818588803b15801561149557600080fd5b505af11580156114a9573d6000803e3d6000fd5b50505050505b565b600033905090565b600060019054906101000a900460ff16611508576040517f08c379a00000000000000000000000000000000000000000000000000000000081526004016114ff90611cf7565b60405180910390fd5b6115186115136114b1565b6112e0565b565b600080fd5b6000819050919050565b6115328161151f565b811461153d57600080fd5b50565b60008135905061154f81611529565b92915050565b6000806040838503121561156c5761156b61151a565b5b600061157a85828601611540565b925050602061158b85828601611540565b9150509250929050565b600073ffffffffffffffffffffffffffffffffffffffff82169050919050565b60006115c082611595565b9050919050565b6115d0816115b5565b81146115db57600080fd5b50565b6000813590506115ed816115c7565b92915050565b6000602082840312156116095761160861151a565b5b6000611617848285016115de565b91505092915050565b60008115159050919050565b61163581611620565b82525050565b6000602082019050611650600083018461162c565b92915050565b61165f8161151f565b82525050565b600060208201905061167a6000830184611656565b92915050565b611689816115b5565b82525050565b60006020820190506116a46000830184611680565b92915050565b6000806000606084860312156116c3576116c261151a565b5b60006116d1868287016115de565b93505060206116e2868287016115de565b92505060406116f3868287016115de565b9150509250925092565b61170681611620565b811461171157600080fd5b50565b600081359050611723816116fd565b92915050565b600080604083850312156117405761173f61151a565b5b600061174e858286016115de565b925050602061175f85828601611714565b9150509250929050565b7f4e487b7100000000000000000000000000000000000000000000000000000000600052601160045260246000fd5b60006117a38261151f565b91506117ae8361151f565b9250827fffffffffffffffffffffffffffffffffffffffffffffffffffffffffffffffff038211156117e3576117e2611769565b5b828201905092915050565b600082825260208201905092915050565b7f746f6f206d616e79000000000000000000000000000000000000000000000000600082015250565b60006118356008836117ee565b9150611840826117ff565b602082019050919050565b6000602082019050818103600083015261186481611828565b9050919050565b60008151905061187a81611529565b92915050565b6000602082840312156118965761189561151a565b5b60006118a48482850161186b565b91505092915050565b7f496e697469616c697a61626c653a20636f6e747261637420697320616c72656160008201527f647920696e697469616c697a6564000000000000000000000000000000000000602082015250565b6000611909602e836117ee565b9150611914826118ad565b604082019050919050565b60006020820190508181036000830152611938816118fc565b9050919050565b6000819050919050565b600060ff82169050919050565b6000819050919050565b600061197b6119766119718461193f565b611956565b611949565b9050919050565b61198b81611960565b82525050565b60006020820190506119a66000830184611982565b92915050565b7f4f776e61626c653a206e6577206f776e657220697320746865207a65726f206160008201527f6464726573730000000000000000000000000000000000000000000000000000602082015250565b6000611a086026836117ee565b9150611a13826119ac565b604082019050919050565b60006020820190508181036000830152611a37816119fb565b9050919050565b6000604082019050611a536000830185611680565b611a606020830184611656565b9392505050565b600081519050611a76816116fd565b92915050565b600060208284031215611a9257611a9161151a565b5b6000611aa084828501611a67565b91505092915050565b7f4e487b7100000000000000000000000000000000000000000000000000000000600052601260045260246000fd5b6000611ae38261151f565b9150611aee8361151f565b925082611afe57611afd611aa9565b5b828204905092915050565b6000611b148261151f565b9150611b1f8361151f565b9250817fffffffffffffffffffffffffffffffffffffffffffffffffffffffffffffffff0483118215151615611b5857611b57611769565b5b828202905092915050565b6000819050919050565b6000611b88611b83611b7e84611b63565b611956565b61151f565b9050919050565b611b9881611b6d565b82525050565b6000604082019050611bb36000830185611680565b611bc06020830184611b8f565b9392505050565b6000604082019050611bdc6000830185611656565b611be96020830184611656565b9392505050565b6000604082019050611c056000830185611b8f565b611c126020830184611b8f565b9392505050565b7f4f776e61626c653a2063616c6c6572206973206e6f7420746865206f776e6572600082015250565b6000611c4f6020836117ee565b9150611c5a82611c19565b602082019050919050565b60006020820190508181036000830152611c7e81611c42565b9050919050565b7f496e697469616c697a61626c653a20636f6e7472616374206973206e6f74206960008201527f6e697469616c697a696e67000000000000000000000000000000000000000000602082015250565b6000611ce1602b836117ee565b9150611cec82611c85565b604082019050919050565b60006020820190508181036000830152611d1081611cd4565b905091905056fea2646970667358221220545ce4084d0594998deca282e9152f0ddc54300ca022a1a4c942ae544c917d3a64736f6c634300080d0033",
					"opcodes": "PUSH1 0x80 PUSH1 0x40 MSTORE CALLVALUE DUP1 ISZERO PUSH2 0x10 JUMPI PUSH1 0x0 DUP1 REVERT JUMPDEST POP PUSH2 0x1D4D DUP1 PUSH2 0x20 PUSH1 0x0 CODECOPY PUSH1 0x0 RETURN INVALID PUSH1 0x80 PUSH1 0x40 MSTORE PUSH1 0x4 CALLDATASIZE LT PUSH2 0x123 JUMPI PUSH1 0x0 CALLDATALOAD PUSH1 0xE0 SHR DUP1 PUSH4 0xC0C53B8B GT PUSH2 0xA0 JUMPI DUP1 PUSH4 0xF053DC5C GT PUSH2 0x64 JUMPI DUP1 PUSH4 0xF053DC5C EQ PUSH2 0x394 JUMPI DUP1 PUSH4 0xF2FDE38B EQ PUSH2 0x3BF JUMPI DUP1 PUSH4 0xF4359CE5 EQ PUSH2 0x3E8 JUMPI DUP1 PUSH4 0xF4F3B200 EQ PUSH2 0x413 JUMPI DUP1 PUSH4 0xF7654176 EQ PUSH2 0x43C JUMPI PUSH2 0x12A JUMP JUMPDEST DUP1 PUSH4 0xC0C53B8B EQ PUSH2 0x2D5 JUMPI DUP1 PUSH4 0xCE08BAA7 EQ PUSH2 0x2FE JUMPI DUP1 PUSH4 0xD3CE9AB3 EQ PUSH2 0x329 JUMPI DUP1 PUSH4 0xDE3B8B12 EQ PUSH2 0x352 JUMPI DUP1 PUSH4 0xDE74D499 EQ PUSH2 0x369 JUMPI PUSH2 0x12A JUMP JUMPDEST DUP1 PUSH4 0x8D72647E GT PUSH2 0xE7 JUMPI DUP1 PUSH4 0x8D72647E EQ PUSH2 0x200 JUMPI DUP1 PUSH4 0x8DA5CB5B EQ PUSH2 0x22B JUMPI DUP1 PUSH4 0x99093A33 EQ PUSH2 0x256 JUMPI DUP1 PUSH4 0xAAF5EB68 EQ PUSH2 0x281 JUMPI DUP1 PUSH4 0xB19337A4 EQ PUSH2 0x2AC JUMPI PUSH2 0x12A JUMP JUMPDEST DUP1 PUSH4 0xB78F9C0 EQ PUSH2 0x12F JUMPI DUP1 PUSH4 0x2A9E63C6 EQ PUSH2 0x158 JUMPI DUP1 PUSH4 0x351AD5E8 EQ PUSH2 0x181 JUMPI DUP1 PUSH4 0x715018A6 EQ PUSH2 0x1BE JUMPI DUP1 PUSH4 0x722713F7 EQ PUSH2 0x1D5 JUMPI PUSH2 0x12A JUMP JUMPDEST CALLDATASIZE PUSH2 0x12A JUMPI STOP JUMPDEST PUSH1 0x0 DUP1 REVERT JUMPDEST CALLVALUE DUP1 ISZERO PUSH2 0x13B JUMPI PUSH1 0x0 DUP1 REVERT JUMPDEST POP PUSH2 0x156 PUSH1 0x4 DUP1 CALLDATASIZE SUB DUP2 ADD SWAP1 PUSH2 0x151 SWAP2 SWAP1 PUSH2 0x1555 JUMP JUMPDEST PUSH2 0x453 JUMP JUMPDEST STOP JUMPDEST CALLVALUE DUP1 ISZERO PUSH2 0x164 JUMPI PUSH1 0x0 DUP1 REVERT JUMPDEST POP PUSH2 0x17F PUSH1 0x4 DUP1 CALLDATASIZE SUB DUP2 ADD SWAP1 PUSH2 0x17A SWAP2 SWAP1 PUSH2 0x15F3 JUMP JUMPDEST PUSH2 0x4C1 JUMP JUMPDEST STOP JUMPDEST CALLVALUE DUP1 ISZERO PUSH2 0x18D JUMPI PUSH1 0x0 DUP1 REVERT JUMPDEST POP PUSH2 0x1A8 PUSH1 0x4 DUP1 CALLDATASIZE SUB DUP2 ADD SWAP1 PUSH2 0x1A3 SWAP2 SWAP1 PUSH2 0x15F3 JUMP JUMPDEST PUSH2 0x546 JUMP JUMPDEST PUSH1 0x40 MLOAD PUSH2 0x1B5 SWAP2 SWAP1 PUSH2 0x163B JUMP JUMPDEST PUSH1 0x40 MLOAD DUP1 SWAP2 SUB SWAP1 RETURN JUMPDEST CALLVALUE DUP1 ISZERO PUSH2 0x1CA JUMPI PUSH1 0x0 DUP1 REVERT JUMPDEST POP PUSH2 0x1D3 PUSH2 0x566 JUMP JUMPDEST STOP JUMPDEST CALLVALUE DUP1 ISZERO PUSH2 0x1E1 JUMPI PUSH1 0x0 DUP1 REVERT JUMPDEST POP PUSH2 0x1EA PUSH2 0x57A JUMP JUMPDEST PUSH1 0x40 MLOAD PUSH2 0x1F7 SWAP2 SWAP1 PUSH2 0x1665 JUMP JUMPDEST PUSH1 0x40 MLOAD DUP1 SWAP2 SUB SWAP1 RETURN JUMPDEST CALLVALUE DUP1 ISZERO PUSH2 0x20C JUMPI PUSH1 0x0 DUP1 REVERT JUMPDEST POP PUSH2 0x215 PUSH2 0x61D JUMP JUMPDEST PUSH1 0x40 MLOAD PUSH2 0x222 SWAP2 SWAP1 PUSH2 0x168F JUMP JUMPDEST PUSH1 0x40 MLOAD DUP1 SWAP2 SUB SWAP1 RETURN JUMPDEST CALLVALUE DUP1 ISZERO PUSH2 0x237 JUMPI PUSH1 0x0 DUP1 REVERT JUMPDEST POP PUSH2 0x240 PUSH2 0x643 JUMP JUMPDEST PUSH1 0x40 MLOAD PUSH2 0x24D SWAP2 SWAP1 PUSH2 0x168F JUMP JUMPDEST PUSH1 0x40 MLOAD DUP1 SWAP2 SUB SWAP1 RETURN JUMPDEST CALLVALUE DUP1 ISZERO PUSH2 0x262 JUMPI PUSH1 0x0 DUP1 REVERT JUMPDEST POP PUSH2 0x26B PUSH2 0x66D JUMP JUMPDEST PUSH1 0x40 MLOAD PUSH2 0x278 SWAP2 SWAP1 PUSH2 0x1665 JUMP JUMPDEST PUSH1 0x40 MLOAD DUP1 SWAP2 SUB SWAP1 RETURN JUMPDEST CALLVALUE DUP1 ISZERO PUSH2 0x28D JUMPI PUSH1 0x0 DUP1 REVERT JUMPDEST POP PUSH2 0x296 PUSH2 0x673 JUMP JUMPDEST PUSH1 0x40 MLOAD PUSH2 0x2A3 SWAP2 SWAP1 PUSH2 0x1665 JUMP JUMPDEST PUSH1 0x40 MLOAD DUP1 SWAP2 SUB SWAP1 RETURN JUMPDEST CALLVALUE DUP1 ISZERO PUSH2 0x2B8 JUMPI PUSH1 0x0 DUP1 REVERT JUMPDEST POP PUSH2 0x2D3 PUSH1 0x4 DUP1 CALLDATASIZE SUB DUP2 ADD SWAP1 PUSH2 0x2CE SWAP2 SWAP1 PUSH2 0x15F3 JUMP JUMPDEST PUSH2 0x679 JUMP JUMPDEST STOP JUMPDEST CALLVALUE DUP1 ISZERO PUSH2 0x2E1 JUMPI PUSH1 0x0 DUP1 REVERT JUMPDEST POP PUSH2 0x2FC PUSH1 0x4 DUP1 CALLDATASIZE SUB DUP2 ADD SWAP1 PUSH2 0x2F7 SWAP2 SWAP1 PUSH2 0x16AA JUMP JUMPDEST PUSH2 0x6FE JUMP JUMPDEST STOP JUMPDEST CALLVALUE DUP1 ISZERO PUSH2 0x30A JUMPI PUSH1 0x0 DUP1 REVERT JUMPDEST POP PUSH2 0x313 PUSH2 0x914 JUMP JUMPDEST PUSH1 0x40 MLOAD PUSH2 0x320 SWAP2 SWAP1 PUSH2 0x168F JUMP JUMPDEST PUSH1 0x40 MLOAD DUP1 SWAP2 SUB SWAP1 RETURN JUMPDEST CALLVALUE DUP1 ISZERO PUSH2 0x335 JUMPI PUSH1 0x0 DUP1 REVERT JUMPDEST POP PUSH2 0x350 PUSH1 0x4 DUP1 CALLDATASIZE SUB DUP2 ADD SWAP1 PUSH2 0x34B SWAP2 SWAP1 PUSH2 0x1729 JUMP JUMPDEST PUSH2 0x93A JUMP JUMPDEST STOP JUMPDEST CALLVALUE DUP1 ISZERO PUSH2 0x35E JUMPI PUSH1 0x0 DUP1 REVERT JUMPDEST POP PUSH2 0x367 PUSH2 0x99D JUMP JUMPDEST STOP JUMPDEST CALLVALUE DUP1 ISZERO PUSH2 0x375 JUMPI PUSH1 0x0 DUP1 REVERT JUMPDEST POP PUSH2 0x37E PUSH2 0xA3A JUMP JUMPDEST PUSH1 0x40 MLOAD PUSH2 0x38B SWAP2 SWAP1 PUSH2 0x1665 JUMP JUMPDEST PUSH1 0x40 MLOAD DUP1 SWAP2 SUB SWAP1 RETURN JUMPDEST CALLVALUE DUP1 ISZERO PUSH2 0x3A0 JUMPI PUSH1 0x0 DUP1 REVERT JUMPDEST POP PUSH2 0x3A9 PUSH2 0xA40 JUMP JUMPDEST PUSH1 0x40 MLOAD PUSH2 0x3B6 SWAP2 SWAP1 PUSH2 0x168F JUMP JUMPDEST PUSH1 0x40 MLOAD DUP1 SWAP2 SUB SWAP1 RETURN JUMPDEST CALLVALUE DUP1 ISZERO PUSH2 0x3CB JUMPI PUSH1 0x0 DUP1 REVERT JUMPDEST POP PUSH2 0x3E6 PUSH1 0x4 DUP1 CALLDATASIZE SUB DUP2 ADD SWAP1 PUSH2 0x3E1 SWAP2 SWAP1 PUSH2 0x15F3 JUMP JUMPDEST PUSH2 0xA66 JUMP JUMPDEST STOP JUMPDEST CALLVALUE DUP1 ISZERO PUSH2 0x3F4 JUMPI PUSH1 0x0 DUP1 REVERT JUMPDEST POP PUSH2 0x3FD PUSH2 0xAE9 JUMP JUMPDEST PUSH1 0x40 MLOAD PUSH2 0x40A SWAP2 SWAP1 PUSH2 0x1665 JUMP JUMPDEST PUSH1 0x40 MLOAD DUP1 SWAP2 SUB SWAP1 RETURN JUMPDEST CALLVALUE DUP1 ISZERO PUSH2 0x41F JUMPI PUSH1 0x0 DUP1 REVERT JUMPDEST POP PUSH2 0x43A PUSH1 0x4 DUP1 CALLDATASIZE SUB DUP2 ADD SWAP1 PUSH2 0x435 SWAP2 SWAP1 PUSH2 0x15F3 JUMP JUMPDEST PUSH2 0xAF0 JUMP JUMPDEST STOP JUMPDEST CALLVALUE DUP1 ISZERO PUSH2 0x448 JUMPI PUSH1 0x0 DUP1 REVERT JUMPDEST POP PUSH2 0x451 PUSH2 0xC32 JUMP JUMPDEST STOP JUMPDEST PUSH2 0x45B PUSH2 0x1262 JUMP JUMPDEST PUSH2 0x3E8 PUSH1 0x66 SLOAD PUSH1 0x65 SLOAD PUSH2 0x46E SWAP2 SWAP1 PUSH2 0x1798 JUMP JUMPDEST GT ISZERO PUSH2 0x4AF JUMPI PUSH1 0x40 MLOAD PUSH32 0x8C379A000000000000000000000000000000000000000000000000000000000 DUP2 MSTORE PUSH1 0x4 ADD PUSH2 0x4A6 SWAP1 PUSH2 0x184B JUMP JUMPDEST PUSH1 0x40 MLOAD DUP1 SWAP2 SUB SWAP1 REVERT JUMPDEST DUP2 PUSH1 0x65 DUP2 SWAP1 SSTORE POP DUP1 PUSH1 0x66 DUP2 SWAP1 SSTORE POP POP POP JUMP JUMPDEST PUSH2 0x4C9 PUSH2 0x1262 JUMP JUMPDEST PUSH1 0x0 PUSH20 0xFFFFFFFFFFFFFFFFFFFFFFFFFFFFFFFFFFFFFFFF AND DUP2 PUSH20 0xFFFFFFFFFFFFFFFFFFFFFFFFFFFFFFFFFFFFFFFF AND SUB PUSH2 0x502 JUMPI PUSH1 0x0 DUP1 REVERT JUMPDEST DUP1 PUSH1 0x69 PUSH1 0x0 PUSH2 0x100 EXP DUP2 SLOAD DUP2 PUSH20 0xFFFFFFFFFFFFFFFFFFFFFFFFFFFFFFFFFFFFFFFF MUL NOT AND SWAP1 DUP4 PUSH20 0xFFFFFFFFFFFFFFFFFFFFFFFFFFFFFFFFFFFFFFFF AND MUL OR SWAP1 SSTORE POP POP JUMP JUMPDEST PUSH1 0x6A PUSH1 0x20 MSTORE DUP1 PUSH1 0x0 MSTORE PUSH1 0x40 PUSH1 0x0 KECCAK256 PUSH1 0x0 SWAP2 POP SLOAD SWAP1 PUSH2 0x100 EXP SWAP1 DIV PUSH1 0xFF AND DUP2 JUMP JUMPDEST PUSH2 0x56E PUSH2 0x1262 JUMP JUMPDEST PUSH2 0x578 PUSH1 0x0 PUSH2 0x12E0 JUMP JUMPDEST JUMP JUMPDEST PUSH1 0x0 PUSH1 0x67 PUSH1 0x0 SWAP1 SLOAD SWAP1 PUSH2 0x100 EXP SWAP1 DIV PUSH20 0xFFFFFFFFFFFFFFFFFFFFFFFFFFFFFFFFFFFFFFFF AND PUSH20 0xFFFFFFFFFFFFFFFFFFFFFFFFFFFFFFFFFFFFFFFF AND PUSH4 0x70A08231 ADDRESS PUSH1 0x40 MLOAD DUP3 PUSH4 0xFFFFFFFF AND PUSH1 0xE0 SHL DUP2 MSTORE PUSH1 0x4 ADD PUSH2 0x5D7 SWAP2 SWAP1 PUSH2 0x168F JUMP JUMPDEST PUSH1 0x20 PUSH1 0x40 MLOAD DUP1 DUP4 SUB DUP2 DUP7 GAS STATICCALL ISZERO DUP1 ISZERO PUSH2 0x5F4 JUMPI RETURNDATASIZE PUSH1 0x0 DUP1 RETURNDATACOPY RETURNDATASIZE PUSH1 0x0 REVERT JUMPDEST POP POP POP POP PUSH1 0x40 MLOAD RETURNDATASIZE PUSH1 0x1F NOT PUSH1 0x1F DUP3 ADD AND DUP3 ADD DUP1 PUSH1 0x40 MSTORE POP DUP2 ADD SWAP1 PUSH2 0x618 SWAP2 SWAP1 PUSH2 0x1880 JUMP JUMPDEST SWAP1 POP SWAP1 JUMP JUMPDEST PUSH1 0x67 PUSH1 0x0 SWAP1 SLOAD SWAP1 PUSH2 0x100 EXP SWAP1 DIV PUSH20 0xFFFFFFFFFFFFFFFFFFFFFFFFFFFFFFFFFFFFFFFF AND DUP2 JUMP JUMPDEST PUSH1 0x0 PUSH1 0x33 PUSH1 0x0 SWAP1 SLOAD SWAP1 PUSH2 0x100 EXP SWAP1 DIV PUSH20 0xFFFFFFFFFFFFFFFFFFFFFFFFFFFFFFFFFFFFFFFF AND SWAP1 POP SWAP1 JUMP JUMPDEST PUSH1 0x66 SLOAD DUP2 JUMP JUMPDEST PUSH2 0x3E8 DUP2 JUMP JUMPDEST PUSH2 0x681 PUSH2 0x1262 JUMP JUMPDEST PUSH1 0x0 PUSH20 0xFFFFFFFFFFFFFFFFFFFFFFFFFFFFFFFFFFFFFFFF AND DUP2 PUSH20 0xFFFFFFFFFFFFFFFFFFFFFFFFFFFFFFFFFFFFFFFF AND SUB PUSH2 0x6BA JUMPI PUSH1 0x0 DUP1 REVERT JUMPDEST DUP1 PUSH1 0x68 PUSH1 0x0 PUSH2 0x100 EXP DUP2 SLOAD DUP2 PUSH20 0xFFFFFFFFFFFFFFFFFFFFFFFFFFFFFFFFFFFFFFFF MUL NOT AND SWAP1 DUP4 PUSH20 0xFFFFFFFFFFFFFFFFFFFFFFFFFFFFFFFFFFFFFFFF AND MUL OR SWAP1 SSTORE POP POP JUMP JUMPDEST PUSH1 0x0 DUP1 PUSH1 0x1 SWAP1 SLOAD SWAP1 PUSH2 0x100 EXP SWAP1 DIV PUSH1 0xFF AND ISZERO SWAP1 POP DUP1 DUP1 ISZERO PUSH2 0x72F JUMPI POP PUSH1 0x1 PUSH1 0x0 DUP1 SLOAD SWAP1 PUSH2 0x100 EXP SWAP1 DIV PUSH1 0xFF AND PUSH1 0xFF AND LT JUMPDEST DUP1 PUSH2 0x75C JUMPI POP PUSH2 0x73E ADDRESS PUSH2 0x13A6 JUMP JUMPDEST ISZERO DUP1 ISZERO PUSH2 0x75B JUMPI POP PUSH1 0x1 PUSH1 0x0 DUP1 SLOAD SWAP1 PUSH2 0x100 EXP SWAP1 DIV PUSH1 0xFF AND PUSH1 0xFF AND EQ JUMPDEST JUMPDEST PUSH2 0x79B JUMPI PUSH1 0x40 MLOAD PUSH32 0x8C379A000000000000000000000000000000000000000000000000000000000 DUP2 MSTORE PUSH1 0x4 ADD PUSH2 0x792 SWAP1 PUSH2 0x191F JUMP JUMPDEST PUSH1 0x40 MLOAD DUP1 SWAP2 SUB SWAP1 REVERT JUMPDEST PUSH1 0x1 PUSH1 0x0 DUP1 PUSH2 0x100 EXP DUP2 SLOAD DUP2 PUSH1 0xFF MUL NOT AND SWAP1 DUP4 PUSH1 0xFF AND MUL OR SWAP1 SSTORE POP DUP1 ISZERO PUSH2 0x7D8 JUMPI PUSH1 0x1 PUSH1 0x0 PUSH1 0x1 PUSH2 0x100 EXP DUP2 SLOAD DUP2 PUSH1 0xFF MUL NOT AND SWAP1 DUP4 ISZERO ISZERO MUL OR SWAP1 SSTORE POP JUMPDEST PUSH2 0x7E0 PUSH2 0x13C9 JUMP JUMPDEST DUP4 PUSH1 0x67 PUSH1 0x0 PUSH2 0x100 EXP DUP2 SLOAD DUP2 PUSH20 0xFFFFFFFFFFFFFFFFFFFFFFFFFFFFFFFFFFFFFFFF MUL NOT AND SWAP1 DUP4 PUSH20 0xFFFFFFFFFFFFFFFFFFFFFFFFFFFFFFFFFFFFFFFF AND MUL OR SWAP1 SSTORE POP DUP3 PUSH1 0x68 PUSH1 0x0 PUSH2 0x100 EXP DUP2 SLOAD DUP2 PUSH20 0xFFFFFFFFFFFFFFFFFFFFFFFFFFFFFFFFFFFFFFFF MUL NOT AND SWAP1 DUP4 PUSH20 0xFFFFFFFFFFFFFFFFFFFFFFFFFFFFFFFFFFFFFFFF AND MUL OR SWAP1 SSTORE POP DUP2 PUSH1 0x69 PUSH1 0x0 PUSH2 0x100 EXP DUP2 SLOAD DUP2 PUSH20 0xFFFFFFFFFFFFFFFFFFFFFFFFFFFFFFFFFFFFFFFF MUL NOT AND SWAP1 DUP4 PUSH20 0xFFFFFFFFFFFFFFFFFFFFFFFFFFFFFFFFFFFFFFFF AND MUL OR SWAP1 SSTORE POP PUSH2 0x14D PUSH1 0x65 DUP2 SWAP1 SSTORE POP PUSH2 0x29B PUSH1 0x66 DUP2 SWAP1 SSTORE POP DUP1 ISZERO PUSH2 0x90E JUMPI PUSH1 0x0 DUP1 PUSH1 0x1 PUSH2 0x100 EXP DUP2 SLOAD DUP2 PUSH1 0xFF MUL NOT AND SWAP1 DUP4 ISZERO ISZERO MUL OR SWAP1 SSTORE POP PUSH32 0x7F26B83FF96E1F2B6A682F133852F6798A09C465DA95921460CEFB3847402498 PUSH1 0x1 PUSH1 0x40 MLOAD PUSH2 0x905 SWAP2 SWAP1 PUSH2 0x1991 JUMP JUMPDEST PUSH1 0x40 MLOAD DUP1 SWAP2 SUB SWAP1 LOG1 JUMPDEST POP POP POP POP JUMP JUMPDEST PUSH1 0x68 PUSH1 0x0 SWAP1 SLOAD SWAP1 PUSH2 0x100 EXP SWAP1 DIV PUSH20 0xFFFFFFFFFFFFFFFFFFFFFFFFFFFFFFFFFFFFFFFF AND DUP2 JUMP JUMPDEST PUSH2 0x942 PUSH2 0x1262 JUMP JUMPDEST DUP1 PUSH1 0x6A PUSH1 0x0 DUP5 PUSH20 0xFFFFFFFFFFFFFFFFFFFFFFFFFFFFFFFFFFFFFFFF AND PUSH20 0xFFFFFFFFFFFFFFFFFFFFFFFFFFFFFFFFFFFFFFFF AND DUP2 MSTORE PUSH1 0x20 ADD SWAP1 DUP2 MSTORE PUSH1 0x20 ADD PUSH1 0x0 KECCAK256 PUSH1 0x0 PUSH2 0x100 EXP DUP2 SLOAD DUP2 PUSH1 0xFF MUL NOT AND SWAP1 DUP4 ISZERO ISZERO MUL OR SWAP1 SSTORE POP POP POP JUMP JUMPDEST PUSH2 0x9A5 PUSH2 0x643 JUMP JUMPDEST PUSH20 0xFFFFFFFFFFFFFFFFFFFFFFFFFFFFFFFFFFFFFFFF AND CALLER PUSH20 0xFFFFFFFFFFFFFFFFFFFFFFFFFFFFFFFFFFFFFFFF AND EQ DUP1 PUSH2 0xA27 JUMPI POP PUSH1 0x6A PUSH1 0x0 CALLER PUSH20 0xFFFFFFFFFFFFFFFFFFFFFFFFFFFFFFFFFFFFFFFF AND PUSH20 0xFFFFFFFFFFFFFFFFFFFFFFFFFFFFFFFFFFFFFFFF AND DUP2 MSTORE PUSH1 0x20 ADD SWAP1 DUP2 MSTORE PUSH1 0x20 ADD PUSH1 0x0 KECCAK256 PUSH1 0x0 SWAP1 SLOAD SWAP1 PUSH2 0x100 EXP SWAP1 DIV PUSH1 0xFF AND JUMPDEST PUSH2 0xA30 JUMPI PUSH1 0x0 DUP1 REVERT JUMPDEST PUSH2 0xA38 PUSH2 0x1422 JUMP JUMPDEST JUMP JUMPDEST PUSH1 0x65 SLOAD DUP2 JUMP JUMPDEST PUSH1 0x69 PUSH1 0x0 SWAP1 SLOAD SWAP1 PUSH2 0x100 EXP SWAP1 DIV PUSH20 0xFFFFFFFFFFFFFFFFFFFFFFFFFFFFFFFFFFFFFFFF AND DUP2 JUMP JUMPDEST PUSH2 0xA6E PUSH2 0x1262 JUMP JUMPDEST PUSH1 0x0 PUSH20 0xFFFFFFFFFFFFFFFFFFFFFFFFFFFFFFFFFFFFFFFF AND DUP2 PUSH20 0xFFFFFFFFFFFFFFFFFFFFFFFFFFFFFFFFFFFFFFFF AND SUB PUSH2 0xADD JUMPI PUSH1 0x40 MLOAD PUSH32 0x8C379A000000000000000000000000000000000000000000000000000000000 DUP2 MSTORE PUSH1 0x4 ADD PUSH2 0xAD4 SWAP1 PUSH2 0x1A1E JUMP JUMPDEST PUSH1 0x40 MLOAD DUP1 SWAP2 SUB SWAP1 REVERT JUMPDEST PUSH2 0xAE6 DUP2 PUSH2 0x12E0 JUMP JUMPDEST POP JUMP JUMPDEST PUSH3 0x93A80 DUP2 JUMP JUMPDEST PUSH2 0xAF8 PUSH2 0x1262 JUMP JUMPDEST PUSH1 0x0 PUSH20 0xFFFFFFFFFFFFFFFFFFFFFFFFFFFFFFFFFFFFFFFF AND DUP2 PUSH20 0xFFFFFFFFFFFFFFFFFFFFFFFFFFFFFFFFFFFFFFFF AND SUB PUSH2 0xB31 JUMPI PUSH1 0x0 DUP1 REVERT JUMPDEST PUSH1 0x0 DUP2 PUSH20 0xFFFFFFFFFFFFFFFFFFFFFFFFFFFFFFFFFFFFFFFF AND PUSH4 0x70A08231 ADDRESS PUSH1 0x40 MLOAD DUP3 PUSH4 0xFFFFFFFF AND PUSH1 0xE0 SHL DUP2 MSTORE PUSH1 0x4 ADD PUSH2 0xB6C SWAP2 SWAP1 PUSH2 0x168F JUMP JUMPDEST PUSH1 0x20 PUSH1 0x40 MLOAD DUP1 DUP4 SUB DUP2 DUP7 GAS STATICCALL ISZERO DUP1 ISZERO PUSH2 0xB89 JUMPI RETURNDATASIZE PUSH1 0x0 DUP1 RETURNDATACOPY RETURNDATASIZE PUSH1 0x0 REVERT JUMPDEST POP POP POP POP PUSH1 0x40 MLOAD RETURNDATASIZE PUSH1 0x1F NOT PUSH1 0x1F DUP3 ADD AND DUP3 ADD DUP1 PUSH1 0x40 MSTORE POP DUP2 ADD SWAP1 PUSH2 0xBAD SWAP2 SWAP1 PUSH2 0x1880 JUMP JUMPDEST SWAP1 POP DUP2 PUSH20 0xFFFFFFFFFFFFFFFFFFFFFFFFFFFFFFFFFFFFFFFF AND PUSH4 0xA9059CBB CALLER DUP4 PUSH1 0x40 MLOAD DUP4 PUSH4 0xFFFFFFFF AND PUSH1 0xE0 SHL DUP2 MSTORE PUSH1 0x4 ADD PUSH2 0xBEA SWAP3 SWAP2 SWAP1 PUSH2 0x1A3E JUMP JUMPDEST PUSH1 0x20 PUSH1 0x40 MLOAD DUP1 DUP4 SUB DUP2 PUSH1 0x0 DUP8 GAS CALL ISZERO DUP1 ISZERO PUSH2 0xC09 JUMPI RETURNDATASIZE PUSH1 0x0 DUP1 RETURNDATACOPY RETURNDATASIZE PUSH1 0x0 REVERT JUMPDEST POP POP POP POP PUSH1 0x40 MLOAD RETURNDATASIZE PUSH1 0x1F NOT PUSH1 0x1F DUP3 ADD AND DUP3 ADD DUP1 PUSH1 0x40 MSTORE POP DUP2 ADD SWAP1 PUSH2 0xC2D SWAP2 SWAP1 PUSH2 0x1A7C JUMP JUMPDEST POP POP POP JUMP JUMPDEST PUSH2 0xC3A PUSH2 0x643 JUMP JUMPDEST PUSH20 0xFFFFFFFFFFFFFFFFFFFFFFFFFFFFFFFFFFFFFFFF AND CALLER PUSH20 0xFFFFFFFFFFFFFFFFFFFFFFFFFFFFFFFFFFFFFFFF AND EQ DUP1 PUSH2 0xCBC JUMPI POP PUSH1 0x6A PUSH1 0x0 CALLER PUSH20 0xFFFFFFFFFFFFFFFFFFFFFFFFFFFFFFFFFFFFFFFF AND PUSH20 0xFFFFFFFFFFFFFFFFFFFFFFFFFFFFFFFFFFFFFFFF AND DUP2 MSTORE PUSH1 0x20 ADD SWAP1 DUP2 MSTORE PUSH1 0x20 ADD PUSH1 0x0 KECCAK256 PUSH1 0x0 SWAP1 SLOAD SWAP1 PUSH2 0x100 EXP SWAP1 DIV PUSH1 0xFF AND JUMPDEST PUSH2 0xCC5 JUMPI PUSH1 0x0 DUP1 REVERT JUMPDEST PUSH2 0xCCD PUSH2 0x1422 JUMP JUMPDEST PUSH1 0x0 PUSH2 0xCD7 PUSH2 0x57A JUMP JUMPDEST SWAP1 POP PUSH1 0x0 DUP1 PUSH1 0x0 PUSH3 0x93A80 DUP1 TIMESTAMP PUSH2 0xCEE SWAP2 SWAP1 PUSH2 0x1AD8 JUMP JUMPDEST PUSH2 0xCF8 SWAP2 SWAP1 PUSH2 0x1B09 JUMP JUMPDEST SWAP1 POP PUSH2 0x3E8 DUP5 GT ISZERO PUSH2 0x1220 JUMPI PUSH1 0x0 PUSH20 0xFFFFFFFFFFFFFFFFFFFFFFFFFFFFFFFFFFFFFFFF AND PUSH1 0x68 PUSH1 0x0 SWAP1 SLOAD SWAP1 PUSH2 0x100 EXP SWAP1 DIV PUSH20 0xFFFFFFFFFFFFFFFFFFFFFFFFFFFFFFFFFFFFFFFF AND PUSH20 0xFFFFFFFFFFFFFFFFFFFFFFFFFFFFFFFFFFFFFFFF AND EQ PUSH2 0xF3F JUMPI PUSH2 0x3E8 PUSH1 0x65 SLOAD DUP6 PUSH2 0xD6B SWAP2 SWAP1 PUSH2 0x1B09 JUMP JUMPDEST PUSH2 0xD75 SWAP2 SWAP1 PUSH2 0x1AD8 JUMP JUMPDEST SWAP3 POP PUSH1 0x67 PUSH1 0x0 SWAP1 SLOAD SWAP1 PUSH2 0x100 EXP SWAP1 DIV PUSH20 0xFFFFFFFFFFFFFFFFFFFFFFFFFFFFFFFFFFFFFFFF AND PUSH20 0xFFFFFFFFFFFFFFFFFFFFFFFFFFFFFFFFFFFFFFFF AND PUSH4 0xA9059CBB PUSH1 0x68 PUSH1 0x0 SWAP1 SLOAD SWAP1 PUSH2 0x100 EXP SWAP1 DIV PUSH20 0xFFFFFFFFFFFFFFFFFFFFFFFFFFFFFFFFFFFFFFFF AND DUP6 PUSH1 0x40 MLOAD DUP4 PUSH4 0xFFFFFFFF AND PUSH1 0xE0 SHL DUP2 MSTORE PUSH1 0x4 ADD PUSH2 0xDF6 SWAP3 SWAP2 SWAP1 PUSH2 0x1A3E JUMP JUMPDEST PUSH1 0x20 PUSH1 0x40 MLOAD DUP1 DUP4 SUB DUP2 PUSH1 0x0 DUP8 GAS CALL ISZERO DUP1 ISZERO PUSH2 0xE15 JUMPI RETURNDATASIZE PUSH1 0x0 DUP1 RETURNDATACOPY RETURNDATASIZE PUSH1 0x0 REVERT JUMPDEST POP POP POP POP PUSH1 0x40 MLOAD RETURNDATASIZE PUSH1 0x1F NOT PUSH1 0x1F DUP3 ADD AND DUP3 ADD DUP1 PUSH1 0x40 MSTORE POP DUP2 ADD SWAP1 PUSH2 0xE39 SWAP2 SWAP1 PUSH2 0x1A7C JUMP JUMPDEST POP PUSH1 0x68 PUSH1 0x0 SWAP1 SLOAD SWAP1 PUSH2 0x100 EXP SWAP1 DIV PUSH20 0xFFFFFFFFFFFFFFFFFFFFFFFFFFFFFFFFFFFFFFFF AND PUSH20 0xFFFFFFFFFFFFFFFFFFFFFFFFFFFFFFFFFFFFFFFF AND PUSH4 0xD294F093 PUSH1 0x40 MLOAD DUP2 PUSH4 0xFFFFFFFF AND PUSH1 0xE0 SHL DUP2 MSTORE PUSH1 0x4 ADD PUSH1 0x0 PUSH1 0x40 MLOAD DUP1 DUP4 SUB DUP2 PUSH1 0x0 DUP8 DUP1 EXTCODESIZE ISZERO DUP1 ISZERO PUSH2 0xEA4 JUMPI PUSH1 0x0 DUP1 REVERT JUMPDEST POP GAS CALL ISZERO DUP1 ISZERO PUSH2 0xEB8 JUMPI RETURNDATASIZE PUSH1 0x0 DUP1 RETURNDATACOPY RETURNDATASIZE PUSH1 0x0 REVERT JUMPDEST POP POP POP POP PUSH1 0x68 PUSH1 0x0 SWAP1 SLOAD SWAP1 PUSH2 0x100 EXP SWAP1 DIV PUSH20 0xFFFFFFFFFFFFFFFFFFFFFFFFFFFFFFFFFFFFFFFF AND PUSH20 0xFFFFFFFFFFFFFFFFFFFFFFFFFFFFFFFFFFFFFFFF AND PUSH4 0x8119C065 PUSH1 0x40 MLOAD DUP2 PUSH4 0xFFFFFFFF AND PUSH1 0xE0 SHL DUP2 MSTORE PUSH1 0x4 ADD PUSH1 0x0 PUSH1 0x40 MLOAD DUP1 DUP4 SUB DUP2 PUSH1 0x0 DUP8 DUP1 EXTCODESIZE ISZERO DUP1 ISZERO PUSH2 0xF26 JUMPI PUSH1 0x0 DUP1 REVERT JUMPDEST POP GAS CALL ISZERO DUP1 ISZERO PUSH2 0xF3A JUMPI RETURNDATASIZE PUSH1 0x0 DUP1 RETURNDATACOPY RETURNDATASIZE PUSH1 0x0 REVERT JUMPDEST POP POP POP POP JUMPDEST PUSH1 0x0 PUSH20 0xFFFFFFFFFFFFFFFFFFFFFFFFFFFFFFFFFFFFFFFF AND PUSH1 0x69 PUSH1 0x0 SWAP1 SLOAD SWAP1 PUSH2 0x100 EXP SWAP1 DIV PUSH20 0xFFFFFFFFFFFFFFFFFFFFFFFFFFFFFFFFFFFFFFFF AND PUSH20 0xFFFFFFFFFFFFFFFFFFFFFFFFFFFFFFFFFFFFFFFF AND EQ PUSH2 0x11E1 JUMPI PUSH2 0x3E8 PUSH1 0x66 SLOAD DUP6 PUSH2 0xFA6 SWAP2 SWAP1 PUSH2 0x1B09 JUMP JUMPDEST PUSH2 0xFB0 SWAP2 SWAP1 PUSH2 0x1AD8 JUMP JUMPDEST SWAP2 POP DUP2 PUSH2 0xFBB PUSH2 0x57A JUMP JUMPDEST LT ISZERO PUSH2 0xFCC JUMPI PUSH2 0xFC9 PUSH2 0x57A JUMP JUMPDEST SWAP2 POP JUMPDEST PUSH1 0x67 PUSH1 0x0 SWAP1 SLOAD SWAP1 PUSH2 0x100 EXP SWAP1 DIV PUSH20 0xFFFFFFFFFFFFFFFFFFFFFFFFFFFFFFFFFFFFFFFF AND PUSH20 0xFFFFFFFFFFFFFFFFFFFFFFFFFFFFFFFFFFFFFFFF AND PUSH4 0x95EA7B3 PUSH1 0x69 PUSH1 0x0 SWAP1 SLOAD SWAP1 PUSH2 0x100 EXP SWAP1 DIV PUSH20 0xFFFFFFFFFFFFFFFFFFFFFFFFFFFFFFFFFFFFFFFF AND PUSH1 0x0 PUSH1 0x40 MLOAD DUP4 PUSH4 0xFFFFFFFF AND PUSH1 0xE0 SHL DUP2 MSTORE PUSH1 0x4 ADD PUSH2 0x104C SWAP3 SWAP2 SWAP1 PUSH2 0x1B9E JUMP JUMPDEST PUSH1 0x20 PUSH1 0x40 MLOAD DUP1 DUP4 SUB DUP2 PUSH1 0x0 DUP8 GAS CALL ISZERO DUP1 ISZERO PUSH2 0x106B JUMPI RETURNDATASIZE PUSH1 0x0 DUP1 RETURNDATACOPY RETURNDATASIZE PUSH1 0x0 REVERT JUMPDEST POP POP POP POP PUSH1 0x40 MLOAD RETURNDATASIZE PUSH1 0x1F NOT PUSH1 0x1F DUP3 ADD AND DUP3 ADD DUP1 PUSH1 0x40 MSTORE POP DUP2 ADD SWAP1 PUSH2 0x108F SWAP2 SWAP1 PUSH2 0x1A7C JUMP JUMPDEST POP PUSH1 0x67 PUSH1 0x0 SWAP1 SLOAD SWAP1 PUSH2 0x100 EXP SWAP1 DIV PUSH20 0xFFFFFFFFFFFFFFFFFFFFFFFFFFFFFFFFFFFFFFFF AND PUSH20 0xFFFFFFFFFFFFFFFFFFFFFFFFFFFFFFFFFFFFFFFF AND PUSH4 0x95EA7B3 PUSH1 0x69 PUSH1 0x0 SWAP1 SLOAD SWAP1 PUSH2 0x100 EXP SWAP1 DIV PUSH20 0xFFFFFFFFFFFFFFFFFFFFFFFFFFFFFFFFFFFFFFFF AND DUP5 PUSH1 0x40 MLOAD DUP4 PUSH4 0xFFFFFFFF AND PUSH1 0xE0 SHL DUP2 MSTORE PUSH1 0x4 ADD PUSH2 0x110F SWAP3 SWAP2 SWAP1 PUSH2 0x1A3E JUMP JUMPDEST PUSH1 0x20 PUSH1 0x40 MLOAD DUP1 DUP4 SUB DUP2 PUSH1 0x0 DUP8 GAS CALL ISZERO DUP1 ISZERO PUSH2 0x112E JUMPI RETURNDATASIZE PUSH1 0x0 DUP1 RETURNDATACOPY RETURNDATASIZE PUSH1 0x0 REVERT JUMPDEST POP POP POP POP PUSH1 0x40 MLOAD RETURNDATASIZE PUSH1 0x1F NOT PUSH1 0x1F DUP3 ADD AND DUP3 ADD DUP1 PUSH1 0x40 MSTORE POP DUP2 ADD SWAP1 PUSH2 0x1152 SWAP2 SWAP1 PUSH2 0x1A7C JUMP JUMPDEST POP PUSH1 0x69 PUSH1 0x0 SWAP1 SLOAD SWAP1 PUSH2 0x100 EXP SWAP1 DIV PUSH20 0xFFFFFFFFFFFFFFFFFFFFFFFFFFFFFFFFFFFFFFFF AND PUSH20 0xFFFFFFFFFFFFFFFFFFFFFFFFFFFFFFFFFFFFFFFF AND PUSH4 0xB6B55F25 DUP4 PUSH1 0x40 MLOAD DUP3 PUSH4 0xFFFFFFFF AND PUSH1 0xE0 SHL DUP2 MSTORE PUSH1 0x4 ADD PUSH2 0x11AE SWAP2 SWAP1 PUSH2 0x1665 JUMP JUMPDEST PUSH1 0x0 PUSH1 0x40 MLOAD DUP1 DUP4 SUB DUP2 PUSH1 0x0 DUP8 DUP1 EXTCODESIZE ISZERO DUP1 ISZERO PUSH2 0x11C8 JUMPI PUSH1 0x0 DUP1 REVERT JUMPDEST POP GAS CALL ISZERO DUP1 ISZERO PUSH2 0x11DC JUMPI RETURNDATASIZE PUSH1 0x0 DUP1 RETURNDATACOPY RETURNDATASIZE PUSH1 0x0 REVERT JUMPDEST POP POP POP POP JUMPDEST DUP1 PUSH32 0xCF0974DFD867840133A0D4B02F1672F24017796FB8892D1E0D587692E4DA90AB DUP5 DUP5 PUSH1 0x40 MLOAD PUSH2 0x1213 SWAP3 SWAP2 SWAP1 PUSH2 0x1BC7 JUMP JUMPDEST PUSH1 0x40 MLOAD DUP1 SWAP2 SUB SWAP1 LOG2 PUSH2 0x125C JUMP JUMPDEST DUP1 PUSH32 0xCF0974DFD867840133A0D4B02F1672F24017796FB8892D1E0D587692E4DA90AB PUSH1 0x0 DUP1 PUSH1 0x40 MLOAD PUSH2 0x1253 SWAP3 SWAP2 SWAP1 PUSH2 0x1BF0 JUMP JUMPDEST PUSH1 0x40 MLOAD DUP1 SWAP2 SUB SWAP1 LOG2 JUMPDEST POP POP POP POP JUMP JUMPDEST PUSH2 0x126A PUSH2 0x14B1 JUMP JUMPDEST PUSH20 0xFFFFFFFFFFFFFFFFFFFFFFFFFFFFFFFFFFFFFFFF AND PUSH2 0x1288 PUSH2 0x643 JUMP JUMPDEST PUSH20 0xFFFFFFFFFFFFFFFFFFFFFFFFFFFFFFFFFFFFFFFF AND EQ PUSH2 0x12DE JUMPI PUSH1 0x40 MLOAD PUSH32 0x8C379A000000000000000000000000000000000000000000000000000000000 DUP2 MSTORE PUSH1 0x4 ADD PUSH2 0x12D5 SWAP1 PUSH2 0x1C65 JUMP JUMPDEST PUSH1 0x40 MLOAD DUP1 SWAP2 SUB SWAP1 REVERT JUMPDEST JUMP JUMPDEST PUSH1 0x0 PUSH1 0x33 PUSH1 0x0 SWAP1 SLOAD SWAP1 PUSH2 0x100 EXP SWAP1 DIV PUSH20 0xFFFFFFFFFFFFFFFFFFFFFFFFFFFFFFFFFFFFFFFF AND SWAP1 POP DUP2 PUSH1 0x33 PUSH1 0x0 PUSH2 0x100 EXP DUP2 SLOAD DUP2 PUSH20 0xFFFFFFFFFFFFFFFFFFFFFFFFFFFFFFFFFFFFFFFF MUL NOT AND SWAP1 DUP4 PUSH20 0xFFFFFFFFFFFFFFFFFFFFFFFFFFFFFFFFFFFFFFFF AND MUL OR SWAP1 SSTORE POP DUP2 PUSH20 0xFFFFFFFFFFFFFFFFFFFFFFFFFFFFFFFFFFFFFFFF AND DUP2 PUSH20 0xFFFFFFFFFFFFFFFFFFFFFFFFFFFFFFFFFFFFFFFF AND PUSH32 0x8BE0079C531659141344CD1FD0A4F28419497F9722A3DAAFE3B4186F6B6457E0 PUSH1 0x40 MLOAD PUSH1 0x40 MLOAD DUP1 SWAP2 SUB SWAP1 LOG3 POP POP JUMP JUMPDEST PUSH1 0x0 DUP1 DUP3 PUSH20 0xFFFFFFFFFFFFFFFFFFFFFFFFFFFFFFFFFFFFFFFF AND EXTCODESIZE GT SWAP1 POP SWAP2 SWAP1 POP JUMP JUMPDEST PUSH1 0x0 PUSH1 0x1 SWAP1 SLOAD SWAP1 PUSH2 0x100 EXP SWAP1 DIV PUSH1 0xFF AND PUSH2 0x1418 JUMPI PUSH1 0x40 MLOAD PUSH32 0x8C379A000000000000000000000000000000000000000000000000000000000 DUP2 MSTORE PUSH1 0x4 ADD PUSH2 0x140F SWAP1 PUSH2 0x1CF7 JUMP JUMPDEST PUSH1 0x40 MLOAD DUP1 SWAP2 SUB SWAP1 REVERT JUMPDEST PUSH2 0x1420 PUSH2 0x14B9 JUMP JUMPDEST JUMP JUMPDEST PUSH1 0x0 SELFBALANCE GT ISZERO PUSH2 0x14AF JUMPI PUSH1 0x67 PUSH1 0x0 SWAP1 SLOAD SWAP1 PUSH2 0x100 EXP SWAP1 DIV PUSH20 0xFFFFFFFFFFFFFFFFFFFFFFFFFFFFFFFFFFFFFFFF AND PUSH20 0xFFFFFFFFFFFFFFFFFFFFFFFFFFFFFFFFFFFFFFFF AND PUSH4 0xD0E30DB0 SELFBALANCE PUSH1 0x40 MLOAD DUP3 PUSH4 0xFFFFFFFF AND PUSH1 0xE0 SHL DUP2 MSTORE PUSH1 0x4 ADD PUSH1 0x0 PUSH1 0x40 MLOAD DUP1 DUP4 SUB DUP2 DUP6 DUP9 DUP1 EXTCODESIZE ISZERO DUP1 ISZERO PUSH2 0x1495 JUMPI PUSH1 0x0 DUP1 REVERT JUMPDEST POP GAS CALL ISZERO DUP1 ISZERO PUSH2 0x14A9 JUMPI RETURNDATASIZE PUSH1 0x0 DUP1 RETURNDATACOPY RETURNDATASIZE PUSH1 0x0 REVERT JUMPDEST POP POP POP POP POP JUMPDEST JUMP JUMPDEST PUSH1 0x0 CALLER SWAP1 POP SWAP1 JUMP JUMPDEST PUSH1 0x0 PUSH1 0x1 SWAP1 SLOAD SWAP1 PUSH2 0x100 EXP SWAP1 DIV PUSH1 0xFF AND PUSH2 0x1508 JUMPI PUSH1 0x40 MLOAD PUSH32 0x8C379A000000000000000000000000000000000000000000000000000000000 DUP2 MSTORE PUSH1 0x4 ADD PUSH2 0x14FF SWAP1 PUSH2 0x1CF7 JUMP JUMPDEST PUSH1 0x40 MLOAD DUP1 SWAP2 SUB SWAP1 REVERT JUMPDEST PUSH2 0x1518 PUSH2 0x1513 PUSH2 0x14B1 JUMP JUMPDEST PUSH2 0x12E0 JUMP JUMPDEST JUMP JUMPDEST PUSH1 0x0 DUP1 REVERT JUMPDEST PUSH1 0x0 DUP2 SWAP1 POP SWAP2 SWAP1 POP JUMP JUMPDEST PUSH2 0x1532 DUP2 PUSH2 0x151F JUMP JUMPDEST DUP2 EQ PUSH2 0x153D JUMPI PUSH1 0x0 DUP1 REVERT JUMPDEST POP JUMP JUMPDEST PUSH1 0x0 DUP2 CALLDATALOAD SWAP1 POP PUSH2 0x154F DUP2 PUSH2 0x1529 JUMP JUMPDEST SWAP3 SWAP2 POP POP JUMP JUMPDEST PUSH1 0x0 DUP1 PUSH1 0x40 DUP4 DUP6 SUB SLT ISZERO PUSH2 0x156C JUMPI PUSH2 0x156B PUSH2 0x151A JUMP JUMPDEST JUMPDEST PUSH1 0x0 PUSH2 0x157A DUP6 DUP3 DUP7 ADD PUSH2 0x1540 JUMP JUMPDEST SWAP3 POP POP PUSH1 0x20 PUSH2 0x158B DUP6 DUP3 DUP7 ADD PUSH2 0x1540 JUMP JUMPDEST SWAP2 POP POP SWAP3 POP SWAP3 SWAP1 POP JUMP JUMPDEST PUSH1 0x0 PUSH20 0xFFFFFFFFFFFFFFFFFFFFFFFFFFFFFFFFFFFFFFFF DUP3 AND SWAP1 POP SWAP2 SWAP1 POP JUMP JUMPDEST PUSH1 0x0 PUSH2 0x15C0 DUP3 PUSH2 0x1595 JUMP JUMPDEST SWAP1 POP SWAP2 SWAP1 POP JUMP JUMPDEST PUSH2 0x15D0 DUP2 PUSH2 0x15B5 JUMP JUMPDEST DUP2 EQ PUSH2 0x15DB JUMPI PUSH1 0x0 DUP1 REVERT JUMPDEST POP JUMP JUMPDEST PUSH1 0x0 DUP2 CALLDATALOAD SWAP1 POP PUSH2 0x15ED DUP2 PUSH2 0x15C7 JUMP JUMPDEST SWAP3 SWAP2 POP POP JUMP JUMPDEST PUSH1 0x0 PUSH1 0x20 DUP3 DUP5 SUB SLT ISZERO PUSH2 0x1609 JUMPI PUSH2 0x1608 PUSH2 0x151A JUMP JUMPDEST JUMPDEST PUSH1 0x0 PUSH2 0x1617 DUP5 DUP3 DUP6 ADD PUSH2 0x15DE JUMP JUMPDEST SWAP2 POP POP SWAP3 SWAP2 POP POP JUMP JUMPDEST PUSH1 0x0 DUP2 ISZERO ISZERO SWAP1 POP SWAP2 SWAP1 POP JUMP JUMPDEST PUSH2 0x1635 DUP2 PUSH2 0x1620 JUMP JUMPDEST DUP3 MSTORE POP POP JUMP JUMPDEST PUSH1 0x0 PUSH1 0x20 DUP3 ADD SWAP1 POP PUSH2 0x1650 PUSH1 0x0 DUP4 ADD DUP5 PUSH2 0x162C JUMP JUMPDEST SWAP3 SWAP2 POP POP JUMP JUMPDEST PUSH2 0x165F DUP2 PUSH2 0x151F JUMP JUMPDEST DUP3 MSTORE POP POP JUMP JUMPDEST PUSH1 0x0 PUSH1 0x20 DUP3 ADD SWAP1 POP PUSH2 0x167A PUSH1 0x0 DUP4 ADD DUP5 PUSH2 0x1656 JUMP JUMPDEST SWAP3 SWAP2 POP POP JUMP JUMPDEST PUSH2 0x1689 DUP2 PUSH2 0x15B5 JUMP JUMPDEST DUP3 MSTORE POP POP JUMP JUMPDEST PUSH1 0x0 PUSH1 0x20 DUP3 ADD SWAP1 POP PUSH2 0x16A4 PUSH1 0x0 DUP4 ADD DUP5 PUSH2 0x1680 JUMP JUMPDEST SWAP3 SWAP2 POP POP JUMP JUMPDEST PUSH1 0x0 DUP1 PUSH1 0x0 PUSH1 0x60 DUP5 DUP7 SUB SLT ISZERO PUSH2 0x16C3 JUMPI PUSH2 0x16C2 PUSH2 0x151A JUMP JUMPDEST JUMPDEST PUSH1 0x0 PUSH2 0x16D1 DUP7 DUP3 DUP8 ADD PUSH2 0x15DE JUMP JUMPDEST SWAP4 POP POP PUSH1 0x20 PUSH2 0x16E2 DUP7 DUP3 DUP8 ADD PUSH2 0x15DE JUMP JUMPDEST SWAP3 POP POP PUSH1 0x40 PUSH2 0x16F3 DUP7 DUP3 DUP8 ADD PUSH2 0x15DE JUMP JUMPDEST SWAP2 POP POP SWAP3 POP SWAP3 POP SWAP3 JUMP JUMPDEST PUSH2 0x1706 DUP2 PUSH2 0x1620 JUMP JUMPDEST DUP2 EQ PUSH2 0x1711 JUMPI PUSH1 0x0 DUP1 REVERT JUMPDEST POP JUMP JUMPDEST PUSH1 0x0 DUP2 CALLDATALOAD SWAP1 POP PUSH2 0x1723 DUP2 PUSH2 0x16FD JUMP JUMPDEST SWAP3 SWAP2 POP POP JUMP JUMPDEST PUSH1 0x0 DUP1 PUSH1 0x40 DUP4 DUP6 SUB SLT ISZERO PUSH2 0x1740 JUMPI PUSH2 0x173F PUSH2 0x151A JUMP JUMPDEST JUMPDEST PUSH1 0x0 PUSH2 0x174E DUP6 DUP3 DUP7 ADD PUSH2 0x15DE JUMP JUMPDEST SWAP3 POP POP PUSH1 0x20 PUSH2 0x175F DUP6 DUP3 DUP7 ADD PUSH2 0x1714 JUMP JUMPDEST SWAP2 POP POP SWAP3 POP SWAP3 SWAP1 POP JUMP JUMPDEST PUSH32 0x4E487B7100000000000000000000000000000000000000000000000000000000 PUSH1 0x0 MSTORE PUSH1 0x11 PUSH1 0x4 MSTORE PUSH1 0x24 PUSH1 0x0 REVERT JUMPDEST PUSH1 0x0 PUSH2 0x17A3 DUP3 PUSH2 0x151F JUMP JUMPDEST SWAP2 POP PUSH2 0x17AE DUP4 PUSH2 0x151F JUMP JUMPDEST SWAP3 POP DUP3 PUSH32 0xFFFFFFFFFFFFFFFFFFFFFFFFFFFFFFFFFFFFFFFFFFFFFFFFFFFFFFFFFFFFFFFF SUB DUP3 GT ISZERO PUSH2 0x17E3 JUMPI PUSH2 0x17E2 PUSH2 0x1769 JUMP JUMPDEST JUMPDEST DUP3 DUP3 ADD SWAP1 POP SWAP3 SWAP2 POP POP JUMP JUMPDEST PUSH1 0x0 DUP3 DUP3 MSTORE PUSH1 0x20 DUP3 ADD SWAP1 POP SWAP3 SWAP2 POP POP JUMP JUMPDEST PUSH32 0x746F6F206D616E79000000000000000000000000000000000000000000000000 PUSH1 0x0 DUP3 ADD MSTORE POP JUMP JUMPDEST PUSH1 0x0 PUSH2 0x1835 PUSH1 0x8 DUP4 PUSH2 0x17EE JUMP JUMPDEST SWAP2 POP PUSH2 0x1840 DUP3 PUSH2 0x17FF JUMP JUMPDEST PUSH1 0x20 DUP3 ADD SWAP1 POP SWAP2 SWAP1 POP JUMP JUMPDEST PUSH1 0x0 PUSH1 0x20 DUP3 ADD SWAP1 POP DUP2 DUP2 SUB PUSH1 0x0 DUP4 ADD MSTORE PUSH2 0x1864 DUP2 PUSH2 0x1828 JUMP JUMPDEST SWAP1 POP SWAP2 SWAP1 POP JUMP JUMPDEST PUSH1 0x0 DUP2 MLOAD SWAP1 POP PUSH2 0x187A DUP2 PUSH2 0x1529 JUMP JUMPDEST SWAP3 SWAP2 POP POP JUMP JUMPDEST PUSH1 0x0 PUSH1 0x20 DUP3 DUP5 SUB SLT ISZERO PUSH2 0x1896 JUMPI PUSH2 0x1895 PUSH2 0x151A JUMP JUMPDEST JUMPDEST PUSH1 0x0 PUSH2 0x18A4 DUP5 DUP3 DUP6 ADD PUSH2 0x186B JUMP JUMPDEST SWAP2 POP POP SWAP3 SWAP2 POP POP JUMP JUMPDEST PUSH32 0x496E697469616C697A61626C653A20636F6E747261637420697320616C726561 PUSH1 0x0 DUP3 ADD MSTORE PUSH32 0x647920696E697469616C697A6564000000000000000000000000000000000000 PUSH1 0x20 DUP3 ADD MSTORE POP JUMP JUMPDEST PUSH1 0x0 PUSH2 0x1909 PUSH1 0x2E DUP4 PUSH2 0x17EE JUMP JUMPDEST SWAP2 POP PUSH2 0x1914 DUP3 PUSH2 0x18AD JUMP JUMPDEST PUSH1 0x40 DUP3 ADD SWAP1 POP SWAP2 SWAP1 POP JUMP JUMPDEST PUSH1 0x0 PUSH1 0x20 DUP3 ADD SWAP1 POP DUP2 DUP2 SUB PUSH1 0x0 DUP4 ADD MSTORE PUSH2 0x1938 DUP2 PUSH2 0x18FC JUMP JUMPDEST SWAP1 POP SWAP2 SWAP1 POP JUMP JUMPDEST PUSH1 0x0 DUP2 SWAP1 POP SWAP2 SWAP1 POP JUMP JUMPDEST PUSH1 0x0 PUSH1 0xFF DUP3 AND SWAP1 POP SWAP2 SWAP1 POP JUMP JUMPDEST PUSH1 0x0 DUP2 SWAP1 POP SWAP2 SWAP1 POP JUMP JUMPDEST PUSH1 0x0 PUSH2 0x197B PUSH2 0x1976 PUSH2 0x1971 DUP5 PUSH2 0x193F JUMP JUMPDEST PUSH2 0x1956 JUMP JUMPDEST PUSH2 0x1949 JUMP JUMPDEST SWAP1 POP SWAP2 SWAP1 POP JUMP JUMPDEST PUSH2 0x198B DUP2 PUSH2 0x1960 JUMP JUMPDEST DUP3 MSTORE POP POP JUMP JUMPDEST PUSH1 0x0 PUSH1 0x20 DUP3 ADD SWAP1 POP PUSH2 0x19A6 PUSH1 0x0 DUP4 ADD DUP5 PUSH2 0x1982 JUMP JUMPDEST SWAP3 SWAP2 POP POP JUMP JUMPDEST PUSH32 0x4F776E61626C653A206E6577206F776E657220697320746865207A65726F2061 PUSH1 0x0 DUP3 ADD MSTORE PUSH32 0x6464726573730000000000000000000000000000000000000000000000000000 PUSH1 0x20 DUP3 ADD MSTORE POP JUMP JUMPDEST PUSH1 0x0 PUSH2 0x1A08 PUSH1 0x26 DUP4 PUSH2 0x17EE JUMP JUMPDEST SWAP2 POP PUSH2 0x1A13 DUP3 PUSH2 0x19AC JUMP JUMPDEST PUSH1 0x40 DUP3 ADD SWAP1 POP SWAP2 SWAP1 POP JUMP JUMPDEST PUSH1 0x0 PUSH1 0x20 DUP3 ADD SWAP1 POP DUP2 DUP2 SUB PUSH1 0x0 DUP4 ADD MSTORE PUSH2 0x1A37 DUP2 PUSH2 0x19FB JUMP JUMPDEST SWAP1 POP SWAP2 SWAP1 POP JUMP JUMPDEST PUSH1 0x0 PUSH1 0x40 DUP3 ADD SWAP1 POP PUSH2 0x1A53 PUSH1 0x0 DUP4 ADD DUP6 PUSH2 0x1680 JUMP JUMPDEST PUSH2 0x1A60 PUSH1 0x20 DUP4 ADD DUP5 PUSH2 0x1656 JUMP JUMPDEST SWAP4 SWAP3 POP POP POP JUMP JUMPDEST PUSH1 0x0 DUP2 MLOAD SWAP1 POP PUSH2 0x1A76 DUP2 PUSH2 0x16FD JUMP JUMPDEST SWAP3 SWAP2 POP POP JUMP JUMPDEST PUSH1 0x0 PUSH1 0x20 DUP3 DUP5 SUB SLT ISZERO PUSH2 0x1A92 JUMPI PUSH2 0x1A91 PUSH2 0x151A JUMP JUMPDEST JUMPDEST PUSH1 0x0 PUSH2 0x1AA0 DUP5 DUP3 DUP6 ADD PUSH2 0x1A67 JUMP JUMPDEST SWAP2 POP POP SWAP3 SWAP2 POP POP JUMP JUMPDEST PUSH32 0x4E487B7100000000000000000000000000000000000000000000000000000000 PUSH1 0x0 MSTORE PUSH1 0x12 PUSH1 0x4 MSTORE PUSH1 0x24 PUSH1 0x0 REVERT JUMPDEST PUSH1 0x0 PUSH2 0x1AE3 DUP3 PUSH2 0x151F JUMP JUMPDEST SWAP2 POP PUSH2 0x1AEE DUP4 PUSH2 0x151F JUMP JUMPDEST SWAP3 POP DUP3 PUSH2 0x1AFE JUMPI PUSH2 0x1AFD PUSH2 0x1AA9 JUMP JUMPDEST JUMPDEST DUP3 DUP3 DIV SWAP1 POP SWAP3 SWAP2 POP POP JUMP JUMPDEST PUSH1 0x0 PUSH2 0x1B14 DUP3 PUSH2 0x151F JUMP JUMPDEST SWAP2 POP PUSH2 0x1B1F DUP4 PUSH2 0x151F JUMP JUMPDEST SWAP3 POP DUP2 PUSH32 0xFFFFFFFFFFFFFFFFFFFFFFFFFFFFFFFFFFFFFFFFFFFFFFFFFFFFFFFFFFFFFFFF DIV DUP4 GT DUP3 ISZERO ISZERO AND ISZERO PUSH2 0x1B58 JUMPI PUSH2 0x1B57 PUSH2 0x1769 JUMP JUMPDEST JUMPDEST DUP3 DUP3 MUL SWAP1 POP SWAP3 SWAP2 POP POP JUMP JUMPDEST PUSH1 0x0 DUP2 SWAP1 POP SWAP2 SWAP1 POP JUMP JUMPDEST PUSH1 0x0 PUSH2 0x1B88 PUSH2 0x1B83 PUSH2 0x1B7E DUP5 PUSH2 0x1B63 JUMP JUMPDEST PUSH2 0x1956 JUMP JUMPDEST PUSH2 0x151F JUMP JUMPDEST SWAP1 POP SWAP2 SWAP1 POP JUMP JUMPDEST PUSH2 0x1B98 DUP2 PUSH2 0x1B6D JUMP JUMPDEST DUP3 MSTORE POP POP JUMP JUMPDEST PUSH1 0x0 PUSH1 0x40 DUP3 ADD SWAP1 POP PUSH2 0x1BB3 PUSH1 0x0 DUP4 ADD DUP6 PUSH2 0x1680 JUMP JUMPDEST PUSH2 0x1BC0 PUSH1 0x20 DUP4 ADD DUP5 PUSH2 0x1B8F JUMP JUMPDEST SWAP4 SWAP3 POP POP POP JUMP JUMPDEST PUSH1 0x0 PUSH1 0x40 DUP3 ADD SWAP1 POP PUSH2 0x1BDC PUSH1 0x0 DUP4 ADD DUP6 PUSH2 0x1656 JUMP JUMPDEST PUSH2 0x1BE9 PUSH1 0x20 DUP4 ADD DUP5 PUSH2 0x1656 JUMP JUMPDEST SWAP4 SWAP3 POP POP POP JUMP JUMPDEST PUSH1 0x0 PUSH1 0x40 DUP3 ADD SWAP1 POP PUSH2 0x1C05 PUSH1 0x0 DUP4 ADD DUP6 PUSH2 0x1B8F JUMP JUMPDEST PUSH2 0x1C12 PUSH1 0x20 DUP4 ADD DUP5 PUSH2 0x1B8F JUMP JUMPDEST SWAP4 SWAP3 POP POP POP JUMP JUMPDEST PUSH32 0x4F776E61626C653A2063616C6C6572206973206E6F7420746865206F776E6572 PUSH1 0x0 DUP3 ADD MSTORE POP JUMP JUMPDEST PUSH1 0x0 PUSH2 0x1C4F PUSH1 0x20 DUP4 PUSH2 0x17EE JUMP JUMPDEST SWAP2 POP PUSH2 0x1C5A DUP3 PUSH2 0x1C19 JUMP JUMPDEST PUSH1 0x20 DUP3 ADD SWAP1 POP SWAP2 SWAP1 POP JUMP JUMPDEST PUSH1 0x0 PUSH1 0x20 DUP3 ADD SWAP1 POP DUP2 DUP2 SUB PUSH1 0x0 DUP4 ADD MSTORE PUSH2 0x1C7E DUP2 PUSH2 0x1C42 JUMP JUMPDEST SWAP1 POP SWAP2 SWAP1 POP JUMP JUMPDEST PUSH32 0x496E697469616C697A61626C653A20636F6E7472616374206973206E6F742069 PUSH1 0x0 DUP3 ADD MSTORE PUSH32 0x6E697469616C697A696E67000000000000000000000000000000000000000000 PUSH1 0x20 DUP3 ADD MSTORE POP JUMP JUMPDEST PUSH1 0x0 PUSH2 0x1CE1 PUSH1 0x2B DUP4 PUSH2 0x17EE JUMP JUMPDEST SWAP2 POP PUSH2 0x1CEC DUP3 PUSH2 0x1C85 JUMP JUMPDEST PUSH1 0x40 DUP3 ADD SWAP1 POP SWAP2 SWAP1 POP JUMP JUMPDEST PUSH1 0x0 PUSH1 0x20 DUP3 ADD SWAP1 POP DUP2 DUP2 SUB PUSH1 0x0 DUP4 ADD MSTORE PUSH2 0x1D10 DUP2 PUSH2 0x1CD4 JUMP JUMPDEST SWAP1 POP SWAP2 SWAP1 POP JUMP INVALID LOG2 PUSH5 0x6970667358 0x22 SLT KECCAK256 SLOAD 0x5C 0xE4 ADDMOD 0x4D SDIV SWAP5 SWAP10 DUP14 0xEC LOG2 DUP3 0xE9 ISZERO 0x2F 0xD 0xDC SLOAD ADDRESS 0xC LOG0 0x22 LOG1 LOG4 0xC9 TIMESTAMP 0xAE SLOAD 0x4C SWAP2 PUSH30 0x3A64736F6C634300080D0033000000000000000000000000000000000000 "
				},
				"gasEstimates": {
					"creation": {
						"codeDepositCost": "1500200",
						"executionCost": "1568",
						"totalCost": "1501768"
					},
					"external": {
						"PRECISION()": "418",
						"WEEK()": "395",
						"balanceOf()": "infinite",
						"converterFee()": "2540",
						"initialize(address,address,address)": "infinite",
						"owner()": "2567",
						"renounceOwnership()": "30488",
						"royalties()": "2536",
						"royaltiesFee()": "2496",
						"setConverter(address)": "27132",
						"setFees(uint256,uint256)": "infinite",
						"setRoyalties(address)": "27067",
						"setSplitter(address,bool)": "27322",
						"split()": "infinite",
						"splitter(address)": "2913",
						"stakingConverter()": "2559",
						"swapWBNBToBNB()": "infinite",
						"transferOwnership(address)": "30788",
						"wbnb()": "2537",
						"withdrawERC20(address)": "infinite"
					},
					"internal": {
						"_swapWBNBToBNB()": "infinite"
					}
				},
				"methodIdentifiers": {
					"PRECISION()": "aaf5eb68",
					"WEEK()": "f4359ce5",
					"balanceOf()": "722713f7",
					"converterFee()": "de74d499",
					"initialize(address,address,address)": "c0c53b8b",
					"owner()": "8da5cb5b",
					"renounceOwnership()": "715018a6",
					"royalties()": "f053dc5c",
					"royaltiesFee()": "99093a33",
					"setConverter(address)": "b19337a4",
					"setFees(uint256,uint256)": "0b78f9c0",
					"setRoyalties(address)": "2a9e63c6",
					"setSplitter(address,bool)": "d3ce9ab3",
					"split()": "f7654176",
					"splitter(address)": "351ad5e8",
					"stakingConverter()": "ce08baa7",
					"swapWBNBToBNB()": "de3b8b12",
					"transferOwnership(address)": "f2fde38b",
					"wbnb()": "8d72647e",
					"withdrawERC20(address)": "f4f3b200"
				}
			},
			"storageLayout": {
				"storage": [
					{
						"astId": 138,
						"contract": "contracts/NFTSalesSplitter.sol:NFTSalesSplitter",
						"label": "_initialized",
						"offset": 0,
						"slot": "0",
						"type": "t_uint8"
					},
					{
						"astId": 141,
						"contract": "contracts/NFTSalesSplitter.sol:NFTSalesSplitter",
						"label": "_initializing",
						"offset": 1,
						"slot": "0",
						"type": "t_bool"
					},
					{
						"astId": 625,
						"contract": "contracts/NFTSalesSplitter.sol:NFTSalesSplitter",
						"label": "__gap",
						"offset": 0,
						"slot": "1",
						"type": "t_array(t_uint256)50_storage"
					},
					{
						"astId": 10,
						"contract": "contracts/NFTSalesSplitter.sol:NFTSalesSplitter",
						"label": "_owner",
						"offset": 0,
						"slot": "51",
						"type": "t_address"
					},
					{
						"astId": 130,
						"contract": "contracts/NFTSalesSplitter.sol:NFTSalesSplitter",
						"label": "__gap",
						"offset": 0,
						"slot": "52",
						"type": "t_array(t_uint256)49_storage"
					},
					{
						"astId": 659,
						"contract": "contracts/NFTSalesSplitter.sol:NFTSalesSplitter",
						"label": "converterFee",
						"offset": 0,
						"slot": "101",
						"type": "t_uint256"
					},
					{
						"astId": 661,
						"contract": "contracts/NFTSalesSplitter.sol:NFTSalesSplitter",
						"label": "royaltiesFee",
						"offset": 0,
						"slot": "102",
						"type": "t_uint256"
					},
					{
						"astId": 663,
						"contract": "contracts/NFTSalesSplitter.sol:NFTSalesSplitter",
						"label": "wbnb",
						"offset": 0,
						"slot": "103",
						"type": "t_address"
					},
					{
						"astId": 665,
						"contract": "contracts/NFTSalesSplitter.sol:NFTSalesSplitter",
						"label": "stakingConverter",
						"offset": 0,
						"slot": "104",
						"type": "t_address"
					},
					{
						"astId": 667,
						"contract": "contracts/NFTSalesSplitter.sol:NFTSalesSplitter",
						"label": "royalties",
						"offset": 0,
						"slot": "105",
						"type": "t_address"
					},
					{
						"astId": 671,
						"contract": "contracts/NFTSalesSplitter.sol:NFTSalesSplitter",
						"label": "splitter",
						"offset": 0,
						"slot": "106",
						"type": "t_mapping(t_address,t_bool)"
					}
				],
				"types": {
					"t_address": {
						"encoding": "inplace",
						"label": "address",
						"numberOfBytes": "20"
					},
					"t_array(t_uint256)49_storage": {
						"base": "t_uint256",
						"encoding": "inplace",
						"label": "uint256[49]",
						"numberOfBytes": "1568"
					},
					"t_array(t_uint256)50_storage": {
						"base": "t_uint256",
						"encoding": "inplace",
						"label": "uint256[50]",
						"numberOfBytes": "1600"
					},
					"t_bool": {
						"encoding": "inplace",
						"label": "bool",
						"numberOfBytes": "1"
					},
					"t_mapping(t_address,t_bool)": {
						"encoding": "mapping",
						"key": "t_address",
						"label": "mapping(address => bool)",
						"numberOfBytes": "32",
						"value": "t_bool"
					},
					"t_uint256": {
						"encoding": "inplace",
						"label": "uint256",
						"numberOfBytes": "32"
					},
					"t_uint8": {
						"encoding": "inplace",
						"label": "uint8",
						"numberOfBytes": "1"
					}
				}
			},
			"userdoc": {
				"kind": "user",
				"methods": {
					"withdrawERC20(address)": {
						"notice": "in case token get stuck."
					}
				},
				"version": 1
			}
		}
	}
}