{
  "_format": "hh-sol-artifact-1",
  "contractName": "AirdropClaimTheNFT",
  "sourceName": "contracts/MerkleTree/AirdropClaimTheNFT.sol",
  "abi": [
    {
      "inputs": [
        {
          "internalType": "address",
          "name": "_token",
          "type": "address"
        },
        {
          "internalType": "address",
          "name": "_ve",
          "type": "address"
        }
      ],
      "stateMutability": "nonpayable",
      "type": "constructor"
    },
    {
      "anonymous": false,
      "inputs": [
        {
          "indexed": true,
          "internalType": "address",
          "name": "_who",
          "type": "address"
        },
        {
          "indexed": true,
          "internalType": "address",
          "name": "_to",
          "type": "address"
        },
        {
          "indexed": false,
          "internalType": "uint256",
          "name": "_totalAmount",
          "type": "uint256"
        },
        {
          "indexed": false,
          "internalType": "uint256",
          "name": "veAmount",
          "type": "uint256"
        },
        {
          "indexed": false,
          "internalType": "uint256",
          "name": "_tokenId",
          "type": "uint256"
        },
        {
          "indexed": false,
          "internalType": "uint256",
          "name": "_when",
          "type": "uint256"
        }
      ],
      "name": "Claim",
      "type": "event"
    },
    {
      "anonymous": false,
      "inputs": [
        {
          "indexed": false,
          "internalType": "uint256",
          "name": "amount",
          "type": "uint256"
        }
      ],
      "name": "Deposit",
      "type": "event"
    },
    {
      "anonymous": false,
      "inputs": [
        {
          "indexed": false,
          "internalType": "uint256",
          "name": "amount",
          "type": "uint256"
        }
      ],
      "name": "Withdraw",
      "type": "event"
    },
    {
      "inputs": [],
      "name": "LOCK_PERIOD",
      "outputs": [
        {
          "internalType": "uint256",
          "name": "",
          "type": "uint256"
        }
      ],
      "stateMutability": "view",
      "type": "function"
    },
    {
      "inputs": [],
      "name": "PRECISION",
      "outputs": [
        {
          "internalType": "uint256",
          "name": "",
          "type": "uint256"
        }
      ],
      "stateMutability": "view",
      "type": "function"
    },
    {
      "inputs": [],
      "name": "VE_SHARE",
      "outputs": [
        {
          "internalType": "uint256",
          "name": "",
          "type": "uint256"
        }
      ],
      "stateMutability": "view",
      "type": "function"
    },
    {
      "inputs": [
        {
          "internalType": "address",
          "name": "_who",
          "type": "address"
        },
        {
          "internalType": "uint256",
          "name": "_amount",
          "type": "uint256"
        },
        {
          "internalType": "address",
          "name": "_to",
          "type": "address"
        }
      ],
      "name": "claim",
      "outputs": [
        {
          "internalType": "bool",
          "name": "",
          "type": "bool"
        }
      ],
      "stateMutability": "nonpayable",
      "type": "function"
    },
    {
      "inputs": [
        {
          "internalType": "uint256",
          "name": "amount",
          "type": "uint256"
        }
      ],
      "name": "deposit",
      "outputs": [],
      "stateMutability": "nonpayable",
      "type": "function"
    },
    {
      "inputs": [
        {
          "internalType": "address",
          "name": "",
          "type": "address"
        }
      ],
      "name": "depositors",
      "outputs": [
        {
          "internalType": "bool",
          "name": "",
          "type": "bool"
        }
      ],
      "stateMutability": "view",
      "type": "function"
    },
    {
      "inputs": [],
      "name": "init",
      "outputs": [
        {
          "internalType": "bool",
          "name": "",
          "type": "bool"
        }
      ],
      "stateMutability": "view",
      "type": "function"
    },
    {
      "inputs": [],
      "name": "merkle",
      "outputs": [
        {
          "internalType": "address",
          "name": "",
          "type": "address"
        }
      ],
      "stateMutability": "view",
      "type": "function"
    },
    {
      "inputs": [],
      "name": "owner",
      "outputs": [
        {
          "internalType": "address",
          "name": "",
          "type": "address"
        }
      ],
      "stateMutability": "view",
      "type": "function"
    },
    {
      "inputs": [
        {
          "internalType": "address",
          "name": "depositor",
          "type": "address"
        }
      ],
      "name": "setDepositor",
      "outputs": [],
      "stateMutability": "nonpayable",
      "type": "function"
    },
    {
      "inputs": [
        {
          "internalType": "address",
          "name": "_merkle",
          "type": "address"
        }
      ],
      "name": "setMerkleTreeContract",
      "outputs": [],
      "stateMutability": "nonpayable",
      "type": "function"
    },
    {
      "inputs": [
        {
          "internalType": "address",
          "name": "_owner",
          "type": "address"
        }
      ],
      "name": "setOwner",
      "outputs": [],
      "stateMutability": "nonpayable",
      "type": "function"
    },
    {
      "inputs": [
        {
          "internalType": "uint256",
          "name": "_share",
          "type": "uint256"
        }
      ],
      "name": "setVeShare",
      "outputs": [],
      "stateMutability": "nonpayable",
      "type": "function"
    },
    {
      "inputs": [],
      "name": "token",
      "outputs": [
        {
          "internalType": "contract IERC20",
          "name": "",
          "type": "address"
        }
      ],
      "stateMutability": "view",
      "type": "function"
    },
    {
      "inputs": [],
      "name": "tokenPerSec",
      "outputs": [
        {
          "internalType": "uint256",
          "name": "",
          "type": "uint256"
        }
      ],
      "stateMutability": "view",
      "type": "function"
    },
    {
      "inputs": [],
      "name": "totalAirdrop",
      "outputs": [
        {
          "internalType": "uint256",
          "name": "",
          "type": "uint256"
        }
      ],
      "stateMutability": "view",
      "type": "function"
    },
    {
      "inputs": [],
      "name": "ve",
      "outputs": [
        {
          "internalType": "address",
          "name": "",
          "type": "address"
        }
      ],
      "stateMutability": "view",
      "type": "function"
    },
    {
      "inputs": [
        {
          "internalType": "uint256",
          "name": "amount",
          "type": "uint256"
        },
        {
          "internalType": "address",
          "name": "_token",
          "type": "address"
        },
        {
          "internalType": "address",
          "name": "_to",
          "type": "address"
        }
      ],
      "name": "withdraw",
      "outputs": [],
      "stateMutability": "nonpayable",
      "type": "function"
    }
  ],
  "bytecode": "0x608060405234801561001057600080fd5b50604051610fb7380380610fb783398101604081905261002f9161009a565b6001600055600680546001600160a01b03199081163317909155600980546001600160a01b03948516908316179055600780549290931691161790556303bfc4006004556101906002556100cd565b80516001600160a01b038116811461009557600080fd5b919050565b600080604083850312156100ad57600080fd5b6100b68361007e565b91506100c46020840161007e565b90509250929050565b610edb806100dc6000396000f3fe608060405234801561001057600080fd5b50600436106101165760003560e01c80639e96a260116100a2578063c584b9b511610071578063c584b9b51461021d578063e1c7392a14610230578063eed75f6d1461023d578063f2c098b714610260578063fc0c546a1461027357600080fd5b80639e96a260146101cb578063aaf5eb68146101ee578063b460af94146101f7578063b6b55f251461020a57600080fd5b806350fd1f3e116100e957806350fd1f3e1461018a5780635ce97dbb1461019357806365448c421461019c57806381eed085146101af5780638da5cb5b146101b857600080fd5b806306ad05ab1461011b57806313af4035146101305780631820cabb146101435780631f8507161461015f575b600080fd5b61012e610129366004610c7a565b610286565b005b61012e61013e366004610c7a565b6102ee565b61014c60045481565b6040519081526020015b60405180910390f35b600754610172906001600160a01b031681565b6040516001600160a01b039091168152602001610156565b61014c60035481565b61014c60055481565b61012e6101aa366004610c97565b61034d565b61014c60025481565b600654610172906001600160a01b031681565b6101de6101d9366004610cb0565b61038b565b6040519015158152602001610156565b61014c6103e881565b61012e610205366004610cf2565b6107bf565b61012e610218366004610c97565b610858565b600854610172906001600160a01b031681565b6001546101de9060ff1681565b6101de61024b366004610c7a565b600a6020526000908152604090205460ff1681565b61012e61026e366004610c7a565b6108f3565b600954610172906001600160a01b031681565b6006546001600160a01b031633146102b95760405162461bcd60e51b81526004016102b090610d29565b60405180910390fd5b6001600160a01b0381166102cc57600080fd5b600880546001600160a01b0319166001600160a01b0392909216919091179055565b6006546001600160a01b031633146103185760405162461bcd60e51b81526004016102b090610d29565b6001600160a01b03811661032b57600080fd5b600680546001600160a01b0319166001600160a01b0392909216919091179055565b6006546001600160a01b031633146103775760405162461bcd60e51b81526004016102b090610d29565b6103e881111561038657600080fd5b600255565b60006002600054036103df5760405162461bcd60e51b815260206004820152601f60248201527f5265656e7472616e637947756172643a207265656e7472616e742063616c6c0060448201526064016102b0565b60026000556008546001600160a01b0316331461042b5760405162461bcd60e51b815260206004820152600a6024820152696e6f74206d65726b6c6560b01b60448201526064016102b0565b6009546040516370a0823160e01b815230600482015284916001600160a01b0316906370a0823190602401602060405180830381865afa158015610473573d6000803e3d6000fd5b505050506040513d601f19601f820116820180604052508101906104979190610d4c565b10156104d85760405162461bcd60e51b815260206004820152601060248201526f3737ba1032b737bab3b4103a37b5b2b760811b60448201526064016102b0565b60006103e8846002546104eb9190610d7b565b6104f59190610d9a565b60095460075460405163095ea7b360e01b81526001600160a01b03918216600482015260006024820152929350169063095ea7b3906044016020604051808303816000875af115801561054c573d6000803e3d6000fd5b505050506040513d601f19601f820116820180604052508101906105709190610dbc565b5060095460075460405163095ea7b360e01b81526001600160a01b0391821660048201526024810187905291169063095ea7b3906044016020604051808303816000875af11580156105c6573d6000803e3d6000fd5b505050506040513d601f19601f820116820180604052508101906105ea9190610dbc565b506007546004805460405163d4e54c3b60e01b815291820184905260248201526001600160a01b038581166044830152600092169063d4e54c3b906064016020604051808303816000875af1158015610647573d6000803e3d6000fd5b505050506040513d601f19601f8201168201806040525081019061066b9190610d4c565b90508060000361067a57600080fd5b6007546040516331a9108f60e11b8152600481018390526001600160a01b03868116921690636352211e90602401602060405180830381865afa1580156106c5573d6000803e3d6000fd5b505050506040513d601f19601f820116820180604052508101906106e99190610dde565b6001600160a01b03161461072f5760405162461bcd60e51b815260206004820152600d60248201526c1ddc9bdb99c81d99481b5a5b9d609a1b60448201526064016102b0565b600061073b8387610dfb565b600954909150610755906001600160a01b03168683610967565b60408051878152602081018590529081018390524260608201526001600160a01b0380871691908916907fe59ff71ac92a9cdaad8faaee0aeac469c4e887ad48391d6bc2512e644d33efa19060800160405180910390a36001935050505060016000559392505050565b336000908152600a602052604090205460ff161515600114806107ec57506006546001600160a01b031633145b6107f557600080fd5b6108096001600160a01b0383168285610967565b826005600082825461081b9190610dfb565b90915550506040518381527f5b6b431d4476a211bb7d41c20d1aab9ae2321deee0d20be3d9fc9b1093fa6e3d9060200160405180910390a1505050565b336000908152600a602052604090205460ff1615156001148061088557506006546001600160a01b031633145b61088e57600080fd5b6009546108a6906001600160a01b03163330846109cf565b80600560008282546108b89190610e12565b90915550506040518181527f4d6ce1e535dbade1c23defba91e23b8f791ce5edc0cc320257a2b364e4e384269060200160405180910390a150565b6006546001600160a01b0316331461091d5760405162461bcd60e51b81526004016102b090610d29565b6001600160a01b0381166000908152600a602052604090205460ff161561094357600080fd5b6001600160a01b03166000908152600a60205260409020805460ff19166001179055565b6040516001600160a01b0383166024820152604481018290526109ca90849063a9059cbb60e01b906064015b60408051601f198184030181529190526020810180516001600160e01b03166001600160e01b031990931692909217909152610a0d565b505050565b6040516001600160a01b0380851660248301528316604482015260648101829052610a079085906323b872dd60e01b90608401610993565b50505050565b6000610a62826040518060400160405280602081526020017f5361666545524332303a206c6f772d6c6576656c2063616c6c206661696c6564815250856001600160a01b0316610adf9092919063ffffffff16565b8051909150156109ca5780806020019051810190610a809190610dbc565b6109ca5760405162461bcd60e51b815260206004820152602a60248201527f5361666545524332303a204552433230206f7065726174696f6e20646964206e6044820152691bdd081cdd58d8d9595960b21b60648201526084016102b0565b6060610aee8484600085610af8565b90505b9392505050565b606082471015610b595760405162461bcd60e51b815260206004820152602660248201527f416464726573733a20696e73756666696369656e742062616c616e636520666f6044820152651c8818d85b1b60d21b60648201526084016102b0565b6001600160a01b0385163b610bb05760405162461bcd60e51b815260206004820152601d60248201527f416464726573733a2063616c6c20746f206e6f6e2d636f6e747261637400000060448201526064016102b0565b600080866001600160a01b03168587604051610bcc9190610e56565b60006040518083038185875af1925050503d8060008114610c09576040519150601f19603f3d011682016040523d82523d6000602084013e610c0e565b606091505b5091509150610c1e828286610c29565b979650505050505050565b60608315610c38575081610af1565b825115610c485782518084602001fd5b8160405162461bcd60e51b81526004016102b09190610e72565b6001600160a01b0381168114610c7757600080fd5b50565b600060208284031215610c8c57600080fd5b8135610af181610c62565b600060208284031215610ca957600080fd5b5035919050565b600080600060608486031215610cc557600080fd5b8335610cd081610c62565b9250602084013591506040840135610ce781610c62565b809150509250925092565b600080600060608486031215610d0757600080fd5b833592506020840135610d1981610c62565b91506040840135610ce781610c62565b6020808252600990820152683737ba1037bbb732b960b91b604082015260600190565b600060208284031215610d5e57600080fd5b5051919050565b634e487b7160e01b600052601160045260246000fd5b6000816000190483118215151615610d9557610d95610d65565b500290565b600082610db757634e487b7160e01b600052601260045260246000fd5b500490565b600060208284031215610dce57600080fd5b81518015158114610af157600080fd5b600060208284031215610df057600080fd5b8151610af181610c62565b600082821015610e0d57610e0d610d65565b500390565b60008219821115610e2557610e25610d65565b500190565b60005b83811015610e45578181015183820152602001610e2d565b83811115610a075750506000910152565b60008251610e68818460208701610e2a565b9190910192915050565b6020815260008251806020840152610e91816040850160208701610e2a565b601f01601f1916919091016040019291505056fea2646970667358221220015239b7501365d14f63822d90681a08dc6016042a004e681f0b0f950ec20fab64736f6c634300080d0033",
  "linkReferences": {},
  "deployedLinkReferences": {}
}