{
  "_format": "hh-sol-artifact-1",
  "contractName": "veNFTAPI",
  "sourceName": "contracts/APIHelper/veNFTAPIV2.sol",
  "abi": [
    {
      "anonymous": false,
      "inputs": [
        {
          "indexed": false,
          "internalType": "uint8",
          "name": "version",
          "type": "uint8"
        }
      ],
      "name": "Initialized",
      "type": "event"
    },
    {
      "anonymous": false,
      "inputs": [
        {
          "indexed": true,
          "internalType": "address",
          "name": "previousOwner",
          "type": "address"
        },
        {
          "indexed": true,
          "internalType": "address",
          "name": "newOwner",
          "type": "address"
        }
      ],
      "name": "OwnershipTransferred",
      "type": "event"
    },
    {
      "inputs": [],
      "name": "MAX_PAIRS",
      "outputs": [
        {
          "internalType": "uint256",
          "name": "",
          "type": "uint256"
        }
      ],
      "stateMutability": "view",
      "type": "function"
    },
    {
      "inputs": [],
      "name": "MAX_RESULTS",
      "outputs": [
        {
          "internalType": "uint256",
          "name": "",
          "type": "uint256"
        }
      ],
      "stateMutability": "view",
      "type": "function"
    },
    {
      "inputs": [
        {
          "internalType": "uint256",
          "name": "_amount",
          "type": "uint256"
        },
        {
          "internalType": "uint256",
          "name": "_offset",
          "type": "uint256"
        },
        {
          "internalType": "uint256",
          "name": "id",
          "type": "uint256"
        }
      ],
      "name": "allPairRewards",
      "outputs": [
        {
          "components": [
            {
              "components": [
                {
                  "internalType": "uint256",
                  "name": "id",
                  "type": "uint256"
                },
                {
                  "internalType": "uint256",
                  "name": "amount",
                  "type": "uint256"
                },
                {
                  "internalType": "uint8",
                  "name": "decimals",
                  "type": "uint8"
                },
                {
                  "internalType": "address",
                  "name": "pair",
                  "type": "address"
                },
                {
                  "internalType": "address",
                  "name": "token",
                  "type": "address"
                },
                {
                  "internalType": "address",
                  "name": "fee",
                  "type": "address"
                },
                {
                  "internalType": "address",
                  "name": "bribe",
                  "type": "address"
                },
                {
                  "internalType": "string",
                  "name": "symbol",
                  "type": "string"
                }
              ],
              "internalType": "struct veNFTAPI.Reward[]",
              "name": "rewards",
              "type": "tuple[]"
            }
          ],
          "internalType": "struct veNFTAPI.AllPairRewards[]",
          "name": "rewards",
          "type": "tuple[]"
        }
      ],
      "stateMutability": "view",
      "type": "function"
    },
    {
      "inputs": [
        {
          "internalType": "uint256",
          "name": "_amounts",
          "type": "uint256"
        },
        {
          "internalType": "uint256",
          "name": "_offset",
          "type": "uint256"
        }
      ],
      "name": "getAllNFT",
      "outputs": [
        {
          "components": [
            {
              "internalType": "uint8",
              "name": "decimals",
              "type": "uint8"
            },
            {
              "internalType": "bool",
              "name": "voted",
              "type": "bool"
            },
            {
              "internalType": "uint256",
              "name": "attachments",
              "type": "uint256"
            },
            {
              "internalType": "uint256",
              "name": "id",
              "type": "uint256"
            },
            {
              "internalType": "uint128",
              "name": "amount",
              "type": "uint128"
            },
            {
              "internalType": "uint256",
              "name": "voting_amount",
              "type": "uint256"
            },
            {
              "internalType": "uint256",
              "name": "rebase_amount",
              "type": "uint256"
            },
            {
              "internalType": "uint256",
              "name": "lockEnd",
              "type": "uint256"
            },
            {
              "internalType": "uint256",
              "name": "vote_ts",
              "type": "uint256"
            },
            {
              "components": [
                {
                  "internalType": "address",
                  "name": "pair",
                  "type": "address"
                },
                {
                  "internalType": "uint256",
                  "name": "weight",
                  "type": "uint256"
                }
              ],
              "internalType": "struct veNFTAPI.pairVotes[]",
              "name": "votes",
              "type": "tuple[]"
            },
            {
              "internalType": "address",
              "name": "account",
              "type": "address"
            },
            {
              "internalType": "address",
              "name": "token",
              "type": "address"
            },
            {
              "internalType": "string",
              "name": "tokenSymbol",
              "type": "string"
            },
            {
              "internalType": "uint256",
              "name": "tokenDecimals",
              "type": "uint256"
            }
          ],
          "internalType": "struct veNFTAPI.veNFT[]",
          "name": "_veNFT",
          "type": "tuple[]"
        }
      ],
      "stateMutability": "view",
      "type": "function"
    },
    {
      "inputs": [
        {
          "internalType": "address",
          "name": "_user",
          "type": "address"
        }
      ],
      "name": "getNFTFromAddress",
      "outputs": [
        {
          "components": [
            {
              "internalType": "uint8",
              "name": "decimals",
              "type": "uint8"
            },
            {
              "internalType": "bool",
              "name": "voted",
              "type": "bool"
            },
            {
              "internalType": "uint256",
              "name": "attachments",
              "type": "uint256"
            },
            {
              "internalType": "uint256",
              "name": "id",
              "type": "uint256"
            },
            {
              "internalType": "uint128",
              "name": "amount",
              "type": "uint128"
            },
            {
              "internalType": "uint256",
              "name": "voting_amount",
              "type": "uint256"
            },
            {
              "internalType": "uint256",
              "name": "rebase_amount",
              "type": "uint256"
            },
            {
              "internalType": "uint256",
              "name": "lockEnd",
              "type": "uint256"
            },
            {
              "internalType": "uint256",
              "name": "vote_ts",
              "type": "uint256"
            },
            {
              "components": [
                {
                  "internalType": "address",
                  "name": "pair",
                  "type": "address"
                },
                {
                  "internalType": "uint256",
                  "name": "weight",
                  "type": "uint256"
                }
              ],
              "internalType": "struct veNFTAPI.pairVotes[]",
              "name": "votes",
              "type": "tuple[]"
            },
            {
              "internalType": "address",
              "name": "account",
              "type": "address"
            },
            {
              "internalType": "address",
              "name": "token",
              "type": "address"
            },
            {
              "internalType": "string",
              "name": "tokenSymbol",
              "type": "string"
            },
            {
              "internalType": "uint256",
              "name": "tokenDecimals",
              "type": "uint256"
            }
          ],
          "internalType": "struct veNFTAPI.veNFT[]",
          "name": "venft",
          "type": "tuple[]"
        }
      ],
      "stateMutability": "view",
      "type": "function"
    },
    {
      "inputs": [
        {
          "internalType": "uint256",
          "name": "id",
          "type": "uint256"
        }
      ],
      "name": "getNFTFromId",
      "outputs": [
        {
          "components": [
            {
              "internalType": "uint8",
              "name": "decimals",
              "type": "uint8"
            },
            {
              "internalType": "bool",
              "name": "voted",
              "type": "bool"
            },
            {
              "internalType": "uint256",
              "name": "attachments",
              "type": "uint256"
            },
            {
              "internalType": "uint256",
              "name": "id",
              "type": "uint256"
            },
            {
              "internalType": "uint128",
              "name": "amount",
              "type": "uint128"
            },
            {
              "internalType": "uint256",
              "name": "voting_amount",
              "type": "uint256"
            },
            {
              "internalType": "uint256",
              "name": "rebase_amount",
              "type": "uint256"
            },
            {
              "internalType": "uint256",
              "name": "lockEnd",
              "type": "uint256"
            },
            {
              "internalType": "uint256",
              "name": "vote_ts",
              "type": "uint256"
            },
            {
              "components": [
                {
                  "internalType": "address",
                  "name": "pair",
                  "type": "address"
                },
                {
                  "internalType": "uint256",
                  "name": "weight",
                  "type": "uint256"
                }
              ],
              "internalType": "struct veNFTAPI.pairVotes[]",
              "name": "votes",
              "type": "tuple[]"
            },
            {
              "internalType": "address",
              "name": "account",
              "type": "address"
            },
            {
              "internalType": "address",
              "name": "token",
              "type": "address"
            },
            {
              "internalType": "string",
              "name": "tokenSymbol",
              "type": "string"
            },
            {
              "internalType": "uint256",
              "name": "tokenDecimals",
              "type": "uint256"
            }
          ],
          "internalType": "struct veNFTAPI.veNFT",
          "name": "",
          "type": "tuple"
        }
      ],
      "stateMutability": "view",
      "type": "function"
    },
    {
      "inputs": [
        {
          "internalType": "address",
          "name": "_voter",
          "type": "address"
        },
        {
          "internalType": "address",
          "name": "_rewarddistro",
          "type": "address"
        },
        {
          "internalType": "address",
          "name": "_pairApi",
          "type": "address"
        },
        {
          "internalType": "address",
          "name": "_pairFactory",
          "type": "address"
        }
      ],
      "name": "initialize",
      "outputs": [],
      "stateMutability": "nonpayable",
      "type": "function"
    },
    {
      "inputs": [
        {
          "internalType": "address",
          "name": "",
          "type": "address"
        }
      ],
      "name": "notReward",
      "outputs": [
        {
          "internalType": "bool",
          "name": "",
          "type": "bool"
        }
      ],
      "stateMutability": "view",
      "type": "function"
    },
    {
      "inputs": [],
      "name": "owner",
      "outputs": [
        {
          "internalType": "address",
          "name": "",
          "type": "address"
        }
      ],
      "stateMutability": "view",
      "type": "function"
    },
    {
      "inputs": [],
      "name": "pairAPI",
      "outputs": [
        {
          "internalType": "address",
          "name": "",
          "type": "address"
        }
      ],
      "stateMutability": "view",
      "type": "function"
    },
    {
      "inputs": [],
      "name": "pairFactory",
      "outputs": [
        {
          "internalType": "contract IPairFactory",
          "name": "",
          "type": "address"
        }
      ],
      "stateMutability": "view",
      "type": "function"
    },
    {
      "inputs": [],
      "name": "renounceOwnership",
      "outputs": [],
      "stateMutability": "nonpayable",
      "type": "function"
    },
    {
      "inputs": [],
      "name": "rewardDisitributor",
      "outputs": [
        {
          "internalType": "contract IRewardsDistributor",
          "name": "",
          "type": "address"
        }
      ],
      "stateMutability": "view",
      "type": "function"
    },
    {
      "inputs": [
        {
          "internalType": "address",
          "name": "_pairApi",
          "type": "address"
        }
      ],
      "name": "setPairAPI",
      "outputs": [],
      "stateMutability": "nonpayable",
      "type": "function"
    },
    {
      "inputs": [
        {
          "internalType": "address",
          "name": "_pairFactory",
          "type": "address"
        }
      ],
      "name": "setPairFactory",
      "outputs": [],
      "stateMutability": "nonpayable",
      "type": "function"
    },
    {
      "inputs": [
        {
          "internalType": "address",
          "name": "_rewarddistro",
          "type": "address"
        }
      ],
      "name": "setRewardDistro",
      "outputs": [],
      "stateMutability": "nonpayable",
      "type": "function"
    },
    {
      "inputs": [
        {
          "internalType": "address",
          "name": "_voter",
          "type": "address"
        }
      ],
      "name": "setVoter",
      "outputs": [],
      "stateMutability": "nonpayable",
      "type": "function"
    },
    {
      "inputs": [
        {
          "internalType": "uint256",
          "name": "id",
          "type": "uint256"
        },
        {
          "internalType": "address",
          "name": "_pair",
          "type": "address"
        }
      ],
      "name": "singlePairReward",
      "outputs": [
        {
          "components": [
            {
              "internalType": "uint256",
              "name": "id",
              "type": "uint256"
            },
            {
              "internalType": "uint256",
              "name": "amount",
              "type": "uint256"
            },
            {
              "internalType": "uint8",
              "name": "decimals",
              "type": "uint8"
            },
            {
              "internalType": "address",
              "name": "pair",
              "type": "address"
            },
            {
              "internalType": "address",
              "name": "token",
              "type": "address"
            },
            {
              "internalType": "address",
              "name": "fee",
              "type": "address"
            },
            {
              "internalType": "address",
              "name": "bribe",
              "type": "address"
            },
            {
              "internalType": "string",
              "name": "symbol",
              "type": "string"
            }
          ],
          "internalType": "struct veNFTAPI.Reward[]",
          "name": "_reward",
          "type": "tuple[]"
        }
      ],
      "stateMutability": "view",
      "type": "function"
    },
    {
      "inputs": [
        {
          "internalType": "address",
          "name": "newOwner",
          "type": "address"
        }
      ],
      "name": "transferOwnership",
      "outputs": [],
      "stateMutability": "nonpayable",
      "type": "function"
    },
    {
      "inputs": [],
      "name": "underlyingToken",
      "outputs": [
        {
          "internalType": "address",
          "name": "",
          "type": "address"
        }
      ],
      "stateMutability": "view",
      "type": "function"
    },
    {
      "inputs": [],
      "name": "ve",
      "outputs": [
        {
          "internalType": "contract IVotingEscrow",
          "name": "",
          "type": "address"
        }
      ],
      "stateMutability": "view",
      "type": "function"
    },
    {
      "inputs": [],
      "name": "voter",
      "outputs": [
        {
          "internalType": "contract IVoter",
          "name": "",
          "type": "address"
        }
      ],
      "stateMutability": "view",
      "type": "function"
    }
  ],
  "bytecode": "0x608060405234801561001057600080fd5b50612dd7806100206000396000f3fe608060405234801561001057600080fd5b50600436106101415760003560e01c80638da5cb5b116100b8578063d432419d1161007c578063d432419d146102d9578063d5ecfe63146102ec578063dca08159146102ff578063e14f870d14610312578063f2fde38b14610325578063f8c8765e1461033857600080fd5b80638da5cb5b1461025a578063996cf2331461026b578063a81d9e5114610273578063ad95468f146102a6578063b7d5df90146102c657600080fd5b80632af6e3be1161010a5780632af6e3be146101d757806346c96aac146101f75780634bc2a6571461020a5780635e558e901461021f578063715018a61461023f5780637964bac91461024757600080fd5b8062e0f783146101465780630c8067361461016f57806315d05356146101865780631f850716146101b15780632495a599146101c4575b600080fd5b610159610154366004612311565b61034b565b604051610166919061239d565b60405180910390f35b6101786103e881565b604051908152602001610166565b606954610199906001600160a01b031681565b6040516001600160a01b039091168152602001610166565b606854610199906001600160a01b031681565b606654610199906001600160a01b031681565b6101ea6101e5366004612488565b610360565b60405161016691906125f1565b606554610199906001600160a01b031681565b61021d610218366004612488565b6104f5565b005b61023261022d366004612653565b61051f565b604051610166919061266c565b61021d61059f565b61021d610255366004612488565b6105b3565b6033546001600160a01b0316610199565b610178601e81565b610296610281366004612488565b60676020526000908152604090205460ff1681565b6040519015158152602001610166565b6102b96102b436600461267f565b6105dd565b60405161016691906126ab565b606a54610199906001600160a01b031681565b6101ea6102e73660046127d2565b610765565b61021d6102fa366004612488565b6108e1565b61021d61030d366004612488565b610b46565b606b54610199906001600160a01b031681565b61021d610333366004612488565b610b70565b61021d6103463660046127f4565b610be9565b60606103578284610fc8565b90505b92915050565b6068546040516370a0823160e01b81526001600160a01b0383811660048301526060926000928392839216906370a0823190602401602060405180830381865afa1580156103b2573d6000803e3d6000fd5b505050506040513d601f19601f820116820180604052508101906103d69190612850565b90508067ffffffffffffffff8111156103f1576103f1612869565b60405190808252806020026020018201604052801561042a57816020015b61041761226d565b81526020019060019003908161040f5790505b5093505b808310156104ed57606854604051632f745c5960e01b81526001600160a01b0387811660048301526024820186905290911690632f745c5990604401602060405180830381865afa158015610487573d6000803e3d6000fd5b505050506040513d601f19601f820116820180604052508101906104ab9190612850565b915081156104db576104bd8286611971565b8484815181106104cf576104cf61287f565b60200260200101819052505b826104e5816128ab565b93505061042e565b505050919050565b6104fd612167565b606580546001600160a01b0319166001600160a01b0392909216919091179055565b61052761226d565b6068546040516331a9108f60e11b81526004810184905261035a9184916001600160a01b0390911690636352211e90602401602060405180830381865afa158015610576573d6000803e3d6000fd5b505050506040513d601f19601f8201168201806040525081019061059a91906128d4565b611971565b6105a7612167565b6105b160006121c1565b565b6105bb612167565b606b80546001600160a01b0319166001600160a01b0392909216919091179055565b60408051601e8082526103e08201909252606091816020015b6040805160208101909152606081528152602001906001900390816105f65790505090506000606b60009054906101000a90046001600160a01b03166001600160a01b031663574f2ba36040518163ffffffff1660e01b8152600401602060405180830381865afa15801561066f573d6000803e3d6000fd5b505050506040513d601f19601f820116820180604052508101906106939190612850565b90508360005b6106a387876128f1565b82101561075b578282101561075b57606b54604051631e3dd18b60e01b8152600481018490526001600160a01b0390911690631e3dd18b90602401602060405180830381865afa1580156106fb573d6000803e3d6000fd5b505050506040513d601f19601f8201168201806040525081019061071f91906128d4565b905061072b8186610fc8565b84838151811061073d5761073d61287f565b60209081029190910101515281610753816128ab565b925050610699565b5050509392505050565b60606103e88311156107ae5760405162461bcd60e51b815260206004820152600d60248201526c746f6f206d616e79206e66747360981b60448201526064015b60405180910390fd5b8267ffffffffffffffff8111156107c7576107c7612869565b60405190808252806020026020018201604052801561080057816020015b6107ed61226d565b8152602001906001900390816107e55790505b5090508160005b61081185856128f1565b8210156108d9576068546040516331a9108f60e11b8152600481018490526001600160a01b0390911690636352211e90602401602060405180830381865afa158015610861573d6000803e3d6000fd5b505050506040513d601f19601f8201168201806040525081019061088591906128d4565b90506001600160a01b038116156108c7576108a08282611971565b836108ab8685612909565b815181106108bb576108bb61287f565b60200260200101819052505b816108d1816128ab565b925050610807565b505092915050565b6108e9612167565b606980546001600160a01b0319166001600160a01b038381169190911790915560655460408051638dd598fb60e01b815290519190921691638dd598fb9160048083019260209291908290030181865afa15801561094b573d6000803e3d6000fd5b505050506040513d601f19601f8201168201806040525081019061096f91906128d4565b6001600160a01b0316606960009054906101000a90046001600160a01b03166001600160a01b0316634f2bfe5b6040518163ffffffff1660e01b8152600401602060405180830381865afa1580156109cb573d6000803e3d6000fd5b505050506040513d601f19601f820116820180604052508101906109ef91906128d4565b6001600160a01b031614610a2e5760405162461bcd60e51b81526020600482015260066024820152657665213d766560d01b60448201526064016107a5565b606960009054906101000a90046001600160a01b03166001600160a01b0316634f2bfe5b6040518163ffffffff1660e01b8152600401602060405180830381865afa158015610a81573d6000803e3d6000fd5b505050506040513d601f19601f82011682018060405250810190610aa591906128d4565b606880546001600160a01b0319166001600160a01b0392909216918217905560408051637e062a3560e11b8152905163fc0c546a916004808201926020929091908290030181865afa158015610aff573d6000803e3d6000fd5b505050506040513d601f19601f82011682018060405250810190610b2391906128d4565b606680546001600160a01b0319166001600160a01b039290921691909117905550565b610b4e612167565b606a80546001600160a01b0319166001600160a01b0392909216919091179055565b610b78612167565b6001600160a01b038116610bdd5760405162461bcd60e51b815260206004820152602660248201527f4f776e61626c653a206e6577206f776e657220697320746865207a65726f206160448201526564647265737360d01b60648201526084016107a5565b610be6816121c1565b50565b600054610100900460ff1615808015610c095750600054600160ff909116105b80610c235750303b158015610c23575060005460ff166001145b610c865760405162461bcd60e51b815260206004820152602e60248201527f496e697469616c697a61626c653a20636f6e747261637420697320616c72656160448201526d191e481a5b9a5d1a585b1a5e995960921b60648201526084016107a5565b6000805460ff191660011790558015610ca9576000805461ff0019166101001790555b610cb1612213565b606a80546001600160a01b038086166001600160a01b031992831617909255606580548884169083168117909155606980549388169390921692909217905560408051638dd598fb60e01b81529051638dd598fb916004808201926020929091908290030181865afa158015610d2b573d6000803e3d6000fd5b505050506040513d601f19601f82011682018060405250810190610d4f91906128d4565b6001600160a01b0316606960009054906101000a90046001600160a01b03166001600160a01b0316634f2bfe5b6040518163ffffffff1660e01b8152600401602060405180830381865afa158015610dab573d6000803e3d6000fd5b505050506040513d601f19601f82011682018060405250810190610dcf91906128d4565b6001600160a01b031614610e0e5760405162461bcd60e51b81526020600482015260066024820152657665213d766560d01b60448201526064016107a5565b606960009054906101000a90046001600160a01b03166001600160a01b0316634f2bfe5b6040518163ffffffff1660e01b8152600401602060405180830381865afa158015610e61573d6000803e3d6000fd5b505050506040513d601f19601f82011682018060405250810190610e8591906128d4565b606880546001600160a01b0319166001600160a01b0392909216918217905560408051637e062a3560e11b8152905163fc0c546a916004808201926020929091908290030181865afa158015610edf573d6000803e3d6000fd5b505050506040513d601f19601f82011682018060405250810190610f0391906128d4565b606680546001600160a01b03199081166001600160a01b0393841617909155606b805490911691841691909117905573f0308d005717858756acaa6b3dcd4d0de4a1ca5460005260676020527f2ef4c9d994b186e7177801dffdc4215f066e3b33d6704a9097769b5c56130545805460ff191660011790558015610fc1576000805461ff0019169055604051600181527f7f26b83ff96e1f2b6a682f133852f6798a09c465da95921460cefb38474024989060200160405180910390a15b5050505050565b60606001600160a01b0383161561035a57606a5460405163e6a4390560e01b81526001600160a01b03858116600483015260006024830181905292169063e6a4390590604401600060405180830381865afa15801561102b573d6000803e3d6000fd5b505050506040513d6000823e601f3d908101601f1916820160405261105391908101906129e2565b61026081015190915060006001600160a01b038216156110d457816001600160a01b031663e68863966040518163ffffffff1660e01b8152600401602060405180830381865afa1580156110ab573d6000803e3d6000fd5b505050506040513d601f19601f820116820180604052508101906110cf9190612850565b6110d7565b60005b905060006110e68260026128f1565b67ffffffffffffffff8111156110fe576110fe612869565b60405190808252806020026020018201604052801561116f57816020015b60408051610100810182526000808252602080830182905292820181905260608083018290526080830182905260a0830182905260c083019190915260e0820152825260001990920191018161111c5790505b5060655460405163b9a09fd560e01b81526001600160a01b038a811660048301529297506000929091169063b9a09fd590602401602060405180830381865afa1580156111c0573d6000803e3d6000fd5b505050506040513d601f19601f820116820180604052508101906111e491906128d4565b90506001600160a01b0381166111fe57505050505061035a565b600080896001600160a01b031663392f37e96040518163ffffffff1660e01b815260040160e060405180830381865afa15801561123f573d6000803e3d6000fd5b505050506040513d601f19601f820116820180604052508101906112639190612c0b565b96509650505050505060008761024001516001600160a01b031663e39c08fc8b856040518363ffffffff1660e01b81526004016112b39291909182526001600160a01b0316602082015260400190565b602060405180830381865afa1580156112d0573d6000803e3d6000fd5b505050506040513d601f19601f820116820180604052508101906112f49190612850565b6102408901516040516338e7023f60e21b8152600481018d90526001600160a01b0385811660248301529293506000929091169063e39c08fc90604401602060405180830381865afa15801561134e573d6000803e3d6000fd5b505050506040513d601f19601f820116820180604052508101906113729190612850565b90508115611525576040518061010001604052808c8152602001838152602001856001600160a01b031663313ce5676040518163ffffffff1660e01b8152600401602060405180830381865afa1580156113d0573d6000803e3d6000fd5b505050506040513d601f19601f820116820180604052508101906113f49190612c7c565b60ff1681526001600160a01b038e811660208301528681166040808401919091526065549051637572079360e11b8152898316600482015260609093019291169063eae40f2690602401602060405180830381865afa15801561145b573d6000803e3d6000fd5b505050506040513d601f19601f8201168201806040525081019061147f91906128d4565b6001600160a01b0316815260200160006001600160a01b03168152602001856001600160a01b03166395d89b416040518163ffffffff1660e01b8152600401600060405180830381865afa1580156114db573d6000803e3d6000fd5b505050506040513d6000823e601f3d908101601f191682016040526115039190810190612c9f565b8152508a6000815181106115195761151961287f565b60200260200101819052505b80156116d6576040518061010001604052808c8152602001828152602001846001600160a01b031663313ce5676040518163ffffffff1660e01b8152600401602060405180830381865afa158015611581573d6000803e3d6000fd5b505050506040513d601f19601f820116820180604052508101906115a59190612c7c565b60ff1681526001600160a01b038e811660208301528581166040808401919091526065549051637572079360e11b8152898316600482015260609093019291169063eae40f2690602401602060405180830381865afa15801561160c573d6000803e3d6000fd5b505050506040513d601f19601f8201168201806040525081019061163091906128d4565b6001600160a01b0316815260200160006001600160a01b03168152602001846001600160a01b03166395d89b416040518163ffffffff1660e01b8152600401600060405180830381865afa15801561168c573d6000803e3d6000fd5b505050506040513d6000823e601f3d908101601f191682016040526116b49190810190612c9f565b8152508a6001815181106116ca576116ca61287f565b60200260200101819052505b6001600160a01b0388166116f25750505050505050505061035a565b6000805b8882101561196057604051637bb7bed160e01b8152600481018390526001600160a01b038b1690637bb7bed190602401602060405180830381865afa158015611743573d6000803e3d6000fd5b505050506040513d601f19601f8201168201806040525081019061176791906128d4565b6040516338e7023f60e21b8152600481018f90526001600160a01b038083166024830152919250908b169063e39c08fc90604401602060405180830381865afa1580156117b8573d6000803e3d6000fd5b505050506040513d601f19601f820116820180604052508101906117dc9190612850565b6001600160a01b03821660009081526067602052604090205490985060ff1661194e576040518061010001604052808e8152602001898152602001826001600160a01b031663313ce5676040518163ffffffff1660e01b8152600401602060405180830381865afa158015611855573d6000803e3d6000fd5b505050506040513d601f19601f820116820180604052508101906118799190612c7c565b60ff1681526020018f6001600160a01b03168152602001826001600160a01b0316815260200160006001600160a01b031681526020018b6001600160a01b03168152602001826001600160a01b03166395d89b416040518163ffffffff1660e01b8152600401600060405180830381865afa1580156118fc573d6000803e3d6000fd5b505050506040513d6000823e601f3d908101601f191682016040526119249190810190612c9f565b90528c6119328460026128f1565b815181106119425761194261287f565b60200260200101819052505b81611958816128ab565b9250506116f6565b505050505050505050505092915050565b61197961226d565b6001600160a01b0382161561035a57606554604051633223f3ed60e11b8152600481018590526000916001600160a01b031690636447e7da90602401602060405180830381865afa1580156119d2573d6000803e3d6000fd5b505050506040513d601f19601f820116820180604052508101906119f69190612850565b905060008167ffffffffffffffff811115611a1357611a13612869565b604051908082528060200260200182016040528015611a5857816020015b6040805180820190915260008082526020820152815260200190600190039081611a315790505b506040805180820190915260008082526020820152909150606854604051635a2d1e0760e11b8152600481018890526001600160a01b039091169063b45a3c0e906024016040805180830381865afa158015611ab8573d6000803e3d6000fd5b505050506040513d601f19601f82011682018060405250810190611adc9190612cdc565b9050600080805b85831015611c515760655460405163a86a366d60e01b8152600481018b9052602481018590526001600160a01b039091169063a86a366d90604401602060405180830381865afa158015611b3b573d6000803e3d6000fd5b505050506040513d601f19601f82011682018060405250810190611b5f91906128d4565b90506001600160a01b03811615611c515760655460405163348c952d60e21b8152600481018b90526001600160a01b0383811660248301529091169063d23254b490604401602060405180830381865afa158015611bc1573d6000803e3d6000fd5b505050506040513d601f19601f82011682018060405250810190611be59190612850565b915080858481518110611bfa57611bfa61287f565b6020026020010151600001906001600160a01b031690816001600160a01b03168152505081858481518110611c3157611c3161287f565b602090810291909101810151015282611c49816128ab565b935050611ae3565b606087018990526001600160a01b038089166101408901526068546040805163313ce56760e01b81529051919092169163313ce5679160048083019260209291908290030181865afa158015611cab573d6000803e3d6000fd5b505050506040513d601f19601f82011682018060405250810190611ccf9190612c7c565b60ff16875283516001600160801b031660808801526068546040516339f890b560e21b8152600481018b90526001600160a01b039091169063e7e242d490602401602060405180830381865afa158015611d2d573d6000803e3d6000fd5b505050506040513d601f19601f82011682018060405250810190611d519190612850565b60a088015260695460405163d1d58b2560e01b8152600481018b90526001600160a01b039091169063d1d58b2590602401602060405180830381865afa158015611d9f573d6000803e3d6000fd5b505050506040513d601f19601f82011682018060405250810190611dc39190612850565b60c0880152602084015160e088015260655460405163079aca5f60e51b8152600481018b90526001600160a01b039091169063f3594be090602401602060405180830381865afa158015611e1b573d6000803e3d6000fd5b505050506040513d601f19601f82011682018060405250810190611e3f9190612850565b610100880152610120870185905260685460408051637e062a3560e11b815290516001600160a01b039092169163fc0c546a916004808201926020929091908290030181865afa158015611e97573d6000803e3d6000fd5b505050506040513d601f19601f82011682018060405250810190611ebb91906128d4565b6001600160a01b0390811661016089015260685460408051637e062a3560e11b81529051919092169163fc0c546a9160048083019260209291908290030181865afa158015611f0e573d6000803e3d6000fd5b505050506040513d601f19601f82011682018060405250810190611f3291906128d4565b6001600160a01b03166395d89b416040518163ffffffff1660e01b8152600401600060405180830381865afa158015611f6f573d6000803e3d6000fd5b505050506040513d6000823e601f3d908101601f19168201604052611f979190810190612c9f565b61018088015260685460408051637e062a3560e11b815290516001600160a01b039092169163fc0c546a916004808201926020929091908290030181865afa158015611fe7573d6000803e3d6000fd5b505050506040513d601f19601f8201168201806040525081019061200b91906128d4565b6001600160a01b031663313ce5676040518163ffffffff1660e01b8152600401602060405180830381865afa158015612048573d6000803e3d6000fd5b505050506040513d601f19601f8201168201806040525081019061206c9190612c7c565b60ff166101a0880152606854604051638fbb38ff60e01b8152600481018b90526001600160a01b0390911690638fbb38ff90602401602060405180830381865afa1580156120be573d6000803e3d6000fd5b505050506040513d601f19601f820116820180604052508101906120e29190612d3b565b15156020880152606854604051630d6a203360e01b8152600481018b90526001600160a01b0390911690630d6a203390602401602060405180830381865afa158015612132573d6000803e3d6000fd5b505050506040513d601f19601f820116820180604052508101906121569190612850565b604088015250505050505092915050565b6033546001600160a01b031633146105b15760405162461bcd60e51b815260206004820181905260248201527f4f776e61626c653a2063616c6c6572206973206e6f7420746865206f776e657260448201526064016107a5565b603380546001600160a01b038381166001600160a01b0319831681179093556040519116919082907f8be0079c531659141344cd1fd0a4f28419497f9722a3daafe3b4186f6b6457e090600090a35050565b600054610100900460ff1661223a5760405162461bcd60e51b81526004016107a590612d56565b6105b1600054610100900460ff166122645760405162461bcd60e51b81526004016107a590612d56565b6105b1336121c1565b604051806101c00160405280600060ff168152602001600015158152602001600081526020016000815260200160006001600160801b03168152602001600081526020016000815260200160008152602001600081526020016060815260200160006001600160a01b0316815260200160006001600160a01b0316815260200160608152602001600081525090565b6001600160a01b0381168114610be657600080fd5b6000806040838503121561232457600080fd5b823591506020830135612336816122fc565b809150509250929050565b60005b8381101561235c578181015183820152602001612344565b8381111561236b576000848401525b50505050565b60008151808452612389816020860160208601612341565b601f01601f19169290920160200192915050565b60006020808301818452808551808352604092508286019150828160051b87010184880160005b8381101561247a57888303603f1901855281518051845287810151888501528681015160ff16878501526060808201516001600160a01b0316908501526080808201516101009190612420828801826001600160a01b03169052565b505060a0828101516001600160a01b03811687830152505060c0828101516001600160a01b03811687830152505060e09182015191850181905261246685820183612371565b9689019694505050908601906001016123c4565b509098975050505050505050565b60006020828403121561249a57600080fd5b81356124a5816122fc565b9392505050565b600081518084526020808501945080840160005b838110156124f057815180516001600160a01b0316885283015183880152604090960195908201906001016124c0565b509495945050505050565b805160ff16825260006101c0602083015161251a602086018215159052565b506040830151604085015260608301516060850152608083015161254960808601826001600160801b03169052565b5060a083015160a085015260c083015160c085015260e083015160e085015261010080840151818601525061012080840151828287015261258c838701826124ac565b92505050610140808401516125ab828701826001600160a01b03169052565b5050610160838101516001600160a01b03169085015261018080840151858303828701526125d98382612371565b6101a095860151969095019590955250919392505050565b6000602080830181845280855180835260408601915060408160051b870101925083870160005b8281101561264657603f198886030184526126348583516124fb565b94509285019290850190600101612618565b5092979650505050505050565b60006020828403121561266557600080fd5b5035919050565b60208152600061035760208301846124fb565b60008060006060848603121561269457600080fd5b505081359360208301359350604090920135919050565b60006020808301818452808551808352604092508286019150828160051b87010184880160005b8381101561247a57603f1989840381018652825151888552805189860181905290890190600581901b86018901908987019060005b818110156127bb57888403860183528451805185528d8101518e8601528c81015160ff168d8601526060808201516001600160a01b0316908601526080808201516101009190612761828901826001600160a01b03169052565b505060a0828101516001600160a01b03811688830152505060c0828101516001600160a01b03811688830152505060e0918201519186018190526127a786820183612371565b968f019695505050918c0191600101612707565b5050509689019694505050908601906001016126d2565b600080604083850312156127e557600080fd5b50508035926020909101359150565b6000806000806080858703121561280a57600080fd5b8435612815816122fc565b93506020850135612825816122fc565b92506040850135612835816122fc565b91506060850135612845816122fc565b939692955090935050565b60006020828403121561286257600080fd5b5051919050565b634e487b7160e01b600052604160045260246000fd5b634e487b7160e01b600052603260045260246000fd5b634e487b7160e01b600052601160045260246000fd5b6000600182016128bd576128bd612895565b5060010190565b80516128cf816122fc565b919050565b6000602082840312156128e657600080fd5b81516124a5816122fc565b6000821982111561290457612904612895565b500190565b60008282101561291b5761291b612895565b500390565b604051610380810167ffffffffffffffff8111828210171561294457612944612869565b60405290565b600082601f83011261295b57600080fd5b815167ffffffffffffffff8082111561297657612976612869565b604051601f8301601f19908116603f0116810190828211818310171561299e5761299e612869565b816040528381528660208588010111156129b757600080fd5b6129c8846020830160208901612341565b9695505050505050565b805180151581146128cf57600080fd5b6000602082840312156129f457600080fd5b815167ffffffffffffffff80821115612a0c57600080fd5b908301906103808286031215612a2157600080fd5b612a29612920565b612a32836128c4565b8152602083015182811115612a4657600080fd5b612a528782860161294a565b602083015250604083015182811115612a6a57600080fd5b612a768782860161294a565b60408301525060608301516060820152612a92608084016129d2565b608082015260a083015160a0820152612aad60c084016128c4565b60c082015260e083015182811115612ac457600080fd5b612ad08782860161294a565b60e083015250610100838101519082015261012080840151908201526101408084015190820152610160612b058185016128c4565b908201526101808381015183811115612b1d57600080fd5b612b298882870161294a565b91830191909152506101a083810151908201526101c080840151908201526101e080840151908201526102009150612b628284016128c4565b82820152610220915081830151828201526102409150612b838284016128c4565b828201526102609150612b978284016128c4565b82820152610280915081830151828201526102a09150612bb88284016128c4565b918101919091526102c082810151908201526102e0808301519082015261030080830151908201526103208083015190820152610340808301519082015261036091820151918101919091529392505050565b600080600080600080600060e0888a031215612c2657600080fd5b87519650602088015195506040880151945060608801519350612c4b608089016129d2565b925060a0880151612c5b816122fc565b60c0890151909250612c6c816122fc565b8091505092959891949750929550565b600060208284031215612c8e57600080fd5b815160ff811681146124a557600080fd5b600060208284031215612cb157600080fd5b815167ffffffffffffffff811115612cc857600080fd5b612cd48482850161294a565b949350505050565b600060408284031215612cee57600080fd5b6040516040810181811067ffffffffffffffff82111715612d1157612d11612869565b6040528251600f81900b8114612d2657600080fd5b81526020928301519281019290925250919050565b600060208284031215612d4d57600080fd5b610357826129d2565b6020808252602b908201527f496e697469616c697a61626c653a20636f6e7472616374206973206e6f74206960408201526a6e697469616c697a696e6760a81b60608201526080019056fea26469706673582212209c66691443983b44719de63ad25498284514ba95af37978aa511fdcee2ecd30664736f6c634300080d0033",
  "linkReferences": {},
  "deployedLinkReferences": {}
}