{
  "_format": "hh-sol-artifact-1",
  "contractName": "veNFTAPI",
  "sourceName": "contracts/APIHelper/veNFTAPIV2.sol",
  "abi": [
    {
      "inputs": [],
      "stateMutability": "nonpayable",
      "type": "constructor"
    },
    {
      "anonymous": false,
      "inputs": [
        {
          "indexed": false,
          "internalType": "uint8",
          "name": "version",
          "type": "uint8"
        }
      ],
      "name": "Initialized",
      "type": "event"
    },
    {
      "anonymous": false,
      "inputs": [
        {
          "indexed": false,
          "internalType": "address",
          "name": "oldOwner",
          "type": "address"
        },
        {
          "indexed": false,
          "internalType": "address",
          "name": "newOwner",
          "type": "address"
        }
      ],
      "name": "Owner",
      "type": "event"
    },
    {
      "inputs": [],
      "name": "MAX_PAIRS",
      "outputs": [
        {
          "internalType": "uint256",
          "name": "",
          "type": "uint256"
        }
      ],
      "stateMutability": "view",
      "type": "function"
    },
    {
      "inputs": [],
      "name": "MAX_RESULTS",
      "outputs": [
        {
          "internalType": "uint256",
          "name": "",
          "type": "uint256"
        }
      ],
      "stateMutability": "view",
      "type": "function"
    },
    {
      "inputs": [
        {
          "internalType": "uint256",
          "name": "_amount",
          "type": "uint256"
        },
        {
          "internalType": "uint256",
          "name": "_offset",
          "type": "uint256"
        },
        {
          "internalType": "uint256",
          "name": "id",
          "type": "uint256"
        }
      ],
      "name": "allPairRewards",
      "outputs": [
        {
          "components": [
            {
              "components": [
                {
                  "internalType": "uint256",
                  "name": "id",
                  "type": "uint256"
                },
                {
                  "internalType": "uint256",
                  "name": "amount",
                  "type": "uint256"
                },
                {
                  "internalType": "uint8",
                  "name": "decimals",
                  "type": "uint8"
                },
                {
                  "internalType": "address",
                  "name": "pair",
                  "type": "address"
                },
                {
                  "internalType": "address",
                  "name": "token",
                  "type": "address"
                },
                {
                  "internalType": "address",
                  "name": "fee",
                  "type": "address"
                },
                {
                  "internalType": "address",
                  "name": "bribe",
                  "type": "address"
                },
                {
                  "internalType": "string",
                  "name": "symbol",
                  "type": "string"
                }
              ],
              "internalType": "struct veNFTAPI.Reward[]",
              "name": "rewards",
              "type": "tuple[]"
            }
          ],
          "internalType": "struct veNFTAPI.AllPairRewards[]",
          "name": "rewards",
          "type": "tuple[]"
        }
      ],
      "stateMutability": "view",
      "type": "function"
    },
    {
      "inputs": [
        {
          "internalType": "uint256",
          "name": "_amounts",
          "type": "uint256"
        },
        {
          "internalType": "uint256",
          "name": "_offset",
          "type": "uint256"
        }
      ],
      "name": "getAllNFT",
      "outputs": [
        {
          "components": [
            {
              "internalType": "uint8",
              "name": "decimals",
              "type": "uint8"
            },
            {
              "internalType": "bool",
              "name": "voted",
              "type": "bool"
            },
            {
              "internalType": "uint256",
              "name": "attachments",
              "type": "uint256"
            },
            {
              "internalType": "uint256",
              "name": "id",
              "type": "uint256"
            },
            {
              "internalType": "uint128",
              "name": "amount",
              "type": "uint128"
            },
            {
              "internalType": "uint256",
              "name": "voting_amount",
              "type": "uint256"
            },
            {
              "internalType": "uint256",
              "name": "rebase_amount",
              "type": "uint256"
            },
            {
              "internalType": "uint256",
              "name": "lockEnd",
              "type": "uint256"
            },
            {
              "internalType": "uint256",
              "name": "vote_ts",
              "type": "uint256"
            },
            {
              "components": [
                {
                  "internalType": "address",
                  "name": "pair",
                  "type": "address"
                },
                {
                  "internalType": "uint256",
                  "name": "weight",
                  "type": "uint256"
                }
              ],
              "internalType": "struct veNFTAPI.pairVotes[]",
              "name": "votes",
              "type": "tuple[]"
            },
            {
              "internalType": "address",
              "name": "account",
              "type": "address"
            },
            {
              "internalType": "address",
              "name": "token",
              "type": "address"
            },
            {
              "internalType": "string",
              "name": "tokenSymbol",
              "type": "string"
            },
            {
              "internalType": "uint256",
              "name": "tokenDecimals",
              "type": "uint256"
            }
          ],
          "internalType": "struct veNFTAPI.veNFT[]",
          "name": "_veNFT",
          "type": "tuple[]"
        }
      ],
      "stateMutability": "view",
      "type": "function"
    },
    {
      "inputs": [
        {
          "internalType": "address",
          "name": "_user",
          "type": "address"
        }
      ],
      "name": "getNFTFromAddress",
      "outputs": [
        {
          "components": [
            {
              "internalType": "uint8",
              "name": "decimals",
              "type": "uint8"
            },
            {
              "internalType": "bool",
              "name": "voted",
              "type": "bool"
            },
            {
              "internalType": "uint256",
              "name": "attachments",
              "type": "uint256"
            },
            {
              "internalType": "uint256",
              "name": "id",
              "type": "uint256"
            },
            {
              "internalType": "uint128",
              "name": "amount",
              "type": "uint128"
            },
            {
              "internalType": "uint256",
              "name": "voting_amount",
              "type": "uint256"
            },
            {
              "internalType": "uint256",
              "name": "rebase_amount",
              "type": "uint256"
            },
            {
              "internalType": "uint256",
              "name": "lockEnd",
              "type": "uint256"
            },
            {
              "internalType": "uint256",
              "name": "vote_ts",
              "type": "uint256"
            },
            {
              "components": [
                {
                  "internalType": "address",
                  "name": "pair",
                  "type": "address"
                },
                {
                  "internalType": "uint256",
                  "name": "weight",
                  "type": "uint256"
                }
              ],
              "internalType": "struct veNFTAPI.pairVotes[]",
              "name": "votes",
              "type": "tuple[]"
            },
            {
              "internalType": "address",
              "name": "account",
              "type": "address"
            },
            {
              "internalType": "address",
              "name": "token",
              "type": "address"
            },
            {
              "internalType": "string",
              "name": "tokenSymbol",
              "type": "string"
            },
            {
              "internalType": "uint256",
              "name": "tokenDecimals",
              "type": "uint256"
            }
          ],
          "internalType": "struct veNFTAPI.veNFT[]",
          "name": "venft",
          "type": "tuple[]"
        }
      ],
      "stateMutability": "view",
      "type": "function"
    },
    {
      "inputs": [
        {
          "internalType": "uint256",
          "name": "id",
          "type": "uint256"
        }
      ],
      "name": "getNFTFromId",
      "outputs": [
        {
          "components": [
            {
              "internalType": "uint8",
              "name": "decimals",
              "type": "uint8"
            },
            {
              "internalType": "bool",
              "name": "voted",
              "type": "bool"
            },
            {
              "internalType": "uint256",
              "name": "attachments",
              "type": "uint256"
            },
            {
              "internalType": "uint256",
              "name": "id",
              "type": "uint256"
            },
            {
              "internalType": "uint128",
              "name": "amount",
              "type": "uint128"
            },
            {
              "internalType": "uint256",
              "name": "voting_amount",
              "type": "uint256"
            },
            {
              "internalType": "uint256",
              "name": "rebase_amount",
              "type": "uint256"
            },
            {
              "internalType": "uint256",
              "name": "lockEnd",
              "type": "uint256"
            },
            {
              "internalType": "uint256",
              "name": "vote_ts",
              "type": "uint256"
            },
            {
              "components": [
                {
                  "internalType": "address",
                  "name": "pair",
                  "type": "address"
                },
                {
                  "internalType": "uint256",
                  "name": "weight",
                  "type": "uint256"
                }
              ],
              "internalType": "struct veNFTAPI.pairVotes[]",
              "name": "votes",
              "type": "tuple[]"
            },
            {
              "internalType": "address",
              "name": "account",
              "type": "address"
            },
            {
              "internalType": "address",
              "name": "token",
              "type": "address"
            },
            {
              "internalType": "string",
              "name": "tokenSymbol",
              "type": "string"
            },
            {
              "internalType": "uint256",
              "name": "tokenDecimals",
              "type": "uint256"
            }
          ],
          "internalType": "struct veNFTAPI.veNFT",
          "name": "",
          "type": "tuple"
        }
      ],
      "stateMutability": "view",
      "type": "function"
    },
    {
      "inputs": [
        {
          "internalType": "address",
          "name": "_voter",
          "type": "address"
        },
        {
          "internalType": "address",
          "name": "_rewarddistro",
          "type": "address"
        },
        {
          "internalType": "address",
          "name": "_pairApi",
          "type": "address"
        },
        {
          "internalType": "address",
          "name": "_pairFactory",
          "type": "address"
        }
      ],
      "name": "initialize",
      "outputs": [],
      "stateMutability": "nonpayable",
      "type": "function"
    },
    {
      "inputs": [
        {
          "internalType": "address",
          "name": "",
          "type": "address"
        }
      ],
      "name": "notReward",
      "outputs": [
        {
          "internalType": "bool",
          "name": "",
          "type": "bool"
        }
      ],
      "stateMutability": "view",
      "type": "function"
    },
    {
      "inputs": [],
      "name": "owner",
      "outputs": [
        {
          "internalType": "address",
          "name": "",
          "type": "address"
        }
      ],
      "stateMutability": "view",
      "type": "function"
    },
    {
      "inputs": [],
      "name": "pairAPI",
      "outputs": [
        {
          "internalType": "address",
          "name": "",
          "type": "address"
        }
      ],
      "stateMutability": "view",
      "type": "function"
    },
    {
      "inputs": [],
      "name": "pairFactory",
      "outputs": [
        {
          "internalType": "contract IPairFactory",
          "name": "",
          "type": "address"
        }
      ],
      "stateMutability": "view",
      "type": "function"
    },
    {
      "inputs": [],
      "name": "rewardDisitributor",
      "outputs": [
        {
          "internalType": "contract IRewardsDistributor",
          "name": "",
          "type": "address"
        }
      ],
      "stateMutability": "view",
      "type": "function"
    },
    {
      "inputs": [
        {
          "internalType": "address",
          "name": "_owner",
          "type": "address"
        }
      ],
      "name": "setOwner",
      "outputs": [],
      "stateMutability": "nonpayable",
      "type": "function"
    },
    {
      "inputs": [
        {
          "internalType": "address",
          "name": "_pairApi",
          "type": "address"
        }
      ],
      "name": "setPairAPI",
      "outputs": [],
      "stateMutability": "nonpayable",
      "type": "function"
    },
    {
      "inputs": [
        {
          "internalType": "address",
          "name": "_pairFactory",
          "type": "address"
        }
      ],
      "name": "setPairFactory",
      "outputs": [],
      "stateMutability": "nonpayable",
      "type": "function"
    },
    {
      "inputs": [
        {
          "internalType": "address",
          "name": "_rewarddistro",
          "type": "address"
        }
      ],
      "name": "setRewardDistro",
      "outputs": [],
      "stateMutability": "nonpayable",
      "type": "function"
    },
    {
      "inputs": [
        {
          "internalType": "address",
          "name": "_voter",
          "type": "address"
        }
      ],
      "name": "setVoter",
      "outputs": [],
      "stateMutability": "nonpayable",
      "type": "function"
    },
    {
      "inputs": [
        {
          "internalType": "uint256",
          "name": "id",
          "type": "uint256"
        },
        {
          "internalType": "address",
          "name": "_pair",
          "type": "address"
        }
      ],
      "name": "singlePairReward",
      "outputs": [
        {
          "components": [
            {
              "internalType": "uint256",
              "name": "id",
              "type": "uint256"
            },
            {
              "internalType": "uint256",
              "name": "amount",
              "type": "uint256"
            },
            {
              "internalType": "uint8",
              "name": "decimals",
              "type": "uint8"
            },
            {
              "internalType": "address",
              "name": "pair",
              "type": "address"
            },
            {
              "internalType": "address",
              "name": "token",
              "type": "address"
            },
            {
              "internalType": "address",
              "name": "fee",
              "type": "address"
            },
            {
              "internalType": "address",
              "name": "bribe",
              "type": "address"
            },
            {
              "internalType": "string",
              "name": "symbol",
              "type": "string"
            }
          ],
          "internalType": "struct veNFTAPI.Reward[]",
          "name": "_reward",
          "type": "tuple[]"
        }
      ],
      "stateMutability": "view",
      "type": "function"
    },
    {
      "inputs": [],
      "name": "underlyingToken",
      "outputs": [
        {
          "internalType": "address",
          "name": "",
          "type": "address"
        }
      ],
      "stateMutability": "view",
      "type": "function"
    },
    {
      "inputs": [],
      "name": "ve",
      "outputs": [
        {
          "internalType": "contract IVotingEscrow",
          "name": "",
          "type": "address"
        }
      ],
      "stateMutability": "view",
      "type": "function"
    },
    {
      "inputs": [],
      "name": "voter",
      "outputs": [
        {
          "internalType": "contract IVoter",
          "name": "",
          "type": "address"
        }
      ],
      "stateMutability": "view",
      "type": "function"
    }
  ],
  "bytecode": "0x608060405234801561001057600080fd5b50612d43806100206000396000f3fe608060405234801561001057600080fd5b50600436106101365760003560e01c80637964bac9116100b8578063b7d5df901161007c578063b7d5df90146102ce578063d432419d146102e1578063d5ecfe63146102f4578063dca0815914610307578063e14f870d1461031a578063f8c8765e1461032d57600080fd5b80637964bac91461024d5780638da5cb5b14610260578063996cf23314610273578063a81d9e511461027b578063ad95468f146102ae57600080fd5b80632495a599116100ff5780632495a599146101ce5780632af6e3be146101e157806346c96aac146102015780634bc2a6571461021a5780635e558e901461022d57600080fd5b8062e0f7831461013b5780630c8067361461016457806313af40351461017b57806315d05356146101905780631f850716146101bb575b600080fd5b61014e6101493660046122c8565b610340565b60405161015b9190612354565b60405180910390f35b61016d6103e881565b60405190815260200161015b565b61018e61018936600461243f565b610355565b005b6004546101a3906001600160a01b031681565b6040516001600160a01b03909116815260200161015b565b6003546101a3906001600160a01b031681565b6001546101a3906001600160a01b031681565b6101f46101ef36600461243f565b61043c565b60405161015b91906125a8565b6000546101a3906201000090046001600160a01b031681565b61018e61022836600461243f565b6105d1565b61024061023b36600461260a565b610612565b60405161015b9190612623565b61018e61025b36600461243f565b610692565b6007546101a3906001600160a01b031681565b61016d601e81565b61029e61028936600461243f565b60026020526000908152604090205460ff1681565b604051901515815260200161015b565b6102c16102bc366004612636565b6106cb565b60405161015b9190612662565b6005546101a3906001600160a01b031681565b6101f46102ef366004612789565b610853565b61018e61030236600461243f565b6109ca565b61018e61031536600461243f565b610c35565b6006546101a3906001600160a01b031681565b61018e61033b3660046127ab565b610c6e565b606061034c8284611059565b90505b92915050565b6007546001600160a01b031633146103a05760405162461bcd60e51b81526020600482015260096024820152683737ba1037bbb732b960b91b60448201526064015b60405180910390fd5b6001600160a01b0381166103e15760405162461bcd60e51b81526020600482015260086024820152673d32b937a0b2323960c11b6044820152606401610397565b600780546001600160a01b0319166001600160a01b0383169081179091556040805133815260208101929092527fc53ee02035d465398c0648e0bca1462281006a266ec38c7192bce1c24e0b64a3910160405180910390a150565b6003546040516370a0823160e01b81526001600160a01b0383811660048301526060926000928392839216906370a0823190602401602060405180830381865afa15801561048e573d6000803e3d6000fd5b505050506040513d601f19601f820116820180604052508101906104b29190612807565b90508067ffffffffffffffff8111156104cd576104cd612820565b60405190808252806020026020018201604052801561050657816020015b6104f3612221565b8152602001906001900390816104eb5790505b5093505b808310156105c957600354604051632f745c5960e01b81526001600160a01b0387811660048301526024820186905290911690632f745c5990604401602060405180830381865afa158015610563573d6000803e3d6000fd5b505050506040513d601f19601f820116820180604052508101906105879190612807565b915081156105b7576105998286611a17565b8484815181106105ab576105ab612836565b60200260200101819052505b826105c181612862565b93505061050a565b505050919050565b6007546001600160a01b031633146105e857600080fd5b600080546001600160a01b03909216620100000262010000600160b01b0319909216919091179055565b61061a612221565b6003546040516331a9108f60e11b81526004810184905261034f9184916001600160a01b0390911690636352211e90602401602060405180830381865afa158015610669573d6000803e3d6000fd5b505050506040513d601f19601f8201168201806040525081019061068d919061288b565b611a17565b6007546001600160a01b031633146106a957600080fd5b600680546001600160a01b0319166001600160a01b0392909216919091179055565b60408051601e8082526103e08201909252606091816020015b6040805160208101909152606081528152602001906001900390816106e45790505090506000600660009054906101000a90046001600160a01b03166001600160a01b031663574f2ba36040518163ffffffff1660e01b8152600401602060405180830381865afa15801561075d573d6000803e3d6000fd5b505050506040513d601f19601f820116820180604052508101906107819190612807565b90508360005b61079187876128a8565b821015610849578282101561084957600654604051631e3dd18b60e01b8152600481018490526001600160a01b0390911690631e3dd18b90602401602060405180830381865afa1580156107e9573d6000803e3d6000fd5b505050506040513d601f19601f8201168201806040525081019061080d919061288b565b90506108198186611059565b84838151811061082b5761082b612836565b6020908102919091010151528161084181612862565b925050610787565b5050509392505050565b60606103e88311156108975760405162461bcd60e51b815260206004820152600d60248201526c746f6f206d616e79206e66747360981b6044820152606401610397565b8267ffffffffffffffff8111156108b0576108b0612820565b6040519080825280602002602001820160405280156108e957816020015b6108d6612221565b8152602001906001900390816108ce5790505b5090508160005b6108fa85856128a8565b8210156109c2576003546040516331a9108f60e11b8152600481018490526001600160a01b0390911690636352211e90602401602060405180830381865afa15801561094a573d6000803e3d6000fd5b505050506040513d601f19601f8201168201806040525081019061096e919061288b565b90506001600160a01b038116156109b0576109898282611a17565b8361099486856128c0565b815181106109a4576109a4612836565b60200260200101819052505b816109ba81612862565b9250506108f0565b505092915050565b6007546001600160a01b031633146109e157600080fd5b600480546001600160a01b0319166001600160a01b0383811691909117825560005460408051638dd598fb60e01b815290516201000090920490921692638dd598fb928082019260209290918290030181865afa158015610a46573d6000803e3d6000fd5b505050506040513d601f19601f82011682018060405250810190610a6a919061288b565b6001600160a01b0316600460009054906101000a90046001600160a01b03166001600160a01b031663dfe050316040518163ffffffff1660e01b8152600401602060405180830381865afa158015610ac6573d6000803e3d6000fd5b505050506040513d601f19601f82011682018060405250810190610aea919061288b565b6001600160a01b031614610b295760405162461bcd60e51b81526020600482015260066024820152657665213d766560d01b6044820152606401610397565b600480546040805163dfe0503160e01b815290516001600160a01b039092169263dfe050319282820192602092908290030181865afa158015610b70573d6000803e3d6000fd5b505050506040513d601f19601f82011682018060405250810190610b94919061288b565b600380546001600160a01b0319166001600160a01b0392909216918217905560408051637e062a3560e11b8152905163fc0c546a916004808201926020929091908290030181865afa158015610bee573d6000803e3d6000fd5b505050506040513d601f19601f82011682018060405250810190610c12919061288b565b600180546001600160a01b0319166001600160a01b039290921691909117905550565b6007546001600160a01b03163314610c4c57600080fd5b600580546001600160a01b0319166001600160a01b0392909216919091179055565b600054610100900460ff1615808015610c8e5750600054600160ff909116105b80610ca85750303b158015610ca8575060005460ff166001145b610d0b5760405162461bcd60e51b815260206004820152602e60248201527f496e697469616c697a61626c653a20636f6e747261637420697320616c72656160448201526d191e481a5b9a5d1a585b1a5e995960921b6064820152608401610397565b6000805460ff191660011790558015610d2e576000805461ff0019166101001790555b60078054336001600160a01b0319918216179091556005805482166001600160a01b03868116919091179091556000805462010000600160b01b03191662010000898416810291909117918290556004805490941688841617845560408051638dd598fb60e01b815290519190920490921692638dd598fb9282820192602092908290030181865afa158015610dc8573d6000803e3d6000fd5b505050506040513d601f19601f82011682018060405250810190610dec919061288b565b6001600160a01b0316600460009054906101000a90046001600160a01b03166001600160a01b031663dfe050316040518163ffffffff1660e01b8152600401602060405180830381865afa158015610e48573d6000803e3d6000fd5b505050506040513d601f19601f82011682018060405250810190610e6c919061288b565b6001600160a01b031614610eab5760405162461bcd60e51b81526020600482015260066024820152657665213d766560d01b6044820152606401610397565b600480546040805163dfe0503160e01b815290516001600160a01b039092169263dfe050319282820192602092908290030181865afa158015610ef2573d6000803e3d6000fd5b505050506040513d601f19601f82011682018060405250810190610f16919061288b565b600380546001600160a01b0319166001600160a01b0392909216918217905560408051637e062a3560e11b8152905163fc0c546a916004808201926020929091908290030181865afa158015610f70573d6000803e3d6000fd5b505050506040513d601f19601f82011682018060405250810190610f94919061288b565b600180546001600160a01b03199081166001600160a01b03938416178255600680549091169285169290921790915573f0308d005717858756acaa6b3dcd4d0de4a1ca5460005260026020527f83a7042950773161310d2d379219dfa255b996207f12f7b30587c1c6238009bd805460ff191690911790558015611052576000805461ff0019169055604051600181527f7f26b83ff96e1f2b6a682f133852f6798a09c465da95921460cefb38474024989060200160405180910390a15b5050505050565b60606001600160a01b0383161561034f5760055460405163e6a4390560e01b81526001600160a01b03858116600483015260006024830181905292169063e6a4390590604401600060405180830381865afa1580156110bc573d6000803e3d6000fd5b505050506040513d6000823e601f3d908101601f191682016040526110e49190810190612999565b61026081015190915060006001600160a01b0382161561116557816001600160a01b031663e68863966040518163ffffffff1660e01b8152600401602060405180830381865afa15801561113c573d6000803e3d6000fd5b505050506040513d601f19601f820116820180604052508101906111609190612807565b611168565b60005b905060006111778260026128a8565b67ffffffffffffffff81111561118f5761118f612820565b60405190808252806020026020018201604052801561120057816020015b60408051610100810182526000808252602080830182905292820181905260608083018290526080830182905260a0830182905260c083019190915260e082015282526000199092019101816111ad5790505b506000805460405163b9a09fd560e01b81526001600160a01b038b81166004830152939850919262010000909104169063b9a09fd590602401602060405180830381865afa158015611256573d6000803e3d6000fd5b505050506040513d601f19601f8201168201806040525081019061127a919061288b565b90506001600160a01b03811661129457505050505061034f565b600080896001600160a01b031663392f37e96040518163ffffffff1660e01b815260040160e060405180830381865afa1580156112d5573d6000803e3d6000fd5b505050506040513d601f19601f820116820180604052508101906112f99190612bc2565b96509650505050505060008761024001516001600160a01b031663e39c08fc8b856040518363ffffffff1660e01b81526004016113499291909182526001600160a01b0316602082015260400190565b602060405180830381865afa158015611366573d6000803e3d6000fd5b505050506040513d601f19601f8201168201806040525081019061138a9190612807565b6102408901516040516338e7023f60e21b8152600481018d90526001600160a01b0385811660248301529293506000929091169063e39c08fc90604401602060405180830381865afa1580156113e4573d6000803e3d6000fd5b505050506040513d601f19601f820116820180604052508101906114089190612807565b905081156115c3576040518061010001604052808c8152602001838152602001856001600160a01b031663313ce5676040518163ffffffff1660e01b8152600401602060405180830381865afa158015611466573d6000803e3d6000fd5b505050506040513d601f19601f8201168201806040525081019061148a9190612c33565b60ff1681526001600160a01b03808f1660208301528681166040808401919091526000549051637572079360e11b81528983166004820152606090930192620100009091049091169063eae40f2690602401602060405180830381865afa1580156114f9573d6000803e3d6000fd5b505050506040513d601f19601f8201168201806040525081019061151d919061288b565b6001600160a01b0316815260200160006001600160a01b03168152602001856001600160a01b03166395d89b416040518163ffffffff1660e01b8152600401600060405180830381865afa158015611579573d6000803e3d6000fd5b505050506040513d6000823e601f3d908101601f191682016040526115a19190810190612c56565b8152508a6000815181106115b7576115b7612836565b60200260200101819052505b801561177c576040518061010001604052808c8152602001828152602001846001600160a01b031663313ce5676040518163ffffffff1660e01b8152600401602060405180830381865afa15801561161f573d6000803e3d6000fd5b505050506040513d601f19601f820116820180604052508101906116439190612c33565b60ff1681526001600160a01b03808f1660208301528581166040808401919091526000549051637572079360e11b81528983166004820152606090930192620100009091049091169063eae40f2690602401602060405180830381865afa1580156116b2573d6000803e3d6000fd5b505050506040513d601f19601f820116820180604052508101906116d6919061288b565b6001600160a01b0316815260200160006001600160a01b03168152602001846001600160a01b03166395d89b416040518163ffffffff1660e01b8152600401600060405180830381865afa158015611732573d6000803e3d6000fd5b505050506040513d6000823e601f3d908101601f1916820160405261175a9190810190612c56565b8152508a60018151811061177057611770612836565b60200260200101819052505b6001600160a01b0388166117985750505050505050505061034f565b6000805b88821015611a0657604051637bb7bed160e01b8152600481018390526001600160a01b038b1690637bb7bed190602401602060405180830381865afa1580156117e9573d6000803e3d6000fd5b505050506040513d601f19601f8201168201806040525081019061180d919061288b565b6040516338e7023f60e21b8152600481018f90526001600160a01b038083166024830152919250908b169063e39c08fc90604401602060405180830381865afa15801561185e573d6000803e3d6000fd5b505050506040513d601f19601f820116820180604052508101906118829190612807565b6001600160a01b03821660009081526002602052604090205490985060ff166119f4576040518061010001604052808e8152602001898152602001826001600160a01b031663313ce5676040518163ffffffff1660e01b8152600401602060405180830381865afa1580156118fb573d6000803e3d6000fd5b505050506040513d601f19601f8201168201806040525081019061191f9190612c33565b60ff1681526020018f6001600160a01b03168152602001826001600160a01b0316815260200160006001600160a01b031681526020018b6001600160a01b03168152602001826001600160a01b03166395d89b416040518163ffffffff1660e01b8152600401600060405180830381865afa1580156119a2573d6000803e3d6000fd5b505050506040513d6000823e601f3d908101601f191682016040526119ca9190810190612c56565b90528c6119d88460026128a8565b815181106119e8576119e8612836565b60200260200101819052505b816119fe81612862565b92505061179c565b505050505050505050505092915050565b611a1f612221565b6001600160a01b0382161561034f5760008054604051633223f3ed60e11b815260048101869052620100009091046001600160a01b031690636447e7da90602401602060405180830381865afa158015611a7d573d6000803e3d6000fd5b505050506040513d601f19601f82011682018060405250810190611aa19190612807565b905060008167ffffffffffffffff811115611abe57611abe612820565b604051908082528060200260200182016040528015611b0357816020015b6040805180820190915260008082526020820152815260200190600190039081611adc5790505b506040805180820190915260008082526020820152909150600354604051635a2d1e0760e11b8152600481018890526001600160a01b039091169063b45a3c0e906024016040805180830381865afa158015611b63573d6000803e3d6000fd5b505050506040513d601f19601f82011682018060405250810190611b879190612c93565b9050600080805b85831015611d085760005460405163a86a366d60e01b8152600481018b905260248101859052620100009091046001600160a01b03169063a86a366d90604401602060405180830381865afa158015611beb573d6000803e3d6000fd5b505050506040513d601f19601f82011682018060405250810190611c0f919061288b565b90506001600160a01b03811615611d085760005460405163348c952d60e21b8152600481018b90526001600160a01b038381166024830152620100009092049091169063d23254b490604401602060405180830381865afa158015611c78573d6000803e3d6000fd5b505050506040513d601f19601f82011682018060405250810190611c9c9190612807565b915080858481518110611cb157611cb1612836565b6020026020010151600001906001600160a01b031690816001600160a01b03168152505081858481518110611ce857611ce8612836565b602090810291909101810151015282611d0081612862565b935050611b8e565b606087018990526001600160a01b038089166101408901526003546040805163313ce56760e01b81529051919092169163313ce5679160048083019260209291908290030181865afa158015611d62573d6000803e3d6000fd5b505050506040513d601f19601f82011682018060405250810190611d869190612c33565b60ff16875283516001600160801b031660808801526003546040516339f890b560e21b8152600481018b90526001600160a01b039091169063e7e242d490602401602060405180830381865afa158015611de4573d6000803e3d6000fd5b505050506040513d601f19601f82011682018060405250810190611e089190612807565b60a08801526004805460405163d1d58b2560e01b81529182018b90526001600160a01b03169063d1d58b2590602401602060405180830381865afa158015611e54573d6000803e3d6000fd5b505050506040513d601f19601f82011682018060405250810190611e789190612807565b60c0880152602084015160e088015260005460405163079aca5f60e51b8152600481018b9052620100009091046001600160a01b03169063f3594be090602401602060405180830381865afa158015611ed5573d6000803e3d6000fd5b505050506040513d601f19601f82011682018060405250810190611ef99190612807565b610100880152610120870185905260035460408051637e062a3560e11b815290516001600160a01b039092169163fc0c546a916004808201926020929091908290030181865afa158015611f51573d6000803e3d6000fd5b505050506040513d601f19601f82011682018060405250810190611f75919061288b565b6001600160a01b0390811661016089015260035460408051637e062a3560e11b81529051919092169163fc0c546a9160048083019260209291908290030181865afa158015611fc8573d6000803e3d6000fd5b505050506040513d601f19601f82011682018060405250810190611fec919061288b565b6001600160a01b03166395d89b416040518163ffffffff1660e01b8152600401600060405180830381865afa158015612029573d6000803e3d6000fd5b505050506040513d6000823e601f3d908101601f191682016040526120519190810190612c56565b61018088015260035460408051637e062a3560e11b815290516001600160a01b039092169163fc0c546a916004808201926020929091908290030181865afa1580156120a1573d6000803e3d6000fd5b505050506040513d601f19601f820116820180604052508101906120c5919061288b565b6001600160a01b031663313ce5676040518163ffffffff1660e01b8152600401602060405180830381865afa158015612102573d6000803e3d6000fd5b505050506040513d601f19601f820116820180604052508101906121269190612c33565b60ff166101a0880152600354604051638fbb38ff60e01b8152600481018b90526001600160a01b0390911690638fbb38ff90602401602060405180830381865afa158015612178573d6000803e3d6000fd5b505050506040513d601f19601f8201168201806040525081019061219c9190612cf2565b15156020880152600354604051630d6a203360e01b8152600481018b90526001600160a01b0390911690630d6a203390602401602060405180830381865afa1580156121ec573d6000803e3d6000fd5b505050506040513d601f19601f820116820180604052508101906122109190612807565b604088015250505050505092915050565b604051806101c00160405280600060ff168152602001600015158152602001600081526020016000815260200160006001600160801b03168152602001600081526020016000815260200160008152602001600081526020016060815260200160006001600160a01b0316815260200160006001600160a01b0316815260200160608152602001600081525090565b6001600160a01b03811681146122c557600080fd5b50565b600080604083850312156122db57600080fd5b8235915060208301356122ed816122b0565b809150509250929050565b60005b838110156123135781810151838201526020016122fb565b83811115612322576000848401525b50505050565b600081518084526123408160208601602086016122f8565b601f01601f19169290920160200192915050565b60006020808301818452808551808352604092508286019150828160051b87010184880160005b8381101561243157888303603f1901855281518051845287810151888501528681015160ff16878501526060808201516001600160a01b03169085015260808082015161010091906123d7828801826001600160a01b03169052565b505060a0828101516001600160a01b03811687830152505060c0828101516001600160a01b03811687830152505060e09182015191850181905261241d85820183612328565b96890196945050509086019060010161237b565b509098975050505050505050565b60006020828403121561245157600080fd5b813561245c816122b0565b9392505050565b600081518084526020808501945080840160005b838110156124a757815180516001600160a01b031688528301518388015260409096019590820190600101612477565b509495945050505050565b805160ff16825260006101c060208301516124d1602086018215159052565b506040830151604085015260608301516060850152608083015161250060808601826001600160801b03169052565b5060a083015160a085015260c083015160c085015260e083015160e085015261010080840151818601525061012080840151828287015261254383870182612463565b9250505061014080840151612562828701826001600160a01b03169052565b5050610160838101516001600160a01b03169085015261018080840151858303828701526125908382612328565b6101a095860151969095019590955250919392505050565b6000602080830181845280855180835260408601915060408160051b870101925083870160005b828110156125fd57603f198886030184526125eb8583516124b2565b945092850192908501906001016125cf565b5092979650505050505050565b60006020828403121561261c57600080fd5b5035919050565b60208152600061034c60208301846124b2565b60008060006060848603121561264b57600080fd5b505081359360208301359350604090920135919050565b60006020808301818452808551808352604092508286019150828160051b87010184880160005b8381101561243157603f1989840381018652825151888552805189860181905290890190600581901b86018901908987019060005b8181101561277257888403860183528451805185528d8101518e8601528c81015160ff168d8601526060808201516001600160a01b0316908601526080808201516101009190612718828901826001600160a01b03169052565b505060a0828101516001600160a01b03811688830152505060c0828101516001600160a01b03811688830152505060e09182015191860181905261275e86820183612328565b968f019695505050918c01916001016126be565b505050968901969450505090860190600101612689565b6000806040838503121561279c57600080fd5b50508035926020909101359150565b600080600080608085870312156127c157600080fd5b84356127cc816122b0565b935060208501356127dc816122b0565b925060408501356127ec816122b0565b915060608501356127fc816122b0565b939692955090935050565b60006020828403121561281957600080fd5b5051919050565b634e487b7160e01b600052604160045260246000fd5b634e487b7160e01b600052603260045260246000fd5b634e487b7160e01b600052601160045260246000fd5b6000600182016128745761287461284c565b5060010190565b8051612886816122b0565b919050565b60006020828403121561289d57600080fd5b815161245c816122b0565b600082198211156128bb576128bb61284c565b500190565b6000828210156128d2576128d261284c565b500390565b604051610380810167ffffffffffffffff811182821017156128fb576128fb612820565b60405290565b600082601f83011261291257600080fd5b815167ffffffffffffffff8082111561292d5761292d612820565b604051601f8301601f19908116603f0116810190828211818310171561295557612955612820565b8160405283815286602085880101111561296e57600080fd5b61297f8460208301602089016122f8565b9695505050505050565b8051801515811461288657600080fd5b6000602082840312156129ab57600080fd5b815167ffffffffffffffff808211156129c357600080fd5b9083019061038082860312156129d857600080fd5b6129e06128d7565b6129e98361287b565b81526020830151828111156129fd57600080fd5b612a0987828601612901565b602083015250604083015182811115612a2157600080fd5b612a2d87828601612901565b60408301525060608301516060820152612a4960808401612989565b608082015260a083015160a0820152612a6460c0840161287b565b60c082015260e083015182811115612a7b57600080fd5b612a8787828601612901565b60e083015250610100838101519082015261012080840151908201526101408084015190820152610160612abc81850161287b565b908201526101808381015183811115612ad457600080fd5b612ae088828701612901565b91830191909152506101a083810151908201526101c080840151908201526101e080840151908201526102009150612b1982840161287b565b82820152610220915081830151828201526102409150612b3a82840161287b565b828201526102609150612b4e82840161287b565b82820152610280915081830151828201526102a09150612b6f82840161287b565b918101919091526102c082810151908201526102e0808301519082015261030080830151908201526103208083015190820152610340808301519082015261036091820151918101919091529392505050565b600080600080600080600060e0888a031215612bdd57600080fd5b87519650602088015195506040880151945060608801519350612c0260808901612989565b925060a0880151612c12816122b0565b60c0890151909250612c23816122b0565b8091505092959891949750929550565b600060208284031215612c4557600080fd5b815160ff8116811461245c57600080fd5b600060208284031215612c6857600080fd5b815167ffffffffffffffff811115612c7f57600080fd5b612c8b84828501612901565b949350505050565b600060408284031215612ca557600080fd5b6040516040810181811067ffffffffffffffff82111715612cc857612cc8612820565b6040528251600f81900b8114612cdd57600080fd5b81526020928301519281019290925250919050565b600060208284031215612d0457600080fd5b61034c8261298956fea26469706673582212208e9beac0bf07991b6a75c97b2d7d12cc6479c5cb58ef8757cd020cad871dd06764736f6c634300080d0033",
  "linkReferences": {},
  "deployedLinkReferences": {}
}