{
  "_format": "hh-sol-artifact-1",
  "contractName": "GaugeV2",
  "sourceName": "contracts/GaugeV2.sol",
  "abi": [
    {
      "inputs": [
        {
          "internalType": "address",
          "name": "_rewardToken",
          "type": "address"
        },
        {
          "internalType": "address",
          "name": "_ve",
          "type": "address"
        },
        {
          "internalType": "address",
          "name": "_token",
          "type": "address"
        },
        {
          "internalType": "address",
          "name": "_distribution",
          "type": "address"
        },
        {
          "internalType": "address",
          "name": "_internal_bribe",
          "type": "address"
        },
        {
          "internalType": "address",
          "name": "_external_bribe",
          "type": "address"
        },
        {
          "internalType": "bool",
          "name": "_isForPair",
          "type": "bool"
        }
      ],
      "stateMutability": "nonpayable",
      "type": "constructor"
    },
    {
      "anonymous": false,
      "inputs": [
        {
          "indexed": true,
          "internalType": "address",
          "name": "from",
          "type": "address"
        },
        {
          "indexed": false,
          "internalType": "uint256",
          "name": "claimed0",
          "type": "uint256"
        },
        {
          "indexed": false,
          "internalType": "uint256",
          "name": "claimed1",
          "type": "uint256"
        }
      ],
      "name": "ClaimFees",
      "type": "event"
    },
    {
      "anonymous": false,
      "inputs": [
        {
          "indexed": true,
          "internalType": "address",
          "name": "user",
          "type": "address"
        },
        {
          "indexed": false,
          "internalType": "uint256",
          "name": "amount",
          "type": "uint256"
        }
      ],
      "name": "Deposit",
      "type": "event"
    },
    {
      "anonymous": false,
      "inputs": [
        {
          "indexed": true,
          "internalType": "address",
          "name": "user",
          "type": "address"
        },
        {
          "indexed": false,
          "internalType": "uint256",
          "name": "reward",
          "type": "uint256"
        }
      ],
      "name": "Harvest",
      "type": "event"
    },
    {
      "anonymous": false,
      "inputs": [
        {
          "indexed": true,
          "internalType": "address",
          "name": "previousOwner",
          "type": "address"
        },
        {
          "indexed": true,
          "internalType": "address",
          "name": "newOwner",
          "type": "address"
        }
      ],
      "name": "OwnershipTransferred",
      "type": "event"
    },
    {
      "anonymous": false,
      "inputs": [
        {
          "indexed": false,
          "internalType": "uint256",
          "name": "reward",
          "type": "uint256"
        }
      ],
      "name": "RewardAdded",
      "type": "event"
    },
    {
      "anonymous": false,
      "inputs": [
        {
          "indexed": true,
          "internalType": "address",
          "name": "user",
          "type": "address"
        },
        {
          "indexed": false,
          "internalType": "uint256",
          "name": "amount",
          "type": "uint256"
        }
      ],
      "name": "Withdraw",
      "type": "event"
    },
    {
      "inputs": [],
      "name": "DISTRIBUTION",
      "outputs": [
        {
          "internalType": "address",
          "name": "",
          "type": "address"
        }
      ],
      "stateMutability": "view",
      "type": "function"
    },
    {
      "inputs": [],
      "name": "DURATION",
      "outputs": [
        {
          "internalType": "uint256",
          "name": "",
          "type": "uint256"
        }
      ],
      "stateMutability": "view",
      "type": "function"
    },
    {
      "inputs": [],
      "name": "TOKEN",
      "outputs": [
        {
          "internalType": "contract IERC20",
          "name": "",
          "type": "address"
        }
      ],
      "stateMutability": "view",
      "type": "function"
    },
    {
      "inputs": [],
      "name": "_VE",
      "outputs": [
        {
          "internalType": "contract IERC20",
          "name": "",
          "type": "address"
        }
      ],
      "stateMutability": "view",
      "type": "function"
    },
    {
      "inputs": [
        {
          "internalType": "address",
          "name": "",
          "type": "address"
        }
      ],
      "name": "_balances",
      "outputs": [
        {
          "internalType": "uint256",
          "name": "",
          "type": "uint256"
        }
      ],
      "stateMutability": "view",
      "type": "function"
    },
    {
      "inputs": [],
      "name": "_periodFinish",
      "outputs": [
        {
          "internalType": "uint256",
          "name": "",
          "type": "uint256"
        }
      ],
      "stateMutability": "view",
      "type": "function"
    },
    {
      "inputs": [],
      "name": "_totalSupply",
      "outputs": [
        {
          "internalType": "uint256",
          "name": "",
          "type": "uint256"
        }
      ],
      "stateMutability": "view",
      "type": "function"
    },
    {
      "inputs": [
        {
          "internalType": "address",
          "name": "account",
          "type": "address"
        }
      ],
      "name": "balanceOf",
      "outputs": [
        {
          "internalType": "uint256",
          "name": "",
          "type": "uint256"
        }
      ],
      "stateMutability": "view",
      "type": "function"
    },
    {
      "inputs": [],
      "name": "claimFees",
      "outputs": [
        {
          "internalType": "uint256",
          "name": "claimed0",
          "type": "uint256"
        },
        {
          "internalType": "uint256",
          "name": "claimed1",
          "type": "uint256"
        }
      ],
      "stateMutability": "nonpayable",
      "type": "function"
    },
    {
      "inputs": [
        {
          "internalType": "uint256",
          "name": "amount",
          "type": "uint256"
        }
      ],
      "name": "deposit",
      "outputs": [],
      "stateMutability": "nonpayable",
      "type": "function"
    },
    {
      "inputs": [],
      "name": "depositAll",
      "outputs": [],
      "stateMutability": "nonpayable",
      "type": "function"
    },
    {
      "inputs": [
        {
          "internalType": "address",
          "name": "account",
          "type": "address"
        }
      ],
      "name": "earned",
      "outputs": [
        {
          "internalType": "uint256",
          "name": "",
          "type": "uint256"
        }
      ],
      "stateMutability": "view",
      "type": "function"
    },
    {
      "inputs": [],
      "name": "external_bribe",
      "outputs": [
        {
          "internalType": "address",
          "name": "",
          "type": "address"
        }
      ],
      "stateMutability": "view",
      "type": "function"
    },
    {
      "inputs": [],
      "name": "fees0",
      "outputs": [
        {
          "internalType": "uint256",
          "name": "",
          "type": "uint256"
        }
      ],
      "stateMutability": "view",
      "type": "function"
    },
    {
      "inputs": [],
      "name": "fees1",
      "outputs": [
        {
          "internalType": "uint256",
          "name": "",
          "type": "uint256"
        }
      ],
      "stateMutability": "view",
      "type": "function"
    },
    {
      "inputs": [],
      "name": "gaugeRewarder",
      "outputs": [
        {
          "internalType": "address",
          "name": "",
          "type": "address"
        }
      ],
      "stateMutability": "view",
      "type": "function"
    },
    {
      "inputs": [],
      "name": "getReward",
      "outputs": [],
      "stateMutability": "nonpayable",
      "type": "function"
    },
    {
      "inputs": [],
      "name": "internal_bribe",
      "outputs": [
        {
          "internalType": "address",
          "name": "",
          "type": "address"
        }
      ],
      "stateMutability": "view",
      "type": "function"
    },
    {
      "inputs": [],
      "name": "isForPair",
      "outputs": [
        {
          "internalType": "bool",
          "name": "",
          "type": "bool"
        }
      ],
      "stateMutability": "view",
      "type": "function"
    },
    {
      "inputs": [],
      "name": "lastTimeRewardApplicable",
      "outputs": [
        {
          "internalType": "uint256",
          "name": "",
          "type": "uint256"
        }
      ],
      "stateMutability": "view",
      "type": "function"
    },
    {
      "inputs": [],
      "name": "lastUpdateTime",
      "outputs": [
        {
          "internalType": "uint256",
          "name": "",
          "type": "uint256"
        }
      ],
      "stateMutability": "view",
      "type": "function"
    },
    {
      "inputs": [
        {
          "internalType": "address",
          "name": "token",
          "type": "address"
        },
        {
          "internalType": "uint256",
          "name": "reward",
          "type": "uint256"
        }
      ],
      "name": "notifyRewardAmount",
      "outputs": [],
      "stateMutability": "nonpayable",
      "type": "function"
    },
    {
      "inputs": [],
      "name": "owner",
      "outputs": [
        {
          "internalType": "address",
          "name": "",
          "type": "address"
        }
      ],
      "stateMutability": "view",
      "type": "function"
    },
    {
      "inputs": [],
      "name": "periodFinish",
      "outputs": [
        {
          "internalType": "uint256",
          "name": "",
          "type": "uint256"
        }
      ],
      "stateMutability": "view",
      "type": "function"
    },
    {
      "inputs": [],
      "name": "renounceOwnership",
      "outputs": [],
      "stateMutability": "nonpayable",
      "type": "function"
    },
    {
      "inputs": [],
      "name": "rewardForDuration",
      "outputs": [
        {
          "internalType": "uint256",
          "name": "",
          "type": "uint256"
        }
      ],
      "stateMutability": "view",
      "type": "function"
    },
    {
      "inputs": [],
      "name": "rewardPerToken",
      "outputs": [
        {
          "internalType": "uint256",
          "name": "",
          "type": "uint256"
        }
      ],
      "stateMutability": "view",
      "type": "function"
    },
    {
      "inputs": [],
      "name": "rewardPerTokenStored",
      "outputs": [
        {
          "internalType": "uint256",
          "name": "",
          "type": "uint256"
        }
      ],
      "stateMutability": "view",
      "type": "function"
    },
    {
      "inputs": [],
      "name": "rewardRate",
      "outputs": [
        {
          "internalType": "uint256",
          "name": "",
          "type": "uint256"
        }
      ],
      "stateMutability": "view",
      "type": "function"
    },
    {
      "inputs": [],
      "name": "rewardToken",
      "outputs": [
        {
          "internalType": "contract IERC20",
          "name": "",
          "type": "address"
        }
      ],
      "stateMutability": "view",
      "type": "function"
    },
    {
      "inputs": [],
      "name": "rewarderPid",
      "outputs": [
        {
          "internalType": "uint256",
          "name": "",
          "type": "uint256"
        }
      ],
      "stateMutability": "view",
      "type": "function"
    },
    {
      "inputs": [
        {
          "internalType": "address",
          "name": "",
          "type": "address"
        }
      ],
      "name": "rewards",
      "outputs": [
        {
          "internalType": "uint256",
          "name": "",
          "type": "uint256"
        }
      ],
      "stateMutability": "view",
      "type": "function"
    },
    {
      "inputs": [
        {
          "internalType": "address",
          "name": "_distribution",
          "type": "address"
        }
      ],
      "name": "setDistribution",
      "outputs": [],
      "stateMutability": "nonpayable",
      "type": "function"
    },
    {
      "inputs": [
        {
          "internalType": "address",
          "name": "_gaugeRewarder",
          "type": "address"
        }
      ],
      "name": "setGaugeRewarder",
      "outputs": [],
      "stateMutability": "nonpayable",
      "type": "function"
    },
    {
      "inputs": [
        {
          "internalType": "uint256",
          "name": "_pid",
          "type": "uint256"
        }
      ],
      "name": "setRewarderPid",
      "outputs": [],
      "stateMutability": "nonpayable",
      "type": "function"
    },
    {
      "inputs": [],
      "name": "totalSupply",
      "outputs": [
        {
          "internalType": "uint256",
          "name": "",
          "type": "uint256"
        }
      ],
      "stateMutability": "view",
      "type": "function"
    },
    {
      "inputs": [
        {
          "internalType": "address",
          "name": "newOwner",
          "type": "address"
        }
      ],
      "name": "transferOwnership",
      "outputs": [],
      "stateMutability": "nonpayable",
      "type": "function"
    },
    {
      "inputs": [
        {
          "internalType": "address",
          "name": "",
          "type": "address"
        }
      ],
      "name": "userRewardPerTokenPaid",
      "outputs": [
        {
          "internalType": "uint256",
          "name": "",
          "type": "uint256"
        }
      ],
      "stateMutability": "view",
      "type": "function"
    },
    {
      "inputs": [
        {
          "internalType": "uint256",
          "name": "amount",
          "type": "uint256"
        }
      ],
      "name": "withdraw",
      "outputs": [],
      "stateMutability": "nonpayable",
      "type": "function"
    },
    {
      "inputs": [],
      "name": "withdrawAll",
      "outputs": [],
      "stateMutability": "nonpayable",
      "type": "function"
    },
    {
      "inputs": [],
      "name": "withdrawAllAndHarvest",
      "outputs": [],
      "stateMutability": "nonpayable",
      "type": "function"
    }
  ],
  "bytecode": "0x60806040523480156200001157600080fd5b5060405162001dc938038062001dc983398101604081905262000034916200014a565b60016000556200004433620000db565b600280546001600160a01b03199081166001600160a01b03998a161790915560038054821697891697909717909655600480548716958816959095179094556005805486169387169390931790925562093a80600a556007805485169186169190911790556008805490931693169290921790556001805460ff60a01b1916600160a01b92151592909202919091179055620001e7565b600180546001600160a01b038381166001600160a01b0319831681179093556040519116919082907f8be0079c531659141344cd1fd0a4f28419497f9722a3daafe3b4186f6b6457e090600090a35050565b80516001600160a01b03811681146200014557600080fd5b919050565b600080600080600080600060e0888a0312156200016657600080fd5b62000171886200012d565b965062000181602089016200012d565b955062000191604089016200012d565b9450620001a1606089016200012d565b9350620001b1608089016200012d565b9250620001c160a089016200012d565b915060c08801518015158114620001d757600080fd5b8091505092959891949750929550565b611bd280620001f76000396000f3fe608060405234801561001057600080fd5b50600436106102525760003560e01c806380faa57d11610146578063b6b55f25116100c3578063df136d6511610087578063df136d65146104ae578063e5748213146104b7578063ebe2b12b146104db578063f2fde38b146104e4578063f7c618c1146104f7578063f97d21141461050a57600080fd5b8063b6b55f2514610465578063c8f33c9114610478578063cd3daf9d14610481578063d294f09314610489578063de5f6268146104a657600080fd5b80638da5cb5b1161010a5780638da5cb5b1461041c5780638f67b0131461042d57806393f1c442146104365780639f6d7d5b1461043f578063b66503cf1461045257600080fd5b806380faa57d146103c657806382bfefc8146103ce578063853828b6146103e1578063863e2442146103e95780638b876347146103fc57600080fd5b80636946a235116101d4578063715018a611610198578063715018a61461037c578063770f8571146103845780637b0a47ee146103975780637c91e4eb146103a05780637f699015146103b357600080fd5b80636946a235146103105780636e9852f2146103185780636ebcf6071461032057806370a082311461034057806370b15e6d1461036957600080fd5b80631be052891161021b5780631be05289146102d85780632e1a7d4d146102e15780633d18b912146102f65780633eaaf86b146102fe5780634c02a21c1461030757600080fd5b80628cc2621461025757806303fbf83a1461027d5780630700037d146102a85780631407c664146102c857806318160ddd146102d0575b600080fd5b61026a610265366004611971565b61051d565b6040519081526020015b60405180910390f35b600854610290906001600160a01b031681565b6040516001600160a01b039091168152602001610274565b61026a6102b6366004611971565b60126020526000908152604090205481565b600b5461026a565b60135461026a565b61026a600a5481565b6102f46102ef36600461198e565b61059b565b005b6102f46105a7565b61026a60135481565b61026a60105481565b61026a61071b565b6102f4610739565b61026a61032e366004611971565b60146020526000908152604090205481565b61026a61034e366004611971565b6001600160a01b031660009081526014602052604090205490565b6102f461037736600461198e565b61075a565b6102f46107b1565b600754610290906001600160a01b031681565b61026a600c5481565b600554610290906001600160a01b031681565b6102f46103c1366004611971565b6107c3565b61026a610879565b600454610290906001600160a01b031681565b6102f4610887565b600654610290906001600160a01b031681565b61026a61040a366004611971565b60116020526000908152604090205481565b6001546001600160a01b0316610290565b61026a60095481565b61026a600f5481565b600354610290906001600160a01b031681565b6102f46104603660046119a7565b6108a0565b6102f461047336600461198e565b610b39565b61026a600d5481565b61026a610b43565b610491610b8e565b60408051928352602083019190915201610274565b6102f4610bb3565b61026a600e5481565b6001546104cb90600160a01b900460ff1681565b6040519015158152602001610274565b61026a600b5481565b6102f46104f2366004611971565b610c2c565b600254610290906001600160a01b031681565b6102f4610518366004611971565b610ca2565b6001600160a01b0381166000908152601260209081526040808320546011909252822054610595919061058f90670de0b6b3a7640000906105899061056a90610564610b43565b90610d58565b6001600160a01b03881660009081526014602052604090205490610d6b565b90610d77565b90610d83565b92915050565b6105a481610d8f565b50565b6105af610fe7565b336105b8610b43565b600e556105c3610879565b600d556001600160a01b0381161561060a576105de8161051d565b6001600160a01b038216600090815260126020908152604080832093909355600e546011909152919020555b33600090815260126020526040902054801561067f5733600081815260126020526040812055600254610649916001600160a01b039091169083611040565b60405181815233907fc9695243a805adb74c91f28311176c65b417e842d5699893cef56d18bfa48cba9060200160405180910390a25b6006546001600160a01b03161561070d5760065460095433600081815260146020526040908190205490516344af0fa760e01b81526001600160a01b03909416936344af0fa7936106da9390929091829188916004016119d3565b600060405180830381600087803b1580156106f457600080fd5b505af1158015610708573d6000803e3d6000fd5b505050505b50506107196001600055565b565b6000610734600a54600c54610d6b90919063ffffffff16565b905090565b3360009081526014602052604090205461075290610d8f565b6107196105a7565b6107626110a8565b610770565b60405180910390fd5b60095481036107ac5760405162461bcd60e51b81526020600482015260086024820152671cd85b59481c1a5960c21b6044820152606401610767565b600955565b6107b96110a8565b6107196000611102565b6107cb6110a8565b6001600160a01b03811661080d5760405162461bcd60e51b81526020600482015260096024820152683d32b9379030b2323960b91b6044820152606401610767565b6005546001600160a01b03908116908216036108575760405162461bcd60e51b815260206004820152600960248201526839b0b6b29030b2323960b91b6044820152606401610767565b600580546001600160a01b0319166001600160a01b0392909216919091179055565b600061073442600b54611154565b3360009081526014602052604090205461071990610d8f565b6108a8610fe7565b6005546001600160a01b031633146109155760405162461bcd60e51b815260206004820152602a60248201527f43616c6c6572206973206e6f742052657761726473446973747269627574696f6044820152691b8818dbdb9d1c9858dd60b21b6064820152608401610767565b600061091f610b43565b600e5561092a610879565b600d556001600160a01b03811615610971576109458161051d565b6001600160a01b038216600090815260126020908152604080832093909355600e546011909152919020555b6002546001600160a01b0384811691161461098b57600080fd5b6005546002546109a9916001600160a01b039182169116308561116a565b600b5442106109c857600a546109c0908390610d77565b600c55610a0b565b600b546000906109d89042610d58565b905060006109f1600c5483610d6b90919063ffffffff16565b600a54909150610a05906105898684610d83565b600c5550505b6002546040516370a0823160e01b81523060048201526000916001600160a01b0316906370a0823190602401602060405180830381865afa158015610a54573d6000803e3d6000fd5b505050506040513d601f19601f82011682018060405250810190610a789190611a02565b9050610a8f600a5482610d7790919063ffffffff16565b600c541115610ae05760405162461bcd60e51b815260206004820152601860248201527f50726f76696465642072657761726420746f6f206869676800000000000000006044820152606401610767565b42600d819055600a54610af39190610d83565b600b556040518381527fde88a922e0d3b88b24e9623efeb464919c6bf9f66857a65e2bfcf2ce87a9433d9060200160405180910390a15050610b356001600055565b5050565b6105a481336111a8565b6000601354600003610b565750600e5490565b610734610b85601354610589670de0b6b3a7640000610b7f600c54610b7f600d54610564610879565b90610d6b565b600e5490610d83565b600080610b99610fe7565b610ba161139b565b91509150610baf6001600055565b9091565b600480546040516370a0823160e01b81523392810192909252610719916001600160a01b03909116906370a0823190602401602060405180830381865afa158015610c02573d6000803e3d6000fd5b505050506040513d601f19601f82011682018060405250810190610c269190611a02565b336111a8565b610c346110a8565b6001600160a01b038116610c995760405162461bcd60e51b815260206004820152602660248201527f4f776e61626c653a206e6577206f776e657220697320746865207a65726f206160448201526564647265737360d01b6064820152608401610767565b6105a481611102565b610caa6110a8565b6001600160a01b038116610cec5760405162461bcd60e51b81526020600482015260096024820152683d32b9379030b2323960b91b6044820152606401610767565b6006546001600160a01b0390811690821603610d365760405162461bcd60e51b815260206004820152600960248201526839b0b6b29030b2323960b91b6044820152606401610767565b600680546001600160a01b0319166001600160a01b0392909216919091179055565b6000610d648284611a31565b9392505050565b6000610d648284611a48565b6000610d648284611a67565b6000610d648284611a89565b610d97610fe7565b33610da0610b43565b600e55610dab610879565b600d556001600160a01b03811615610df257610dc68161051d565b6001600160a01b038216600090815260126020908152604080832093909355600e546011909152919020555b60008211610e365760405162461bcd60e51b8152602060048201526011602482015270043616e6e6f74207769746864726177203607c1b6044820152606401610767565b601354600090610e469084610d58565b1015610e815760405162461bcd60e51b815260206004820152600a6024820152690737570706c79203c20360b41b6044820152606401610767565b33600090815260146020526040902054610ecb5760405162461bcd60e51b815260206004820152600b60248201526a6e6f2062616c616e63657360a81b6044820152606401610767565b601354610ed89083610d58565b60135533600090815260146020526040902054610ef59083610d58565b336000908152601460205260409020556006546001600160a01b031615610f9057600654600954336000818152601460205260408082205490516344af0fa760e01b81526001600160a01b03909516946344af0fa794610f5d949093909283926004016119d3565b600060405180830381600087803b158015610f7757600080fd5b505af1158015610f8b573d6000803e3d6000fd5b505050505b600454610fa7906001600160a01b03163384611040565b60405182815233907f884edad9ce6fa2440d8a54cc123490eb96d2768479d49ff9c7366125a94243649060200160405180910390a2506105a46001600055565b6002600054036110395760405162461bcd60e51b815260206004820152601f60248201527f5265656e7472616e637947756172643a207265656e7472616e742063616c6c006044820152606401610767565b6002600055565b6040516001600160a01b0383166024820152604481018290526110a390849063a9059cbb60e01b906064015b60408051601f198184030181529190526020810180516001600160e01b03166001600160e01b0319909316929092179091526116fa565b505050565b6001546001600160a01b031633146107195760405162461bcd60e51b815260206004820181905260248201527f4f776e61626c653a2063616c6c6572206973206e6f7420746865206f776e65726044820152606401610767565b600180546001600160a01b038381166001600160a01b0319831681179093556040519116919082907f8be0079c531659141344cd1fd0a4f28419497f9722a3daafe3b4186f6b6457e090600090a35050565b60008183106111635781610d64565b5090919050565b6040516001600160a01b03808516602483015283166044820152606481018290526111a29085906323b872dd60e01b9060840161106c565b50505050565b6111b0610fe7565b806111b9610b43565b600e556111c4610879565b600d556001600160a01b0381161561120b576111df8161051d565b6001600160a01b038216600090815260126020908152604080832093909355600e546011909152919020555b6000831161125b5760405162461bcd60e51b815260206004820152601e60248201527f6465706f736974284761756765293a2063616e6e6f74207374616b65203000006044820152606401610767565b6001600160a01b03821660009081526014602052604090205461127e9084610d83565b6001600160a01b0383166000908152601460205260409020556013546112a49084610d83565b6013556004546112bf906001600160a01b031683308661116a565b6006546001600160a01b03161561134d576006546009546001600160a01b038481166000908152601460205260408082205490516344af0fa760e01b815292909416936344af0fa79361131a939092889283926004016119d3565b600060405180830381600087803b15801561133457600080fd5b505af1158015611348573d6000803e3d6000fd5b505050505b816001600160a01b03167fe1fffcc4923d04b559f4d29a8bfc6cda04eb5b0d3c460751c2402c5c5cc9109c8460405161138891815260200190565b60405180910390a250610b356001600055565b6001546000908190600160a01b900460ff166113ba5750600091829150565b600480546040805163d294f09360e01b815281516001600160a01b0390931693849363d294f093938383019390929082900301816000875af1158015611404573d6000803e3d6000fd5b505050506040513d601f19601f820116820180604052508101906114289190611aa1565b90935091508215158061143b5750600082115b156116f557600083600f546114509190611a89565b90506000836010546114629190611a89565b9050600080846001600160a01b0316639d63848a6040518163ffffffff1660e01b81526004016040805180830381865afa1580156114a4573d6000803e3d6000fd5b505050506040513d601f19601f820116820180604052508101906114c89190611ac5565b909250905083156115bb576000600f5560075460405163095ea7b360e01b81526001600160a01b039182166004820152602481018690529083169063095ea7b3906044016020604051808303816000875af115801561152b573d6000803e3d6000fd5b505050506040513d601f19601f8201168201806040525081019061154f9190611aff565b5060075460405163b66503cf60e01b81526001600160a01b038481166004830152602482018790529091169063b66503cf90604401600060405180830381600087803b15801561159e57600080fd5b505af11580156115b2573d6000803e3d6000fd5b505050506115c1565b600f8490555b82156116af57600060105560075460405163095ea7b360e01b81526001600160a01b039182166004820152602481018590529082169063095ea7b3906044016020604051808303816000875af115801561161f573d6000803e3d6000fd5b505050506040513d601f19601f820116820180604052508101906116439190611aff565b5060075460405163b66503cf60e01b81526001600160a01b038381166004830152602482018690529091169063b66503cf90604401600060405180830381600087803b15801561169257600080fd5b505af11580156116a6573d6000803e3d6000fd5b505050506116b5565b60108390555b604080518881526020810188905233917fbc567d6cbad26368064baa0ab5a757be46aae4d70f707f9203d9d9b6c8ccbfa3910160405180910390a2505050505b509091565b600061174f826040518060400160405280602081526020017f5361666545524332303a206c6f772d6c6576656c2063616c6c206661696c6564815250856001600160a01b03166117cc9092919063ffffffff16565b8051909150156110a3578080602001905181019061176d9190611aff565b6110a35760405162461bcd60e51b815260206004820152602a60248201527f5361666545524332303a204552433230206f7065726174696f6e20646964206e6044820152691bdd081cdd58d8d9595960b21b6064820152608401610767565b60606117db84846000856117e3565b949350505050565b6060824710156118445760405162461bcd60e51b815260206004820152602660248201527f416464726573733a20696e73756666696369656e742062616c616e636520666f6044820152651c8818d85b1b60d21b6064820152608401610767565b600080866001600160a01b031685876040516118609190611b4d565b60006040518083038185875af1925050503d806000811461189d576040519150601f19603f3d011682016040523d82523d6000602084013e6118a2565b606091505b50915091506118b3878383876118be565b979650505050505050565b6060831561192d578251600003611926576001600160a01b0385163b6119265760405162461bcd60e51b815260206004820152601d60248201527f416464726573733a2063616c6c20746f206e6f6e2d636f6e74726163740000006044820152606401610767565b50816117db565b6117db83838151156119425781518083602001fd5b8060405162461bcd60e51b81526004016107679190611b69565b6001600160a01b03811681146105a457600080fd5b60006020828403121561198357600080fd5b8135610d648161195c565b6000602082840312156119a057600080fd5b5035919050565b600080604083850312156119ba57600080fd5b82356119c58161195c565b946020939093013593505050565b9485526001600160a01b0393841660208601529190921660408401526060830191909152608082015260a00190565b600060208284031215611a1457600080fd5b5051919050565b634e487b7160e01b600052601160045260246000fd5b600082821015611a4357611a43611a1b565b500390565b6000816000190483118215151615611a6257611a62611a1b565b500290565b600082611a8457634e487b7160e01b600052601260045260246000fd5b500490565b60008219821115611a9c57611a9c611a1b565b500190565b60008060408385031215611ab457600080fd5b505080516020909101519092909150565b60008060408385031215611ad857600080fd5b8251611ae38161195c565b6020840151909250611af48161195c565b809150509250929050565b600060208284031215611b1157600080fd5b81518015158114610d6457600080fd5b60005b83811015611b3c578181015183820152602001611b24565b838111156111a25750506000910152565b60008251611b5f818460208701611b21565b9190910192915050565b6020815260008251806020840152611b88816040850160208701611b21565b601f01601f1916919091016040019291505056fea26469706673582212208b798c21734daad50d3ddee9e599633628543b8c9425db507045d97a4d4d79d964736f6c634300080d0033",
  "linkReferences": {},
  "deployedLinkReferences": {}
}