{
  "_format": "hh-sol-artifact-1",
  "contractName": "VoterV3",
  "sourceName": "contracts/VoterV3.sol",
  "abi": [
    {
      "inputs": [],
      "stateMutability": "nonpayable",
      "type": "constructor"
    },
    {
      "anonymous": false,
      "inputs": [
        {
          "indexed": false,
          "internalType": "uint256",
          "name": "tokenId",
          "type": "uint256"
        },
        {
          "indexed": false,
          "internalType": "uint256",
          "name": "weight",
          "type": "uint256"
        }
      ],
      "name": "Abstained",
      "type": "event"
    },
    {
      "anonymous": false,
      "inputs": [
        {
          "indexed": true,
          "internalType": "address",
          "name": "owner",
          "type": "address"
        },
        {
          "indexed": true,
          "internalType": "address",
          "name": "gauge",
          "type": "address"
        },
        {
          "indexed": false,
          "internalType": "uint256",
          "name": "tokenId",
          "type": "uint256"
        }
      ],
      "name": "Attach",
      "type": "event"
    },
    {
      "anonymous": false,
      "inputs": [
        {
          "indexed": true,
          "internalType": "address",
          "name": "lp",
          "type": "address"
        },
        {
          "indexed": true,
          "internalType": "address",
          "name": "gauge",
          "type": "address"
        },
        {
          "indexed": false,
          "internalType": "uint256",
          "name": "tokenId",
          "type": "uint256"
        },
        {
          "indexed": false,
          "internalType": "uint256",
          "name": "amount",
          "type": "uint256"
        }
      ],
      "name": "Deposit",
      "type": "event"
    },
    {
      "anonymous": false,
      "inputs": [
        {
          "indexed": true,
          "internalType": "address",
          "name": "owner",
          "type": "address"
        },
        {
          "indexed": true,
          "internalType": "address",
          "name": "gauge",
          "type": "address"
        },
        {
          "indexed": false,
          "internalType": "uint256",
          "name": "tokenId",
          "type": "uint256"
        }
      ],
      "name": "Detach",
      "type": "event"
    },
    {
      "anonymous": false,
      "inputs": [
        {
          "indexed": true,
          "internalType": "address",
          "name": "sender",
          "type": "address"
        },
        {
          "indexed": true,
          "internalType": "address",
          "name": "gauge",
          "type": "address"
        },
        {
          "indexed": false,
          "internalType": "uint256",
          "name": "amount",
          "type": "uint256"
        }
      ],
      "name": "DistributeReward",
      "type": "event"
    },
    {
      "anonymous": false,
      "inputs": [
        {
          "indexed": true,
          "internalType": "address",
          "name": "gauge",
          "type": "address"
        },
        {
          "indexed": false,
          "internalType": "address",
          "name": "creator",
          "type": "address"
        },
        {
          "indexed": false,
          "internalType": "address",
          "name": "internal_bribe",
          "type": "address"
        },
        {
          "indexed": true,
          "internalType": "address",
          "name": "external_bribe",
          "type": "address"
        },
        {
          "indexed": true,
          "internalType": "address",
          "name": "pool",
          "type": "address"
        }
      ],
      "name": "GaugeCreated",
      "type": "event"
    },
    {
      "anonymous": false,
      "inputs": [
        {
          "indexed": true,
          "internalType": "address",
          "name": "gauge",
          "type": "address"
        }
      ],
      "name": "GaugeKilled",
      "type": "event"
    },
    {
      "anonymous": false,
      "inputs": [
        {
          "indexed": true,
          "internalType": "address",
          "name": "gauge",
          "type": "address"
        }
      ],
      "name": "GaugeRevived",
      "type": "event"
    },
    {
      "anonymous": false,
      "inputs": [
        {
          "indexed": false,
          "internalType": "uint8",
          "name": "version",
          "type": "uint8"
        }
      ],
      "name": "Initialized",
      "type": "event"
    },
    {
      "anonymous": false,
      "inputs": [
        {
          "indexed": true,
          "internalType": "address",
          "name": "sender",
          "type": "address"
        },
        {
          "indexed": true,
          "internalType": "address",
          "name": "reward",
          "type": "address"
        },
        {
          "indexed": false,
          "internalType": "uint256",
          "name": "amount",
          "type": "uint256"
        }
      ],
      "name": "NotifyReward",
      "type": "event"
    },
    {
      "anonymous": false,
      "inputs": [
        {
          "indexed": true,
          "internalType": "address",
          "name": "previousOwner",
          "type": "address"
        },
        {
          "indexed": true,
          "internalType": "address",
          "name": "newOwner",
          "type": "address"
        }
      ],
      "name": "OwnershipTransferred",
      "type": "event"
    },
    {
      "anonymous": false,
      "inputs": [
        {
          "indexed": true,
          "internalType": "address",
          "name": "voter",
          "type": "address"
        },
        {
          "indexed": false,
          "internalType": "uint256",
          "name": "tokenId",
          "type": "uint256"
        },
        {
          "indexed": false,
          "internalType": "uint256",
          "name": "weight",
          "type": "uint256"
        }
      ],
      "name": "Voted",
      "type": "event"
    },
    {
      "anonymous": false,
      "inputs": [
        {
          "indexed": true,
          "internalType": "address",
          "name": "whitelister",
          "type": "address"
        },
        {
          "indexed": true,
          "internalType": "address",
          "name": "token",
          "type": "address"
        }
      ],
      "name": "Whitelisted",
      "type": "event"
    },
    {
      "anonymous": false,
      "inputs": [
        {
          "indexed": true,
          "internalType": "address",
          "name": "lp",
          "type": "address"
        },
        {
          "indexed": true,
          "internalType": "address",
          "name": "gauge",
          "type": "address"
        },
        {
          "indexed": false,
          "internalType": "uint256",
          "name": "tokenId",
          "type": "uint256"
        },
        {
          "indexed": false,
          "internalType": "uint256",
          "name": "amount",
          "type": "uint256"
        }
      ],
      "name": "Withdraw",
      "type": "event"
    },
    {
      "inputs": [
        {
          "internalType": "address[]",
          "name": "_tokens",
          "type": "address[]"
        },
        {
          "internalType": "address",
          "name": "_minter",
          "type": "address"
        }
      ],
      "name": "_initialize",
      "outputs": [],
      "stateMutability": "nonpayable",
      "type": "function"
    },
    {
      "inputs": [],
      "name": "_ve",
      "outputs": [
        {
          "internalType": "address",
          "name": "",
          "type": "address"
        }
      ],
      "stateMutability": "view",
      "type": "function"
    },
    {
      "inputs": [
        {
          "internalType": "uint256",
          "name": "tokenId",
          "type": "uint256"
        },
        {
          "internalType": "address",
          "name": "account",
          "type": "address"
        }
      ],
      "name": "attachTokenToGauge",
      "outputs": [],
      "stateMutability": "nonpayable",
      "type": "function"
    },
    {
      "inputs": [],
      "name": "bribefactory",
      "outputs": [
        {
          "internalType": "address",
          "name": "",
          "type": "address"
        }
      ],
      "stateMutability": "view",
      "type": "function"
    },
    {
      "inputs": [
        {
          "internalType": "address[]",
          "name": "_bribes",
          "type": "address[]"
        },
        {
          "internalType": "address[][]",
          "name": "_tokens",
          "type": "address[][]"
        },
        {
          "internalType": "uint256",
          "name": "_tokenId",
          "type": "uint256"
        }
      ],
      "name": "claimBribes",
      "outputs": [],
      "stateMutability": "nonpayable",
      "type": "function"
    },
    {
      "inputs": [
        {
          "internalType": "address[]",
          "name": "_fees",
          "type": "address[]"
        },
        {
          "internalType": "address[][]",
          "name": "_tokens",
          "type": "address[][]"
        },
        {
          "internalType": "uint256",
          "name": "_tokenId",
          "type": "uint256"
        }
      ],
      "name": "claimFees",
      "outputs": [],
      "stateMutability": "nonpayable",
      "type": "function"
    },
    {
      "inputs": [
        {
          "internalType": "address[]",
          "name": "_gauges",
          "type": "address[]"
        },
        {
          "internalType": "address[][]",
          "name": "_tokens",
          "type": "address[][]"
        }
      ],
      "name": "claimRewards",
      "outputs": [],
      "stateMutability": "nonpayable",
      "type": "function"
    },
    {
      "inputs": [
        {
          "internalType": "address",
          "name": "",
          "type": "address"
        }
      ],
      "name": "claimable",
      "outputs": [
        {
          "internalType": "uint256",
          "name": "",
          "type": "uint256"
        }
      ],
      "stateMutability": "view",
      "type": "function"
    },
    {
      "inputs": [
        {
          "internalType": "address",
          "name": "_pool",
          "type": "address"
        }
      ],
      "name": "createGauge",
      "outputs": [
        {
          "internalType": "address",
          "name": "",
          "type": "address"
        }
      ],
      "stateMutability": "nonpayable",
      "type": "function"
    },
    {
      "inputs": [
        {
          "internalType": "uint256",
          "name": "tokenId",
          "type": "uint256"
        },
        {
          "internalType": "address",
          "name": "account",
          "type": "address"
        }
      ],
      "name": "detachTokenFromGauge",
      "outputs": [],
      "stateMutability": "nonpayable",
      "type": "function"
    },
    {
      "inputs": [
        {
          "internalType": "address[]",
          "name": "_gauges",
          "type": "address[]"
        }
      ],
      "name": "distribute",
      "outputs": [],
      "stateMutability": "nonpayable",
      "type": "function"
    },
    {
      "inputs": [
        {
          "internalType": "address",
          "name": "_gauge",
          "type": "address"
        }
      ],
      "name": "distribute",
      "outputs": [],
      "stateMutability": "nonpayable",
      "type": "function"
    },
    {
      "inputs": [
        {
          "internalType": "uint256",
          "name": "start",
          "type": "uint256"
        },
        {
          "internalType": "uint256",
          "name": "finish",
          "type": "uint256"
        }
      ],
      "name": "distribute",
      "outputs": [],
      "stateMutability": "nonpayable",
      "type": "function"
    },
    {
      "inputs": [],
      "name": "distributeAll",
      "outputs": [],
      "stateMutability": "nonpayable",
      "type": "function"
    },
    {
      "inputs": [
        {
          "internalType": "address[]",
          "name": "_gauges",
          "type": "address[]"
        }
      ],
      "name": "distributeFees",
      "outputs": [],
      "stateMutability": "nonpayable",
      "type": "function"
    },
    {
      "inputs": [],
      "name": "emergencyCouncil",
      "outputs": [
        {
          "internalType": "address",
          "name": "",
          "type": "address"
        }
      ],
      "stateMutability": "view",
      "type": "function"
    },
    {
      "inputs": [
        {
          "internalType": "uint256",
          "name": "tokenId",
          "type": "uint256"
        },
        {
          "internalType": "address",
          "name": "account",
          "type": "address"
        },
        {
          "internalType": "uint256",
          "name": "amount",
          "type": "uint256"
        }
      ],
      "name": "emitDeposit",
      "outputs": [],
      "stateMutability": "nonpayable",
      "type": "function"
    },
    {
      "inputs": [
        {
          "internalType": "uint256",
          "name": "tokenId",
          "type": "uint256"
        },
        {
          "internalType": "address",
          "name": "account",
          "type": "address"
        },
        {
          "internalType": "uint256",
          "name": "amount",
          "type": "uint256"
        }
      ],
      "name": "emitWithdraw",
      "outputs": [],
      "stateMutability": "nonpayable",
      "type": "function"
    },
    {
      "inputs": [
        {
          "internalType": "address",
          "name": "",
          "type": "address"
        }
      ],
      "name": "external_bribes",
      "outputs": [
        {
          "internalType": "address",
          "name": "",
          "type": "address"
        }
      ],
      "stateMutability": "view",
      "type": "function"
    },
    {
      "inputs": [],
      "name": "factory",
      "outputs": [
        {
          "internalType": "address",
          "name": "",
          "type": "address"
        }
      ],
      "stateMutability": "view",
      "type": "function"
    },
    {
      "inputs": [],
      "name": "gaugefactory",
      "outputs": [
        {
          "internalType": "address",
          "name": "",
          "type": "address"
        }
      ],
      "stateMutability": "view",
      "type": "function"
    },
    {
      "inputs": [
        {
          "internalType": "address",
          "name": "",
          "type": "address"
        }
      ],
      "name": "gauges",
      "outputs": [
        {
          "internalType": "address",
          "name": "",
          "type": "address"
        }
      ],
      "stateMutability": "view",
      "type": "function"
    },
    {
      "inputs": [
        {
          "internalType": "address",
          "name": "",
          "type": "address"
        }
      ],
      "name": "gaugesDistributionTimestmap",
      "outputs": [
        {
          "internalType": "uint256",
          "name": "",
          "type": "uint256"
        }
      ],
      "stateMutability": "view",
      "type": "function"
    },
    {
      "inputs": [],
      "name": "governor",
      "outputs": [
        {
          "internalType": "address",
          "name": "",
          "type": "address"
        }
      ],
      "stateMutability": "view",
      "type": "function"
    },
    {
      "inputs": [
        {
          "internalType": "address",
          "name": "_gauge",
          "type": "address"
        }
      ],
      "name": "increaseGaugeApprovals",
      "outputs": [],
      "stateMutability": "nonpayable",
      "type": "function"
    },
    {
      "inputs": [
        {
          "internalType": "address[]",
          "name": "_gauges",
          "type": "address[]"
        },
        {
          "internalType": "address[]",
          "name": "_pools",
          "type": "address[]"
        }
      ],
      "name": "initGauges",
      "outputs": [],
      "stateMutability": "nonpayable",
      "type": "function"
    },
    {
      "inputs": [
        {
          "internalType": "address",
          "name": "__ve",
          "type": "address"
        },
        {
          "internalType": "address",
          "name": "_factory",
          "type": "address"
        },
        {
          "internalType": "address",
          "name": "_gauges",
          "type": "address"
        },
        {
          "internalType": "address",
          "name": "_bribes",
          "type": "address"
        }
      ],
      "name": "initialize",
      "outputs": [],
      "stateMutability": "nonpayable",
      "type": "function"
    },
    {
      "inputs": [
        {
          "internalType": "address",
          "name": "",
          "type": "address"
        }
      ],
      "name": "internal_bribes",
      "outputs": [
        {
          "internalType": "address",
          "name": "",
          "type": "address"
        }
      ],
      "stateMutability": "view",
      "type": "function"
    },
    {
      "inputs": [
        {
          "internalType": "address",
          "name": "",
          "type": "address"
        }
      ],
      "name": "isAlive",
      "outputs": [
        {
          "internalType": "bool",
          "name": "",
          "type": "bool"
        }
      ],
      "stateMutability": "view",
      "type": "function"
    },
    {
      "inputs": [
        {
          "internalType": "address",
          "name": "",
          "type": "address"
        }
      ],
      "name": "isGauge",
      "outputs": [
        {
          "internalType": "bool",
          "name": "",
          "type": "bool"
        }
      ],
      "stateMutability": "view",
      "type": "function"
    },
    {
      "inputs": [
        {
          "internalType": "address",
          "name": "",
          "type": "address"
        }
      ],
      "name": "isWhitelisted",
      "outputs": [
        {
          "internalType": "bool",
          "name": "",
          "type": "bool"
        }
      ],
      "stateMutability": "view",
      "type": "function"
    },
    {
      "inputs": [
        {
          "internalType": "address",
          "name": "_gauge",
          "type": "address"
        }
      ],
      "name": "killGauge",
      "outputs": [],
      "stateMutability": "nonpayable",
      "type": "function"
    },
    {
      "inputs": [
        {
          "internalType": "address",
          "name": "_gauge",
          "type": "address"
        }
      ],
      "name": "killGaugeTotally",
      "outputs": [],
      "stateMutability": "nonpayable",
      "type": "function"
    },
    {
      "inputs": [
        {
          "internalType": "uint256",
          "name": "",
          "type": "uint256"
        }
      ],
      "name": "lastVoted",
      "outputs": [
        {
          "internalType": "uint256",
          "name": "",
          "type": "uint256"
        }
      ],
      "stateMutability": "view",
      "type": "function"
    },
    {
      "inputs": [],
      "name": "length",
      "outputs": [
        {
          "internalType": "uint256",
          "name": "",
          "type": "uint256"
        }
      ],
      "stateMutability": "view",
      "type": "function"
    },
    {
      "inputs": [],
      "name": "minter",
      "outputs": [
        {
          "internalType": "address",
          "name": "",
          "type": "address"
        }
      ],
      "stateMutability": "view",
      "type": "function"
    },
    {
      "inputs": [
        {
          "internalType": "uint256",
          "name": "amount",
          "type": "uint256"
        }
      ],
      "name": "notifyRewardAmount",
      "outputs": [],
      "stateMutability": "nonpayable",
      "type": "function"
    },
    {
      "inputs": [],
      "name": "owner",
      "outputs": [
        {
          "internalType": "address",
          "name": "",
          "type": "address"
        }
      ],
      "stateMutability": "view",
      "type": "function"
    },
    {
      "inputs": [
        {
          "internalType": "uint256",
          "name": "_tokenId",
          "type": "uint256"
        }
      ],
      "name": "poke",
      "outputs": [],
      "stateMutability": "nonpayable",
      "type": "function"
    },
    {
      "inputs": [
        {
          "internalType": "address",
          "name": "",
          "type": "address"
        }
      ],
      "name": "poolForGauge",
      "outputs": [
        {
          "internalType": "address",
          "name": "",
          "type": "address"
        }
      ],
      "stateMutability": "view",
      "type": "function"
    },
    {
      "inputs": [
        {
          "internalType": "uint256",
          "name": "",
          "type": "uint256"
        },
        {
          "internalType": "uint256",
          "name": "",
          "type": "uint256"
        }
      ],
      "name": "poolVote",
      "outputs": [
        {
          "internalType": "address",
          "name": "",
          "type": "address"
        }
      ],
      "stateMutability": "view",
      "type": "function"
    },
    {
      "inputs": [
        {
          "internalType": "uint256",
          "name": "tokenId",
          "type": "uint256"
        }
      ],
      "name": "poolVoteLength",
      "outputs": [
        {
          "internalType": "uint256",
          "name": "",
          "type": "uint256"
        }
      ],
      "stateMutability": "view",
      "type": "function"
    },
    {
      "inputs": [
        {
          "internalType": "uint256",
          "name": "",
          "type": "uint256"
        }
      ],
      "name": "pools",
      "outputs": [
        {
          "internalType": "address",
          "name": "",
          "type": "address"
        }
      ],
      "stateMutability": "view",
      "type": "function"
    },
    {
      "inputs": [],
      "name": "renounceOwnership",
      "outputs": [],
      "stateMutability": "nonpayable",
      "type": "function"
    },
    {
      "inputs": [
        {
          "internalType": "uint256",
          "name": "_tokenId",
          "type": "uint256"
        }
      ],
      "name": "reset",
      "outputs": [],
      "stateMutability": "nonpayable",
      "type": "function"
    },
    {
      "inputs": [
        {
          "internalType": "address",
          "name": "_gauge",
          "type": "address"
        }
      ],
      "name": "reviveGauge",
      "outputs": [],
      "stateMutability": "nonpayable",
      "type": "function"
    },
    {
      "inputs": [
        {
          "internalType": "address",
          "name": "_bribeFactory",
          "type": "address"
        }
      ],
      "name": "setBribeFactory",
      "outputs": [],
      "stateMutability": "nonpayable",
      "type": "function"
    },
    {
      "inputs": [
        {
          "internalType": "address",
          "name": "_council",
          "type": "address"
        }
      ],
      "name": "setEmergencyCouncil",
      "outputs": [],
      "stateMutability": "nonpayable",
      "type": "function"
    },
    {
      "inputs": [
        {
          "internalType": "address",
          "name": "_gaugeFactory",
          "type": "address"
        }
      ],
      "name": "setGaugeFactory",
      "outputs": [],
      "stateMutability": "nonpayable",
      "type": "function"
    },
    {
      "inputs": [
        {
          "internalType": "address",
          "name": "_governor",
          "type": "address"
        }
      ],
      "name": "setGovernor",
      "outputs": [],
      "stateMutability": "nonpayable",
      "type": "function"
    },
    {
      "inputs": [
        {
          "internalType": "address",
          "name": "_minter",
          "type": "address"
        }
      ],
      "name": "setMinter",
      "outputs": [],
      "stateMutability": "nonpayable",
      "type": "function"
    },
    {
      "inputs": [
        {
          "internalType": "address",
          "name": "_gauge",
          "type": "address"
        },
        {
          "internalType": "address",
          "name": "_internal",
          "type": "address"
        },
        {
          "internalType": "address",
          "name": "_external",
          "type": "address"
        }
      ],
      "name": "setNewBribe",
      "outputs": [],
      "stateMutability": "nonpayable",
      "type": "function"
    },
    {
      "inputs": [
        {
          "internalType": "address",
          "name": "_factory",
          "type": "address"
        }
      ],
      "name": "setPairFactory",
      "outputs": [],
      "stateMutability": "nonpayable",
      "type": "function"
    },
    {
      "inputs": [
        {
          "internalType": "address",
          "name": "__ve",
          "type": "address"
        }
      ],
      "name": "setVotingEscrow",
      "outputs": [],
      "stateMutability": "nonpayable",
      "type": "function"
    },
    {
      "inputs": [],
      "name": "totalWeight",
      "outputs": [
        {
          "internalType": "uint256",
          "name": "",
          "type": "uint256"
        }
      ],
      "stateMutability": "view",
      "type": "function"
    },
    {
      "inputs": [
        {
          "internalType": "address",
          "name": "newOwner",
          "type": "address"
        }
      ],
      "name": "transferOwnership",
      "outputs": [],
      "stateMutability": "nonpayable",
      "type": "function"
    },
    {
      "inputs": [],
      "name": "updateAll",
      "outputs": [],
      "stateMutability": "nonpayable",
      "type": "function"
    },
    {
      "inputs": [
        {
          "internalType": "address[]",
          "name": "_gauges",
          "type": "address[]"
        }
      ],
      "name": "updateFor",
      "outputs": [],
      "stateMutability": "nonpayable",
      "type": "function"
    },
    {
      "inputs": [
        {
          "internalType": "uint256",
          "name": "start",
          "type": "uint256"
        },
        {
          "internalType": "uint256",
          "name": "end",
          "type": "uint256"
        }
      ],
      "name": "updateForRange",
      "outputs": [],
      "stateMutability": "nonpayable",
      "type": "function"
    },
    {
      "inputs": [
        {
          "internalType": "address",
          "name": "_gauge",
          "type": "address"
        }
      ],
      "name": "updateGauge",
      "outputs": [],
      "stateMutability": "nonpayable",
      "type": "function"
    },
    {
      "inputs": [
        {
          "internalType": "uint256",
          "name": "",
          "type": "uint256"
        }
      ],
      "name": "usedWeights",
      "outputs": [
        {
          "internalType": "uint256",
          "name": "",
          "type": "uint256"
        }
      ],
      "stateMutability": "view",
      "type": "function"
    },
    {
      "inputs": [
        {
          "internalType": "uint256",
          "name": "_tokenId",
          "type": "uint256"
        },
        {
          "internalType": "address[]",
          "name": "_poolVote",
          "type": "address[]"
        },
        {
          "internalType": "uint256[]",
          "name": "_weights",
          "type": "uint256[]"
        }
      ],
      "name": "vote",
      "outputs": [],
      "stateMutability": "nonpayable",
      "type": "function"
    },
    {
      "inputs": [
        {
          "internalType": "uint256",
          "name": "",
          "type": "uint256"
        },
        {
          "internalType": "address",
          "name": "",
          "type": "address"
        }
      ],
      "name": "votes",
      "outputs": [
        {
          "internalType": "uint256",
          "name": "",
          "type": "uint256"
        }
      ],
      "stateMutability": "view",
      "type": "function"
    },
    {
      "inputs": [
        {
          "internalType": "address",
          "name": "",
          "type": "address"
        }
      ],
      "name": "weights",
      "outputs": [
        {
          "internalType": "uint256",
          "name": "",
          "type": "uint256"
        }
      ],
      "stateMutability": "view",
      "type": "function"
    },
    {
      "inputs": [
        {
          "internalType": "address[]",
          "name": "_token",
          "type": "address[]"
        }
      ],
      "name": "whitelist",
      "outputs": [],
      "stateMutability": "nonpayable",
      "type": "function"
    }
  ],
  "bytecode": "0x608060405234801561001057600080fd5b5061455a806100206000396000f3fe608060405234801561001057600080fd5b50600436106103db5760003560e01c80638da5cb5b1161020a578063b9a09fd511610125578063d560b0d7116100b8578063f2fde38b11610087578063f2fde38b14610936578063f3594be014610949578063f8c8765e14610969578063fca3b5aa1461097c578063ff5f03be1461098f57600080fd5b8063d560b0d7146108d4578063e586875f146108e7578063ea94ee44146108fa578063eae40f261461090d57600080fd5b8063c45a0155116100f4578063c45a015514610870578063c527ee1f14610883578063ce5ec92e14610896578063d23254b4146108a957600080fd5b8063b9a09fd514610801578063bd8aa7801461082a578063c42cf5351461083d578063c445d88a1461085057600080fd5b8063a61c713a1161019d578063a9b5aa7e1161016c578063a9b5aa7e1461078f578063aa79979b146107a2578063ac4afa38146107c5578063ae21c4cb146107d857600080fd5b8063a61c713a14610736578063a6357ac614610749578063a7cac8461461075c578063a86a366d1461077c57600080fd5b80639b6a9d72116101d95780639b6a9d72146106ea5780639edfd460146106fd5780639f06247b14610710578063a5f4301e1461072357600080fd5b80638da5cb5b146106aa5780638dd598fb146106bb57806396c82e57146106ce578063992a7933146106d757600080fd5b806353d78693116102fa5780636ecbe38a1161028d5780637778960e1161025c5780637778960e146106515780637964bac91461066457806379e93824146106775780637ac09bf71461069757600080fd5b80636ecbe38a14610610578063715018a6146106235780637625391a1461062b5780637715ee751461063e57600080fd5b80636447e7da116102c95780636447e7da146105b7578063666256aa146105d757806368c3acb3146105ea578063698473e3146105fd57600080fd5b806353d7869314610576578063556e091d1461057e5780636138889b1461059157806363453ae1146105a457600080fd5b8063310bd74b116103725780633c6b16ab116103415780633c6b16ab14610528578063402914f51461053b578063411b1f771461055b578063436596c41461056e57600080fd5b8063310bd74b146104cc57806332145f90146104df57806338752a9d146104f25780633af32abf1461050557600080fd5b80631703e5f9116103ae5780631703e5f9146104615780631f7b6d321461049457806320b1cb6f146104a657806323130d11146104b957600080fd5b8063046fddf3146103e057806306d6a1b2146103f5578063075461721461043b5780630c340a241461044e575b600080fd5b6103f36103ee366004613cae565b6109a2565b005b61041e610403366004613d00565b60a6602052600090815260409020546001600160a01b031681565b6040516001600160a01b0390911681526020015b60405180910390f35b609c5461041e906001600160a01b031681565b609d5461041e906001600160a01b031681565b61048461046f366004613d00565b60b06020526000908152604090205460ff1681565b6040519015158152602001610432565b60a3545b604051908152602001610432565b6103f36104b4366004613da4565b610a32565b6103f36104c7366004613d00565b610ae8565b6103f36104da366004613e08565b610b21565b6103f36104ed366004613e08565b610c2a565b609b5461041e906001600160a01b031681565b610484610513366004613d00565b60af6020526000908152604090205460ff1681565b6103f3610536366004613e08565b610e05565b610498610549366004613d00565b60a16020526000908152604090205481565b6103f3610569366004613e21565b610ea8565b6103f3610f66565b6103f3610f77565b6103f361058c366004613d00565b610f86565b6103f361059f366004613e46565b6110b2565b6103f36105b2366004613d00565b6110f2565b6104986105c5366004613e08565b600090815260ab602052604090205490565b6103f36105e5366004613e83565b6112f2565b609a5461041e906001600160a01b031681565b6103f361060b366004613e21565b611425565b6103f361061e366004613d00565b6114ff565b6103f3611508565b6103f3610639366004613ef0565b61151a565b6103f361064c366004613e83565b611580565b609e5461041e906001600160a01b031681565b6103f3610672366004613d00565b6116ad565b610498610685366004613e08565b60ac6020526000908152604090205481565b6103f36106a5366004613f5e565b6116e6565b6033546001600160a01b031661041e565b60975461041e906001600160a01b031681565b61049860a25481565b6103f36106e5366004613d00565b611805565b6103f36106f8366004613ef0565b6118eb565b6103f361070b366004613d00565b611951565b6103f361071e366004613d00565b611a97565b61041e610731366004613d00565b611b6c565b6103f3610744366004613fd8565b61247b565b6103f3610757366004614010565b6124ff565b61049861076a366004613d00565b60a96020526000908152604090205481565b61041e61078a366004613ef0565b61257d565b6103f361079d366004613d00565b6125b5565b6104846107b0366004613d00565b60ae6020526000908152604090205460ff1681565b61041e6107d3366004613e08565b6125ee565b61041e6107e6366004613d00565b60a8602052600090815260409020546001600160a01b031681565b61041e61080f366004613d00565b60a4602052600090815260409020546001600160a01b031681565b6103f3610838366004613e46565b612618565b6103f361084b366004613d00565b612662565b61049861085e366004613d00565b60a56020526000908152604090205481565b60985461041e906001600160a01b031681565b6103f3610891366004613e46565b61269b565b6103f36108a4366004613d00565b6127b8565b6104986108b7366004613e21565b60aa60209081526000928352604080842090915290825290205481565b6103f36108e2366004613e46565b61282f565b6103f36108f5366004613d00565b61286f565b6103f3610908366004613fd8565b6128a8565b61041e61091b366004613d00565b60a7602052600090815260409020546001600160a01b031681565b6103f3610944366004613d00565b612907565b610498610957366004613e08565b60ad6020526000908152604090205481565b6103f361097736600461405b565b61297d565b6103f361098a366004613d00565b612b82565b6103f361099d3660046140b7565b612bbb565b609c546001600160a01b03163314806109c55750609e546001600160a01b031633145b6109ce57600080fd5b60005b8251811015610a0e576109fc8382815181106109ef576109ef614111565b6020026020010151613070565b80610a068161413d565b9150506109d1565b50609c80546001600160a01b0319166001600160a01b039290921691909117905550565b60005b8251811015610ae357828181518110610a5057610a50614111565b60200260200101516001600160a01b03166331279d3d33848481518110610a7957610a79614111565b60200260200101516040518363ffffffff1660e01b8152600401610a9e92919061419a565b600060405180830381600087803b158015610ab857600080fd5b505af1158015610acc573d6000803e3d6000fd5b505050508080610adb9061413d565b915050610a35565b505050565b609e546001600160a01b03163314610aff57600080fd5b609a80546001600160a01b0319166001600160a01b0392909216919091179055565b610b296130e3565b60975460405163430c208160e01b81526001600160a01b039091169063430c208190610b5b90339085906004016141be565b602060405180830381865afa158015610b78573d6000803e3d6000fd5b505050506040513d601f19601f82011682018060405250810190610b9c91906141d7565b610ba557600080fd5b600081815260ad60205260409020429055610bbf8161313c565b60975460405163c1f0fb9f60e01b8152600481018390526001600160a01b039091169063c1f0fb9f90602401600060405180830381600087803b158015610c0557600080fd5b505af1158015610c19573d6000803e3d6000fd5b50505050610c276001606555565b50565b610c326130e3565b60975460405163430c208160e01b81526001600160a01b039091169063430c208190610c6490339085906004016141be565b602060405180830381865afa158015610c81573d6000803e3d6000fd5b505050506040513d601f19601f82011682018060405250810190610ca591906141d7565b610cae57600080fd5b600081815260ab6020908152604080832080548251818502810185019093528083529192909190830182828015610d0e57602002820191906000526020600020905b81546001600160a01b03168152600190910190602001808311610cf0575b5050505050905060008151905060008167ffffffffffffffff811115610d3657610d36613bba565b604051908082528060200260200182016040528015610d5f578160200160208202803683370190505b50905060005b82811015610dec5760aa60008681526020019081526020016000206000858381518110610d9457610d94614111565b60200260200101516001600160a01b03166001600160a01b0316815260200190815260200160002054828281518110610dcf57610dcf614111565b602090810291909101015280610de48161413d565b915050610d65565b50610df88484836133ea565b505050610c276001606555565b609954610e1d906001600160a01b031633308461382e565b60a254600090610e3583670de0b6b3a76400006141f9565b610e3f9190614218565b90508015610e5f5780609f6000828254610e59919061423a565b90915550505b6099546040518381526001600160a01b039091169033907ff70d5c697de7ea828df48e5c4573cb2194c659f1901f70110c52b066dcf50826906020015b60405180910390a35050565b33600090815260ae602052604090205460ff16610ec457600080fd5b8115610f2957609754604051634c35bec560e11b8152600481018490526001600160a01b039091169063986b7d8a90602401600060405180830381600087803b158015610f1057600080fd5b505af1158015610f24573d6000803e3d6000fd5b505050505b60405182815233906001600160a01b038316907fae268d9aab12f3605f58efd74fd3801fa812b03fdb44317eb70f46dff0e19e2290602001610e9c565b60a354610f759060009061151a565b565b60a354610f75906000906118eb565b609e546001600160a01b03163314610f9d57600080fd5b6001600160a01b038116600090815260ae60205260409020805460ff1916600117905560995460405163095ea7b360e01b81526001600160a01b039091169063095ea7b390610ff39084906000906004016141be565b6020604051808303816000875af1158015611012573d6000803e3d6000fd5b505050506040513d601f19601f8201168201806040525081019061103691906141d7565b5060995460405163095ea7b360e01b81526001600160a01b039091169063095ea7b39061106b908490600019906004016141be565b6020604051808303816000875af115801561108a573d6000803e3d6000fd5b505050506040513d601f19601f820116820180604052508101906110ae91906141d7565b5050565b60005b81518110156110ae576110e08282815181106110d3576110d3614111565b60200260200101516110f2565b806110ea8161413d565b9150506110b5565b6110fa6130e3565b609c60009054906101000a90046001600160a01b03166001600160a01b031663ed29fc116040518163ffffffff1660e01b81526004016020604051808303816000875af115801561114f573d6000803e3d6000fd5b505050506040513d601f19601f820116820180604052508101906111739190614252565b5061117d81613926565b6001600160a01b03808216600090815260a1602090815260408083205460a5835281842054609c548351631a2732c160e31b81529351929691959491169263d139960892600480830193928290030181865afa1580156111e1573d6000803e3d6000fd5b505050506040513d601f19601f820116820180604052508101906112059190614252565b905060008311801561121657508082105b15610df8576001600160a01b03808516600081815260a1602052604080822091909155609954905163b66503cf60e01b8152919263b66503cf92611262929091169087906004016141be565b600060405180830381600087803b15801561127c57600080fd5b505af1158015611290573d6000803e3d6000fd5b505050506001600160a01b038416600081815260a56020908152604091829020849055905185815233917f4fa9693cae526341d334e2862ca2413b2e503f1266255f9e0869fb36e6d89b17910160405180910390a3505050610c276001606555565b60975460405163430c208160e01b81526001600160a01b039091169063430c20819061132490339085906004016141be565b602060405180830381865afa158015611341573d6000803e3d6000fd5b505050506040513d601f19601f8201168201806040525081019061136591906141d7565b61136e57600080fd5b60005b835181101561141f5783818151811061138c5761138c614111565b60200260200101516001600160a01b031663a7852afa838584815181106113b5576113b5614111565b60200260200101516040518363ffffffff1660e01b81526004016113da92919061426b565b600060405180830381600087803b1580156113f457600080fd5b505af1158015611408573d6000803e3d6000fd5b5050505080806114179061413d565b915050611371565b50505050565b33600090815260ae602052604090205460ff1661144157600080fd5b33600090815260b0602052604090205460ff1661145d57600080fd5b81156114c25760975460405163fbd3a29d60e01b8152600481018490526001600160a01b039091169063fbd3a29d90602401600060405180830381600087803b1580156114a957600080fd5b505af11580156114bd573d6000803e3d6000fd5b505050505b60405182815233906001600160a01b038316907f60940192810a6fb3bce3fd3e2e3a13fd6ccc7605e963fb87ee971aba829989bd90602001610e9c565b610c2781613926565b611510613a27565b610f756000613a81565b815b81811015610ae35761156e60a4600060a3848154811061153e5761153e614111565b60009182526020808320909101546001600160a01b039081168452908301939093526040909101902054166110f2565b806115788161413d565b91505061151c565b60975460405163430c208160e01b81526001600160a01b039091169063430c2081906115b290339085906004016141be565b602060405180830381865afa1580156115cf573d6000803e3d6000fd5b505050506040513d601f19601f820116820180604052508101906115f391906141d7565b6115fc57600080fd5b60005b835181101561141f5783818151811061161a5761161a614111565b60200260200101516001600160a01b031663a7852afa8385848151811061164357611643614111565b60200260200101516040518363ffffffff1660e01b815260040161166892919061426b565b600060405180830381600087803b15801561168257600080fd5b505af1158015611696573d6000803e3d6000fd5b5050505080806116a59061413d565b9150506115ff565b609e546001600160a01b031633146116c457600080fd5b609880546001600160a01b0319166001600160a01b0392909216919091179055565b6116ee6130e3565b60975460405163430c208160e01b81526001600160a01b039091169063430c20819061172090339089906004016141be565b602060405180830381865afa15801561173d573d6000803e3d6000fd5b505050506040513d601f19601f8201168201806040525081019061176191906141d7565b61176a57600080fd5b82811461177657600080fd5b600085815260ad6020908152604091829020429055815185820281810183019093528581526117f492889288918891829190850190849080828437600092019190915250506040805160208089028281018201909352888252909350889250879182918501908490808284376000920191909152506133ea92505050565b6117fe6001606555565b5050505050565b609e546001600160a01b031633146118385760405162461bcd60e51b815260040161182f90614284565b60405180910390fd5b6001600160a01b038116600090815260b0602052604090205460ff166118955760405162461bcd60e51b815260206004820152601260248201527119d85d59d948185b1c9958591e481919585960721b604482015260640161182f565b6001600160a01b038116600081815260b060209081526040808320805460ff1916905560a1909152808220829055517f04a5d3f5d80d22d9345acc80618f4a4e7e663cf9e1aed23b57d975acec002ba79190a250565b815b81811015610ae35761193f60a4600060a3848154811061190f5761190f614111565b60009182526020808320909101546001600160a01b03908116845290830193909352604090910190205416613926565b806119498161413d565b9150506118ed565b609e546001600160a01b0316331461197b5760405162461bcd60e51b815260040161182f90614284565b6001600160a01b038116600090815260b0602052604090205460ff166119d85760405162461bcd60e51b815260206004820152601260248201527119d85d59d948185b1c9958591e481919585960721b604482015260640161182f565b6001600160a01b03808216600081815260b060209081526040808320805460ff19908116825560a180855283862086815560a68652848720805460a7885286892080546001600160a01b031990811690915560a88952878a208054821690559a1680895260a4885286892080548c1690558989528154909a16905560ae86528487208054841690558354909216909255925290829055517f04a5d3f5d80d22d9345acc80618f4a4e7e663cf9e1aed23b57d975acec002ba79190a25050565b609e546001600160a01b03163314611ac15760405162461bcd60e51b815260040161182f90614284565b6001600160a01b038116600090815260b0602052604090205460ff1615611b205760405162461bcd60e51b8152602060048201526013602482015272676175676520616c726561647920616c69766560681b604482015260640161182f565b6001600160a01b038116600081815260b06020526040808220805460ff19166001179055517fed18e9faa3dccfd8aa45f69c4de40546b2ca9cccc4538a2323531656516db1aa9190a250565b6001600160a01b03818116600090815260a4602052604081205490911615611bbf5760405162461bcd60e51b815260206004820152600660248201526565786973747360d01b604482015260640161182f565b60408051600380825260808201909252600091602082016060803683375050604080516002808252606082018352939450600093909250906020830190803683370190505060985460405163e5e31b1360e01b81526001600160a01b0387811660048301529293506000929091169063e5e31b1390602401602060405180830381865afa158015611c54573d6000803e3d6000fd5b505050506040513d601f19601f82011682018060405250810190611c7891906141d7565b90506000808215611e2057866001600160a01b0316639d63848a6040518163ffffffff1660e01b81526004016040805180830381865afa158015611cc0573d6000803e3d6000fd5b505050506040513d601f19601f82011682018060405250810190611ce491906142b3565b80925081935050508185600081518110611d0057611d00614111565b60200260200101906001600160a01b031690816001600160a01b0316815250508085600181518110611d3457611d34614111565b60200260200101906001600160a01b031690816001600160a01b0316815250508184600081518110611d6857611d68614111565b60200260200101906001600160a01b031690816001600160a01b0316815250508084600181518110611d9c57611d9c614111565b6001600160a01b039283166020918202929092010152609954811690831614801590611dd657506099546001600160a01b03828116911614155b15611e205760995485516001600160a01b039091169086906002908110611dff57611dff614111565b60200260200101906001600160a01b031690816001600160a01b0316815250505b609d546001600160a01b03163314611ee35782611e685760405162461bcd60e51b81526020600482015260066024820152650857dc1bdbdb60d21b604482015260640161182f565b6001600160a01b038216600090815260af602052604090205460ff168015611ea857506001600160a01b038116600090815260af602052604090205460ff165b611ee35760405162461bcd60e51b815260206004820152600c60248201526b085dda1a5d195b1a5cdd195960a21b604482015260640161182f565b6000876001600160a01b03166395d89b416040518163ffffffff1660e01b8152600401600060405180830381865afa158015611f23573d6000803e3d6000fd5b505050506040513d6000823e601f3d908101601f19168201604052611f4b919081019061430e565b604051602001611f5b91906143a2565b60408051601f19818403018152919052609b549091506000906001600160a01b031661e66b611f926033546001600160a01b031690565b8686866040518563ffffffff1660e01b8152600401611fb494939291906143d9565b6020604051808303816000875af1158015611fd3573d6000803e3d6000fd5b505050506040513d601f19601f82011682018060405250810190611ff7919061442f565b9050886001600160a01b03166395d89b416040518163ffffffff1660e01b8152600401600060405180830381865afa158015612037573d6000803e3d6000fd5b505050506040513d6000823e601f3d908101601f1916820160405261205f919081019061430e565b60405160200161206f919061444c565b60408051601f19818403018152919052609b549092506000906001600160a01b031661e66b6120a66033546001600160a01b031690565b8787876040518563ffffffff1660e01b81526004016120c894939291906143d9565b6020604051808303816000875af11580156120e7573d6000803e3d6000fd5b505050506040513d601f19601f8201168201806040525081019061210b919061442f565b609a546099546097546040516307379e7760e41b81526001600160a01b03928316600482015290821660248201528d82166044820152306064820152858216608482015281841660a482015289151560c4820152929350600092911690637379e7709060e4016020604051808303816000875af1158015612190573d6000803e3d6000fd5b505050506040513d601f19601f820116820180604052508101906121b4919061442f565b60995460405163095ea7b360e01b81529192506001600160a01b03169063095ea7b3906121e9908490600019906004016141be565b6020604051808303816000875af1158015612208573d6000803e3d6000fd5b505050506040513d601f19601f8201168201806040525081019061222c91906141d7565b508260a76000836001600160a01b03166001600160a01b0316815260200190815260200160002060006101000a8154816001600160a01b0302191690836001600160a01b031602179055508160a86000836001600160a01b03166001600160a01b0316815260200190815260200160002060006101000a8154816001600160a01b0302191690836001600160a01b031602179055508060a460008d6001600160a01b03166001600160a01b0316815260200190815260200160002060006101000a8154816001600160a01b0302191690836001600160a01b031602179055508a60a66000836001600160a01b03166001600160a01b0316815260200190815260200160002060006101000a8154816001600160a01b0302191690836001600160a01b03160217905550600160ae6000836001600160a01b03166001600160a01b0316815260200190815260200160002060006101000a81548160ff021916908315150217905550600160b06000836001600160a01b03166001600160a01b0316815260200190815260200160002060006101000a81548160ff0219169083151502179055506123da81613926565b60a380546001810182556000919091527f60859188cffe297f44dde29f2d2865634621f26215049caeb304ccba566a8b170180546001600160a01b0319166001600160a01b038d8116918217909255604080513381528684166020820152919285811692908516917fa4d97e9e7c65249b4cd01acb82add613adea98af32daf092366982f0a0d4e453910160405180910390a49a9950505050505050505050565b33600090815260ae602052604090205460ff1661249757600080fd5b33600090815260b0602052604090205460ff166124b357600080fd5b604080518481526020810183905233916001600160a01b038516917fdcbc1c05240f31ff3ad067ef1ee35ce4997762752e3a095284754544f4c709d791015b60405180910390a3505050565b609e546001600160a01b0316331461251657600080fd5b6001600160a01b038316600090815260ae60205260409020805460ff191660011790556001600160a01b03928316600090815260a76020908152604080832080549587166001600160a01b031996871617905560a890915290208054919093169116179055565b60ab602052816000526040600020818154811061259957600080fd5b6000918252602090912001546001600160a01b03169150829050565b609e546001600160a01b031633146125cc57600080fd5b609b80546001600160a01b0319166001600160a01b0392909216919091179055565b60a381815481106125fe57600080fd5b6000918252602090912001546001600160a01b0316905081565b609d546001600160a01b0316331461262f57600080fd5b60005b81518110156110ae576126508282815181106109ef576109ef614111565b8061265a8161413d565b915050612632565b609d546001600160a01b0316331461267957600080fd5b609d80546001600160a01b0319166001600160a01b0392909216919091179055565b60005b81518110156110ae578181815181106126b9576126b9614111565b60200260200101516001600160a01b031663e57482136040518163ffffffff1660e01b8152600401602060405180830381865afa1580156126fe573d6000803e3d6000fd5b505050506040513d601f19601f8201168201806040525081019061272291906141d7565b156127a65781818151811061273957612739614111565b60200260200101516001600160a01b031663d294f0936040518163ffffffff1660e01b815260040160408051808303816000875af115801561277f573d6000803e3d6000fd5b505050506040513d601f19601f820116820180604052508101906127a39190614482565b50505b806127b08161413d565b91505061269e565b336127cb6033546001600160a01b031690565b6001600160a01b03161461280d5760405162461bcd60e51b81526020600482015260096024820152683737ba1037bbb732b960b91b604482015260640161182f565b609780546001600160a01b0319166001600160a01b0392909216919091179055565b60005b81518110156110ae5761285d82828151811061285057612850614111565b6020026020010151613926565b806128678161413d565b915050612832565b609e546001600160a01b0316331461288657600080fd5b609e80546001600160a01b0319166001600160a01b0392909216919091179055565b33600090815260ae602052604090205460ff166128c457600080fd5b604080518481526020810183905233916001600160a01b038516917ff341246adaac6f497bc2a656f546ab9e182111d630394f0c57c710a59a2cb56791016124f2565b61290f613a27565b6001600160a01b0381166129745760405162461bcd60e51b815260206004820152602660248201527f4f776e61626c653a206e6577206f776e657220697320746865207a65726f206160448201526564647265737360d01b606482015260840161182f565b610c2781613a81565b600054610100900460ff161580801561299d5750600054600160ff909116105b806129b75750303b1580156129b7575060005460ff166001145b612a1a5760405162461bcd60e51b815260206004820152602e60248201527f496e697469616c697a61626c653a20636f6e747261637420697320616c72656160448201526d191e481a5b9a5d1a585b1a5e995960921b606482015260840161182f565b6000805460ff191660011790558015612a3d576000805461ff0019166101001790555b612a45613ad3565b612a4d613b02565b609780546001600160a01b038088166001600160a01b03199283168117909355609880549188169190921617905560408051637e062a3560e11b8152905163fc0c546a916004808201926020929091908290030181865afa158015612ab6573d6000803e3d6000fd5b505050506040513d601f19601f82011682018060405250810190612ada919061442f565b609980546001600160a01b03199081166001600160a01b0393841617909155609a80548216868416179055609b8054821692851692909217909155609c8054339083168117909155609d8054831682179055609e805490921617905580156117fe576000805461ff0019169055604051600181527f7f26b83ff96e1f2b6a682f133852f6798a09c465da95921460cefb38474024989060200160405180910390a15050505050565b609e546001600160a01b03163314612b9957600080fd5b609c80546001600160a01b0319166001600160a01b0392909216919091179055565b609e546001600160a01b03163314612bd257600080fd5b60005b8151811015610ae3576000828281518110612bf257612bf2614111565b602002602001015190506000848381518110612c1057612c10614111565b60200260200101519050600080836001600160a01b0316639d63848a6040518163ffffffff1660e01b81526004016040805180830381865afa158015612c5a573d6000803e3d6000fd5b505050506040513d601f19601f82011682018060405250810190612c7e91906142b3565b80925081935050506000846001600160a01b03166395d89b416040518163ffffffff1660e01b8152600401600060405180830381865afa158015612cc6573d6000803e3d6000fd5b505050506040513d6000823e601f3d908101601f19168201604052612cee919081019061430e565b604051602001612cfe91906143a2565b60408051601f19818403018152919052609b549091506000906001600160a01b031661e66b612d356033546001600160a01b031690565b8686866040518563ffffffff1660e01b8152600401612d5794939291906143d9565b6020604051808303816000875af1158015612d76573d6000803e3d6000fd5b505050506040513d601f19601f82011682018060405250810190612d9a919061442f565b9050856001600160a01b03166395d89b416040518163ffffffff1660e01b8152600401600060405180830381865afa158015612dda573d6000803e3d6000fd5b505050506040513d6000823e601f3d908101601f19168201604052612e02919081019061430e565b604051602001612e12919061444c565b60408051601f19818403018152919052609b549092506000906001600160a01b031661e66b612e496033546001600160a01b031690565b8787876040518563ffffffff1660e01b8152600401612e6b94939291906143d9565b6020604051808303816000875af1158015612e8a573d6000803e3d6000fd5b505050506040513d601f19601f82011682018060405250810190612eae919061442f565b60995460405163095ea7b360e01b81529192506001600160a01b03169063095ea7b390612ee3908990600019906004016141be565b6020604051808303816000875af1158015612f02573d6000803e3d6000fd5b505050506040513d601f19601f82011682018060405250810190612f2691906141d7565b506001600160a01b03868116600081815260a76020908152604080832080546001600160a01b03199081168988161790915560a8835281842080548216888816179055948c1680845260a48352818420805487168617905593835260a68252808320805490951690931790935560ae8352818120805460ff19908116600190811790925560b09094529190208054909216179055612fc386613926565b60a380546001810182556000919091527f60859188cffe297f44dde29f2d2865634621f26215049caeb304ccba566a8b170180546001600160a01b0319166001600160a01b03898116918217909255604080513381528584166020820152919284811692908a16917fa4d97e9e7c65249b4cd01acb82add613adea98af32daf092366982f0a0d4e453910160405180910390a45050505050505080806130689061413d565b915050612bd5565b6001600160a01b038116600090815260af602052604090205460ff161561309657600080fd5b6001600160a01b038116600081815260af6020526040808220805460ff191660011790555133917f6661a7108aecd07864384529117d96c319c1163e3010c01390f6b704726e07de91a350565b6002606554036131355760405162461bcd60e51b815260206004820152601f60248201527f5265656e7472616e637947756172643a207265656e7472616e742063616c6c00604482015260640161182f565b6002606555565b600081815260ab6020526040812080549091805b828110156133a757600084828154811061316c5761316c614111565b600091825260208083209091015488835260aa825260408084206001600160a01b03909216808552919092529120549091508015613392576001600160a01b03808316600090815260a460205260409020546131c89116613926565b6001600160a01b038216600090815260a96020526040812080548392906131f09084906144a6565b9091555050600087815260aa602090815260408083206001600160a01b0386168452909152812080548392906132279084906144a6565b9091555050801561334b576001600160a01b03828116600090815260a460209081526040808320548416835260a79091529081902054905163278afc8b60e21b815260048101849052602481018a9052911690639e2bf22c90604401600060405180830381600087803b15801561329d57600080fd5b505af11580156132b1573d6000803e3d6000fd5b505050506001600160a01b03828116600090815260a460209081526040808320548416835260a89091529081902054905163278afc8b60e21b815260048101849052602481018a9052911690639e2bf22c90604401600060405180830381600087803b15801561332057600080fd5b505af1158015613334573d6000803e3d6000fd5b505050508084613344919061423a565b9350613358565b61335581856144a6565b93505b60408051888152602081018390527fa9f3ca5f8a9e1580edb2741e0ba560084ec72e0067ba3423f9e9327a176882db910160405180910390a15b5050808061339f9061413d565b915050613150565b508060a260008282546133ba91906144a6565b9091555050600084815260ac6020908152604080832083905560ab909152812061141f91613b88565b6001606555565b6133f38361313c565b81516097546040516339f890b560e21b8152600481018690526000916001600160a01b03169063e7e242d490602401602060405180830381865afa15801561343f573d6000803e3d6000fd5b505050506040513d601f19601f820116820180604052508101906134639190614252565b90506000806000805b858110156134ad5786818151811061348657613486614111565b602002602001015184613499919061423a565b9350806134a58161413d565b91505061346c565b5060005b858110156137965760008882815181106134cd576134cd614111565b6020908102919091018101516001600160a01b03808216600090815260a4845260408082205490921680825260ae909452205490925060ff161561378157600086888b868151811061352157613521614111565b602002602001015161353391906141f9565b61353d9190614218565b60008d815260aa602090815260408083206001600160a01b03881684529091529020549091501561356d57600080fd5b8060000361357a57600080fd5b61358382613926565b60008c815260ab6020908152604080832080546001810182559084528284200180546001600160a01b0319166001600160a01b038816908117909155835260a9909152812080548392906135d890849061423a565b909155505060008c815260aa602090815260408083206001600160a01b03871684529091528120805483929061360f90849061423a565b90915550506001600160a01b03808316600090815260a760205260409081902054905163f320772360e01b815260048101849052602481018f905291169063f320772390604401600060405180830381600087803b15801561367057600080fd5b505af1158015613684573d6000803e3d6000fd5b5050505060a86000836001600160a01b03166001600160a01b0316815260200190815260200160002060009054906101000a90046001600160a01b03166001600160a01b031663f3207723828e6040518363ffffffff1660e01b81526004016136f7929190918252602082015260400190565b600060405180830381600087803b15801561371157600080fd5b505af1158015613725573d6000803e3d6000fd5b505050508085613735919061423a565b9450613741818761423a565b604080518e81526020810184905291975033917fea66f58e474bc09f580000e81f31b334d171db387d0c6098ba47bd897741679b910160405180910390a2505b5050808061378e9061413d565b9150506134b1565b5080156137fc5760975460405163fd4a77f160e01b8152600481018a90526001600160a01b039091169063fd4a77f190602401600060405180830381600087803b1580156137e357600080fd5b505af11580156137f7573d6000803e3d6000fd5b505050505b8160a2600082825461380e919061423a565b9091555050600097885260ac602052604090972096909655505050505050565b6000846001600160a01b03163b1161384557600080fd5b604080516001600160a01b0385811660248301528481166044830152606480830185905283518084039091018152608490920183526020820180516001600160e01b03166323b872dd60e01b17905291516000928392908816916138a991906144bd565b6000604051808303816000865af19150503d80600081146138e6576040519150601f19603f3d011682016040523d82523d6000602084013e6138eb565b606091505b509150915081801561391557508051158061391557508080602001905181019061391591906141d7565b61391e57600080fd5b505050505050565b6001600160a01b03808216600090815260a6602090815260408083205490931680835260a9909152919020548015613a06576001600160a01b038316600090815260a0602052604081208054609f54918290559161398483836144a6565b9050801561391e576000670de0b6b3a76400006139a183876141f9565b6139ab9190614218565b6001600160a01b038816600090815260b0602052604090205490915060ff16156139fd576001600160a01b038716600090815260a16020526040812080548392906139f790849061423a565b90915550505b50505050505050565b609f546001600160a01b038416600090815260a06020526040902055505050565b6033546001600160a01b03163314610f755760405162461bcd60e51b815260206004820181905260248201527f4f776e61626c653a2063616c6c6572206973206e6f7420746865206f776e6572604482015260640161182f565b603380546001600160a01b038381166001600160a01b0319831681179093556040519116919082907f8be0079c531659141344cd1fd0a4f28419497f9722a3daafe3b4186f6b6457e090600090a35050565b600054610100900460ff16613afa5760405162461bcd60e51b815260040161182f906144d9565b610f75613b31565b600054610100900460ff16613b295760405162461bcd60e51b815260040161182f906144d9565b610f75613b61565b600054610100900460ff16613b585760405162461bcd60e51b815260040161182f906144d9565b610f7533613a81565b600054610100900460ff166133e35760405162461bcd60e51b815260040161182f906144d9565b5080546000825590600052602060002090810190610c2791905b80821115613bb65760008155600101613ba2565b5090565b634e487b7160e01b600052604160045260246000fd5b604051601f8201601f1916810167ffffffffffffffff81118282101715613bf957613bf9613bba565b604052919050565b600067ffffffffffffffff821115613c1b57613c1b613bba565b5060051b60200190565b6001600160a01b0381168114610c2757600080fd5b600082601f830112613c4b57600080fd5b81356020613c60613c5b83613c01565b613bd0565b82815260059290921b84018101918181019086841115613c7f57600080fd5b8286015b84811015613ca3578035613c9681613c25565b8352918301918301613c83565b509695505050505050565b60008060408385031215613cc157600080fd5b823567ffffffffffffffff811115613cd857600080fd5b613ce485828601613c3a565b9250506020830135613cf581613c25565b809150509250929050565b600060208284031215613d1257600080fd5b8135613d1d81613c25565b9392505050565b600082601f830112613d3557600080fd5b81356020613d45613c5b83613c01565b82815260059290921b84018101918181019086841115613d6457600080fd5b8286015b84811015613ca357803567ffffffffffffffff811115613d885760008081fd5b613d968986838b0101613c3a565b845250918301918301613d68565b60008060408385031215613db757600080fd5b823567ffffffffffffffff80821115613dcf57600080fd5b613ddb86838701613c3a565b93506020850135915080821115613df157600080fd5b50613dfe85828601613d24565b9150509250929050565b600060208284031215613e1a57600080fd5b5035919050565b60008060408385031215613e3457600080fd5b823591506020830135613cf581613c25565b600060208284031215613e5857600080fd5b813567ffffffffffffffff811115613e6f57600080fd5b613e7b84828501613c3a565b949350505050565b600080600060608486031215613e9857600080fd5b833567ffffffffffffffff80821115613eb057600080fd5b613ebc87838801613c3a565b94506020860135915080821115613ed257600080fd5b50613edf86828701613d24565b925050604084013590509250925092565b60008060408385031215613f0357600080fd5b50508035926020909101359150565b60008083601f840112613f2457600080fd5b50813567ffffffffffffffff811115613f3c57600080fd5b6020830191508360208260051b8501011115613f5757600080fd5b9250929050565b600080600080600060608688031215613f7657600080fd5b85359450602086013567ffffffffffffffff80821115613f9557600080fd5b613fa189838a01613f12565b90965094506040880135915080821115613fba57600080fd5b50613fc788828901613f12565b969995985093965092949392505050565b600080600060608486031215613fed57600080fd5b833592506020840135613fff81613c25565b929592945050506040919091013590565b60008060006060848603121561402557600080fd5b833561403081613c25565b9250602084013561404081613c25565b9150604084013561405081613c25565b809150509250925092565b6000806000806080858703121561407157600080fd5b843561407c81613c25565b9350602085013561408c81613c25565b9250604085013561409c81613c25565b915060608501356140ac81613c25565b939692955090935050565b600080604083850312156140ca57600080fd5b823567ffffffffffffffff808211156140e257600080fd5b6140ee86838701613c3a565b9350602085013591508082111561410457600080fd5b50613dfe85828601613c3a565b634e487b7160e01b600052603260045260246000fd5b634e487b7160e01b600052601160045260246000fd5b60006001820161414f5761414f614127565b5060010190565b600081518084526020808501945080840160005b8381101561418f5781516001600160a01b03168752958201959082019060010161416a565b509495945050505050565b6001600160a01b0383168152604060208201819052600090613e7b90830184614156565b6001600160a01b03929092168252602082015260400190565b6000602082840312156141e957600080fd5b81518015158114613d1d57600080fd5b600081600019048311821515161561421357614213614127565b500290565b60008261423557634e487b7160e01b600052601260045260246000fd5b500490565b6000821982111561424d5761424d614127565b500190565b60006020828403121561426457600080fd5b5051919050565b828152604060208201526000613e7b6040830184614156565b6020808252601590820152741b9bdd08195b595c99d95b98de4818dbdd5b98da5b605a1b604082015260600190565b600080604083850312156142c657600080fd5b82516142d181613c25565b6020840151909250613cf581613c25565b60005b838110156142fd5781810151838201526020016142e5565b8381111561141f5750506000910152565b60006020828403121561432057600080fd5b815167ffffffffffffffff8082111561433857600080fd5b818401915084601f83011261434c57600080fd5b81518181111561435e5761435e613bba565b614371601f8201601f1916602001613bd0565b915080825285602082850101111561438857600080fd5b6143998160208401602086016142e2565b50949350505050565b6e02a3432b730902628102332b2b99d1608d1b8152600082516143cc81600f8501602087016142e2565b91909101600f0192915050565b600060018060a01b03808716835280861660208401528085166040840152506080606083015282518060808401526144188160a08501602087016142e2565b601f01601f19169190910160a00195945050505050565b60006020828403121561444157600080fd5b8151613d1d81613c25565b6d02a3432b73090213934b132b99d160951b81526000825161447581600e8501602087016142e2565b91909101600e0192915050565b6000806040838503121561449557600080fd5b505080516020909101519092909150565b6000828210156144b8576144b8614127565b500390565b600082516144cf8184602087016142e2565b9190910192915050565b6020808252602b908201527f496e697469616c697a61626c653a20636f6e7472616374206973206e6f74206960408201526a6e697469616c697a696e6760a81b60608201526080019056fea26469706673582212202445e507017acd0a7a967a667175fccd89c3fb7f47c28a88aecc80e135476dfa64736f6c634300080d0033",
  "linkReferences": {},
  "deployedLinkReferences": {}
}