{
	"data": {
		"bytecode": {
			"linkReferences": {},
			"object": "60a06040526001600660006101000a81548160ff021916908360ff1602179055503480156200002d57600080fd5b5060405162008ac438038062008ac4833981810160405281019062000053919062000400565b8173ffffffffffffffffffffffffffffffffffffffff1660808173ffffffffffffffffffffffffffffffffffffffff1681525050336000806101000a81548173ffffffffffffffffffffffffffffffffffffffff021916908373ffffffffffffffffffffffffffffffffffffffff16021790555033600160006101000a81548173ffffffffffffffffffffffffffffffffffffffff021916908373ffffffffffffffffffffffffffffffffffffffff16021790555080600260006101000a81548173ffffffffffffffffffffffffffffffffffffffff021916908373ffffffffffffffffffffffffffffffffffffffff1602179055504360036000808152602001908152602001600020600201819055504260036000808152602001908152602001600020600101819055506001600460006301ffc9a760e01b7bffffffffffffffffffffffffffffffffffffffffffffffffffffffff19167bffffffffffffffffffffffffffffffffffffffffffffffffffffffff1916815260200190815260200160002060006101000a81548160ff0219169083151502179055506001600460006380ac58cd60e01b7bffffffffffffffffffffffffffffffffffffffffffffffffffffffff19167bffffffffffffffffffffffffffffffffffffffffffffffffffffffff1916815260200190815260200160002060006101000a81548160ff021916908315150217905550600160046000635b5e139f60e01b7bffffffffffffffffffffffffffffffffffffffffffffffffffffffff19167bffffffffffffffffffffffffffffffffffffffffffffffffffffffff1916815260200190815260200160002060006101000a81548160ff0219169083151502179055506005543073ffffffffffffffffffffffffffffffffffffffff16600073ffffffffffffffffffffffffffffffffffffffff167fddf252ad1be2c89b69c2b068fc378daa952ba7f163c4a11628f55a4df523b3ef60405160405180910390a4600554600073ffffffffffffffffffffffffffffffffffffffff163073ffffffffffffffffffffffffffffffffffffffff167fddf252ad1be2c89b69c2b068fc378daa952ba7f163c4a11628f55a4df523b3ef60405160405180910390a4505062000447565b600080fd5b600073ffffffffffffffffffffffffffffffffffffffff82169050919050565b6000620003c8826200039b565b9050919050565b620003da81620003bb565b8114620003e657600080fd5b50565b600081519050620003fa81620003cf565b92915050565b600080604083850312156200041a576200041962000396565b5b60006200042a85828601620003e9565b92505060206200043d85828601620003e9565b9150509250929050565b60805161865362000471600039600081816117e701528181613a790152614a8f01526186536000f3fe608060405234801561001057600080fd5b50600436106104125760003560e01c80637116c60c11610220578063c1f0fb9f11610130578063e7a324dc116100b8578063f1127ed811610087578063f1127ed814610dc4578063f8a0576314610df4578063fbd3a29d14610e24578063fc0c546a14610e40578063fd4a77f114610e5e57610412565b8063e7a324dc14610d2a578063e7e242d414610d48578063e985e9c514610d78578063ee99fe2814610da857610412565b8063d1c2babb116100ff578063d1c2babb14610c4b578063d1febfb914610c67578063d4e54c3b14610c9a578063e0514aba14610cca578063e441135c14610cfa57610412565b8063c1f0fb9f14610bd9578063c2c4c5c114610bf5578063c3cda52014610bff578063c87b56dd14610c1b57610412565b806395d89b41116101b3578063a183af5211610182578063a183af5214610b38578063a22cb46514610b54578063a4d855df14610b70578063b45a3c0e14610b8c578063b88d4fde14610bbd57610412565b806395d89b4114610a9e578063981b24d014610abc578063986b7d8a14610aec5780639ab24eb014610b0857610412565b80638c2c9baf116101ef5780638c2c9baf146109f05780638e539e8c14610a205780638fbb38ff14610a50578063900cf0cf14610a8057610412565b80637116c60c1461094257806371197484146109725780637ecebe00146109a257806385f2aef2146109d257610412565b8063313ce5671161032657806356afe744116102ae5780636352211e1161027d5780636352211e1461085257806365fc3873146108825780636f548837146108b25780636fcfff45146108e257806370a082311461091257610412565b806356afe744146107cc578063587cde1e146107e85780635c19a95c146108185780635f5b0c321461083457610412565b8063461f711c116102f5578063461f711c1461072657806346c96aac146107565780634bc2a6571461077457806354fd4d50146107905780635594a045146107ae57610412565b8063313ce5671461068c5780633a46b1a8146106aa57806342842e0e146106da578063430c2081146106f657610412565b80631376f3da116103a957806323b872dd1161037857806323b872dd146105ea57806325a58b56146106065780632e1a7d4d146106245780632e720f7d146106405780632f745c591461065c57610412565b80631376f3da1461054b57806318160ddd1461057e5780631c984bc31461059c57806320606b70146105cc57610412565b8063081812fc116103e5578063081812fc146104b3578063095cf5c6146104e3578063095ea7b3146104ff5780630d6a20331461051b57610412565b806301ffc9a714610417578063047fc9aa1461044757806306fdde03146104655780630758c7d814610483575b600080fd5b610431600480360381019061042c91906168fd565b610e7a565b60405161043e9190616945565b60405180910390f35b61044f610ee2565b60405161045c9190616979565b60405180910390f35b61046d610ee8565b60405161047a9190616a2d565b60405180910390f35b61049d60048036038101906104989190616ad9565b610f21565b6040516104aa9190616b38565b60405180910390f35b6104cd60048036038101906104c89190616b53565b61117e565b6040516104da9190616b8f565b60405180910390f35b6104fd60048036038101906104f89190616baa565b6111bb565b005b61051960048036038101906105149190616ad9565b611259565b005b61053560048036038101906105309190616b53565b6114bc565b6040516105429190616979565b60405180910390f35b61056560048036038101906105609190616bd7565b6114d4565b6040516105759493929190616c33565b60405180910390f35b610586611534565b6040516105939190616979565b60405180910390f35b6105b660048036038101906105b19190616bd7565b611544565b6040516105c39190616979565b60405180910390f35b6105d461157e565b6040516105e19190616c91565b60405180910390f35b61060460048036038101906105ff9190616cac565b6115a2565b005b61060e6115b3565b60405161061b9190616979565b60405180910390f35b61063e60048036038101906106399190616b53565b6115bb565b005b61065a60048036038101906106559190616baa565b611951565b005b61067660048036038101906106719190616ad9565b6119ef565b6040516106839190616979565b60405180910390f35b610694611a4a565b6040516106a19190616d1b565b60405180910390f35b6106c460048036038101906106bf9190616ad9565b611a4f565b6040516106d19190616979565b60405180910390f35b6106f460048036038101906106ef9190616cac565b611b2b565b005b610710600480360381019061070b9190616ad9565b611b4b565b60405161071d9190616945565b60405180910390f35b610740600480360381019061073b9190616b53565b611b5f565b60405161074d9190616d36565b60405180910390f35b61075e611bbd565b60405161076b9190616b8f565b60405180910390f35b61078e60048036038101906107899190616baa565b611be1565b005b610798611c7e565b6040516107a59190616a2d565b60405180910390f35b6107b6611cb7565b6040516107c39190616b8f565b60405180910390f35b6107e660048036038101906107e19190616e99565b611cdd565b005b61080260048036038101906107fd9190616baa565b612092565b60405161080f9190616b8f565b60405180910390f35b610832600480360381019061082d9190616baa565b61213b565b005b61083c612180565b6040516108499190616979565b60405180910390f35b61086c60048036038101906108679190616b53565b612186565b6040516108799190616b8f565b60405180910390f35b61089c60048036038101906108979190616bd7565b6121c3565b6040516108a99190616979565b60405180910390f35b6108cc60048036038101906108c79190616b53565b612232565b6040516108d99190616979565b60405180910390f35b6108fc60048036038101906108f79190616baa565b61224a565b6040516109099190616b38565b60405180910390f35b61092c60048036038101906109279190616baa565b61226d565b6040516109399190616979565b60405180910390f35b61095c60048036038101906109579190616b53565b61227f565b6040516109699190616979565b60405180910390f35b61098c60048036038101906109879190616b53565b61230a565b6040516109999190616d36565b60405180910390f35b6109bc60048036038101906109b79190616baa565b61232a565b6040516109c99190616979565b60405180910390f35b6109da612342565b6040516109e79190616b8f565b60405180910390f35b610a0a6004803603810190610a059190616bd7565b612368565b604051610a179190616979565b60405180910390f35b610a3a6004803603810190610a359190616b53565b61237c565b604051610a479190616979565b60405180910390f35b610a6a6004803603810190610a659190616b53565b61238e565b604051610a779190616945565b60405180910390f35b610a886123ae565b604051610a959190616979565b60405180910390f35b610aa66123b4565b604051610ab39190616a2d565b60405180910390f35b610ad66004803603810190610ad19190616b53565b6123ed565b604051610ae39190616979565b60405180910390f35b610b066004803603810190610b019190616b53565b6125e6565b005b610b226004803603810190610b1d9190616baa565b612678565b604051610b2f9190616979565b60405180910390f35b610b526004803603810190610b4d9190616bd7565b6127be565b005b610b6e6004803603810190610b699190616f21565b61292d565b005b610b8a6004803603810190610b859190616bd7565b612a66565b005b610ba66004803603810190610ba19190616b53565b612c86565b604051610bb4929190616f61565b60405180910390f35b610bd76004803603810190610bd2919061703f565b612cb7565b005b610bf36004803603810190610bee9190616b53565b612e5d565b005b610bfd612ee4565b005b610c196004803603810190610c14919061711a565b612f24565b005b610c356004803603810190610c309190616b53565b61328e565b604051610c429190616a2d565b60405180910390f35b610c656004803603810190610c609190616bd7565b61343e565b005b610c816004803603810190610c7c9190616b53565b613671565b604051610c919493929190616c33565b60405180910390f35b610cb46004803603810190610caf91906171a7565b6136bb565b604051610cc19190616979565b60405180910390f35b610ce46004803603810190610cdf9190616bd7565b61372b565b604051610cf19190616979565b60405180910390f35b610d146004803603810190610d0f9190616b53565b61373f565b604051610d219190616979565b60405180910390f35b610d32613757565b604051610d3f9190616c91565b60405180910390f35b610d626004803603810190610d5d9190616b53565b61377b565b604051610d6f9190616979565b60405180910390f35b610d926004803603810190610d8d91906171fa565b6137b2565b604051610d9f9190616945565b60405180910390f35b610dc26004803603810190610dbd9190616bd7565b613846565b005b610dde6004803603810190610dd99190617266565b61399a565b604051610deb9190616979565b60405180910390f35b610e0e6004803603810190610e099190616b53565b6139c5565b604051610e1b9190616979565b60405180910390f35b610e3e6004803603810190610e399190616b53565b6139e5565b005b610e48613a77565b604051610e559190616b8f565b60405180910390f35b610e786004803603810190610e739190616b53565b613a9b565b005b600060046000837bffffffffffffffffffffffffffffffffffffffffffffffffffffffff19167bffffffffffffffffffffffffffffffffffffffffffffffffffffffff1916815260200190815260200160002060009054906101000a900460ff169050919050565b60135481565b6040518060400160405280600781526020017f76655468656e610000000000000000000000000000000000000000000000000081525081565b600080601860008573ffffffffffffffffffffffffffffffffffffffff1673ffffffffffffffffffffffffffffffffffffffff16815260200190815260200160002060009054906101000a900463ffffffff16905060008163ffffffff1603610f8e576000915050611178565b82601760008673ffffffffffffffffffffffffffffffffffffffff1673ffffffffffffffffffffffffffffffffffffffff1681526020019081526020016000206000600184610fdd91906172d5565b63ffffffff1663ffffffff16815260200190815260200160002060000154116110155760018161100d91906172d5565b915050611178565b82601760008673ffffffffffffffffffffffffffffffffffffffff1673ffffffffffffffffffffffffffffffffffffffff16815260200190815260200160002060008063ffffffff168152602001908152602001600020600001541115611080576000915050611178565b60008060018361109091906172d5565b90505b8163ffffffff168163ffffffff161115611171576000600283836110b791906172d5565b6110c19190617338565b826110cc91906172d5565b90506000601760008973ffffffffffffffffffffffffffffffffffffffff1673ffffffffffffffffffffffffffffffffffffffff16815260200190815260200160002060008363ffffffff1663ffffffff168152602001908152602001600020905086816000015403611146578195505050505050611178565b868160000154101561115a5781935061116a565b60018261116791906172d5565b92505b5050611093565b8193505050505b92915050565b60006009600083815260200190815260200160002060009054906101000a900473ffffffffffffffffffffffffffffffffffffffff169050919050565b600160009054906101000a900473ffffffffffffffffffffffffffffffffffffffff1673ffffffffffffffffffffffffffffffffffffffff163373ffffffffffffffffffffffffffffffffffffffff161461121557600080fd5b80600160006101000a81548173ffffffffffffffffffffffffffffffffffffffff021916908373ffffffffffffffffffffffffffffffffffffffff16021790555050565b60006007600083815260200190815260200160002060009054906101000a900473ffffffffffffffffffffffffffffffffffffffff169050600073ffffffffffffffffffffffffffffffffffffffff168173ffffffffffffffffffffffffffffffffffffffff16036112ca57600080fd5b8073ffffffffffffffffffffffffffffffffffffffff168373ffffffffffffffffffffffffffffffffffffffff160361130257600080fd5b60003373ffffffffffffffffffffffffffffffffffffffff166007600085815260200190815260200160002060009054906101000a900473ffffffffffffffffffffffffffffffffffffffff1673ffffffffffffffffffffffffffffffffffffffff161490506000600a60008473ffffffffffffffffffffffffffffffffffffffff1673ffffffffffffffffffffffffffffffffffffffff16815260200190815260200160002060003373ffffffffffffffffffffffffffffffffffffffff1673ffffffffffffffffffffffffffffffffffffffff16815260200190815260200160002060009054906101000a900460ff16905081806113ff5750805b61140857600080fd5b846009600086815260200190815260200160002060006101000a81548173ffffffffffffffffffffffffffffffffffffffff021916908373ffffffffffffffffffffffffffffffffffffffff160217905550838573ffffffffffffffffffffffffffffffffffffffff168473ffffffffffffffffffffffffffffffffffffffff167f8c5be1e5ebec7d5bd14f71427d1e84f3dd0314c0f7b2291e5b200ac8c7c3b92560405160405180910390a45050505050565b60146020528060005260406000206000915090505481565b600f60205281600052604060002081633b9aca0081106114f357600080fd5b60030201600091509150508060000160009054906101000a9004600f0b908060000160109054906101000a9004600f0b908060010154908060020154905084565b600061153f4261227f565b905090565b6000600f600084815260200190815260200160002082633b9aca00811061156e5761156d617369565b5b6003020160010154905092915050565b7f8cad95687ba82c2ce50e74f7b754645e5117c3a5bec8151c0726d5857980a86681565b6115ae83838333613b22565b505050565b600043905090565b600160ff16600660009054906101000a900460ff1660ff16146115dd57600080fd5b6002600660006101000a81548160ff021916908360ff1602179055506116033382613c67565b6116105761160f617398565b5b6000601460008381526020019081526020016000205414801561165157506015600082815260200190815260200160002060009054906101000a900460ff16155b611690576040517f08c379a000000000000000000000000000000000000000000000000000000000815260040161168790617413565b60405180910390fd5b6000601060008381526020019081526020016000206040518060400160405290816000820160009054906101000a9004600f0b600f0b600f0b815260200160018201548152505090508060200151421015611720576040517f08c379a00000000000000000000000000000000000000000000000000000000081526004016117179061747f565b60405180910390fd5b60008160000151600f0b905060405180604001604052806000600f0b815260200160008152506010600085815260200190815260200160002060008201518160000160006101000a8154816fffffffffffffffffffffffffffffffff0219169083600f0b6fffffffffffffffffffffffffffffffff160217905550602082015181600101559050506000601354905081816117bb919061749f565b6013819055506117e5848460405180604001604052806000600f0b81526020016000815250613de4565b7f000000000000000000000000000000000000000000000000000000000000000073ffffffffffffffffffffffffffffffffffffffff1663a9059cbb33846040518363ffffffff1660e01b81526004016118409291906174d3565b6020604051808303816000875af115801561185f573d6000803e3d6000fd5b505050506040513d601f19601f820116820180604052508101906118839190617511565b6118905761188f617398565b5b61189984614668565b3373ffffffffffffffffffffffffffffffffffffffff167f02f25270a4d87bea75db541cdfe559334a275b4a233520ed6c0a2429667cca948584426040516118e39392919061753e565b60405180910390a27f5e2aa66efd74cce82b21852e317e5490d9ecc9e6bb953ae24d90851258cc2f5c818383611919919061749f565b604051611927929190617575565b60405180910390a15050506001600660006101000a81548160ff021916908360ff16021790555050565b600160009054906101000a900473ffffffffffffffffffffffffffffffffffffffff1673ffffffffffffffffffffffffffffffffffffffff163373ffffffffffffffffffffffffffffffffffffffff16146119ab57600080fd5b80600260006101000a81548173ffffffffffffffffffffffffffffffffffffffff021916908373ffffffffffffffffffffffffffffffffffffffff16021790555050565b6000600c60008473ffffffffffffffffffffffffffffffffffffffff1673ffffffffffffffffffffffffffffffffffffffff168152602001908152602001600020600083815260200190815260200160002054905092915050565b601281565b600080611a5c8484610f21565b90506000601760008673ffffffffffffffffffffffffffffffffffffffff1673ffffffffffffffffffffffffffffffffffffffff16815260200190815260200160002060008363ffffffff1663ffffffff16815260200190815260200160002060010190506000805b8280549050811015611b1e576000838281548110611ae657611ae5617369565b5b90600052602060002001549050611afd8188614747565b83611b08919061759e565b9250508080611b16906175f4565b915050611ac5565b5080935050505092915050565b611b4683838360405180602001604052806000815250612cb7565b505050565b6000611b578383613c67565b905092915050565b600080600e6000848152602001908152602001600020549050600f600084815260200190815260200160002081633b9aca008110611ba057611b9f617369565b5b6003020160000160109054906101000a9004600f0b915050919050565b60008054906101000a900473ffffffffffffffffffffffffffffffffffffffff1681565b600160009054906101000a900473ffffffffffffffffffffffffffffffffffffffff1673ffffffffffffffffffffffffffffffffffffffff163373ffffffffffffffffffffffffffffffffffffffff1614611c3b57600080fd5b806000806101000a81548173ffffffffffffffffffffffffffffffffffffffff021916908373ffffffffffffffffffffffffffffffffffffffff16021790555050565b6040518060400160405280600581526020017f312e302e3000000000000000000000000000000000000000000000000000000081525081565b600260009054906101000a900473ffffffffffffffffffffffffffffffffffffffff1681565b60006014600083815260200190815260200160002054148015611d1e57506015600082815260200190815260200160002060009054906101000a900460ff16155b611d5d576040517f08c379a0000000000000000000000000000000000000000000000000000000008152600401611d5490617413565b60405180910390fd5b611d673382613c67565b611d7057600080fd5b60006007600083815260200190815260200160002060009054906101000a900473ffffffffffffffffffffffffffffffffffffffff1690506000601060008481526020019081526020016000206040518060400160405290816000820160009054906101000a9004600f0b600f0b600f0b8152602001600182015481525050905060008160200151905060008260000151600f0b905060008111611e1357600080fd5b80601354611e21919061749f565b60138190555060008060009050600091505b8751821015611e7757878281518110611e4f57611e4e617369565b5b602002602001015181611e62919061759e565b90508180611e6f906175f4565b925050611e33565b60405180604001604052806000600f0b815260200160008152506010600089815260200190815260200160002060008201518160000160006101000a8154816fffffffffffffffffffffffffffffffff0219169083600f0b6fffffffffffffffffffffffffffffffff16021790555060208201518160010155905050611f17878660405180604001604052806000600f0b81526020016000815250613de4565b611f2087614668565b6000849050428111611f67576040517f08c379a0000000000000000000000000000000000000000000000000000000008152600401611f5e906176ae565b60405180910390fd5b6303c2670042611f77919061759e565b811115611fb9576040517f08c379a0000000000000000000000000000000000000000000000000000000008152600401611fb09061771a565b60405180910390fd5b60008093505b895184101561208657600560008154611fd7906175f4565b919050819055506005549850611fed888a614871565b50828a858151811061200257612001617369565b5b602002602001015186612015919061773a565b61201f9190617794565b9050612073898284601060008e81526020019081526020016000206040518060400160405290816000820160009054906101000a9004600f0b600f0b600f0b81526020016001820154815250506005614933565b838061207e906175f4565b945050611fbf565b50505050505050505050565b600080601660008473ffffffffffffffffffffffffffffffffffffffff1673ffffffffffffffffffffffffffffffffffffffff16815260200190815260200160002060009054906101000a900473ffffffffffffffffffffffffffffffffffffffff169050600073ffffffffffffffffffffffffffffffffffffffff168173ffffffffffffffffffffffffffffffffffffffff16146121315780612133565b825b915050919050565b600073ffffffffffffffffffffffffffffffffffffffff168173ffffffffffffffffffffffffffffffffffffffff1603612173573390505b61217d3382614be3565b50565b61040081565b60006007600083815260200190815260200160002060009054906101000a900473ffffffffffffffffffffffffffffffffffffffff169050919050565b6000600160ff16600660009054906101000a900460ff1660ff16146121e757600080fd5b6002600660006101000a81548160ff021916908360ff16021790555061220e838333614cef565b90506001600660006101000a81548160ff021916908360ff16021790555092915050565b600b6020528060005260406000206000915090505481565b60186020528060005260406000206000915054906101000a900463ffffffff1681565b600061227882614e40565b9050919050565b60008060115490506000600360008381526020019081526020016000206040518060800160405290816000820160009054906101000a9004600f0b600f0b600f0b81526020016000820160109054906101000a9004600f0b600f0b600f0b81526020016001820154815260200160028201548152505090506123018185614e89565b92505050919050565b60126020528060005260406000206000915054906101000a9004600f0b81565b60196020528060005260406000206000915090505481565b600160009054906101000a900473ffffffffffffffffffffffffffffffffffffffff1681565b60006123748383614fd3565b905092915050565b60006123878261227f565b9050919050565b60156020528060005260406000206000915054906101000a900460ff1681565b60115481565b6040518060400160405280600581526020017f766554484500000000000000000000000000000000000000000000000000000081525081565b600043821115612400576123ff617398565b5b6000601154905060006124138483615356565b90506000600360008381526020019081526020016000206040518060800160405290816000820160009054906101000a9004600f0b600f0b600f0b81526020016000820160109054906101000a9004600f0b600f0b600f0b815260200160018201548152602001600282015481525050905060008383101561256f576000600360006001866124a2919061759e565b81526020019081526020016000206040518060800160405290816000820160009054906101000a9004600f0b600f0b600f0b81526020016000820160109054906101000a9004600f0b600f0b600f0b81526020016001820154815260200160028201548152505090508060600151836060015114612569578260600151816060015161252e919061749f565b83604001518260400151612542919061749f565b846060015189612552919061749f565b61255c919061773a565b6125669190617794565b91505b506125c2565b438260600151146125c15781606001514361258a919061749f565b82604001514261259a919061749f565b8360600151886125aa919061749f565b6125b4919061773a565b6125be9190617794565b90505b5b6125db828284604001516125d6919061759e565b614e89565b945050505050919050565b60008054906101000a900473ffffffffffffffffffffffffffffffffffffffff1673ffffffffffffffffffffffffffffffffffffffff163373ffffffffffffffffffffffffffffffffffffffff161461263e57600080fd5b6001601460008381526020019081526020016000205461265e919061749f565b601460008381526020019081526020016000208190555050565b600080601860008473ffffffffffffffffffffffffffffffffffffffff1673ffffffffffffffffffffffffffffffffffffffff16815260200190815260200160002060009054906101000a900463ffffffff16905060008163ffffffff16036126e55760009150506127b9565b6000601760008573ffffffffffffffffffffffffffffffffffffffff1673ffffffffffffffffffffffffffffffffffffffff168152602001908152602001600020600060018461273591906172d5565b63ffffffff1663ffffffff16815260200190815260200160002060010190506000805b82805490508110156127b157600083828154811061277957612778617369565b5b906000526020600020015490506127908142614747565b8361279b919061759e565b92505080806127a9906175f4565b915050612758565b508093505050505b919050565b600160ff16600660009054906101000a900460ff1660ff16146127e057600080fd5b6002600660006101000a81548160ff021916908360ff1602179055506128063383613c67565b61281357612812617398565b5b6000601060008481526020019081526020016000206040518060400160405290816000820160009054906101000a9004600f0b600f0b600f0b815260200160018201548152505090506000821161286d5761286c617398565b5b60008160000151600f0b136128b7576040517f08c379a00000000000000000000000000000000000000000000000000000000081526004016128ae90617811565b60405180910390fd5b428160200151116128fd576040517f08c379a00000000000000000000000000000000000000000000000000000000081526004016128f4906178a3565b60405180910390fd5b61290c83836000846002614933565b506001600660006101000a81548160ff021916908360ff1602179055505050565b3373ffffffffffffffffffffffffffffffffffffffff168273ffffffffffffffffffffffffffffffffffffffff160361296957612968617398565b5b80600a60003373ffffffffffffffffffffffffffffffffffffffff1673ffffffffffffffffffffffffffffffffffffffff16815260200190815260200160002060008473ffffffffffffffffffffffffffffffffffffffff1673ffffffffffffffffffffffffffffffffffffffff16815260200190815260200160002060006101000a81548160ff0219169083151502179055508173ffffffffffffffffffffffffffffffffffffffff163373ffffffffffffffffffffffffffffffffffffffff167f17307eab39ab6107e8899845ad3d59bd9653f200f220920489ca2b5937696c3183604051612a5a9190616945565b60405180910390a35050565b600160ff16600660009054906101000a900460ff1660ff1614612a8857600080fd5b6002600660006101000a81548160ff021916908360ff160217905550612aae3383613c67565b612abb57612aba617398565b5b6000601060008481526020019081526020016000206040518060400160405290816000820160009054906101000a9004600f0b600f0b600f0b81526020016001820154815250509050600062093a80808442612b17919061759e565b612b219190617794565b612b2b919061773a565b905042826020015111612b73576040517f08c379a0000000000000000000000000000000000000000000000000000000008152600401612b6a9061790f565b60405180910390fd5b60008260000151600f0b13612bbd576040517f08c379a0000000000000000000000000000000000000000000000000000000008152600401612bb49061797b565b60405180910390fd5b81602001518111612c03576040517f08c379a0000000000000000000000000000000000000000000000000000000008152600401612bfa906179e7565b60405180910390fd5b6303c2670042612c13919061759e565b811115612c55576040517f08c379a0000000000000000000000000000000000000000000000000000000008152600401612c4c9061771a565b60405180910390fd5b612c6484600083856003614933565b50506001600660006101000a81548160ff021916908360ff1602179055505050565b60106020528060005260406000206000915090508060000160009054906101000a9004600f0b908060010154905082565b612cc384848433613b22565b612ccc836153f1565b15612e57578273ffffffffffffffffffffffffffffffffffffffff1663150b7a02338685856040518563ffffffff1660e01b8152600401612d109493929190617a5c565b6020604051808303816000875af1925050508015612d4c57506040513d601f19601f82011682018060405250810190612d499190617abd565b60015b612dce573d8060008114612d7c576040519150601f19603f3d011682016040523d82523d6000602084013e612d81565b606091505b506000815103612dc6576040517f08c379a0000000000000000000000000000000000000000000000000000000008152600401612dbd90617b5c565b60405180910390fd5b805181602001fd5b63150b7a0260e01b7bffffffffffffffffffffffffffffffffffffffffffffffffffffffff1916817bffffffffffffffffffffffffffffffffffffffffffffffffffffffff191614612e55576040517f08c379a0000000000000000000000000000000000000000000000000000000008152600401612e4c90617bee565b60405180910390fd5b505b50505050565b60008054906101000a900473ffffffffffffffffffffffffffffffffffffffff1673ffffffffffffffffffffffffffffffffffffffff163373ffffffffffffffffffffffffffffffffffffffff1614612eb557600080fd5b60006015600083815260200190815260200160002060006101000a81548160ff02191690831515021790555050565b612f22600060405180604001604052806000600f0b8152602001600081525060405180604001604052806000600f0b81526020016000815250613de4565b565b3373ffffffffffffffffffffffffffffffffffffffff168673ffffffffffffffffffffffffffffffffffffffff1603612f5c57600080fd5b600073ffffffffffffffffffffffffffffffffffffffff168673ffffffffffffffffffffffffffffffffffffffff1603612f9557600080fd5b60007f8cad95687ba82c2ce50e74f7b754645e5117c3a5bec8151c0726d5857980a8666040518060400160405280600781526020017f76655468656e6100000000000000000000000000000000000000000000000000815250805190602001206040518060400160405280600581526020017f312e302e30000000000000000000000000000000000000000000000000000000815250805190602001204630604051602001613048959493929190617c0e565b60405160208183030381529060405280519060200120905060007fe48329057bfd03d55e49b547132e39cffd9c1820ad7b9d4c5307691425d15adf8888886040516020016130999493929190617c61565b604051602081830303815290604052805190602001209050600082826040516020016130c6929190617d1e565b6040516020818303038152906040528051906020012090506000600182888888604051600081526020016040526040516131039493929190617d55565b6020604051602081039080840390855afa158015613125573d6000803e3d6000fd5b505050602060405103519050600073ffffffffffffffffffffffffffffffffffffffff168173ffffffffffffffffffffffffffffffffffffffff16036131a0576040517f08c379a000000000000000000000000000000000000000000000000000000000815260040161319790617e0c565b60405180910390fd5b601960008273ffffffffffffffffffffffffffffffffffffffff1673ffffffffffffffffffffffffffffffffffffffff16815260200190815260200160002060008154809291906131f0906175f4565b919050558914613235576040517f08c379a000000000000000000000000000000000000000000000000000000000815260040161322c90617e9e565b60405180910390fd5b87421115613278576040517f08c379a000000000000000000000000000000000000000000000000000000000815260040161326f90617f30565b60405180910390fd5b613282818b614be3565b50505050505050505050565b6060600073ffffffffffffffffffffffffffffffffffffffff166007600084815260200190815260200160002060009054906101000a900473ffffffffffffffffffffffffffffffffffffffff1673ffffffffffffffffffffffffffffffffffffffff1603613332576040517f08c379a000000000000000000000000000000000000000000000000000000000815260040161332990617f9c565b60405180910390fd5b6000601060008481526020019081526020016000206040518060400160405290816000820160009054906101000a9004600f0b600f0b600f0b81526020016001820154815250509050600260009054906101000a900473ffffffffffffffffffffffffffffffffffffffff1673ffffffffffffffffffffffffffffffffffffffff1663dd9ec149846133c48642614747565b84602001518560000151600f0b6040518563ffffffff1660e01b81526004016133f09493929190617fbc565b600060405180830381865afa15801561340d573d6000803e3d6000fd5b505050506040513d6000823e3d601f19601f8201168201806040525081019061343691906180a2565b915050919050565b6000601460008481526020019081526020016000205414801561347f57506015600083815260200190815260200160002060009054906101000a900460ff16155b6134be576040517f08c379a00000000000000000000000000000000000000000000000000000000081526004016134b590617413565b60405180910390fd5b8082036134ca57600080fd5b6134d43383613c67565b6134dd57600080fd5b6134e73382613c67565b6134f057600080fd5b6000601060008481526020019081526020016000206040518060400160405290816000820160009054906101000a9004600f0b600f0b600f0b815260200160018201548152505090506000601060008481526020019081526020016000206040518060400160405290816000820160009054906101000a9004600f0b600f0b600f0b8152602001600182015481525050905060008260000151600f0b905060008260200151846020015110156135aa5782602001516135b0565b83602001515b905060405180604001604052806000600f0b815260200160008152506010600088815260200190815260200160002060008201518160000160006101000a8154816fffffffffffffffffffffffffffffffff0219169083600f0b6fffffffffffffffffffffffffffffffff16021790555060208201518160010155905050613652868560405180604001604052806000600f0b81526020016000815250613de4565b61365b86614668565b613669858383866004614933565b505050505050565b60036020528060005260406000206000915090508060000160009054906101000a9004600f0b908060000160109054906101000a9004600f0b908060010154908060020154905084565b6000600160ff16600660009054906101000a900460ff1660ff16146136df57600080fd5b6002600660006101000a81548160ff021916908360ff160217905550613706848484614cef565b90506001600660006101000a81548160ff021916908360ff1602179055509392505050565b60006137378383614747565b905092915050565b600e6020528060005260406000206000915090505481565b7fe48329057bfd03d55e49b547132e39cffd9c1820ad7b9d4c5307691425d15adf81565b600043600b600084815260200190815260200160002054036137a057600090506137ad565b6137aa8242614747565b90505b919050565b6000600a60008473ffffffffffffffffffffffffffffffffffffffff1673ffffffffffffffffffffffffffffffffffffffff16815260200190815260200160002060008373ffffffffffffffffffffffffffffffffffffffff1673ffffffffffffffffffffffffffffffffffffffff16815260200190815260200160002060009054906101000a900460ff16905092915050565b600160ff16600660009054906101000a900460ff1660ff161461386857600080fd5b6002600660006101000a81548160ff021916908360ff1602179055506000601060008481526020019081526020016000206040518060400160405290816000820160009054906101000a9004600f0b600f0b600f0b81526020016001820154815250509050600082116138da57600080fd5b60008160000151600f0b13613924576040517f08c379a000000000000000000000000000000000000000000000000000000000815260040161391b90617811565b60405180910390fd5b4281602001511161396a576040517f08c379a0000000000000000000000000000000000000000000000000000000008152600401613961906178a3565b60405180910390fd5b61397983836000846000614933565b506001600660006101000a81548160ff021916908360ff1602179055505050565b6017602052816000526040600020602052806000526040600020600091509150508060000154905081565b600060106000838152602001908152602001600020600101549050919050565b60008054906101000a900473ffffffffffffffffffffffffffffffffffffffff1673ffffffffffffffffffffffffffffffffffffffff163373ffffffffffffffffffffffffffffffffffffffff1614613a3d57600080fd5b60016014600083815260200190815260200160002054613a5d919061759e565b601460008381526020019081526020016000208190555050565b7f000000000000000000000000000000000000000000000000000000000000000081565b60008054906101000a900473ffffffffffffffffffffffffffffffffffffffff1673ffffffffffffffffffffffffffffffffffffffff163373ffffffffffffffffffffffffffffffffffffffff1614613af357600080fd5b60016015600083815260200190815260200160002060006101000a81548160ff02191690831515021790555050565b60006014600084815260200190815260200160002054148015613b6357506015600083815260200190815260200160002060009054906101000a900460ff16155b613ba2576040517f08c379a0000000000000000000000000000000000000000000000000000000008152600401613b9990617413565b60405180910390fd5b613bac8183613c67565b613bb557600080fd5b613bbf8483615404565b613bc98483615532565b613be4613bd585612092565b613bde85612092565b84615659565b613bee8383615c85565b43600b600084815260200190815260200160002081905550818373ffffffffffffffffffffffffffffffffffffffff168573ffffffffffffffffffffffffffffffffffffffff167fddf252ad1be2c89b69c2b068fc378daa952ba7f163c4a11628f55a4df523b3ef60405160405180910390a450505050565b6000806007600084815260200190815260200160002060009054906101000a900473ffffffffffffffffffffffffffffffffffffffff16905060008473ffffffffffffffffffffffffffffffffffffffff168273ffffffffffffffffffffffffffffffffffffffff1614905060006009600086815260200190815260200160002060009054906101000a900473ffffffffffffffffffffffffffffffffffffffff1673ffffffffffffffffffffffffffffffffffffffff168673ffffffffffffffffffffffffffffffffffffffff161490506000600a60008573ffffffffffffffffffffffffffffffffffffffff1673ffffffffffffffffffffffffffffffffffffffff16815260200190815260200160002060008873ffffffffffffffffffffffffffffffffffffffff1673ffffffffffffffffffffffffffffffffffffffff16815260200190815260200160002060009054906101000a900460ff1690508280613dd05750815b80613dd85750805b94505050505092915050565b613dec616846565b613df4616846565b6000806000601154905060008814613f6457428760200151118015613e20575060008760000151600f0b135b15613e7b576303c267008760000151613e3991906180eb565b8560200190600f0b9081600f0b81525050428760200151613e5a919061749f565b8560200151613e699190618155565b8560000190600f0b9081600f0b815250505b428660200151118015613e95575060008660000151600f0b135b15613ef0576303c267008660000151613eae91906180eb565b8460200190600f0b9081600f0b81525050428660200151613ecf919061749f565b8460200151613ede9190618155565b8460000190600f0b9081600f0b815250505b601260008860200151815260200190815260200160002060009054906101000a9004600f0b92506000866020015114613f63578660200151866020015103613f3a57829150613f62565b601260008760200151815260200190815260200160002060009054906101000a9004600f0b91505b5b5b600060405180608001604052806000600f0b81526020016000600f0b8152602001428152602001438152509050600082111561400957600360008381526020019081526020016000206040518060800160405290816000820160009054906101000a9004600f0b600f0b600f0b81526020016000820160109054906101000a9004600f0b600f0b600f0b81526020016001820154815260200160028201548152505090505b60008160400151905060008290506000836040015142111561406557836040015142614035919061749f565b846060015143614045919061749f565b670de0b6b3a7640000614058919061773a565b6140629190617794565b90505b600062093a8080856140779190617794565b614081919061773a565b905060005b60ff8110156142b45762093a808261409e919061759e565b91506000428311156140b2574292506140d6565b6012600084815260200190815260200160002060009054906101000a9004600f0b90505b85836140e2919061749f565b87602001516140f19190618155565b87600001818151614102919061824c565b915090600f0b9081600f0b81525050808760200181815161412391906182d0565b915090600f0b9081600f0b8152505060008760000151600f0b12156141565760008760000190600f0b9081600f0b815250505b60008760200151600f0b121561417a5760008760200190600f0b9081600f0b815250505b82955082876040018181525050670de0b6b3a76400008560400151846141a0919061749f565b856141ab919061773a565b6141b59190617794565b85606001516141c4919061759e565b8760600181815250506001886141da919061759e565b97504283036141f35743876060018181525050506142b4565b86600360008a815260200190815260200160002060008201518160000160006101000a8154816fffffffffffffffffffffffffffffffff0219169083600f0b6fffffffffffffffffffffffffffffffff16021790555060208201518160000160106101000a8154816fffffffffffffffffffffffffffffffff0219169083600f0b6fffffffffffffffffffffffffffffffff160217905550604082015181600101556060820151816002015590505050806142ad906175f4565b9050614086565b50508460118190555060008c1461437657886020015188602001516142d9919061824c565b846020018181516142ea91906182d0565b915090600f0b9081600f0b815250508860000151886000015161430d919061824c565b8460000181815161431e91906182d0565b915090600f0b9081600f0b8152505060008460200151600f0b12156143515760008460200190600f0b9081600f0b815250505b60008460000151600f0b12156143755760008460000190600f0b9081600f0b815250505b5b836003600087815260200190815260200160002060008201518160000160006101000a8154816fffffffffffffffffffffffffffffffff0219169083600f0b6fffffffffffffffffffffffffffffffff16021790555060208201518160000160106101000a8154816fffffffffffffffffffffffffffffffff0219169083600f0b6fffffffffffffffffffffffffffffffff160217905550604082015181600101556060820151816002015590505060008c1461465a57428b6020015111156144bf5788602001518761444991906182d0565b96508a602001518a602001510361446d5787602001518761446a919061824c565b96505b86601260008d60200151815260200190815260200160002060006101000a8154816fffffffffffffffffffffffffffffffff0219169083600f0b6fffffffffffffffffffffffffffffffff1602179055505b428a602001511115614540578a602001518a60200151111561453f578760200151866144eb919061824c565b955085601260008c60200151815260200190815260200160002060006101000a8154816fffffffffffffffffffffffffffffffff0219169083600f0b6fffffffffffffffffffffffffffffffff1602179055505b5b60006001600e60008f815260200190815260200160002054614562919061759e565b905080600e60008f815260200190815260200160002081905550428960400181815250504389606001818152505088600f60008f815260200190815260200160002082633b9aca0081106145b9576145b8617369565b5b6003020160008201518160000160006101000a8154816fffffffffffffffffffffffffffffffff0219169083600f0b6fffffffffffffffffffffffffffffffff16021790555060208201518160000160106101000a8154816fffffffffffffffffffffffffffffffff0219169083600f0b6fffffffffffffffffffffffffffffffff1602179055506040820151816001015560608201518160020155905050505b505050505050505050505050565b6146723382613c67565b6146b1576040517f08c379a00000000000000000000000000000000000000000000000000000000081526004016146a8906183a0565b60405180910390fd5b60006146bc82612186565b90506146c9600083611259565b6146dd6146d582612092565b600084615659565b6146e78183615532565b81600073ffffffffffffffffffffffffffffffffffffffff168273ffffffffffffffffffffffffffffffffffffffff167fddf252ad1be2c89b69c2b068fc378daa952ba7f163c4a11628f55a4df523b3ef60405160405180910390a45050565b600080600e60008581526020019081526020016000205490506000810361477257600091505061486b565b6000600f600086815260200190815260200160002082633b9aca00811061479c5761479b617369565b5b600302016040518060800160405290816000820160009054906101000a9004600f0b600f0b600f0b81526020016000820160109054906101000a9004600f0b600f0b600f0b815260200160018201548152602001600282015481525050905080604001518461480b91906183ca565b816020015161481a9190618155565b8160000181815161482b919061824c565b915090600f0b9081600f0b8152505060008160000151600f0b121561485e5760008160000190600f0b9081600f0b815250505b8060000151600f0b925050505b92915050565b60008073ffffffffffffffffffffffffffffffffffffffff168373ffffffffffffffffffffffffffffffffffffffff16036148af576148ae617398565b5b6148c360006148bd85612092565b84615659565b6148cd8383615c85565b818373ffffffffffffffffffffffffffffffffffffffff16600073ffffffffffffffffffffffffffffffffffffffff167fddf252ad1be2c89b69c2b068fc378daa952ba7f163c4a11628f55a4df523b3ef60405160405180910390a46001905092915050565b600082905060006013549050858161494b919061759e565b601381905550614959616874565b8260000151836020015182600001836020018281525082600f0b600f0b8152505050868360000181815161498d91906182d0565b915090600f0b9081600f0b81525050600086146149af57858360200181815250505b82601060008a815260200190815260200160002060008201518160000160006101000a8154816fffffffffffffffffffffffffffffffff0219169083600f0b6fffffffffffffffffffffffffffffffff16021790555060208201518160010155905050614a1d888285613de4565b600033905060008814158015614a58575060046005811115614a4257614a4161845e565b5b856005811115614a5557614a5461845e565b5b14155b8015614a885750600580811115614a7257614a7161845e565b5b856005811115614a8557614a8461845e565b5b14155b15614b3b577f000000000000000000000000000000000000000000000000000000000000000073ffffffffffffffffffffffffffffffffffffffff166323b872dd82308b6040518463ffffffff1660e01b8152600401614aea9392919061848d565b6020604051808303816000875af1158015614b09573d6000803e3d6000fd5b505050506040513d601f19601f82011682018060405250810190614b2d9190617511565b614b3a57614b39617398565b5b5b83602001518173ffffffffffffffffffffffffffffffffffffffff167fff04ccafc360e16b67d682d17bd9503c4c6b9a131f6be6325762dc9ffc7de6248b8b8942604051614b8c949392919061850c565b60405180910390a37f5e2aa66efd74cce82b21852e317e5490d9ecc9e6bb953ae24d90851258cc2f5c838985614bc2919061759e565b604051614bd0929190617575565b60405180910390a1505050505050505050565b6000614bee83612092565b905081601660008573ffffffffffffffffffffffffffffffffffffffff1673ffffffffffffffffffffffffffffffffffffffff16815260200190815260200160002060006101000a81548173ffffffffffffffffffffffffffffffffffffffff021916908373ffffffffffffffffffffffffffffffffffffffff1602179055508173ffffffffffffffffffffffffffffffffffffffff168173ffffffffffffffffffffffffffffffffffffffff168473ffffffffffffffffffffffffffffffffffffffff167f3134e8a2e6d97e929a7e54011ea5485d7d196dd5f0ba4d4ef95803e8e3fc257f60405160405180910390a4614cea838284615dac565b505050565b60008062093a80808542614d03919061759e565b614d0d9190617794565b614d17919061773a565b905060008511614d2657600080fd5b428111614d68576040517f08c379a0000000000000000000000000000000000000000000000000000000008152600401614d5f906176ae565b60405180910390fd5b6303c2670042614d78919061759e565b811115614dba576040517f08c379a0000000000000000000000000000000000000000000000000000000008152600401614db19061771a565b60405180910390fd5b600560008154614dc9906175f4565b9190508190555060006005549050614de18482614871565b50614e34818784601060008681526020019081526020016000206040518060400160405290816000820160009054906101000a9004600f0b600f0b600f0b81526020016001820154815250506001614933565b80925050509392505050565b6000600860008373ffffffffffffffffffffffffffffffffffffffff1673ffffffffffffffffffffffffffffffffffffffff168152602001908152602001600020549050919050565b600080839050600062093a80808360400151614ea59190617794565b614eaf919061773a565b905060005b60ff811015614f8d5762093a8082614ecc919061759e565b9150600085831115614ee057859250614f04565b6012600084815260200190815260200160002060009054906101000a9004600f0b90505b836040015183614f14919061749f565b8460200151614f239190618155565b84600001818151614f34919061824c565b915090600f0b9081600f0b81525050858303614f505750614f8d565b8084602001818151614f6291906182d0565b915090600f0b9081600f0b81525050828460400181815250505080614f86906175f4565b9050614eb4565b5060008260000151600f0b1215614fb25760008260000190600f0b9081600f0b815250505b81600001516fffffffffffffffffffffffffffffffff169250505092915050565b600043821115614fe657614fe5617398565b5b600080600e600086815260200190815260200160002054905060005b608081101561509b578183101561509b576000600260018486615025919061759e565b61502f919061759e565b6150399190617794565b905085600f600089815260200190815260200160002082633b9aca00811061506457615063617369565b5b60030201600201541161507957809350615089565b600181615086919061749f565b92505b5080615094906175f4565b9050615002565b506000600f600087815260200190815260200160002083633b9aca0081106150c6576150c5617369565b5b600302016040518060800160405290816000820160009054906101000a9004600f0b600f0b600f0b81526020016000820160109054906101000a9004600f0b600f0b600f0b81526020016001820154815260200160028201548152505090506000601154905060006151388783615356565b90506000600360008381526020019081526020016000206040518060800160405290816000820160009054906101000a9004600f0b600f0b600f0b81526020016000820160109054906101000a9004600f0b600f0b600f0b815260200160018201548152602001600282015481525050905060008084841015615263576000600360006001876151c8919061759e565b81526020019081526020016000206040518060800160405290816000820160009054906101000a9004600f0b600f0b600f0b81526020016000820160109054906101000a9004600f0b600f0b600f0b815260200160018201548152602001600282015481525050905083606001518160600151615245919061749f565b92508360400151816040015161525b919061749f565b915050615288565b826060015143615273919061749f565b9150826040015142615285919061749f565b90505b600083604001519050600083146152cd578284606001518c6152aa919061749f565b836152b5919061773a565b6152bf9190617794565b816152ca919061759e565b90505b8660400151816152dd919061749f565b87602001516152ec9190618155565b876000018181516152fd919061824c565b915090600f0b9081600f0b8152505060008760000151600f0b126153425786600001516fffffffffffffffffffffffffffffffff169950505050505050505050615350565b600099505050505050505050505b92915050565b60008060009050600083905060005b60808110156153e557818310156153e5576000600260018486615388919061759e565b615392919061759e565b61539c9190617794565b9050866003600083815260200190815260200160002060020154116153c3578093506153d3565b6001816153d0919061749f565b92505b50806153de906175f4565b9050615365565b50819250505092915050565b600080823b905060008111915050919050565b8173ffffffffffffffffffffffffffffffffffffffff166007600083815260200190815260200160002060009054906101000a900473ffffffffffffffffffffffffffffffffffffffff1673ffffffffffffffffffffffffffffffffffffffff161461547357615472617398565b5b600073ffffffffffffffffffffffffffffffffffffffff166009600083815260200190815260200160002060009054906101000a900473ffffffffffffffffffffffffffffffffffffffff1673ffffffffffffffffffffffffffffffffffffffff161461552e5760006009600083815260200190815260200160002060006101000a81548173ffffffffffffffffffffffffffffffffffffffff021916908373ffffffffffffffffffffffffffffffffffffffff1602179055505b5050565b8173ffffffffffffffffffffffffffffffffffffffff166007600083815260200190815260200160002060009054906101000a900473ffffffffffffffffffffffffffffffffffffffff1673ffffffffffffffffffffffffffffffffffffffff16146155a1576155a0617398565b5b60006007600083815260200190815260200160002060006101000a81548173ffffffffffffffffffffffffffffffffffffffff021916908373ffffffffffffffffffffffffffffffffffffffff1602179055506155fe82826164e2565b6001600860008473ffffffffffffffffffffffffffffffffffffffff1673ffffffffffffffffffffffffffffffffffffffff168152602001908152602001600020600082825461564e919061749f565b925050819055505050565b8173ffffffffffffffffffffffffffffffffffffffff168373ffffffffffffffffffffffffffffffffffffffff16141580156156955750600081115b15615c8057600073ffffffffffffffffffffffffffffffffffffffff168373ffffffffffffffffffffffffffffffffffffffff1614615952576000601860008573ffffffffffffffffffffffffffffffffffffffff1673ffffffffffffffffffffffffffffffffffffffff16815260200190815260200160002060009054906101000a900463ffffffff1690506000808263ffffffff161161578f57601760008673ffffffffffffffffffffffffffffffffffffffff1673ffffffffffffffffffffffffffffffffffffffff16815260200190815260200160002060008063ffffffff1681526020019081526020016000206001016157fb565b601760008673ffffffffffffffffffffffffffffffffffffffff1673ffffffffffffffffffffffffffffffffffffffff16815260200190815260200160002060006001846157dd91906172d5565b63ffffffff1663ffffffff1681526020019081526020016000206001015b90506000615808866166c7565b90506000601760008873ffffffffffffffffffffffffffffffffffffffff1673ffffffffffffffffffffffffffffffffffffffff16815260200190815260200160002060008363ffffffff1663ffffffff168152602001908152602001600020600101905060005b83805490508110156158e257600084828154811061589157615890617369565b5b906000526020600020015490508681146158ce57828190806001815401808255809150506001900390600052602060002001600090919091909150555b5080806158da906175f4565b915050615870565b506001846158f09190618551565b601860008973ffffffffffffffffffffffffffffffffffffffff1673ffffffffffffffffffffffffffffffffffffffff16815260200190815260200160002060006101000a81548163ffffffff021916908363ffffffff160217905550505050505b600073ffffffffffffffffffffffffffffffffffffffff168273ffffffffffffffffffffffffffffffffffffffff1614615c7f576000601860008473ffffffffffffffffffffffffffffffffffffffff1673ffffffffffffffffffffffffffffffffffffffff16815260200190815260200160002060009054906101000a900463ffffffff1690506000808263ffffffff1611615a4757601760008573ffffffffffffffffffffffffffffffffffffffff1673ffffffffffffffffffffffffffffffffffffffff16815260200190815260200160002060008063ffffffff168152602001908152602001600020600101615ab3565b601760008573ffffffffffffffffffffffffffffffffffffffff1673ffffffffffffffffffffffffffffffffffffffff1681526020019081526020016000206000600184615a9591906172d5565b63ffffffff1663ffffffff1681526020019081526020016000206001015b90506000615ac0856166c7565b90506000601760008773ffffffffffffffffffffffffffffffffffffffff1673ffffffffffffffffffffffffffffffffffffffff16815260200190815260200160002060008363ffffffff1663ffffffff168152602001908152602001600020600101905061040060018480549050615b39919061759e565b1115615b7a576040517f08c379a0000000000000000000000000000000000000000000000000000000008152600401615b71906185fd565b60405180910390fd5b60005b8380549050811015615be7576000848281548110615b9e57615b9d617369565b5b9060005260206000200154905082819080600181540180825580915050600190039060005260206000200160009091909190915055508080615bdf906175f4565b915050615b7d565b5080859080600181540180825580915050600190039060005260206000200160009091909190915055600184615c1d9190618551565b601860008873ffffffffffffffffffffffffffffffffffffffff1673ffffffffffffffffffffffffffffffffffffffff16815260200190815260200160002060006101000a81548163ffffffff021916908363ffffffff160217905550505050505b5b505050565b600073ffffffffffffffffffffffffffffffffffffffff166007600083815260200190815260200160002060009054906101000a900473ffffffffffffffffffffffffffffffffffffffff1673ffffffffffffffffffffffffffffffffffffffff1614615cf557615cf4617398565b5b816007600083815260200190815260200160002060006101000a81548173ffffffffffffffffffffffffffffffffffffffff021916908373ffffffffffffffffffffffffffffffffffffffff160217905550615d5182826167c7565b6001600860008473ffffffffffffffffffffffffffffffffffffffff1673ffffffffffffffffffffffffffffffffffffffff1681526020019081526020016000206000828254615da1919061759e565b925050819055505050565b8073ffffffffffffffffffffffffffffffffffffffff168273ffffffffffffffffffffffffffffffffffffffff16146164dd57600073ffffffffffffffffffffffffffffffffffffffff168273ffffffffffffffffffffffffffffffffffffffff16146160f6576000601860008473ffffffffffffffffffffffffffffffffffffffff1673ffffffffffffffffffffffffffffffffffffffff16815260200190815260200160002060009054906101000a900463ffffffff1690506000808263ffffffff1611615ed457601760008573ffffffffffffffffffffffffffffffffffffffff1673ffffffffffffffffffffffffffffffffffffffff16815260200190815260200160002060008063ffffffff168152602001908152602001600020600101615f40565b601760008573ffffffffffffffffffffffffffffffffffffffff1673ffffffffffffffffffffffffffffffffffffffff1681526020019081526020016000206000600184615f2291906172d5565b63ffffffff1663ffffffff1681526020019081526020016000206001015b90506000615f4d856166c7565b90506000601760008773ffffffffffffffffffffffffffffffffffffffff1673ffffffffffffffffffffffffffffffffffffffff16815260200190815260200160002060008363ffffffff1663ffffffff168152602001908152602001600020600101905060005b8380549050811015616086576000848281548110615fd657615fd5617369565b5b906000526020600020015490508873ffffffffffffffffffffffffffffffffffffffff166007600083815260200190815260200160002060009054906101000a900473ffffffffffffffffffffffffffffffffffffffff1673ffffffffffffffffffffffffffffffffffffffff161461607257828190806001815401808255809150506001900390600052602060002001600090919091909150555b50808061607e906175f4565b915050615fb5565b506001846160949190618551565b601860008873ffffffffffffffffffffffffffffffffffffffff1673ffffffffffffffffffffffffffffffffffffffff16815260200190815260200160002060006101000a81548163ffffffff021916908363ffffffff160217905550505050505b600073ffffffffffffffffffffffffffffffffffffffff168173ffffffffffffffffffffffffffffffffffffffff16146164dc576000601860008373ffffffffffffffffffffffffffffffffffffffff1673ffffffffffffffffffffffffffffffffffffffff16815260200190815260200160002060009054906101000a900463ffffffff1690506000808263ffffffff16116161eb57601760008473ffffffffffffffffffffffffffffffffffffffff1673ffffffffffffffffffffffffffffffffffffffff16815260200190815260200160002060008063ffffffff168152602001908152602001600020600101616257565b601760008473ffffffffffffffffffffffffffffffffffffffff1673ffffffffffffffffffffffffffffffffffffffff168152602001908152602001600020600060018461623991906172d5565b63ffffffff1663ffffffff1681526020019081526020016000206001015b90506000616264846166c7565b90506000601760008673ffffffffffffffffffffffffffffffffffffffff1673ffffffffffffffffffffffffffffffffffffffff16815260200190815260200160002060008363ffffffff1663ffffffff16815260200190815260200160002060010190506000600860008973ffffffffffffffffffffffffffffffffffffffff1673ffffffffffffffffffffffffffffffffffffffff168152602001908152602001600020549050610400818580549050616320919061759e565b1115616361576040517f08c379a0000000000000000000000000000000000000000000000000000000008152600401616358906185fd565b60405180910390fd5b60005b84805490508110156163ce57600085828154811061638557616384617369565b5b90600052602060002001549050838190806001815401808255809150506001900390600052602060002001600090919091909150555080806163c6906175f4565b915050616364565b5060005b8181101561646b576000600c60008b73ffffffffffffffffffffffffffffffffffffffff1673ffffffffffffffffffffffffffffffffffffffff168152602001908152602001600020600083815260200190815260200160002054905083819080600181540180825580915050600190039060005260206000200160009091909190915055508080616463906175f4565b9150506163d2565b506001856164799190618551565b601860008873ffffffffffffffffffffffffffffffffffffffff1673ffffffffffffffffffffffffffffffffffffffff16815260200190815260200160002060006101000a81548163ffffffff021916908363ffffffff16021790555050505050505b5b505050565b600060016164ef84614e40565b6164f9919061749f565b90506000600d600084815260200190815260200160002054905080820361658e576000600c60008673ffffffffffffffffffffffffffffffffffffffff1673ffffffffffffffffffffffffffffffffffffffff1681526020019081526020016000206000848152602001908152602001600020819055506000600d6000858152602001908152602001600020819055506166c1565b6000600c60008673ffffffffffffffffffffffffffffffffffffffff1673ffffffffffffffffffffffffffffffffffffffff168152602001908152602001600020600084815260200190815260200160002054905080600c60008773ffffffffffffffffffffffffffffffffffffffff1673ffffffffffffffffffffffffffffffffffffffff16815260200190815260200160002060008481526020019081526020016000208190555081600d6000838152602001908152602001600020819055506000600c60008773ffffffffffffffffffffffffffffffffffffffff1673ffffffffffffffffffffffffffffffffffffffff1681526020019081526020016000206000858152602001908152602001600020819055506000600d600086815260200190815260200160002081905550505b50505050565b6000804290506000601860008573ffffffffffffffffffffffffffffffffffffffff1673ffffffffffffffffffffffffffffffffffffffff16815260200190815260200160002060009054906101000a900463ffffffff16905060008163ffffffff161180156167a1575081601760008673ffffffffffffffffffffffffffffffffffffffff1673ffffffffffffffffffffffffffffffffffffffff168152602001908152602001600020600060018461678191906172d5565b63ffffffff1663ffffffff16815260200190815260200160002060000154145b156167bc576001816167b391906172d5565b925050506167c2565b80925050505b919050565b60006167d283614e40565b905081600c60008573ffffffffffffffffffffffffffffffffffffffff1673ffffffffffffffffffffffffffffffffffffffff16815260200190815260200160002060008381526020019081526020016000208190555080600d600084815260200190815260200160002081905550505050565b60405180608001604052806000600f0b81526020016000600f0b815260200160008152602001600081525090565b60405180604001604052806000600f0b8152602001600081525090565b6000604051905090565b600080fd5b600080fd5b60007fffffffff0000000000000000000000000000000000000000000000000000000082169050919050565b6168da816168a5565b81146168e557600080fd5b50565b6000813590506168f7816168d1565b92915050565b6000602082840312156169135761691261689b565b5b6000616921848285016168e8565b91505092915050565b60008115159050919050565b61693f8161692a565b82525050565b600060208201905061695a6000830184616936565b92915050565b6000819050919050565b61697381616960565b82525050565b600060208201905061698e600083018461696a565b92915050565b600081519050919050565b600082825260208201905092915050565b60005b838110156169ce5780820151818401526020810190506169b3565b838111156169dd576000848401525b50505050565b6000601f19601f8301169050919050565b60006169ff82616994565b616a09818561699f565b9350616a198185602086016169b0565b616a22816169e3565b840191505092915050565b60006020820190508181036000830152616a4781846169f4565b905092915050565b600073ffffffffffffffffffffffffffffffffffffffff82169050919050565b6000616a7a82616a4f565b9050919050565b616a8a81616a6f565b8114616a9557600080fd5b50565b600081359050616aa781616a81565b92915050565b616ab681616960565b8114616ac157600080fd5b50565b600081359050616ad381616aad565b92915050565b60008060408385031215616af057616aef61689b565b5b6000616afe85828601616a98565b9250506020616b0f85828601616ac4565b9150509250929050565b600063ffffffff82169050919050565b616b3281616b19565b82525050565b6000602082019050616b4d6000830184616b29565b92915050565b600060208284031215616b6957616b6861689b565b5b6000616b7784828501616ac4565b91505092915050565b616b8981616a6f565b82525050565b6000602082019050616ba46000830184616b80565b92915050565b600060208284031215616bc057616bbf61689b565b5b6000616bce84828501616a98565b91505092915050565b60008060408385031215616bee57616bed61689b565b5b6000616bfc85828601616ac4565b9250506020616c0d85828601616ac4565b9150509250929050565b600081600f0b9050919050565b616c2d81616c17565b82525050565b6000608082019050616c486000830187616c24565b616c556020830186616c24565b616c62604083018561696a565b616c6f606083018461696a565b95945050505050565b6000819050919050565b616c8b81616c78565b82525050565b6000602082019050616ca66000830184616c82565b92915050565b600080600060608486031215616cc557616cc461689b565b5b6000616cd386828701616a98565b9350506020616ce486828701616a98565b9250506040616cf586828701616ac4565b9150509250925092565b600060ff82169050919050565b616d1581616cff565b82525050565b6000602082019050616d306000830184616d0c565b92915050565b6000602082019050616d4b6000830184616c24565b92915050565b600080fd5b7f4e487b7100000000000000000000000000000000000000000000000000000000600052604160045260246000fd5b616d8e826169e3565b810181811067ffffffffffffffff82111715616dad57616dac616d56565b5b80604052505050565b6000616dc0616891565b9050616dcc8282616d85565b919050565b600067ffffffffffffffff821115616dec57616deb616d56565b5b602082029050602081019050919050565b600080fd5b6000616e15616e1084616dd1565b616db6565b90508083825260208201905060208402830185811115616e3857616e37616dfd565b5b835b81811015616e615780616e4d8882616ac4565b845260208401935050602081019050616e3a565b5050509392505050565b600082601f830112616e8057616e7f616d51565b5b8135616e90848260208601616e02565b91505092915050565b60008060408385031215616eb057616eaf61689b565b5b600083013567ffffffffffffffff811115616ece57616ecd6168a0565b5b616eda85828601616e6b565b9250506020616eeb85828601616ac4565b9150509250929050565b616efe8161692a565b8114616f0957600080fd5b50565b600081359050616f1b81616ef5565b92915050565b60008060408385031215616f3857616f3761689b565b5b6000616f4685828601616a98565b9250506020616f5785828601616f0c565b9150509250929050565b6000604082019050616f766000830185616c24565b616f83602083018461696a565b9392505050565b600080fd5b600067ffffffffffffffff821115616faa57616fa9616d56565b5b616fb3826169e3565b9050602081019050919050565b82818337600083830152505050565b6000616fe2616fdd84616f8f565b616db6565b905082815260208101848484011115616ffe57616ffd616f8a565b5b617009848285616fc0565b509392505050565b600082601f83011261702657617025616d51565b5b8135617036848260208601616fcf565b91505092915050565b600080600080608085870312156170595761705861689b565b5b600061706787828801616a98565b945050602061707887828801616a98565b935050604061708987828801616ac4565b925050606085013567ffffffffffffffff8111156170aa576170a96168a0565b5b6170b687828801617011565b91505092959194509250565b6170cb81616cff565b81146170d657600080fd5b50565b6000813590506170e8816170c2565b92915050565b6170f781616c78565b811461710257600080fd5b50565b600081359050617114816170ee565b92915050565b60008060008060008060c087890312156171375761713661689b565b5b600061714589828a01616a98565b965050602061715689828a01616ac4565b955050604061716789828a01616ac4565b945050606061717889828a016170d9565b935050608061718989828a01617105565b92505060a061719a89828a01617105565b9150509295509295509295565b6000806000606084860312156171c0576171bf61689b565b5b60006171ce86828701616ac4565b93505060206171df86828701616ac4565b92505060406171f086828701616a98565b9150509250925092565b600080604083850312156172115761721061689b565b5b600061721f85828601616a98565b925050602061723085828601616a98565b9150509250929050565b61724381616b19565b811461724e57600080fd5b50565b6000813590506172608161723a565b92915050565b6000806040838503121561727d5761727c61689b565b5b600061728b85828601616a98565b925050602061729c85828601617251565b9150509250929050565b7f4e487b7100000000000000000000000000000000000000000000000000000000600052601160045260246000fd5b60006172e082616b19565b91506172eb83616b19565b9250828210156172fe576172fd6172a6565b5b828203905092915050565b7f4e487b7100000000000000000000000000000000000000000000000000000000600052601260045260246000fd5b600061734382616b19565b915061734e83616b19565b92508261735e5761735d617309565b5b828204905092915050565b7f4e487b7100000000000000000000000000000000000000000000000000000000600052603260045260246000fd5b7f4e487b7100000000000000000000000000000000000000000000000000000000600052600160045260246000fd5b7f6174746163686564000000000000000000000000000000000000000000000000600082015250565b60006173fd60088361699f565b9150617408826173c7565b602082019050919050565b6000602082019050818103600083015261742c816173f0565b9050919050565b7f546865206c6f636b206469646e27742065787069726500000000000000000000600082015250565b600061746960168361699f565b915061747482617433565b602082019050919050565b600060208201905081810360008301526174988161745c565b9050919050565b60006174aa82616960565b91506174b583616960565b9250828210156174c8576174c76172a6565b5b828203905092915050565b60006040820190506174e86000830185616b80565b6174f5602083018461696a565b9392505050565b60008151905061750b81616ef5565b92915050565b6000602082840312156175275761752661689b565b5b6000617535848285016174fc565b91505092915050565b6000606082019050617553600083018661696a565b617560602083018561696a565b61756d604083018461696a565b949350505050565b600060408201905061758a600083018561696a565b617597602083018461696a565b9392505050565b60006175a982616960565b91506175b483616960565b9250827fffffffffffffffffffffffffffffffffffffffffffffffffffffffffffffffff038211156175e9576175e86172a6565b5b828201905092915050565b60006175ff82616960565b91507fffffffffffffffffffffffffffffffffffffffffffffffffffffffffffffffff8203617631576176306172a6565b5b600182019050919050565b7f43616e206f6e6c79206c6f636b20756e74696c2074696d6520696e207468652060008201527f6675747572650000000000000000000000000000000000000000000000000000602082015250565b600061769860268361699f565b91506176a38261763c565b604082019050919050565b600060208201905081810360008301526176c78161768b565b9050919050565b7f566f74696e67206c6f636b2063616e2062652032207965617273206d61780000600082015250565b6000617704601e8361699f565b915061770f826176ce565b602082019050919050565b60006020820190508181036000830152617733816176f7565b9050919050565b600061774582616960565b915061775083616960565b9250817fffffffffffffffffffffffffffffffffffffffffffffffffffffffffffffffff0483118215151615617789576177886172a6565b5b828202905092915050565b600061779f82616960565b91506177aa83616960565b9250826177ba576177b9617309565b5b828204905092915050565b7f4e6f206578697374696e67206c6f636b20666f756e6400000000000000000000600082015250565b60006177fb60168361699f565b9150617806826177c5565b602082019050919050565b6000602082019050818103600083015261782a816177ee565b9050919050565b7f43616e6e6f742061646420746f2065787069726564206c6f636b2e205769746860008201527f6472617700000000000000000000000000000000000000000000000000000000602082015250565b600061788d60248361699f565b915061789882617831565b604082019050919050565b600060208201905081810360008301526178bc81617880565b9050919050565b7f4c6f636b20657870697265640000000000000000000000000000000000000000600082015250565b60006178f9600c8361699f565b9150617904826178c3565b602082019050919050565b60006020820190508181036000830152617928816178ec565b9050919050565b7f4e6f7468696e67206973206c6f636b6564000000000000000000000000000000600082015250565b600061796560118361699f565b91506179708261792f565b602082019050919050565b6000602082019050818103600083015261799481617958565b9050919050565b7f43616e206f6e6c7920696e637265617365206c6f636b206475726174696f6e00600082015250565b60006179d1601f8361699f565b91506179dc8261799b565b602082019050919050565b60006020820190508181036000830152617a00816179c4565b9050919050565b600081519050919050565b600082825260208201905092915050565b6000617a2e82617a07565b617a388185617a12565b9350617a488185602086016169b0565b617a51816169e3565b840191505092915050565b6000608082019050617a716000830187616b80565b617a7e6020830186616b80565b617a8b604083018561696a565b8181036060830152617a9d8184617a23565b905095945050505050565b600081519050617ab7816168d1565b92915050565b600060208284031215617ad357617ad261689b565b5b6000617ae184828501617aa8565b91505092915050565b7f4552433732313a207472616e7366657220746f206e6f6e20455243373231526560008201527f63656976657220696d706c656d656e7465720000000000000000000000000000602082015250565b6000617b4660328361699f565b9150617b5182617aea565b604082019050919050565b60006020820190508181036000830152617b7581617b39565b9050919050565b7f4552433732313a2045524337323152656365697665722072656a65637465642060008201527f746f6b656e730000000000000000000000000000000000000000000000000000602082015250565b6000617bd860268361699f565b9150617be382617b7c565b604082019050919050565b60006020820190508181036000830152617c0781617bcb565b9050919050565b600060a082019050617c236000830188616c82565b617c306020830187616c82565b617c3d6040830186616c82565b617c4a606083018561696a565b617c576080830184616b80565b9695505050505050565b6000608082019050617c766000830187616c82565b617c836020830186616b80565b617c90604083018561696a565b617c9d606083018461696a565b95945050505050565b600081905092915050565b7f1901000000000000000000000000000000000000000000000000000000000000600082015250565b6000617ce7600283617ca6565b9150617cf282617cb1565b600282019050919050565b6000819050919050565b617d18617d1382616c78565b617cfd565b82525050565b6000617d2982617cda565b9150617d358285617d07565b602082019150617d458284617d07565b6020820191508190509392505050565b6000608082019050617d6a6000830187616c82565b617d776020830186616d0c565b617d846040830185616c82565b617d916060830184616c82565b95945050505050565b7f566f74696e67457363726f773a3a64656c656761746542795369673a20696e7660008201527f616c6964207369676e6174757265000000000000000000000000000000000000602082015250565b6000617df6602e8361699f565b9150617e0182617d9a565b604082019050919050565b60006020820190508181036000830152617e2581617de9565b9050919050565b7f566f74696e67457363726f773a3a64656c656761746542795369673a20696e7660008201527f616c6964206e6f6e636500000000000000000000000000000000000000000000602082015250565b6000617e88602a8361699f565b9150617e9382617e2c565b604082019050919050565b60006020820190508181036000830152617eb781617e7b565b9050919050565b7f566f74696e67457363726f773a3a64656c656761746542795369673a2073696760008201527f6e61747572652065787069726564000000000000000000000000000000000000602082015250565b6000617f1a602e8361699f565b9150617f2582617ebe565b604082019050919050565b60006020820190508181036000830152617f4981617f0d565b9050919050565b7f517565727920666f72206e6f6e6578697374656e7420746f6b656e0000000000600082015250565b6000617f86601b8361699f565b9150617f9182617f50565b602082019050919050565b60006020820190508181036000830152617fb581617f79565b9050919050565b6000608082019050617fd1600083018761696a565b617fde602083018661696a565b617feb604083018561696a565b617ff8606083018461696a565b95945050505050565b600067ffffffffffffffff82111561801c5761801b616d56565b5b618025826169e3565b9050602081019050919050565b600061804561804084618001565b616db6565b90508281526020810184848401111561806157618060616f8a565b5b61806c8482856169b0565b509392505050565b600082601f83011261808957618088616d51565b5b8151618099848260208601618032565b91505092915050565b6000602082840312156180b8576180b761689b565b5b600082015167ffffffffffffffff8111156180d6576180d56168a0565b5b6180e284828501618074565b91505092915050565b60006180f682616c17565b915061810183616c17565b92508261811157618110617309565b5b600160000383147fffffffffffffffffffffffffffffffff800000000000000000000000000000008314161561814a576181496172a6565b5b828205905092915050565b600061816082616c17565b915061816b83616c17565b9250826f7fffffffffffffffffffffffffffffff048211600084136000841316161561819a576181996172a6565b5b817fffffffffffffffffffffffffffffffff8000000000000000000000000000000005831260008412600084131616156181d7576181d66172a6565b5b827fffffffffffffffffffffffffffffffff800000000000000000000000000000000582126000841360008412161615618214576182136172a6565b5b826f7fffffffffffffffffffffffffffffff0582126000841260008412161615618241576182406172a6565b5b828202905092915050565b600061825782616c17565b915061826283616c17565b9250827fffffffffffffffffffffffffffffffff800000000000000000000000000000000182126000841215161561829d5761829c6172a6565b5b826f7fffffffffffffffffffffffffffffff0182136000841216156182c5576182c46172a6565b5b828203905092915050565b60006182db82616c17565b91506182e683616c17565b9250816f7fffffffffffffffffffffffffffffff03831360008312151615618311576183106172a6565b5b817fffffffffffffffffffffffffffffffff80000000000000000000000000000000038312600083121615618349576183486172a6565b5b828201905092915050565b7f63616c6c6572206973206e6f74206f776e6572206e6f7220617070726f766564600082015250565b600061838a60208361699f565b915061839582618354565b602082019050919050565b600060208201905081810360008301526183b98161837d565b9050919050565b6000819050919050565b60006183d5826183c0565b91506183e0836183c0565b9250827f80000000000000000000000000000000000000000000000000000000000000000182126000841215161561841b5761841a6172a6565b5b827f7fffffffffffffffffffffffffffffffffffffffffffffffffffffffffffffff018213600084121615618453576184526172a6565b5b828203905092915050565b7f4e487b7100000000000000000000000000000000000000000000000000000000600052602160045260246000fd5b60006060820190506184a26000830186616b80565b6184af6020830185616b80565b6184bc604083018461696a565b949350505050565b600681106184d5576184d461845e565b5b50565b60008190506184e6826184c4565b919050565b60006184f6826184d8565b9050919050565b618506816184eb565b82525050565b6000608082019050618521600083018761696a565b61852e602083018661696a565b61853b60408301856184fd565b618548606083018461696a565b95945050505050565b600061855c82616b19565b915061856783616b19565b92508263ffffffff038211156185805761857f6172a6565b5b828201905092915050565b7f64737452657020776f756c64206861766520746f6f206d616e7920746f6b656e60008201527f4964730000000000000000000000000000000000000000000000000000000000602082015250565b60006185e760238361699f565b91506185f28261858b565b604082019050919050565b60006020820190508181036000830152618616816185da565b905091905056fea26469706673582212205016d7833b67e637e5b7ba97307cca0278fd9c3e6e4bb539a593602def6535d564736f6c634300080d0033",
			"opcodes": "PUSH1 0xA0 PUSH1 0x40 MSTORE PUSH1 0x1 PUSH1 0x6 PUSH1 0x0 PUSH2 0x100 EXP DUP2 SLOAD DUP2 PUSH1 0xFF MUL NOT AND SWAP1 DUP4 PUSH1 0xFF AND MUL OR SWAP1 SSTORE POP CALLVALUE DUP1 ISZERO PUSH3 0x2D JUMPI PUSH1 0x0 DUP1 REVERT JUMPDEST POP PUSH1 0x40 MLOAD PUSH3 0x8AC4 CODESIZE SUB DUP1 PUSH3 0x8AC4 DUP4 CODECOPY DUP2 DUP2 ADD PUSH1 0x40 MSTORE DUP2 ADD SWAP1 PUSH3 0x53 SWAP2 SWAP1 PUSH3 0x400 JUMP JUMPDEST DUP2 PUSH20 0xFFFFFFFFFFFFFFFFFFFFFFFFFFFFFFFFFFFFFFFF AND PUSH1 0x80 DUP2 PUSH20 0xFFFFFFFFFFFFFFFFFFFFFFFFFFFFFFFFFFFFFFFF AND DUP2 MSTORE POP POP CALLER PUSH1 0x0 DUP1 PUSH2 0x100 EXP DUP2 SLOAD DUP2 PUSH20 0xFFFFFFFFFFFFFFFFFFFFFFFFFFFFFFFFFFFFFFFF MUL NOT AND SWAP1 DUP4 PUSH20 0xFFFFFFFFFFFFFFFFFFFFFFFFFFFFFFFFFFFFFFFF AND MUL OR SWAP1 SSTORE POP CALLER PUSH1 0x1 PUSH1 0x0 PUSH2 0x100 EXP DUP2 SLOAD DUP2 PUSH20 0xFFFFFFFFFFFFFFFFFFFFFFFFFFFFFFFFFFFFFFFF MUL NOT AND SWAP1 DUP4 PUSH20 0xFFFFFFFFFFFFFFFFFFFFFFFFFFFFFFFFFFFFFFFF AND MUL OR SWAP1 SSTORE POP DUP1 PUSH1 0x2 PUSH1 0x0 PUSH2 0x100 EXP DUP2 SLOAD DUP2 PUSH20 0xFFFFFFFFFFFFFFFFFFFFFFFFFFFFFFFFFFFFFFFF MUL NOT AND SWAP1 DUP4 PUSH20 0xFFFFFFFFFFFFFFFFFFFFFFFFFFFFFFFFFFFFFFFF AND MUL OR SWAP1 SSTORE POP NUMBER PUSH1 0x3 PUSH1 0x0 DUP1 DUP2 MSTORE PUSH1 0x20 ADD SWAP1 DUP2 MSTORE PUSH1 0x20 ADD PUSH1 0x0 KECCAK256 PUSH1 0x2 ADD DUP2 SWAP1 SSTORE POP TIMESTAMP PUSH1 0x3 PUSH1 0x0 DUP1 DUP2 MSTORE PUSH1 0x20 ADD SWAP1 DUP2 MSTORE PUSH1 0x20 ADD PUSH1 0x0 KECCAK256 PUSH1 0x1 ADD DUP2 SWAP1 SSTORE POP PUSH1 0x1 PUSH1 0x4 PUSH1 0x0 PUSH4 0x1FFC9A7 PUSH1 0xE0 SHL PUSH28 0xFFFFFFFFFFFFFFFFFFFFFFFFFFFFFFFFFFFFFFFFFFFFFFFFFFFFFFFF NOT AND PUSH28 0xFFFFFFFFFFFFFFFFFFFFFFFFFFFFFFFFFFFFFFFFFFFFFFFFFFFFFFFF NOT AND DUP2 MSTORE PUSH1 0x20 ADD SWAP1 DUP2 MSTORE PUSH1 0x20 ADD PUSH1 0x0 KECCAK256 PUSH1 0x0 PUSH2 0x100 EXP DUP2 SLOAD DUP2 PUSH1 0xFF MUL NOT AND SWAP1 DUP4 ISZERO ISZERO MUL OR SWAP1 SSTORE POP PUSH1 0x1 PUSH1 0x4 PUSH1 0x0 PUSH4 0x80AC58CD PUSH1 0xE0 SHL PUSH28 0xFFFFFFFFFFFFFFFFFFFFFFFFFFFFFFFFFFFFFFFFFFFFFFFFFFFFFFFF NOT AND PUSH28 0xFFFFFFFFFFFFFFFFFFFFFFFFFFFFFFFFFFFFFFFFFFFFFFFFFFFFFFFF NOT AND DUP2 MSTORE PUSH1 0x20 ADD SWAP1 DUP2 MSTORE PUSH1 0x20 ADD PUSH1 0x0 KECCAK256 PUSH1 0x0 PUSH2 0x100 EXP DUP2 SLOAD DUP2 PUSH1 0xFF MUL NOT AND SWAP1 DUP4 ISZERO ISZERO MUL OR SWAP1 SSTORE POP PUSH1 0x1 PUSH1 0x4 PUSH1 0x0 PUSH4 0x5B5E139F PUSH1 0xE0 SHL PUSH28 0xFFFFFFFFFFFFFFFFFFFFFFFFFFFFFFFFFFFFFFFFFFFFFFFFFFFFFFFF NOT AND PUSH28 0xFFFFFFFFFFFFFFFFFFFFFFFFFFFFFFFFFFFFFFFFFFFFFFFFFFFFFFFF NOT AND DUP2 MSTORE PUSH1 0x20 ADD SWAP1 DUP2 MSTORE PUSH1 0x20 ADD PUSH1 0x0 KECCAK256 PUSH1 0x0 PUSH2 0x100 EXP DUP2 SLOAD DUP2 PUSH1 0xFF MUL NOT AND SWAP1 DUP4 ISZERO ISZERO MUL OR SWAP1 SSTORE POP PUSH1 0x5 SLOAD ADDRESS PUSH20 0xFFFFFFFFFFFFFFFFFFFFFFFFFFFFFFFFFFFFFFFF AND PUSH1 0x0 PUSH20 0xFFFFFFFFFFFFFFFFFFFFFFFFFFFFFFFFFFFFFFFF AND PUSH32 0xDDF252AD1BE2C89B69C2B068FC378DAA952BA7F163C4A11628F55A4DF523B3EF PUSH1 0x40 MLOAD PUSH1 0x40 MLOAD DUP1 SWAP2 SUB SWAP1 LOG4 PUSH1 0x5 SLOAD PUSH1 0x0 PUSH20 0xFFFFFFFFFFFFFFFFFFFFFFFFFFFFFFFFFFFFFFFF AND ADDRESS PUSH20 0xFFFFFFFFFFFFFFFFFFFFFFFFFFFFFFFFFFFFFFFF AND PUSH32 0xDDF252AD1BE2C89B69C2B068FC378DAA952BA7F163C4A11628F55A4DF523B3EF PUSH1 0x40 MLOAD PUSH1 0x40 MLOAD DUP1 SWAP2 SUB SWAP1 LOG4 POP POP PUSH3 0x447 JUMP JUMPDEST PUSH1 0x0 DUP1 REVERT JUMPDEST PUSH1 0x0 PUSH20 0xFFFFFFFFFFFFFFFFFFFFFFFFFFFFFFFFFFFFFFFF DUP3 AND SWAP1 POP SWAP2 SWAP1 POP JUMP JUMPDEST PUSH1 0x0 PUSH3 0x3C8 DUP3 PUSH3 0x39B JUMP JUMPDEST SWAP1 POP SWAP2 SWAP1 POP JUMP JUMPDEST PUSH3 0x3DA DUP2 PUSH3 0x3BB JUMP JUMPDEST DUP2 EQ PUSH3 0x3E6 JUMPI PUSH1 0x0 DUP1 REVERT JUMPDEST POP JUMP JUMPDEST PUSH1 0x0 DUP2 MLOAD SWAP1 POP PUSH3 0x3FA DUP2 PUSH3 0x3CF JUMP JUMPDEST SWAP3 SWAP2 POP POP JUMP JUMPDEST PUSH1 0x0 DUP1 PUSH1 0x40 DUP4 DUP6 SUB SLT ISZERO PUSH3 0x41A JUMPI PUSH3 0x419 PUSH3 0x396 JUMP JUMPDEST JUMPDEST PUSH1 0x0 PUSH3 0x42A DUP6 DUP3 DUP7 ADD PUSH3 0x3E9 JUMP JUMPDEST SWAP3 POP POP PUSH1 0x20 PUSH3 0x43D DUP6 DUP3 DUP7 ADD PUSH3 0x3E9 JUMP JUMPDEST SWAP2 POP POP SWAP3 POP SWAP3 SWAP1 POP JUMP JUMPDEST PUSH1 0x80 MLOAD PUSH2 0x8653 PUSH3 0x471 PUSH1 0x0 CODECOPY PUSH1 0x0 DUP2 DUP2 PUSH2 0x17E7 ADD MSTORE DUP2 DUP2 PUSH2 0x3A79 ADD MSTORE PUSH2 0x4A8F ADD MSTORE PUSH2 0x8653 PUSH1 0x0 RETURN INVALID PUSH1 0x80 PUSH1 0x40 MSTORE CALLVALUE DUP1 ISZERO PUSH2 0x10 JUMPI PUSH1 0x0 DUP1 REVERT JUMPDEST POP PUSH1 0x4 CALLDATASIZE LT PUSH2 0x412 JUMPI PUSH1 0x0 CALLDATALOAD PUSH1 0xE0 SHR DUP1 PUSH4 0x7116C60C GT PUSH2 0x220 JUMPI DUP1 PUSH4 0xC1F0FB9F GT PUSH2 0x130 JUMPI DUP1 PUSH4 0xE7A324DC GT PUSH2 0xB8 JUMPI DUP1 PUSH4 0xF1127ED8 GT PUSH2 0x87 JUMPI DUP1 PUSH4 0xF1127ED8 EQ PUSH2 0xDC4 JUMPI DUP1 PUSH4 0xF8A05763 EQ PUSH2 0xDF4 JUMPI DUP1 PUSH4 0xFBD3A29D EQ PUSH2 0xE24 JUMPI DUP1 PUSH4 0xFC0C546A EQ PUSH2 0xE40 JUMPI DUP1 PUSH4 0xFD4A77F1 EQ PUSH2 0xE5E JUMPI PUSH2 0x412 JUMP JUMPDEST DUP1 PUSH4 0xE7A324DC EQ PUSH2 0xD2A JUMPI DUP1 PUSH4 0xE7E242D4 EQ PUSH2 0xD48 JUMPI DUP1 PUSH4 0xE985E9C5 EQ PUSH2 0xD78 JUMPI DUP1 PUSH4 0xEE99FE28 EQ PUSH2 0xDA8 JUMPI PUSH2 0x412 JUMP JUMPDEST DUP1 PUSH4 0xD1C2BABB GT PUSH2 0xFF JUMPI DUP1 PUSH4 0xD1C2BABB EQ PUSH2 0xC4B JUMPI DUP1 PUSH4 0xD1FEBFB9 EQ PUSH2 0xC67 JUMPI DUP1 PUSH4 0xD4E54C3B EQ PUSH2 0xC9A JUMPI DUP1 PUSH4 0xE0514ABA EQ PUSH2 0xCCA JUMPI DUP1 PUSH4 0xE441135C EQ PUSH2 0xCFA JUMPI PUSH2 0x412 JUMP JUMPDEST DUP1 PUSH4 0xC1F0FB9F EQ PUSH2 0xBD9 JUMPI DUP1 PUSH4 0xC2C4C5C1 EQ PUSH2 0xBF5 JUMPI DUP1 PUSH4 0xC3CDA520 EQ PUSH2 0xBFF JUMPI DUP1 PUSH4 0xC87B56DD EQ PUSH2 0xC1B JUMPI PUSH2 0x412 JUMP JUMPDEST DUP1 PUSH4 0x95D89B41 GT PUSH2 0x1B3 JUMPI DUP1 PUSH4 0xA183AF52 GT PUSH2 0x182 JUMPI DUP1 PUSH4 0xA183AF52 EQ PUSH2 0xB38 JUMPI DUP1 PUSH4 0xA22CB465 EQ PUSH2 0xB54 JUMPI DUP1 PUSH4 0xA4D855DF EQ PUSH2 0xB70 JUMPI DUP1 PUSH4 0xB45A3C0E EQ PUSH2 0xB8C JUMPI DUP1 PUSH4 0xB88D4FDE EQ PUSH2 0xBBD JUMPI PUSH2 0x412 JUMP JUMPDEST DUP1 PUSH4 0x95D89B41 EQ PUSH2 0xA9E JUMPI DUP1 PUSH4 0x981B24D0 EQ PUSH2 0xABC JUMPI DUP1 PUSH4 0x986B7D8A EQ PUSH2 0xAEC JUMPI DUP1 PUSH4 0x9AB24EB0 EQ PUSH2 0xB08 JUMPI PUSH2 0x412 JUMP JUMPDEST DUP1 PUSH4 0x8C2C9BAF GT PUSH2 0x1EF JUMPI DUP1 PUSH4 0x8C2C9BAF EQ PUSH2 0x9F0 JUMPI DUP1 PUSH4 0x8E539E8C EQ PUSH2 0xA20 JUMPI DUP1 PUSH4 0x8FBB38FF EQ PUSH2 0xA50 JUMPI DUP1 PUSH4 0x900CF0CF EQ PUSH2 0xA80 JUMPI PUSH2 0x412 JUMP JUMPDEST DUP1 PUSH4 0x7116C60C EQ PUSH2 0x942 JUMPI DUP1 PUSH4 0x71197484 EQ PUSH2 0x972 JUMPI DUP1 PUSH4 0x7ECEBE00 EQ PUSH2 0x9A2 JUMPI DUP1 PUSH4 0x85F2AEF2 EQ PUSH2 0x9D2 JUMPI PUSH2 0x412 JUMP JUMPDEST DUP1 PUSH4 0x313CE567 GT PUSH2 0x326 JUMPI DUP1 PUSH4 0x56AFE744 GT PUSH2 0x2AE JUMPI DUP1 PUSH4 0x6352211E GT PUSH2 0x27D JUMPI DUP1 PUSH4 0x6352211E EQ PUSH2 0x852 JUMPI DUP1 PUSH4 0x65FC3873 EQ PUSH2 0x882 JUMPI DUP1 PUSH4 0x6F548837 EQ PUSH2 0x8B2 JUMPI DUP1 PUSH4 0x6FCFFF45 EQ PUSH2 0x8E2 JUMPI DUP1 PUSH4 0x70A08231 EQ PUSH2 0x912 JUMPI PUSH2 0x412 JUMP JUMPDEST DUP1 PUSH4 0x56AFE744 EQ PUSH2 0x7CC JUMPI DUP1 PUSH4 0x587CDE1E EQ PUSH2 0x7E8 JUMPI DUP1 PUSH4 0x5C19A95C EQ PUSH2 0x818 JUMPI DUP1 PUSH4 0x5F5B0C32 EQ PUSH2 0x834 JUMPI PUSH2 0x412 JUMP JUMPDEST DUP1 PUSH4 0x461F711C GT PUSH2 0x2F5 JUMPI DUP1 PUSH4 0x461F711C EQ PUSH2 0x726 JUMPI DUP1 PUSH4 0x46C96AAC EQ PUSH2 0x756 JUMPI DUP1 PUSH4 0x4BC2A657 EQ PUSH2 0x774 JUMPI DUP1 PUSH4 0x54FD4D50 EQ PUSH2 0x790 JUMPI DUP1 PUSH4 0x5594A045 EQ PUSH2 0x7AE JUMPI PUSH2 0x412 JUMP JUMPDEST DUP1 PUSH4 0x313CE567 EQ PUSH2 0x68C JUMPI DUP1 PUSH4 0x3A46B1A8 EQ PUSH2 0x6AA JUMPI DUP1 PUSH4 0x42842E0E EQ PUSH2 0x6DA JUMPI DUP1 PUSH4 0x430C2081 EQ PUSH2 0x6F6 JUMPI PUSH2 0x412 JUMP JUMPDEST DUP1 PUSH4 0x1376F3DA GT PUSH2 0x3A9 JUMPI DUP1 PUSH4 0x23B872DD GT PUSH2 0x378 JUMPI DUP1 PUSH4 0x23B872DD EQ PUSH2 0x5EA JUMPI DUP1 PUSH4 0x25A58B56 EQ PUSH2 0x606 JUMPI DUP1 PUSH4 0x2E1A7D4D EQ PUSH2 0x624 JUMPI DUP1 PUSH4 0x2E720F7D EQ PUSH2 0x640 JUMPI DUP1 PUSH4 0x2F745C59 EQ PUSH2 0x65C JUMPI PUSH2 0x412 JUMP JUMPDEST DUP1 PUSH4 0x1376F3DA EQ PUSH2 0x54B JUMPI DUP1 PUSH4 0x18160DDD EQ PUSH2 0x57E JUMPI DUP1 PUSH4 0x1C984BC3 EQ PUSH2 0x59C JUMPI DUP1 PUSH4 0x20606B70 EQ PUSH2 0x5CC JUMPI PUSH2 0x412 JUMP JUMPDEST DUP1 PUSH4 0x81812FC GT PUSH2 0x3E5 JUMPI DUP1 PUSH4 0x81812FC EQ PUSH2 0x4B3 JUMPI DUP1 PUSH4 0x95CF5C6 EQ PUSH2 0x4E3 JUMPI DUP1 PUSH4 0x95EA7B3 EQ PUSH2 0x4FF JUMPI DUP1 PUSH4 0xD6A2033 EQ PUSH2 0x51B JUMPI PUSH2 0x412 JUMP JUMPDEST DUP1 PUSH4 0x1FFC9A7 EQ PUSH2 0x417 JUMPI DUP1 PUSH4 0x47FC9AA EQ PUSH2 0x447 JUMPI DUP1 PUSH4 0x6FDDE03 EQ PUSH2 0x465 JUMPI DUP1 PUSH4 0x758C7D8 EQ PUSH2 0x483 JUMPI JUMPDEST PUSH1 0x0 DUP1 REVERT JUMPDEST PUSH2 0x431 PUSH1 0x4 DUP1 CALLDATASIZE SUB DUP2 ADD SWAP1 PUSH2 0x42C SWAP2 SWAP1 PUSH2 0x68FD JUMP JUMPDEST PUSH2 0xE7A JUMP JUMPDEST PUSH1 0x40 MLOAD PUSH2 0x43E SWAP2 SWAP1 PUSH2 0x6945 JUMP JUMPDEST PUSH1 0x40 MLOAD DUP1 SWAP2 SUB SWAP1 RETURN JUMPDEST PUSH2 0x44F PUSH2 0xEE2 JUMP JUMPDEST PUSH1 0x40 MLOAD PUSH2 0x45C SWAP2 SWAP1 PUSH2 0x6979 JUMP JUMPDEST PUSH1 0x40 MLOAD DUP1 SWAP2 SUB SWAP1 RETURN JUMPDEST PUSH2 0x46D PUSH2 0xEE8 JUMP JUMPDEST PUSH1 0x40 MLOAD PUSH2 0x47A SWAP2 SWAP1 PUSH2 0x6A2D JUMP JUMPDEST PUSH1 0x40 MLOAD DUP1 SWAP2 SUB SWAP1 RETURN JUMPDEST PUSH2 0x49D PUSH1 0x4 DUP1 CALLDATASIZE SUB DUP2 ADD SWAP1 PUSH2 0x498 SWAP2 SWAP1 PUSH2 0x6AD9 JUMP JUMPDEST PUSH2 0xF21 JUMP JUMPDEST PUSH1 0x40 MLOAD PUSH2 0x4AA SWAP2 SWAP1 PUSH2 0x6B38 JUMP JUMPDEST PUSH1 0x40 MLOAD DUP1 SWAP2 SUB SWAP1 RETURN JUMPDEST PUSH2 0x4CD PUSH1 0x4 DUP1 CALLDATASIZE SUB DUP2 ADD SWAP1 PUSH2 0x4C8 SWAP2 SWAP1 PUSH2 0x6B53 JUMP JUMPDEST PUSH2 0x117E JUMP JUMPDEST PUSH1 0x40 MLOAD PUSH2 0x4DA SWAP2 SWAP1 PUSH2 0x6B8F JUMP JUMPDEST PUSH1 0x40 MLOAD DUP1 SWAP2 SUB SWAP1 RETURN JUMPDEST PUSH2 0x4FD PUSH1 0x4 DUP1 CALLDATASIZE SUB DUP2 ADD SWAP1 PUSH2 0x4F8 SWAP2 SWAP1 PUSH2 0x6BAA JUMP JUMPDEST PUSH2 0x11BB JUMP JUMPDEST STOP JUMPDEST PUSH2 0x519 PUSH1 0x4 DUP1 CALLDATASIZE SUB DUP2 ADD SWAP1 PUSH2 0x514 SWAP2 SWAP1 PUSH2 0x6AD9 JUMP JUMPDEST PUSH2 0x1259 JUMP JUMPDEST STOP JUMPDEST PUSH2 0x535 PUSH1 0x4 DUP1 CALLDATASIZE SUB DUP2 ADD SWAP1 PUSH2 0x530 SWAP2 SWAP1 PUSH2 0x6B53 JUMP JUMPDEST PUSH2 0x14BC JUMP JUMPDEST PUSH1 0x40 MLOAD PUSH2 0x542 SWAP2 SWAP1 PUSH2 0x6979 JUMP JUMPDEST PUSH1 0x40 MLOAD DUP1 SWAP2 SUB SWAP1 RETURN JUMPDEST PUSH2 0x565 PUSH1 0x4 DUP1 CALLDATASIZE SUB DUP2 ADD SWAP1 PUSH2 0x560 SWAP2 SWAP1 PUSH2 0x6BD7 JUMP JUMPDEST PUSH2 0x14D4 JUMP JUMPDEST PUSH1 0x40 MLOAD PUSH2 0x575 SWAP5 SWAP4 SWAP3 SWAP2 SWAP1 PUSH2 0x6C33 JUMP JUMPDEST PUSH1 0x40 MLOAD DUP1 SWAP2 SUB SWAP1 RETURN JUMPDEST PUSH2 0x586 PUSH2 0x1534 JUMP JUMPDEST PUSH1 0x40 MLOAD PUSH2 0x593 SWAP2 SWAP1 PUSH2 0x6979 JUMP JUMPDEST PUSH1 0x40 MLOAD DUP1 SWAP2 SUB SWAP1 RETURN JUMPDEST PUSH2 0x5B6 PUSH1 0x4 DUP1 CALLDATASIZE SUB DUP2 ADD SWAP1 PUSH2 0x5B1 SWAP2 SWAP1 PUSH2 0x6BD7 JUMP JUMPDEST PUSH2 0x1544 JUMP JUMPDEST PUSH1 0x40 MLOAD PUSH2 0x5C3 SWAP2 SWAP1 PUSH2 0x6979 JUMP JUMPDEST PUSH1 0x40 MLOAD DUP1 SWAP2 SUB SWAP1 RETURN JUMPDEST PUSH2 0x5D4 PUSH2 0x157E JUMP JUMPDEST PUSH1 0x40 MLOAD PUSH2 0x5E1 SWAP2 SWAP1 PUSH2 0x6C91 JUMP JUMPDEST PUSH1 0x40 MLOAD DUP1 SWAP2 SUB SWAP1 RETURN JUMPDEST PUSH2 0x604 PUSH1 0x4 DUP1 CALLDATASIZE SUB DUP2 ADD SWAP1 PUSH2 0x5FF SWAP2 SWAP1 PUSH2 0x6CAC JUMP JUMPDEST PUSH2 0x15A2 JUMP JUMPDEST STOP JUMPDEST PUSH2 0x60E PUSH2 0x15B3 JUMP JUMPDEST PUSH1 0x40 MLOAD PUSH2 0x61B SWAP2 SWAP1 PUSH2 0x6979 JUMP JUMPDEST PUSH1 0x40 MLOAD DUP1 SWAP2 SUB SWAP1 RETURN JUMPDEST PUSH2 0x63E PUSH1 0x4 DUP1 CALLDATASIZE SUB DUP2 ADD SWAP1 PUSH2 0x639 SWAP2 SWAP1 PUSH2 0x6B53 JUMP JUMPDEST PUSH2 0x15BB JUMP JUMPDEST STOP JUMPDEST PUSH2 0x65A PUSH1 0x4 DUP1 CALLDATASIZE SUB DUP2 ADD SWAP1 PUSH2 0x655 SWAP2 SWAP1 PUSH2 0x6BAA JUMP JUMPDEST PUSH2 0x1951 JUMP JUMPDEST STOP JUMPDEST PUSH2 0x676 PUSH1 0x4 DUP1 CALLDATASIZE SUB DUP2 ADD SWAP1 PUSH2 0x671 SWAP2 SWAP1 PUSH2 0x6AD9 JUMP JUMPDEST PUSH2 0x19EF JUMP JUMPDEST PUSH1 0x40 MLOAD PUSH2 0x683 SWAP2 SWAP1 PUSH2 0x6979 JUMP JUMPDEST PUSH1 0x40 MLOAD DUP1 SWAP2 SUB SWAP1 RETURN JUMPDEST PUSH2 0x694 PUSH2 0x1A4A JUMP JUMPDEST PUSH1 0x40 MLOAD PUSH2 0x6A1 SWAP2 SWAP1 PUSH2 0x6D1B JUMP JUMPDEST PUSH1 0x40 MLOAD DUP1 SWAP2 SUB SWAP1 RETURN JUMPDEST PUSH2 0x6C4 PUSH1 0x4 DUP1 CALLDATASIZE SUB DUP2 ADD SWAP1 PUSH2 0x6BF SWAP2 SWAP1 PUSH2 0x6AD9 JUMP JUMPDEST PUSH2 0x1A4F JUMP JUMPDEST PUSH1 0x40 MLOAD PUSH2 0x6D1 SWAP2 SWAP1 PUSH2 0x6979 JUMP JUMPDEST PUSH1 0x40 MLOAD DUP1 SWAP2 SUB SWAP1 RETURN JUMPDEST PUSH2 0x6F4 PUSH1 0x4 DUP1 CALLDATASIZE SUB DUP2 ADD SWAP1 PUSH2 0x6EF SWAP2 SWAP1 PUSH2 0x6CAC JUMP JUMPDEST PUSH2 0x1B2B JUMP JUMPDEST STOP JUMPDEST PUSH2 0x710 PUSH1 0x4 DUP1 CALLDATASIZE SUB DUP2 ADD SWAP1 PUSH2 0x70B SWAP2 SWAP1 PUSH2 0x6AD9 JUMP JUMPDEST PUSH2 0x1B4B JUMP JUMPDEST PUSH1 0x40 MLOAD PUSH2 0x71D SWAP2 SWAP1 PUSH2 0x6945 JUMP JUMPDEST PUSH1 0x40 MLOAD DUP1 SWAP2 SUB SWAP1 RETURN JUMPDEST PUSH2 0x740 PUSH1 0x4 DUP1 CALLDATASIZE SUB DUP2 ADD SWAP1 PUSH2 0x73B SWAP2 SWAP1 PUSH2 0x6B53 JUMP JUMPDEST PUSH2 0x1B5F JUMP JUMPDEST PUSH1 0x40 MLOAD PUSH2 0x74D SWAP2 SWAP1 PUSH2 0x6D36 JUMP JUMPDEST PUSH1 0x40 MLOAD DUP1 SWAP2 SUB SWAP1 RETURN JUMPDEST PUSH2 0x75E PUSH2 0x1BBD JUMP JUMPDEST PUSH1 0x40 MLOAD PUSH2 0x76B SWAP2 SWAP1 PUSH2 0x6B8F JUMP JUMPDEST PUSH1 0x40 MLOAD DUP1 SWAP2 SUB SWAP1 RETURN JUMPDEST PUSH2 0x78E PUSH1 0x4 DUP1 CALLDATASIZE SUB DUP2 ADD SWAP1 PUSH2 0x789 SWAP2 SWAP1 PUSH2 0x6BAA JUMP JUMPDEST PUSH2 0x1BE1 JUMP JUMPDEST STOP JUMPDEST PUSH2 0x798 PUSH2 0x1C7E JUMP JUMPDEST PUSH1 0x40 MLOAD PUSH2 0x7A5 SWAP2 SWAP1 PUSH2 0x6A2D JUMP JUMPDEST PUSH1 0x40 MLOAD DUP1 SWAP2 SUB SWAP1 RETURN JUMPDEST PUSH2 0x7B6 PUSH2 0x1CB7 JUMP JUMPDEST PUSH1 0x40 MLOAD PUSH2 0x7C3 SWAP2 SWAP1 PUSH2 0x6B8F JUMP JUMPDEST PUSH1 0x40 MLOAD DUP1 SWAP2 SUB SWAP1 RETURN JUMPDEST PUSH2 0x7E6 PUSH1 0x4 DUP1 CALLDATASIZE SUB DUP2 ADD SWAP1 PUSH2 0x7E1 SWAP2 SWAP1 PUSH2 0x6E99 JUMP JUMPDEST PUSH2 0x1CDD JUMP JUMPDEST STOP JUMPDEST PUSH2 0x802 PUSH1 0x4 DUP1 CALLDATASIZE SUB DUP2 ADD SWAP1 PUSH2 0x7FD SWAP2 SWAP1 PUSH2 0x6BAA JUMP JUMPDEST PUSH2 0x2092 JUMP JUMPDEST PUSH1 0x40 MLOAD PUSH2 0x80F SWAP2 SWAP1 PUSH2 0x6B8F JUMP JUMPDEST PUSH1 0x40 MLOAD DUP1 SWAP2 SUB SWAP1 RETURN JUMPDEST PUSH2 0x832 PUSH1 0x4 DUP1 CALLDATASIZE SUB DUP2 ADD SWAP1 PUSH2 0x82D SWAP2 SWAP1 PUSH2 0x6BAA JUMP JUMPDEST PUSH2 0x213B JUMP JUMPDEST STOP JUMPDEST PUSH2 0x83C PUSH2 0x2180 JUMP JUMPDEST PUSH1 0x40 MLOAD PUSH2 0x849 SWAP2 SWAP1 PUSH2 0x6979 JUMP JUMPDEST PUSH1 0x40 MLOAD DUP1 SWAP2 SUB SWAP1 RETURN JUMPDEST PUSH2 0x86C PUSH1 0x4 DUP1 CALLDATASIZE SUB DUP2 ADD SWAP1 PUSH2 0x867 SWAP2 SWAP1 PUSH2 0x6B53 JUMP JUMPDEST PUSH2 0x2186 JUMP JUMPDEST PUSH1 0x40 MLOAD PUSH2 0x879 SWAP2 SWAP1 PUSH2 0x6B8F JUMP JUMPDEST PUSH1 0x40 MLOAD DUP1 SWAP2 SUB SWAP1 RETURN JUMPDEST PUSH2 0x89C PUSH1 0x4 DUP1 CALLDATASIZE SUB DUP2 ADD SWAP1 PUSH2 0x897 SWAP2 SWAP1 PUSH2 0x6BD7 JUMP JUMPDEST PUSH2 0x21C3 JUMP JUMPDEST PUSH1 0x40 MLOAD PUSH2 0x8A9 SWAP2 SWAP1 PUSH2 0x6979 JUMP JUMPDEST PUSH1 0x40 MLOAD DUP1 SWAP2 SUB SWAP1 RETURN JUMPDEST PUSH2 0x8CC PUSH1 0x4 DUP1 CALLDATASIZE SUB DUP2 ADD SWAP1 PUSH2 0x8C7 SWAP2 SWAP1 PUSH2 0x6B53 JUMP JUMPDEST PUSH2 0x2232 JUMP JUMPDEST PUSH1 0x40 MLOAD PUSH2 0x8D9 SWAP2 SWAP1 PUSH2 0x6979 JUMP JUMPDEST PUSH1 0x40 MLOAD DUP1 SWAP2 SUB SWAP1 RETURN JUMPDEST PUSH2 0x8FC PUSH1 0x4 DUP1 CALLDATASIZE SUB DUP2 ADD SWAP1 PUSH2 0x8F7 SWAP2 SWAP1 PUSH2 0x6BAA JUMP JUMPDEST PUSH2 0x224A JUMP JUMPDEST PUSH1 0x40 MLOAD PUSH2 0x909 SWAP2 SWAP1 PUSH2 0x6B38 JUMP JUMPDEST PUSH1 0x40 MLOAD DUP1 SWAP2 SUB SWAP1 RETURN JUMPDEST PUSH2 0x92C PUSH1 0x4 DUP1 CALLDATASIZE SUB DUP2 ADD SWAP1 PUSH2 0x927 SWAP2 SWAP1 PUSH2 0x6BAA JUMP JUMPDEST PUSH2 0x226D JUMP JUMPDEST PUSH1 0x40 MLOAD PUSH2 0x939 SWAP2 SWAP1 PUSH2 0x6979 JUMP JUMPDEST PUSH1 0x40 MLOAD DUP1 SWAP2 SUB SWAP1 RETURN JUMPDEST PUSH2 0x95C PUSH1 0x4 DUP1 CALLDATASIZE SUB DUP2 ADD SWAP1 PUSH2 0x957 SWAP2 SWAP1 PUSH2 0x6B53 JUMP JUMPDEST PUSH2 0x227F JUMP JUMPDEST PUSH1 0x40 MLOAD PUSH2 0x969 SWAP2 SWAP1 PUSH2 0x6979 JUMP JUMPDEST PUSH1 0x40 MLOAD DUP1 SWAP2 SUB SWAP1 RETURN JUMPDEST PUSH2 0x98C PUSH1 0x4 DUP1 CALLDATASIZE SUB DUP2 ADD SWAP1 PUSH2 0x987 SWAP2 SWAP1 PUSH2 0x6B53 JUMP JUMPDEST PUSH2 0x230A JUMP JUMPDEST PUSH1 0x40 MLOAD PUSH2 0x999 SWAP2 SWAP1 PUSH2 0x6D36 JUMP JUMPDEST PUSH1 0x40 MLOAD DUP1 SWAP2 SUB SWAP1 RETURN JUMPDEST PUSH2 0x9BC PUSH1 0x4 DUP1 CALLDATASIZE SUB DUP2 ADD SWAP1 PUSH2 0x9B7 SWAP2 SWAP1 PUSH2 0x6BAA JUMP JUMPDEST PUSH2 0x232A JUMP JUMPDEST PUSH1 0x40 MLOAD PUSH2 0x9C9 SWAP2 SWAP1 PUSH2 0x6979 JUMP JUMPDEST PUSH1 0x40 MLOAD DUP1 SWAP2 SUB SWAP1 RETURN JUMPDEST PUSH2 0x9DA PUSH2 0x2342 JUMP JUMPDEST PUSH1 0x40 MLOAD PUSH2 0x9E7 SWAP2 SWAP1 PUSH2 0x6B8F JUMP JUMPDEST PUSH1 0x40 MLOAD DUP1 SWAP2 SUB SWAP1 RETURN JUMPDEST PUSH2 0xA0A PUSH1 0x4 DUP1 CALLDATASIZE SUB DUP2 ADD SWAP1 PUSH2 0xA05 SWAP2 SWAP1 PUSH2 0x6BD7 JUMP JUMPDEST PUSH2 0x2368 JUMP JUMPDEST PUSH1 0x40 MLOAD PUSH2 0xA17 SWAP2 SWAP1 PUSH2 0x6979 JUMP JUMPDEST PUSH1 0x40 MLOAD DUP1 SWAP2 SUB SWAP1 RETURN JUMPDEST PUSH2 0xA3A PUSH1 0x4 DUP1 CALLDATASIZE SUB DUP2 ADD SWAP1 PUSH2 0xA35 SWAP2 SWAP1 PUSH2 0x6B53 JUMP JUMPDEST PUSH2 0x237C JUMP JUMPDEST PUSH1 0x40 MLOAD PUSH2 0xA47 SWAP2 SWAP1 PUSH2 0x6979 JUMP JUMPDEST PUSH1 0x40 MLOAD DUP1 SWAP2 SUB SWAP1 RETURN JUMPDEST PUSH2 0xA6A PUSH1 0x4 DUP1 CALLDATASIZE SUB DUP2 ADD SWAP1 PUSH2 0xA65 SWAP2 SWAP1 PUSH2 0x6B53 JUMP JUMPDEST PUSH2 0x238E JUMP JUMPDEST PUSH1 0x40 MLOAD PUSH2 0xA77 SWAP2 SWAP1 PUSH2 0x6945 JUMP JUMPDEST PUSH1 0x40 MLOAD DUP1 SWAP2 SUB SWAP1 RETURN JUMPDEST PUSH2 0xA88 PUSH2 0x23AE JUMP JUMPDEST PUSH1 0x40 MLOAD PUSH2 0xA95 SWAP2 SWAP1 PUSH2 0x6979 JUMP JUMPDEST PUSH1 0x40 MLOAD DUP1 SWAP2 SUB SWAP1 RETURN JUMPDEST PUSH2 0xAA6 PUSH2 0x23B4 JUMP JUMPDEST PUSH1 0x40 MLOAD PUSH2 0xAB3 SWAP2 SWAP1 PUSH2 0x6A2D JUMP JUMPDEST PUSH1 0x40 MLOAD DUP1 SWAP2 SUB SWAP1 RETURN JUMPDEST PUSH2 0xAD6 PUSH1 0x4 DUP1 CALLDATASIZE SUB DUP2 ADD SWAP1 PUSH2 0xAD1 SWAP2 SWAP1 PUSH2 0x6B53 JUMP JUMPDEST PUSH2 0x23ED JUMP JUMPDEST PUSH1 0x40 MLOAD PUSH2 0xAE3 SWAP2 SWAP1 PUSH2 0x6979 JUMP JUMPDEST PUSH1 0x40 MLOAD DUP1 SWAP2 SUB SWAP1 RETURN JUMPDEST PUSH2 0xB06 PUSH1 0x4 DUP1 CALLDATASIZE SUB DUP2 ADD SWAP1 PUSH2 0xB01 SWAP2 SWAP1 PUSH2 0x6B53 JUMP JUMPDEST PUSH2 0x25E6 JUMP JUMPDEST STOP JUMPDEST PUSH2 0xB22 PUSH1 0x4 DUP1 CALLDATASIZE SUB DUP2 ADD SWAP1 PUSH2 0xB1D SWAP2 SWAP1 PUSH2 0x6BAA JUMP JUMPDEST PUSH2 0x2678 JUMP JUMPDEST PUSH1 0x40 MLOAD PUSH2 0xB2F SWAP2 SWAP1 PUSH2 0x6979 JUMP JUMPDEST PUSH1 0x40 MLOAD DUP1 SWAP2 SUB SWAP1 RETURN JUMPDEST PUSH2 0xB52 PUSH1 0x4 DUP1 CALLDATASIZE SUB DUP2 ADD SWAP1 PUSH2 0xB4D SWAP2 SWAP1 PUSH2 0x6BD7 JUMP JUMPDEST PUSH2 0x27BE JUMP JUMPDEST STOP JUMPDEST PUSH2 0xB6E PUSH1 0x4 DUP1 CALLDATASIZE SUB DUP2 ADD SWAP1 PUSH2 0xB69 SWAP2 SWAP1 PUSH2 0x6F21 JUMP JUMPDEST PUSH2 0x292D JUMP JUMPDEST STOP JUMPDEST PUSH2 0xB8A PUSH1 0x4 DUP1 CALLDATASIZE SUB DUP2 ADD SWAP1 PUSH2 0xB85 SWAP2 SWAP1 PUSH2 0x6BD7 JUMP JUMPDEST PUSH2 0x2A66 JUMP JUMPDEST STOP JUMPDEST PUSH2 0xBA6 PUSH1 0x4 DUP1 CALLDATASIZE SUB DUP2 ADD SWAP1 PUSH2 0xBA1 SWAP2 SWAP1 PUSH2 0x6B53 JUMP JUMPDEST PUSH2 0x2C86 JUMP JUMPDEST PUSH1 0x40 MLOAD PUSH2 0xBB4 SWAP3 SWAP2 SWAP1 PUSH2 0x6F61 JUMP JUMPDEST PUSH1 0x40 MLOAD DUP1 SWAP2 SUB SWAP1 RETURN JUMPDEST PUSH2 0xBD7 PUSH1 0x4 DUP1 CALLDATASIZE SUB DUP2 ADD SWAP1 PUSH2 0xBD2 SWAP2 SWAP1 PUSH2 0x703F JUMP JUMPDEST PUSH2 0x2CB7 JUMP JUMPDEST STOP JUMPDEST PUSH2 0xBF3 PUSH1 0x4 DUP1 CALLDATASIZE SUB DUP2 ADD SWAP1 PUSH2 0xBEE SWAP2 SWAP1 PUSH2 0x6B53 JUMP JUMPDEST PUSH2 0x2E5D JUMP JUMPDEST STOP JUMPDEST PUSH2 0xBFD PUSH2 0x2EE4 JUMP JUMPDEST STOP JUMPDEST PUSH2 0xC19 PUSH1 0x4 DUP1 CALLDATASIZE SUB DUP2 ADD SWAP1 PUSH2 0xC14 SWAP2 SWAP1 PUSH2 0x711A JUMP JUMPDEST PUSH2 0x2F24 JUMP JUMPDEST STOP JUMPDEST PUSH2 0xC35 PUSH1 0x4 DUP1 CALLDATASIZE SUB DUP2 ADD SWAP1 PUSH2 0xC30 SWAP2 SWAP1 PUSH2 0x6B53 JUMP JUMPDEST PUSH2 0x328E JUMP JUMPDEST PUSH1 0x40 MLOAD PUSH2 0xC42 SWAP2 SWAP1 PUSH2 0x6A2D JUMP JUMPDEST PUSH1 0x40 MLOAD DUP1 SWAP2 SUB SWAP1 RETURN JUMPDEST PUSH2 0xC65 PUSH1 0x4 DUP1 CALLDATASIZE SUB DUP2 ADD SWAP1 PUSH2 0xC60 SWAP2 SWAP1 PUSH2 0x6BD7 JUMP JUMPDEST PUSH2 0x343E JUMP JUMPDEST STOP JUMPDEST PUSH2 0xC81 PUSH1 0x4 DUP1 CALLDATASIZE SUB DUP2 ADD SWAP1 PUSH2 0xC7C SWAP2 SWAP1 PUSH2 0x6B53 JUMP JUMPDEST PUSH2 0x3671 JUMP JUMPDEST PUSH1 0x40 MLOAD PUSH2 0xC91 SWAP5 SWAP4 SWAP3 SWAP2 SWAP1 PUSH2 0x6C33 JUMP JUMPDEST PUSH1 0x40 MLOAD DUP1 SWAP2 SUB SWAP1 RETURN JUMPDEST PUSH2 0xCB4 PUSH1 0x4 DUP1 CALLDATASIZE SUB DUP2 ADD SWAP1 PUSH2 0xCAF SWAP2 SWAP1 PUSH2 0x71A7 JUMP JUMPDEST PUSH2 0x36BB JUMP JUMPDEST PUSH1 0x40 MLOAD PUSH2 0xCC1 SWAP2 SWAP1 PUSH2 0x6979 JUMP JUMPDEST PUSH1 0x40 MLOAD DUP1 SWAP2 SUB SWAP1 RETURN JUMPDEST PUSH2 0xCE4 PUSH1 0x4 DUP1 CALLDATASIZE SUB DUP2 ADD SWAP1 PUSH2 0xCDF SWAP2 SWAP1 PUSH2 0x6BD7 JUMP JUMPDEST PUSH2 0x372B JUMP JUMPDEST PUSH1 0x40 MLOAD PUSH2 0xCF1 SWAP2 SWAP1 PUSH2 0x6979 JUMP JUMPDEST PUSH1 0x40 MLOAD DUP1 SWAP2 SUB SWAP1 RETURN JUMPDEST PUSH2 0xD14 PUSH1 0x4 DUP1 CALLDATASIZE SUB DUP2 ADD SWAP1 PUSH2 0xD0F SWAP2 SWAP1 PUSH2 0x6B53 JUMP JUMPDEST PUSH2 0x373F JUMP JUMPDEST PUSH1 0x40 MLOAD PUSH2 0xD21 SWAP2 SWAP1 PUSH2 0x6979 JUMP JUMPDEST PUSH1 0x40 MLOAD DUP1 SWAP2 SUB SWAP1 RETURN JUMPDEST PUSH2 0xD32 PUSH2 0x3757 JUMP JUMPDEST PUSH1 0x40 MLOAD PUSH2 0xD3F SWAP2 SWAP1 PUSH2 0x6C91 JUMP JUMPDEST PUSH1 0x40 MLOAD DUP1 SWAP2 SUB SWAP1 RETURN JUMPDEST PUSH2 0xD62 PUSH1 0x4 DUP1 CALLDATASIZE SUB DUP2 ADD SWAP1 PUSH2 0xD5D SWAP2 SWAP1 PUSH2 0x6B53 JUMP JUMPDEST PUSH2 0x377B JUMP JUMPDEST PUSH1 0x40 MLOAD PUSH2 0xD6F SWAP2 SWAP1 PUSH2 0x6979 JUMP JUMPDEST PUSH1 0x40 MLOAD DUP1 SWAP2 SUB SWAP1 RETURN JUMPDEST PUSH2 0xD92 PUSH1 0x4 DUP1 CALLDATASIZE SUB DUP2 ADD SWAP1 PUSH2 0xD8D SWAP2 SWAP1 PUSH2 0x71FA JUMP JUMPDEST PUSH2 0x37B2 JUMP JUMPDEST PUSH1 0x40 MLOAD PUSH2 0xD9F SWAP2 SWAP1 PUSH2 0x6945 JUMP JUMPDEST PUSH1 0x40 MLOAD DUP1 SWAP2 SUB SWAP1 RETURN JUMPDEST PUSH2 0xDC2 PUSH1 0x4 DUP1 CALLDATASIZE SUB DUP2 ADD SWAP1 PUSH2 0xDBD SWAP2 SWAP1 PUSH2 0x6BD7 JUMP JUMPDEST PUSH2 0x3846 JUMP JUMPDEST STOP JUMPDEST PUSH2 0xDDE PUSH1 0x4 DUP1 CALLDATASIZE SUB DUP2 ADD SWAP1 PUSH2 0xDD9 SWAP2 SWAP1 PUSH2 0x7266 JUMP JUMPDEST PUSH2 0x399A JUMP JUMPDEST PUSH1 0x40 MLOAD PUSH2 0xDEB SWAP2 SWAP1 PUSH2 0x6979 JUMP JUMPDEST PUSH1 0x40 MLOAD DUP1 SWAP2 SUB SWAP1 RETURN JUMPDEST PUSH2 0xE0E PUSH1 0x4 DUP1 CALLDATASIZE SUB DUP2 ADD SWAP1 PUSH2 0xE09 SWAP2 SWAP1 PUSH2 0x6B53 JUMP JUMPDEST PUSH2 0x39C5 JUMP JUMPDEST PUSH1 0x40 MLOAD PUSH2 0xE1B SWAP2 SWAP1 PUSH2 0x6979 JUMP JUMPDEST PUSH1 0x40 MLOAD DUP1 SWAP2 SUB SWAP1 RETURN JUMPDEST PUSH2 0xE3E PUSH1 0x4 DUP1 CALLDATASIZE SUB DUP2 ADD SWAP1 PUSH2 0xE39 SWAP2 SWAP1 PUSH2 0x6B53 JUMP JUMPDEST PUSH2 0x39E5 JUMP JUMPDEST STOP JUMPDEST PUSH2 0xE48 PUSH2 0x3A77 JUMP JUMPDEST PUSH1 0x40 MLOAD PUSH2 0xE55 SWAP2 SWAP1 PUSH2 0x6B8F JUMP JUMPDEST PUSH1 0x40 MLOAD DUP1 SWAP2 SUB SWAP1 RETURN JUMPDEST PUSH2 0xE78 PUSH1 0x4 DUP1 CALLDATASIZE SUB DUP2 ADD SWAP1 PUSH2 0xE73 SWAP2 SWAP1 PUSH2 0x6B53 JUMP JUMPDEST PUSH2 0x3A9B JUMP JUMPDEST STOP JUMPDEST PUSH1 0x0 PUSH1 0x4 PUSH1 0x0 DUP4 PUSH28 0xFFFFFFFFFFFFFFFFFFFFFFFFFFFFFFFFFFFFFFFFFFFFFFFFFFFFFFFF NOT AND PUSH28 0xFFFFFFFFFFFFFFFFFFFFFFFFFFFFFFFFFFFFFFFFFFFFFFFFFFFFFFFF NOT AND DUP2 MSTORE PUSH1 0x20 ADD SWAP1 DUP2 MSTORE PUSH1 0x20 ADD PUSH1 0x0 KECCAK256 PUSH1 0x0 SWAP1 SLOAD SWAP1 PUSH2 0x100 EXP SWAP1 DIV PUSH1 0xFF AND SWAP1 POP SWAP2 SWAP1 POP JUMP JUMPDEST PUSH1 0x13 SLOAD DUP2 JUMP JUMPDEST PUSH1 0x40 MLOAD DUP1 PUSH1 0x40 ADD PUSH1 0x40 MSTORE DUP1 PUSH1 0x7 DUP2 MSTORE PUSH1 0x20 ADD PUSH32 0x76655468656E6100000000000000000000000000000000000000000000000000 DUP2 MSTORE POP DUP2 JUMP JUMPDEST PUSH1 0x0 DUP1 PUSH1 0x18 PUSH1 0x0 DUP6 PUSH20 0xFFFFFFFFFFFFFFFFFFFFFFFFFFFFFFFFFFFFFFFF AND PUSH20 0xFFFFFFFFFFFFFFFFFFFFFFFFFFFFFFFFFFFFFFFF AND DUP2 MSTORE PUSH1 0x20 ADD SWAP1 DUP2 MSTORE PUSH1 0x20 ADD PUSH1 0x0 KECCAK256 PUSH1 0x0 SWAP1 SLOAD SWAP1 PUSH2 0x100 EXP SWAP1 DIV PUSH4 0xFFFFFFFF AND SWAP1 POP PUSH1 0x0 DUP2 PUSH4 0xFFFFFFFF AND SUB PUSH2 0xF8E JUMPI PUSH1 0x0 SWAP2 POP POP PUSH2 0x1178 JUMP JUMPDEST DUP3 PUSH1 0x17 PUSH1 0x0 DUP7 PUSH20 0xFFFFFFFFFFFFFFFFFFFFFFFFFFFFFFFFFFFFFFFF AND PUSH20 0xFFFFFFFFFFFFFFFFFFFFFFFFFFFFFFFFFFFFFFFF AND DUP2 MSTORE PUSH1 0x20 ADD SWAP1 DUP2 MSTORE PUSH1 0x20 ADD PUSH1 0x0 KECCAK256 PUSH1 0x0 PUSH1 0x1 DUP5 PUSH2 0xFDD SWAP2 SWAP1 PUSH2 0x72D5 JUMP JUMPDEST PUSH4 0xFFFFFFFF AND PUSH4 0xFFFFFFFF AND DUP2 MSTORE PUSH1 0x20 ADD SWAP1 DUP2 MSTORE PUSH1 0x20 ADD PUSH1 0x0 KECCAK256 PUSH1 0x0 ADD SLOAD GT PUSH2 0x1015 JUMPI PUSH1 0x1 DUP2 PUSH2 0x100D SWAP2 SWAP1 PUSH2 0x72D5 JUMP JUMPDEST SWAP2 POP POP PUSH2 0x1178 JUMP JUMPDEST DUP3 PUSH1 0x17 PUSH1 0x0 DUP7 PUSH20 0xFFFFFFFFFFFFFFFFFFFFFFFFFFFFFFFFFFFFFFFF AND PUSH20 0xFFFFFFFFFFFFFFFFFFFFFFFFFFFFFFFFFFFFFFFF AND DUP2 MSTORE PUSH1 0x20 ADD SWAP1 DUP2 MSTORE PUSH1 0x20 ADD PUSH1 0x0 KECCAK256 PUSH1 0x0 DUP1 PUSH4 0xFFFFFFFF AND DUP2 MSTORE PUSH1 0x20 ADD SWAP1 DUP2 MSTORE PUSH1 0x20 ADD PUSH1 0x0 KECCAK256 PUSH1 0x0 ADD SLOAD GT ISZERO PUSH2 0x1080 JUMPI PUSH1 0x0 SWAP2 POP POP PUSH2 0x1178 JUMP JUMPDEST PUSH1 0x0 DUP1 PUSH1 0x1 DUP4 PUSH2 0x1090 SWAP2 SWAP1 PUSH2 0x72D5 JUMP JUMPDEST SWAP1 POP JUMPDEST DUP2 PUSH4 0xFFFFFFFF AND DUP2 PUSH4 0xFFFFFFFF AND GT ISZERO PUSH2 0x1171 JUMPI PUSH1 0x0 PUSH1 0x2 DUP4 DUP4 PUSH2 0x10B7 SWAP2 SWAP1 PUSH2 0x72D5 JUMP JUMPDEST PUSH2 0x10C1 SWAP2 SWAP1 PUSH2 0x7338 JUMP JUMPDEST DUP3 PUSH2 0x10CC SWAP2 SWAP1 PUSH2 0x72D5 JUMP JUMPDEST SWAP1 POP PUSH1 0x0 PUSH1 0x17 PUSH1 0x0 DUP10 PUSH20 0xFFFFFFFFFFFFFFFFFFFFFFFFFFFFFFFFFFFFFFFF AND PUSH20 0xFFFFFFFFFFFFFFFFFFFFFFFFFFFFFFFFFFFFFFFF AND DUP2 MSTORE PUSH1 0x20 ADD SWAP1 DUP2 MSTORE PUSH1 0x20 ADD PUSH1 0x0 KECCAK256 PUSH1 0x0 DUP4 PUSH4 0xFFFFFFFF AND PUSH4 0xFFFFFFFF AND DUP2 MSTORE PUSH1 0x20 ADD SWAP1 DUP2 MSTORE PUSH1 0x20 ADD PUSH1 0x0 KECCAK256 SWAP1 POP DUP7 DUP2 PUSH1 0x0 ADD SLOAD SUB PUSH2 0x1146 JUMPI DUP2 SWAP6 POP POP POP POP POP POP PUSH2 0x1178 JUMP JUMPDEST DUP7 DUP2 PUSH1 0x0 ADD SLOAD LT ISZERO PUSH2 0x115A JUMPI DUP2 SWAP4 POP PUSH2 0x116A JUMP JUMPDEST PUSH1 0x1 DUP3 PUSH2 0x1167 SWAP2 SWAP1 PUSH2 0x72D5 JUMP JUMPDEST SWAP3 POP JUMPDEST POP POP PUSH2 0x1093 JUMP JUMPDEST DUP2 SWAP4 POP POP POP POP JUMPDEST SWAP3 SWAP2 POP POP JUMP JUMPDEST PUSH1 0x0 PUSH1 0x9 PUSH1 0x0 DUP4 DUP2 MSTORE PUSH1 0x20 ADD SWAP1 DUP2 MSTORE PUSH1 0x20 ADD PUSH1 0x0 KECCAK256 PUSH1 0x0 SWAP1 SLOAD SWAP1 PUSH2 0x100 EXP SWAP1 DIV PUSH20 0xFFFFFFFFFFFFFFFFFFFFFFFFFFFFFFFFFFFFFFFF AND SWAP1 POP SWAP2 SWAP1 POP JUMP JUMPDEST PUSH1 0x1 PUSH1 0x0 SWAP1 SLOAD SWAP1 PUSH2 0x100 EXP SWAP1 DIV PUSH20 0xFFFFFFFFFFFFFFFFFFFFFFFFFFFFFFFFFFFFFFFF AND PUSH20 0xFFFFFFFFFFFFFFFFFFFFFFFFFFFFFFFFFFFFFFFF AND CALLER PUSH20 0xFFFFFFFFFFFFFFFFFFFFFFFFFFFFFFFFFFFFFFFF AND EQ PUSH2 0x1215 JUMPI PUSH1 0x0 DUP1 REVERT JUMPDEST DUP1 PUSH1 0x1 PUSH1 0x0 PUSH2 0x100 EXP DUP2 SLOAD DUP2 PUSH20 0xFFFFFFFFFFFFFFFFFFFFFFFFFFFFFFFFFFFFFFFF MUL NOT AND SWAP1 DUP4 PUSH20 0xFFFFFFFFFFFFFFFFFFFFFFFFFFFFFFFFFFFFFFFF AND MUL OR SWAP1 SSTORE POP POP JUMP JUMPDEST PUSH1 0x0 PUSH1 0x7 PUSH1 0x0 DUP4 DUP2 MSTORE PUSH1 0x20 ADD SWAP1 DUP2 MSTORE PUSH1 0x20 ADD PUSH1 0x0 KECCAK256 PUSH1 0x0 SWAP1 SLOAD SWAP1 PUSH2 0x100 EXP SWAP1 DIV PUSH20 0xFFFFFFFFFFFFFFFFFFFFFFFFFFFFFFFFFFFFFFFF AND SWAP1 POP PUSH1 0x0 PUSH20 0xFFFFFFFFFFFFFFFFFFFFFFFFFFFFFFFFFFFFFFFF AND DUP2 PUSH20 0xFFFFFFFFFFFFFFFFFFFFFFFFFFFFFFFFFFFFFFFF AND SUB PUSH2 0x12CA JUMPI PUSH1 0x0 DUP1 REVERT JUMPDEST DUP1 PUSH20 0xFFFFFFFFFFFFFFFFFFFFFFFFFFFFFFFFFFFFFFFF AND DUP4 PUSH20 0xFFFFFFFFFFFFFFFFFFFFFFFFFFFFFFFFFFFFFFFF AND SUB PUSH2 0x1302 JUMPI PUSH1 0x0 DUP1 REVERT JUMPDEST PUSH1 0x0 CALLER PUSH20 0xFFFFFFFFFFFFFFFFFFFFFFFFFFFFFFFFFFFFFFFF AND PUSH1 0x7 PUSH1 0x0 DUP6 DUP2 MSTORE PUSH1 0x20 ADD SWAP1 DUP2 MSTORE PUSH1 0x20 ADD PUSH1 0x0 KECCAK256 PUSH1 0x0 SWAP1 SLOAD SWAP1 PUSH2 0x100 EXP SWAP1 DIV PUSH20 0xFFFFFFFFFFFFFFFFFFFFFFFFFFFFFFFFFFFFFFFF AND PUSH20 0xFFFFFFFFFFFFFFFFFFFFFFFFFFFFFFFFFFFFFFFF AND EQ SWAP1 POP PUSH1 0x0 PUSH1 0xA PUSH1 0x0 DUP5 PUSH20 0xFFFFFFFFFFFFFFFFFFFFFFFFFFFFFFFFFFFFFFFF AND PUSH20 0xFFFFFFFFFFFFFFFFFFFFFFFFFFFFFFFFFFFFFFFF AND DUP2 MSTORE PUSH1 0x20 ADD SWAP1 DUP2 MSTORE PUSH1 0x20 ADD PUSH1 0x0 KECCAK256 PUSH1 0x0 CALLER PUSH20 0xFFFFFFFFFFFFFFFFFFFFFFFFFFFFFFFFFFFFFFFF AND PUSH20 0xFFFFFFFFFFFFFFFFFFFFFFFFFFFFFFFFFFFFFFFF AND DUP2 MSTORE PUSH1 0x20 ADD SWAP1 DUP2 MSTORE PUSH1 0x20 ADD PUSH1 0x0 KECCAK256 PUSH1 0x0 SWAP1 SLOAD SWAP1 PUSH2 0x100 EXP SWAP1 DIV PUSH1 0xFF AND SWAP1 POP DUP2 DUP1 PUSH2 0x13FF JUMPI POP DUP1 JUMPDEST PUSH2 0x1408 JUMPI PUSH1 0x0 DUP1 REVERT JUMPDEST DUP5 PUSH1 0x9 PUSH1 0x0 DUP7 DUP2 MSTORE PUSH1 0x20 ADD SWAP1 DUP2 MSTORE PUSH1 0x20 ADD PUSH1 0x0 KECCAK256 PUSH1 0x0 PUSH2 0x100 EXP DUP2 SLOAD DUP2 PUSH20 0xFFFFFFFFFFFFFFFFFFFFFFFFFFFFFFFFFFFFFFFF MUL NOT AND SWAP1 DUP4 PUSH20 0xFFFFFFFFFFFFFFFFFFFFFFFFFFFFFFFFFFFFFFFF AND MUL OR SWAP1 SSTORE POP DUP4 DUP6 PUSH20 0xFFFFFFFFFFFFFFFFFFFFFFFFFFFFFFFFFFFFFFFF AND DUP5 PUSH20 0xFFFFFFFFFFFFFFFFFFFFFFFFFFFFFFFFFFFFFFFF AND PUSH32 0x8C5BE1E5EBEC7D5BD14F71427D1E84F3DD0314C0F7B2291E5B200AC8C7C3B925 PUSH1 0x40 MLOAD PUSH1 0x40 MLOAD DUP1 SWAP2 SUB SWAP1 LOG4 POP POP POP POP POP JUMP JUMPDEST PUSH1 0x14 PUSH1 0x20 MSTORE DUP1 PUSH1 0x0 MSTORE PUSH1 0x40 PUSH1 0x0 KECCAK256 PUSH1 0x0 SWAP2 POP SWAP1 POP SLOAD DUP2 JUMP JUMPDEST PUSH1 0xF PUSH1 0x20 MSTORE DUP2 PUSH1 0x0 MSTORE PUSH1 0x40 PUSH1 0x0 KECCAK256 DUP2 PUSH4 0x3B9ACA00 DUP2 LT PUSH2 0x14F3 JUMPI PUSH1 0x0 DUP1 REVERT JUMPDEST PUSH1 0x3 MUL ADD PUSH1 0x0 SWAP2 POP SWAP2 POP POP DUP1 PUSH1 0x0 ADD PUSH1 0x0 SWAP1 SLOAD SWAP1 PUSH2 0x100 EXP SWAP1 DIV PUSH1 0xF SIGNEXTEND SWAP1 DUP1 PUSH1 0x0 ADD PUSH1 0x10 SWAP1 SLOAD SWAP1 PUSH2 0x100 EXP SWAP1 DIV PUSH1 0xF SIGNEXTEND SWAP1 DUP1 PUSH1 0x1 ADD SLOAD SWAP1 DUP1 PUSH1 0x2 ADD SLOAD SWAP1 POP DUP5 JUMP JUMPDEST PUSH1 0x0 PUSH2 0x153F TIMESTAMP PUSH2 0x227F JUMP JUMPDEST SWAP1 POP SWAP1 JUMP JUMPDEST PUSH1 0x0 PUSH1 0xF PUSH1 0x0 DUP5 DUP2 MSTORE PUSH1 0x20 ADD SWAP1 DUP2 MSTORE PUSH1 0x20 ADD PUSH1 0x0 KECCAK256 DUP3 PUSH4 0x3B9ACA00 DUP2 LT PUSH2 0x156E JUMPI PUSH2 0x156D PUSH2 0x7369 JUMP JUMPDEST JUMPDEST PUSH1 0x3 MUL ADD PUSH1 0x1 ADD SLOAD SWAP1 POP SWAP3 SWAP2 POP POP JUMP JUMPDEST PUSH32 0x8CAD95687BA82C2CE50E74F7B754645E5117C3A5BEC8151C0726D5857980A866 DUP2 JUMP JUMPDEST PUSH2 0x15AE DUP4 DUP4 DUP4 CALLER PUSH2 0x3B22 JUMP JUMPDEST POP POP POP JUMP JUMPDEST PUSH1 0x0 NUMBER SWAP1 POP SWAP1 JUMP JUMPDEST PUSH1 0x1 PUSH1 0xFF AND PUSH1 0x6 PUSH1 0x0 SWAP1 SLOAD SWAP1 PUSH2 0x100 EXP SWAP1 DIV PUSH1 0xFF AND PUSH1 0xFF AND EQ PUSH2 0x15DD JUMPI PUSH1 0x0 DUP1 REVERT JUMPDEST PUSH1 0x2 PUSH1 0x6 PUSH1 0x0 PUSH2 0x100 EXP DUP2 SLOAD DUP2 PUSH1 0xFF MUL NOT AND SWAP1 DUP4 PUSH1 0xFF AND MUL OR SWAP1 SSTORE POP PUSH2 0x1603 CALLER DUP3 PUSH2 0x3C67 JUMP JUMPDEST PUSH2 0x1610 JUMPI PUSH2 0x160F PUSH2 0x7398 JUMP JUMPDEST JUMPDEST PUSH1 0x0 PUSH1 0x14 PUSH1 0x0 DUP4 DUP2 MSTORE PUSH1 0x20 ADD SWAP1 DUP2 MSTORE PUSH1 0x20 ADD PUSH1 0x0 KECCAK256 SLOAD EQ DUP1 ISZERO PUSH2 0x1651 JUMPI POP PUSH1 0x15 PUSH1 0x0 DUP3 DUP2 MSTORE PUSH1 0x20 ADD SWAP1 DUP2 MSTORE PUSH1 0x20 ADD PUSH1 0x0 KECCAK256 PUSH1 0x0 SWAP1 SLOAD SWAP1 PUSH2 0x100 EXP SWAP1 DIV PUSH1 0xFF AND ISZERO JUMPDEST PUSH2 0x1690 JUMPI PUSH1 0x40 MLOAD PUSH32 0x8C379A000000000000000000000000000000000000000000000000000000000 DUP2 MSTORE PUSH1 0x4 ADD PUSH2 0x1687 SWAP1 PUSH2 0x7413 JUMP JUMPDEST PUSH1 0x40 MLOAD DUP1 SWAP2 SUB SWAP1 REVERT JUMPDEST PUSH1 0x0 PUSH1 0x10 PUSH1 0x0 DUP4 DUP2 MSTORE PUSH1 0x20 ADD SWAP1 DUP2 MSTORE PUSH1 0x20 ADD PUSH1 0x0 KECCAK256 PUSH1 0x40 MLOAD DUP1 PUSH1 0x40 ADD PUSH1 0x40 MSTORE SWAP1 DUP2 PUSH1 0x0 DUP3 ADD PUSH1 0x0 SWAP1 SLOAD SWAP1 PUSH2 0x100 EXP SWAP1 DIV PUSH1 0xF SIGNEXTEND PUSH1 0xF SIGNEXTEND PUSH1 0xF SIGNEXTEND DUP2 MSTORE PUSH1 0x20 ADD PUSH1 0x1 DUP3 ADD SLOAD DUP2 MSTORE POP POP SWAP1 POP DUP1 PUSH1 0x20 ADD MLOAD TIMESTAMP LT ISZERO PUSH2 0x1720 JUMPI PUSH1 0x40 MLOAD PUSH32 0x8C379A000000000000000000000000000000000000000000000000000000000 DUP2 MSTORE PUSH1 0x4 ADD PUSH2 0x1717 SWAP1 PUSH2 0x747F JUMP JUMPDEST PUSH1 0x40 MLOAD DUP1 SWAP2 SUB SWAP1 REVERT JUMPDEST PUSH1 0x0 DUP2 PUSH1 0x0 ADD MLOAD PUSH1 0xF SIGNEXTEND SWAP1 POP PUSH1 0x40 MLOAD DUP1 PUSH1 0x40 ADD PUSH1 0x40 MSTORE DUP1 PUSH1 0x0 PUSH1 0xF SIGNEXTEND DUP2 MSTORE PUSH1 0x20 ADD PUSH1 0x0 DUP2 MSTORE POP PUSH1 0x10 PUSH1 0x0 DUP6 DUP2 MSTORE PUSH1 0x20 ADD SWAP1 DUP2 MSTORE PUSH1 0x20 ADD PUSH1 0x0 KECCAK256 PUSH1 0x0 DUP3 ADD MLOAD DUP2 PUSH1 0x0 ADD PUSH1 0x0 PUSH2 0x100 EXP DUP2 SLOAD DUP2 PUSH16 0xFFFFFFFFFFFFFFFFFFFFFFFFFFFFFFFF MUL NOT AND SWAP1 DUP4 PUSH1 0xF SIGNEXTEND PUSH16 0xFFFFFFFFFFFFFFFFFFFFFFFFFFFFFFFF AND MUL OR SWAP1 SSTORE POP PUSH1 0x20 DUP3 ADD MLOAD DUP2 PUSH1 0x1 ADD SSTORE SWAP1 POP POP PUSH1 0x0 PUSH1 0x13 SLOAD SWAP1 POP DUP2 DUP2 PUSH2 0x17BB SWAP2 SWAP1 PUSH2 0x749F JUMP JUMPDEST PUSH1 0x13 DUP2 SWAP1 SSTORE POP PUSH2 0x17E5 DUP5 DUP5 PUSH1 0x40 MLOAD DUP1 PUSH1 0x40 ADD PUSH1 0x40 MSTORE DUP1 PUSH1 0x0 PUSH1 0xF SIGNEXTEND DUP2 MSTORE PUSH1 0x20 ADD PUSH1 0x0 DUP2 MSTORE POP PUSH2 0x3DE4 JUMP JUMPDEST PUSH32 0x0 PUSH20 0xFFFFFFFFFFFFFFFFFFFFFFFFFFFFFFFFFFFFFFFF AND PUSH4 0xA9059CBB CALLER DUP5 PUSH1 0x40 MLOAD DUP4 PUSH4 0xFFFFFFFF AND PUSH1 0xE0 SHL DUP2 MSTORE PUSH1 0x4 ADD PUSH2 0x1840 SWAP3 SWAP2 SWAP1 PUSH2 0x74D3 JUMP JUMPDEST PUSH1 0x20 PUSH1 0x40 MLOAD DUP1 DUP4 SUB DUP2 PUSH1 0x0 DUP8 GAS CALL ISZERO DUP1 ISZERO PUSH2 0x185F JUMPI RETURNDATASIZE PUSH1 0x0 DUP1 RETURNDATACOPY RETURNDATASIZE PUSH1 0x0 REVERT JUMPDEST POP POP POP POP PUSH1 0x40 MLOAD RETURNDATASIZE PUSH1 0x1F NOT PUSH1 0x1F DUP3 ADD AND DUP3 ADD DUP1 PUSH1 0x40 MSTORE POP DUP2 ADD SWAP1 PUSH2 0x1883 SWAP2 SWAP1 PUSH2 0x7511 JUMP JUMPDEST PUSH2 0x1890 JUMPI PUSH2 0x188F PUSH2 0x7398 JUMP JUMPDEST JUMPDEST PUSH2 0x1899 DUP5 PUSH2 0x4668 JUMP JUMPDEST CALLER PUSH20 0xFFFFFFFFFFFFFFFFFFFFFFFFFFFFFFFFFFFFFFFF AND PUSH32 0x2F25270A4D87BEA75DB541CDFE559334A275B4A233520ED6C0A2429667CCA94 DUP6 DUP5 TIMESTAMP PUSH1 0x40 MLOAD PUSH2 0x18E3 SWAP4 SWAP3 SWAP2 SWAP1 PUSH2 0x753E JUMP JUMPDEST PUSH1 0x40 MLOAD DUP1 SWAP2 SUB SWAP1 LOG2 PUSH32 0x5E2AA66EFD74CCE82B21852E317E5490D9ECC9E6BB953AE24D90851258CC2F5C DUP2 DUP4 DUP4 PUSH2 0x1919 SWAP2 SWAP1 PUSH2 0x749F JUMP JUMPDEST PUSH1 0x40 MLOAD PUSH2 0x1927 SWAP3 SWAP2 SWAP1 PUSH2 0x7575 JUMP JUMPDEST PUSH1 0x40 MLOAD DUP1 SWAP2 SUB SWAP1 LOG1 POP POP POP PUSH1 0x1 PUSH1 0x6 PUSH1 0x0 PUSH2 0x100 EXP DUP2 SLOAD DUP2 PUSH1 0xFF MUL NOT AND SWAP1 DUP4 PUSH1 0xFF AND MUL OR SWAP1 SSTORE POP POP JUMP JUMPDEST PUSH1 0x1 PUSH1 0x0 SWAP1 SLOAD SWAP1 PUSH2 0x100 EXP SWAP1 DIV PUSH20 0xFFFFFFFFFFFFFFFFFFFFFFFFFFFFFFFFFFFFFFFF AND PUSH20 0xFFFFFFFFFFFFFFFFFFFFFFFFFFFFFFFFFFFFFFFF AND CALLER PUSH20 0xFFFFFFFFFFFFFFFFFFFFFFFFFFFFFFFFFFFFFFFF AND EQ PUSH2 0x19AB JUMPI PUSH1 0x0 DUP1 REVERT JUMPDEST DUP1 PUSH1 0x2 PUSH1 0x0 PUSH2 0x100 EXP DUP2 SLOAD DUP2 PUSH20 0xFFFFFFFFFFFFFFFFFFFFFFFFFFFFFFFFFFFFFFFF MUL NOT AND SWAP1 DUP4 PUSH20 0xFFFFFFFFFFFFFFFFFFFFFFFFFFFFFFFFFFFFFFFF AND MUL OR SWAP1 SSTORE POP POP JUMP JUMPDEST PUSH1 0x0 PUSH1 0xC PUSH1 0x0 DUP5 PUSH20 0xFFFFFFFFFFFFFFFFFFFFFFFFFFFFFFFFFFFFFFFF AND PUSH20 0xFFFFFFFFFFFFFFFFFFFFFFFFFFFFFFFFFFFFFFFF AND DUP2 MSTORE PUSH1 0x20 ADD SWAP1 DUP2 MSTORE PUSH1 0x20 ADD PUSH1 0x0 KECCAK256 PUSH1 0x0 DUP4 DUP2 MSTORE PUSH1 0x20 ADD SWAP1 DUP2 MSTORE PUSH1 0x20 ADD PUSH1 0x0 KECCAK256 SLOAD SWAP1 POP SWAP3 SWAP2 POP POP JUMP JUMPDEST PUSH1 0x12 DUP2 JUMP JUMPDEST PUSH1 0x0 DUP1 PUSH2 0x1A5C DUP5 DUP5 PUSH2 0xF21 JUMP JUMPDEST SWAP1 POP PUSH1 0x0 PUSH1 0x17 PUSH1 0x0 DUP7 PUSH20 0xFFFFFFFFFFFFFFFFFFFFFFFFFFFFFFFFFFFFFFFF AND PUSH20 0xFFFFFFFFFFFFFFFFFFFFFFFFFFFFFFFFFFFFFFFF AND DUP2 MSTORE PUSH1 0x20 ADD SWAP1 DUP2 MSTORE PUSH1 0x20 ADD PUSH1 0x0 KECCAK256 PUSH1 0x0 DUP4 PUSH4 0xFFFFFFFF AND PUSH4 0xFFFFFFFF AND DUP2 MSTORE PUSH1 0x20 ADD SWAP1 DUP2 MSTORE PUSH1 0x20 ADD PUSH1 0x0 KECCAK256 PUSH1 0x1 ADD SWAP1 POP PUSH1 0x0 DUP1 JUMPDEST DUP3 DUP1 SLOAD SWAP1 POP DUP2 LT ISZERO PUSH2 0x1B1E JUMPI PUSH1 0x0 DUP4 DUP3 DUP2 SLOAD DUP2 LT PUSH2 0x1AE6 JUMPI PUSH2 0x1AE5 PUSH2 0x7369 JUMP JUMPDEST JUMPDEST SWAP1 PUSH1 0x0 MSTORE PUSH1 0x20 PUSH1 0x0 KECCAK256 ADD SLOAD SWAP1 POP PUSH2 0x1AFD DUP2 DUP9 PUSH2 0x4747 JUMP JUMPDEST DUP4 PUSH2 0x1B08 SWAP2 SWAP1 PUSH2 0x759E JUMP JUMPDEST SWAP3 POP POP DUP1 DUP1 PUSH2 0x1B16 SWAP1 PUSH2 0x75F4 JUMP JUMPDEST SWAP2 POP POP PUSH2 0x1AC5 JUMP JUMPDEST POP DUP1 SWAP4 POP POP POP POP SWAP3 SWAP2 POP POP JUMP JUMPDEST PUSH2 0x1B46 DUP4 DUP4 DUP4 PUSH1 0x40 MLOAD DUP1 PUSH1 0x20 ADD PUSH1 0x40 MSTORE DUP1 PUSH1 0x0 DUP2 MSTORE POP PUSH2 0x2CB7 JUMP JUMPDEST POP POP POP JUMP JUMPDEST PUSH1 0x0 PUSH2 0x1B57 DUP4 DUP4 PUSH2 0x3C67 JUMP JUMPDEST SWAP1 POP SWAP3 SWAP2 POP POP JUMP JUMPDEST PUSH1 0x0 DUP1 PUSH1 0xE PUSH1 0x0 DUP5 DUP2 MSTORE PUSH1 0x20 ADD SWAP1 DUP2 MSTORE PUSH1 0x20 ADD PUSH1 0x0 KECCAK256 SLOAD SWAP1 POP PUSH1 0xF PUSH1 0x0 DUP5 DUP2 MSTORE PUSH1 0x20 ADD SWAP1 DUP2 MSTORE PUSH1 0x20 ADD PUSH1 0x0 KECCAK256 DUP2 PUSH4 0x3B9ACA00 DUP2 LT PUSH2 0x1BA0 JUMPI PUSH2 0x1B9F PUSH2 0x7369 JUMP JUMPDEST JUMPDEST PUSH1 0x3 MUL ADD PUSH1 0x0 ADD PUSH1 0x10 SWAP1 SLOAD SWAP1 PUSH2 0x100 EXP SWAP1 DIV PUSH1 0xF SIGNEXTEND SWAP2 POP POP SWAP2 SWAP1 POP JUMP JUMPDEST PUSH1 0x0 DUP1 SLOAD SWAP1 PUSH2 0x100 EXP SWAP1 DIV PUSH20 0xFFFFFFFFFFFFFFFFFFFFFFFFFFFFFFFFFFFFFFFF AND DUP2 JUMP JUMPDEST PUSH1 0x1 PUSH1 0x0 SWAP1 SLOAD SWAP1 PUSH2 0x100 EXP SWAP1 DIV PUSH20 0xFFFFFFFFFFFFFFFFFFFFFFFFFFFFFFFFFFFFFFFF AND PUSH20 0xFFFFFFFFFFFFFFFFFFFFFFFFFFFFFFFFFFFFFFFF AND CALLER PUSH20 0xFFFFFFFFFFFFFFFFFFFFFFFFFFFFFFFFFFFFFFFF AND EQ PUSH2 0x1C3B JUMPI PUSH1 0x0 DUP1 REVERT JUMPDEST DUP1 PUSH1 0x0 DUP1 PUSH2 0x100 EXP DUP2 SLOAD DUP2 PUSH20 0xFFFFFFFFFFFFFFFFFFFFFFFFFFFFFFFFFFFFFFFF MUL NOT AND SWAP1 DUP4 PUSH20 0xFFFFFFFFFFFFFFFFFFFFFFFFFFFFFFFFFFFFFFFF AND MUL OR SWAP1 SSTORE POP POP JUMP JUMPDEST PUSH1 0x40 MLOAD DUP1 PUSH1 0x40 ADD PUSH1 0x40 MSTORE DUP1 PUSH1 0x5 DUP2 MSTORE PUSH1 0x20 ADD PUSH32 0x312E302E30000000000000000000000000000000000000000000000000000000 DUP2 MSTORE POP DUP2 JUMP JUMPDEST PUSH1 0x2 PUSH1 0x0 SWAP1 SLOAD SWAP1 PUSH2 0x100 EXP SWAP1 DIV PUSH20 0xFFFFFFFFFFFFFFFFFFFFFFFFFFFFFFFFFFFFFFFF AND DUP2 JUMP JUMPDEST PUSH1 0x0 PUSH1 0x14 PUSH1 0x0 DUP4 DUP2 MSTORE PUSH1 0x20 ADD SWAP1 DUP2 MSTORE PUSH1 0x20 ADD PUSH1 0x0 KECCAK256 SLOAD EQ DUP1 ISZERO PUSH2 0x1D1E JUMPI POP PUSH1 0x15 PUSH1 0x0 DUP3 DUP2 MSTORE PUSH1 0x20 ADD SWAP1 DUP2 MSTORE PUSH1 0x20 ADD PUSH1 0x0 KECCAK256 PUSH1 0x0 SWAP1 SLOAD SWAP1 PUSH2 0x100 EXP SWAP1 DIV PUSH1 0xFF AND ISZERO JUMPDEST PUSH2 0x1D5D JUMPI PUSH1 0x40 MLOAD PUSH32 0x8C379A000000000000000000000000000000000000000000000000000000000 DUP2 MSTORE PUSH1 0x4 ADD PUSH2 0x1D54 SWAP1 PUSH2 0x7413 JUMP JUMPDEST PUSH1 0x40 MLOAD DUP1 SWAP2 SUB SWAP1 REVERT JUMPDEST PUSH2 0x1D67 CALLER DUP3 PUSH2 0x3C67 JUMP JUMPDEST PUSH2 0x1D70 JUMPI PUSH1 0x0 DUP1 REVERT JUMPDEST PUSH1 0x0 PUSH1 0x7 PUSH1 0x0 DUP4 DUP2 MSTORE PUSH1 0x20 ADD SWAP1 DUP2 MSTORE PUSH1 0x20 ADD PUSH1 0x0 KECCAK256 PUSH1 0x0 SWAP1 SLOAD SWAP1 PUSH2 0x100 EXP SWAP1 DIV PUSH20 0xFFFFFFFFFFFFFFFFFFFFFFFFFFFFFFFFFFFFFFFF AND SWAP1 POP PUSH1 0x0 PUSH1 0x10 PUSH1 0x0 DUP5 DUP2 MSTORE PUSH1 0x20 ADD SWAP1 DUP2 MSTORE PUSH1 0x20 ADD PUSH1 0x0 KECCAK256 PUSH1 0x40 MLOAD DUP1 PUSH1 0x40 ADD PUSH1 0x40 MSTORE SWAP1 DUP2 PUSH1 0x0 DUP3 ADD PUSH1 0x0 SWAP1 SLOAD SWAP1 PUSH2 0x100 EXP SWAP1 DIV PUSH1 0xF SIGNEXTEND PUSH1 0xF SIGNEXTEND PUSH1 0xF SIGNEXTEND DUP2 MSTORE PUSH1 0x20 ADD PUSH1 0x1 DUP3 ADD SLOAD DUP2 MSTORE POP POP SWAP1 POP PUSH1 0x0 DUP2 PUSH1 0x20 ADD MLOAD SWAP1 POP PUSH1 0x0 DUP3 PUSH1 0x0 ADD MLOAD PUSH1 0xF SIGNEXTEND SWAP1 POP PUSH1 0x0 DUP2 GT PUSH2 0x1E13 JUMPI PUSH1 0x0 DUP1 REVERT JUMPDEST DUP1 PUSH1 0x13 SLOAD PUSH2 0x1E21 SWAP2 SWAP1 PUSH2 0x749F JUMP JUMPDEST PUSH1 0x13 DUP2 SWAP1 SSTORE POP PUSH1 0x0 DUP1 PUSH1 0x0 SWAP1 POP PUSH1 0x0 SWAP2 POP JUMPDEST DUP8 MLOAD DUP3 LT ISZERO PUSH2 0x1E77 JUMPI DUP8 DUP3 DUP2 MLOAD DUP2 LT PUSH2 0x1E4F JUMPI PUSH2 0x1E4E PUSH2 0x7369 JUMP JUMPDEST JUMPDEST PUSH1 0x20 MUL PUSH1 0x20 ADD ADD MLOAD DUP2 PUSH2 0x1E62 SWAP2 SWAP1 PUSH2 0x759E JUMP JUMPDEST SWAP1 POP DUP2 DUP1 PUSH2 0x1E6F SWAP1 PUSH2 0x75F4 JUMP JUMPDEST SWAP3 POP POP PUSH2 0x1E33 JUMP JUMPDEST PUSH1 0x40 MLOAD DUP1 PUSH1 0x40 ADD PUSH1 0x40 MSTORE DUP1 PUSH1 0x0 PUSH1 0xF SIGNEXTEND DUP2 MSTORE PUSH1 0x20 ADD PUSH1 0x0 DUP2 MSTORE POP PUSH1 0x10 PUSH1 0x0 DUP10 DUP2 MSTORE PUSH1 0x20 ADD SWAP1 DUP2 MSTORE PUSH1 0x20 ADD PUSH1 0x0 KECCAK256 PUSH1 0x0 DUP3 ADD MLOAD DUP2 PUSH1 0x0 ADD PUSH1 0x0 PUSH2 0x100 EXP DUP2 SLOAD DUP2 PUSH16 0xFFFFFFFFFFFFFFFFFFFFFFFFFFFFFFFF MUL NOT AND SWAP1 DUP4 PUSH1 0xF SIGNEXTEND PUSH16 0xFFFFFFFFFFFFFFFFFFFFFFFFFFFFFFFF AND MUL OR SWAP1 SSTORE POP PUSH1 0x20 DUP3 ADD MLOAD DUP2 PUSH1 0x1 ADD SSTORE SWAP1 POP POP PUSH2 0x1F17 DUP8 DUP7 PUSH1 0x40 MLOAD DUP1 PUSH1 0x40 ADD PUSH1 0x40 MSTORE DUP1 PUSH1 0x0 PUSH1 0xF SIGNEXTEND DUP2 MSTORE PUSH1 0x20 ADD PUSH1 0x0 DUP2 MSTORE POP PUSH2 0x3DE4 JUMP JUMPDEST PUSH2 0x1F20 DUP8 PUSH2 0x4668 JUMP JUMPDEST PUSH1 0x0 DUP5 SWAP1 POP TIMESTAMP DUP2 GT PUSH2 0x1F67 JUMPI PUSH1 0x40 MLOAD PUSH32 0x8C379A000000000000000000000000000000000000000000000000000000000 DUP2 MSTORE PUSH1 0x4 ADD PUSH2 0x1F5E SWAP1 PUSH2 0x76AE JUMP JUMPDEST PUSH1 0x40 MLOAD DUP1 SWAP2 SUB SWAP1 REVERT JUMPDEST PUSH4 0x3C26700 TIMESTAMP PUSH2 0x1F77 SWAP2 SWAP1 PUSH2 0x759E JUMP JUMPDEST DUP2 GT ISZERO PUSH2 0x1FB9 JUMPI PUSH1 0x40 MLOAD PUSH32 0x8C379A000000000000000000000000000000000000000000000000000000000 DUP2 MSTORE PUSH1 0x4 ADD PUSH2 0x1FB0 SWAP1 PUSH2 0x771A JUMP JUMPDEST PUSH1 0x40 MLOAD DUP1 SWAP2 SUB SWAP1 REVERT JUMPDEST PUSH1 0x0 DUP1 SWAP4 POP JUMPDEST DUP10 MLOAD DUP5 LT ISZERO PUSH2 0x2086 JUMPI PUSH1 0x5 PUSH1 0x0 DUP2 SLOAD PUSH2 0x1FD7 SWAP1 PUSH2 0x75F4 JUMP JUMPDEST SWAP2 SWAP1 POP DUP2 SWAP1 SSTORE POP PUSH1 0x5 SLOAD SWAP9 POP PUSH2 0x1FED DUP9 DUP11 PUSH2 0x4871 JUMP JUMPDEST POP DUP3 DUP11 DUP6 DUP2 MLOAD DUP2 LT PUSH2 0x2002 JUMPI PUSH2 0x2001 PUSH2 0x7369 JUMP JUMPDEST JUMPDEST PUSH1 0x20 MUL PUSH1 0x20 ADD ADD MLOAD DUP7 PUSH2 0x2015 SWAP2 SWAP1 PUSH2 0x773A JUMP JUMPDEST PUSH2 0x201F SWAP2 SWAP1 PUSH2 0x7794 JUMP JUMPDEST SWAP1 POP PUSH2 0x2073 DUP10 DUP3 DUP5 PUSH1 0x10 PUSH1 0x0 DUP15 DUP2 MSTORE PUSH1 0x20 ADD SWAP1 DUP2 MSTORE PUSH1 0x20 ADD PUSH1 0x0 KECCAK256 PUSH1 0x40 MLOAD DUP1 PUSH1 0x40 ADD PUSH1 0x40 MSTORE SWAP1 DUP2 PUSH1 0x0 DUP3 ADD PUSH1 0x0 SWAP1 SLOAD SWAP1 PUSH2 0x100 EXP SWAP1 DIV PUSH1 0xF SIGNEXTEND PUSH1 0xF SIGNEXTEND PUSH1 0xF SIGNEXTEND DUP2 MSTORE PUSH1 0x20 ADD PUSH1 0x1 DUP3 ADD SLOAD DUP2 MSTORE POP POP PUSH1 0x5 PUSH2 0x4933 JUMP JUMPDEST DUP4 DUP1 PUSH2 0x207E SWAP1 PUSH2 0x75F4 JUMP JUMPDEST SWAP5 POP POP PUSH2 0x1FBF JUMP JUMPDEST POP POP POP POP POP POP POP POP POP POP JUMP JUMPDEST PUSH1 0x0 DUP1 PUSH1 0x16 PUSH1 0x0 DUP5 PUSH20 0xFFFFFFFFFFFFFFFFFFFFFFFFFFFFFFFFFFFFFFFF AND PUSH20 0xFFFFFFFFFFFFFFFFFFFFFFFFFFFFFFFFFFFFFFFF AND DUP2 MSTORE PUSH1 0x20 ADD SWAP1 DUP2 MSTORE PUSH1 0x20 ADD PUSH1 0x0 KECCAK256 PUSH1 0x0 SWAP1 SLOAD SWAP1 PUSH2 0x100 EXP SWAP1 DIV PUSH20 0xFFFFFFFFFFFFFFFFFFFFFFFFFFFFFFFFFFFFFFFF AND SWAP1 POP PUSH1 0x0 PUSH20 0xFFFFFFFFFFFFFFFFFFFFFFFFFFFFFFFFFFFFFFFF AND DUP2 PUSH20 0xFFFFFFFFFFFFFFFFFFFFFFFFFFFFFFFFFFFFFFFF AND EQ PUSH2 0x2131 JUMPI DUP1 PUSH2 0x2133 JUMP JUMPDEST DUP3 JUMPDEST SWAP2 POP POP SWAP2 SWAP1 POP JUMP JUMPDEST PUSH1 0x0 PUSH20 0xFFFFFFFFFFFFFFFFFFFFFFFFFFFFFFFFFFFFFFFF AND DUP2 PUSH20 0xFFFFFFFFFFFFFFFFFFFFFFFFFFFFFFFFFFFFFFFF AND SUB PUSH2 0x2173 JUMPI CALLER SWAP1 POP JUMPDEST PUSH2 0x217D CALLER DUP3 PUSH2 0x4BE3 JUMP JUMPDEST POP JUMP JUMPDEST PUSH2 0x400 DUP2 JUMP JUMPDEST PUSH1 0x0 PUSH1 0x7 PUSH1 0x0 DUP4 DUP2 MSTORE PUSH1 0x20 ADD SWAP1 DUP2 MSTORE PUSH1 0x20 ADD PUSH1 0x0 KECCAK256 PUSH1 0x0 SWAP1 SLOAD SWAP1 PUSH2 0x100 EXP SWAP1 DIV PUSH20 0xFFFFFFFFFFFFFFFFFFFFFFFFFFFFFFFFFFFFFFFF AND SWAP1 POP SWAP2 SWAP1 POP JUMP JUMPDEST PUSH1 0x0 PUSH1 0x1 PUSH1 0xFF AND PUSH1 0x6 PUSH1 0x0 SWAP1 SLOAD SWAP1 PUSH2 0x100 EXP SWAP1 DIV PUSH1 0xFF AND PUSH1 0xFF AND EQ PUSH2 0x21E7 JUMPI PUSH1 0x0 DUP1 REVERT JUMPDEST PUSH1 0x2 PUSH1 0x6 PUSH1 0x0 PUSH2 0x100 EXP DUP2 SLOAD DUP2 PUSH1 0xFF MUL NOT AND SWAP1 DUP4 PUSH1 0xFF AND MUL OR SWAP1 SSTORE POP PUSH2 0x220E DUP4 DUP4 CALLER PUSH2 0x4CEF JUMP JUMPDEST SWAP1 POP PUSH1 0x1 PUSH1 0x6 PUSH1 0x0 PUSH2 0x100 EXP DUP2 SLOAD DUP2 PUSH1 0xFF MUL NOT AND SWAP1 DUP4 PUSH1 0xFF AND MUL OR SWAP1 SSTORE POP SWAP3 SWAP2 POP POP JUMP JUMPDEST PUSH1 0xB PUSH1 0x20 MSTORE DUP1 PUSH1 0x0 MSTORE PUSH1 0x40 PUSH1 0x0 KECCAK256 PUSH1 0x0 SWAP2 POP SWAP1 POP SLOAD DUP2 JUMP JUMPDEST PUSH1 0x18 PUSH1 0x20 MSTORE DUP1 PUSH1 0x0 MSTORE PUSH1 0x40 PUSH1 0x0 KECCAK256 PUSH1 0x0 SWAP2 POP SLOAD SWAP1 PUSH2 0x100 EXP SWAP1 DIV PUSH4 0xFFFFFFFF AND DUP2 JUMP JUMPDEST PUSH1 0x0 PUSH2 0x2278 DUP3 PUSH2 0x4E40 JUMP JUMPDEST SWAP1 POP SWAP2 SWAP1 POP JUMP JUMPDEST PUSH1 0x0 DUP1 PUSH1 0x11 SLOAD SWAP1 POP PUSH1 0x0 PUSH1 0x3 PUSH1 0x0 DUP4 DUP2 MSTORE PUSH1 0x20 ADD SWAP1 DUP2 MSTORE PUSH1 0x20 ADD PUSH1 0x0 KECCAK256 PUSH1 0x40 MLOAD DUP1 PUSH1 0x80 ADD PUSH1 0x40 MSTORE SWAP1 DUP2 PUSH1 0x0 DUP3 ADD PUSH1 0x0 SWAP1 SLOAD SWAP1 PUSH2 0x100 EXP SWAP1 DIV PUSH1 0xF SIGNEXTEND PUSH1 0xF SIGNEXTEND PUSH1 0xF SIGNEXTEND DUP2 MSTORE PUSH1 0x20 ADD PUSH1 0x0 DUP3 ADD PUSH1 0x10 SWAP1 SLOAD SWAP1 PUSH2 0x100 EXP SWAP1 DIV PUSH1 0xF SIGNEXTEND PUSH1 0xF SIGNEXTEND PUSH1 0xF SIGNEXTEND DUP2 MSTORE PUSH1 0x20 ADD PUSH1 0x1 DUP3 ADD SLOAD DUP2 MSTORE PUSH1 0x20 ADD PUSH1 0x2 DUP3 ADD SLOAD DUP2 MSTORE POP POP SWAP1 POP PUSH2 0x2301 DUP2 DUP6 PUSH2 0x4E89 JUMP JUMPDEST SWAP3 POP POP POP SWAP2 SWAP1 POP JUMP JUMPDEST PUSH1 0x12 PUSH1 0x20 MSTORE DUP1 PUSH1 0x0 MSTORE PUSH1 0x40 PUSH1 0x0 KECCAK256 PUSH1 0x0 SWAP2 POP SLOAD SWAP1 PUSH2 0x100 EXP SWAP1 DIV PUSH1 0xF SIGNEXTEND DUP2 JUMP JUMPDEST PUSH1 0x19 PUSH1 0x20 MSTORE DUP1 PUSH1 0x0 MSTORE PUSH1 0x40 PUSH1 0x0 KECCAK256 PUSH1 0x0 SWAP2 POP SWAP1 POP SLOAD DUP2 JUMP JUMPDEST PUSH1 0x1 PUSH1 0x0 SWAP1 SLOAD SWAP1 PUSH2 0x100 EXP SWAP1 DIV PUSH20 0xFFFFFFFFFFFFFFFFFFFFFFFFFFFFFFFFFFFFFFFF AND DUP2 JUMP JUMPDEST PUSH1 0x0 PUSH2 0x2374 DUP4 DUP4 PUSH2 0x4FD3 JUMP JUMPDEST SWAP1 POP SWAP3 SWAP2 POP POP JUMP JUMPDEST PUSH1 0x0 PUSH2 0x2387 DUP3 PUSH2 0x227F JUMP JUMPDEST SWAP1 POP SWAP2 SWAP1 POP JUMP JUMPDEST PUSH1 0x15 PUSH1 0x20 MSTORE DUP1 PUSH1 0x0 MSTORE PUSH1 0x40 PUSH1 0x0 KECCAK256 PUSH1 0x0 SWAP2 POP SLOAD SWAP1 PUSH2 0x100 EXP SWAP1 DIV PUSH1 0xFF AND DUP2 JUMP JUMPDEST PUSH1 0x11 SLOAD DUP2 JUMP JUMPDEST PUSH1 0x40 MLOAD DUP1 PUSH1 0x40 ADD PUSH1 0x40 MSTORE DUP1 PUSH1 0x5 DUP2 MSTORE PUSH1 0x20 ADD PUSH32 0x7665544845000000000000000000000000000000000000000000000000000000 DUP2 MSTORE POP DUP2 JUMP JUMPDEST PUSH1 0x0 NUMBER DUP3 GT ISZERO PUSH2 0x2400 JUMPI PUSH2 0x23FF PUSH2 0x7398 JUMP JUMPDEST JUMPDEST PUSH1 0x0 PUSH1 0x11 SLOAD SWAP1 POP PUSH1 0x0 PUSH2 0x2413 DUP5 DUP4 PUSH2 0x5356 JUMP JUMPDEST SWAP1 POP PUSH1 0x0 PUSH1 0x3 PUSH1 0x0 DUP4 DUP2 MSTORE PUSH1 0x20 ADD SWAP1 DUP2 MSTORE PUSH1 0x20 ADD PUSH1 0x0 KECCAK256 PUSH1 0x40 MLOAD DUP1 PUSH1 0x80 ADD PUSH1 0x40 MSTORE SWAP1 DUP2 PUSH1 0x0 DUP3 ADD PUSH1 0x0 SWAP1 SLOAD SWAP1 PUSH2 0x100 EXP SWAP1 DIV PUSH1 0xF SIGNEXTEND PUSH1 0xF SIGNEXTEND PUSH1 0xF SIGNEXTEND DUP2 MSTORE PUSH1 0x20 ADD PUSH1 0x0 DUP3 ADD PUSH1 0x10 SWAP1 SLOAD SWAP1 PUSH2 0x100 EXP SWAP1 DIV PUSH1 0xF SIGNEXTEND PUSH1 0xF SIGNEXTEND PUSH1 0xF SIGNEXTEND DUP2 MSTORE PUSH1 0x20 ADD PUSH1 0x1 DUP3 ADD SLOAD DUP2 MSTORE PUSH1 0x20 ADD PUSH1 0x2 DUP3 ADD SLOAD DUP2 MSTORE POP POP SWAP1 POP PUSH1 0x0 DUP4 DUP4 LT ISZERO PUSH2 0x256F JUMPI PUSH1 0x0 PUSH1 0x3 PUSH1 0x0 PUSH1 0x1 DUP7 PUSH2 0x24A2 SWAP2 SWAP1 PUSH2 0x759E JUMP JUMPDEST DUP2 MSTORE PUSH1 0x20 ADD SWAP1 DUP2 MSTORE PUSH1 0x20 ADD PUSH1 0x0 KECCAK256 PUSH1 0x40 MLOAD DUP1 PUSH1 0x80 ADD PUSH1 0x40 MSTORE SWAP1 DUP2 PUSH1 0x0 DUP3 ADD PUSH1 0x0 SWAP1 SLOAD SWAP1 PUSH2 0x100 EXP SWAP1 DIV PUSH1 0xF SIGNEXTEND PUSH1 0xF SIGNEXTEND PUSH1 0xF SIGNEXTEND DUP2 MSTORE PUSH1 0x20 ADD PUSH1 0x0 DUP3 ADD PUSH1 0x10 SWAP1 SLOAD SWAP1 PUSH2 0x100 EXP SWAP1 DIV PUSH1 0xF SIGNEXTEND PUSH1 0xF SIGNEXTEND PUSH1 0xF SIGNEXTEND DUP2 MSTORE PUSH1 0x20 ADD PUSH1 0x1 DUP3 ADD SLOAD DUP2 MSTORE PUSH1 0x20 ADD PUSH1 0x2 DUP3 ADD SLOAD DUP2 MSTORE POP POP SWAP1 POP DUP1 PUSH1 0x60 ADD MLOAD DUP4 PUSH1 0x60 ADD MLOAD EQ PUSH2 0x2569 JUMPI DUP3 PUSH1 0x60 ADD MLOAD DUP2 PUSH1 0x60 ADD MLOAD PUSH2 0x252E SWAP2 SWAP1 PUSH2 0x749F JUMP JUMPDEST DUP4 PUSH1 0x40 ADD MLOAD DUP3 PUSH1 0x40 ADD MLOAD PUSH2 0x2542 SWAP2 SWAP1 PUSH2 0x749F JUMP JUMPDEST DUP5 PUSH1 0x60 ADD MLOAD DUP10 PUSH2 0x2552 SWAP2 SWAP1 PUSH2 0x749F JUMP JUMPDEST PUSH2 0x255C SWAP2 SWAP1 PUSH2 0x773A JUMP JUMPDEST PUSH2 0x2566 SWAP2 SWAP1 PUSH2 0x7794 JUMP JUMPDEST SWAP2 POP JUMPDEST POP PUSH2 0x25C2 JUMP JUMPDEST NUMBER DUP3 PUSH1 0x60 ADD MLOAD EQ PUSH2 0x25C1 JUMPI DUP2 PUSH1 0x60 ADD MLOAD NUMBER PUSH2 0x258A SWAP2 SWAP1 PUSH2 0x749F JUMP JUMPDEST DUP3 PUSH1 0x40 ADD MLOAD TIMESTAMP PUSH2 0x259A SWAP2 SWAP1 PUSH2 0x749F JUMP JUMPDEST DUP4 PUSH1 0x60 ADD MLOAD DUP9 PUSH2 0x25AA SWAP2 SWAP1 PUSH2 0x749F JUMP JUMPDEST PUSH2 0x25B4 SWAP2 SWAP1 PUSH2 0x773A JUMP JUMPDEST PUSH2 0x25BE SWAP2 SWAP1 PUSH2 0x7794 JUMP JUMPDEST SWAP1 POP JUMPDEST JUMPDEST PUSH2 0x25DB DUP3 DUP3 DUP5 PUSH1 0x40 ADD MLOAD PUSH2 0x25D6 SWAP2 SWAP1 PUSH2 0x759E JUMP JUMPDEST PUSH2 0x4E89 JUMP JUMPDEST SWAP5 POP POP POP POP POP SWAP2 SWAP1 POP JUMP JUMPDEST PUSH1 0x0 DUP1 SLOAD SWAP1 PUSH2 0x100 EXP SWAP1 DIV PUSH20 0xFFFFFFFFFFFFFFFFFFFFFFFFFFFFFFFFFFFFFFFF AND PUSH20 0xFFFFFFFFFFFFFFFFFFFFFFFFFFFFFFFFFFFFFFFF AND CALLER PUSH20 0xFFFFFFFFFFFFFFFFFFFFFFFFFFFFFFFFFFFFFFFF AND EQ PUSH2 0x263E JUMPI PUSH1 0x0 DUP1 REVERT JUMPDEST PUSH1 0x1 PUSH1 0x14 PUSH1 0x0 DUP4 DUP2 MSTORE PUSH1 0x20 ADD SWAP1 DUP2 MSTORE PUSH1 0x20 ADD PUSH1 0x0 KECCAK256 SLOAD PUSH2 0x265E SWAP2 SWAP1 PUSH2 0x749F JUMP JUMPDEST PUSH1 0x14 PUSH1 0x0 DUP4 DUP2 MSTORE PUSH1 0x20 ADD SWAP1 DUP2 MSTORE PUSH1 0x20 ADD PUSH1 0x0 KECCAK256 DUP2 SWAP1 SSTORE POP POP JUMP JUMPDEST PUSH1 0x0 DUP1 PUSH1 0x18 PUSH1 0x0 DUP5 PUSH20 0xFFFFFFFFFFFFFFFFFFFFFFFFFFFFFFFFFFFFFFFF AND PUSH20 0xFFFFFFFFFFFFFFFFFFFFFFFFFFFFFFFFFFFFFFFF AND DUP2 MSTORE PUSH1 0x20 ADD SWAP1 DUP2 MSTORE PUSH1 0x20 ADD PUSH1 0x0 KECCAK256 PUSH1 0x0 SWAP1 SLOAD SWAP1 PUSH2 0x100 EXP SWAP1 DIV PUSH4 0xFFFFFFFF AND SWAP1 POP PUSH1 0x0 DUP2 PUSH4 0xFFFFFFFF AND SUB PUSH2 0x26E5 JUMPI PUSH1 0x0 SWAP2 POP POP PUSH2 0x27B9 JUMP JUMPDEST PUSH1 0x0 PUSH1 0x17 PUSH1 0x0 DUP6 PUSH20 0xFFFFFFFFFFFFFFFFFFFFFFFFFFFFFFFFFFFFFFFF AND PUSH20 0xFFFFFFFFFFFFFFFFFFFFFFFFFFFFFFFFFFFFFFFF AND DUP2 MSTORE PUSH1 0x20 ADD SWAP1 DUP2 MSTORE PUSH1 0x20 ADD PUSH1 0x0 KECCAK256 PUSH1 0x0 PUSH1 0x1 DUP5 PUSH2 0x2735 SWAP2 SWAP1 PUSH2 0x72D5 JUMP JUMPDEST PUSH4 0xFFFFFFFF AND PUSH4 0xFFFFFFFF AND DUP2 MSTORE PUSH1 0x20 ADD SWAP1 DUP2 MSTORE PUSH1 0x20 ADD PUSH1 0x0 KECCAK256 PUSH1 0x1 ADD SWAP1 POP PUSH1 0x0 DUP1 JUMPDEST DUP3 DUP1 SLOAD SWAP1 POP DUP2 LT ISZERO PUSH2 0x27B1 JUMPI PUSH1 0x0 DUP4 DUP3 DUP2 SLOAD DUP2 LT PUSH2 0x2779 JUMPI PUSH2 0x2778 PUSH2 0x7369 JUMP JUMPDEST JUMPDEST SWAP1 PUSH1 0x0 MSTORE PUSH1 0x20 PUSH1 0x0 KECCAK256 ADD SLOAD SWAP1 POP PUSH2 0x2790 DUP2 TIMESTAMP PUSH2 0x4747 JUMP JUMPDEST DUP4 PUSH2 0x279B SWAP2 SWAP1 PUSH2 0x759E JUMP JUMPDEST SWAP3 POP POP DUP1 DUP1 PUSH2 0x27A9 SWAP1 PUSH2 0x75F4 JUMP JUMPDEST SWAP2 POP POP PUSH2 0x2758 JUMP JUMPDEST POP DUP1 SWAP4 POP POP POP POP JUMPDEST SWAP2 SWAP1 POP JUMP JUMPDEST PUSH1 0x1 PUSH1 0xFF AND PUSH1 0x6 PUSH1 0x0 SWAP1 SLOAD SWAP1 PUSH2 0x100 EXP SWAP1 DIV PUSH1 0xFF AND PUSH1 0xFF AND EQ PUSH2 0x27E0 JUMPI PUSH1 0x0 DUP1 REVERT JUMPDEST PUSH1 0x2 PUSH1 0x6 PUSH1 0x0 PUSH2 0x100 EXP DUP2 SLOAD DUP2 PUSH1 0xFF MUL NOT AND SWAP1 DUP4 PUSH1 0xFF AND MUL OR SWAP1 SSTORE POP PUSH2 0x2806 CALLER DUP4 PUSH2 0x3C67 JUMP JUMPDEST PUSH2 0x2813 JUMPI PUSH2 0x2812 PUSH2 0x7398 JUMP JUMPDEST JUMPDEST PUSH1 0x0 PUSH1 0x10 PUSH1 0x0 DUP5 DUP2 MSTORE PUSH1 0x20 ADD SWAP1 DUP2 MSTORE PUSH1 0x20 ADD PUSH1 0x0 KECCAK256 PUSH1 0x40 MLOAD DUP1 PUSH1 0x40 ADD PUSH1 0x40 MSTORE SWAP1 DUP2 PUSH1 0x0 DUP3 ADD PUSH1 0x0 SWAP1 SLOAD SWAP1 PUSH2 0x100 EXP SWAP1 DIV PUSH1 0xF SIGNEXTEND PUSH1 0xF SIGNEXTEND PUSH1 0xF SIGNEXTEND DUP2 MSTORE PUSH1 0x20 ADD PUSH1 0x1 DUP3 ADD SLOAD DUP2 MSTORE POP POP SWAP1 POP PUSH1 0x0 DUP3 GT PUSH2 0x286D JUMPI PUSH2 0x286C PUSH2 0x7398 JUMP JUMPDEST JUMPDEST PUSH1 0x0 DUP2 PUSH1 0x0 ADD MLOAD PUSH1 0xF SIGNEXTEND SGT PUSH2 0x28B7 JUMPI PUSH1 0x40 MLOAD PUSH32 0x8C379A000000000000000000000000000000000000000000000000000000000 DUP2 MSTORE PUSH1 0x4 ADD PUSH2 0x28AE SWAP1 PUSH2 0x7811 JUMP JUMPDEST PUSH1 0x40 MLOAD DUP1 SWAP2 SUB SWAP1 REVERT JUMPDEST TIMESTAMP DUP2 PUSH1 0x20 ADD MLOAD GT PUSH2 0x28FD JUMPI PUSH1 0x40 MLOAD PUSH32 0x8C379A000000000000000000000000000000000000000000000000000000000 DUP2 MSTORE PUSH1 0x4 ADD PUSH2 0x28F4 SWAP1 PUSH2 0x78A3 JUMP JUMPDEST PUSH1 0x40 MLOAD DUP1 SWAP2 SUB SWAP1 REVERT JUMPDEST PUSH2 0x290C DUP4 DUP4 PUSH1 0x0 DUP5 PUSH1 0x2 PUSH2 0x4933 JUMP JUMPDEST POP PUSH1 0x1 PUSH1 0x6 PUSH1 0x0 PUSH2 0x100 EXP DUP2 SLOAD DUP2 PUSH1 0xFF MUL NOT AND SWAP1 DUP4 PUSH1 0xFF AND MUL OR SWAP1 SSTORE POP POP POP JUMP JUMPDEST CALLER PUSH20 0xFFFFFFFFFFFFFFFFFFFFFFFFFFFFFFFFFFFFFFFF AND DUP3 PUSH20 0xFFFFFFFFFFFFFFFFFFFFFFFFFFFFFFFFFFFFFFFF AND SUB PUSH2 0x2969 JUMPI PUSH2 0x2968 PUSH2 0x7398 JUMP JUMPDEST JUMPDEST DUP1 PUSH1 0xA PUSH1 0x0 CALLER PUSH20 0xFFFFFFFFFFFFFFFFFFFFFFFFFFFFFFFFFFFFFFFF AND PUSH20 0xFFFFFFFFFFFFFFFFFFFFFFFFFFFFFFFFFFFFFFFF AND DUP2 MSTORE PUSH1 0x20 ADD SWAP1 DUP2 MSTORE PUSH1 0x20 ADD PUSH1 0x0 KECCAK256 PUSH1 0x0 DUP5 PUSH20 0xFFFFFFFFFFFFFFFFFFFFFFFFFFFFFFFFFFFFFFFF AND PUSH20 0xFFFFFFFFFFFFFFFFFFFFFFFFFFFFFFFFFFFFFFFF AND DUP2 MSTORE PUSH1 0x20 ADD SWAP1 DUP2 MSTORE PUSH1 0x20 ADD PUSH1 0x0 KECCAK256 PUSH1 0x0 PUSH2 0x100 EXP DUP2 SLOAD DUP2 PUSH1 0xFF MUL NOT AND SWAP1 DUP4 ISZERO ISZERO MUL OR SWAP1 SSTORE POP DUP2 PUSH20 0xFFFFFFFFFFFFFFFFFFFFFFFFFFFFFFFFFFFFFFFF AND CALLER PUSH20 0xFFFFFFFFFFFFFFFFFFFFFFFFFFFFFFFFFFFFFFFF AND PUSH32 0x17307EAB39AB6107E8899845AD3D59BD9653F200F220920489CA2B5937696C31 DUP4 PUSH1 0x40 MLOAD PUSH2 0x2A5A SWAP2 SWAP1 PUSH2 0x6945 JUMP JUMPDEST PUSH1 0x40 MLOAD DUP1 SWAP2 SUB SWAP1 LOG3 POP POP JUMP JUMPDEST PUSH1 0x1 PUSH1 0xFF AND PUSH1 0x6 PUSH1 0x0 SWAP1 SLOAD SWAP1 PUSH2 0x100 EXP SWAP1 DIV PUSH1 0xFF AND PUSH1 0xFF AND EQ PUSH2 0x2A88 JUMPI PUSH1 0x0 DUP1 REVERT JUMPDEST PUSH1 0x2 PUSH1 0x6 PUSH1 0x0 PUSH2 0x100 EXP DUP2 SLOAD DUP2 PUSH1 0xFF MUL NOT AND SWAP1 DUP4 PUSH1 0xFF AND MUL OR SWAP1 SSTORE POP PUSH2 0x2AAE CALLER DUP4 PUSH2 0x3C67 JUMP JUMPDEST PUSH2 0x2ABB JUMPI PUSH2 0x2ABA PUSH2 0x7398 JUMP JUMPDEST JUMPDEST PUSH1 0x0 PUSH1 0x10 PUSH1 0x0 DUP5 DUP2 MSTORE PUSH1 0x20 ADD SWAP1 DUP2 MSTORE PUSH1 0x20 ADD PUSH1 0x0 KECCAK256 PUSH1 0x40 MLOAD DUP1 PUSH1 0x40 ADD PUSH1 0x40 MSTORE SWAP1 DUP2 PUSH1 0x0 DUP3 ADD PUSH1 0x0 SWAP1 SLOAD SWAP1 PUSH2 0x100 EXP SWAP1 DIV PUSH1 0xF SIGNEXTEND PUSH1 0xF SIGNEXTEND PUSH1 0xF SIGNEXTEND DUP2 MSTORE PUSH1 0x20 ADD PUSH1 0x1 DUP3 ADD SLOAD DUP2 MSTORE POP POP SWAP1 POP PUSH1 0x0 PUSH3 0x93A80 DUP1 DUP5 TIMESTAMP PUSH2 0x2B17 SWAP2 SWAP1 PUSH2 0x759E JUMP JUMPDEST PUSH2 0x2B21 SWAP2 SWAP1 PUSH2 0x7794 JUMP JUMPDEST PUSH2 0x2B2B SWAP2 SWAP1 PUSH2 0x773A JUMP JUMPDEST SWAP1 POP TIMESTAMP DUP3 PUSH1 0x20 ADD MLOAD GT PUSH2 0x2B73 JUMPI PUSH1 0x40 MLOAD PUSH32 0x8C379A000000000000000000000000000000000000000000000000000000000 DUP2 MSTORE PUSH1 0x4 ADD PUSH2 0x2B6A SWAP1 PUSH2 0x790F JUMP JUMPDEST PUSH1 0x40 MLOAD DUP1 SWAP2 SUB SWAP1 REVERT JUMPDEST PUSH1 0x0 DUP3 PUSH1 0x0 ADD MLOAD PUSH1 0xF SIGNEXTEND SGT PUSH2 0x2BBD JUMPI PUSH1 0x40 MLOAD PUSH32 0x8C379A000000000000000000000000000000000000000000000000000000000 DUP2 MSTORE PUSH1 0x4 ADD PUSH2 0x2BB4 SWAP1 PUSH2 0x797B JUMP JUMPDEST PUSH1 0x40 MLOAD DUP1 SWAP2 SUB SWAP1 REVERT JUMPDEST DUP2 PUSH1 0x20 ADD MLOAD DUP2 GT PUSH2 0x2C03 JUMPI PUSH1 0x40 MLOAD PUSH32 0x8C379A000000000000000000000000000000000000000000000000000000000 DUP2 MSTORE PUSH1 0x4 ADD PUSH2 0x2BFA SWAP1 PUSH2 0x79E7 JUMP JUMPDEST PUSH1 0x40 MLOAD DUP1 SWAP2 SUB SWAP1 REVERT JUMPDEST PUSH4 0x3C26700 TIMESTAMP PUSH2 0x2C13 SWAP2 SWAP1 PUSH2 0x759E JUMP JUMPDEST DUP2 GT ISZERO PUSH2 0x2C55 JUMPI PUSH1 0x40 MLOAD PUSH32 0x8C379A000000000000000000000000000000000000000000000000000000000 DUP2 MSTORE PUSH1 0x4 ADD PUSH2 0x2C4C SWAP1 PUSH2 0x771A JUMP JUMPDEST PUSH1 0x40 MLOAD DUP1 SWAP2 SUB SWAP1 REVERT JUMPDEST PUSH2 0x2C64 DUP5 PUSH1 0x0 DUP4 DUP6 PUSH1 0x3 PUSH2 0x4933 JUMP JUMPDEST POP POP PUSH1 0x1 PUSH1 0x6 PUSH1 0x0 PUSH2 0x100 EXP DUP2 SLOAD DUP2 PUSH1 0xFF MUL NOT AND SWAP1 DUP4 PUSH1 0xFF AND MUL OR SWAP1 SSTORE POP POP POP JUMP JUMPDEST PUSH1 0x10 PUSH1 0x20 MSTORE DUP1 PUSH1 0x0 MSTORE PUSH1 0x40 PUSH1 0x0 KECCAK256 PUSH1 0x0 SWAP2 POP SWAP1 POP DUP1 PUSH1 0x0 ADD PUSH1 0x0 SWAP1 SLOAD SWAP1 PUSH2 0x100 EXP SWAP1 DIV PUSH1 0xF SIGNEXTEND SWAP1 DUP1 PUSH1 0x1 ADD SLOAD SWAP1 POP DUP3 JUMP JUMPDEST PUSH2 0x2CC3 DUP5 DUP5 DUP5 CALLER PUSH2 0x3B22 JUMP JUMPDEST PUSH2 0x2CCC DUP4 PUSH2 0x53F1 JUMP JUMPDEST ISZERO PUSH2 0x2E57 JUMPI DUP3 PUSH20 0xFFFFFFFFFFFFFFFFFFFFFFFFFFFFFFFFFFFFFFFF AND PUSH4 0x150B7A02 CALLER DUP7 DUP6 DUP6 PUSH1 0x40 MLOAD DUP6 PUSH4 0xFFFFFFFF AND PUSH1 0xE0 SHL DUP2 MSTORE PUSH1 0x4 ADD PUSH2 0x2D10 SWAP5 SWAP4 SWAP3 SWAP2 SWAP1 PUSH2 0x7A5C JUMP JUMPDEST PUSH1 0x20 PUSH1 0x40 MLOAD DUP1 DUP4 SUB DUP2 PUSH1 0x0 DUP8 GAS CALL SWAP3 POP POP POP DUP1 ISZERO PUSH2 0x2D4C JUMPI POP PUSH1 0x40 MLOAD RETURNDATASIZE PUSH1 0x1F NOT PUSH1 0x1F DUP3 ADD AND DUP3 ADD DUP1 PUSH1 0x40 MSTORE POP DUP2 ADD SWAP1 PUSH2 0x2D49 SWAP2 SWAP1 PUSH2 0x7ABD JUMP JUMPDEST PUSH1 0x1 JUMPDEST PUSH2 0x2DCE JUMPI RETURNDATASIZE DUP1 PUSH1 0x0 DUP2 EQ PUSH2 0x2D7C JUMPI PUSH1 0x40 MLOAD SWAP2 POP PUSH1 0x1F NOT PUSH1 0x3F RETURNDATASIZE ADD AND DUP3 ADD PUSH1 0x40 MSTORE RETURNDATASIZE DUP3 MSTORE RETURNDATASIZE PUSH1 0x0 PUSH1 0x20 DUP5 ADD RETURNDATACOPY PUSH2 0x2D81 JUMP JUMPDEST PUSH1 0x60 SWAP2 POP JUMPDEST POP PUSH1 0x0 DUP2 MLOAD SUB PUSH2 0x2DC6 JUMPI PUSH1 0x40 MLOAD PUSH32 0x8C379A000000000000000000000000000000000000000000000000000000000 DUP2 MSTORE PUSH1 0x4 ADD PUSH2 0x2DBD SWAP1 PUSH2 0x7B5C JUMP JUMPDEST PUSH1 0x40 MLOAD DUP1 SWAP2 SUB SWAP1 REVERT JUMPDEST DUP1 MLOAD DUP2 PUSH1 0x20 ADD REVERT JUMPDEST PUSH4 0x150B7A02 PUSH1 0xE0 SHL PUSH28 0xFFFFFFFFFFFFFFFFFFFFFFFFFFFFFFFFFFFFFFFFFFFFFFFFFFFFFFFF NOT AND DUP2 PUSH28 0xFFFFFFFFFFFFFFFFFFFFFFFFFFFFFFFFFFFFFFFFFFFFFFFFFFFFFFFF NOT AND EQ PUSH2 0x2E55 JUMPI PUSH1 0x40 MLOAD PUSH32 0x8C379A000000000000000000000000000000000000000000000000000000000 DUP2 MSTORE PUSH1 0x4 ADD PUSH2 0x2E4C SWAP1 PUSH2 0x7BEE JUMP JUMPDEST PUSH1 0x40 MLOAD DUP1 SWAP2 SUB SWAP1 REVERT JUMPDEST POP JUMPDEST POP POP POP POP JUMP JUMPDEST PUSH1 0x0 DUP1 SLOAD SWAP1 PUSH2 0x100 EXP SWAP1 DIV PUSH20 0xFFFFFFFFFFFFFFFFFFFFFFFFFFFFFFFFFFFFFFFF AND PUSH20 0xFFFFFFFFFFFFFFFFFFFFFFFFFFFFFFFFFFFFFFFF AND CALLER PUSH20 0xFFFFFFFFFFFFFFFFFFFFFFFFFFFFFFFFFFFFFFFF AND EQ PUSH2 0x2EB5 JUMPI PUSH1 0x0 DUP1 REVERT JUMPDEST PUSH1 0x0 PUSH1 0x15 PUSH1 0x0 DUP4 DUP2 MSTORE PUSH1 0x20 ADD SWAP1 DUP2 MSTORE PUSH1 0x20 ADD PUSH1 0x0 KECCAK256 PUSH1 0x0 PUSH2 0x100 EXP DUP2 SLOAD DUP2 PUSH1 0xFF MUL NOT AND SWAP1 DUP4 ISZERO ISZERO MUL OR SWAP1 SSTORE POP POP JUMP JUMPDEST PUSH2 0x2F22 PUSH1 0x0 PUSH1 0x40 MLOAD DUP1 PUSH1 0x40 ADD PUSH1 0x40 MSTORE DUP1 PUSH1 0x0 PUSH1 0xF SIGNEXTEND DUP2 MSTORE PUSH1 0x20 ADD PUSH1 0x0 DUP2 MSTORE POP PUSH1 0x40 MLOAD DUP1 PUSH1 0x40 ADD PUSH1 0x40 MSTORE DUP1 PUSH1 0x0 PUSH1 0xF SIGNEXTEND DUP2 MSTORE PUSH1 0x20 ADD PUSH1 0x0 DUP2 MSTORE POP PUSH2 0x3DE4 JUMP JUMPDEST JUMP JUMPDEST CALLER PUSH20 0xFFFFFFFFFFFFFFFFFFFFFFFFFFFFFFFFFFFFFFFF AND DUP7 PUSH20 0xFFFFFFFFFFFFFFFFFFFFFFFFFFFFFFFFFFFFFFFF AND SUB PUSH2 0x2F5C JUMPI PUSH1 0x0 DUP1 REVERT JUMPDEST PUSH1 0x0 PUSH20 0xFFFFFFFFFFFFFFFFFFFFFFFFFFFFFFFFFFFFFFFF AND DUP7 PUSH20 0xFFFFFFFFFFFFFFFFFFFFFFFFFFFFFFFFFFFFFFFF AND SUB PUSH2 0x2F95 JUMPI PUSH1 0x0 DUP1 REVERT JUMPDEST PUSH1 0x0 PUSH32 0x8CAD95687BA82C2CE50E74F7B754645E5117C3A5BEC8151C0726D5857980A866 PUSH1 0x40 MLOAD DUP1 PUSH1 0x40 ADD PUSH1 0x40 MSTORE DUP1 PUSH1 0x7 DUP2 MSTORE PUSH1 0x20 ADD PUSH32 0x76655468656E6100000000000000000000000000000000000000000000000000 DUP2 MSTORE POP DUP1 MLOAD SWAP1 PUSH1 0x20 ADD KECCAK256 PUSH1 0x40 MLOAD DUP1 PUSH1 0x40 ADD PUSH1 0x40 MSTORE DUP1 PUSH1 0x5 DUP2 MSTORE PUSH1 0x20 ADD PUSH32 0x312E302E30000000000000000000000000000000000000000000000000000000 DUP2 MSTORE POP DUP1 MLOAD SWAP1 PUSH1 0x20 ADD KECCAK256 CHAINID ADDRESS PUSH1 0x40 MLOAD PUSH1 0x20 ADD PUSH2 0x3048 SWAP6 SWAP5 SWAP4 SWAP3 SWAP2 SWAP1 PUSH2 0x7C0E JUMP JUMPDEST PUSH1 0x40 MLOAD PUSH1 0x20 DUP2 DUP4 SUB SUB DUP2 MSTORE SWAP1 PUSH1 0x40 MSTORE DUP1 MLOAD SWAP1 PUSH1 0x20 ADD KECCAK256 SWAP1 POP PUSH1 0x0 PUSH32 0xE48329057BFD03D55E49B547132E39CFFD9C1820AD7B9D4C5307691425D15ADF DUP9 DUP9 DUP9 PUSH1 0x40 MLOAD PUSH1 0x20 ADD PUSH2 0x3099 SWAP5 SWAP4 SWAP3 SWAP2 SWAP1 PUSH2 0x7C61 JUMP JUMPDEST PUSH1 0x40 MLOAD PUSH1 0x20 DUP2 DUP4 SUB SUB DUP2 MSTORE SWAP1 PUSH1 0x40 MSTORE DUP1 MLOAD SWAP1 PUSH1 0x20 ADD KECCAK256 SWAP1 POP PUSH1 0x0 DUP3 DUP3 PUSH1 0x40 MLOAD PUSH1 0x20 ADD PUSH2 0x30C6 SWAP3 SWAP2 SWAP1 PUSH2 0x7D1E JUMP JUMPDEST PUSH1 0x40 MLOAD PUSH1 0x20 DUP2 DUP4 SUB SUB DUP2 MSTORE SWAP1 PUSH1 0x40 MSTORE DUP1 MLOAD SWAP1 PUSH1 0x20 ADD KECCAK256 SWAP1 POP PUSH1 0x0 PUSH1 0x1 DUP3 DUP9 DUP9 DUP9 PUSH1 0x40 MLOAD PUSH1 0x0 DUP2 MSTORE PUSH1 0x20 ADD PUSH1 0x40 MSTORE PUSH1 0x40 MLOAD PUSH2 0x3103 SWAP5 SWAP4 SWAP3 SWAP2 SWAP1 PUSH2 0x7D55 JUMP JUMPDEST PUSH1 0x20 PUSH1 0x40 MLOAD PUSH1 0x20 DUP2 SUB SWAP1 DUP1 DUP5 SUB SWAP1 DUP6 GAS STATICCALL ISZERO DUP1 ISZERO PUSH2 0x3125 JUMPI RETURNDATASIZE PUSH1 0x0 DUP1 RETURNDATACOPY RETURNDATASIZE PUSH1 0x0 REVERT JUMPDEST POP POP POP PUSH1 0x20 PUSH1 0x40 MLOAD SUB MLOAD SWAP1 POP PUSH1 0x0 PUSH20 0xFFFFFFFFFFFFFFFFFFFFFFFFFFFFFFFFFFFFFFFF AND DUP2 PUSH20 0xFFFFFFFFFFFFFFFFFFFFFFFFFFFFFFFFFFFFFFFF AND SUB PUSH2 0x31A0 JUMPI PUSH1 0x40 MLOAD PUSH32 0x8C379A000000000000000000000000000000000000000000000000000000000 DUP2 MSTORE PUSH1 0x4 ADD PUSH2 0x3197 SWAP1 PUSH2 0x7E0C JUMP JUMPDEST PUSH1 0x40 MLOAD DUP1 SWAP2 SUB SWAP1 REVERT JUMPDEST PUSH1 0x19 PUSH1 0x0 DUP3 PUSH20 0xFFFFFFFFFFFFFFFFFFFFFFFFFFFFFFFFFFFFFFFF AND PUSH20 0xFFFFFFFFFFFFFFFFFFFFFFFFFFFFFFFFFFFFFFFF AND DUP2 MSTORE PUSH1 0x20 ADD SWAP1 DUP2 MSTORE PUSH1 0x20 ADD PUSH1 0x0 KECCAK256 PUSH1 0x0 DUP2 SLOAD DUP1 SWAP3 SWAP2 SWAP1 PUSH2 0x31F0 SWAP1 PUSH2 0x75F4 JUMP JUMPDEST SWAP2 SWAP1 POP SSTORE DUP10 EQ PUSH2 0x3235 JUMPI PUSH1 0x40 MLOAD PUSH32 0x8C379A000000000000000000000000000000000000000000000000000000000 DUP2 MSTORE PUSH1 0x4 ADD PUSH2 0x322C SWAP1 PUSH2 0x7E9E JUMP JUMPDEST PUSH1 0x40 MLOAD DUP1 SWAP2 SUB SWAP1 REVERT JUMPDEST DUP8 TIMESTAMP GT ISZERO PUSH2 0x3278 JUMPI PUSH1 0x40 MLOAD PUSH32 0x8C379A000000000000000000000000000000000000000000000000000000000 DUP2 MSTORE PUSH1 0x4 ADD PUSH2 0x326F SWAP1 PUSH2 0x7F30 JUMP JUMPDEST PUSH1 0x40 MLOAD DUP1 SWAP2 SUB SWAP1 REVERT JUMPDEST PUSH2 0x3282 DUP2 DUP12 PUSH2 0x4BE3 JUMP JUMPDEST POP POP POP POP POP POP POP POP POP POP JUMP JUMPDEST PUSH1 0x60 PUSH1 0x0 PUSH20 0xFFFFFFFFFFFFFFFFFFFFFFFFFFFFFFFFFFFFFFFF AND PUSH1 0x7 PUSH1 0x0 DUP5 DUP2 MSTORE PUSH1 0x20 ADD SWAP1 DUP2 MSTORE PUSH1 0x20 ADD PUSH1 0x0 KECCAK256 PUSH1 0x0 SWAP1 SLOAD SWAP1 PUSH2 0x100 EXP SWAP1 DIV PUSH20 0xFFFFFFFFFFFFFFFFFFFFFFFFFFFFFFFFFFFFFFFF AND PUSH20 0xFFFFFFFFFFFFFFFFFFFFFFFFFFFFFFFFFFFFFFFF AND SUB PUSH2 0x3332 JUMPI PUSH1 0x40 MLOAD PUSH32 0x8C379A000000000000000000000000000000000000000000000000000000000 DUP2 MSTORE PUSH1 0x4 ADD PUSH2 0x3329 SWAP1 PUSH2 0x7F9C JUMP JUMPDEST PUSH1 0x40 MLOAD DUP1 SWAP2 SUB SWAP1 REVERT JUMPDEST PUSH1 0x0 PUSH1 0x10 PUSH1 0x0 DUP5 DUP2 MSTORE PUSH1 0x20 ADD SWAP1 DUP2 MSTORE PUSH1 0x20 ADD PUSH1 0x0 KECCAK256 PUSH1 0x40 MLOAD DUP1 PUSH1 0x40 ADD PUSH1 0x40 MSTORE SWAP1 DUP2 PUSH1 0x0 DUP3 ADD PUSH1 0x0 SWAP1 SLOAD SWAP1 PUSH2 0x100 EXP SWAP1 DIV PUSH1 0xF SIGNEXTEND PUSH1 0xF SIGNEXTEND PUSH1 0xF SIGNEXTEND DUP2 MSTORE PUSH1 0x20 ADD PUSH1 0x1 DUP3 ADD SLOAD DUP2 MSTORE POP POP SWAP1 POP PUSH1 0x2 PUSH1 0x0 SWAP1 SLOAD SWAP1 PUSH2 0x100 EXP SWAP1 DIV PUSH20 0xFFFFFFFFFFFFFFFFFFFFFFFFFFFFFFFFFFFFFFFF AND PUSH20 0xFFFFFFFFFFFFFFFFFFFFFFFFFFFFFFFFFFFFFFFF AND PUSH4 0xDD9EC149 DUP5 PUSH2 0x33C4 DUP7 TIMESTAMP PUSH2 0x4747 JUMP JUMPDEST DUP5 PUSH1 0x20 ADD MLOAD DUP6 PUSH1 0x0 ADD MLOAD PUSH1 0xF SIGNEXTEND PUSH1 0x40 MLOAD DUP6 PUSH4 0xFFFFFFFF AND PUSH1 0xE0 SHL DUP2 MSTORE PUSH1 0x4 ADD PUSH2 0x33F0 SWAP5 SWAP4 SWAP3 SWAP2 SWAP1 PUSH2 0x7FBC JUMP JUMPDEST PUSH1 0x0 PUSH1 0x40 MLOAD DUP1 DUP4 SUB DUP2 DUP7 GAS STATICCALL ISZERO DUP1 ISZERO PUSH2 0x340D JUMPI RETURNDATASIZE PUSH1 0x0 DUP1 RETURNDATACOPY RETURNDATASIZE PUSH1 0x0 REVERT JUMPDEST POP POP POP POP PUSH1 0x40 MLOAD RETURNDATASIZE PUSH1 0x0 DUP3 RETURNDATACOPY RETURNDATASIZE PUSH1 0x1F NOT PUSH1 0x1F DUP3 ADD AND DUP3 ADD DUP1 PUSH1 0x40 MSTORE POP DUP2 ADD SWAP1 PUSH2 0x3436 SWAP2 SWAP1 PUSH2 0x80A2 JUMP JUMPDEST SWAP2 POP POP SWAP2 SWAP1 POP JUMP JUMPDEST PUSH1 0x0 PUSH1 0x14 PUSH1 0x0 DUP5 DUP2 MSTORE PUSH1 0x20 ADD SWAP1 DUP2 MSTORE PUSH1 0x20 ADD PUSH1 0x0 KECCAK256 SLOAD EQ DUP1 ISZERO PUSH2 0x347F JUMPI POP PUSH1 0x15 PUSH1 0x0 DUP4 DUP2 MSTORE PUSH1 0x20 ADD SWAP1 DUP2 MSTORE PUSH1 0x20 ADD PUSH1 0x0 KECCAK256 PUSH1 0x0 SWAP1 SLOAD SWAP1 PUSH2 0x100 EXP SWAP1 DIV PUSH1 0xFF AND ISZERO JUMPDEST PUSH2 0x34BE JUMPI PUSH1 0x40 MLOAD PUSH32 0x8C379A000000000000000000000000000000000000000000000000000000000 DUP2 MSTORE PUSH1 0x4 ADD PUSH2 0x34B5 SWAP1 PUSH2 0x7413 JUMP JUMPDEST PUSH1 0x40 MLOAD DUP1 SWAP2 SUB SWAP1 REVERT JUMPDEST DUP1 DUP3 SUB PUSH2 0x34CA JUMPI PUSH1 0x0 DUP1 REVERT JUMPDEST PUSH2 0x34D4 CALLER DUP4 PUSH2 0x3C67 JUMP JUMPDEST PUSH2 0x34DD JUMPI PUSH1 0x0 DUP1 REVERT JUMPDEST PUSH2 0x34E7 CALLER DUP3 PUSH2 0x3C67 JUMP JUMPDEST PUSH2 0x34F0 JUMPI PUSH1 0x0 DUP1 REVERT JUMPDEST PUSH1 0x0 PUSH1 0x10 PUSH1 0x0 DUP5 DUP2 MSTORE PUSH1 0x20 ADD SWAP1 DUP2 MSTORE PUSH1 0x20 ADD PUSH1 0x0 KECCAK256 PUSH1 0x40 MLOAD DUP1 PUSH1 0x40 ADD PUSH1 0x40 MSTORE SWAP1 DUP2 PUSH1 0x0 DUP3 ADD PUSH1 0x0 SWAP1 SLOAD SWAP1 PUSH2 0x100 EXP SWAP1 DIV PUSH1 0xF SIGNEXTEND PUSH1 0xF SIGNEXTEND PUSH1 0xF SIGNEXTEND DUP2 MSTORE PUSH1 0x20 ADD PUSH1 0x1 DUP3 ADD SLOAD DUP2 MSTORE POP POP SWAP1 POP PUSH1 0x0 PUSH1 0x10 PUSH1 0x0 DUP5 DUP2 MSTORE PUSH1 0x20 ADD SWAP1 DUP2 MSTORE PUSH1 0x20 ADD PUSH1 0x0 KECCAK256 PUSH1 0x40 MLOAD DUP1 PUSH1 0x40 ADD PUSH1 0x40 MSTORE SWAP1 DUP2 PUSH1 0x0 DUP3 ADD PUSH1 0x0 SWAP1 SLOAD SWAP1 PUSH2 0x100 EXP SWAP1 DIV PUSH1 0xF SIGNEXTEND PUSH1 0xF SIGNEXTEND PUSH1 0xF SIGNEXTEND DUP2 MSTORE PUSH1 0x20 ADD PUSH1 0x1 DUP3 ADD SLOAD DUP2 MSTORE POP POP SWAP1 POP PUSH1 0x0 DUP3 PUSH1 0x0 ADD MLOAD PUSH1 0xF SIGNEXTEND SWAP1 POP PUSH1 0x0 DUP3 PUSH1 0x20 ADD MLOAD DUP5 PUSH1 0x20 ADD MLOAD LT ISZERO PUSH2 0x35AA JUMPI DUP3 PUSH1 0x20 ADD MLOAD PUSH2 0x35B0 JUMP JUMPDEST DUP4 PUSH1 0x20 ADD MLOAD JUMPDEST SWAP1 POP PUSH1 0x40 MLOAD DUP1 PUSH1 0x40 ADD PUSH1 0x40 MSTORE DUP1 PUSH1 0x0 PUSH1 0xF SIGNEXTEND DUP2 MSTORE PUSH1 0x20 ADD PUSH1 0x0 DUP2 MSTORE POP PUSH1 0x10 PUSH1 0x0 DUP9 DUP2 MSTORE PUSH1 0x20 ADD SWAP1 DUP2 MSTORE PUSH1 0x20 ADD PUSH1 0x0 KECCAK256 PUSH1 0x0 DUP3 ADD MLOAD DUP2 PUSH1 0x0 ADD PUSH1 0x0 PUSH2 0x100 EXP DUP2 SLOAD DUP2 PUSH16 0xFFFFFFFFFFFFFFFFFFFFFFFFFFFFFFFF MUL NOT AND SWAP1 DUP4 PUSH1 0xF SIGNEXTEND PUSH16 0xFFFFFFFFFFFFFFFFFFFFFFFFFFFFFFFF AND MUL OR SWAP1 SSTORE POP PUSH1 0x20 DUP3 ADD MLOAD DUP2 PUSH1 0x1 ADD SSTORE SWAP1 POP POP PUSH2 0x3652 DUP7 DUP6 PUSH1 0x40 MLOAD DUP1 PUSH1 0x40 ADD PUSH1 0x40 MSTORE DUP1 PUSH1 0x0 PUSH1 0xF SIGNEXTEND DUP2 MSTORE PUSH1 0x20 ADD PUSH1 0x0 DUP2 MSTORE POP PUSH2 0x3DE4 JUMP JUMPDEST PUSH2 0x365B DUP7 PUSH2 0x4668 JUMP JUMPDEST PUSH2 0x3669 DUP6 DUP4 DUP4 DUP7 PUSH1 0x4 PUSH2 0x4933 JUMP JUMPDEST POP POP POP POP POP POP JUMP JUMPDEST PUSH1 0x3 PUSH1 0x20 MSTORE DUP1 PUSH1 0x0 MSTORE PUSH1 0x40 PUSH1 0x0 KECCAK256 PUSH1 0x0 SWAP2 POP SWAP1 POP DUP1 PUSH1 0x0 ADD PUSH1 0x0 SWAP1 SLOAD SWAP1 PUSH2 0x100 EXP SWAP1 DIV PUSH1 0xF SIGNEXTEND SWAP1 DUP1 PUSH1 0x0 ADD PUSH1 0x10 SWAP1 SLOAD SWAP1 PUSH2 0x100 EXP SWAP1 DIV PUSH1 0xF SIGNEXTEND SWAP1 DUP1 PUSH1 0x1 ADD SLOAD SWAP1 DUP1 PUSH1 0x2 ADD SLOAD SWAP1 POP DUP5 JUMP JUMPDEST PUSH1 0x0 PUSH1 0x1 PUSH1 0xFF AND PUSH1 0x6 PUSH1 0x0 SWAP1 SLOAD SWAP1 PUSH2 0x100 EXP SWAP1 DIV PUSH1 0xFF AND PUSH1 0xFF AND EQ PUSH2 0x36DF JUMPI PUSH1 0x0 DUP1 REVERT JUMPDEST PUSH1 0x2 PUSH1 0x6 PUSH1 0x0 PUSH2 0x100 EXP DUP2 SLOAD DUP2 PUSH1 0xFF MUL NOT AND SWAP1 DUP4 PUSH1 0xFF AND MUL OR SWAP1 SSTORE POP PUSH2 0x3706 DUP5 DUP5 DUP5 PUSH2 0x4CEF JUMP JUMPDEST SWAP1 POP PUSH1 0x1 PUSH1 0x6 PUSH1 0x0 PUSH2 0x100 EXP DUP2 SLOAD DUP2 PUSH1 0xFF MUL NOT AND SWAP1 DUP4 PUSH1 0xFF AND MUL OR SWAP1 SSTORE POP SWAP4 SWAP3 POP POP POP JUMP JUMPDEST PUSH1 0x0 PUSH2 0x3737 DUP4 DUP4 PUSH2 0x4747 JUMP JUMPDEST SWAP1 POP SWAP3 SWAP2 POP POP JUMP JUMPDEST PUSH1 0xE PUSH1 0x20 MSTORE DUP1 PUSH1 0x0 MSTORE PUSH1 0x40 PUSH1 0x0 KECCAK256 PUSH1 0x0 SWAP2 POP SWAP1 POP SLOAD DUP2 JUMP JUMPDEST PUSH32 0xE48329057BFD03D55E49B547132E39CFFD9C1820AD7B9D4C5307691425D15ADF DUP2 JUMP JUMPDEST PUSH1 0x0 NUMBER PUSH1 0xB PUSH1 0x0 DUP5 DUP2 MSTORE PUSH1 0x20 ADD SWAP1 DUP2 MSTORE PUSH1 0x20 ADD PUSH1 0x0 KECCAK256 SLOAD SUB PUSH2 0x37A0 JUMPI PUSH1 0x0 SWAP1 POP PUSH2 0x37AD JUMP JUMPDEST PUSH2 0x37AA DUP3 TIMESTAMP PUSH2 0x4747 JUMP JUMPDEST SWAP1 POP JUMPDEST SWAP2 SWAP1 POP JUMP JUMPDEST PUSH1 0x0 PUSH1 0xA PUSH1 0x0 DUP5 PUSH20 0xFFFFFFFFFFFFFFFFFFFFFFFFFFFFFFFFFFFFFFFF AND PUSH20 0xFFFFFFFFFFFFFFFFFFFFFFFFFFFFFFFFFFFFFFFF AND DUP2 MSTORE PUSH1 0x20 ADD SWAP1 DUP2 MSTORE PUSH1 0x20 ADD PUSH1 0x0 KECCAK256 PUSH1 0x0 DUP4 PUSH20 0xFFFFFFFFFFFFFFFFFFFFFFFFFFFFFFFFFFFFFFFF AND PUSH20 0xFFFFFFFFFFFFFFFFFFFFFFFFFFFFFFFFFFFFFFFF AND DUP2 MSTORE PUSH1 0x20 ADD SWAP1 DUP2 MSTORE PUSH1 0x20 ADD PUSH1 0x0 KECCAK256 PUSH1 0x0 SWAP1 SLOAD SWAP1 PUSH2 0x100 EXP SWAP1 DIV PUSH1 0xFF AND SWAP1 POP SWAP3 SWAP2 POP POP JUMP JUMPDEST PUSH1 0x1 PUSH1 0xFF AND PUSH1 0x6 PUSH1 0x0 SWAP1 SLOAD SWAP1 PUSH2 0x100 EXP SWAP1 DIV PUSH1 0xFF AND PUSH1 0xFF AND EQ PUSH2 0x3868 JUMPI PUSH1 0x0 DUP1 REVERT JUMPDEST PUSH1 0x2 PUSH1 0x6 PUSH1 0x0 PUSH2 0x100 EXP DUP2 SLOAD DUP2 PUSH1 0xFF MUL NOT AND SWAP1 DUP4 PUSH1 0xFF AND MUL OR SWAP1 SSTORE POP PUSH1 0x0 PUSH1 0x10 PUSH1 0x0 DUP5 DUP2 MSTORE PUSH1 0x20 ADD SWAP1 DUP2 MSTORE PUSH1 0x20 ADD PUSH1 0x0 KECCAK256 PUSH1 0x40 MLOAD DUP1 PUSH1 0x40 ADD PUSH1 0x40 MSTORE SWAP1 DUP2 PUSH1 0x0 DUP3 ADD PUSH1 0x0 SWAP1 SLOAD SWAP1 PUSH2 0x100 EXP SWAP1 DIV PUSH1 0xF SIGNEXTEND PUSH1 0xF SIGNEXTEND PUSH1 0xF SIGNEXTEND DUP2 MSTORE PUSH1 0x20 ADD PUSH1 0x1 DUP3 ADD SLOAD DUP2 MSTORE POP POP SWAP1 POP PUSH1 0x0 DUP3 GT PUSH2 0x38DA JUMPI PUSH1 0x0 DUP1 REVERT JUMPDEST PUSH1 0x0 DUP2 PUSH1 0x0 ADD MLOAD PUSH1 0xF SIGNEXTEND SGT PUSH2 0x3924 JUMPI PUSH1 0x40 MLOAD PUSH32 0x8C379A000000000000000000000000000000000000000000000000000000000 DUP2 MSTORE PUSH1 0x4 ADD PUSH2 0x391B SWAP1 PUSH2 0x7811 JUMP JUMPDEST PUSH1 0x40 MLOAD DUP1 SWAP2 SUB SWAP1 REVERT JUMPDEST TIMESTAMP DUP2 PUSH1 0x20 ADD MLOAD GT PUSH2 0x396A JUMPI PUSH1 0x40 MLOAD PUSH32 0x8C379A000000000000000000000000000000000000000000000000000000000 DUP2 MSTORE PUSH1 0x4 ADD PUSH2 0x3961 SWAP1 PUSH2 0x78A3 JUMP JUMPDEST PUSH1 0x40 MLOAD DUP1 SWAP2 SUB SWAP1 REVERT JUMPDEST PUSH2 0x3979 DUP4 DUP4 PUSH1 0x0 DUP5 PUSH1 0x0 PUSH2 0x4933 JUMP JUMPDEST POP PUSH1 0x1 PUSH1 0x6 PUSH1 0x0 PUSH2 0x100 EXP DUP2 SLOAD DUP2 PUSH1 0xFF MUL NOT AND SWAP1 DUP4 PUSH1 0xFF AND MUL OR SWAP1 SSTORE POP POP POP JUMP JUMPDEST PUSH1 0x17 PUSH1 0x20 MSTORE DUP2 PUSH1 0x0 MSTORE PUSH1 0x40 PUSH1 0x0 KECCAK256 PUSH1 0x20 MSTORE DUP1 PUSH1 0x0 MSTORE PUSH1 0x40 PUSH1 0x0 KECCAK256 PUSH1 0x0 SWAP2 POP SWAP2 POP POP DUP1 PUSH1 0x0 ADD SLOAD SWAP1 POP DUP2 JUMP JUMPDEST PUSH1 0x0 PUSH1 0x10 PUSH1 0x0 DUP4 DUP2 MSTORE PUSH1 0x20 ADD SWAP1 DUP2 MSTORE PUSH1 0x20 ADD PUSH1 0x0 KECCAK256 PUSH1 0x1 ADD SLOAD SWAP1 POP SWAP2 SWAP1 POP JUMP JUMPDEST PUSH1 0x0 DUP1 SLOAD SWAP1 PUSH2 0x100 EXP SWAP1 DIV PUSH20 0xFFFFFFFFFFFFFFFFFFFFFFFFFFFFFFFFFFFFFFFF AND PUSH20 0xFFFFFFFFFFFFFFFFFFFFFFFFFFFFFFFFFFFFFFFF AND CALLER PUSH20 0xFFFFFFFFFFFFFFFFFFFFFFFFFFFFFFFFFFFFFFFF AND EQ PUSH2 0x3A3D JUMPI PUSH1 0x0 DUP1 REVERT JUMPDEST PUSH1 0x1 PUSH1 0x14 PUSH1 0x0 DUP4 DUP2 MSTORE PUSH1 0x20 ADD SWAP1 DUP2 MSTORE PUSH1 0x20 ADD PUSH1 0x0 KECCAK256 SLOAD PUSH2 0x3A5D SWAP2 SWAP1 PUSH2 0x759E JUMP JUMPDEST PUSH1 0x14 PUSH1 0x0 DUP4 DUP2 MSTORE PUSH1 0x20 ADD SWAP1 DUP2 MSTORE PUSH1 0x20 ADD PUSH1 0x0 KECCAK256 DUP2 SWAP1 SSTORE POP POP JUMP JUMPDEST PUSH32 0x0 DUP2 JUMP JUMPDEST PUSH1 0x0 DUP1 SLOAD SWAP1 PUSH2 0x100 EXP SWAP1 DIV PUSH20 0xFFFFFFFFFFFFFFFFFFFFFFFFFFFFFFFFFFFFFFFF AND PUSH20 0xFFFFFFFFFFFFFFFFFFFFFFFFFFFFFFFFFFFFFFFF AND CALLER PUSH20 0xFFFFFFFFFFFFFFFFFFFFFFFFFFFFFFFFFFFFFFFF AND EQ PUSH2 0x3AF3 JUMPI PUSH1 0x0 DUP1 REVERT JUMPDEST PUSH1 0x1 PUSH1 0x15 PUSH1 0x0 DUP4 DUP2 MSTORE PUSH1 0x20 ADD SWAP1 DUP2 MSTORE PUSH1 0x20 ADD PUSH1 0x0 KECCAK256 PUSH1 0x0 PUSH2 0x100 EXP DUP2 SLOAD DUP2 PUSH1 0xFF MUL NOT AND SWAP1 DUP4 ISZERO ISZERO MUL OR SWAP1 SSTORE POP POP JUMP JUMPDEST PUSH1 0x0 PUSH1 0x14 PUSH1 0x0 DUP5 DUP2 MSTORE PUSH1 0x20 ADD SWAP1 DUP2 MSTORE PUSH1 0x20 ADD PUSH1 0x0 KECCAK256 SLOAD EQ DUP1 ISZERO PUSH2 0x3B63 JUMPI POP PUSH1 0x15 PUSH1 0x0 DUP4 DUP2 MSTORE PUSH1 0x20 ADD SWAP1 DUP2 MSTORE PUSH1 0x20 ADD PUSH1 0x0 KECCAK256 PUSH1 0x0 SWAP1 SLOAD SWAP1 PUSH2 0x100 EXP SWAP1 DIV PUSH1 0xFF AND ISZERO JUMPDEST PUSH2 0x3BA2 JUMPI PUSH1 0x40 MLOAD PUSH32 0x8C379A000000000000000000000000000000000000000000000000000000000 DUP2 MSTORE PUSH1 0x4 ADD PUSH2 0x3B99 SWAP1 PUSH2 0x7413 JUMP JUMPDEST PUSH1 0x40 MLOAD DUP1 SWAP2 SUB SWAP1 REVERT JUMPDEST PUSH2 0x3BAC DUP2 DUP4 PUSH2 0x3C67 JUMP JUMPDEST PUSH2 0x3BB5 JUMPI PUSH1 0x0 DUP1 REVERT JUMPDEST PUSH2 0x3BBF DUP5 DUP4 PUSH2 0x5404 JUMP JUMPDEST PUSH2 0x3BC9 DUP5 DUP4 PUSH2 0x5532 JUMP JUMPDEST PUSH2 0x3BE4 PUSH2 0x3BD5 DUP6 PUSH2 0x2092 JUMP JUMPDEST PUSH2 0x3BDE DUP6 PUSH2 0x2092 JUMP JUMPDEST DUP5 PUSH2 0x5659 JUMP JUMPDEST PUSH2 0x3BEE DUP4 DUP4 PUSH2 0x5C85 JUMP JUMPDEST NUMBER PUSH1 0xB PUSH1 0x0 DUP5 DUP2 MSTORE PUSH1 0x20 ADD SWAP1 DUP2 MSTORE PUSH1 0x20 ADD PUSH1 0x0 KECCAK256 DUP2 SWAP1 SSTORE POP DUP2 DUP4 PUSH20 0xFFFFFFFFFFFFFFFFFFFFFFFFFFFFFFFFFFFFFFFF AND DUP6 PUSH20 0xFFFFFFFFFFFFFFFFFFFFFFFFFFFFFFFFFFFFFFFF AND PUSH32 0xDDF252AD1BE2C89B69C2B068FC378DAA952BA7F163C4A11628F55A4DF523B3EF PUSH1 0x40 MLOAD PUSH1 0x40 MLOAD DUP1 SWAP2 SUB SWAP1 LOG4 POP POP POP POP JUMP JUMPDEST PUSH1 0x0 DUP1 PUSH1 0x7 PUSH1 0x0 DUP5 DUP2 MSTORE PUSH1 0x20 ADD SWAP1 DUP2 MSTORE PUSH1 0x20 ADD PUSH1 0x0 KECCAK256 PUSH1 0x0 SWAP1 SLOAD SWAP1 PUSH2 0x100 EXP SWAP1 DIV PUSH20 0xFFFFFFFFFFFFFFFFFFFFFFFFFFFFFFFFFFFFFFFF AND SWAP1 POP PUSH1 0x0 DUP5 PUSH20 0xFFFFFFFFFFFFFFFFFFFFFFFFFFFFFFFFFFFFFFFF AND DUP3 PUSH20 0xFFFFFFFFFFFFFFFFFFFFFFFFFFFFFFFFFFFFFFFF AND EQ SWAP1 POP PUSH1 0x0 PUSH1 0x9 PUSH1 0x0 DUP7 DUP2 MSTORE PUSH1 0x20 ADD SWAP1 DUP2 MSTORE PUSH1 0x20 ADD PUSH1 0x0 KECCAK256 PUSH1 0x0 SWAP1 SLOAD SWAP1 PUSH2 0x100 EXP SWAP1 DIV PUSH20 0xFFFFFFFFFFFFFFFFFFFFFFFFFFFFFFFFFFFFFFFF AND PUSH20 0xFFFFFFFFFFFFFFFFFFFFFFFFFFFFFFFFFFFFFFFF AND DUP7 PUSH20 0xFFFFFFFFFFFFFFFFFFFFFFFFFFFFFFFFFFFFFFFF AND EQ SWAP1 POP PUSH1 0x0 PUSH1 0xA PUSH1 0x0 DUP6 PUSH20 0xFFFFFFFFFFFFFFFFFFFFFFFFFFFFFFFFFFFFFFFF AND PUSH20 0xFFFFFFFFFFFFFFFFFFFFFFFFFFFFFFFFFFFFFFFF AND DUP2 MSTORE PUSH1 0x20 ADD SWAP1 DUP2 MSTORE PUSH1 0x20 ADD PUSH1 0x0 KECCAK256 PUSH1 0x0 DUP9 PUSH20 0xFFFFFFFFFFFFFFFFFFFFFFFFFFFFFFFFFFFFFFFF AND PUSH20 0xFFFFFFFFFFFFFFFFFFFFFFFFFFFFFFFFFFFFFFFF AND DUP2 MSTORE PUSH1 0x20 ADD SWAP1 DUP2 MSTORE PUSH1 0x20 ADD PUSH1 0x0 KECCAK256 PUSH1 0x0 SWAP1 SLOAD SWAP1 PUSH2 0x100 EXP SWAP1 DIV PUSH1 0xFF AND SWAP1 POP DUP3 DUP1 PUSH2 0x3DD0 JUMPI POP DUP2 JUMPDEST DUP1 PUSH2 0x3DD8 JUMPI POP DUP1 JUMPDEST SWAP5 POP POP POP POP POP SWAP3 SWAP2 POP POP JUMP JUMPDEST PUSH2 0x3DEC PUSH2 0x6846 JUMP JUMPDEST PUSH2 0x3DF4 PUSH2 0x6846 JUMP JUMPDEST PUSH1 0x0 DUP1 PUSH1 0x0 PUSH1 0x11 SLOAD SWAP1 POP PUSH1 0x0 DUP9 EQ PUSH2 0x3F64 JUMPI TIMESTAMP DUP8 PUSH1 0x20 ADD MLOAD GT DUP1 ISZERO PUSH2 0x3E20 JUMPI POP PUSH1 0x0 DUP8 PUSH1 0x0 ADD MLOAD PUSH1 0xF SIGNEXTEND SGT JUMPDEST ISZERO PUSH2 0x3E7B JUMPI PUSH4 0x3C26700 DUP8 PUSH1 0x0 ADD MLOAD PUSH2 0x3E39 SWAP2 SWAP1 PUSH2 0x80EB JUMP JUMPDEST DUP6 PUSH1 0x20 ADD SWAP1 PUSH1 0xF SIGNEXTEND SWAP1 DUP2 PUSH1 0xF SIGNEXTEND DUP2 MSTORE POP POP TIMESTAMP DUP8 PUSH1 0x20 ADD MLOAD PUSH2 0x3E5A SWAP2 SWAP1 PUSH2 0x749F JUMP JUMPDEST DUP6 PUSH1 0x20 ADD MLOAD PUSH2 0x3E69 SWAP2 SWAP1 PUSH2 0x8155 JUMP JUMPDEST DUP6 PUSH1 0x0 ADD SWAP1 PUSH1 0xF SIGNEXTEND SWAP1 DUP2 PUSH1 0xF SIGNEXTEND DUP2 MSTORE POP POP JUMPDEST TIMESTAMP DUP7 PUSH1 0x20 ADD MLOAD GT DUP1 ISZERO PUSH2 0x3E95 JUMPI POP PUSH1 0x0 DUP7 PUSH1 0x0 ADD MLOAD PUSH1 0xF SIGNEXTEND SGT JUMPDEST ISZERO PUSH2 0x3EF0 JUMPI PUSH4 0x3C26700 DUP7 PUSH1 0x0 ADD MLOAD PUSH2 0x3EAE SWAP2 SWAP1 PUSH2 0x80EB JUMP JUMPDEST DUP5 PUSH1 0x20 ADD SWAP1 PUSH1 0xF SIGNEXTEND SWAP1 DUP2 PUSH1 0xF SIGNEXTEND DUP2 MSTORE POP POP TIMESTAMP DUP7 PUSH1 0x20 ADD MLOAD PUSH2 0x3ECF SWAP2 SWAP1 PUSH2 0x749F JUMP JUMPDEST DUP5 PUSH1 0x20 ADD MLOAD PUSH2 0x3EDE SWAP2 SWAP1 PUSH2 0x8155 JUMP JUMPDEST DUP5 PUSH1 0x0 ADD SWAP1 PUSH1 0xF SIGNEXTEND SWAP1 DUP2 PUSH1 0xF SIGNEXTEND DUP2 MSTORE POP POP JUMPDEST PUSH1 0x12 PUSH1 0x0 DUP9 PUSH1 0x20 ADD MLOAD DUP2 MSTORE PUSH1 0x20 ADD SWAP1 DUP2 MSTORE PUSH1 0x20 ADD PUSH1 0x0 KECCAK256 PUSH1 0x0 SWAP1 SLOAD SWAP1 PUSH2 0x100 EXP SWAP1 DIV PUSH1 0xF SIGNEXTEND SWAP3 POP PUSH1 0x0 DUP7 PUSH1 0x20 ADD MLOAD EQ PUSH2 0x3F63 JUMPI DUP7 PUSH1 0x20 ADD MLOAD DUP7 PUSH1 0x20 ADD MLOAD SUB PUSH2 0x3F3A JUMPI DUP3 SWAP2 POP PUSH2 0x3F62 JUMP JUMPDEST PUSH1 0x12 PUSH1 0x0 DUP8 PUSH1 0x20 ADD MLOAD DUP2 MSTORE PUSH1 0x20 ADD SWAP1 DUP2 MSTORE PUSH1 0x20 ADD PUSH1 0x0 KECCAK256 PUSH1 0x0 SWAP1 SLOAD SWAP1 PUSH2 0x100 EXP SWAP1 DIV PUSH1 0xF SIGNEXTEND SWAP2 POP JUMPDEST JUMPDEST JUMPDEST PUSH1 0x0 PUSH1 0x40 MLOAD DUP1 PUSH1 0x80 ADD PUSH1 0x40 MSTORE DUP1 PUSH1 0x0 PUSH1 0xF SIGNEXTEND DUP2 MSTORE PUSH1 0x20 ADD PUSH1 0x0 PUSH1 0xF SIGNEXTEND DUP2 MSTORE PUSH1 0x20 ADD TIMESTAMP DUP2 MSTORE PUSH1 0x20 ADD NUMBER DUP2 MSTORE POP SWAP1 POP PUSH1 0x0 DUP3 GT ISZERO PUSH2 0x4009 JUMPI PUSH1 0x3 PUSH1 0x0 DUP4 DUP2 MSTORE PUSH1 0x20 ADD SWAP1 DUP2 MSTORE PUSH1 0x20 ADD PUSH1 0x0 KECCAK256 PUSH1 0x40 MLOAD DUP1 PUSH1 0x80 ADD PUSH1 0x40 MSTORE SWAP1 DUP2 PUSH1 0x0 DUP3 ADD PUSH1 0x0 SWAP1 SLOAD SWAP1 PUSH2 0x100 EXP SWAP1 DIV PUSH1 0xF SIGNEXTEND PUSH1 0xF SIGNEXTEND PUSH1 0xF SIGNEXTEND DUP2 MSTORE PUSH1 0x20 ADD PUSH1 0x0 DUP3 ADD PUSH1 0x10 SWAP1 SLOAD SWAP1 PUSH2 0x100 EXP SWAP1 DIV PUSH1 0xF SIGNEXTEND PUSH1 0xF SIGNEXTEND PUSH1 0xF SIGNEXTEND DUP2 MSTORE PUSH1 0x20 ADD PUSH1 0x1 DUP3 ADD SLOAD DUP2 MSTORE PUSH1 0x20 ADD PUSH1 0x2 DUP3 ADD SLOAD DUP2 MSTORE POP POP SWAP1 POP JUMPDEST PUSH1 0x0 DUP2 PUSH1 0x40 ADD MLOAD SWAP1 POP PUSH1 0x0 DUP3 SWAP1 POP PUSH1 0x0 DUP4 PUSH1 0x40 ADD MLOAD TIMESTAMP GT ISZERO PUSH2 0x4065 JUMPI DUP4 PUSH1 0x40 ADD MLOAD TIMESTAMP PUSH2 0x4035 SWAP2 SWAP1 PUSH2 0x749F JUMP JUMPDEST DUP5 PUSH1 0x60 ADD MLOAD NUMBER PUSH2 0x4045 SWAP2 SWAP1 PUSH2 0x749F JUMP JUMPDEST PUSH8 0xDE0B6B3A7640000 PUSH2 0x4058 SWAP2 SWAP1 PUSH2 0x773A JUMP JUMPDEST PUSH2 0x4062 SWAP2 SWAP1 PUSH2 0x7794 JUMP JUMPDEST SWAP1 POP JUMPDEST PUSH1 0x0 PUSH3 0x93A80 DUP1 DUP6 PUSH2 0x4077 SWAP2 SWAP1 PUSH2 0x7794 JUMP JUMPDEST PUSH2 0x4081 SWAP2 SWAP1 PUSH2 0x773A JUMP JUMPDEST SWAP1 POP PUSH1 0x0 JUMPDEST PUSH1 0xFF DUP2 LT ISZERO PUSH2 0x42B4 JUMPI PUSH3 0x93A80 DUP3 PUSH2 0x409E SWAP2 SWAP1 PUSH2 0x759E JUMP JUMPDEST SWAP2 POP PUSH1 0x0 TIMESTAMP DUP4 GT ISZERO PUSH2 0x40B2 JUMPI TIMESTAMP SWAP3 POP PUSH2 0x40D6 JUMP JUMPDEST PUSH1 0x12 PUSH1 0x0 DUP5 DUP2 MSTORE PUSH1 0x20 ADD SWAP1 DUP2 MSTORE PUSH1 0x20 ADD PUSH1 0x0 KECCAK256 PUSH1 0x0 SWAP1 SLOAD SWAP1 PUSH2 0x100 EXP SWAP1 DIV PUSH1 0xF SIGNEXTEND SWAP1 POP JUMPDEST DUP6 DUP4 PUSH2 0x40E2 SWAP2 SWAP1 PUSH2 0x749F JUMP JUMPDEST DUP8 PUSH1 0x20 ADD MLOAD PUSH2 0x40F1 SWAP2 SWAP1 PUSH2 0x8155 JUMP JUMPDEST DUP8 PUSH1 0x0 ADD DUP2 DUP2 MLOAD PUSH2 0x4102 SWAP2 SWAP1 PUSH2 0x824C JUMP JUMPDEST SWAP2 POP SWAP1 PUSH1 0xF SIGNEXTEND SWAP1 DUP2 PUSH1 0xF SIGNEXTEND DUP2 MSTORE POP POP DUP1 DUP8 PUSH1 0x20 ADD DUP2 DUP2 MLOAD PUSH2 0x4123 SWAP2 SWAP1 PUSH2 0x82D0 JUMP JUMPDEST SWAP2 POP SWAP1 PUSH1 0xF SIGNEXTEND SWAP1 DUP2 PUSH1 0xF SIGNEXTEND DUP2 MSTORE POP POP PUSH1 0x0 DUP8 PUSH1 0x0 ADD MLOAD PUSH1 0xF SIGNEXTEND SLT ISZERO PUSH2 0x4156 JUMPI PUSH1 0x0 DUP8 PUSH1 0x0 ADD SWAP1 PUSH1 0xF SIGNEXTEND SWAP1 DUP2 PUSH1 0xF SIGNEXTEND DUP2 MSTORE POP POP JUMPDEST PUSH1 0x0 DUP8 PUSH1 0x20 ADD MLOAD PUSH1 0xF SIGNEXTEND SLT ISZERO PUSH2 0x417A JUMPI PUSH1 0x0 DUP8 PUSH1 0x20 ADD SWAP1 PUSH1 0xF SIGNEXTEND SWAP1 DUP2 PUSH1 0xF SIGNEXTEND DUP2 MSTORE POP POP JUMPDEST DUP3 SWAP6 POP DUP3 DUP8 PUSH1 0x40 ADD DUP2 DUP2 MSTORE POP POP PUSH8 0xDE0B6B3A7640000 DUP6 PUSH1 0x40 ADD MLOAD DUP5 PUSH2 0x41A0 SWAP2 SWAP1 PUSH2 0x749F JUMP JUMPDEST DUP6 PUSH2 0x41AB SWAP2 SWAP1 PUSH2 0x773A JUMP JUMPDEST PUSH2 0x41B5 SWAP2 SWAP1 PUSH2 0x7794 JUMP JUMPDEST DUP6 PUSH1 0x60 ADD MLOAD PUSH2 0x41C4 SWAP2 SWAP1 PUSH2 0x759E JUMP JUMPDEST DUP8 PUSH1 0x60 ADD DUP2 DUP2 MSTORE POP POP PUSH1 0x1 DUP9 PUSH2 0x41DA SWAP2 SWAP1 PUSH2 0x759E JUMP JUMPDEST SWAP8 POP TIMESTAMP DUP4 SUB PUSH2 0x41F3 JUMPI NUMBER DUP8 PUSH1 0x60 ADD DUP2 DUP2 MSTORE POP POP POP PUSH2 0x42B4 JUMP JUMPDEST DUP7 PUSH1 0x3 PUSH1 0x0 DUP11 DUP2 MSTORE PUSH1 0x20 ADD SWAP1 DUP2 MSTORE PUSH1 0x20 ADD PUSH1 0x0 KECCAK256 PUSH1 0x0 DUP3 ADD MLOAD DUP2 PUSH1 0x0 ADD PUSH1 0x0 PUSH2 0x100 EXP DUP2 SLOAD DUP2 PUSH16 0xFFFFFFFFFFFFFFFFFFFFFFFFFFFFFFFF MUL NOT AND SWAP1 DUP4 PUSH1 0xF SIGNEXTEND PUSH16 0xFFFFFFFFFFFFFFFFFFFFFFFFFFFFFFFF AND MUL OR SWAP1 SSTORE POP PUSH1 0x20 DUP3 ADD MLOAD DUP2 PUSH1 0x0 ADD PUSH1 0x10 PUSH2 0x100 EXP DUP2 SLOAD DUP2 PUSH16 0xFFFFFFFFFFFFFFFFFFFFFFFFFFFFFFFF MUL NOT AND SWAP1 DUP4 PUSH1 0xF SIGNEXTEND PUSH16 0xFFFFFFFFFFFFFFFFFFFFFFFFFFFFFFFF AND MUL OR SWAP1 SSTORE POP PUSH1 0x40 DUP3 ADD MLOAD DUP2 PUSH1 0x1 ADD SSTORE PUSH1 0x60 DUP3 ADD MLOAD DUP2 PUSH1 0x2 ADD SSTORE SWAP1 POP POP POP DUP1 PUSH2 0x42AD SWAP1 PUSH2 0x75F4 JUMP JUMPDEST SWAP1 POP PUSH2 0x4086 JUMP JUMPDEST POP POP DUP5 PUSH1 0x11 DUP2 SWAP1 SSTORE POP PUSH1 0x0 DUP13 EQ PUSH2 0x4376 JUMPI DUP9 PUSH1 0x20 ADD MLOAD DUP9 PUSH1 0x20 ADD MLOAD PUSH2 0x42D9 SWAP2 SWAP1 PUSH2 0x824C JUMP JUMPDEST DUP5 PUSH1 0x20 ADD DUP2 DUP2 MLOAD PUSH2 0x42EA SWAP2 SWAP1 PUSH2 0x82D0 JUMP JUMPDEST SWAP2 POP SWAP1 PUSH1 0xF SIGNEXTEND SWAP1 DUP2 PUSH1 0xF SIGNEXTEND DUP2 MSTORE POP POP DUP9 PUSH1 0x0 ADD MLOAD DUP9 PUSH1 0x0 ADD MLOAD PUSH2 0x430D SWAP2 SWAP1 PUSH2 0x824C JUMP JUMPDEST DUP5 PUSH1 0x0 ADD DUP2 DUP2 MLOAD PUSH2 0x431E SWAP2 SWAP1 PUSH2 0x82D0 JUMP JUMPDEST SWAP2 POP SWAP1 PUSH1 0xF SIGNEXTEND SWAP1 DUP2 PUSH1 0xF SIGNEXTEND DUP2 MSTORE POP POP PUSH1 0x0 DUP5 PUSH1 0x20 ADD MLOAD PUSH1 0xF SIGNEXTEND SLT ISZERO PUSH2 0x4351 JUMPI PUSH1 0x0 DUP5 PUSH1 0x20 ADD SWAP1 PUSH1 0xF SIGNEXTEND SWAP1 DUP2 PUSH1 0xF SIGNEXTEND DUP2 MSTORE POP POP JUMPDEST PUSH1 0x0 DUP5 PUSH1 0x0 ADD MLOAD PUSH1 0xF SIGNEXTEND SLT ISZERO PUSH2 0x4375 JUMPI PUSH1 0x0 DUP5 PUSH1 0x0 ADD SWAP1 PUSH1 0xF SIGNEXTEND SWAP1 DUP2 PUSH1 0xF SIGNEXTEND DUP2 MSTORE POP POP JUMPDEST JUMPDEST DUP4 PUSH1 0x3 PUSH1 0x0 DUP8 DUP2 MSTORE PUSH1 0x20 ADD SWAP1 DUP2 MSTORE PUSH1 0x20 ADD PUSH1 0x0 KECCAK256 PUSH1 0x0 DUP3 ADD MLOAD DUP2 PUSH1 0x0 ADD PUSH1 0x0 PUSH2 0x100 EXP DUP2 SLOAD DUP2 PUSH16 0xFFFFFFFFFFFFFFFFFFFFFFFFFFFFFFFF MUL NOT AND SWAP1 DUP4 PUSH1 0xF SIGNEXTEND PUSH16 0xFFFFFFFFFFFFFFFFFFFFFFFFFFFFFFFF AND MUL OR SWAP1 SSTORE POP PUSH1 0x20 DUP3 ADD MLOAD DUP2 PUSH1 0x0 ADD PUSH1 0x10 PUSH2 0x100 EXP DUP2 SLOAD DUP2 PUSH16 0xFFFFFFFFFFFFFFFFFFFFFFFFFFFFFFFF MUL NOT AND SWAP1 DUP4 PUSH1 0xF SIGNEXTEND PUSH16 0xFFFFFFFFFFFFFFFFFFFFFFFFFFFFFFFF AND MUL OR SWAP1 SSTORE POP PUSH1 0x40 DUP3 ADD MLOAD DUP2 PUSH1 0x1 ADD SSTORE PUSH1 0x60 DUP3 ADD MLOAD DUP2 PUSH1 0x2 ADD SSTORE SWAP1 POP POP PUSH1 0x0 DUP13 EQ PUSH2 0x465A JUMPI TIMESTAMP DUP12 PUSH1 0x20 ADD MLOAD GT ISZERO PUSH2 0x44BF JUMPI DUP9 PUSH1 0x20 ADD MLOAD DUP8 PUSH2 0x4449 SWAP2 SWAP1 PUSH2 0x82D0 JUMP JUMPDEST SWAP7 POP DUP11 PUSH1 0x20 ADD MLOAD DUP11 PUSH1 0x20 ADD MLOAD SUB PUSH2 0x446D JUMPI DUP8 PUSH1 0x20 ADD MLOAD DUP8 PUSH2 0x446A SWAP2 SWAP1 PUSH2 0x824C JUMP JUMPDEST SWAP7 POP JUMPDEST DUP7 PUSH1 0x12 PUSH1 0x0 DUP14 PUSH1 0x20 ADD MLOAD DUP2 MSTORE PUSH1 0x20 ADD SWAP1 DUP2 MSTORE PUSH1 0x20 ADD PUSH1 0x0 KECCAK256 PUSH1 0x0 PUSH2 0x100 EXP DUP2 SLOAD DUP2 PUSH16 0xFFFFFFFFFFFFFFFFFFFFFFFFFFFFFFFF MUL NOT AND SWAP1 DUP4 PUSH1 0xF SIGNEXTEND PUSH16 0xFFFFFFFFFFFFFFFFFFFFFFFFFFFFFFFF AND MUL OR SWAP1 SSTORE POP JUMPDEST TIMESTAMP DUP11 PUSH1 0x20 ADD MLOAD GT ISZERO PUSH2 0x4540 JUMPI DUP11 PUSH1 0x20 ADD MLOAD DUP11 PUSH1 0x20 ADD MLOAD GT ISZERO PUSH2 0x453F JUMPI DUP8 PUSH1 0x20 ADD MLOAD DUP7 PUSH2 0x44EB SWAP2 SWAP1 PUSH2 0x824C JUMP JUMPDEST SWAP6 POP DUP6 PUSH1 0x12 PUSH1 0x0 DUP13 PUSH1 0x20 ADD MLOAD DUP2 MSTORE PUSH1 0x20 ADD SWAP1 DUP2 MSTORE PUSH1 0x20 ADD PUSH1 0x0 KECCAK256 PUSH1 0x0 PUSH2 0x100 EXP DUP2 SLOAD DUP2 PUSH16 0xFFFFFFFFFFFFFFFFFFFFFFFFFFFFFFFF MUL NOT AND SWAP1 DUP4 PUSH1 0xF SIGNEXTEND PUSH16 0xFFFFFFFFFFFFFFFFFFFFFFFFFFFFFFFF AND MUL OR SWAP1 SSTORE POP JUMPDEST JUMPDEST PUSH1 0x0 PUSH1 0x1 PUSH1 0xE PUSH1 0x0 DUP16 DUP2 MSTORE PUSH1 0x20 ADD SWAP1 DUP2 MSTORE PUSH1 0x20 ADD PUSH1 0x0 KECCAK256 SLOAD PUSH2 0x4562 SWAP2 SWAP1 PUSH2 0x759E JUMP JUMPDEST SWAP1 POP DUP1 PUSH1 0xE PUSH1 0x0 DUP16 DUP2 MSTORE PUSH1 0x20 ADD SWAP1 DUP2 MSTORE PUSH1 0x20 ADD PUSH1 0x0 KECCAK256 DUP2 SWAP1 SSTORE POP TIMESTAMP DUP10 PUSH1 0x40 ADD DUP2 DUP2 MSTORE POP POP NUMBER DUP10 PUSH1 0x60 ADD DUP2 DUP2 MSTORE POP POP DUP9 PUSH1 0xF PUSH1 0x0 DUP16 DUP2 MSTORE PUSH1 0x20 ADD SWAP1 DUP2 MSTORE PUSH1 0x20 ADD PUSH1 0x0 KECCAK256 DUP3 PUSH4 0x3B9ACA00 DUP2 LT PUSH2 0x45B9 JUMPI PUSH2 0x45B8 PUSH2 0x7369 JUMP JUMPDEST JUMPDEST PUSH1 0x3 MUL ADD PUSH1 0x0 DUP3 ADD MLOAD DUP2 PUSH1 0x0 ADD PUSH1 0x0 PUSH2 0x100 EXP DUP2 SLOAD DUP2 PUSH16 0xFFFFFFFFFFFFFFFFFFFFFFFFFFFFFFFF MUL NOT AND SWAP1 DUP4 PUSH1 0xF SIGNEXTEND PUSH16 0xFFFFFFFFFFFFFFFFFFFFFFFFFFFFFFFF AND MUL OR SWAP1 SSTORE POP PUSH1 0x20 DUP3 ADD MLOAD DUP2 PUSH1 0x0 ADD PUSH1 0x10 PUSH2 0x100 EXP DUP2 SLOAD DUP2 PUSH16 0xFFFFFFFFFFFFFFFFFFFFFFFFFFFFFFFF MUL NOT AND SWAP1 DUP4 PUSH1 0xF SIGNEXTEND PUSH16 0xFFFFFFFFFFFFFFFFFFFFFFFFFFFFFFFF AND MUL OR SWAP1 SSTORE POP PUSH1 0x40 DUP3 ADD MLOAD DUP2 PUSH1 0x1 ADD SSTORE PUSH1 0x60 DUP3 ADD MLOAD DUP2 PUSH1 0x2 ADD SSTORE SWAP1 POP POP POP JUMPDEST POP POP POP POP POP POP POP POP POP POP POP POP JUMP JUMPDEST PUSH2 0x4672 CALLER DUP3 PUSH2 0x3C67 JUMP JUMPDEST PUSH2 0x46B1 JUMPI PUSH1 0x40 MLOAD PUSH32 0x8C379A000000000000000000000000000000000000000000000000000000000 DUP2 MSTORE PUSH1 0x4 ADD PUSH2 0x46A8 SWAP1 PUSH2 0x83A0 JUMP JUMPDEST PUSH1 0x40 MLOAD DUP1 SWAP2 SUB SWAP1 REVERT JUMPDEST PUSH1 0x0 PUSH2 0x46BC DUP3 PUSH2 0x2186 JUMP JUMPDEST SWAP1 POP PUSH2 0x46C9 PUSH1 0x0 DUP4 PUSH2 0x1259 JUMP JUMPDEST PUSH2 0x46DD PUSH2 0x46D5 DUP3 PUSH2 0x2092 JUMP JUMPDEST PUSH1 0x0 DUP5 PUSH2 0x5659 JUMP JUMPDEST PUSH2 0x46E7 DUP2 DUP4 PUSH2 0x5532 JUMP JUMPDEST DUP2 PUSH1 0x0 PUSH20 0xFFFFFFFFFFFFFFFFFFFFFFFFFFFFFFFFFFFFFFFF AND DUP3 PUSH20 0xFFFFFFFFFFFFFFFFFFFFFFFFFFFFFFFFFFFFFFFF AND PUSH32 0xDDF252AD1BE2C89B69C2B068FC378DAA952BA7F163C4A11628F55A4DF523B3EF PUSH1 0x40 MLOAD PUSH1 0x40 MLOAD DUP1 SWAP2 SUB SWAP1 LOG4 POP POP JUMP JUMPDEST PUSH1 0x0 DUP1 PUSH1 0xE PUSH1 0x0 DUP6 DUP2 MSTORE PUSH1 0x20 ADD SWAP1 DUP2 MSTORE PUSH1 0x20 ADD PUSH1 0x0 KECCAK256 SLOAD SWAP1 POP PUSH1 0x0 DUP2 SUB PUSH2 0x4772 JUMPI PUSH1 0x0 SWAP2 POP POP PUSH2 0x486B JUMP JUMPDEST PUSH1 0x0 PUSH1 0xF PUSH1 0x0 DUP7 DUP2 MSTORE PUSH1 0x20 ADD SWAP1 DUP2 MSTORE PUSH1 0x20 ADD PUSH1 0x0 KECCAK256 DUP3 PUSH4 0x3B9ACA00 DUP2 LT PUSH2 0x479C JUMPI PUSH2 0x479B PUSH2 0x7369 JUMP JUMPDEST JUMPDEST PUSH1 0x3 MUL ADD PUSH1 0x40 MLOAD DUP1 PUSH1 0x80 ADD PUSH1 0x40 MSTORE SWAP1 DUP2 PUSH1 0x0 DUP3 ADD PUSH1 0x0 SWAP1 SLOAD SWAP1 PUSH2 0x100 EXP SWAP1 DIV PUSH1 0xF SIGNEXTEND PUSH1 0xF SIGNEXTEND PUSH1 0xF SIGNEXTEND DUP2 MSTORE PUSH1 0x20 ADD PUSH1 0x0 DUP3 ADD PUSH1 0x10 SWAP1 SLOAD SWAP1 PUSH2 0x100 EXP SWAP1 DIV PUSH1 0xF SIGNEXTEND PUSH1 0xF SIGNEXTEND PUSH1 0xF SIGNEXTEND DUP2 MSTORE PUSH1 0x20 ADD PUSH1 0x1 DUP3 ADD SLOAD DUP2 MSTORE PUSH1 0x20 ADD PUSH1 0x2 DUP3 ADD SLOAD DUP2 MSTORE POP POP SWAP1 POP DUP1 PUSH1 0x40 ADD MLOAD DUP5 PUSH2 0x480B SWAP2 SWAP1 PUSH2 0x83CA JUMP JUMPDEST DUP2 PUSH1 0x20 ADD MLOAD PUSH2 0x481A SWAP2 SWAP1 PUSH2 0x8155 JUMP JUMPDEST DUP2 PUSH1 0x0 ADD DUP2 DUP2 MLOAD PUSH2 0x482B SWAP2 SWAP1 PUSH2 0x824C JUMP JUMPDEST SWAP2 POP SWAP1 PUSH1 0xF SIGNEXTEND SWAP1 DUP2 PUSH1 0xF SIGNEXTEND DUP2 MSTORE POP POP PUSH1 0x0 DUP2 PUSH1 0x0 ADD MLOAD PUSH1 0xF SIGNEXTEND SLT ISZERO PUSH2 0x485E JUMPI PUSH1 0x0 DUP2 PUSH1 0x0 ADD SWAP1 PUSH1 0xF SIGNEXTEND SWAP1 DUP2 PUSH1 0xF SIGNEXTEND DUP2 MSTORE POP POP JUMPDEST DUP1 PUSH1 0x0 ADD MLOAD PUSH1 0xF SIGNEXTEND SWAP3 POP POP POP JUMPDEST SWAP3 SWAP2 POP POP JUMP JUMPDEST PUSH1 0x0 DUP1 PUSH20 0xFFFFFFFFFFFFFFFFFFFFFFFFFFFFFFFFFFFFFFFF AND DUP4 PUSH20 0xFFFFFFFFFFFFFFFFFFFFFFFFFFFFFFFFFFFFFFFF AND SUB PUSH2 0x48AF JUMPI PUSH2 0x48AE PUSH2 0x7398 JUMP JUMPDEST JUMPDEST PUSH2 0x48C3 PUSH1 0x0 PUSH2 0x48BD DUP6 PUSH2 0x2092 JUMP JUMPDEST DUP5 PUSH2 0x5659 JUMP JUMPDEST PUSH2 0x48CD DUP4 DUP4 PUSH2 0x5C85 JUMP JUMPDEST DUP2 DUP4 PUSH20 0xFFFFFFFFFFFFFFFFFFFFFFFFFFFFFFFFFFFFFFFF AND PUSH1 0x0 PUSH20 0xFFFFFFFFFFFFFFFFFFFFFFFFFFFFFFFFFFFFFFFF AND PUSH32 0xDDF252AD1BE2C89B69C2B068FC378DAA952BA7F163C4A11628F55A4DF523B3EF PUSH1 0x40 MLOAD PUSH1 0x40 MLOAD DUP1 SWAP2 SUB SWAP1 LOG4 PUSH1 0x1 SWAP1 POP SWAP3 SWAP2 POP POP JUMP JUMPDEST PUSH1 0x0 DUP3 SWAP1 POP PUSH1 0x0 PUSH1 0x13 SLOAD SWAP1 POP DUP6 DUP2 PUSH2 0x494B SWAP2 SWAP1 PUSH2 0x759E JUMP JUMPDEST PUSH1 0x13 DUP2 SWAP1 SSTORE POP PUSH2 0x4959 PUSH2 0x6874 JUMP JUMPDEST DUP3 PUSH1 0x0 ADD MLOAD DUP4 PUSH1 0x20 ADD MLOAD DUP3 PUSH1 0x0 ADD DUP4 PUSH1 0x20 ADD DUP3 DUP2 MSTORE POP DUP3 PUSH1 0xF SIGNEXTEND PUSH1 0xF SIGNEXTEND DUP2 MSTORE POP POP POP DUP7 DUP4 PUSH1 0x0 ADD DUP2 DUP2 MLOAD PUSH2 0x498D SWAP2 SWAP1 PUSH2 0x82D0 JUMP JUMPDEST SWAP2 POP SWAP1 PUSH1 0xF SIGNEXTEND SWAP1 DUP2 PUSH1 0xF SIGNEXTEND DUP2 MSTORE POP POP PUSH1 0x0 DUP7 EQ PUSH2 0x49AF JUMPI DUP6 DUP4 PUSH1 0x20 ADD DUP2 DUP2 MSTORE POP POP JUMPDEST DUP3 PUSH1 0x10 PUSH1 0x0 DUP11 DUP2 MSTORE PUSH1 0x20 ADD SWAP1 DUP2 MSTORE PUSH1 0x20 ADD PUSH1 0x0 KECCAK256 PUSH1 0x0 DUP3 ADD MLOAD DUP2 PUSH1 0x0 ADD PUSH1 0x0 PUSH2 0x100 EXP DUP2 SLOAD DUP2 PUSH16 0xFFFFFFFFFFFFFFFFFFFFFFFFFFFFFFFF MUL NOT AND SWAP1 DUP4 PUSH1 0xF SIGNEXTEND PUSH16 0xFFFFFFFFFFFFFFFFFFFFFFFFFFFFFFFF AND MUL OR SWAP1 SSTORE POP PUSH1 0x20 DUP3 ADD MLOAD DUP2 PUSH1 0x1 ADD SSTORE SWAP1 POP POP PUSH2 0x4A1D DUP9 DUP3 DUP6 PUSH2 0x3DE4 JUMP JUMPDEST PUSH1 0x0 CALLER SWAP1 POP PUSH1 0x0 DUP9 EQ ISZERO DUP1 ISZERO PUSH2 0x4A58 JUMPI POP PUSH1 0x4 PUSH1 0x5 DUP2 GT ISZERO PUSH2 0x4A42 JUMPI PUSH2 0x4A41 PUSH2 0x845E JUMP JUMPDEST JUMPDEST DUP6 PUSH1 0x5 DUP2 GT ISZERO PUSH2 0x4A55 JUMPI PUSH2 0x4A54 PUSH2 0x845E JUMP JUMPDEST JUMPDEST EQ ISZERO JUMPDEST DUP1 ISZERO PUSH2 0x4A88 JUMPI POP PUSH1 0x5 DUP1 DUP2 GT ISZERO PUSH2 0x4A72 JUMPI PUSH2 0x4A71 PUSH2 0x845E JUMP JUMPDEST JUMPDEST DUP6 PUSH1 0x5 DUP2 GT ISZERO PUSH2 0x4A85 JUMPI PUSH2 0x4A84 PUSH2 0x845E JUMP JUMPDEST JUMPDEST EQ ISZERO JUMPDEST ISZERO PUSH2 0x4B3B JUMPI PUSH32 0x0 PUSH20 0xFFFFFFFFFFFFFFFFFFFFFFFFFFFFFFFFFFFFFFFF AND PUSH4 0x23B872DD DUP3 ADDRESS DUP12 PUSH1 0x40 MLOAD DUP5 PUSH4 0xFFFFFFFF AND PUSH1 0xE0 SHL DUP2 MSTORE PUSH1 0x4 ADD PUSH2 0x4AEA SWAP4 SWAP3 SWAP2 SWAP1 PUSH2 0x848D JUMP JUMPDEST PUSH1 0x20 PUSH1 0x40 MLOAD DUP1 DUP4 SUB DUP2 PUSH1 0x0 DUP8 GAS CALL ISZERO DUP1 ISZERO PUSH2 0x4B09 JUMPI RETURNDATASIZE PUSH1 0x0 DUP1 RETURNDATACOPY RETURNDATASIZE PUSH1 0x0 REVERT JUMPDEST POP POP POP POP PUSH1 0x40 MLOAD RETURNDATASIZE PUSH1 0x1F NOT PUSH1 0x1F DUP3 ADD AND DUP3 ADD DUP1 PUSH1 0x40 MSTORE POP DUP2 ADD SWAP1 PUSH2 0x4B2D SWAP2 SWAP1 PUSH2 0x7511 JUMP JUMPDEST PUSH2 0x4B3A JUMPI PUSH2 0x4B39 PUSH2 0x7398 JUMP JUMPDEST JUMPDEST JUMPDEST DUP4 PUSH1 0x20 ADD MLOAD DUP2 PUSH20 0xFFFFFFFFFFFFFFFFFFFFFFFFFFFFFFFFFFFFFFFF AND PUSH32 0xFF04CCAFC360E16B67D682D17BD9503C4C6B9A131F6BE6325762DC9FFC7DE624 DUP12 DUP12 DUP10 TIMESTAMP PUSH1 0x40 MLOAD PUSH2 0x4B8C SWAP5 SWAP4 SWAP3 SWAP2 SWAP1 PUSH2 0x850C JUMP JUMPDEST PUSH1 0x40 MLOAD DUP1 SWAP2 SUB SWAP1 LOG3 PUSH32 0x5E2AA66EFD74CCE82B21852E317E5490D9ECC9E6BB953AE24D90851258CC2F5C DUP4 DUP10 DUP6 PUSH2 0x4BC2 SWAP2 SWAP1 PUSH2 0x759E JUMP JUMPDEST PUSH1 0x40 MLOAD PUSH2 0x4BD0 SWAP3 SWAP2 SWAP1 PUSH2 0x7575 JUMP JUMPDEST PUSH1 0x40 MLOAD DUP1 SWAP2 SUB SWAP1 LOG1 POP POP POP POP POP POP POP POP POP JUMP JUMPDEST PUSH1 0x0 PUSH2 0x4BEE DUP4 PUSH2 0x2092 JUMP JUMPDEST SWAP1 POP DUP2 PUSH1 0x16 PUSH1 0x0 DUP6 PUSH20 0xFFFFFFFFFFFFFFFFFFFFFFFFFFFFFFFFFFFFFFFF AND PUSH20 0xFFFFFFFFFFFFFFFFFFFFFFFFFFFFFFFFFFFFFFFF AND DUP2 MSTORE PUSH1 0x20 ADD SWAP1 DUP2 MSTORE PUSH1 0x20 ADD PUSH1 0x0 KECCAK256 PUSH1 0x0 PUSH2 0x100 EXP DUP2 SLOAD DUP2 PUSH20 0xFFFFFFFFFFFFFFFFFFFFFFFFFFFFFFFFFFFFFFFF MUL NOT AND SWAP1 DUP4 PUSH20 0xFFFFFFFFFFFFFFFFFFFFFFFFFFFFFFFFFFFFFFFF AND MUL OR SWAP1 SSTORE POP DUP2 PUSH20 0xFFFFFFFFFFFFFFFFFFFFFFFFFFFFFFFFFFFFFFFF AND DUP2 PUSH20 0xFFFFFFFFFFFFFFFFFFFFFFFFFFFFFFFFFFFFFFFF AND DUP5 PUSH20 0xFFFFFFFFFFFFFFFFFFFFFFFFFFFFFFFFFFFFFFFF AND PUSH32 0x3134E8A2E6D97E929A7E54011EA5485D7D196DD5F0BA4D4EF95803E8E3FC257F PUSH1 0x40 MLOAD PUSH1 0x40 MLOAD DUP1 SWAP2 SUB SWAP1 LOG4 PUSH2 0x4CEA DUP4 DUP3 DUP5 PUSH2 0x5DAC JUMP JUMPDEST POP POP POP JUMP JUMPDEST PUSH1 0x0 DUP1 PUSH3 0x93A80 DUP1 DUP6 TIMESTAMP PUSH2 0x4D03 SWAP2 SWAP1 PUSH2 0x759E JUMP JUMPDEST PUSH2 0x4D0D SWAP2 SWAP1 PUSH2 0x7794 JUMP JUMPDEST PUSH2 0x4D17 SWAP2 SWAP1 PUSH2 0x773A JUMP JUMPDEST SWAP1 POP PUSH1 0x0 DUP6 GT PUSH2 0x4D26 JUMPI PUSH1 0x0 DUP1 REVERT JUMPDEST TIMESTAMP DUP2 GT PUSH2 0x4D68 JUMPI PUSH1 0x40 MLOAD PUSH32 0x8C379A000000000000000000000000000000000000000000000000000000000 DUP2 MSTORE PUSH1 0x4 ADD PUSH2 0x4D5F SWAP1 PUSH2 0x76AE JUMP JUMPDEST PUSH1 0x40 MLOAD DUP1 SWAP2 SUB SWAP1 REVERT JUMPDEST PUSH4 0x3C26700 TIMESTAMP PUSH2 0x4D78 SWAP2 SWAP1 PUSH2 0x759E JUMP JUMPDEST DUP2 GT ISZERO PUSH2 0x4DBA JUMPI PUSH1 0x40 MLOAD PUSH32 0x8C379A000000000000000000000000000000000000000000000000000000000 DUP2 MSTORE PUSH1 0x4 ADD PUSH2 0x4DB1 SWAP1 PUSH2 0x771A JUMP JUMPDEST PUSH1 0x40 MLOAD DUP1 SWAP2 SUB SWAP1 REVERT JUMPDEST PUSH1 0x5 PUSH1 0x0 DUP2 SLOAD PUSH2 0x4DC9 SWAP1 PUSH2 0x75F4 JUMP JUMPDEST SWAP2 SWAP1 POP DUP2 SWAP1 SSTORE POP PUSH1 0x0 PUSH1 0x5 SLOAD SWAP1 POP PUSH2 0x4DE1 DUP5 DUP3 PUSH2 0x4871 JUMP JUMPDEST POP PUSH2 0x4E34 DUP2 DUP8 DUP5 PUSH1 0x10 PUSH1 0x0 DUP7 DUP2 MSTORE PUSH1 0x20 ADD SWAP1 DUP2 MSTORE PUSH1 0x20 ADD PUSH1 0x0 KECCAK256 PUSH1 0x40 MLOAD DUP1 PUSH1 0x40 ADD PUSH1 0x40 MSTORE SWAP1 DUP2 PUSH1 0x0 DUP3 ADD PUSH1 0x0 SWAP1 SLOAD SWAP1 PUSH2 0x100 EXP SWAP1 DIV PUSH1 0xF SIGNEXTEND PUSH1 0xF SIGNEXTEND PUSH1 0xF SIGNEXTEND DUP2 MSTORE PUSH1 0x20 ADD PUSH1 0x1 DUP3 ADD SLOAD DUP2 MSTORE POP POP PUSH1 0x1 PUSH2 0x4933 JUMP JUMPDEST DUP1 SWAP3 POP POP POP SWAP4 SWAP3 POP POP POP JUMP JUMPDEST PUSH1 0x0 PUSH1 0x8 PUSH1 0x0 DUP4 PUSH20 0xFFFFFFFFFFFFFFFFFFFFFFFFFFFFFFFFFFFFFFFF AND PUSH20 0xFFFFFFFFFFFFFFFFFFFFFFFFFFFFFFFFFFFFFFFF AND DUP2 MSTORE PUSH1 0x20 ADD SWAP1 DUP2 MSTORE PUSH1 0x20 ADD PUSH1 0x0 KECCAK256 SLOAD SWAP1 POP SWAP2 SWAP1 POP JUMP JUMPDEST PUSH1 0x0 DUP1 DUP4 SWAP1 POP PUSH1 0x0 PUSH3 0x93A80 DUP1 DUP4 PUSH1 0x40 ADD MLOAD PUSH2 0x4EA5 SWAP2 SWAP1 PUSH2 0x7794 JUMP JUMPDEST PUSH2 0x4EAF SWAP2 SWAP1 PUSH2 0x773A JUMP JUMPDEST SWAP1 POP PUSH1 0x0 JUMPDEST PUSH1 0xFF DUP2 LT ISZERO PUSH2 0x4F8D JUMPI PUSH3 0x93A80 DUP3 PUSH2 0x4ECC SWAP2 SWAP1 PUSH2 0x759E JUMP JUMPDEST SWAP2 POP PUSH1 0x0 DUP6 DUP4 GT ISZERO PUSH2 0x4EE0 JUMPI DUP6 SWAP3 POP PUSH2 0x4F04 JUMP JUMPDEST PUSH1 0x12 PUSH1 0x0 DUP5 DUP2 MSTORE PUSH1 0x20 ADD SWAP1 DUP2 MSTORE PUSH1 0x20 ADD PUSH1 0x0 KECCAK256 PUSH1 0x0 SWAP1 SLOAD SWAP1 PUSH2 0x100 EXP SWAP1 DIV PUSH1 0xF SIGNEXTEND SWAP1 POP JUMPDEST DUP4 PUSH1 0x40 ADD MLOAD DUP4 PUSH2 0x4F14 SWAP2 SWAP1 PUSH2 0x749F JUMP JUMPDEST DUP5 PUSH1 0x20 ADD MLOAD PUSH2 0x4F23 SWAP2 SWAP1 PUSH2 0x8155 JUMP JUMPDEST DUP5 PUSH1 0x0 ADD DUP2 DUP2 MLOAD PUSH2 0x4F34 SWAP2 SWAP1 PUSH2 0x824C JUMP JUMPDEST SWAP2 POP SWAP1 PUSH1 0xF SIGNEXTEND SWAP1 DUP2 PUSH1 0xF SIGNEXTEND DUP2 MSTORE POP POP DUP6 DUP4 SUB PUSH2 0x4F50 JUMPI POP PUSH2 0x4F8D JUMP JUMPDEST DUP1 DUP5 PUSH1 0x20 ADD DUP2 DUP2 MLOAD PUSH2 0x4F62 SWAP2 SWAP1 PUSH2 0x82D0 JUMP JUMPDEST SWAP2 POP SWAP1 PUSH1 0xF SIGNEXTEND SWAP1 DUP2 PUSH1 0xF SIGNEXTEND DUP2 MSTORE POP POP DUP3 DUP5 PUSH1 0x40 ADD DUP2 DUP2 MSTORE POP POP POP DUP1 PUSH2 0x4F86 SWAP1 PUSH2 0x75F4 JUMP JUMPDEST SWAP1 POP PUSH2 0x4EB4 JUMP JUMPDEST POP PUSH1 0x0 DUP3 PUSH1 0x0 ADD MLOAD PUSH1 0xF SIGNEXTEND SLT ISZERO PUSH2 0x4FB2 JUMPI PUSH1 0x0 DUP3 PUSH1 0x0 ADD SWAP1 PUSH1 0xF SIGNEXTEND SWAP1 DUP2 PUSH1 0xF SIGNEXTEND DUP2 MSTORE POP POP JUMPDEST DUP2 PUSH1 0x0 ADD MLOAD PUSH16 0xFFFFFFFFFFFFFFFFFFFFFFFFFFFFFFFF AND SWAP3 POP POP POP SWAP3 SWAP2 POP POP JUMP JUMPDEST PUSH1 0x0 NUMBER DUP3 GT ISZERO PUSH2 0x4FE6 JUMPI PUSH2 0x4FE5 PUSH2 0x7398 JUMP JUMPDEST JUMPDEST PUSH1 0x0 DUP1 PUSH1 0xE PUSH1 0x0 DUP7 DUP2 MSTORE PUSH1 0x20 ADD SWAP1 DUP2 MSTORE PUSH1 0x20 ADD PUSH1 0x0 KECCAK256 SLOAD SWAP1 POP PUSH1 0x0 JUMPDEST PUSH1 0x80 DUP2 LT ISZERO PUSH2 0x509B JUMPI DUP2 DUP4 LT ISZERO PUSH2 0x509B JUMPI PUSH1 0x0 PUSH1 0x2 PUSH1 0x1 DUP5 DUP7 PUSH2 0x5025 SWAP2 SWAP1 PUSH2 0x759E JUMP JUMPDEST PUSH2 0x502F SWAP2 SWAP1 PUSH2 0x759E JUMP JUMPDEST PUSH2 0x5039 SWAP2 SWAP1 PUSH2 0x7794 JUMP JUMPDEST SWAP1 POP DUP6 PUSH1 0xF PUSH1 0x0 DUP10 DUP2 MSTORE PUSH1 0x20 ADD SWAP1 DUP2 MSTORE PUSH1 0x20 ADD PUSH1 0x0 KECCAK256 DUP3 PUSH4 0x3B9ACA00 DUP2 LT PUSH2 0x5064 JUMPI PUSH2 0x5063 PUSH2 0x7369 JUMP JUMPDEST JUMPDEST PUSH1 0x3 MUL ADD PUSH1 0x2 ADD SLOAD GT PUSH2 0x5079 JUMPI DUP1 SWAP4 POP PUSH2 0x5089 JUMP JUMPDEST PUSH1 0x1 DUP2 PUSH2 0x5086 SWAP2 SWAP1 PUSH2 0x749F JUMP JUMPDEST SWAP3 POP JUMPDEST POP DUP1 PUSH2 0x5094 SWAP1 PUSH2 0x75F4 JUMP JUMPDEST SWAP1 POP PUSH2 0x5002 JUMP JUMPDEST POP PUSH1 0x0 PUSH1 0xF PUSH1 0x0 DUP8 DUP2 MSTORE PUSH1 0x20 ADD SWAP1 DUP2 MSTORE PUSH1 0x20 ADD PUSH1 0x0 KECCAK256 DUP4 PUSH4 0x3B9ACA00 DUP2 LT PUSH2 0x50C6 JUMPI PUSH2 0x50C5 PUSH2 0x7369 JUMP JUMPDEST JUMPDEST PUSH1 0x3 MUL ADD PUSH1 0x40 MLOAD DUP1 PUSH1 0x80 ADD PUSH1 0x40 MSTORE SWAP1 DUP2 PUSH1 0x0 DUP3 ADD PUSH1 0x0 SWAP1 SLOAD SWAP1 PUSH2 0x100 EXP SWAP1 DIV PUSH1 0xF SIGNEXTEND PUSH1 0xF SIGNEXTEND PUSH1 0xF SIGNEXTEND DUP2 MSTORE PUSH1 0x20 ADD PUSH1 0x0 DUP3 ADD PUSH1 0x10 SWAP1 SLOAD SWAP1 PUSH2 0x100 EXP SWAP1 DIV PUSH1 0xF SIGNEXTEND PUSH1 0xF SIGNEXTEND PUSH1 0xF SIGNEXTEND DUP2 MSTORE PUSH1 0x20 ADD PUSH1 0x1 DUP3 ADD SLOAD DUP2 MSTORE PUSH1 0x20 ADD PUSH1 0x2 DUP3 ADD SLOAD DUP2 MSTORE POP POP SWAP1 POP PUSH1 0x0 PUSH1 0x11 SLOAD SWAP1 POP PUSH1 0x0 PUSH2 0x5138 DUP8 DUP4 PUSH2 0x5356 JUMP JUMPDEST SWAP1 POP PUSH1 0x0 PUSH1 0x3 PUSH1 0x0 DUP4 DUP2 MSTORE PUSH1 0x20 ADD SWAP1 DUP2 MSTORE PUSH1 0x20 ADD PUSH1 0x0 KECCAK256 PUSH1 0x40 MLOAD DUP1 PUSH1 0x80 ADD PUSH1 0x40 MSTORE SWAP1 DUP2 PUSH1 0x0 DUP3 ADD PUSH1 0x0 SWAP1 SLOAD SWAP1 PUSH2 0x100 EXP SWAP1 DIV PUSH1 0xF SIGNEXTEND PUSH1 0xF SIGNEXTEND PUSH1 0xF SIGNEXTEND DUP2 MSTORE PUSH1 0x20 ADD PUSH1 0x0 DUP3 ADD PUSH1 0x10 SWAP1 SLOAD SWAP1 PUSH2 0x100 EXP SWAP1 DIV PUSH1 0xF SIGNEXTEND PUSH1 0xF SIGNEXTEND PUSH1 0xF SIGNEXTEND DUP2 MSTORE PUSH1 0x20 ADD PUSH1 0x1 DUP3 ADD SLOAD DUP2 MSTORE PUSH1 0x20 ADD PUSH1 0x2 DUP3 ADD SLOAD DUP2 MSTORE POP POP SWAP1 POP PUSH1 0x0 DUP1 DUP5 DUP5 LT ISZERO PUSH2 0x5263 JUMPI PUSH1 0x0 PUSH1 0x3 PUSH1 0x0 PUSH1 0x1 DUP8 PUSH2 0x51C8 SWAP2 SWAP1 PUSH2 0x759E JUMP JUMPDEST DUP2 MSTORE PUSH1 0x20 ADD SWAP1 DUP2 MSTORE PUSH1 0x20 ADD PUSH1 0x0 KECCAK256 PUSH1 0x40 MLOAD DUP1 PUSH1 0x80 ADD PUSH1 0x40 MSTORE SWAP1 DUP2 PUSH1 0x0 DUP3 ADD PUSH1 0x0 SWAP1 SLOAD SWAP1 PUSH2 0x100 EXP SWAP1 DIV PUSH1 0xF SIGNEXTEND PUSH1 0xF SIGNEXTEND PUSH1 0xF SIGNEXTEND DUP2 MSTORE PUSH1 0x20 ADD PUSH1 0x0 DUP3 ADD PUSH1 0x10 SWAP1 SLOAD SWAP1 PUSH2 0x100 EXP SWAP1 DIV PUSH1 0xF SIGNEXTEND PUSH1 0xF SIGNEXTEND PUSH1 0xF SIGNEXTEND DUP2 MSTORE PUSH1 0x20 ADD PUSH1 0x1 DUP3 ADD SLOAD DUP2 MSTORE PUSH1 0x20 ADD PUSH1 0x2 DUP3 ADD SLOAD DUP2 MSTORE POP POP SWAP1 POP DUP4 PUSH1 0x60 ADD MLOAD DUP2 PUSH1 0x60 ADD MLOAD PUSH2 0x5245 SWAP2 SWAP1 PUSH2 0x749F JUMP JUMPDEST SWAP3 POP DUP4 PUSH1 0x40 ADD MLOAD DUP2 PUSH1 0x40 ADD MLOAD PUSH2 0x525B SWAP2 SWAP1 PUSH2 0x749F JUMP JUMPDEST SWAP2 POP POP PUSH2 0x5288 JUMP JUMPDEST DUP3 PUSH1 0x60 ADD MLOAD NUMBER PUSH2 0x5273 SWAP2 SWAP1 PUSH2 0x749F JUMP JUMPDEST SWAP2 POP DUP3 PUSH1 0x40 ADD MLOAD TIMESTAMP PUSH2 0x5285 SWAP2 SWAP1 PUSH2 0x749F JUMP JUMPDEST SWAP1 POP JUMPDEST PUSH1 0x0 DUP4 PUSH1 0x40 ADD MLOAD SWAP1 POP PUSH1 0x0 DUP4 EQ PUSH2 0x52CD JUMPI DUP3 DUP5 PUSH1 0x60 ADD MLOAD DUP13 PUSH2 0x52AA SWAP2 SWAP1 PUSH2 0x749F JUMP JUMPDEST DUP4 PUSH2 0x52B5 SWAP2 SWAP1 PUSH2 0x773A JUMP JUMPDEST PUSH2 0x52BF SWAP2 SWAP1 PUSH2 0x7794 JUMP JUMPDEST DUP2 PUSH2 0x52CA SWAP2 SWAP1 PUSH2 0x759E JUMP JUMPDEST SWAP1 POP JUMPDEST DUP7 PUSH1 0x40 ADD MLOAD DUP2 PUSH2 0x52DD SWAP2 SWAP1 PUSH2 0x749F JUMP JUMPDEST DUP8 PUSH1 0x20 ADD MLOAD PUSH2 0x52EC SWAP2 SWAP1 PUSH2 0x8155 JUMP JUMPDEST DUP8 PUSH1 0x0 ADD DUP2 DUP2 MLOAD PUSH2 0x52FD SWAP2 SWAP1 PUSH2 0x824C JUMP JUMPDEST SWAP2 POP SWAP1 PUSH1 0xF SIGNEXTEND SWAP1 DUP2 PUSH1 0xF SIGNEXTEND DUP2 MSTORE POP POP PUSH1 0x0 DUP8 PUSH1 0x0 ADD MLOAD PUSH1 0xF SIGNEXTEND SLT PUSH2 0x5342 JUMPI DUP7 PUSH1 0x0 ADD MLOAD PUSH16 0xFFFFFFFFFFFFFFFFFFFFFFFFFFFFFFFF AND SWAP10 POP POP POP POP POP POP POP POP POP POP PUSH2 0x5350 JUMP JUMPDEST PUSH1 0x0 SWAP10 POP POP POP POP POP POP POP POP POP POP JUMPDEST SWAP3 SWAP2 POP POP JUMP JUMPDEST PUSH1 0x0 DUP1 PUSH1 0x0 SWAP1 POP PUSH1 0x0 DUP4 SWAP1 POP PUSH1 0x0 JUMPDEST PUSH1 0x80 DUP2 LT ISZERO PUSH2 0x53E5 JUMPI DUP2 DUP4 LT ISZERO PUSH2 0x53E5 JUMPI PUSH1 0x0 PUSH1 0x2 PUSH1 0x1 DUP5 DUP7 PUSH2 0x5388 SWAP2 SWAP1 PUSH2 0x759E JUMP JUMPDEST PUSH2 0x5392 SWAP2 SWAP1 PUSH2 0x759E JUMP JUMPDEST PUSH2 0x539C SWAP2 SWAP1 PUSH2 0x7794 JUMP JUMPDEST SWAP1 POP DUP7 PUSH1 0x3 PUSH1 0x0 DUP4 DUP2 MSTORE PUSH1 0x20 ADD SWAP1 DUP2 MSTORE PUSH1 0x20 ADD PUSH1 0x0 KECCAK256 PUSH1 0x2 ADD SLOAD GT PUSH2 0x53C3 JUMPI DUP1 SWAP4 POP PUSH2 0x53D3 JUMP JUMPDEST PUSH1 0x1 DUP2 PUSH2 0x53D0 SWAP2 SWAP1 PUSH2 0x749F JUMP JUMPDEST SWAP3 POP JUMPDEST POP DUP1 PUSH2 0x53DE SWAP1 PUSH2 0x75F4 JUMP JUMPDEST SWAP1 POP PUSH2 0x5365 JUMP JUMPDEST POP DUP2 SWAP3 POP POP POP SWAP3 SWAP2 POP POP JUMP JUMPDEST PUSH1 0x0 DUP1 DUP3 EXTCODESIZE SWAP1 POP PUSH1 0x0 DUP2 GT SWAP2 POP POP SWAP2 SWAP1 POP JUMP JUMPDEST DUP2 PUSH20 0xFFFFFFFFFFFFFFFFFFFFFFFFFFFFFFFFFFFFFFFF AND PUSH1 0x7 PUSH1 0x0 DUP4 DUP2 MSTORE PUSH1 0x20 ADD SWAP1 DUP2 MSTORE PUSH1 0x20 ADD PUSH1 0x0 KECCAK256 PUSH1 0x0 SWAP1 SLOAD SWAP1 PUSH2 0x100 EXP SWAP1 DIV PUSH20 0xFFFFFFFFFFFFFFFFFFFFFFFFFFFFFFFFFFFFFFFF AND PUSH20 0xFFFFFFFFFFFFFFFFFFFFFFFFFFFFFFFFFFFFFFFF AND EQ PUSH2 0x5473 JUMPI PUSH2 0x5472 PUSH2 0x7398 JUMP JUMPDEST JUMPDEST PUSH1 0x0 PUSH20 0xFFFFFFFFFFFFFFFFFFFFFFFFFFFFFFFFFFFFFFFF AND PUSH1 0x9 PUSH1 0x0 DUP4 DUP2 MSTORE PUSH1 0x20 ADD SWAP1 DUP2 MSTORE PUSH1 0x20 ADD PUSH1 0x0 KECCAK256 PUSH1 0x0 SWAP1 SLOAD SWAP1 PUSH2 0x100 EXP SWAP1 DIV PUSH20 0xFFFFFFFFFFFFFFFFFFFFFFFFFFFFFFFFFFFFFFFF AND PUSH20 0xFFFFFFFFFFFFFFFFFFFFFFFFFFFFFFFFFFFFFFFF AND EQ PUSH2 0x552E JUMPI PUSH1 0x0 PUSH1 0x9 PUSH1 0x0 DUP4 DUP2 MSTORE PUSH1 0x20 ADD SWAP1 DUP2 MSTORE PUSH1 0x20 ADD PUSH1 0x0 KECCAK256 PUSH1 0x0 PUSH2 0x100 EXP DUP2 SLOAD DUP2 PUSH20 0xFFFFFFFFFFFFFFFFFFFFFFFFFFFFFFFFFFFFFFFF MUL NOT AND SWAP1 DUP4 PUSH20 0xFFFFFFFFFFFFFFFFFFFFFFFFFFFFFFFFFFFFFFFF AND MUL OR SWAP1 SSTORE POP JUMPDEST POP POP JUMP JUMPDEST DUP2 PUSH20 0xFFFFFFFFFFFFFFFFFFFFFFFFFFFFFFFFFFFFFFFF AND PUSH1 0x7 PUSH1 0x0 DUP4 DUP2 MSTORE PUSH1 0x20 ADD SWAP1 DUP2 MSTORE PUSH1 0x20 ADD PUSH1 0x0 KECCAK256 PUSH1 0x0 SWAP1 SLOAD SWAP1 PUSH2 0x100 EXP SWAP1 DIV PUSH20 0xFFFFFFFFFFFFFFFFFFFFFFFFFFFFFFFFFFFFFFFF AND PUSH20 0xFFFFFFFFFFFFFFFFFFFFFFFFFFFFFFFFFFFFFFFF AND EQ PUSH2 0x55A1 JUMPI PUSH2 0x55A0 PUSH2 0x7398 JUMP JUMPDEST JUMPDEST PUSH1 0x0 PUSH1 0x7 PUSH1 0x0 DUP4 DUP2 MSTORE PUSH1 0x20 ADD SWAP1 DUP2 MSTORE PUSH1 0x20 ADD PUSH1 0x0 KECCAK256 PUSH1 0x0 PUSH2 0x100 EXP DUP2 SLOAD DUP2 PUSH20 0xFFFFFFFFFFFFFFFFFFFFFFFFFFFFFFFFFFFFFFFF MUL NOT AND SWAP1 DUP4 PUSH20 0xFFFFFFFFFFFFFFFFFFFFFFFFFFFFFFFFFFFFFFFF AND MUL OR SWAP1 SSTORE POP PUSH2 0x55FE DUP3 DUP3 PUSH2 0x64E2 JUMP JUMPDEST PUSH1 0x1 PUSH1 0x8 PUSH1 0x0 DUP5 PUSH20 0xFFFFFFFFFFFFFFFFFFFFFFFFFFFFFFFFFFFFFFFF AND PUSH20 0xFFFFFFFFFFFFFFFFFFFFFFFFFFFFFFFFFFFFFFFF AND DUP2 MSTORE PUSH1 0x20 ADD SWAP1 DUP2 MSTORE PUSH1 0x20 ADD PUSH1 0x0 KECCAK256 PUSH1 0x0 DUP3 DUP3 SLOAD PUSH2 0x564E SWAP2 SWAP1 PUSH2 0x749F JUMP JUMPDEST SWAP3 POP POP DUP2 SWAP1 SSTORE POP POP POP JUMP JUMPDEST DUP2 PUSH20 0xFFFFFFFFFFFFFFFFFFFFFFFFFFFFFFFFFFFFFFFF AND DUP4 PUSH20 0xFFFFFFFFFFFFFFFFFFFFFFFFFFFFFFFFFFFFFFFF AND EQ ISZERO DUP1 ISZERO PUSH2 0x5695 JUMPI POP PUSH1 0x0 DUP2 GT JUMPDEST ISZERO PUSH2 0x5C80 JUMPI PUSH1 0x0 PUSH20 0xFFFFFFFFFFFFFFFFFFFFFFFFFFFFFFFFFFFFFFFF AND DUP4 PUSH20 0xFFFFFFFFFFFFFFFFFFFFFFFFFFFFFFFFFFFFFFFF AND EQ PUSH2 0x5952 JUMPI PUSH1 0x0 PUSH1 0x18 PUSH1 0x0 DUP6 PUSH20 0xFFFFFFFFFFFFFFFFFFFFFFFFFFFFFFFFFFFFFFFF AND PUSH20 0xFFFFFFFFFFFFFFFFFFFFFFFFFFFFFFFFFFFFFFFF AND DUP2 MSTORE PUSH1 0x20 ADD SWAP1 DUP2 MSTORE PUSH1 0x20 ADD PUSH1 0x0 KECCAK256 PUSH1 0x0 SWAP1 SLOAD SWAP1 PUSH2 0x100 EXP SWAP1 DIV PUSH4 0xFFFFFFFF AND SWAP1 POP PUSH1 0x0 DUP1 DUP3 PUSH4 0xFFFFFFFF AND GT PUSH2 0x578F JUMPI PUSH1 0x17 PUSH1 0x0 DUP7 PUSH20 0xFFFFFFFFFFFFFFFFFFFFFFFFFFFFFFFFFFFFFFFF AND PUSH20 0xFFFFFFFFFFFFFFFFFFFFFFFFFFFFFFFFFFFFFFFF AND DUP2 MSTORE PUSH1 0x20 ADD SWAP1 DUP2 MSTORE PUSH1 0x20 ADD PUSH1 0x0 KECCAK256 PUSH1 0x0 DUP1 PUSH4 0xFFFFFFFF AND DUP2 MSTORE PUSH1 0x20 ADD SWAP1 DUP2 MSTORE PUSH1 0x20 ADD PUSH1 0x0 KECCAK256 PUSH1 0x1 ADD PUSH2 0x57FB JUMP JUMPDEST PUSH1 0x17 PUSH1 0x0 DUP7 PUSH20 0xFFFFFFFFFFFFFFFFFFFFFFFFFFFFFFFFFFFFFFFF AND PUSH20 0xFFFFFFFFFFFFFFFFFFFFFFFFFFFFFFFFFFFFFFFF AND DUP2 MSTORE PUSH1 0x20 ADD SWAP1 DUP2 MSTORE PUSH1 0x20 ADD PUSH1 0x0 KECCAK256 PUSH1 0x0 PUSH1 0x1 DUP5 PUSH2 0x57DD SWAP2 SWAP1 PUSH2 0x72D5 JUMP JUMPDEST PUSH4 0xFFFFFFFF AND PUSH4 0xFFFFFFFF AND DUP2 MSTORE PUSH1 0x20 ADD SWAP1 DUP2 MSTORE PUSH1 0x20 ADD PUSH1 0x0 KECCAK256 PUSH1 0x1 ADD JUMPDEST SWAP1 POP PUSH1 0x0 PUSH2 0x5808 DUP7 PUSH2 0x66C7 JUMP JUMPDEST SWAP1 POP PUSH1 0x0 PUSH1 0x17 PUSH1 0x0 DUP9 PUSH20 0xFFFFFFFFFFFFFFFFFFFFFFFFFFFFFFFFFFFFFFFF AND PUSH20 0xFFFFFFFFFFFFFFFFFFFFFFFFFFFFFFFFFFFFFFFF AND DUP2 MSTORE PUSH1 0x20 ADD SWAP1 DUP2 MSTORE PUSH1 0x20 ADD PUSH1 0x0 KECCAK256 PUSH1 0x0 DUP4 PUSH4 0xFFFFFFFF AND PUSH4 0xFFFFFFFF AND DUP2 MSTORE PUSH1 0x20 ADD SWAP1 DUP2 MSTORE PUSH1 0x20 ADD PUSH1 0x0 KECCAK256 PUSH1 0x1 ADD SWAP1 POP PUSH1 0x0 JUMPDEST DUP4 DUP1 SLOAD SWAP1 POP DUP2 LT ISZERO PUSH2 0x58E2 JUMPI PUSH1 0x0 DUP5 DUP3 DUP2 SLOAD DUP2 LT PUSH2 0x5891 JUMPI PUSH2 0x5890 PUSH2 0x7369 JUMP JUMPDEST JUMPDEST SWAP1 PUSH1 0x0 MSTORE PUSH1 0x20 PUSH1 0x0 KECCAK256 ADD SLOAD SWAP1 POP DUP7 DUP2 EQ PUSH2 0x58CE JUMPI DUP3 DUP2 SWAP1 DUP1 PUSH1 0x1 DUP2 SLOAD ADD DUP1 DUP3 SSTORE DUP1 SWAP2 POP POP PUSH1 0x1 SWAP1 SUB SWAP1 PUSH1 0x0 MSTORE PUSH1 0x20 PUSH1 0x0 KECCAK256 ADD PUSH1 0x0 SWAP1 SWAP2 SWAP1 SWAP2 SWAP1 SWAP2 POP SSTORE JUMPDEST POP DUP1 DUP1 PUSH2 0x58DA SWAP1 PUSH2 0x75F4 JUMP JUMPDEST SWAP2 POP POP PUSH2 0x5870 JUMP JUMPDEST POP PUSH1 0x1 DUP5 PUSH2 0x58F0 SWAP2 SWAP1 PUSH2 0x8551 JUMP JUMPDEST PUSH1 0x18 PUSH1 0x0 DUP10 PUSH20 0xFFFFFFFFFFFFFFFFFFFFFFFFFFFFFFFFFFFFFFFF AND PUSH20 0xFFFFFFFFFFFFFFFFFFFFFFFFFFFFFFFFFFFFFFFF AND DUP2 MSTORE PUSH1 0x20 ADD SWAP1 DUP2 MSTORE PUSH1 0x20 ADD PUSH1 0x0 KECCAK256 PUSH1 0x0 PUSH2 0x100 EXP DUP2 SLOAD DUP2 PUSH4 0xFFFFFFFF MUL NOT AND SWAP1 DUP4 PUSH4 0xFFFFFFFF AND MUL OR SWAP1 SSTORE POP POP POP POP POP JUMPDEST PUSH1 0x0 PUSH20 0xFFFFFFFFFFFFFFFFFFFFFFFFFFFFFFFFFFFFFFFF AND DUP3 PUSH20 0xFFFFFFFFFFFFFFFFFFFFFFFFFFFFFFFFFFFFFFFF AND EQ PUSH2 0x5C7F JUMPI PUSH1 0x0 PUSH1 0x18 PUSH1 0x0 DUP5 PUSH20 0xFFFFFFFFFFFFFFFFFFFFFFFFFFFFFFFFFFFFFFFF AND PUSH20 0xFFFFFFFFFFFFFFFFFFFFFFFFFFFFFFFFFFFFFFFF AND DUP2 MSTORE PUSH1 0x20 ADD SWAP1 DUP2 MSTORE PUSH1 0x20 ADD PUSH1 0x0 KECCAK256 PUSH1 0x0 SWAP1 SLOAD SWAP1 PUSH2 0x100 EXP SWAP1 DIV PUSH4 0xFFFFFFFF AND SWAP1 POP PUSH1 0x0 DUP1 DUP3 PUSH4 0xFFFFFFFF AND GT PUSH2 0x5A47 JUMPI PUSH1 0x17 PUSH1 0x0 DUP6 PUSH20 0xFFFFFFFFFFFFFFFFFFFFFFFFFFFFFFFFFFFFFFFF AND PUSH20 0xFFFFFFFFFFFFFFFFFFFFFFFFFFFFFFFFFFFFFFFF AND DUP2 MSTORE PUSH1 0x20 ADD SWAP1 DUP2 MSTORE PUSH1 0x20 ADD PUSH1 0x0 KECCAK256 PUSH1 0x0 DUP1 PUSH4 0xFFFFFFFF AND DUP2 MSTORE PUSH1 0x20 ADD SWAP1 DUP2 MSTORE PUSH1 0x20 ADD PUSH1 0x0 KECCAK256 PUSH1 0x1 ADD PUSH2 0x5AB3 JUMP JUMPDEST PUSH1 0x17 PUSH1 0x0 DUP6 PUSH20 0xFFFFFFFFFFFFFFFFFFFFFFFFFFFFFFFFFFFFFFFF AND PUSH20 0xFFFFFFFFFFFFFFFFFFFFFFFFFFFFFFFFFFFFFFFF AND DUP2 MSTORE PUSH1 0x20 ADD SWAP1 DUP2 MSTORE PUSH1 0x20 ADD PUSH1 0x0 KECCAK256 PUSH1 0x0 PUSH1 0x1 DUP5 PUSH2 0x5A95 SWAP2 SWAP1 PUSH2 0x72D5 JUMP JUMPDEST PUSH4 0xFFFFFFFF AND PUSH4 0xFFFFFFFF AND DUP2 MSTORE PUSH1 0x20 ADD SWAP1 DUP2 MSTORE PUSH1 0x20 ADD PUSH1 0x0 KECCAK256 PUSH1 0x1 ADD JUMPDEST SWAP1 POP PUSH1 0x0 PUSH2 0x5AC0 DUP6 PUSH2 0x66C7 JUMP JUMPDEST SWAP1 POP PUSH1 0x0 PUSH1 0x17 PUSH1 0x0 DUP8 PUSH20 0xFFFFFFFFFFFFFFFFFFFFFFFFFFFFFFFFFFFFFFFF AND PUSH20 0xFFFFFFFFFFFFFFFFFFFFFFFFFFFFFFFFFFFFFFFF AND DUP2 MSTORE PUSH1 0x20 ADD SWAP1 DUP2 MSTORE PUSH1 0x20 ADD PUSH1 0x0 KECCAK256 PUSH1 0x0 DUP4 PUSH4 0xFFFFFFFF AND PUSH4 0xFFFFFFFF AND DUP2 MSTORE PUSH1 0x20 ADD SWAP1 DUP2 MSTORE PUSH1 0x20 ADD PUSH1 0x0 KECCAK256 PUSH1 0x1 ADD SWAP1 POP PUSH2 0x400 PUSH1 0x1 DUP5 DUP1 SLOAD SWAP1 POP PUSH2 0x5B39 SWAP2 SWAP1 PUSH2 0x759E JUMP JUMPDEST GT ISZERO PUSH2 0x5B7A JUMPI PUSH1 0x40 MLOAD PUSH32 0x8C379A000000000000000000000000000000000000000000000000000000000 DUP2 MSTORE PUSH1 0x4 ADD PUSH2 0x5B71 SWAP1 PUSH2 0x85FD JUMP JUMPDEST PUSH1 0x40 MLOAD DUP1 SWAP2 SUB SWAP1 REVERT JUMPDEST PUSH1 0x0 JUMPDEST DUP4 DUP1 SLOAD SWAP1 POP DUP2 LT ISZERO PUSH2 0x5BE7 JUMPI PUSH1 0x0 DUP5 DUP3 DUP2 SLOAD DUP2 LT PUSH2 0x5B9E JUMPI PUSH2 0x5B9D PUSH2 0x7369 JUMP JUMPDEST JUMPDEST SWAP1 PUSH1 0x0 MSTORE PUSH1 0x20 PUSH1 0x0 KECCAK256 ADD SLOAD SWAP1 POP DUP3 DUP2 SWAP1 DUP1 PUSH1 0x1 DUP2 SLOAD ADD DUP1 DUP3 SSTORE DUP1 SWAP2 POP POP PUSH1 0x1 SWAP1 SUB SWAP1 PUSH1 0x0 MSTORE PUSH1 0x20 PUSH1 0x0 KECCAK256 ADD PUSH1 0x0 SWAP1 SWAP2 SWAP1 SWAP2 SWAP1 SWAP2 POP SSTORE POP DUP1 DUP1 PUSH2 0x5BDF SWAP1 PUSH2 0x75F4 JUMP JUMPDEST SWAP2 POP POP PUSH2 0x5B7D JUMP JUMPDEST POP DUP1 DUP6 SWAP1 DUP1 PUSH1 0x1 DUP2 SLOAD ADD DUP1 DUP3 SSTORE DUP1 SWAP2 POP POP PUSH1 0x1 SWAP1 SUB SWAP1 PUSH1 0x0 MSTORE PUSH1 0x20 PUSH1 0x0 KECCAK256 ADD PUSH1 0x0 SWAP1 SWAP2 SWAP1 SWAP2 SWAP1 SWAP2 POP SSTORE PUSH1 0x1 DUP5 PUSH2 0x5C1D SWAP2 SWAP1 PUSH2 0x8551 JUMP JUMPDEST PUSH1 0x18 PUSH1 0x0 DUP9 PUSH20 0xFFFFFFFFFFFFFFFFFFFFFFFFFFFFFFFFFFFFFFFF AND PUSH20 0xFFFFFFFFFFFFFFFFFFFFFFFFFFFFFFFFFFFFFFFF AND DUP2 MSTORE PUSH1 0x20 ADD SWAP1 DUP2 MSTORE PUSH1 0x20 ADD PUSH1 0x0 KECCAK256 PUSH1 0x0 PUSH2 0x100 EXP DUP2 SLOAD DUP2 PUSH4 0xFFFFFFFF MUL NOT AND SWAP1 DUP4 PUSH4 0xFFFFFFFF AND MUL OR SWAP1 SSTORE POP POP POP POP POP JUMPDEST JUMPDEST POP POP POP JUMP JUMPDEST PUSH1 0x0 PUSH20 0xFFFFFFFFFFFFFFFFFFFFFFFFFFFFFFFFFFFFFFFF AND PUSH1 0x7 PUSH1 0x0 DUP4 DUP2 MSTORE PUSH1 0x20 ADD SWAP1 DUP2 MSTORE PUSH1 0x20 ADD PUSH1 0x0 KECCAK256 PUSH1 0x0 SWAP1 SLOAD SWAP1 PUSH2 0x100 EXP SWAP1 DIV PUSH20 0xFFFFFFFFFFFFFFFFFFFFFFFFFFFFFFFFFFFFFFFF AND PUSH20 0xFFFFFFFFFFFFFFFFFFFFFFFFFFFFFFFFFFFFFFFF AND EQ PUSH2 0x5CF5 JUMPI PUSH2 0x5CF4 PUSH2 0x7398 JUMP JUMPDEST JUMPDEST DUP2 PUSH1 0x7 PUSH1 0x0 DUP4 DUP2 MSTORE PUSH1 0x20 ADD SWAP1 DUP2 MSTORE PUSH1 0x20 ADD PUSH1 0x0 KECCAK256 PUSH1 0x0 PUSH2 0x100 EXP DUP2 SLOAD DUP2 PUSH20 0xFFFFFFFFFFFFFFFFFFFFFFFFFFFFFFFFFFFFFFFF MUL NOT AND SWAP1 DUP4 PUSH20 0xFFFFFFFFFFFFFFFFFFFFFFFFFFFFFFFFFFFFFFFF AND MUL OR SWAP1 SSTORE POP PUSH2 0x5D51 DUP3 DUP3 PUSH2 0x67C7 JUMP JUMPDEST PUSH1 0x1 PUSH1 0x8 PUSH1 0x0 DUP5 PUSH20 0xFFFFFFFFFFFFFFFFFFFFFFFFFFFFFFFFFFFFFFFF AND PUSH20 0xFFFFFFFFFFFFFFFFFFFFFFFFFFFFFFFFFFFFFFFF AND DUP2 MSTORE PUSH1 0x20 ADD SWAP1 DUP2 MSTORE PUSH1 0x20 ADD PUSH1 0x0 KECCAK256 PUSH1 0x0 DUP3 DUP3 SLOAD PUSH2 0x5DA1 SWAP2 SWAP1 PUSH2 0x759E JUMP JUMPDEST SWAP3 POP POP DUP2 SWAP1 SSTORE POP POP POP JUMP JUMPDEST DUP1 PUSH20 0xFFFFFFFFFFFFFFFFFFFFFFFFFFFFFFFFFFFFFFFF AND DUP3 PUSH20 0xFFFFFFFFFFFFFFFFFFFFFFFFFFFFFFFFFFFFFFFF AND EQ PUSH2 0x64DD JUMPI PUSH1 0x0 PUSH20 0xFFFFFFFFFFFFFFFFFFFFFFFFFFFFFFFFFFFFFFFF AND DUP3 PUSH20 0xFFFFFFFFFFFFFFFFFFFFFFFFFFFFFFFFFFFFFFFF AND EQ PUSH2 0x60F6 JUMPI PUSH1 0x0 PUSH1 0x18 PUSH1 0x0 DUP5 PUSH20 0xFFFFFFFFFFFFFFFFFFFFFFFFFFFFFFFFFFFFFFFF AND PUSH20 0xFFFFFFFFFFFFFFFFFFFFFFFFFFFFFFFFFFFFFFFF AND DUP2 MSTORE PUSH1 0x20 ADD SWAP1 DUP2 MSTORE PUSH1 0x20 ADD PUSH1 0x0 KECCAK256 PUSH1 0x0 SWAP1 SLOAD SWAP1 PUSH2 0x100 EXP SWAP1 DIV PUSH4 0xFFFFFFFF AND SWAP1 POP PUSH1 0x0 DUP1 DUP3 PUSH4 0xFFFFFFFF AND GT PUSH2 0x5ED4 JUMPI PUSH1 0x17 PUSH1 0x0 DUP6 PUSH20 0xFFFFFFFFFFFFFFFFFFFFFFFFFFFFFFFFFFFFFFFF AND PUSH20 0xFFFFFFFFFFFFFFFFFFFFFFFFFFFFFFFFFFFFFFFF AND DUP2 MSTORE PUSH1 0x20 ADD SWAP1 DUP2 MSTORE PUSH1 0x20 ADD PUSH1 0x0 KECCAK256 PUSH1 0x0 DUP1 PUSH4 0xFFFFFFFF AND DUP2 MSTORE PUSH1 0x20 ADD SWAP1 DUP2 MSTORE PUSH1 0x20 ADD PUSH1 0x0 KECCAK256 PUSH1 0x1 ADD PUSH2 0x5F40 JUMP JUMPDEST PUSH1 0x17 PUSH1 0x0 DUP6 PUSH20 0xFFFFFFFFFFFFFFFFFFFFFFFFFFFFFFFFFFFFFFFF AND PUSH20 0xFFFFFFFFFFFFFFFFFFFFFFFFFFFFFFFFFFFFFFFF AND DUP2 MSTORE PUSH1 0x20 ADD SWAP1 DUP2 MSTORE PUSH1 0x20 ADD PUSH1 0x0 KECCAK256 PUSH1 0x0 PUSH1 0x1 DUP5 PUSH2 0x5F22 SWAP2 SWAP1 PUSH2 0x72D5 JUMP JUMPDEST PUSH4 0xFFFFFFFF AND PUSH4 0xFFFFFFFF AND DUP2 MSTORE PUSH1 0x20 ADD SWAP1 DUP2 MSTORE PUSH1 0x20 ADD PUSH1 0x0 KECCAK256 PUSH1 0x1 ADD JUMPDEST SWAP1 POP PUSH1 0x0 PUSH2 0x5F4D DUP6 PUSH2 0x66C7 JUMP JUMPDEST SWAP1 POP PUSH1 0x0 PUSH1 0x17 PUSH1 0x0 DUP8 PUSH20 0xFFFFFFFFFFFFFFFFFFFFFFFFFFFFFFFFFFFFFFFF AND PUSH20 0xFFFFFFFFFFFFFFFFFFFFFFFFFFFFFFFFFFFFFFFF AND DUP2 MSTORE PUSH1 0x20 ADD SWAP1 DUP2 MSTORE PUSH1 0x20 ADD PUSH1 0x0 KECCAK256 PUSH1 0x0 DUP4 PUSH4 0xFFFFFFFF AND PUSH4 0xFFFFFFFF AND DUP2 MSTORE PUSH1 0x20 ADD SWAP1 DUP2 MSTORE PUSH1 0x20 ADD PUSH1 0x0 KECCAK256 PUSH1 0x1 ADD SWAP1 POP PUSH1 0x0 JUMPDEST DUP4 DUP1 SLOAD SWAP1 POP DUP2 LT ISZERO PUSH2 0x6086 JUMPI PUSH1 0x0 DUP5 DUP3 DUP2 SLOAD DUP2 LT PUSH2 0x5FD6 JUMPI PUSH2 0x5FD5 PUSH2 0x7369 JUMP JUMPDEST JUMPDEST SWAP1 PUSH1 0x0 MSTORE PUSH1 0x20 PUSH1 0x0 KECCAK256 ADD SLOAD SWAP1 POP DUP9 PUSH20 0xFFFFFFFFFFFFFFFFFFFFFFFFFFFFFFFFFFFFFFFF AND PUSH1 0x7 PUSH1 0x0 DUP4 DUP2 MSTORE PUSH1 0x20 ADD SWAP1 DUP2 MSTORE PUSH1 0x20 ADD PUSH1 0x0 KECCAK256 PUSH1 0x0 SWAP1 SLOAD SWAP1 PUSH2 0x100 EXP SWAP1 DIV PUSH20 0xFFFFFFFFFFFFFFFFFFFFFFFFFFFFFFFFFFFFFFFF AND PUSH20 0xFFFFFFFFFFFFFFFFFFFFFFFFFFFFFFFFFFFFFFFF AND EQ PUSH2 0x6072 JUMPI DUP3 DUP2 SWAP1 DUP1 PUSH1 0x1 DUP2 SLOAD ADD DUP1 DUP3 SSTORE DUP1 SWAP2 POP POP PUSH1 0x1 SWAP1 SUB SWAP1 PUSH1 0x0 MSTORE PUSH1 0x20 PUSH1 0x0 KECCAK256 ADD PUSH1 0x0 SWAP1 SWAP2 SWAP1 SWAP2 SWAP1 SWAP2 POP SSTORE JUMPDEST POP DUP1 DUP1 PUSH2 0x607E SWAP1 PUSH2 0x75F4 JUMP JUMPDEST SWAP2 POP POP PUSH2 0x5FB5 JUMP JUMPDEST POP PUSH1 0x1 DUP5 PUSH2 0x6094 SWAP2 SWAP1 PUSH2 0x8551 JUMP JUMPDEST PUSH1 0x18 PUSH1 0x0 DUP9 PUSH20 0xFFFFFFFFFFFFFFFFFFFFFFFFFFFFFFFFFFFFFFFF AND PUSH20 0xFFFFFFFFFFFFFFFFFFFFFFFFFFFFFFFFFFFFFFFF AND DUP2 MSTORE PUSH1 0x20 ADD SWAP1 DUP2 MSTORE PUSH1 0x20 ADD PUSH1 0x0 KECCAK256 PUSH1 0x0 PUSH2 0x100 EXP DUP2 SLOAD DUP2 PUSH4 0xFFFFFFFF MUL NOT AND SWAP1 DUP4 PUSH4 0xFFFFFFFF AND MUL OR SWAP1 SSTORE POP POP POP POP POP JUMPDEST PUSH1 0x0 PUSH20 0xFFFFFFFFFFFFFFFFFFFFFFFFFFFFFFFFFFFFFFFF AND DUP2 PUSH20 0xFFFFFFFFFFFFFFFFFFFFFFFFFFFFFFFFFFFFFFFF AND EQ PUSH2 0x64DC JUMPI PUSH1 0x0 PUSH1 0x18 PUSH1 0x0 DUP4 PUSH20 0xFFFFFFFFFFFFFFFFFFFFFFFFFFFFFFFFFFFFFFFF AND PUSH20 0xFFFFFFFFFFFFFFFFFFFFFFFFFFFFFFFFFFFFFFFF AND DUP2 MSTORE PUSH1 0x20 ADD SWAP1 DUP2 MSTORE PUSH1 0x20 ADD PUSH1 0x0 KECCAK256 PUSH1 0x0 SWAP1 SLOAD SWAP1 PUSH2 0x100 EXP SWAP1 DIV PUSH4 0xFFFFFFFF AND SWAP1 POP PUSH1 0x0 DUP1 DUP3 PUSH4 0xFFFFFFFF AND GT PUSH2 0x61EB JUMPI PUSH1 0x17 PUSH1 0x0 DUP5 PUSH20 0xFFFFFFFFFFFFFFFFFFFFFFFFFFFFFFFFFFFFFFFF AND PUSH20 0xFFFFFFFFFFFFFFFFFFFFFFFFFFFFFFFFFFFFFFFF AND DUP2 MSTORE PUSH1 0x20 ADD SWAP1 DUP2 MSTORE PUSH1 0x20 ADD PUSH1 0x0 KECCAK256 PUSH1 0x0 DUP1 PUSH4 0xFFFFFFFF AND DUP2 MSTORE PUSH1 0x20 ADD SWAP1 DUP2 MSTORE PUSH1 0x20 ADD PUSH1 0x0 KECCAK256 PUSH1 0x1 ADD PUSH2 0x6257 JUMP JUMPDEST PUSH1 0x17 PUSH1 0x0 DUP5 PUSH20 0xFFFFFFFFFFFFFFFFFFFFFFFFFFFFFFFFFFFFFFFF AND PUSH20 0xFFFFFFFFFFFFFFFFFFFFFFFFFFFFFFFFFFFFFFFF AND DUP2 MSTORE PUSH1 0x20 ADD SWAP1 DUP2 MSTORE PUSH1 0x20 ADD PUSH1 0x0 KECCAK256 PUSH1 0x0 PUSH1 0x1 DUP5 PUSH2 0x6239 SWAP2 SWAP1 PUSH2 0x72D5 JUMP JUMPDEST PUSH4 0xFFFFFFFF AND PUSH4 0xFFFFFFFF AND DUP2 MSTORE PUSH1 0x20 ADD SWAP1 DUP2 MSTORE PUSH1 0x20 ADD PUSH1 0x0 KECCAK256 PUSH1 0x1 ADD JUMPDEST SWAP1 POP PUSH1 0x0 PUSH2 0x6264 DUP5 PUSH2 0x66C7 JUMP JUMPDEST SWAP1 POP PUSH1 0x0 PUSH1 0x17 PUSH1 0x0 DUP7 PUSH20 0xFFFFFFFFFFFFFFFFFFFFFFFFFFFFFFFFFFFFFFFF AND PUSH20 0xFFFFFFFFFFFFFFFFFFFFFFFFFFFFFFFFFFFFFFFF AND DUP2 MSTORE PUSH1 0x20 ADD SWAP1 DUP2 MSTORE PUSH1 0x20 ADD PUSH1 0x0 KECCAK256 PUSH1 0x0 DUP4 PUSH4 0xFFFFFFFF AND PUSH4 0xFFFFFFFF AND DUP2 MSTORE PUSH1 0x20 ADD SWAP1 DUP2 MSTORE PUSH1 0x20 ADD PUSH1 0x0 KECCAK256 PUSH1 0x1 ADD SWAP1 POP PUSH1 0x0 PUSH1 0x8 PUSH1 0x0 DUP10 PUSH20 0xFFFFFFFFFFFFFFFFFFFFFFFFFFFFFFFFFFFFFFFF AND PUSH20 0xFFFFFFFFFFFFFFFFFFFFFFFFFFFFFFFFFFFFFFFF AND DUP2 MSTORE PUSH1 0x20 ADD SWAP1 DUP2 MSTORE PUSH1 0x20 ADD PUSH1 0x0 KECCAK256 SLOAD SWAP1 POP PUSH2 0x400 DUP2 DUP6 DUP1 SLOAD SWAP1 POP PUSH2 0x6320 SWAP2 SWAP1 PUSH2 0x759E JUMP JUMPDEST GT ISZERO PUSH2 0x6361 JUMPI PUSH1 0x40 MLOAD PUSH32 0x8C379A000000000000000000000000000000000000000000000000000000000 DUP2 MSTORE PUSH1 0x4 ADD PUSH2 0x6358 SWAP1 PUSH2 0x85FD JUMP JUMPDEST PUSH1 0x40 MLOAD DUP1 SWAP2 SUB SWAP1 REVERT JUMPDEST PUSH1 0x0 JUMPDEST DUP5 DUP1 SLOAD SWAP1 POP DUP2 LT ISZERO PUSH2 0x63CE JUMPI PUSH1 0x0 DUP6 DUP3 DUP2 SLOAD DUP2 LT PUSH2 0x6385 JUMPI PUSH2 0x6384 PUSH2 0x7369 JUMP JUMPDEST JUMPDEST SWAP1 PUSH1 0x0 MSTORE PUSH1 0x20 PUSH1 0x0 KECCAK256 ADD SLOAD SWAP1 POP DUP4 DUP2 SWAP1 DUP1 PUSH1 0x1 DUP2 SLOAD ADD DUP1 DUP3 SSTORE DUP1 SWAP2 POP POP PUSH1 0x1 SWAP1 SUB SWAP1 PUSH1 0x0 MSTORE PUSH1 0x20 PUSH1 0x0 KECCAK256 ADD PUSH1 0x0 SWAP1 SWAP2 SWAP1 SWAP2 SWAP1 SWAP2 POP SSTORE POP DUP1 DUP1 PUSH2 0x63C6 SWAP1 PUSH2 0x75F4 JUMP JUMPDEST SWAP2 POP POP PUSH2 0x6364 JUMP JUMPDEST POP PUSH1 0x0 JUMPDEST DUP2 DUP2 LT ISZERO PUSH2 0x646B JUMPI PUSH1 0x0 PUSH1 0xC PUSH1 0x0 DUP12 PUSH20 0xFFFFFFFFFFFFFFFFFFFFFFFFFFFFFFFFFFFFFFFF AND PUSH20 0xFFFFFFFFFFFFFFFFFFFFFFFFFFFFFFFFFFFFFFFF AND DUP2 MSTORE PUSH1 0x20 ADD SWAP1 DUP2 MSTORE PUSH1 0x20 ADD PUSH1 0x0 KECCAK256 PUSH1 0x0 DUP4 DUP2 MSTORE PUSH1 0x20 ADD SWAP1 DUP2 MSTORE PUSH1 0x20 ADD PUSH1 0x0 KECCAK256 SLOAD SWAP1 POP DUP4 DUP2 SWAP1 DUP1 PUSH1 0x1 DUP2 SLOAD ADD DUP1 DUP3 SSTORE DUP1 SWAP2 POP POP PUSH1 0x1 SWAP1 SUB SWAP1 PUSH1 0x0 MSTORE PUSH1 0x20 PUSH1 0x0 KECCAK256 ADD PUSH1 0x0 SWAP1 SWAP2 SWAP1 SWAP2 SWAP1 SWAP2 POP SSTORE POP DUP1 DUP1 PUSH2 0x6463 SWAP1 PUSH2 0x75F4 JUMP JUMPDEST SWAP2 POP POP PUSH2 0x63D2 JUMP JUMPDEST POP PUSH1 0x1 DUP6 PUSH2 0x6479 SWAP2 SWAP1 PUSH2 0x8551 JUMP JUMPDEST PUSH1 0x18 PUSH1 0x0 DUP9 PUSH20 0xFFFFFFFFFFFFFFFFFFFFFFFFFFFFFFFFFFFFFFFF AND PUSH20 0xFFFFFFFFFFFFFFFFFFFFFFFFFFFFFFFFFFFFFFFF AND DUP2 MSTORE PUSH1 0x20 ADD SWAP1 DUP2 MSTORE PUSH1 0x20 ADD PUSH1 0x0 KECCAK256 PUSH1 0x0 PUSH2 0x100 EXP DUP2 SLOAD DUP2 PUSH4 0xFFFFFFFF MUL NOT AND SWAP1 DUP4 PUSH4 0xFFFFFFFF AND MUL OR SWAP1 SSTORE POP POP POP POP POP POP JUMPDEST JUMPDEST POP POP POP JUMP JUMPDEST PUSH1 0x0 PUSH1 0x1 PUSH2 0x64EF DUP5 PUSH2 0x4E40 JUMP JUMPDEST PUSH2 0x64F9 SWAP2 SWAP1 PUSH2 0x749F JUMP JUMPDEST SWAP1 POP PUSH1 0x0 PUSH1 0xD PUSH1 0x0 DUP5 DUP2 MSTORE PUSH1 0x20 ADD SWAP1 DUP2 MSTORE PUSH1 0x20 ADD PUSH1 0x0 KECCAK256 SLOAD SWAP1 POP DUP1 DUP3 SUB PUSH2 0x658E JUMPI PUSH1 0x0 PUSH1 0xC PUSH1 0x0 DUP7 PUSH20 0xFFFFFFFFFFFFFFFFFFFFFFFFFFFFFFFFFFFFFFFF AND PUSH20 0xFFFFFFFFFFFFFFFFFFFFFFFFFFFFFFFFFFFFFFFF AND DUP2 MSTORE PUSH1 0x20 ADD SWAP1 DUP2 MSTORE PUSH1 0x20 ADD PUSH1 0x0 KECCAK256 PUSH1 0x0 DUP5 DUP2 MSTORE PUSH1 0x20 ADD SWAP1 DUP2 MSTORE PUSH1 0x20 ADD PUSH1 0x0 KECCAK256 DUP2 SWAP1 SSTORE POP PUSH1 0x0 PUSH1 0xD PUSH1 0x0 DUP6 DUP2 MSTORE PUSH1 0x20 ADD SWAP1 DUP2 MSTORE PUSH1 0x20 ADD PUSH1 0x0 KECCAK256 DUP2 SWAP1 SSTORE POP PUSH2 0x66C1 JUMP JUMPDEST PUSH1 0x0 PUSH1 0xC PUSH1 0x0 DUP7 PUSH20 0xFFFFFFFFFFFFFFFFFFFFFFFFFFFFFFFFFFFFFFFF AND PUSH20 0xFFFFFFFFFFFFFFFFFFFFFFFFFFFFFFFFFFFFFFFF AND DUP2 MSTORE PUSH1 0x20 ADD SWAP1 DUP2 MSTORE PUSH1 0x20 ADD PUSH1 0x0 KECCAK256 PUSH1 0x0 DUP5 DUP2 MSTORE PUSH1 0x20 ADD SWAP1 DUP2 MSTORE PUSH1 0x20 ADD PUSH1 0x0 KECCAK256 SLOAD SWAP1 POP DUP1 PUSH1 0xC PUSH1 0x0 DUP8 PUSH20 0xFFFFFFFFFFFFFFFFFFFFFFFFFFFFFFFFFFFFFFFF AND PUSH20 0xFFFFFFFFFFFFFFFFFFFFFFFFFFFFFFFFFFFFFFFF AND DUP2 MSTORE PUSH1 0x20 ADD SWAP1 DUP2 MSTORE PUSH1 0x20 ADD PUSH1 0x0 KECCAK256 PUSH1 0x0 DUP5 DUP2 MSTORE PUSH1 0x20 ADD SWAP1 DUP2 MSTORE PUSH1 0x20 ADD PUSH1 0x0 KECCAK256 DUP2 SWAP1 SSTORE POP DUP2 PUSH1 0xD PUSH1 0x0 DUP4 DUP2 MSTORE PUSH1 0x20 ADD SWAP1 DUP2 MSTORE PUSH1 0x20 ADD PUSH1 0x0 KECCAK256 DUP2 SWAP1 SSTORE POP PUSH1 0x0 PUSH1 0xC PUSH1 0x0 DUP8 PUSH20 0xFFFFFFFFFFFFFFFFFFFFFFFFFFFFFFFFFFFFFFFF AND PUSH20 0xFFFFFFFFFFFFFFFFFFFFFFFFFFFFFFFFFFFFFFFF AND DUP2 MSTORE PUSH1 0x20 ADD SWAP1 DUP2 MSTORE PUSH1 0x20 ADD PUSH1 0x0 KECCAK256 PUSH1 0x0 DUP6 DUP2 MSTORE PUSH1 0x20 ADD SWAP1 DUP2 MSTORE PUSH1 0x20 ADD PUSH1 0x0 KECCAK256 DUP2 SWAP1 SSTORE POP PUSH1 0x0 PUSH1 0xD PUSH1 0x0 DUP7 DUP2 MSTORE PUSH1 0x20 ADD SWAP1 DUP2 MSTORE PUSH1 0x20 ADD PUSH1 0x0 KECCAK256 DUP2 SWAP1 SSTORE POP POP JUMPDEST POP POP POP POP JUMP JUMPDEST PUSH1 0x0 DUP1 TIMESTAMP SWAP1 POP PUSH1 0x0 PUSH1 0x18 PUSH1 0x0 DUP6 PUSH20 0xFFFFFFFFFFFFFFFFFFFFFFFFFFFFFFFFFFFFFFFF AND PUSH20 0xFFFFFFFFFFFFFFFFFFFFFFFFFFFFFFFFFFFFFFFF AND DUP2 MSTORE PUSH1 0x20 ADD SWAP1 DUP2 MSTORE PUSH1 0x20 ADD PUSH1 0x0 KECCAK256 PUSH1 0x0 SWAP1 SLOAD SWAP1 PUSH2 0x100 EXP SWAP1 DIV PUSH4 0xFFFFFFFF AND SWAP1 POP PUSH1 0x0 DUP2 PUSH4 0xFFFFFFFF AND GT DUP1 ISZERO PUSH2 0x67A1 JUMPI POP DUP2 PUSH1 0x17 PUSH1 0x0 DUP7 PUSH20 0xFFFFFFFFFFFFFFFFFFFFFFFFFFFFFFFFFFFFFFFF AND PUSH20 0xFFFFFFFFFFFFFFFFFFFFFFFFFFFFFFFFFFFFFFFF AND DUP2 MSTORE PUSH1 0x20 ADD SWAP1 DUP2 MSTORE PUSH1 0x20 ADD PUSH1 0x0 KECCAK256 PUSH1 0x0 PUSH1 0x1 DUP5 PUSH2 0x6781 SWAP2 SWAP1 PUSH2 0x72D5 JUMP JUMPDEST PUSH4 0xFFFFFFFF AND PUSH4 0xFFFFFFFF AND DUP2 MSTORE PUSH1 0x20 ADD SWAP1 DUP2 MSTORE PUSH1 0x20 ADD PUSH1 0x0 KECCAK256 PUSH1 0x0 ADD SLOAD EQ JUMPDEST ISZERO PUSH2 0x67BC JUMPI PUSH1 0x1 DUP2 PUSH2 0x67B3 SWAP2 SWAP1 PUSH2 0x72D5 JUMP JUMPDEST SWAP3 POP POP POP PUSH2 0x67C2 JUMP JUMPDEST DUP1 SWAP3 POP POP POP JUMPDEST SWAP2 SWAP1 POP JUMP JUMPDEST PUSH1 0x0 PUSH2 0x67D2 DUP4 PUSH2 0x4E40 JUMP JUMPDEST SWAP1 POP DUP2 PUSH1 0xC PUSH1 0x0 DUP6 PUSH20 0xFFFFFFFFFFFFFFFFFFFFFFFFFFFFFFFFFFFFFFFF AND PUSH20 0xFFFFFFFFFFFFFFFFFFFFFFFFFFFFFFFFFFFFFFFF AND DUP2 MSTORE PUSH1 0x20 ADD SWAP1 DUP2 MSTORE PUSH1 0x20 ADD PUSH1 0x0 KECCAK256 PUSH1 0x0 DUP4 DUP2 MSTORE PUSH1 0x20 ADD SWAP1 DUP2 MSTORE PUSH1 0x20 ADD PUSH1 0x0 KECCAK256 DUP2 SWAP1 SSTORE POP DUP1 PUSH1 0xD PUSH1 0x0 DUP5 DUP2 MSTORE PUSH1 0x20 ADD SWAP1 DUP2 MSTORE PUSH1 0x20 ADD PUSH1 0x0 KECCAK256 DUP2 SWAP1 SSTORE POP POP POP POP JUMP JUMPDEST PUSH1 0x40 MLOAD DUP1 PUSH1 0x80 ADD PUSH1 0x40 MSTORE DUP1 PUSH1 0x0 PUSH1 0xF SIGNEXTEND DUP2 MSTORE PUSH1 0x20 ADD PUSH1 0x0 PUSH1 0xF SIGNEXTEND DUP2 MSTORE PUSH1 0x20 ADD PUSH1 0x0 DUP2 MSTORE PUSH1 0x20 ADD PUSH1 0x0 DUP2 MSTORE POP SWAP1 JUMP JUMPDEST PUSH1 0x40 MLOAD DUP1 PUSH1 0x40 ADD PUSH1 0x40 MSTORE DUP1 PUSH1 0x0 PUSH1 0xF SIGNEXTEND DUP2 MSTORE PUSH1 0x20 ADD PUSH1 0x0 DUP2 MSTORE POP SWAP1 JUMP JUMPDEST PUSH1 0x0 PUSH1 0x40 MLOAD SWAP1 POP SWAP1 JUMP JUMPDEST PUSH1 0x0 DUP1 REVERT JUMPDEST PUSH1 0x0 DUP1 REVERT JUMPDEST PUSH1 0x0 PUSH32 0xFFFFFFFF00000000000000000000000000000000000000000000000000000000 DUP3 AND SWAP1 POP SWAP2 SWAP1 POP JUMP JUMPDEST PUSH2 0x68DA DUP2 PUSH2 0x68A5 JUMP JUMPDEST DUP2 EQ PUSH2 0x68E5 JUMPI PUSH1 0x0 DUP1 REVERT JUMPDEST POP JUMP JUMPDEST PUSH1 0x0 DUP2 CALLDATALOAD SWAP1 POP PUSH2 0x68F7 DUP2 PUSH2 0x68D1 JUMP JUMPDEST SWAP3 SWAP2 POP POP JUMP JUMPDEST PUSH1 0x0 PUSH1 0x20 DUP3 DUP5 SUB SLT ISZERO PUSH2 0x6913 JUMPI PUSH2 0x6912 PUSH2 0x689B JUMP JUMPDEST JUMPDEST PUSH1 0x0 PUSH2 0x6921 DUP5 DUP3 DUP6 ADD PUSH2 0x68E8 JUMP JUMPDEST SWAP2 POP POP SWAP3 SWAP2 POP POP JUMP JUMPDEST PUSH1 0x0 DUP2 ISZERO ISZERO SWAP1 POP SWAP2 SWAP1 POP JUMP JUMPDEST PUSH2 0x693F DUP2 PUSH2 0x692A JUMP JUMPDEST DUP3 MSTORE POP POP JUMP JUMPDEST PUSH1 0x0 PUSH1 0x20 DUP3 ADD SWAP1 POP PUSH2 0x695A PUSH1 0x0 DUP4 ADD DUP5 PUSH2 0x6936 JUMP JUMPDEST SWAP3 SWAP2 POP POP JUMP JUMPDEST PUSH1 0x0 DUP2 SWAP1 POP SWAP2 SWAP1 POP JUMP JUMPDEST PUSH2 0x6973 DUP2 PUSH2 0x6960 JUMP JUMPDEST DUP3 MSTORE POP POP JUMP JUMPDEST PUSH1 0x0 PUSH1 0x20 DUP3 ADD SWAP1 POP PUSH2 0x698E PUSH1 0x0 DUP4 ADD DUP5 PUSH2 0x696A JUMP JUMPDEST SWAP3 SWAP2 POP POP JUMP JUMPDEST PUSH1 0x0 DUP2 MLOAD SWAP1 POP SWAP2 SWAP1 POP JUMP JUMPDEST PUSH1 0x0 DUP3 DUP3 MSTORE PUSH1 0x20 DUP3 ADD SWAP1 POP SWAP3 SWAP2 POP POP JUMP JUMPDEST PUSH1 0x0 JUMPDEST DUP4 DUP2 LT ISZERO PUSH2 0x69CE JUMPI DUP1 DUP3 ADD MLOAD DUP2 DUP5 ADD MSTORE PUSH1 0x20 DUP2 ADD SWAP1 POP PUSH2 0x69B3 JUMP JUMPDEST DUP4 DUP2 GT ISZERO PUSH2 0x69DD JUMPI PUSH1 0x0 DUP5 DUP5 ADD MSTORE JUMPDEST POP POP POP POP JUMP JUMPDEST PUSH1 0x0 PUSH1 0x1F NOT PUSH1 0x1F DUP4 ADD AND SWAP1 POP SWAP2 SWAP1 POP JUMP JUMPDEST PUSH1 0x0 PUSH2 0x69FF DUP3 PUSH2 0x6994 JUMP JUMPDEST PUSH2 0x6A09 DUP2 DUP6 PUSH2 0x699F JUMP JUMPDEST SWAP4 POP PUSH2 0x6A19 DUP2 DUP6 PUSH1 0x20 DUP7 ADD PUSH2 0x69B0 JUMP JUMPDEST PUSH2 0x6A22 DUP2 PUSH2 0x69E3 JUMP JUMPDEST DUP5 ADD SWAP2 POP POP SWAP3 SWAP2 POP POP JUMP JUMPDEST PUSH1 0x0 PUSH1 0x20 DUP3 ADD SWAP1 POP DUP2 DUP2 SUB PUSH1 0x0 DUP4 ADD MSTORE PUSH2 0x6A47 DUP2 DUP5 PUSH2 0x69F4 JUMP JUMPDEST SWAP1 POP SWAP3 SWAP2 POP POP JUMP JUMPDEST PUSH1 0x0 PUSH20 0xFFFFFFFFFFFFFFFFFFFFFFFFFFFFFFFFFFFFFFFF DUP3 AND SWAP1 POP SWAP2 SWAP1 POP JUMP JUMPDEST PUSH1 0x0 PUSH2 0x6A7A DUP3 PUSH2 0x6A4F JUMP JUMPDEST SWAP1 POP SWAP2 SWAP1 POP JUMP JUMPDEST PUSH2 0x6A8A DUP2 PUSH2 0x6A6F JUMP JUMPDEST DUP2 EQ PUSH2 0x6A95 JUMPI PUSH1 0x0 DUP1 REVERT JUMPDEST POP JUMP JUMPDEST PUSH1 0x0 DUP2 CALLDATALOAD SWAP1 POP PUSH2 0x6AA7 DUP2 PUSH2 0x6A81 JUMP JUMPDEST SWAP3 SWAP2 POP POP JUMP JUMPDEST PUSH2 0x6AB6 DUP2 PUSH2 0x6960 JUMP JUMPDEST DUP2 EQ PUSH2 0x6AC1 JUMPI PUSH1 0x0 DUP1 REVERT JUMPDEST POP JUMP JUMPDEST PUSH1 0x0 DUP2 CALLDATALOAD SWAP1 POP PUSH2 0x6AD3 DUP2 PUSH2 0x6AAD JUMP JUMPDEST SWAP3 SWAP2 POP POP JUMP JUMPDEST PUSH1 0x0 DUP1 PUSH1 0x40 DUP4 DUP6 SUB SLT ISZERO PUSH2 0x6AF0 JUMPI PUSH2 0x6AEF PUSH2 0x689B JUMP JUMPDEST JUMPDEST PUSH1 0x0 PUSH2 0x6AFE DUP6 DUP3 DUP7 ADD PUSH2 0x6A98 JUMP JUMPDEST SWAP3 POP POP PUSH1 0x20 PUSH2 0x6B0F DUP6 DUP3 DUP7 ADD PUSH2 0x6AC4 JUMP JUMPDEST SWAP2 POP POP SWAP3 POP SWAP3 SWAP1 POP JUMP JUMPDEST PUSH1 0x0 PUSH4 0xFFFFFFFF DUP3 AND SWAP1 POP SWAP2 SWAP1 POP JUMP JUMPDEST PUSH2 0x6B32 DUP2 PUSH2 0x6B19 JUMP JUMPDEST DUP3 MSTORE POP POP JUMP JUMPDEST PUSH1 0x0 PUSH1 0x20 DUP3 ADD SWAP1 POP PUSH2 0x6B4D PUSH1 0x0 DUP4 ADD DUP5 PUSH2 0x6B29 JUMP JUMPDEST SWAP3 SWAP2 POP POP JUMP JUMPDEST PUSH1 0x0 PUSH1 0x20 DUP3 DUP5 SUB SLT ISZERO PUSH2 0x6B69 JUMPI PUSH2 0x6B68 PUSH2 0x689B JUMP JUMPDEST JUMPDEST PUSH1 0x0 PUSH2 0x6B77 DUP5 DUP3 DUP6 ADD PUSH2 0x6AC4 JUMP JUMPDEST SWAP2 POP POP SWAP3 SWAP2 POP POP JUMP JUMPDEST PUSH2 0x6B89 DUP2 PUSH2 0x6A6F JUMP JUMPDEST DUP3 MSTORE POP POP JUMP JUMPDEST PUSH1 0x0 PUSH1 0x20 DUP3 ADD SWAP1 POP PUSH2 0x6BA4 PUSH1 0x0 DUP4 ADD DUP5 PUSH2 0x6B80 JUMP JUMPDEST SWAP3 SWAP2 POP POP JUMP JUMPDEST PUSH1 0x0 PUSH1 0x20 DUP3 DUP5 SUB SLT ISZERO PUSH2 0x6BC0 JUMPI PUSH2 0x6BBF PUSH2 0x689B JUMP JUMPDEST JUMPDEST PUSH1 0x0 PUSH2 0x6BCE DUP5 DUP3 DUP6 ADD PUSH2 0x6A98 JUMP JUMPDEST SWAP2 POP POP SWAP3 SWAP2 POP POP JUMP JUMPDEST PUSH1 0x0 DUP1 PUSH1 0x40 DUP4 DUP6 SUB SLT ISZERO PUSH2 0x6BEE JUMPI PUSH2 0x6BED PUSH2 0x689B JUMP JUMPDEST JUMPDEST PUSH1 0x0 PUSH2 0x6BFC DUP6 DUP3 DUP7 ADD PUSH2 0x6AC4 JUMP JUMPDEST SWAP3 POP POP PUSH1 0x20 PUSH2 0x6C0D DUP6 DUP3 DUP7 ADD PUSH2 0x6AC4 JUMP JUMPDEST SWAP2 POP POP SWAP3 POP SWAP3 SWAP1 POP JUMP JUMPDEST PUSH1 0x0 DUP2 PUSH1 0xF SIGNEXTEND SWAP1 POP SWAP2 SWAP1 POP JUMP JUMPDEST PUSH2 0x6C2D DUP2 PUSH2 0x6C17 JUMP JUMPDEST DUP3 MSTORE POP POP JUMP JUMPDEST PUSH1 0x0 PUSH1 0x80 DUP3 ADD SWAP1 POP PUSH2 0x6C48 PUSH1 0x0 DUP4 ADD DUP8 PUSH2 0x6C24 JUMP JUMPDEST PUSH2 0x6C55 PUSH1 0x20 DUP4 ADD DUP7 PUSH2 0x6C24 JUMP JUMPDEST PUSH2 0x6C62 PUSH1 0x40 DUP4 ADD DUP6 PUSH2 0x696A JUMP JUMPDEST PUSH2 0x6C6F PUSH1 0x60 DUP4 ADD DUP5 PUSH2 0x696A JUMP JUMPDEST SWAP6 SWAP5 POP POP POP POP POP JUMP JUMPDEST PUSH1 0x0 DUP2 SWAP1 POP SWAP2 SWAP1 POP JUMP JUMPDEST PUSH2 0x6C8B DUP2 PUSH2 0x6C78 JUMP JUMPDEST DUP3 MSTORE POP POP JUMP JUMPDEST PUSH1 0x0 PUSH1 0x20 DUP3 ADD SWAP1 POP PUSH2 0x6CA6 PUSH1 0x0 DUP4 ADD DUP5 PUSH2 0x6C82 JUMP JUMPDEST SWAP3 SWAP2 POP POP JUMP JUMPDEST PUSH1 0x0 DUP1 PUSH1 0x0 PUSH1 0x60 DUP5 DUP7 SUB SLT ISZERO PUSH2 0x6CC5 JUMPI PUSH2 0x6CC4 PUSH2 0x689B JUMP JUMPDEST JUMPDEST PUSH1 0x0 PUSH2 0x6CD3 DUP7 DUP3 DUP8 ADD PUSH2 0x6A98 JUMP JUMPDEST SWAP4 POP POP PUSH1 0x20 PUSH2 0x6CE4 DUP7 DUP3 DUP8 ADD PUSH2 0x6A98 JUMP JUMPDEST SWAP3 POP POP PUSH1 0x40 PUSH2 0x6CF5 DUP7 DUP3 DUP8 ADD PUSH2 0x6AC4 JUMP JUMPDEST SWAP2 POP POP SWAP3 POP SWAP3 POP SWAP3 JUMP JUMPDEST PUSH1 0x0 PUSH1 0xFF DUP3 AND SWAP1 POP SWAP2 SWAP1 POP JUMP JUMPDEST PUSH2 0x6D15 DUP2 PUSH2 0x6CFF JUMP JUMPDEST DUP3 MSTORE POP POP JUMP JUMPDEST PUSH1 0x0 PUSH1 0x20 DUP3 ADD SWAP1 POP PUSH2 0x6D30 PUSH1 0x0 DUP4 ADD DUP5 PUSH2 0x6D0C JUMP JUMPDEST SWAP3 SWAP2 POP POP JUMP JUMPDEST PUSH1 0x0 PUSH1 0x20 DUP3 ADD SWAP1 POP PUSH2 0x6D4B PUSH1 0x0 DUP4 ADD DUP5 PUSH2 0x6C24 JUMP JUMPDEST SWAP3 SWAP2 POP POP JUMP JUMPDEST PUSH1 0x0 DUP1 REVERT JUMPDEST PUSH32 0x4E487B7100000000000000000000000000000000000000000000000000000000 PUSH1 0x0 MSTORE PUSH1 0x41 PUSH1 0x4 MSTORE PUSH1 0x24 PUSH1 0x0 REVERT JUMPDEST PUSH2 0x6D8E DUP3 PUSH2 0x69E3 JUMP JUMPDEST DUP2 ADD DUP2 DUP2 LT PUSH8 0xFFFFFFFFFFFFFFFF DUP3 GT OR ISZERO PUSH2 0x6DAD JUMPI PUSH2 0x6DAC PUSH2 0x6D56 JUMP JUMPDEST JUMPDEST DUP1 PUSH1 0x40 MSTORE POP POP POP JUMP JUMPDEST PUSH1 0x0 PUSH2 0x6DC0 PUSH2 0x6891 JUMP JUMPDEST SWAP1 POP PUSH2 0x6DCC DUP3 DUP3 PUSH2 0x6D85 JUMP JUMPDEST SWAP2 SWAP1 POP JUMP JUMPDEST PUSH1 0x0 PUSH8 0xFFFFFFFFFFFFFFFF DUP3 GT ISZERO PUSH2 0x6DEC JUMPI PUSH2 0x6DEB PUSH2 0x6D56 JUMP JUMPDEST JUMPDEST PUSH1 0x20 DUP3 MUL SWAP1 POP PUSH1 0x20 DUP2 ADD SWAP1 POP SWAP2 SWAP1 POP JUMP JUMPDEST PUSH1 0x0 DUP1 REVERT JUMPDEST PUSH1 0x0 PUSH2 0x6E15 PUSH2 0x6E10 DUP5 PUSH2 0x6DD1 JUMP JUMPDEST PUSH2 0x6DB6 JUMP JUMPDEST SWAP1 POP DUP1 DUP4 DUP3 MSTORE PUSH1 0x20 DUP3 ADD SWAP1 POP PUSH1 0x20 DUP5 MUL DUP4 ADD DUP6 DUP2 GT ISZERO PUSH2 0x6E38 JUMPI PUSH2 0x6E37 PUSH2 0x6DFD JUMP JUMPDEST JUMPDEST DUP4 JUMPDEST DUP2 DUP2 LT ISZERO PUSH2 0x6E61 JUMPI DUP1 PUSH2 0x6E4D DUP9 DUP3 PUSH2 0x6AC4 JUMP JUMPDEST DUP5 MSTORE PUSH1 0x20 DUP5 ADD SWAP4 POP POP PUSH1 0x20 DUP2 ADD SWAP1 POP PUSH2 0x6E3A JUMP JUMPDEST POP POP POP SWAP4 SWAP3 POP POP POP JUMP JUMPDEST PUSH1 0x0 DUP3 PUSH1 0x1F DUP4 ADD SLT PUSH2 0x6E80 JUMPI PUSH2 0x6E7F PUSH2 0x6D51 JUMP JUMPDEST JUMPDEST DUP2 CALLDATALOAD PUSH2 0x6E90 DUP5 DUP3 PUSH1 0x20 DUP7 ADD PUSH2 0x6E02 JUMP JUMPDEST SWAP2 POP POP SWAP3 SWAP2 POP POP JUMP JUMPDEST PUSH1 0x0 DUP1 PUSH1 0x40 DUP4 DUP6 SUB SLT ISZERO PUSH2 0x6EB0 JUMPI PUSH2 0x6EAF PUSH2 0x689B JUMP JUMPDEST JUMPDEST PUSH1 0x0 DUP4 ADD CALLDATALOAD PUSH8 0xFFFFFFFFFFFFFFFF DUP2 GT ISZERO PUSH2 0x6ECE JUMPI PUSH2 0x6ECD PUSH2 0x68A0 JUMP JUMPDEST JUMPDEST PUSH2 0x6EDA DUP6 DUP3 DUP7 ADD PUSH2 0x6E6B JUMP JUMPDEST SWAP3 POP POP PUSH1 0x20 PUSH2 0x6EEB DUP6 DUP3 DUP7 ADD PUSH2 0x6AC4 JUMP JUMPDEST SWAP2 POP POP SWAP3 POP SWAP3 SWAP1 POP JUMP JUMPDEST PUSH2 0x6EFE DUP2 PUSH2 0x692A JUMP JUMPDEST DUP2 EQ PUSH2 0x6F09 JUMPI PUSH1 0x0 DUP1 REVERT JUMPDEST POP JUMP JUMPDEST PUSH1 0x0 DUP2 CALLDATALOAD SWAP1 POP PUSH2 0x6F1B DUP2 PUSH2 0x6EF5 JUMP JUMPDEST SWAP3 SWAP2 POP POP JUMP JUMPDEST PUSH1 0x0 DUP1 PUSH1 0x40 DUP4 DUP6 SUB SLT ISZERO PUSH2 0x6F38 JUMPI PUSH2 0x6F37 PUSH2 0x689B JUMP JUMPDEST JUMPDEST PUSH1 0x0 PUSH2 0x6F46 DUP6 DUP3 DUP7 ADD PUSH2 0x6A98 JUMP JUMPDEST SWAP3 POP POP PUSH1 0x20 PUSH2 0x6F57 DUP6 DUP3 DUP7 ADD PUSH2 0x6F0C JUMP JUMPDEST SWAP2 POP POP SWAP3 POP SWAP3 SWAP1 POP JUMP JUMPDEST PUSH1 0x0 PUSH1 0x40 DUP3 ADD SWAP1 POP PUSH2 0x6F76 PUSH1 0x0 DUP4 ADD DUP6 PUSH2 0x6C24 JUMP JUMPDEST PUSH2 0x6F83 PUSH1 0x20 DUP4 ADD DUP5 PUSH2 0x696A JUMP JUMPDEST SWAP4 SWAP3 POP POP POP JUMP JUMPDEST PUSH1 0x0 DUP1 REVERT JUMPDEST PUSH1 0x0 PUSH8 0xFFFFFFFFFFFFFFFF DUP3 GT ISZERO PUSH2 0x6FAA JUMPI PUSH2 0x6FA9 PUSH2 0x6D56 JUMP JUMPDEST JUMPDEST PUSH2 0x6FB3 DUP3 PUSH2 0x69E3 JUMP JUMPDEST SWAP1 POP PUSH1 0x20 DUP2 ADD SWAP1 POP SWAP2 SWAP1 POP JUMP JUMPDEST DUP3 DUP2 DUP4 CALLDATACOPY PUSH1 0x0 DUP4 DUP4 ADD MSTORE POP POP POP JUMP JUMPDEST PUSH1 0x0 PUSH2 0x6FE2 PUSH2 0x6FDD DUP5 PUSH2 0x6F8F JUMP JUMPDEST PUSH2 0x6DB6 JUMP JUMPDEST SWAP1 POP DUP3 DUP2 MSTORE PUSH1 0x20 DUP2 ADD DUP5 DUP5 DUP5 ADD GT ISZERO PUSH2 0x6FFE JUMPI PUSH2 0x6FFD PUSH2 0x6F8A JUMP JUMPDEST JUMPDEST PUSH2 0x7009 DUP5 DUP3 DUP6 PUSH2 0x6FC0 JUMP JUMPDEST POP SWAP4 SWAP3 POP POP POP JUMP JUMPDEST PUSH1 0x0 DUP3 PUSH1 0x1F DUP4 ADD SLT PUSH2 0x7026 JUMPI PUSH2 0x7025 PUSH2 0x6D51 JUMP JUMPDEST JUMPDEST DUP2 CALLDATALOAD PUSH2 0x7036 DUP5 DUP3 PUSH1 0x20 DUP7 ADD PUSH2 0x6FCF JUMP JUMPDEST SWAP2 POP POP SWAP3 SWAP2 POP POP JUMP JUMPDEST PUSH1 0x0 DUP1 PUSH1 0x0 DUP1 PUSH1 0x80 DUP6 DUP8 SUB SLT ISZERO PUSH2 0x7059 JUMPI PUSH2 0x7058 PUSH2 0x689B JUMP JUMPDEST JUMPDEST PUSH1 0x0 PUSH2 0x7067 DUP8 DUP3 DUP9 ADD PUSH2 0x6A98 JUMP JUMPDEST SWAP5 POP POP PUSH1 0x20 PUSH2 0x7078 DUP8 DUP3 DUP9 ADD PUSH2 0x6A98 JUMP JUMPDEST SWAP4 POP POP PUSH1 0x40 PUSH2 0x7089 DUP8 DUP3 DUP9 ADD PUSH2 0x6AC4 JUMP JUMPDEST SWAP3 POP POP PUSH1 0x60 DUP6 ADD CALLDATALOAD PUSH8 0xFFFFFFFFFFFFFFFF DUP2 GT ISZERO PUSH2 0x70AA JUMPI PUSH2 0x70A9 PUSH2 0x68A0 JUMP JUMPDEST JUMPDEST PUSH2 0x70B6 DUP8 DUP3 DUP9 ADD PUSH2 0x7011 JUMP JUMPDEST SWAP2 POP POP SWAP3 SWAP6 SWAP2 SWAP5 POP SWAP3 POP JUMP JUMPDEST PUSH2 0x70CB DUP2 PUSH2 0x6CFF JUMP JUMPDEST DUP2 EQ PUSH2 0x70D6 JUMPI PUSH1 0x0 DUP1 REVERT JUMPDEST POP JUMP JUMPDEST PUSH1 0x0 DUP2 CALLDATALOAD SWAP1 POP PUSH2 0x70E8 DUP2 PUSH2 0x70C2 JUMP JUMPDEST SWAP3 SWAP2 POP POP JUMP JUMPDEST PUSH2 0x70F7 DUP2 PUSH2 0x6C78 JUMP JUMPDEST DUP2 EQ PUSH2 0x7102 JUMPI PUSH1 0x0 DUP1 REVERT JUMPDEST POP JUMP JUMPDEST PUSH1 0x0 DUP2 CALLDATALOAD SWAP1 POP PUSH2 0x7114 DUP2 PUSH2 0x70EE JUMP JUMPDEST SWAP3 SWAP2 POP POP JUMP JUMPDEST PUSH1 0x0 DUP1 PUSH1 0x0 DUP1 PUSH1 0x0 DUP1 PUSH1 0xC0 DUP8 DUP10 SUB SLT ISZERO PUSH2 0x7137 JUMPI PUSH2 0x7136 PUSH2 0x689B JUMP JUMPDEST JUMPDEST PUSH1 0x0 PUSH2 0x7145 DUP10 DUP3 DUP11 ADD PUSH2 0x6A98 JUMP JUMPDEST SWAP7 POP POP PUSH1 0x20 PUSH2 0x7156 DUP10 DUP3 DUP11 ADD PUSH2 0x6AC4 JUMP JUMPDEST SWAP6 POP POP PUSH1 0x40 PUSH2 0x7167 DUP10 DUP3 DUP11 ADD PUSH2 0x6AC4 JUMP JUMPDEST SWAP5 POP POP PUSH1 0x60 PUSH2 0x7178 DUP10 DUP3 DUP11 ADD PUSH2 0x70D9 JUMP JUMPDEST SWAP4 POP POP PUSH1 0x80 PUSH2 0x7189 DUP10 DUP3 DUP11 ADD PUSH2 0x7105 JUMP JUMPDEST SWAP3 POP POP PUSH1 0xA0 PUSH2 0x719A DUP10 DUP3 DUP11 ADD PUSH2 0x7105 JUMP JUMPDEST SWAP2 POP POP SWAP3 SWAP6 POP SWAP3 SWAP6 POP SWAP3 SWAP6 JUMP JUMPDEST PUSH1 0x0 DUP1 PUSH1 0x0 PUSH1 0x60 DUP5 DUP7 SUB SLT ISZERO PUSH2 0x71C0 JUMPI PUSH2 0x71BF PUSH2 0x689B JUMP JUMPDEST JUMPDEST PUSH1 0x0 PUSH2 0x71CE DUP7 DUP3 DUP8 ADD PUSH2 0x6AC4 JUMP JUMPDEST SWAP4 POP POP PUSH1 0x20 PUSH2 0x71DF DUP7 DUP3 DUP8 ADD PUSH2 0x6AC4 JUMP JUMPDEST SWAP3 POP POP PUSH1 0x40 PUSH2 0x71F0 DUP7 DUP3 DUP8 ADD PUSH2 0x6A98 JUMP JUMPDEST SWAP2 POP POP SWAP3 POP SWAP3 POP SWAP3 JUMP JUMPDEST PUSH1 0x0 DUP1 PUSH1 0x40 DUP4 DUP6 SUB SLT ISZERO PUSH2 0x7211 JUMPI PUSH2 0x7210 PUSH2 0x689B JUMP JUMPDEST JUMPDEST PUSH1 0x0 PUSH2 0x721F DUP6 DUP3 DUP7 ADD PUSH2 0x6A98 JUMP JUMPDEST SWAP3 POP POP PUSH1 0x20 PUSH2 0x7230 DUP6 DUP3 DUP7 ADD PUSH2 0x6A98 JUMP JUMPDEST SWAP2 POP POP SWAP3 POP SWAP3 SWAP1 POP JUMP JUMPDEST PUSH2 0x7243 DUP2 PUSH2 0x6B19 JUMP JUMPDEST DUP2 EQ PUSH2 0x724E JUMPI PUSH1 0x0 DUP1 REVERT JUMPDEST POP JUMP JUMPDEST PUSH1 0x0 DUP2 CALLDATALOAD SWAP1 POP PUSH2 0x7260 DUP2 PUSH2 0x723A JUMP JUMPDEST SWAP3 SWAP2 POP POP JUMP JUMPDEST PUSH1 0x0 DUP1 PUSH1 0x40 DUP4 DUP6 SUB SLT ISZERO PUSH2 0x727D JUMPI PUSH2 0x727C PUSH2 0x689B JUMP JUMPDEST JUMPDEST PUSH1 0x0 PUSH2 0x728B DUP6 DUP3 DUP7 ADD PUSH2 0x6A98 JUMP JUMPDEST SWAP3 POP POP PUSH1 0x20 PUSH2 0x729C DUP6 DUP3 DUP7 ADD PUSH2 0x7251 JUMP JUMPDEST SWAP2 POP POP SWAP3 POP SWAP3 SWAP1 POP JUMP JUMPDEST PUSH32 0x4E487B7100000000000000000000000000000000000000000000000000000000 PUSH1 0x0 MSTORE PUSH1 0x11 PUSH1 0x4 MSTORE PUSH1 0x24 PUSH1 0x0 REVERT JUMPDEST PUSH1 0x0 PUSH2 0x72E0 DUP3 PUSH2 0x6B19 JUMP JUMPDEST SWAP2 POP PUSH2 0x72EB DUP4 PUSH2 0x6B19 JUMP JUMPDEST SWAP3 POP DUP3 DUP3 LT ISZERO PUSH2 0x72FE JUMPI PUSH2 0x72FD PUSH2 0x72A6 JUMP JUMPDEST JUMPDEST DUP3 DUP3 SUB SWAP1 POP SWAP3 SWAP2 POP POP JUMP JUMPDEST PUSH32 0x4E487B7100000000000000000000000000000000000000000000000000000000 PUSH1 0x0 MSTORE PUSH1 0x12 PUSH1 0x4 MSTORE PUSH1 0x24 PUSH1 0x0 REVERT JUMPDEST PUSH1 0x0 PUSH2 0x7343 DUP3 PUSH2 0x6B19 JUMP JUMPDEST SWAP2 POP PUSH2 0x734E DUP4 PUSH2 0x6B19 JUMP JUMPDEST SWAP3 POP DUP3 PUSH2 0x735E JUMPI PUSH2 0x735D PUSH2 0x7309 JUMP JUMPDEST JUMPDEST DUP3 DUP3 DIV SWAP1 POP SWAP3 SWAP2 POP POP JUMP JUMPDEST PUSH32 0x4E487B7100000000000000000000000000000000000000000000000000000000 PUSH1 0x0 MSTORE PUSH1 0x32 PUSH1 0x4 MSTORE PUSH1 0x24 PUSH1 0x0 REVERT JUMPDEST PUSH32 0x4E487B7100000000000000000000000000000000000000000000000000000000 PUSH1 0x0 MSTORE PUSH1 0x1 PUSH1 0x4 MSTORE PUSH1 0x24 PUSH1 0x0 REVERT JUMPDEST PUSH32 0x6174746163686564000000000000000000000000000000000000000000000000 PUSH1 0x0 DUP3 ADD MSTORE POP JUMP JUMPDEST PUSH1 0x0 PUSH2 0x73FD PUSH1 0x8 DUP4 PUSH2 0x699F JUMP JUMPDEST SWAP2 POP PUSH2 0x7408 DUP3 PUSH2 0x73C7 JUMP JUMPDEST PUSH1 0x20 DUP3 ADD SWAP1 POP SWAP2 SWAP1 POP JUMP JUMPDEST PUSH1 0x0 PUSH1 0x20 DUP3 ADD SWAP1 POP DUP2 DUP2 SUB PUSH1 0x0 DUP4 ADD MSTORE PUSH2 0x742C DUP2 PUSH2 0x73F0 JUMP JUMPDEST SWAP1 POP SWAP2 SWAP1 POP JUMP JUMPDEST PUSH32 0x546865206C6F636B206469646E27742065787069726500000000000000000000 PUSH1 0x0 DUP3 ADD MSTORE POP JUMP JUMPDEST PUSH1 0x0 PUSH2 0x7469 PUSH1 0x16 DUP4 PUSH2 0x699F JUMP JUMPDEST SWAP2 POP PUSH2 0x7474 DUP3 PUSH2 0x7433 JUMP JUMPDEST PUSH1 0x20 DUP3 ADD SWAP1 POP SWAP2 SWAP1 POP JUMP JUMPDEST PUSH1 0x0 PUSH1 0x20 DUP3 ADD SWAP1 POP DUP2 DUP2 SUB PUSH1 0x0 DUP4 ADD MSTORE PUSH2 0x7498 DUP2 PUSH2 0x745C JUMP JUMPDEST SWAP1 POP SWAP2 SWAP1 POP JUMP JUMPDEST PUSH1 0x0 PUSH2 0x74AA DUP3 PUSH2 0x6960 JUMP JUMPDEST SWAP2 POP PUSH2 0x74B5 DUP4 PUSH2 0x6960 JUMP JUMPDEST SWAP3 POP DUP3 DUP3 LT ISZERO PUSH2 0x74C8 JUMPI PUSH2 0x74C7 PUSH2 0x72A6 JUMP JUMPDEST JUMPDEST DUP3 DUP3 SUB SWAP1 POP SWAP3 SWAP2 POP POP JUMP JUMPDEST PUSH1 0x0 PUSH1 0x40 DUP3 ADD SWAP1 POP PUSH2 0x74E8 PUSH1 0x0 DUP4 ADD DUP6 PUSH2 0x6B80 JUMP JUMPDEST PUSH2 0x74F5 PUSH1 0x20 DUP4 ADD DUP5 PUSH2 0x696A JUMP JUMPDEST SWAP4 SWAP3 POP POP POP JUMP JUMPDEST PUSH1 0x0 DUP2 MLOAD SWAP1 POP PUSH2 0x750B DUP2 PUSH2 0x6EF5 JUMP JUMPDEST SWAP3 SWAP2 POP POP JUMP JUMPDEST PUSH1 0x0 PUSH1 0x20 DUP3 DUP5 SUB SLT ISZERO PUSH2 0x7527 JUMPI PUSH2 0x7526 PUSH2 0x689B JUMP JUMPDEST JUMPDEST PUSH1 0x0 PUSH2 0x7535 DUP5 DUP3 DUP6 ADD PUSH2 0x74FC JUMP JUMPDEST SWAP2 POP POP SWAP3 SWAP2 POP POP JUMP JUMPDEST PUSH1 0x0 PUSH1 0x60 DUP3 ADD SWAP1 POP PUSH2 0x7553 PUSH1 0x0 DUP4 ADD DUP7 PUSH2 0x696A JUMP JUMPDEST PUSH2 0x7560 PUSH1 0x20 DUP4 ADD DUP6 PUSH2 0x696A JUMP JUMPDEST PUSH2 0x756D PUSH1 0x40 DUP4 ADD DUP5 PUSH2 0x696A JUMP JUMPDEST SWAP5 SWAP4 POP POP POP POP JUMP JUMPDEST PUSH1 0x0 PUSH1 0x40 DUP3 ADD SWAP1 POP PUSH2 0x758A PUSH1 0x0 DUP4 ADD DUP6 PUSH2 0x696A JUMP JUMPDEST PUSH2 0x7597 PUSH1 0x20 DUP4 ADD DUP5 PUSH2 0x696A JUMP JUMPDEST SWAP4 SWAP3 POP POP POP JUMP JUMPDEST PUSH1 0x0 PUSH2 0x75A9 DUP3 PUSH2 0x6960 JUMP JUMPDEST SWAP2 POP PUSH2 0x75B4 DUP4 PUSH2 0x6960 JUMP JUMPDEST SWAP3 POP DUP3 PUSH32 0xFFFFFFFFFFFFFFFFFFFFFFFFFFFFFFFFFFFFFFFFFFFFFFFFFFFFFFFFFFFFFFFF SUB DUP3 GT ISZERO PUSH2 0x75E9 JUMPI PUSH2 0x75E8 PUSH2 0x72A6 JUMP JUMPDEST JUMPDEST DUP3 DUP3 ADD SWAP1 POP SWAP3 SWAP2 POP POP JUMP JUMPDEST PUSH1 0x0 PUSH2 0x75FF DUP3 PUSH2 0x6960 JUMP JUMPDEST SWAP2 POP PUSH32 0xFFFFFFFFFFFFFFFFFFFFFFFFFFFFFFFFFFFFFFFFFFFFFFFFFFFFFFFFFFFFFFFF DUP3 SUB PUSH2 0x7631 JUMPI PUSH2 0x7630 PUSH2 0x72A6 JUMP JUMPDEST JUMPDEST PUSH1 0x1 DUP3 ADD SWAP1 POP SWAP2 SWAP1 POP JUMP JUMPDEST PUSH32 0x43616E206F6E6C79206C6F636B20756E74696C2074696D6520696E2074686520 PUSH1 0x0 DUP3 ADD MSTORE PUSH32 0x6675747572650000000000000000000000000000000000000000000000000000 PUSH1 0x20 DUP3 ADD MSTORE POP JUMP JUMPDEST PUSH1 0x0 PUSH2 0x7698 PUSH1 0x26 DUP4 PUSH2 0x699F JUMP JUMPDEST SWAP2 POP PUSH2 0x76A3 DUP3 PUSH2 0x763C JUMP JUMPDEST PUSH1 0x40 DUP3 ADD SWAP1 POP SWAP2 SWAP1 POP JUMP JUMPDEST PUSH1 0x0 PUSH1 0x20 DUP3 ADD SWAP1 POP DUP2 DUP2 SUB PUSH1 0x0 DUP4 ADD MSTORE PUSH2 0x76C7 DUP2 PUSH2 0x768B JUMP JUMPDEST SWAP1 POP SWAP2 SWAP1 POP JUMP JUMPDEST PUSH32 0x566F74696E67206C6F636B2063616E2062652032207965617273206D61780000 PUSH1 0x0 DUP3 ADD MSTORE POP JUMP JUMPDEST PUSH1 0x0 PUSH2 0x7704 PUSH1 0x1E DUP4 PUSH2 0x699F JUMP JUMPDEST SWAP2 POP PUSH2 0x770F DUP3 PUSH2 0x76CE JUMP JUMPDEST PUSH1 0x20 DUP3 ADD SWAP1 POP SWAP2 SWAP1 POP JUMP JUMPDEST PUSH1 0x0 PUSH1 0x20 DUP3 ADD SWAP1 POP DUP2 DUP2 SUB PUSH1 0x0 DUP4 ADD MSTORE PUSH2 0x7733 DUP2 PUSH2 0x76F7 JUMP JUMPDEST SWAP1 POP SWAP2 SWAP1 POP JUMP JUMPDEST PUSH1 0x0 PUSH2 0x7745 DUP3 PUSH2 0x6960 JUMP JUMPDEST SWAP2 POP PUSH2 0x7750 DUP4 PUSH2 0x6960 JUMP JUMPDEST SWAP3 POP DUP2 PUSH32 0xFFFFFFFFFFFFFFFFFFFFFFFFFFFFFFFFFFFFFFFFFFFFFFFFFFFFFFFFFFFFFFFF DIV DUP4 GT DUP3 ISZERO ISZERO AND ISZERO PUSH2 0x7789 JUMPI PUSH2 0x7788 PUSH2 0x72A6 JUMP JUMPDEST JUMPDEST DUP3 DUP3 MUL SWAP1 POP SWAP3 SWAP2 POP POP JUMP JUMPDEST PUSH1 0x0 PUSH2 0x779F DUP3 PUSH2 0x6960 JUMP JUMPDEST SWAP2 POP PUSH2 0x77AA DUP4 PUSH2 0x6960 JUMP JUMPDEST SWAP3 POP DUP3 PUSH2 0x77BA JUMPI PUSH2 0x77B9 PUSH2 0x7309 JUMP JUMPDEST JUMPDEST DUP3 DUP3 DIV SWAP1 POP SWAP3 SWAP2 POP POP JUMP JUMPDEST PUSH32 0x4E6F206578697374696E67206C6F636B20666F756E6400000000000000000000 PUSH1 0x0 DUP3 ADD MSTORE POP JUMP JUMPDEST PUSH1 0x0 PUSH2 0x77FB PUSH1 0x16 DUP4 PUSH2 0x699F JUMP JUMPDEST SWAP2 POP PUSH2 0x7806 DUP3 PUSH2 0x77C5 JUMP JUMPDEST PUSH1 0x20 DUP3 ADD SWAP1 POP SWAP2 SWAP1 POP JUMP JUMPDEST PUSH1 0x0 PUSH1 0x20 DUP3 ADD SWAP1 POP DUP2 DUP2 SUB PUSH1 0x0 DUP4 ADD MSTORE PUSH2 0x782A DUP2 PUSH2 0x77EE JUMP JUMPDEST SWAP1 POP SWAP2 SWAP1 POP JUMP JUMPDEST PUSH32 0x43616E6E6F742061646420746F2065787069726564206C6F636B2E2057697468 PUSH1 0x0 DUP3 ADD MSTORE PUSH32 0x6472617700000000000000000000000000000000000000000000000000000000 PUSH1 0x20 DUP3 ADD MSTORE POP JUMP JUMPDEST PUSH1 0x0 PUSH2 0x788D PUSH1 0x24 DUP4 PUSH2 0x699F JUMP JUMPDEST SWAP2 POP PUSH2 0x7898 DUP3 PUSH2 0x7831 JUMP JUMPDEST PUSH1 0x40 DUP3 ADD SWAP1 POP SWAP2 SWAP1 POP JUMP JUMPDEST PUSH1 0x0 PUSH1 0x20 DUP3 ADD SWAP1 POP DUP2 DUP2 SUB PUSH1 0x0 DUP4 ADD MSTORE PUSH2 0x78BC DUP2 PUSH2 0x7880 JUMP JUMPDEST SWAP1 POP SWAP2 SWAP1 POP JUMP JUMPDEST PUSH32 0x4C6F636B20657870697265640000000000000000000000000000000000000000 PUSH1 0x0 DUP3 ADD MSTORE POP JUMP JUMPDEST PUSH1 0x0 PUSH2 0x78F9 PUSH1 0xC DUP4 PUSH2 0x699F JUMP JUMPDEST SWAP2 POP PUSH2 0x7904 DUP3 PUSH2 0x78C3 JUMP JUMPDEST PUSH1 0x20 DUP3 ADD SWAP1 POP SWAP2 SWAP1 POP JUMP JUMPDEST PUSH1 0x0 PUSH1 0x20 DUP3 ADD SWAP1 POP DUP2 DUP2 SUB PUSH1 0x0 DUP4 ADD MSTORE PUSH2 0x7928 DUP2 PUSH2 0x78EC JUMP JUMPDEST SWAP1 POP SWAP2 SWAP1 POP JUMP JUMPDEST PUSH32 0x4E6F7468696E67206973206C6F636B6564000000000000000000000000000000 PUSH1 0x0 DUP3 ADD MSTORE POP JUMP JUMPDEST PUSH1 0x0 PUSH2 0x7965 PUSH1 0x11 DUP4 PUSH2 0x699F JUMP JUMPDEST SWAP2 POP PUSH2 0x7970 DUP3 PUSH2 0x792F JUMP JUMPDEST PUSH1 0x20 DUP3 ADD SWAP1 POP SWAP2 SWAP1 POP JUMP JUMPDEST PUSH1 0x0 PUSH1 0x20 DUP3 ADD SWAP1 POP DUP2 DUP2 SUB PUSH1 0x0 DUP4 ADD MSTORE PUSH2 0x7994 DUP2 PUSH2 0x7958 JUMP JUMPDEST SWAP1 POP SWAP2 SWAP1 POP JUMP JUMPDEST PUSH32 0x43616E206F6E6C7920696E637265617365206C6F636B206475726174696F6E00 PUSH1 0x0 DUP3 ADD MSTORE POP JUMP JUMPDEST PUSH1 0x0 PUSH2 0x79D1 PUSH1 0x1F DUP4 PUSH2 0x699F JUMP JUMPDEST SWAP2 POP PUSH2 0x79DC DUP3 PUSH2 0x799B JUMP JUMPDEST PUSH1 0x20 DUP3 ADD SWAP1 POP SWAP2 SWAP1 POP JUMP JUMPDEST PUSH1 0x0 PUSH1 0x20 DUP3 ADD SWAP1 POP DUP2 DUP2 SUB PUSH1 0x0 DUP4 ADD MSTORE PUSH2 0x7A00 DUP2 PUSH2 0x79C4 JUMP JUMPDEST SWAP1 POP SWAP2 SWAP1 POP JUMP JUMPDEST PUSH1 0x0 DUP2 MLOAD SWAP1 POP SWAP2 SWAP1 POP JUMP JUMPDEST PUSH1 0x0 DUP3 DUP3 MSTORE PUSH1 0x20 DUP3 ADD SWAP1 POP SWAP3 SWAP2 POP POP JUMP JUMPDEST PUSH1 0x0 PUSH2 0x7A2E DUP3 PUSH2 0x7A07 JUMP JUMPDEST PUSH2 0x7A38 DUP2 DUP6 PUSH2 0x7A12 JUMP JUMPDEST SWAP4 POP PUSH2 0x7A48 DUP2 DUP6 PUSH1 0x20 DUP7 ADD PUSH2 0x69B0 JUMP JUMPDEST PUSH2 0x7A51 DUP2 PUSH2 0x69E3 JUMP JUMPDEST DUP5 ADD SWAP2 POP POP SWAP3 SWAP2 POP POP JUMP JUMPDEST PUSH1 0x0 PUSH1 0x80 DUP3 ADD SWAP1 POP PUSH2 0x7A71 PUSH1 0x0 DUP4 ADD DUP8 PUSH2 0x6B80 JUMP JUMPDEST PUSH2 0x7A7E PUSH1 0x20 DUP4 ADD DUP7 PUSH2 0x6B80 JUMP JUMPDEST PUSH2 0x7A8B PUSH1 0x40 DUP4 ADD DUP6 PUSH2 0x696A JUMP JUMPDEST DUP2 DUP2 SUB PUSH1 0x60 DUP4 ADD MSTORE PUSH2 0x7A9D DUP2 DUP5 PUSH2 0x7A23 JUMP JUMPDEST SWAP1 POP SWAP6 SWAP5 POP POP POP POP POP JUMP JUMPDEST PUSH1 0x0 DUP2 MLOAD SWAP1 POP PUSH2 0x7AB7 DUP2 PUSH2 0x68D1 JUMP JUMPDEST SWAP3 SWAP2 POP POP JUMP JUMPDEST PUSH1 0x0 PUSH1 0x20 DUP3 DUP5 SUB SLT ISZERO PUSH2 0x7AD3 JUMPI PUSH2 0x7AD2 PUSH2 0x689B JUMP JUMPDEST JUMPDEST PUSH1 0x0 PUSH2 0x7AE1 DUP5 DUP3 DUP6 ADD PUSH2 0x7AA8 JUMP JUMPDEST SWAP2 POP POP SWAP3 SWAP2 POP POP JUMP JUMPDEST PUSH32 0x4552433732313A207472616E7366657220746F206E6F6E204552433732315265 PUSH1 0x0 DUP3 ADD MSTORE PUSH32 0x63656976657220696D706C656D656E7465720000000000000000000000000000 PUSH1 0x20 DUP3 ADD MSTORE POP JUMP JUMPDEST PUSH1 0x0 PUSH2 0x7B46 PUSH1 0x32 DUP4 PUSH2 0x699F JUMP JUMPDEST SWAP2 POP PUSH2 0x7B51 DUP3 PUSH2 0x7AEA JUMP JUMPDEST PUSH1 0x40 DUP3 ADD SWAP1 POP SWAP2 SWAP1 POP JUMP JUMPDEST PUSH1 0x0 PUSH1 0x20 DUP3 ADD SWAP1 POP DUP2 DUP2 SUB PUSH1 0x0 DUP4 ADD MSTORE PUSH2 0x7B75 DUP2 PUSH2 0x7B39 JUMP JUMPDEST SWAP1 POP SWAP2 SWAP1 POP JUMP JUMPDEST PUSH32 0x4552433732313A2045524337323152656365697665722072656A656374656420 PUSH1 0x0 DUP3 ADD MSTORE PUSH32 0x746F6B656E730000000000000000000000000000000000000000000000000000 PUSH1 0x20 DUP3 ADD MSTORE POP JUMP JUMPDEST PUSH1 0x0 PUSH2 0x7BD8 PUSH1 0x26 DUP4 PUSH2 0x699F JUMP JUMPDEST SWAP2 POP PUSH2 0x7BE3 DUP3 PUSH2 0x7B7C JUMP JUMPDEST PUSH1 0x40 DUP3 ADD SWAP1 POP SWAP2 SWAP1 POP JUMP JUMPDEST PUSH1 0x0 PUSH1 0x20 DUP3 ADD SWAP1 POP DUP2 DUP2 SUB PUSH1 0x0 DUP4 ADD MSTORE PUSH2 0x7C07 DUP2 PUSH2 0x7BCB JUMP JUMPDEST SWAP1 POP SWAP2 SWAP1 POP JUMP JUMPDEST PUSH1 0x0 PUSH1 0xA0 DUP3 ADD SWAP1 POP PUSH2 0x7C23 PUSH1 0x0 DUP4 ADD DUP9 PUSH2 0x6C82 JUMP JUMPDEST PUSH2 0x7C30 PUSH1 0x20 DUP4 ADD DUP8 PUSH2 0x6C82 JUMP JUMPDEST PUSH2 0x7C3D PUSH1 0x40 DUP4 ADD DUP7 PUSH2 0x6C82 JUMP JUMPDEST PUSH2 0x7C4A PUSH1 0x60 DUP4 ADD DUP6 PUSH2 0x696A JUMP JUMPDEST PUSH2 0x7C57 PUSH1 0x80 DUP4 ADD DUP5 PUSH2 0x6B80 JUMP JUMPDEST SWAP7 SWAP6 POP POP POP POP POP POP JUMP JUMPDEST PUSH1 0x0 PUSH1 0x80 DUP3 ADD SWAP1 POP PUSH2 0x7C76 PUSH1 0x0 DUP4 ADD DUP8 PUSH2 0x6C82 JUMP JUMPDEST PUSH2 0x7C83 PUSH1 0x20 DUP4 ADD DUP7 PUSH2 0x6B80 JUMP JUMPDEST PUSH2 0x7C90 PUSH1 0x40 DUP4 ADD DUP6 PUSH2 0x696A JUMP JUMPDEST PUSH2 0x7C9D PUSH1 0x60 DUP4 ADD DUP5 PUSH2 0x696A JUMP JUMPDEST SWAP6 SWAP5 POP POP POP POP POP JUMP JUMPDEST PUSH1 0x0 DUP2 SWAP1 POP SWAP3 SWAP2 POP POP JUMP JUMPDEST PUSH32 0x1901000000000000000000000000000000000000000000000000000000000000 PUSH1 0x0 DUP3 ADD MSTORE POP JUMP JUMPDEST PUSH1 0x0 PUSH2 0x7CE7 PUSH1 0x2 DUP4 PUSH2 0x7CA6 JUMP JUMPDEST SWAP2 POP PUSH2 0x7CF2 DUP3 PUSH2 0x7CB1 JUMP JUMPDEST PUSH1 0x2 DUP3 ADD SWAP1 POP SWAP2 SWAP1 POP JUMP JUMPDEST PUSH1 0x0 DUP2 SWAP1 POP SWAP2 SWAP1 POP JUMP JUMPDEST PUSH2 0x7D18 PUSH2 0x7D13 DUP3 PUSH2 0x6C78 JUMP JUMPDEST PUSH2 0x7CFD JUMP JUMPDEST DUP3 MSTORE POP POP JUMP JUMPDEST PUSH1 0x0 PUSH2 0x7D29 DUP3 PUSH2 0x7CDA JUMP JUMPDEST SWAP2 POP PUSH2 0x7D35 DUP3 DUP6 PUSH2 0x7D07 JUMP JUMPDEST PUSH1 0x20 DUP3 ADD SWAP2 POP PUSH2 0x7D45 DUP3 DUP5 PUSH2 0x7D07 JUMP JUMPDEST PUSH1 0x20 DUP3 ADD SWAP2 POP DUP2 SWAP1 POP SWAP4 SWAP3 POP POP POP JUMP JUMPDEST PUSH1 0x0 PUSH1 0x80 DUP3 ADD SWAP1 POP PUSH2 0x7D6A PUSH1 0x0 DUP4 ADD DUP8 PUSH2 0x6C82 JUMP JUMPDEST PUSH2 0x7D77 PUSH1 0x20 DUP4 ADD DUP7 PUSH2 0x6D0C JUMP JUMPDEST PUSH2 0x7D84 PUSH1 0x40 DUP4 ADD DUP6 PUSH2 0x6C82 JUMP JUMPDEST PUSH2 0x7D91 PUSH1 0x60 DUP4 ADD DUP5 PUSH2 0x6C82 JUMP JUMPDEST SWAP6 SWAP5 POP POP POP POP POP JUMP JUMPDEST PUSH32 0x566F74696E67457363726F773A3A64656C656761746542795369673A20696E76 PUSH1 0x0 DUP3 ADD MSTORE PUSH32 0x616C6964207369676E6174757265000000000000000000000000000000000000 PUSH1 0x20 DUP3 ADD MSTORE POP JUMP JUMPDEST PUSH1 0x0 PUSH2 0x7DF6 PUSH1 0x2E DUP4 PUSH2 0x699F JUMP JUMPDEST SWAP2 POP PUSH2 0x7E01 DUP3 PUSH2 0x7D9A JUMP JUMPDEST PUSH1 0x40 DUP3 ADD SWAP1 POP SWAP2 SWAP1 POP JUMP JUMPDEST PUSH1 0x0 PUSH1 0x20 DUP3 ADD SWAP1 POP DUP2 DUP2 SUB PUSH1 0x0 DUP4 ADD MSTORE PUSH2 0x7E25 DUP2 PUSH2 0x7DE9 JUMP JUMPDEST SWAP1 POP SWAP2 SWAP1 POP JUMP JUMPDEST PUSH32 0x566F74696E67457363726F773A3A64656C656761746542795369673A20696E76 PUSH1 0x0 DUP3 ADD MSTORE PUSH32 0x616C6964206E6F6E636500000000000000000000000000000000000000000000 PUSH1 0x20 DUP3 ADD MSTORE POP JUMP JUMPDEST PUSH1 0x0 PUSH2 0x7E88 PUSH1 0x2A DUP4 PUSH2 0x699F JUMP JUMPDEST SWAP2 POP PUSH2 0x7E93 DUP3 PUSH2 0x7E2C JUMP JUMPDEST PUSH1 0x40 DUP3 ADD SWAP1 POP SWAP2 SWAP1 POP JUMP JUMPDEST PUSH1 0x0 PUSH1 0x20 DUP3 ADD SWAP1 POP DUP2 DUP2 SUB PUSH1 0x0 DUP4 ADD MSTORE PUSH2 0x7EB7 DUP2 PUSH2 0x7E7B JUMP JUMPDEST SWAP1 POP SWAP2 SWAP1 POP JUMP JUMPDEST PUSH32 0x566F74696E67457363726F773A3A64656C656761746542795369673A20736967 PUSH1 0x0 DUP3 ADD MSTORE PUSH32 0x6E61747572652065787069726564000000000000000000000000000000000000 PUSH1 0x20 DUP3 ADD MSTORE POP JUMP JUMPDEST PUSH1 0x0 PUSH2 0x7F1A PUSH1 0x2E DUP4 PUSH2 0x699F JUMP JUMPDEST SWAP2 POP PUSH2 0x7F25 DUP3 PUSH2 0x7EBE JUMP JUMPDEST PUSH1 0x40 DUP3 ADD SWAP1 POP SWAP2 SWAP1 POP JUMP JUMPDEST PUSH1 0x0 PUSH1 0x20 DUP3 ADD SWAP1 POP DUP2 DUP2 SUB PUSH1 0x0 DUP4 ADD MSTORE PUSH2 0x7F49 DUP2 PUSH2 0x7F0D JUMP JUMPDEST SWAP1 POP SWAP2 SWAP1 POP JUMP JUMPDEST PUSH32 0x517565727920666F72206E6F6E6578697374656E7420746F6B656E0000000000 PUSH1 0x0 DUP3 ADD MSTORE POP JUMP JUMPDEST PUSH1 0x0 PUSH2 0x7F86 PUSH1 0x1B DUP4 PUSH2 0x699F JUMP JUMPDEST SWAP2 POP PUSH2 0x7F91 DUP3 PUSH2 0x7F50 JUMP JUMPDEST PUSH1 0x20 DUP3 ADD SWAP1 POP SWAP2 SWAP1 POP JUMP JUMPDEST PUSH1 0x0 PUSH1 0x20 DUP3 ADD SWAP1 POP DUP2 DUP2 SUB PUSH1 0x0 DUP4 ADD MSTORE PUSH2 0x7FB5 DUP2 PUSH2 0x7F79 JUMP JUMPDEST SWAP1 POP SWAP2 SWAP1 POP JUMP JUMPDEST PUSH1 0x0 PUSH1 0x80 DUP3 ADD SWAP1 POP PUSH2 0x7FD1 PUSH1 0x0 DUP4 ADD DUP8 PUSH2 0x696A JUMP JUMPDEST PUSH2 0x7FDE PUSH1 0x20 DUP4 ADD DUP7 PUSH2 0x696A JUMP JUMPDEST PUSH2 0x7FEB PUSH1 0x40 DUP4 ADD DUP6 PUSH2 0x696A JUMP JUMPDEST PUSH2 0x7FF8 PUSH1 0x60 DUP4 ADD DUP5 PUSH2 0x696A JUMP JUMPDEST SWAP6 SWAP5 POP POP POP POP POP JUMP JUMPDEST PUSH1 0x0 PUSH8 0xFFFFFFFFFFFFFFFF DUP3 GT ISZERO PUSH2 0x801C JUMPI PUSH2 0x801B PUSH2 0x6D56 JUMP JUMPDEST JUMPDEST PUSH2 0x8025 DUP3 PUSH2 0x69E3 JUMP JUMPDEST SWAP1 POP PUSH1 0x20 DUP2 ADD SWAP1 POP SWAP2 SWAP1 POP JUMP JUMPDEST PUSH1 0x0 PUSH2 0x8045 PUSH2 0x8040 DUP5 PUSH2 0x8001 JUMP JUMPDEST PUSH2 0x6DB6 JUMP JUMPDEST SWAP1 POP DUP3 DUP2 MSTORE PUSH1 0x20 DUP2 ADD DUP5 DUP5 DUP5 ADD GT ISZERO PUSH2 0x8061 JUMPI PUSH2 0x8060 PUSH2 0x6F8A JUMP JUMPDEST JUMPDEST PUSH2 0x806C DUP5 DUP3 DUP6 PUSH2 0x69B0 JUMP JUMPDEST POP SWAP4 SWAP3 POP POP POP JUMP JUMPDEST PUSH1 0x0 DUP3 PUSH1 0x1F DUP4 ADD SLT PUSH2 0x8089 JUMPI PUSH2 0x8088 PUSH2 0x6D51 JUMP JUMPDEST JUMPDEST DUP2 MLOAD PUSH2 0x8099 DUP5 DUP3 PUSH1 0x20 DUP7 ADD PUSH2 0x8032 JUMP JUMPDEST SWAP2 POP POP SWAP3 SWAP2 POP POP JUMP JUMPDEST PUSH1 0x0 PUSH1 0x20 DUP3 DUP5 SUB SLT ISZERO PUSH2 0x80B8 JUMPI PUSH2 0x80B7 PUSH2 0x689B JUMP JUMPDEST JUMPDEST PUSH1 0x0 DUP3 ADD MLOAD PUSH8 0xFFFFFFFFFFFFFFFF DUP2 GT ISZERO PUSH2 0x80D6 JUMPI PUSH2 0x80D5 PUSH2 0x68A0 JUMP JUMPDEST JUMPDEST PUSH2 0x80E2 DUP5 DUP3 DUP6 ADD PUSH2 0x8074 JUMP JUMPDEST SWAP2 POP POP SWAP3 SWAP2 POP POP JUMP JUMPDEST PUSH1 0x0 PUSH2 0x80F6 DUP3 PUSH2 0x6C17 JUMP JUMPDEST SWAP2 POP PUSH2 0x8101 DUP4 PUSH2 0x6C17 JUMP JUMPDEST SWAP3 POP DUP3 PUSH2 0x8111 JUMPI PUSH2 0x8110 PUSH2 0x7309 JUMP JUMPDEST JUMPDEST PUSH1 0x1 PUSH1 0x0 SUB DUP4 EQ PUSH32 0xFFFFFFFFFFFFFFFFFFFFFFFFFFFFFFFF80000000000000000000000000000000 DUP4 EQ AND ISZERO PUSH2 0x814A JUMPI PUSH2 0x8149 PUSH2 0x72A6 JUMP JUMPDEST JUMPDEST DUP3 DUP3 SDIV SWAP1 POP SWAP3 SWAP2 POP POP JUMP JUMPDEST PUSH1 0x0 PUSH2 0x8160 DUP3 PUSH2 0x6C17 JUMP JUMPDEST SWAP2 POP PUSH2 0x816B DUP4 PUSH2 0x6C17 JUMP JUMPDEST SWAP3 POP DUP3 PUSH16 0x7FFFFFFFFFFFFFFFFFFFFFFFFFFFFFFF DIV DUP3 GT PUSH1 0x0 DUP5 SGT PUSH1 0x0 DUP5 SGT AND AND ISZERO PUSH2 0x819A JUMPI PUSH2 0x8199 PUSH2 0x72A6 JUMP JUMPDEST JUMPDEST DUP2 PUSH32 0xFFFFFFFFFFFFFFFFFFFFFFFFFFFFFFFF80000000000000000000000000000000 SDIV DUP4 SLT PUSH1 0x0 DUP5 SLT PUSH1 0x0 DUP5 SGT AND AND ISZERO PUSH2 0x81D7 JUMPI PUSH2 0x81D6 PUSH2 0x72A6 JUMP JUMPDEST JUMPDEST DUP3 PUSH32 0xFFFFFFFFFFFFFFFFFFFFFFFFFFFFFFFF80000000000000000000000000000000 SDIV DUP3 SLT PUSH1 0x0 DUP5 SGT PUSH1 0x0 DUP5 SLT AND AND ISZERO PUSH2 0x8214 JUMPI PUSH2 0x8213 PUSH2 0x72A6 JUMP JUMPDEST JUMPDEST DUP3 PUSH16 0x7FFFFFFFFFFFFFFFFFFFFFFFFFFFFFFF SDIV DUP3 SLT PUSH1 0x0 DUP5 SLT PUSH1 0x0 DUP5 SLT AND AND ISZERO PUSH2 0x8241 JUMPI PUSH2 0x8240 PUSH2 0x72A6 JUMP JUMPDEST JUMPDEST DUP3 DUP3 MUL SWAP1 POP SWAP3 SWAP2 POP POP JUMP JUMPDEST PUSH1 0x0 PUSH2 0x8257 DUP3 PUSH2 0x6C17 JUMP JUMPDEST SWAP2 POP PUSH2 0x8262 DUP4 PUSH2 0x6C17 JUMP JUMPDEST SWAP3 POP DUP3 PUSH32 0xFFFFFFFFFFFFFFFFFFFFFFFFFFFFFFFF80000000000000000000000000000000 ADD DUP3 SLT PUSH1 0x0 DUP5 SLT ISZERO AND ISZERO PUSH2 0x829D JUMPI PUSH2 0x829C PUSH2 0x72A6 JUMP JUMPDEST JUMPDEST DUP3 PUSH16 0x7FFFFFFFFFFFFFFFFFFFFFFFFFFFFFFF ADD DUP3 SGT PUSH1 0x0 DUP5 SLT AND ISZERO PUSH2 0x82C5 JUMPI PUSH2 0x82C4 PUSH2 0x72A6 JUMP JUMPDEST JUMPDEST DUP3 DUP3 SUB SWAP1 POP SWAP3 SWAP2 POP POP JUMP JUMPDEST PUSH1 0x0 PUSH2 0x82DB DUP3 PUSH2 0x6C17 JUMP JUMPDEST SWAP2 POP PUSH2 0x82E6 DUP4 PUSH2 0x6C17 JUMP JUMPDEST SWAP3 POP DUP2 PUSH16 0x7FFFFFFFFFFFFFFFFFFFFFFFFFFFFFFF SUB DUP4 SGT PUSH1 0x0 DUP4 SLT ISZERO AND ISZERO PUSH2 0x8311 JUMPI PUSH2 0x8310 PUSH2 0x72A6 JUMP JUMPDEST JUMPDEST DUP2 PUSH32 0xFFFFFFFFFFFFFFFFFFFFFFFFFFFFFFFF80000000000000000000000000000000 SUB DUP4 SLT PUSH1 0x0 DUP4 SLT AND ISZERO PUSH2 0x8349 JUMPI PUSH2 0x8348 PUSH2 0x72A6 JUMP JUMPDEST JUMPDEST DUP3 DUP3 ADD SWAP1 POP SWAP3 SWAP2 POP POP JUMP JUMPDEST PUSH32 0x63616C6C6572206973206E6F74206F776E6572206E6F7220617070726F766564 PUSH1 0x0 DUP3 ADD MSTORE POP JUMP JUMPDEST PUSH1 0x0 PUSH2 0x838A PUSH1 0x20 DUP4 PUSH2 0x699F JUMP JUMPDEST SWAP2 POP PUSH2 0x8395 DUP3 PUSH2 0x8354 JUMP JUMPDEST PUSH1 0x20 DUP3 ADD SWAP1 POP SWAP2 SWAP1 POP JUMP JUMPDEST PUSH1 0x0 PUSH1 0x20 DUP3 ADD SWAP1 POP DUP2 DUP2 SUB PUSH1 0x0 DUP4 ADD MSTORE PUSH2 0x83B9 DUP2 PUSH2 0x837D JUMP JUMPDEST SWAP1 POP SWAP2 SWAP1 POP JUMP JUMPDEST PUSH1 0x0 DUP2 SWAP1 POP SWAP2 SWAP1 POP JUMP JUMPDEST PUSH1 0x0 PUSH2 0x83D5 DUP3 PUSH2 0x83C0 JUMP JUMPDEST SWAP2 POP PUSH2 0x83E0 DUP4 PUSH2 0x83C0 JUMP JUMPDEST SWAP3 POP DUP3 PUSH32 0x8000000000000000000000000000000000000000000000000000000000000000 ADD DUP3 SLT PUSH1 0x0 DUP5 SLT ISZERO AND ISZERO PUSH2 0x841B JUMPI PUSH2 0x841A PUSH2 0x72A6 JUMP JUMPDEST JUMPDEST DUP3 PUSH32 0x7FFFFFFFFFFFFFFFFFFFFFFFFFFFFFFFFFFFFFFFFFFFFFFFFFFFFFFFFFFFFFFF ADD DUP3 SGT PUSH1 0x0 DUP5 SLT AND ISZERO PUSH2 0x8453 JUMPI PUSH2 0x8452 PUSH2 0x72A6 JUMP JUMPDEST JUMPDEST DUP3 DUP3 SUB SWAP1 POP SWAP3 SWAP2 POP POP JUMP JUMPDEST PUSH32 0x4E487B7100000000000000000000000000000000000000000000000000000000 PUSH1 0x0 MSTORE PUSH1 0x21 PUSH1 0x4 MSTORE PUSH1 0x24 PUSH1 0x0 REVERT JUMPDEST PUSH1 0x0 PUSH1 0x60 DUP3 ADD SWAP1 POP PUSH2 0x84A2 PUSH1 0x0 DUP4 ADD DUP7 PUSH2 0x6B80 JUMP JUMPDEST PUSH2 0x84AF PUSH1 0x20 DUP4 ADD DUP6 PUSH2 0x6B80 JUMP JUMPDEST PUSH2 0x84BC PUSH1 0x40 DUP4 ADD DUP5 PUSH2 0x696A JUMP JUMPDEST SWAP5 SWAP4 POP POP POP POP JUMP JUMPDEST PUSH1 0x6 DUP2 LT PUSH2 0x84D5 JUMPI PUSH2 0x84D4 PUSH2 0x845E JUMP JUMPDEST JUMPDEST POP JUMP JUMPDEST PUSH1 0x0 DUP2 SWAP1 POP PUSH2 0x84E6 DUP3 PUSH2 0x84C4 JUMP JUMPDEST SWAP2 SWAP1 POP JUMP JUMPDEST PUSH1 0x0 PUSH2 0x84F6 DUP3 PUSH2 0x84D8 JUMP JUMPDEST SWAP1 POP SWAP2 SWAP1 POP JUMP JUMPDEST PUSH2 0x8506 DUP2 PUSH2 0x84EB JUMP JUMPDEST DUP3 MSTORE POP POP JUMP JUMPDEST PUSH1 0x0 PUSH1 0x80 DUP3 ADD SWAP1 POP PUSH2 0x8521 PUSH1 0x0 DUP4 ADD DUP8 PUSH2 0x696A JUMP JUMPDEST PUSH2 0x852E PUSH1 0x20 DUP4 ADD DUP7 PUSH2 0x696A JUMP JUMPDEST PUSH2 0x853B PUSH1 0x40 DUP4 ADD DUP6 PUSH2 0x84FD JUMP JUMPDEST PUSH2 0x8548 PUSH1 0x60 DUP4 ADD DUP5 PUSH2 0x696A JUMP JUMPDEST SWAP6 SWAP5 POP POP POP POP POP JUMP JUMPDEST PUSH1 0x0 PUSH2 0x855C DUP3 PUSH2 0x6B19 JUMP JUMPDEST SWAP2 POP PUSH2 0x8567 DUP4 PUSH2 0x6B19 JUMP JUMPDEST SWAP3 POP DUP3 PUSH4 0xFFFFFFFF SUB DUP3 GT ISZERO PUSH2 0x8580 JUMPI PUSH2 0x857F PUSH2 0x72A6 JUMP JUMPDEST JUMPDEST DUP3 DUP3 ADD SWAP1 POP SWAP3 SWAP2 POP POP JUMP JUMPDEST PUSH32 0x64737452657020776F756C64206861766520746F6F206D616E7920746F6B656E PUSH1 0x0 DUP3 ADD MSTORE PUSH32 0x4964730000000000000000000000000000000000000000000000000000000000 PUSH1 0x20 DUP3 ADD MSTORE POP JUMP JUMPDEST PUSH1 0x0 PUSH2 0x85E7 PUSH1 0x23 DUP4 PUSH2 0x699F JUMP JUMPDEST SWAP2 POP PUSH2 0x85F2 DUP3 PUSH2 0x858B JUMP JUMPDEST PUSH1 0x40 DUP3 ADD SWAP1 POP SWAP2 SWAP1 POP JUMP JUMPDEST PUSH1 0x0 PUSH1 0x20 DUP3 ADD SWAP1 POP DUP2 DUP2 SUB PUSH1 0x0 DUP4 ADD MSTORE PUSH2 0x8616 DUP2 PUSH2 0x85DA JUMP JUMPDEST SWAP1 POP SWAP2 SWAP1 POP JUMP INVALID LOG2 PUSH5 0x6970667358 0x22 SLT KECCAK256 POP AND 0xD7 DUP4 EXTCODESIZE PUSH8 0xE637E5B7BA97307C 0xCA MUL PUSH25 0xFD9C3E6E4BB539A593602DEF6535D564736F6C634300080D00 CALLER "
		},
		"gasEstimates": {
			"creation": {
				"codeDepositCost": "6877400",
				"executionCost": "infinite",
				"totalCost": "infinite"
			},
			"external": {
				"DELEGATION_TYPEHASH()": "396",
				"DOMAIN_TYPEHASH()": "464",
				"MAX_DELEGATES()": "463",
				"abstain(uint256)": "26986",
				"approve(address,uint256)": "33917",
				"artProxy()": "2670",
				"attach(uint256)": "infinite",
				"attachments(uint256)": "infinite",
				"balanceOf(address)": "3039",
				"balanceOfAtNFT(uint256,uint256)": "infinite",
				"balanceOfNFT(uint256)": "infinite",
				"balanceOfNFTAt(uint256,uint256)": "infinite",
				"block_number()": "426",
				"checkpoint()": "infinite",
				"checkpoints(address,uint32)": "3136",
				"create_lock(uint256,uint256)": "infinite",
				"create_lock_for(uint256,uint256,address)": "infinite",
				"decimals()": "404",
				"delegate(address)": "infinite",
				"delegateBySig(address,uint256,uint256,uint8,bytes32,bytes32)": "infinite",
				"delegates(address)": "infinite",
				"deposit_for(uint256,uint256)": "infinite",
				"detach(uint256)": "infinite",
				"epoch()": "2563",
				"getApproved(uint256)": "2934",
				"getPastTotalSupply(uint256)": "infinite",
				"getPastVotes(address,uint256)": "infinite",
				"getPastVotesIndex(address,uint256)": "infinite",
				"getVotes(address)": "infinite",
				"get_last_user_slope(uint256)": "5178",
				"increase_amount(uint256,uint256)": "infinite",
				"increase_unlock_time(uint256,uint256)": "infinite",
				"isApprovedForAll(address,address)": "infinite",
				"isApprovedOrOwner(address,uint256)": "7889",
				"locked(uint256)": "infinite",
				"locked__end(uint256)": "infinite",
				"merge(uint256,uint256)": "infinite",
				"name()": "infinite",
				"nonces(address)": "2927",
				"numCheckpoints(address)": "2978",
				"ownerOf(uint256)": "2932",
				"ownership_change(uint256)": "infinite",
				"point_history(uint256)": "infinite",
				"safeTransferFrom(address,address,uint256)": "infinite",
				"safeTransferFrom(address,address,uint256,bytes)": "infinite",
				"setApprovalForAll(address,bool)": "infinite",
				"setArtProxy(address)": "27026",
				"setTeam(address)": "26983",
				"setVoter(address)": "27004",
				"slope_changes(uint256)": "2891",
				"split(uint256[],uint256)": "infinite",
				"supply()": "2521",
				"supportsInterface(bytes4)": "2916",
				"symbol()": "infinite",
				"team()": "2649",
				"token()": "infinite",
				"tokenOfOwnerByIndex(address,uint256)": "infinite",
				"tokenURI(uint256)": "infinite",
				"totalSupply()": "infinite",
				"totalSupplyAt(uint256)": "infinite",
				"totalSupplyAtT(uint256)": "infinite",
				"transferFrom(address,address,uint256)": "infinite",
				"user_point_epoch(uint256)": "infinite",
				"user_point_history(uint256,uint256)": "infinite",
				"user_point_history__ts(uint256,uint256)": "infinite",
				"version()": "infinite",
				"voted(uint256)": "2908",
				"voter()": "2601",
				"voting(uint256)": "27072",
				"withdraw(uint256)": "infinite"
			},
			"internal": {
				"_addTokenTo(address,uint256)": "infinite",
				"_addTokenToOwnerList(address,uint256)": "46739",
				"_balance(address)": "2224",
				"_balanceOfAtNFT(uint256,uint256)": "infinite",
				"_balanceOfNFT(uint256,uint256)": "infinite",
				"_burn(uint256)": "infinite",
				"_checkpoint(uint256,struct VotingEscrow.LockedBalance memory,struct VotingEscrow.LockedBalance memory)": "infinite",
				"_clearApproval(address,uint256)": "28862",
				"_create_lock(uint256,uint256,address)": "infinite",
				"_delegate(address,address)": "infinite",
				"_deposit_for(uint256,uint256,uint256,struct VotingEscrow.LockedBalance memory,enum VotingEscrow.DepositType)": "infinite",
				"_findWhatCheckpointToWrite(address)": "infinite",
				"_find_block_epoch(uint256,uint256)": "infinite",
				"_isApprovedOrOwner(address,uint256)": "6912",
				"_isContract(address)": "2647",
				"_mint(address,uint256)": "infinite",
				"_moveAllDelegates(address,address,address)": "infinite",
				"_moveTokenDelegates(address,address,uint256)": "infinite",
				"_removeTokenFrom(address,uint256)": "infinite",
				"_removeTokenFromOwnerList(address,uint256)": "infinite",
				"_supply_at(struct VotingEscrow.Point memory,uint256)": "infinite",
				"_transferFrom(address,address,uint256,address)": "infinite"
			}
		},
		"methodIdentifiers": {
			"DELEGATION_TYPEHASH()": "e7a324dc",
			"DOMAIN_TYPEHASH()": "20606b70",
			"MAX_DELEGATES()": "5f5b0c32",
			"abstain(uint256)": "c1f0fb9f",
			"approve(address,uint256)": "095ea7b3",
			"artProxy()": "5594a045",
			"attach(uint256)": "fbd3a29d",
			"attachments(uint256)": "0d6a2033",
			"balanceOf(address)": "70a08231",
			"balanceOfAtNFT(uint256,uint256)": "8c2c9baf",
			"balanceOfNFT(uint256)": "e7e242d4",
			"balanceOfNFTAt(uint256,uint256)": "e0514aba",
			"block_number()": "25a58b56",
			"checkpoint()": "c2c4c5c1",
			"checkpoints(address,uint32)": "f1127ed8",
			"create_lock(uint256,uint256)": "65fc3873",
			"create_lock_for(uint256,uint256,address)": "d4e54c3b",
			"decimals()": "313ce567",
			"delegate(address)": "5c19a95c",
			"delegateBySig(address,uint256,uint256,uint8,bytes32,bytes32)": "c3cda520",
			"delegates(address)": "587cde1e",
			"deposit_for(uint256,uint256)": "ee99fe28",
			"detach(uint256)": "986b7d8a",
			"epoch()": "900cf0cf",
			"getApproved(uint256)": "081812fc",
			"getPastTotalSupply(uint256)": "8e539e8c",
			"getPastVotes(address,uint256)": "3a46b1a8",
			"getPastVotesIndex(address,uint256)": "0758c7d8",
			"getVotes(address)": "9ab24eb0",
			"get_last_user_slope(uint256)": "461f711c",
			"increase_amount(uint256,uint256)": "a183af52",
			"increase_unlock_time(uint256,uint256)": "a4d855df",
			"isApprovedForAll(address,address)": "e985e9c5",
			"isApprovedOrOwner(address,uint256)": "430c2081",
			"locked(uint256)": "b45a3c0e",
			"locked__end(uint256)": "f8a05763",
			"merge(uint256,uint256)": "d1c2babb",
			"name()": "06fdde03",
			"nonces(address)": "7ecebe00",
			"numCheckpoints(address)": "6fcfff45",
			"ownerOf(uint256)": "6352211e",
			"ownership_change(uint256)": "6f548837",
			"point_history(uint256)": "d1febfb9",
			"safeTransferFrom(address,address,uint256)": "42842e0e",
			"safeTransferFrom(address,address,uint256,bytes)": "b88d4fde",
			"setApprovalForAll(address,bool)": "a22cb465",
			"setArtProxy(address)": "2e720f7d",
			"setTeam(address)": "095cf5c6",
			"setVoter(address)": "4bc2a657",
			"slope_changes(uint256)": "71197484",
			"split(uint256[],uint256)": "56afe744",
			"supply()": "047fc9aa",
			"supportsInterface(bytes4)": "01ffc9a7",
			"symbol()": "95d89b41",
			"team()": "85f2aef2",
			"token()": "fc0c546a",
			"tokenOfOwnerByIndex(address,uint256)": "2f745c59",
			"tokenURI(uint256)": "c87b56dd",
			"totalSupply()": "18160ddd",
			"totalSupplyAt(uint256)": "981b24d0",
			"totalSupplyAtT(uint256)": "7116c60c",
			"transferFrom(address,address,uint256)": "23b872dd",
			"user_point_epoch(uint256)": "e441135c",
			"user_point_history(uint256,uint256)": "1376f3da",
			"user_point_history__ts(uint256,uint256)": "1c984bc3",
			"version()": "54fd4d50",
			"voted(uint256)": "8fbb38ff",
			"voter()": "46c96aac",
			"voting(uint256)": "fd4a77f1",
			"withdraw(uint256)": "2e1a7d4d"
		}
	},
	"abi": [
		{
			"inputs": [
				{
					"internalType": "address",
					"name": "token_addr",
					"type": "address"
				},
				{
					"internalType": "address",
					"name": "art_proxy",
					"type": "address"
				}
			],
			"stateMutability": "nonpayable",
			"type": "constructor"
		},
		{
			"anonymous": false,
			"inputs": [
				{
					"indexed": true,
					"internalType": "address",
					"name": "owner",
					"type": "address"
				},
				{
					"indexed": true,
					"internalType": "address",
					"name": "approved",
					"type": "address"
				},
				{
					"indexed": true,
					"internalType": "uint256",
					"name": "tokenId",
					"type": "uint256"
				}
			],
			"name": "Approval",
			"type": "event"
		},
		{
			"anonymous": false,
			"inputs": [
				{
					"indexed": true,
					"internalType": "address",
					"name": "owner",
					"type": "address"
				},
				{
					"indexed": true,
					"internalType": "address",
					"name": "operator",
					"type": "address"
				},
				{
					"indexed": false,
					"internalType": "bool",
					"name": "approved",
					"type": "bool"
				}
			],
			"name": "ApprovalForAll",
			"type": "event"
		},
		{
			"anonymous": false,
			"inputs": [
				{
					"indexed": true,
					"internalType": "address",
					"name": "delegator",
					"type": "address"
				},
				{
					"indexed": true,
					"internalType": "address",
					"name": "fromDelegate",
					"type": "address"
				},
				{
					"indexed": true,
					"internalType": "address",
					"name": "toDelegate",
					"type": "address"
				}
			],
			"name": "DelegateChanged",
			"type": "event"
		},
		{
			"anonymous": false,
			"inputs": [
				{
					"indexed": true,
					"internalType": "address",
					"name": "delegate",
					"type": "address"
				},
				{
					"indexed": false,
					"internalType": "uint256",
					"name": "previousBalance",
					"type": "uint256"
				},
				{
					"indexed": false,
					"internalType": "uint256",
					"name": "newBalance",
					"type": "uint256"
				}
			],
			"name": "DelegateVotesChanged",
			"type": "event"
		},
		{
			"anonymous": false,
			"inputs": [
				{
					"indexed": true,
					"internalType": "address",
					"name": "provider",
					"type": "address"
				},
				{
					"indexed": false,
					"internalType": "uint256",
					"name": "tokenId",
					"type": "uint256"
				},
				{
					"indexed": false,
					"internalType": "uint256",
					"name": "value",
					"type": "uint256"
				},
				{
					"indexed": true,
					"internalType": "uint256",
					"name": "locktime",
					"type": "uint256"
				},
				{
					"indexed": false,
					"internalType": "enum VotingEscrow.DepositType",
					"name": "deposit_type",
					"type": "uint8"
				},
				{
					"indexed": false,
					"internalType": "uint256",
					"name": "ts",
					"type": "uint256"
				}
			],
			"name": "Deposit",
			"type": "event"
		},
		{
			"anonymous": false,
			"inputs": [
				{
					"indexed": false,
					"internalType": "uint256",
					"name": "prevSupply",
					"type": "uint256"
				},
				{
					"indexed": false,
					"internalType": "uint256",
					"name": "supply",
					"type": "uint256"
				}
			],
			"name": "Supply",
			"type": "event"
		},
		{
			"anonymous": false,
			"inputs": [
				{
					"indexed": true,
					"internalType": "address",
					"name": "from",
					"type": "address"
				},
				{
					"indexed": true,
					"internalType": "address",
					"name": "to",
					"type": "address"
				},
				{
					"indexed": true,
					"internalType": "uint256",
					"name": "tokenId",
					"type": "uint256"
				}
			],
			"name": "Transfer",
			"type": "event"
		},
		{
			"anonymous": false,
			"inputs": [
				{
					"indexed": true,
					"internalType": "address",
					"name": "provider",
					"type": "address"
				},
				{
					"indexed": false,
					"internalType": "uint256",
					"name": "tokenId",
					"type": "uint256"
				},
				{
					"indexed": false,
					"internalType": "uint256",
					"name": "value",
					"type": "uint256"
				},
				{
					"indexed": false,
					"internalType": "uint256",
					"name": "ts",
					"type": "uint256"
				}
			],
			"name": "Withdraw",
			"type": "event"
		},
		{
			"inputs": [],
			"name": "DELEGATION_TYPEHASH",
			"outputs": [
				{
					"internalType": "bytes32",
					"name": "",
					"type": "bytes32"
				}
			],
			"stateMutability": "view",
			"type": "function"
		},
		{
			"inputs": [],
			"name": "DOMAIN_TYPEHASH",
			"outputs": [
				{
					"internalType": "bytes32",
					"name": "",
					"type": "bytes32"
				}
			],
			"stateMutability": "view",
			"type": "function"
		},
		{
			"inputs": [],
			"name": "MAX_DELEGATES",
			"outputs": [
				{
					"internalType": "uint256",
					"name": "",
					"type": "uint256"
				}
			],
			"stateMutability": "view",
			"type": "function"
		},
		{
			"inputs": [
				{
					"internalType": "uint256",
					"name": "_tokenId",
					"type": "uint256"
				}
			],
			"name": "abstain",
			"outputs": [],
			"stateMutability": "nonpayable",
			"type": "function"
		},
		{
			"inputs": [
				{
					"internalType": "address",
					"name": "_approved",
					"type": "address"
				},
				{
					"internalType": "uint256",
					"name": "_tokenId",
					"type": "uint256"
				}
			],
			"name": "approve",
			"outputs": [],
			"stateMutability": "nonpayable",
			"type": "function"
		},
		{
			"inputs": [],
			"name": "artProxy",
			"outputs": [
				{
					"internalType": "address",
					"name": "",
					"type": "address"
				}
			],
			"stateMutability": "view",
			"type": "function"
		},
		{
			"inputs": [
				{
					"internalType": "uint256",
					"name": "_tokenId",
					"type": "uint256"
				}
			],
			"name": "attach",
			"outputs": [],
			"stateMutability": "nonpayable",
			"type": "function"
		},
		{
			"inputs": [
				{
					"internalType": "uint256",
					"name": "",
					"type": "uint256"
				}
			],
			"name": "attachments",
			"outputs": [
				{
					"internalType": "uint256",
					"name": "",
					"type": "uint256"
				}
			],
			"stateMutability": "view",
			"type": "function"
		},
		{
			"inputs": [
				{
					"internalType": "address",
					"name": "_owner",
					"type": "address"
				}
			],
			"name": "balanceOf",
			"outputs": [
				{
					"internalType": "uint256",
					"name": "",
					"type": "uint256"
				}
			],
			"stateMutability": "view",
			"type": "function"
		},
		{
			"inputs": [
				{
					"internalType": "uint256",
					"name": "_tokenId",
					"type": "uint256"
				},
				{
					"internalType": "uint256",
					"name": "_block",
					"type": "uint256"
				}
			],
			"name": "balanceOfAtNFT",
			"outputs": [
				{
					"internalType": "uint256",
					"name": "",
					"type": "uint256"
				}
			],
			"stateMutability": "view",
			"type": "function"
		},
		{
			"inputs": [
				{
					"internalType": "uint256",
					"name": "_tokenId",
					"type": "uint256"
				}
			],
			"name": "balanceOfNFT",
			"outputs": [
				{
					"internalType": "uint256",
					"name": "",
					"type": "uint256"
				}
			],
			"stateMutability": "view",
			"type": "function"
		},
		{
			"inputs": [
				{
					"internalType": "uint256",
					"name": "_tokenId",
					"type": "uint256"
				},
				{
					"internalType": "uint256",
					"name": "_t",
					"type": "uint256"
				}
			],
			"name": "balanceOfNFTAt",
			"outputs": [
				{
					"internalType": "uint256",
					"name": "",
					"type": "uint256"
				}
			],
			"stateMutability": "view",
			"type": "function"
		},
		{
			"inputs": [],
			"name": "block_number",
			"outputs": [
				{
					"internalType": "uint256",
					"name": "",
					"type": "uint256"
				}
			],
			"stateMutability": "view",
			"type": "function"
		},
		{
			"inputs": [],
			"name": "checkpoint",
			"outputs": [],
			"stateMutability": "nonpayable",
			"type": "function"
		},
		{
			"inputs": [
				{
					"internalType": "address",
					"name": "",
					"type": "address"
				},
				{
					"internalType": "uint32",
					"name": "",
					"type": "uint32"
				}
			],
			"name": "checkpoints",
			"outputs": [
				{
					"internalType": "uint256",
					"name": "timestamp",
					"type": "uint256"
				}
			],
			"stateMutability": "view",
			"type": "function"
		},
		{
			"inputs": [
				{
					"internalType": "uint256",
					"name": "_value",
					"type": "uint256"
				},
				{
					"internalType": "uint256",
					"name": "_lock_duration",
					"type": "uint256"
				}
			],
			"name": "create_lock",
			"outputs": [
				{
					"internalType": "uint256",
					"name": "",
					"type": "uint256"
				}
			],
			"stateMutability": "nonpayable",
			"type": "function"
		},
		{
			"inputs": [
				{
					"internalType": "uint256",
					"name": "_value",
					"type": "uint256"
				},
				{
					"internalType": "uint256",
					"name": "_lock_duration",
					"type": "uint256"
				},
				{
					"internalType": "address",
					"name": "_to",
					"type": "address"
				}
			],
			"name": "create_lock_for",
			"outputs": [
				{
					"internalType": "uint256",
					"name": "",
					"type": "uint256"
				}
			],
			"stateMutability": "nonpayable",
			"type": "function"
		},
		{
			"inputs": [],
			"name": "decimals",
			"outputs": [
				{
					"internalType": "uint8",
					"name": "",
					"type": "uint8"
				}
			],
			"stateMutability": "view",
			"type": "function"
		},
		{
			"inputs": [
				{
					"internalType": "address",
					"name": "delegatee",
					"type": "address"
				}
			],
			"name": "delegate",
			"outputs": [],
			"stateMutability": "nonpayable",
			"type": "function"
		},
		{
			"inputs": [
				{
					"internalType": "address",
					"name": "delegatee",
					"type": "address"
				},
				{
					"internalType": "uint256",
					"name": "nonce",
					"type": "uint256"
				},
				{
					"internalType": "uint256",
					"name": "expiry",
					"type": "uint256"
				},
				{
					"internalType": "uint8",
					"name": "v",
					"type": "uint8"
				},
				{
					"internalType": "bytes32",
					"name": "r",
					"type": "bytes32"
				},
				{
					"internalType": "bytes32",
					"name": "s",
					"type": "bytes32"
				}
			],
			"name": "delegateBySig",
			"outputs": [],
			"stateMutability": "nonpayable",
			"type": "function"
		},
		{
			"inputs": [
				{
					"internalType": "address",
					"name": "delegator",
					"type": "address"
				}
			],
			"name": "delegates",
			"outputs": [
				{
					"internalType": "address",
					"name": "",
					"type": "address"
				}
			],
			"stateMutability": "view",
			"type": "function"
		},
		{
			"inputs": [
				{
					"internalType": "uint256",
					"name": "_tokenId",
					"type": "uint256"
				},
				{
					"internalType": "uint256",
					"name": "_value",
					"type": "uint256"
				}
			],
			"name": "deposit_for",
			"outputs": [],
			"stateMutability": "nonpayable",
			"type": "function"
		},
		{
			"inputs": [
				{
					"internalType": "uint256",
					"name": "_tokenId",
					"type": "uint256"
				}
			],
			"name": "detach",
			"outputs": [],
			"stateMutability": "nonpayable",
			"type": "function"
		},
		{
			"inputs": [],
			"name": "epoch",
			"outputs": [
				{
					"internalType": "uint256",
					"name": "",
					"type": "uint256"
				}
			],
			"stateMutability": "view",
			"type": "function"
		},
		{
			"inputs": [
				{
					"internalType": "uint256",
					"name": "_tokenId",
					"type": "uint256"
				}
			],
			"name": "getApproved",
			"outputs": [
				{
					"internalType": "address",
					"name": "",
					"type": "address"
				}
			],
			"stateMutability": "view",
			"type": "function"
		},
		{
			"inputs": [
				{
					"internalType": "uint256",
					"name": "timestamp",
					"type": "uint256"
				}
			],
			"name": "getPastTotalSupply",
			"outputs": [
				{
					"internalType": "uint256",
					"name": "",
					"type": "uint256"
				}
			],
			"stateMutability": "view",
			"type": "function"
		},
		{
			"inputs": [
				{
					"internalType": "address",
					"name": "account",
					"type": "address"
				},
				{
					"internalType": "uint256",
					"name": "timestamp",
					"type": "uint256"
				}
			],
			"name": "getPastVotes",
			"outputs": [
				{
					"internalType": "uint256",
					"name": "",
					"type": "uint256"
				}
			],
			"stateMutability": "view",
			"type": "function"
		},
		{
			"inputs": [
				{
					"internalType": "address",
					"name": "account",
					"type": "address"
				},
				{
					"internalType": "uint256",
					"name": "timestamp",
					"type": "uint256"
				}
			],
			"name": "getPastVotesIndex",
			"outputs": [
				{
					"internalType": "uint32",
					"name": "",
					"type": "uint32"
				}
			],
			"stateMutability": "view",
			"type": "function"
		},
		{
			"inputs": [
				{
					"internalType": "address",
					"name": "account",
					"type": "address"
				}
			],
			"name": "getVotes",
			"outputs": [
				{
					"internalType": "uint256",
					"name": "",
					"type": "uint256"
				}
			],
			"stateMutability": "view",
			"type": "function"
		},
		{
			"inputs": [
				{
					"internalType": "uint256",
					"name": "_tokenId",
					"type": "uint256"
				}
			],
			"name": "get_last_user_slope",
			"outputs": [
				{
					"internalType": "int128",
					"name": "",
					"type": "int128"
				}
			],
			"stateMutability": "view",
			"type": "function"
		},
		{
			"inputs": [
				{
					"internalType": "uint256",
					"name": "_tokenId",
					"type": "uint256"
				},
				{
					"internalType": "uint256",
					"name": "_value",
					"type": "uint256"
				}
			],
			"name": "increase_amount",
			"outputs": [],
			"stateMutability": "nonpayable",
			"type": "function"
		},
		{
			"inputs": [
				{
					"internalType": "uint256",
					"name": "_tokenId",
					"type": "uint256"
				},
				{
					"internalType": "uint256",
					"name": "_lock_duration",
					"type": "uint256"
				}
			],
			"name": "increase_unlock_time",
			"outputs": [],
			"stateMutability": "nonpayable",
			"type": "function"
		},
		{
			"inputs": [
				{
					"internalType": "address",
					"name": "_owner",
					"type": "address"
				},
				{
					"internalType": "address",
					"name": "_operator",
					"type": "address"
				}
			],
			"name": "isApprovedForAll",
			"outputs": [
				{
					"internalType": "bool",
					"name": "",
					"type": "bool"
				}
			],
			"stateMutability": "view",
			"type": "function"
		},
		{
			"inputs": [
				{
					"internalType": "address",
					"name": "_spender",
					"type": "address"
				},
				{
					"internalType": "uint256",
					"name": "_tokenId",
					"type": "uint256"
				}
			],
			"name": "isApprovedOrOwner",
			"outputs": [
				{
					"internalType": "bool",
					"name": "",
					"type": "bool"
				}
			],
			"stateMutability": "view",
			"type": "function"
		},
		{
			"inputs": [
				{
					"internalType": "uint256",
					"name": "",
					"type": "uint256"
				}
			],
			"name": "locked",
			"outputs": [
				{
					"internalType": "int128",
					"name": "amount",
					"type": "int128"
				},
				{
					"internalType": "uint256",
					"name": "end",
					"type": "uint256"
				}
			],
			"stateMutability": "view",
			"type": "function"
		},
		{
			"inputs": [
				{
					"internalType": "uint256",
					"name": "_tokenId",
					"type": "uint256"
				}
			],
			"name": "locked__end",
			"outputs": [
				{
					"internalType": "uint256",
					"name": "",
					"type": "uint256"
				}
			],
			"stateMutability": "view",
			"type": "function"
		},
		{
			"inputs": [
				{
					"internalType": "uint256",
					"name": "_from",
					"type": "uint256"
				},
				{
					"internalType": "uint256",
					"name": "_to",
					"type": "uint256"
				}
			],
			"name": "merge",
			"outputs": [],
			"stateMutability": "nonpayable",
			"type": "function"
		},
		{
			"inputs": [],
			"name": "name",
			"outputs": [
				{
					"internalType": "string",
					"name": "",
					"type": "string"
				}
			],
			"stateMutability": "view",
			"type": "function"
		},
		{
			"inputs": [
				{
					"internalType": "address",
					"name": "",
					"type": "address"
				}
			],
			"name": "nonces",
			"outputs": [
				{
					"internalType": "uint256",
					"name": "",
					"type": "uint256"
				}
			],
			"stateMutability": "view",
			"type": "function"
		},
		{
			"inputs": [
				{
					"internalType": "address",
					"name": "",
					"type": "address"
				}
			],
			"name": "numCheckpoints",
			"outputs": [
				{
					"internalType": "uint32",
					"name": "",
					"type": "uint32"
				}
			],
			"stateMutability": "view",
			"type": "function"
		},
		{
			"inputs": [
				{
					"internalType": "uint256",
					"name": "_tokenId",
					"type": "uint256"
				}
			],
			"name": "ownerOf",
			"outputs": [
				{
					"internalType": "address",
					"name": "",
					"type": "address"
				}
			],
			"stateMutability": "view",
			"type": "function"
		},
		{
			"inputs": [
				{
					"internalType": "uint256",
					"name": "",
					"type": "uint256"
				}
			],
			"name": "ownership_change",
			"outputs": [
				{
					"internalType": "uint256",
					"name": "",
					"type": "uint256"
				}
			],
			"stateMutability": "view",
			"type": "function"
		},
		{
			"inputs": [
				{
					"internalType": "uint256",
					"name": "",
					"type": "uint256"
				}
			],
			"name": "point_history",
			"outputs": [
				{
					"internalType": "int128",
					"name": "bias",
					"type": "int128"
				},
				{
					"internalType": "int128",
					"name": "slope",
					"type": "int128"
				},
				{
					"internalType": "uint256",
					"name": "ts",
					"type": "uint256"
				},
				{
					"internalType": "uint256",
					"name": "blk",
					"type": "uint256"
				}
			],
			"stateMutability": "view",
			"type": "function"
		},
		{
			"inputs": [
				{
					"internalType": "address",
					"name": "_from",
					"type": "address"
				},
				{
					"internalType": "address",
					"name": "_to",
					"type": "address"
				},
				{
					"internalType": "uint256",
					"name": "_tokenId",
					"type": "uint256"
				}
			],
			"name": "safeTransferFrom",
			"outputs": [],
			"stateMutability": "nonpayable",
			"type": "function"
		},
		{
			"inputs": [
				{
					"internalType": "address",
					"name": "_from",
					"type": "address"
				},
				{
					"internalType": "address",
					"name": "_to",
					"type": "address"
				},
				{
					"internalType": "uint256",
					"name": "_tokenId",
					"type": "uint256"
				},
				{
					"internalType": "bytes",
					"name": "_data",
					"type": "bytes"
				}
			],
			"name": "safeTransferFrom",
			"outputs": [],
			"stateMutability": "nonpayable",
			"type": "function"
		},
		{
			"inputs": [
				{
					"internalType": "address",
					"name": "_operator",
					"type": "address"
				},
				{
					"internalType": "bool",
					"name": "_approved",
					"type": "bool"
				}
			],
			"name": "setApprovalForAll",
			"outputs": [],
			"stateMutability": "nonpayable",
			"type": "function"
		},
		{
			"inputs": [
				{
					"internalType": "address",
					"name": "_proxy",
					"type": "address"
				}
			],
			"name": "setArtProxy",
			"outputs": [],
			"stateMutability": "nonpayable",
			"type": "function"
		},
		{
			"inputs": [
				{
					"internalType": "address",
					"name": "_team",
					"type": "address"
				}
			],
			"name": "setTeam",
			"outputs": [],
			"stateMutability": "nonpayable",
			"type": "function"
		},
		{
			"inputs": [
				{
					"internalType": "address",
					"name": "_voter",
					"type": "address"
				}
			],
			"name": "setVoter",
			"outputs": [],
			"stateMutability": "nonpayable",
			"type": "function"
		},
		{
			"inputs": [
				{
					"internalType": "uint256",
					"name": "",
					"type": "uint256"
				}
			],
			"name": "slope_changes",
			"outputs": [
				{
					"internalType": "int128",
					"name": "",
					"type": "int128"
				}
			],
			"stateMutability": "view",
			"type": "function"
		},
		{
			"inputs": [
				{
					"internalType": "uint256[]",
					"name": "amounts",
					"type": "uint256[]"
				},
				{
					"internalType": "uint256",
					"name": "_tokenId",
					"type": "uint256"
				}
			],
			"name": "split",
			"outputs": [],
			"stateMutability": "nonpayable",
			"type": "function"
		},
		{
			"inputs": [],
			"name": "supply",
			"outputs": [
				{
					"internalType": "uint256",
					"name": "",
					"type": "uint256"
				}
			],
			"stateMutability": "view",
			"type": "function"
		},
		{
			"inputs": [
				{
					"internalType": "bytes4",
					"name": "_interfaceID",
					"type": "bytes4"
				}
			],
			"name": "supportsInterface",
			"outputs": [
				{
					"internalType": "bool",
					"name": "",
					"type": "bool"
				}
			],
			"stateMutability": "view",
			"type": "function"
		},
		{
			"inputs": [],
			"name": "symbol",
			"outputs": [
				{
					"internalType": "string",
					"name": "",
					"type": "string"
				}
			],
			"stateMutability": "view",
			"type": "function"
		},
		{
			"inputs": [],
			"name": "team",
			"outputs": [
				{
					"internalType": "address",
					"name": "",
					"type": "address"
				}
			],
			"stateMutability": "view",
			"type": "function"
		},
		{
			"inputs": [],
			"name": "token",
			"outputs": [
				{
					"internalType": "address",
					"name": "",
					"type": "address"
				}
			],
			"stateMutability": "view",
			"type": "function"
		},
		{
			"inputs": [
				{
					"internalType": "address",
					"name": "_owner",
					"type": "address"
				},
				{
					"internalType": "uint256",
					"name": "_tokenIndex",
					"type": "uint256"
				}
			],
			"name": "tokenOfOwnerByIndex",
			"outputs": [
				{
					"internalType": "uint256",
					"name": "",
					"type": "uint256"
				}
			],
			"stateMutability": "view",
			"type": "function"
		},
		{
			"inputs": [
				{
					"internalType": "uint256",
					"name": "_tokenId",
					"type": "uint256"
				}
			],
			"name": "tokenURI",
			"outputs": [
				{
					"internalType": "string",
					"name": "",
					"type": "string"
				}
			],
			"stateMutability": "view",
			"type": "function"
		},
		{
			"inputs": [],
			"name": "totalSupply",
			"outputs": [
				{
					"internalType": "uint256",
					"name": "",
					"type": "uint256"
				}
			],
			"stateMutability": "view",
			"type": "function"
		},
		{
			"inputs": [
				{
					"internalType": "uint256",
					"name": "_block",
					"type": "uint256"
				}
			],
			"name": "totalSupplyAt",
			"outputs": [
				{
					"internalType": "uint256",
					"name": "",
					"type": "uint256"
				}
			],
			"stateMutability": "view",
			"type": "function"
		},
		{
			"inputs": [
				{
					"internalType": "uint256",
					"name": "t",
					"type": "uint256"
				}
			],
			"name": "totalSupplyAtT",
			"outputs": [
				{
					"internalType": "uint256",
					"name": "",
					"type": "uint256"
				}
			],
			"stateMutability": "view",
			"type": "function"
		},
		{
			"inputs": [
				{
					"internalType": "address",
					"name": "_from",
					"type": "address"
				},
				{
					"internalType": "address",
					"name": "_to",
					"type": "address"
				},
				{
					"internalType": "uint256",
					"name": "_tokenId",
					"type": "uint256"
				}
			],
			"name": "transferFrom",
			"outputs": [],
			"stateMutability": "nonpayable",
			"type": "function"
		},
		{
			"inputs": [
				{
					"internalType": "uint256",
					"name": "",
					"type": "uint256"
				}
			],
			"name": "user_point_epoch",
			"outputs": [
				{
					"internalType": "uint256",
					"name": "",
					"type": "uint256"
				}
			],
			"stateMutability": "view",
			"type": "function"
		},
		{
			"inputs": [
				{
					"internalType": "uint256",
					"name": "",
					"type": "uint256"
				},
				{
					"internalType": "uint256",
					"name": "",
					"type": "uint256"
				}
			],
			"name": "user_point_history",
			"outputs": [
				{
					"internalType": "int128",
					"name": "bias",
					"type": "int128"
				},
				{
					"internalType": "int128",
					"name": "slope",
					"type": "int128"
				},
				{
					"internalType": "uint256",
					"name": "ts",
					"type": "uint256"
				},
				{
					"internalType": "uint256",
					"name": "blk",
					"type": "uint256"
				}
			],
			"stateMutability": "view",
			"type": "function"
		},
		{
			"inputs": [
				{
					"internalType": "uint256",
					"name": "_tokenId",
					"type": "uint256"
				},
				{
					"internalType": "uint256",
					"name": "_idx",
					"type": "uint256"
				}
			],
			"name": "user_point_history__ts",
			"outputs": [
				{
					"internalType": "uint256",
					"name": "",
					"type": "uint256"
				}
			],
			"stateMutability": "view",
			"type": "function"
		},
		{
			"inputs": [],
			"name": "version",
			"outputs": [
				{
					"internalType": "string",
					"name": "",
					"type": "string"
				}
			],
			"stateMutability": "view",
			"type": "function"
		},
		{
			"inputs": [
				{
					"internalType": "uint256",
					"name": "",
					"type": "uint256"
				}
			],
			"name": "voted",
			"outputs": [
				{
					"internalType": "bool",
					"name": "",
					"type": "bool"
				}
			],
			"stateMutability": "view",
			"type": "function"
		},
		{
			"inputs": [],
			"name": "voter",
			"outputs": [
				{
					"internalType": "address",
					"name": "",
					"type": "address"
				}
			],
			"stateMutability": "view",
			"type": "function"
		},
		{
			"inputs": [
				{
					"internalType": "uint256",
					"name": "_tokenId",
					"type": "uint256"
				}
			],
			"name": "voting",
			"outputs": [],
			"stateMutability": "nonpayable",
			"type": "function"
		},
		{
			"inputs": [
				{
					"internalType": "uint256",
					"name": "_tokenId",
					"type": "uint256"
				}
			],
			"name": "withdraw",
			"outputs": [],
			"stateMutability": "nonpayable",
			"type": "function"
		}
	]
}