{
  "_format": "hh-sol-artifact-1",
  "contractName": "RewardsDistributor",
  "sourceName": "contracts/RewardsDistributor.sol",
  "abi": [
    {
      "inputs": [
        {
          "internalType": "address",
          "name": "_votingEscrow",
          "type": "address"
        }
      ],
      "stateMutability": "nonpayable",
      "type": "constructor"
    },
    {
      "anonymous": false,
      "inputs": [
        {
          "indexed": false,
          "internalType": "uint256",
          "name": "time",
          "type": "uint256"
        },
        {
          "indexed": false,
          "internalType": "uint256",
          "name": "tokens",
          "type": "uint256"
        }
      ],
      "name": "CheckpointToken",
      "type": "event"
    },
    {
      "anonymous": false,
      "inputs": [
        {
          "indexed": false,
          "internalType": "uint256",
          "name": "tokenId",
          "type": "uint256"
        },
        {
          "indexed": false,
          "internalType": "uint256",
          "name": "amount",
          "type": "uint256"
        },
        {
          "indexed": false,
          "internalType": "uint256",
          "name": "claimEpoch",
          "type": "uint256"
        },
        {
          "indexed": false,
          "internalType": "uint256",
          "name": "maxEpoch",
          "type": "uint256"
        }
      ],
      "name": "Claimed",
      "type": "event"
    },
    {
      "inputs": [],
      "name": "checkPointToken",
      "outputs": [],
      "stateMutability": "nonpayable",
      "type": "function"
    },
    {
      "inputs": [],
      "name": "checkPointTotalSupply",
      "outputs": [],
      "stateMutability": "nonpayable",
      "type": "function"
    },
    {
      "inputs": [
        {
          "internalType": "uint256",
          "name": "_tokenId",
          "type": "uint256"
        }
      ],
      "name": "claim",
      "outputs": [
        {
          "internalType": "uint256",
          "name": "",
          "type": "uint256"
        }
      ],
      "stateMutability": "nonpayable",
      "type": "function"
    },
    {
      "inputs": [
        {
          "internalType": "uint256[]",
          "name": "_tokenIds",
          "type": "uint256[]"
        }
      ],
      "name": "claimMany",
      "outputs": [
        {
          "internalType": "bool",
          "name": "",
          "type": "bool"
        }
      ],
      "stateMutability": "nonpayable",
      "type": "function"
    },
    {
      "inputs": [
        {
          "internalType": "uint256",
          "name": "_tokenId",
          "type": "uint256"
        }
      ],
      "name": "claimable",
      "outputs": [
        {
          "internalType": "uint256",
          "name": "",
          "type": "uint256"
        }
      ],
      "stateMutability": "view",
      "type": "function"
    },
    {
      "inputs": [],
      "name": "depositor",
      "outputs": [
        {
          "internalType": "address",
          "name": "",
          "type": "address"
        }
      ],
      "stateMutability": "view",
      "type": "function"
    },
    {
      "inputs": [],
      "name": "lastTokenTime",
      "outputs": [
        {
          "internalType": "uint256",
          "name": "",
          "type": "uint256"
        }
      ],
      "stateMutability": "view",
      "type": "function"
    },
    {
      "inputs": [],
      "name": "owner",
      "outputs": [
        {
          "internalType": "address",
          "name": "",
          "type": "address"
        }
      ],
      "stateMutability": "view",
      "type": "function"
    },
    {
      "inputs": [
        {
          "internalType": "address",
          "name": "_depositor",
          "type": "address"
        }
      ],
      "name": "setDepositor",
      "outputs": [],
      "stateMutability": "nonpayable",
      "type": "function"
    },
    {
      "inputs": [
        {
          "internalType": "address",
          "name": "_owner",
          "type": "address"
        }
      ],
      "name": "setOwner",
      "outputs": [],
      "stateMutability": "nonpayable",
      "type": "function"
    },
    {
      "inputs": [],
      "name": "startTime",
      "outputs": [
        {
          "internalType": "uint256",
          "name": "",
          "type": "uint256"
        }
      ],
      "stateMutability": "view",
      "type": "function"
    },
    {
      "inputs": [],
      "name": "timeCursor",
      "outputs": [
        {
          "internalType": "uint256",
          "name": "",
          "type": "uint256"
        }
      ],
      "stateMutability": "view",
      "type": "function"
    },
    {
      "inputs": [
        {
          "internalType": "uint256",
          "name": "",
          "type": "uint256"
        }
      ],
      "name": "timeCursorOf",
      "outputs": [
        {
          "internalType": "uint256",
          "name": "",
          "type": "uint256"
        }
      ],
      "stateMutability": "view",
      "type": "function"
    },
    {
      "inputs": [],
      "name": "timestamp",
      "outputs": [
        {
          "internalType": "uint256",
          "name": "",
          "type": "uint256"
        }
      ],
      "stateMutability": "view",
      "type": "function"
    },
    {
      "inputs": [],
      "name": "token",
      "outputs": [
        {
          "internalType": "address",
          "name": "",
          "type": "address"
        }
      ],
      "stateMutability": "view",
      "type": "function"
    },
    {
      "inputs": [],
      "name": "tokenLastBalance",
      "outputs": [
        {
          "internalType": "uint256",
          "name": "",
          "type": "uint256"
        }
      ],
      "stateMutability": "view",
      "type": "function"
    },
    {
      "inputs": [
        {
          "internalType": "uint256",
          "name": "",
          "type": "uint256"
        }
      ],
      "name": "tokensPerWeek",
      "outputs": [
        {
          "internalType": "uint256",
          "name": "",
          "type": "uint256"
        }
      ],
      "stateMutability": "view",
      "type": "function"
    },
    {
      "inputs": [
        {
          "internalType": "uint256",
          "name": "",
          "type": "uint256"
        }
      ],
      "name": "userEpochOf",
      "outputs": [
        {
          "internalType": "uint256",
          "name": "",
          "type": "uint256"
        }
      ],
      "stateMutability": "view",
      "type": "function"
    },
    {
      "inputs": [
        {
          "internalType": "uint256",
          "name": "",
          "type": "uint256"
        }
      ],
      "name": "veSupply",
      "outputs": [
        {
          "internalType": "uint256",
          "name": "",
          "type": "uint256"
        }
      ],
      "stateMutability": "view",
      "type": "function"
    },
    {
      "inputs": [
        {
          "internalType": "uint256",
          "name": "_tokenId",
          "type": "uint256"
        },
        {
          "internalType": "uint256",
          "name": "_timestamp",
          "type": "uint256"
        }
      ],
      "name": "ve_for_at",
      "outputs": [
        {
          "internalType": "uint256",
          "name": "",
          "type": "uint256"
        }
      ],
      "stateMutability": "view",
      "type": "function"
    },
    {
      "inputs": [],
      "name": "votingEscrow",
      "outputs": [
        {
          "internalType": "address",
          "name": "",
          "type": "address"
        }
      ],
      "stateMutability": "view",
      "type": "function"
    },
    {
      "inputs": [
        {
          "internalType": "address",
          "name": "_token",
          "type": "address"
        }
      ],
      "name": "withdrawERC20",
      "outputs": [],
      "stateMutability": "nonpayable",
      "type": "function"
    }
  ],
  "bytecode": "0x60806040523480156200001157600080fd5b50604051620020f4380380620020f48339810160408190526200003491620001b1565b600062093a80620000468142620001e3565b62000052919062000206565b90508060008190555080600481905550806001819055506000826001600160a01b031663fc0c546a6040518163ffffffff1660e01b8152600401602060405180830381865afa158015620000aa573d6000803e3d6000fd5b505050506040513d601f19601f82011682018060405250810190620000d09190620001b1565b66071afd498d000880546001600160a01b03199081166001600160a01b0384811691821790935566071afd498d000780548316938816938417905566071afd498d0009805433908416811790915566071afd498d000680549093161790915560405163095ea7b360e01b81526004810192909252600019602483015291925063095ea7b3906044016020604051808303816000875af115801562000178573d6000803e3d6000fd5b505050506040513d601f19601f820116820180604052508101906200019e919062000234565b620001a857600080fd5b50505062000258565b600060208284031215620001c457600080fd5b81516001600160a01b0381168114620001dc57600080fd5b9392505050565b6000826200020157634e487b7160e01b600052601260045260246000fd5b500490565b60008160001904831182151516156200022f57634e487b7160e01b600052601160045260246000fd5b500290565b6000602082840312156200024757600080fd5b81518015158114620001dc57600080fd5b611e8c80620002686000396000f3fe608060405234801561001057600080fd5b50600436106101425760003560e01c80638da5cb5b116100b8578063c7c4ff461161007c578063c7c4ff461461028a578063d1d58b25146102a3578063e32890c4146102b6578063f2c098b7146102d6578063f4f3b200146102e9578063fc0c546a146102fc57600080fd5b80638da5cb5b1461022e5780638ec8468a14610247578063925489a814610256578063939ea66b14610279578063b80777ea1461028257600080fd5b80634f2bfe5b1161010a5780634f2bfe5b146101bd5780635932b023146101ee57806368809889146101f657806378e97925146102095780638736659b14610212578063899519be1461021b57600080fd5b80630f6592ef1461014757806313af40351461016d578063379607f5146101825780633a2fc086146101955780634607bf601461019d575b600080fd5b61015a610155366004611a08565b610315565b6040519081526020015b60405180910390f35b61018061017b366004611a39565b610338565b005b61015a610190366004611a08565b61037d565b6101806105e4565b61015a6101ab366004611a08565b60026020526000908152604090205481565b66071afd498d0007546101d6906001600160a01b031681565b6040516001600160a01b039091168152602001610164565b6101806105ee565b61015a610204366004611a56565b610616565b61015a60005481565b61015a60015481565b61015a610229366004611a08565b610759565b66071afd498d0006546101d6906001600160a01b031681565b61015a66038d7ea4c680055481565b610269610264366004611abf565b61076f565b6040519015158152602001610164565b61015a60045481565b61015a610a20565b66071afd498d0009546101d6906001600160a01b031681565b61015a6102b1366004611a08565b610a3f565b61015a6102c4366004611a08565b60036020526000908152604090205481565b6101806102e4366004611a39565b610a7f565b6101806102f7366004611a39565b610ac4565b66071afd498d0008546101d6906001600160a01b031681565b66038d7ea4c680068166038d7ea4c68000811061033157600080fd5b0154905081565b66071afd498d0006546001600160a01b0316331461035557600080fd5b66071afd498d000680546001600160a01b0319166001600160a01b0392909216919091179055565b6000600154421061039057610390610bd8565b60045462093a806103a18183611b7b565b6103ab9190611b9d565b66071afd498d0007549091506000906103cf9085906001600160a01b031684610d7b565b905080156105dd5766071afd498d000754604051635a2d1e0760e11b8152600481018690526000916001600160a01b03169063b45a3c0e906024016040805180830381865afa158015610426573d6000803e3d6000fd5b505050506040513d601f19601f8201168201806040525081019061044a9190611bd3565b905042816020015110156105525766071afd498d0007546040516331a9108f60e11b8152600481018790526000916001600160a01b031690636352211e90602401602060405180830381865afa1580156104a8573d6000803e3d6000fd5b505050506040513d601f19601f820116820180604052508101906104cc9190611c2a565b66071afd498d00085460405163a9059cbb60e01b81526001600160a01b0380841660048301526024820187905292935091169063a9059cbb906044016020604051808303816000875af1158015610527573d6000803e3d6000fd5b505050506040513d601f19601f8201168201806040525081019061054b9190611c47565b50506105be565b66071afd498d00075460405163076426ed60e11b815260048101879052602481018490526001600160a01b0390911690630ec84dda90604401600060405180830381600087803b1580156105a557600080fd5b505af11580156105b9573d6000803e3d6000fd5b505050505b8166038d7ea4c6800560008282546105d69190611c69565b9091555050505b9392505050565b6105ec610bd8565b565b66071afd498d0009546001600160a01b0316331461060e5761060e611c80565b6105ec61119f565b66071afd498d00075460405163e58f594760e01b8152600481018490526000916001600160a01b0316908290829063e58f594790602401602060405180830381865afa15801561066a573d6000803e3d6000fd5b505050506040513d601f19601f8201168201806040525081019061068e9190611c96565b9050600061069e838787856113fc565b6040516322565a1560e11b815260048101889052602481018290529091506000906001600160a01b038516906344acb42a90604401608060405180830381865afa1580156106f0573d6000803e3d6000fd5b505050506040513d601f19601f820116820180604052508101906107149190611caf565b905061074e8160400151876107299190611c69565b82602001516107389190611d21565b82516107449190611dbf565b600f0b60006114f0565b979650505050505050565b60058166038d7ea4c68000811061033157600080fd5b6000600154421061078257610782610bd8565b60045462093a806107938183611b7b565b61079d9190611b9d565b66071afd498d0007549091506001600160a01b03166000805b85518110156109f05760008682815181106107d3576107d3611e0f565b60200260200101519050806000036107eb57506109f0565b60006107f8828688610d7b565b905080156109db57604051635a2d1e0760e11b8152600481018390526000906001600160a01b0387169063b45a3c0e906024016040805180830381865afa158015610847573d6000803e3d6000fd5b505050506040513d601f19601f8201168201806040525081019061086b9190611bd3565b9050428160200151101561096b576040516331a9108f60e11b8152600481018490526000906001600160a01b03881690636352211e90602401602060405180830381865afa1580156108c1573d6000803e3d6000fd5b505050506040513d601f19601f820116820180604052508101906108e59190611c2a565b66071afd498d00085460405163a9059cbb60e01b81526001600160a01b0380841660048301526024820187905292935091169063a9059cbb906044016020604051808303816000875af1158015610940573d6000803e3d6000fd5b505050506040513d601f19601f820116820180604052508101906109649190611c47565b50506109cd565b60405163076426ed60e11b815260048101849052602481018390526001600160a01b03871690630ec84dda90604401600060405180830381600087803b1580156109b457600080fd5b505af11580156109c8573d6000803e3d6000fd5b505050505b6109d78286611e25565b9450505b505080806109e890611e3d565b9150506107b6565b508015610a15578066038d7ea4c680056000828254610a0f9190611c69565b90915550505b506001949350505050565b600062093a80610a308142611b7b565b610a3a9190611b9d565b905090565b60008062093a8080600454610a549190611b7b565b610a5e9190611b9d565b66071afd498d0007549091506105dd9084906001600160a01b031683611507565b66071afd498d0006546001600160a01b03163314610a9c57600080fd5b66071afd498d000980546001600160a01b0319166001600160a01b0392909216919091179055565b66071afd498d0006546001600160a01b03163314610ae157600080fd5b6001600160a01b038116610af457600080fd5b6040516370a0823160e01b81523060048201526000906001600160a01b038316906370a0823190602401602060405180830381865afa158015610b3b573d6000803e3d6000fd5b505050506040513d601f19601f82011682018060405250810190610b5f9190611c96565b60405163a9059cbb60e01b8152336004820152602481018290529091506001600160a01b0383169063a9059cbb906044016020604051808303816000875af1158015610baf573d6000803e3d6000fd5b505050506040513d601f19601f82011682018060405250810190610bd39190611c47565b505050565b66071afd498d0007546001546001600160a01b0390911690600062093a80610c008142611b7b565b610c0a9190611b9d565b9050826001600160a01b031663c2c4c5c16040518163ffffffff1660e01b8152600401600060405180830381600087803b158015610c4757600080fd5b505af1158015610c5b573d6000803e3d6000fd5b5050505060005b6014811015610d7357818311610d73576000610c7e85856118a4565b604051638ad4c44760e01b8152600481018290529091506000906001600160a01b03871690638ad4c44790602401608060405180830381865afa158015610cc9573d6000803e3d6000fd5b505050506040513d601f19601f82011682018060405250810190610ced9190611caf565b905060008160400151861115610d0f576040820151610d0c9087611c69565b90505b610d2e818360200151610d229190611d21565b83516107449190611dbf565b66038d7ea4c680068766038d7ea4c680008110610d4d57610d4d611e0f565b0155505050610d5f62093a8084611e25565b925080610d6b81611e3d565b915050610c62565b505060015550565b60405163e58f594760e01b8152600481018490526000908190819081906001600160a01b0387169063e58f594790602401602060405180830381865afa158015610dc9573d6000803e3d6000fd5b505050506040513d601f19601f82011682018060405250810190610ded9190611c96565b60008054919250829003610e085760009450505050506105dd565b60008881526002602052604081205490819003610e3257610e2b888a84866113fc565b9450610e44565b60008981526003602052604090205494505b84600003610e5157600194505b6040516322565a1560e11b8152600481018a9052602481018690526000906001600160a01b038a16906344acb42a90604401608060405180830381865afa158015610ea0573d6000803e3d6000fd5b505050506040513d601f19601f82011682018060405250810190610ec49190611caf565b905081600003610f095762093a8080600162093a808460400151610ee89190611e25565b610ef29190611c69565b610efc9190611b7b565b610f069190611b9d565b91505b6004548210610f2157600096505050505050506105dd565b82821015610f2d578291505b6040805160808101825260008082526020820181905291810182905260608101829052905b603281101561111457898410156111145782604001518410158015610f775750858811155b1561103d57610f87600189611e25565b975082915085881115610fc65760405180608001604052806000600f0b81526020016000600f0b81526020016000815260200160008152509250611102565b6040516322565a1560e11b8152600481018d9052602481018990526001600160a01b038c16906344acb42a90604401608060405180830381865afa158015611012573d6000803e3d6000fd5b505050506040513d601f19601f820116820180604052508101906110369190611caf565b9250611102565b600082604001518561104f9190611c69565b905060006110728460200151836110669190611d21565b85516107449190611dbf565b9050801580156110815750878a115b1561108d575050611114565b80156110f05766038d7ea4c680068666038d7ea4c6800081106110b2576110b2611e0f565b015460058766038d7ea4c6800081106110cd576110cd611e0f565b01546110d99083611b9d565b6110e39190611b7b565b6110ed908a611e25565b98505b6110fd62093a8087611e25565b955050505b8061110c81611e3d565b915050610f52565b506111298561112460018a611c69565b6119f9565b60008c8152600360209081526040808320849055600282529182902086905581518e8152908101899052908101829052606081018790529097507fcae2990aa9af8eb1c64713b7eddb3a80bf18e49a94a13fe0d0002b5d61d58f009060800160405180910390a150939998505050505050505050565b66071afd498d0008546040516370a0823160e01b81523060048201526000916001600160a01b0316906370a0823190602401602060405180830381865afa1580156111ee573d6000803e3d6000fd5b505050506040513d601f19601f820116820180604052508101906112129190611c96565b9050600066038d7ea4c68005548261122a9190611c69565b66038d7ea4c6800583905560045490915060006112478242611c69565b426004559050600062093a8061125d8185611b7b565b6112679190611b9d565b90506000805b60148110156113ba5761128362093a8084611e25565b91508142101561130c578315801561129a57508442145b156112d4578560058466038d7ea4c6800081106112b9576112b9611e0f565b0160008282546112c99190611e25565b909155506113ba9050565b836112df8642611c69565b6112e99088611b9d565b6112f39190611b7b565b60058466038d7ea4c6800081106112b9576112b9611e0f565b8315801561131957508482145b15611353578560058466038d7ea4c68000811061133857611338611e0f565b0160008282546113489190611e25565b909155506113a19050565b8361135e8684611c69565b6113689088611b9d565b6113729190611b7b565b60058466038d7ea4c68000811061138b5761138b611e0f565b01600082825461139b9190611e25565b90915550505b81945081925080806113b290611e3d565b91505061126d565b5060408051428152602081018790527fce749457b74e10f393f2c6b1ce4261b78791376db5a3f501477a809f03f500d6910160405180910390a1505050505050565b60008082815b60808110156114e457818310156114e457600060026114218486611e25565b61142c906002611e25565b6114369190611b7b565b6040516322565a1560e11b8152600481018a9052602481018290529091506000906001600160a01b038b16906344acb42a90604401608060405180830381865afa158015611488573d6000803e3d6000fd5b505050506040513d601f19601f820116820180604052508101906114ac9190611caf565b9050878160400151116114c1578194506114cf565b6114cc600183611c69565b93505b505080806114dc90611e3d565b915050611402565b50909695505050505050565b60008183101561150057816105dd565b5090919050565b60405163e58f594760e01b8152600481018490526000908190819081906001600160a01b0387169063e58f594790602401602060405180830381865afa158015611555573d6000803e3d6000fd5b505050506040513d601f19601f820116820180604052508101906115799190611c96565b600080549192508290036115945760009450505050506105dd565b600088815260026020526040812054908190036115be576115b7888a84866113fc565b94506115d0565b60008981526003602052604090205494505b846000036115dd57600194505b6040516322565a1560e11b8152600481018a9052602481018690526000906001600160a01b038a16906344acb42a90604401608060405180830381865afa15801561162c573d6000803e3d6000fd5b505050506040513d601f19601f820116820180604052508101906116509190611caf565b9050816000036116955762093a8080600162093a8084604001516116749190611e25565b61167e9190611c69565b6116889190611b7b565b6116929190611b9d565b91505b60045482106116ad57600096505050505050506105dd565b828210156116b9578291505b6040805160808101825260008082526020820181905291810182905260608101829052905b6032811015611894578984101561189457826040015184101580156117035750858811155b156117c957611713600189611e25565b9750829150858811156117525760405180608001604052806000600f0b81526020016000600f0b81526020016000815260200160008152509250611882565b6040516322565a1560e11b8152600481018d9052602481018990526001600160a01b038c16906344acb42a90604401608060405180830381865afa15801561179e573d6000803e3d6000fd5b505050506040513d601f19601f820116820180604052508101906117c29190611caf565b9250611882565b60008260400151856117db9190611c69565b905060006117f28460200151836110669190611d21565b9050801580156118015750878a115b1561180d575050611894565b80156118705766038d7ea4c680068666038d7ea4c68000811061183257611832611e0f565b015460058766038d7ea4c68000811061184d5761184d611e0f565b01546118599083611b9d565b6118639190611b7b565b61186d908a611e25565b98505b61187d62093a8087611e25565b955050505b8061188c81611e3d565b9150506116de565b50949a9950505050505050505050565b600080600090506000846001600160a01b031663900cf0cf6040518163ffffffff1660e01b8152600401602060405180830381865afa1580156118eb573d6000803e3d6000fd5b505050506040513d601f19601f8201168201806040525081019061190f9190611c96565b905060005b60808110156119ef57818310156119ef57600060026119338486611e25565b61193e906002611e25565b6119489190611b7b565b604051638ad4c44760e01b8152600481018290529091506000906001600160a01b03891690638ad4c44790602401608060405180830381865afa158015611993573d6000803e3d6000fd5b505050506040513d601f19601f820116820180604052508101906119b79190611caf565b9050868160400151116119cc578194506119da565b6119d7600183611c69565b93505b505080806119e790611e3d565b915050611914565b5090949350505050565b600081831061150057816105dd565b600060208284031215611a1a57600080fd5b5035919050565b6001600160a01b0381168114611a3657600080fd5b50565b600060208284031215611a4b57600080fd5b81356105dd81611a21565b60008060408385031215611a6957600080fd5b50508035926020909101359150565b634e487b7160e01b600052604160045260246000fd5b604051601f8201601f1916810167ffffffffffffffff81118282101715611ab757611ab7611a78565b604052919050565b60006020808385031215611ad257600080fd5b823567ffffffffffffffff80821115611aea57600080fd5b818501915085601f830112611afe57600080fd5b813581811115611b1057611b10611a78565b8060051b9150611b21848301611a8e565b8181529183018401918481019088841115611b3b57600080fd5b938501935b83851015611b5957843582529385019390850190611b40565b98975050505050505050565b634e487b7160e01b600052601160045260246000fd5b600082611b9857634e487b7160e01b600052601260045260246000fd5b500490565b6000816000190483118215151615611bb757611bb7611b65565b500290565b8051600f81900b8114611bce57600080fd5b919050565b600060408284031215611be557600080fd5b6040516040810181811067ffffffffffffffff82111715611c0857611c08611a78565b604052611c1483611bbc565b8152602083015160208201528091505092915050565b600060208284031215611c3c57600080fd5b81516105dd81611a21565b600060208284031215611c5957600080fd5b815180151581146105dd57600080fd5b600082821015611c7b57611c7b611b65565b500390565b634e487b7160e01b600052600160045260246000fd5b600060208284031215611ca857600080fd5b5051919050565b600060808284031215611cc157600080fd5b6040516080810181811067ffffffffffffffff82111715611ce457611ce4611a78565b604052611cf083611bbc565b8152611cfe60208401611bbc565b602082015260408301516040820152606083015160608201528091505092915050565b600081600f0b83600f0b60016001607f1b03600082136000841383830485118282161615611d5157611d51611b65565b6f7fffffffffffffffffffffffffffffff196000851282811687830587121615611d7d57611d7d611b65565b60008712925085820587128484161615611d9957611d99611b65565b85850587128184161615611daf57611daf611b65565b5050509290910295945050505050565b600081600f0b83600f0b600081128160016001607f1b031901831281151615611dea57611dea611b65565b8160016001607f1b03018313811615611e0557611e05611b65565b5090039392505050565b634e487b7160e01b600052603260045260246000fd5b60008219821115611e3857611e38611b65565b500190565b600060018201611e4f57611e4f611b65565b506001019056fea2646970667358221220bc07ea1dd0e82e0bfa7235712649aa1ab210bd3dabf6e56ad79ce8118445b8dc64736f6c634300080d0033",
  "linkReferences": {},
  "deployedLinkReferences": {}
}