{
  "_format": "hh-sol-artifact-1",
  "contractName": "RewardsDistributor",
  "sourceName": "contracts/RewardsDistributor.sol",
  "abi": [
    {
      "inputs": [
        {
          "internalType": "address",
          "name": "_voting_escrow",
          "type": "address"
        }
      ],
      "stateMutability": "nonpayable",
      "type": "constructor"
    },
    {
      "anonymous": false,
      "inputs": [
        {
          "indexed": false,
          "internalType": "uint256",
          "name": "time",
          "type": "uint256"
        },
        {
          "indexed": false,
          "internalType": "uint256",
          "name": "tokens",
          "type": "uint256"
        }
      ],
      "name": "CheckpointToken",
      "type": "event"
    },
    {
      "anonymous": false,
      "inputs": [
        {
          "indexed": false,
          "internalType": "uint256",
          "name": "tokenId",
          "type": "uint256"
        },
        {
          "indexed": false,
          "internalType": "uint256",
          "name": "amount",
          "type": "uint256"
        },
        {
          "indexed": false,
          "internalType": "uint256",
          "name": "claim_epoch",
          "type": "uint256"
        },
        {
          "indexed": false,
          "internalType": "uint256",
          "name": "max_epoch",
          "type": "uint256"
        }
      ],
      "name": "Claimed",
      "type": "event"
    },
    {
      "inputs": [],
      "name": "checkpoint_token",
      "outputs": [],
      "stateMutability": "nonpayable",
      "type": "function"
    },
    {
      "inputs": [],
      "name": "checkpoint_total_supply",
      "outputs": [],
      "stateMutability": "nonpayable",
      "type": "function"
    },
    {
      "inputs": [
        {
          "internalType": "uint256",
          "name": "_tokenId",
          "type": "uint256"
        }
      ],
      "name": "claim",
      "outputs": [
        {
          "internalType": "uint256",
          "name": "",
          "type": "uint256"
        }
      ],
      "stateMutability": "nonpayable",
      "type": "function"
    },
    {
      "inputs": [
        {
          "internalType": "uint256[]",
          "name": "_tokenIds",
          "type": "uint256[]"
        }
      ],
      "name": "claim_many",
      "outputs": [
        {
          "internalType": "bool",
          "name": "",
          "type": "bool"
        }
      ],
      "stateMutability": "nonpayable",
      "type": "function"
    },
    {
      "inputs": [
        {
          "internalType": "uint256",
          "name": "_tokenId",
          "type": "uint256"
        }
      ],
      "name": "claimable",
      "outputs": [
        {
          "internalType": "uint256",
          "name": "",
          "type": "uint256"
        }
      ],
      "stateMutability": "view",
      "type": "function"
    },
    {
      "inputs": [],
      "name": "depositor",
      "outputs": [
        {
          "internalType": "address",
          "name": "",
          "type": "address"
        }
      ],
      "stateMutability": "view",
      "type": "function"
    },
    {
      "inputs": [],
      "name": "last_token_time",
      "outputs": [
        {
          "internalType": "uint256",
          "name": "",
          "type": "uint256"
        }
      ],
      "stateMutability": "view",
      "type": "function"
    },
    {
      "inputs": [],
      "name": "owner",
      "outputs": [
        {
          "internalType": "address",
          "name": "",
          "type": "address"
        }
      ],
      "stateMutability": "view",
      "type": "function"
    },
    {
      "inputs": [
        {
          "internalType": "address",
          "name": "_depositor",
          "type": "address"
        }
      ],
      "name": "setDepositor",
      "outputs": [],
      "stateMutability": "nonpayable",
      "type": "function"
    },
    {
      "inputs": [
        {
          "internalType": "address",
          "name": "_owner",
          "type": "address"
        }
      ],
      "name": "setOwner",
      "outputs": [],
      "stateMutability": "nonpayable",
      "type": "function"
    },
    {
      "inputs": [],
      "name": "start_time",
      "outputs": [
        {
          "internalType": "uint256",
          "name": "",
          "type": "uint256"
        }
      ],
      "stateMutability": "view",
      "type": "function"
    },
    {
      "inputs": [],
      "name": "time_cursor",
      "outputs": [
        {
          "internalType": "uint256",
          "name": "",
          "type": "uint256"
        }
      ],
      "stateMutability": "view",
      "type": "function"
    },
    {
      "inputs": [
        {
          "internalType": "uint256",
          "name": "",
          "type": "uint256"
        }
      ],
      "name": "time_cursor_of",
      "outputs": [
        {
          "internalType": "uint256",
          "name": "",
          "type": "uint256"
        }
      ],
      "stateMutability": "view",
      "type": "function"
    },
    {
      "inputs": [],
      "name": "timestamp",
      "outputs": [
        {
          "internalType": "uint256",
          "name": "",
          "type": "uint256"
        }
      ],
      "stateMutability": "view",
      "type": "function"
    },
    {
      "inputs": [],
      "name": "token",
      "outputs": [
        {
          "internalType": "address",
          "name": "",
          "type": "address"
        }
      ],
      "stateMutability": "view",
      "type": "function"
    },
    {
      "inputs": [],
      "name": "token_last_balance",
      "outputs": [
        {
          "internalType": "uint256",
          "name": "",
          "type": "uint256"
        }
      ],
      "stateMutability": "view",
      "type": "function"
    },
    {
      "inputs": [
        {
          "internalType": "uint256",
          "name": "",
          "type": "uint256"
        }
      ],
      "name": "tokens_per_week",
      "outputs": [
        {
          "internalType": "uint256",
          "name": "",
          "type": "uint256"
        }
      ],
      "stateMutability": "view",
      "type": "function"
    },
    {
      "inputs": [
        {
          "internalType": "uint256",
          "name": "",
          "type": "uint256"
        }
      ],
      "name": "user_epoch_of",
      "outputs": [
        {
          "internalType": "uint256",
          "name": "",
          "type": "uint256"
        }
      ],
      "stateMutability": "view",
      "type": "function"
    },
    {
      "inputs": [
        {
          "internalType": "uint256",
          "name": "_tokenId",
          "type": "uint256"
        },
        {
          "internalType": "uint256",
          "name": "_timestamp",
          "type": "uint256"
        }
      ],
      "name": "ve_for_at",
      "outputs": [
        {
          "internalType": "uint256",
          "name": "",
          "type": "uint256"
        }
      ],
      "stateMutability": "view",
      "type": "function"
    },
    {
      "inputs": [
        {
          "internalType": "uint256",
          "name": "",
          "type": "uint256"
        }
      ],
      "name": "ve_supply",
      "outputs": [
        {
          "internalType": "uint256",
          "name": "",
          "type": "uint256"
        }
      ],
      "stateMutability": "view",
      "type": "function"
    },
    {
      "inputs": [],
      "name": "voting_escrow",
      "outputs": [
        {
          "internalType": "address",
          "name": "",
          "type": "address"
        }
      ],
      "stateMutability": "view",
      "type": "function"
    },
    {
      "inputs": [
        {
          "internalType": "address",
          "name": "_token",
          "type": "address"
        }
      ],
      "name": "withdrawERC20",
      "outputs": [],
      "stateMutability": "nonpayable",
      "type": "function"
    }
  ],
  "bytecode": "0x60806040523480156200001157600080fd5b50604051620020f4380380620020f48339810160408190526200003491620001b1565b600062093a80620000468142620001e3565b62000052919062000206565b90508060008190555080600481905550806001819055506000826001600160a01b031663fc0c546a6040518163ffffffff1660e01b8152600401602060405180830381865afa158015620000aa573d6000803e3d6000fd5b505050506040513d601f19601f82011682018060405250810190620000d09190620001b1565b66071afd498d000880546001600160a01b03199081166001600160a01b0384811691821790935566071afd498d000780548316938816938417905566071afd498d0009805433908416811790915566071afd498d000680549093161790915560405163095ea7b360e01b81526004810192909252600019602483015291925063095ea7b3906044016020604051808303816000875af115801562000178573d6000803e3d6000fd5b505050506040513d601f19601f820116820180604052508101906200019e919062000234565b620001a857600080fd5b50505062000258565b600060208284031215620001c457600080fd5b81516001600160a01b0381168114620001dc57600080fd5b9392505050565b6000826200020157634e487b7160e01b600052601260045260246000fd5b500490565b60008160001904831182151516156200022f57634e487b7160e01b600052601160045260246000fd5b500290565b6000602082840312156200024757600080fd5b81518015158114620001dc57600080fd5b611e8c80620002686000396000f3fe608060405234801561001057600080fd5b50600436106101425760003560e01c80638da5cb5b116100b8578063d4dafba81161007c578063d4dafba814610297578063dfe05031146102aa578063edf59997146102c3578063f2c098b7146102d6578063f4f3b200146102e9578063fc0c546a146102fc57600080fd5b80638da5cb5b1461022a578063b21ed5021461025b578063b80777ea14610263578063c7c4ff461461026b578063d1d58b251461028457600080fd5b8063379607f51161010a578063379607f5146101ca578063486d25fe146101dd57806368809889146101fd5780637f58e8f814610210578063811a40fe14610219578063834ee4171461022157600080fd5b8063127dcbd31461014757806313af40351461016357806316aea5c0146101785780631f1db0431461019857806322b04bfc146101bb575b600080fd5b61015060015481565b6040519081526020015b60405180910390f35b610176610171366004611a20565b610315565b005b610150610186366004611a3d565b60036020526000908152604090205481565b6101ab6101a6366004611a9d565b61035a565b604051901515815260200161015a565b61015066038d7ea4c680055481565b6101506101d8366004611a3d565b61060b565b6101506101eb366004611a3d565b60026020526000908152604090205481565b61015061020b366004611b43565b610872565b61015060045481565b6101766109b5565b61015060005481565b66071afd498d000654610243906001600160a01b031681565b6040516001600160a01b03909116815260200161015a565b6101766109df565b6101506109e7565b66071afd498d000954610243906001600160a01b031681565b610150610292366004611a3d565b610a06565b6101506102a5366004611a3d565b610a46565b66071afd498d000754610243906001600160a01b031681565b6101506102d1366004611a3d565b610a69565b6101766102e4366004611a20565b610a7f565b6101766102f7366004611a20565b610ac4565b66071afd498d000854610243906001600160a01b031681565b66071afd498d0006546001600160a01b0316331461033257600080fd5b66071afd498d000680546001600160a01b0319166001600160a01b0392909216919091179055565b6000600154421061036d5761036d610bd8565b60045462093a8061037e8183611b7b565b6103889190611b9d565b66071afd498d0007549091506001600160a01b03166000805b85518110156105db5760008682815181106103be576103be611bbc565b60200260200101519050806000036103d657506105db565b60006103e3828688610d7b565b905080156105c657604051635a2d1e0760e11b8152600481018390526000906001600160a01b0387169063b45a3c0e906024016040805180830381865afa158015610432573d6000803e3d6000fd5b505050506040513d601f19601f820116820180604052508101906104569190611be9565b90504281602001511015610556576040516331a9108f60e11b8152600481018490526000906001600160a01b03881690636352211e90602401602060405180830381865afa1580156104ac573d6000803e3d6000fd5b505050506040513d601f19601f820116820180604052508101906104d09190611c40565b66071afd498d00085460405163a9059cbb60e01b81526001600160a01b0380841660048301526024820187905292935091169063a9059cbb906044016020604051808303816000875af115801561052b573d6000803e3d6000fd5b505050506040513d601f19601f8201168201806040525081019061054f9190611c5d565b50506105b8565b604051631dd33fc560e31b815260048101849052602481018390526001600160a01b0387169063ee99fe2890604401600060405180830381600087803b15801561059f57600080fd5b505af11580156105b3573d6000803e3d6000fd5b505050505b6105c28286611c7f565b9450505b505080806105d390611c97565b9150506103a1565b508015610600578066038d7ea4c6800560008282546105fa9190611cb0565b90915550505b506001949350505050565b6000600154421061061e5761061e610bd8565b60045462093a8061062f8183611b7b565b6106399190611b9d565b66071afd498d00075490915060009061065d9085906001600160a01b031684610d7b565b9050801561086b5766071afd498d000754604051635a2d1e0760e11b8152600481018690526000916001600160a01b03169063b45a3c0e906024016040805180830381865afa1580156106b4573d6000803e3d6000fd5b505050506040513d601f19601f820116820180604052508101906106d89190611be9565b905042816020015110156107e05766071afd498d0007546040516331a9108f60e11b8152600481018790526000916001600160a01b031690636352211e90602401602060405180830381865afa158015610736573d6000803e3d6000fd5b505050506040513d601f19601f8201168201806040525081019061075a9190611c40565b66071afd498d00085460405163a9059cbb60e01b81526001600160a01b0380841660048301526024820187905292935091169063a9059cbb906044016020604051808303816000875af11580156107b5573d6000803e3d6000fd5b505050506040513d601f19601f820116820180604052508101906107d99190611c5d565b505061084c565b66071afd498d000754604051631dd33fc560e31b815260048101879052602481018490526001600160a01b039091169063ee99fe2890604401600060405180830381600087803b15801561083357600080fd5b505af1158015610847573d6000803e3d6000fd5b505050505b8166038d7ea4c6800560008282546108649190611cb0565b9091555050505b9392505050565b66071afd498d00075460405163391044d760e21b8152600481018490526000916001600160a01b0316908290829063e441135c90602401602060405180830381865afa1580156108c6573d6000803e3d6000fd5b505050506040513d601f19601f820116820180604052508101906108ea9190611cc7565b905060006108fa8387878561119f565b6040516309bb79ed60e11b815260048101889052602481018290529091506000906001600160a01b03851690631376f3da90604401608060405180830381865afa15801561094c573d6000803e3d6000fd5b505050506040513d601f19601f820116820180604052508101906109709190611ce0565b90506109aa8160400151876109859190611cb0565b82602001516109949190611d52565b82516109a09190611df0565b600f0b6000611293565b979650505050505050565b66071afd498d0009546001600160a01b031633146109d5576109d5611e40565b6109dd6112aa565b565b6109dd610bd8565b600062093a806109f78142611b7b565b610a019190611b9d565b905090565b60008062093a8080600454610a1b9190611b7b565b610a259190611b9d565b66071afd498d00075490915061086b9084906001600160a01b031683611507565b66038d7ea4c680068166038d7ea4c680008110610a6257600080fd5b0154905081565b60058166038d7ea4c680008110610a6257600080fd5b66071afd498d0006546001600160a01b03163314610a9c57600080fd5b66071afd498d000980546001600160a01b0319166001600160a01b0392909216919091179055565b66071afd498d0006546001600160a01b03163314610ae157600080fd5b6001600160a01b038116610af457600080fd5b6040516370a0823160e01b81523060048201526000906001600160a01b038316906370a0823190602401602060405180830381865afa158015610b3b573d6000803e3d6000fd5b505050506040513d601f19601f82011682018060405250810190610b5f9190611cc7565b60405163a9059cbb60e01b8152336004820152602481018290529091506001600160a01b0383169063a9059cbb906044016020604051808303816000875af1158015610baf573d6000803e3d6000fd5b505050506040513d601f19601f82011682018060405250810190610bd39190611c5d565b505050565b66071afd498d0007546001546001600160a01b0390911690600062093a80610c008142611b7b565b610c0a9190611b9d565b9050826001600160a01b031663c2c4c5c16040518163ffffffff1660e01b8152600401600060405180830381600087803b158015610c4757600080fd5b505af1158015610c5b573d6000803e3d6000fd5b5050505060005b6014811015610d7357818311610d73576000610c7e85856118a4565b60405163d1febfb960e01b8152600481018290529091506000906001600160a01b0387169063d1febfb990602401608060405180830381865afa158015610cc9573d6000803e3d6000fd5b505050506040513d601f19601f82011682018060405250810190610ced9190611ce0565b905060008160400151861115610d0f576040820151610d0c9087611cb0565b90505b610d2e818360200151610d229190611d52565b83516109a09190611df0565b66038d7ea4c680068766038d7ea4c680008110610d4d57610d4d611bbc565b0155505050610d5f62093a8084611c7f565b925080610d6b81611c97565b915050610c62565b505060015550565b60405163391044d760e21b8152600481018490526000908190819081906001600160a01b0387169063e441135c90602401602060405180830381865afa158015610dc9573d6000803e3d6000fd5b505050506040513d601f19601f82011682018060405250810190610ded9190611cc7565b60008054919250829003610e0857600094505050505061086b565b60008881526002602052604081205490819003610e3257610e2b888a848661119f565b9450610e44565b60008981526003602052604090205494505b84600003610e5157600194505b6040516309bb79ed60e11b8152600481018a9052602481018690526000906001600160a01b038a1690631376f3da90604401608060405180830381865afa158015610ea0573d6000803e3d6000fd5b505050506040513d601f19601f82011682018060405250810190610ec49190611ce0565b905081600003610f095762093a8080600162093a808460400151610ee89190611c7f565b610ef29190611cb0565b610efc9190611b7b565b610f069190611b9d565b91505b6004548210610f21576000965050505050505061086b565b82821015610f2d578291505b6040805160808101825260008082526020820181905291810182905260608101829052905b603281101561111457898410156111145782604001518410158015610f775750858811155b1561103d57610f87600189611c7f565b975082915085881115610fc65760405180608001604052806000600f0b81526020016000600f0b81526020016000815260200160008152509250611102565b6040516309bb79ed60e11b8152600481018d9052602481018990526001600160a01b038c1690631376f3da90604401608060405180830381865afa158015611012573d6000803e3d6000fd5b505050506040513d601f19601f820116820180604052508101906110369190611ce0565b9250611102565b600082604001518561104f9190611cb0565b905060006110728460200151836110669190611d52565b85516109a09190611df0565b9050801580156110815750878a115b1561108d575050611114565b80156110f05766038d7ea4c680068666038d7ea4c6800081106110b2576110b2611bbc565b015460058766038d7ea4c6800081106110cd576110cd611bbc565b01546110d99083611b9d565b6110e39190611b7b565b6110ed908a611c7f565b98505b6110fd62093a8087611c7f565b955050505b8061110c81611c97565b915050610f52565b506111298561112460018a611cb0565b6119f9565b60008c8152600360209081526040808320849055600282529182902086905581518e8152908101899052908101829052606081018790529097507fcae2990aa9af8eb1c64713b7eddb3a80bf18e49a94a13fe0d0002b5d61d58f009060800160405180910390a150939998505050505050505050565b60008082815b6080811015611287578183101561128757600060026111c48486611c7f565b6111cf906002611c7f565b6111d99190611b7b565b6040516309bb79ed60e11b8152600481018a9052602481018290529091506000906001600160a01b038b1690631376f3da90604401608060405180830381865afa15801561122b573d6000803e3d6000fd5b505050506040513d601f19601f8201168201806040525081019061124f9190611ce0565b90508781604001511161126457819450611272565b61126f600183611cb0565b93505b5050808061127f90611c97565b9150506111a5565b50909695505050505050565b6000818310156112a3578161086b565b5090919050565b66071afd498d0008546040516370a0823160e01b81523060048201526000916001600160a01b0316906370a0823190602401602060405180830381865afa1580156112f9573d6000803e3d6000fd5b505050506040513d601f19601f8201168201806040525081019061131d9190611cc7565b9050600066038d7ea4c6800554826113359190611cb0565b66038d7ea4c6800583905560045490915060006113528242611cb0565b426004559050600062093a806113688185611b7b565b6113729190611b9d565b90506000805b60148110156114c55761138e62093a8084611c7f565b91508142101561141757831580156113a557508442145b156113df578560058466038d7ea4c6800081106113c4576113c4611bbc565b0160008282546113d49190611c7f565b909155506114c59050565b836113ea8642611cb0565b6113f49088611b9d565b6113fe9190611b7b565b60058466038d7ea4c6800081106113c4576113c4611bbc565b8315801561142457508482145b1561145e578560058466038d7ea4c68000811061144357611443611bbc565b0160008282546114539190611c7f565b909155506114ac9050565b836114698684611cb0565b6114739088611b9d565b61147d9190611b7b565b60058466038d7ea4c68000811061149657611496611bbc565b0160008282546114a69190611c7f565b90915550505b81945081925080806114bd90611c97565b915050611378565b5060408051428152602081018790527fce749457b74e10f393f2c6b1ce4261b78791376db5a3f501477a809f03f500d6910160405180910390a1505050505050565b60405163391044d760e21b8152600481018490526000908190819081906001600160a01b0387169063e441135c90602401602060405180830381865afa158015611555573d6000803e3d6000fd5b505050506040513d601f19601f820116820180604052508101906115799190611cc7565b6000805491925082900361159457600094505050505061086b565b600088815260026020526040812054908190036115be576115b7888a848661119f565b94506115d0565b60008981526003602052604090205494505b846000036115dd57600194505b6040516309bb79ed60e11b8152600481018a9052602481018690526000906001600160a01b038a1690631376f3da90604401608060405180830381865afa15801561162c573d6000803e3d6000fd5b505050506040513d601f19601f820116820180604052508101906116509190611ce0565b9050816000036116955762093a8080600162093a8084604001516116749190611c7f565b61167e9190611cb0565b6116889190611b7b565b6116929190611b9d565b91505b60045482106116ad576000965050505050505061086b565b828210156116b9578291505b6040805160808101825260008082526020820181905291810182905260608101829052905b6032811015611894578984101561189457826040015184101580156117035750858811155b156117c957611713600189611c7f565b9750829150858811156117525760405180608001604052806000600f0b81526020016000600f0b81526020016000815260200160008152509250611882565b6040516309bb79ed60e11b8152600481018d9052602481018990526001600160a01b038c1690631376f3da90604401608060405180830381865afa15801561179e573d6000803e3d6000fd5b505050506040513d601f19601f820116820180604052508101906117c29190611ce0565b9250611882565b60008260400151856117db9190611cb0565b905060006117f28460200151836110669190611d52565b9050801580156118015750878a115b1561180d575050611894565b80156118705766038d7ea4c680068666038d7ea4c68000811061183257611832611bbc565b015460058766038d7ea4c68000811061184d5761184d611bbc565b01546118599083611b9d565b6118639190611b7b565b61186d908a611c7f565b98505b61187d62093a8087611c7f565b955050505b8061188c81611c97565b9150506116de565b50949a9950505050505050505050565b600080600090506000846001600160a01b031663900cf0cf6040518163ffffffff1660e01b8152600401602060405180830381865afa1580156118eb573d6000803e3d6000fd5b505050506040513d601f19601f8201168201806040525081019061190f9190611cc7565b905060005b60808110156119ef57818310156119ef57600060026119338486611c7f565b61193e906002611c7f565b6119489190611b7b565b60405163d1febfb960e01b8152600481018290529091506000906001600160a01b0389169063d1febfb990602401608060405180830381865afa158015611993573d6000803e3d6000fd5b505050506040513d601f19601f820116820180604052508101906119b79190611ce0565b9050868160400151116119cc578194506119da565b6119d7600183611cb0565b93505b505080806119e790611c97565b915050611914565b5090949350505050565b60008183106112a3578161086b565b6001600160a01b0381168114611a1d57600080fd5b50565b600060208284031215611a3257600080fd5b813561086b81611a08565b600060208284031215611a4f57600080fd5b5035919050565b634e487b7160e01b600052604160045260246000fd5b604051601f8201601f1916810167ffffffffffffffff81118282101715611a9557611a95611a56565b604052919050565b60006020808385031215611ab057600080fd5b823567ffffffffffffffff80821115611ac857600080fd5b818501915085601f830112611adc57600080fd5b813581811115611aee57611aee611a56565b8060051b9150611aff848301611a6c565b8181529183018401918481019088841115611b1957600080fd5b938501935b83851015611b3757843582529385019390850190611b1e565b98975050505050505050565b60008060408385031215611b5657600080fd5b50508035926020909101359150565b634e487b7160e01b600052601160045260246000fd5b600082611b9857634e487b7160e01b600052601260045260246000fd5b500490565b6000816000190483118215151615611bb757611bb7611b65565b500290565b634e487b7160e01b600052603260045260246000fd5b8051600f81900b8114611be457600080fd5b919050565b600060408284031215611bfb57600080fd5b6040516040810181811067ffffffffffffffff82111715611c1e57611c1e611a56565b604052611c2a83611bd2565b8152602083015160208201528091505092915050565b600060208284031215611c5257600080fd5b815161086b81611a08565b600060208284031215611c6f57600080fd5b8151801515811461086b57600080fd5b60008219821115611c9257611c92611b65565b500190565b600060018201611ca957611ca9611b65565b5060010190565b600082821015611cc257611cc2611b65565b500390565b600060208284031215611cd957600080fd5b5051919050565b600060808284031215611cf257600080fd5b6040516080810181811067ffffffffffffffff82111715611d1557611d15611a56565b604052611d2183611bd2565b8152611d2f60208401611bd2565b602082015260408301516040820152606083015160608201528091505092915050565b600081600f0b83600f0b60016001607f1b03600082136000841383830485118282161615611d8257611d82611b65565b6f7fffffffffffffffffffffffffffffff196000851282811687830587121615611dae57611dae611b65565b60008712925085820587128484161615611dca57611dca611b65565b85850587128184161615611de057611de0611b65565b5050509290910295945050505050565b600081600f0b83600f0b600081128160016001607f1b031901831281151615611e1b57611e1b611b65565b8160016001607f1b03018313811615611e3657611e36611b65565b5090039392505050565b634e487b7160e01b600052600160045260246000fdfea26469706673582212206c5e22069c1abd652eceaeb89c1c73c561066b099c8f757b4349da7def539bbe64736f6c634300080d0033",
  "linkReferences": {},
  "deployedLinkReferences": {}
}