{
  "_format": "hh-sol-artifact-1",
  "contractName": "MinterUpgradeable",
  "sourceName": "contracts/MinterUpgradeable.sol",
  "abi": [
    {
      "anonymous": false,
      "inputs": [
        {
          "indexed": false,
          "internalType": "uint8",
          "name": "version",
          "type": "uint8"
        }
      ],
      "name": "Initialized",
      "type": "event"
    },
    {
      "anonymous": false,
      "inputs": [
        {
          "indexed": true,
          "internalType": "address",
          "name": "sender",
          "type": "address"
        },
        {
          "indexed": false,
          "internalType": "uint256",
          "name": "weekly",
          "type": "uint256"
        },
        {
          "indexed": false,
          "internalType": "uint256",
          "name": "circulatingSupply",
          "type": "uint256"
        },
        {
          "indexed": false,
          "internalType": "uint256",
          "name": "circulatingEmission",
          "type": "uint256"
        }
      ],
      "name": "Mint",
      "type": "event"
    },
    {
      "anonymous": false,
      "inputs": [
        {
          "indexed": true,
          "internalType": "address",
          "name": "previousOwner",
          "type": "address"
        },
        {
          "indexed": true,
          "internalType": "address",
          "name": "newOwner",
          "type": "address"
        }
      ],
      "name": "OwnershipTransferred",
      "type": "event"
    },
    {
      "inputs": [],
      "name": "EMISSION",
      "outputs": [
        {
          "internalType": "uint256",
          "name": "",
          "type": "uint256"
        }
      ],
      "stateMutability": "view",
      "type": "function"
    },
    {
      "inputs": [],
      "name": "LOCK",
      "outputs": [
        {
          "internalType": "uint256",
          "name": "",
          "type": "uint256"
        }
      ],
      "stateMutability": "view",
      "type": "function"
    },
    {
      "inputs": [],
      "name": "MAX_TEAM_RATE",
      "outputs": [
        {
          "internalType": "uint256",
          "name": "",
          "type": "uint256"
        }
      ],
      "stateMutability": "view",
      "type": "function"
    },
    {
      "inputs": [],
      "name": "PRECISION",
      "outputs": [
        {
          "internalType": "uint256",
          "name": "",
          "type": "uint256"
        }
      ],
      "stateMutability": "view",
      "type": "function"
    },
    {
      "inputs": [],
      "name": "REBASEMAX",
      "outputs": [
        {
          "internalType": "uint256",
          "name": "",
          "type": "uint256"
        }
      ],
      "stateMutability": "view",
      "type": "function"
    },
    {
      "inputs": [],
      "name": "TAIL_EMISSION",
      "outputs": [
        {
          "internalType": "uint256",
          "name": "",
          "type": "uint256"
        }
      ],
      "stateMutability": "view",
      "type": "function"
    },
    {
      "inputs": [],
      "name": "WEEK",
      "outputs": [
        {
          "internalType": "uint256",
          "name": "",
          "type": "uint256"
        }
      ],
      "stateMutability": "view",
      "type": "function"
    },
    {
      "inputs": [
        {
          "internalType": "address[]",
          "name": "claimants",
          "type": "address[]"
        },
        {
          "internalType": "uint256[]",
          "name": "amounts",
          "type": "uint256[]"
        },
        {
          "internalType": "uint256",
          "name": "max",
          "type": "uint256"
        }
      ],
      "name": "_initialize",
      "outputs": [],
      "stateMutability": "nonpayable",
      "type": "function"
    },
    {
      "inputs": [],
      "name": "_rewardsDistributor",
      "outputs": [
        {
          "internalType": "contract IRewardsDistributor",
          "name": "",
          "type": "address"
        }
      ],
      "stateMutability": "view",
      "type": "function"
    },
    {
      "inputs": [],
      "name": "_starBugToken",
      "outputs": [
        {
          "internalType": "contract IStarBugToken",
          "name": "",
          "type": "address"
        }
      ],
      "stateMutability": "view",
      "type": "function"
    },
    {
      "inputs": [],
      "name": "_ve",
      "outputs": [
        {
          "internalType": "contract IVotingEscrow",
          "name": "",
          "type": "address"
        }
      ],
      "stateMutability": "view",
      "type": "function"
    },
    {
      "inputs": [],
      "name": "_voter",
      "outputs": [
        {
          "internalType": "contract IVoter",
          "name": "",
          "type": "address"
        }
      ],
      "stateMutability": "view",
      "type": "function"
    },
    {
      "inputs": [],
      "name": "acceptTeam",
      "outputs": [],
      "stateMutability": "nonpayable",
      "type": "function"
    },
    {
      "inputs": [],
      "name": "activePeriod",
      "outputs": [
        {
          "internalType": "uint256",
          "name": "",
          "type": "uint256"
        }
      ],
      "stateMutability": "view",
      "type": "function"
    },
    {
      "inputs": [],
      "name": "calculateEmission",
      "outputs": [
        {
          "internalType": "uint256",
          "name": "",
          "type": "uint256"
        }
      ],
      "stateMutability": "view",
      "type": "function"
    },
    {
      "inputs": [
        {
          "internalType": "uint256",
          "name": "_weeklyMint",
          "type": "uint256"
        }
      ],
      "name": "calculateRebate",
      "outputs": [
        {
          "internalType": "uint256",
          "name": "",
          "type": "uint256"
        }
      ],
      "stateMutability": "view",
      "type": "function"
    },
    {
      "inputs": [],
      "name": "check",
      "outputs": [
        {
          "internalType": "bool",
          "name": "",
          "type": "bool"
        }
      ],
      "stateMutability": "view",
      "type": "function"
    },
    {
      "inputs": [],
      "name": "circulatingEmission",
      "outputs": [
        {
          "internalType": "uint256",
          "name": "",
          "type": "uint256"
        }
      ],
      "stateMutability": "view",
      "type": "function"
    },
    {
      "inputs": [],
      "name": "circulatingSupply",
      "outputs": [
        {
          "internalType": "uint256",
          "name": "",
          "type": "uint256"
        }
      ],
      "stateMutability": "view",
      "type": "function"
    },
    {
      "inputs": [
        {
          "internalType": "address",
          "name": "__voter",
          "type": "address"
        },
        {
          "internalType": "address",
          "name": "__ve",
          "type": "address"
        },
        {
          "internalType": "address",
          "name": "__rewardsDistributor",
          "type": "address"
        }
      ],
      "name": "initialize",
      "outputs": [],
      "stateMutability": "nonpayable",
      "type": "function"
    },
    {
      "inputs": [],
      "name": "isFirstMint",
      "outputs": [
        {
          "internalType": "bool",
          "name": "",
          "type": "bool"
        }
      ],
      "stateMutability": "view",
      "type": "function"
    },
    {
      "inputs": [],
      "name": "owner",
      "outputs": [
        {
          "internalType": "address",
          "name": "",
          "type": "address"
        }
      ],
      "stateMutability": "view",
      "type": "function"
    },
    {
      "inputs": [],
      "name": "pendingTeam",
      "outputs": [
        {
          "internalType": "address",
          "name": "",
          "type": "address"
        }
      ],
      "stateMutability": "view",
      "type": "function"
    },
    {
      "inputs": [],
      "name": "period",
      "outputs": [
        {
          "internalType": "uint256",
          "name": "",
          "type": "uint256"
        }
      ],
      "stateMutability": "view",
      "type": "function"
    },
    {
      "inputs": [],
      "name": "renounceOwnership",
      "outputs": [],
      "stateMutability": "nonpayable",
      "type": "function"
    },
    {
      "inputs": [
        {
          "internalType": "uint256",
          "name": "_emission",
          "type": "uint256"
        }
      ],
      "name": "setEmission",
      "outputs": [],
      "stateMutability": "nonpayable",
      "type": "function"
    },
    {
      "inputs": [
        {
          "internalType": "uint256",
          "name": "_rebase",
          "type": "uint256"
        }
      ],
      "name": "setRebase",
      "outputs": [],
      "stateMutability": "nonpayable",
      "type": "function"
    },
    {
      "inputs": [
        {
          "internalType": "address",
          "name": "_rewardDistro",
          "type": "address"
        }
      ],
      "name": "setRewardDistributor",
      "outputs": [],
      "stateMutability": "nonpayable",
      "type": "function"
    },
    {
      "inputs": [
        {
          "internalType": "address",
          "name": "_team",
          "type": "address"
        }
      ],
      "name": "setTeam",
      "outputs": [],
      "stateMutability": "nonpayable",
      "type": "function"
    },
    {
      "inputs": [
        {
          "internalType": "uint256",
          "name": "_teamRate",
          "type": "uint256"
        }
      ],
      "name": "setTeamRate",
      "outputs": [],
      "stateMutability": "nonpayable",
      "type": "function"
    },
    {
      "inputs": [
        {
          "internalType": "address",
          "name": "__voter",
          "type": "address"
        }
      ],
      "name": "setVoter",
      "outputs": [],
      "stateMutability": "nonpayable",
      "type": "function"
    },
    {
      "inputs": [],
      "name": "team",
      "outputs": [
        {
          "internalType": "address",
          "name": "",
          "type": "address"
        }
      ],
      "stateMutability": "view",
      "type": "function"
    },
    {
      "inputs": [],
      "name": "teamRate",
      "outputs": [
        {
          "internalType": "uint256",
          "name": "",
          "type": "uint256"
        }
      ],
      "stateMutability": "view",
      "type": "function"
    },
    {
      "inputs": [
        {
          "internalType": "address",
          "name": "newOwner",
          "type": "address"
        }
      ],
      "name": "transferOwnership",
      "outputs": [],
      "stateMutability": "nonpayable",
      "type": "function"
    },
    {
      "inputs": [],
      "name": "updatePeriod",
      "outputs": [
        {
          "internalType": "uint256",
          "name": "",
          "type": "uint256"
        }
      ],
      "stateMutability": "nonpayable",
      "type": "function"
    },
    {
      "inputs": [],
      "name": "weekly",
      "outputs": [
        {
          "internalType": "uint256",
          "name": "",
          "type": "uint256"
        }
      ],
      "stateMutability": "view",
      "type": "function"
    },
    {
      "inputs": [],
      "name": "weeklyEmission",
      "outputs": [
        {
          "internalType": "uint256",
          "name": "",
          "type": "uint256"
        }
      ],
      "stateMutability": "view",
      "type": "function"
    }
  ],
  "bytecode": "0x608060405234801561001057600080fd5b50611898806100206000396000f3fe608060405234801561001057600080fd5b50600436106102275760003560e01c8063a1809b9511610130578063b5cc143a116100b8578063de3e34921161007c578063de3e34921461041a578063e6684de81461042d578063ef78d4fd14610436578063f2fde38b1461043e578063f4359ce51461045157600080fd5b8063b5cc143a146103dc578063c0c53b8b146103e4578063d3b15c8c146103f7578063d70142fb146103ff578063ddce102f1461040757600080fd5b8063a4f0d7d0116100ff578063a4f0d7d0146103ab578063a83627de146103b6578063a9abf7ec146103be578063aa8754e4146103cb578063aaf5eb68146103d357600080fd5b8063a1809b9514610373578063a18cb95614610386578063a2853e921461038f578063a2e23a51146103a257600080fd5b8063715018a6116101b35780638dd598fb116101825780638dd598fb1461031a5780639046fee71461032d578063919840ad146103405780639358928b14610358578063952c820a1461036057600080fd5b8063715018a6146102e557806378ef7f02146102ed57806385f2aef2146102f65780638da5cb5b1461030957600080fd5b806326cfc17b116101fa57806326cfc17b146102905780632e8f7b1f146102995780633db9b42a146102ac5780634bc2a657146102bf57806359d46ffc146102d257600080fd5b806301c8e6fd1461022c578063095cf5c6146102475780630a441f7b1461025c578063109f291214610265575b600080fd5b610234603281565b6040519081526020015b60405180910390f35b61025a61025536600461149f565b61045b565b005b610234606b5481565b606f54610278906001600160a01b031681565b6040516001600160a01b03909116815260200161023e565b610234606a5481565b61025a6102a73660046114bc565b6104b0565b607054610278906001600160a01b031681565b61025a6102cd36600461149f565b610500565b606e54610278906001600160a01b031681565b61025a61055f565b61023460695481565b606d54610278906001600160a01b031681565b6033546001600160a01b0316610278565b607154610278906001600160a01b031681565b61023461033b3660046114bc565b610573565b6103486106b9565b604051901515815260200161023e565b6102346106ea565b61025a61036e3660046115ab565b6107e5565b61025a61038136600461149f565b610a0f565b61023460665481565b607254610278906001600160a01b031681565b61023460675481565b6102346303bfc40081565b610234610a48565b6065546103489060ff1681565b610234610f24565b6102346103e881565b61025a610f43565b61025a6103f2366004611676565b610fb4565b6102346111fd565b610234611217565b61025a6104153660046114bc565b611231565b61025a6104283660046114bc565b611282565b61023460685481565b6102346112d3565b61025a61044c36600461149f565b6112ed565b61023462093a8081565b606d546001600160a01b0316331461048e5760405162461bcd60e51b8152600401610485906116c1565b60405180910390fd5b606e80546001600160a01b0319166001600160a01b0392909216919091179055565b606d546001600160a01b031633146104da5760405162461bcd60e51b8152600401610485906116c1565b60328111156104fb5760405162461bcd60e51b8152600401610485906116e3565b606955565b6001600160a01b03811661051357600080fd5b606d546001600160a01b0316331461053d5760405162461bcd60e51b8152600401610485906116c1565b607080546001600160a01b0319166001600160a01b0392909216919091179055565b610567611366565b61057160006113c0565b565b606f546071546040516370a0823160e01b81526001600160a01b039182166004820152600092839216906370a0823190602401602060405180830381865afa1580156105c3573d6000803e3d6000fd5b505050506040513d601f19601f820116820180604052508101906105e7919061170a565b90506000606f60009054906101000a90046001600160a01b03166001600160a01b03166318160ddd6040518163ffffffff1660e01b8152600401602060405180830381865afa15801561063e573d6000803e3d6000fd5b505050506040513d601f19601f82011682018060405250810190610662919061170a565b90506000816106736103e885611739565b61067d9190611758565b905060685481106106ac576103e8606854866106999190611739565b6106a39190611758565b95945050505050565b6103e86106998287611739565b606b546000906106cc62093a808261177a565b42101580156106e45750606c546001600160a01b0316155b91505090565b606f546071546040516370a0823160e01b81526001600160a01b03918216600482015260009291909116906370a0823190602401602060405180830381865afa15801561073b573d6000803e3d6000fd5b505050506040513d601f19601f8201168201806040525081019061075f919061170a565b606f60009054906101000a90046001600160a01b03166001600160a01b03166318160ddd6040518163ffffffff1660e01b8152600401602060405180830381865afa1580156107b2573d6000803e3d6000fd5b505050506040513d601f19601f820116820180604052508101906107d6919061170a565b6107e09190611792565b905090565b606c546001600160a01b031633146107fc57600080fd5b80156109df57606f546040516340c10f1960e01b8152306004820152602481018390526001600160a01b03909116906340c10f19906044016020604051808303816000875af1158015610853573d6000803e3d6000fd5b505050506040513d601f19601f8201168201806040525081019061087791906117a9565b50606f5460715460405163095ea7b360e01b81526001600160a01b039182166004820152600019602482015291169063095ea7b3906044016020604051808303816000875af11580156108ce573d6000803e3d6000fd5b505050506040513d601f19601f820116820180604052508101906108f291906117a9565b5060005b83518110156109dd5760715483516001600160a01b039091169063ec32e6df90859084908110610928576109286117cb565b60200260200101516303bfc400878581518110610947576109476117cb565b60200260200101516040518463ffffffff1660e01b81526004016109879392919092835260208301919091526001600160a01b0316604082015260600190565b6020604051808303816000875af11580156109a6573d6000803e3d6000fd5b505050506040513d601f19601f820116820180604052508101906109ca919061170a565b50806109d5816117e1565b9150506108f6565b505b606c80546001600160a01b031916905562093a806109fd8142611758565b610a079190611739565b606b55505050565b606d546001600160a01b03163314610a2657600080fd5b607280546001600160a01b0319166001600160a01b0392909216919091179055565b606b54600090610a5b62093a808261177a565b4210158015610a735750606c546001600160a01b0316155b15610f1f5762093a80610a868142611758565b610a909190611739565b606b81905560655490915060ff16610ab257610aaa611217565b606a55610abd565b6065805460ff191690555b6000610aca606a54610573565b905060006103e8606954606a54610ae19190611739565b610aeb9190611758565b606a54909150600082610afe8584611792565b610b089190611792565b606f546040516370a0823160e01b81523060048201529192506000916001600160a01b03909116906370a0823190602401602060405180830381865afa158015610b56573d6000803e3d6000fd5b505050506040513d601f19601f82011682018060405250810190610b7a919061170a565b905082811015610c1157606f546001600160a01b03166340c10f1930610ba08487611792565b6040516001600160e01b031960e085901b1681526001600160a01b03909216600483015260248201526044016020604051808303816000875af1158015610beb573d6000803e3d6000fd5b505050506040513d601f19601f82011682018060405250810190610c0f91906117a9565b505b606f54606d5460405163a9059cbb60e01b81526001600160a01b0391821660048201526024810187905291169063a9059cbb906044016020604051808303816000875af1158015610c66573d6000803e3d6000fd5b505050506040513d601f19601f82011682018060405250810190610c8a91906117a9565b610c9357600080fd5b606f5460725460405163a9059cbb60e01b81526001600160a01b0391821660048201526024810188905291169063a9059cbb906044016020604051808303816000875af1158015610ce8573d6000803e3d6000fd5b505050506040513d601f19601f82011682018060405250810190610d0c91906117a9565b610d1557600080fd5b607260009054906101000a90046001600160a01b03166001600160a01b0316635932b0236040518163ffffffff1660e01b8152600401600060405180830381600087803b158015610d6557600080fd5b505af1158015610d79573d6000803e3d6000fd5b50505050607260009054906101000a90046001600160a01b03166001600160a01b0316633a2fc0866040518163ffffffff1660e01b8152600401600060405180830381600087803b158015610dcd57600080fd5b505af1158015610de1573d6000803e3d6000fd5b5050606f5460705460405163095ea7b360e01b81526001600160a01b039182166004820152602481018790529116925063095ea7b391506044016020604051808303816000875af1158015610e3a573d6000803e3d6000fd5b505050506040513d601f19601f82011682018060405250810190610e5e91906117a9565b50607054604051633c6b16ab60e01b8152600481018490526001600160a01b0390911690633c6b16ab90602401600060405180830381600087803b158015610ea557600080fd5b505af1158015610eb9573d6000803e3d6000fd5b50505050336001600160a01b03167fb4c03061fb5b7fed76389d5af8f2e0ddb09f8c70d1333abbb62582835e10accb606a54610ef36106ea565b610efb6111fd565b6040805193845260208401929092529082015260600160405180910390a250505050505b919050565b60006103e8606654606a54610f399190611739565b6107e09190611758565b606e546001600160a01b03163314610f905760405162461bcd60e51b815260206004820152601060248201526f6e6f742070656e64696e67207465616d60801b6044820152606401610485565b606e54606d80546001600160a01b0319166001600160a01b03909216919091179055565b600054610100900460ff1615808015610fd45750600054600160ff909116105b80610fee5750303b158015610fee575060005460ff166001145b6110515760405162461bcd60e51b815260206004820152602e60248201527f496e697469616c697a61626c653a20636f6e747261637420697320616c72656160448201526d191e481a5b9a5d1a585b1a5e995960921b6064820152608401610485565b6000805460ff191660011790558015611074576000805461ff0019166101001790555b61107c611412565b606c8054336001600160a01b03199182168117909255606d8054909116909117905560286069556103de606655600260675561012c60685560408051637e062a3560e11b815290516001600160a01b0385169163fc0c546a9160048281019260209291908290030181865afa1580156110f9573d6000803e3d6000fd5b505050506040513d601f19601f8201168201806040525081019061111d91906117fa565b606f80546001600160a01b03199081166001600160a01b03938416179091556070805482168784161790556071805482168684161790556072805490911691841691909117905562093a8080611174816002611739565b61117e904261177a565b6111889190611758565b6111929190611739565b606b556a022692484ce19d09000000606a556065805460ff1916600117905580156111f7576000805461ff0019169055604051600181527f7f26b83ff96e1f2b6a682f133852f6798a09c465da95921460cefb38474024989060200160405180910390a15b50505050565b60006103e860675461120d6106ea565b610f399190611739565b60006107e0611224610f24565b61122c6111fd565b611441565b606d546001600160a01b0316331461125b5760405162461bcd60e51b8152600401610485906116c1565b6103e881111561127d5760405162461bcd60e51b8152600401610485906116e3565b606655565b606d546001600160a01b031633146112ac5760405162461bcd60e51b8152600401610485906116c1565b6103e88111156112ce5760405162461bcd60e51b8152600401610485906116e3565b606855565b600062093a806112e38142611758565b6107e09190611739565b6112f5611366565b6001600160a01b03811661135a5760405162461bcd60e51b815260206004820152602660248201527f4f776e61626c653a206e6577206f776e657220697320746865207a65726f206160448201526564647265737360d01b6064820152608401610485565b611363816113c0565b50565b6033546001600160a01b031633146105715760405162461bcd60e51b815260206004820181905260248201527f4f776e61626c653a2063616c6c6572206973206e6f7420746865206f776e65726044820152606401610485565b603380546001600160a01b038381166001600160a01b0319831681179093556040519116919082907f8be0079c531659141344cd1fd0a4f28419497f9722a3daafe3b4186f6b6457e090600090a35050565b600054610100900460ff166114395760405162461bcd60e51b815260040161048590611817565b61057161145a565b6000818310156114515781611453565b825b9392505050565b600054610100900460ff166114815760405162461bcd60e51b815260040161048590611817565b610571336113c0565b6001600160a01b038116811461136357600080fd5b6000602082840312156114b157600080fd5b81356114538161148a565b6000602082840312156114ce57600080fd5b5035919050565b634e487b7160e01b600052604160045260246000fd5b604051601f8201601f1916810167ffffffffffffffff81118282101715611514576115146114d5565b604052919050565b600067ffffffffffffffff821115611536576115366114d5565b5060051b60200190565b600082601f83011261155157600080fd5b813560206115666115618361151c565b6114eb565b82815260059290921b8401810191818101908684111561158557600080fd5b8286015b848110156115a05780358352918301918301611589565b509695505050505050565b6000806000606084860312156115c057600080fd5b833567ffffffffffffffff808211156115d857600080fd5b818601915086601f8301126115ec57600080fd5b813560206115fc6115618361151c565b82815260059290921b8401810191818101908a84111561161b57600080fd5b948201945b838610156116425785356116338161148a565b82529482019490820190611620565b9750508701359250508082111561165857600080fd5b5061166586828701611540565b925050604084013590509250925092565b60008060006060848603121561168b57600080fd5b83356116968161148a565b925060208401356116a68161148a565b915060408401356116b68161148a565b809150509250925092565b6020808252600890820152676e6f74207465616d60c01b604082015260600190565b6020808252600d908201526c0e4c2e8ca40e8dede40d0d2ced609b1b604082015260600190565b60006020828403121561171c57600080fd5b5051919050565b634e487b7160e01b600052601160045260246000fd5b600081600019048311821515161561175357611753611723565b500290565b60008261177557634e487b7160e01b600052601260045260246000fd5b500490565b6000821982111561178d5761178d611723565b500190565b6000828210156117a4576117a4611723565b500390565b6000602082840312156117bb57600080fd5b8151801515811461145357600080fd5b634e487b7160e01b600052603260045260246000fd5b6000600182016117f3576117f3611723565b5060010190565b60006020828403121561180c57600080fd5b81516114538161148a565b6020808252602b908201527f496e697469616c697a61626c653a20636f6e7472616374206973206e6f74206960408201526a6e697469616c697a696e6760a81b60608201526080019056fea26469706673582212204e60867ade7b8f3b1ba456a68958b3e1949858eff136f106d46eea9fbcd80d8564736f6c634300080d0033",
  "linkReferences": {},
  "deployedLinkReferences": {}
}