{
  "_format": "hh-sol-artifact-1",
  "contractName": "MinterUpgradeable",
  "sourceName": "contracts/MinterUpgradeable.sol",
  "abi": [
    {
      "inputs": [],
      "stateMutability": "nonpayable",
      "type": "constructor"
    },
    {
      "anonymous": false,
      "inputs": [
        {
          "indexed": false,
          "internalType": "uint8",
          "name": "version",
          "type": "uint8"
        }
      ],
      "name": "Initialized",
      "type": "event"
    },
    {
      "anonymous": false,
      "inputs": [
        {
          "indexed": true,
          "internalType": "address",
          "name": "sender",
          "type": "address"
        },
        {
          "indexed": false,
          "internalType": "uint256",
          "name": "weekly",
          "type": "uint256"
        },
        {
          "indexed": false,
          "internalType": "uint256",
          "name": "circulating_supply",
          "type": "uint256"
        },
        {
          "indexed": false,
          "internalType": "uint256",
          "name": "circulating_emission",
          "type": "uint256"
        }
      ],
      "name": "Mint",
      "type": "event"
    },
    {
      "anonymous": false,
      "inputs": [
        {
          "indexed": true,
          "internalType": "address",
          "name": "previousOwner",
          "type": "address"
        },
        {
          "indexed": true,
          "internalType": "address",
          "name": "newOwner",
          "type": "address"
        }
      ],
      "name": "OwnershipTransferred",
      "type": "event"
    },
    {
      "inputs": [],
      "name": "EMISSION",
      "outputs": [
        {
          "internalType": "uint256",
          "name": "",
          "type": "uint256"
        }
      ],
      "stateMutability": "view",
      "type": "function"
    },
    {
      "inputs": [],
      "name": "LOCK",
      "outputs": [
        {
          "internalType": "uint256",
          "name": "",
          "type": "uint256"
        }
      ],
      "stateMutability": "view",
      "type": "function"
    },
    {
      "inputs": [],
      "name": "MAX_TEAM_RATE",
      "outputs": [
        {
          "internalType": "uint256",
          "name": "",
          "type": "uint256"
        }
      ],
      "stateMutability": "view",
      "type": "function"
    },
    {
      "inputs": [],
      "name": "PRECISION",
      "outputs": [
        {
          "internalType": "uint256",
          "name": "",
          "type": "uint256"
        }
      ],
      "stateMutability": "view",
      "type": "function"
    },
    {
      "inputs": [],
      "name": "REBASEMAX",
      "outputs": [
        {
          "internalType": "uint256",
          "name": "",
          "type": "uint256"
        }
      ],
      "stateMutability": "view",
      "type": "function"
    },
    {
      "inputs": [],
      "name": "TAIL_EMISSION",
      "outputs": [
        {
          "internalType": "uint256",
          "name": "",
          "type": "uint256"
        }
      ],
      "stateMutability": "view",
      "type": "function"
    },
    {
      "inputs": [],
      "name": "WEEK",
      "outputs": [
        {
          "internalType": "uint256",
          "name": "",
          "type": "uint256"
        }
      ],
      "stateMutability": "view",
      "type": "function"
    },
    {
      "inputs": [
        {
          "internalType": "address[]",
          "name": "claimants",
          "type": "address[]"
        },
        {
          "internalType": "uint256[]",
          "name": "amounts",
          "type": "uint256[]"
        },
        {
          "internalType": "uint256",
          "name": "max",
          "type": "uint256"
        }
      ],
      "name": "_initialize",
      "outputs": [],
      "stateMutability": "nonpayable",
      "type": "function"
    },
    {
      "inputs": [],
      "name": "_rewards_distributor",
      "outputs": [
        {
          "internalType": "contract IRewardsDistributor",
          "name": "",
          "type": "address"
        }
      ],
      "stateMutability": "view",
      "type": "function"
    },
    {
      "inputs": [],
      "name": "_starBugToken",
      "outputs": [
        {
          "internalType": "contract IStarBugToken",
          "name": "",
          "type": "address"
        }
      ],
      "stateMutability": "view",
      "type": "function"
    },
    {
      "inputs": [],
      "name": "_ve",
      "outputs": [
        {
          "internalType": "contract IVotingEscrow",
          "name": "",
          "type": "address"
        }
      ],
      "stateMutability": "view",
      "type": "function"
    },
    {
      "inputs": [],
      "name": "_voter",
      "outputs": [
        {
          "internalType": "contract IVoter",
          "name": "",
          "type": "address"
        }
      ],
      "stateMutability": "view",
      "type": "function"
    },
    {
      "inputs": [],
      "name": "acceptTeam",
      "outputs": [],
      "stateMutability": "nonpayable",
      "type": "function"
    },
    {
      "inputs": [],
      "name": "active_period",
      "outputs": [
        {
          "internalType": "uint256",
          "name": "",
          "type": "uint256"
        }
      ],
      "stateMutability": "view",
      "type": "function"
    },
    {
      "inputs": [],
      "name": "calculate_emission",
      "outputs": [
        {
          "internalType": "uint256",
          "name": "",
          "type": "uint256"
        }
      ],
      "stateMutability": "view",
      "type": "function"
    },
    {
      "inputs": [
        {
          "internalType": "uint256",
          "name": "_weeklyMint",
          "type": "uint256"
        }
      ],
      "name": "calculate_rebate",
      "outputs": [
        {
          "internalType": "uint256",
          "name": "",
          "type": "uint256"
        }
      ],
      "stateMutability": "view",
      "type": "function"
    },
    {
      "inputs": [],
      "name": "check",
      "outputs": [
        {
          "internalType": "bool",
          "name": "",
          "type": "bool"
        }
      ],
      "stateMutability": "view",
      "type": "function"
    },
    {
      "inputs": [],
      "name": "circulating_emission",
      "outputs": [
        {
          "internalType": "uint256",
          "name": "",
          "type": "uint256"
        }
      ],
      "stateMutability": "view",
      "type": "function"
    },
    {
      "inputs": [],
      "name": "circulating_supply",
      "outputs": [
        {
          "internalType": "uint256",
          "name": "",
          "type": "uint256"
        }
      ],
      "stateMutability": "view",
      "type": "function"
    },
    {
      "inputs": [
        {
          "internalType": "address",
          "name": "__voter",
          "type": "address"
        },
        {
          "internalType": "address",
          "name": "__ve",
          "type": "address"
        },
        {
          "internalType": "address",
          "name": "__rewards_distributor",
          "type": "address"
        }
      ],
      "name": "initialize",
      "outputs": [],
      "stateMutability": "nonpayable",
      "type": "function"
    },
    {
      "inputs": [],
      "name": "isFirstMint",
      "outputs": [
        {
          "internalType": "bool",
          "name": "",
          "type": "bool"
        }
      ],
      "stateMutability": "view",
      "type": "function"
    },
    {
      "inputs": [],
      "name": "owner",
      "outputs": [
        {
          "internalType": "address",
          "name": "",
          "type": "address"
        }
      ],
      "stateMutability": "view",
      "type": "function"
    },
    {
      "inputs": [],
      "name": "pendingTeam",
      "outputs": [
        {
          "internalType": "address",
          "name": "",
          "type": "address"
        }
      ],
      "stateMutability": "view",
      "type": "function"
    },
    {
      "inputs": [],
      "name": "period",
      "outputs": [
        {
          "internalType": "uint256",
          "name": "",
          "type": "uint256"
        }
      ],
      "stateMutability": "view",
      "type": "function"
    },
    {
      "inputs": [],
      "name": "renounceOwnership",
      "outputs": [],
      "stateMutability": "nonpayable",
      "type": "function"
    },
    {
      "inputs": [
        {
          "internalType": "uint256",
          "name": "_emission",
          "type": "uint256"
        }
      ],
      "name": "setEmission",
      "outputs": [],
      "stateMutability": "nonpayable",
      "type": "function"
    },
    {
      "inputs": [
        {
          "internalType": "uint256",
          "name": "_rebase",
          "type": "uint256"
        }
      ],
      "name": "setRebase",
      "outputs": [],
      "stateMutability": "nonpayable",
      "type": "function"
    },
    {
      "inputs": [
        {
          "internalType": "address",
          "name": "_rewardDistro",
          "type": "address"
        }
      ],
      "name": "setRewardDistributor",
      "outputs": [],
      "stateMutability": "nonpayable",
      "type": "function"
    },
    {
      "inputs": [
        {
          "internalType": "address",
          "name": "_team",
          "type": "address"
        }
      ],
      "name": "setTeam",
      "outputs": [],
      "stateMutability": "nonpayable",
      "type": "function"
    },
    {
      "inputs": [
        {
          "internalType": "uint256",
          "name": "_teamRate",
          "type": "uint256"
        }
      ],
      "name": "setTeamRate",
      "outputs": [],
      "stateMutability": "nonpayable",
      "type": "function"
    },
    {
      "inputs": [
        {
          "internalType": "address",
          "name": "__voter",
          "type": "address"
        }
      ],
      "name": "setVoter",
      "outputs": [],
      "stateMutability": "nonpayable",
      "type": "function"
    },
    {
      "inputs": [],
      "name": "team",
      "outputs": [
        {
          "internalType": "address",
          "name": "",
          "type": "address"
        }
      ],
      "stateMutability": "view",
      "type": "function"
    },
    {
      "inputs": [],
      "name": "teamRate",
      "outputs": [
        {
          "internalType": "uint256",
          "name": "",
          "type": "uint256"
        }
      ],
      "stateMutability": "view",
      "type": "function"
    },
    {
      "inputs": [
        {
          "internalType": "address",
          "name": "newOwner",
          "type": "address"
        }
      ],
      "name": "transferOwnership",
      "outputs": [],
      "stateMutability": "nonpayable",
      "type": "function"
    },
    {
      "inputs": [],
      "name": "update_period",
      "outputs": [
        {
          "internalType": "uint256",
          "name": "",
          "type": "uint256"
        }
      ],
      "stateMutability": "nonpayable",
      "type": "function"
    },
    {
      "inputs": [],
      "name": "weekly",
      "outputs": [
        {
          "internalType": "uint256",
          "name": "",
          "type": "uint256"
        }
      ],
      "stateMutability": "view",
      "type": "function"
    },
    {
      "inputs": [],
      "name": "weekly_emission",
      "outputs": [
        {
          "internalType": "uint256",
          "name": "",
          "type": "uint256"
        }
      ],
      "stateMutability": "view",
      "type": "function"
    }
  ],
  "bytecode": "0x608060405234801561001057600080fd5b50611898806100206000396000f3fe608060405234801561001057600080fd5b50600436106102275760003560e01c8063952c820a11610130578063cfc6c8ff116100b8578063e6684de81161007c578063e6684de814610425578063ed29fc111461042e578063ef78d4fd14610436578063f2fde38b1461043e578063f4359ce51461045157600080fd5b8063cfc6c8ff146103e6578063d1399608146103ee578063ddce102f146103f7578063de3e34921461040a578063e038c75a1461041d57600080fd5b8063a4f0d7d0116100ff578063a4f0d7d0146103aa578063a9abf7ec146103b5578063aaf5eb68146103c2578063b5cc143a146103cb578063c0c53b8b146103d357600080fd5b8063952c820a14610372578063a1809b9514610385578063a18cb95614610398578063a2e23a51146103a157600080fd5b80634bc2a657116101b357806378ef7f021161018257806378ef7f021461031a57806385f2aef2146103235780638da5cb5b146103365780638dd598fb14610347578063919840ad1461035a57600080fd5b80634bc2a657146102d957806359d46ffc146102ec57806370677e6a146102ff578063715018a61461031257600080fd5b806326cfc17b116101fa57806326cfc17b1461028f5780632e8f7b1f1461029857806336d96faf146102ab5780633db9b42a146102b35780634b1cd5da146102c657600080fd5b806301c8e6fd1461022c578063095cf5c614610247578063109f29121461025c5780631eebae8014610287575b600080fd5b610234603281565b6040519081526020015b60405180910390f35b61025a61025536600461149f565b61045b565b005b606f5461026f906001600160a01b031681565b6040516001600160a01b03909116815260200161023e565b6102346104b0565b610234606a5481565b61025a6102a63660046114bc565b6104d9565b610234610529565b60705461026f906001600160a01b031681565b60725461026f906001600160a01b031681565b61025a6102e736600461149f565b61053e565b606e5461026f906001600160a01b031681565b61023461030d3660046114bc565b61059d565b61025a6106e3565b61023460695481565b606d5461026f906001600160a01b031681565b6033546001600160a01b031661026f565b60715461026f906001600160a01b031681565b6103626106f7565b604051901515815260200161023e565b61025a6103803660046115ab565b610728565b61025a61039336600461149f565b610952565b61023460665481565b61023460675481565b6102346303bfc40081565b6065546103629060ff1681565b6102346103e881565b61025a61098b565b61025a6103e1366004611676565b6109fc565b610234610c45565b610234606b5481565b61025a6104053660046114bc565b610c5f565b61025a6104183660046114bc565b610cb0565b610234610d01565b61023460685481565b610234610df7565b6102346112d3565b61025a61044c36600461149f565b6112ed565b61023462093a8081565b606d546001600160a01b0316331461048e5760405162461bcd60e51b8152600401610485906116c1565b60405180910390fd5b606e80546001600160a01b0319166001600160a01b0392909216919091179055565b60006103e86067546104c0610d01565b6104ca91906116f9565b6104d49190611718565b905090565b606d546001600160a01b031633146105035760405162461bcd60e51b8152600401610485906116c1565b60328111156105245760405162461bcd60e51b81526004016104859061173a565b606955565b60006103e8606654606a546104ca91906116f9565b6001600160a01b03811661055157600080fd5b606d546001600160a01b0316331461057b5760405162461bcd60e51b8152600401610485906116c1565b607080546001600160a01b0319166001600160a01b0392909216919091179055565b606f546071546040516370a0823160e01b81526001600160a01b039182166004820152600092839216906370a0823190602401602060405180830381865afa1580156105ed573d6000803e3d6000fd5b505050506040513d601f19601f820116820180604052508101906106119190611761565b90506000606f60009054906101000a90046001600160a01b03166001600160a01b03166318160ddd6040518163ffffffff1660e01b8152600401602060405180830381865afa158015610668573d6000803e3d6000fd5b505050506040513d601f19601f8201168201806040525081019061068c9190611761565b905060008161069d6103e8856116f9565b6106a79190611718565b905060685481106106d6576103e8606854866106c391906116f9565b6106cd9190611718565b95945050505050565b6103e86106c382876116f9565b6106eb611366565b6106f560006113c0565b565b606b5460009061070a62093a808261177a565b42101580156107225750606c546001600160a01b0316155b91505090565b606c546001600160a01b0316331461073f57600080fd5b801561092257606f546040516340c10f1960e01b8152306004820152602481018390526001600160a01b03909116906340c10f19906044016020604051808303816000875af1158015610796573d6000803e3d6000fd5b505050506040513d601f19601f820116820180604052508101906107ba9190611792565b50606f5460715460405163095ea7b360e01b81526001600160a01b039182166004820152600019602482015291169063095ea7b3906044016020604051808303816000875af1158015610811573d6000803e3d6000fd5b505050506040513d601f19601f820116820180604052508101906108359190611792565b5060005b83518110156109205760715483516001600160a01b039091169063d4e54c3b9085908490811061086b5761086b6117b4565b60200260200101516303bfc40087858151811061088a5761088a6117b4565b60200260200101516040518463ffffffff1660e01b81526004016108ca9392919092835260208301919091526001600160a01b0316604082015260600190565b6020604051808303816000875af11580156108e9573d6000803e3d6000fd5b505050506040513d601f19601f8201168201806040525081019061090d9190611761565b5080610918816117ca565b915050610839565b505b606c80546001600160a01b031916905562093a806109408142611718565b61094a91906116f9565b606b55505050565b606d546001600160a01b0316331461096957600080fd5b607280546001600160a01b0319166001600160a01b0392909216919091179055565b606e546001600160a01b031633146109d85760405162461bcd60e51b815260206004820152601060248201526f6e6f742070656e64696e67207465616d60801b6044820152606401610485565b606e54606d80546001600160a01b0319166001600160a01b03909216919091179055565b600054610100900460ff1615808015610a1c5750600054600160ff909116105b80610a365750303b158015610a36575060005460ff166001145b610a995760405162461bcd60e51b815260206004820152602e60248201527f496e697469616c697a61626c653a20636f6e747261637420697320616c72656160448201526d191e481a5b9a5d1a585b1a5e995960921b6064820152608401610485565b6000805460ff191660011790558015610abc576000805461ff0019166101001790555b610ac4611412565b606c8054336001600160a01b03199182168117909255606d8054909116909117905560286069556103de606655600260675561012c60685560408051637e062a3560e11b815290516001600160a01b0385169163fc0c546a9160048281019260209291908290030181865afa158015610b41573d6000803e3d6000fd5b505050506040513d601f19601f82011682018060405250810190610b6591906117e3565b606f80546001600160a01b03199081166001600160a01b03938416179091556070805482168784161790556071805482168684161790556072805490911691841691909117905562093a8080610bbc8160026116f9565b610bc6904261177a565b610bd09190611718565b610bda91906116f9565b606b556a022692484ce19d09000000606a556065805460ff191660011790558015610c3f576000805461ff0019169055604051600181527f7f26b83ff96e1f2b6a682f133852f6798a09c465da95921460cefb38474024989060200160405180910390a15b50505050565b60006104d4610c52610529565b610c5a6104b0565b611441565b606d546001600160a01b03163314610c895760405162461bcd60e51b8152600401610485906116c1565b6103e8811115610cab5760405162461bcd60e51b81526004016104859061173a565b606655565b606d546001600160a01b03163314610cda5760405162461bcd60e51b8152600401610485906116c1565b6103e8811115610cfc5760405162461bcd60e51b81526004016104859061173a565b606855565b606f546071546040516370a0823160e01b81526001600160a01b03918216600482015260009291909116906370a0823190602401602060405180830381865afa158015610d52573d6000803e3d6000fd5b505050506040513d601f19601f82011682018060405250810190610d769190611761565b606f60009054906101000a90046001600160a01b03166001600160a01b03166318160ddd6040518163ffffffff1660e01b8152600401602060405180830381865afa158015610dc9573d6000803e3d6000fd5b505050506040513d601f19601f82011682018060405250810190610ded9190611761565b6104d49190611800565b606b54600090610e0a62093a808261177a565b4210158015610e225750606c546001600160a01b0316155b156112ce5762093a80610e358142611718565b610e3f91906116f9565b606b81905560655490915060ff16610e6157610e59610c45565b606a55610e6c565b6065805460ff191690555b6000610e79606a5461059d565b905060006103e8606954606a54610e9091906116f9565b610e9a9190611718565b606a54909150600082610ead8584611800565b610eb79190611800565b606f546040516370a0823160e01b81523060048201529192506000916001600160a01b03909116906370a0823190602401602060405180830381865afa158015610f05573d6000803e3d6000fd5b505050506040513d601f19601f82011682018060405250810190610f299190611761565b905082811015610fc057606f546001600160a01b03166340c10f1930610f4f8487611800565b6040516001600160e01b031960e085901b1681526001600160a01b03909216600483015260248201526044016020604051808303816000875af1158015610f9a573d6000803e3d6000fd5b505050506040513d601f19601f82011682018060405250810190610fbe9190611792565b505b606f54606d5460405163a9059cbb60e01b81526001600160a01b0391821660048201526024810187905291169063a9059cbb906044016020604051808303816000875af1158015611015573d6000803e3d6000fd5b505050506040513d601f19601f820116820180604052508101906110399190611792565b61104257600080fd5b606f5460725460405163a9059cbb60e01b81526001600160a01b0391821660048201526024810188905291169063a9059cbb906044016020604051808303816000875af1158015611097573d6000803e3d6000fd5b505050506040513d601f19601f820116820180604052508101906110bb9190611792565b6110c457600080fd5b607260009054906101000a90046001600160a01b03166001600160a01b031663811a40fe6040518163ffffffff1660e01b8152600401600060405180830381600087803b15801561111457600080fd5b505af1158015611128573d6000803e3d6000fd5b50505050607260009054906101000a90046001600160a01b03166001600160a01b031663b21ed5026040518163ffffffff1660e01b8152600401600060405180830381600087803b15801561117c57600080fd5b505af1158015611190573d6000803e3d6000fd5b5050606f5460705460405163095ea7b360e01b81526001600160a01b039182166004820152602481018790529116925063095ea7b391506044016020604051808303816000875af11580156111e9573d6000803e3d6000fd5b505050506040513d601f19601f8201168201806040525081019061120d9190611792565b50607054604051633c6b16ab60e01b8152600481018490526001600160a01b0390911690633c6b16ab90602401600060405180830381600087803b15801561125457600080fd5b505af1158015611268573d6000803e3d6000fd5b50505050336001600160a01b03167fb4c03061fb5b7fed76389d5af8f2e0ddb09f8c70d1333abbb62582835e10accb606a546112a2610d01565b6112aa6104b0565b6040805193845260208401929092529082015260600160405180910390a250505050505b919050565b600062093a806112e38142611718565b6104d491906116f9565b6112f5611366565b6001600160a01b03811661135a5760405162461bcd60e51b815260206004820152602660248201527f4f776e61626c653a206e6577206f776e657220697320746865207a65726f206160448201526564647265737360d01b6064820152608401610485565b611363816113c0565b50565b6033546001600160a01b031633146106f55760405162461bcd60e51b815260206004820181905260248201527f4f776e61626c653a2063616c6c6572206973206e6f7420746865206f776e65726044820152606401610485565b603380546001600160a01b038381166001600160a01b0319831681179093556040519116919082907f8be0079c531659141344cd1fd0a4f28419497f9722a3daafe3b4186f6b6457e090600090a35050565b600054610100900460ff166114395760405162461bcd60e51b815260040161048590611817565b6106f561145a565b6000818310156114515781611453565b825b9392505050565b600054610100900460ff166114815760405162461bcd60e51b815260040161048590611817565b6106f5336113c0565b6001600160a01b038116811461136357600080fd5b6000602082840312156114b157600080fd5b81356114538161148a565b6000602082840312156114ce57600080fd5b5035919050565b634e487b7160e01b600052604160045260246000fd5b604051601f8201601f1916810167ffffffffffffffff81118282101715611514576115146114d5565b604052919050565b600067ffffffffffffffff821115611536576115366114d5565b5060051b60200190565b600082601f83011261155157600080fd5b813560206115666115618361151c565b6114eb565b82815260059290921b8401810191818101908684111561158557600080fd5b8286015b848110156115a05780358352918301918301611589565b509695505050505050565b6000806000606084860312156115c057600080fd5b833567ffffffffffffffff808211156115d857600080fd5b818601915086601f8301126115ec57600080fd5b813560206115fc6115618361151c565b82815260059290921b8401810191818101908a84111561161b57600080fd5b948201945b838610156116425785356116338161148a565b82529482019490820190611620565b9750508701359250508082111561165857600080fd5b5061166586828701611540565b925050604084013590509250925092565b60008060006060848603121561168b57600080fd5b83356116968161148a565b925060208401356116a68161148a565b915060408401356116b68161148a565b809150509250925092565b6020808252600890820152676e6f74207465616d60c01b604082015260600190565b634e487b7160e01b600052601160045260246000fd5b6000816000190483118215151615611713576117136116e3565b500290565b60008261173557634e487b7160e01b600052601260045260246000fd5b500490565b6020808252600d908201526c0e4c2e8ca40e8dede40d0d2ced609b1b604082015260600190565b60006020828403121561177357600080fd5b5051919050565b6000821982111561178d5761178d6116e3565b500190565b6000602082840312156117a457600080fd5b8151801515811461145357600080fd5b634e487b7160e01b600052603260045260246000fd5b6000600182016117dc576117dc6116e3565b5060010190565b6000602082840312156117f557600080fd5b81516114538161148a565b600082821015611812576118126116e3565b500390565b6020808252602b908201527f496e697469616c697a61626c653a20636f6e7472616374206973206e6f74206960408201526a6e697469616c697a696e6760a81b60608201526080019056fea2646970667358221220681e9f543b71862fbcaef596ee32094e642f8edba929147f32d42506e71fb0bb64736f6c634300080d0033",
  "linkReferences": {},
  "deployedLinkReferences": {}
}