{
  "_format": "hh-sol-artifact-1",
  "contractName": "EpochNFTSplitManager",
  "sourceName": "contracts/epochs/EpochNFTSplitManager.sol",
  "abi": [
    {
      "anonymous": false,
      "inputs": [
        {
          "indexed": false,
          "internalType": "uint8",
          "name": "version",
          "type": "uint8"
        }
      ],
      "name": "Initialized",
      "type": "event"
    },
    {
      "anonymous": false,
      "inputs": [
        {
          "indexed": true,
          "internalType": "address",
          "name": "previousOwner",
          "type": "address"
        },
        {
          "indexed": true,
          "internalType": "address",
          "name": "newOwner",
          "type": "address"
        }
      ],
      "name": "OwnershipTransferred",
      "type": "event"
    },
    {
      "inputs": [],
      "name": "automationRegistry",
      "outputs": [
        {
          "internalType": "address",
          "name": "",
          "type": "address"
        }
      ],
      "stateMutability": "view",
      "type": "function"
    },
    {
      "inputs": [
        {
          "internalType": "bytes",
          "name": "",
          "type": "bytes"
        }
      ],
      "name": "checkUpkeep",
      "outputs": [
        {
          "internalType": "bool",
          "name": "upkeepNeeded",
          "type": "bool"
        },
        {
          "internalType": "bytes",
          "name": "",
          "type": "bytes"
        }
      ],
      "stateMutability": "view",
      "type": "function"
    },
    {
      "inputs": [],
      "name": "condition",
      "outputs": [
        {
          "internalType": "address",
          "name": "",
          "type": "address"
        }
      ],
      "stateMutability": "view",
      "type": "function"
    },
    {
      "inputs": [
        {
          "internalType": "uint256",
          "name": "",
          "type": "uint256"
        }
      ],
      "name": "gauges",
      "outputs": [
        {
          "internalType": "address",
          "name": "",
          "type": "address"
        }
      ],
      "stateMutability": "view",
      "type": "function"
    },
    {
      "inputs": [
        {
          "internalType": "address",
          "name": "_condition",
          "type": "address"
        },
        {
          "internalType": "address",
          "name": "_target",
          "type": "address"
        }
      ],
      "name": "initialize",
      "outputs": [],
      "stateMutability": "nonpayable",
      "type": "function"
    },
    {
      "inputs": [
        {
          "internalType": "address",
          "name": "",
          "type": "address"
        }
      ],
      "name": "isGauge",
      "outputs": [
        {
          "internalType": "bool",
          "name": "",
          "type": "bool"
        }
      ],
      "stateMutability": "view",
      "type": "function"
    },
    {
      "inputs": [],
      "name": "owner",
      "outputs": [
        {
          "internalType": "address",
          "name": "",
          "type": "address"
        }
      ],
      "stateMutability": "view",
      "type": "function"
    },
    {
      "inputs": [
        {
          "internalType": "bytes",
          "name": "",
          "type": "bytes"
        }
      ],
      "name": "performUpkeep",
      "outputs": [],
      "stateMutability": "nonpayable",
      "type": "function"
    },
    {
      "inputs": [],
      "name": "renounceOwnership",
      "outputs": [],
      "stateMutability": "nonpayable",
      "type": "function"
    },
    {
      "inputs": [
        {
          "internalType": "address",
          "name": "_automationRegistry",
          "type": "address"
        }
      ],
      "name": "setAutomationRegistry",
      "outputs": [],
      "stateMutability": "nonpayable",
      "type": "function"
    },
    {
      "inputs": [
        {
          "internalType": "address",
          "name": "_condition",
          "type": "address"
        }
      ],
      "name": "setCondition",
      "outputs": [],
      "stateMutability": "nonpayable",
      "type": "function"
    },
    {
      "inputs": [
        {
          "internalType": "address",
          "name": "_target",
          "type": "address"
        }
      ],
      "name": "setTarget",
      "outputs": [],
      "stateMutability": "nonpayable",
      "type": "function"
    },
    {
      "inputs": [],
      "name": "target",
      "outputs": [
        {
          "internalType": "address",
          "name": "",
          "type": "address"
        }
      ],
      "stateMutability": "view",
      "type": "function"
    },
    {
      "inputs": [
        {
          "internalType": "address",
          "name": "newOwner",
          "type": "address"
        }
      ],
      "name": "transferOwnership",
      "outputs": [],
      "stateMutability": "nonpayable",
      "type": "function"
    }
  ],
  "bytecode": "0x608060405234801561001057600080fd5b50610a0d806100206000396000f3fe608060405234801561001057600080fd5b50600436106100ea5760003560e01c8063776d1a011161008c578063b053918711610066578063b0539187146101ed578063c503133114610200578063d4b8399214610213578063f2fde38b1461022657600080fd5b8063776d1a01146101965780638da5cb5b146101a9578063aa79979b146101ba57600080fd5b80635ff2d2aa116100c85780635ff2d2aa146101475780636acd64811461015a5780636e04ff0d1461016d578063715018a61461018e57600080fd5b80634585e33b146100ef578063485cc955146101045780635dc228a014610117575b600080fd5b6101026100fd366004610748565b610239565b005b6101026101123660046107d6565b61030a565b60655461012a906001600160a01b031681565b6040516001600160a01b0390911681526020015b60405180910390f35b610102610155366004610809565b61044d565b610102610168366004610809565b61048a565b61018061017b366004610841565b6104c7565b60405161013e9291906108f2565b610102610549565b6101026101a4366004610809565b61055d565b6033546001600160a01b031661012a565b6101dd6101c8366004610809565b60696020526000908152604090205460ff1681565b604051901515815260200161013e565b61012a6101fb366004610951565b61059a565b60665461012a906001600160a01b031681565b60675461012a906001600160a01b031681565b610102610234366004610809565b6105c4565b6065546001600160a01b031633148061025c57506033546001600160a01b031633145b61029e5760405162461bcd60e51b815260206004820152600e60248201526d63616e6e6f74206578656375746560901b60448201526064015b60405180910390fd5b606760009054906101000a90046001600160a01b03166001600160a01b0316636e4d243a6040518163ffffffff1660e01b8152600401600060405180830381600087803b1580156102ee57600080fd5b505af1158015610302573d6000803e3d6000fd5b505050505050565b600054610100900460ff161580801561032a5750600054600160ff909116105b806103445750303b158015610344575060005460ff166001145b6103a75760405162461bcd60e51b815260206004820152602e60248201527f496e697469616c697a61626c653a20636f6e747261637420697320616c72656160448201526d191e481a5b9a5d1a585b1a5e995960921b6064820152608401610295565b6000805460ff1916600117905580156103ca576000805461ff0019166101001790555b6103d261063d565b606680546001600160a01b038086166001600160a01b03199283161790925560678054928516929091169190911790558015610448576000805461ff0019169055604051600181527f7f26b83ff96e1f2b6a682f133852f6798a09c465da95921460cefb38474024989060200160405180910390a15b505050565b61045561066c565b6001600160a01b03811661046857600080fd5b606580546001600160a01b0319166001600160a01b0392909216919091179055565b61049261066c565b6001600160a01b0381166104a557600080fd5b606680546001600160a01b0319166001600160a01b0392909216919091179055565b60006060606660009054906101000a90046001600160a01b03166001600160a01b031663919840ad6040518163ffffffff1660e01b8152600401602060405180830381865afa15801561051e573d6000803e3d6000fd5b505050506040513d601f19601f82011682018060405250810190610542919061096a565b9150915091565b61055161066c565b61055b60006106c6565b565b61056561066c565b6001600160a01b03811661057857600080fd5b606780546001600160a01b0319166001600160a01b0392909216919091179055565b606881815481106105aa57600080fd5b6000918252602090912001546001600160a01b0316905081565b6105cc61066c565b6001600160a01b0381166106315760405162461bcd60e51b815260206004820152602660248201527f4f776e61626c653a206e6577206f776e657220697320746865207a65726f206160448201526564647265737360d01b6064820152608401610295565b61063a816106c6565b50565b600054610100900460ff166106645760405162461bcd60e51b81526004016102959061098c565b61055b610718565b6033546001600160a01b0316331461055b5760405162461bcd60e51b815260206004820181905260248201527f4f776e61626c653a2063616c6c6572206973206e6f7420746865206f776e65726044820152606401610295565b603380546001600160a01b038381166001600160a01b0319831681179093556040519116919082907f8be0079c531659141344cd1fd0a4f28419497f9722a3daafe3b4186f6b6457e090600090a35050565b600054610100900460ff1661073f5760405162461bcd60e51b81526004016102959061098c565b61055b336106c6565b6000806020838503121561075b57600080fd5b823567ffffffffffffffff8082111561077357600080fd5b818501915085601f83011261078757600080fd5b81358181111561079657600080fd5b8660208285010111156107a857600080fd5b60209290920196919550909350505050565b80356001600160a01b03811681146107d157600080fd5b919050565b600080604083850312156107e957600080fd5b6107f2836107ba565b9150610800602084016107ba565b90509250929050565b60006020828403121561081b57600080fd5b610824826107ba565b9392505050565b634e487b7160e01b600052604160045260246000fd5b60006020828403121561085357600080fd5b813567ffffffffffffffff8082111561086b57600080fd5b818401915084601f83011261087f57600080fd5b8135818111156108915761089161082b565b604051601f8201601f19908116603f011681019083821181831017156108b9576108b961082b565b816040528281528760208487010111156108d257600080fd5b826020860160208301376000928101602001929092525095945050505050565b821515815260006020604081840152835180604085015260005b818110156109285785810183015185820160600152820161090c565b8181111561093a576000606083870101525b50601f01601f191692909201606001949350505050565b60006020828403121561096357600080fd5b5035919050565b60006020828403121561097c57600080fd5b8151801515811461082457600080fd5b6020808252602b908201527f496e697469616c697a61626c653a20636f6e7472616374206973206e6f74206960408201526a6e697469616c697a696e6760a81b60608201526080019056fea2646970667358221220a02c64d4368639422d49cff9b635b2eb45484bda3aa12b5a239ae0eee219b22964736f6c634300080d0033",
  "linkReferences": {},
  "deployedLinkReferences": {}
}