{
  "_format": "hh-sol-artifact-1",
  "contractName": "ThenaGovernor",
  "sourceName": "contracts/ThenaGovernor.sol",
  "abi": [
    {
      "inputs": [
        {
          "internalType": "contract IVotes",
          "name": "_ve",
          "type": "address"
        }
      ],
      "stateMutability": "nonpayable",
      "type": "constructor"
    },
    {
      "inputs": [],
      "name": "Empty",
      "type": "error"
    },
    {
      "anonymous": false,
      "inputs": [
        {
          "indexed": false,
          "internalType": "uint256",
          "name": "proposalId",
          "type": "uint256"
        }
      ],
      "name": "ProposalCanceled",
      "type": "event"
    },
    {
      "anonymous": false,
      "inputs": [
        {
          "indexed": false,
          "internalType": "uint256",
          "name": "proposalId",
          "type": "uint256"
        },
        {
          "indexed": false,
          "internalType": "address",
          "name": "proposer",
          "type": "address"
        },
        {
          "indexed": false,
          "internalType": "address[]",
          "name": "targets",
          "type": "address[]"
        },
        {
          "indexed": false,
          "internalType": "uint256[]",
          "name": "values",
          "type": "uint256[]"
        },
        {
          "indexed": false,
          "internalType": "string[]",
          "name": "signatures",
          "type": "string[]"
        },
        {
          "indexed": false,
          "internalType": "bytes[]",
          "name": "calldatas",
          "type": "bytes[]"
        },
        {
          "indexed": false,
          "internalType": "uint256",
          "name": "startBlock",
          "type": "uint256"
        },
        {
          "indexed": false,
          "internalType": "uint256",
          "name": "endBlock",
          "type": "uint256"
        },
        {
          "indexed": false,
          "internalType": "string",
          "name": "description",
          "type": "string"
        }
      ],
      "name": "ProposalCreated",
      "type": "event"
    },
    {
      "anonymous": false,
      "inputs": [
        {
          "indexed": false,
          "internalType": "uint256",
          "name": "proposalId",
          "type": "uint256"
        }
      ],
      "name": "ProposalExecuted",
      "type": "event"
    },
    {
      "anonymous": false,
      "inputs": [
        {
          "indexed": false,
          "internalType": "uint256",
          "name": "oldQuorumNumerator",
          "type": "uint256"
        },
        {
          "indexed": false,
          "internalType": "uint256",
          "name": "newQuorumNumerator",
          "type": "uint256"
        }
      ],
      "name": "QuorumNumeratorUpdated",
      "type": "event"
    },
    {
      "anonymous": false,
      "inputs": [
        {
          "indexed": true,
          "internalType": "address",
          "name": "voter",
          "type": "address"
        },
        {
          "indexed": false,
          "internalType": "uint256",
          "name": "proposalId",
          "type": "uint256"
        },
        {
          "indexed": false,
          "internalType": "uint8",
          "name": "support",
          "type": "uint8"
        },
        {
          "indexed": false,
          "internalType": "uint256",
          "name": "weight",
          "type": "uint256"
        },
        {
          "indexed": false,
          "internalType": "string",
          "name": "reason",
          "type": "string"
        }
      ],
      "name": "VoteCast",
      "type": "event"
    },
    {
      "anonymous": false,
      "inputs": [
        {
          "indexed": true,
          "internalType": "address",
          "name": "voter",
          "type": "address"
        },
        {
          "indexed": false,
          "internalType": "uint256",
          "name": "proposalId",
          "type": "uint256"
        },
        {
          "indexed": false,
          "internalType": "uint8",
          "name": "support",
          "type": "uint8"
        },
        {
          "indexed": false,
          "internalType": "uint256",
          "name": "weight",
          "type": "uint256"
        },
        {
          "indexed": false,
          "internalType": "string",
          "name": "reason",
          "type": "string"
        },
        {
          "indexed": false,
          "internalType": "bytes",
          "name": "params",
          "type": "bytes"
        }
      ],
      "name": "VoteCastWithParams",
      "type": "event"
    },
    {
      "inputs": [],
      "name": "BALLOT_TYPEHASH",
      "outputs": [
        {
          "internalType": "bytes32",
          "name": "",
          "type": "bytes32"
        }
      ],
      "stateMutability": "view",
      "type": "function"
    },
    {
      "inputs": [],
      "name": "COUNTING_MODE",
      "outputs": [
        {
          "internalType": "string",
          "name": "",
          "type": "string"
        }
      ],
      "stateMutability": "pure",
      "type": "function"
    },
    {
      "inputs": [],
      "name": "EXTENDED_BALLOT_TYPEHASH",
      "outputs": [
        {
          "internalType": "bytes32",
          "name": "",
          "type": "bytes32"
        }
      ],
      "stateMutability": "view",
      "type": "function"
    },
    {
      "inputs": [],
      "name": "MAX_PROPOSAL_NUMERATOR",
      "outputs": [
        {
          "internalType": "uint256",
          "name": "",
          "type": "uint256"
        }
      ],
      "stateMutability": "view",
      "type": "function"
    },
    {
      "inputs": [],
      "name": "PROPOSAL_DENOMINATOR",
      "outputs": [
        {
          "internalType": "uint256",
          "name": "",
          "type": "uint256"
        }
      ],
      "stateMutability": "view",
      "type": "function"
    },
    {
      "inputs": [
        {
          "internalType": "uint256",
          "name": "proposalId",
          "type": "uint256"
        },
        {
          "internalType": "uint8",
          "name": "support",
          "type": "uint8"
        }
      ],
      "name": "castVote",
      "outputs": [
        {
          "internalType": "uint256",
          "name": "",
          "type": "uint256"
        }
      ],
      "stateMutability": "nonpayable",
      "type": "function"
    },
    {
      "inputs": [
        {
          "internalType": "uint256",
          "name": "proposalId",
          "type": "uint256"
        },
        {
          "internalType": "uint8",
          "name": "support",
          "type": "uint8"
        },
        {
          "internalType": "uint8",
          "name": "v",
          "type": "uint8"
        },
        {
          "internalType": "bytes32",
          "name": "r",
          "type": "bytes32"
        },
        {
          "internalType": "bytes32",
          "name": "s",
          "type": "bytes32"
        }
      ],
      "name": "castVoteBySig",
      "outputs": [
        {
          "internalType": "uint256",
          "name": "",
          "type": "uint256"
        }
      ],
      "stateMutability": "nonpayable",
      "type": "function"
    },
    {
      "inputs": [
        {
          "internalType": "uint256",
          "name": "proposalId",
          "type": "uint256"
        },
        {
          "internalType": "uint8",
          "name": "support",
          "type": "uint8"
        },
        {
          "internalType": "string",
          "name": "reason",
          "type": "string"
        }
      ],
      "name": "castVoteWithReason",
      "outputs": [
        {
          "internalType": "uint256",
          "name": "",
          "type": "uint256"
        }
      ],
      "stateMutability": "nonpayable",
      "type": "function"
    },
    {
      "inputs": [
        {
          "internalType": "uint256",
          "name": "proposalId",
          "type": "uint256"
        },
        {
          "internalType": "uint8",
          "name": "support",
          "type": "uint8"
        },
        {
          "internalType": "string",
          "name": "reason",
          "type": "string"
        },
        {
          "internalType": "bytes",
          "name": "params",
          "type": "bytes"
        }
      ],
      "name": "castVoteWithReasonAndParams",
      "outputs": [
        {
          "internalType": "uint256",
          "name": "",
          "type": "uint256"
        }
      ],
      "stateMutability": "nonpayable",
      "type": "function"
    },
    {
      "inputs": [
        {
          "internalType": "uint256",
          "name": "proposalId",
          "type": "uint256"
        },
        {
          "internalType": "uint8",
          "name": "support",
          "type": "uint8"
        },
        {
          "internalType": "string",
          "name": "reason",
          "type": "string"
        },
        {
          "internalType": "bytes",
          "name": "params",
          "type": "bytes"
        },
        {
          "internalType": "uint8",
          "name": "v",
          "type": "uint8"
        },
        {
          "internalType": "bytes32",
          "name": "r",
          "type": "bytes32"
        },
        {
          "internalType": "bytes32",
          "name": "s",
          "type": "bytes32"
        }
      ],
      "name": "castVoteWithReasonAndParamsBySig",
      "outputs": [
        {
          "internalType": "uint256",
          "name": "",
          "type": "uint256"
        }
      ],
      "stateMutability": "nonpayable",
      "type": "function"
    },
    {
      "inputs": [
        {
          "internalType": "address[]",
          "name": "targets",
          "type": "address[]"
        },
        {
          "internalType": "uint256[]",
          "name": "values",
          "type": "uint256[]"
        },
        {
          "internalType": "bytes[]",
          "name": "calldatas",
          "type": "bytes[]"
        },
        {
          "internalType": "bytes32",
          "name": "descriptionHash",
          "type": "bytes32"
        }
      ],
      "name": "execute",
      "outputs": [
        {
          "internalType": "uint256",
          "name": "",
          "type": "uint256"
        }
      ],
      "stateMutability": "payable",
      "type": "function"
    },
    {
      "inputs": [
        {
          "internalType": "address",
          "name": "account",
          "type": "address"
        },
        {
          "internalType": "uint256",
          "name": "blockTimestamp",
          "type": "uint256"
        }
      ],
      "name": "getVotes",
      "outputs": [
        {
          "internalType": "uint256",
          "name": "",
          "type": "uint256"
        }
      ],
      "stateMutability": "view",
      "type": "function"
    },
    {
      "inputs": [
        {
          "internalType": "address",
          "name": "account",
          "type": "address"
        },
        {
          "internalType": "uint256",
          "name": "blockTimestamp",
          "type": "uint256"
        },
        {
          "internalType": "bytes",
          "name": "params",
          "type": "bytes"
        }
      ],
      "name": "getVotesWithParams",
      "outputs": [
        {
          "internalType": "uint256",
          "name": "",
          "type": "uint256"
        }
      ],
      "stateMutability": "view",
      "type": "function"
    },
    {
      "inputs": [
        {
          "internalType": "uint256",
          "name": "proposalId",
          "type": "uint256"
        },
        {
          "internalType": "address",
          "name": "account",
          "type": "address"
        }
      ],
      "name": "hasVoted",
      "outputs": [
        {
          "internalType": "bool",
          "name": "",
          "type": "bool"
        }
      ],
      "stateMutability": "view",
      "type": "function"
    },
    {
      "inputs": [
        {
          "internalType": "address[]",
          "name": "targets",
          "type": "address[]"
        },
        {
          "internalType": "uint256[]",
          "name": "values",
          "type": "uint256[]"
        },
        {
          "internalType": "bytes[]",
          "name": "calldatas",
          "type": "bytes[]"
        },
        {
          "internalType": "bytes32",
          "name": "descriptionHash",
          "type": "bytes32"
        }
      ],
      "name": "hashProposal",
      "outputs": [
        {
          "internalType": "uint256",
          "name": "",
          "type": "uint256"
        }
      ],
      "stateMutability": "pure",
      "type": "function"
    },
    {
      "inputs": [],
      "name": "name",
      "outputs": [
        {
          "internalType": "string",
          "name": "",
          "type": "string"
        }
      ],
      "stateMutability": "view",
      "type": "function"
    },
    {
      "inputs": [
        {
          "internalType": "address",
          "name": "",
          "type": "address"
        },
        {
          "internalType": "address",
          "name": "",
          "type": "address"
        },
        {
          "internalType": "uint256[]",
          "name": "",
          "type": "uint256[]"
        },
        {
          "internalType": "uint256[]",
          "name": "",
          "type": "uint256[]"
        },
        {
          "internalType": "bytes",
          "name": "",
          "type": "bytes"
        }
      ],
      "name": "onERC1155BatchReceived",
      "outputs": [
        {
          "internalType": "bytes4",
          "name": "",
          "type": "bytes4"
        }
      ],
      "stateMutability": "nonpayable",
      "type": "function"
    },
    {
      "inputs": [
        {
          "internalType": "address",
          "name": "",
          "type": "address"
        },
        {
          "internalType": "address",
          "name": "",
          "type": "address"
        },
        {
          "internalType": "uint256",
          "name": "",
          "type": "uint256"
        },
        {
          "internalType": "uint256",
          "name": "",
          "type": "uint256"
        },
        {
          "internalType": "bytes",
          "name": "",
          "type": "bytes"
        }
      ],
      "name": "onERC1155Received",
      "outputs": [
        {
          "internalType": "bytes4",
          "name": "",
          "type": "bytes4"
        }
      ],
      "stateMutability": "nonpayable",
      "type": "function"
    },
    {
      "inputs": [
        {
          "internalType": "address",
          "name": "",
          "type": "address"
        },
        {
          "internalType": "address",
          "name": "",
          "type": "address"
        },
        {
          "internalType": "uint256",
          "name": "",
          "type": "uint256"
        },
        {
          "internalType": "bytes",
          "name": "",
          "type": "bytes"
        }
      ],
      "name": "onERC721Received",
      "outputs": [
        {
          "internalType": "bytes4",
          "name": "",
          "type": "bytes4"
        }
      ],
      "stateMutability": "nonpayable",
      "type": "function"
    },
    {
      "inputs": [
        {
          "internalType": "uint256",
          "name": "proposalId",
          "type": "uint256"
        }
      ],
      "name": "proposalDeadline",
      "outputs": [
        {
          "internalType": "uint256",
          "name": "",
          "type": "uint256"
        }
      ],
      "stateMutability": "view",
      "type": "function"
    },
    {
      "inputs": [],
      "name": "proposalNumerator",
      "outputs": [
        {
          "internalType": "uint256",
          "name": "",
          "type": "uint256"
        }
      ],
      "stateMutability": "view",
      "type": "function"
    },
    {
      "inputs": [
        {
          "internalType": "uint256",
          "name": "proposalId",
          "type": "uint256"
        }
      ],
      "name": "proposalSnapshot",
      "outputs": [
        {
          "internalType": "uint256",
          "name": "",
          "type": "uint256"
        }
      ],
      "stateMutability": "view",
      "type": "function"
    },
    {
      "inputs": [],
      "name": "proposalThreshold",
      "outputs": [
        {
          "internalType": "uint256",
          "name": "",
          "type": "uint256"
        }
      ],
      "stateMutability": "view",
      "type": "function"
    },
    {
      "inputs": [
        {
          "internalType": "uint256",
          "name": "proposalId",
          "type": "uint256"
        }
      ],
      "name": "proposalVotes",
      "outputs": [
        {
          "internalType": "uint256",
          "name": "againstVotes",
          "type": "uint256"
        },
        {
          "internalType": "uint256",
          "name": "forVotes",
          "type": "uint256"
        },
        {
          "internalType": "uint256",
          "name": "abstainVotes",
          "type": "uint256"
        }
      ],
      "stateMutability": "view",
      "type": "function"
    },
    {
      "inputs": [
        {
          "internalType": "address[]",
          "name": "targets",
          "type": "address[]"
        },
        {
          "internalType": "uint256[]",
          "name": "values",
          "type": "uint256[]"
        },
        {
          "internalType": "bytes[]",
          "name": "calldatas",
          "type": "bytes[]"
        },
        {
          "internalType": "string",
          "name": "description",
          "type": "string"
        }
      ],
      "name": "propose",
      "outputs": [
        {
          "internalType": "uint256",
          "name": "",
          "type": "uint256"
        }
      ],
      "stateMutability": "nonpayable",
      "type": "function"
    },
    {
      "inputs": [
        {
          "internalType": "uint256",
          "name": "blockTimestamp",
          "type": "uint256"
        }
      ],
      "name": "quorum",
      "outputs": [
        {
          "internalType": "uint256",
          "name": "",
          "type": "uint256"
        }
      ],
      "stateMutability": "view",
      "type": "function"
    },
    {
      "inputs": [],
      "name": "quorumDenominator",
      "outputs": [
        {
          "internalType": "uint256",
          "name": "",
          "type": "uint256"
        }
      ],
      "stateMutability": "view",
      "type": "function"
    },
    {
      "inputs": [],
      "name": "quorumNumerator",
      "outputs": [
        {
          "internalType": "uint256",
          "name": "",
          "type": "uint256"
        }
      ],
      "stateMutability": "view",
      "type": "function"
    },
    {
      "inputs": [
        {
          "internalType": "address",
          "name": "target",
          "type": "address"
        },
        {
          "internalType": "uint256",
          "name": "value",
          "type": "uint256"
        },
        {
          "internalType": "bytes",
          "name": "data",
          "type": "bytes"
        }
      ],
      "name": "relay",
      "outputs": [],
      "stateMutability": "nonpayable",
      "type": "function"
    },
    {
      "inputs": [
        {
          "internalType": "uint256",
          "name": "numerator",
          "type": "uint256"
        }
      ],
      "name": "setProposalNumerator",
      "outputs": [],
      "stateMutability": "nonpayable",
      "type": "function"
    },
    {
      "inputs": [
        {
          "internalType": "address",
          "name": "newTeam",
          "type": "address"
        }
      ],
      "name": "setTeam",
      "outputs": [],
      "stateMutability": "nonpayable",
      "type": "function"
    },
    {
      "inputs": [
        {
          "internalType": "uint256",
          "name": "proposalId",
          "type": "uint256"
        }
      ],
      "name": "state",
      "outputs": [
        {
          "internalType": "enum IGovernor.ProposalState",
          "name": "",
          "type": "uint8"
        }
      ],
      "stateMutability": "view",
      "type": "function"
    },
    {
      "inputs": [
        {
          "internalType": "bytes4",
          "name": "interfaceId",
          "type": "bytes4"
        }
      ],
      "name": "supportsInterface",
      "outputs": [
        {
          "internalType": "bool",
          "name": "",
          "type": "bool"
        }
      ],
      "stateMutability": "view",
      "type": "function"
    },
    {
      "inputs": [],
      "name": "team",
      "outputs": [
        {
          "internalType": "address",
          "name": "",
          "type": "address"
        }
      ],
      "stateMutability": "view",
      "type": "function"
    },
    {
      "inputs": [],
      "name": "token",
      "outputs": [
        {
          "internalType": "contract IVotes",
          "name": "",
          "type": "address"
        }
      ],
      "stateMutability": "view",
      "type": "function"
    },
    {
      "inputs": [
        {
          "internalType": "uint256",
          "name": "newQuorumNumerator",
          "type": "uint256"
        }
      ],
      "name": "updateQuorumNumerator",
      "outputs": [],
      "stateMutability": "nonpayable",
      "type": "function"
    },
    {
      "inputs": [],
      "name": "version",
      "outputs": [
        {
          "internalType": "string",
          "name": "",
          "type": "string"
        }
      ],
      "stateMutability": "view",
      "type": "function"
    },
    {
      "inputs": [],
      "name": "votingDelay",
      "outputs": [
        {
          "internalType": "uint256",
          "name": "",
          "type": "uint256"
        }
      ],
      "stateMutability": "pure",
      "type": "function"
    },
    {
      "inputs": [],
      "name": "votingPeriod",
      "outputs": [
        {
          "internalType": "uint256",
          "name": "",
          "type": "uint256"
        }
      ],
      "stateMutability": "pure",
      "type": "function"
    },
    {
      "stateMutability": "payable",
      "type": "receive"
    }
  ],
  "bytecode": "0x61016060405260026007553480156200001757600080fd5b50604051620032f5380380620032f58339810160408190526200003a91620002dd565b6004816040518060400160405280600e81526020016d2a3432b7309023b7bb32b93737b960911b81525080620000756200014f60201b60201c565b815160208084019190912082518383012060e08290526101008190524660a0818152604080517f8b73c3c69bb8fe3d512ecc4cf759cc79239f7b179b0ffacaa9a75d522b39400f81880181905281830187905260608201869052608082019490945230818401528151808203909301835260c00190528051940193909320919290916080523060c05261012052505082516200011b925060009150602084019062000237565b50506001600160a01b03166101405262000135816200016a565b5050600680546001600160a01b031916331790556200034b565b6040805180820190915260018152603160f81b602082015290565b6064811115620001f25760405162461bcd60e51b815260206004820152604360248201527f476f7665726e6f72566f74657351756f72756d4672616374696f6e3a2071756f60448201527f72756d4e756d657261746f72206f7665722071756f72756d44656e6f6d696e616064820152623a37b960e91b608482015260a40160405180910390fd5b600580549082905560408051828152602081018490527f0553476bf02ef2726e8ce5ced78d63e26e602e4a2257b1f559418e24b4633997910160405180910390a15050565b82805462000245906200030f565b90600052602060002090601f016020900481019282620002695760008555620002b4565b82601f106200028457805160ff1916838001178555620002b4565b82800160010185558215620002b4579182015b82811115620002b457825182559160200191906001019062000297565b50620002c2929150620002c6565b5090565b5b80821115620002c25760008155600101620002c7565b600060208284031215620002f057600080fd5b81516001600160a01b03811681146200030857600080fd5b9392505050565b600181811c908216806200032457607f821691505b6020821081036200034557634e487b7160e01b600052602260045260246000fd5b50919050565b60805160a05160c05160e051610100516101205161014051612f3a620003bb600039600081816107ea01528181611211015281816113e60152611a0801526000611b2501526000611b7401526000611b4f01526000611aa801526000611ad201526000611afc0152612f3a6000f3fe6080604052600436106102345760003560e01c80635f398a141161012e578063bc197c81116100ab578063deaaa7cc1161006f578063deaaa7cc14610738578063eb9019d41461076c578063f23a6e611461078c578063f8ce560a146107b8578063fc0c546a146107d857600080fd5b8063bc197c8114610666578063c01f9e3714610692578063c28bc2fa146106b2578063c59057e4146106d2578063dd4e2ba5146106f257600080fd5b806397c3d334116100f257806397c3d334146105f25780639a802a6d146106065780639f8b339214610626578063a7713a701461063c578063b58131b01461065157600080fd5b80635f398a141461054457806367e2e078146105645780637b3c71d31461057a5780637d5e81e21461059a57806385f2aef2146105ba57600080fd5b80632fe3e261116101bc578063501fa8bd11610180578063501fa8bd14610470578063544ffc9c1461048557806354fd4d50146104da5780635678138814610504578063592a84941461052457600080fd5b80632fe3e261146103905780633932abb1146103c45780633bccf4fd146103d95780633e4f49e6146103f9578063438596321461042657600080fd5b806306fdde031161020357806306fdde03146102d7578063095cf5c6146102f9578063150b7a02146103195780632656227d1461035d5780632d63f6931461037057600080fd5b806301ffc9a71461024257806302a251a314610277578063034201811461029757806306f3f9e6146102b757600080fd5b3661023d57005b005b600080fd5b34801561024e57600080fd5b5061026261025d36600461217a565b61080c565b60405190151581526020015b60405180910390f35b34801561028357600080fd5b5062093a805b60405190815260200161026e565b3480156102a357600080fd5b506102896102b23660046122bf565b610879565b3480156102c357600080fd5b5061023b6102d2366004612365565b610971565b3480156102e357600080fd5b506102ec6109e3565b60405161026e91906123da565b34801561030557600080fd5b5061023b610314366004612404565b610a75565b34801561032557600080fd5b5061034461033436600461241f565b630a85bd0160e11b949350505050565b6040516001600160e01b0319909116815260200161026e565b61028961036b3660046125f5565b610adc565b34801561037c57600080fd5b5061028961038b366004612365565b610c03565b34801561039c57600080fd5b506102897fb3b3f3b703cd84ce352197dcff232b1b5d3cfb2025ce47cf04742d0651f1af8881565b3480156103d057600080fd5b50610384610289565b3480156103e557600080fd5b506102896103f4366004612684565b610c3a565b34801561040557600080fd5b50610419610414366004612365565b610cb0565b60405161026e91906126e8565b34801561043257600080fd5b50610262610441366004612710565b60008281526004602090815260408083206001600160a01b038516845260030190915290205460ff1692915050565b34801561047c57600080fd5b50610289606481565b34801561049157600080fd5b506104bf6104a0366004612365565b6000908152600460205260409020805460018201546002909201549092565b6040805193845260208401929092529082015260600161026e565b3480156104e657600080fd5b506040805180820190915260018152603160f81b60208201526102ec565b34801561051057600080fd5b5061028961051f36600461273c565b610dbf565b34801561053057600080fd5b5061023b61053f366004612365565b610de8565b34801561055057600080fd5b5061028961055f36600461275f565b610e78565b34801561057057600080fd5b506102896103e881565b34801561058657600080fd5b506102896105953660046127e2565b610ec2565b3480156105a657600080fd5b506102896105b536600461283b565b610f14565b3480156105c657600080fd5b506006546105da906001600160a01b031681565b6040516001600160a01b03909116815260200161026e565b3480156105fe57600080fd5b506064610289565b34801561061257600080fd5b506102896106213660046128ef565b6111d3565b34801561063257600080fd5b5061028960075481565b34801561064857600080fd5b50600554610289565b34801561065d57600080fd5b506102896111ea565b34801561067257600080fd5b50610344610681366004612945565b63bc197c8160e01b95945050505050565b34801561069e57600080fd5b506102896106ad366004612365565b611295565b3480156106be57600080fd5b5061023b6106cd3660046129d4565b6112c4565b3480156106de57600080fd5b506102896106ed3660046125f5565b61136e565b3480156106fe57600080fd5b506040805180820190915260208082527f737570706f72743d627261766f2671756f72756d3d666f722c6162737461696e908201526102ec565b34801561074457600080fd5b506102897f150214d74d59b7d1e90c73fc22ef3d991dd0a76b046543d4d80ab92d2a50328f81565b34801561077857600080fd5b50610289610787366004612a15565b6113a8565b34801561079857600080fd5b506103446107a7366004612a3f565b63f23a6e6160e01b95945050505050565b3480156107c457600080fd5b506102896107d3366004612365565b6113c9565b3480156107e457600080fd5b506105da7f000000000000000000000000000000000000000000000000000000000000000081565b60006001600160e01b0319821663bf26d89760e01b148061083d57506001600160e01b031982166379dd796f60e01b145b8061085857506001600160e01b03198216630271189760e51b145b8061087357506301ffc9a760e01b6001600160e01b03198316145b92915050565b60008061091d6109157fb3b3f3b703cd84ce352197dcff232b1b5d3cfb2025ce47cf04742d0651f1af888c8c8c8c6040516108b5929190612aa3565b60405180910390208b805190602001206040516020016108fa959493929190948552602085019390935260ff9190911660408401526060830152608082015260a00190565b6040516020818303038152906040528051906020012061146d565b8686866114bb565b90506109638a828b8b8b8080601f0160208091040260200160405190810160405280939291908181526020018383808284376000920191909152508d92506114d9915050565b9a9950505050505050505050565b3330146109c05760405162461bcd60e51b8152602060048201526018602482015277476f7665726e6f723a206f6e6c79476f7665726e616e636560401b60448201526064015b60405180910390fd5b6109d7565b806109d0600261163e565b036109c557505b6109e0816116bd565b50565b6060600080546109f290612ab3565b80601f0160208091040260200160405190810160405280929190818152602001828054610a1e90612ab3565b8015610a6b5780601f10610a4057610100808354040283529160200191610a6b565b820191906000526020600020905b815481529060010190602001808311610a4e57829003601f168201915b5050505050905090565b6006546001600160a01b03163314610aba5760405162461bcd60e51b81526020600482015260086024820152676e6f74207465616d60c01b60448201526064016109b7565b600680546001600160a01b0319166001600160a01b0392909216919091179055565b600080610aeb8686868661136e565b90506000610af882610cb0565b90506004816007811115610b0e57610b0e6126d2565b1480610b2b57506005816007811115610b2957610b296126d2565b145b610b815760405162461bcd60e51b815260206004820152602160248201527f476f7665726e6f723a2070726f706f73616c206e6f74207375636365737366756044820152601b60fa1b60648201526084016109b7565b600082815260016020818152604092839020600201805460ff191690921790915590518381527f712ae1383f79ac853f8d882153778e0260ef8f03b504e2866e0593e04d2b291f910160405180910390a1610bdf8288888888611785565b610bec8288888888611811565b610bf98288888888611785565b5095945050505050565b60008181526001602090815260408083208151928301909152546001600160401b0316908190525b6001600160401b031692915050565b604080517f150214d74d59b7d1e90c73fc22ef3d991dd0a76b046543d4d80ab92d2a50328f602082015290810186905260ff851660608201526000908190610c8890610915906080016108fa565b9050610ca587828860405180602001604052806000815250611910565b979650505050505050565b6000818152600160205260408120600281015460ff1615610cd45750600792915050565b6002810154610100900460ff1615610cef5750600292915050565b6000610cfa84610c03565b905080600003610d4c5760405162461bcd60e51b815260206004820152601d60248201527f476f7665726e6f723a20756e6b6e6f776e2070726f706f73616c20696400000060448201526064016109b7565b428110610d5d575060009392505050565b6000610d6885611295565b9050428110610d7c57506001949350505050565b610d858561193c565b8015610da4575060008581526004602052604090208054600190910154115b15610db457506004949350505050565b506003949350505050565b600080339050610de084828560405180602001604052806000815250611910565b949350505050565b6006546001600160a01b03163314610e2d5760405162461bcd60e51b81526020600482015260086024820152676e6f74207465616d60c01b60448201526064016109b7565b6064811115610e735760405162461bcd60e51b81526020600482015260126024820152710dceadacae4c2e8dee440e8dede40d0d2ced60731b60448201526064016109b7565b600755565b600080339050610ca587828888888080601f0160208091040260200160405190810160405280939291908181526020018383808284376000920191909152508a92506114d9915050565b600080339050610f0a86828787878080601f01602080910402602001604051908101604052809392919081815260200183838082843760009201919091525061191092505050565b9695505050505050565b6000610f1e6111ea565b610f2d33610787600143612b03565b1015610f955760405162461bcd60e51b815260206004820152603160248201527f476f7665726e6f723a2070726f706f73657220766f7465732062656c6f7720706044820152701c9bdc1bdcd85b081d1a1c995cda1bdb19607a1b60648201526084016109b7565b6000610faa868686868051906020012061136e565b90508451865114610fcd5760405162461bcd60e51b81526004016109b790612b1a565b8351865114610fee5760405162461bcd60e51b81526004016109b790612b1a565b600086511161103f5760405162461bcd60e51b815260206004820152601860248201527f476f7665726e6f723a20656d7074792070726f706f73616c000000000000000060448201526064016109b7565b600081815260016020908152604091829020825191820190925281546001600160401b031690819052156110bf5760405162461bcd60e51b815260206004820152602160248201527f476f7665726e6f723a2070726f706f73616c20616c72656164792065786973746044820152607360f81b60648201526084016109b7565b60006110cc610384611973565b6110d542611973565b6110df9190612b5b565b905060006110ef62093a80611973565b6110f99083612b5b565b835467ffffffffffffffff19166001600160401b038416178455905060018301805467ffffffffffffffff19166001600160401b0383161790557f7d84a6263ae0d98d3329bd7b46bb4e8d6f98cd35a7adb45c274c8b7fd5ebd5e084338b8b8d516001600160401b0381111561117157611171612202565b6040519080825280602002602001820160405280156111a457816020015b606081526020019060019003908161118f5790505b508c88888e6040516111be99989796959493929190612c4f565b60405180910390a15091979650505050505050565b60006111e08484846119df565b90505b9392505050565b600754604051632394e7a360e21b81524260048201526000916103e8916001600160a01b037f00000000000000000000000000000000000000000000000000000000000000001690638e539e8c90602401602060405180830381865afa158015611258573d6000803e3d6000fd5b505050506040513d601f19601f8201168201806040525081019061127c9190612d3e565b6112869190612d57565b6112909190612d76565b905090565b60008181526001602081815260408084208151928301909152909101546001600160401b031690819052610c2b565b33301461130e5760405162461bcd60e51b8152602060048201526018602482015277476f7665726e6f723a206f6e6c79476f7665726e616e636560401b60448201526064016109b7565b611325565b8061131e600261163e565b0361131357505b6113678483838080601f016020809104026020016040519081016040528093929190818152602001838380828437600092019190915250889250611a75915050565b5050505050565b6000848484846040516020016113879493929190612d98565b60408051601f19818403018152919052805160209091012095945050505050565b60006111e383836113c460408051602081019091526000815290565b6119df565b60006064600554604051632394e7a360e21b8152600481018590527f00000000000000000000000000000000000000000000000000000000000000006001600160a01b031690638e539e8c90602401602060405180830381865afa158015611435573d6000803e3d6000fd5b505050506040513d601f19601f820116820180604052508101906114599190612d3e565b6114639190612d57565b6108739190612d76565b600061087361147a611a9b565b8360405161190160f01b6020820152602281018390526042810182905260009060620160405160208183030381529060405280519060200120905092915050565b60008060006114cc87878787611bc2565b91509150610bf981611caf565b60008581526001602081905260408220906114f388610cb0565b6007811115611504576115046126d2565b1461155d5760405162461bcd60e51b815260206004820152602360248201527f476f7665726e6f723a20766f7465206e6f742063757272656e746c792061637460448201526269766560e81b60648201526084016109b7565b604080516020810190915281546001600160401b031690819052600090611586908890866119df565b90506115958888888488611e65565b83516000036115ea57866001600160a01b03167fb8e138887d0aa13bab447e82de9d5c1777041ecd21ca36ba824ff1e6c07ddda4898884896040516115dd9493929190612de3565b60405180910390a2610ca5565b866001600160a01b03167fe2babfbac5889a709b63bb7f598b324e08bc5a4fb9ec647fb3cbc9ec07eb8712898884898960405161162b959493929190612e0b565b60405180910390a2979650505050505050565b60006116598254600f81810b600160801b909204900b131590565b1561167757604051631ed9509560e11b815260040160405180910390fd5b508054600f0b6000818152600180840160205260408220805492905583546fffffffffffffffffffffffffffffffff191692016001600160801b03169190911790915590565b60648111156117405760405162461bcd60e51b815260206004820152604360248201527f476f7665726e6f72566f74657351756f72756d4672616374696f6e3a2071756f60448201527f72756d4e756d657261746f72206f7665722071756f72756d44656e6f6d696e616064820152623a37b960e91b608482015260a4016109b7565b600580549082905560408051828152602081018490527f0553476bf02ef2726e8ce5ced78d63e26e602e4a2257b1f559418e24b4633997910160405180910390a15050565b611367565b845181101561180957306001600160a01b03168582815181106117af576117af612e51565b60200260200101516001600160a01b0316036117f9576117f98382815181106117da576117da612e51565b6020026020010151805190602001206002611fdf90919063ffffffff16565b61180281612e67565b905061178a565b505050505050565b6000604051806060016040528060278152602001612eb560279139905060005b85518110156119075760008087838151811061184f5761184f612e51565b60200260200101516001600160a01b031687848151811061187257611872612e51565b602002602001015187858151811061188c5761188c612e51565b60200260200101516040516118a19190612e80565b60006040518083038185875af1925050503d80600081146118de576040519150601f19603f3d011682016040523d82523d6000602084013e6118e3565b606091505b50915091506118f382828661201b565b5050508061190090612e67565b9050611831565b50505050505050565b60006119338585858561192e60408051602081019091526000815290565b6114d9565b95945050505050565b60008181526004602052604081206002810154600182015461195e9190612e9c565b61196a6107d385610c03565b11159392505050565b60006001600160401b038211156119db5760405162461bcd60e51b815260206004820152602660248201527f53616665436173743a2076616c756520646f65736e27742066697420696e203660448201526534206269747360d01b60648201526084016109b7565b5090565b604051630748d63560e31b81526001600160a01b038481166004830152602482018490526000917f000000000000000000000000000000000000000000000000000000000000000090911690633a46b1a890604401602060405180830381865afa158015611a51573d6000803e3d6000fd5b505050506040513d601f19601f820116820180604052508101906111e09190612d3e565b60606111e0848484604051806060016040528060298152602001612edc60299139612054565b6000306001600160a01b037f000000000000000000000000000000000000000000000000000000000000000016148015611af457507f000000000000000000000000000000000000000000000000000000000000000046145b15611b1e57507f000000000000000000000000000000000000000000000000000000000000000090565b50604080517f00000000000000000000000000000000000000000000000000000000000000006020808301919091527f0000000000000000000000000000000000000000000000000000000000000000828401527f000000000000000000000000000000000000000000000000000000000000000060608301524660808301523060a0808401919091528351808403909101815260c0909201909252805191012090565b6000807f7fffffffffffffffffffffffffffffff5d576e7357a4501ddfe92f46681b20a0831115611bf95750600090506003611ca6565b8460ff16601b14158015611c1157508460ff16601c14155b15611c225750600090506004611ca6565b6040805160008082526020820180845289905260ff881692820192909252606081018690526080810185905260019060a0016020604051602081039080840390855afa158015611c76573d6000803e3d6000fd5b5050604051601f1901519150506001600160a01b038116611c9f57600060019250925050611ca6565b9150600090505b94509492505050565b6000816004811115611cc357611cc36126d2565b03611ccb5750565b6001816004811115611cdf57611cdf6126d2565b03611d2c5760405162461bcd60e51b815260206004820152601860248201527f45434453413a20696e76616c6964207369676e6174757265000000000000000060448201526064016109b7565b6002816004811115611d4057611d406126d2565b03611d8d5760405162461bcd60e51b815260206004820152601f60248201527f45434453413a20696e76616c6964207369676e6174757265206c656e6774680060448201526064016109b7565b6003816004811115611da157611da16126d2565b03611df95760405162461bcd60e51b815260206004820152602260248201527f45434453413a20696e76616c6964207369676e6174757265202773272076616c604482015261756560f01b60648201526084016109b7565b6004816004811115611e0d57611e0d6126d2565b036109e05760405162461bcd60e51b815260206004820152602260248201527f45434453413a20696e76616c6964207369676e6174757265202776272076616c604482015261756560f01b60648201526084016109b7565b60008581526004602090815260408083206001600160a01b0388168452600381019092529091205460ff1615611eed5760405162461bcd60e51b815260206004820152602760248201527f476f7665726e6f72566f74696e6753696d706c653a20766f746520616c726561604482015266191e4818d85cdd60ca1b60648201526084016109b7565b6001600160a01b03851660009081526003820160205260409020805460ff1916600117905560ff8416611f395782816000016000828254611f2e9190612e9c565b909155506118099050565b60001960ff851601611f595782816001016000828254611f2e9190612e9c565b60011960ff851601611f795782816002016000828254611f2e9190612e9c565b60405162461bcd60e51b815260206004820152603560248201527f476f7665726e6f72566f74696e6753696d706c653a20696e76616c69642076616044820152746c756520666f7220656e756d20566f74655479706560581b60648201526084016109b7565b8154600160801b90819004600f0b6000818152600180860160205260409091209390935583546001600160801b03908116939091011602179055565b6060831561202a5750816111e3565b82511561203a5782518084602001fd5b8160405162461bcd60e51b81526004016109b791906123da565b6060824710156120b55760405162461bcd60e51b815260206004820152602660248201527f416464726573733a20696e73756666696369656e742062616c616e636520666f6044820152651c8818d85b1b60d21b60648201526084016109b7565b6001600160a01b0385163b61210c5760405162461bcd60e51b815260206004820152601d60248201527f416464726573733a2063616c6c20746f206e6f6e2d636f6e747261637400000060448201526064016109b7565b600080866001600160a01b031685876040516121289190612e80565b60006040518083038185875af1925050503d8060008114612165576040519150601f19603f3d011682016040523d82523d6000602084013e61216a565b606091505b5091509150610ca582828661201b565b60006020828403121561218c57600080fd5b81356001600160e01b0319811681146111e357600080fd5b803560ff811681146121b557600080fd5b919050565b60008083601f8401126121cc57600080fd5b5081356001600160401b038111156121e357600080fd5b6020830191508360208285010111156121fb57600080fd5b9250929050565b634e487b7160e01b600052604160045260246000fd5b604051601f8201601f191681016001600160401b038111828210171561224057612240612202565b604052919050565b60006001600160401b0383111561226157612261612202565b612274601f8401601f1916602001612218565b905082815283838301111561228857600080fd5b828260208301376000602084830101529392505050565b600082601f8301126122b057600080fd5b6111e383833560208501612248565b60008060008060008060008060e0898b0312156122db57600080fd5b883597506122eb60208a016121a4565b965060408901356001600160401b038082111561230757600080fd5b6123138c838d016121ba565b909850965060608b013591508082111561232c57600080fd5b506123398b828c0161229f565b94505061234860808a016121a4565b925060a0890135915060c089013590509295985092959890939650565b60006020828403121561237757600080fd5b5035919050565b60005b83811015612399578181015183820152602001612381565b838111156123a8576000848401525b50505050565b600081518084526123c681602086016020860161237e565b601f01601f19169290920160200192915050565b6020815260006111e360208301846123ae565b80356001600160a01b03811681146121b557600080fd5b60006020828403121561241657600080fd5b6111e3826123ed565b6000806000806080858703121561243557600080fd5b61243e856123ed565b935061244c602086016123ed565b92506040850135915060608501356001600160401b0381111561246e57600080fd5b61247a8782880161229f565b91505092959194509250565b60006001600160401b0382111561249f5761249f612202565b5060051b60200190565b600082601f8301126124ba57600080fd5b813560206124cf6124ca83612486565b612218565b82815260059290921b840181019181810190868411156124ee57600080fd5b8286015b8481101561251057612503816123ed565b83529183019183016124f2565b509695505050505050565b600082601f83011261252c57600080fd5b8135602061253c6124ca83612486565b82815260059290921b8401810191818101908684111561255b57600080fd5b8286015b84811015612510578035835291830191830161255f565b600082601f83011261258757600080fd5b813560206125976124ca83612486565b82815260059290921b840181019181810190868411156125b657600080fd5b8286015b848110156125105780356001600160401b038111156125d95760008081fd5b6125e78986838b010161229f565b8452509183019183016125ba565b6000806000806080858703121561260b57600080fd5b84356001600160401b038082111561262257600080fd5b61262e888389016124a9565b9550602087013591508082111561264457600080fd5b6126508883890161251b565b9450604087013591508082111561266657600080fd5b5061267387828801612576565b949793965093946060013593505050565b600080600080600060a0868803121561269c57600080fd5b853594506126ac602087016121a4565b93506126ba604087016121a4565b94979396509394606081013594506080013592915050565b634e487b7160e01b600052602160045260246000fd5b602081016008831061270a57634e487b7160e01b600052602160045260246000fd5b91905290565b6000806040838503121561272357600080fd5b82359150612733602084016123ed565b90509250929050565b6000806040838503121561274f57600080fd5b82359150612733602084016121a4565b60008060008060006080868803121561277757600080fd5b85359450612787602087016121a4565b935060408601356001600160401b03808211156127a357600080fd5b6127af89838a016121ba565b909550935060608801359150808211156127c857600080fd5b506127d58882890161229f565b9150509295509295909350565b600080600080606085870312156127f857600080fd5b84359350612808602086016121a4565b925060408501356001600160401b0381111561282357600080fd5b61282f878288016121ba565b95989497509550505050565b6000806000806080858703121561285157600080fd5b84356001600160401b038082111561286857600080fd5b612874888389016124a9565b9550602087013591508082111561288a57600080fd5b6128968883890161251b565b945060408701359150808211156128ac57600080fd5b6128b888838901612576565b935060608701359150808211156128ce57600080fd5b508501601f810187136128e057600080fd5b61247a87823560208401612248565b60008060006060848603121561290457600080fd5b61290d846123ed565b92506020840135915060408401356001600160401b0381111561292f57600080fd5b61293b8682870161229f565b9150509250925092565b600080600080600060a0868803121561295d57600080fd5b612966866123ed565b9450612974602087016123ed565b935060408601356001600160401b038082111561299057600080fd5b61299c89838a0161251b565b945060608801359150808211156129b257600080fd5b6129be89838a0161251b565b935060808801359150808211156127c857600080fd5b600080600080606085870312156129ea57600080fd5b6129f3856123ed565b93506020850135925060408501356001600160401b0381111561282357600080fd5b60008060408385031215612a2857600080fd5b612a31836123ed565b946020939093013593505050565b600080600080600060a08688031215612a5757600080fd5b612a60866123ed565b9450612a6e602087016123ed565b9350604086013592506060860135915060808601356001600160401b03811115612a9757600080fd5b6127d58882890161229f565b8183823760009101908152919050565b600181811c90821680612ac757607f821691505b602082108103612ae757634e487b7160e01b600052602260045260246000fd5b50919050565b634e487b7160e01b600052601160045260246000fd5b600082821015612b1557612b15612aed565b500390565b60208082526021908201527f476f7665726e6f723a20696e76616c69642070726f706f73616c206c656e67746040820152600d60fb1b606082015260800190565b60006001600160401b03808316818516808303821115612b7d57612b7d612aed565b01949350505050565b600081518084526020808501945080840160005b83811015612bbf5781516001600160a01b031687529582019590820190600101612b9a565b509495945050505050565b600081518084526020808501945080840160005b83811015612bbf57815187529582019590820190600101612bde565b600081518084526020808501808196508360051b8101915082860160005b85811015612c42578284038952612c308483516123ae565b98850198935090840190600101612c18565b5091979650505050505050565b60006101208b8352602060018060a01b038c1681850152816040850152612c788285018c612b86565b91508382036060850152612c8c828b612bca565b915083820360808501528189518084528284019150828160051b850101838c0160005b83811015612cdd57601f19878403018552612ccb8383516123ae565b94860194925090850190600101612caf565b505086810360a0880152612cf1818c612bfa565b945050505050612d0c60c08401876001600160401b03169052565b6001600160401b03851660e0840152828103610100840152612d2e81856123ae565b9c9b505050505050505050505050565b600060208284031215612d5057600080fd5b5051919050565b6000816000190483118215151615612d7157612d71612aed565b500290565b600082612d9357634e487b7160e01b600052601260045260246000fd5b500490565b608081526000612dab6080830187612b86565b8281036020840152612dbd8187612bca565b90508281036040840152612dd18186612bfa565b91505082606083015295945050505050565b84815260ff84166020820152826040820152608060608201526000610f0a60808301846123ae565b85815260ff8516602082015283604082015260a060608201526000612e3360a08301856123ae565b8281036080840152612e4581856123ae565b98975050505050505050565b634e487b7160e01b600052603260045260246000fd5b600060018201612e7957612e79612aed565b5060010190565b60008251612e9281846020870161237e565b9190910192915050565b60008219821115612eaf57612eaf612aed565b50019056fe476f7665726e6f723a2063616c6c20726576657274656420776974686f7574206d657373616765416464726573733a206c6f772d6c6576656c2063616c6c20776974682076616c7565206661696c6564a2646970667358221220a11834716f50526132ff750de4045d13efc145b4c5f860571803b8fd0e17a5a964736f6c634300080d0033",
  "linkReferences": {},
  "deployedLinkReferences": {}
}