{
  "_format": "hh-sol-artifact-1",
  "contractName": "Dibs",
  "sourceName": "contracts/Dibs.sol",
  "abi": [
    {
      "inputs": [],
      "name": "BalanceTooLow",
      "type": "error"
    },
    {
      "inputs": [],
      "name": "CodeAlreadyExists",
      "type": "error"
    },
    {
      "inputs": [],
      "name": "CodeDoesNotExist",
      "type": "error"
    },
    {
      "inputs": [],
      "name": "NotMuonInterface",
      "type": "error"
    },
    {
      "inputs": [],
      "name": "ZeroValue",
      "type": "error"
    },
    {
      "anonymous": false,
      "inputs": [
        {
          "indexed": true,
          "internalType": "address",
          "name": "_user",
          "type": "address"
        },
        {
          "indexed": false,
          "internalType": "uint256",
          "name": "_amount",
          "type": "uint256"
        },
        {
          "indexed": false,
          "internalType": "address",
          "name": "_to",
          "type": "address"
        },
        {
          "indexed": false,
          "internalType": "address",
          "name": "_token",
          "type": "address"
        }
      ],
      "name": "Claim",
      "type": "event"
    },
    {
      "anonymous": false,
      "inputs": [
        {
          "indexed": false,
          "internalType": "uint8",
          "name": "version",
          "type": "uint8"
        }
      ],
      "name": "Initialized",
      "type": "event"
    },
    {
      "anonymous": false,
      "inputs": [
        {
          "indexed": true,
          "internalType": "address",
          "name": "_address",
          "type": "address"
        },
        {
          "indexed": true,
          "internalType": "bytes32",
          "name": "_code",
          "type": "bytes32"
        },
        {
          "indexed": false,
          "internalType": "string",
          "name": "_name",
          "type": "string"
        },
        {
          "indexed": false,
          "internalType": "address",
          "name": "_parent",
          "type": "address"
        }
      ],
      "name": "Register",
      "type": "event"
    },
    {
      "anonymous": false,
      "inputs": [
        {
          "indexed": true,
          "internalType": "bytes32",
          "name": "role",
          "type": "bytes32"
        },
        {
          "indexed": true,
          "internalType": "bytes32",
          "name": "previousAdminRole",
          "type": "bytes32"
        },
        {
          "indexed": true,
          "internalType": "bytes32",
          "name": "newAdminRole",
          "type": "bytes32"
        }
      ],
      "name": "RoleAdminChanged",
      "type": "event"
    },
    {
      "anonymous": false,
      "inputs": [
        {
          "indexed": true,
          "internalType": "bytes32",
          "name": "role",
          "type": "bytes32"
        },
        {
          "indexed": true,
          "internalType": "address",
          "name": "account",
          "type": "address"
        },
        {
          "indexed": true,
          "internalType": "address",
          "name": "sender",
          "type": "address"
        }
      ],
      "name": "RoleGranted",
      "type": "event"
    },
    {
      "anonymous": false,
      "inputs": [
        {
          "indexed": true,
          "internalType": "bytes32",
          "name": "role",
          "type": "bytes32"
        },
        {
          "indexed": true,
          "internalType": "address",
          "name": "account",
          "type": "address"
        },
        {
          "indexed": true,
          "internalType": "address",
          "name": "sender",
          "type": "address"
        }
      ],
      "name": "RoleRevoked",
      "type": "event"
    },
    {
      "anonymous": false,
      "inputs": [
        {
          "indexed": false,
          "internalType": "uint32",
          "name": "_oldGrandparent",
          "type": "uint32"
        },
        {
          "indexed": false,
          "internalType": "uint32",
          "name": "_newGrandparent",
          "type": "uint32"
        },
        {
          "indexed": false,
          "internalType": "uint32",
          "name": "_oldDibs",
          "type": "uint32"
        },
        {
          "indexed": false,
          "internalType": "uint32",
          "name": "_newDibs",
          "type": "uint32"
        }
      ],
      "name": "SetGrandparentAndDibsPercentage",
      "type": "event"
    },
    {
      "anonymous": false,
      "inputs": [
        {
          "indexed": false,
          "internalType": "address",
          "name": "_old",
          "type": "address"
        },
        {
          "indexed": false,
          "internalType": "address",
          "name": "_new",
          "type": "address"
        }
      ],
      "name": "SetMuonInterface",
      "type": "event"
    },
    {
      "anonymous": false,
      "inputs": [
        {
          "indexed": false,
          "internalType": "address",
          "name": "_user",
          "type": "address"
        },
        {
          "indexed": false,
          "internalType": "address",
          "name": "_parent",
          "type": "address"
        }
      ],
      "name": "SetParent",
      "type": "event"
    },
    {
      "inputs": [],
      "name": "DEFAULT_ADMIN_ROLE",
      "outputs": [
        {
          "internalType": "bytes32",
          "name": "",
          "type": "bytes32"
        }
      ],
      "stateMutability": "view",
      "type": "function"
    },
    {
      "inputs": [],
      "name": "DIBS",
      "outputs": [
        {
          "internalType": "bytes32",
          "name": "",
          "type": "bytes32"
        }
      ],
      "stateMutability": "view",
      "type": "function"
    },
    {
      "inputs": [],
      "name": "SCALE",
      "outputs": [
        {
          "internalType": "uint32",
          "name": "",
          "type": "uint32"
        }
      ],
      "stateMutability": "view",
      "type": "function"
    },
    {
      "inputs": [],
      "name": "SETTER",
      "outputs": [
        {
          "internalType": "bytes32",
          "name": "",
          "type": "bytes32"
        }
      ],
      "stateMutability": "view",
      "type": "function"
    },
    {
      "inputs": [
        {
          "internalType": "address",
          "name": "",
          "type": "address"
        }
      ],
      "name": "addressToCode",
      "outputs": [
        {
          "internalType": "bytes32",
          "name": "",
          "type": "bytes32"
        }
      ],
      "stateMutability": "view",
      "type": "function"
    },
    {
      "inputs": [
        {
          "internalType": "address",
          "name": "from",
          "type": "address"
        },
        {
          "internalType": "address",
          "name": "token",
          "type": "address"
        },
        {
          "internalType": "uint256",
          "name": "amount",
          "type": "uint256"
        },
        {
          "internalType": "address",
          "name": "to",
          "type": "address"
        },
        {
          "internalType": "uint256",
          "name": "accumulativeBalance",
          "type": "uint256"
        }
      ],
      "name": "claim",
      "outputs": [],
      "stateMutability": "nonpayable",
      "type": "function"
    },
    {
      "inputs": [
        {
          "internalType": "address",
          "name": "",
          "type": "address"
        },
        {
          "internalType": "address",
          "name": "",
          "type": "address"
        }
      ],
      "name": "claimedBalance",
      "outputs": [
        {
          "internalType": "uint256",
          "name": "",
          "type": "uint256"
        }
      ],
      "stateMutability": "view",
      "type": "function"
    },
    {
      "inputs": [
        {
          "internalType": "bytes32",
          "name": "",
          "type": "bytes32"
        }
      ],
      "name": "codeToAddress",
      "outputs": [
        {
          "internalType": "address",
          "name": "",
          "type": "address"
        }
      ],
      "stateMutability": "view",
      "type": "function"
    },
    {
      "inputs": [
        {
          "internalType": "bytes32",
          "name": "",
          "type": "bytes32"
        }
      ],
      "name": "codeToName",
      "outputs": [
        {
          "internalType": "string",
          "name": "",
          "type": "string"
        }
      ],
      "stateMutability": "view",
      "type": "function"
    },
    {
      "inputs": [],
      "name": "dibsPercentage",
      "outputs": [
        {
          "internalType": "uint32",
          "name": "",
          "type": "uint32"
        }
      ],
      "stateMutability": "view",
      "type": "function"
    },
    {
      "inputs": [
        {
          "internalType": "address",
          "name": "user",
          "type": "address"
        }
      ],
      "name": "getCodeName",
      "outputs": [
        {
          "internalType": "string",
          "name": "",
          "type": "string"
        }
      ],
      "stateMutability": "view",
      "type": "function"
    },
    {
      "inputs": [
        {
          "internalType": "bytes32",
          "name": "role",
          "type": "bytes32"
        }
      ],
      "name": "getRoleAdmin",
      "outputs": [
        {
          "internalType": "bytes32",
          "name": "",
          "type": "bytes32"
        }
      ],
      "stateMutability": "view",
      "type": "function"
    },
    {
      "inputs": [],
      "name": "grandparentPercentage",
      "outputs": [
        {
          "internalType": "uint32",
          "name": "",
          "type": "uint32"
        }
      ],
      "stateMutability": "view",
      "type": "function"
    },
    {
      "inputs": [
        {
          "internalType": "bytes32",
          "name": "role",
          "type": "bytes32"
        },
        {
          "internalType": "address",
          "name": "account",
          "type": "address"
        }
      ],
      "name": "grantRole",
      "outputs": [],
      "stateMutability": "nonpayable",
      "type": "function"
    },
    {
      "inputs": [
        {
          "internalType": "bytes32",
          "name": "role",
          "type": "bytes32"
        },
        {
          "internalType": "address",
          "name": "account",
          "type": "address"
        }
      ],
      "name": "hasRole",
      "outputs": [
        {
          "internalType": "bool",
          "name": "",
          "type": "bool"
        }
      ],
      "stateMutability": "view",
      "type": "function"
    },
    {
      "inputs": [
        {
          "internalType": "address",
          "name": "dibs_",
          "type": "address"
        },
        {
          "internalType": "address",
          "name": "admin_",
          "type": "address"
        },
        {
          "internalType": "address",
          "name": "setter_",
          "type": "address"
        }
      ],
      "name": "initialize",
      "outputs": [],
      "stateMutability": "nonpayable",
      "type": "function"
    },
    {
      "inputs": [
        {
          "internalType": "address",
          "name": "",
          "type": "address"
        }
      ],
      "name": "parents",
      "outputs": [
        {
          "internalType": "address",
          "name": "",
          "type": "address"
        }
      ],
      "stateMutability": "view",
      "type": "function"
    },
    {
      "inputs": [
        {
          "internalType": "address",
          "name": "token",
          "type": "address"
        },
        {
          "internalType": "uint256",
          "name": "amount",
          "type": "uint256"
        },
        {
          "internalType": "address",
          "name": "to",
          "type": "address"
        }
      ],
      "name": "recoverERC20",
      "outputs": [],
      "stateMutability": "nonpayable",
      "type": "function"
    },
    {
      "inputs": [
        {
          "internalType": "address",
          "name": "user",
          "type": "address"
        },
        {
          "internalType": "string",
          "name": "name",
          "type": "string"
        },
        {
          "internalType": "bytes32",
          "name": "parentCode",
          "type": "bytes32"
        }
      ],
      "name": "register",
      "outputs": [],
      "stateMutability": "nonpayable",
      "type": "function"
    },
    {
      "inputs": [
        {
          "internalType": "bytes32",
          "name": "role",
          "type": "bytes32"
        },
        {
          "internalType": "address",
          "name": "account",
          "type": "address"
        }
      ],
      "name": "renounceRole",
      "outputs": [],
      "stateMutability": "nonpayable",
      "type": "function"
    },
    {
      "inputs": [
        {
          "internalType": "bytes32",
          "name": "role",
          "type": "bytes32"
        },
        {
          "internalType": "address",
          "name": "account",
          "type": "address"
        }
      ],
      "name": "revokeRole",
      "outputs": [],
      "stateMutability": "nonpayable",
      "type": "function"
    },
    {
      "inputs": [
        {
          "internalType": "uint32",
          "name": "_grandparentPercentage",
          "type": "uint32"
        },
        {
          "internalType": "uint32",
          "name": "_dibsPercentage",
          "type": "uint32"
        }
      ],
      "name": "setGrandparentAndDibsPercentage",
      "outputs": [],
      "stateMutability": "nonpayable",
      "type": "function"
    },
    {
      "inputs": [
        {
          "internalType": "address",
          "name": "_muonInterface",
          "type": "address"
        }
      ],
      "name": "setMuonInterface",
      "outputs": [],
      "stateMutability": "nonpayable",
      "type": "function"
    },
    {
      "inputs": [
        {
          "internalType": "address",
          "name": "user",
          "type": "address"
        },
        {
          "internalType": "address",
          "name": "parent",
          "type": "address"
        }
      ],
      "name": "setParent",
      "outputs": [],
      "stateMutability": "nonpayable",
      "type": "function"
    },
    {
      "inputs": [
        {
          "internalType": "bytes4",
          "name": "interfaceId",
          "type": "bytes4"
        }
      ],
      "name": "supportsInterface",
      "outputs": [
        {
          "internalType": "bool",
          "name": "",
          "type": "bool"
        }
      ],
      "stateMutability": "view",
      "type": "function"
    }
  ],
  "bytecode": "0x608060405234801561001057600080fd5b50611a65806100206000396000f3fe608060405234801561001057600080fd5b50600436106101735760003560e01c80637a8b2391116100de578063b51609b411610097578063d547741f11610071578063d547741f146103db578063ec338dd3146103ee578063eced552614610401578063fca16d351461041157600080fd5b8063b51609b414610395578063c0c53b8b146103a8578063c4f74631146103bb57600080fd5b80637a8b2391146102fe5780637cfc29951461032957806391d1485414610340578063a217fddf14610353578063b27e47fd1461035b578063b3204b8b1461038257600080fd5b8063310bb4c711610130578063310bb4c71461025a57806336568abe146102835780634cf409d01461029657806355032851146102ab578063622f1fa4146102be57806362c7f7bf146102d157600080fd5b806301ffc9a71461017857806316bd51c6146101a057806318b13fb2146101c0578063194d05f814610201578063248a9ca3146102165780632f2ff15d14610247575b600080fd5b61018b610186366004611542565b610424565b60405190151581526020015b60405180910390f35b6101b36101ae36600461156c565b61045b565b60405161019791906115dd565b6101e96101ce36600461160c565b609b602052600090815260409020546001600160a01b031681565b6040516001600160a01b039091168152602001610197565b61021461020f36600461163b565b6104f5565b005b61023961022436600461156c565b60009081526065602052604090206001015490565b604051908152602001610197565b61021461025536600461166e565b6105b7565b6101e961026836600461156c565b6099602052600090815260409020546001600160a01b031681565b61021461029136600461166e565b6105e1565b610239600080516020611a1083398151915281565b6102146102b93660046116a7565b610664565b6102146102cc366004611772565b610813565b609d546102e990640100000000900463ffffffff1681565b60405163ffffffff9091168152602001610197565b61023961030c3660046117c7565b609c60209081526000928352604080842090915290825290205481565b609d546102e990600160401b900463ffffffff1681565b61018b61034e36600461166e565b610852565b610239600081565b6102397f46179b40ce845b634390725b96cd52c6a6627d29c6f7a7d0d8951a4ec629afb181565b6102146103903660046117c7565b61087d565b6102146103a33660046117f1565b6108e2565b6102146103b636600461182d565b610907565b6102396103c936600461160c565b60986020526000908152604090205481565b6102146103e936600461166e565b610a25565b6101b36103fc36600461160c565b610a4a565b609d546102e99063ffffffff1681565b61021461041f36600461160c565b610b03565b60006001600160e01b03198216637965db0b60e01b148061045557506301ffc9a760e01b6001600160e01b03198316145b92915050565b609a602052600090815260409020805461047490611867565b80601f01602080910402602001604051908101604052809291908181526020018280546104a090611867565b80156104ed5780601f106104c2576101008083540402835291602001916104ed565b820191906000526020600020905b8154815290600101906020018083116104d057829003601f168201915b505050505081565b600080516020611a1083398151915261050d81610b85565b609d5460408051640100000000830463ffffffff90811682528681166020830152600160401b9093048316818301529184166060830152517f44546a51e47a23a8e2cd5164e5b2eeea7e5db5537cc93685de900ec2da5637939181900360800190a150609d80546bffffffffffffffff00000000191664010000000063ffffffff948516026bffffffff0000000000000000191617600160401b9290931691909102919091179055565b6000828152606560205260409020600101546105d281610b85565b6105dc8383610b92565b505050565b6001600160a01b03811633146106565760405162461bcd60e51b815260206004820152602f60248201527f416363657373436f6e74726f6c3a2063616e206f6e6c792072656e6f756e636560448201526e103937b632b9903337b91039b2b63360891b60648201526084015b60405180910390fd5b6106608282610c18565b5050565b815160000361068657604051637c946ed760e01b815260040160405180910390fd5b60008260405160200161069991906118a1565b60408051601f198184030181529181528151602092830120600081815260999093529120549091506001600160a01b0316156106e857604051636b3d055d60e11b815260040160405180910390fd5b6001600160a01b0384166000908152609860205260409020541561071f57604051636b3d055d60e11b815260040160405180910390fd5b6000828152609960205260409020546001600160a01b03168061075557604051631f0528b960e21b815260040160405180910390fd5b6001600160a01b03851660008181526098602090815260408083208690558583526099825280832080546001600160a01b031916909417909355609a815291902085516107a4928701906114a9565b506001600160a01b038581166000818152609b60205260409081902080546001600160a01b03191693851693841790555184927f1cd3aec182927ed949357aca1d08632f65b028e9fd0a40350efb75bfb65eea2b916108049189916118bd565b60405180910390a35050505050565b6097546001600160a01b0316331461083e576040516302d2cc5d60e21b815260040160405180910390fd5b61084b8486858585610c7f565b5050505050565b60009182526065602090815260408084206001600160a01b0393909316845291905290205460ff1690565b600080516020611a1083398151915261089581610b85565b604080516001600160a01b038086168252841660208201527fc2665b421edac973edb5d78b1e4dc19463d432cb4b48e6e45df4d21b914b26a2910160405180910390a16105dc8383610d8c565b60006108ed81610b85565b6109016001600160a01b0385168385610df7565b50505050565b600054610100900460ff16158080156109275750600054600160ff909116105b806109415750303b158015610941575060005460ff166001145b6109a45760405162461bcd60e51b815260206004820152602e60248201527f496e697469616c697a61626c653a20636f6e747261637420697320616c72656160448201526d191e481a5b9a5d1a585b1a5e995960921b606482015260840161064d565b6000805460ff1916600117905580156109c7576000805461ff0019166101001790555b6109cf610e49565b6109da848484610eb6565b8015610901576000805461ff0019169055604051600181527f7f26b83ff96e1f2b6a682f133852f6798a09c465da95921460cefb38474024989060200160405180910390a150505050565b600082815260656020526040902060010154610a4081610b85565b6105dc8383610c18565b6001600160a01b0381166000908152609860209081526040808320548352609a9091529020805460609190610a7e90611867565b80601f0160208091040260200160405190810160405280929190818152602001828054610aaa90611867565b8015610af75780601f10610acc57610100808354040283529160200191610af7565b820191906000526020600020905b815481529060010190602001808311610ada57829003601f168201915b50505050509050919050565b600080516020611a10833981519152610b1b81610b85565b609754604080516001600160a01b03928316815291841660208301527fa30cafc6422a2ce27a00b0d0fcde54c832555f6c634970a40767ef045669332b910160405180910390a150609780546001600160a01b0319166001600160a01b0392909216919091179055565b610b8f813361102f565b50565b610b9c8282610852565b6106605760008281526065602090815260408083206001600160a01b03851684529091529020805460ff19166001179055610bd43390565b6001600160a01b0316816001600160a01b0316837f2f8788117e7eff1d82e926ec794901d17c78024a50270940304540a733656f0d60405160405180910390a45050565b610c228282610852565b156106605760008281526065602090815260408083206001600160a01b0385168085529252808320805460ff1916905551339285917ff6391f5c32d9c69d2a47ea670b442974b53935d1edc7fd64eb21e047a839171b9190a45050565b6001600160a01b038086166000908152609c60209081526040808320938816835292905290812054610cb190836118fd565b905083811015610cd4576040516351940b3960e11b815260040160405180910390fd5b6001600160a01b038087166000908152609c6020908152604080832093891683529290529081208054869290610d0b908490611914565b90915550610d2590506001600160a01b0387168486610df7565b846001600160a01b03167f47e33510b7d5f9240a1e4ceef4d03aeb1042bc91766bc62320cbda8f318e7c62858589604051610d7c939291909283526001600160a01b03918216602084015216604082015260600190565b60405180910390a2505050505050565b6001600160a01b038281166000818152609b602090815260409182902080546001600160a01b031916948616948517905581519283528201929092527fc2665b421edac973edb5d78b1e4dc19463d432cb4b48e6e45df4d21b914b26a2910160405180910390a15050565b604080516001600160a01b038416602482015260448082018490528251808303909101815260649091019091526020810180516001600160e01b031663a9059cbb60e01b1790526105dc908490611088565b600054610100900460ff16610eb45760405162461bcd60e51b815260206004820152602b60248201527f496e697469616c697a61626c653a20636f6e7472616374206973206e6f74206960448201526a6e697469616c697a696e6760a81b606482015260840161064d565b565b6001600160a01b0382161580610ed357506001600160a01b038316155b80610ee557506001600160a01b038116155b15610f0357604051637c946ed760e01b815260040160405180910390fd5b610f0e60008361115a565b610f26600080516020611a108339815191528261115a565b610f507f46179b40ce845b634390725b96cd52c6a6627d29c6f7a7d0d8951a4ec629afb18461115a565b3060008181526098602090815260408083207f46179b40ce845b634390725b96cd52c6a6627d29c6f7a7d0d8951a4ec629afb1908190557fb60d551062515549f9376f2c59b8eef0b6685e30a7ec2bbe3bb39870f4f7c88b80546001600160a01b031916909517909455805180820190915260048152634449425360e01b81830190815293909252609a905251611008917f95433ab369eed16f2c8a8b0f5ed63422e7fbe29d6b9c104e566d7c432778b540916114a9565b5050609d80546bffffffffffffffffffffffff191669c3500003d090000f42401790555050565b6110398282610852565b6106605761104681611164565b611051836020611176565b60405160200161106292919061192c565b60408051601f198184030181529082905262461bcd60e51b825261064d916004016115dd565b60006110dd826040518060400160405280602081526020017f5361666545524332303a206c6f772d6c6576656c2063616c6c206661696c6564815250856001600160a01b03166113199092919063ffffffff16565b8051909150156105dc57808060200190518101906110fb91906119a1565b6105dc5760405162461bcd60e51b815260206004820152602a60248201527f5361666545524332303a204552433230206f7065726174696f6e20646964206e6044820152691bdd081cdd58d8d9595960b21b606482015260840161064d565b6106608282610b92565b60606104556001600160a01b03831660145b606060006111858360026119c3565b611190906002611914565b67ffffffffffffffff8111156111a8576111a8611691565b6040519080825280601f01601f1916602001820160405280156111d2576020820181803683370190505b509050600360fc1b816000815181106111ed576111ed6119e2565b60200101906001600160f81b031916908160001a905350600f60fb1b8160018151811061121c5761121c6119e2565b60200101906001600160f81b031916908160001a90535060006112408460026119c3565b61124b906001611914565b90505b60018111156112c3576f181899199a1a9b1b9c1cb0b131b232b360811b85600f166010811061127f5761127f6119e2565b1a60f81b828281518110611295576112956119e2565b60200101906001600160f81b031916908160001a90535060049490941c936112bc816119f8565b905061124e565b5083156113125760405162461bcd60e51b815260206004820181905260248201527f537472696e67733a20686578206c656e67746820696e73756666696369656e74604482015260640161064d565b9392505050565b60606113288484600085611330565b949350505050565b6060824710156113915760405162461bcd60e51b815260206004820152602660248201527f416464726573733a20696e73756666696369656e742062616c616e636520666f6044820152651c8818d85b1b60d21b606482015260840161064d565b600080866001600160a01b031685876040516113ad91906118a1565b60006040518083038185875af1925050503d80600081146113ea576040519150601f19603f3d011682016040523d82523d6000602084013e6113ef565b606091505b50915091506114008783838761140b565b979650505050505050565b6060831561147a578251600003611473576001600160a01b0385163b6114735760405162461bcd60e51b815260206004820152601d60248201527f416464726573733a2063616c6c20746f206e6f6e2d636f6e7472616374000000604482015260640161064d565b5081611328565b611328838381511561148f5781518083602001fd5b8060405162461bcd60e51b815260040161064d91906115dd565b8280546114b590611867565b90600052602060002090601f0160209004810192826114d7576000855561151d565b82601f106114f057805160ff191683800117855561151d565b8280016001018555821561151d579182015b8281111561151d578251825591602001919060010190611502565b5061152992915061152d565b5090565b5b80821115611529576000815560010161152e565b60006020828403121561155457600080fd5b81356001600160e01b03198116811461131257600080fd5b60006020828403121561157e57600080fd5b5035919050565b60005b838110156115a0578181015183820152602001611588565b838111156109015750506000910152565b600081518084526115c9816020860160208601611585565b601f01601f19169290920160200192915050565b60208152600061131260208301846115b1565b80356001600160a01b038116811461160757600080fd5b919050565b60006020828403121561161e57600080fd5b611312826115f0565b803563ffffffff8116811461160757600080fd5b6000806040838503121561164e57600080fd5b61165783611627565b915061166560208401611627565b90509250929050565b6000806040838503121561168157600080fd5b82359150611665602084016115f0565b634e487b7160e01b600052604160045260246000fd5b6000806000606084860312156116bc57600080fd5b6116c5846115f0565b9250602084013567ffffffffffffffff808211156116e257600080fd5b818601915086601f8301126116f657600080fd5b81358181111561170857611708611691565b604051601f8201601f19908116603f0116810190838211818310171561173057611730611691565b8160405282815289602084870101111561174957600080fd5b826020860160208301376000602084830101528096505050505050604084013590509250925092565b600080600080600060a0868803121561178a57600080fd5b611793866115f0565b94506117a1602087016115f0565b9350604086013592506117b6606087016115f0565b949793965091946080013592915050565b600080604083850312156117da57600080fd5b6117e3836115f0565b9150611665602084016115f0565b60008060006060848603121561180657600080fd5b61180f846115f0565b925060208401359150611824604085016115f0565b90509250925092565b60008060006060848603121561184257600080fd5b61184b846115f0565b9250611859602085016115f0565b9150611824604085016115f0565b600181811c9082168061187b57607f821691505b60208210810361189b57634e487b7160e01b600052602260045260246000fd5b50919050565b600082516118b3818460208701611585565b9190910192915050565b6040815260006118d060408301856115b1565b905060018060a01b03831660208301529392505050565b634e487b7160e01b600052601160045260246000fd5b60008282101561190f5761190f6118e7565b500390565b60008219821115611927576119276118e7565b500190565b7f416363657373436f6e74726f6c3a206163636f756e7420000000000000000000815260008351611964816017850160208801611585565b7001034b99036b4b9b9b4b733903937b6329607d1b6017918401918201528351611995816028840160208801611585565b01602801949350505050565b6000602082840312156119b357600080fd5b8151801515811461131257600080fd5b60008160001904831182151516156119dd576119dd6118e7565b500290565b634e487b7160e01b600052603260045260246000fd5b600081611a0757611a076118e7565b50600019019056fe8e4f01b2ef10e587f670bbfd448bba9a57a36fd9c81549b587269120cb62b24da264697066735822122091f6ef9207b7016b83b073f3709ce43e654bfac9893659b7304b259ed37e3f2d64736f6c634300080d0033",
  "linkReferences": {},
  "deployedLinkReferences": {}
}