{
  "_format": "hh-sol-artifact-1",
  "contractName": "VoterV2_1",
  "sourceName": "contracts/VoterV2_1.sol",
  "abi": [
    {
      "inputs": [],
      "stateMutability": "nonpayable",
      "type": "constructor"
    },
    {
      "anonymous": false,
      "inputs": [
        {
          "indexed": false,
          "internalType": "uint256",
          "name": "tokenId",
          "type": "uint256"
        },
        {
          "indexed": false,
          "internalType": "uint256",
          "name": "weight",
          "type": "uint256"
        }
      ],
      "name": "Abstained",
      "type": "event"
    },
    {
      "anonymous": false,
      "inputs": [
        {
          "indexed": true,
          "internalType": "address",
          "name": "owner",
          "type": "address"
        },
        {
          "indexed": true,
          "internalType": "address",
          "name": "gauge",
          "type": "address"
        },
        {
          "indexed": false,
          "internalType": "uint256",
          "name": "tokenId",
          "type": "uint256"
        }
      ],
      "name": "Attach",
      "type": "event"
    },
    {
      "anonymous": false,
      "inputs": [
        {
          "indexed": true,
          "internalType": "address",
          "name": "lp",
          "type": "address"
        },
        {
          "indexed": true,
          "internalType": "address",
          "name": "gauge",
          "type": "address"
        },
        {
          "indexed": false,
          "internalType": "uint256",
          "name": "tokenId",
          "type": "uint256"
        },
        {
          "indexed": false,
          "internalType": "uint256",
          "name": "amount",
          "type": "uint256"
        }
      ],
      "name": "Deposit",
      "type": "event"
    },
    {
      "anonymous": false,
      "inputs": [
        {
          "indexed": true,
          "internalType": "address",
          "name": "owner",
          "type": "address"
        },
        {
          "indexed": true,
          "internalType": "address",
          "name": "gauge",
          "type": "address"
        },
        {
          "indexed": false,
          "internalType": "uint256",
          "name": "tokenId",
          "type": "uint256"
        }
      ],
      "name": "Detach",
      "type": "event"
    },
    {
      "anonymous": false,
      "inputs": [
        {
          "indexed": true,
          "internalType": "address",
          "name": "sender",
          "type": "address"
        },
        {
          "indexed": true,
          "internalType": "address",
          "name": "gauge",
          "type": "address"
        },
        {
          "indexed": false,
          "internalType": "uint256",
          "name": "amount",
          "type": "uint256"
        }
      ],
      "name": "DistributeReward",
      "type": "event"
    },
    {
      "anonymous": false,
      "inputs": [
        {
          "indexed": true,
          "internalType": "address",
          "name": "gauge",
          "type": "address"
        },
        {
          "indexed": false,
          "internalType": "address",
          "name": "creator",
          "type": "address"
        },
        {
          "indexed": false,
          "internalType": "address",
          "name": "internal_bribe",
          "type": "address"
        },
        {
          "indexed": true,
          "internalType": "address",
          "name": "external_bribe",
          "type": "address"
        },
        {
          "indexed": true,
          "internalType": "address",
          "name": "pool",
          "type": "address"
        }
      ],
      "name": "GaugeCreated",
      "type": "event"
    },
    {
      "anonymous": false,
      "inputs": [
        {
          "indexed": true,
          "internalType": "address",
          "name": "gauge",
          "type": "address"
        }
      ],
      "name": "GaugeKilled",
      "type": "event"
    },
    {
      "anonymous": false,
      "inputs": [
        {
          "indexed": true,
          "internalType": "address",
          "name": "gauge",
          "type": "address"
        }
      ],
      "name": "GaugeRevived",
      "type": "event"
    },
    {
      "anonymous": false,
      "inputs": [
        {
          "indexed": false,
          "internalType": "uint8",
          "name": "version",
          "type": "uint8"
        }
      ],
      "name": "Initialized",
      "type": "event"
    },
    {
      "anonymous": false,
      "inputs": [
        {
          "indexed": true,
          "internalType": "address",
          "name": "sender",
          "type": "address"
        },
        {
          "indexed": true,
          "internalType": "address",
          "name": "reward",
          "type": "address"
        },
        {
          "indexed": false,
          "internalType": "uint256",
          "name": "amount",
          "type": "uint256"
        }
      ],
      "name": "NotifyReward",
      "type": "event"
    },
    {
      "anonymous": false,
      "inputs": [
        {
          "indexed": true,
          "internalType": "address",
          "name": "previousOwner",
          "type": "address"
        },
        {
          "indexed": true,
          "internalType": "address",
          "name": "newOwner",
          "type": "address"
        }
      ],
      "name": "OwnershipTransferred",
      "type": "event"
    },
    {
      "anonymous": false,
      "inputs": [
        {
          "indexed": true,
          "internalType": "address",
          "name": "voter",
          "type": "address"
        },
        {
          "indexed": false,
          "internalType": "uint256",
          "name": "tokenId",
          "type": "uint256"
        },
        {
          "indexed": false,
          "internalType": "uint256",
          "name": "weight",
          "type": "uint256"
        }
      ],
      "name": "Voted",
      "type": "event"
    },
    {
      "anonymous": false,
      "inputs": [
        {
          "indexed": true,
          "internalType": "address",
          "name": "whitelister",
          "type": "address"
        },
        {
          "indexed": true,
          "internalType": "address",
          "name": "token",
          "type": "address"
        }
      ],
      "name": "Whitelisted",
      "type": "event"
    },
    {
      "anonymous": false,
      "inputs": [
        {
          "indexed": true,
          "internalType": "address",
          "name": "lp",
          "type": "address"
        },
        {
          "indexed": true,
          "internalType": "address",
          "name": "gauge",
          "type": "address"
        },
        {
          "indexed": false,
          "internalType": "uint256",
          "name": "tokenId",
          "type": "uint256"
        },
        {
          "indexed": false,
          "internalType": "uint256",
          "name": "amount",
          "type": "uint256"
        }
      ],
      "name": "Withdraw",
      "type": "event"
    },
    {
      "inputs": [
        {
          "internalType": "address[]",
          "name": "_tokens",
          "type": "address[]"
        },
        {
          "internalType": "address",
          "name": "_minter",
          "type": "address"
        }
      ],
      "name": "_initialize",
      "outputs": [],
      "stateMutability": "nonpayable",
      "type": "function"
    },
    {
      "inputs": [],
      "name": "_ve",
      "outputs": [
        {
          "internalType": "address",
          "name": "",
          "type": "address"
        }
      ],
      "stateMutability": "view",
      "type": "function"
    },
    {
      "inputs": [
        {
          "internalType": "uint256",
          "name": "tokenId",
          "type": "uint256"
        },
        {
          "internalType": "address",
          "name": "account",
          "type": "address"
        }
      ],
      "name": "attachTokenToGauge",
      "outputs": [],
      "stateMutability": "nonpayable",
      "type": "function"
    },
    {
      "inputs": [],
      "name": "bribefactory",
      "outputs": [
        {
          "internalType": "address",
          "name": "",
          "type": "address"
        }
      ],
      "stateMutability": "view",
      "type": "function"
    },
    {
      "inputs": [
        {
          "internalType": "address[]",
          "name": "_bribes",
          "type": "address[]"
        },
        {
          "internalType": "address[][]",
          "name": "_tokens",
          "type": "address[][]"
        },
        {
          "internalType": "uint256",
          "name": "_tokenId",
          "type": "uint256"
        }
      ],
      "name": "claimBribes",
      "outputs": [],
      "stateMutability": "nonpayable",
      "type": "function"
    },
    {
      "inputs": [
        {
          "internalType": "address[]",
          "name": "_fees",
          "type": "address[]"
        },
        {
          "internalType": "address[][]",
          "name": "_tokens",
          "type": "address[][]"
        },
        {
          "internalType": "uint256",
          "name": "_tokenId",
          "type": "uint256"
        }
      ],
      "name": "claimFees",
      "outputs": [],
      "stateMutability": "nonpayable",
      "type": "function"
    },
    {
      "inputs": [
        {
          "internalType": "address[]",
          "name": "_gauges",
          "type": "address[]"
        },
        {
          "internalType": "address[][]",
          "name": "_tokens",
          "type": "address[][]"
        }
      ],
      "name": "claimRewards",
      "outputs": [],
      "stateMutability": "nonpayable",
      "type": "function"
    },
    {
      "inputs": [
        {
          "internalType": "address",
          "name": "",
          "type": "address"
        }
      ],
      "name": "claimable",
      "outputs": [
        {
          "internalType": "uint256",
          "name": "",
          "type": "uint256"
        }
      ],
      "stateMutability": "view",
      "type": "function"
    },
    {
      "inputs": [
        {
          "internalType": "address",
          "name": "_pool",
          "type": "address"
        }
      ],
      "name": "createGauge",
      "outputs": [
        {
          "internalType": "address",
          "name": "",
          "type": "address"
        }
      ],
      "stateMutability": "nonpayable",
      "type": "function"
    },
    {
      "inputs": [
        {
          "internalType": "uint256",
          "name": "tokenId",
          "type": "uint256"
        },
        {
          "internalType": "address",
          "name": "account",
          "type": "address"
        }
      ],
      "name": "detachTokenFromGauge",
      "outputs": [],
      "stateMutability": "nonpayable",
      "type": "function"
    },
    {
      "inputs": [
        {
          "internalType": "address[]",
          "name": "_gauges",
          "type": "address[]"
        }
      ],
      "name": "distribute",
      "outputs": [],
      "stateMutability": "nonpayable",
      "type": "function"
    },
    {
      "inputs": [
        {
          "internalType": "address",
          "name": "_gauge",
          "type": "address"
        }
      ],
      "name": "distribute",
      "outputs": [],
      "stateMutability": "nonpayable",
      "type": "function"
    },
    {
      "inputs": [
        {
          "internalType": "uint256",
          "name": "start",
          "type": "uint256"
        },
        {
          "internalType": "uint256",
          "name": "finish",
          "type": "uint256"
        }
      ],
      "name": "distribute",
      "outputs": [],
      "stateMutability": "nonpayable",
      "type": "function"
    },
    {
      "inputs": [],
      "name": "distributeAll",
      "outputs": [],
      "stateMutability": "nonpayable",
      "type": "function"
    },
    {
      "inputs": [
        {
          "internalType": "address[]",
          "name": "_gauges",
          "type": "address[]"
        }
      ],
      "name": "distributeFees",
      "outputs": [],
      "stateMutability": "nonpayable",
      "type": "function"
    },
    {
      "inputs": [],
      "name": "emergencyCouncil",
      "outputs": [
        {
          "internalType": "address",
          "name": "",
          "type": "address"
        }
      ],
      "stateMutability": "view",
      "type": "function"
    },
    {
      "inputs": [
        {
          "internalType": "uint256",
          "name": "tokenId",
          "type": "uint256"
        },
        {
          "internalType": "address",
          "name": "account",
          "type": "address"
        },
        {
          "internalType": "uint256",
          "name": "amount",
          "type": "uint256"
        }
      ],
      "name": "emitDeposit",
      "outputs": [],
      "stateMutability": "nonpayable",
      "type": "function"
    },
    {
      "inputs": [
        {
          "internalType": "uint256",
          "name": "tokenId",
          "type": "uint256"
        },
        {
          "internalType": "address",
          "name": "account",
          "type": "address"
        },
        {
          "internalType": "uint256",
          "name": "amount",
          "type": "uint256"
        }
      ],
      "name": "emitWithdraw",
      "outputs": [],
      "stateMutability": "nonpayable",
      "type": "function"
    },
    {
      "inputs": [
        {
          "internalType": "address",
          "name": "",
          "type": "address"
        }
      ],
      "name": "external_bribes",
      "outputs": [
        {
          "internalType": "address",
          "name": "",
          "type": "address"
        }
      ],
      "stateMutability": "view",
      "type": "function"
    },
    {
      "inputs": [],
      "name": "factory",
      "outputs": [
        {
          "internalType": "address",
          "name": "",
          "type": "address"
        }
      ],
      "stateMutability": "view",
      "type": "function"
    },
    {
      "inputs": [],
      "name": "gaugefactory",
      "outputs": [
        {
          "internalType": "address",
          "name": "",
          "type": "address"
        }
      ],
      "stateMutability": "view",
      "type": "function"
    },
    {
      "inputs": [
        {
          "internalType": "address",
          "name": "",
          "type": "address"
        }
      ],
      "name": "gauges",
      "outputs": [
        {
          "internalType": "address",
          "name": "",
          "type": "address"
        }
      ],
      "stateMutability": "view",
      "type": "function"
    },
    {
      "inputs": [
        {
          "internalType": "address",
          "name": "",
          "type": "address"
        }
      ],
      "name": "gaugesDistributionTimestmap",
      "outputs": [
        {
          "internalType": "uint256",
          "name": "",
          "type": "uint256"
        }
      ],
      "stateMutability": "view",
      "type": "function"
    },
    {
      "inputs": [],
      "name": "governor",
      "outputs": [
        {
          "internalType": "address",
          "name": "",
          "type": "address"
        }
      ],
      "stateMutability": "view",
      "type": "function"
    },
    {
      "inputs": [
        {
          "internalType": "address",
          "name": "_gauge",
          "type": "address"
        }
      ],
      "name": "increaseGaugeApprovals",
      "outputs": [],
      "stateMutability": "nonpayable",
      "type": "function"
    },
    {
      "inputs": [
        {
          "internalType": "address[]",
          "name": "_gauges",
          "type": "address[]"
        },
        {
          "internalType": "address[]",
          "name": "_pools",
          "type": "address[]"
        }
      ],
      "name": "initGauges",
      "outputs": [],
      "stateMutability": "nonpayable",
      "type": "function"
    },
    {
      "inputs": [
        {
          "internalType": "address",
          "name": "__ve",
          "type": "address"
        },
        {
          "internalType": "address",
          "name": "_factory",
          "type": "address"
        },
        {
          "internalType": "address",
          "name": "_gauges",
          "type": "address"
        },
        {
          "internalType": "address",
          "name": "_bribes",
          "type": "address"
        }
      ],
      "name": "initialize",
      "outputs": [],
      "stateMutability": "nonpayable",
      "type": "function"
    },
    {
      "inputs": [
        {
          "internalType": "address",
          "name": "",
          "type": "address"
        }
      ],
      "name": "internal_bribes",
      "outputs": [
        {
          "internalType": "address",
          "name": "",
          "type": "address"
        }
      ],
      "stateMutability": "view",
      "type": "function"
    },
    {
      "inputs": [
        {
          "internalType": "address",
          "name": "",
          "type": "address"
        }
      ],
      "name": "isAlive",
      "outputs": [
        {
          "internalType": "bool",
          "name": "",
          "type": "bool"
        }
      ],
      "stateMutability": "view",
      "type": "function"
    },
    {
      "inputs": [
        {
          "internalType": "address",
          "name": "",
          "type": "address"
        }
      ],
      "name": "isGauge",
      "outputs": [
        {
          "internalType": "bool",
          "name": "",
          "type": "bool"
        }
      ],
      "stateMutability": "view",
      "type": "function"
    },
    {
      "inputs": [
        {
          "internalType": "address",
          "name": "",
          "type": "address"
        }
      ],
      "name": "isWhitelisted",
      "outputs": [
        {
          "internalType": "bool",
          "name": "",
          "type": "bool"
        }
      ],
      "stateMutability": "view",
      "type": "function"
    },
    {
      "inputs": [
        {
          "internalType": "address",
          "name": "_gauge",
          "type": "address"
        }
      ],
      "name": "killGauge",
      "outputs": [],
      "stateMutability": "nonpayable",
      "type": "function"
    },
    {
      "inputs": [
        {
          "internalType": "address",
          "name": "_gauge",
          "type": "address"
        }
      ],
      "name": "killGaugeTotally",
      "outputs": [],
      "stateMutability": "nonpayable",
      "type": "function"
    },
    {
      "inputs": [
        {
          "internalType": "uint256",
          "name": "",
          "type": "uint256"
        }
      ],
      "name": "lastVoted",
      "outputs": [
        {
          "internalType": "uint256",
          "name": "",
          "type": "uint256"
        }
      ],
      "stateMutability": "view",
      "type": "function"
    },
    {
      "inputs": [],
      "name": "length",
      "outputs": [
        {
          "internalType": "uint256",
          "name": "",
          "type": "uint256"
        }
      ],
      "stateMutability": "view",
      "type": "function"
    },
    {
      "inputs": [],
      "name": "minter",
      "outputs": [
        {
          "internalType": "address",
          "name": "",
          "type": "address"
        }
      ],
      "stateMutability": "view",
      "type": "function"
    },
    {
      "inputs": [
        {
          "internalType": "uint256",
          "name": "amount",
          "type": "uint256"
        }
      ],
      "name": "notifyRewardAmount",
      "outputs": [],
      "stateMutability": "nonpayable",
      "type": "function"
    },
    {
      "inputs": [],
      "name": "owner",
      "outputs": [
        {
          "internalType": "address",
          "name": "",
          "type": "address"
        }
      ],
      "stateMutability": "view",
      "type": "function"
    },
    {
      "inputs": [
        {
          "internalType": "uint256",
          "name": "_tokenId",
          "type": "uint256"
        }
      ],
      "name": "poke",
      "outputs": [],
      "stateMutability": "nonpayable",
      "type": "function"
    },
    {
      "inputs": [
        {
          "internalType": "address",
          "name": "",
          "type": "address"
        }
      ],
      "name": "poolForGauge",
      "outputs": [
        {
          "internalType": "address",
          "name": "",
          "type": "address"
        }
      ],
      "stateMutability": "view",
      "type": "function"
    },
    {
      "inputs": [
        {
          "internalType": "uint256",
          "name": "",
          "type": "uint256"
        },
        {
          "internalType": "uint256",
          "name": "",
          "type": "uint256"
        }
      ],
      "name": "poolVote",
      "outputs": [
        {
          "internalType": "address",
          "name": "",
          "type": "address"
        }
      ],
      "stateMutability": "view",
      "type": "function"
    },
    {
      "inputs": [
        {
          "internalType": "uint256",
          "name": "tokenId",
          "type": "uint256"
        }
      ],
      "name": "poolVoteLength",
      "outputs": [
        {
          "internalType": "uint256",
          "name": "",
          "type": "uint256"
        }
      ],
      "stateMutability": "view",
      "type": "function"
    },
    {
      "inputs": [
        {
          "internalType": "uint256",
          "name": "",
          "type": "uint256"
        }
      ],
      "name": "pools",
      "outputs": [
        {
          "internalType": "address",
          "name": "",
          "type": "address"
        }
      ],
      "stateMutability": "view",
      "type": "function"
    },
    {
      "inputs": [],
      "name": "renounceOwnership",
      "outputs": [],
      "stateMutability": "nonpayable",
      "type": "function"
    },
    {
      "inputs": [
        {
          "internalType": "uint256",
          "name": "_tokenId",
          "type": "uint256"
        }
      ],
      "name": "reset",
      "outputs": [],
      "stateMutability": "nonpayable",
      "type": "function"
    },
    {
      "inputs": [
        {
          "internalType": "address",
          "name": "_gauge",
          "type": "address"
        }
      ],
      "name": "reviveGauge",
      "outputs": [],
      "stateMutability": "nonpayable",
      "type": "function"
    },
    {
      "inputs": [
        {
          "internalType": "address",
          "name": "_bribeFactory",
          "type": "address"
        }
      ],
      "name": "setBribeFactory",
      "outputs": [],
      "stateMutability": "nonpayable",
      "type": "function"
    },
    {
      "inputs": [
        {
          "internalType": "address",
          "name": "_council",
          "type": "address"
        }
      ],
      "name": "setEmergencyCouncil",
      "outputs": [],
      "stateMutability": "nonpayable",
      "type": "function"
    },
    {
      "inputs": [
        {
          "internalType": "address",
          "name": "_gaugeFactory",
          "type": "address"
        }
      ],
      "name": "setGaugeFactory",
      "outputs": [],
      "stateMutability": "nonpayable",
      "type": "function"
    },
    {
      "inputs": [
        {
          "internalType": "address",
          "name": "_governor",
          "type": "address"
        }
      ],
      "name": "setGovernor",
      "outputs": [],
      "stateMutability": "nonpayable",
      "type": "function"
    },
    {
      "inputs": [
        {
          "internalType": "address",
          "name": "_minter",
          "type": "address"
        }
      ],
      "name": "setMinter",
      "outputs": [],
      "stateMutability": "nonpayable",
      "type": "function"
    },
    {
      "inputs": [
        {
          "internalType": "address",
          "name": "_gauge",
          "type": "address"
        },
        {
          "internalType": "address",
          "name": "_internal",
          "type": "address"
        },
        {
          "internalType": "address",
          "name": "_external",
          "type": "address"
        }
      ],
      "name": "setNewBribe",
      "outputs": [],
      "stateMutability": "nonpayable",
      "type": "function"
    },
    {
      "inputs": [
        {
          "internalType": "address",
          "name": "_factory",
          "type": "address"
        }
      ],
      "name": "setPairFactory",
      "outputs": [],
      "stateMutability": "nonpayable",
      "type": "function"
    },
    {
      "inputs": [],
      "name": "totalWeight",
      "outputs": [
        {
          "internalType": "uint256",
          "name": "",
          "type": "uint256"
        }
      ],
      "stateMutability": "view",
      "type": "function"
    },
    {
      "inputs": [
        {
          "internalType": "address",
          "name": "newOwner",
          "type": "address"
        }
      ],
      "name": "transferOwnership",
      "outputs": [],
      "stateMutability": "nonpayable",
      "type": "function"
    },
    {
      "inputs": [],
      "name": "updateAll",
      "outputs": [],
      "stateMutability": "nonpayable",
      "type": "function"
    },
    {
      "inputs": [
        {
          "internalType": "address[]",
          "name": "_gauges",
          "type": "address[]"
        }
      ],
      "name": "updateFor",
      "outputs": [],
      "stateMutability": "nonpayable",
      "type": "function"
    },
    {
      "inputs": [
        {
          "internalType": "uint256",
          "name": "start",
          "type": "uint256"
        },
        {
          "internalType": "uint256",
          "name": "end",
          "type": "uint256"
        }
      ],
      "name": "updateForRange",
      "outputs": [],
      "stateMutability": "nonpayable",
      "type": "function"
    },
    {
      "inputs": [
        {
          "internalType": "address",
          "name": "_gauge",
          "type": "address"
        }
      ],
      "name": "updateGauge",
      "outputs": [],
      "stateMutability": "nonpayable",
      "type": "function"
    },
    {
      "inputs": [
        {
          "internalType": "uint256",
          "name": "",
          "type": "uint256"
        }
      ],
      "name": "usedWeights",
      "outputs": [
        {
          "internalType": "uint256",
          "name": "",
          "type": "uint256"
        }
      ],
      "stateMutability": "view",
      "type": "function"
    },
    {
      "inputs": [
        {
          "internalType": "uint256",
          "name": "_tokenId",
          "type": "uint256"
        },
        {
          "internalType": "address[]",
          "name": "_poolVote",
          "type": "address[]"
        },
        {
          "internalType": "uint256[]",
          "name": "_weights",
          "type": "uint256[]"
        }
      ],
      "name": "vote",
      "outputs": [],
      "stateMutability": "nonpayable",
      "type": "function"
    },
    {
      "inputs": [
        {
          "internalType": "uint256",
          "name": "",
          "type": "uint256"
        },
        {
          "internalType": "address",
          "name": "",
          "type": "address"
        }
      ],
      "name": "votes",
      "outputs": [
        {
          "internalType": "uint256",
          "name": "",
          "type": "uint256"
        }
      ],
      "stateMutability": "view",
      "type": "function"
    },
    {
      "inputs": [
        {
          "internalType": "address",
          "name": "",
          "type": "address"
        }
      ],
      "name": "weights",
      "outputs": [
        {
          "internalType": "uint256",
          "name": "",
          "type": "uint256"
        }
      ],
      "stateMutability": "view",
      "type": "function"
    },
    {
      "inputs": [
        {
          "internalType": "address",
          "name": "_token",
          "type": "address"
        }
      ],
      "name": "whitelist",
      "outputs": [],
      "stateMutability": "nonpayable",
      "type": "function"
    },
    {
      "inputs": [
        {
          "internalType": "address[]",
          "name": "_token",
          "type": "address[]"
        }
      ],
      "name": "whitelist",
      "outputs": [],
      "stateMutability": "nonpayable",
      "type": "function"
    }
  ],
  "bytecode": "0x608060405234801561001057600080fd5b5061453e806100206000396000f3fe608060405234801561001057600080fd5b50600436106103db5760003560e01c80638da5cb5b1161020a578063ae21c4cb11610125578063d560b0d7116100b8578063f2fde38b11610087578063f2fde38b14610936578063f3594be014610949578063f8c8765e14610969578063fca3b5aa1461097c578063ff5f03be1461098f57600080fd5b8063d560b0d7146108d4578063e586875f146108e7578063ea94ee44146108fa578063eae40f261461090d57600080fd5b8063c445d88a116100f4578063c445d88a14610863578063c45a015514610883578063c527ee1f14610896578063d23254b4146108a957600080fd5b8063ae21c4cb146107eb578063b9a09fd514610814578063bd8aa7801461083d578063c42cf5351461085057600080fd5b8063a5f4301e1161019d578063a86a366d1161016c578063a86a366d1461078f578063a9b5aa7e146107a2578063aa79979b146107b5578063ac4afa38146107d857600080fd5b8063a5f4301e14610736578063a61c713a14610749578063a6357ac61461075c578063a7cac8461461076f57600080fd5b80639b19251a116101d95780639b19251a146106ea5780639b6a9d72146106fd5780639edfd460146107105780639f06247b1461072357600080fd5b80638da5cb5b146106aa5780638dd598fb146106bb57806396c82e57146106ce578063992a7933146106d757600080fd5b806353d78693116102fa5780636ecbe38a1161028d5780637778960e1161025c5780637778960e146106515780637964bac91461066457806379e93824146106775780637ac09bf71461069757600080fd5b80636ecbe38a14610610578063715018a6146106235780637625391a1461062b5780637715ee751461063e57600080fd5b80636447e7da116102c95780636447e7da146105b7578063666256aa146105d757806368c3acb3146105ea578063698473e3146105fd57600080fd5b806353d7869314610576578063556e091d1461057e5780636138889b1461059157806363453ae1146105a457600080fd5b8063310bd74b116103725780633c6b16ab116103415780633c6b16ab14610528578063402914f51461053b578063411b1f771461055b578063436596c41461056e57600080fd5b8063310bd74b146104cc57806332145f90146104df57806338752a9d146104f25780633af32abf1461050557600080fd5b80631703e5f9116103ae5780631703e5f9146104615780631f7b6d321461049457806320b1cb6f146104a657806323130d11146104b957600080fd5b8063046fddf3146103e057806306d6a1b2146103f5578063075461721461043b5780630c340a241461044e575b600080fd5b6103f36103ee366004613c5b565b6109a2565b005b61041e610403366004613cad565b60a6602052600090815260409020546001600160a01b031681565b6040516001600160a01b0390911681526020015b60405180910390f35b609c5461041e906001600160a01b031681565b609d5461041e906001600160a01b031681565b61048461046f366004613cad565b60b06020526000908152604090205460ff1681565b6040519015158152602001610432565b60a3545b604051908152602001610432565b6103f36104b4366004613d51565b610a32565b6103f36104c7366004613cad565b610ae8565b6103f36104da366004613db5565b610b21565b6103f36104ed366004613db5565b610c4d565b609b5461041e906001600160a01b031681565b610484610513366004613cad565b60af6020526000908152604090205460ff1681565b6103f3610536366004613db5565b610e45565b610498610549366004613cad565b60a16020526000908152604090205481565b6103f3610569366004613dce565b610ee8565b6103f3610fa6565b6103f3610fb7565b6103f361058c366004613cad565b610fc6565b6103f361059f366004613df3565b6110f2565b6103f36105b2366004613cad565b611132565b6104986105c5366004613db5565b600090815260ab602052604090205490565b6103f36105e5366004613e30565b611346565b609a5461041e906001600160a01b031681565b6103f361060b366004613dce565b611479565b6103f361061e366004613cad565b611553565b6103f361155f565b6103f3610639366004613e9d565b611571565b6103f361064c366004613e30565b6115d7565b609e5461041e906001600160a01b031681565b6103f3610672366004613cad565b611704565b610498610685366004613db5565b60ac6020526000908152604090205481565b6103f36106a5366004613f0b565b61173d565b6033546001600160a01b031661041e565b60975461041e906001600160a01b031681565b61049860a25481565b6103f36106e5366004613cad565b61186a565b6103f36106f8366004613cad565b611947565b6103f361070b366004613e9d565b611967565b6103f361071e366004613cad565b6119cd565b6103f3610731366004613cad565b611b13565b61041e610744366004613cad565b611be8565b6103f3610757366004613f85565b6124f7565b6103f361076a366004613fbd565b61257b565b61049861077d366004613cad565b60a96020526000908152604090205481565b61041e61079d366004613e9d565b6125f9565b6103f36107b0366004613cad565b612631565b6104846107c3366004613cad565b60ae6020526000908152604090205460ff1681565b61041e6107e6366004613db5565b61266a565b61041e6107f9366004613cad565b60a8602052600090815260409020546001600160a01b031681565b61041e610822366004613cad565b60a4602052600090815260409020546001600160a01b031681565b6103f361084b366004613df3565b612694565b6103f361085e366004613cad565b6126de565b610498610871366004613cad565b60a56020526000908152604090205481565b60985461041e906001600160a01b031681565b6103f36108a4366004613df3565b612717565b6104986108b7366004613dce565b60aa60209081526000928352604080842090915290825290205481565b6103f36108e2366004613df3565b612834565b6103f36108f5366004613cad565b612874565b6103f3610908366004613f85565b6128ad565b61041e61091b366004613cad565b60a7602052600090815260409020546001600160a01b031681565b6103f3610944366004613cad565b61290c565b610498610957366004613db5565b60ad6020526000908152604090205481565b6103f3610977366004614008565b612982565b6103f361098a366004613cad565b612b88565b6103f361099d366004614064565b612bc1565b609c546001600160a01b03163314806109c55750609e546001600160a01b031633145b6109ce57600080fd5b60005b8251811015610a0e576109fc8382815181106109ef576109ef6140be565b6020026020010151613076565b80610a06816140ea565b9150506109d1565b50609c80546001600160a01b0319166001600160a01b039290921691909117905550565b60005b8251811015610ae357828181518110610a5057610a506140be565b60200260200101516001600160a01b03166331279d3d33848481518110610a7957610a796140be565b60200260200101516040518363ffffffff1660e01b8152600401610a9e929190614147565b600060405180830381600087803b158015610ab857600080fd5b505af1158015610acc573d6000803e3d6000fd5b505050508080610adb906140ea565b915050610a35565b505050565b609e546001600160a01b03163314610aff57600080fd5b609a80546001600160a01b0319166001600160a01b0392909216919091179055565b600260655403610b4c5760405162461bcd60e51b8152600401610b439061416b565b60405180910390fd5b600260655560975460405163430c208160e01b81526001600160a01b039091169063430c208190610b8390339085906004016141a2565b602060405180830381865afa158015610ba0573d6000803e3d6000fd5b505050506040513d601f19601f82011682018060405250810190610bc491906141bb565b610bcd57600080fd5b600081815260ad60205260409020429055610be7816130e9565b60975460405163c1f0fb9f60e01b8152600481018390526001600160a01b039091169063c1f0fb9f90602401600060405180830381600087803b158015610c2d57600080fd5b505af1158015610c41573d6000803e3d6000fd5b50506001606555505050565b600260655403610c6f5760405162461bcd60e51b8152600401610b439061416b565b600260655560975460405163430c208160e01b81526001600160a01b039091169063430c208190610ca690339085906004016141a2565b602060405180830381865afa158015610cc3573d6000803e3d6000fd5b505050506040513d601f19601f82011682018060405250810190610ce791906141bb565b610cf057600080fd5b600081815260ab6020908152604080832080548251818502810185019093528083529192909190830182828015610d5057602002820191906000526020600020905b81546001600160a01b03168152600190910190602001808311610d32575b5050505050905060008151905060008167ffffffffffffffff811115610d7857610d78613b67565b604051908082528060200260200182016040528015610da1578160200160208202803683370190505b50905060005b82811015610e2e5760aa60008681526020019081526020016000206000858381518110610dd657610dd66140be565b60200260200101516001600160a01b03166001600160a01b0316815260200190815260200160002054828281518110610e1157610e116140be565b602090810291909101015280610e26816140ea565b915050610da7565b50610e3a848483613390565b505060016065555050565b609954610e5d906001600160a01b03163330846137d4565b60a254600090610e7583670de0b6b3a76400006141dd565b610e7f91906141fc565b90508015610e9f5780609f6000828254610e99919061421e565b90915550505b6099546040518381526001600160a01b039091169033907ff70d5c697de7ea828df48e5c4573cb2194c659f1901f70110c52b066dcf50826906020015b60405180910390a35050565b33600090815260ae602052604090205460ff16610f0457600080fd5b8115610f6957609754604051634c35bec560e11b8152600481018490526001600160a01b039091169063986b7d8a90602401600060405180830381600087803b158015610f5057600080fd5b505af1158015610f64573d6000803e3d6000fd5b505050505b60405182815233906001600160a01b038316907fae268d9aab12f3605f58efd74fd3801fa812b03fdb44317eb70f46dff0e19e2290602001610edc565b60a354610fb590600090611571565b565b60a354610fb590600090611967565b609e546001600160a01b03163314610fdd57600080fd5b6001600160a01b038116600090815260ae60205260409020805460ff1916600117905560995460405163095ea7b360e01b81526001600160a01b039091169063095ea7b3906110339084906000906004016141a2565b6020604051808303816000875af1158015611052573d6000803e3d6000fd5b505050506040513d601f19601f8201168201806040525081019061107691906141bb565b5060995460405163095ea7b360e01b81526001600160a01b039091169063095ea7b3906110ab908490600019906004016141a2565b6020604051808303816000875af11580156110ca573d6000803e3d6000fd5b505050506040513d601f19601f820116820180604052508101906110ee91906141bb565b5050565b60005b81518110156110ee57611120828281518110611113576111136140be565b6020026020010151611132565b8061112a816140ea565b9150506110f5565b6002606554036111545760405162461bcd60e51b8152600401610b439061416b565b6002606555609c546040805163ed29fc1160e01b815290516001600160a01b039092169163ed29fc119160048082019260209290919082900301816000875af11580156111a5573d6000803e3d6000fd5b505050506040513d601f19601f820116820180604052508101906111c99190614236565b506111d3816138cc565b6001600160a01b03808216600090815260a1602090815260408083205460a5835281842054609c548351631a2732c160e31b81529351929691959491169263d139960892600480830193928290030181865afa158015611237573d6000803e3d6000fd5b505050506040513d601f19601f8201168201806040525081019061125b9190614236565b905060008311801561126c57508082105b15610e3a576001600160a01b03808516600081815260a1602052604080822091909155609954905163b66503cf60e01b8152919263b66503cf926112b8929091169087906004016141a2565b600060405180830381600087803b1580156112d257600080fd5b505af11580156112e6573d6000803e3d6000fd5b505050506001600160a01b038416600081815260a56020908152604091829020849055905185815233917f4fa9693cae526341d334e2862ca2413b2e503f1266255f9e0869fb36e6d89b17910160405180910390a3505060016065555050565b60975460405163430c208160e01b81526001600160a01b039091169063430c20819061137890339085906004016141a2565b602060405180830381865afa158015611395573d6000803e3d6000fd5b505050506040513d601f19601f820116820180604052508101906113b991906141bb565b6113c257600080fd5b60005b8351811015611473578381815181106113e0576113e06140be565b60200260200101516001600160a01b031663a7852afa83858481518110611409576114096140be565b60200260200101516040518363ffffffff1660e01b815260040161142e92919061424f565b600060405180830381600087803b15801561144857600080fd5b505af115801561145c573d6000803e3d6000fd5b50505050808061146b906140ea565b9150506113c5565b50505050565b33600090815260ae602052604090205460ff1661149557600080fd5b33600090815260b0602052604090205460ff166114b157600080fd5b81156115165760975460405163fbd3a29d60e01b8152600481018490526001600160a01b039091169063fbd3a29d90602401600060405180830381600087803b1580156114fd57600080fd5b505af1158015611511573d6000803e3d6000fd5b505050505b60405182815233906001600160a01b038316907f60940192810a6fb3bce3fd3e2e3a13fd6ccc7605e963fb87ee971aba829989bd90602001610edc565b61155c816138cc565b50565b6115676139cd565b610fb56000613a27565b815b81811015610ae3576115c560a4600060a38481548110611595576115956140be565b60009182526020808320909101546001600160a01b03908116845290830193909352604090910190205416611132565b806115cf816140ea565b915050611573565b60975460405163430c208160e01b81526001600160a01b039091169063430c20819061160990339085906004016141a2565b602060405180830381865afa158015611626573d6000803e3d6000fd5b505050506040513d601f19601f8201168201806040525081019061164a91906141bb565b61165357600080fd5b60005b835181101561147357838181518110611671576116716140be565b60200260200101516001600160a01b031663a7852afa8385848151811061169a5761169a6140be565b60200260200101516040518363ffffffff1660e01b81526004016116bf92919061424f565b600060405180830381600087803b1580156116d957600080fd5b505af11580156116ed573d6000803e3d6000fd5b5050505080806116fc906140ea565b915050611656565b609e546001600160a01b0316331461171b57600080fd5b609880546001600160a01b0319166001600160a01b0392909216919091179055565b60026065540361175f5760405162461bcd60e51b8152600401610b439061416b565b600260655560975460405163430c208160e01b81526001600160a01b039091169063430c20819061179690339089906004016141a2565b602060405180830381865afa1580156117b3573d6000803e3d6000fd5b505050506040513d601f19601f820116820180604052508101906117d791906141bb565b6117e057600080fd5b8281146117ec57600080fd5b600085815260ad602090815260409182902042905581518582028181018301909352858152610c41928892889188918291908501908490808284376000920191909152505060408051602080890282810182019093528882529093508892508791829185019084908082843760009201919091525061339092505050565b609e546001600160a01b031633146118945760405162461bcd60e51b8152600401610b4390614268565b6001600160a01b038116600090815260b0602052604090205460ff166118f15760405162461bcd60e51b815260206004820152601260248201527119d85d59d948185b1c9958591e481919585960721b6044820152606401610b43565b6001600160a01b038116600081815260b060209081526040808320805460ff1916905560a1909152808220829055517f04a5d3f5d80d22d9345acc80618f4a4e7e663cf9e1aed23b57d975acec002ba79190a250565b609d546001600160a01b0316331461195e57600080fd5b61155c81613076565b815b81811015610ae3576119bb60a4600060a3848154811061198b5761198b6140be565b60009182526020808320909101546001600160a01b039081168452908301939093526040909101902054166138cc565b806119c5816140ea565b915050611969565b609e546001600160a01b031633146119f75760405162461bcd60e51b8152600401610b4390614268565b6001600160a01b038116600090815260b0602052604090205460ff16611a545760405162461bcd60e51b815260206004820152601260248201527119d85d59d948185b1c9958591e481919585960721b6044820152606401610b43565b6001600160a01b03808216600081815260b060209081526040808320805460ff19908116825560a180855283862086815560a68652848720805460a7885286892080546001600160a01b031990811690915560a88952878a208054821690559a1680895260a4885286892080548c1690558989528154909a16905560ae86528487208054841690558354909216909255925290829055517f04a5d3f5d80d22d9345acc80618f4a4e7e663cf9e1aed23b57d975acec002ba79190a25050565b609e546001600160a01b03163314611b3d5760405162461bcd60e51b8152600401610b4390614268565b6001600160a01b038116600090815260b0602052604090205460ff1615611b9c5760405162461bcd60e51b8152602060048201526013602482015272676175676520616c726561647920616c69766560681b6044820152606401610b43565b6001600160a01b038116600081815260b06020526040808220805460ff19166001179055517fed18e9faa3dccfd8aa45f69c4de40546b2ca9cccc4538a2323531656516db1aa9190a250565b6001600160a01b03818116600090815260a4602052604081205490911615611c3b5760405162461bcd60e51b815260206004820152600660248201526565786973747360d01b6044820152606401610b43565b60408051600380825260808201909252600091602082016060803683375050604080516002808252606082018352939450600093909250906020830190803683370190505060985460405163e5e31b1360e01b81526001600160a01b0387811660048301529293506000929091169063e5e31b1390602401602060405180830381865afa158015611cd0573d6000803e3d6000fd5b505050506040513d601f19601f82011682018060405250810190611cf491906141bb565b90506000808215611e9c57866001600160a01b0316639d63848a6040518163ffffffff1660e01b81526004016040805180830381865afa158015611d3c573d6000803e3d6000fd5b505050506040513d601f19601f82011682018060405250810190611d609190614297565b80925081935050508185600081518110611d7c57611d7c6140be565b60200260200101906001600160a01b031690816001600160a01b0316815250508085600181518110611db057611db06140be565b60200260200101906001600160a01b031690816001600160a01b0316815250508184600081518110611de457611de46140be565b60200260200101906001600160a01b031690816001600160a01b0316815250508084600181518110611e1857611e186140be565b6001600160a01b039283166020918202929092010152609954811690831614801590611e5257506099546001600160a01b03828116911614155b15611e9c5760995485516001600160a01b039091169086906002908110611e7b57611e7b6140be565b60200260200101906001600160a01b031690816001600160a01b0316815250505b609d546001600160a01b03163314611f5f5782611ee45760405162461bcd60e51b81526020600482015260066024820152650857dc1bdbdb60d21b6044820152606401610b43565b6001600160a01b038216600090815260af602052604090205460ff168015611f2457506001600160a01b038116600090815260af602052604090205460ff165b611f5f5760405162461bcd60e51b815260206004820152600c60248201526b085dda1a5d195b1a5cdd195960a21b6044820152606401610b43565b6000876001600160a01b03166395d89b416040518163ffffffff1660e01b8152600401600060405180830381865afa158015611f9f573d6000803e3d6000fd5b505050506040513d6000823e601f3d908101601f19168201604052611fc791908101906142f2565b604051602001611fd79190614386565b60408051601f19818403018152919052609b549091506000906001600160a01b031661e66b61200e6033546001600160a01b031690565b8686866040518563ffffffff1660e01b815260040161203094939291906143bd565b6020604051808303816000875af115801561204f573d6000803e3d6000fd5b505050506040513d601f19601f820116820180604052508101906120739190614413565b9050886001600160a01b03166395d89b416040518163ffffffff1660e01b8152600401600060405180830381865afa1580156120b3573d6000803e3d6000fd5b505050506040513d6000823e601f3d908101601f191682016040526120db91908101906142f2565b6040516020016120eb9190614430565b60408051601f19818403018152919052609b549092506000906001600160a01b031661e66b6121226033546001600160a01b031690565b8787876040518563ffffffff1660e01b815260040161214494939291906143bd565b6020604051808303816000875af1158015612163573d6000803e3d6000fd5b505050506040513d601f19601f820116820180604052508101906121879190614413565b609a546099546097546040516307379e7760e41b81526001600160a01b03928316600482015290821660248201528d82166044820152306064820152858216608482015281841660a482015289151560c4820152929350600092911690637379e7709060e4016020604051808303816000875af115801561220c573d6000803e3d6000fd5b505050506040513d601f19601f820116820180604052508101906122309190614413565b60995460405163095ea7b360e01b81529192506001600160a01b03169063095ea7b390612265908490600019906004016141a2565b6020604051808303816000875af1158015612284573d6000803e3d6000fd5b505050506040513d601f19601f820116820180604052508101906122a891906141bb565b508260a76000836001600160a01b03166001600160a01b0316815260200190815260200160002060006101000a8154816001600160a01b0302191690836001600160a01b031602179055508160a86000836001600160a01b03166001600160a01b0316815260200190815260200160002060006101000a8154816001600160a01b0302191690836001600160a01b031602179055508060a460008d6001600160a01b03166001600160a01b0316815260200190815260200160002060006101000a8154816001600160a01b0302191690836001600160a01b031602179055508a60a66000836001600160a01b03166001600160a01b0316815260200190815260200160002060006101000a8154816001600160a01b0302191690836001600160a01b03160217905550600160ae6000836001600160a01b03166001600160a01b0316815260200190815260200160002060006101000a81548160ff021916908315150217905550600160b06000836001600160a01b03166001600160a01b0316815260200190815260200160002060006101000a81548160ff021916908315150217905550612456816138cc565b60a380546001810182556000919091527f60859188cffe297f44dde29f2d2865634621f26215049caeb304ccba566a8b170180546001600160a01b0319166001600160a01b038d8116918217909255604080513381528684166020820152919285811692908516917fa4d97e9e7c65249b4cd01acb82add613adea98af32daf092366982f0a0d4e453910160405180910390a49a9950505050505050505050565b33600090815260ae602052604090205460ff1661251357600080fd5b33600090815260b0602052604090205460ff1661252f57600080fd5b604080518481526020810183905233916001600160a01b038516917fdcbc1c05240f31ff3ad067ef1ee35ce4997762752e3a095284754544f4c709d791015b60405180910390a3505050565b609e546001600160a01b0316331461259257600080fd5b6001600160a01b038316600090815260ae60205260409020805460ff191660011790556001600160a01b03928316600090815260a76020908152604080832080549587166001600160a01b031996871617905560a890915290208054919093169116179055565b60ab602052816000526040600020818154811061261557600080fd5b6000918252602090912001546001600160a01b03169150829050565b609e546001600160a01b0316331461264857600080fd5b609b80546001600160a01b0319166001600160a01b0392909216919091179055565b60a3818154811061267a57600080fd5b6000918252602090912001546001600160a01b0316905081565b609d546001600160a01b031633146126ab57600080fd5b60005b81518110156110ee576126cc8282815181106109ef576109ef6140be565b806126d6816140ea565b9150506126ae565b609d546001600160a01b031633146126f557600080fd5b609d80546001600160a01b0319166001600160a01b0392909216919091179055565b60005b81518110156110ee57818181518110612735576127356140be565b60200260200101516001600160a01b031663e57482136040518163ffffffff1660e01b8152600401602060405180830381865afa15801561277a573d6000803e3d6000fd5b505050506040513d601f19601f8201168201806040525081019061279e91906141bb565b15612822578181815181106127b5576127b56140be565b60200260200101516001600160a01b031663d294f0936040518163ffffffff1660e01b815260040160408051808303816000875af11580156127fb573d6000803e3d6000fd5b505050506040513d601f19601f8201168201806040525081019061281f9190614466565b50505b8061282c816140ea565b91505061271a565b60005b81518110156110ee57612862828281518110612855576128556140be565b60200260200101516138cc565b8061286c816140ea565b915050612837565b609e546001600160a01b0316331461288b57600080fd5b609e80546001600160a01b0319166001600160a01b0392909216919091179055565b33600090815260ae602052604090205460ff166128c957600080fd5b604080518481526020810183905233916001600160a01b038516917ff341246adaac6f497bc2a656f546ab9e182111d630394f0c57c710a59a2cb567910161256e565b6129146139cd565b6001600160a01b0381166129795760405162461bcd60e51b815260206004820152602660248201527f4f776e61626c653a206e6577206f776e657220697320746865207a65726f206160448201526564647265737360d01b6064820152608401610b43565b61155c81613a27565b600054610100900460ff16158080156129a25750600054600160ff909116105b806129bc5750303b1580156129bc575060005460ff166001145b612a1f5760405162461bcd60e51b815260206004820152602e60248201527f496e697469616c697a61626c653a20636f6e747261637420697320616c72656160448201526d191e481a5b9a5d1a585b1a5e995960921b6064820152608401610b43565b6000805460ff191660011790558015612a42576000805461ff0019166101001790555b612a4a613a79565b612a52613aa8565b609780546001600160a01b038088166001600160a01b03199283168117909355609880549188169190921617905560408051637e062a3560e11b8152905163fc0c546a916004808201926020929091908290030181865afa158015612abb573d6000803e3d6000fd5b505050506040513d601f19601f82011682018060405250810190612adf9190614413565b609980546001600160a01b03199081166001600160a01b0393841617909155609a80548216868416179055609b8054821692851692909217909155609c8054339083168117909155609d8054831682179055609e80549092161790558015612b81576000805461ff0019169055604051600181527f7f26b83ff96e1f2b6a682f133852f6798a09c465da95921460cefb38474024989060200160405180910390a15b5050505050565b609e546001600160a01b03163314612b9f57600080fd5b609c80546001600160a01b0319166001600160a01b0392909216919091179055565b609e546001600160a01b03163314612bd857600080fd5b60005b8151811015610ae3576000828281518110612bf857612bf86140be565b602002602001015190506000848381518110612c1657612c166140be565b60200260200101519050600080836001600160a01b0316639d63848a6040518163ffffffff1660e01b81526004016040805180830381865afa158015612c60573d6000803e3d6000fd5b505050506040513d601f19601f82011682018060405250810190612c849190614297565b80925081935050506000846001600160a01b03166395d89b416040518163ffffffff1660e01b8152600401600060405180830381865afa158015612ccc573d6000803e3d6000fd5b505050506040513d6000823e601f3d908101601f19168201604052612cf491908101906142f2565b604051602001612d049190614386565b60408051601f19818403018152919052609b549091506000906001600160a01b031661e66b612d3b6033546001600160a01b031690565b8686866040518563ffffffff1660e01b8152600401612d5d94939291906143bd565b6020604051808303816000875af1158015612d7c573d6000803e3d6000fd5b505050506040513d601f19601f82011682018060405250810190612da09190614413565b9050856001600160a01b03166395d89b416040518163ffffffff1660e01b8152600401600060405180830381865afa158015612de0573d6000803e3d6000fd5b505050506040513d6000823e601f3d908101601f19168201604052612e0891908101906142f2565b604051602001612e189190614430565b60408051601f19818403018152919052609b549092506000906001600160a01b031661e66b612e4f6033546001600160a01b031690565b8787876040518563ffffffff1660e01b8152600401612e7194939291906143bd565b6020604051808303816000875af1158015612e90573d6000803e3d6000fd5b505050506040513d601f19601f82011682018060405250810190612eb49190614413565b60995460405163095ea7b360e01b81529192506001600160a01b03169063095ea7b390612ee9908990600019906004016141a2565b6020604051808303816000875af1158015612f08573d6000803e3d6000fd5b505050506040513d601f19601f82011682018060405250810190612f2c91906141bb565b506001600160a01b03868116600081815260a76020908152604080832080546001600160a01b03199081168988161790915560a8835281842080548216888816179055948c1680845260a48352818420805487168617905593835260a68252808320805490951690931790935560ae8352818120805460ff19908116600190811790925560b09094529190208054909216179055612fc9866138cc565b60a380546001810182556000919091527f60859188cffe297f44dde29f2d2865634621f26215049caeb304ccba566a8b170180546001600160a01b0319166001600160a01b03898116918217909255604080513381528584166020820152919284811692908a16917fa4d97e9e7c65249b4cd01acb82add613adea98af32daf092366982f0a0d4e453910160405180910390a450505050505050808061306e906140ea565b915050612bdb565b6001600160a01b038116600090815260af602052604090205460ff161561309c57600080fd5b6001600160a01b038116600081815260af6020526040808220805460ff191660011790555133917f6661a7108aecd07864384529117d96c319c1163e3010c01390f6b704726e07de91a350565b600081815260ab6020526040812080549091805b82811015613354576000848281548110613119576131196140be565b600091825260208083209091015488835260aa825260408084206001600160a01b0390921680855291909252912054909150801561333f576001600160a01b03808316600090815260a4602052604090205461317591166138cc565b6001600160a01b038216600090815260a960205260408120805483929061319d90849061448a565b9091555050600087815260aa602090815260408083206001600160a01b0386168452909152812080548392906131d490849061448a565b909155505080156132f8576001600160a01b03828116600090815260a460209081526040808320548416835260a79091529081902054905163278afc8b60e21b815260048101849052602481018a9052911690639e2bf22c90604401600060405180830381600087803b15801561324a57600080fd5b505af115801561325e573d6000803e3d6000fd5b505050506001600160a01b03828116600090815260a460209081526040808320548416835260a89091529081902054905163278afc8b60e21b815260048101849052602481018a9052911690639e2bf22c90604401600060405180830381600087803b1580156132cd57600080fd5b505af11580156132e1573d6000803e3d6000fd5b5050505080846132f1919061421e565b9350613305565b613302818561448a565b93505b60408051888152602081018390527fa9f3ca5f8a9e1580edb2741e0ba560084ec72e0067ba3423f9e9327a176882db910160405180910390a15b5050808061334c906140ea565b9150506130fd565b508060a26000828254613367919061448a565b9091555050600084815260ac6020908152604080832083905560ab909152812061147391613b35565b613399836130e9565b81516097546040516339f890b560e21b8152600481018690526000916001600160a01b03169063e7e242d490602401602060405180830381865afa1580156133e5573d6000803e3d6000fd5b505050506040513d601f19601f820116820180604052508101906134099190614236565b90506000806000805b858110156134535786818151811061342c5761342c6140be565b60200260200101518461343f919061421e565b93508061344b816140ea565b915050613412565b5060005b8581101561373c576000888281518110613473576134736140be565b6020908102919091018101516001600160a01b03808216600090815260a4845260408082205490921680825260ae909452205490925060ff161561372757600086888b86815181106134c7576134c76140be565b60200260200101516134d991906141dd565b6134e391906141fc565b60008d815260aa602090815260408083206001600160a01b03881684529091529020549091501561351357600080fd5b8060000361352057600080fd5b613529826138cc565b60008c815260ab6020908152604080832080546001810182559084528284200180546001600160a01b0319166001600160a01b038816908117909155835260a99091528120805483929061357e90849061421e565b909155505060008c815260aa602090815260408083206001600160a01b0387168452909152812080548392906135b590849061421e565b90915550506001600160a01b03808316600090815260a760205260409081902054905163f320772360e01b815260048101849052602481018f905291169063f320772390604401600060405180830381600087803b15801561361657600080fd5b505af115801561362a573d6000803e3d6000fd5b5050505060a86000836001600160a01b03166001600160a01b0316815260200190815260200160002060009054906101000a90046001600160a01b03166001600160a01b031663f3207723828e6040518363ffffffff1660e01b815260040161369d929190918252602082015260400190565b600060405180830381600087803b1580156136b757600080fd5b505af11580156136cb573d6000803e3d6000fd5b5050505080856136db919061421e565b94506136e7818761421e565b604080518e81526020810184905291975033917fea66f58e474bc09f580000e81f31b334d171db387d0c6098ba47bd897741679b910160405180910390a2505b50508080613734906140ea565b915050613457565b5080156137a25760975460405163fd4a77f160e01b8152600481018a90526001600160a01b039091169063fd4a77f190602401600060405180830381600087803b15801561378957600080fd5b505af115801561379d573d6000803e3d6000fd5b505050505b8160a260008282546137b4919061421e565b9091555050600097885260ac602052604090972096909655505050505050565b6000846001600160a01b03163b116137eb57600080fd5b604080516001600160a01b0385811660248301528481166044830152606480830185905283518084039091018152608490920183526020820180516001600160e01b03166323b872dd60e01b179052915160009283929088169161384f91906144a1565b6000604051808303816000865af19150503d806000811461388c576040519150601f19603f3d011682016040523d82523d6000602084013e613891565b606091505b50915091508180156138bb5750805115806138bb5750808060200190518101906138bb91906141bb565b6138c457600080fd5b505050505050565b6001600160a01b03808216600090815260a6602090815260408083205490931680835260a99091529190205480156139ac576001600160a01b038316600090815260a0602052604081208054609f54918290559161392a838361448a565b905080156138c4576000670de0b6b3a764000061394783876141dd565b61395191906141fc565b6001600160a01b038816600090815260b0602052604090205490915060ff16156139a3576001600160a01b038716600090815260a160205260408120805483929061399d90849061421e565b90915550505b50505050505050565b609f546001600160a01b038416600090815260a06020526040902055505050565b6033546001600160a01b03163314610fb55760405162461bcd60e51b815260206004820181905260248201527f4f776e61626c653a2063616c6c6572206973206e6f7420746865206f776e65726044820152606401610b43565b603380546001600160a01b038381166001600160a01b0319831681179093556040519116919082907f8be0079c531659141344cd1fd0a4f28419497f9722a3daafe3b4186f6b6457e090600090a35050565b600054610100900460ff16613aa05760405162461bcd60e51b8152600401610b43906144bd565b610fb5613ad7565b600054610100900460ff16613acf5760405162461bcd60e51b8152600401610b43906144bd565b610fb5613b07565b600054610100900460ff16613afe5760405162461bcd60e51b8152600401610b43906144bd565b610fb533613a27565b600054610100900460ff16613b2e5760405162461bcd60e51b8152600401610b43906144bd565b6001606555565b508054600082559060005260206000209081019061155c91905b80821115613b635760008155600101613b4f565b5090565b634e487b7160e01b600052604160045260246000fd5b604051601f8201601f1916810167ffffffffffffffff81118282101715613ba657613ba6613b67565b604052919050565b600067ffffffffffffffff821115613bc857613bc8613b67565b5060051b60200190565b6001600160a01b038116811461155c57600080fd5b600082601f830112613bf857600080fd5b81356020613c0d613c0883613bae565b613b7d565b82815260059290921b84018101918181019086841115613c2c57600080fd5b8286015b84811015613c50578035613c4381613bd2565b8352918301918301613c30565b509695505050505050565b60008060408385031215613c6e57600080fd5b823567ffffffffffffffff811115613c8557600080fd5b613c9185828601613be7565b9250506020830135613ca281613bd2565b809150509250929050565b600060208284031215613cbf57600080fd5b8135613cca81613bd2565b9392505050565b600082601f830112613ce257600080fd5b81356020613cf2613c0883613bae565b82815260059290921b84018101918181019086841115613d1157600080fd5b8286015b84811015613c5057803567ffffffffffffffff811115613d355760008081fd5b613d438986838b0101613be7565b845250918301918301613d15565b60008060408385031215613d6457600080fd5b823567ffffffffffffffff80821115613d7c57600080fd5b613d8886838701613be7565b93506020850135915080821115613d9e57600080fd5b50613dab85828601613cd1565b9150509250929050565b600060208284031215613dc757600080fd5b5035919050565b60008060408385031215613de157600080fd5b823591506020830135613ca281613bd2565b600060208284031215613e0557600080fd5b813567ffffffffffffffff811115613e1c57600080fd5b613e2884828501613be7565b949350505050565b600080600060608486031215613e4557600080fd5b833567ffffffffffffffff80821115613e5d57600080fd5b613e6987838801613be7565b94506020860135915080821115613e7f57600080fd5b50613e8c86828701613cd1565b925050604084013590509250925092565b60008060408385031215613eb057600080fd5b50508035926020909101359150565b60008083601f840112613ed157600080fd5b50813567ffffffffffffffff811115613ee957600080fd5b6020830191508360208260051b8501011115613f0457600080fd5b9250929050565b600080600080600060608688031215613f2357600080fd5b85359450602086013567ffffffffffffffff80821115613f4257600080fd5b613f4e89838a01613ebf565b90965094506040880135915080821115613f6757600080fd5b50613f7488828901613ebf565b969995985093965092949392505050565b600080600060608486031215613f9a57600080fd5b833592506020840135613fac81613bd2565b929592945050506040919091013590565b600080600060608486031215613fd257600080fd5b8335613fdd81613bd2565b92506020840135613fed81613bd2565b91506040840135613ffd81613bd2565b809150509250925092565b6000806000806080858703121561401e57600080fd5b843561402981613bd2565b9350602085013561403981613bd2565b9250604085013561404981613bd2565b9150606085013561405981613bd2565b939692955090935050565b6000806040838503121561407757600080fd5b823567ffffffffffffffff8082111561408f57600080fd5b61409b86838701613be7565b935060208501359150808211156140b157600080fd5b50613dab85828601613be7565b634e487b7160e01b600052603260045260246000fd5b634e487b7160e01b600052601160045260246000fd5b6000600182016140fc576140fc6140d4565b5060010190565b600081518084526020808501945080840160005b8381101561413c5781516001600160a01b031687529582019590820190600101614117565b509495945050505050565b6001600160a01b0383168152604060208201819052600090613e2890830184614103565b6020808252601f908201527f5265656e7472616e637947756172643a207265656e7472616e742063616c6c00604082015260600190565b6001600160a01b03929092168252602082015260400190565b6000602082840312156141cd57600080fd5b81518015158114613cca57600080fd5b60008160001904831182151516156141f7576141f76140d4565b500290565b60008261421957634e487b7160e01b600052601260045260246000fd5b500490565b60008219821115614231576142316140d4565b500190565b60006020828403121561424857600080fd5b5051919050565b828152604060208201526000613e286040830184614103565b6020808252601590820152741b9bdd08195b595c99d95b98de4818dbdd5b98da5b605a1b604082015260600190565b600080604083850312156142aa57600080fd5b82516142b581613bd2565b6020840151909250613ca281613bd2565b60005b838110156142e15781810151838201526020016142c9565b838111156114735750506000910152565b60006020828403121561430457600080fd5b815167ffffffffffffffff8082111561431c57600080fd5b818401915084601f83011261433057600080fd5b81518181111561434257614342613b67565b614355601f8201601f1916602001613b7d565b915080825285602082850101111561436c57600080fd5b61437d8160208401602086016142c6565b50949350505050565b6e02a3432b730902628102332b2b99d1608d1b8152600082516143b081600f8501602087016142c6565b91909101600f0192915050565b600060018060a01b03808716835280861660208401528085166040840152506080606083015282518060808401526143fc8160a08501602087016142c6565b601f01601f19169190910160a00195945050505050565b60006020828403121561442557600080fd5b8151613cca81613bd2565b6d02a3432b73090213934b132b99d160951b81526000825161445981600e8501602087016142c6565b91909101600e0192915050565b6000806040838503121561447957600080fd5b505080516020909101519092909150565b60008282101561449c5761449c6140d4565b500390565b600082516144b38184602087016142c6565b9190910192915050565b6020808252602b908201527f496e697469616c697a61626c653a20636f6e7472616374206973206e6f74206960408201526a6e697469616c697a696e6760a81b60608201526080019056fea26469706673582212203525c66e4e64c89e4ad6713dd9d92262b032b9aa8f06f1b8bd5d9e64606872c564736f6c634300080d0033",
  "linkReferences": {},
  "deployedLinkReferences": {}
}