{
  "_format": "hh-sol-artifact-1",
  "contractName": "VoterV2_1",
  "sourceName": "contracts/VoterV2_1.sol",
  "abi": [
    {
      "inputs": [],
      "stateMutability": "nonpayable",
      "type": "constructor"
    },
    {
      "anonymous": false,
      "inputs": [
        {
          "indexed": false,
          "internalType": "uint256",
          "name": "tokenId",
          "type": "uint256"
        },
        {
          "indexed": false,
          "internalType": "uint256",
          "name": "weight",
          "type": "uint256"
        }
      ],
      "name": "Abstained",
      "type": "event"
    },
    {
      "anonymous": false,
      "inputs": [
        {
          "indexed": true,
          "internalType": "address",
          "name": "owner",
          "type": "address"
        },
        {
          "indexed": true,
          "internalType": "address",
          "name": "gauge",
          "type": "address"
        },
        {
          "indexed": false,
          "internalType": "uint256",
          "name": "tokenId",
          "type": "uint256"
        }
      ],
      "name": "Attach",
      "type": "event"
    },
    {
      "anonymous": false,
      "inputs": [
        {
          "indexed": true,
          "internalType": "address",
          "name": "lp",
          "type": "address"
        },
        {
          "indexed": true,
          "internalType": "address",
          "name": "gauge",
          "type": "address"
        },
        {
          "indexed": false,
          "internalType": "uint256",
          "name": "tokenId",
          "type": "uint256"
        },
        {
          "indexed": false,
          "internalType": "uint256",
          "name": "amount",
          "type": "uint256"
        }
      ],
      "name": "Deposit",
      "type": "event"
    },
    {
      "anonymous": false,
      "inputs": [
        {
          "indexed": true,
          "internalType": "address",
          "name": "owner",
          "type": "address"
        },
        {
          "indexed": true,
          "internalType": "address",
          "name": "gauge",
          "type": "address"
        },
        {
          "indexed": false,
          "internalType": "uint256",
          "name": "tokenId",
          "type": "uint256"
        }
      ],
      "name": "Detach",
      "type": "event"
    },
    {
      "anonymous": false,
      "inputs": [
        {
          "indexed": true,
          "internalType": "address",
          "name": "sender",
          "type": "address"
        },
        {
          "indexed": true,
          "internalType": "address",
          "name": "gauge",
          "type": "address"
        },
        {
          "indexed": false,
          "internalType": "uint256",
          "name": "amount",
          "type": "uint256"
        }
      ],
      "name": "DistributeReward",
      "type": "event"
    },
    {
      "anonymous": false,
      "inputs": [
        {
          "indexed": true,
          "internalType": "address",
          "name": "gauge",
          "type": "address"
        },
        {
          "indexed": false,
          "internalType": "address",
          "name": "creator",
          "type": "address"
        },
        {
          "indexed": false,
          "internalType": "address",
          "name": "internal_bribe",
          "type": "address"
        },
        {
          "indexed": true,
          "internalType": "address",
          "name": "external_bribe",
          "type": "address"
        },
        {
          "indexed": true,
          "internalType": "address",
          "name": "pool",
          "type": "address"
        }
      ],
      "name": "GaugeCreated",
      "type": "event"
    },
    {
      "anonymous": false,
      "inputs": [
        {
          "indexed": true,
          "internalType": "address",
          "name": "gauge",
          "type": "address"
        }
      ],
      "name": "GaugeKilled",
      "type": "event"
    },
    {
      "anonymous": false,
      "inputs": [
        {
          "indexed": true,
          "internalType": "address",
          "name": "gauge",
          "type": "address"
        }
      ],
      "name": "GaugeRevived",
      "type": "event"
    },
    {
      "anonymous": false,
      "inputs": [
        {
          "indexed": false,
          "internalType": "uint8",
          "name": "version",
          "type": "uint8"
        }
      ],
      "name": "Initialized",
      "type": "event"
    },
    {
      "anonymous": false,
      "inputs": [
        {
          "indexed": true,
          "internalType": "address",
          "name": "sender",
          "type": "address"
        },
        {
          "indexed": true,
          "internalType": "address",
          "name": "reward",
          "type": "address"
        },
        {
          "indexed": false,
          "internalType": "uint256",
          "name": "amount",
          "type": "uint256"
        }
      ],
      "name": "NotifyReward",
      "type": "event"
    },
    {
      "anonymous": false,
      "inputs": [
        {
          "indexed": true,
          "internalType": "address",
          "name": "previousOwner",
          "type": "address"
        },
        {
          "indexed": true,
          "internalType": "address",
          "name": "newOwner",
          "type": "address"
        }
      ],
      "name": "OwnershipTransferred",
      "type": "event"
    },
    {
      "anonymous": false,
      "inputs": [
        {
          "indexed": true,
          "internalType": "address",
          "name": "voter",
          "type": "address"
        },
        {
          "indexed": false,
          "internalType": "uint256",
          "name": "tokenId",
          "type": "uint256"
        },
        {
          "indexed": false,
          "internalType": "uint256",
          "name": "weight",
          "type": "uint256"
        }
      ],
      "name": "Voted",
      "type": "event"
    },
    {
      "anonymous": false,
      "inputs": [
        {
          "indexed": true,
          "internalType": "address",
          "name": "whitelister",
          "type": "address"
        },
        {
          "indexed": true,
          "internalType": "address",
          "name": "token",
          "type": "address"
        }
      ],
      "name": "Whitelisted",
      "type": "event"
    },
    {
      "anonymous": false,
      "inputs": [
        {
          "indexed": true,
          "internalType": "address",
          "name": "lp",
          "type": "address"
        },
        {
          "indexed": true,
          "internalType": "address",
          "name": "gauge",
          "type": "address"
        },
        {
          "indexed": false,
          "internalType": "uint256",
          "name": "tokenId",
          "type": "uint256"
        },
        {
          "indexed": false,
          "internalType": "uint256",
          "name": "amount",
          "type": "uint256"
        }
      ],
      "name": "Withdraw",
      "type": "event"
    },
    {
      "inputs": [
        {
          "internalType": "address[]",
          "name": "_tokens",
          "type": "address[]"
        },
        {
          "internalType": "address",
          "name": "_minter",
          "type": "address"
        }
      ],
      "name": "_initialize",
      "outputs": [],
      "stateMutability": "nonpayable",
      "type": "function"
    },
    {
      "inputs": [],
      "name": "_ve",
      "outputs": [
        {
          "internalType": "address",
          "name": "",
          "type": "address"
        }
      ],
      "stateMutability": "view",
      "type": "function"
    },
    {
      "inputs": [
        {
          "internalType": "uint256",
          "name": "tokenId",
          "type": "uint256"
        },
        {
          "internalType": "address",
          "name": "account",
          "type": "address"
        }
      ],
      "name": "attachTokenToGauge",
      "outputs": [],
      "stateMutability": "nonpayable",
      "type": "function"
    },
    {
      "inputs": [],
      "name": "bribefactory",
      "outputs": [
        {
          "internalType": "address",
          "name": "",
          "type": "address"
        }
      ],
      "stateMutability": "view",
      "type": "function"
    },
    {
      "inputs": [
        {
          "internalType": "address[]",
          "name": "_bribes",
          "type": "address[]"
        },
        {
          "internalType": "address[][]",
          "name": "_tokens",
          "type": "address[][]"
        },
        {
          "internalType": "uint256",
          "name": "_tokenId",
          "type": "uint256"
        }
      ],
      "name": "claimBribes",
      "outputs": [],
      "stateMutability": "nonpayable",
      "type": "function"
    },
    {
      "inputs": [
        {
          "internalType": "address[]",
          "name": "_fees",
          "type": "address[]"
        },
        {
          "internalType": "address[][]",
          "name": "_tokens",
          "type": "address[][]"
        },
        {
          "internalType": "uint256",
          "name": "_tokenId",
          "type": "uint256"
        }
      ],
      "name": "claimFees",
      "outputs": [],
      "stateMutability": "nonpayable",
      "type": "function"
    },
    {
      "inputs": [
        {
          "internalType": "address[]",
          "name": "_gauges",
          "type": "address[]"
        },
        {
          "internalType": "address[][]",
          "name": "_tokens",
          "type": "address[][]"
        }
      ],
      "name": "claimRewards",
      "outputs": [],
      "stateMutability": "nonpayable",
      "type": "function"
    },
    {
      "inputs": [
        {
          "internalType": "address",
          "name": "",
          "type": "address"
        }
      ],
      "name": "claimable",
      "outputs": [
        {
          "internalType": "uint256",
          "name": "",
          "type": "uint256"
        }
      ],
      "stateMutability": "view",
      "type": "function"
    },
    {
      "inputs": [
        {
          "internalType": "address",
          "name": "_pool",
          "type": "address"
        }
      ],
      "name": "createGauge",
      "outputs": [
        {
          "internalType": "address",
          "name": "",
          "type": "address"
        }
      ],
      "stateMutability": "nonpayable",
      "type": "function"
    },
    {
      "inputs": [
        {
          "internalType": "uint256",
          "name": "tokenId",
          "type": "uint256"
        },
        {
          "internalType": "address",
          "name": "account",
          "type": "address"
        }
      ],
      "name": "detachTokenFromGauge",
      "outputs": [],
      "stateMutability": "nonpayable",
      "type": "function"
    },
    {
      "inputs": [
        {
          "internalType": "address[]",
          "name": "_gauges",
          "type": "address[]"
        }
      ],
      "name": "distribute",
      "outputs": [],
      "stateMutability": "nonpayable",
      "type": "function"
    },
    {
      "inputs": [
        {
          "internalType": "address",
          "name": "_gauge",
          "type": "address"
        }
      ],
      "name": "distribute",
      "outputs": [],
      "stateMutability": "nonpayable",
      "type": "function"
    },
    {
      "inputs": [
        {
          "internalType": "uint256",
          "name": "start",
          "type": "uint256"
        },
        {
          "internalType": "uint256",
          "name": "finish",
          "type": "uint256"
        }
      ],
      "name": "distribute",
      "outputs": [],
      "stateMutability": "nonpayable",
      "type": "function"
    },
    {
      "inputs": [],
      "name": "distributeAll",
      "outputs": [],
      "stateMutability": "nonpayable",
      "type": "function"
    },
    {
      "inputs": [
        {
          "internalType": "address[]",
          "name": "_gauges",
          "type": "address[]"
        }
      ],
      "name": "distributeFees",
      "outputs": [],
      "stateMutability": "nonpayable",
      "type": "function"
    },
    {
      "inputs": [],
      "name": "emergencyCouncil",
      "outputs": [
        {
          "internalType": "address",
          "name": "",
          "type": "address"
        }
      ],
      "stateMutability": "view",
      "type": "function"
    },
    {
      "inputs": [
        {
          "internalType": "uint256",
          "name": "tokenId",
          "type": "uint256"
        },
        {
          "internalType": "address",
          "name": "account",
          "type": "address"
        },
        {
          "internalType": "uint256",
          "name": "amount",
          "type": "uint256"
        }
      ],
      "name": "emitDeposit",
      "outputs": [],
      "stateMutability": "nonpayable",
      "type": "function"
    },
    {
      "inputs": [
        {
          "internalType": "uint256",
          "name": "tokenId",
          "type": "uint256"
        },
        {
          "internalType": "address",
          "name": "account",
          "type": "address"
        },
        {
          "internalType": "uint256",
          "name": "amount",
          "type": "uint256"
        }
      ],
      "name": "emitWithdraw",
      "outputs": [],
      "stateMutability": "nonpayable",
      "type": "function"
    },
    {
      "inputs": [
        {
          "internalType": "address",
          "name": "",
          "type": "address"
        }
      ],
      "name": "external_bribes",
      "outputs": [
        {
          "internalType": "address",
          "name": "",
          "type": "address"
        }
      ],
      "stateMutability": "view",
      "type": "function"
    },
    {
      "inputs": [],
      "name": "factory",
      "outputs": [
        {
          "internalType": "address",
          "name": "",
          "type": "address"
        }
      ],
      "stateMutability": "view",
      "type": "function"
    },
    {
      "inputs": [],
      "name": "gaugefactory",
      "outputs": [
        {
          "internalType": "address",
          "name": "",
          "type": "address"
        }
      ],
      "stateMutability": "view",
      "type": "function"
    },
    {
      "inputs": [
        {
          "internalType": "address",
          "name": "",
          "type": "address"
        }
      ],
      "name": "gauges",
      "outputs": [
        {
          "internalType": "address",
          "name": "",
          "type": "address"
        }
      ],
      "stateMutability": "view",
      "type": "function"
    },
    {
      "inputs": [
        {
          "internalType": "address",
          "name": "",
          "type": "address"
        }
      ],
      "name": "gaugesDistributionTimestmap",
      "outputs": [
        {
          "internalType": "uint256",
          "name": "",
          "type": "uint256"
        }
      ],
      "stateMutability": "view",
      "type": "function"
    },
    {
      "inputs": [],
      "name": "governor",
      "outputs": [
        {
          "internalType": "address",
          "name": "",
          "type": "address"
        }
      ],
      "stateMutability": "view",
      "type": "function"
    },
    {
      "inputs": [
        {
          "internalType": "address",
          "name": "_gauge",
          "type": "address"
        }
      ],
      "name": "increaseGaugeApprovals",
      "outputs": [],
      "stateMutability": "nonpayable",
      "type": "function"
    },
    {
      "inputs": [
        {
          "internalType": "address[]",
          "name": "_gauges",
          "type": "address[]"
        },
        {
          "internalType": "address[]",
          "name": "_pools",
          "type": "address[]"
        }
      ],
      "name": "initGauges",
      "outputs": [],
      "stateMutability": "nonpayable",
      "type": "function"
    },
    {
      "inputs": [
        {
          "internalType": "address",
          "name": "__ve",
          "type": "address"
        },
        {
          "internalType": "address",
          "name": "_factory",
          "type": "address"
        },
        {
          "internalType": "address",
          "name": "_gauges",
          "type": "address"
        },
        {
          "internalType": "address",
          "name": "_bribes",
          "type": "address"
        }
      ],
      "name": "initialize",
      "outputs": [],
      "stateMutability": "nonpayable",
      "type": "function"
    },
    {
      "inputs": [
        {
          "internalType": "address",
          "name": "",
          "type": "address"
        }
      ],
      "name": "internal_bribes",
      "outputs": [
        {
          "internalType": "address",
          "name": "",
          "type": "address"
        }
      ],
      "stateMutability": "view",
      "type": "function"
    },
    {
      "inputs": [
        {
          "internalType": "address",
          "name": "",
          "type": "address"
        }
      ],
      "name": "isAlive",
      "outputs": [
        {
          "internalType": "bool",
          "name": "",
          "type": "bool"
        }
      ],
      "stateMutability": "view",
      "type": "function"
    },
    {
      "inputs": [
        {
          "internalType": "address",
          "name": "",
          "type": "address"
        }
      ],
      "name": "isGauge",
      "outputs": [
        {
          "internalType": "bool",
          "name": "",
          "type": "bool"
        }
      ],
      "stateMutability": "view",
      "type": "function"
    },
    {
      "inputs": [
        {
          "internalType": "address",
          "name": "",
          "type": "address"
        }
      ],
      "name": "isWhitelisted",
      "outputs": [
        {
          "internalType": "bool",
          "name": "",
          "type": "bool"
        }
      ],
      "stateMutability": "view",
      "type": "function"
    },
    {
      "inputs": [
        {
          "internalType": "address",
          "name": "_gauge",
          "type": "address"
        }
      ],
      "name": "killGauge",
      "outputs": [],
      "stateMutability": "nonpayable",
      "type": "function"
    },
    {
      "inputs": [
        {
          "internalType": "address",
          "name": "_gauge",
          "type": "address"
        }
      ],
      "name": "killGaugeTotally",
      "outputs": [],
      "stateMutability": "nonpayable",
      "type": "function"
    },
    {
      "inputs": [
        {
          "internalType": "uint256",
          "name": "",
          "type": "uint256"
        }
      ],
      "name": "lastVoted",
      "outputs": [
        {
          "internalType": "uint256",
          "name": "",
          "type": "uint256"
        }
      ],
      "stateMutability": "view",
      "type": "function"
    },
    {
      "inputs": [],
      "name": "length",
      "outputs": [
        {
          "internalType": "uint256",
          "name": "",
          "type": "uint256"
        }
      ],
      "stateMutability": "view",
      "type": "function"
    },
    {
      "inputs": [],
      "name": "minter",
      "outputs": [
        {
          "internalType": "address",
          "name": "",
          "type": "address"
        }
      ],
      "stateMutability": "view",
      "type": "function"
    },
    {
      "inputs": [
        {
          "internalType": "uint256",
          "name": "amount",
          "type": "uint256"
        }
      ],
      "name": "notifyRewardAmount",
      "outputs": [],
      "stateMutability": "nonpayable",
      "type": "function"
    },
    {
      "inputs": [],
      "name": "owner",
      "outputs": [
        {
          "internalType": "address",
          "name": "",
          "type": "address"
        }
      ],
      "stateMutability": "view",
      "type": "function"
    },
    {
      "inputs": [
        {
          "internalType": "uint256",
          "name": "_tokenId",
          "type": "uint256"
        }
      ],
      "name": "poke",
      "outputs": [],
      "stateMutability": "nonpayable",
      "type": "function"
    },
    {
      "inputs": [
        {
          "internalType": "address",
          "name": "",
          "type": "address"
        }
      ],
      "name": "poolForGauge",
      "outputs": [
        {
          "internalType": "address",
          "name": "",
          "type": "address"
        }
      ],
      "stateMutability": "view",
      "type": "function"
    },
    {
      "inputs": [
        {
          "internalType": "uint256",
          "name": "",
          "type": "uint256"
        },
        {
          "internalType": "uint256",
          "name": "",
          "type": "uint256"
        }
      ],
      "name": "poolVote",
      "outputs": [
        {
          "internalType": "address",
          "name": "",
          "type": "address"
        }
      ],
      "stateMutability": "view",
      "type": "function"
    },
    {
      "inputs": [
        {
          "internalType": "uint256",
          "name": "tokenId",
          "type": "uint256"
        }
      ],
      "name": "poolVoteLength",
      "outputs": [
        {
          "internalType": "uint256",
          "name": "",
          "type": "uint256"
        }
      ],
      "stateMutability": "view",
      "type": "function"
    },
    {
      "inputs": [
        {
          "internalType": "uint256",
          "name": "",
          "type": "uint256"
        }
      ],
      "name": "pools",
      "outputs": [
        {
          "internalType": "address",
          "name": "",
          "type": "address"
        }
      ],
      "stateMutability": "view",
      "type": "function"
    },
    {
      "inputs": [],
      "name": "renounceOwnership",
      "outputs": [],
      "stateMutability": "nonpayable",
      "type": "function"
    },
    {
      "inputs": [
        {
          "internalType": "uint256",
          "name": "_tokenId",
          "type": "uint256"
        }
      ],
      "name": "reset",
      "outputs": [],
      "stateMutability": "nonpayable",
      "type": "function"
    },
    {
      "inputs": [
        {
          "internalType": "address",
          "name": "_gauge",
          "type": "address"
        }
      ],
      "name": "reviveGauge",
      "outputs": [],
      "stateMutability": "nonpayable",
      "type": "function"
    },
    {
      "inputs": [
        {
          "internalType": "address",
          "name": "_bribeFactory",
          "type": "address"
        }
      ],
      "name": "setBribeFactory",
      "outputs": [],
      "stateMutability": "nonpayable",
      "type": "function"
    },
    {
      "inputs": [
        {
          "internalType": "address",
          "name": "_council",
          "type": "address"
        }
      ],
      "name": "setEmergencyCouncil",
      "outputs": [],
      "stateMutability": "nonpayable",
      "type": "function"
    },
    {
      "inputs": [
        {
          "internalType": "address",
          "name": "_gaugeFactory",
          "type": "address"
        }
      ],
      "name": "setGaugeFactory",
      "outputs": [],
      "stateMutability": "nonpayable",
      "type": "function"
    },
    {
      "inputs": [
        {
          "internalType": "address",
          "name": "_governor",
          "type": "address"
        }
      ],
      "name": "setGovernor",
      "outputs": [],
      "stateMutability": "nonpayable",
      "type": "function"
    },
    {
      "inputs": [
        {
          "internalType": "address",
          "name": "_minter",
          "type": "address"
        }
      ],
      "name": "setMinter",
      "outputs": [],
      "stateMutability": "nonpayable",
      "type": "function"
    },
    {
      "inputs": [
        {
          "internalType": "address",
          "name": "_gauge",
          "type": "address"
        },
        {
          "internalType": "address",
          "name": "_internal",
          "type": "address"
        },
        {
          "internalType": "address",
          "name": "_external",
          "type": "address"
        }
      ],
      "name": "setNewBribe",
      "outputs": [],
      "stateMutability": "nonpayable",
      "type": "function"
    },
    {
      "inputs": [
        {
          "internalType": "address",
          "name": "_factory",
          "type": "address"
        }
      ],
      "name": "setPairFactory",
      "outputs": [],
      "stateMutability": "nonpayable",
      "type": "function"
    },
    {
      "inputs": [
        {
          "internalType": "address",
          "name": "__ve",
          "type": "address"
        }
      ],
      "name": "setVotingEscrow",
      "outputs": [],
      "stateMutability": "nonpayable",
      "type": "function"
    },
    {
      "inputs": [],
      "name": "totalWeight",
      "outputs": [
        {
          "internalType": "uint256",
          "name": "",
          "type": "uint256"
        }
      ],
      "stateMutability": "view",
      "type": "function"
    },
    {
      "inputs": [
        {
          "internalType": "address",
          "name": "newOwner",
          "type": "address"
        }
      ],
      "name": "transferOwnership",
      "outputs": [],
      "stateMutability": "nonpayable",
      "type": "function"
    },
    {
      "inputs": [],
      "name": "updateAll",
      "outputs": [],
      "stateMutability": "nonpayable",
      "type": "function"
    },
    {
      "inputs": [
        {
          "internalType": "address[]",
          "name": "_gauges",
          "type": "address[]"
        }
      ],
      "name": "updateFor",
      "outputs": [],
      "stateMutability": "nonpayable",
      "type": "function"
    },
    {
      "inputs": [
        {
          "internalType": "uint256",
          "name": "start",
          "type": "uint256"
        },
        {
          "internalType": "uint256",
          "name": "end",
          "type": "uint256"
        }
      ],
      "name": "updateForRange",
      "outputs": [],
      "stateMutability": "nonpayable",
      "type": "function"
    },
    {
      "inputs": [
        {
          "internalType": "address",
          "name": "_gauge",
          "type": "address"
        }
      ],
      "name": "updateGauge",
      "outputs": [],
      "stateMutability": "nonpayable",
      "type": "function"
    },
    {
      "inputs": [
        {
          "internalType": "uint256",
          "name": "",
          "type": "uint256"
        }
      ],
      "name": "usedWeights",
      "outputs": [
        {
          "internalType": "uint256",
          "name": "",
          "type": "uint256"
        }
      ],
      "stateMutability": "view",
      "type": "function"
    },
    {
      "inputs": [
        {
          "internalType": "uint256",
          "name": "_tokenId",
          "type": "uint256"
        },
        {
          "internalType": "address[]",
          "name": "_poolVote",
          "type": "address[]"
        },
        {
          "internalType": "uint256[]",
          "name": "_weights",
          "type": "uint256[]"
        }
      ],
      "name": "vote",
      "outputs": [],
      "stateMutability": "nonpayable",
      "type": "function"
    },
    {
      "inputs": [
        {
          "internalType": "uint256",
          "name": "",
          "type": "uint256"
        },
        {
          "internalType": "address",
          "name": "",
          "type": "address"
        }
      ],
      "name": "votes",
      "outputs": [
        {
          "internalType": "uint256",
          "name": "",
          "type": "uint256"
        }
      ],
      "stateMutability": "view",
      "type": "function"
    },
    {
      "inputs": [
        {
          "internalType": "address",
          "name": "",
          "type": "address"
        }
      ],
      "name": "weights",
      "outputs": [
        {
          "internalType": "uint256",
          "name": "",
          "type": "uint256"
        }
      ],
      "stateMutability": "view",
      "type": "function"
    },
    {
      "inputs": [
        {
          "internalType": "address",
          "name": "_token",
          "type": "address"
        }
      ],
      "name": "whitelist",
      "outputs": [],
      "stateMutability": "nonpayable",
      "type": "function"
    },
    {
      "inputs": [
        {
          "internalType": "address[]",
          "name": "_token",
          "type": "address[]"
        }
      ],
      "name": "whitelist",
      "outputs": [],
      "stateMutability": "nonpayable",
      "type": "function"
    }
  ],
  "bytecode": "0x608060405234801561001057600080fd5b50614598806100206000396000f3fe608060405234801561001057600080fd5b50600436106103e65760003560e01c80638dd598fb1161020a578063b9a09fd511610125578063d560b0d7116100b8578063f2fde38b11610087578063f2fde38b14610954578063f3594be014610967578063f8c8765e14610987578063fca3b5aa1461099a578063ff5f03be146109ad57600080fd5b8063d560b0d7146108f2578063e586875f14610905578063ea94ee4414610918578063eae40f261461092b57600080fd5b8063c45a0155116100f4578063c45a01551461088e578063c527ee1f146108a1578063ce5ec92e146108b4578063d23254b4146108c757600080fd5b8063b9a09fd51461081f578063bd8aa78014610848578063c42cf5351461085b578063c445d88a1461086e57600080fd5b8063a61c713a1161019d578063a9b5aa7e1161016c578063a9b5aa7e146107ad578063aa79979b146107c0578063ac4afa38146107e3578063ae21c4cb146107f657600080fd5b8063a61c713a14610754578063a6357ac614610767578063a7cac8461461077a578063a86a366d1461079a57600080fd5b80639b6a9d72116101d95780639b6a9d72146107085780639edfd4601461071b5780639f06247b1461072e578063a5f4301e1461074157600080fd5b80638dd598fb146106c657806396c82e57146106d9578063992a7933146106e25780639b19251a146106f557600080fd5b806353d78693116103055780636ecbe38a116102985780637778960e116102675780637778960e1461065c5780637964bac91461066f57806379e93824146106825780637ac09bf7146106a25780638da5cb5b146106b557600080fd5b80636ecbe38a1461061b578063715018a61461062e5780637625391a146106365780637715ee751461064957600080fd5b80636447e7da116102d45780636447e7da146105c2578063666256aa146105e257806368c3acb3146105f5578063698473e31461060857600080fd5b806353d7869314610581578063556e091d146105895780636138889b1461059c57806363453ae1146105af57600080fd5b8063310bd74b1161037d5780633c6b16ab1161034c5780633c6b16ab14610533578063402914f514610546578063411b1f7714610566578063436596c41461057957600080fd5b8063310bd74b146104d757806332145f90146104ea57806338752a9d146104fd5780633af32abf1461051057600080fd5b80631703e5f9116103b95780631703e5f91461046c5780631f7b6d321461049f57806320b1cb6f146104b157806323130d11146104c457600080fd5b8063046fddf3146103eb57806306d6a1b21461040057806307546172146104465780630c340a2414610459575b600080fd5b6103fe6103f9366004613cec565b6109c0565b005b61042961040e366004613d3e565b60a6602052600090815260409020546001600160a01b031681565b6040516001600160a01b0390911681526020015b60405180910390f35b609c54610429906001600160a01b031681565b609d54610429906001600160a01b031681565b61048f61047a366004613d3e565b60b06020526000908152604090205460ff1681565b604051901515815260200161043d565b60a3545b60405190815260200161043d565b6103fe6104bf366004613de2565b610a50565b6103fe6104d2366004613d3e565b610b06565b6103fe6104e5366004613e46565b610b3f565b6103fe6104f8366004613e46565b610c48565b609b54610429906001600160a01b031681565b61048f61051e366004613d3e565b60af6020526000908152604090205460ff1681565b6103fe610541366004613e46565b610e23565b6104a3610554366004613d3e565b60a16020526000908152604090205481565b6103fe610574366004613e5f565b610ec6565b6103fe610f84565b6103fe610f95565b6103fe610597366004613d3e565b610fa4565b6103fe6105aa366004613e84565b6110d0565b6103fe6105bd366004613d3e565b611110565b6104a36105d0366004613e46565b600090815260ab602052604090205490565b6103fe6105f0366004613ec1565b611310565b609a54610429906001600160a01b031681565b6103fe610616366004613e5f565b611443565b6103fe610629366004613d3e565b61151d565b6103fe611526565b6103fe610644366004613f2e565b611538565b6103fe610657366004613ec1565b61159e565b609e54610429906001600160a01b031681565b6103fe61067d366004613d3e565b6116cb565b6104a3610690366004613e46565b60ac6020526000908152604090205481565b6103fe6106b0366004613f9c565b611704565b6033546001600160a01b0316610429565b609754610429906001600160a01b031681565b6104a360a25481565b6103fe6106f0366004613d3e565b611823565b6103fe610703366004613d3e565b611909565b6103fe610716366004613f2e565b611929565b6103fe610729366004613d3e565b61198f565b6103fe61073c366004613d3e565b611ad5565b61042961074f366004613d3e565b611baa565b6103fe610762366004614016565b6124b9565b6103fe61077536600461404e565b61253d565b6104a3610788366004613d3e565b60a96020526000908152604090205481565b6104296107a8366004613f2e565b6125bb565b6103fe6107bb366004613d3e565b6125f3565b61048f6107ce366004613d3e565b60ae6020526000908152604090205460ff1681565b6104296107f1366004613e46565b61262c565b610429610804366004613d3e565b60a8602052600090815260409020546001600160a01b031681565b61042961082d366004613d3e565b60a4602052600090815260409020546001600160a01b031681565b6103fe610856366004613e84565b612656565b6103fe610869366004613d3e565b6126a0565b6104a361087c366004613d3e565b60a56020526000908152604090205481565b609854610429906001600160a01b031681565b6103fe6108af366004613e84565b6126d9565b6103fe6108c2366004613d3e565b6127f6565b6104a36108d5366004613e5f565b60aa60209081526000928352604080842090915290825290205481565b6103fe610900366004613e84565b61286d565b6103fe610913366004613d3e565b6128ad565b6103fe610926366004614016565b6128e6565b610429610939366004613d3e565b60a7602052600090815260409020546001600160a01b031681565b6103fe610962366004613d3e565b612945565b6104a3610975366004613e46565b60ad6020526000908152604090205481565b6103fe610995366004614099565b6129bb565b6103fe6109a8366004613d3e565b612bc0565b6103fe6109bb3660046140f5565b612bf9565b609c546001600160a01b03163314806109e35750609e546001600160a01b031633145b6109ec57600080fd5b60005b8251811015610a2c57610a1a838281518110610a0d57610a0d61414f565b60200260200101516130ae565b80610a248161417b565b9150506109ef565b50609c80546001600160a01b0319166001600160a01b039290921691909117905550565b60005b8251811015610b0157828181518110610a6e57610a6e61414f565b60200260200101516001600160a01b03166331279d3d33848481518110610a9757610a9761414f565b60200260200101516040518363ffffffff1660e01b8152600401610abc9291906141d8565b600060405180830381600087803b158015610ad657600080fd5b505af1158015610aea573d6000803e3d6000fd5b505050508080610af99061417b565b915050610a53565b505050565b609e546001600160a01b03163314610b1d57600080fd5b609a80546001600160a01b0319166001600160a01b0392909216919091179055565b610b47613121565b60975460405163430c208160e01b81526001600160a01b039091169063430c208190610b7990339085906004016141fc565b602060405180830381865afa158015610b96573d6000803e3d6000fd5b505050506040513d601f19601f82011682018060405250810190610bba9190614215565b610bc357600080fd5b600081815260ad60205260409020429055610bdd8161317a565b60975460405163c1f0fb9f60e01b8152600481018390526001600160a01b039091169063c1f0fb9f90602401600060405180830381600087803b158015610c2357600080fd5b505af1158015610c37573d6000803e3d6000fd5b50505050610c456001606555565b50565b610c50613121565b60975460405163430c208160e01b81526001600160a01b039091169063430c208190610c8290339085906004016141fc565b602060405180830381865afa158015610c9f573d6000803e3d6000fd5b505050506040513d601f19601f82011682018060405250810190610cc39190614215565b610ccc57600080fd5b600081815260ab6020908152604080832080548251818502810185019093528083529192909190830182828015610d2c57602002820191906000526020600020905b81546001600160a01b03168152600190910190602001808311610d0e575b5050505050905060008151905060008167ffffffffffffffff811115610d5457610d54613bf8565b604051908082528060200260200182016040528015610d7d578160200160208202803683370190505b50905060005b82811015610e0a5760aa60008681526020019081526020016000206000858381518110610db257610db261414f565b60200260200101516001600160a01b03166001600160a01b0316815260200190815260200160002054828281518110610ded57610ded61414f565b602090810291909101015280610e028161417b565b915050610d83565b50610e16848483613428565b505050610c456001606555565b609954610e3b906001600160a01b031633308461386c565b60a254600090610e5383670de0b6b3a7640000614237565b610e5d9190614256565b90508015610e7d5780609f6000828254610e779190614278565b90915550505b6099546040518381526001600160a01b039091169033907ff70d5c697de7ea828df48e5c4573cb2194c659f1901f70110c52b066dcf50826906020015b60405180910390a35050565b33600090815260ae602052604090205460ff16610ee257600080fd5b8115610f4757609754604051634c35bec560e11b8152600481018490526001600160a01b039091169063986b7d8a90602401600060405180830381600087803b158015610f2e57600080fd5b505af1158015610f42573d6000803e3d6000fd5b505050505b60405182815233906001600160a01b038316907fae268d9aab12f3605f58efd74fd3801fa812b03fdb44317eb70f46dff0e19e2290602001610eba565b60a354610f9390600090611538565b565b60a354610f9390600090611929565b609e546001600160a01b03163314610fbb57600080fd5b6001600160a01b038116600090815260ae60205260409020805460ff1916600117905560995460405163095ea7b360e01b81526001600160a01b039091169063095ea7b3906110119084906000906004016141fc565b6020604051808303816000875af1158015611030573d6000803e3d6000fd5b505050506040513d601f19601f820116820180604052508101906110549190614215565b5060995460405163095ea7b360e01b81526001600160a01b039091169063095ea7b390611089908490600019906004016141fc565b6020604051808303816000875af11580156110a8573d6000803e3d6000fd5b505050506040513d601f19601f820116820180604052508101906110cc9190614215565b5050565b60005b81518110156110cc576110fe8282815181106110f1576110f161414f565b6020026020010151611110565b806111088161417b565b9150506110d3565b611118613121565b609c60009054906101000a90046001600160a01b03166001600160a01b031663ed29fc116040518163ffffffff1660e01b81526004016020604051808303816000875af115801561116d573d6000803e3d6000fd5b505050506040513d601f19601f820116820180604052508101906111919190614290565b5061119b81613964565b6001600160a01b03808216600090815260a1602090815260408083205460a5835281842054609c548351631a2732c160e31b81529351929691959491169263d139960892600480830193928290030181865afa1580156111ff573d6000803e3d6000fd5b505050506040513d601f19601f820116820180604052508101906112239190614290565b905060008311801561123457508082105b15610e16576001600160a01b03808516600081815260a1602052604080822091909155609954905163b66503cf60e01b8152919263b66503cf92611280929091169087906004016141fc565b600060405180830381600087803b15801561129a57600080fd5b505af11580156112ae573d6000803e3d6000fd5b505050506001600160a01b038416600081815260a56020908152604091829020849055905185815233917f4fa9693cae526341d334e2862ca2413b2e503f1266255f9e0869fb36e6d89b17910160405180910390a3505050610c456001606555565b60975460405163430c208160e01b81526001600160a01b039091169063430c20819061134290339085906004016141fc565b602060405180830381865afa15801561135f573d6000803e3d6000fd5b505050506040513d601f19601f820116820180604052508101906113839190614215565b61138c57600080fd5b60005b835181101561143d578381815181106113aa576113aa61414f565b60200260200101516001600160a01b031663a7852afa838584815181106113d3576113d361414f565b60200260200101516040518363ffffffff1660e01b81526004016113f89291906142a9565b600060405180830381600087803b15801561141257600080fd5b505af1158015611426573d6000803e3d6000fd5b5050505080806114359061417b565b91505061138f565b50505050565b33600090815260ae602052604090205460ff1661145f57600080fd5b33600090815260b0602052604090205460ff1661147b57600080fd5b81156114e05760975460405163fbd3a29d60e01b8152600481018490526001600160a01b039091169063fbd3a29d90602401600060405180830381600087803b1580156114c757600080fd5b505af11580156114db573d6000803e3d6000fd5b505050505b60405182815233906001600160a01b038316907f60940192810a6fb3bce3fd3e2e3a13fd6ccc7605e963fb87ee971aba829989bd90602001610eba565b610c4581613964565b61152e613a65565b610f936000613abf565b815b81811015610b015761158c60a4600060a3848154811061155c5761155c61414f565b60009182526020808320909101546001600160a01b03908116845290830193909352604090910190205416611110565b806115968161417b565b91505061153a565b60975460405163430c208160e01b81526001600160a01b039091169063430c2081906115d090339085906004016141fc565b602060405180830381865afa1580156115ed573d6000803e3d6000fd5b505050506040513d601f19601f820116820180604052508101906116119190614215565b61161a57600080fd5b60005b835181101561143d578381815181106116385761163861414f565b60200260200101516001600160a01b031663a7852afa838584815181106116615761166161414f565b60200260200101516040518363ffffffff1660e01b81526004016116869291906142a9565b600060405180830381600087803b1580156116a057600080fd5b505af11580156116b4573d6000803e3d6000fd5b5050505080806116c39061417b565b91505061161d565b609e546001600160a01b031633146116e257600080fd5b609880546001600160a01b0319166001600160a01b0392909216919091179055565b61170c613121565b60975460405163430c208160e01b81526001600160a01b039091169063430c20819061173e90339089906004016141fc565b602060405180830381865afa15801561175b573d6000803e3d6000fd5b505050506040513d601f19601f8201168201806040525081019061177f9190614215565b61178857600080fd5b82811461179457600080fd5b600085815260ad602090815260409182902042905581518582028181018301909352858152611812928892889188918291908501908490808284376000920191909152505060408051602080890282810182019093528882529093508892508791829185019084908082843760009201919091525061342892505050565b61181c6001606555565b5050505050565b609e546001600160a01b031633146118565760405162461bcd60e51b815260040161184d906142c2565b60405180910390fd5b6001600160a01b038116600090815260b0602052604090205460ff166118b35760405162461bcd60e51b815260206004820152601260248201527119d85d59d948185b1c9958591e481919585960721b604482015260640161184d565b6001600160a01b038116600081815260b060209081526040808320805460ff1916905560a1909152808220829055517f04a5d3f5d80d22d9345acc80618f4a4e7e663cf9e1aed23b57d975acec002ba79190a250565b609d546001600160a01b0316331461192057600080fd5b610c45816130ae565b815b81811015610b015761197d60a4600060a3848154811061194d5761194d61414f565b60009182526020808320909101546001600160a01b03908116845290830193909352604090910190205416613964565b806119878161417b565b91505061192b565b609e546001600160a01b031633146119b95760405162461bcd60e51b815260040161184d906142c2565b6001600160a01b038116600090815260b0602052604090205460ff16611a165760405162461bcd60e51b815260206004820152601260248201527119d85d59d948185b1c9958591e481919585960721b604482015260640161184d565b6001600160a01b03808216600081815260b060209081526040808320805460ff19908116825560a180855283862086815560a68652848720805460a7885286892080546001600160a01b031990811690915560a88952878a208054821690559a1680895260a4885286892080548c1690558989528154909a16905560ae86528487208054841690558354909216909255925290829055517f04a5d3f5d80d22d9345acc80618f4a4e7e663cf9e1aed23b57d975acec002ba79190a25050565b609e546001600160a01b03163314611aff5760405162461bcd60e51b815260040161184d906142c2565b6001600160a01b038116600090815260b0602052604090205460ff1615611b5e5760405162461bcd60e51b8152602060048201526013602482015272676175676520616c726561647920616c69766560681b604482015260640161184d565b6001600160a01b038116600081815260b06020526040808220805460ff19166001179055517fed18e9faa3dccfd8aa45f69c4de40546b2ca9cccc4538a2323531656516db1aa9190a250565b6001600160a01b03818116600090815260a4602052604081205490911615611bfd5760405162461bcd60e51b815260206004820152600660248201526565786973747360d01b604482015260640161184d565b60408051600380825260808201909252600091602082016060803683375050604080516002808252606082018352939450600093909250906020830190803683370190505060985460405163e5e31b1360e01b81526001600160a01b0387811660048301529293506000929091169063e5e31b1390602401602060405180830381865afa158015611c92573d6000803e3d6000fd5b505050506040513d601f19601f82011682018060405250810190611cb69190614215565b90506000808215611e5e57866001600160a01b0316639d63848a6040518163ffffffff1660e01b81526004016040805180830381865afa158015611cfe573d6000803e3d6000fd5b505050506040513d601f19601f82011682018060405250810190611d2291906142f1565b80925081935050508185600081518110611d3e57611d3e61414f565b60200260200101906001600160a01b031690816001600160a01b0316815250508085600181518110611d7257611d7261414f565b60200260200101906001600160a01b031690816001600160a01b0316815250508184600081518110611da657611da661414f565b60200260200101906001600160a01b031690816001600160a01b0316815250508084600181518110611dda57611dda61414f565b6001600160a01b039283166020918202929092010152609954811690831614801590611e1457506099546001600160a01b03828116911614155b15611e5e5760995485516001600160a01b039091169086906002908110611e3d57611e3d61414f565b60200260200101906001600160a01b031690816001600160a01b0316815250505b609d546001600160a01b03163314611f215782611ea65760405162461bcd60e51b81526020600482015260066024820152650857dc1bdbdb60d21b604482015260640161184d565b6001600160a01b038216600090815260af602052604090205460ff168015611ee657506001600160a01b038116600090815260af602052604090205460ff165b611f215760405162461bcd60e51b815260206004820152600c60248201526b085dda1a5d195b1a5cdd195960a21b604482015260640161184d565b6000876001600160a01b03166395d89b416040518163ffffffff1660e01b8152600401600060405180830381865afa158015611f61573d6000803e3d6000fd5b505050506040513d6000823e601f3d908101601f19168201604052611f89919081019061434c565b604051602001611f9991906143e0565b60408051601f19818403018152919052609b549091506000906001600160a01b031661e66b611fd06033546001600160a01b031690565b8686866040518563ffffffff1660e01b8152600401611ff29493929190614417565b6020604051808303816000875af1158015612011573d6000803e3d6000fd5b505050506040513d601f19601f82011682018060405250810190612035919061446d565b9050886001600160a01b03166395d89b416040518163ffffffff1660e01b8152600401600060405180830381865afa158015612075573d6000803e3d6000fd5b505050506040513d6000823e601f3d908101601f1916820160405261209d919081019061434c565b6040516020016120ad919061448a565b60408051601f19818403018152919052609b549092506000906001600160a01b031661e66b6120e46033546001600160a01b031690565b8787876040518563ffffffff1660e01b81526004016121069493929190614417565b6020604051808303816000875af1158015612125573d6000803e3d6000fd5b505050506040513d601f19601f82011682018060405250810190612149919061446d565b609a546099546097546040516307379e7760e41b81526001600160a01b03928316600482015290821660248201528d82166044820152306064820152858216608482015281841660a482015289151560c4820152929350600092911690637379e7709060e4016020604051808303816000875af11580156121ce573d6000803e3d6000fd5b505050506040513d601f19601f820116820180604052508101906121f2919061446d565b60995460405163095ea7b360e01b81529192506001600160a01b03169063095ea7b390612227908490600019906004016141fc565b6020604051808303816000875af1158015612246573d6000803e3d6000fd5b505050506040513d601f19601f8201168201806040525081019061226a9190614215565b508260a76000836001600160a01b03166001600160a01b0316815260200190815260200160002060006101000a8154816001600160a01b0302191690836001600160a01b031602179055508160a86000836001600160a01b03166001600160a01b0316815260200190815260200160002060006101000a8154816001600160a01b0302191690836001600160a01b031602179055508060a460008d6001600160a01b03166001600160a01b0316815260200190815260200160002060006101000a8154816001600160a01b0302191690836001600160a01b031602179055508a60a66000836001600160a01b03166001600160a01b0316815260200190815260200160002060006101000a8154816001600160a01b0302191690836001600160a01b03160217905550600160ae6000836001600160a01b03166001600160a01b0316815260200190815260200160002060006101000a81548160ff021916908315150217905550600160b06000836001600160a01b03166001600160a01b0316815260200190815260200160002060006101000a81548160ff02191690831515021790555061241881613964565b60a380546001810182556000919091527f60859188cffe297f44dde29f2d2865634621f26215049caeb304ccba566a8b170180546001600160a01b0319166001600160a01b038d8116918217909255604080513381528684166020820152919285811692908516917fa4d97e9e7c65249b4cd01acb82add613adea98af32daf092366982f0a0d4e453910160405180910390a49a9950505050505050505050565b33600090815260ae602052604090205460ff166124d557600080fd5b33600090815260b0602052604090205460ff166124f157600080fd5b604080518481526020810183905233916001600160a01b038516917fdcbc1c05240f31ff3ad067ef1ee35ce4997762752e3a095284754544f4c709d791015b60405180910390a3505050565b609e546001600160a01b0316331461255457600080fd5b6001600160a01b038316600090815260ae60205260409020805460ff191660011790556001600160a01b03928316600090815260a76020908152604080832080549587166001600160a01b031996871617905560a890915290208054919093169116179055565b60ab60205281600052604060002081815481106125d757600080fd5b6000918252602090912001546001600160a01b03169150829050565b609e546001600160a01b0316331461260a57600080fd5b609b80546001600160a01b0319166001600160a01b0392909216919091179055565b60a3818154811061263c57600080fd5b6000918252602090912001546001600160a01b0316905081565b609d546001600160a01b0316331461266d57600080fd5b60005b81518110156110cc5761268e828281518110610a0d57610a0d61414f565b806126988161417b565b915050612670565b609d546001600160a01b031633146126b757600080fd5b609d80546001600160a01b0319166001600160a01b0392909216919091179055565b60005b81518110156110cc578181815181106126f7576126f761414f565b60200260200101516001600160a01b031663e57482136040518163ffffffff1660e01b8152600401602060405180830381865afa15801561273c573d6000803e3d6000fd5b505050506040513d601f19601f820116820180604052508101906127609190614215565b156127e4578181815181106127775761277761414f565b60200260200101516001600160a01b031663d294f0936040518163ffffffff1660e01b815260040160408051808303816000875af11580156127bd573d6000803e3d6000fd5b505050506040513d601f19601f820116820180604052508101906127e191906144c0565b50505b806127ee8161417b565b9150506126dc565b336128096033546001600160a01b031690565b6001600160a01b03161461284b5760405162461bcd60e51b81526020600482015260096024820152683737ba1037bbb732b960b91b604482015260640161184d565b609780546001600160a01b0319166001600160a01b0392909216919091179055565b60005b81518110156110cc5761289b82828151811061288e5761288e61414f565b6020026020010151613964565b806128a58161417b565b915050612870565b609e546001600160a01b031633146128c457600080fd5b609e80546001600160a01b0319166001600160a01b0392909216919091179055565b33600090815260ae602052604090205460ff1661290257600080fd5b604080518481526020810183905233916001600160a01b038516917ff341246adaac6f497bc2a656f546ab9e182111d630394f0c57c710a59a2cb5679101612530565b61294d613a65565b6001600160a01b0381166129b25760405162461bcd60e51b815260206004820152602660248201527f4f776e61626c653a206e6577206f776e657220697320746865207a65726f206160448201526564647265737360d01b606482015260840161184d565b610c4581613abf565b600054610100900460ff16158080156129db5750600054600160ff909116105b806129f55750303b1580156129f5575060005460ff166001145b612a585760405162461bcd60e51b815260206004820152602e60248201527f496e697469616c697a61626c653a20636f6e747261637420697320616c72656160448201526d191e481a5b9a5d1a585b1a5e995960921b606482015260840161184d565b6000805460ff191660011790558015612a7b576000805461ff0019166101001790555b612a83613b11565b612a8b613b40565b609780546001600160a01b038088166001600160a01b03199283168117909355609880549188169190921617905560408051637e062a3560e11b8152905163fc0c546a916004808201926020929091908290030181865afa158015612af4573d6000803e3d6000fd5b505050506040513d601f19601f82011682018060405250810190612b18919061446d565b609980546001600160a01b03199081166001600160a01b0393841617909155609a80548216868416179055609b8054821692851692909217909155609c8054339083168117909155609d8054831682179055609e8054909216179055801561181c576000805461ff0019169055604051600181527f7f26b83ff96e1f2b6a682f133852f6798a09c465da95921460cefb38474024989060200160405180910390a15050505050565b609e546001600160a01b03163314612bd757600080fd5b609c80546001600160a01b0319166001600160a01b0392909216919091179055565b609e546001600160a01b03163314612c1057600080fd5b60005b8151811015610b01576000828281518110612c3057612c3061414f565b602002602001015190506000848381518110612c4e57612c4e61414f565b60200260200101519050600080836001600160a01b0316639d63848a6040518163ffffffff1660e01b81526004016040805180830381865afa158015612c98573d6000803e3d6000fd5b505050506040513d601f19601f82011682018060405250810190612cbc91906142f1565b80925081935050506000846001600160a01b03166395d89b416040518163ffffffff1660e01b8152600401600060405180830381865afa158015612d04573d6000803e3d6000fd5b505050506040513d6000823e601f3d908101601f19168201604052612d2c919081019061434c565b604051602001612d3c91906143e0565b60408051601f19818403018152919052609b549091506000906001600160a01b031661e66b612d736033546001600160a01b031690565b8686866040518563ffffffff1660e01b8152600401612d959493929190614417565b6020604051808303816000875af1158015612db4573d6000803e3d6000fd5b505050506040513d601f19601f82011682018060405250810190612dd8919061446d565b9050856001600160a01b03166395d89b416040518163ffffffff1660e01b8152600401600060405180830381865afa158015612e18573d6000803e3d6000fd5b505050506040513d6000823e601f3d908101601f19168201604052612e40919081019061434c565b604051602001612e50919061448a565b60408051601f19818403018152919052609b549092506000906001600160a01b031661e66b612e876033546001600160a01b031690565b8787876040518563ffffffff1660e01b8152600401612ea99493929190614417565b6020604051808303816000875af1158015612ec8573d6000803e3d6000fd5b505050506040513d601f19601f82011682018060405250810190612eec919061446d565b60995460405163095ea7b360e01b81529192506001600160a01b03169063095ea7b390612f21908990600019906004016141fc565b6020604051808303816000875af1158015612f40573d6000803e3d6000fd5b505050506040513d601f19601f82011682018060405250810190612f649190614215565b506001600160a01b03868116600081815260a76020908152604080832080546001600160a01b03199081168988161790915560a8835281842080548216888816179055948c1680845260a48352818420805487168617905593835260a68252808320805490951690931790935560ae8352818120805460ff19908116600190811790925560b0909452919020805490921617905561300186613964565b60a380546001810182556000919091527f60859188cffe297f44dde29f2d2865634621f26215049caeb304ccba566a8b170180546001600160a01b0319166001600160a01b03898116918217909255604080513381528584166020820152919284811692908a16917fa4d97e9e7c65249b4cd01acb82add613adea98af32daf092366982f0a0d4e453910160405180910390a45050505050505080806130a69061417b565b915050612c13565b6001600160a01b038116600090815260af602052604090205460ff16156130d457600080fd5b6001600160a01b038116600081815260af6020526040808220805460ff191660011790555133917f6661a7108aecd07864384529117d96c319c1163e3010c01390f6b704726e07de91a350565b6002606554036131735760405162461bcd60e51b815260206004820152601f60248201527f5265656e7472616e637947756172643a207265656e7472616e742063616c6c00604482015260640161184d565b6002606555565b600081815260ab6020526040812080549091805b828110156133e55760008482815481106131aa576131aa61414f565b600091825260208083209091015488835260aa825260408084206001600160a01b039092168085529190925291205490915080156133d0576001600160a01b03808316600090815260a460205260409020546132069116613964565b6001600160a01b038216600090815260a960205260408120805483929061322e9084906144e4565b9091555050600087815260aa602090815260408083206001600160a01b0386168452909152812080548392906132659084906144e4565b90915550508015613389576001600160a01b03828116600090815260a460209081526040808320548416835260a79091529081902054905163278afc8b60e21b815260048101849052602481018a9052911690639e2bf22c90604401600060405180830381600087803b1580156132db57600080fd5b505af11580156132ef573d6000803e3d6000fd5b505050506001600160a01b03828116600090815260a460209081526040808320548416835260a89091529081902054905163278afc8b60e21b815260048101849052602481018a9052911690639e2bf22c90604401600060405180830381600087803b15801561335e57600080fd5b505af1158015613372573d6000803e3d6000fd5b5050505080846133829190614278565b9350613396565b61339381856144e4565b93505b60408051888152602081018390527fa9f3ca5f8a9e1580edb2741e0ba560084ec72e0067ba3423f9e9327a176882db910160405180910390a15b505080806133dd9061417b565b91505061318e565b508060a260008282546133f891906144e4565b9091555050600084815260ac6020908152604080832083905560ab909152812061143d91613bc6565b6001606555565b6134318361317a565b81516097546040516339f890b560e21b8152600481018690526000916001600160a01b03169063e7e242d490602401602060405180830381865afa15801561347d573d6000803e3d6000fd5b505050506040513d601f19601f820116820180604052508101906134a19190614290565b90506000806000805b858110156134eb578681815181106134c4576134c461414f565b6020026020010151846134d79190614278565b9350806134e38161417b565b9150506134aa565b5060005b858110156137d457600088828151811061350b5761350b61414f565b6020908102919091018101516001600160a01b03808216600090815260a4845260408082205490921680825260ae909452205490925060ff16156137bf57600086888b868151811061355f5761355f61414f565b60200260200101516135719190614237565b61357b9190614256565b60008d815260aa602090815260408083206001600160a01b0388168452909152902054909150156135ab57600080fd5b806000036135b857600080fd5b6135c182613964565b60008c815260ab6020908152604080832080546001810182559084528284200180546001600160a01b0319166001600160a01b038816908117909155835260a990915281208054839290613616908490614278565b909155505060008c815260aa602090815260408083206001600160a01b03871684529091528120805483929061364d908490614278565b90915550506001600160a01b03808316600090815260a760205260409081902054905163f320772360e01b815260048101849052602481018f905291169063f320772390604401600060405180830381600087803b1580156136ae57600080fd5b505af11580156136c2573d6000803e3d6000fd5b5050505060a86000836001600160a01b03166001600160a01b0316815260200190815260200160002060009054906101000a90046001600160a01b03166001600160a01b031663f3207723828e6040518363ffffffff1660e01b8152600401613735929190918252602082015260400190565b600060405180830381600087803b15801561374f57600080fd5b505af1158015613763573d6000803e3d6000fd5b5050505080856137739190614278565b945061377f8187614278565b604080518e81526020810184905291975033917fea66f58e474bc09f580000e81f31b334d171db387d0c6098ba47bd897741679b910160405180910390a2505b505080806137cc9061417b565b9150506134ef565b50801561383a5760975460405163fd4a77f160e01b8152600481018a90526001600160a01b039091169063fd4a77f190602401600060405180830381600087803b15801561382157600080fd5b505af1158015613835573d6000803e3d6000fd5b505050505b8160a2600082825461384c9190614278565b9091555050600097885260ac602052604090972096909655505050505050565b6000846001600160a01b03163b1161388357600080fd5b604080516001600160a01b0385811660248301528481166044830152606480830185905283518084039091018152608490920183526020820180516001600160e01b03166323b872dd60e01b17905291516000928392908816916138e791906144fb565b6000604051808303816000865af19150503d8060008114613924576040519150601f19603f3d011682016040523d82523d6000602084013e613929565b606091505b50915091508180156139535750805115806139535750808060200190518101906139539190614215565b61395c57600080fd5b505050505050565b6001600160a01b03808216600090815260a6602090815260408083205490931680835260a9909152919020548015613a44576001600160a01b038316600090815260a0602052604081208054609f5491829055916139c283836144e4565b9050801561395c576000670de0b6b3a76400006139df8387614237565b6139e99190614256565b6001600160a01b038816600090815260b0602052604090205490915060ff1615613a3b576001600160a01b038716600090815260a1602052604081208054839290613a35908490614278565b90915550505b50505050505050565b609f546001600160a01b038416600090815260a06020526040902055505050565b6033546001600160a01b03163314610f935760405162461bcd60e51b815260206004820181905260248201527f4f776e61626c653a2063616c6c6572206973206e6f7420746865206f776e6572604482015260640161184d565b603380546001600160a01b038381166001600160a01b0319831681179093556040519116919082907f8be0079c531659141344cd1fd0a4f28419497f9722a3daafe3b4186f6b6457e090600090a35050565b600054610100900460ff16613b385760405162461bcd60e51b815260040161184d90614517565b610f93613b6f565b600054610100900460ff16613b675760405162461bcd60e51b815260040161184d90614517565b610f93613b9f565b600054610100900460ff16613b965760405162461bcd60e51b815260040161184d90614517565b610f9333613abf565b600054610100900460ff166134215760405162461bcd60e51b815260040161184d90614517565b5080546000825590600052602060002090810190610c4591905b80821115613bf45760008155600101613be0565b5090565b634e487b7160e01b600052604160045260246000fd5b604051601f8201601f1916810167ffffffffffffffff81118282101715613c3757613c37613bf8565b604052919050565b600067ffffffffffffffff821115613c5957613c59613bf8565b5060051b60200190565b6001600160a01b0381168114610c4557600080fd5b600082601f830112613c8957600080fd5b81356020613c9e613c9983613c3f565b613c0e565b82815260059290921b84018101918181019086841115613cbd57600080fd5b8286015b84811015613ce1578035613cd481613c63565b8352918301918301613cc1565b509695505050505050565b60008060408385031215613cff57600080fd5b823567ffffffffffffffff811115613d1657600080fd5b613d2285828601613c78565b9250506020830135613d3381613c63565b809150509250929050565b600060208284031215613d5057600080fd5b8135613d5b81613c63565b9392505050565b600082601f830112613d7357600080fd5b81356020613d83613c9983613c3f565b82815260059290921b84018101918181019086841115613da257600080fd5b8286015b84811015613ce157803567ffffffffffffffff811115613dc65760008081fd5b613dd48986838b0101613c78565b845250918301918301613da6565b60008060408385031215613df557600080fd5b823567ffffffffffffffff80821115613e0d57600080fd5b613e1986838701613c78565b93506020850135915080821115613e2f57600080fd5b50613e3c85828601613d62565b9150509250929050565b600060208284031215613e5857600080fd5b5035919050565b60008060408385031215613e7257600080fd5b823591506020830135613d3381613c63565b600060208284031215613e9657600080fd5b813567ffffffffffffffff811115613ead57600080fd5b613eb984828501613c78565b949350505050565b600080600060608486031215613ed657600080fd5b833567ffffffffffffffff80821115613eee57600080fd5b613efa87838801613c78565b94506020860135915080821115613f1057600080fd5b50613f1d86828701613d62565b925050604084013590509250925092565b60008060408385031215613f4157600080fd5b50508035926020909101359150565b60008083601f840112613f6257600080fd5b50813567ffffffffffffffff811115613f7a57600080fd5b6020830191508360208260051b8501011115613f9557600080fd5b9250929050565b600080600080600060608688031215613fb457600080fd5b85359450602086013567ffffffffffffffff80821115613fd357600080fd5b613fdf89838a01613f50565b90965094506040880135915080821115613ff857600080fd5b5061400588828901613f50565b969995985093965092949392505050565b60008060006060848603121561402b57600080fd5b83359250602084013561403d81613c63565b929592945050506040919091013590565b60008060006060848603121561406357600080fd5b833561406e81613c63565b9250602084013561407e81613c63565b9150604084013561408e81613c63565b809150509250925092565b600080600080608085870312156140af57600080fd5b84356140ba81613c63565b935060208501356140ca81613c63565b925060408501356140da81613c63565b915060608501356140ea81613c63565b939692955090935050565b6000806040838503121561410857600080fd5b823567ffffffffffffffff8082111561412057600080fd5b61412c86838701613c78565b9350602085013591508082111561414257600080fd5b50613e3c85828601613c78565b634e487b7160e01b600052603260045260246000fd5b634e487b7160e01b600052601160045260246000fd5b60006001820161418d5761418d614165565b5060010190565b600081518084526020808501945080840160005b838110156141cd5781516001600160a01b0316875295820195908201906001016141a8565b509495945050505050565b6001600160a01b0383168152604060208201819052600090613eb990830184614194565b6001600160a01b03929092168252602082015260400190565b60006020828403121561422757600080fd5b81518015158114613d5b57600080fd5b600081600019048311821515161561425157614251614165565b500290565b60008261427357634e487b7160e01b600052601260045260246000fd5b500490565b6000821982111561428b5761428b614165565b500190565b6000602082840312156142a257600080fd5b5051919050565b828152604060208201526000613eb96040830184614194565b6020808252601590820152741b9bdd08195b595c99d95b98de4818dbdd5b98da5b605a1b604082015260600190565b6000806040838503121561430457600080fd5b825161430f81613c63565b6020840151909250613d3381613c63565b60005b8381101561433b578181015183820152602001614323565b8381111561143d5750506000910152565b60006020828403121561435e57600080fd5b815167ffffffffffffffff8082111561437657600080fd5b818401915084601f83011261438a57600080fd5b81518181111561439c5761439c613bf8565b6143af601f8201601f1916602001613c0e565b91508082528560208285010111156143c657600080fd5b6143d7816020840160208601614320565b50949350505050565b6e02a3432b730902628102332b2b99d1608d1b81526000825161440a81600f850160208701614320565b91909101600f0192915050565b600060018060a01b03808716835280861660208401528085166040840152506080606083015282518060808401526144568160a0850160208701614320565b601f01601f19169190910160a00195945050505050565b60006020828403121561447f57600080fd5b8151613d5b81613c63565b6d02a3432b73090213934b132b99d160951b8152600082516144b381600e850160208701614320565b91909101600e0192915050565b600080604083850312156144d357600080fd5b505080516020909101519092909150565b6000828210156144f6576144f6614165565b500390565b6000825161450d818460208701614320565b9190910192915050565b6020808252602b908201527f496e697469616c697a61626c653a20636f6e7472616374206973206e6f74206960408201526a6e697469616c697a696e6760a81b60608201526080019056fea264697066735822122090661ebe4a823ad1f7308b4b285e77bfe6fd44b43571174d2c419523a1ba318f64736f6c634300080d0033",
  "linkReferences": {},
  "deployedLinkReferences": {}
}