{
  "_format": "hh-sol-artifact-1",
  "contractName": "VoterV2_1",
  "sourceName": "contracts/VoterV2_1.sol",
  "abi": [
    {
      "inputs": [],
      "stateMutability": "nonpayable",
      "type": "constructor"
    },
    {
      "anonymous": false,
      "inputs": [
        {
          "indexed": false,
          "internalType": "uint256",
          "name": "tokenId",
          "type": "uint256"
        },
        {
          "indexed": false,
          "internalType": "uint256",
          "name": "weight",
          "type": "uint256"
        }
      ],
      "name": "Abstained",
      "type": "event"
    },
    {
      "anonymous": false,
      "inputs": [
        {
          "indexed": true,
          "internalType": "address",
          "name": "owner",
          "type": "address"
        },
        {
          "indexed": true,
          "internalType": "address",
          "name": "gauge",
          "type": "address"
        },
        {
          "indexed": false,
          "internalType": "uint256",
          "name": "tokenId",
          "type": "uint256"
        }
      ],
      "name": "Attach",
      "type": "event"
    },
    {
      "anonymous": false,
      "inputs": [
        {
          "indexed": true,
          "internalType": "address",
          "name": "lp",
          "type": "address"
        },
        {
          "indexed": true,
          "internalType": "address",
          "name": "gauge",
          "type": "address"
        },
        {
          "indexed": false,
          "internalType": "uint256",
          "name": "tokenId",
          "type": "uint256"
        },
        {
          "indexed": false,
          "internalType": "uint256",
          "name": "amount",
          "type": "uint256"
        }
      ],
      "name": "Deposit",
      "type": "event"
    },
    {
      "anonymous": false,
      "inputs": [
        {
          "indexed": true,
          "internalType": "address",
          "name": "owner",
          "type": "address"
        },
        {
          "indexed": true,
          "internalType": "address",
          "name": "gauge",
          "type": "address"
        },
        {
          "indexed": false,
          "internalType": "uint256",
          "name": "tokenId",
          "type": "uint256"
        }
      ],
      "name": "Detach",
      "type": "event"
    },
    {
      "anonymous": false,
      "inputs": [
        {
          "indexed": true,
          "internalType": "address",
          "name": "sender",
          "type": "address"
        },
        {
          "indexed": true,
          "internalType": "address",
          "name": "gauge",
          "type": "address"
        },
        {
          "indexed": false,
          "internalType": "uint256",
          "name": "amount",
          "type": "uint256"
        }
      ],
      "name": "DistributeReward",
      "type": "event"
    },
    {
      "anonymous": false,
      "inputs": [
        {
          "indexed": true,
          "internalType": "address",
          "name": "gauge",
          "type": "address"
        },
        {
          "indexed": false,
          "internalType": "address",
          "name": "creator",
          "type": "address"
        },
        {
          "indexed": false,
          "internalType": "address",
          "name": "internal_bribe",
          "type": "address"
        },
        {
          "indexed": true,
          "internalType": "address",
          "name": "external_bribe",
          "type": "address"
        },
        {
          "indexed": true,
          "internalType": "address",
          "name": "pool",
          "type": "address"
        }
      ],
      "name": "GaugeCreated",
      "type": "event"
    },
    {
      "anonymous": false,
      "inputs": [
        {
          "indexed": true,
          "internalType": "address",
          "name": "gauge",
          "type": "address"
        }
      ],
      "name": "GaugeKilled",
      "type": "event"
    },
    {
      "anonymous": false,
      "inputs": [
        {
          "indexed": true,
          "internalType": "address",
          "name": "gauge",
          "type": "address"
        }
      ],
      "name": "GaugeRevived",
      "type": "event"
    },
    {
      "anonymous": false,
      "inputs": [
        {
          "indexed": false,
          "internalType": "uint8",
          "name": "version",
          "type": "uint8"
        }
      ],
      "name": "Initialized",
      "type": "event"
    },
    {
      "anonymous": false,
      "inputs": [
        {
          "indexed": true,
          "internalType": "address",
          "name": "sender",
          "type": "address"
        },
        {
          "indexed": true,
          "internalType": "address",
          "name": "reward",
          "type": "address"
        },
        {
          "indexed": false,
          "internalType": "uint256",
          "name": "amount",
          "type": "uint256"
        }
      ],
      "name": "NotifyReward",
      "type": "event"
    },
    {
      "anonymous": false,
      "inputs": [
        {
          "indexed": true,
          "internalType": "address",
          "name": "previousOwner",
          "type": "address"
        },
        {
          "indexed": true,
          "internalType": "address",
          "name": "newOwner",
          "type": "address"
        }
      ],
      "name": "OwnershipTransferred",
      "type": "event"
    },
    {
      "anonymous": false,
      "inputs": [
        {
          "indexed": true,
          "internalType": "address",
          "name": "voter",
          "type": "address"
        },
        {
          "indexed": false,
          "internalType": "uint256",
          "name": "tokenId",
          "type": "uint256"
        },
        {
          "indexed": false,
          "internalType": "uint256",
          "name": "weight",
          "type": "uint256"
        }
      ],
      "name": "Voted",
      "type": "event"
    },
    {
      "anonymous": false,
      "inputs": [
        {
          "indexed": true,
          "internalType": "address",
          "name": "whitelister",
          "type": "address"
        },
        {
          "indexed": true,
          "internalType": "address",
          "name": "token",
          "type": "address"
        }
      ],
      "name": "Whitelisted",
      "type": "event"
    },
    {
      "anonymous": false,
      "inputs": [
        {
          "indexed": true,
          "internalType": "address",
          "name": "lp",
          "type": "address"
        },
        {
          "indexed": true,
          "internalType": "address",
          "name": "gauge",
          "type": "address"
        },
        {
          "indexed": false,
          "internalType": "uint256",
          "name": "tokenId",
          "type": "uint256"
        },
        {
          "indexed": false,
          "internalType": "uint256",
          "name": "amount",
          "type": "uint256"
        }
      ],
      "name": "Withdraw",
      "type": "event"
    },
    {
      "inputs": [
        {
          "internalType": "address[]",
          "name": "_tokens",
          "type": "address[]"
        },
        {
          "internalType": "address",
          "name": "_minter",
          "type": "address"
        }
      ],
      "name": "_initialize",
      "outputs": [],
      "stateMutability": "nonpayable",
      "type": "function"
    },
    {
      "inputs": [],
      "name": "_ve",
      "outputs": [
        {
          "internalType": "address",
          "name": "",
          "type": "address"
        }
      ],
      "stateMutability": "view",
      "type": "function"
    },
    {
      "inputs": [
        {
          "internalType": "uint256",
          "name": "tokenId",
          "type": "uint256"
        },
        {
          "internalType": "address",
          "name": "account",
          "type": "address"
        }
      ],
      "name": "attachTokenToGauge",
      "outputs": [],
      "stateMutability": "nonpayable",
      "type": "function"
    },
    {
      "inputs": [],
      "name": "bribefactory",
      "outputs": [
        {
          "internalType": "address",
          "name": "",
          "type": "address"
        }
      ],
      "stateMutability": "view",
      "type": "function"
    },
    {
      "inputs": [
        {
          "internalType": "address[]",
          "name": "_bribes",
          "type": "address[]"
        },
        {
          "internalType": "address[][]",
          "name": "_tokens",
          "type": "address[][]"
        },
        {
          "internalType": "uint256",
          "name": "_tokenId",
          "type": "uint256"
        }
      ],
      "name": "claimBribes",
      "outputs": [],
      "stateMutability": "nonpayable",
      "type": "function"
    },
    {
      "inputs": [
        {
          "internalType": "address[]",
          "name": "_fees",
          "type": "address[]"
        },
        {
          "internalType": "address[][]",
          "name": "_tokens",
          "type": "address[][]"
        },
        {
          "internalType": "uint256",
          "name": "_tokenId",
          "type": "uint256"
        }
      ],
      "name": "claimFees",
      "outputs": [],
      "stateMutability": "nonpayable",
      "type": "function"
    },
    {
      "inputs": [
        {
          "internalType": "address[]",
          "name": "_gauges",
          "type": "address[]"
        },
        {
          "internalType": "address[][]",
          "name": "_tokens",
          "type": "address[][]"
        }
      ],
      "name": "claimRewards",
      "outputs": [],
      "stateMutability": "nonpayable",
      "type": "function"
    },
    {
      "inputs": [
        {
          "internalType": "address",
          "name": "",
          "type": "address"
        }
      ],
      "name": "claimable",
      "outputs": [
        {
          "internalType": "uint256",
          "name": "",
          "type": "uint256"
        }
      ],
      "stateMutability": "view",
      "type": "function"
    },
    {
      "inputs": [
        {
          "internalType": "address",
          "name": "_pool",
          "type": "address"
        }
      ],
      "name": "createGauge",
      "outputs": [
        {
          "internalType": "address",
          "name": "",
          "type": "address"
        }
      ],
      "stateMutability": "nonpayable",
      "type": "function"
    },
    {
      "inputs": [
        {
          "internalType": "uint256",
          "name": "tokenId",
          "type": "uint256"
        },
        {
          "internalType": "address",
          "name": "account",
          "type": "address"
        }
      ],
      "name": "detachTokenFromGauge",
      "outputs": [],
      "stateMutability": "nonpayable",
      "type": "function"
    },
    {
      "inputs": [
        {
          "internalType": "address[]",
          "name": "_gauges",
          "type": "address[]"
        }
      ],
      "name": "distribute",
      "outputs": [],
      "stateMutability": "nonpayable",
      "type": "function"
    },
    {
      "inputs": [
        {
          "internalType": "address",
          "name": "_gauge",
          "type": "address"
        }
      ],
      "name": "distribute",
      "outputs": [],
      "stateMutability": "nonpayable",
      "type": "function"
    },
    {
      "inputs": [
        {
          "internalType": "uint256",
          "name": "start",
          "type": "uint256"
        },
        {
          "internalType": "uint256",
          "name": "finish",
          "type": "uint256"
        }
      ],
      "name": "distribute",
      "outputs": [],
      "stateMutability": "nonpayable",
      "type": "function"
    },
    {
      "inputs": [],
      "name": "distributeAll",
      "outputs": [],
      "stateMutability": "nonpayable",
      "type": "function"
    },
    {
      "inputs": [
        {
          "internalType": "address[]",
          "name": "_gauges",
          "type": "address[]"
        }
      ],
      "name": "distributeFees",
      "outputs": [],
      "stateMutability": "nonpayable",
      "type": "function"
    },
    {
      "inputs": [],
      "name": "emergencyCouncil",
      "outputs": [
        {
          "internalType": "address",
          "name": "",
          "type": "address"
        }
      ],
      "stateMutability": "view",
      "type": "function"
    },
    {
      "inputs": [
        {
          "internalType": "uint256",
          "name": "tokenId",
          "type": "uint256"
        },
        {
          "internalType": "address",
          "name": "account",
          "type": "address"
        },
        {
          "internalType": "uint256",
          "name": "amount",
          "type": "uint256"
        }
      ],
      "name": "emitDeposit",
      "outputs": [],
      "stateMutability": "nonpayable",
      "type": "function"
    },
    {
      "inputs": [
        {
          "internalType": "uint256",
          "name": "tokenId",
          "type": "uint256"
        },
        {
          "internalType": "address",
          "name": "account",
          "type": "address"
        },
        {
          "internalType": "uint256",
          "name": "amount",
          "type": "uint256"
        }
      ],
      "name": "emitWithdraw",
      "outputs": [],
      "stateMutability": "nonpayable",
      "type": "function"
    },
    {
      "inputs": [
        {
          "internalType": "address",
          "name": "",
          "type": "address"
        }
      ],
      "name": "external_bribes",
      "outputs": [
        {
          "internalType": "address",
          "name": "",
          "type": "address"
        }
      ],
      "stateMutability": "view",
      "type": "function"
    },
    {
      "inputs": [],
      "name": "factory",
      "outputs": [
        {
          "internalType": "address",
          "name": "",
          "type": "address"
        }
      ],
      "stateMutability": "view",
      "type": "function"
    },
    {
      "inputs": [],
      "name": "gaugefactory",
      "outputs": [
        {
          "internalType": "address",
          "name": "",
          "type": "address"
        }
      ],
      "stateMutability": "view",
      "type": "function"
    },
    {
      "inputs": [
        {
          "internalType": "address",
          "name": "",
          "type": "address"
        }
      ],
      "name": "gauges",
      "outputs": [
        {
          "internalType": "address",
          "name": "",
          "type": "address"
        }
      ],
      "stateMutability": "view",
      "type": "function"
    },
    {
      "inputs": [
        {
          "internalType": "address",
          "name": "",
          "type": "address"
        }
      ],
      "name": "gaugesDistributionTimestmap",
      "outputs": [
        {
          "internalType": "uint256",
          "name": "",
          "type": "uint256"
        }
      ],
      "stateMutability": "view",
      "type": "function"
    },
    {
      "inputs": [],
      "name": "governor",
      "outputs": [
        {
          "internalType": "address",
          "name": "",
          "type": "address"
        }
      ],
      "stateMutability": "view",
      "type": "function"
    },
    {
      "inputs": [
        {
          "internalType": "address",
          "name": "_gauge",
          "type": "address"
        }
      ],
      "name": "increaseGaugeApprovals",
      "outputs": [],
      "stateMutability": "nonpayable",
      "type": "function"
    },
    {
      "inputs": [
        {
          "internalType": "address[]",
          "name": "_gauges",
          "type": "address[]"
        },
        {
          "internalType": "address[]",
          "name": "_pools",
          "type": "address[]"
        }
      ],
      "name": "initGauges",
      "outputs": [],
      "stateMutability": "nonpayable",
      "type": "function"
    },
    {
      "inputs": [
        {
          "internalType": "address",
          "name": "__ve",
          "type": "address"
        },
        {
          "internalType": "address",
          "name": "_factory",
          "type": "address"
        },
        {
          "internalType": "address",
          "name": "_gauges",
          "type": "address"
        },
        {
          "internalType": "address",
          "name": "_bribes",
          "type": "address"
        }
      ],
      "name": "initialize",
      "outputs": [],
      "stateMutability": "nonpayable",
      "type": "function"
    },
    {
      "inputs": [
        {
          "internalType": "address",
          "name": "",
          "type": "address"
        }
      ],
      "name": "internal_bribes",
      "outputs": [
        {
          "internalType": "address",
          "name": "",
          "type": "address"
        }
      ],
      "stateMutability": "view",
      "type": "function"
    },
    {
      "inputs": [
        {
          "internalType": "address",
          "name": "",
          "type": "address"
        }
      ],
      "name": "isAlive",
      "outputs": [
        {
          "internalType": "bool",
          "name": "",
          "type": "bool"
        }
      ],
      "stateMutability": "view",
      "type": "function"
    },
    {
      "inputs": [
        {
          "internalType": "address",
          "name": "",
          "type": "address"
        }
      ],
      "name": "isGauge",
      "outputs": [
        {
          "internalType": "bool",
          "name": "",
          "type": "bool"
        }
      ],
      "stateMutability": "view",
      "type": "function"
    },
    {
      "inputs": [
        {
          "internalType": "address",
          "name": "",
          "type": "address"
        }
      ],
      "name": "isWhitelisted",
      "outputs": [
        {
          "internalType": "bool",
          "name": "",
          "type": "bool"
        }
      ],
      "stateMutability": "view",
      "type": "function"
    },
    {
      "inputs": [
        {
          "internalType": "address",
          "name": "_gauge",
          "type": "address"
        }
      ],
      "name": "killGauge",
      "outputs": [],
      "stateMutability": "nonpayable",
      "type": "function"
    },
    {
      "inputs": [
        {
          "internalType": "address",
          "name": "_gauge",
          "type": "address"
        }
      ],
      "name": "killGaugeTotally",
      "outputs": [],
      "stateMutability": "nonpayable",
      "type": "function"
    },
    {
      "inputs": [
        {
          "internalType": "uint256",
          "name": "",
          "type": "uint256"
        }
      ],
      "name": "lastVoted",
      "outputs": [
        {
          "internalType": "uint256",
          "name": "",
          "type": "uint256"
        }
      ],
      "stateMutability": "view",
      "type": "function"
    },
    {
      "inputs": [],
      "name": "length",
      "outputs": [
        {
          "internalType": "uint256",
          "name": "",
          "type": "uint256"
        }
      ],
      "stateMutability": "view",
      "type": "function"
    },
    {
      "inputs": [],
      "name": "minter",
      "outputs": [
        {
          "internalType": "address",
          "name": "",
          "type": "address"
        }
      ],
      "stateMutability": "view",
      "type": "function"
    },
    {
      "inputs": [
        {
          "internalType": "uint256",
          "name": "amount",
          "type": "uint256"
        }
      ],
      "name": "notifyRewardAmount",
      "outputs": [],
      "stateMutability": "nonpayable",
      "type": "function"
    },
    {
      "inputs": [],
      "name": "owner",
      "outputs": [
        {
          "internalType": "address",
          "name": "",
          "type": "address"
        }
      ],
      "stateMutability": "view",
      "type": "function"
    },
    {
      "inputs": [
        {
          "internalType": "uint256",
          "name": "_tokenId",
          "type": "uint256"
        }
      ],
      "name": "poke",
      "outputs": [],
      "stateMutability": "nonpayable",
      "type": "function"
    },
    {
      "inputs": [
        {
          "internalType": "address",
          "name": "",
          "type": "address"
        }
      ],
      "name": "poolForGauge",
      "outputs": [
        {
          "internalType": "address",
          "name": "",
          "type": "address"
        }
      ],
      "stateMutability": "view",
      "type": "function"
    },
    {
      "inputs": [
        {
          "internalType": "uint256",
          "name": "",
          "type": "uint256"
        },
        {
          "internalType": "uint256",
          "name": "",
          "type": "uint256"
        }
      ],
      "name": "poolVote",
      "outputs": [
        {
          "internalType": "address",
          "name": "",
          "type": "address"
        }
      ],
      "stateMutability": "view",
      "type": "function"
    },
    {
      "inputs": [
        {
          "internalType": "uint256",
          "name": "tokenId",
          "type": "uint256"
        }
      ],
      "name": "poolVoteLength",
      "outputs": [
        {
          "internalType": "uint256",
          "name": "",
          "type": "uint256"
        }
      ],
      "stateMutability": "view",
      "type": "function"
    },
    {
      "inputs": [
        {
          "internalType": "uint256",
          "name": "",
          "type": "uint256"
        }
      ],
      "name": "pools",
      "outputs": [
        {
          "internalType": "address",
          "name": "",
          "type": "address"
        }
      ],
      "stateMutability": "view",
      "type": "function"
    },
    {
      "inputs": [],
      "name": "renounceOwnership",
      "outputs": [],
      "stateMutability": "nonpayable",
      "type": "function"
    },
    {
      "inputs": [
        {
          "internalType": "uint256",
          "name": "_tokenId",
          "type": "uint256"
        }
      ],
      "name": "reset",
      "outputs": [],
      "stateMutability": "nonpayable",
      "type": "function"
    },
    {
      "inputs": [
        {
          "internalType": "address",
          "name": "_gauge",
          "type": "address"
        }
      ],
      "name": "reviveGauge",
      "outputs": [],
      "stateMutability": "nonpayable",
      "type": "function"
    },
    {
      "inputs": [
        {
          "internalType": "address",
          "name": "_bribeFactory",
          "type": "address"
        }
      ],
      "name": "setBribeFactory",
      "outputs": [],
      "stateMutability": "nonpayable",
      "type": "function"
    },
    {
      "inputs": [
        {
          "internalType": "address",
          "name": "_council",
          "type": "address"
        }
      ],
      "name": "setEmergencyCouncil",
      "outputs": [],
      "stateMutability": "nonpayable",
      "type": "function"
    },
    {
      "inputs": [
        {
          "internalType": "address",
          "name": "_gaugeFactory",
          "type": "address"
        }
      ],
      "name": "setGaugeFactory",
      "outputs": [],
      "stateMutability": "nonpayable",
      "type": "function"
    },
    {
      "inputs": [
        {
          "internalType": "address",
          "name": "_governor",
          "type": "address"
        }
      ],
      "name": "setGovernor",
      "outputs": [],
      "stateMutability": "nonpayable",
      "type": "function"
    },
    {
      "inputs": [
        {
          "internalType": "address",
          "name": "_minter",
          "type": "address"
        }
      ],
      "name": "setMinter",
      "outputs": [],
      "stateMutability": "nonpayable",
      "type": "function"
    },
    {
      "inputs": [
        {
          "internalType": "address",
          "name": "_gauge",
          "type": "address"
        },
        {
          "internalType": "address",
          "name": "_internal",
          "type": "address"
        },
        {
          "internalType": "address",
          "name": "_external",
          "type": "address"
        }
      ],
      "name": "setNewBribe",
      "outputs": [],
      "stateMutability": "nonpayable",
      "type": "function"
    },
    {
      "inputs": [
        {
          "internalType": "address",
          "name": "_factory",
          "type": "address"
        }
      ],
      "name": "setPairFactory",
      "outputs": [],
      "stateMutability": "nonpayable",
      "type": "function"
    },
    {
      "inputs": [],
      "name": "totalWeight",
      "outputs": [
        {
          "internalType": "uint256",
          "name": "",
          "type": "uint256"
        }
      ],
      "stateMutability": "view",
      "type": "function"
    },
    {
      "inputs": [
        {
          "internalType": "address",
          "name": "newOwner",
          "type": "address"
        }
      ],
      "name": "transferOwnership",
      "outputs": [],
      "stateMutability": "nonpayable",
      "type": "function"
    },
    {
      "inputs": [],
      "name": "updateAll",
      "outputs": [],
      "stateMutability": "nonpayable",
      "type": "function"
    },
    {
      "inputs": [
        {
          "internalType": "address[]",
          "name": "_gauges",
          "type": "address[]"
        }
      ],
      "name": "updateFor",
      "outputs": [],
      "stateMutability": "nonpayable",
      "type": "function"
    },
    {
      "inputs": [
        {
          "internalType": "uint256",
          "name": "start",
          "type": "uint256"
        },
        {
          "internalType": "uint256",
          "name": "end",
          "type": "uint256"
        }
      ],
      "name": "updateForRange",
      "outputs": [],
      "stateMutability": "nonpayable",
      "type": "function"
    },
    {
      "inputs": [
        {
          "internalType": "address",
          "name": "_gauge",
          "type": "address"
        }
      ],
      "name": "updateGauge",
      "outputs": [],
      "stateMutability": "nonpayable",
      "type": "function"
    },
    {
      "inputs": [
        {
          "internalType": "uint256",
          "name": "",
          "type": "uint256"
        }
      ],
      "name": "usedWeights",
      "outputs": [
        {
          "internalType": "uint256",
          "name": "",
          "type": "uint256"
        }
      ],
      "stateMutability": "view",
      "type": "function"
    },
    {
      "inputs": [
        {
          "internalType": "uint256",
          "name": "_tokenId",
          "type": "uint256"
        },
        {
          "internalType": "address[]",
          "name": "_poolVote",
          "type": "address[]"
        },
        {
          "internalType": "uint256[]",
          "name": "_weights",
          "type": "uint256[]"
        }
      ],
      "name": "vote",
      "outputs": [],
      "stateMutability": "nonpayable",
      "type": "function"
    },
    {
      "inputs": [
        {
          "internalType": "uint256",
          "name": "",
          "type": "uint256"
        },
        {
          "internalType": "address",
          "name": "",
          "type": "address"
        }
      ],
      "name": "votes",
      "outputs": [
        {
          "internalType": "uint256",
          "name": "",
          "type": "uint256"
        }
      ],
      "stateMutability": "view",
      "type": "function"
    },
    {
      "inputs": [
        {
          "internalType": "address",
          "name": "",
          "type": "address"
        }
      ],
      "name": "weights",
      "outputs": [
        {
          "internalType": "uint256",
          "name": "",
          "type": "uint256"
        }
      ],
      "stateMutability": "view",
      "type": "function"
    },
    {
      "inputs": [
        {
          "internalType": "address",
          "name": "_token",
          "type": "address"
        }
      ],
      "name": "whitelist",
      "outputs": [],
      "stateMutability": "nonpayable",
      "type": "function"
    },
    {
      "inputs": [
        {
          "internalType": "address[]",
          "name": "_token",
          "type": "address[]"
        }
      ],
      "name": "whitelist",
      "outputs": [],
      "stateMutability": "nonpayable",
      "type": "function"
    }
  ],
  "bytecode": "0x608060405234801561001057600080fd5b50614503806100206000396000f3fe608060405234801561001057600080fd5b50600436106103db5760003560e01c80638da5cb5b1161020a578063ae21c4cb11610125578063d560b0d7116100b8578063f2fde38b11610087578063f2fde38b14610936578063f3594be014610949578063f8c8765e14610969578063fca3b5aa1461097c578063ff5f03be1461098f57600080fd5b8063d560b0d7146108d4578063e586875f146108e7578063ea94ee44146108fa578063eae40f261461090d57600080fd5b8063c445d88a116100f4578063c445d88a14610863578063c45a015514610883578063c527ee1f14610896578063d23254b4146108a957600080fd5b8063ae21c4cb146107eb578063b9a09fd514610814578063bd8aa7801461083d578063c42cf5351461085057600080fd5b8063a5f4301e1161019d578063a86a366d1161016c578063a86a366d1461078f578063a9b5aa7e146107a2578063aa79979b146107b5578063ac4afa38146107d857600080fd5b8063a5f4301e14610736578063a61c713a14610749578063a6357ac61461075c578063a7cac8461461076f57600080fd5b80639b19251a116101d95780639b19251a146106ea5780639b6a9d72146106fd5780639edfd460146107105780639f06247b1461072357600080fd5b80638da5cb5b146106aa5780638dd598fb146106bb57806396c82e57146106ce578063992a7933146106d757600080fd5b806353d78693116102fa5780636ecbe38a1161028d5780637778960e1161025c5780637778960e146106515780637964bac91461066457806379e93824146106775780637ac09bf71461069757600080fd5b80636ecbe38a14610610578063715018a6146106235780637625391a1461062b5780637715ee751461063e57600080fd5b80636447e7da116102c95780636447e7da146105b7578063666256aa146105d757806368c3acb3146105ea578063698473e3146105fd57600080fd5b806353d7869314610576578063556e091d1461057e5780636138889b1461059157806363453ae1146105a457600080fd5b8063310bd74b116103725780633c6b16ab116103415780633c6b16ab14610528578063402914f51461053b578063411b1f771461055b578063436596c41461056e57600080fd5b8063310bd74b146104cc57806332145f90146104df57806338752a9d146104f25780633af32abf1461050557600080fd5b80631703e5f9116103ae5780631703e5f9146104615780631f7b6d321461049457806320b1cb6f146104a657806323130d11146104b957600080fd5b8063046fddf3146103e057806306d6a1b2146103f5578063075461721461043b5780630c340a241461044e575b600080fd5b6103f36103ee366004613c57565b6109a2565b005b61041e610403366004613ca9565b60a6602052600090815260409020546001600160a01b031681565b6040516001600160a01b0390911681526020015b60405180910390f35b609c5461041e906001600160a01b031681565b609d5461041e906001600160a01b031681565b61048461046f366004613ca9565b60b06020526000908152604090205460ff1681565b6040519015158152602001610432565b60a3545b604051908152602001610432565b6103f36104b4366004613d4d565b610a32565b6103f36104c7366004613ca9565b610ae8565b6103f36104da366004613db1565b610b21565b6103f36104ed366004613db1565b610c2a565b609b5461041e906001600160a01b031681565b610484610513366004613ca9565b60af6020526000908152604090205460ff1681565b6103f3610536366004613db1565b610e05565b610498610549366004613ca9565b60a16020526000908152604090205481565b6103f3610569366004613dca565b610ea8565b6103f3610f66565b6103f3610f77565b6103f361058c366004613ca9565b610f86565b6103f361059f366004613def565b6110b2565b6103f36105b2366004613ca9565b6110f2565b6104986105c5366004613db1565b600090815260ab602052604090205490565b6103f36105e5366004613e2c565b6112f2565b609a5461041e906001600160a01b031681565b6103f361060b366004613dca565b611425565b6103f361061e366004613ca9565b6114ff565b6103f3611508565b6103f3610639366004613e99565b61151a565b6103f361064c366004613e2c565b611580565b609e5461041e906001600160a01b031681565b6103f3610672366004613ca9565b6116ad565b610498610685366004613db1565b60ac6020526000908152604090205481565b6103f36106a5366004613f07565b6116e6565b6033546001600160a01b031661041e565b60975461041e906001600160a01b031681565b61049860a25481565b6103f36106e5366004613ca9565b611805565b6103f36106f8366004613ca9565b6118eb565b6103f361070b366004613e99565b61190b565b6103f361071e366004613ca9565b611971565b6103f3610731366004613ca9565b611ab7565b61041e610744366004613ca9565b611b8c565b6103f3610757366004613f81565b61249b565b6103f361076a366004613fb9565b61251f565b61049861077d366004613ca9565b60a96020526000908152604090205481565b61041e61079d366004613e99565b61259d565b6103f36107b0366004613ca9565b6125d5565b6104846107c3366004613ca9565b60ae6020526000908152604090205460ff1681565b61041e6107e6366004613db1565b61260e565b61041e6107f9366004613ca9565b60a8602052600090815260409020546001600160a01b031681565b61041e610822366004613ca9565b60a4602052600090815260409020546001600160a01b031681565b6103f361084b366004613def565b612638565b6103f361085e366004613ca9565b612682565b610498610871366004613ca9565b60a56020526000908152604090205481565b60985461041e906001600160a01b031681565b6103f36108a4366004613def565b6126bb565b6104986108b7366004613dca565b60aa60209081526000928352604080842090915290825290205481565b6103f36108e2366004613def565b6127d8565b6103f36108f5366004613ca9565b612818565b6103f3610908366004613f81565b612851565b61041e61091b366004613ca9565b60a7602052600090815260409020546001600160a01b031681565b6103f3610944366004613ca9565b6128b0565b610498610957366004613db1565b60ad6020526000908152604090205481565b6103f3610977366004614004565b612926565b6103f361098a366004613ca9565b612b2b565b6103f361099d366004614060565b612b64565b609c546001600160a01b03163314806109c55750609e546001600160a01b031633145b6109ce57600080fd5b60005b8251811015610a0e576109fc8382815181106109ef576109ef6140ba565b6020026020010151613019565b80610a06816140e6565b9150506109d1565b50609c80546001600160a01b0319166001600160a01b039290921691909117905550565b60005b8251811015610ae357828181518110610a5057610a506140ba565b60200260200101516001600160a01b03166331279d3d33848481518110610a7957610a796140ba565b60200260200101516040518363ffffffff1660e01b8152600401610a9e929190614143565b600060405180830381600087803b158015610ab857600080fd5b505af1158015610acc573d6000803e3d6000fd5b505050508080610adb906140e6565b915050610a35565b505050565b609e546001600160a01b03163314610aff57600080fd5b609a80546001600160a01b0319166001600160a01b0392909216919091179055565b610b2961308c565b60975460405163430c208160e01b81526001600160a01b039091169063430c208190610b5b9033908590600401614167565b602060405180830381865afa158015610b78573d6000803e3d6000fd5b505050506040513d601f19601f82011682018060405250810190610b9c9190614180565b610ba557600080fd5b600081815260ad60205260409020429055610bbf816130e5565b60975460405163c1f0fb9f60e01b8152600481018390526001600160a01b039091169063c1f0fb9f90602401600060405180830381600087803b158015610c0557600080fd5b505af1158015610c19573d6000803e3d6000fd5b50505050610c276001606555565b50565b610c3261308c565b60975460405163430c208160e01b81526001600160a01b039091169063430c208190610c649033908590600401614167565b602060405180830381865afa158015610c81573d6000803e3d6000fd5b505050506040513d601f19601f82011682018060405250810190610ca59190614180565b610cae57600080fd5b600081815260ab6020908152604080832080548251818502810185019093528083529192909190830182828015610d0e57602002820191906000526020600020905b81546001600160a01b03168152600190910190602001808311610cf0575b5050505050905060008151905060008167ffffffffffffffff811115610d3657610d36613b63565b604051908082528060200260200182016040528015610d5f578160200160208202803683370190505b50905060005b82811015610dec5760aa60008681526020019081526020016000206000858381518110610d9457610d946140ba565b60200260200101516001600160a01b03166001600160a01b0316815260200190815260200160002054828281518110610dcf57610dcf6140ba565b602090810291909101015280610de4816140e6565b915050610d65565b50610df8848483613393565b505050610c276001606555565b609954610e1d906001600160a01b03163330846137d7565b60a254600090610e3583670de0b6b3a76400006141a2565b610e3f91906141c1565b90508015610e5f5780609f6000828254610e5991906141e3565b90915550505b6099546040518381526001600160a01b039091169033907ff70d5c697de7ea828df48e5c4573cb2194c659f1901f70110c52b066dcf50826906020015b60405180910390a35050565b33600090815260ae602052604090205460ff16610ec457600080fd5b8115610f2957609754604051634c35bec560e11b8152600481018490526001600160a01b039091169063986b7d8a90602401600060405180830381600087803b158015610f1057600080fd5b505af1158015610f24573d6000803e3d6000fd5b505050505b60405182815233906001600160a01b038316907fae268d9aab12f3605f58efd74fd3801fa812b03fdb44317eb70f46dff0e19e2290602001610e9c565b60a354610f759060009061151a565b565b60a354610f759060009061190b565b609e546001600160a01b03163314610f9d57600080fd5b6001600160a01b038116600090815260ae60205260409020805460ff1916600117905560995460405163095ea7b360e01b81526001600160a01b039091169063095ea7b390610ff3908490600090600401614167565b6020604051808303816000875af1158015611012573d6000803e3d6000fd5b505050506040513d601f19601f820116820180604052508101906110369190614180565b5060995460405163095ea7b360e01b81526001600160a01b039091169063095ea7b39061106b90849060001990600401614167565b6020604051808303816000875af115801561108a573d6000803e3d6000fd5b505050506040513d601f19601f820116820180604052508101906110ae9190614180565b5050565b60005b81518110156110ae576110e08282815181106110d3576110d36140ba565b60200260200101516110f2565b806110ea816140e6565b9150506110b5565b6110fa61308c565b609c60009054906101000a90046001600160a01b03166001600160a01b031663ed29fc116040518163ffffffff1660e01b81526004016020604051808303816000875af115801561114f573d6000803e3d6000fd5b505050506040513d601f19601f8201168201806040525081019061117391906141fb565b5061117d816138cf565b6001600160a01b03808216600090815260a1602090815260408083205460a5835281842054609c548351631a2732c160e31b81529351929691959491169263d139960892600480830193928290030181865afa1580156111e1573d6000803e3d6000fd5b505050506040513d601f19601f8201168201806040525081019061120591906141fb565b905060008311801561121657508082105b15610df8576001600160a01b03808516600081815260a1602052604080822091909155609954905163b66503cf60e01b8152919263b66503cf9261126292909116908790600401614167565b600060405180830381600087803b15801561127c57600080fd5b505af1158015611290573d6000803e3d6000fd5b505050506001600160a01b038416600081815260a56020908152604091829020849055905185815233917f4fa9693cae526341d334e2862ca2413b2e503f1266255f9e0869fb36e6d89b17910160405180910390a3505050610c276001606555565b60975460405163430c208160e01b81526001600160a01b039091169063430c2081906113249033908590600401614167565b602060405180830381865afa158015611341573d6000803e3d6000fd5b505050506040513d601f19601f820116820180604052508101906113659190614180565b61136e57600080fd5b60005b835181101561141f5783818151811061138c5761138c6140ba565b60200260200101516001600160a01b031663a7852afa838584815181106113b5576113b56140ba565b60200260200101516040518363ffffffff1660e01b81526004016113da929190614214565b600060405180830381600087803b1580156113f457600080fd5b505af1158015611408573d6000803e3d6000fd5b505050508080611417906140e6565b915050611371565b50505050565b33600090815260ae602052604090205460ff1661144157600080fd5b33600090815260b0602052604090205460ff1661145d57600080fd5b81156114c25760975460405163fbd3a29d60e01b8152600481018490526001600160a01b039091169063fbd3a29d90602401600060405180830381600087803b1580156114a957600080fd5b505af11580156114bd573d6000803e3d6000fd5b505050505b60405182815233906001600160a01b038316907f60940192810a6fb3bce3fd3e2e3a13fd6ccc7605e963fb87ee971aba829989bd90602001610e9c565b610c27816138cf565b6115106139d0565b610f756000613a2a565b815b81811015610ae35761156e60a4600060a3848154811061153e5761153e6140ba565b60009182526020808320909101546001600160a01b039081168452908301939093526040909101902054166110f2565b80611578816140e6565b91505061151c565b60975460405163430c208160e01b81526001600160a01b039091169063430c2081906115b29033908590600401614167565b602060405180830381865afa1580156115cf573d6000803e3d6000fd5b505050506040513d601f19601f820116820180604052508101906115f39190614180565b6115fc57600080fd5b60005b835181101561141f5783818151811061161a5761161a6140ba565b60200260200101516001600160a01b031663a7852afa83858481518110611643576116436140ba565b60200260200101516040518363ffffffff1660e01b8152600401611668929190614214565b600060405180830381600087803b15801561168257600080fd5b505af1158015611696573d6000803e3d6000fd5b5050505080806116a5906140e6565b9150506115ff565b609e546001600160a01b031633146116c457600080fd5b609880546001600160a01b0319166001600160a01b0392909216919091179055565b6116ee61308c565b60975460405163430c208160e01b81526001600160a01b039091169063430c2081906117209033908990600401614167565b602060405180830381865afa15801561173d573d6000803e3d6000fd5b505050506040513d601f19601f820116820180604052508101906117619190614180565b61176a57600080fd5b82811461177657600080fd5b600085815260ad6020908152604091829020429055815185820281810183019093528581526117f4928892889188918291908501908490808284376000920191909152505060408051602080890282810182019093528882529093508892508791829185019084908082843760009201919091525061339392505050565b6117fe6001606555565b5050505050565b609e546001600160a01b031633146118385760405162461bcd60e51b815260040161182f9061422d565b60405180910390fd5b6001600160a01b038116600090815260b0602052604090205460ff166118955760405162461bcd60e51b815260206004820152601260248201527119d85d59d948185b1c9958591e481919585960721b604482015260640161182f565b6001600160a01b038116600081815260b060209081526040808320805460ff1916905560a1909152808220829055517f04a5d3f5d80d22d9345acc80618f4a4e7e663cf9e1aed23b57d975acec002ba79190a250565b609d546001600160a01b0316331461190257600080fd5b610c2781613019565b815b81811015610ae35761195f60a4600060a3848154811061192f5761192f6140ba565b60009182526020808320909101546001600160a01b039081168452908301939093526040909101902054166138cf565b80611969816140e6565b91505061190d565b609e546001600160a01b0316331461199b5760405162461bcd60e51b815260040161182f9061422d565b6001600160a01b038116600090815260b0602052604090205460ff166119f85760405162461bcd60e51b815260206004820152601260248201527119d85d59d948185b1c9958591e481919585960721b604482015260640161182f565b6001600160a01b03808216600081815260b060209081526040808320805460ff19908116825560a180855283862086815560a68652848720805460a7885286892080546001600160a01b031990811690915560a88952878a208054821690559a1680895260a4885286892080548c1690558989528154909a16905560ae86528487208054841690558354909216909255925290829055517f04a5d3f5d80d22d9345acc80618f4a4e7e663cf9e1aed23b57d975acec002ba79190a25050565b609e546001600160a01b03163314611ae15760405162461bcd60e51b815260040161182f9061422d565b6001600160a01b038116600090815260b0602052604090205460ff1615611b405760405162461bcd60e51b8152602060048201526013602482015272676175676520616c726561647920616c69766560681b604482015260640161182f565b6001600160a01b038116600081815260b06020526040808220805460ff19166001179055517fed18e9faa3dccfd8aa45f69c4de40546b2ca9cccc4538a2323531656516db1aa9190a250565b6001600160a01b03818116600090815260a4602052604081205490911615611bdf5760405162461bcd60e51b815260206004820152600660248201526565786973747360d01b604482015260640161182f565b60408051600380825260808201909252600091602082016060803683375050604080516002808252606082018352939450600093909250906020830190803683370190505060985460405163e5e31b1360e01b81526001600160a01b0387811660048301529293506000929091169063e5e31b1390602401602060405180830381865afa158015611c74573d6000803e3d6000fd5b505050506040513d601f19601f82011682018060405250810190611c989190614180565b90506000808215611e4057866001600160a01b0316639d63848a6040518163ffffffff1660e01b81526004016040805180830381865afa158015611ce0573d6000803e3d6000fd5b505050506040513d601f19601f82011682018060405250810190611d04919061425c565b80925081935050508185600081518110611d2057611d206140ba565b60200260200101906001600160a01b031690816001600160a01b0316815250508085600181518110611d5457611d546140ba565b60200260200101906001600160a01b031690816001600160a01b0316815250508184600081518110611d8857611d886140ba565b60200260200101906001600160a01b031690816001600160a01b0316815250508084600181518110611dbc57611dbc6140ba565b6001600160a01b039283166020918202929092010152609954811690831614801590611df657506099546001600160a01b03828116911614155b15611e405760995485516001600160a01b039091169086906002908110611e1f57611e1f6140ba565b60200260200101906001600160a01b031690816001600160a01b0316815250505b609d546001600160a01b03163314611f035782611e885760405162461bcd60e51b81526020600482015260066024820152650857dc1bdbdb60d21b604482015260640161182f565b6001600160a01b038216600090815260af602052604090205460ff168015611ec857506001600160a01b038116600090815260af602052604090205460ff165b611f035760405162461bcd60e51b815260206004820152600c60248201526b085dda1a5d195b1a5cdd195960a21b604482015260640161182f565b6000876001600160a01b03166395d89b416040518163ffffffff1660e01b8152600401600060405180830381865afa158015611f43573d6000803e3d6000fd5b505050506040513d6000823e601f3d908101601f19168201604052611f6b91908101906142b7565b604051602001611f7b919061434b565b60408051601f19818403018152919052609b549091506000906001600160a01b031661e66b611fb26033546001600160a01b031690565b8686866040518563ffffffff1660e01b8152600401611fd49493929190614382565b6020604051808303816000875af1158015611ff3573d6000803e3d6000fd5b505050506040513d601f19601f8201168201806040525081019061201791906143d8565b9050886001600160a01b03166395d89b416040518163ffffffff1660e01b8152600401600060405180830381865afa158015612057573d6000803e3d6000fd5b505050506040513d6000823e601f3d908101601f1916820160405261207f91908101906142b7565b60405160200161208f91906143f5565b60408051601f19818403018152919052609b549092506000906001600160a01b031661e66b6120c66033546001600160a01b031690565b8787876040518563ffffffff1660e01b81526004016120e89493929190614382565b6020604051808303816000875af1158015612107573d6000803e3d6000fd5b505050506040513d601f19601f8201168201806040525081019061212b91906143d8565b609a546099546097546040516307379e7760e41b81526001600160a01b03928316600482015290821660248201528d82166044820152306064820152858216608482015281841660a482015289151560c4820152929350600092911690637379e7709060e4016020604051808303816000875af11580156121b0573d6000803e3d6000fd5b505050506040513d601f19601f820116820180604052508101906121d491906143d8565b60995460405163095ea7b360e01b81529192506001600160a01b03169063095ea7b39061220990849060001990600401614167565b6020604051808303816000875af1158015612228573d6000803e3d6000fd5b505050506040513d601f19601f8201168201806040525081019061224c9190614180565b508260a76000836001600160a01b03166001600160a01b0316815260200190815260200160002060006101000a8154816001600160a01b0302191690836001600160a01b031602179055508160a86000836001600160a01b03166001600160a01b0316815260200190815260200160002060006101000a8154816001600160a01b0302191690836001600160a01b031602179055508060a460008d6001600160a01b03166001600160a01b0316815260200190815260200160002060006101000a8154816001600160a01b0302191690836001600160a01b031602179055508a60a66000836001600160a01b03166001600160a01b0316815260200190815260200160002060006101000a8154816001600160a01b0302191690836001600160a01b03160217905550600160ae6000836001600160a01b03166001600160a01b0316815260200190815260200160002060006101000a81548160ff021916908315150217905550600160b06000836001600160a01b03166001600160a01b0316815260200190815260200160002060006101000a81548160ff0219169083151502179055506123fa816138cf565b60a380546001810182556000919091527f60859188cffe297f44dde29f2d2865634621f26215049caeb304ccba566a8b170180546001600160a01b0319166001600160a01b038d8116918217909255604080513381528684166020820152919285811692908516917fa4d97e9e7c65249b4cd01acb82add613adea98af32daf092366982f0a0d4e453910160405180910390a49a9950505050505050505050565b33600090815260ae602052604090205460ff166124b757600080fd5b33600090815260b0602052604090205460ff166124d357600080fd5b604080518481526020810183905233916001600160a01b038516917fdcbc1c05240f31ff3ad067ef1ee35ce4997762752e3a095284754544f4c709d791015b60405180910390a3505050565b609e546001600160a01b0316331461253657600080fd5b6001600160a01b038316600090815260ae60205260409020805460ff191660011790556001600160a01b03928316600090815260a76020908152604080832080549587166001600160a01b031996871617905560a890915290208054919093169116179055565b60ab60205281600052604060002081815481106125b957600080fd5b6000918252602090912001546001600160a01b03169150829050565b609e546001600160a01b031633146125ec57600080fd5b609b80546001600160a01b0319166001600160a01b0392909216919091179055565b60a3818154811061261e57600080fd5b6000918252602090912001546001600160a01b0316905081565b609d546001600160a01b0316331461264f57600080fd5b60005b81518110156110ae576126708282815181106109ef576109ef6140ba565b8061267a816140e6565b915050612652565b609d546001600160a01b0316331461269957600080fd5b609d80546001600160a01b0319166001600160a01b0392909216919091179055565b60005b81518110156110ae578181815181106126d9576126d96140ba565b60200260200101516001600160a01b031663e57482136040518163ffffffff1660e01b8152600401602060405180830381865afa15801561271e573d6000803e3d6000fd5b505050506040513d601f19601f820116820180604052508101906127429190614180565b156127c657818181518110612759576127596140ba565b60200260200101516001600160a01b031663d294f0936040518163ffffffff1660e01b815260040160408051808303816000875af115801561279f573d6000803e3d6000fd5b505050506040513d601f19601f820116820180604052508101906127c3919061442b565b50505b806127d0816140e6565b9150506126be565b60005b81518110156110ae576128068282815181106127f9576127f96140ba565b60200260200101516138cf565b80612810816140e6565b9150506127db565b609e546001600160a01b0316331461282f57600080fd5b609e80546001600160a01b0319166001600160a01b0392909216919091179055565b33600090815260ae602052604090205460ff1661286d57600080fd5b604080518481526020810183905233916001600160a01b038516917ff341246adaac6f497bc2a656f546ab9e182111d630394f0c57c710a59a2cb5679101612512565b6128b86139d0565b6001600160a01b03811661291d5760405162461bcd60e51b815260206004820152602660248201527f4f776e61626c653a206e6577206f776e657220697320746865207a65726f206160448201526564647265737360d01b606482015260840161182f565b610c2781613a2a565b600054610100900460ff16158080156129465750600054600160ff909116105b806129605750303b158015612960575060005460ff166001145b6129c35760405162461bcd60e51b815260206004820152602e60248201527f496e697469616c697a61626c653a20636f6e747261637420697320616c72656160448201526d191e481a5b9a5d1a585b1a5e995960921b606482015260840161182f565b6000805460ff1916600117905580156129e6576000805461ff0019166101001790555b6129ee613a7c565b6129f6613aab565b609780546001600160a01b038088166001600160a01b03199283168117909355609880549188169190921617905560408051637e062a3560e11b8152905163fc0c546a916004808201926020929091908290030181865afa158015612a5f573d6000803e3d6000fd5b505050506040513d601f19601f82011682018060405250810190612a8391906143d8565b609980546001600160a01b03199081166001600160a01b0393841617909155609a80548216868416179055609b8054821692851692909217909155609c8054339083168117909155609d8054831682179055609e805490921617905580156117fe576000805461ff0019169055604051600181527f7f26b83ff96e1f2b6a682f133852f6798a09c465da95921460cefb38474024989060200160405180910390a15050505050565b609e546001600160a01b03163314612b4257600080fd5b609c80546001600160a01b0319166001600160a01b0392909216919091179055565b609e546001600160a01b03163314612b7b57600080fd5b60005b8151811015610ae3576000828281518110612b9b57612b9b6140ba565b602002602001015190506000848381518110612bb957612bb96140ba565b60200260200101519050600080836001600160a01b0316639d63848a6040518163ffffffff1660e01b81526004016040805180830381865afa158015612c03573d6000803e3d6000fd5b505050506040513d601f19601f82011682018060405250810190612c27919061425c565b80925081935050506000846001600160a01b03166395d89b416040518163ffffffff1660e01b8152600401600060405180830381865afa158015612c6f573d6000803e3d6000fd5b505050506040513d6000823e601f3d908101601f19168201604052612c9791908101906142b7565b604051602001612ca7919061434b565b60408051601f19818403018152919052609b549091506000906001600160a01b031661e66b612cde6033546001600160a01b031690565b8686866040518563ffffffff1660e01b8152600401612d009493929190614382565b6020604051808303816000875af1158015612d1f573d6000803e3d6000fd5b505050506040513d601f19601f82011682018060405250810190612d4391906143d8565b9050856001600160a01b03166395d89b416040518163ffffffff1660e01b8152600401600060405180830381865afa158015612d83573d6000803e3d6000fd5b505050506040513d6000823e601f3d908101601f19168201604052612dab91908101906142b7565b604051602001612dbb91906143f5565b60408051601f19818403018152919052609b549092506000906001600160a01b031661e66b612df26033546001600160a01b031690565b8787876040518563ffffffff1660e01b8152600401612e149493929190614382565b6020604051808303816000875af1158015612e33573d6000803e3d6000fd5b505050506040513d601f19601f82011682018060405250810190612e5791906143d8565b60995460405163095ea7b360e01b81529192506001600160a01b03169063095ea7b390612e8c90899060001990600401614167565b6020604051808303816000875af1158015612eab573d6000803e3d6000fd5b505050506040513d601f19601f82011682018060405250810190612ecf9190614180565b506001600160a01b03868116600081815260a76020908152604080832080546001600160a01b03199081168988161790915560a8835281842080548216888816179055948c1680845260a48352818420805487168617905593835260a68252808320805490951690931790935560ae8352818120805460ff19908116600190811790925560b09094529190208054909216179055612f6c866138cf565b60a380546001810182556000919091527f60859188cffe297f44dde29f2d2865634621f26215049caeb304ccba566a8b170180546001600160a01b0319166001600160a01b03898116918217909255604080513381528584166020820152919284811692908a16917fa4d97e9e7c65249b4cd01acb82add613adea98af32daf092366982f0a0d4e453910160405180910390a4505050505050508080613011906140e6565b915050612b7e565b6001600160a01b038116600090815260af602052604090205460ff161561303f57600080fd5b6001600160a01b038116600081815260af6020526040808220805460ff191660011790555133917f6661a7108aecd07864384529117d96c319c1163e3010c01390f6b704726e07de91a350565b6002606554036130de5760405162461bcd60e51b815260206004820152601f60248201527f5265656e7472616e637947756172643a207265656e7472616e742063616c6c00604482015260640161182f565b6002606555565b600081815260ab6020526040812080549091805b82811015613350576000848281548110613115576131156140ba565b600091825260208083209091015488835260aa825260408084206001600160a01b0390921680855291909252912054909150801561333b576001600160a01b03808316600090815260a4602052604090205461317191166138cf565b6001600160a01b038216600090815260a960205260408120805483929061319990849061444f565b9091555050600087815260aa602090815260408083206001600160a01b0386168452909152812080548392906131d090849061444f565b909155505080156132f4576001600160a01b03828116600090815260a460209081526040808320548416835260a79091529081902054905163278afc8b60e21b815260048101849052602481018a9052911690639e2bf22c90604401600060405180830381600087803b15801561324657600080fd5b505af115801561325a573d6000803e3d6000fd5b505050506001600160a01b03828116600090815260a460209081526040808320548416835260a89091529081902054905163278afc8b60e21b815260048101849052602481018a9052911690639e2bf22c90604401600060405180830381600087803b1580156132c957600080fd5b505af11580156132dd573d6000803e3d6000fd5b5050505080846132ed91906141e3565b9350613301565b6132fe818561444f565b93505b60408051888152602081018390527fa9f3ca5f8a9e1580edb2741e0ba560084ec72e0067ba3423f9e9327a176882db910160405180910390a15b50508080613348906140e6565b9150506130f9565b508060a26000828254613363919061444f565b9091555050600084815260ac6020908152604080832083905560ab909152812061141f91613b31565b6001606555565b61339c836130e5565b81516097546040516339f890b560e21b8152600481018690526000916001600160a01b03169063e7e242d490602401602060405180830381865afa1580156133e8573d6000803e3d6000fd5b505050506040513d601f19601f8201168201806040525081019061340c91906141fb565b90506000806000805b858110156134565786818151811061342f5761342f6140ba565b60200260200101518461344291906141e3565b93508061344e816140e6565b915050613415565b5060005b8581101561373f576000888281518110613476576134766140ba565b6020908102919091018101516001600160a01b03808216600090815260a4845260408082205490921680825260ae909452205490925060ff161561372a57600086888b86815181106134ca576134ca6140ba565b60200260200101516134dc91906141a2565b6134e691906141c1565b60008d815260aa602090815260408083206001600160a01b03881684529091529020549091501561351657600080fd5b8060000361352357600080fd5b61352c826138cf565b60008c815260ab6020908152604080832080546001810182559084528284200180546001600160a01b0319166001600160a01b038816908117909155835260a9909152812080548392906135819084906141e3565b909155505060008c815260aa602090815260408083206001600160a01b0387168452909152812080548392906135b89084906141e3565b90915550506001600160a01b03808316600090815260a760205260409081902054905163f320772360e01b815260048101849052602481018f905291169063f320772390604401600060405180830381600087803b15801561361957600080fd5b505af115801561362d573d6000803e3d6000fd5b5050505060a86000836001600160a01b03166001600160a01b0316815260200190815260200160002060009054906101000a90046001600160a01b03166001600160a01b031663f3207723828e6040518363ffffffff1660e01b81526004016136a0929190918252602082015260400190565b600060405180830381600087803b1580156136ba57600080fd5b505af11580156136ce573d6000803e3d6000fd5b5050505080856136de91906141e3565b94506136ea81876141e3565b604080518e81526020810184905291975033917fea66f58e474bc09f580000e81f31b334d171db387d0c6098ba47bd897741679b910160405180910390a2505b50508080613737906140e6565b91505061345a565b5080156137a55760975460405163fd4a77f160e01b8152600481018a90526001600160a01b039091169063fd4a77f190602401600060405180830381600087803b15801561378c57600080fd5b505af11580156137a0573d6000803e3d6000fd5b505050505b8160a260008282546137b791906141e3565b9091555050600097885260ac602052604090972096909655505050505050565b6000846001600160a01b03163b116137ee57600080fd5b604080516001600160a01b0385811660248301528481166044830152606480830185905283518084039091018152608490920183526020820180516001600160e01b03166323b872dd60e01b17905291516000928392908816916138529190614466565b6000604051808303816000865af19150503d806000811461388f576040519150601f19603f3d011682016040523d82523d6000602084013e613894565b606091505b50915091508180156138be5750805115806138be5750808060200190518101906138be9190614180565b6138c757600080fd5b505050505050565b6001600160a01b03808216600090815260a6602090815260408083205490931680835260a99091529190205480156139af576001600160a01b038316600090815260a0602052604081208054609f54918290559161392d838361444f565b905080156138c7576000670de0b6b3a764000061394a83876141a2565b61395491906141c1565b6001600160a01b038816600090815260b0602052604090205490915060ff16156139a6576001600160a01b038716600090815260a16020526040812080548392906139a09084906141e3565b90915550505b50505050505050565b609f546001600160a01b038416600090815260a06020526040902055505050565b6033546001600160a01b03163314610f755760405162461bcd60e51b815260206004820181905260248201527f4f776e61626c653a2063616c6c6572206973206e6f7420746865206f776e6572604482015260640161182f565b603380546001600160a01b038381166001600160a01b0319831681179093556040519116919082907f8be0079c531659141344cd1fd0a4f28419497f9722a3daafe3b4186f6b6457e090600090a35050565b600054610100900460ff16613aa35760405162461bcd60e51b815260040161182f90614482565b610f75613ada565b600054610100900460ff16613ad25760405162461bcd60e51b815260040161182f90614482565b610f75613b0a565b600054610100900460ff16613b015760405162461bcd60e51b815260040161182f90614482565b610f7533613a2a565b600054610100900460ff1661338c5760405162461bcd60e51b815260040161182f90614482565b5080546000825590600052602060002090810190610c2791905b80821115613b5f5760008155600101613b4b565b5090565b634e487b7160e01b600052604160045260246000fd5b604051601f8201601f1916810167ffffffffffffffff81118282101715613ba257613ba2613b63565b604052919050565b600067ffffffffffffffff821115613bc457613bc4613b63565b5060051b60200190565b6001600160a01b0381168114610c2757600080fd5b600082601f830112613bf457600080fd5b81356020613c09613c0483613baa565b613b79565b82815260059290921b84018101918181019086841115613c2857600080fd5b8286015b84811015613c4c578035613c3f81613bce565b8352918301918301613c2c565b509695505050505050565b60008060408385031215613c6a57600080fd5b823567ffffffffffffffff811115613c8157600080fd5b613c8d85828601613be3565b9250506020830135613c9e81613bce565b809150509250929050565b600060208284031215613cbb57600080fd5b8135613cc681613bce565b9392505050565b600082601f830112613cde57600080fd5b81356020613cee613c0483613baa565b82815260059290921b84018101918181019086841115613d0d57600080fd5b8286015b84811015613c4c57803567ffffffffffffffff811115613d315760008081fd5b613d3f8986838b0101613be3565b845250918301918301613d11565b60008060408385031215613d6057600080fd5b823567ffffffffffffffff80821115613d7857600080fd5b613d8486838701613be3565b93506020850135915080821115613d9a57600080fd5b50613da785828601613ccd565b9150509250929050565b600060208284031215613dc357600080fd5b5035919050565b60008060408385031215613ddd57600080fd5b823591506020830135613c9e81613bce565b600060208284031215613e0157600080fd5b813567ffffffffffffffff811115613e1857600080fd5b613e2484828501613be3565b949350505050565b600080600060608486031215613e4157600080fd5b833567ffffffffffffffff80821115613e5957600080fd5b613e6587838801613be3565b94506020860135915080821115613e7b57600080fd5b50613e8886828701613ccd565b925050604084013590509250925092565b60008060408385031215613eac57600080fd5b50508035926020909101359150565b60008083601f840112613ecd57600080fd5b50813567ffffffffffffffff811115613ee557600080fd5b6020830191508360208260051b8501011115613f0057600080fd5b9250929050565b600080600080600060608688031215613f1f57600080fd5b85359450602086013567ffffffffffffffff80821115613f3e57600080fd5b613f4a89838a01613ebb565b90965094506040880135915080821115613f6357600080fd5b50613f7088828901613ebb565b969995985093965092949392505050565b600080600060608486031215613f9657600080fd5b833592506020840135613fa881613bce565b929592945050506040919091013590565b600080600060608486031215613fce57600080fd5b8335613fd981613bce565b92506020840135613fe981613bce565b91506040840135613ff981613bce565b809150509250925092565b6000806000806080858703121561401a57600080fd5b843561402581613bce565b9350602085013561403581613bce565b9250604085013561404581613bce565b9150606085013561405581613bce565b939692955090935050565b6000806040838503121561407357600080fd5b823567ffffffffffffffff8082111561408b57600080fd5b61409786838701613be3565b935060208501359150808211156140ad57600080fd5b50613da785828601613be3565b634e487b7160e01b600052603260045260246000fd5b634e487b7160e01b600052601160045260246000fd5b6000600182016140f8576140f86140d0565b5060010190565b600081518084526020808501945080840160005b838110156141385781516001600160a01b031687529582019590820190600101614113565b509495945050505050565b6001600160a01b0383168152604060208201819052600090613e24908301846140ff565b6001600160a01b03929092168252602082015260400190565b60006020828403121561419257600080fd5b81518015158114613cc657600080fd5b60008160001904831182151516156141bc576141bc6140d0565b500290565b6000826141de57634e487b7160e01b600052601260045260246000fd5b500490565b600082198211156141f6576141f66140d0565b500190565b60006020828403121561420d57600080fd5b5051919050565b828152604060208201526000613e2460408301846140ff565b6020808252601590820152741b9bdd08195b595c99d95b98de4818dbdd5b98da5b605a1b604082015260600190565b6000806040838503121561426f57600080fd5b825161427a81613bce565b6020840151909250613c9e81613bce565b60005b838110156142a657818101518382015260200161428e565b8381111561141f5750506000910152565b6000602082840312156142c957600080fd5b815167ffffffffffffffff808211156142e157600080fd5b818401915084601f8301126142f557600080fd5b81518181111561430757614307613b63565b61431a601f8201601f1916602001613b79565b915080825285602082850101111561433157600080fd5b61434281602084016020860161428b565b50949350505050565b6e02a3432b730902628102332b2b99d1608d1b81526000825161437581600f85016020870161428b565b91909101600f0192915050565b600060018060a01b03808716835280861660208401528085166040840152506080606083015282518060808401526143c18160a085016020870161428b565b601f01601f19169190910160a00195945050505050565b6000602082840312156143ea57600080fd5b8151613cc681613bce565b6d02a3432b73090213934b132b99d160951b81526000825161441e81600e85016020870161428b565b91909101600e0192915050565b6000806040838503121561443e57600080fd5b505080516020909101519092909150565b600082821015614461576144616140d0565b500390565b6000825161447881846020870161428b565b9190910192915050565b6020808252602b908201527f496e697469616c697a61626c653a20636f6e7472616374206973206e6f74206960408201526a6e697469616c697a696e6760a81b60608201526080019056fea2646970667358221220b9ad47464bdde87abcfd3286127757706118d07bf932493c374b5266f5b0175864736f6c634300080d0033",
  "linkReferences": {},
  "deployedLinkReferences": {}
}