{
  "_format": "hh-sol-artifact-1",
  "contractName": "GaugeV3",
  "sourceName": "contracts/GaugeV3.sol",
  "abi": [
    {
      "inputs": [
        {
          "internalType": "address",
          "name": "_rewardToken",
          "type": "address"
        },
        {
          "internalType": "address",
          "name": "_ve",
          "type": "address"
        },
        {
          "internalType": "address",
          "name": "_token",
          "type": "address"
        },
        {
          "internalType": "address",
          "name": "_distribution",
          "type": "address"
        },
        {
          "internalType": "address",
          "name": "_internal_bribe",
          "type": "address"
        },
        {
          "internalType": "address",
          "name": "_external_bribe",
          "type": "address"
        },
        {
          "internalType": "bool",
          "name": "_isForPair",
          "type": "bool"
        }
      ],
      "stateMutability": "nonpayable",
      "type": "constructor"
    },
    {
      "anonymous": false,
      "inputs": [
        {
          "indexed": true,
          "internalType": "address",
          "name": "from",
          "type": "address"
        },
        {
          "indexed": false,
          "internalType": "uint256",
          "name": "claimed0",
          "type": "uint256"
        },
        {
          "indexed": false,
          "internalType": "uint256",
          "name": "claimed1",
          "type": "uint256"
        }
      ],
      "name": "ClaimFees",
      "type": "event"
    },
    {
      "anonymous": false,
      "inputs": [
        {
          "indexed": true,
          "internalType": "address",
          "name": "user",
          "type": "address"
        },
        {
          "indexed": false,
          "internalType": "uint256",
          "name": "amount",
          "type": "uint256"
        }
      ],
      "name": "Deposit",
      "type": "event"
    },
    {
      "anonymous": false,
      "inputs": [
        {
          "indexed": true,
          "internalType": "address",
          "name": "user",
          "type": "address"
        },
        {
          "indexed": false,
          "internalType": "uint256",
          "name": "reward",
          "type": "uint256"
        }
      ],
      "name": "Harvest",
      "type": "event"
    },
    {
      "anonymous": false,
      "inputs": [
        {
          "indexed": true,
          "internalType": "address",
          "name": "previousOwner",
          "type": "address"
        },
        {
          "indexed": true,
          "internalType": "address",
          "name": "newOwner",
          "type": "address"
        }
      ],
      "name": "OwnershipTransferred",
      "type": "event"
    },
    {
      "anonymous": false,
      "inputs": [
        {
          "indexed": false,
          "internalType": "uint256",
          "name": "reward",
          "type": "uint256"
        }
      ],
      "name": "RewardAdded",
      "type": "event"
    },
    {
      "anonymous": false,
      "inputs": [
        {
          "indexed": true,
          "internalType": "address",
          "name": "user",
          "type": "address"
        },
        {
          "indexed": false,
          "internalType": "uint256",
          "name": "amount",
          "type": "uint256"
        }
      ],
      "name": "Withdraw",
      "type": "event"
    },
    {
      "inputs": [],
      "name": "DISTRIBUTION",
      "outputs": [
        {
          "internalType": "address",
          "name": "",
          "type": "address"
        }
      ],
      "stateMutability": "view",
      "type": "function"
    },
    {
      "inputs": [],
      "name": "DURATION",
      "outputs": [
        {
          "internalType": "uint256",
          "name": "",
          "type": "uint256"
        }
      ],
      "stateMutability": "view",
      "type": "function"
    },
    {
      "inputs": [],
      "name": "TOKEN",
      "outputs": [
        {
          "internalType": "contract IERC20",
          "name": "",
          "type": "address"
        }
      ],
      "stateMutability": "view",
      "type": "function"
    },
    {
      "inputs": [],
      "name": "_VE",
      "outputs": [
        {
          "internalType": "contract IERC20",
          "name": "",
          "type": "address"
        }
      ],
      "stateMutability": "view",
      "type": "function"
    },
    {
      "inputs": [
        {
          "internalType": "address",
          "name": "",
          "type": "address"
        }
      ],
      "name": "_balances",
      "outputs": [
        {
          "internalType": "uint256",
          "name": "",
          "type": "uint256"
        }
      ],
      "stateMutability": "view",
      "type": "function"
    },
    {
      "inputs": [],
      "name": "_totalSupply",
      "outputs": [
        {
          "internalType": "uint256",
          "name": "",
          "type": "uint256"
        }
      ],
      "stateMutability": "view",
      "type": "function"
    },
    {
      "inputs": [
        {
          "internalType": "address",
          "name": "account",
          "type": "address"
        }
      ],
      "name": "balanceOf",
      "outputs": [
        {
          "internalType": "uint256",
          "name": "",
          "type": "uint256"
        }
      ],
      "stateMutability": "view",
      "type": "function"
    },
    {
      "inputs": [],
      "name": "claimFees",
      "outputs": [
        {
          "internalType": "uint256",
          "name": "claimed0",
          "type": "uint256"
        },
        {
          "internalType": "uint256",
          "name": "claimed1",
          "type": "uint256"
        }
      ],
      "stateMutability": "nonpayable",
      "type": "function"
    },
    {
      "inputs": [
        {
          "internalType": "uint256",
          "name": "amount",
          "type": "uint256"
        }
      ],
      "name": "deposit",
      "outputs": [],
      "stateMutability": "nonpayable",
      "type": "function"
    },
    {
      "inputs": [],
      "name": "depositAll",
      "outputs": [],
      "stateMutability": "nonpayable",
      "type": "function"
    },
    {
      "inputs": [
        {
          "internalType": "address",
          "name": "account",
          "type": "address"
        }
      ],
      "name": "earned",
      "outputs": [
        {
          "internalType": "uint256",
          "name": "",
          "type": "uint256"
        }
      ],
      "stateMutability": "view",
      "type": "function"
    },
    {
      "inputs": [],
      "name": "external_bribe",
      "outputs": [
        {
          "internalType": "address",
          "name": "",
          "type": "address"
        }
      ],
      "stateMutability": "view",
      "type": "function"
    },
    {
      "inputs": [],
      "name": "fees0",
      "outputs": [
        {
          "internalType": "uint256",
          "name": "",
          "type": "uint256"
        }
      ],
      "stateMutability": "view",
      "type": "function"
    },
    {
      "inputs": [],
      "name": "fees1",
      "outputs": [
        {
          "internalType": "uint256",
          "name": "",
          "type": "uint256"
        }
      ],
      "stateMutability": "view",
      "type": "function"
    },
    {
      "inputs": [],
      "name": "gaugeRewarder",
      "outputs": [
        {
          "internalType": "address",
          "name": "",
          "type": "address"
        }
      ],
      "stateMutability": "view",
      "type": "function"
    },
    {
      "inputs": [],
      "name": "getPeriodFinish",
      "outputs": [
        {
          "internalType": "uint256",
          "name": "",
          "type": "uint256"
        }
      ],
      "stateMutability": "view",
      "type": "function"
    },
    {
      "inputs": [],
      "name": "getReward",
      "outputs": [],
      "stateMutability": "nonpayable",
      "type": "function"
    },
    {
      "inputs": [],
      "name": "internal_bribe",
      "outputs": [
        {
          "internalType": "address",
          "name": "",
          "type": "address"
        }
      ],
      "stateMutability": "view",
      "type": "function"
    },
    {
      "inputs": [],
      "name": "isForPair",
      "outputs": [
        {
          "internalType": "bool",
          "name": "",
          "type": "bool"
        }
      ],
      "stateMutability": "view",
      "type": "function"
    },
    {
      "inputs": [],
      "name": "lastTimeRewardApplicable",
      "outputs": [
        {
          "internalType": "uint256",
          "name": "",
          "type": "uint256"
        }
      ],
      "stateMutability": "view",
      "type": "function"
    },
    {
      "inputs": [],
      "name": "lastUpdateTime",
      "outputs": [
        {
          "internalType": "uint256",
          "name": "",
          "type": "uint256"
        }
      ],
      "stateMutability": "view",
      "type": "function"
    },
    {
      "inputs": [
        {
          "internalType": "address",
          "name": "token",
          "type": "address"
        },
        {
          "internalType": "uint256",
          "name": "reward",
          "type": "uint256"
        }
      ],
      "name": "notifyRewardAmount",
      "outputs": [],
      "stateMutability": "nonpayable",
      "type": "function"
    },
    {
      "inputs": [],
      "name": "owner",
      "outputs": [
        {
          "internalType": "address",
          "name": "",
          "type": "address"
        }
      ],
      "stateMutability": "view",
      "type": "function"
    },
    {
      "inputs": [],
      "name": "periodFinish",
      "outputs": [
        {
          "internalType": "uint256",
          "name": "",
          "type": "uint256"
        }
      ],
      "stateMutability": "view",
      "type": "function"
    },
    {
      "inputs": [],
      "name": "renounceOwnership",
      "outputs": [],
      "stateMutability": "nonpayable",
      "type": "function"
    },
    {
      "inputs": [],
      "name": "rewardForDuration",
      "outputs": [
        {
          "internalType": "uint256",
          "name": "",
          "type": "uint256"
        }
      ],
      "stateMutability": "view",
      "type": "function"
    },
    {
      "inputs": [],
      "name": "rewardPerToken",
      "outputs": [
        {
          "internalType": "uint256",
          "name": "",
          "type": "uint256"
        }
      ],
      "stateMutability": "view",
      "type": "function"
    },
    {
      "inputs": [],
      "name": "rewardPerTokenStored",
      "outputs": [
        {
          "internalType": "uint256",
          "name": "",
          "type": "uint256"
        }
      ],
      "stateMutability": "view",
      "type": "function"
    },
    {
      "inputs": [],
      "name": "rewardRate",
      "outputs": [
        {
          "internalType": "uint256",
          "name": "",
          "type": "uint256"
        }
      ],
      "stateMutability": "view",
      "type": "function"
    },
    {
      "inputs": [],
      "name": "rewardToken",
      "outputs": [
        {
          "internalType": "contract IERC20",
          "name": "",
          "type": "address"
        }
      ],
      "stateMutability": "view",
      "type": "function"
    },
    {
      "inputs": [],
      "name": "rewarderPid",
      "outputs": [
        {
          "internalType": "uint256",
          "name": "",
          "type": "uint256"
        }
      ],
      "stateMutability": "view",
      "type": "function"
    },
    {
      "inputs": [
        {
          "internalType": "address",
          "name": "",
          "type": "address"
        }
      ],
      "name": "rewards",
      "outputs": [
        {
          "internalType": "uint256",
          "name": "",
          "type": "uint256"
        }
      ],
      "stateMutability": "view",
      "type": "function"
    },
    {
      "inputs": [
        {
          "internalType": "address",
          "name": "_distribution",
          "type": "address"
        }
      ],
      "name": "setDistribution",
      "outputs": [],
      "stateMutability": "nonpayable",
      "type": "function"
    },
    {
      "inputs": [
        {
          "internalType": "address",
          "name": "_gaugeRewarder",
          "type": "address"
        }
      ],
      "name": "setGaugeRewarder",
      "outputs": [],
      "stateMutability": "nonpayable",
      "type": "function"
    },
    {
      "inputs": [
        {
          "internalType": "uint256",
          "name": "_pid",
          "type": "uint256"
        }
      ],
      "name": "setRewarderPid",
      "outputs": [],
      "stateMutability": "nonpayable",
      "type": "function"
    },
    {
      "inputs": [],
      "name": "totalSupply",
      "outputs": [
        {
          "internalType": "uint256",
          "name": "",
          "type": "uint256"
        }
      ],
      "stateMutability": "view",
      "type": "function"
    },
    {
      "inputs": [
        {
          "internalType": "address",
          "name": "newOwner",
          "type": "address"
        }
      ],
      "name": "transferOwnership",
      "outputs": [],
      "stateMutability": "nonpayable",
      "type": "function"
    },
    {
      "inputs": [
        {
          "internalType": "address",
          "name": "",
          "type": "address"
        }
      ],
      "name": "userRewardPerTokenPaid",
      "outputs": [
        {
          "internalType": "uint256",
          "name": "",
          "type": "uint256"
        }
      ],
      "stateMutability": "view",
      "type": "function"
    },
    {
      "inputs": [
        {
          "internalType": "uint256",
          "name": "amount",
          "type": "uint256"
        }
      ],
      "name": "withdraw",
      "outputs": [],
      "stateMutability": "nonpayable",
      "type": "function"
    },
    {
      "inputs": [],
      "name": "withdrawAll",
      "outputs": [],
      "stateMutability": "nonpayable",
      "type": "function"
    },
    {
      "inputs": [],
      "name": "withdrawAllAndHarvest",
      "outputs": [],
      "stateMutability": "nonpayable",
      "type": "function"
    }
  ],
  "bytecode": "0x60806040523480156200001157600080fd5b5060405162001e1e38038062001e1e83398101604081905262000034916200014a565b60016000556200004433620000db565b600280546001600160a01b03199081166001600160a01b03998a161790915560038054821697891697909717909655600480548716958816959095179094556005805486169387169390931790925562093a80600a556007805485169186169190911790556008805490931693169290921790556001805460ff60a01b1916600160a01b92151592909202919091179055620001e7565b600180546001600160a01b038381166001600160a01b0319831681179093556040519116919082907f8be0079c531659141344cd1fd0a4f28419497f9722a3daafe3b4186f6b6457e090600090a35050565b80516001600160a01b03811681146200014557600080fd5b919050565b600080600080600080600060e0888a0312156200016657600080fd5b62000171886200012d565b965062000181602089016200012d565b955062000191604089016200012d565b9450620001a1606089016200012d565b9350620001b1608089016200012d565b9250620001c160a089016200012d565b915060c08801518015158114620001d757600080fd5b8091505092959891949750929550565b611c2780620001f76000396000f3fe608060405234801561001057600080fd5b50600436106102525760003560e01c806382bfefc811610146578063c8f33c91116100c3578063df136d6511610087578063df136d65146104ae578063e5748213146104b7578063ebe2b12b146104db578063f2fde38b146104e4578063f7c618c1146104f7578063f97d21141461050a57600080fd5b8063c8f33c9114610470578063cb17d14f14610479578063cd3daf9d14610481578063d294f09314610489578063de5f6268146104a657600080fd5b80638f67b0131161010a5780638f67b0131461042557806393f1c4421461042e5780639f6d7d5b14610437578063b66503cf1461044a578063b6b55f251461045d57600080fd5b806382bfefc8146103c6578063853828b6146103d9578063863e2442146103e15780638b876347146103f45780638da5cb5b1461041457600080fd5b80636e9852f2116101d4578063770f857111610198578063770f85711461037c5780637b0a47ee1461038f5780637c91e4eb146103985780637f699015146103ab57806380faa57d146103be57600080fd5b80636e9852f2146103105780636ebcf6071461031857806370a082311461033857806370b15e6d14610361578063715018a61461037457600080fd5b80632e1a7d4d1161021b5780632e1a7d4d146102d95780633d18b912146102ee5780633eaaf86b146102f65780634c02a21c146102ff5780636946a2351461030857600080fd5b80628cc2621461025757806303fbf83a1461027d5780630700037d146102a857806318160ddd146102c85780631be05289146102d0575b600080fd5b61026a61026536600461198f565b61051d565b6040519081526020015b60405180910390f35b600854610290906001600160a01b031681565b6040516001600160a01b039091168152602001610274565b61026a6102b636600461198f565b60126020526000908152604090205481565b60135461026a565b61026a600a5481565b6102ec6102e73660046119ac565b61059b565b005b6102ec6105a7565b61026a60135481565b61026a60105481565b61026a61073e565b6102ec61075c565b61026a61032636600461198f565b60146020526000908152604090205481565b61026a61034636600461198f565b6001600160a01b031660009081526014602052604090205490565b6102ec61036f3660046119ac565b61077f565b6102ec6107c8565b600754610290906001600160a01b031681565b61026a600c5481565b600554610290906001600160a01b031681565b6102ec6103b936600461198f565b6107da565b61026a610890565b600454610290906001600160a01b031681565b6102ec61089e565b600654610290906001600160a01b031681565b61026a61040236600461198f565b60116020526000908152604090205481565b6001546001600160a01b0316610290565b61026a60095481565b61026a600f5481565b600354610290906001600160a01b031681565b6102ec6104583660046119c5565b6108b7565b6102ec61046b3660046119ac565b610b6a565b61026a600d5481565b600b5461026a565b61026a610b74565b610491610bbf565b60408051928352602083019190915201610274565b6102ec610bfe565b61026a600e5481565b6001546104cb90600160a01b900460ff1681565b6040519015158152602001610274565b61026a600b5481565b6102ec6104f236600461198f565b610c77565b600254610290906001600160a01b031681565b6102ec61051836600461198f565b610ced565b6001600160a01b0381166000908152601260209081526040808320546011909252822054610595919061058f90670de0b6b3a7640000906105899061056a90610564610b74565b90610da3565b6001600160a01b03881660009081526014602052604090205490610db6565b90610dc2565b90610dce565b92915050565b6105a481610dda565b50565b6002600054036105d25760405162461bcd60e51b81526004016105c9906119f1565b60405180910390fd5b6002600055336105e0610b74565b600e556105eb610890565b600d556001600160a01b03811615610632576106068161051d565b6001600160a01b038216600090815260126020908152604080832093909355600e546011909152919020555b3360009081526012602052604090205480156106a75733600081815260126020526040812055600254610671916001600160a01b03909116908361104f565b60405181815233907fc9695243a805adb74c91f28311176c65b417e842d5699893cef56d18bfa48cba9060200160405180910390a25b6006546001600160a01b0316156107355760065460095433600081815260146020526040908190205490516344af0fa760e01b81526001600160a01b03909416936344af0fa793610702939092909182918891600401611a28565b600060405180830381600087803b15801561071c57600080fd5b505af1158015610730573d6000803e3d6000fd5b505050505b50506001600055565b6000610757600a54600c54610db690919063ffffffff16565b905090565b3360009081526014602052604090205461077590610dda565b61077d6105a7565b565b6107876110b7565b60095481036107c35760405162461bcd60e51b81526020600482015260086024820152671cd85b59481c1a5960c21b60448201526064016105c9565b600955565b6107d06110b7565b61077d6000611111565b6107e26110b7565b6001600160a01b0381166108245760405162461bcd60e51b81526020600482015260096024820152683d32b9379030b2323960b91b60448201526064016105c9565b6005546001600160a01b039081169082160361086e5760405162461bcd60e51b815260206004820152600960248201526839b0b6b29030b2323960b91b60448201526064016105c9565b600580546001600160a01b0319166001600160a01b0392909216919091179055565b600061075742600b54611163565b3360009081526014602052604090205461077d90610dda565b6002600054036108d95760405162461bcd60e51b81526004016105c9906119f1565b60026000556005546001600160a01b0316331461094b5760405162461bcd60e51b815260206004820152602a60248201527f43616c6c6572206973206e6f742052657761726473446973747269627574696f6044820152691b8818dbdb9d1c9858dd60b21b60648201526084016105c9565b6000610955610b74565b600e55610960610890565b600d556001600160a01b038116156109a75761097b8161051d565b6001600160a01b038216600090815260126020908152604080832093909355600e546011909152919020555b6002546001600160a01b038481169116146109c157600080fd5b6005546002546109df916001600160a01b0391821691163085611179565b600b5442106109fe57600a546109f6908390610dc2565b600c55610a41565b600b54600090610a0e9042610da3565b90506000610a27600c5483610db690919063ffffffff16565b600a54909150610a3b906105898684610dce565b600c5550505b6002546040516370a0823160e01b81523060048201526000916001600160a01b0316906370a0823190602401602060405180830381865afa158015610a8a573d6000803e3d6000fd5b505050506040513d601f19601f82011682018060405250810190610aae9190611a57565b9050610ac5600a5482610dc290919063ffffffff16565b600c541115610b165760405162461bcd60e51b815260206004820152601860248201527f50726f76696465642072657761726420746f6f2068696768000000000000000060448201526064016105c9565b42600d819055600a54610b299190610dce565b600b556040518381527fde88a922e0d3b88b24e9623efeb464919c6bf9f66857a65e2bfcf2ce87a9433d9060200160405180910390a1505060016000555050565b6105a481336111b7565b6000601354600003610b875750600e5490565b610757610bb6601354610589670de0b6b3a7640000610bb0600c54610bb0600d54610564610890565b90610db6565b600e5490610dce565b600080600260005403610be45760405162461bcd60e51b81526004016105c9906119f1565b6002600055610bf16113c8565b9150915060016000559091565b600480546040516370a0823160e01b8152339281019290925261077d916001600160a01b03909116906370a0823190602401602060405180830381865afa158015610c4d573d6000803e3d6000fd5b505050506040513d601f19601f82011682018060405250810190610c719190611a57565b336111b7565b610c7f6110b7565b6001600160a01b038116610ce45760405162461bcd60e51b815260206004820152602660248201527f4f776e61626c653a206e6577206f776e657220697320746865207a65726f206160448201526564647265737360d01b60648201526084016105c9565b6105a481611111565b610cf56110b7565b6001600160a01b038116610d375760405162461bcd60e51b81526020600482015260096024820152683d32b9379030b2323960b91b60448201526064016105c9565b6006546001600160a01b0390811690821603610d815760405162461bcd60e51b815260206004820152600960248201526839b0b6b29030b2323960b91b60448201526064016105c9565b600680546001600160a01b0319166001600160a01b0392909216919091179055565b6000610daf8284611a86565b9392505050565b6000610daf8284611a9d565b6000610daf8284611abc565b6000610daf8284611ade565b600260005403610dfc5760405162461bcd60e51b81526004016105c9906119f1565b600260005533610e0a610b74565b600e55610e15610890565b600d556001600160a01b03811615610e5c57610e308161051d565b6001600160a01b038216600090815260126020908152604080832093909355600e546011909152919020555b60008211610ea05760405162461bcd60e51b8152602060048201526011602482015270043616e6e6f74207769746864726177203607c1b60448201526064016105c9565b601354600090610eb09084610da3565b1015610eeb5760405162461bcd60e51b815260206004820152600a6024820152690737570706c79203c20360b41b60448201526064016105c9565b33600090815260146020526040902054610f355760405162461bcd60e51b815260206004820152600b60248201526a6e6f2062616c616e63657360a81b60448201526064016105c9565b601354610f429083610da3565b60135533600090815260146020526040902054610f5f9083610da3565b336000908152601460205260409020556006546001600160a01b031615610ffa57600654600954336000818152601460205260408082205490516344af0fa760e01b81526001600160a01b03909516946344af0fa794610fc794909390928392600401611a28565b600060405180830381600087803b158015610fe157600080fd5b505af1158015610ff5573d6000803e3d6000fd5b505050505b600454611011906001600160a01b0316338461104f565b60405182815233907f884edad9ce6fa2440d8a54cc123490eb96d2768479d49ff9c7366125a94243649060200160405180910390a250506001600055565b6040516001600160a01b0383166024820152604481018290526110b290849063a9059cbb60e01b906064015b60408051601f198184030181529190526020810180516001600160e01b03166001600160e01b031990931692909217909152611727565b505050565b6001546001600160a01b0316331461077d5760405162461bcd60e51b815260206004820181905260248201527f4f776e61626c653a2063616c6c6572206973206e6f7420746865206f776e657260448201526064016105c9565b600180546001600160a01b038381166001600160a01b0319831681179093556040519116919082907f8be0079c531659141344cd1fd0a4f28419497f9722a3daafe3b4186f6b6457e090600090a35050565b60008183106111725781610daf565b5090919050565b6040516001600160a01b03808516602483015283166044820152606481018290526111b19085906323b872dd60e01b9060840161107b565b50505050565b6002600054036111d95760405162461bcd60e51b81526004016105c9906119f1565b6002600055806111e7610b74565b600e556111f2610890565b600d556001600160a01b038116156112395761120d8161051d565b6001600160a01b038216600090815260126020908152604080832093909355600e546011909152919020555b600083116112895760405162461bcd60e51b815260206004820152601e60248201527f6465706f736974284761756765293a2063616e6e6f74207374616b652030000060448201526064016105c9565b6001600160a01b0382166000908152601460205260409020546112ac9084610dce565b6001600160a01b0383166000908152601460205260409020556013546112d29084610dce565b6013556004546112ed906001600160a01b0316833086611179565b6006546001600160a01b03161561137b576006546009546001600160a01b038481166000908152601460205260408082205490516344af0fa760e01b815292909416936344af0fa79361134893909288928392600401611a28565b600060405180830381600087803b15801561136257600080fd5b505af1158015611376573d6000803e3d6000fd5b505050505b816001600160a01b03167fe1fffcc4923d04b559f4d29a8bfc6cda04eb5b0d3c460751c2402c5c5cc9109c846040516113b691815260200190565b60405180910390a25050600160005550565b6001546000908190600160a01b900460ff166113e75750600091829150565b600480546040805163d294f09360e01b815281516001600160a01b0390931693849363d294f093938383019390929082900301816000875af1158015611431573d6000803e3d6000fd5b505050506040513d601f19601f820116820180604052508101906114559190611af6565b9093509150821515806114685750600082115b1561172257600083600f5461147d9190611ade565b905060008360105461148f9190611ade565b9050600080846001600160a01b0316639d63848a6040518163ffffffff1660e01b81526004016040805180830381865afa1580156114d1573d6000803e3d6000fd5b505050506040513d601f19601f820116820180604052508101906114f59190611b1a565b909250905083156115e8576000600f5560075460405163095ea7b360e01b81526001600160a01b039182166004820152602481018690529083169063095ea7b3906044016020604051808303816000875af1158015611558573d6000803e3d6000fd5b505050506040513d601f19601f8201168201806040525081019061157c9190611b54565b5060075460405163b66503cf60e01b81526001600160a01b038481166004830152602482018790529091169063b66503cf90604401600060405180830381600087803b1580156115cb57600080fd5b505af11580156115df573d6000803e3d6000fd5b505050506115ee565b600f8490555b82156116dc57600060105560075460405163095ea7b360e01b81526001600160a01b039182166004820152602481018590529082169063095ea7b3906044016020604051808303816000875af115801561164c573d6000803e3d6000fd5b505050506040513d601f19601f820116820180604052508101906116709190611b54565b5060075460405163b66503cf60e01b81526001600160a01b038381166004830152602482018690529091169063b66503cf90604401600060405180830381600087803b1580156116bf57600080fd5b505af11580156116d3573d6000803e3d6000fd5b505050506116e2565b60108390555b604080518881526020810188905233917fbc567d6cbad26368064baa0ab5a757be46aae4d70f707f9203d9d9b6c8ccbfa3910160405180910390a2505050505b509091565b600061177c826040518060400160405280602081526020017f5361666545524332303a206c6f772d6c6576656c2063616c6c206661696c6564815250856001600160a01b03166117f99092919063ffffffff16565b8051909150156110b2578080602001905181019061179a9190611b54565b6110b25760405162461bcd60e51b815260206004820152602a60248201527f5361666545524332303a204552433230206f7065726174696f6e20646964206e6044820152691bdd081cdd58d8d9595960b21b60648201526084016105c9565b60606118088484600085611810565b949350505050565b6060824710156118715760405162461bcd60e51b815260206004820152602660248201527f416464726573733a20696e73756666696369656e742062616c616e636520666f6044820152651c8818d85b1b60d21b60648201526084016105c9565b6001600160a01b0385163b6118c85760405162461bcd60e51b815260206004820152601d60248201527f416464726573733a2063616c6c20746f206e6f6e2d636f6e747261637400000060448201526064016105c9565b600080866001600160a01b031685876040516118e49190611ba2565b60006040518083038185875af1925050503d8060008114611921576040519150601f19603f3d011682016040523d82523d6000602084013e611926565b606091505b5091509150611936828286611941565b979650505050505050565b60608315611950575081610daf565b8251156119605782518084602001fd5b8160405162461bcd60e51b81526004016105c99190611bbe565b6001600160a01b03811681146105a457600080fd5b6000602082840312156119a157600080fd5b8135610daf8161197a565b6000602082840312156119be57600080fd5b5035919050565b600080604083850312156119d857600080fd5b82356119e38161197a565b946020939093013593505050565b6020808252601f908201527f5265656e7472616e637947756172643a207265656e7472616e742063616c6c00604082015260600190565b9485526001600160a01b0393841660208601529190921660408401526060830191909152608082015260a00190565b600060208284031215611a6957600080fd5b5051919050565b634e487b7160e01b600052601160045260246000fd5b600082821015611a9857611a98611a70565b500390565b6000816000190483118215151615611ab757611ab7611a70565b500290565b600082611ad957634e487b7160e01b600052601260045260246000fd5b500490565b60008219821115611af157611af1611a70565b500190565b60008060408385031215611b0957600080fd5b505080516020909101519092909150565b60008060408385031215611b2d57600080fd5b8251611b388161197a565b6020840151909250611b498161197a565b809150509250929050565b600060208284031215611b6657600080fd5b81518015158114610daf57600080fd5b60005b83811015611b91578181015183820152602001611b79565b838111156111b15750506000910152565b60008251611bb4818460208701611b76565b9190910192915050565b6020815260008251806020840152611bdd816040850160208701611b76565b601f01601f1916919091016040019291505056fea264697066735822122027618c9f13b3c69ff3746a5ea2b3d6887011b5d28981aaa324fc047dc164ba4164736f6c634300080d0033",
  "linkReferences": {},
  "deployedLinkReferences": {}
}