{
	"data": {
		"bytecode": {
			"linkReferences": {},
			"object": "608060405234801561001057600080fd5b50619bf5806100206000396000f3fe60806040523480156200001157600080fd5b5060043610620002145760003560e01c806382dfdce41162000129578063c124a4a211620000b1578063eb13c4cf116200007b578063eb13c4cf14620005d9578063f2fde38b14620005fd578063f94c53c7146200061d578063ffb0a4a014620006295762000214565b8063c124a4a2146200053f578063d0fb02031462000561578063e1f76b441462000583578063e5e31b1314620005a35762000214565b80639aab924811620000f35780639aab924814620004b9578063b187bd2614620004db578063bc063e1a14620004fd578063bedb86fb146200051f5762000214565b806382dfdce4146200041d5780638a4fa0d214620004535780638da5cb5b1462000475578063956f94a114620004975762000214565b80635084ed0311620001ad578063713494d71162000177578063713494d714620003c3578063715018a614620003e35780637be1623e14620003ef5780638129fc1c14620004115762000214565b80635084ed031462000313578063512b45ea1462000335578063574f2ba3146200036b5780636801cc30146200038d5762000214565b80634091cb7711620001ef5780634091cb77146200029157806340bbd77514620002b1578063472d35b914620002d3578063482a8d0714620002f35762000214565b80630c74db1214620002195780631e3dd18b14620002395780631e61079c146200026f575b600080fd5b620002376004803603810190620002319190620019a8565b6200064b565b005b62000257600480360381019062000251919062001a15565b62000724565b60405162000266919062001a58565b60405180910390f35b6200027962000764565b60405162000288919062001a86565b60405180910390f35b620002af6004803603810190620002a99190620019a8565b6200076a565b005b620002bb62000843565b604051620002ca919062001a86565b60405180910390f35b620002f16004803603810190620002eb9190620019a8565b62000849565b005b6200031160048036038101906200030b919062001a15565b620008e8565b005b6200031d6200095d565b6040516200032c919062001a86565b60405180910390f35b6200035360048036038101906200034d919062001ae0565b62000963565b60405162000362919062001a86565b60405180910390f35b620003756200097f565b60405162000384919062001a86565b60405180910390f35b620003ab6004803603810190620003a5919062001b12565b6200098c565b604051620003ba919062001a58565b60405180910390f35b620003e16004803603810190620003db919062001a15565b620009db565b005b620003ed62000a40565b005b620003f962000a58565b60405162000408919062001a58565b60405180910390f35b6200041b62000a7e565b005b6200043b600480360381019062000435919062001b12565b62000c48565b6040516200044a919062001a58565b60405180910390f35b6200045d62001277565b6040516200046c919062001a58565b60405180910390f35b6200047f6200129d565b6040516200048e919062001a58565b60405180910390f35b620004a1620012c7565b604051620004b0919062001a86565b60405180910390f35b620004c3620012cd565b604051620004d2919062001b89565b60405180910390f35b620004e562001301565b604051620004f4919062001bb7565b60405180910390f35b6200050762001314565b60405162000516919062001a86565b60405180910390f35b6200053d600480360381019062000537919062001ae0565b62001319565b005b6200054962001378565b60405162000558919062001a58565b60405180910390f35b6200056b6200139e565b6040516200057a919062001a58565b60405180910390f35b620005a160048036038101906200059b919062001bd4565b620013c4565b005b620005c16004803603810190620005bb9190620019a8565b62001494565b604051620005d0919062001bb7565b60405180910390f35b620005e3620014b4565b604051620005f49392919062001c1b565b60405180910390f35b6200061b6004803603810190620006159190620019a8565b6200151a565b005b62000627620015a4565b005b6200063362001664565b60405162000642919062001d26565b60405180910390f35b606a60009054906101000a900473ffffffffffffffffffffffffffffffffffffffff1673ffffffffffffffffffffffffffffffffffffffff163373ffffffffffffffffffffffffffffffffffffffff1614620006a657600080fd5b600073ffffffffffffffffffffffffffffffffffffffff168173ffffffffffffffffffffffffffffffffffffffff1603620006e057600080fd5b80606c60006101000a81548173ffffffffffffffffffffffffffffffffffffffff021916908373ffffffffffffffffffffffffffffffffffffffff16021790555050565b606f81815481106200073557600080fd5b906000526020600020016000915054906101000a900473ffffffffffffffffffffffffffffffffffffffff1681565b60695481565b606a60009054906101000a900473ffffffffffffffffffffffffffffffffffffffff1673ffffffffffffffffffffffffffffffffffffffff163373ffffffffffffffffffffffffffffffffffffffff1614620007c557600080fd5b600073ffffffffffffffffffffffffffffffffffffffff168173ffffffffffffffffffffffffffffffffffffffff1603620007ff57600080fd5b80606d60006101000a81548173ffffffffffffffffffffffffffffffffffffffff021916908373ffffffffffffffffffffffffffffffffffffffff16021790555050565b60665481565b606a60009054906101000a900473ffffffffffffffffffffffffffffffffffffffff1673ffffffffffffffffffffffffffffffffffffffff163373ffffffffffffffffffffffffffffffffffffffff1614620008a457600080fd5b80606b60006101000a81548173ffffffffffffffffffffffffffffffffffffffff021916908373ffffffffffffffffffffffffffffffffffffffff16021790555050565b606a60009054906101000a900473ffffffffffffffffffffffffffffffffffffffff1673ffffffffffffffffffffffffffffffffffffffff163373ffffffffffffffffffffffffffffffffffffffff16146200094357600080fd5b610bb88111156200095357600080fd5b8060688190555050565b60675481565b600081620009745760675462000978565b6066545b9050919050565b6000606f80549050905090565b606e602052826000526040600020602052816000526040600020602052806000526040600020600092509250509054906101000a900473ffffffffffffffffffffffffffffffffffffffff1681565b606a60009054906101000a900473ffffffffffffffffffffffffffffffffffffffff1673ffffffffffffffffffffffffffffffffffffffff163373ffffffffffffffffffffffffffffffffffffffff161462000a3657600080fd5b8060698190555050565b62000a4a620016f4565b62000a56600062001779565b565b606c60009054906101000a900473ffffffffffffffffffffffffffffffffffffffff1681565b60008060019054906101000a900460ff1615905080801562000ab05750600160008054906101000a900460ff1660ff16105b8062000ae1575062000ac2306200183f565b15801562000ae05750600160008054906101000a900460ff1660ff16145b5b62000b23576040517f08c379a000000000000000000000000000000000000000000000000000000000815260040162000b1a9062001dd1565b60405180910390fd5b60016000806101000a81548160ff021916908360ff160217905550801562000b61576001600060016101000a81548160ff0219169083151502179055505b62000b6b62001862565b6000606560006101000a81548160ff02191690831515021790555033606a60006101000a81548173ffffffffffffffffffffffffffffffffffffffff021916908373ffffffffffffffffffffffffffffffffffffffff16021790555060046066819055506012606781905550610bb86068819055506104b0606981905550801562000c455760008060016101000a81548160ff0219169083151502179055507f7f26b83ff96e1f2b6a682f133852f6798a09c465da95921460cefb3847402498600160405162000c3c919062001e4d565b60405180910390a15b50565b60008273ffffffffffffffffffffffffffffffffffffffff168473ffffffffffffffffffffffffffffffffffffffff160362000cbb576040517f08c379a000000000000000000000000000000000000000000000000000000000815260040162000cb29062001eba565b60405180910390fd5b6000808473ffffffffffffffffffffffffffffffffffffffff168673ffffffffffffffffffffffffffffffffffffffff161062000cfa57848662000cfd565b85855b91509150600073ffffffffffffffffffffffffffffffffffffffff168273ffffffffffffffffffffffffffffffffffffffff160362000d73576040517f08c379a000000000000000000000000000000000000000000000000000000000815260040162000d6a9062001f2c565b60405180910390fd5b600073ffffffffffffffffffffffffffffffffffffffff16606e60008473ffffffffffffffffffffffffffffffffffffffff1673ffffffffffffffffffffffffffffffffffffffff16815260200190815260200160002060008373ffffffffffffffffffffffffffffffffffffffff1673ffffffffffffffffffffffffffffffffffffffff16815260200190815260200160002060008615151515815260200190815260200160002060009054906101000a900473ffffffffffffffffffffffffffffffffffffffff1673ffffffffffffffffffffffffffffffffffffffff161462000e96576040517f08c379a000000000000000000000000000000000000000000000000000000000815260040162000e8d9062001f9e565b60405180910390fd5b600082828660405160200162000eaf9392919062002060565b6040516020818303038152906040528051906020012090508282866071600060726000607260148691906101000a81548160ff0219169083151502179055508591906101000a81548173ffffffffffffffffffffffffffffffffffffffff021916908373ffffffffffffffffffffffffffffffffffffffff1602179055508491906101000a81548173ffffffffffffffffffffffffffffffffffffffff021916908373ffffffffffffffffffffffffffffffffffffffff1602179055505050508060405162000f7e9062001930565b8190604051809103906000f590508015801562000f9f573d6000803e3d6000fd5b50935083606e60008573ffffffffffffffffffffffffffffffffffffffff1673ffffffffffffffffffffffffffffffffffffffff16815260200190815260200160002060008473ffffffffffffffffffffffffffffffffffffffff1673ffffffffffffffffffffffffffffffffffffffff16815260200190815260200160002060008715151515815260200190815260200160002060006101000a81548173ffffffffffffffffffffffffffffffffffffffff021916908373ffffffffffffffffffffffffffffffffffffffff16021790555083606e60008473ffffffffffffffffffffffffffffffffffffffff1673ffffffffffffffffffffffffffffffffffffffff16815260200190815260200160002060008573ffffffffffffffffffffffffffffffffffffffff1673ffffffffffffffffffffffffffffffffffffffff16815260200190815260200160002060008715151515815260200190815260200160002060006101000a81548173ffffffffffffffffffffffffffffffffffffffff021916908373ffffffffffffffffffffffffffffffffffffffff160217905550606f849080600181540180825580915050600190039060005260206000200160009091909190916101000a81548173ffffffffffffffffffffffffffffffffffffffff021916908373ffffffffffffffffffffffffffffffffffffffff1602179055506001607060008673ffffffffffffffffffffffffffffffffffffffff1673ffffffffffffffffffffffffffffffffffffffff16815260200190815260200160002060006101000a81548160ff0219169083151502179055508173ffffffffffffffffffffffffffffffffffffffff168373ffffffffffffffffffffffffffffffffffffffff167fc4805696c66d7cf352fc1d6bb633ad5ee82f6cb577c453024b6e0eb8306c6fc98787606f805490506040516200126593929190620020a3565b60405180910390a35050509392505050565b606b60009054906101000a900473ffffffffffffffffffffffffffffffffffffffff1681565b6000603360009054906101000a900473ffffffffffffffffffffffffffffffffffffffff16905090565b60685481565b600060405180602001620012e19062001930565b6020820181038252601f19601f8201166040525080519060200120905090565b606560009054906101000a900460ff1681565b601981565b620013236200129d565b73ffffffffffffffffffffffffffffffffffffffff163373ffffffffffffffffffffffffffffffffffffffff16146200135b57600080fd5b80606560006101000a81548160ff02191690831515021790555050565b606d60009054906101000a900473ffffffffffffffffffffffffffffffffffffffff1681565b606a60009054906101000a900473ffffffffffffffffffffffffffffffffffffffff1681565b606a60009054906101000a900473ffffffffffffffffffffffffffffffffffffffff1673ffffffffffffffffffffffffffffffffffffffff163373ffffffffffffffffffffffffffffffffffffffff16146200141f57600080fd5b601981111562001466576040517f08c379a00000000000000000000000000000000000000000000000000000000081526004016200145d9062002130565b60405180910390fd5b600081036200147457600080fd5b811562001488578060668190555062001490565b806067819055505b5050565b60706020528060005260406000206000915054906101000a900460ff1681565b6000806000607160009054906101000a900473ffffffffffffffffffffffffffffffffffffffff16607260009054906101000a900473ffffffffffffffffffffffffffffffffffffffff16607260149054906101000a900460ff16925092509250909192565b62001524620016f4565b600073ffffffffffffffffffffffffffffffffffffffff168173ffffffffffffffffffffffffffffffffffffffff160362001596576040517f08c379a00000000000000000000000000000000000000000000000000000000081526004016200158d90620021c8565b60405180910390fd5b620015a18162001779565b50565b606b60009054906101000a900473ffffffffffffffffffffffffffffffffffffffff1673ffffffffffffffffffffffffffffffffffffffff163373ffffffffffffffffffffffffffffffffffffffff1614620015ff57600080fd5b606b60009054906101000a900473ffffffffffffffffffffffffffffffffffffffff16606a60006101000a81548173ffffffffffffffffffffffffffffffffffffffff021916908373ffffffffffffffffffffffffffffffffffffffff160217905550565b6060606f805480602002602001604051908101604052809291908181526020018280548015620016ea57602002820191906000526020600020905b8160009054906101000a900473ffffffffffffffffffffffffffffffffffffffff1673ffffffffffffffffffffffffffffffffffffffff16815260200190600101908083116200169f575b5050505050905090565b620016fe620018c0565b73ffffffffffffffffffffffffffffffffffffffff166200171e6200129d565b73ffffffffffffffffffffffffffffffffffffffff161462001777576040517f08c379a00000000000000000000000000000000000000000000000000000000081526004016200176e906200223a565b60405180910390fd5b565b6000603360009054906101000a900473ffffffffffffffffffffffffffffffffffffffff16905081603360006101000a81548173ffffffffffffffffffffffffffffffffffffffff021916908373ffffffffffffffffffffffffffffffffffffffff1602179055508173ffffffffffffffffffffffffffffffffffffffff168173ffffffffffffffffffffffffffffffffffffffff167f8be0079c531659141344cd1fd0a4f28419497f9722a3daafe3b4186f6b6457e060405160405180910390a35050565b6000808273ffffffffffffffffffffffffffffffffffffffff163b119050919050565b600060019054906101000a900460ff16620018b4576040517f08c379a0000000000000000000000000000000000000000000000000000000008152600401620018ab90620022d2565b60405180910390fd5b620018be620018c8565b565b600033905090565b600060019054906101000a900460ff166200191a576040517f08c379a00000000000000000000000000000000000000000000000000000000081526004016200191190620022d2565b60405180910390fd5b6200192e62001928620018c0565b62001779565b565b6178cb80620022f583390190565b600080fd5b600073ffffffffffffffffffffffffffffffffffffffff82169050919050565b6000620019708262001943565b9050919050565b620019828162001963565b81146200198e57600080fd5b50565b600081359050620019a28162001977565b92915050565b600060208284031215620019c157620019c06200193e565b5b6000620019d18482850162001991565b91505092915050565b6000819050919050565b620019ef81620019da565b8114620019fb57600080fd5b50565b60008135905062001a0f81620019e4565b92915050565b60006020828403121562001a2e5762001a2d6200193e565b5b600062001a3e84828501620019fe565b91505092915050565b62001a528162001963565b82525050565b600060208201905062001a6f600083018462001a47565b92915050565b62001a8081620019da565b82525050565b600060208201905062001a9d600083018462001a75565b92915050565b60008115159050919050565b62001aba8162001aa3565b811462001ac657600080fd5b50565b60008135905062001ada8162001aaf565b92915050565b60006020828403121562001af95762001af86200193e565b5b600062001b098482850162001ac9565b91505092915050565b60008060006060848603121562001b2e5762001b2d6200193e565b5b600062001b3e8682870162001991565b935050602062001b518682870162001991565b925050604062001b648682870162001ac9565b9150509250925092565b6000819050919050565b62001b838162001b6e565b82525050565b600060208201905062001ba0600083018462001b78565b92915050565b62001bb18162001aa3565b82525050565b600060208201905062001bce600083018462001ba6565b92915050565b6000806040838503121562001bee5762001bed6200193e565b5b600062001bfe8582860162001ac9565b925050602062001c1185828601620019fe565b9150509250929050565b600060608201905062001c32600083018662001a47565b62001c41602083018562001a47565b62001c50604083018462001ba6565b949350505050565b600081519050919050565b600082825260208201905092915050565b6000819050602082019050919050565b62001c8f8162001963565b82525050565b600062001ca3838362001c84565b60208301905092915050565b6000602082019050919050565b600062001cc98262001c58565b62001cd5818562001c63565b935062001ce28362001c74565b8060005b8381101562001d1957815162001cfd888262001c95565b975062001d0a8362001caf565b92505060018101905062001ce6565b5085935050505092915050565b6000602082019050818103600083015262001d42818462001cbc565b905092915050565b600082825260208201905092915050565b7f496e697469616c697a61626c653a20636f6e747261637420697320616c72656160008201527f647920696e697469616c697a6564000000000000000000000000000000000000602082015250565b600062001db9602e8362001d4a565b915062001dc68262001d5b565b604082019050919050565b6000602082019050818103600083015262001dec8162001daa565b9050919050565b6000819050919050565b600060ff82169050919050565b6000819050919050565b600062001e3562001e2f62001e298462001df3565b62001e0a565b62001dfd565b9050919050565b62001e478162001e14565b82525050565b600060208201905062001e64600083018462001e3c565b92915050565b7f4941000000000000000000000000000000000000000000000000000000000000600082015250565b600062001ea260028362001d4a565b915062001eaf8262001e6a565b602082019050919050565b6000602082019050818103600083015262001ed58162001e93565b9050919050565b7f5a41000000000000000000000000000000000000000000000000000000000000600082015250565b600062001f1460028362001d4a565b915062001f218262001edc565b602082019050919050565b6000602082019050818103600083015262001f478162001f05565b9050919050565b7f5045000000000000000000000000000000000000000000000000000000000000600082015250565b600062001f8660028362001d4a565b915062001f938262001f4e565b602082019050919050565b6000602082019050818103600083015262001fb98162001f77565b9050919050565b60008160601b9050919050565b600062001fda8262001fc0565b9050919050565b600062001fee8262001fcd565b9050919050565b6200200a620020048262001963565b62001fe1565b82525050565b60008160f81b9050919050565b60006200202a8262002010565b9050919050565b60006200203e826200201d565b9050919050565b6200205a620020548262001aa3565b62002031565b82525050565b60006200206e828662001ff5565b60148201915062002080828562001ff5565b60148201915062002092828462002045565b600182019150819050949350505050565b6000606082019050620020ba600083018662001ba6565b620020c9602083018562001a47565b620020d8604083018462001a75565b949350505050565b7f6665650000000000000000000000000000000000000000000000000000000000600082015250565b60006200211860038362001d4a565b91506200212582620020e0565b602082019050919050565b600060208201905081810360008301526200214b8162002109565b9050919050565b7f4f776e61626c653a206e6577206f776e657220697320746865207a65726f206160008201527f6464726573730000000000000000000000000000000000000000000000000000602082015250565b6000620021b060268362001d4a565b9150620021bd8262002152565b604082019050919050565b60006020820190508181036000830152620021e381620021a1565b9050919050565b7f4f776e61626c653a2063616c6c6572206973206e6f7420746865206f776e6572600082015250565b60006200222260208362001d4a565b91506200222f82620021ea565b602082019050919050565b60006020820190508181036000830152620022558162002213565b9050919050565b7f496e697469616c697a61626c653a20636f6e7472616374206973206e6f74206960008201527f6e697469616c697a696e67000000000000000000000000000000000000000000602082015250565b6000620022ba602b8362001d4a565b9150620022c7826200225c565b604082019050919050565b60006020820190508181036000830152620022ed81620022ab565b905091905056fe61016060405260006002556000600d556000600e5560016013553480156200002657600080fd5b503373ffffffffffffffffffffffffffffffffffffffff166101008173ffffffffffffffffffffffffffffffffffffffff168152505060008060003373ffffffffffffffffffffffffffffffffffffffff1663eb13c4cf6040518163ffffffff1660e01b8152600401606060405180830381865afa158015620000ad573d6000803e3d6000fd5b505050506040513d601f19601f82011682018060405250810190620000d3919062000961565b92509250925082828280151560809015158152508173ffffffffffffffffffffffffffffffffffffffff1660c09073ffffffffffffffffffffffffffffffffffffffff168152508273ffffffffffffffffffffffffffffffffffffffff1660a09073ffffffffffffffffffffffffffffffffffffffff1681525050505082826040516200016090620007ed565b6200016d929190620009ce565b604051809103906000f0801580156200018a573d6000803e3d6000fd5b5073ffffffffffffffffffffffffffffffffffffffff1660e08173ffffffffffffffffffffffffffffffffffffffff168152505080156200041b578273ffffffffffffffffffffffffffffffffffffffff166395d89b416040518163ffffffff1660e01b8152600401600060405180830381865afa15801562000211573d6000803e3d6000fd5b505050506040513d6000823e3d601f19601f820116820180604052508101906200023c919062000b84565b8273ffffffffffffffffffffffffffffffffffffffff166395d89b416040518163ffffffff1660e01b8152600401600060405180830381865afa15801562000288573d6000803e3d6000fd5b505050506040513d6000823e3d601f19601f82011682018060405250810190620002b3919062000b84565b604051602001620002c692919062000cc2565b60405160208183030381529060405260009080519060200190620002ec929190620007fb565b508273ffffffffffffffffffffffffffffffffffffffff166395d89b416040518163ffffffff1660e01b8152600401600060405180830381865afa15801562000339573d6000803e3d6000fd5b505050506040513d6000823e3d601f19601f8201168201806040525081019062000364919062000b84565b8273ffffffffffffffffffffffffffffffffffffffff166395d89b416040518163ffffffff1660e01b8152600401600060405180830381865afa158015620003b0573d6000803e3d6000fd5b505050506040513d6000823e3d601f19601f82011682018060405250810190620003db919062000b84565b604051602001620003ee92919062000d54565b6040516020818303038152906040526001908051906020019062000414929190620007fb565b506200066c565b8273ffffffffffffffffffffffffffffffffffffffff166395d89b416040518163ffffffff1660e01b8152600401600060405180830381865afa15801562000467573d6000803e3d6000fd5b505050506040513d6000823e3d601f19601f8201168201806040525081019062000492919062000b84565b8273ffffffffffffffffffffffffffffffffffffffff166395d89b416040518163ffffffff1660e01b8152600401600060405180830381865afa158015620004de573d6000803e3d6000fd5b505050506040513d6000823e3d601f19601f8201168201806040525081019062000509919062000b84565b6040516020016200051c92919062000de6565b6040516020818303038152906040526000908051906020019062000542929190620007fb565b508273ffffffffffffffffffffffffffffffffffffffff166395d89b416040518163ffffffff1660e01b8152600401600060405180830381865afa1580156200058f573d6000803e3d6000fd5b505050506040513d6000823e3d601f19601f82011682018060405250810190620005ba919062000b84565b8273ffffffffffffffffffffffffffffffffffffffff166395d89b416040518163ffffffff1660e01b8152600401600060405180830381865afa15801562000606573d6000803e3d6000fd5b505050506040513d6000823e3d601f19601f8201168201806040525081019062000631919062000b84565b6040516020016200064492919062000e78565b604051602081830303815290604052600190805190602001906200066a929190620007fb565b505b8273ffffffffffffffffffffffffffffffffffffffff1663313ce5676040518163ffffffff1660e01b8152600401602060405180830381865afa158015620006b8573d6000803e3d6000fd5b505050506040513d601f19601f82011682018060405250810190620006de919062000ef8565b600a620006ec9190620010b7565b61012081815250508173ffffffffffffffffffffffffffffffffffffffff1663313ce5676040518163ffffffff1660e01b8152600401602060405180830381865afa15801562000740573d6000803e3d6000fd5b505050506040513d601f19601f8201168201806040525081019062000766919062000ef8565b600a620007749190620010b7565b610140818152505060076040518060600160405280428152602001600081526020016000815250908060018154018082558091505060019003906000526020600020906003020160009091909190915060008201518160000155602082015181600101556040820151816002015550505050506200116c565b6109d48062006ef783390190565b828054620008099062001137565b90600052602060002090601f0160209004810192826200082d576000855562000879565b82601f106200084857805160ff191683800117855562000879565b8280016001018555821562000879579182015b82811115620008785782518255916020019190600101906200085b565b5b5090506200088891906200088c565b5090565b5b80821115620008a75760008160009055506001016200088d565b5090565b6000604051905090565b600080fd5b600080fd5b600073ffffffffffffffffffffffffffffffffffffffff82169050919050565b6000620008ec82620008bf565b9050919050565b620008fe81620008df565b81146200090a57600080fd5b50565b6000815190506200091e81620008f3565b92915050565b60008115159050919050565b6200093b8162000924565b81146200094757600080fd5b50565b6000815190506200095b8162000930565b92915050565b6000806000606084860312156200097d576200097c620008b5565b5b60006200098d868287016200090d565b9350506020620009a0868287016200090d565b9250506040620009b3868287016200094a565b9150509250925092565b620009c881620008df565b82525050565b6000604082019050620009e56000830185620009bd565b620009f46020830184620009bd565b9392505050565b600080fd5b600080fd5b6000601f19601f8301169050919050565b7f4e487b7100000000000000000000000000000000000000000000000000000000600052604160045260246000fd5b62000a508262000a05565b810181811067ffffffffffffffff8211171562000a725762000a7162000a16565b5b80604052505050565b600062000a87620008ab565b905062000a95828262000a45565b919050565b600067ffffffffffffffff82111562000ab85762000ab762000a16565b5b62000ac38262000a05565b9050602081019050919050565b60005b8381101562000af057808201518184015260208101905062000ad3565b8381111562000b00576000848401525b50505050565b600062000b1d62000b178462000a9a565b62000a7b565b90508281526020810184848401111562000b3c5762000b3b62000a00565b5b62000b4984828562000ad0565b509392505050565b600082601f83011262000b695762000b68620009fb565b5b815162000b7b84826020860162000b06565b91505092915050565b60006020828403121562000b9d5762000b9c620008b5565b5b600082015167ffffffffffffffff81111562000bbe5762000bbd620008ba565b5b62000bcc8482850162000b51565b91505092915050565b600081905092915050565b7f537461626c65563120414d4d202d200000000000000000000000000000000000600082015250565b600062000c18600f8362000bd5565b915062000c258262000be0565b600f82019050919050565b600081519050919050565b600062000c488262000c30565b62000c54818562000bd5565b935062000c6681856020860162000ad0565b80840191505092915050565b7f2f00000000000000000000000000000000000000000000000000000000000000600082015250565b600062000caa60018362000bd5565b915062000cb78262000c72565b600182019050919050565b600062000ccf8262000c09565b915062000cdd828562000c3b565b915062000cea8262000c9b565b915062000cf8828462000c3b565b91508190509392505050565b7f73414d4d2d000000000000000000000000000000000000000000000000000000600082015250565b600062000d3c60058362000bd5565b915062000d498262000d04565b600582019050919050565b600062000d618262000d2d565b915062000d6f828562000c3b565b915062000d7c8262000c9b565b915062000d8a828462000c3b565b91508190509392505050565b7f566f6c6174696c65563120414d4d202d20000000000000000000000000000000600082015250565b600062000dce60118362000bd5565b915062000ddb8262000d96565b601182019050919050565b600062000df38262000dbf565b915062000e01828562000c3b565b915062000e0e8262000c9b565b915062000e1c828462000c3b565b91508190509392505050565b7f76414d4d2d000000000000000000000000000000000000000000000000000000600082015250565b600062000e6060058362000bd5565b915062000e6d8262000e28565b600582019050919050565b600062000e858262000e51565b915062000e93828562000c3b565b915062000ea08262000c9b565b915062000eae828462000c3b565b91508190509392505050565b600060ff82169050919050565b62000ed28162000eba565b811462000ede57600080fd5b50565b60008151905062000ef28162000ec7565b92915050565b60006020828403121562000f115762000f10620008b5565b5b600062000f218482850162000ee1565b91505092915050565b7f4e487b7100000000000000000000000000000000000000000000000000000000600052601160045260246000fd5b60008160011c9050919050565b6000808291508390505b600185111562000fb85780860481111562000f905762000f8f62000f2a565b5b600185161562000fa05780820291505b808102905062000fb08562000f59565b945062000f70565b94509492505050565b60008262000fd35760019050620010a6565b8162000fe35760009050620010a6565b816001811462000ffc576002811462001007576200103d565b6001915050620010a6565b60ff8411156200101c576200101b62000f2a565b5b8360020a91508482111562001036576200103562000f2a565b5b50620010a6565b5060208310610133831016604e8410600b8410161715620010775782820a90508381111562001071576200107062000f2a565b5b620010a6565b62001086848484600162000f66565b92509050818404811115620010a0576200109f62000f2a565b5b81810290505b9392505050565b6000819050919050565b6000620010c482620010ad565b9150620010d18362000eba565b9250620011007fffffffffffffffffffffffffffffffffffffffffffffffffffffffffffffffff848462000fc1565b905092915050565b7f4e487b7100000000000000000000000000000000000000000000000000000000600052602260045260246000fd5b600060028204905060018216806200115057607f821691505b60208210810362001166576200116562001108565b5b50919050565b60805160a05160c05160e051610100516101205161014051615baf62001348600039600081816118ca0152818161381501528181613aec01528181613be40152613d110152600081816118a9015281816137d201528181613aab01528181613c280152613ceb01526000818161093101528181610e1901528181610efd01528181612b5501528181612c8601528181613020015281816130b30152818161319f015281816133e50152818161347801526135640152600081816122550152818161267c01528181612be601528181613245015281816132f70152818161360a01526136bc015260008181610a9901528181610de50152818161193301528181611b6001528181611dd10152818161229d015281816123be0152818161252a01528181612e2c01528181613529015261369b015260008181610a7801528181610dc40152818161136e0152818161191201528181611ac201528181611db00152818161227c0152818161239d01528181612d9201528181613164015281816132d601528181613b3001528181613b9101528181613c980152613d56015260008181610e5501528181610f39015281816112560152818161163d015281816118f101528181612cc2015281816137aa0152613a770152615baf6000f3fe608060405234801561001057600080fd5b506004361061028a5760003560e01c80637ecebe001161015c578063bda39cad116100ce578063d505accf11610087578063d505accf1461086a578063dd62ed3e14610886578063ebeb31db146108b6578063f083be3b146108d4578063f140a35a146108de578063fff6cae91461090e5761028a565b8063bda39cad146107b5578063bf944dbc146107d3578063c245febc146107f1578063c5700a021461080f578063d21220a71461082d578063d294f0931461084b5761028a565b80639d63848a116101205780639d63848a146106ba5780639e8cc04b146106d95780639f767c8814610709578063a1ac4d1314610739578063a9059cbb14610769578063bc25cf77146107995761028a565b80637ecebe00146105ff57806389afcb441461062f5780638a7b8cf21461066057806395d89b411461067e5780639af1d35a1461069c5761028a565b806323b872dd116102005780634d5a9f8a116101b95780634d5a9f8a146104f1578063517b3f82146105215780635881c475146105515780635a76f25e146105815780636a6278421461059f57806370a08231146105cf5761028a565b806323b872dd14610411578063252c09d714610441578063313ce5671461047357806332c0defd14610491578063392f37e9146104af578063443cb4bc146104d35761028a565b80630dfe1681116102525780630dfe16811461033757806313345fe11461035557806318160ddd146103855780631df8c717146103a3578063205aabf1146103c357806322be3de1146103f35761028a565b8063022c0d9f1461028f57806306fdde03146102ab5780630902f1ac146102c957806309047bdd146102e9578063095ea7b314610307575b600080fd5b6102a960048036038101906102a49190614833565b610918565b005b6102b36111ab565b6040516102c09190614954565b60405180910390f35b6102d1611239565b6040516102e093929190614985565b60405180910390f35b6102f1611252565b6040516102fe91906149d7565b60405180910390f35b610321600480360381019061031c91906149f2565b61127a565b60405161032e91906149d7565b60405180910390f35b61033f61136c565b60405161034c9190614a41565b60405180910390f35b61036f600480360381019061036a9190614a5c565b611390565b60405161037c9190614b81565b60405180910390f35b61038d6115a5565b60405161039a9190614ba3565b60405180910390f35b6103ab6115ab565b6040516103ba93929190614985565b60405180910390f35b6103dd60048036038101906103d89190614bbe565b611623565b6040516103ea9190614ba3565b60405180910390f35b6103fb61163b565b60405161040891906149d7565b60405180910390f35b61042b60048036038101906104269190614beb565b61165f565b60405161043891906149d7565b60405180910390f35b61045b60048036038101906104569190614c3e565b611857565b60405161046a93929190614985565b60405180910390f35b61047b611891565b6040516104889190614c87565b60405180910390f35b610499611896565b6040516104a69190614ba3565b60405180910390f35b6104b761189c565b6040516104ca9796959493929190614ca2565b60405180910390f35b6104db611969565b6040516104e89190614ba3565b60405180910390f35b61050b60048036038101906105069190614bbe565b61196f565b6040516105189190614ba3565b60405180910390f35b61053b600480360381019061053691906149f2565b611987565b6040516105489190614ba3565b60405180910390f35b61056b60048036038101906105669190614d11565b611a7a565b6040516105789190614b81565b60405180910390f35b610589611a92565b6040516105969190614ba3565b60405180910390f35b6105b960048036038101906105b49190614bbe565b611a98565b6040516105c69190614ba3565b60405180910390f35b6105e960048036038101906105e49190614bbe565b611d54565b6040516105f69190614ba3565b60405180910390f35b61061960048036038101906106149190614bbe565b611d6c565b6040516106269190614ba3565b60405180910390f35b61064960048036038101906106449190614bbe565b611d84565b604051610657929190614d64565b60405180910390f35b61066861215c565b6040516106759190614dcf565b60405180910390f35b6106866121c5565b6040516106939190614954565b60405180910390f35b6106a4612253565b6040516106b19190614a41565b60405180910390f35b6106c2612277565b6040516106d0929190614dea565b60405180910390f35b6106f360048036038101906106ee9190614d11565b6122c4565b6040516107009190614ba3565b60405180910390f35b610723600480360381019061071e9190614bbe565b61233a565b6040516107309190614ba3565b60405180910390f35b610753600480360381019061074e9190614bbe565b612352565b6040516107609190614ba3565b60405180910390f35b610783600480360381019061077e91906149f2565b61236a565b60405161079091906149d7565b60405180910390f35b6107b360048036038101906107ae9190614bbe565b612381565b005b6107bd612510565b6040516107ca9190614ba3565b60405180910390f35b6107db612516565b6040516107e89190614ba3565b60405180910390f35b6107f961251c565b6040516108069190614ba3565b60405180910390f35b610817612522565b6040516108249190614ba3565b60405180910390f35b610835612528565b6040516108429190614a41565b60405180910390f35b61085361254c565b604051610861929190614d64565b60405180910390f35b610884600480360381019061087f9190614e75565b612775565b005b6108a0600480360381019061089b9190614f17565b612b1f565b6040516108ad9190614ba3565b60405180910390f35b6108be612b44565b6040516108cb9190614ba3565b60405180910390f35b6108dc612b51565b005b6108f860048036038101906108f39190614f57565b612c72565b6040516109059190614ba3565b60405180910390f35b610916612d76565b005b60016013541461092757600080fd5b60026013819055507f000000000000000000000000000000000000000000000000000000000000000073ffffffffffffffffffffffffffffffffffffffff1663b187bd266040518163ffffffff1660e01b8152600401602060405180830381865afa15801561099a573d6000803e3d6000fd5b505050506040513d601f19601f820116820180604052508101906109be9190614fc3565b156109c857600080fd5b60008511806109d75750600084115b610a16576040517f08c379a0000000000000000000000000000000000000000000000000000000008152600401610a0d9061503c565b60405180910390fd5b600080600854600954915091508187108015610a3157508086105b610a70576040517f08c379a0000000000000000000000000000000000000000000000000000000008152600401610a67906150a8565b60405180910390fd5b6000806000807f00000000000000000000000000000000000000000000000000000000000000007f0000000000000000000000000000000000000000000000000000000000000000915091508173ffffffffffffffffffffffffffffffffffffffff168973ffffffffffffffffffffffffffffffffffffffff1614158015610b2457508073ffffffffffffffffffffffffffffffffffffffff168973ffffffffffffffffffffffffffffffffffffffff1614155b610b63576040517f08c379a0000000000000000000000000000000000000000000000000000000008152600401610b5a90615114565b60405180910390fd5b60008b1115610b7857610b77828a8d612ed9565b5b60008a1115610b8d57610b8c818a8c612ed9565b5b6000888890501115610c0d578873ffffffffffffffffffffffffffffffffffffffff16639a7bff79338d8d8c8c6040518663ffffffff1660e01b8152600401610bda959493929190615181565b600060405180830381600087803b158015610bf457600080fd5b505af1158015610c08573d6000803e3d6000fd5b505050505b8173ffffffffffffffffffffffffffffffffffffffff166370a08231306040518263ffffffff1660e01b8152600401610c469190614a41565b602060405180830381865afa158015610c63573d6000803e3d6000fd5b505050506040513d601f19601f82011682018060405250810190610c8791906151e4565b93508073ffffffffffffffffffffffffffffffffffffffff166370a08231306040518263ffffffff1660e01b8152600401610cc29190614a41565b602060405180830381865afa158015610cdf573d6000803e3d6000fd5b505050506040513d601f19601f82011682018060405250810190610d0391906151e4565b9250505060008985610d159190615240565b8311610d22576000610d3a565b8985610d2e9190615240565b83610d399190615240565b5b905060008985610d4a9190615240565b8311610d57576000610d6f565b8985610d639190615240565b83610d6e9190615240565b5b90506000821180610d805750600081115b610dbf576040517f08c379a0000000000000000000000000000000000000000000000000000000008152600401610db6906152c0565b60405180910390fd5b6000807f00000000000000000000000000000000000000000000000000000000000000007f0000000000000000000000000000000000000000000000000000000000000000915091506000841115610eec57610eeb6127107f000000000000000000000000000000000000000000000000000000000000000073ffffffffffffffffffffffffffffffffffffffff1663512b45ea7f00000000000000000000000000000000000000000000000000000000000000006040518263ffffffff1660e01b8152600401610e9091906149d7565b602060405180830381865afa158015610ead573d6000803e3d6000fd5b505050506040513d601f19601f82011682018060405250810190610ed191906151e4565b86610edc91906152e0565b610ee69190615369565b61301c565b5b6000831115610fd057610fcf6127107f000000000000000000000000000000000000000000000000000000000000000073ffffffffffffffffffffffffffffffffffffffff1663512b45ea7f00000000000000000000000000000000000000000000000000000000000000006040518263ffffffff1660e01b8152600401610f7491906149d7565b602060405180830381865afa158015610f91573d6000803e3d6000fd5b505050506040513d601f19601f82011682018060405250810190610fb591906151e4565b85610fc091906152e0565b610fca9190615369565b6133e1565b5b8173ffffffffffffffffffffffffffffffffffffffff166370a08231306040518263ffffffff1660e01b81526004016110099190614a41565b602060405180830381865afa158015611026573d6000803e3d6000fd5b505050506040513d601f19601f8201168201806040525081019061104a91906151e4565b95508073ffffffffffffffffffffffffffffffffffffffff166370a08231306040518263ffffffff1660e01b81526004016110859190614a41565b602060405180830381865afa1580156110a2573d6000803e3d6000fd5b505050506040513d601f19601f820116820180604052508101906110c691906151e4565b94506110d288886137a6565b6110dc87876137a6565b101561111d576040517f08c379a0000000000000000000000000000000000000000000000000000000008152600401611114906153e6565b60405180910390fd5b505061112b84848888613902565b8873ffffffffffffffffffffffffffffffffffffffff163373ffffffffffffffffffffffffffffffffffffffff167fd78ad95fa46c994b6551d0da85fc275fe613ce37657fb8d5e3d130840159d82284848f8f60405161118e9493929190615406565b60405180910390a350505050505060016013819055505050505050565b600080546111b89061547a565b80601f01602080910402602001604051908101604052809291908181526020018280546111e49061547a565b80156112315780601f1061120657610100808354040283529160200191611231565b820191906000526020600020905b81548152906001019060200180831161121457829003601f168201915b505050505081565b600080600060085492506009549150600a549050909192565b60007f0000000000000000000000000000000000000000000000000000000000000000905090565b600081600360003373ffffffffffffffffffffffffffffffffffffffff1673ffffffffffffffffffffffffffffffffffffffff16815260200190815260200160002060008573ffffffffffffffffffffffffffffffffffffffff1673ffffffffffffffffffffffffffffffffffffffff168152602001908152602001600020819055508273ffffffffffffffffffffffffffffffffffffffff163373ffffffffffffffffffffffffffffffffffffffff167f8c5be1e5ebec7d5bd14f71427d1e84f3dd0314c0f7b2291e5b200ac8c7c3b9258460405161135a9190614ba3565b60405180910390a36001905092915050565b7f000000000000000000000000000000000000000000000000000000000000000081565b606060008367ffffffffffffffff8111156113ae576113ad6154ab565b5b6040519080825280602002602001820160405280156113dc5781602001602082028036833780820191505090505b509050600060016007805490506113f39190615240565b90506000848661140391906152e0565b8261140e9190615240565b90506000805b8383101561159557868361142891906154da565b91506000600784815481106114405761143f615530565b5b9060005260206000209060030201600001546007848154811061146657611465615530565b5b9060005260206000209060030201600001546114829190615240565b90506000816007868154811061149b5761149a615530565b5b906000526020600020906003020160010154600786815481106114c1576114c0615530565b5b9060005260206000209060030201600101546114dd9190615240565b6114e79190615369565b905060008260078781548110611500576114ff615530565b5b9060005260206000209060030201600201546007878154811061152657611525615530565b5b9060005260206000209060030201600201546115429190615240565b61154c9190615369565b905061155a8c8e8484613a73565b88858151811061156d5761156c615530565b5b602002602001018181525050600184019350505050868361158e91906154da565b9250611414565b8495505050505050949350505050565b60025481565b6000806000429050600b549250600c54915060008060006115ca611239565b92509250925083811461161b57600081856115e59190615240565b905080846115f391906152e0565b876115fe91906154da565b9650808361160c91906152e0565b8661161791906154da565b9550505b505050909192565b60106020528060005260406000206000915090505481565b7f000000000000000000000000000000000000000000000000000000000000000081565b6000803390506000600360008773ffffffffffffffffffffffffffffffffffffffff1673ffffffffffffffffffffffffffffffffffffffff16815260200190815260200160002060008373ffffffffffffffffffffffffffffffffffffffff1673ffffffffffffffffffffffffffffffffffffffff1681526020019081526020016000205490508573ffffffffffffffffffffffffffffffffffffffff168273ffffffffffffffffffffffffffffffffffffffff161415801561174257507fffffffffffffffffffffffffffffffffffffffffffffffffffffffffffffffff8114155b1561183f57600084826117559190615240565b905080600360008973ffffffffffffffffffffffffffffffffffffffff1673ffffffffffffffffffffffffffffffffffffffff16815260200190815260200160002060008573ffffffffffffffffffffffffffffffffffffffff1673ffffffffffffffffffffffffffffffffffffffff168152602001908152602001600020819055508273ffffffffffffffffffffffffffffffffffffffff168773ffffffffffffffffffffffffffffffffffffffff167f8c5be1e5ebec7d5bd14f71427d1e84f3dd0314c0f7b2291e5b200ac8c7c3b925836040516118359190614ba3565b60405180910390a3505b61184a868686613de4565b6001925050509392505050565b6007818154811061186757600080fd5b90600052602060002090600302016000915090508060000154908060010154908060020154905083565b601281565b600d5481565b60008060008060008060007f00000000000000000000000000000000000000000000000000000000000000007f00000000000000000000000000000000000000000000000000000000000000006008546009547f00000000000000000000000000000000000000000000000000000000000000007f00000000000000000000000000000000000000000000000000000000000000007f0000000000000000000000000000000000000000000000000000000000000000965096509650965096509650965090919293949596565b60085481565b60116020528060005260406000206000915090505481565b60008061199261215c565b905060008061199f6115ab565b509150915082600001514203611a0e57600760026007805490506119c39190615240565b815481106119d4576119d3615530565b5b9060005260206000209060030201604051806060016040529081600082015481526020016001820154815260200160028201548152505092505b6000836000015142611a209190615240565b9050600081856020015185611a359190615240565b611a3f9190615369565b9050600082866040015185611a549190615240565b611a5e9190615369565b9050611a6c888a8484613a73565b965050505050505092915050565b6060611a898484846001611390565b90509392505050565b60095481565b6000600160135414611aa957600080fd5b60026013819055506000806008546009549150915060007f000000000000000000000000000000000000000000000000000000000000000073ffffffffffffffffffffffffffffffffffffffff166370a08231306040518263ffffffff1660e01b8152600401611b199190614a41565b602060405180830381865afa158015611b36573d6000803e3d6000fd5b505050506040513d601f19601f82011682018060405250810190611b5a91906151e4565b905060007f000000000000000000000000000000000000000000000000000000000000000073ffffffffffffffffffffffffffffffffffffffff166370a08231306040518263ffffffff1660e01b8152600401611bb79190614a41565b602060405180830381865afa158015611bd4573d6000803e3d6000fd5b505050506040513d601f19601f82011682018060405250810190611bf891906151e4565b905060008483611c089190615240565b905060008483611c189190615240565b90506000600254905060008103611c5e576103e8611c408385611c3b91906152e0565b613f0c565b611c4a9190615240565b9750611c5960006103e8613f86565b611c97565b611c94878285611c6e91906152e0565b611c789190615369565b878385611c8591906152e0565b611c8f9190615369565b614068565b97505b60008811611cda576040517f08c379a0000000000000000000000000000000000000000000000000000000008152600401611cd1906155ab565b60405180910390fd5b611ce48989613f86565b611cf085858989613902565b3373ffffffffffffffffffffffffffffffffffffffff167f4c209b5fc8ad50758f13e2e1088ba56a560dff690a1c6fef26394f4c03821c4f8484604051611d38929190614d64565b60405180910390a2505050505050506001601381905550919050565b60046020528060005260406000206000915090505481565b60066020528060005260406000206000915090505481565b600080600160135414611d9657600080fd5b6002601381905550600080600854600954915091506000807f00000000000000000000000000000000000000000000000000000000000000007f00000000000000000000000000000000000000000000000000000000000000009150915060008273ffffffffffffffffffffffffffffffffffffffff166370a08231306040518263ffffffff1660e01b8152600401611e2f9190614a41565b602060405180830381865afa158015611e4c573d6000803e3d6000fd5b505050506040513d601f19601f82011682018060405250810190611e7091906151e4565b905060008273ffffffffffffffffffffffffffffffffffffffff166370a08231306040518263ffffffff1660e01b8152600401611ead9190614a41565b602060405180830381865afa158015611eca573d6000803e3d6000fd5b505050506040513d601f19601f82011682018060405250810190611eee91906151e4565b90506000600460003073ffffffffffffffffffffffffffffffffffffffff1673ffffffffffffffffffffffffffffffffffffffff16815260200190815260200160002054905060006002549050808483611f4891906152e0565b611f529190615369565b9950808383611f6191906152e0565b611f6b9190615369565b985060008a118015611f7d5750600089115b611fbc576040517f08c379a0000000000000000000000000000000000000000000000000000000008152600401611fb390615617565b60405180910390fd5b611fc63083614081565b611fd1868c8c612ed9565b611fdc858c8b612ed9565b8573ffffffffffffffffffffffffffffffffffffffff166370a08231306040518263ffffffff1660e01b81526004016120159190614a41565b602060405180830381865afa158015612032573d6000803e3d6000fd5b505050506040513d601f19601f8201168201806040525081019061205691906151e4565b93508473ffffffffffffffffffffffffffffffffffffffff166370a08231306040518263ffffffff1660e01b81526004016120919190614a41565b602060405180830381865afa1580156120ae573d6000803e3d6000fd5b505050506040513d601f19601f820116820180604052508101906120d291906151e4565b92506120e084848a8a613902565b8a73ffffffffffffffffffffffffffffffffffffffff163373ffffffffffffffffffffffffffffffffffffffff167fdccd412f0b1252819cb1fd330b93224ca42612892bb3f4f789976e6d819364968c8c60405161213f929190614d64565b60405180910390a350505050505050506001601381905550915091565b61216461470f565b600760016007805490506121789190615240565b8154811061218957612188615530565b5b90600052602060002090600302016040518060600160405290816000820154815260200160018201548152602001600282015481525050905090565b600180546121d29061547a565b80601f01602080910402602001604051908101604052809291908181526020018280546121fe9061547a565b801561224b5780601f106122205761010080835404028352916020019161224b565b820191906000526020600020905b81548152906001019060200180831161222e57829003601f168201915b505050505081565b7f000000000000000000000000000000000000000000000000000000000000000081565b6000807f00000000000000000000000000000000000000000000000000000000000000007f0000000000000000000000000000000000000000000000000000000000000000915091509091565b6000806122d48585856001611390565b9050600080600090505b8251811015612322578281815181106122fa576122f9615530565b5b60200260200101518261230d91906154da565b9150808061231a90615637565b9150506122de565b50838161232f9190615369565b925050509392505050565b600f6020528060005260406000206000915090505481565b60126020528060005260406000206000915090505481565b6000612377338484613de4565b6001905092915050565b60016013541461239057600080fd5b60026013819055506000807f00000000000000000000000000000000000000000000000000000000000000007f00000000000000000000000000000000000000000000000000000000000000009150915061247282846008548573ffffffffffffffffffffffffffffffffffffffff166370a08231306040518263ffffffff1660e01b81526004016124229190614a41565b602060405180830381865afa15801561243f573d6000803e3d6000fd5b505050506040513d601f19601f8201168201806040525081019061246391906151e4565b61246d9190615240565b612ed9565b61250381846009548473ffffffffffffffffffffffffffffffffffffffff166370a08231306040518263ffffffff1660e01b81526004016124b39190614a41565b602060405180830381865afa1580156124d0573d6000803e3d6000fd5b505050506040513d601f19601f820116820180604052508101906124f491906151e4565b6124fe9190615240565b612ed9565b5050600160138190555050565b600e5481565b600b5481565b600c5481565b600a5481565b7f000000000000000000000000000000000000000000000000000000000000000081565b60008061255833614163565b601160003373ffffffffffffffffffffffffffffffffffffffff1673ffffffffffffffffffffffffffffffffffffffff168152602001908152602001600020549150601260003373ffffffffffffffffffffffffffffffffffffffff1673ffffffffffffffffffffffffffffffffffffffff16815260200190815260200160002054905060008211806125eb5750600081115b15612771576000601160003373ffffffffffffffffffffffffffffffffffffffff1673ffffffffffffffffffffffffffffffffffffffff168152602001908152602001600020819055506000601260003373ffffffffffffffffffffffffffffffffffffffff1673ffffffffffffffffffffffffffffffffffffffff168152602001908152602001600020819055507f000000000000000000000000000000000000000000000000000000000000000073ffffffffffffffffffffffffffffffffffffffff1663533cf5ce3384846040518463ffffffff1660e01b81526004016126d79392919061567f565b600060405180830381600087803b1580156126f157600080fd5b505af1158015612705573d6000803e3d6000fd5b505050503373ffffffffffffffffffffffffffffffffffffffff163373ffffffffffffffffffffffffffffffffffffffff167f865ca08d59f5cb456e85cd2f7ef63664ea4f73327414e9d8152c4158b0e946458484604051612768929190614d64565b60405180910390a35b9091565b428410156127b8576040517f08c379a00000000000000000000000000000000000000000000000000000000081526004016127af90615702565b60405180910390fd5b7f8b73c3c69bb8fe3d512ecc4cf759cc79239f7b179b0ffacaa9a75d522b39400f60006040516127e891906157c1565b60405180910390206040518060400160405280600181526020017f31000000000000000000000000000000000000000000000000000000000000008152508051906020012046306040516020016128439594939291906157e7565b6040516020818303038152906040528051906020012060058190555060006005547f6e71edae12b1b97f4d1f60370fef10105fa2faae0126114a169c64845d6126c960001b898989600660008e73ffffffffffffffffffffffffffffffffffffffff1673ffffffffffffffffffffffffffffffffffffffff16815260200190815260200160002060008154809291906128db90615637565b919050558a6040516020016128f59695949392919061583a565b6040516020818303038152906040528051906020012060405160200161291c929190615913565b604051602081830303815290604052805190602001209050600060018286868660405160008152602001604052604051612959949392919061594a565b6020604051602081039080840390855afa15801561297b573d6000803e3d6000fd5b505050602060405103519050600073ffffffffffffffffffffffffffffffffffffffff168173ffffffffffffffffffffffffffffffffffffffff16141580156129ef57508873ffffffffffffffffffffffffffffffffffffffff168173ffffffffffffffffffffffffffffffffffffffff16145b612a2e576040517f08c379a0000000000000000000000000000000000000000000000000000000008152600401612a25906159db565b60405180910390fd5b86600360008b73ffffffffffffffffffffffffffffffffffffffff1673ffffffffffffffffffffffffffffffffffffffff16815260200190815260200160002060008a73ffffffffffffffffffffffffffffffffffffffff1673ffffffffffffffffffffffffffffffffffffffff168152602001908152602001600020819055508773ffffffffffffffffffffffffffffffffffffffff168973ffffffffffffffffffffffffffffffffffffffff167f8c5be1e5ebec7d5bd14f71427d1e84f3dd0314c0f7b2291e5b200ac8c7c3b92589604051612b0c9190614ba3565b60405180910390a3505050505050505050565b6003602052816000526040600020602052806000526040600020600091509150505481565b6000600780549050905090565b60007f000000000000000000000000000000000000000000000000000000000000000073ffffffffffffffffffffffffffffffffffffffff1663c124a4a26040518163ffffffff1660e01b8152600401602060405180830381865afa158015612bbe573d6000803e3d6000fd5b505050506040513d601f19601f82011682018060405250810190612be29190615a10565b90507f000000000000000000000000000000000000000000000000000000000000000073ffffffffffffffffffffffffffffffffffffffff1663f8518b89826040518263ffffffff1660e01b8152600401612c3d9190614a41565b600060405180830381600087803b158015612c5757600080fd5b505af1158015612c6b573d6000803e3d6000fd5b5050505050565b6000806000600854600954915091506127107f000000000000000000000000000000000000000000000000000000000000000073ffffffffffffffffffffffffffffffffffffffff1663512b45ea7f00000000000000000000000000000000000000000000000000000000000000006040518263ffffffff1660e01b8152600401612cfd91906149d7565b602060405180830381865afa158015612d1a573d6000803e3d6000fd5b505050506040513d601f19601f82011682018060405250810190612d3e91906151e4565b86612d4991906152e0565b612d539190615369565b85612d5e9190615240565b9450612d6c85858484613a73565b9250505092915050565b600160135414612d8557600080fd5b6002601381905550612ecf7f000000000000000000000000000000000000000000000000000000000000000073ffffffffffffffffffffffffffffffffffffffff166370a08231306040518263ffffffff1660e01b8152600401612de99190614a41565b602060405180830381865afa158015612e06573d6000803e3d6000fd5b505050506040513d601f19601f82011682018060405250810190612e2a91906151e4565b7f000000000000000000000000000000000000000000000000000000000000000073ffffffffffffffffffffffffffffffffffffffff166370a08231306040518263ffffffff1660e01b8152600401612e839190614a41565b602060405180830381865afa158015612ea0573d6000803e3d6000fd5b505050506040513d601f19601f82011682018060405250810190612ec491906151e4565b600854600954613902565b6001601381905550565b60008373ffffffffffffffffffffffffffffffffffffffff163b11612efd57600080fd5b6000808473ffffffffffffffffffffffffffffffffffffffff1663a9059cbb60e01b8585604051602401612f32929190615a3d565b604051602081830303815290604052907bffffffffffffffffffffffffffffffffffffffffffffffffffffffff19166020820180517bffffffffffffffffffffffffffffffffffffffffffffffffffffffff8381831617835250505050604051612f9c9190615aa2565b6000604051808303816000865af19150503d8060008114612fd9576040519150601f19603f3d011682016040523d82523d6000602084013e612fde565b606091505b509150915081801561300c575060008151148061300b57508080602001905181019061300a9190614fc3565b5b5b61301557600080fd5b5050505050565b60007f000000000000000000000000000000000000000000000000000000000000000073ffffffffffffffffffffffffffffffffffffffff16637be1623e6040518163ffffffff1660e01b8152600401602060405180830381865afa158015613089573d6000803e3d6000fd5b505050506040513d601f19601f820116820180604052508101906130ad9190615a10565b905060007f000000000000000000000000000000000000000000000000000000000000000073ffffffffffffffffffffffffffffffffffffffff16631e61079c6040518163ffffffff1660e01b8152600401602060405180830381865afa15801561311c573d6000803e3d6000fd5b505050506040513d601f19601f8201168201806040525081019061314091906151e4565b90506000612710828561315391906152e0565b61315d9190615369565b905061318a7f00000000000000000000000000000000000000000000000000000000000000008483612ed9565b80846131969190615240565b935060006127107f000000000000000000000000000000000000000000000000000000000000000073ffffffffffffffffffffffffffffffffffffffff1663956f94a16040518163ffffffff1660e01b8152600401602060405180830381865afa158015613208573d6000803e3d6000fd5b505050506040513d601f19601f8201168201806040525081019061322c91906151e4565b8661323791906152e0565b6132419190615369565b90507f000000000000000000000000000000000000000000000000000000000000000073ffffffffffffffffffffffffffffffffffffffff16638d4dabff8260016040518363ffffffff1660e01b815260040161329f929190615ab9565b600060405180830381600087803b1580156132b957600080fd5b505af11580156132cd573d6000803e3d6000fd5b5050505061331c7f00000000000000000000000000000000000000000000000000000000000000007f000000000000000000000000000000000000000000000000000000000000000087612ed9565b80856133289190615240565b94506000600254670de0b6b3a76400008761334391906152e0565b61334d9190615369565b905060008111156133725780600d600082825461336a91906154da565b925050819055505b3373ffffffffffffffffffffffffffffffffffffffff167f112c256902bf554b6ed882d2936687aaeb4225e8cd5b51303c90ca6cf43a86028484896133b791906154da565b6133c191906154da565b60006040516133d1929190615b27565b60405180910390a2505050505050565b60007f000000000000000000000000000000000000000000000000000000000000000073ffffffffffffffffffffffffffffffffffffffff16637be1623e6040518163ffffffff1660e01b8152600401602060405180830381865afa15801561344e573d6000803e3d6000fd5b505050506040513d601f19601f820116820180604052508101906134729190615a10565b905060007f000000000000000000000000000000000000000000000000000000000000000073ffffffffffffffffffffffffffffffffffffffff16631e61079c6040518163ffffffff1660e01b8152600401602060405180830381865afa1580156134e1573d6000803e3d6000fd5b505050506040513d601f19601f8201168201806040525081019061350591906151e4565b90506000612710828561351891906152e0565b6135229190615369565b905061354f7f00000000000000000000000000000000000000000000000000000000000000008483612ed9565b808461355b9190615240565b935060006127107f000000000000000000000000000000000000000000000000000000000000000073ffffffffffffffffffffffffffffffffffffffff1663956f94a16040518163ffffffff1660e01b8152600401602060405180830381865afa1580156135cd573d6000803e3d6000fd5b505050506040513d601f19601f820116820180604052508101906135f191906151e4565b866135fc91906152e0565b6136069190615369565b90507f000000000000000000000000000000000000000000000000000000000000000073ffffffffffffffffffffffffffffffffffffffff16638d4dabff8260006040518363ffffffff1660e01b8152600401613664929190615ab9565b600060405180830381600087803b15801561367e57600080fd5b505af1158015613692573d6000803e3d6000fd5b505050506136e17f00000000000000000000000000000000000000000000000000000000000000007f000000000000000000000000000000000000000000000000000000000000000087612ed9565b80856136ed9190615240565b94506000600254670de0b6b3a76400008761370891906152e0565b6137129190615369565b905060008111156137375780600e600082825461372f91906154da565b925050819055505b3373ffffffffffffffffffffffffffffffffffffffff167f112c256902bf554b6ed882d2936687aaeb4225e8cd5b51303c90ca6cf43a8602600085858a61377e91906154da565b61378891906154da565b604051613796929190615b50565b60405180910390a2505050505050565b60007f0000000000000000000000000000000000000000000000000000000000000000156138ed5760007f0000000000000000000000000000000000000000000000000000000000000000670de0b6b3a76400008561380591906152e0565b61380f9190615369565b905060007f0000000000000000000000000000000000000000000000000000000000000000670de0b6b3a76400008561384891906152e0565b6138529190615369565b90506000670de0b6b3a7640000828461386b91906152e0565b6138759190615369565b90506000670de0b6b3a7640000838461388e91906152e0565b6138989190615369565b670de0b6b3a764000085866138ad91906152e0565b6138b79190615369565b6138c191906154da565b9050670de0b6b3a764000081836138d891906152e0565b6138e29190615369565b9450505050506138fc565b81836138f991906152e0565b90505b92915050565b60004290506000600a54826139179190615240565b905060008111801561392a575060008414155b8015613937575060008314155b1561398557808461394891906152e0565b600b600082825461395991906154da565b92505081905550808361396c91906152e0565b600c600082825461397d91906154da565b925050819055505b600061398f61215c565b90508060000151836139a19190615240565b9150610708821115613a185760076040518060600160405280858152602001600b548152602001600c54815250908060018154018082558091505060019003906000526020600020906003020160009091909190915060008201518160000155602082015181600101556040820151816002015550505b866008819055508560098190555082600a819055507fcf2aa50876cdfbb541206f89af0ee78d44a2abf8d328e37fa4917f982149848a600854600954604051613a62929190614d64565b60405180910390a150505050505050565b60007f000000000000000000000000000000000000000000000000000000000000000015613d51576000613aa784846137a6565b90507f0000000000000000000000000000000000000000000000000000000000000000670de0b6b3a764000085613ade91906152e0565b613ae89190615369565b93507f0000000000000000000000000000000000000000000000000000000000000000670de0b6b3a764000084613b1f91906152e0565b613b299190615369565b92506000807f000000000000000000000000000000000000000000000000000000000000000073ffffffffffffffffffffffffffffffffffffffff168773ffffffffffffffffffffffffffffffffffffffff1614613b88578486613b8b565b85855b915091507f000000000000000000000000000000000000000000000000000000000000000073ffffffffffffffffffffffffffffffffffffffff168773ffffffffffffffffffffffffffffffffffffffff1614613c26577f0000000000000000000000000000000000000000000000000000000000000000670de0b6b3a764000089613c1791906152e0565b613c219190615369565b613c66565b7f0000000000000000000000000000000000000000000000000000000000000000670de0b6b3a764000089613c5b91906152e0565b613c659190615369565b5b97506000613c80838a613c7991906154da565b8584614492565b82613c8b9190615240565b9050670de0b6b3a76400007f000000000000000000000000000000000000000000000000000000000000000073ffffffffffffffffffffffffffffffffffffffff168973ffffffffffffffffffffffffffffffffffffffff1614613d0f577f0000000000000000000000000000000000000000000000000000000000000000613d31565b7f00000000000000000000000000000000000000000000000000000000000000005b82613d3c91906152e0565b613d469190615369565b945050505050613ddc565b6000807f000000000000000000000000000000000000000000000000000000000000000073ffffffffffffffffffffffffffffffffffffffff168673ffffffffffffffffffffffffffffffffffffffff1614613dae578385613db1565b84845b915091508682613dc191906154da565b8188613dcd91906152e0565b613dd79190615369565b925050505b949350505050565b613ded83614163565b613df682614163565b80600460008573ffffffffffffffffffffffffffffffffffffffff1673ffffffffffffffffffffffffffffffffffffffff1681526020019081526020016000206000828254613e459190615240565b9250508190555080600460008473ffffffffffffffffffffffffffffffffffffffff1673ffffffffffffffffffffffffffffffffffffffff1681526020019081526020016000206000828254613e9b91906154da565b925050819055508173ffffffffffffffffffffffffffffffffffffffff168373ffffffffffffffffffffffffffffffffffffffff167fddf252ad1be2c89b69c2b068fc378daa952ba7f163c4a11628f55a4df523b3ef83604051613eff9190614ba3565b60405180910390a3505050565b60006003821115613f735781905060006001600284613f2b9190615369565b613f3591906154da565b90505b81811015613f6d578091506002818285613f529190615369565b613f5c91906154da565b613f669190615369565b9050613f38565b50613f81565b60008214613f8057600190505b5b919050565b613f8f82614163565b8060026000828254613fa191906154da565b9250508190555080600460008473ffffffffffffffffffffffffffffffffffffffff1673ffffffffffffffffffffffffffffffffffffffff1681526020019081526020016000206000828254613ff791906154da565b925050819055508173ffffffffffffffffffffffffffffffffffffffff16600073ffffffffffffffffffffffffffffffffffffffff167fddf252ad1be2c89b69c2b068fc378daa952ba7f163c4a11628f55a4df523b3ef8360405161405c9190614ba3565b60405180910390a35050565b60008183106140775781614079565b825b905092915050565b61408a82614163565b806002600082825461409c9190615240565b9250508190555080600460008473ffffffffffffffffffffffffffffffffffffffff1673ffffffffffffffffffffffffffffffffffffffff16815260200190815260200160002060008282546140f29190615240565b92505081905550600073ffffffffffffffffffffffffffffffffffffffff168273ffffffffffffffffffffffffffffffffffffffff167fddf252ad1be2c89b69c2b068fc378daa952ba7f163c4a11628f55a4df523b3ef836040516141579190614ba3565b60405180910390a35050565b6000600460008373ffffffffffffffffffffffffffffffffffffffff1673ffffffffffffffffffffffffffffffffffffffff1681526020019081526020016000205490506000811115614401576000600f60008473ffffffffffffffffffffffffffffffffffffffff1673ffffffffffffffffffffffffffffffffffffffff1681526020019081526020016000205490506000601060008573ffffffffffffffffffffffffffffffffffffffff1673ffffffffffffffffffffffffffffffffffffffff1681526020019081526020016000205490506000600d5490506000600e54905081600f60008873ffffffffffffffffffffffffffffffffffffffff1673ffffffffffffffffffffffffffffffffffffffff1681526020019081526020016000208190555080601060008873ffffffffffffffffffffffffffffffffffffffff1673ffffffffffffffffffffffffffffffffffffffff16815260200190815260200160002081905550600084836142dc9190615240565b9050600084836142ec9190615240565b90506000821115614372576000670de0b6b3a7640000838961430e91906152e0565b6143189190615369565b905080601160008b73ffffffffffffffffffffffffffffffffffffffff1673ffffffffffffffffffffffffffffffffffffffff168152602001908152602001600020600082825461436991906154da565b92505081905550505b60008111156143f6576000670de0b6b3a7640000828961439291906152e0565b61439c9190615369565b905080601260008b73ffffffffffffffffffffffffffffffffffffffff1673ffffffffffffffffffffffffffffffffffffffff16815260200190815260200160002060008282546143ed91906154da565b92505081905550505b50505050505061448e565b600d54600f60008473ffffffffffffffffffffffffffffffffffffffff1673ffffffffffffffffffffffffffffffffffffffff16815260200190815260200160002081905550600e54601060008473ffffffffffffffffffffffffffffffffffffffff1673ffffffffffffffffffffffffffffffffffffffff168152602001908152602001600020819055505b5050565b600080600090505b60ff8110156145af57600083905060006144b487866145bb565b9050858110156145095760006144ca888761467d565b670de0b6b3a764000083896144df9190615240565b6144e991906152e0565b6144f39190615369565b9050808661450191906154da565b955050614550565b6000614515888761467d565b670de0b6b3a7640000888461452a9190615240565b61453491906152e0565b61453e9190615369565b9050808661454c9190615240565b9550505b8185111561457b57600182866145669190615240565b11614576578493505050506145b4565b61459a565b600185836145899190615240565b11614599578493505050506145b4565b5b505080806145a790615637565b91505061449a565b508190505b9392505050565b6000670de0b6b3a764000082670de0b6b3a764000085670de0b6b3a764000087886145e691906152e0565b6145f09190615369565b6145fa91906152e0565b6146049190615369565b61460e91906152e0565b6146189190615369565b670de0b6b3a76400008084670de0b6b3a7640000868761463891906152e0565b6146429190615369565b61464c91906152e0565b6146569190615369565b8561466191906152e0565b61466b9190615369565b61467591906154da565b905092915050565b6000670de0b6b3a764000083670de0b6b3a7640000858661469e91906152e0565b6146a89190615369565b6146b291906152e0565b6146bc9190615369565b670de0b6b3a76400008084856146d291906152e0565b6146dc9190615369565b8560036146e991906152e0565b6146f391906152e0565b6146fd9190615369565b61470791906154da565b905092915050565b60405180606001604052806000815260200160008152602001600081525090565b600080fd5b600080fd5b6000819050919050565b61474d8161473a565b811461475857600080fd5b50565b60008135905061476a81614744565b92915050565b600073ffffffffffffffffffffffffffffffffffffffff82169050919050565b600061479b82614770565b9050919050565b6147ab81614790565b81146147b657600080fd5b50565b6000813590506147c8816147a2565b92915050565b600080fd5b600080fd5b600080fd5b60008083601f8401126147f3576147f26147ce565b5b8235905067ffffffffffffffff8111156148105761480f6147d3565b5b60208301915083600182028301111561482c5761482b6147d8565b5b9250929050565b60008060008060006080868803121561484f5761484e614730565b5b600061485d8882890161475b565b955050602061486e8882890161475b565b945050604061487f888289016147b9565b935050606086013567ffffffffffffffff8111156148a05761489f614735565b5b6148ac888289016147dd565b92509250509295509295909350565b600081519050919050565b600082825260208201905092915050565b60005b838110156148f55780820151818401526020810190506148da565b83811115614904576000848401525b50505050565b6000601f19601f8301169050919050565b6000614926826148bb565b61493081856148c6565b93506149408185602086016148d7565b6149498161490a565b840191505092915050565b6000602082019050818103600083015261496e818461491b565b905092915050565b61497f8161473a565b82525050565b600060608201905061499a6000830186614976565b6149a76020830185614976565b6149b46040830184614976565b949350505050565b60008115159050919050565b6149d1816149bc565b82525050565b60006020820190506149ec60008301846149c8565b92915050565b60008060408385031215614a0957614a08614730565b5b6000614a17858286016147b9565b9250506020614a288582860161475b565b9150509250929050565b614a3b81614790565b82525050565b6000602082019050614a566000830184614a32565b92915050565b60008060008060808587031215614a7657614a75614730565b5b6000614a84878288016147b9565b9450506020614a958782880161475b565b9350506040614aa68782880161475b565b9250506060614ab78782880161475b565b91505092959194509250565b600081519050919050565b600082825260208201905092915050565b6000819050602082019050919050565b614af88161473a565b82525050565b6000614b0a8383614aef565b60208301905092915050565b6000602082019050919050565b6000614b2e82614ac3565b614b388185614ace565b9350614b4383614adf565b8060005b83811015614b74578151614b5b8882614afe565b9750614b6683614b16565b925050600181019050614b47565b5085935050505092915050565b60006020820190508181036000830152614b9b8184614b23565b905092915050565b6000602082019050614bb86000830184614976565b92915050565b600060208284031215614bd457614bd3614730565b5b6000614be2848285016147b9565b91505092915050565b600080600060608486031215614c0457614c03614730565b5b6000614c12868287016147b9565b9350506020614c23868287016147b9565b9250506040614c348682870161475b565b9150509250925092565b600060208284031215614c5457614c53614730565b5b6000614c628482850161475b565b91505092915050565b600060ff82169050919050565b614c8181614c6b565b82525050565b6000602082019050614c9c6000830184614c78565b92915050565b600060e082019050614cb7600083018a614976565b614cc46020830189614976565b614cd16040830188614976565b614cde6060830187614976565b614ceb60808301866149c8565b614cf860a0830185614a32565b614d0560c0830184614a32565b98975050505050505050565b600080600060608486031215614d2a57614d29614730565b5b6000614d38868287016147b9565b9350506020614d498682870161475b565b9250506040614d5a8682870161475b565b9150509250925092565b6000604082019050614d796000830185614976565b614d866020830184614976565b9392505050565b606082016000820151614da36000850182614aef565b506020820151614db66020850182614aef565b506040820151614dc96040850182614aef565b50505050565b6000606082019050614de46000830184614d8d565b92915050565b6000604082019050614dff6000830185614a32565b614e0c6020830184614a32565b9392505050565b614e1c81614c6b565b8114614e2757600080fd5b50565b600081359050614e3981614e13565b92915050565b6000819050919050565b614e5281614e3f565b8114614e5d57600080fd5b50565b600081359050614e6f81614e49565b92915050565b600080600080600080600060e0888a031215614e9457614e93614730565b5b6000614ea28a828b016147b9565b9750506020614eb38a828b016147b9565b9650506040614ec48a828b0161475b565b9550506060614ed58a828b0161475b565b9450506080614ee68a828b01614e2a565b93505060a0614ef78a828b01614e60565b92505060c0614f088a828b01614e60565b91505092959891949750929550565b60008060408385031215614f2e57614f2d614730565b5b6000614f3c858286016147b9565b9250506020614f4d858286016147b9565b9150509250929050565b60008060408385031215614f6e57614f6d614730565b5b6000614f7c8582860161475b565b9250506020614f8d858286016147b9565b9150509250929050565b614fa0816149bc565b8114614fab57600080fd5b50565b600081519050614fbd81614f97565b92915050565b600060208284031215614fd957614fd8614730565b5b6000614fe784828501614fae565b91505092915050565b7f494f410000000000000000000000000000000000000000000000000000000000600082015250565b60006150266003836148c6565b915061503182614ff0565b602082019050919050565b6000602082019050818103600083015261505581615019565b9050919050565b7f494c000000000000000000000000000000000000000000000000000000000000600082015250565b60006150926002836148c6565b915061509d8261505c565b602082019050919050565b600060208201905081810360008301526150c181615085565b9050919050565b7f4954000000000000000000000000000000000000000000000000000000000000600082015250565b60006150fe6002836148c6565b9150615109826150c8565b602082019050919050565b6000602082019050818103600083015261512d816150f1565b9050919050565b600082825260208201905092915050565b82818337600083830152505050565b60006151608385615134565b935061516d838584615145565b6151768361490a565b840190509392505050565b60006080820190506151966000830188614a32565b6151a36020830187614976565b6151b06040830186614976565b81810360608301526151c3818486615154565b90509695505050505050565b6000815190506151de81614744565b92915050565b6000602082840312156151fa576151f9614730565b5b6000615208848285016151cf565b91505092915050565b7f4e487b7100000000000000000000000000000000000000000000000000000000600052601160045260246000fd5b600061524b8261473a565b91506152568361473a565b92508282101561526957615268615211565b5b828203905092915050565b7f4949410000000000000000000000000000000000000000000000000000000000600082015250565b60006152aa6003836148c6565b91506152b582615274565b602082019050919050565b600060208201905081810360008301526152d98161529d565b9050919050565b60006152eb8261473a565b91506152f68361473a565b9250817fffffffffffffffffffffffffffffffffffffffffffffffffffffffffffffffff048311821515161561532f5761532e615211565b5b828202905092915050565b7f4e487b7100000000000000000000000000000000000000000000000000000000600052601260045260246000fd5b60006153748261473a565b915061537f8361473a565b92508261538f5761538e61533a565b5b828204905092915050565b7f4b00000000000000000000000000000000000000000000000000000000000000600082015250565b60006153d06001836148c6565b91506153db8261539a565b602082019050919050565b600060208201905081810360008301526153ff816153c3565b9050919050565b600060808201905061541b6000830187614976565b6154286020830186614976565b6154356040830185614976565b6154426060830184614976565b95945050505050565b7f4e487b7100000000000000000000000000000000000000000000000000000000600052602260045260246000fd5b6000600282049050600182168061549257607f821691505b6020821081036154a5576154a461544b565b5b50919050565b7f4e487b7100000000000000000000000000000000000000000000000000000000600052604160045260246000fd5b60006154e58261473a565b91506154f08361473a565b9250827fffffffffffffffffffffffffffffffffffffffffffffffffffffffffffffffff0382111561552557615524615211565b5b828201905092915050565b7f4e487b7100000000000000000000000000000000000000000000000000000000600052603260045260246000fd5b7f494c4d0000000000000000000000000000000000000000000000000000000000600082015250565b60006155956003836148c6565b91506155a08261555f565b602082019050919050565b600060208201905081810360008301526155c481615588565b9050919050565b7f494c420000000000000000000000000000000000000000000000000000000000600082015250565b60006156016003836148c6565b915061560c826155cb565b602082019050919050565b60006020820190508181036000830152615630816155f4565b9050919050565b60006156428261473a565b91507fffffffffffffffffffffffffffffffffffffffffffffffffffffffffffffffff820361567457615673615211565b5b600182019050919050565b60006060820190506156946000830186614a32565b6156a16020830185614976565b6156ae6040830184614976565b949350505050565b7f506169723a204558504952454400000000000000000000000000000000000000600082015250565b60006156ec600d836148c6565b91506156f7826156b6565b602082019050919050565b6000602082019050818103600083015261571b816156df565b9050919050565b600081905092915050565b60008190508160005260206000209050919050565b6000815461574f8161547a565b6157598186615722565b945060018216600081146157745760018114615785576157b8565b60ff198316865281860193506157b8565b61578e8561572d565b60005b838110156157b057815481890152600182019150602081019050615791565b838801955050505b50505092915050565b60006157cd8284615742565b915081905092915050565b6157e181614e3f565b82525050565b600060a0820190506157fc60008301886157d8565b61580960208301876157d8565b61581660408301866157d8565b6158236060830185614976565b6158306080830184614a32565b9695505050505050565b600060c08201905061584f60008301896157d8565b61585c6020830188614a32565b6158696040830187614a32565b6158766060830186614976565b6158836080830185614976565b61589060a0830184614976565b979650505050505050565b600081905092915050565b7f1901000000000000000000000000000000000000000000000000000000000000600082015250565b60006158dc60028361589b565b91506158e7826158a6565b600282019050919050565b6000819050919050565b61590d61590882614e3f565b6158f2565b82525050565b600061591e826158cf565b915061592a82856158fc565b60208201915061593a82846158fc565b6020820191508190509392505050565b600060808201905061595f60008301876157d8565b61596c6020830186614c78565b61597960408301856157d8565b61598660608301846157d8565b95945050505050565b7f506169723a20494e56414c49445f5349474e4154555245000000000000000000600082015250565b60006159c56017836148c6565b91506159d08261598f565b602082019050919050565b600060208201905081810360008301526159f4816159b8565b9050919050565b600081519050615a0a816147a2565b92915050565b600060208284031215615a2657615a25614730565b5b6000615a34848285016159fb565b91505092915050565b6000604082019050615a526000830185614a32565b615a5f6020830184614976565b9392505050565b600081519050919050565b6000615a7c82615a66565b615a868185615722565b9350615a968185602086016148d7565b80840191505092915050565b6000615aae8284615a71565b915081905092915050565b6000604082019050615ace6000830185614976565b615adb60208301846149c8565b9392505050565b6000819050919050565b6000819050919050565b6000615b11615b0c615b0784615ae2565b615aec565b61473a565b9050919050565b615b2181615af6565b82525050565b6000604082019050615b3c6000830185614976565b615b496020830184615b18565b9392505050565b6000604082019050615b656000830185615b18565b615b726020830184614976565b939250505056fea2646970667358221220f9881cf53dbdac4cc78b7debce91bfe271a47d490b39218438a15233366d110264736f6c634300080d003360e060405234801561001057600080fd5b506040516109d43803806109d483398181016040528101906100329190610138565b3373ffffffffffffffffffffffffffffffffffffffff1660808173ffffffffffffffffffffffffffffffffffffffff16815250508173ffffffffffffffffffffffffffffffffffffffff1660a08173ffffffffffffffffffffffffffffffffffffffff16815250508073ffffffffffffffffffffffffffffffffffffffff1660c08173ffffffffffffffffffffffffffffffffffffffff16815250505050610178565b600080fd5b600073ffffffffffffffffffffffffffffffffffffffff82169050919050565b6000610105826100da565b9050919050565b610115816100fa565b811461012057600080fd5b50565b6000815190506101328161010c565b92915050565b6000806040838503121561014f5761014e6100d5565b5b600061015d85828601610123565b925050602061016e85828601610123565b9150509250929050565b60805160a05160c0516108126101c260003960008181610187015261031a01526000818161015201526102da01526000818160ee015281816101c1015261027501526108126000f3fe608060405234801561001057600080fd5b50600436106100575760003560e01c8063533cf5ce1461005c5780635b3c924814610078578063651d83f9146100965780638d4dabff146100b4578063f8518b89146100d0575b600080fd5b6100766004803603810190610071919061052a565b6100ec565b005b6100806101b3565b60405161008d919061058c565b60405180910390f35b61009e6101b9565b6040516100ab919061058c565b60405180910390f35b6100ce60048036038101906100c991906105df565b6101bf565b005b6100ea60048036038101906100e5919061061f565b610273565b005b7f000000000000000000000000000000000000000000000000000000000000000073ffffffffffffffffffffffffffffffffffffffff163373ffffffffffffffffffffffffffffffffffffffff161461014457600080fd5b6000821115610179576101787f0000000000000000000000000000000000000000000000000000000000000000848461034e565b5b60008111156101ae576101ad7f0000000000000000000000000000000000000000000000000000000000000000848361034e565b5b505050565b60015481565b60005481565b7f000000000000000000000000000000000000000000000000000000000000000073ffffffffffffffffffffffffffffffffffffffff163373ffffffffffffffffffffffffffffffffffffffff161461021757600080fd5b6000821180156102245750805b15610242578160008082825461023a919061067b565b925050819055505b600082118015610250575080155b1561026f578160016000828254610267919061067b565b925050819055505b5050565b7f000000000000000000000000000000000000000000000000000000000000000073ffffffffffffffffffffffffffffffffffffffff163373ffffffffffffffffffffffffffffffffffffffff16146102cb57600080fd5b60008054111561030a576103027f00000000000000000000000000000000000000000000000000000000000000008260005461034e565b600080819055505b6000600154111561034b576103427f00000000000000000000000000000000000000000000000000000000000000008260015461034e565b60006001819055505b50565b60008373ffffffffffffffffffffffffffffffffffffffff163b1161037257600080fd5b6000808473ffffffffffffffffffffffffffffffffffffffff1663a9059cbb60e01b85856040516024016103a79291906106e0565b604051602081830303815290604052907bffffffffffffffffffffffffffffffffffffffffffffffffffffffff19166020820180517bffffffffffffffffffffffffffffffffffffffffffffffffffffffff83818316178352505050506040516104119190610783565b6000604051808303816000865af19150503d806000811461044e576040519150601f19603f3d011682016040523d82523d6000602084013e610453565b606091505b5091509150818015610481575060008151148061048057508080602001905181019061047f91906107af565b5b5b61048a57600080fd5b5050505050565b600080fd5b600073ffffffffffffffffffffffffffffffffffffffff82169050919050565b60006104c182610496565b9050919050565b6104d1816104b6565b81146104dc57600080fd5b50565b6000813590506104ee816104c8565b92915050565b6000819050919050565b610507816104f4565b811461051257600080fd5b50565b600081359050610524816104fe565b92915050565b60008060006060848603121561054357610542610491565b5b6000610551868287016104df565b935050602061056286828701610515565b925050604061057386828701610515565b9150509250925092565b610586816104f4565b82525050565b60006020820190506105a1600083018461057d565b92915050565b60008115159050919050565b6105bc816105a7565b81146105c757600080fd5b50565b6000813590506105d9816105b3565b92915050565b600080604083850312156105f6576105f5610491565b5b600061060485828601610515565b9250506020610615858286016105ca565b9150509250929050565b60006020828403121561063557610634610491565b5b6000610643848285016104df565b91505092915050565b7f4e487b7100000000000000000000000000000000000000000000000000000000600052601160045260246000fd5b6000610686826104f4565b9150610691836104f4565b9250827fffffffffffffffffffffffffffffffffffffffffffffffffffffffffffffffff038211156106c6576106c561064c565b5b828201905092915050565b6106da816104b6565b82525050565b60006040820190506106f560008301856106d1565b610702602083018461057d565b9392505050565b600081519050919050565b600081905092915050565b60005b8381101561073d578082015181840152602081019050610722565b8381111561074c576000848401525b50505050565b600061075d82610709565b6107678185610714565b935061077781856020860161071f565b80840191505092915050565b600061078f8284610752565b915081905092915050565b6000815190506107a9816105b3565b92915050565b6000602082840312156107c5576107c4610491565b5b60006107d38482850161079a565b9150509291505056fea26469706673582212204738d0f1c7803f54317b2c8403d7b2c7bcd62c3d6f9268bca4f405f578409a0c64736f6c634300080d0033a264697066735822122073a94a6d16075ab9e145e651329877f8aed786a09345b7a1b0d7036241525a4164736f6c634300080d0033",
			"opcodes": "PUSH1 0x80 PUSH1 0x40 MSTORE CALLVALUE DUP1 ISZERO PUSH2 0x10 JUMPI PUSH1 0x0 DUP1 REVERT JUMPDEST POP PUSH2 0x9BF5 DUP1 PUSH2 0x20 PUSH1 0x0 CODECOPY PUSH1 0x0 RETURN INVALID PUSH1 0x80 PUSH1 0x40 MSTORE CALLVALUE DUP1 ISZERO PUSH3 0x11 JUMPI PUSH1 0x0 DUP1 REVERT JUMPDEST POP PUSH1 0x4 CALLDATASIZE LT PUSH3 0x214 JUMPI PUSH1 0x0 CALLDATALOAD PUSH1 0xE0 SHR DUP1 PUSH4 0x82DFDCE4 GT PUSH3 0x129 JUMPI DUP1 PUSH4 0xC124A4A2 GT PUSH3 0xB1 JUMPI DUP1 PUSH4 0xEB13C4CF GT PUSH3 0x7B JUMPI DUP1 PUSH4 0xEB13C4CF EQ PUSH3 0x5D9 JUMPI DUP1 PUSH4 0xF2FDE38B EQ PUSH3 0x5FD JUMPI DUP1 PUSH4 0xF94C53C7 EQ PUSH3 0x61D JUMPI DUP1 PUSH4 0xFFB0A4A0 EQ PUSH3 0x629 JUMPI PUSH3 0x214 JUMP JUMPDEST DUP1 PUSH4 0xC124A4A2 EQ PUSH3 0x53F JUMPI DUP1 PUSH4 0xD0FB0203 EQ PUSH3 0x561 JUMPI DUP1 PUSH4 0xE1F76B44 EQ PUSH3 0x583 JUMPI DUP1 PUSH4 0xE5E31B13 EQ PUSH3 0x5A3 JUMPI PUSH3 0x214 JUMP JUMPDEST DUP1 PUSH4 0x9AAB9248 GT PUSH3 0xF3 JUMPI DUP1 PUSH4 0x9AAB9248 EQ PUSH3 0x4B9 JUMPI DUP1 PUSH4 0xB187BD26 EQ PUSH3 0x4DB JUMPI DUP1 PUSH4 0xBC063E1A EQ PUSH3 0x4FD JUMPI DUP1 PUSH4 0xBEDB86FB EQ PUSH3 0x51F JUMPI PUSH3 0x214 JUMP JUMPDEST DUP1 PUSH4 0x82DFDCE4 EQ PUSH3 0x41D JUMPI DUP1 PUSH4 0x8A4FA0D2 EQ PUSH3 0x453 JUMPI DUP1 PUSH4 0x8DA5CB5B EQ PUSH3 0x475 JUMPI DUP1 PUSH4 0x956F94A1 EQ PUSH3 0x497 JUMPI PUSH3 0x214 JUMP JUMPDEST DUP1 PUSH4 0x5084ED03 GT PUSH3 0x1AD JUMPI DUP1 PUSH4 0x713494D7 GT PUSH3 0x177 JUMPI DUP1 PUSH4 0x713494D7 EQ PUSH3 0x3C3 JUMPI DUP1 PUSH4 0x715018A6 EQ PUSH3 0x3E3 JUMPI DUP1 PUSH4 0x7BE1623E EQ PUSH3 0x3EF JUMPI DUP1 PUSH4 0x8129FC1C EQ PUSH3 0x411 JUMPI PUSH3 0x214 JUMP JUMPDEST DUP1 PUSH4 0x5084ED03 EQ PUSH3 0x313 JUMPI DUP1 PUSH4 0x512B45EA EQ PUSH3 0x335 JUMPI DUP1 PUSH4 0x574F2BA3 EQ PUSH3 0x36B JUMPI DUP1 PUSH4 0x6801CC30 EQ PUSH3 0x38D JUMPI PUSH3 0x214 JUMP JUMPDEST DUP1 PUSH4 0x4091CB77 GT PUSH3 0x1EF JUMPI DUP1 PUSH4 0x4091CB77 EQ PUSH3 0x291 JUMPI DUP1 PUSH4 0x40BBD775 EQ PUSH3 0x2B1 JUMPI DUP1 PUSH4 0x472D35B9 EQ PUSH3 0x2D3 JUMPI DUP1 PUSH4 0x482A8D07 EQ PUSH3 0x2F3 JUMPI PUSH3 0x214 JUMP JUMPDEST DUP1 PUSH4 0xC74DB12 EQ PUSH3 0x219 JUMPI DUP1 PUSH4 0x1E3DD18B EQ PUSH3 0x239 JUMPI DUP1 PUSH4 0x1E61079C EQ PUSH3 0x26F JUMPI JUMPDEST PUSH1 0x0 DUP1 REVERT JUMPDEST PUSH3 0x237 PUSH1 0x4 DUP1 CALLDATASIZE SUB DUP2 ADD SWAP1 PUSH3 0x231 SWAP2 SWAP1 PUSH3 0x19A8 JUMP JUMPDEST PUSH3 0x64B JUMP JUMPDEST STOP JUMPDEST PUSH3 0x257 PUSH1 0x4 DUP1 CALLDATASIZE SUB DUP2 ADD SWAP1 PUSH3 0x251 SWAP2 SWAP1 PUSH3 0x1A15 JUMP JUMPDEST PUSH3 0x724 JUMP JUMPDEST PUSH1 0x40 MLOAD PUSH3 0x266 SWAP2 SWAP1 PUSH3 0x1A58 JUMP JUMPDEST PUSH1 0x40 MLOAD DUP1 SWAP2 SUB SWAP1 RETURN JUMPDEST PUSH3 0x279 PUSH3 0x764 JUMP JUMPDEST PUSH1 0x40 MLOAD PUSH3 0x288 SWAP2 SWAP1 PUSH3 0x1A86 JUMP JUMPDEST PUSH1 0x40 MLOAD DUP1 SWAP2 SUB SWAP1 RETURN JUMPDEST PUSH3 0x2AF PUSH1 0x4 DUP1 CALLDATASIZE SUB DUP2 ADD SWAP1 PUSH3 0x2A9 SWAP2 SWAP1 PUSH3 0x19A8 JUMP JUMPDEST PUSH3 0x76A JUMP JUMPDEST STOP JUMPDEST PUSH3 0x2BB PUSH3 0x843 JUMP JUMPDEST PUSH1 0x40 MLOAD PUSH3 0x2CA SWAP2 SWAP1 PUSH3 0x1A86 JUMP JUMPDEST PUSH1 0x40 MLOAD DUP1 SWAP2 SUB SWAP1 RETURN JUMPDEST PUSH3 0x2F1 PUSH1 0x4 DUP1 CALLDATASIZE SUB DUP2 ADD SWAP1 PUSH3 0x2EB SWAP2 SWAP1 PUSH3 0x19A8 JUMP JUMPDEST PUSH3 0x849 JUMP JUMPDEST STOP JUMPDEST PUSH3 0x311 PUSH1 0x4 DUP1 CALLDATASIZE SUB DUP2 ADD SWAP1 PUSH3 0x30B SWAP2 SWAP1 PUSH3 0x1A15 JUMP JUMPDEST PUSH3 0x8E8 JUMP JUMPDEST STOP JUMPDEST PUSH3 0x31D PUSH3 0x95D JUMP JUMPDEST PUSH1 0x40 MLOAD PUSH3 0x32C SWAP2 SWAP1 PUSH3 0x1A86 JUMP JUMPDEST PUSH1 0x40 MLOAD DUP1 SWAP2 SUB SWAP1 RETURN JUMPDEST PUSH3 0x353 PUSH1 0x4 DUP1 CALLDATASIZE SUB DUP2 ADD SWAP1 PUSH3 0x34D SWAP2 SWAP1 PUSH3 0x1AE0 JUMP JUMPDEST PUSH3 0x963 JUMP JUMPDEST PUSH1 0x40 MLOAD PUSH3 0x362 SWAP2 SWAP1 PUSH3 0x1A86 JUMP JUMPDEST PUSH1 0x40 MLOAD DUP1 SWAP2 SUB SWAP1 RETURN JUMPDEST PUSH3 0x375 PUSH3 0x97F JUMP JUMPDEST PUSH1 0x40 MLOAD PUSH3 0x384 SWAP2 SWAP1 PUSH3 0x1A86 JUMP JUMPDEST PUSH1 0x40 MLOAD DUP1 SWAP2 SUB SWAP1 RETURN JUMPDEST PUSH3 0x3AB PUSH1 0x4 DUP1 CALLDATASIZE SUB DUP2 ADD SWAP1 PUSH3 0x3A5 SWAP2 SWAP1 PUSH3 0x1B12 JUMP JUMPDEST PUSH3 0x98C JUMP JUMPDEST PUSH1 0x40 MLOAD PUSH3 0x3BA SWAP2 SWAP1 PUSH3 0x1A58 JUMP JUMPDEST PUSH1 0x40 MLOAD DUP1 SWAP2 SUB SWAP1 RETURN JUMPDEST PUSH3 0x3E1 PUSH1 0x4 DUP1 CALLDATASIZE SUB DUP2 ADD SWAP1 PUSH3 0x3DB SWAP2 SWAP1 PUSH3 0x1A15 JUMP JUMPDEST PUSH3 0x9DB JUMP JUMPDEST STOP JUMPDEST PUSH3 0x3ED PUSH3 0xA40 JUMP JUMPDEST STOP JUMPDEST PUSH3 0x3F9 PUSH3 0xA58 JUMP JUMPDEST PUSH1 0x40 MLOAD PUSH3 0x408 SWAP2 SWAP1 PUSH3 0x1A58 JUMP JUMPDEST PUSH1 0x40 MLOAD DUP1 SWAP2 SUB SWAP1 RETURN JUMPDEST PUSH3 0x41B PUSH3 0xA7E JUMP JUMPDEST STOP JUMPDEST PUSH3 0x43B PUSH1 0x4 DUP1 CALLDATASIZE SUB DUP2 ADD SWAP1 PUSH3 0x435 SWAP2 SWAP1 PUSH3 0x1B12 JUMP JUMPDEST PUSH3 0xC48 JUMP JUMPDEST PUSH1 0x40 MLOAD PUSH3 0x44A SWAP2 SWAP1 PUSH3 0x1A58 JUMP JUMPDEST PUSH1 0x40 MLOAD DUP1 SWAP2 SUB SWAP1 RETURN JUMPDEST PUSH3 0x45D PUSH3 0x1277 JUMP JUMPDEST PUSH1 0x40 MLOAD PUSH3 0x46C SWAP2 SWAP1 PUSH3 0x1A58 JUMP JUMPDEST PUSH1 0x40 MLOAD DUP1 SWAP2 SUB SWAP1 RETURN JUMPDEST PUSH3 0x47F PUSH3 0x129D JUMP JUMPDEST PUSH1 0x40 MLOAD PUSH3 0x48E SWAP2 SWAP1 PUSH3 0x1A58 JUMP JUMPDEST PUSH1 0x40 MLOAD DUP1 SWAP2 SUB SWAP1 RETURN JUMPDEST PUSH3 0x4A1 PUSH3 0x12C7 JUMP JUMPDEST PUSH1 0x40 MLOAD PUSH3 0x4B0 SWAP2 SWAP1 PUSH3 0x1A86 JUMP JUMPDEST PUSH1 0x40 MLOAD DUP1 SWAP2 SUB SWAP1 RETURN JUMPDEST PUSH3 0x4C3 PUSH3 0x12CD JUMP JUMPDEST PUSH1 0x40 MLOAD PUSH3 0x4D2 SWAP2 SWAP1 PUSH3 0x1B89 JUMP JUMPDEST PUSH1 0x40 MLOAD DUP1 SWAP2 SUB SWAP1 RETURN JUMPDEST PUSH3 0x4E5 PUSH3 0x1301 JUMP JUMPDEST PUSH1 0x40 MLOAD PUSH3 0x4F4 SWAP2 SWAP1 PUSH3 0x1BB7 JUMP JUMPDEST PUSH1 0x40 MLOAD DUP1 SWAP2 SUB SWAP1 RETURN JUMPDEST PUSH3 0x507 PUSH3 0x1314 JUMP JUMPDEST PUSH1 0x40 MLOAD PUSH3 0x516 SWAP2 SWAP1 PUSH3 0x1A86 JUMP JUMPDEST PUSH1 0x40 MLOAD DUP1 SWAP2 SUB SWAP1 RETURN JUMPDEST PUSH3 0x53D PUSH1 0x4 DUP1 CALLDATASIZE SUB DUP2 ADD SWAP1 PUSH3 0x537 SWAP2 SWAP1 PUSH3 0x1AE0 JUMP JUMPDEST PUSH3 0x1319 JUMP JUMPDEST STOP JUMPDEST PUSH3 0x549 PUSH3 0x1378 JUMP JUMPDEST PUSH1 0x40 MLOAD PUSH3 0x558 SWAP2 SWAP1 PUSH3 0x1A58 JUMP JUMPDEST PUSH1 0x40 MLOAD DUP1 SWAP2 SUB SWAP1 RETURN JUMPDEST PUSH3 0x56B PUSH3 0x139E JUMP JUMPDEST PUSH1 0x40 MLOAD PUSH3 0x57A SWAP2 SWAP1 PUSH3 0x1A58 JUMP JUMPDEST PUSH1 0x40 MLOAD DUP1 SWAP2 SUB SWAP1 RETURN JUMPDEST PUSH3 0x5A1 PUSH1 0x4 DUP1 CALLDATASIZE SUB DUP2 ADD SWAP1 PUSH3 0x59B SWAP2 SWAP1 PUSH3 0x1BD4 JUMP JUMPDEST PUSH3 0x13C4 JUMP JUMPDEST STOP JUMPDEST PUSH3 0x5C1 PUSH1 0x4 DUP1 CALLDATASIZE SUB DUP2 ADD SWAP1 PUSH3 0x5BB SWAP2 SWAP1 PUSH3 0x19A8 JUMP JUMPDEST PUSH3 0x1494 JUMP JUMPDEST PUSH1 0x40 MLOAD PUSH3 0x5D0 SWAP2 SWAP1 PUSH3 0x1BB7 JUMP JUMPDEST PUSH1 0x40 MLOAD DUP1 SWAP2 SUB SWAP1 RETURN JUMPDEST PUSH3 0x5E3 PUSH3 0x14B4 JUMP JUMPDEST PUSH1 0x40 MLOAD PUSH3 0x5F4 SWAP4 SWAP3 SWAP2 SWAP1 PUSH3 0x1C1B JUMP JUMPDEST PUSH1 0x40 MLOAD DUP1 SWAP2 SUB SWAP1 RETURN JUMPDEST PUSH3 0x61B PUSH1 0x4 DUP1 CALLDATASIZE SUB DUP2 ADD SWAP1 PUSH3 0x615 SWAP2 SWAP1 PUSH3 0x19A8 JUMP JUMPDEST PUSH3 0x151A JUMP JUMPDEST STOP JUMPDEST PUSH3 0x627 PUSH3 0x15A4 JUMP JUMPDEST STOP JUMPDEST PUSH3 0x633 PUSH3 0x1664 JUMP JUMPDEST PUSH1 0x40 MLOAD PUSH3 0x642 SWAP2 SWAP1 PUSH3 0x1D26 JUMP JUMPDEST PUSH1 0x40 MLOAD DUP1 SWAP2 SUB SWAP1 RETURN JUMPDEST PUSH1 0x6A PUSH1 0x0 SWAP1 SLOAD SWAP1 PUSH2 0x100 EXP SWAP1 DIV PUSH20 0xFFFFFFFFFFFFFFFFFFFFFFFFFFFFFFFFFFFFFFFF AND PUSH20 0xFFFFFFFFFFFFFFFFFFFFFFFFFFFFFFFFFFFFFFFF AND CALLER PUSH20 0xFFFFFFFFFFFFFFFFFFFFFFFFFFFFFFFFFFFFFFFF AND EQ PUSH3 0x6A6 JUMPI PUSH1 0x0 DUP1 REVERT JUMPDEST PUSH1 0x0 PUSH20 0xFFFFFFFFFFFFFFFFFFFFFFFFFFFFFFFFFFFFFFFF AND DUP2 PUSH20 0xFFFFFFFFFFFFFFFFFFFFFFFFFFFFFFFFFFFFFFFF AND SUB PUSH3 0x6E0 JUMPI PUSH1 0x0 DUP1 REVERT JUMPDEST DUP1 PUSH1 0x6C PUSH1 0x0 PUSH2 0x100 EXP DUP2 SLOAD DUP2 PUSH20 0xFFFFFFFFFFFFFFFFFFFFFFFFFFFFFFFFFFFFFFFF MUL NOT AND SWAP1 DUP4 PUSH20 0xFFFFFFFFFFFFFFFFFFFFFFFFFFFFFFFFFFFFFFFF AND MUL OR SWAP1 SSTORE POP POP JUMP JUMPDEST PUSH1 0x6F DUP2 DUP2 SLOAD DUP2 LT PUSH3 0x735 JUMPI PUSH1 0x0 DUP1 REVERT JUMPDEST SWAP1 PUSH1 0x0 MSTORE PUSH1 0x20 PUSH1 0x0 KECCAK256 ADD PUSH1 0x0 SWAP2 POP SLOAD SWAP1 PUSH2 0x100 EXP SWAP1 DIV PUSH20 0xFFFFFFFFFFFFFFFFFFFFFFFFFFFFFFFFFFFFFFFF AND DUP2 JUMP JUMPDEST PUSH1 0x69 SLOAD DUP2 JUMP JUMPDEST PUSH1 0x6A PUSH1 0x0 SWAP1 SLOAD SWAP1 PUSH2 0x100 EXP SWAP1 DIV PUSH20 0xFFFFFFFFFFFFFFFFFFFFFFFFFFFFFFFFFFFFFFFF AND PUSH20 0xFFFFFFFFFFFFFFFFFFFFFFFFFFFFFFFFFFFFFFFF AND CALLER PUSH20 0xFFFFFFFFFFFFFFFFFFFFFFFFFFFFFFFFFFFFFFFF AND EQ PUSH3 0x7C5 JUMPI PUSH1 0x0 DUP1 REVERT JUMPDEST PUSH1 0x0 PUSH20 0xFFFFFFFFFFFFFFFFFFFFFFFFFFFFFFFFFFFFFFFF AND DUP2 PUSH20 0xFFFFFFFFFFFFFFFFFFFFFFFFFFFFFFFFFFFFFFFF AND SUB PUSH3 0x7FF JUMPI PUSH1 0x0 DUP1 REVERT JUMPDEST DUP1 PUSH1 0x6D PUSH1 0x0 PUSH2 0x100 EXP DUP2 SLOAD DUP2 PUSH20 0xFFFFFFFFFFFFFFFFFFFFFFFFFFFFFFFFFFFFFFFF MUL NOT AND SWAP1 DUP4 PUSH20 0xFFFFFFFFFFFFFFFFFFFFFFFFFFFFFFFFFFFFFFFF AND MUL OR SWAP1 SSTORE POP POP JUMP JUMPDEST PUSH1 0x66 SLOAD DUP2 JUMP JUMPDEST PUSH1 0x6A PUSH1 0x0 SWAP1 SLOAD SWAP1 PUSH2 0x100 EXP SWAP1 DIV PUSH20 0xFFFFFFFFFFFFFFFFFFFFFFFFFFFFFFFFFFFFFFFF AND PUSH20 0xFFFFFFFFFFFFFFFFFFFFFFFFFFFFFFFFFFFFFFFF AND CALLER PUSH20 0xFFFFFFFFFFFFFFFFFFFFFFFFFFFFFFFFFFFFFFFF AND EQ PUSH3 0x8A4 JUMPI PUSH1 0x0 DUP1 REVERT JUMPDEST DUP1 PUSH1 0x6B PUSH1 0x0 PUSH2 0x100 EXP DUP2 SLOAD DUP2 PUSH20 0xFFFFFFFFFFFFFFFFFFFFFFFFFFFFFFFFFFFFFFFF MUL NOT AND SWAP1 DUP4 PUSH20 0xFFFFFFFFFFFFFFFFFFFFFFFFFFFFFFFFFFFFFFFF AND MUL OR SWAP1 SSTORE POP POP JUMP JUMPDEST PUSH1 0x6A PUSH1 0x0 SWAP1 SLOAD SWAP1 PUSH2 0x100 EXP SWAP1 DIV PUSH20 0xFFFFFFFFFFFFFFFFFFFFFFFFFFFFFFFFFFFFFFFF AND PUSH20 0xFFFFFFFFFFFFFFFFFFFFFFFFFFFFFFFFFFFFFFFF AND CALLER PUSH20 0xFFFFFFFFFFFFFFFFFFFFFFFFFFFFFFFFFFFFFFFF AND EQ PUSH3 0x943 JUMPI PUSH1 0x0 DUP1 REVERT JUMPDEST PUSH2 0xBB8 DUP2 GT ISZERO PUSH3 0x953 JUMPI PUSH1 0x0 DUP1 REVERT JUMPDEST DUP1 PUSH1 0x68 DUP2 SWAP1 SSTORE POP POP JUMP JUMPDEST PUSH1 0x67 SLOAD DUP2 JUMP JUMPDEST PUSH1 0x0 DUP2 PUSH3 0x974 JUMPI PUSH1 0x67 SLOAD PUSH3 0x978 JUMP JUMPDEST PUSH1 0x66 SLOAD JUMPDEST SWAP1 POP SWAP2 SWAP1 POP JUMP JUMPDEST PUSH1 0x0 PUSH1 0x6F DUP1 SLOAD SWAP1 POP SWAP1 POP SWAP1 JUMP JUMPDEST PUSH1 0x6E PUSH1 0x20 MSTORE DUP3 PUSH1 0x0 MSTORE PUSH1 0x40 PUSH1 0x0 KECCAK256 PUSH1 0x20 MSTORE DUP2 PUSH1 0x0 MSTORE PUSH1 0x40 PUSH1 0x0 KECCAK256 PUSH1 0x20 MSTORE DUP1 PUSH1 0x0 MSTORE PUSH1 0x40 PUSH1 0x0 KECCAK256 PUSH1 0x0 SWAP3 POP SWAP3 POP POP SWAP1 SLOAD SWAP1 PUSH2 0x100 EXP SWAP1 DIV PUSH20 0xFFFFFFFFFFFFFFFFFFFFFFFFFFFFFFFFFFFFFFFF AND DUP2 JUMP JUMPDEST PUSH1 0x6A PUSH1 0x0 SWAP1 SLOAD SWAP1 PUSH2 0x100 EXP SWAP1 DIV PUSH20 0xFFFFFFFFFFFFFFFFFFFFFFFFFFFFFFFFFFFFFFFF AND PUSH20 0xFFFFFFFFFFFFFFFFFFFFFFFFFFFFFFFFFFFFFFFF AND CALLER PUSH20 0xFFFFFFFFFFFFFFFFFFFFFFFFFFFFFFFFFFFFFFFF AND EQ PUSH3 0xA36 JUMPI PUSH1 0x0 DUP1 REVERT JUMPDEST DUP1 PUSH1 0x69 DUP2 SWAP1 SSTORE POP POP JUMP JUMPDEST PUSH3 0xA4A PUSH3 0x16F4 JUMP JUMPDEST PUSH3 0xA56 PUSH1 0x0 PUSH3 0x1779 JUMP JUMPDEST JUMP JUMPDEST PUSH1 0x6C PUSH1 0x0 SWAP1 SLOAD SWAP1 PUSH2 0x100 EXP SWAP1 DIV PUSH20 0xFFFFFFFFFFFFFFFFFFFFFFFFFFFFFFFFFFFFFFFF AND DUP2 JUMP JUMPDEST PUSH1 0x0 DUP1 PUSH1 0x1 SWAP1 SLOAD SWAP1 PUSH2 0x100 EXP SWAP1 DIV PUSH1 0xFF AND ISZERO SWAP1 POP DUP1 DUP1 ISZERO PUSH3 0xAB0 JUMPI POP PUSH1 0x1 PUSH1 0x0 DUP1 SLOAD SWAP1 PUSH2 0x100 EXP SWAP1 DIV PUSH1 0xFF AND PUSH1 0xFF AND LT JUMPDEST DUP1 PUSH3 0xAE1 JUMPI POP PUSH3 0xAC2 ADDRESS PUSH3 0x183F JUMP JUMPDEST ISZERO DUP1 ISZERO PUSH3 0xAE0 JUMPI POP PUSH1 0x1 PUSH1 0x0 DUP1 SLOAD SWAP1 PUSH2 0x100 EXP SWAP1 DIV PUSH1 0xFF AND PUSH1 0xFF AND EQ JUMPDEST JUMPDEST PUSH3 0xB23 JUMPI PUSH1 0x40 MLOAD PUSH32 0x8C379A000000000000000000000000000000000000000000000000000000000 DUP2 MSTORE PUSH1 0x4 ADD PUSH3 0xB1A SWAP1 PUSH3 0x1DD1 JUMP JUMPDEST PUSH1 0x40 MLOAD DUP1 SWAP2 SUB SWAP1 REVERT JUMPDEST PUSH1 0x1 PUSH1 0x0 DUP1 PUSH2 0x100 EXP DUP2 SLOAD DUP2 PUSH1 0xFF MUL NOT AND SWAP1 DUP4 PUSH1 0xFF AND MUL OR SWAP1 SSTORE POP DUP1 ISZERO PUSH3 0xB61 JUMPI PUSH1 0x1 PUSH1 0x0 PUSH1 0x1 PUSH2 0x100 EXP DUP2 SLOAD DUP2 PUSH1 0xFF MUL NOT AND SWAP1 DUP4 ISZERO ISZERO MUL OR SWAP1 SSTORE POP JUMPDEST PUSH3 0xB6B PUSH3 0x1862 JUMP JUMPDEST PUSH1 0x0 PUSH1 0x65 PUSH1 0x0 PUSH2 0x100 EXP DUP2 SLOAD DUP2 PUSH1 0xFF MUL NOT AND SWAP1 DUP4 ISZERO ISZERO MUL OR SWAP1 SSTORE POP CALLER PUSH1 0x6A PUSH1 0x0 PUSH2 0x100 EXP DUP2 SLOAD DUP2 PUSH20 0xFFFFFFFFFFFFFFFFFFFFFFFFFFFFFFFFFFFFFFFF MUL NOT AND SWAP1 DUP4 PUSH20 0xFFFFFFFFFFFFFFFFFFFFFFFFFFFFFFFFFFFFFFFF AND MUL OR SWAP1 SSTORE POP PUSH1 0x4 PUSH1 0x66 DUP2 SWAP1 SSTORE POP PUSH1 0x12 PUSH1 0x67 DUP2 SWAP1 SSTORE POP PUSH2 0xBB8 PUSH1 0x68 DUP2 SWAP1 SSTORE POP PUSH2 0x4B0 PUSH1 0x69 DUP2 SWAP1 SSTORE POP DUP1 ISZERO PUSH3 0xC45 JUMPI PUSH1 0x0 DUP1 PUSH1 0x1 PUSH2 0x100 EXP DUP2 SLOAD DUP2 PUSH1 0xFF MUL NOT AND SWAP1 DUP4 ISZERO ISZERO MUL OR SWAP1 SSTORE POP PUSH32 0x7F26B83FF96E1F2B6A682F133852F6798A09C465DA95921460CEFB3847402498 PUSH1 0x1 PUSH1 0x40 MLOAD PUSH3 0xC3C SWAP2 SWAP1 PUSH3 0x1E4D JUMP JUMPDEST PUSH1 0x40 MLOAD DUP1 SWAP2 SUB SWAP1 LOG1 JUMPDEST POP JUMP JUMPDEST PUSH1 0x0 DUP3 PUSH20 0xFFFFFFFFFFFFFFFFFFFFFFFFFFFFFFFFFFFFFFFF AND DUP5 PUSH20 0xFFFFFFFFFFFFFFFFFFFFFFFFFFFFFFFFFFFFFFFF AND SUB PUSH3 0xCBB JUMPI PUSH1 0x40 MLOAD PUSH32 0x8C379A000000000000000000000000000000000000000000000000000000000 DUP2 MSTORE PUSH1 0x4 ADD PUSH3 0xCB2 SWAP1 PUSH3 0x1EBA JUMP JUMPDEST PUSH1 0x40 MLOAD DUP1 SWAP2 SUB SWAP1 REVERT JUMPDEST PUSH1 0x0 DUP1 DUP5 PUSH20 0xFFFFFFFFFFFFFFFFFFFFFFFFFFFFFFFFFFFFFFFF AND DUP7 PUSH20 0xFFFFFFFFFFFFFFFFFFFFFFFFFFFFFFFFFFFFFFFF AND LT PUSH3 0xCFA JUMPI DUP5 DUP7 PUSH3 0xCFD JUMP JUMPDEST DUP6 DUP6 JUMPDEST SWAP2 POP SWAP2 POP PUSH1 0x0 PUSH20 0xFFFFFFFFFFFFFFFFFFFFFFFFFFFFFFFFFFFFFFFF AND DUP3 PUSH20 0xFFFFFFFFFFFFFFFFFFFFFFFFFFFFFFFFFFFFFFFF AND SUB PUSH3 0xD73 JUMPI PUSH1 0x40 MLOAD PUSH32 0x8C379A000000000000000000000000000000000000000000000000000000000 DUP2 MSTORE PUSH1 0x4 ADD PUSH3 0xD6A SWAP1 PUSH3 0x1F2C JUMP JUMPDEST PUSH1 0x40 MLOAD DUP1 SWAP2 SUB SWAP1 REVERT JUMPDEST PUSH1 0x0 PUSH20 0xFFFFFFFFFFFFFFFFFFFFFFFFFFFFFFFFFFFFFFFF AND PUSH1 0x6E PUSH1 0x0 DUP5 PUSH20 0xFFFFFFFFFFFFFFFFFFFFFFFFFFFFFFFFFFFFFFFF AND PUSH20 0xFFFFFFFFFFFFFFFFFFFFFFFFFFFFFFFFFFFFFFFF AND DUP2 MSTORE PUSH1 0x20 ADD SWAP1 DUP2 MSTORE PUSH1 0x20 ADD PUSH1 0x0 KECCAK256 PUSH1 0x0 DUP4 PUSH20 0xFFFFFFFFFFFFFFFFFFFFFFFFFFFFFFFFFFFFFFFF AND PUSH20 0xFFFFFFFFFFFFFFFFFFFFFFFFFFFFFFFFFFFFFFFF AND DUP2 MSTORE PUSH1 0x20 ADD SWAP1 DUP2 MSTORE PUSH1 0x20 ADD PUSH1 0x0 KECCAK256 PUSH1 0x0 DUP7 ISZERO ISZERO ISZERO ISZERO DUP2 MSTORE PUSH1 0x20 ADD SWAP1 DUP2 MSTORE PUSH1 0x20 ADD PUSH1 0x0 KECCAK256 PUSH1 0x0 SWAP1 SLOAD SWAP1 PUSH2 0x100 EXP SWAP1 DIV PUSH20 0xFFFFFFFFFFFFFFFFFFFFFFFFFFFFFFFFFFFFFFFF AND PUSH20 0xFFFFFFFFFFFFFFFFFFFFFFFFFFFFFFFFFFFFFFFF AND EQ PUSH3 0xE96 JUMPI PUSH1 0x40 MLOAD PUSH32 0x8C379A000000000000000000000000000000000000000000000000000000000 DUP2 MSTORE PUSH1 0x4 ADD PUSH3 0xE8D SWAP1 PUSH3 0x1F9E JUMP JUMPDEST PUSH1 0x40 MLOAD DUP1 SWAP2 SUB SWAP1 REVERT JUMPDEST PUSH1 0x0 DUP3 DUP3 DUP7 PUSH1 0x40 MLOAD PUSH1 0x20 ADD PUSH3 0xEAF SWAP4 SWAP3 SWAP2 SWAP1 PUSH3 0x2060 JUMP JUMPDEST PUSH1 0x40 MLOAD PUSH1 0x20 DUP2 DUP4 SUB SUB DUP2 MSTORE SWAP1 PUSH1 0x40 MSTORE DUP1 MLOAD SWAP1 PUSH1 0x20 ADD KECCAK256 SWAP1 POP DUP3 DUP3 DUP7 PUSH1 0x71 PUSH1 0x0 PUSH1 0x72 PUSH1 0x0 PUSH1 0x72 PUSH1 0x14 DUP7 SWAP2 SWAP1 PUSH2 0x100 EXP DUP2 SLOAD DUP2 PUSH1 0xFF MUL NOT AND SWAP1 DUP4 ISZERO ISZERO MUL OR SWAP1 SSTORE POP DUP6 SWAP2 SWAP1 PUSH2 0x100 EXP DUP2 SLOAD DUP2 PUSH20 0xFFFFFFFFFFFFFFFFFFFFFFFFFFFFFFFFFFFFFFFF MUL NOT AND SWAP1 DUP4 PUSH20 0xFFFFFFFFFFFFFFFFFFFFFFFFFFFFFFFFFFFFFFFF AND MUL OR SWAP1 SSTORE POP DUP5 SWAP2 SWAP1 PUSH2 0x100 EXP DUP2 SLOAD DUP2 PUSH20 0xFFFFFFFFFFFFFFFFFFFFFFFFFFFFFFFFFFFFFFFF MUL NOT AND SWAP1 DUP4 PUSH20 0xFFFFFFFFFFFFFFFFFFFFFFFFFFFFFFFFFFFFFFFF AND MUL OR SWAP1 SSTORE POP POP POP POP DUP1 PUSH1 0x40 MLOAD PUSH3 0xF7E SWAP1 PUSH3 0x1930 JUMP JUMPDEST DUP2 SWAP1 PUSH1 0x40 MLOAD DUP1 SWAP2 SUB SWAP1 PUSH1 0x0 CREATE2 SWAP1 POP DUP1 ISZERO DUP1 ISZERO PUSH3 0xF9F JUMPI RETURNDATASIZE PUSH1 0x0 DUP1 RETURNDATACOPY RETURNDATASIZE PUSH1 0x0 REVERT JUMPDEST POP SWAP4 POP DUP4 PUSH1 0x6E PUSH1 0x0 DUP6 PUSH20 0xFFFFFFFFFFFFFFFFFFFFFFFFFFFFFFFFFFFFFFFF AND PUSH20 0xFFFFFFFFFFFFFFFFFFFFFFFFFFFFFFFFFFFFFFFF AND DUP2 MSTORE PUSH1 0x20 ADD SWAP1 DUP2 MSTORE PUSH1 0x20 ADD PUSH1 0x0 KECCAK256 PUSH1 0x0 DUP5 PUSH20 0xFFFFFFFFFFFFFFFFFFFFFFFFFFFFFFFFFFFFFFFF AND PUSH20 0xFFFFFFFFFFFFFFFFFFFFFFFFFFFFFFFFFFFFFFFF AND DUP2 MSTORE PUSH1 0x20 ADD SWAP1 DUP2 MSTORE PUSH1 0x20 ADD PUSH1 0x0 KECCAK256 PUSH1 0x0 DUP8 ISZERO ISZERO ISZERO ISZERO DUP2 MSTORE PUSH1 0x20 ADD SWAP1 DUP2 MSTORE PUSH1 0x20 ADD PUSH1 0x0 KECCAK256 PUSH1 0x0 PUSH2 0x100 EXP DUP2 SLOAD DUP2 PUSH20 0xFFFFFFFFFFFFFFFFFFFFFFFFFFFFFFFFFFFFFFFF MUL NOT AND SWAP1 DUP4 PUSH20 0xFFFFFFFFFFFFFFFFFFFFFFFFFFFFFFFFFFFFFFFF AND MUL OR SWAP1 SSTORE POP DUP4 PUSH1 0x6E PUSH1 0x0 DUP5 PUSH20 0xFFFFFFFFFFFFFFFFFFFFFFFFFFFFFFFFFFFFFFFF AND PUSH20 0xFFFFFFFFFFFFFFFFFFFFFFFFFFFFFFFFFFFFFFFF AND DUP2 MSTORE PUSH1 0x20 ADD SWAP1 DUP2 MSTORE PUSH1 0x20 ADD PUSH1 0x0 KECCAK256 PUSH1 0x0 DUP6 PUSH20 0xFFFFFFFFFFFFFFFFFFFFFFFFFFFFFFFFFFFFFFFF AND PUSH20 0xFFFFFFFFFFFFFFFFFFFFFFFFFFFFFFFFFFFFFFFF AND DUP2 MSTORE PUSH1 0x20 ADD SWAP1 DUP2 MSTORE PUSH1 0x20 ADD PUSH1 0x0 KECCAK256 PUSH1 0x0 DUP8 ISZERO ISZERO ISZERO ISZERO DUP2 MSTORE PUSH1 0x20 ADD SWAP1 DUP2 MSTORE PUSH1 0x20 ADD PUSH1 0x0 KECCAK256 PUSH1 0x0 PUSH2 0x100 EXP DUP2 SLOAD DUP2 PUSH20 0xFFFFFFFFFFFFFFFFFFFFFFFFFFFFFFFFFFFFFFFF MUL NOT AND SWAP1 DUP4 PUSH20 0xFFFFFFFFFFFFFFFFFFFFFFFFFFFFFFFFFFFFFFFF AND MUL OR SWAP1 SSTORE POP PUSH1 0x6F DUP5 SWAP1 DUP1 PUSH1 0x1 DUP2 SLOAD ADD DUP1 DUP3 SSTORE DUP1 SWAP2 POP POP PUSH1 0x1 SWAP1 SUB SWAP1 PUSH1 0x0 MSTORE PUSH1 0x20 PUSH1 0x0 KECCAK256 ADD PUSH1 0x0 SWAP1 SWAP2 SWAP1 SWAP2 SWAP1 SWAP2 PUSH2 0x100 EXP DUP2 SLOAD DUP2 PUSH20 0xFFFFFFFFFFFFFFFFFFFFFFFFFFFFFFFFFFFFFFFF MUL NOT AND SWAP1 DUP4 PUSH20 0xFFFFFFFFFFFFFFFFFFFFFFFFFFFFFFFFFFFFFFFF AND MUL OR SWAP1 SSTORE POP PUSH1 0x1 PUSH1 0x70 PUSH1 0x0 DUP7 PUSH20 0xFFFFFFFFFFFFFFFFFFFFFFFFFFFFFFFFFFFFFFFF AND PUSH20 0xFFFFFFFFFFFFFFFFFFFFFFFFFFFFFFFFFFFFFFFF AND DUP2 MSTORE PUSH1 0x20 ADD SWAP1 DUP2 MSTORE PUSH1 0x20 ADD PUSH1 0x0 KECCAK256 PUSH1 0x0 PUSH2 0x100 EXP DUP2 SLOAD DUP2 PUSH1 0xFF MUL NOT AND SWAP1 DUP4 ISZERO ISZERO MUL OR SWAP1 SSTORE POP DUP2 PUSH20 0xFFFFFFFFFFFFFFFFFFFFFFFFFFFFFFFFFFFFFFFF AND DUP4 PUSH20 0xFFFFFFFFFFFFFFFFFFFFFFFFFFFFFFFFFFFFFFFF AND PUSH32 0xC4805696C66D7CF352FC1D6BB633AD5EE82F6CB577C453024B6E0EB8306C6FC9 DUP8 DUP8 PUSH1 0x6F DUP1 SLOAD SWAP1 POP PUSH1 0x40 MLOAD PUSH3 0x1265 SWAP4 SWAP3 SWAP2 SWAP1 PUSH3 0x20A3 JUMP JUMPDEST PUSH1 0x40 MLOAD DUP1 SWAP2 SUB SWAP1 LOG3 POP POP POP SWAP4 SWAP3 POP POP POP JUMP JUMPDEST PUSH1 0x6B PUSH1 0x0 SWAP1 SLOAD SWAP1 PUSH2 0x100 EXP SWAP1 DIV PUSH20 0xFFFFFFFFFFFFFFFFFFFFFFFFFFFFFFFFFFFFFFFF AND DUP2 JUMP JUMPDEST PUSH1 0x0 PUSH1 0x33 PUSH1 0x0 SWAP1 SLOAD SWAP1 PUSH2 0x100 EXP SWAP1 DIV PUSH20 0xFFFFFFFFFFFFFFFFFFFFFFFFFFFFFFFFFFFFFFFF AND SWAP1 POP SWAP1 JUMP JUMPDEST PUSH1 0x68 SLOAD DUP2 JUMP JUMPDEST PUSH1 0x0 PUSH1 0x40 MLOAD DUP1 PUSH1 0x20 ADD PUSH3 0x12E1 SWAP1 PUSH3 0x1930 JUMP JUMPDEST PUSH1 0x20 DUP3 ADD DUP2 SUB DUP3 MSTORE PUSH1 0x1F NOT PUSH1 0x1F DUP3 ADD AND PUSH1 0x40 MSTORE POP DUP1 MLOAD SWAP1 PUSH1 0x20 ADD KECCAK256 SWAP1 POP SWAP1 JUMP JUMPDEST PUSH1 0x65 PUSH1 0x0 SWAP1 SLOAD SWAP1 PUSH2 0x100 EXP SWAP1 DIV PUSH1 0xFF AND DUP2 JUMP JUMPDEST PUSH1 0x19 DUP2 JUMP JUMPDEST PUSH3 0x1323 PUSH3 0x129D JUMP JUMPDEST PUSH20 0xFFFFFFFFFFFFFFFFFFFFFFFFFFFFFFFFFFFFFFFF AND CALLER PUSH20 0xFFFFFFFFFFFFFFFFFFFFFFFFFFFFFFFFFFFFFFFF AND EQ PUSH3 0x135B JUMPI PUSH1 0x0 DUP1 REVERT JUMPDEST DUP1 PUSH1 0x65 PUSH1 0x0 PUSH2 0x100 EXP DUP2 SLOAD DUP2 PUSH1 0xFF MUL NOT AND SWAP1 DUP4 ISZERO ISZERO MUL OR SWAP1 SSTORE POP POP JUMP JUMPDEST PUSH1 0x6D PUSH1 0x0 SWAP1 SLOAD SWAP1 PUSH2 0x100 EXP SWAP1 DIV PUSH20 0xFFFFFFFFFFFFFFFFFFFFFFFFFFFFFFFFFFFFFFFF AND DUP2 JUMP JUMPDEST PUSH1 0x6A PUSH1 0x0 SWAP1 SLOAD SWAP1 PUSH2 0x100 EXP SWAP1 DIV PUSH20 0xFFFFFFFFFFFFFFFFFFFFFFFFFFFFFFFFFFFFFFFF AND DUP2 JUMP JUMPDEST PUSH1 0x6A PUSH1 0x0 SWAP1 SLOAD SWAP1 PUSH2 0x100 EXP SWAP1 DIV PUSH20 0xFFFFFFFFFFFFFFFFFFFFFFFFFFFFFFFFFFFFFFFF AND PUSH20 0xFFFFFFFFFFFFFFFFFFFFFFFFFFFFFFFFFFFFFFFF AND CALLER PUSH20 0xFFFFFFFFFFFFFFFFFFFFFFFFFFFFFFFFFFFFFFFF AND EQ PUSH3 0x141F JUMPI PUSH1 0x0 DUP1 REVERT JUMPDEST PUSH1 0x19 DUP2 GT ISZERO PUSH3 0x1466 JUMPI PUSH1 0x40 MLOAD PUSH32 0x8C379A000000000000000000000000000000000000000000000000000000000 DUP2 MSTORE PUSH1 0x4 ADD PUSH3 0x145D SWAP1 PUSH3 0x2130 JUMP JUMPDEST PUSH1 0x40 MLOAD DUP1 SWAP2 SUB SWAP1 REVERT JUMPDEST PUSH1 0x0 DUP2 SUB PUSH3 0x1474 JUMPI PUSH1 0x0 DUP1 REVERT JUMPDEST DUP2 ISZERO PUSH3 0x1488 JUMPI DUP1 PUSH1 0x66 DUP2 SWAP1 SSTORE POP PUSH3 0x1490 JUMP JUMPDEST DUP1 PUSH1 0x67 DUP2 SWAP1 SSTORE POP JUMPDEST POP POP JUMP JUMPDEST PUSH1 0x70 PUSH1 0x20 MSTORE DUP1 PUSH1 0x0 MSTORE PUSH1 0x40 PUSH1 0x0 KECCAK256 PUSH1 0x0 SWAP2 POP SLOAD SWAP1 PUSH2 0x100 EXP SWAP1 DIV PUSH1 0xFF AND DUP2 JUMP JUMPDEST PUSH1 0x0 DUP1 PUSH1 0x0 PUSH1 0x71 PUSH1 0x0 SWAP1 SLOAD SWAP1 PUSH2 0x100 EXP SWAP1 DIV PUSH20 0xFFFFFFFFFFFFFFFFFFFFFFFFFFFFFFFFFFFFFFFF AND PUSH1 0x72 PUSH1 0x0 SWAP1 SLOAD SWAP1 PUSH2 0x100 EXP SWAP1 DIV PUSH20 0xFFFFFFFFFFFFFFFFFFFFFFFFFFFFFFFFFFFFFFFF AND PUSH1 0x72 PUSH1 0x14 SWAP1 SLOAD SWAP1 PUSH2 0x100 EXP SWAP1 DIV PUSH1 0xFF AND SWAP3 POP SWAP3 POP SWAP3 POP SWAP1 SWAP2 SWAP3 JUMP JUMPDEST PUSH3 0x1524 PUSH3 0x16F4 JUMP JUMPDEST PUSH1 0x0 PUSH20 0xFFFFFFFFFFFFFFFFFFFFFFFFFFFFFFFFFFFFFFFF AND DUP2 PUSH20 0xFFFFFFFFFFFFFFFFFFFFFFFFFFFFFFFFFFFFFFFF AND SUB PUSH3 0x1596 JUMPI PUSH1 0x40 MLOAD PUSH32 0x8C379A000000000000000000000000000000000000000000000000000000000 DUP2 MSTORE PUSH1 0x4 ADD PUSH3 0x158D SWAP1 PUSH3 0x21C8 JUMP JUMPDEST PUSH1 0x40 MLOAD DUP1 SWAP2 SUB SWAP1 REVERT JUMPDEST PUSH3 0x15A1 DUP2 PUSH3 0x1779 JUMP JUMPDEST POP JUMP JUMPDEST PUSH1 0x6B PUSH1 0x0 SWAP1 SLOAD SWAP1 PUSH2 0x100 EXP SWAP1 DIV PUSH20 0xFFFFFFFFFFFFFFFFFFFFFFFFFFFFFFFFFFFFFFFF AND PUSH20 0xFFFFFFFFFFFFFFFFFFFFFFFFFFFFFFFFFFFFFFFF AND CALLER PUSH20 0xFFFFFFFFFFFFFFFFFFFFFFFFFFFFFFFFFFFFFFFF AND EQ PUSH3 0x15FF JUMPI PUSH1 0x0 DUP1 REVERT JUMPDEST PUSH1 0x6B PUSH1 0x0 SWAP1 SLOAD SWAP1 PUSH2 0x100 EXP SWAP1 DIV PUSH20 0xFFFFFFFFFFFFFFFFFFFFFFFFFFFFFFFFFFFFFFFF AND PUSH1 0x6A PUSH1 0x0 PUSH2 0x100 EXP DUP2 SLOAD DUP2 PUSH20 0xFFFFFFFFFFFFFFFFFFFFFFFFFFFFFFFFFFFFFFFF MUL NOT AND SWAP1 DUP4 PUSH20 0xFFFFFFFFFFFFFFFFFFFFFFFFFFFFFFFFFFFFFFFF AND MUL OR SWAP1 SSTORE POP JUMP JUMPDEST PUSH1 0x60 PUSH1 0x6F DUP1 SLOAD DUP1 PUSH1 0x20 MUL PUSH1 0x20 ADD PUSH1 0x40 MLOAD SWAP1 DUP2 ADD PUSH1 0x40 MSTORE DUP1 SWAP3 SWAP2 SWAP1 DUP2 DUP2 MSTORE PUSH1 0x20 ADD DUP3 DUP1 SLOAD DUP1 ISZERO PUSH3 0x16EA JUMPI PUSH1 0x20 MUL DUP3 ADD SWAP2 SWAP1 PUSH1 0x0 MSTORE PUSH1 0x20 PUSH1 0x0 KECCAK256 SWAP1 JUMPDEST DUP2 PUSH1 0x0 SWAP1 SLOAD SWAP1 PUSH2 0x100 EXP SWAP1 DIV PUSH20 0xFFFFFFFFFFFFFFFFFFFFFFFFFFFFFFFFFFFFFFFF AND PUSH20 0xFFFFFFFFFFFFFFFFFFFFFFFFFFFFFFFFFFFFFFFF AND DUP2 MSTORE PUSH1 0x20 ADD SWAP1 PUSH1 0x1 ADD SWAP1 DUP1 DUP4 GT PUSH3 0x169F JUMPI JUMPDEST POP POP POP POP POP SWAP1 POP SWAP1 JUMP JUMPDEST PUSH3 0x16FE PUSH3 0x18C0 JUMP JUMPDEST PUSH20 0xFFFFFFFFFFFFFFFFFFFFFFFFFFFFFFFFFFFFFFFF AND PUSH3 0x171E PUSH3 0x129D JUMP JUMPDEST PUSH20 0xFFFFFFFFFFFFFFFFFFFFFFFFFFFFFFFFFFFFFFFF AND EQ PUSH3 0x1777 JUMPI PUSH1 0x40 MLOAD PUSH32 0x8C379A000000000000000000000000000000000000000000000000000000000 DUP2 MSTORE PUSH1 0x4 ADD PUSH3 0x176E SWAP1 PUSH3 0x223A JUMP JUMPDEST PUSH1 0x40 MLOAD DUP1 SWAP2 SUB SWAP1 REVERT JUMPDEST JUMP JUMPDEST PUSH1 0x0 PUSH1 0x33 PUSH1 0x0 SWAP1 SLOAD SWAP1 PUSH2 0x100 EXP SWAP1 DIV PUSH20 0xFFFFFFFFFFFFFFFFFFFFFFFFFFFFFFFFFFFFFFFF AND SWAP1 POP DUP2 PUSH1 0x33 PUSH1 0x0 PUSH2 0x100 EXP DUP2 SLOAD DUP2 PUSH20 0xFFFFFFFFFFFFFFFFFFFFFFFFFFFFFFFFFFFFFFFF MUL NOT AND SWAP1 DUP4 PUSH20 0xFFFFFFFFFFFFFFFFFFFFFFFFFFFFFFFFFFFFFFFF AND MUL OR SWAP1 SSTORE POP DUP2 PUSH20 0xFFFFFFFFFFFFFFFFFFFFFFFFFFFFFFFFFFFFFFFF AND DUP2 PUSH20 0xFFFFFFFFFFFFFFFFFFFFFFFFFFFFFFFFFFFFFFFF AND PUSH32 0x8BE0079C531659141344CD1FD0A4F28419497F9722A3DAAFE3B4186F6B6457E0 PUSH1 0x40 MLOAD PUSH1 0x40 MLOAD DUP1 SWAP2 SUB SWAP1 LOG3 POP POP JUMP JUMPDEST PUSH1 0x0 DUP1 DUP3 PUSH20 0xFFFFFFFFFFFFFFFFFFFFFFFFFFFFFFFFFFFFFFFF AND EXTCODESIZE GT SWAP1 POP SWAP2 SWAP1 POP JUMP JUMPDEST PUSH1 0x0 PUSH1 0x1 SWAP1 SLOAD SWAP1 PUSH2 0x100 EXP SWAP1 DIV PUSH1 0xFF AND PUSH3 0x18B4 JUMPI PUSH1 0x40 MLOAD PUSH32 0x8C379A000000000000000000000000000000000000000000000000000000000 DUP2 MSTORE PUSH1 0x4 ADD PUSH3 0x18AB SWAP1 PUSH3 0x22D2 JUMP JUMPDEST PUSH1 0x40 MLOAD DUP1 SWAP2 SUB SWAP1 REVERT JUMPDEST PUSH3 0x18BE PUSH3 0x18C8 JUMP JUMPDEST JUMP JUMPDEST PUSH1 0x0 CALLER SWAP1 POP SWAP1 JUMP JUMPDEST PUSH1 0x0 PUSH1 0x1 SWAP1 SLOAD SWAP1 PUSH2 0x100 EXP SWAP1 DIV PUSH1 0xFF AND PUSH3 0x191A JUMPI PUSH1 0x40 MLOAD PUSH32 0x8C379A000000000000000000000000000000000000000000000000000000000 DUP2 MSTORE PUSH1 0x4 ADD PUSH3 0x1911 SWAP1 PUSH3 0x22D2 JUMP JUMPDEST PUSH1 0x40 MLOAD DUP1 SWAP2 SUB SWAP1 REVERT JUMPDEST PUSH3 0x192E PUSH3 0x1928 PUSH3 0x18C0 JUMP JUMPDEST PUSH3 0x1779 JUMP JUMPDEST JUMP JUMPDEST PUSH2 0x78CB DUP1 PUSH3 0x22F5 DUP4 CODECOPY ADD SWAP1 JUMP JUMPDEST PUSH1 0x0 DUP1 REVERT JUMPDEST PUSH1 0x0 PUSH20 0xFFFFFFFFFFFFFFFFFFFFFFFFFFFFFFFFFFFFFFFF DUP3 AND SWAP1 POP SWAP2 SWAP1 POP JUMP JUMPDEST PUSH1 0x0 PUSH3 0x1970 DUP3 PUSH3 0x1943 JUMP JUMPDEST SWAP1 POP SWAP2 SWAP1 POP JUMP JUMPDEST PUSH3 0x1982 DUP2 PUSH3 0x1963 JUMP JUMPDEST DUP2 EQ PUSH3 0x198E JUMPI PUSH1 0x0 DUP1 REVERT JUMPDEST POP JUMP JUMPDEST PUSH1 0x0 DUP2 CALLDATALOAD SWAP1 POP PUSH3 0x19A2 DUP2 PUSH3 0x1977 JUMP JUMPDEST SWAP3 SWAP2 POP POP JUMP JUMPDEST PUSH1 0x0 PUSH1 0x20 DUP3 DUP5 SUB SLT ISZERO PUSH3 0x19C1 JUMPI PUSH3 0x19C0 PUSH3 0x193E JUMP JUMPDEST JUMPDEST PUSH1 0x0 PUSH3 0x19D1 DUP5 DUP3 DUP6 ADD PUSH3 0x1991 JUMP JUMPDEST SWAP2 POP POP SWAP3 SWAP2 POP POP JUMP JUMPDEST PUSH1 0x0 DUP2 SWAP1 POP SWAP2 SWAP1 POP JUMP JUMPDEST PUSH3 0x19EF DUP2 PUSH3 0x19DA JUMP JUMPDEST DUP2 EQ PUSH3 0x19FB JUMPI PUSH1 0x0 DUP1 REVERT JUMPDEST POP JUMP JUMPDEST PUSH1 0x0 DUP2 CALLDATALOAD SWAP1 POP PUSH3 0x1A0F DUP2 PUSH3 0x19E4 JUMP JUMPDEST SWAP3 SWAP2 POP POP JUMP JUMPDEST PUSH1 0x0 PUSH1 0x20 DUP3 DUP5 SUB SLT ISZERO PUSH3 0x1A2E JUMPI PUSH3 0x1A2D PUSH3 0x193E JUMP JUMPDEST JUMPDEST PUSH1 0x0 PUSH3 0x1A3E DUP5 DUP3 DUP6 ADD PUSH3 0x19FE JUMP JUMPDEST SWAP2 POP POP SWAP3 SWAP2 POP POP JUMP JUMPDEST PUSH3 0x1A52 DUP2 PUSH3 0x1963 JUMP JUMPDEST DUP3 MSTORE POP POP JUMP JUMPDEST PUSH1 0x0 PUSH1 0x20 DUP3 ADD SWAP1 POP PUSH3 0x1A6F PUSH1 0x0 DUP4 ADD DUP5 PUSH3 0x1A47 JUMP JUMPDEST SWAP3 SWAP2 POP POP JUMP JUMPDEST PUSH3 0x1A80 DUP2 PUSH3 0x19DA JUMP JUMPDEST DUP3 MSTORE POP POP JUMP JUMPDEST PUSH1 0x0 PUSH1 0x20 DUP3 ADD SWAP1 POP PUSH3 0x1A9D PUSH1 0x0 DUP4 ADD DUP5 PUSH3 0x1A75 JUMP JUMPDEST SWAP3 SWAP2 POP POP JUMP JUMPDEST PUSH1 0x0 DUP2 ISZERO ISZERO SWAP1 POP SWAP2 SWAP1 POP JUMP JUMPDEST PUSH3 0x1ABA DUP2 PUSH3 0x1AA3 JUMP JUMPDEST DUP2 EQ PUSH3 0x1AC6 JUMPI PUSH1 0x0 DUP1 REVERT JUMPDEST POP JUMP JUMPDEST PUSH1 0x0 DUP2 CALLDATALOAD SWAP1 POP PUSH3 0x1ADA DUP2 PUSH3 0x1AAF JUMP JUMPDEST SWAP3 SWAP2 POP POP JUMP JUMPDEST PUSH1 0x0 PUSH1 0x20 DUP3 DUP5 SUB SLT ISZERO PUSH3 0x1AF9 JUMPI PUSH3 0x1AF8 PUSH3 0x193E JUMP JUMPDEST JUMPDEST PUSH1 0x0 PUSH3 0x1B09 DUP5 DUP3 DUP6 ADD PUSH3 0x1AC9 JUMP JUMPDEST SWAP2 POP POP SWAP3 SWAP2 POP POP JUMP JUMPDEST PUSH1 0x0 DUP1 PUSH1 0x0 PUSH1 0x60 DUP5 DUP7 SUB SLT ISZERO PUSH3 0x1B2E JUMPI PUSH3 0x1B2D PUSH3 0x193E JUMP JUMPDEST JUMPDEST PUSH1 0x0 PUSH3 0x1B3E DUP7 DUP3 DUP8 ADD PUSH3 0x1991 JUMP JUMPDEST SWAP4 POP POP PUSH1 0x20 PUSH3 0x1B51 DUP7 DUP3 DUP8 ADD PUSH3 0x1991 JUMP JUMPDEST SWAP3 POP POP PUSH1 0x40 PUSH3 0x1B64 DUP7 DUP3 DUP8 ADD PUSH3 0x1AC9 JUMP JUMPDEST SWAP2 POP POP SWAP3 POP SWAP3 POP SWAP3 JUMP JUMPDEST PUSH1 0x0 DUP2 SWAP1 POP SWAP2 SWAP1 POP JUMP JUMPDEST PUSH3 0x1B83 DUP2 PUSH3 0x1B6E JUMP JUMPDEST DUP3 MSTORE POP POP JUMP JUMPDEST PUSH1 0x0 PUSH1 0x20 DUP3 ADD SWAP1 POP PUSH3 0x1BA0 PUSH1 0x0 DUP4 ADD DUP5 PUSH3 0x1B78 JUMP JUMPDEST SWAP3 SWAP2 POP POP JUMP JUMPDEST PUSH3 0x1BB1 DUP2 PUSH3 0x1AA3 JUMP JUMPDEST DUP3 MSTORE POP POP JUMP JUMPDEST PUSH1 0x0 PUSH1 0x20 DUP3 ADD SWAP1 POP PUSH3 0x1BCE PUSH1 0x0 DUP4 ADD DUP5 PUSH3 0x1BA6 JUMP JUMPDEST SWAP3 SWAP2 POP POP JUMP JUMPDEST PUSH1 0x0 DUP1 PUSH1 0x40 DUP4 DUP6 SUB SLT ISZERO PUSH3 0x1BEE JUMPI PUSH3 0x1BED PUSH3 0x193E JUMP JUMPDEST JUMPDEST PUSH1 0x0 PUSH3 0x1BFE DUP6 DUP3 DUP7 ADD PUSH3 0x1AC9 JUMP JUMPDEST SWAP3 POP POP PUSH1 0x20 PUSH3 0x1C11 DUP6 DUP3 DUP7 ADD PUSH3 0x19FE JUMP JUMPDEST SWAP2 POP POP SWAP3 POP SWAP3 SWAP1 POP JUMP JUMPDEST PUSH1 0x0 PUSH1 0x60 DUP3 ADD SWAP1 POP PUSH3 0x1C32 PUSH1 0x0 DUP4 ADD DUP7 PUSH3 0x1A47 JUMP JUMPDEST PUSH3 0x1C41 PUSH1 0x20 DUP4 ADD DUP6 PUSH3 0x1A47 JUMP JUMPDEST PUSH3 0x1C50 PUSH1 0x40 DUP4 ADD DUP5 PUSH3 0x1BA6 JUMP JUMPDEST SWAP5 SWAP4 POP POP POP POP JUMP JUMPDEST PUSH1 0x0 DUP2 MLOAD SWAP1 POP SWAP2 SWAP1 POP JUMP JUMPDEST PUSH1 0x0 DUP3 DUP3 MSTORE PUSH1 0x20 DUP3 ADD SWAP1 POP SWAP3 SWAP2 POP POP JUMP JUMPDEST PUSH1 0x0 DUP2 SWAP1 POP PUSH1 0x20 DUP3 ADD SWAP1 POP SWAP2 SWAP1 POP JUMP JUMPDEST PUSH3 0x1C8F DUP2 PUSH3 0x1963 JUMP JUMPDEST DUP3 MSTORE POP POP JUMP JUMPDEST PUSH1 0x0 PUSH3 0x1CA3 DUP4 DUP4 PUSH3 0x1C84 JUMP JUMPDEST PUSH1 0x20 DUP4 ADD SWAP1 POP SWAP3 SWAP2 POP POP JUMP JUMPDEST PUSH1 0x0 PUSH1 0x20 DUP3 ADD SWAP1 POP SWAP2 SWAP1 POP JUMP JUMPDEST PUSH1 0x0 PUSH3 0x1CC9 DUP3 PUSH3 0x1C58 JUMP JUMPDEST PUSH3 0x1CD5 DUP2 DUP6 PUSH3 0x1C63 JUMP JUMPDEST SWAP4 POP PUSH3 0x1CE2 DUP4 PUSH3 0x1C74 JUMP JUMPDEST DUP1 PUSH1 0x0 JUMPDEST DUP4 DUP2 LT ISZERO PUSH3 0x1D19 JUMPI DUP2 MLOAD PUSH3 0x1CFD DUP9 DUP3 PUSH3 0x1C95 JUMP JUMPDEST SWAP8 POP PUSH3 0x1D0A DUP4 PUSH3 0x1CAF JUMP JUMPDEST SWAP3 POP POP PUSH1 0x1 DUP2 ADD SWAP1 POP PUSH3 0x1CE6 JUMP JUMPDEST POP DUP6 SWAP4 POP POP POP POP SWAP3 SWAP2 POP POP JUMP JUMPDEST PUSH1 0x0 PUSH1 0x20 DUP3 ADD SWAP1 POP DUP2 DUP2 SUB PUSH1 0x0 DUP4 ADD MSTORE PUSH3 0x1D42 DUP2 DUP5 PUSH3 0x1CBC JUMP JUMPDEST SWAP1 POP SWAP3 SWAP2 POP POP JUMP JUMPDEST PUSH1 0x0 DUP3 DUP3 MSTORE PUSH1 0x20 DUP3 ADD SWAP1 POP SWAP3 SWAP2 POP POP JUMP JUMPDEST PUSH32 0x496E697469616C697A61626C653A20636F6E747261637420697320616C726561 PUSH1 0x0 DUP3 ADD MSTORE PUSH32 0x647920696E697469616C697A6564000000000000000000000000000000000000 PUSH1 0x20 DUP3 ADD MSTORE POP JUMP JUMPDEST PUSH1 0x0 PUSH3 0x1DB9 PUSH1 0x2E DUP4 PUSH3 0x1D4A JUMP JUMPDEST SWAP2 POP PUSH3 0x1DC6 DUP3 PUSH3 0x1D5B JUMP JUMPDEST PUSH1 0x40 DUP3 ADD SWAP1 POP SWAP2 SWAP1 POP JUMP JUMPDEST PUSH1 0x0 PUSH1 0x20 DUP3 ADD SWAP1 POP DUP2 DUP2 SUB PUSH1 0x0 DUP4 ADD MSTORE PUSH3 0x1DEC DUP2 PUSH3 0x1DAA JUMP JUMPDEST SWAP1 POP SWAP2 SWAP1 POP JUMP JUMPDEST PUSH1 0x0 DUP2 SWAP1 POP SWAP2 SWAP1 POP JUMP JUMPDEST PUSH1 0x0 PUSH1 0xFF DUP3 AND SWAP1 POP SWAP2 SWAP1 POP JUMP JUMPDEST PUSH1 0x0 DUP2 SWAP1 POP SWAP2 SWAP1 POP JUMP JUMPDEST PUSH1 0x0 PUSH3 0x1E35 PUSH3 0x1E2F PUSH3 0x1E29 DUP5 PUSH3 0x1DF3 JUMP JUMPDEST PUSH3 0x1E0A JUMP JUMPDEST PUSH3 0x1DFD JUMP JUMPDEST SWAP1 POP SWAP2 SWAP1 POP JUMP JUMPDEST PUSH3 0x1E47 DUP2 PUSH3 0x1E14 JUMP JUMPDEST DUP3 MSTORE POP POP JUMP JUMPDEST PUSH1 0x0 PUSH1 0x20 DUP3 ADD SWAP1 POP PUSH3 0x1E64 PUSH1 0x0 DUP4 ADD DUP5 PUSH3 0x1E3C JUMP JUMPDEST SWAP3 SWAP2 POP POP JUMP JUMPDEST PUSH32 0x4941000000000000000000000000000000000000000000000000000000000000 PUSH1 0x0 DUP3 ADD MSTORE POP JUMP JUMPDEST PUSH1 0x0 PUSH3 0x1EA2 PUSH1 0x2 DUP4 PUSH3 0x1D4A JUMP JUMPDEST SWAP2 POP PUSH3 0x1EAF DUP3 PUSH3 0x1E6A JUMP JUMPDEST PUSH1 0x20 DUP3 ADD SWAP1 POP SWAP2 SWAP1 POP JUMP JUMPDEST PUSH1 0x0 PUSH1 0x20 DUP3 ADD SWAP1 POP DUP2 DUP2 SUB PUSH1 0x0 DUP4 ADD MSTORE PUSH3 0x1ED5 DUP2 PUSH3 0x1E93 JUMP JUMPDEST SWAP1 POP SWAP2 SWAP1 POP JUMP JUMPDEST PUSH32 0x5A41000000000000000000000000000000000000000000000000000000000000 PUSH1 0x0 DUP3 ADD MSTORE POP JUMP JUMPDEST PUSH1 0x0 PUSH3 0x1F14 PUSH1 0x2 DUP4 PUSH3 0x1D4A JUMP JUMPDEST SWAP2 POP PUSH3 0x1F21 DUP3 PUSH3 0x1EDC JUMP JUMPDEST PUSH1 0x20 DUP3 ADD SWAP1 POP SWAP2 SWAP1 POP JUMP JUMPDEST PUSH1 0x0 PUSH1 0x20 DUP3 ADD SWAP1 POP DUP2 DUP2 SUB PUSH1 0x0 DUP4 ADD MSTORE PUSH3 0x1F47 DUP2 PUSH3 0x1F05 JUMP JUMPDEST SWAP1 POP SWAP2 SWAP1 POP JUMP JUMPDEST PUSH32 0x5045000000000000000000000000000000000000000000000000000000000000 PUSH1 0x0 DUP3 ADD MSTORE POP JUMP JUMPDEST PUSH1 0x0 PUSH3 0x1F86 PUSH1 0x2 DUP4 PUSH3 0x1D4A JUMP JUMPDEST SWAP2 POP PUSH3 0x1F93 DUP3 PUSH3 0x1F4E JUMP JUMPDEST PUSH1 0x20 DUP3 ADD SWAP1 POP SWAP2 SWAP1 POP JUMP JUMPDEST PUSH1 0x0 PUSH1 0x20 DUP3 ADD SWAP1 POP DUP2 DUP2 SUB PUSH1 0x0 DUP4 ADD MSTORE PUSH3 0x1FB9 DUP2 PUSH3 0x1F77 JUMP JUMPDEST SWAP1 POP SWAP2 SWAP1 POP JUMP JUMPDEST PUSH1 0x0 DUP2 PUSH1 0x60 SHL SWAP1 POP SWAP2 SWAP1 POP JUMP JUMPDEST PUSH1 0x0 PUSH3 0x1FDA DUP3 PUSH3 0x1FC0 JUMP JUMPDEST SWAP1 POP SWAP2 SWAP1 POP JUMP JUMPDEST PUSH1 0x0 PUSH3 0x1FEE DUP3 PUSH3 0x1FCD JUMP JUMPDEST SWAP1 POP SWAP2 SWAP1 POP JUMP JUMPDEST PUSH3 0x200A PUSH3 0x2004 DUP3 PUSH3 0x1963 JUMP JUMPDEST PUSH3 0x1FE1 JUMP JUMPDEST DUP3 MSTORE POP POP JUMP JUMPDEST PUSH1 0x0 DUP2 PUSH1 0xF8 SHL SWAP1 POP SWAP2 SWAP1 POP JUMP JUMPDEST PUSH1 0x0 PUSH3 0x202A DUP3 PUSH3 0x2010 JUMP JUMPDEST SWAP1 POP SWAP2 SWAP1 POP JUMP JUMPDEST PUSH1 0x0 PUSH3 0x203E DUP3 PUSH3 0x201D JUMP JUMPDEST SWAP1 POP SWAP2 SWAP1 POP JUMP JUMPDEST PUSH3 0x205A PUSH3 0x2054 DUP3 PUSH3 0x1AA3 JUMP JUMPDEST PUSH3 0x2031 JUMP JUMPDEST DUP3 MSTORE POP POP JUMP JUMPDEST PUSH1 0x0 PUSH3 0x206E DUP3 DUP7 PUSH3 0x1FF5 JUMP JUMPDEST PUSH1 0x14 DUP3 ADD SWAP2 POP PUSH3 0x2080 DUP3 DUP6 PUSH3 0x1FF5 JUMP JUMPDEST PUSH1 0x14 DUP3 ADD SWAP2 POP PUSH3 0x2092 DUP3 DUP5 PUSH3 0x2045 JUMP JUMPDEST PUSH1 0x1 DUP3 ADD SWAP2 POP DUP2 SWAP1 POP SWAP5 SWAP4 POP POP POP POP JUMP JUMPDEST PUSH1 0x0 PUSH1 0x60 DUP3 ADD SWAP1 POP PUSH3 0x20BA PUSH1 0x0 DUP4 ADD DUP7 PUSH3 0x1BA6 JUMP JUMPDEST PUSH3 0x20C9 PUSH1 0x20 DUP4 ADD DUP6 PUSH3 0x1A47 JUMP JUMPDEST PUSH3 0x20D8 PUSH1 0x40 DUP4 ADD DUP5 PUSH3 0x1A75 JUMP JUMPDEST SWAP5 SWAP4 POP POP POP POP JUMP JUMPDEST PUSH32 0x6665650000000000000000000000000000000000000000000000000000000000 PUSH1 0x0 DUP3 ADD MSTORE POP JUMP JUMPDEST PUSH1 0x0 PUSH3 0x2118 PUSH1 0x3 DUP4 PUSH3 0x1D4A JUMP JUMPDEST SWAP2 POP PUSH3 0x2125 DUP3 PUSH3 0x20E0 JUMP JUMPDEST PUSH1 0x20 DUP3 ADD SWAP1 POP SWAP2 SWAP1 POP JUMP JUMPDEST PUSH1 0x0 PUSH1 0x20 DUP3 ADD SWAP1 POP DUP2 DUP2 SUB PUSH1 0x0 DUP4 ADD MSTORE PUSH3 0x214B DUP2 PUSH3 0x2109 JUMP JUMPDEST SWAP1 POP SWAP2 SWAP1 POP JUMP JUMPDEST PUSH32 0x4F776E61626C653A206E6577206F776E657220697320746865207A65726F2061 PUSH1 0x0 DUP3 ADD MSTORE PUSH32 0x6464726573730000000000000000000000000000000000000000000000000000 PUSH1 0x20 DUP3 ADD MSTORE POP JUMP JUMPDEST PUSH1 0x0 PUSH3 0x21B0 PUSH1 0x26 DUP4 PUSH3 0x1D4A JUMP JUMPDEST SWAP2 POP PUSH3 0x21BD DUP3 PUSH3 0x2152 JUMP JUMPDEST PUSH1 0x40 DUP3 ADD SWAP1 POP SWAP2 SWAP1 POP JUMP JUMPDEST PUSH1 0x0 PUSH1 0x20 DUP3 ADD SWAP1 POP DUP2 DUP2 SUB PUSH1 0x0 DUP4 ADD MSTORE PUSH3 0x21E3 DUP2 PUSH3 0x21A1 JUMP JUMPDEST SWAP1 POP SWAP2 SWAP1 POP JUMP JUMPDEST PUSH32 0x4F776E61626C653A2063616C6C6572206973206E6F7420746865206F776E6572 PUSH1 0x0 DUP3 ADD MSTORE POP JUMP JUMPDEST PUSH1 0x0 PUSH3 0x2222 PUSH1 0x20 DUP4 PUSH3 0x1D4A JUMP JUMPDEST SWAP2 POP PUSH3 0x222F DUP3 PUSH3 0x21EA JUMP JUMPDEST PUSH1 0x20 DUP3 ADD SWAP1 POP SWAP2 SWAP1 POP JUMP JUMPDEST PUSH1 0x0 PUSH1 0x20 DUP3 ADD SWAP1 POP DUP2 DUP2 SUB PUSH1 0x0 DUP4 ADD MSTORE PUSH3 0x2255 DUP2 PUSH3 0x2213 JUMP JUMPDEST SWAP1 POP SWAP2 SWAP1 POP JUMP JUMPDEST PUSH32 0x496E697469616C697A61626C653A20636F6E7472616374206973206E6F742069 PUSH1 0x0 DUP3 ADD MSTORE PUSH32 0x6E697469616C697A696E67000000000000000000000000000000000000000000 PUSH1 0x20 DUP3 ADD MSTORE POP JUMP JUMPDEST PUSH1 0x0 PUSH3 0x22BA PUSH1 0x2B DUP4 PUSH3 0x1D4A JUMP JUMPDEST SWAP2 POP PUSH3 0x22C7 DUP3 PUSH3 0x225C JUMP JUMPDEST PUSH1 0x40 DUP3 ADD SWAP1 POP SWAP2 SWAP1 POP JUMP JUMPDEST PUSH1 0x0 PUSH1 0x20 DUP3 ADD SWAP1 POP DUP2 DUP2 SUB PUSH1 0x0 DUP4 ADD MSTORE PUSH3 0x22ED DUP2 PUSH3 0x22AB JUMP JUMPDEST SWAP1 POP SWAP2 SWAP1 POP JUMP INVALID PUSH2 0x160 PUSH1 0x40 MSTORE PUSH1 0x0 PUSH1 0x2 SSTORE PUSH1 0x0 PUSH1 0xD SSTORE PUSH1 0x0 PUSH1 0xE SSTORE PUSH1 0x1 PUSH1 0x13 SSTORE CALLVALUE DUP1 ISZERO PUSH3 0x26 JUMPI PUSH1 0x0 DUP1 REVERT JUMPDEST POP CALLER PUSH20 0xFFFFFFFFFFFFFFFFFFFFFFFFFFFFFFFFFFFFFFFF AND PUSH2 0x100 DUP2 PUSH20 0xFFFFFFFFFFFFFFFFFFFFFFFFFFFFFFFFFFFFFFFF AND DUP2 MSTORE POP POP PUSH1 0x0 DUP1 PUSH1 0x0 CALLER PUSH20 0xFFFFFFFFFFFFFFFFFFFFFFFFFFFFFFFFFFFFFFFF AND PUSH4 0xEB13C4CF PUSH1 0x40 MLOAD DUP2 PUSH4 0xFFFFFFFF AND PUSH1 0xE0 SHL DUP2 MSTORE PUSH1 0x4 ADD PUSH1 0x60 PUSH1 0x40 MLOAD DUP1 DUP4 SUB DUP2 DUP7 GAS STATICCALL ISZERO DUP1 ISZERO PUSH3 0xAD JUMPI RETURNDATASIZE PUSH1 0x0 DUP1 RETURNDATACOPY RETURNDATASIZE PUSH1 0x0 REVERT JUMPDEST POP POP POP POP PUSH1 0x40 MLOAD RETURNDATASIZE PUSH1 0x1F NOT PUSH1 0x1F DUP3 ADD AND DUP3 ADD DUP1 PUSH1 0x40 MSTORE POP DUP2 ADD SWAP1 PUSH3 0xD3 SWAP2 SWAP1 PUSH3 0x961 JUMP JUMPDEST SWAP3 POP SWAP3 POP SWAP3 POP DUP3 DUP3 DUP3 DUP1 ISZERO ISZERO PUSH1 0x80 SWAP1 ISZERO ISZERO DUP2 MSTORE POP DUP2 PUSH20 0xFFFFFFFFFFFFFFFFFFFFFFFFFFFFFFFFFFFFFFFF AND PUSH1 0xC0 SWAP1 PUSH20 0xFFFFFFFFFFFFFFFFFFFFFFFFFFFFFFFFFFFFFFFF AND DUP2 MSTORE POP DUP3 PUSH20 0xFFFFFFFFFFFFFFFFFFFFFFFFFFFFFFFFFFFFFFFF AND PUSH1 0xA0 SWAP1 PUSH20 0xFFFFFFFFFFFFFFFFFFFFFFFFFFFFFFFFFFFFFFFF AND DUP2 MSTORE POP POP POP POP DUP3 DUP3 PUSH1 0x40 MLOAD PUSH3 0x160 SWAP1 PUSH3 0x7ED JUMP JUMPDEST PUSH3 0x16D SWAP3 SWAP2 SWAP1 PUSH3 0x9CE JUMP JUMPDEST PUSH1 0x40 MLOAD DUP1 SWAP2 SUB SWAP1 PUSH1 0x0 CREATE DUP1 ISZERO DUP1 ISZERO PUSH3 0x18A JUMPI RETURNDATASIZE PUSH1 0x0 DUP1 RETURNDATACOPY RETURNDATASIZE PUSH1 0x0 REVERT JUMPDEST POP PUSH20 0xFFFFFFFFFFFFFFFFFFFFFFFFFFFFFFFFFFFFFFFF AND PUSH1 0xE0 DUP2 PUSH20 0xFFFFFFFFFFFFFFFFFFFFFFFFFFFFFFFFFFFFFFFF AND DUP2 MSTORE POP POP DUP1 ISZERO PUSH3 0x41B JUMPI DUP3 PUSH20 0xFFFFFFFFFFFFFFFFFFFFFFFFFFFFFFFFFFFFFFFF AND PUSH4 0x95D89B41 PUSH1 0x40 MLOAD DUP2 PUSH4 0xFFFFFFFF AND PUSH1 0xE0 SHL DUP2 MSTORE PUSH1 0x4 ADD PUSH1 0x0 PUSH1 0x40 MLOAD DUP1 DUP4 SUB DUP2 DUP7 GAS STATICCALL ISZERO DUP1 ISZERO PUSH3 0x211 JUMPI RETURNDATASIZE PUSH1 0x0 DUP1 RETURNDATACOPY RETURNDATASIZE PUSH1 0x0 REVERT JUMPDEST POP POP POP POP PUSH1 0x40 MLOAD RETURNDATASIZE PUSH1 0x0 DUP3 RETURNDATACOPY RETURNDATASIZE PUSH1 0x1F NOT PUSH1 0x1F DUP3 ADD AND DUP3 ADD DUP1 PUSH1 0x40 MSTORE POP DUP2 ADD SWAP1 PUSH3 0x23C SWAP2 SWAP1 PUSH3 0xB84 JUMP JUMPDEST DUP3 PUSH20 0xFFFFFFFFFFFFFFFFFFFFFFFFFFFFFFFFFFFFFFFF AND PUSH4 0x95D89B41 PUSH1 0x40 MLOAD DUP2 PUSH4 0xFFFFFFFF AND PUSH1 0xE0 SHL DUP2 MSTORE PUSH1 0x4 ADD PUSH1 0x0 PUSH1 0x40 MLOAD DUP1 DUP4 SUB DUP2 DUP7 GAS STATICCALL ISZERO DUP1 ISZERO PUSH3 0x288 JUMPI RETURNDATASIZE PUSH1 0x0 DUP1 RETURNDATACOPY RETURNDATASIZE PUSH1 0x0 REVERT JUMPDEST POP POP POP POP PUSH1 0x40 MLOAD RETURNDATASIZE PUSH1 0x0 DUP3 RETURNDATACOPY RETURNDATASIZE PUSH1 0x1F NOT PUSH1 0x1F DUP3 ADD AND DUP3 ADD DUP1 PUSH1 0x40 MSTORE POP DUP2 ADD SWAP1 PUSH3 0x2B3 SWAP2 SWAP1 PUSH3 0xB84 JUMP JUMPDEST PUSH1 0x40 MLOAD PUSH1 0x20 ADD PUSH3 0x2C6 SWAP3 SWAP2 SWAP1 PUSH3 0xCC2 JUMP JUMPDEST PUSH1 0x40 MLOAD PUSH1 0x20 DUP2 DUP4 SUB SUB DUP2 MSTORE SWAP1 PUSH1 0x40 MSTORE PUSH1 0x0 SWAP1 DUP1 MLOAD SWAP1 PUSH1 0x20 ADD SWAP1 PUSH3 0x2EC SWAP3 SWAP2 SWAP1 PUSH3 0x7FB JUMP JUMPDEST POP DUP3 PUSH20 0xFFFFFFFFFFFFFFFFFFFFFFFFFFFFFFFFFFFFFFFF AND PUSH4 0x95D89B41 PUSH1 0x40 MLOAD DUP2 PUSH4 0xFFFFFFFF AND PUSH1 0xE0 SHL DUP2 MSTORE PUSH1 0x4 ADD PUSH1 0x0 PUSH1 0x40 MLOAD DUP1 DUP4 SUB DUP2 DUP7 GAS STATICCALL ISZERO DUP1 ISZERO PUSH3 0x339 JUMPI RETURNDATASIZE PUSH1 0x0 DUP1 RETURNDATACOPY RETURNDATASIZE PUSH1 0x0 REVERT JUMPDEST POP POP POP POP PUSH1 0x40 MLOAD RETURNDATASIZE PUSH1 0x0 DUP3 RETURNDATACOPY RETURNDATASIZE PUSH1 0x1F NOT PUSH1 0x1F DUP3 ADD AND DUP3 ADD DUP1 PUSH1 0x40 MSTORE POP DUP2 ADD SWAP1 PUSH3 0x364 SWAP2 SWAP1 PUSH3 0xB84 JUMP JUMPDEST DUP3 PUSH20 0xFFFFFFFFFFFFFFFFFFFFFFFFFFFFFFFFFFFFFFFF AND PUSH4 0x95D89B41 PUSH1 0x40 MLOAD DUP2 PUSH4 0xFFFFFFFF AND PUSH1 0xE0 SHL DUP2 MSTORE PUSH1 0x4 ADD PUSH1 0x0 PUSH1 0x40 MLOAD DUP1 DUP4 SUB DUP2 DUP7 GAS STATICCALL ISZERO DUP1 ISZERO PUSH3 0x3B0 JUMPI RETURNDATASIZE PUSH1 0x0 DUP1 RETURNDATACOPY RETURNDATASIZE PUSH1 0x0 REVERT JUMPDEST POP POP POP POP PUSH1 0x40 MLOAD RETURNDATASIZE PUSH1 0x0 DUP3 RETURNDATACOPY RETURNDATASIZE PUSH1 0x1F NOT PUSH1 0x1F DUP3 ADD AND DUP3 ADD DUP1 PUSH1 0x40 MSTORE POP DUP2 ADD SWAP1 PUSH3 0x3DB SWAP2 SWAP1 PUSH3 0xB84 JUMP JUMPDEST PUSH1 0x40 MLOAD PUSH1 0x20 ADD PUSH3 0x3EE SWAP3 SWAP2 SWAP1 PUSH3 0xD54 JUMP JUMPDEST PUSH1 0x40 MLOAD PUSH1 0x20 DUP2 DUP4 SUB SUB DUP2 MSTORE SWAP1 PUSH1 0x40 MSTORE PUSH1 0x1 SWAP1 DUP1 MLOAD SWAP1 PUSH1 0x20 ADD SWAP1 PUSH3 0x414 SWAP3 SWAP2 SWAP1 PUSH3 0x7FB JUMP JUMPDEST POP PUSH3 0x66C JUMP JUMPDEST DUP3 PUSH20 0xFFFFFFFFFFFFFFFFFFFFFFFFFFFFFFFFFFFFFFFF AND PUSH4 0x95D89B41 PUSH1 0x40 MLOAD DUP2 PUSH4 0xFFFFFFFF AND PUSH1 0xE0 SHL DUP2 MSTORE PUSH1 0x4 ADD PUSH1 0x0 PUSH1 0x40 MLOAD DUP1 DUP4 SUB DUP2 DUP7 GAS STATICCALL ISZERO DUP1 ISZERO PUSH3 0x467 JUMPI RETURNDATASIZE PUSH1 0x0 DUP1 RETURNDATACOPY RETURNDATASIZE PUSH1 0x0 REVERT JUMPDEST POP POP POP POP PUSH1 0x40 MLOAD RETURNDATASIZE PUSH1 0x0 DUP3 RETURNDATACOPY RETURNDATASIZE PUSH1 0x1F NOT PUSH1 0x1F DUP3 ADD AND DUP3 ADD DUP1 PUSH1 0x40 MSTORE POP DUP2 ADD SWAP1 PUSH3 0x492 SWAP2 SWAP1 PUSH3 0xB84 JUMP JUMPDEST DUP3 PUSH20 0xFFFFFFFFFFFFFFFFFFFFFFFFFFFFFFFFFFFFFFFF AND PUSH4 0x95D89B41 PUSH1 0x40 MLOAD DUP2 PUSH4 0xFFFFFFFF AND PUSH1 0xE0 SHL DUP2 MSTORE PUSH1 0x4 ADD PUSH1 0x0 PUSH1 0x40 MLOAD DUP1 DUP4 SUB DUP2 DUP7 GAS STATICCALL ISZERO DUP1 ISZERO PUSH3 0x4DE JUMPI RETURNDATASIZE PUSH1 0x0 DUP1 RETURNDATACOPY RETURNDATASIZE PUSH1 0x0 REVERT JUMPDEST POP POP POP POP PUSH1 0x40 MLOAD RETURNDATASIZE PUSH1 0x0 DUP3 RETURNDATACOPY RETURNDATASIZE PUSH1 0x1F NOT PUSH1 0x1F DUP3 ADD AND DUP3 ADD DUP1 PUSH1 0x40 MSTORE POP DUP2 ADD SWAP1 PUSH3 0x509 SWAP2 SWAP1 PUSH3 0xB84 JUMP JUMPDEST PUSH1 0x40 MLOAD PUSH1 0x20 ADD PUSH3 0x51C SWAP3 SWAP2 SWAP1 PUSH3 0xDE6 JUMP JUMPDEST PUSH1 0x40 MLOAD PUSH1 0x20 DUP2 DUP4 SUB SUB DUP2 MSTORE SWAP1 PUSH1 0x40 MSTORE PUSH1 0x0 SWAP1 DUP1 MLOAD SWAP1 PUSH1 0x20 ADD SWAP1 PUSH3 0x542 SWAP3 SWAP2 SWAP1 PUSH3 0x7FB JUMP JUMPDEST POP DUP3 PUSH20 0xFFFFFFFFFFFFFFFFFFFFFFFFFFFFFFFFFFFFFFFF AND PUSH4 0x95D89B41 PUSH1 0x40 MLOAD DUP2 PUSH4 0xFFFFFFFF AND PUSH1 0xE0 SHL DUP2 MSTORE PUSH1 0x4 ADD PUSH1 0x0 PUSH1 0x40 MLOAD DUP1 DUP4 SUB DUP2 DUP7 GAS STATICCALL ISZERO DUP1 ISZERO PUSH3 0x58F JUMPI RETURNDATASIZE PUSH1 0x0 DUP1 RETURNDATACOPY RETURNDATASIZE PUSH1 0x0 REVERT JUMPDEST POP POP POP POP PUSH1 0x40 MLOAD RETURNDATASIZE PUSH1 0x0 DUP3 RETURNDATACOPY RETURNDATASIZE PUSH1 0x1F NOT PUSH1 0x1F DUP3 ADD AND DUP3 ADD DUP1 PUSH1 0x40 MSTORE POP DUP2 ADD SWAP1 PUSH3 0x5BA SWAP2 SWAP1 PUSH3 0xB84 JUMP JUMPDEST DUP3 PUSH20 0xFFFFFFFFFFFFFFFFFFFFFFFFFFFFFFFFFFFFFFFF AND PUSH4 0x95D89B41 PUSH1 0x40 MLOAD DUP2 PUSH4 0xFFFFFFFF AND PUSH1 0xE0 SHL DUP2 MSTORE PUSH1 0x4 ADD PUSH1 0x0 PUSH1 0x40 MLOAD DUP1 DUP4 SUB DUP2 DUP7 GAS STATICCALL ISZERO DUP1 ISZERO PUSH3 0x606 JUMPI RETURNDATASIZE PUSH1 0x0 DUP1 RETURNDATACOPY RETURNDATASIZE PUSH1 0x0 REVERT JUMPDEST POP POP POP POP PUSH1 0x40 MLOAD RETURNDATASIZE PUSH1 0x0 DUP3 RETURNDATACOPY RETURNDATASIZE PUSH1 0x1F NOT PUSH1 0x1F DUP3 ADD AND DUP3 ADD DUP1 PUSH1 0x40 MSTORE POP DUP2 ADD SWAP1 PUSH3 0x631 SWAP2 SWAP1 PUSH3 0xB84 JUMP JUMPDEST PUSH1 0x40 MLOAD PUSH1 0x20 ADD PUSH3 0x644 SWAP3 SWAP2 SWAP1 PUSH3 0xE78 JUMP JUMPDEST PUSH1 0x40 MLOAD PUSH1 0x20 DUP2 DUP4 SUB SUB DUP2 MSTORE SWAP1 PUSH1 0x40 MSTORE PUSH1 0x1 SWAP1 DUP1 MLOAD SWAP1 PUSH1 0x20 ADD SWAP1 PUSH3 0x66A SWAP3 SWAP2 SWAP1 PUSH3 0x7FB JUMP JUMPDEST POP JUMPDEST DUP3 PUSH20 0xFFFFFFFFFFFFFFFFFFFFFFFFFFFFFFFFFFFFFFFF AND PUSH4 0x313CE567 PUSH1 0x40 MLOAD DUP2 PUSH4 0xFFFFFFFF AND PUSH1 0xE0 SHL DUP2 MSTORE PUSH1 0x4 ADD PUSH1 0x20 PUSH1 0x40 MLOAD DUP1 DUP4 SUB DUP2 DUP7 GAS STATICCALL ISZERO DUP1 ISZERO PUSH3 0x6B8 JUMPI RETURNDATASIZE PUSH1 0x0 DUP1 RETURNDATACOPY RETURNDATASIZE PUSH1 0x0 REVERT JUMPDEST POP POP POP POP PUSH1 0x40 MLOAD RETURNDATASIZE PUSH1 0x1F NOT PUSH1 0x1F DUP3 ADD AND DUP3 ADD DUP1 PUSH1 0x40 MSTORE POP DUP2 ADD SWAP1 PUSH3 0x6DE SWAP2 SWAP1 PUSH3 0xEF8 JUMP JUMPDEST PUSH1 0xA PUSH3 0x6EC SWAP2 SWAP1 PUSH3 0x10B7 JUMP JUMPDEST PUSH2 0x120 DUP2 DUP2 MSTORE POP POP DUP2 PUSH20 0xFFFFFFFFFFFFFFFFFFFFFFFFFFFFFFFFFFFFFFFF AND PUSH4 0x313CE567 PUSH1 0x40 MLOAD DUP2 PUSH4 0xFFFFFFFF AND PUSH1 0xE0 SHL DUP2 MSTORE PUSH1 0x4 ADD PUSH1 0x20 PUSH1 0x40 MLOAD DUP1 DUP4 SUB DUP2 DUP7 GAS STATICCALL ISZERO DUP1 ISZERO PUSH3 0x740 JUMPI RETURNDATASIZE PUSH1 0x0 DUP1 RETURNDATACOPY RETURNDATASIZE PUSH1 0x0 REVERT JUMPDEST POP POP POP POP PUSH1 0x40 MLOAD RETURNDATASIZE PUSH1 0x1F NOT PUSH1 0x1F DUP3 ADD AND DUP3 ADD DUP1 PUSH1 0x40 MSTORE POP DUP2 ADD SWAP1 PUSH3 0x766 SWAP2 SWAP1 PUSH3 0xEF8 JUMP JUMPDEST PUSH1 0xA PUSH3 0x774 SWAP2 SWAP1 PUSH3 0x10B7 JUMP JUMPDEST PUSH2 0x140 DUP2 DUP2 MSTORE POP POP PUSH1 0x7 PUSH1 0x40 MLOAD DUP1 PUSH1 0x60 ADD PUSH1 0x40 MSTORE DUP1 TIMESTAMP DUP2 MSTORE PUSH1 0x20 ADD PUSH1 0x0 DUP2 MSTORE PUSH1 0x20 ADD PUSH1 0x0 DUP2 MSTORE POP SWAP1 DUP1 PUSH1 0x1 DUP2 SLOAD ADD DUP1 DUP3 SSTORE DUP1 SWAP2 POP POP PUSH1 0x1 SWAP1 SUB SWAP1 PUSH1 0x0 MSTORE PUSH1 0x20 PUSH1 0x0 KECCAK256 SWAP1 PUSH1 0x3 MUL ADD PUSH1 0x0 SWAP1 SWAP2 SWAP1 SWAP2 SWAP1 SWAP2 POP PUSH1 0x0 DUP3 ADD MLOAD DUP2 PUSH1 0x0 ADD SSTORE PUSH1 0x20 DUP3 ADD MLOAD DUP2 PUSH1 0x1 ADD SSTORE PUSH1 0x40 DUP3 ADD MLOAD DUP2 PUSH1 0x2 ADD SSTORE POP POP POP POP POP PUSH3 0x116C JUMP JUMPDEST PUSH2 0x9D4 DUP1 PUSH3 0x6EF7 DUP4 CODECOPY ADD SWAP1 JUMP JUMPDEST DUP3 DUP1 SLOAD PUSH3 0x809 SWAP1 PUSH3 0x1137 JUMP JUMPDEST SWAP1 PUSH1 0x0 MSTORE PUSH1 0x20 PUSH1 0x0 KECCAK256 SWAP1 PUSH1 0x1F ADD PUSH1 0x20 SWAP1 DIV DUP2 ADD SWAP3 DUP3 PUSH3 0x82D JUMPI PUSH1 0x0 DUP6 SSTORE PUSH3 0x879 JUMP JUMPDEST DUP3 PUSH1 0x1F LT PUSH3 0x848 JUMPI DUP1 MLOAD PUSH1 0xFF NOT AND DUP4 DUP1 ADD OR DUP6 SSTORE PUSH3 0x879 JUMP JUMPDEST DUP3 DUP1 ADD PUSH1 0x1 ADD DUP6 SSTORE DUP3 ISZERO PUSH3 0x879 JUMPI SWAP2 DUP3 ADD JUMPDEST DUP3 DUP2 GT ISZERO PUSH3 0x878 JUMPI DUP3 MLOAD DUP3 SSTORE SWAP2 PUSH1 0x20 ADD SWAP2 SWAP1 PUSH1 0x1 ADD SWAP1 PUSH3 0x85B JUMP JUMPDEST JUMPDEST POP SWAP1 POP PUSH3 0x888 SWAP2 SWAP1 PUSH3 0x88C JUMP JUMPDEST POP SWAP1 JUMP JUMPDEST JUMPDEST DUP1 DUP3 GT ISZERO PUSH3 0x8A7 JUMPI PUSH1 0x0 DUP2 PUSH1 0x0 SWAP1 SSTORE POP PUSH1 0x1 ADD PUSH3 0x88D JUMP JUMPDEST POP SWAP1 JUMP JUMPDEST PUSH1 0x0 PUSH1 0x40 MLOAD SWAP1 POP SWAP1 JUMP JUMPDEST PUSH1 0x0 DUP1 REVERT JUMPDEST PUSH1 0x0 DUP1 REVERT JUMPDEST PUSH1 0x0 PUSH20 0xFFFFFFFFFFFFFFFFFFFFFFFFFFFFFFFFFFFFFFFF DUP3 AND SWAP1 POP SWAP2 SWAP1 POP JUMP JUMPDEST PUSH1 0x0 PUSH3 0x8EC DUP3 PUSH3 0x8BF JUMP JUMPDEST SWAP1 POP SWAP2 SWAP1 POP JUMP JUMPDEST PUSH3 0x8FE DUP2 PUSH3 0x8DF JUMP JUMPDEST DUP2 EQ PUSH3 0x90A JUMPI PUSH1 0x0 DUP1 REVERT JUMPDEST POP JUMP JUMPDEST PUSH1 0x0 DUP2 MLOAD SWAP1 POP PUSH3 0x91E DUP2 PUSH3 0x8F3 JUMP JUMPDEST SWAP3 SWAP2 POP POP JUMP JUMPDEST PUSH1 0x0 DUP2 ISZERO ISZERO SWAP1 POP SWAP2 SWAP1 POP JUMP JUMPDEST PUSH3 0x93B DUP2 PUSH3 0x924 JUMP JUMPDEST DUP2 EQ PUSH3 0x947 JUMPI PUSH1 0x0 DUP1 REVERT JUMPDEST POP JUMP JUMPDEST PUSH1 0x0 DUP2 MLOAD SWAP1 POP PUSH3 0x95B DUP2 PUSH3 0x930 JUMP JUMPDEST SWAP3 SWAP2 POP POP JUMP JUMPDEST PUSH1 0x0 DUP1 PUSH1 0x0 PUSH1 0x60 DUP5 DUP7 SUB SLT ISZERO PUSH3 0x97D JUMPI PUSH3 0x97C PUSH3 0x8B5 JUMP JUMPDEST JUMPDEST PUSH1 0x0 PUSH3 0x98D DUP7 DUP3 DUP8 ADD PUSH3 0x90D JUMP JUMPDEST SWAP4 POP POP PUSH1 0x20 PUSH3 0x9A0 DUP7 DUP3 DUP8 ADD PUSH3 0x90D JUMP JUMPDEST SWAP3 POP POP PUSH1 0x40 PUSH3 0x9B3 DUP7 DUP3 DUP8 ADD PUSH3 0x94A JUMP JUMPDEST SWAP2 POP POP SWAP3 POP SWAP3 POP SWAP3 JUMP JUMPDEST PUSH3 0x9C8 DUP2 PUSH3 0x8DF JUMP JUMPDEST DUP3 MSTORE POP POP JUMP JUMPDEST PUSH1 0x0 PUSH1 0x40 DUP3 ADD SWAP1 POP PUSH3 0x9E5 PUSH1 0x0 DUP4 ADD DUP6 PUSH3 0x9BD JUMP JUMPDEST PUSH3 0x9F4 PUSH1 0x20 DUP4 ADD DUP5 PUSH3 0x9BD JUMP JUMPDEST SWAP4 SWAP3 POP POP POP JUMP JUMPDEST PUSH1 0x0 DUP1 REVERT JUMPDEST PUSH1 0x0 DUP1 REVERT JUMPDEST PUSH1 0x0 PUSH1 0x1F NOT PUSH1 0x1F DUP4 ADD AND SWAP1 POP SWAP2 SWAP1 POP JUMP JUMPDEST PUSH32 0x4E487B7100000000000000000000000000000000000000000000000000000000 PUSH1 0x0 MSTORE PUSH1 0x41 PUSH1 0x4 MSTORE PUSH1 0x24 PUSH1 0x0 REVERT JUMPDEST PUSH3 0xA50 DUP3 PUSH3 0xA05 JUMP JUMPDEST DUP2 ADD DUP2 DUP2 LT PUSH8 0xFFFFFFFFFFFFFFFF DUP3 GT OR ISZERO PUSH3 0xA72 JUMPI PUSH3 0xA71 PUSH3 0xA16 JUMP JUMPDEST JUMPDEST DUP1 PUSH1 0x40 MSTORE POP POP POP JUMP JUMPDEST PUSH1 0x0 PUSH3 0xA87 PUSH3 0x8AB JUMP JUMPDEST SWAP1 POP PUSH3 0xA95 DUP3 DUP3 PUSH3 0xA45 JUMP JUMPDEST SWAP2 SWAP1 POP JUMP JUMPDEST PUSH1 0x0 PUSH8 0xFFFFFFFFFFFFFFFF DUP3 GT ISZERO PUSH3 0xAB8 JUMPI PUSH3 0xAB7 PUSH3 0xA16 JUMP JUMPDEST JUMPDEST PUSH3 0xAC3 DUP3 PUSH3 0xA05 JUMP JUMPDEST SWAP1 POP PUSH1 0x20 DUP2 ADD SWAP1 POP SWAP2 SWAP1 POP JUMP JUMPDEST PUSH1 0x0 JUMPDEST DUP4 DUP2 LT ISZERO PUSH3 0xAF0 JUMPI DUP1 DUP3 ADD MLOAD DUP2 DUP5 ADD MSTORE PUSH1 0x20 DUP2 ADD SWAP1 POP PUSH3 0xAD3 JUMP JUMPDEST DUP4 DUP2 GT ISZERO PUSH3 0xB00 JUMPI PUSH1 0x0 DUP5 DUP5 ADD MSTORE JUMPDEST POP POP POP POP JUMP JUMPDEST PUSH1 0x0 PUSH3 0xB1D PUSH3 0xB17 DUP5 PUSH3 0xA9A JUMP JUMPDEST PUSH3 0xA7B JUMP JUMPDEST SWAP1 POP DUP3 DUP2 MSTORE PUSH1 0x20 DUP2 ADD DUP5 DUP5 DUP5 ADD GT ISZERO PUSH3 0xB3C JUMPI PUSH3 0xB3B PUSH3 0xA00 JUMP JUMPDEST JUMPDEST PUSH3 0xB49 DUP5 DUP3 DUP6 PUSH3 0xAD0 JUMP JUMPDEST POP SWAP4 SWAP3 POP POP POP JUMP JUMPDEST PUSH1 0x0 DUP3 PUSH1 0x1F DUP4 ADD SLT PUSH3 0xB69 JUMPI PUSH3 0xB68 PUSH3 0x9FB JUMP JUMPDEST JUMPDEST DUP2 MLOAD PUSH3 0xB7B DUP5 DUP3 PUSH1 0x20 DUP7 ADD PUSH3 0xB06 JUMP JUMPDEST SWAP2 POP POP SWAP3 SWAP2 POP POP JUMP JUMPDEST PUSH1 0x0 PUSH1 0x20 DUP3 DUP5 SUB SLT ISZERO PUSH3 0xB9D JUMPI PUSH3 0xB9C PUSH3 0x8B5 JUMP JUMPDEST JUMPDEST PUSH1 0x0 DUP3 ADD MLOAD PUSH8 0xFFFFFFFFFFFFFFFF DUP2 GT ISZERO PUSH3 0xBBE JUMPI PUSH3 0xBBD PUSH3 0x8BA JUMP JUMPDEST JUMPDEST PUSH3 0xBCC DUP5 DUP3 DUP6 ADD PUSH3 0xB51 JUMP JUMPDEST SWAP2 POP POP SWAP3 SWAP2 POP POP JUMP JUMPDEST PUSH1 0x0 DUP2 SWAP1 POP SWAP3 SWAP2 POP POP JUMP JUMPDEST PUSH32 0x537461626C65563120414D4D202D200000000000000000000000000000000000 PUSH1 0x0 DUP3 ADD MSTORE POP JUMP JUMPDEST PUSH1 0x0 PUSH3 0xC18 PUSH1 0xF DUP4 PUSH3 0xBD5 JUMP JUMPDEST SWAP2 POP PUSH3 0xC25 DUP3 PUSH3 0xBE0 JUMP JUMPDEST PUSH1 0xF DUP3 ADD SWAP1 POP SWAP2 SWAP1 POP JUMP JUMPDEST PUSH1 0x0 DUP2 MLOAD SWAP1 POP SWAP2 SWAP1 POP JUMP JUMPDEST PUSH1 0x0 PUSH3 0xC48 DUP3 PUSH3 0xC30 JUMP JUMPDEST PUSH3 0xC54 DUP2 DUP6 PUSH3 0xBD5 JUMP JUMPDEST SWAP4 POP PUSH3 0xC66 DUP2 DUP6 PUSH1 0x20 DUP7 ADD PUSH3 0xAD0 JUMP JUMPDEST DUP1 DUP5 ADD SWAP2 POP POP SWAP3 SWAP2 POP POP JUMP JUMPDEST PUSH32 0x2F00000000000000000000000000000000000000000000000000000000000000 PUSH1 0x0 DUP3 ADD MSTORE POP JUMP JUMPDEST PUSH1 0x0 PUSH3 0xCAA PUSH1 0x1 DUP4 PUSH3 0xBD5 JUMP JUMPDEST SWAP2 POP PUSH3 0xCB7 DUP3 PUSH3 0xC72 JUMP JUMPDEST PUSH1 0x1 DUP3 ADD SWAP1 POP SWAP2 SWAP1 POP JUMP JUMPDEST PUSH1 0x0 PUSH3 0xCCF DUP3 PUSH3 0xC09 JUMP JUMPDEST SWAP2 POP PUSH3 0xCDD DUP3 DUP6 PUSH3 0xC3B JUMP JUMPDEST SWAP2 POP PUSH3 0xCEA DUP3 PUSH3 0xC9B JUMP JUMPDEST SWAP2 POP PUSH3 0xCF8 DUP3 DUP5 PUSH3 0xC3B JUMP JUMPDEST SWAP2 POP DUP2 SWAP1 POP SWAP4 SWAP3 POP POP POP JUMP JUMPDEST PUSH32 0x73414D4D2D000000000000000000000000000000000000000000000000000000 PUSH1 0x0 DUP3 ADD MSTORE POP JUMP JUMPDEST PUSH1 0x0 PUSH3 0xD3C PUSH1 0x5 DUP4 PUSH3 0xBD5 JUMP JUMPDEST SWAP2 POP PUSH3 0xD49 DUP3 PUSH3 0xD04 JUMP JUMPDEST PUSH1 0x5 DUP3 ADD SWAP1 POP SWAP2 SWAP1 POP JUMP JUMPDEST PUSH1 0x0 PUSH3 0xD61 DUP3 PUSH3 0xD2D JUMP JUMPDEST SWAP2 POP PUSH3 0xD6F DUP3 DUP6 PUSH3 0xC3B JUMP JUMPDEST SWAP2 POP PUSH3 0xD7C DUP3 PUSH3 0xC9B JUMP JUMPDEST SWAP2 POP PUSH3 0xD8A DUP3 DUP5 PUSH3 0xC3B JUMP JUMPDEST SWAP2 POP DUP2 SWAP1 POP SWAP4 SWAP3 POP POP POP JUMP JUMPDEST PUSH32 0x566F6C6174696C65563120414D4D202D20000000000000000000000000000000 PUSH1 0x0 DUP3 ADD MSTORE POP JUMP JUMPDEST PUSH1 0x0 PUSH3 0xDCE PUSH1 0x11 DUP4 PUSH3 0xBD5 JUMP JUMPDEST SWAP2 POP PUSH3 0xDDB DUP3 PUSH3 0xD96 JUMP JUMPDEST PUSH1 0x11 DUP3 ADD SWAP1 POP SWAP2 SWAP1 POP JUMP JUMPDEST PUSH1 0x0 PUSH3 0xDF3 DUP3 PUSH3 0xDBF JUMP JUMPDEST SWAP2 POP PUSH3 0xE01 DUP3 DUP6 PUSH3 0xC3B JUMP JUMPDEST SWAP2 POP PUSH3 0xE0E DUP3 PUSH3 0xC9B JUMP JUMPDEST SWAP2 POP PUSH3 0xE1C DUP3 DUP5 PUSH3 0xC3B JUMP JUMPDEST SWAP2 POP DUP2 SWAP1 POP SWAP4 SWAP3 POP POP POP JUMP JUMPDEST PUSH32 0x76414D4D2D000000000000000000000000000000000000000000000000000000 PUSH1 0x0 DUP3 ADD MSTORE POP JUMP JUMPDEST PUSH1 0x0 PUSH3 0xE60 PUSH1 0x5 DUP4 PUSH3 0xBD5 JUMP JUMPDEST SWAP2 POP PUSH3 0xE6D DUP3 PUSH3 0xE28 JUMP JUMPDEST PUSH1 0x5 DUP3 ADD SWAP1 POP SWAP2 SWAP1 POP JUMP JUMPDEST PUSH1 0x0 PUSH3 0xE85 DUP3 PUSH3 0xE51 JUMP JUMPDEST SWAP2 POP PUSH3 0xE93 DUP3 DUP6 PUSH3 0xC3B JUMP JUMPDEST SWAP2 POP PUSH3 0xEA0 DUP3 PUSH3 0xC9B JUMP JUMPDEST SWAP2 POP PUSH3 0xEAE DUP3 DUP5 PUSH3 0xC3B JUMP JUMPDEST SWAP2 POP DUP2 SWAP1 POP SWAP4 SWAP3 POP POP POP JUMP JUMPDEST PUSH1 0x0 PUSH1 0xFF DUP3 AND SWAP1 POP SWAP2 SWAP1 POP JUMP JUMPDEST PUSH3 0xED2 DUP2 PUSH3 0xEBA JUMP JUMPDEST DUP2 EQ PUSH3 0xEDE JUMPI PUSH1 0x0 DUP1 REVERT JUMPDEST POP JUMP JUMPDEST PUSH1 0x0 DUP2 MLOAD SWAP1 POP PUSH3 0xEF2 DUP2 PUSH3 0xEC7 JUMP JUMPDEST SWAP3 SWAP2 POP POP JUMP JUMPDEST PUSH1 0x0 PUSH1 0x20 DUP3 DUP5 SUB SLT ISZERO PUSH3 0xF11 JUMPI PUSH3 0xF10 PUSH3 0x8B5 JUMP JUMPDEST JUMPDEST PUSH1 0x0 PUSH3 0xF21 DUP5 DUP3 DUP6 ADD PUSH3 0xEE1 JUMP JUMPDEST SWAP2 POP POP SWAP3 SWAP2 POP POP JUMP JUMPDEST PUSH32 0x4E487B7100000000000000000000000000000000000000000000000000000000 PUSH1 0x0 MSTORE PUSH1 0x11 PUSH1 0x4 MSTORE PUSH1 0x24 PUSH1 0x0 REVERT JUMPDEST PUSH1 0x0 DUP2 PUSH1 0x1 SHR SWAP1 POP SWAP2 SWAP1 POP JUMP JUMPDEST PUSH1 0x0 DUP1 DUP3 SWAP2 POP DUP4 SWAP1 POP JUMPDEST PUSH1 0x1 DUP6 GT ISZERO PUSH3 0xFB8 JUMPI DUP1 DUP7 DIV DUP2 GT ISZERO PUSH3 0xF90 JUMPI PUSH3 0xF8F PUSH3 0xF2A JUMP JUMPDEST JUMPDEST PUSH1 0x1 DUP6 AND ISZERO PUSH3 0xFA0 JUMPI DUP1 DUP3 MUL SWAP2 POP JUMPDEST DUP1 DUP2 MUL SWAP1 POP PUSH3 0xFB0 DUP6 PUSH3 0xF59 JUMP JUMPDEST SWAP5 POP PUSH3 0xF70 JUMP JUMPDEST SWAP5 POP SWAP5 SWAP3 POP POP POP JUMP JUMPDEST PUSH1 0x0 DUP3 PUSH3 0xFD3 JUMPI PUSH1 0x1 SWAP1 POP PUSH3 0x10A6 JUMP JUMPDEST DUP2 PUSH3 0xFE3 JUMPI PUSH1 0x0 SWAP1 POP PUSH3 0x10A6 JUMP JUMPDEST DUP2 PUSH1 0x1 DUP2 EQ PUSH3 0xFFC JUMPI PUSH1 0x2 DUP2 EQ PUSH3 0x1007 JUMPI PUSH3 0x103D JUMP JUMPDEST PUSH1 0x1 SWAP2 POP POP PUSH3 0x10A6 JUMP JUMPDEST PUSH1 0xFF DUP5 GT ISZERO PUSH3 0x101C JUMPI PUSH3 0x101B PUSH3 0xF2A JUMP JUMPDEST JUMPDEST DUP4 PUSH1 0x2 EXP SWAP2 POP DUP5 DUP3 GT ISZERO PUSH3 0x1036 JUMPI PUSH3 0x1035 PUSH3 0xF2A JUMP JUMPDEST JUMPDEST POP PUSH3 0x10A6 JUMP JUMPDEST POP PUSH1 0x20 DUP4 LT PUSH2 0x133 DUP4 LT AND PUSH1 0x4E DUP5 LT PUSH1 0xB DUP5 LT AND OR ISZERO PUSH3 0x1077 JUMPI DUP3 DUP3 EXP SWAP1 POP DUP4 DUP2 GT ISZERO PUSH3 0x1071 JUMPI PUSH3 0x1070 PUSH3 0xF2A JUMP JUMPDEST JUMPDEST PUSH3 0x10A6 JUMP JUMPDEST PUSH3 0x1086 DUP5 DUP5 DUP5 PUSH1 0x1 PUSH3 0xF66 JUMP JUMPDEST SWAP3 POP SWAP1 POP DUP2 DUP5 DIV DUP2 GT ISZERO PUSH3 0x10A0 JUMPI PUSH3 0x109F PUSH3 0xF2A JUMP JUMPDEST JUMPDEST DUP2 DUP2 MUL SWAP1 POP JUMPDEST SWAP4 SWAP3 POP POP POP JUMP JUMPDEST PUSH1 0x0 DUP2 SWAP1 POP SWAP2 SWAP1 POP JUMP JUMPDEST PUSH1 0x0 PUSH3 0x10C4 DUP3 PUSH3 0x10AD JUMP JUMPDEST SWAP2 POP PUSH3 0x10D1 DUP4 PUSH3 0xEBA JUMP JUMPDEST SWAP3 POP PUSH3 0x1100 PUSH32 0xFFFFFFFFFFFFFFFFFFFFFFFFFFFFFFFFFFFFFFFFFFFFFFFFFFFFFFFFFFFFFFFF DUP5 DUP5 PUSH3 0xFC1 JUMP JUMPDEST SWAP1 POP SWAP3 SWAP2 POP POP JUMP JUMPDEST PUSH32 0x4E487B7100000000000000000000000000000000000000000000000000000000 PUSH1 0x0 MSTORE PUSH1 0x22 PUSH1 0x4 MSTORE PUSH1 0x24 PUSH1 0x0 REVERT JUMPDEST PUSH1 0x0 PUSH1 0x2 DUP3 DIV SWAP1 POP PUSH1 0x1 DUP3 AND DUP1 PUSH3 0x1150 JUMPI PUSH1 0x7F DUP3 AND SWAP2 POP JUMPDEST PUSH1 0x20 DUP3 LT DUP2 SUB PUSH3 0x1166 JUMPI PUSH3 0x1165 PUSH3 0x1108 JUMP JUMPDEST JUMPDEST POP SWAP2 SWAP1 POP JUMP JUMPDEST PUSH1 0x80 MLOAD PUSH1 0xA0 MLOAD PUSH1 0xC0 MLOAD PUSH1 0xE0 MLOAD PUSH2 0x100 MLOAD PUSH2 0x120 MLOAD PUSH2 0x140 MLOAD PUSH2 0x5BAF PUSH3 0x1348 PUSH1 0x0 CODECOPY PUSH1 0x0 DUP2 DUP2 PUSH2 0x18CA ADD MSTORE DUP2 DUP2 PUSH2 0x3815 ADD MSTORE DUP2 DUP2 PUSH2 0x3AEC ADD MSTORE DUP2 DUP2 PUSH2 0x3BE4 ADD MSTORE PUSH2 0x3D11 ADD MSTORE PUSH1 0x0 DUP2 DUP2 PUSH2 0x18A9 ADD MSTORE DUP2 DUP2 PUSH2 0x37D2 ADD MSTORE DUP2 DUP2 PUSH2 0x3AAB ADD MSTORE DUP2 DUP2 PUSH2 0x3C28 ADD MSTORE PUSH2 0x3CEB ADD MSTORE PUSH1 0x0 DUP2 DUP2 PUSH2 0x931 ADD MSTORE DUP2 DUP2 PUSH2 0xE19 ADD MSTORE DUP2 DUP2 PUSH2 0xEFD ADD MSTORE DUP2 DUP2 PUSH2 0x2B55 ADD MSTORE DUP2 DUP2 PUSH2 0x2C86 ADD MSTORE DUP2 DUP2 PUSH2 0x3020 ADD MSTORE DUP2 DUP2 PUSH2 0x30B3 ADD MSTORE DUP2 DUP2 PUSH2 0x319F ADD MSTORE DUP2 DUP2 PUSH2 0x33E5 ADD MSTORE DUP2 DUP2 PUSH2 0x3478 ADD MSTORE PUSH2 0x3564 ADD MSTORE PUSH1 0x0 DUP2 DUP2 PUSH2 0x2255 ADD MSTORE DUP2 DUP2 PUSH2 0x267C ADD MSTORE DUP2 DUP2 PUSH2 0x2BE6 ADD MSTORE DUP2 DUP2 PUSH2 0x3245 ADD MSTORE DUP2 DUP2 PUSH2 0x32F7 ADD MSTORE DUP2 DUP2 PUSH2 0x360A ADD MSTORE PUSH2 0x36BC ADD MSTORE PUSH1 0x0 DUP2 DUP2 PUSH2 0xA99 ADD MSTORE DUP2 DUP2 PUSH2 0xDE5 ADD MSTORE DUP2 DUP2 PUSH2 0x1933 ADD MSTORE DUP2 DUP2 PUSH2 0x1B60 ADD MSTORE DUP2 DUP2 PUSH2 0x1DD1 ADD MSTORE DUP2 DUP2 PUSH2 0x229D ADD MSTORE DUP2 DUP2 PUSH2 0x23BE ADD MSTORE DUP2 DUP2 PUSH2 0x252A ADD MSTORE DUP2 DUP2 PUSH2 0x2E2C ADD MSTORE DUP2 DUP2 PUSH2 0x3529 ADD MSTORE PUSH2 0x369B ADD MSTORE PUSH1 0x0 DUP2 DUP2 PUSH2 0xA78 ADD MSTORE DUP2 DUP2 PUSH2 0xDC4 ADD MSTORE DUP2 DUP2 PUSH2 0x136E ADD MSTORE DUP2 DUP2 PUSH2 0x1912 ADD MSTORE DUP2 DUP2 PUSH2 0x1AC2 ADD MSTORE DUP2 DUP2 PUSH2 0x1DB0 ADD MSTORE DUP2 DUP2 PUSH2 0x227C ADD MSTORE DUP2 DUP2 PUSH2 0x239D ADD MSTORE DUP2 DUP2 PUSH2 0x2D92 ADD MSTORE DUP2 DUP2 PUSH2 0x3164 ADD MSTORE DUP2 DUP2 PUSH2 0x32D6 ADD MSTORE DUP2 DUP2 PUSH2 0x3B30 ADD MSTORE DUP2 DUP2 PUSH2 0x3B91 ADD MSTORE DUP2 DUP2 PUSH2 0x3C98 ADD MSTORE PUSH2 0x3D56 ADD MSTORE PUSH1 0x0 DUP2 DUP2 PUSH2 0xE55 ADD MSTORE DUP2 DUP2 PUSH2 0xF39 ADD MSTORE DUP2 DUP2 PUSH2 0x1256 ADD MSTORE DUP2 DUP2 PUSH2 0x163D ADD MSTORE DUP2 DUP2 PUSH2 0x18F1 ADD MSTORE DUP2 DUP2 PUSH2 0x2CC2 ADD MSTORE DUP2 DUP2 PUSH2 0x37AA ADD MSTORE PUSH2 0x3A77 ADD MSTORE PUSH2 0x5BAF PUSH1 0x0 RETURN INVALID PUSH1 0x80 PUSH1 0x40 MSTORE CALLVALUE DUP1 ISZERO PUSH2 0x10 JUMPI PUSH1 0x0 DUP1 REVERT JUMPDEST POP PUSH1 0x4 CALLDATASIZE LT PUSH2 0x28A JUMPI PUSH1 0x0 CALLDATALOAD PUSH1 0xE0 SHR DUP1 PUSH4 0x7ECEBE00 GT PUSH2 0x15C JUMPI DUP1 PUSH4 0xBDA39CAD GT PUSH2 0xCE JUMPI DUP1 PUSH4 0xD505ACCF GT PUSH2 0x87 JUMPI DUP1 PUSH4 0xD505ACCF EQ PUSH2 0x86A JUMPI DUP1 PUSH4 0xDD62ED3E EQ PUSH2 0x886 JUMPI DUP1 PUSH4 0xEBEB31DB EQ PUSH2 0x8B6 JUMPI DUP1 PUSH4 0xF083BE3B EQ PUSH2 0x8D4 JUMPI DUP1 PUSH4 0xF140A35A EQ PUSH2 0x8DE JUMPI DUP1 PUSH4 0xFFF6CAE9 EQ PUSH2 0x90E JUMPI PUSH2 0x28A JUMP JUMPDEST DUP1 PUSH4 0xBDA39CAD EQ PUSH2 0x7B5 JUMPI DUP1 PUSH4 0xBF944DBC EQ PUSH2 0x7D3 JUMPI DUP1 PUSH4 0xC245FEBC EQ PUSH2 0x7F1 JUMPI DUP1 PUSH4 0xC5700A02 EQ PUSH2 0x80F JUMPI DUP1 PUSH4 0xD21220A7 EQ PUSH2 0x82D JUMPI DUP1 PUSH4 0xD294F093 EQ PUSH2 0x84B JUMPI PUSH2 0x28A JUMP JUMPDEST DUP1 PUSH4 0x9D63848A GT PUSH2 0x120 JUMPI DUP1 PUSH4 0x9D63848A EQ PUSH2 0x6BA JUMPI DUP1 PUSH4 0x9E8CC04B EQ PUSH2 0x6D9 JUMPI DUP1 PUSH4 0x9F767C88 EQ PUSH2 0x709 JUMPI DUP1 PUSH4 0xA1AC4D13 EQ PUSH2 0x739 JUMPI DUP1 PUSH4 0xA9059CBB EQ PUSH2 0x769 JUMPI DUP1 PUSH4 0xBC25CF77 EQ PUSH2 0x799 JUMPI PUSH2 0x28A JUMP JUMPDEST DUP1 PUSH4 0x7ECEBE00 EQ PUSH2 0x5FF JUMPI DUP1 PUSH4 0x89AFCB44 EQ PUSH2 0x62F JUMPI DUP1 PUSH4 0x8A7B8CF2 EQ PUSH2 0x660 JUMPI DUP1 PUSH4 0x95D89B41 EQ PUSH2 0x67E JUMPI DUP1 PUSH4 0x9AF1D35A EQ PUSH2 0x69C JUMPI PUSH2 0x28A JUMP JUMPDEST DUP1 PUSH4 0x23B872DD GT PUSH2 0x200 JUMPI DUP1 PUSH4 0x4D5A9F8A GT PUSH2 0x1B9 JUMPI DUP1 PUSH4 0x4D5A9F8A EQ PUSH2 0x4F1 JUMPI DUP1 PUSH4 0x517B3F82 EQ PUSH2 0x521 JUMPI DUP1 PUSH4 0x5881C475 EQ PUSH2 0x551 JUMPI DUP1 PUSH4 0x5A76F25E EQ PUSH2 0x581 JUMPI DUP1 PUSH4 0x6A627842 EQ PUSH2 0x59F JUMPI DUP1 PUSH4 0x70A08231 EQ PUSH2 0x5CF JUMPI PUSH2 0x28A JUMP JUMPDEST DUP1 PUSH4 0x23B872DD EQ PUSH2 0x411 JUMPI DUP1 PUSH4 0x252C09D7 EQ PUSH2 0x441 JUMPI DUP1 PUSH4 0x313CE567 EQ PUSH2 0x473 JUMPI DUP1 PUSH4 0x32C0DEFD EQ PUSH2 0x491 JUMPI DUP1 PUSH4 0x392F37E9 EQ PUSH2 0x4AF JUMPI DUP1 PUSH4 0x443CB4BC EQ PUSH2 0x4D3 JUMPI PUSH2 0x28A JUMP JUMPDEST DUP1 PUSH4 0xDFE1681 GT PUSH2 0x252 JUMPI DUP1 PUSH4 0xDFE1681 EQ PUSH2 0x337 JUMPI DUP1 PUSH4 0x13345FE1 EQ PUSH2 0x355 JUMPI DUP1 PUSH4 0x18160DDD EQ PUSH2 0x385 JUMPI DUP1 PUSH4 0x1DF8C717 EQ PUSH2 0x3A3 JUMPI DUP1 PUSH4 0x205AABF1 EQ PUSH2 0x3C3 JUMPI DUP1 PUSH4 0x22BE3DE1 EQ PUSH2 0x3F3 JUMPI PUSH2 0x28A JUMP JUMPDEST DUP1 PUSH4 0x22C0D9F EQ PUSH2 0x28F JUMPI DUP1 PUSH4 0x6FDDE03 EQ PUSH2 0x2AB JUMPI DUP1 PUSH4 0x902F1AC EQ PUSH2 0x2C9 JUMPI DUP1 PUSH4 0x9047BDD EQ PUSH2 0x2E9 JUMPI DUP1 PUSH4 0x95EA7B3 EQ PUSH2 0x307 JUMPI JUMPDEST PUSH1 0x0 DUP1 REVERT JUMPDEST PUSH2 0x2A9 PUSH1 0x4 DUP1 CALLDATASIZE SUB DUP2 ADD SWAP1 PUSH2 0x2A4 SWAP2 SWAP1 PUSH2 0x4833 JUMP JUMPDEST PUSH2 0x918 JUMP JUMPDEST STOP JUMPDEST PUSH2 0x2B3 PUSH2 0x11AB JUMP JUMPDEST PUSH1 0x40 MLOAD PUSH2 0x2C0 SWAP2 SWAP1 PUSH2 0x4954 JUMP JUMPDEST PUSH1 0x40 MLOAD DUP1 SWAP2 SUB SWAP1 RETURN JUMPDEST PUSH2 0x2D1 PUSH2 0x1239 JUMP JUMPDEST PUSH1 0x40 MLOAD PUSH2 0x2E0 SWAP4 SWAP3 SWAP2 SWAP1 PUSH2 0x4985 JUMP JUMPDEST PUSH1 0x40 MLOAD DUP1 SWAP2 SUB SWAP1 RETURN JUMPDEST PUSH2 0x2F1 PUSH2 0x1252 JUMP JUMPDEST PUSH1 0x40 MLOAD PUSH2 0x2FE SWAP2 SWAP1 PUSH2 0x49D7 JUMP JUMPDEST PUSH1 0x40 MLOAD DUP1 SWAP2 SUB SWAP1 RETURN JUMPDEST PUSH2 0x321 PUSH1 0x4 DUP1 CALLDATASIZE SUB DUP2 ADD SWAP1 PUSH2 0x31C SWAP2 SWAP1 PUSH2 0x49F2 JUMP JUMPDEST PUSH2 0x127A JUMP JUMPDEST PUSH1 0x40 MLOAD PUSH2 0x32E SWAP2 SWAP1 PUSH2 0x49D7 JUMP JUMPDEST PUSH1 0x40 MLOAD DUP1 SWAP2 SUB SWAP1 RETURN JUMPDEST PUSH2 0x33F PUSH2 0x136C JUMP JUMPDEST PUSH1 0x40 MLOAD PUSH2 0x34C SWAP2 SWAP1 PUSH2 0x4A41 JUMP JUMPDEST PUSH1 0x40 MLOAD DUP1 SWAP2 SUB SWAP1 RETURN JUMPDEST PUSH2 0x36F PUSH1 0x4 DUP1 CALLDATASIZE SUB DUP2 ADD SWAP1 PUSH2 0x36A SWAP2 SWAP1 PUSH2 0x4A5C JUMP JUMPDEST PUSH2 0x1390 JUMP JUMPDEST PUSH1 0x40 MLOAD PUSH2 0x37C SWAP2 SWAP1 PUSH2 0x4B81 JUMP JUMPDEST PUSH1 0x40 MLOAD DUP1 SWAP2 SUB SWAP1 RETURN JUMPDEST PUSH2 0x38D PUSH2 0x15A5 JUMP JUMPDEST PUSH1 0x40 MLOAD PUSH2 0x39A SWAP2 SWAP1 PUSH2 0x4BA3 JUMP JUMPDEST PUSH1 0x40 MLOAD DUP1 SWAP2 SUB SWAP1 RETURN JUMPDEST PUSH2 0x3AB PUSH2 0x15AB JUMP JUMPDEST PUSH1 0x40 MLOAD PUSH2 0x3BA SWAP4 SWAP3 SWAP2 SWAP1 PUSH2 0x4985 JUMP JUMPDEST PUSH1 0x40 MLOAD DUP1 SWAP2 SUB SWAP1 RETURN JUMPDEST PUSH2 0x3DD PUSH1 0x4 DUP1 CALLDATASIZE SUB DUP2 ADD SWAP1 PUSH2 0x3D8 SWAP2 SWAP1 PUSH2 0x4BBE JUMP JUMPDEST PUSH2 0x1623 JUMP JUMPDEST PUSH1 0x40 MLOAD PUSH2 0x3EA SWAP2 SWAP1 PUSH2 0x4BA3 JUMP JUMPDEST PUSH1 0x40 MLOAD DUP1 SWAP2 SUB SWAP1 RETURN JUMPDEST PUSH2 0x3FB PUSH2 0x163B JUMP JUMPDEST PUSH1 0x40 MLOAD PUSH2 0x408 SWAP2 SWAP1 PUSH2 0x49D7 JUMP JUMPDEST PUSH1 0x40 MLOAD DUP1 SWAP2 SUB SWAP1 RETURN JUMPDEST PUSH2 0x42B PUSH1 0x4 DUP1 CALLDATASIZE SUB DUP2 ADD SWAP1 PUSH2 0x426 SWAP2 SWAP1 PUSH2 0x4BEB JUMP JUMPDEST PUSH2 0x165F JUMP JUMPDEST PUSH1 0x40 MLOAD PUSH2 0x438 SWAP2 SWAP1 PUSH2 0x49D7 JUMP JUMPDEST PUSH1 0x40 MLOAD DUP1 SWAP2 SUB SWAP1 RETURN JUMPDEST PUSH2 0x45B PUSH1 0x4 DUP1 CALLDATASIZE SUB DUP2 ADD SWAP1 PUSH2 0x456 SWAP2 SWAP1 PUSH2 0x4C3E JUMP JUMPDEST PUSH2 0x1857 JUMP JUMPDEST PUSH1 0x40 MLOAD PUSH2 0x46A SWAP4 SWAP3 SWAP2 SWAP1 PUSH2 0x4985 JUMP JUMPDEST PUSH1 0x40 MLOAD DUP1 SWAP2 SUB SWAP1 RETURN JUMPDEST PUSH2 0x47B PUSH2 0x1891 JUMP JUMPDEST PUSH1 0x40 MLOAD PUSH2 0x488 SWAP2 SWAP1 PUSH2 0x4C87 JUMP JUMPDEST PUSH1 0x40 MLOAD DUP1 SWAP2 SUB SWAP1 RETURN JUMPDEST PUSH2 0x499 PUSH2 0x1896 JUMP JUMPDEST PUSH1 0x40 MLOAD PUSH2 0x4A6 SWAP2 SWAP1 PUSH2 0x4BA3 JUMP JUMPDEST PUSH1 0x40 MLOAD DUP1 SWAP2 SUB SWAP1 RETURN JUMPDEST PUSH2 0x4B7 PUSH2 0x189C JUMP JUMPDEST PUSH1 0x40 MLOAD PUSH2 0x4CA SWAP8 SWAP7 SWAP6 SWAP5 SWAP4 SWAP3 SWAP2 SWAP1 PUSH2 0x4CA2 JUMP JUMPDEST PUSH1 0x40 MLOAD DUP1 SWAP2 SUB SWAP1 RETURN JUMPDEST PUSH2 0x4DB PUSH2 0x1969 JUMP JUMPDEST PUSH1 0x40 MLOAD PUSH2 0x4E8 SWAP2 SWAP1 PUSH2 0x4BA3 JUMP JUMPDEST PUSH1 0x40 MLOAD DUP1 SWAP2 SUB SWAP1 RETURN JUMPDEST PUSH2 0x50B PUSH1 0x4 DUP1 CALLDATASIZE SUB DUP2 ADD SWAP1 PUSH2 0x506 SWAP2 SWAP1 PUSH2 0x4BBE JUMP JUMPDEST PUSH2 0x196F JUMP JUMPDEST PUSH1 0x40 MLOAD PUSH2 0x518 SWAP2 SWAP1 PUSH2 0x4BA3 JUMP JUMPDEST PUSH1 0x40 MLOAD DUP1 SWAP2 SUB SWAP1 RETURN JUMPDEST PUSH2 0x53B PUSH1 0x4 DUP1 CALLDATASIZE SUB DUP2 ADD SWAP1 PUSH2 0x536 SWAP2 SWAP1 PUSH2 0x49F2 JUMP JUMPDEST PUSH2 0x1987 JUMP JUMPDEST PUSH1 0x40 MLOAD PUSH2 0x548 SWAP2 SWAP1 PUSH2 0x4BA3 JUMP JUMPDEST PUSH1 0x40 MLOAD DUP1 SWAP2 SUB SWAP1 RETURN JUMPDEST PUSH2 0x56B PUSH1 0x4 DUP1 CALLDATASIZE SUB DUP2 ADD SWAP1 PUSH2 0x566 SWAP2 SWAP1 PUSH2 0x4D11 JUMP JUMPDEST PUSH2 0x1A7A JUMP JUMPDEST PUSH1 0x40 MLOAD PUSH2 0x578 SWAP2 SWAP1 PUSH2 0x4B81 JUMP JUMPDEST PUSH1 0x40 MLOAD DUP1 SWAP2 SUB SWAP1 RETURN JUMPDEST PUSH2 0x589 PUSH2 0x1A92 JUMP JUMPDEST PUSH1 0x40 MLOAD PUSH2 0x596 SWAP2 SWAP1 PUSH2 0x4BA3 JUMP JUMPDEST PUSH1 0x40 MLOAD DUP1 SWAP2 SUB SWAP1 RETURN JUMPDEST PUSH2 0x5B9 PUSH1 0x4 DUP1 CALLDATASIZE SUB DUP2 ADD SWAP1 PUSH2 0x5B4 SWAP2 SWAP1 PUSH2 0x4BBE JUMP JUMPDEST PUSH2 0x1A98 JUMP JUMPDEST PUSH1 0x40 MLOAD PUSH2 0x5C6 SWAP2 SWAP1 PUSH2 0x4BA3 JUMP JUMPDEST PUSH1 0x40 MLOAD DUP1 SWAP2 SUB SWAP1 RETURN JUMPDEST PUSH2 0x5E9 PUSH1 0x4 DUP1 CALLDATASIZE SUB DUP2 ADD SWAP1 PUSH2 0x5E4 SWAP2 SWAP1 PUSH2 0x4BBE JUMP JUMPDEST PUSH2 0x1D54 JUMP JUMPDEST PUSH1 0x40 MLOAD PUSH2 0x5F6 SWAP2 SWAP1 PUSH2 0x4BA3 JUMP JUMPDEST PUSH1 0x40 MLOAD DUP1 SWAP2 SUB SWAP1 RETURN JUMPDEST PUSH2 0x619 PUSH1 0x4 DUP1 CALLDATASIZE SUB DUP2 ADD SWAP1 PUSH2 0x614 SWAP2 SWAP1 PUSH2 0x4BBE JUMP JUMPDEST PUSH2 0x1D6C JUMP JUMPDEST PUSH1 0x40 MLOAD PUSH2 0x626 SWAP2 SWAP1 PUSH2 0x4BA3 JUMP JUMPDEST PUSH1 0x40 MLOAD DUP1 SWAP2 SUB SWAP1 RETURN JUMPDEST PUSH2 0x649 PUSH1 0x4 DUP1 CALLDATASIZE SUB DUP2 ADD SWAP1 PUSH2 0x644 SWAP2 SWAP1 PUSH2 0x4BBE JUMP JUMPDEST PUSH2 0x1D84 JUMP JUMPDEST PUSH1 0x40 MLOAD PUSH2 0x657 SWAP3 SWAP2 SWAP1 PUSH2 0x4D64 JUMP JUMPDEST PUSH1 0x40 MLOAD DUP1 SWAP2 SUB SWAP1 RETURN JUMPDEST PUSH2 0x668 PUSH2 0x215C JUMP JUMPDEST PUSH1 0x40 MLOAD PUSH2 0x675 SWAP2 SWAP1 PUSH2 0x4DCF JUMP JUMPDEST PUSH1 0x40 MLOAD DUP1 SWAP2 SUB SWAP1 RETURN JUMPDEST PUSH2 0x686 PUSH2 0x21C5 JUMP JUMPDEST PUSH1 0x40 MLOAD PUSH2 0x693 SWAP2 SWAP1 PUSH2 0x4954 JUMP JUMPDEST PUSH1 0x40 MLOAD DUP1 SWAP2 SUB SWAP1 RETURN JUMPDEST PUSH2 0x6A4 PUSH2 0x2253 JUMP JUMPDEST PUSH1 0x40 MLOAD PUSH2 0x6B1 SWAP2 SWAP1 PUSH2 0x4A41 JUMP JUMPDEST PUSH1 0x40 MLOAD DUP1 SWAP2 SUB SWAP1 RETURN JUMPDEST PUSH2 0x6C2 PUSH2 0x2277 JUMP JUMPDEST PUSH1 0x40 MLOAD PUSH2 0x6D0 SWAP3 SWAP2 SWAP1 PUSH2 0x4DEA JUMP JUMPDEST PUSH1 0x40 MLOAD DUP1 SWAP2 SUB SWAP1 RETURN JUMPDEST PUSH2 0x6F3 PUSH1 0x4 DUP1 CALLDATASIZE SUB DUP2 ADD SWAP1 PUSH2 0x6EE SWAP2 SWAP1 PUSH2 0x4D11 JUMP JUMPDEST PUSH2 0x22C4 JUMP JUMPDEST PUSH1 0x40 MLOAD PUSH2 0x700 SWAP2 SWAP1 PUSH2 0x4BA3 JUMP JUMPDEST PUSH1 0x40 MLOAD DUP1 SWAP2 SUB SWAP1 RETURN JUMPDEST PUSH2 0x723 PUSH1 0x4 DUP1 CALLDATASIZE SUB DUP2 ADD SWAP1 PUSH2 0x71E SWAP2 SWAP1 PUSH2 0x4BBE JUMP JUMPDEST PUSH2 0x233A JUMP JUMPDEST PUSH1 0x40 MLOAD PUSH2 0x730 SWAP2 SWAP1 PUSH2 0x4BA3 JUMP JUMPDEST PUSH1 0x40 MLOAD DUP1 SWAP2 SUB SWAP1 RETURN JUMPDEST PUSH2 0x753 PUSH1 0x4 DUP1 CALLDATASIZE SUB DUP2 ADD SWAP1 PUSH2 0x74E SWAP2 SWAP1 PUSH2 0x4BBE JUMP JUMPDEST PUSH2 0x2352 JUMP JUMPDEST PUSH1 0x40 MLOAD PUSH2 0x760 SWAP2 SWAP1 PUSH2 0x4BA3 JUMP JUMPDEST PUSH1 0x40 MLOAD DUP1 SWAP2 SUB SWAP1 RETURN JUMPDEST PUSH2 0x783 PUSH1 0x4 DUP1 CALLDATASIZE SUB DUP2 ADD SWAP1 PUSH2 0x77E SWAP2 SWAP1 PUSH2 0x49F2 JUMP JUMPDEST PUSH2 0x236A JUMP JUMPDEST PUSH1 0x40 MLOAD PUSH2 0x790 SWAP2 SWAP1 PUSH2 0x49D7 JUMP JUMPDEST PUSH1 0x40 MLOAD DUP1 SWAP2 SUB SWAP1 RETURN JUMPDEST PUSH2 0x7B3 PUSH1 0x4 DUP1 CALLDATASIZE SUB DUP2 ADD SWAP1 PUSH2 0x7AE SWAP2 SWAP1 PUSH2 0x4BBE JUMP JUMPDEST PUSH2 0x2381 JUMP JUMPDEST STOP JUMPDEST PUSH2 0x7BD PUSH2 0x2510 JUMP JUMPDEST PUSH1 0x40 MLOAD PUSH2 0x7CA SWAP2 SWAP1 PUSH2 0x4BA3 JUMP JUMPDEST PUSH1 0x40 MLOAD DUP1 SWAP2 SUB SWAP1 RETURN JUMPDEST PUSH2 0x7DB PUSH2 0x2516 JUMP JUMPDEST PUSH1 0x40 MLOAD PUSH2 0x7E8 SWAP2 SWAP1 PUSH2 0x4BA3 JUMP JUMPDEST PUSH1 0x40 MLOAD DUP1 SWAP2 SUB SWAP1 RETURN JUMPDEST PUSH2 0x7F9 PUSH2 0x251C JUMP JUMPDEST PUSH1 0x40 MLOAD PUSH2 0x806 SWAP2 SWAP1 PUSH2 0x4BA3 JUMP JUMPDEST PUSH1 0x40 MLOAD DUP1 SWAP2 SUB SWAP1 RETURN JUMPDEST PUSH2 0x817 PUSH2 0x2522 JUMP JUMPDEST PUSH1 0x40 MLOAD PUSH2 0x824 SWAP2 SWAP1 PUSH2 0x4BA3 JUMP JUMPDEST PUSH1 0x40 MLOAD DUP1 SWAP2 SUB SWAP1 RETURN JUMPDEST PUSH2 0x835 PUSH2 0x2528 JUMP JUMPDEST PUSH1 0x40 MLOAD PUSH2 0x842 SWAP2 SWAP1 PUSH2 0x4A41 JUMP JUMPDEST PUSH1 0x40 MLOAD DUP1 SWAP2 SUB SWAP1 RETURN JUMPDEST PUSH2 0x853 PUSH2 0x254C JUMP JUMPDEST PUSH1 0x40 MLOAD PUSH2 0x861 SWAP3 SWAP2 SWAP1 PUSH2 0x4D64 JUMP JUMPDEST PUSH1 0x40 MLOAD DUP1 SWAP2 SUB SWAP1 RETURN JUMPDEST PUSH2 0x884 PUSH1 0x4 DUP1 CALLDATASIZE SUB DUP2 ADD SWAP1 PUSH2 0x87F SWAP2 SWAP1 PUSH2 0x4E75 JUMP JUMPDEST PUSH2 0x2775 JUMP JUMPDEST STOP JUMPDEST PUSH2 0x8A0 PUSH1 0x4 DUP1 CALLDATASIZE SUB DUP2 ADD SWAP1 PUSH2 0x89B SWAP2 SWAP1 PUSH2 0x4F17 JUMP JUMPDEST PUSH2 0x2B1F JUMP JUMPDEST PUSH1 0x40 MLOAD PUSH2 0x8AD SWAP2 SWAP1 PUSH2 0x4BA3 JUMP JUMPDEST PUSH1 0x40 MLOAD DUP1 SWAP2 SUB SWAP1 RETURN JUMPDEST PUSH2 0x8BE PUSH2 0x2B44 JUMP JUMPDEST PUSH1 0x40 MLOAD PUSH2 0x8CB SWAP2 SWAP1 PUSH2 0x4BA3 JUMP JUMPDEST PUSH1 0x40 MLOAD DUP1 SWAP2 SUB SWAP1 RETURN JUMPDEST PUSH2 0x8DC PUSH2 0x2B51 JUMP JUMPDEST STOP JUMPDEST PUSH2 0x8F8 PUSH1 0x4 DUP1 CALLDATASIZE SUB DUP2 ADD SWAP1 PUSH2 0x8F3 SWAP2 SWAP1 PUSH2 0x4F57 JUMP JUMPDEST PUSH2 0x2C72 JUMP JUMPDEST PUSH1 0x40 MLOAD PUSH2 0x905 SWAP2 SWAP1 PUSH2 0x4BA3 JUMP JUMPDEST PUSH1 0x40 MLOAD DUP1 SWAP2 SUB SWAP1 RETURN JUMPDEST PUSH2 0x916 PUSH2 0x2D76 JUMP JUMPDEST STOP JUMPDEST PUSH1 0x1 PUSH1 0x13 SLOAD EQ PUSH2 0x927 JUMPI PUSH1 0x0 DUP1 REVERT JUMPDEST PUSH1 0x2 PUSH1 0x13 DUP2 SWAP1 SSTORE POP PUSH32 0x0 PUSH20 0xFFFFFFFFFFFFFFFFFFFFFFFFFFFFFFFFFFFFFFFF AND PUSH4 0xB187BD26 PUSH1 0x40 MLOAD DUP2 PUSH4 0xFFFFFFFF AND PUSH1 0xE0 SHL DUP2 MSTORE PUSH1 0x4 ADD PUSH1 0x20 PUSH1 0x40 MLOAD DUP1 DUP4 SUB DUP2 DUP7 GAS STATICCALL ISZERO DUP1 ISZERO PUSH2 0x99A JUMPI RETURNDATASIZE PUSH1 0x0 DUP1 RETURNDATACOPY RETURNDATASIZE PUSH1 0x0 REVERT JUMPDEST POP POP POP POP PUSH1 0x40 MLOAD RETURNDATASIZE PUSH1 0x1F NOT PUSH1 0x1F DUP3 ADD AND DUP3 ADD DUP1 PUSH1 0x40 MSTORE POP DUP2 ADD SWAP1 PUSH2 0x9BE SWAP2 SWAP1 PUSH2 0x4FC3 JUMP JUMPDEST ISZERO PUSH2 0x9C8 JUMPI PUSH1 0x0 DUP1 REVERT JUMPDEST PUSH1 0x0 DUP6 GT DUP1 PUSH2 0x9D7 JUMPI POP PUSH1 0x0 DUP5 GT JUMPDEST PUSH2 0xA16 JUMPI PUSH1 0x40 MLOAD PUSH32 0x8C379A000000000000000000000000000000000000000000000000000000000 DUP2 MSTORE PUSH1 0x4 ADD PUSH2 0xA0D SWAP1 PUSH2 0x503C JUMP JUMPDEST PUSH1 0x40 MLOAD DUP1 SWAP2 SUB SWAP1 REVERT JUMPDEST PUSH1 0x0 DUP1 PUSH1 0x8 SLOAD PUSH1 0x9 SLOAD SWAP2 POP SWAP2 POP DUP2 DUP8 LT DUP1 ISZERO PUSH2 0xA31 JUMPI POP DUP1 DUP7 LT JUMPDEST PUSH2 0xA70 JUMPI PUSH1 0x40 MLOAD PUSH32 0x8C379A000000000000000000000000000000000000000000000000000000000 DUP2 MSTORE PUSH1 0x4 ADD PUSH2 0xA67 SWAP1 PUSH2 0x50A8 JUMP JUMPDEST PUSH1 0x40 MLOAD DUP1 SWAP2 SUB SWAP1 REVERT JUMPDEST PUSH1 0x0 DUP1 PUSH1 0x0 DUP1 PUSH32 0x0 PUSH32 0x0 SWAP2 POP SWAP2 POP DUP2 PUSH20 0xFFFFFFFFFFFFFFFFFFFFFFFFFFFFFFFFFFFFFFFF AND DUP10 PUSH20 0xFFFFFFFFFFFFFFFFFFFFFFFFFFFFFFFFFFFFFFFF AND EQ ISZERO DUP1 ISZERO PUSH2 0xB24 JUMPI POP DUP1 PUSH20 0xFFFFFFFFFFFFFFFFFFFFFFFFFFFFFFFFFFFFFFFF AND DUP10 PUSH20 0xFFFFFFFFFFFFFFFFFFFFFFFFFFFFFFFFFFFFFFFF AND EQ ISZERO JUMPDEST PUSH2 0xB63 JUMPI PUSH1 0x40 MLOAD PUSH32 0x8C379A000000000000000000000000000000000000000000000000000000000 DUP2 MSTORE PUSH1 0x4 ADD PUSH2 0xB5A SWAP1 PUSH2 0x5114 JUMP JUMPDEST PUSH1 0x40 MLOAD DUP1 SWAP2 SUB SWAP1 REVERT JUMPDEST PUSH1 0x0 DUP12 GT ISZERO PUSH2 0xB78 JUMPI PUSH2 0xB77 DUP3 DUP11 DUP14 PUSH2 0x2ED9 JUMP JUMPDEST JUMPDEST PUSH1 0x0 DUP11 GT ISZERO PUSH2 0xB8D JUMPI PUSH2 0xB8C DUP2 DUP11 DUP13 PUSH2 0x2ED9 JUMP JUMPDEST JUMPDEST PUSH1 0x0 DUP9 DUP9 SWAP1 POP GT ISZERO PUSH2 0xC0D JUMPI DUP9 PUSH20 0xFFFFFFFFFFFFFFFFFFFFFFFFFFFFFFFFFFFFFFFF AND PUSH4 0x9A7BFF79 CALLER DUP14 DUP14 DUP13 DUP13 PUSH1 0x40 MLOAD DUP7 PUSH4 0xFFFFFFFF AND PUSH1 0xE0 SHL DUP2 MSTORE PUSH1 0x4 ADD PUSH2 0xBDA SWAP6 SWAP5 SWAP4 SWAP3 SWAP2 SWAP1 PUSH2 0x5181 JUMP JUMPDEST PUSH1 0x0 PUSH1 0x40 MLOAD DUP1 DUP4 SUB DUP2 PUSH1 0x0 DUP8 DUP1 EXTCODESIZE ISZERO DUP1 ISZERO PUSH2 0xBF4 JUMPI PUSH1 0x0 DUP1 REVERT JUMPDEST POP GAS CALL ISZERO DUP1 ISZERO PUSH2 0xC08 JUMPI RETURNDATASIZE PUSH1 0x0 DUP1 RETURNDATACOPY RETURNDATASIZE PUSH1 0x0 REVERT JUMPDEST POP POP POP POP JUMPDEST DUP2 PUSH20 0xFFFFFFFFFFFFFFFFFFFFFFFFFFFFFFFFFFFFFFFF AND PUSH4 0x70A08231 ADDRESS PUSH1 0x40 MLOAD DUP3 PUSH4 0xFFFFFFFF AND PUSH1 0xE0 SHL DUP2 MSTORE PUSH1 0x4 ADD PUSH2 0xC46 SWAP2 SWAP1 PUSH2 0x4A41 JUMP JUMPDEST PUSH1 0x20 PUSH1 0x40 MLOAD DUP1 DUP4 SUB DUP2 DUP7 GAS STATICCALL ISZERO DUP1 ISZERO PUSH2 0xC63 JUMPI RETURNDATASIZE PUSH1 0x0 DUP1 RETURNDATACOPY RETURNDATASIZE PUSH1 0x0 REVERT JUMPDEST POP POP POP POP PUSH1 0x40 MLOAD RETURNDATASIZE PUSH1 0x1F NOT PUSH1 0x1F DUP3 ADD AND DUP3 ADD DUP1 PUSH1 0x40 MSTORE POP DUP2 ADD SWAP1 PUSH2 0xC87 SWAP2 SWAP1 PUSH2 0x51E4 JUMP JUMPDEST SWAP4 POP DUP1 PUSH20 0xFFFFFFFFFFFFFFFFFFFFFFFFFFFFFFFFFFFFFFFF AND PUSH4 0x70A08231 ADDRESS PUSH1 0x40 MLOAD DUP3 PUSH4 0xFFFFFFFF AND PUSH1 0xE0 SHL DUP2 MSTORE PUSH1 0x4 ADD PUSH2 0xCC2 SWAP2 SWAP1 PUSH2 0x4A41 JUMP JUMPDEST PUSH1 0x20 PUSH1 0x40 MLOAD DUP1 DUP4 SUB DUP2 DUP7 GAS STATICCALL ISZERO DUP1 ISZERO PUSH2 0xCDF JUMPI RETURNDATASIZE PUSH1 0x0 DUP1 RETURNDATACOPY RETURNDATASIZE PUSH1 0x0 REVERT JUMPDEST POP POP POP POP PUSH1 0x40 MLOAD RETURNDATASIZE PUSH1 0x1F NOT PUSH1 0x1F DUP3 ADD AND DUP3 ADD DUP1 PUSH1 0x40 MSTORE POP DUP2 ADD SWAP1 PUSH2 0xD03 SWAP2 SWAP1 PUSH2 0x51E4 JUMP JUMPDEST SWAP3 POP POP POP PUSH1 0x0 DUP10 DUP6 PUSH2 0xD15 SWAP2 SWAP1 PUSH2 0x5240 JUMP JUMPDEST DUP4 GT PUSH2 0xD22 JUMPI PUSH1 0x0 PUSH2 0xD3A JUMP JUMPDEST DUP10 DUP6 PUSH2 0xD2E SWAP2 SWAP1 PUSH2 0x5240 JUMP JUMPDEST DUP4 PUSH2 0xD39 SWAP2 SWAP1 PUSH2 0x5240 JUMP JUMPDEST JUMPDEST SWAP1 POP PUSH1 0x0 DUP10 DUP6 PUSH2 0xD4A SWAP2 SWAP1 PUSH2 0x5240 JUMP JUMPDEST DUP4 GT PUSH2 0xD57 JUMPI PUSH1 0x0 PUSH2 0xD6F JUMP JUMPDEST DUP10 DUP6 PUSH2 0xD63 SWAP2 SWAP1 PUSH2 0x5240 JUMP JUMPDEST DUP4 PUSH2 0xD6E SWAP2 SWAP1 PUSH2 0x5240 JUMP JUMPDEST JUMPDEST SWAP1 POP PUSH1 0x0 DUP3 GT DUP1 PUSH2 0xD80 JUMPI POP PUSH1 0x0 DUP2 GT JUMPDEST PUSH2 0xDBF JUMPI PUSH1 0x40 MLOAD PUSH32 0x8C379A000000000000000000000000000000000000000000000000000000000 DUP2 MSTORE PUSH1 0x4 ADD PUSH2 0xDB6 SWAP1 PUSH2 0x52C0 JUMP JUMPDEST PUSH1 0x40 MLOAD DUP1 SWAP2 SUB SWAP1 REVERT JUMPDEST PUSH1 0x0 DUP1 PUSH32 0x0 PUSH32 0x0 SWAP2 POP SWAP2 POP PUSH1 0x0 DUP5 GT ISZERO PUSH2 0xEEC JUMPI PUSH2 0xEEB PUSH2 0x2710 PUSH32 0x0 PUSH20 0xFFFFFFFFFFFFFFFFFFFFFFFFFFFFFFFFFFFFFFFF AND PUSH4 0x512B45EA PUSH32 0x0 PUSH1 0x40 MLOAD DUP3 PUSH4 0xFFFFFFFF AND PUSH1 0xE0 SHL DUP2 MSTORE PUSH1 0x4 ADD PUSH2 0xE90 SWAP2 SWAP1 PUSH2 0x49D7 JUMP JUMPDEST PUSH1 0x20 PUSH1 0x40 MLOAD DUP1 DUP4 SUB DUP2 DUP7 GAS STATICCALL ISZERO DUP1 ISZERO PUSH2 0xEAD JUMPI RETURNDATASIZE PUSH1 0x0 DUP1 RETURNDATACOPY RETURNDATASIZE PUSH1 0x0 REVERT JUMPDEST POP POP POP POP PUSH1 0x40 MLOAD RETURNDATASIZE PUSH1 0x1F NOT PUSH1 0x1F DUP3 ADD AND DUP3 ADD DUP1 PUSH1 0x40 MSTORE POP DUP2 ADD SWAP1 PUSH2 0xED1 SWAP2 SWAP1 PUSH2 0x51E4 JUMP JUMPDEST DUP7 PUSH2 0xEDC SWAP2 SWAP1 PUSH2 0x52E0 JUMP JUMPDEST PUSH2 0xEE6 SWAP2 SWAP1 PUSH2 0x5369 JUMP JUMPDEST PUSH2 0x301C JUMP JUMPDEST JUMPDEST PUSH1 0x0 DUP4 GT ISZERO PUSH2 0xFD0 JUMPI PUSH2 0xFCF PUSH2 0x2710 PUSH32 0x0 PUSH20 0xFFFFFFFFFFFFFFFFFFFFFFFFFFFFFFFFFFFFFFFF AND PUSH4 0x512B45EA PUSH32 0x0 PUSH1 0x40 MLOAD DUP3 PUSH4 0xFFFFFFFF AND PUSH1 0xE0 SHL DUP2 MSTORE PUSH1 0x4 ADD PUSH2 0xF74 SWAP2 SWAP1 PUSH2 0x49D7 JUMP JUMPDEST PUSH1 0x20 PUSH1 0x40 MLOAD DUP1 DUP4 SUB DUP2 DUP7 GAS STATICCALL ISZERO DUP1 ISZERO PUSH2 0xF91 JUMPI RETURNDATASIZE PUSH1 0x0 DUP1 RETURNDATACOPY RETURNDATASIZE PUSH1 0x0 REVERT JUMPDEST POP POP POP POP PUSH1 0x40 MLOAD RETURNDATASIZE PUSH1 0x1F NOT PUSH1 0x1F DUP3 ADD AND DUP3 ADD DUP1 PUSH1 0x40 MSTORE POP DUP2 ADD SWAP1 PUSH2 0xFB5 SWAP2 SWAP1 PUSH2 0x51E4 JUMP JUMPDEST DUP6 PUSH2 0xFC0 SWAP2 SWAP1 PUSH2 0x52E0 JUMP JUMPDEST PUSH2 0xFCA SWAP2 SWAP1 PUSH2 0x5369 JUMP JUMPDEST PUSH2 0x33E1 JUMP JUMPDEST JUMPDEST DUP2 PUSH20 0xFFFFFFFFFFFFFFFFFFFFFFFFFFFFFFFFFFFFFFFF AND PUSH4 0x70A08231 ADDRESS PUSH1 0x40 MLOAD DUP3 PUSH4 0xFFFFFFFF AND PUSH1 0xE0 SHL DUP2 MSTORE PUSH1 0x4 ADD PUSH2 0x1009 SWAP2 SWAP1 PUSH2 0x4A41 JUMP JUMPDEST PUSH1 0x20 PUSH1 0x40 MLOAD DUP1 DUP4 SUB DUP2 DUP7 GAS STATICCALL ISZERO DUP1 ISZERO PUSH2 0x1026 JUMPI RETURNDATASIZE PUSH1 0x0 DUP1 RETURNDATACOPY RETURNDATASIZE PUSH1 0x0 REVERT JUMPDEST POP POP POP POP PUSH1 0x40 MLOAD RETURNDATASIZE PUSH1 0x1F NOT PUSH1 0x1F DUP3 ADD AND DUP3 ADD DUP1 PUSH1 0x40 MSTORE POP DUP2 ADD SWAP1 PUSH2 0x104A SWAP2 SWAP1 PUSH2 0x51E4 JUMP JUMPDEST SWAP6 POP DUP1 PUSH20 0xFFFFFFFFFFFFFFFFFFFFFFFFFFFFFFFFFFFFFFFF AND PUSH4 0x70A08231 ADDRESS PUSH1 0x40 MLOAD DUP3 PUSH4 0xFFFFFFFF AND PUSH1 0xE0 SHL DUP2 MSTORE PUSH1 0x4 ADD PUSH2 0x1085 SWAP2 SWAP1 PUSH2 0x4A41 JUMP JUMPDEST PUSH1 0x20 PUSH1 0x40 MLOAD DUP1 DUP4 SUB DUP2 DUP7 GAS STATICCALL ISZERO DUP1 ISZERO PUSH2 0x10A2 JUMPI RETURNDATASIZE PUSH1 0x0 DUP1 RETURNDATACOPY RETURNDATASIZE PUSH1 0x0 REVERT JUMPDEST POP POP POP POP PUSH1 0x40 MLOAD RETURNDATASIZE PUSH1 0x1F NOT PUSH1 0x1F DUP3 ADD AND DUP3 ADD DUP1 PUSH1 0x40 MSTORE POP DUP2 ADD SWAP1 PUSH2 0x10C6 SWAP2 SWAP1 PUSH2 0x51E4 JUMP JUMPDEST SWAP5 POP PUSH2 0x10D2 DUP9 DUP9 PUSH2 0x37A6 JUMP JUMPDEST PUSH2 0x10DC DUP8 DUP8 PUSH2 0x37A6 JUMP JUMPDEST LT ISZERO PUSH2 0x111D JUMPI PUSH1 0x40 MLOAD PUSH32 0x8C379A000000000000000000000000000000000000000000000000000000000 DUP2 MSTORE PUSH1 0x4 ADD PUSH2 0x1114 SWAP1 PUSH2 0x53E6 JUMP JUMPDEST PUSH1 0x40 MLOAD DUP1 SWAP2 SUB SWAP1 REVERT JUMPDEST POP POP PUSH2 0x112B DUP5 DUP5 DUP9 DUP9 PUSH2 0x3902 JUMP JUMPDEST DUP9 PUSH20 0xFFFFFFFFFFFFFFFFFFFFFFFFFFFFFFFFFFFFFFFF AND CALLER PUSH20 0xFFFFFFFFFFFFFFFFFFFFFFFFFFFFFFFFFFFFFFFF AND PUSH32 0xD78AD95FA46C994B6551D0DA85FC275FE613CE37657FB8D5E3D130840159D822 DUP5 DUP5 DUP16 DUP16 PUSH1 0x40 MLOAD PUSH2 0x118E SWAP5 SWAP4 SWAP3 SWAP2 SWAP1 PUSH2 0x5406 JUMP JUMPDEST PUSH1 0x40 MLOAD DUP1 SWAP2 SUB SWAP1 LOG3 POP POP POP POP POP POP PUSH1 0x1 PUSH1 0x13 DUP2 SWAP1 SSTORE POP POP POP POP POP POP JUMP JUMPDEST PUSH1 0x0 DUP1 SLOAD PUSH2 0x11B8 SWAP1 PUSH2 0x547A JUMP JUMPDEST DUP1 PUSH1 0x1F ADD PUSH1 0x20 DUP1 SWAP2 DIV MUL PUSH1 0x20 ADD PUSH1 0x40 MLOAD SWAP1 DUP2 ADD PUSH1 0x40 MSTORE DUP1 SWAP3 SWAP2 SWAP1 DUP2 DUP2 MSTORE PUSH1 0x20 ADD DUP3 DUP1 SLOAD PUSH2 0x11E4 SWAP1 PUSH2 0x547A JUMP JUMPDEST DUP1 ISZERO PUSH2 0x1231 JUMPI DUP1 PUSH1 0x1F LT PUSH2 0x1206 JUMPI PUSH2 0x100 DUP1 DUP4 SLOAD DIV MUL DUP4 MSTORE SWAP2 PUSH1 0x20 ADD SWAP2 PUSH2 0x1231 JUMP JUMPDEST DUP3 ADD SWAP2 SWAP1 PUSH1 0x0 MSTORE PUSH1 0x20 PUSH1 0x0 KECCAK256 SWAP1 JUMPDEST DUP2 SLOAD DUP2 MSTORE SWAP1 PUSH1 0x1 ADD SWAP1 PUSH1 0x20 ADD DUP1 DUP4 GT PUSH2 0x1214 JUMPI DUP3 SWAP1 SUB PUSH1 0x1F AND DUP3 ADD SWAP2 JUMPDEST POP POP POP POP POP DUP2 JUMP JUMPDEST PUSH1 0x0 DUP1 PUSH1 0x0 PUSH1 0x8 SLOAD SWAP3 POP PUSH1 0x9 SLOAD SWAP2 POP PUSH1 0xA SLOAD SWAP1 POP SWAP1 SWAP2 SWAP3 JUMP JUMPDEST PUSH1 0x0 PUSH32 0x0 SWAP1 POP SWAP1 JUMP JUMPDEST PUSH1 0x0 DUP2 PUSH1 0x3 PUSH1 0x0 CALLER PUSH20 0xFFFFFFFFFFFFFFFFFFFFFFFFFFFFFFFFFFFFFFFF AND PUSH20 0xFFFFFFFFFFFFFFFFFFFFFFFFFFFFFFFFFFFFFFFF AND DUP2 MSTORE PUSH1 0x20 ADD SWAP1 DUP2 MSTORE PUSH1 0x20 ADD PUSH1 0x0 KECCAK256 PUSH1 0x0 DUP6 PUSH20 0xFFFFFFFFFFFFFFFFFFFFFFFFFFFFFFFFFFFFFFFF AND PUSH20 0xFFFFFFFFFFFFFFFFFFFFFFFFFFFFFFFFFFFFFFFF AND DUP2 MSTORE PUSH1 0x20 ADD SWAP1 DUP2 MSTORE PUSH1 0x20 ADD PUSH1 0x0 KECCAK256 DUP2 SWAP1 SSTORE POP DUP3 PUSH20 0xFFFFFFFFFFFFFFFFFFFFFFFFFFFFFFFFFFFFFFFF AND CALLER PUSH20 0xFFFFFFFFFFFFFFFFFFFFFFFFFFFFFFFFFFFFFFFF AND PUSH32 0x8C5BE1E5EBEC7D5BD14F71427D1E84F3DD0314C0F7B2291E5B200AC8C7C3B925 DUP5 PUSH1 0x40 MLOAD PUSH2 0x135A SWAP2 SWAP1 PUSH2 0x4BA3 JUMP JUMPDEST PUSH1 0x40 MLOAD DUP1 SWAP2 SUB SWAP1 LOG3 PUSH1 0x1 SWAP1 POP SWAP3 SWAP2 POP POP JUMP JUMPDEST PUSH32 0x0 DUP2 JUMP JUMPDEST PUSH1 0x60 PUSH1 0x0 DUP4 PUSH8 0xFFFFFFFFFFFFFFFF DUP2 GT ISZERO PUSH2 0x13AE JUMPI PUSH2 0x13AD PUSH2 0x54AB JUMP JUMPDEST JUMPDEST PUSH1 0x40 MLOAD SWAP1 DUP1 DUP3 MSTORE DUP1 PUSH1 0x20 MUL PUSH1 0x20 ADD DUP3 ADD PUSH1 0x40 MSTORE DUP1 ISZERO PUSH2 0x13DC JUMPI DUP2 PUSH1 0x20 ADD PUSH1 0x20 DUP3 MUL DUP1 CALLDATASIZE DUP4 CALLDATACOPY DUP1 DUP3 ADD SWAP2 POP POP SWAP1 POP JUMPDEST POP SWAP1 POP PUSH1 0x0 PUSH1 0x1 PUSH1 0x7 DUP1 SLOAD SWAP1 POP PUSH2 0x13F3 SWAP2 SWAP1 PUSH2 0x5240 JUMP JUMPDEST SWAP1 POP PUSH1 0x0 DUP5 DUP7 PUSH2 0x1403 SWAP2 SWAP1 PUSH2 0x52E0 JUMP JUMPDEST DUP3 PUSH2 0x140E SWAP2 SWAP1 PUSH2 0x5240 JUMP JUMPDEST SWAP1 POP PUSH1 0x0 DUP1 JUMPDEST DUP4 DUP4 LT ISZERO PUSH2 0x1595 JUMPI DUP7 DUP4 PUSH2 0x1428 SWAP2 SWAP1 PUSH2 0x54DA JUMP JUMPDEST SWAP2 POP PUSH1 0x0 PUSH1 0x7 DUP5 DUP2 SLOAD DUP2 LT PUSH2 0x1440 JUMPI PUSH2 0x143F PUSH2 0x5530 JUMP JUMPDEST JUMPDEST SWAP1 PUSH1 0x0 MSTORE PUSH1 0x20 PUSH1 0x0 KECCAK256 SWAP1 PUSH1 0x3 MUL ADD PUSH1 0x0 ADD SLOAD PUSH1 0x7 DUP5 DUP2 SLOAD DUP2 LT PUSH2 0x1466 JUMPI PUSH2 0x1465 PUSH2 0x5530 JUMP JUMPDEST JUMPDEST SWAP1 PUSH1 0x0 MSTORE PUSH1 0x20 PUSH1 0x0 KECCAK256 SWAP1 PUSH1 0x3 MUL ADD PUSH1 0x0 ADD SLOAD PUSH2 0x1482 SWAP2 SWAP1 PUSH2 0x5240 JUMP JUMPDEST SWAP1 POP PUSH1 0x0 DUP2 PUSH1 0x7 DUP7 DUP2 SLOAD DUP2 LT PUSH2 0x149B JUMPI PUSH2 0x149A PUSH2 0x5530 JUMP JUMPDEST JUMPDEST SWAP1 PUSH1 0x0 MSTORE PUSH1 0x20 PUSH1 0x0 KECCAK256 SWAP1 PUSH1 0x3 MUL ADD PUSH1 0x1 ADD SLOAD PUSH1 0x7 DUP7 DUP2 SLOAD DUP2 LT PUSH2 0x14C1 JUMPI PUSH2 0x14C0 PUSH2 0x5530 JUMP JUMPDEST JUMPDEST SWAP1 PUSH1 0x0 MSTORE PUSH1 0x20 PUSH1 0x0 KECCAK256 SWAP1 PUSH1 0x3 MUL ADD PUSH1 0x1 ADD SLOAD PUSH2 0x14DD SWAP2 SWAP1 PUSH2 0x5240 JUMP JUMPDEST PUSH2 0x14E7 SWAP2 SWAP1 PUSH2 0x5369 JUMP JUMPDEST SWAP1 POP PUSH1 0x0 DUP3 PUSH1 0x7 DUP8 DUP2 SLOAD DUP2 LT PUSH2 0x1500 JUMPI PUSH2 0x14FF PUSH2 0x5530 JUMP JUMPDEST JUMPDEST SWAP1 PUSH1 0x0 MSTORE PUSH1 0x20 PUSH1 0x0 KECCAK256 SWAP1 PUSH1 0x3 MUL ADD PUSH1 0x2 ADD SLOAD PUSH1 0x7 DUP8 DUP2 SLOAD DUP2 LT PUSH2 0x1526 JUMPI PUSH2 0x1525 PUSH2 0x5530 JUMP JUMPDEST JUMPDEST SWAP1 PUSH1 0x0 MSTORE PUSH1 0x20 PUSH1 0x0 KECCAK256 SWAP1 PUSH1 0x3 MUL ADD PUSH1 0x2 ADD SLOAD PUSH2 0x1542 SWAP2 SWAP1 PUSH2 0x5240 JUMP JUMPDEST PUSH2 0x154C SWAP2 SWAP1 PUSH2 0x5369 JUMP JUMPDEST SWAP1 POP PUSH2 0x155A DUP13 DUP15 DUP5 DUP5 PUSH2 0x3A73 JUMP JUMPDEST DUP9 DUP6 DUP2 MLOAD DUP2 LT PUSH2 0x156D JUMPI PUSH2 0x156C PUSH2 0x5530 JUMP JUMPDEST JUMPDEST PUSH1 0x20 MUL PUSH1 0x20 ADD ADD DUP2 DUP2 MSTORE POP POP PUSH1 0x1 DUP5 ADD SWAP4 POP POP POP POP DUP7 DUP4 PUSH2 0x158E SWAP2 SWAP1 PUSH2 0x54DA JUMP JUMPDEST SWAP3 POP PUSH2 0x1414 JUMP JUMPDEST DUP5 SWAP6 POP POP POP POP POP POP SWAP5 SWAP4 POP POP POP POP JUMP JUMPDEST PUSH1 0x2 SLOAD DUP2 JUMP JUMPDEST PUSH1 0x0 DUP1 PUSH1 0x0 TIMESTAMP SWAP1 POP PUSH1 0xB SLOAD SWAP3 POP PUSH1 0xC SLOAD SWAP2 POP PUSH1 0x0 DUP1 PUSH1 0x0 PUSH2 0x15CA PUSH2 0x1239 JUMP JUMPDEST SWAP3 POP SWAP3 POP SWAP3 POP DUP4 DUP2 EQ PUSH2 0x161B JUMPI PUSH1 0x0 DUP2 DUP6 PUSH2 0x15E5 SWAP2 SWAP1 PUSH2 0x5240 JUMP JUMPDEST SWAP1 POP DUP1 DUP5 PUSH2 0x15F3 SWAP2 SWAP1 PUSH2 0x52E0 JUMP JUMPDEST DUP8 PUSH2 0x15FE SWAP2 SWAP1 PUSH2 0x54DA JUMP JUMPDEST SWAP7 POP DUP1 DUP4 PUSH2 0x160C SWAP2 SWAP1 PUSH2 0x52E0 JUMP JUMPDEST DUP7 PUSH2 0x1617 SWAP2 SWAP1 PUSH2 0x54DA JUMP JUMPDEST SWAP6 POP POP JUMPDEST POP POP POP SWAP1 SWAP2 SWAP3 JUMP JUMPDEST PUSH1 0x10 PUSH1 0x20 MSTORE DUP1 PUSH1 0x0 MSTORE PUSH1 0x40 PUSH1 0x0 KECCAK256 PUSH1 0x0 SWAP2 POP SWAP1 POP SLOAD DUP2 JUMP JUMPDEST PUSH32 0x0 DUP2 JUMP JUMPDEST PUSH1 0x0 DUP1 CALLER SWAP1 POP PUSH1 0x0 PUSH1 0x3 PUSH1 0x0 DUP8 PUSH20 0xFFFFFFFFFFFFFFFFFFFFFFFFFFFFFFFFFFFFFFFF AND PUSH20 0xFFFFFFFFFFFFFFFFFFFFFFFFFFFFFFFFFFFFFFFF AND DUP2 MSTORE PUSH1 0x20 ADD SWAP1 DUP2 MSTORE PUSH1 0x20 ADD PUSH1 0x0 KECCAK256 PUSH1 0x0 DUP4 PUSH20 0xFFFFFFFFFFFFFFFFFFFFFFFFFFFFFFFFFFFFFFFF AND PUSH20 0xFFFFFFFFFFFFFFFFFFFFFFFFFFFFFFFFFFFFFFFF AND DUP2 MSTORE PUSH1 0x20 ADD SWAP1 DUP2 MSTORE PUSH1 0x20 ADD PUSH1 0x0 KECCAK256 SLOAD SWAP1 POP DUP6 PUSH20 0xFFFFFFFFFFFFFFFFFFFFFFFFFFFFFFFFFFFFFFFF AND DUP3 PUSH20 0xFFFFFFFFFFFFFFFFFFFFFFFFFFFFFFFFFFFFFFFF AND EQ ISZERO DUP1 ISZERO PUSH2 0x1742 JUMPI POP PUSH32 0xFFFFFFFFFFFFFFFFFFFFFFFFFFFFFFFFFFFFFFFFFFFFFFFFFFFFFFFFFFFFFFFF DUP2 EQ ISZERO JUMPDEST ISZERO PUSH2 0x183F JUMPI PUSH1 0x0 DUP5 DUP3 PUSH2 0x1755 SWAP2 SWAP1 PUSH2 0x5240 JUMP JUMPDEST SWAP1 POP DUP1 PUSH1 0x3 PUSH1 0x0 DUP10 PUSH20 0xFFFFFFFFFFFFFFFFFFFFFFFFFFFFFFFFFFFFFFFF AND PUSH20 0xFFFFFFFFFFFFFFFFFFFFFFFFFFFFFFFFFFFFFFFF AND DUP2 MSTORE PUSH1 0x20 ADD SWAP1 DUP2 MSTORE PUSH1 0x20 ADD PUSH1 0x0 KECCAK256 PUSH1 0x0 DUP6 PUSH20 0xFFFFFFFFFFFFFFFFFFFFFFFFFFFFFFFFFFFFFFFF AND PUSH20 0xFFFFFFFFFFFFFFFFFFFFFFFFFFFFFFFFFFFFFFFF AND DUP2 MSTORE PUSH1 0x20 ADD SWAP1 DUP2 MSTORE PUSH1 0x20 ADD PUSH1 0x0 KECCAK256 DUP2 SWAP1 SSTORE POP DUP3 PUSH20 0xFFFFFFFFFFFFFFFFFFFFFFFFFFFFFFFFFFFFFFFF AND DUP8 PUSH20 0xFFFFFFFFFFFFFFFFFFFFFFFFFFFFFFFFFFFFFFFF AND PUSH32 0x8C5BE1E5EBEC7D5BD14F71427D1E84F3DD0314C0F7B2291E5B200AC8C7C3B925 DUP4 PUSH1 0x40 MLOAD PUSH2 0x1835 SWAP2 SWAP1 PUSH2 0x4BA3 JUMP JUMPDEST PUSH1 0x40 MLOAD DUP1 SWAP2 SUB SWAP1 LOG3 POP JUMPDEST PUSH2 0x184A DUP7 DUP7 DUP7 PUSH2 0x3DE4 JUMP JUMPDEST PUSH1 0x1 SWAP3 POP POP POP SWAP4 SWAP3 POP POP POP JUMP JUMPDEST PUSH1 0x7 DUP2 DUP2 SLOAD DUP2 LT PUSH2 0x1867 JUMPI PUSH1 0x0 DUP1 REVERT JUMPDEST SWAP1 PUSH1 0x0 MSTORE PUSH1 0x20 PUSH1 0x0 KECCAK256 SWAP1 PUSH1 0x3 MUL ADD PUSH1 0x0 SWAP2 POP SWAP1 POP DUP1 PUSH1 0x0 ADD SLOAD SWAP1 DUP1 PUSH1 0x1 ADD SLOAD SWAP1 DUP1 PUSH1 0x2 ADD SLOAD SWAP1 POP DUP4 JUMP JUMPDEST PUSH1 0x12 DUP2 JUMP JUMPDEST PUSH1 0xD SLOAD DUP2 JUMP JUMPDEST PUSH1 0x0 DUP1 PUSH1 0x0 DUP1 PUSH1 0x0 DUP1 PUSH1 0x0 PUSH32 0x0 PUSH32 0x0 PUSH1 0x8 SLOAD PUSH1 0x9 SLOAD PUSH32 0x0 PUSH32 0x0 PUSH32 0x0 SWAP7 POP SWAP7 POP SWAP7 POP SWAP7 POP SWAP7 POP SWAP7 POP SWAP7 POP SWAP1 SWAP2 SWAP3 SWAP4 SWAP5 SWAP6 SWAP7 JUMP JUMPDEST PUSH1 0x8 SLOAD DUP2 JUMP JUMPDEST PUSH1 0x11 PUSH1 0x20 MSTORE DUP1 PUSH1 0x0 MSTORE PUSH1 0x40 PUSH1 0x0 KECCAK256 PUSH1 0x0 SWAP2 POP SWAP1 POP SLOAD DUP2 JUMP JUMPDEST PUSH1 0x0 DUP1 PUSH2 0x1992 PUSH2 0x215C JUMP JUMPDEST SWAP1 POP PUSH1 0x0 DUP1 PUSH2 0x199F PUSH2 0x15AB JUMP JUMPDEST POP SWAP2 POP SWAP2 POP DUP3 PUSH1 0x0 ADD MLOAD TIMESTAMP SUB PUSH2 0x1A0E JUMPI PUSH1 0x7 PUSH1 0x2 PUSH1 0x7 DUP1 SLOAD SWAP1 POP PUSH2 0x19C3 SWAP2 SWAP1 PUSH2 0x5240 JUMP JUMPDEST DUP2 SLOAD DUP2 LT PUSH2 0x19D4 JUMPI PUSH2 0x19D3 PUSH2 0x5530 JUMP JUMPDEST JUMPDEST SWAP1 PUSH1 0x0 MSTORE PUSH1 0x20 PUSH1 0x0 KECCAK256 SWAP1 PUSH1 0x3 MUL ADD PUSH1 0x40 MLOAD DUP1 PUSH1 0x60 ADD PUSH1 0x40 MSTORE SWAP1 DUP2 PUSH1 0x0 DUP3 ADD SLOAD DUP2 MSTORE PUSH1 0x20 ADD PUSH1 0x1 DUP3 ADD SLOAD DUP2 MSTORE PUSH1 0x20 ADD PUSH1 0x2 DUP3 ADD SLOAD DUP2 MSTORE POP POP SWAP3 POP JUMPDEST PUSH1 0x0 DUP4 PUSH1 0x0 ADD MLOAD TIMESTAMP PUSH2 0x1A20 SWAP2 SWAP1 PUSH2 0x5240 JUMP JUMPDEST SWAP1 POP PUSH1 0x0 DUP2 DUP6 PUSH1 0x20 ADD MLOAD DUP6 PUSH2 0x1A35 SWAP2 SWAP1 PUSH2 0x5240 JUMP JUMPDEST PUSH2 0x1A3F SWAP2 SWAP1 PUSH2 0x5369 JUMP JUMPDEST SWAP1 POP PUSH1 0x0 DUP3 DUP7 PUSH1 0x40 ADD MLOAD DUP6 PUSH2 0x1A54 SWAP2 SWAP1 PUSH2 0x5240 JUMP JUMPDEST PUSH2 0x1A5E SWAP2 SWAP1 PUSH2 0x5369 JUMP JUMPDEST SWAP1 POP PUSH2 0x1A6C DUP9 DUP11 DUP5 DUP5 PUSH2 0x3A73 JUMP JUMPDEST SWAP7 POP POP POP POP POP POP POP SWAP3 SWAP2 POP POP JUMP JUMPDEST PUSH1 0x60 PUSH2 0x1A89 DUP5 DUP5 DUP5 PUSH1 0x1 PUSH2 0x1390 JUMP JUMPDEST SWAP1 POP SWAP4 SWAP3 POP POP POP JUMP JUMPDEST PUSH1 0x9 SLOAD DUP2 JUMP JUMPDEST PUSH1 0x0 PUSH1 0x1 PUSH1 0x13 SLOAD EQ PUSH2 0x1AA9 JUMPI PUSH1 0x0 DUP1 REVERT JUMPDEST PUSH1 0x2 PUSH1 0x13 DUP2 SWAP1 SSTORE POP PUSH1 0x0 DUP1 PUSH1 0x8 SLOAD PUSH1 0x9 SLOAD SWAP2 POP SWAP2 POP PUSH1 0x0 PUSH32 0x0 PUSH20 0xFFFFFFFFFFFFFFFFFFFFFFFFFFFFFFFFFFFFFFFF AND PUSH4 0x70A08231 ADDRESS PUSH1 0x40 MLOAD DUP3 PUSH4 0xFFFFFFFF AND PUSH1 0xE0 SHL DUP2 MSTORE PUSH1 0x4 ADD PUSH2 0x1B19 SWAP2 SWAP1 PUSH2 0x4A41 JUMP JUMPDEST PUSH1 0x20 PUSH1 0x40 MLOAD DUP1 DUP4 SUB DUP2 DUP7 GAS STATICCALL ISZERO DUP1 ISZERO PUSH2 0x1B36 JUMPI RETURNDATASIZE PUSH1 0x0 DUP1 RETURNDATACOPY RETURNDATASIZE PUSH1 0x0 REVERT JUMPDEST POP POP POP POP PUSH1 0x40 MLOAD RETURNDATASIZE PUSH1 0x1F NOT PUSH1 0x1F DUP3 ADD AND DUP3 ADD DUP1 PUSH1 0x40 MSTORE POP DUP2 ADD SWAP1 PUSH2 0x1B5A SWAP2 SWAP1 PUSH2 0x51E4 JUMP JUMPDEST SWAP1 POP PUSH1 0x0 PUSH32 0x0 PUSH20 0xFFFFFFFFFFFFFFFFFFFFFFFFFFFFFFFFFFFFFFFF AND PUSH4 0x70A08231 ADDRESS PUSH1 0x40 MLOAD DUP3 PUSH4 0xFFFFFFFF AND PUSH1 0xE0 SHL DUP2 MSTORE PUSH1 0x4 ADD PUSH2 0x1BB7 SWAP2 SWAP1 PUSH2 0x4A41 JUMP JUMPDEST PUSH1 0x20 PUSH1 0x40 MLOAD DUP1 DUP4 SUB DUP2 DUP7 GAS STATICCALL ISZERO DUP1 ISZERO PUSH2 0x1BD4 JUMPI RETURNDATASIZE PUSH1 0x0 DUP1 RETURNDATACOPY RETURNDATASIZE PUSH1 0x0 REVERT JUMPDEST POP POP POP POP PUSH1 0x40 MLOAD RETURNDATASIZE PUSH1 0x1F NOT PUSH1 0x1F DUP3 ADD AND DUP3 ADD DUP1 PUSH1 0x40 MSTORE POP DUP2 ADD SWAP1 PUSH2 0x1BF8 SWAP2 SWAP1 PUSH2 0x51E4 JUMP JUMPDEST SWAP1 POP PUSH1 0x0 DUP5 DUP4 PUSH2 0x1C08 SWAP2 SWAP1 PUSH2 0x5240 JUMP JUMPDEST SWAP1 POP PUSH1 0x0 DUP5 DUP4 PUSH2 0x1C18 SWAP2 SWAP1 PUSH2 0x5240 JUMP JUMPDEST SWAP1 POP PUSH1 0x0 PUSH1 0x2 SLOAD SWAP1 POP PUSH1 0x0 DUP2 SUB PUSH2 0x1C5E JUMPI PUSH2 0x3E8 PUSH2 0x1C40 DUP4 DUP6 PUSH2 0x1C3B SWAP2 SWAP1 PUSH2 0x52E0 JUMP JUMPDEST PUSH2 0x3F0C JUMP JUMPDEST PUSH2 0x1C4A SWAP2 SWAP1 PUSH2 0x5240 JUMP JUMPDEST SWAP8 POP PUSH2 0x1C59 PUSH1 0x0 PUSH2 0x3E8 PUSH2 0x3F86 JUMP JUMPDEST PUSH2 0x1C97 JUMP JUMPDEST PUSH2 0x1C94 DUP8 DUP3 DUP6 PUSH2 0x1C6E SWAP2 SWAP1 PUSH2 0x52E0 JUMP JUMPDEST PUSH2 0x1C78 SWAP2 SWAP1 PUSH2 0x5369 JUMP JUMPDEST DUP8 DUP4 DUP6 PUSH2 0x1C85 SWAP2 SWAP1 PUSH2 0x52E0 JUMP JUMPDEST PUSH2 0x1C8F SWAP2 SWAP1 PUSH2 0x5369 JUMP JUMPDEST PUSH2 0x4068 JUMP JUMPDEST SWAP8 POP JUMPDEST PUSH1 0x0 DUP9 GT PUSH2 0x1CDA JUMPI PUSH1 0x40 MLOAD PUSH32 0x8C379A000000000000000000000000000000000000000000000000000000000 DUP2 MSTORE PUSH1 0x4 ADD PUSH2 0x1CD1 SWAP1 PUSH2 0x55AB JUMP JUMPDEST PUSH1 0x40 MLOAD DUP1 SWAP2 SUB SWAP1 REVERT JUMPDEST PUSH2 0x1CE4 DUP10 DUP10 PUSH2 0x3F86 JUMP JUMPDEST PUSH2 0x1CF0 DUP6 DUP6 DUP10 DUP10 PUSH2 0x3902 JUMP JUMPDEST CALLER PUSH20 0xFFFFFFFFFFFFFFFFFFFFFFFFFFFFFFFFFFFFFFFF AND PUSH32 0x4C209B5FC8AD50758F13E2E1088BA56A560DFF690A1C6FEF26394F4C03821C4F DUP5 DUP5 PUSH1 0x40 MLOAD PUSH2 0x1D38 SWAP3 SWAP2 SWAP1 PUSH2 0x4D64 JUMP JUMPDEST PUSH1 0x40 MLOAD DUP1 SWAP2 SUB SWAP1 LOG2 POP POP POP POP POP POP POP PUSH1 0x1 PUSH1 0x13 DUP2 SWAP1 SSTORE POP SWAP2 SWAP1 POP JUMP JUMPDEST PUSH1 0x4 PUSH1 0x20 MSTORE DUP1 PUSH1 0x0 MSTORE PUSH1 0x40 PUSH1 0x0 KECCAK256 PUSH1 0x0 SWAP2 POP SWAP1 POP SLOAD DUP2 JUMP JUMPDEST PUSH1 0x6 PUSH1 0x20 MSTORE DUP1 PUSH1 0x0 MSTORE PUSH1 0x40 PUSH1 0x0 KECCAK256 PUSH1 0x0 SWAP2 POP SWAP1 POP SLOAD DUP2 JUMP JUMPDEST PUSH1 0x0 DUP1 PUSH1 0x1 PUSH1 0x13 SLOAD EQ PUSH2 0x1D96 JUMPI PUSH1 0x0 DUP1 REVERT JUMPDEST PUSH1 0x2 PUSH1 0x13 DUP2 SWAP1 SSTORE POP PUSH1 0x0 DUP1 PUSH1 0x8 SLOAD PUSH1 0x9 SLOAD SWAP2 POP SWAP2 POP PUSH1 0x0 DUP1 PUSH32 0x0 PUSH32 0x0 SWAP2 POP SWAP2 POP PUSH1 0x0 DUP3 PUSH20 0xFFFFFFFFFFFFFFFFFFFFFFFFFFFFFFFFFFFFFFFF AND PUSH4 0x70A08231 ADDRESS PUSH1 0x40 MLOAD DUP3 PUSH4 0xFFFFFFFF AND PUSH1 0xE0 SHL DUP2 MSTORE PUSH1 0x4 ADD PUSH2 0x1E2F SWAP2 SWAP1 PUSH2 0x4A41 JUMP JUMPDEST PUSH1 0x20 PUSH1 0x40 MLOAD DUP1 DUP4 SUB DUP2 DUP7 GAS STATICCALL ISZERO DUP1 ISZERO PUSH2 0x1E4C JUMPI RETURNDATASIZE PUSH1 0x0 DUP1 RETURNDATACOPY RETURNDATASIZE PUSH1 0x0 REVERT JUMPDEST POP POP POP POP PUSH1 0x40 MLOAD RETURNDATASIZE PUSH1 0x1F NOT PUSH1 0x1F DUP3 ADD AND DUP3 ADD DUP1 PUSH1 0x40 MSTORE POP DUP2 ADD SWAP1 PUSH2 0x1E70 SWAP2 SWAP1 PUSH2 0x51E4 JUMP JUMPDEST SWAP1 POP PUSH1 0x0 DUP3 PUSH20 0xFFFFFFFFFFFFFFFFFFFFFFFFFFFFFFFFFFFFFFFF AND PUSH4 0x70A08231 ADDRESS PUSH1 0x40 MLOAD DUP3 PUSH4 0xFFFFFFFF AND PUSH1 0xE0 SHL DUP2 MSTORE PUSH1 0x4 ADD PUSH2 0x1EAD SWAP2 SWAP1 PUSH2 0x4A41 JUMP JUMPDEST PUSH1 0x20 PUSH1 0x40 MLOAD DUP1 DUP4 SUB DUP2 DUP7 GAS STATICCALL ISZERO DUP1 ISZERO PUSH2 0x1ECA JUMPI RETURNDATASIZE PUSH1 0x0 DUP1 RETURNDATACOPY RETURNDATASIZE PUSH1 0x0 REVERT JUMPDEST POP POP POP POP PUSH1 0x40 MLOAD RETURNDATASIZE PUSH1 0x1F NOT PUSH1 0x1F DUP3 ADD AND DUP3 ADD DUP1 PUSH1 0x40 MSTORE POP DUP2 ADD SWAP1 PUSH2 0x1EEE SWAP2 SWAP1 PUSH2 0x51E4 JUMP JUMPDEST SWAP1 POP PUSH1 0x0 PUSH1 0x4 PUSH1 0x0 ADDRESS PUSH20 0xFFFFFFFFFFFFFFFFFFFFFFFFFFFFFFFFFFFFFFFF AND PUSH20 0xFFFFFFFFFFFFFFFFFFFFFFFFFFFFFFFFFFFFFFFF AND DUP2 MSTORE PUSH1 0x20 ADD SWAP1 DUP2 MSTORE PUSH1 0x20 ADD PUSH1 0x0 KECCAK256 SLOAD SWAP1 POP PUSH1 0x0 PUSH1 0x2 SLOAD SWAP1 POP DUP1 DUP5 DUP4 PUSH2 0x1F48 SWAP2 SWAP1 PUSH2 0x52E0 JUMP JUMPDEST PUSH2 0x1F52 SWAP2 SWAP1 PUSH2 0x5369 JUMP JUMPDEST SWAP10 POP DUP1 DUP4 DUP4 PUSH2 0x1F61 SWAP2 SWAP1 PUSH2 0x52E0 JUMP JUMPDEST PUSH2 0x1F6B SWAP2 SWAP1 PUSH2 0x5369 JUMP JUMPDEST SWAP9 POP PUSH1 0x0 DUP11 GT DUP1 ISZERO PUSH2 0x1F7D JUMPI POP PUSH1 0x0 DUP10 GT JUMPDEST PUSH2 0x1FBC JUMPI PUSH1 0x40 MLOAD PUSH32 0x8C379A000000000000000000000000000000000000000000000000000000000 DUP2 MSTORE PUSH1 0x4 ADD PUSH2 0x1FB3 SWAP1 PUSH2 0x5617 JUMP JUMPDEST PUSH1 0x40 MLOAD DUP1 SWAP2 SUB SWAP1 REVERT JUMPDEST PUSH2 0x1FC6 ADDRESS DUP4 PUSH2 0x4081 JUMP JUMPDEST PUSH2 0x1FD1 DUP7 DUP13 DUP13 PUSH2 0x2ED9 JUMP JUMPDEST PUSH2 0x1FDC DUP6 DUP13 DUP12 PUSH2 0x2ED9 JUMP JUMPDEST DUP6 PUSH20 0xFFFFFFFFFFFFFFFFFFFFFFFFFFFFFFFFFFFFFFFF AND PUSH4 0x70A08231 ADDRESS PUSH1 0x40 MLOAD DUP3 PUSH4 0xFFFFFFFF AND PUSH1 0xE0 SHL DUP2 MSTORE PUSH1 0x4 ADD PUSH2 0x2015 SWAP2 SWAP1 PUSH2 0x4A41 JUMP JUMPDEST PUSH1 0x20 PUSH1 0x40 MLOAD DUP1 DUP4 SUB DUP2 DUP7 GAS STATICCALL ISZERO DUP1 ISZERO PUSH2 0x2032 JUMPI RETURNDATASIZE PUSH1 0x0 DUP1 RETURNDATACOPY RETURNDATASIZE PUSH1 0x0 REVERT JUMPDEST POP POP POP POP PUSH1 0x40 MLOAD RETURNDATASIZE PUSH1 0x1F NOT PUSH1 0x1F DUP3 ADD AND DUP3 ADD DUP1 PUSH1 0x40 MSTORE POP DUP2 ADD SWAP1 PUSH2 0x2056 SWAP2 SWAP1 PUSH2 0x51E4 JUMP JUMPDEST SWAP4 POP DUP5 PUSH20 0xFFFFFFFFFFFFFFFFFFFFFFFFFFFFFFFFFFFFFFFF AND PUSH4 0x70A08231 ADDRESS PUSH1 0x40 MLOAD DUP3 PUSH4 0xFFFFFFFF AND PUSH1 0xE0 SHL DUP2 MSTORE PUSH1 0x4 ADD PUSH2 0x2091 SWAP2 SWAP1 PUSH2 0x4A41 JUMP JUMPDEST PUSH1 0x20 PUSH1 0x40 MLOAD DUP1 DUP4 SUB DUP2 DUP7 GAS STATICCALL ISZERO DUP1 ISZERO PUSH2 0x20AE JUMPI RETURNDATASIZE PUSH1 0x0 DUP1 RETURNDATACOPY RETURNDATASIZE PUSH1 0x0 REVERT JUMPDEST POP POP POP POP PUSH1 0x40 MLOAD RETURNDATASIZE PUSH1 0x1F NOT PUSH1 0x1F DUP3 ADD AND DUP3 ADD DUP1 PUSH1 0x40 MSTORE POP DUP2 ADD SWAP1 PUSH2 0x20D2 SWAP2 SWAP1 PUSH2 0x51E4 JUMP JUMPDEST SWAP3 POP PUSH2 0x20E0 DUP5 DUP5 DUP11 DUP11 PUSH2 0x3902 JUMP JUMPDEST DUP11 PUSH20 0xFFFFFFFFFFFFFFFFFFFFFFFFFFFFFFFFFFFFFFFF AND CALLER PUSH20 0xFFFFFFFFFFFFFFFFFFFFFFFFFFFFFFFFFFFFFFFF AND PUSH32 0xDCCD412F0B1252819CB1FD330B93224CA42612892BB3F4F789976E6D81936496 DUP13 DUP13 PUSH1 0x40 MLOAD PUSH2 0x213F SWAP3 SWAP2 SWAP1 PUSH2 0x4D64 JUMP JUMPDEST PUSH1 0x40 MLOAD DUP1 SWAP2 SUB SWAP1 LOG3 POP POP POP POP POP POP POP POP PUSH1 0x1 PUSH1 0x13 DUP2 SWAP1 SSTORE POP SWAP2 POP SWAP2 JUMP JUMPDEST PUSH2 0x2164 PUSH2 0x470F JUMP JUMPDEST PUSH1 0x7 PUSH1 0x1 PUSH1 0x7 DUP1 SLOAD SWAP1 POP PUSH2 0x2178 SWAP2 SWAP1 PUSH2 0x5240 JUMP JUMPDEST DUP2 SLOAD DUP2 LT PUSH2 0x2189 JUMPI PUSH2 0x2188 PUSH2 0x5530 JUMP JUMPDEST JUMPDEST SWAP1 PUSH1 0x0 MSTORE PUSH1 0x20 PUSH1 0x0 KECCAK256 SWAP1 PUSH1 0x3 MUL ADD PUSH1 0x40 MLOAD DUP1 PUSH1 0x60 ADD PUSH1 0x40 MSTORE SWAP1 DUP2 PUSH1 0x0 DUP3 ADD SLOAD DUP2 MSTORE PUSH1 0x20 ADD PUSH1 0x1 DUP3 ADD SLOAD DUP2 MSTORE PUSH1 0x20 ADD PUSH1 0x2 DUP3 ADD SLOAD DUP2 MSTORE POP POP SWAP1 POP SWAP1 JUMP JUMPDEST PUSH1 0x1 DUP1 SLOAD PUSH2 0x21D2 SWAP1 PUSH2 0x547A JUMP JUMPDEST DUP1 PUSH1 0x1F ADD PUSH1 0x20 DUP1 SWAP2 DIV MUL PUSH1 0x20 ADD PUSH1 0x40 MLOAD SWAP1 DUP2 ADD PUSH1 0x40 MSTORE DUP1 SWAP3 SWAP2 SWAP1 DUP2 DUP2 MSTORE PUSH1 0x20 ADD DUP3 DUP1 SLOAD PUSH2 0x21FE SWAP1 PUSH2 0x547A JUMP JUMPDEST DUP1 ISZERO PUSH2 0x224B JUMPI DUP1 PUSH1 0x1F LT PUSH2 0x2220 JUMPI PUSH2 0x100 DUP1 DUP4 SLOAD DIV MUL DUP4 MSTORE SWAP2 PUSH1 0x20 ADD SWAP2 PUSH2 0x224B JUMP JUMPDEST DUP3 ADD SWAP2 SWAP1 PUSH1 0x0 MSTORE PUSH1 0x20 PUSH1 0x0 KECCAK256 SWAP1 JUMPDEST DUP2 SLOAD DUP2 MSTORE SWAP1 PUSH1 0x1 ADD SWAP1 PUSH1 0x20 ADD DUP1 DUP4 GT PUSH2 0x222E JUMPI DUP3 SWAP1 SUB PUSH1 0x1F AND DUP3 ADD SWAP2 JUMPDEST POP POP POP POP POP DUP2 JUMP JUMPDEST PUSH32 0x0 DUP2 JUMP JUMPDEST PUSH1 0x0 DUP1 PUSH32 0x0 PUSH32 0x0 SWAP2 POP SWAP2 POP SWAP1 SWAP2 JUMP JUMPDEST PUSH1 0x0 DUP1 PUSH2 0x22D4 DUP6 DUP6 DUP6 PUSH1 0x1 PUSH2 0x1390 JUMP JUMPDEST SWAP1 POP PUSH1 0x0 DUP1 PUSH1 0x0 SWAP1 POP JUMPDEST DUP3 MLOAD DUP2 LT ISZERO PUSH2 0x2322 JUMPI DUP3 DUP2 DUP2 MLOAD DUP2 LT PUSH2 0x22FA JUMPI PUSH2 0x22F9 PUSH2 0x5530 JUMP JUMPDEST JUMPDEST PUSH1 0x20 MUL PUSH1 0x20 ADD ADD MLOAD DUP3 PUSH2 0x230D SWAP2 SWAP1 PUSH2 0x54DA JUMP JUMPDEST SWAP2 POP DUP1 DUP1 PUSH2 0x231A SWAP1 PUSH2 0x5637 JUMP JUMPDEST SWAP2 POP POP PUSH2 0x22DE JUMP JUMPDEST POP DUP4 DUP2 PUSH2 0x232F SWAP2 SWAP1 PUSH2 0x5369 JUMP JUMPDEST SWAP3 POP POP POP SWAP4 SWAP3 POP POP POP JUMP JUMPDEST PUSH1 0xF PUSH1 0x20 MSTORE DUP1 PUSH1 0x0 MSTORE PUSH1 0x40 PUSH1 0x0 KECCAK256 PUSH1 0x0 SWAP2 POP SWAP1 POP SLOAD DUP2 JUMP JUMPDEST PUSH1 0x12 PUSH1 0x20 MSTORE DUP1 PUSH1 0x0 MSTORE PUSH1 0x40 PUSH1 0x0 KECCAK256 PUSH1 0x0 SWAP2 POP SWAP1 POP SLOAD DUP2 JUMP JUMPDEST PUSH1 0x0 PUSH2 0x2377 CALLER DUP5 DUP5 PUSH2 0x3DE4 JUMP JUMPDEST PUSH1 0x1 SWAP1 POP SWAP3 SWAP2 POP POP JUMP JUMPDEST PUSH1 0x1 PUSH1 0x13 SLOAD EQ PUSH2 0x2390 JUMPI PUSH1 0x0 DUP1 REVERT JUMPDEST PUSH1 0x2 PUSH1 0x13 DUP2 SWAP1 SSTORE POP PUSH1 0x0 DUP1 PUSH32 0x0 PUSH32 0x0 SWAP2 POP SWAP2 POP PUSH2 0x2472 DUP3 DUP5 PUSH1 0x8 SLOAD DUP6 PUSH20 0xFFFFFFFFFFFFFFFFFFFFFFFFFFFFFFFFFFFFFFFF AND PUSH4 0x70A08231 ADDRESS PUSH1 0x40 MLOAD DUP3 PUSH4 0xFFFFFFFF AND PUSH1 0xE0 SHL DUP2 MSTORE PUSH1 0x4 ADD PUSH2 0x2422 SWAP2 SWAP1 PUSH2 0x4A41 JUMP JUMPDEST PUSH1 0x20 PUSH1 0x40 MLOAD DUP1 DUP4 SUB DUP2 DUP7 GAS STATICCALL ISZERO DUP1 ISZERO PUSH2 0x243F JUMPI RETURNDATASIZE PUSH1 0x0 DUP1 RETURNDATACOPY RETURNDATASIZE PUSH1 0x0 REVERT JUMPDEST POP POP POP POP PUSH1 0x40 MLOAD RETURNDATASIZE PUSH1 0x1F NOT PUSH1 0x1F DUP3 ADD AND DUP3 ADD DUP1 PUSH1 0x40 MSTORE POP DUP2 ADD SWAP1 PUSH2 0x2463 SWAP2 SWAP1 PUSH2 0x51E4 JUMP JUMPDEST PUSH2 0x246D SWAP2 SWAP1 PUSH2 0x5240 JUMP JUMPDEST PUSH2 0x2ED9 JUMP JUMPDEST PUSH2 0x2503 DUP2 DUP5 PUSH1 0x9 SLOAD DUP5 PUSH20 0xFFFFFFFFFFFFFFFFFFFFFFFFFFFFFFFFFFFFFFFF AND PUSH4 0x70A08231 ADDRESS PUSH1 0x40 MLOAD DUP3 PUSH4 0xFFFFFFFF AND PUSH1 0xE0 SHL DUP2 MSTORE PUSH1 0x4 ADD PUSH2 0x24B3 SWAP2 SWAP1 PUSH2 0x4A41 JUMP JUMPDEST PUSH1 0x20 PUSH1 0x40 MLOAD DUP1 DUP4 SUB DUP2 DUP7 GAS STATICCALL ISZERO DUP1 ISZERO PUSH2 0x24D0 JUMPI RETURNDATASIZE PUSH1 0x0 DUP1 RETURNDATACOPY RETURNDATASIZE PUSH1 0x0 REVERT JUMPDEST POP POP POP POP PUSH1 0x40 MLOAD RETURNDATASIZE PUSH1 0x1F NOT PUSH1 0x1F DUP3 ADD AND DUP3 ADD DUP1 PUSH1 0x40 MSTORE POP DUP2 ADD SWAP1 PUSH2 0x24F4 SWAP2 SWAP1 PUSH2 0x51E4 JUMP JUMPDEST PUSH2 0x24FE SWAP2 SWAP1 PUSH2 0x5240 JUMP JUMPDEST PUSH2 0x2ED9 JUMP JUMPDEST POP POP PUSH1 0x1 PUSH1 0x13 DUP2 SWAP1 SSTORE POP POP JUMP JUMPDEST PUSH1 0xE SLOAD DUP2 JUMP JUMPDEST PUSH1 0xB SLOAD DUP2 JUMP JUMPDEST PUSH1 0xC SLOAD DUP2 JUMP JUMPDEST PUSH1 0xA SLOAD DUP2 JUMP JUMPDEST PUSH32 0x0 DUP2 JUMP JUMPDEST PUSH1 0x0 DUP1 PUSH2 0x2558 CALLER PUSH2 0x4163 JUMP JUMPDEST PUSH1 0x11 PUSH1 0x0 CALLER PUSH20 0xFFFFFFFFFFFFFFFFFFFFFFFFFFFFFFFFFFFFFFFF AND PUSH20 0xFFFFFFFFFFFFFFFFFFFFFFFFFFFFFFFFFFFFFFFF AND DUP2 MSTORE PUSH1 0x20 ADD SWAP1 DUP2 MSTORE PUSH1 0x20 ADD PUSH1 0x0 KECCAK256 SLOAD SWAP2 POP PUSH1 0x12 PUSH1 0x0 CALLER PUSH20 0xFFFFFFFFFFFFFFFFFFFFFFFFFFFFFFFFFFFFFFFF AND PUSH20 0xFFFFFFFFFFFFFFFFFFFFFFFFFFFFFFFFFFFFFFFF AND DUP2 MSTORE PUSH1 0x20 ADD SWAP1 DUP2 MSTORE PUSH1 0x20 ADD PUSH1 0x0 KECCAK256 SLOAD SWAP1 POP PUSH1 0x0 DUP3 GT DUP1 PUSH2 0x25EB JUMPI POP PUSH1 0x0 DUP2 GT JUMPDEST ISZERO PUSH2 0x2771 JUMPI PUSH1 0x0 PUSH1 0x11 PUSH1 0x0 CALLER PUSH20 0xFFFFFFFFFFFFFFFFFFFFFFFFFFFFFFFFFFFFFFFF AND PUSH20 0xFFFFFFFFFFFFFFFFFFFFFFFFFFFFFFFFFFFFFFFF AND DUP2 MSTORE PUSH1 0x20 ADD SWAP1 DUP2 MSTORE PUSH1 0x20 ADD PUSH1 0x0 KECCAK256 DUP2 SWAP1 SSTORE POP PUSH1 0x0 PUSH1 0x12 PUSH1 0x0 CALLER PUSH20 0xFFFFFFFFFFFFFFFFFFFFFFFFFFFFFFFFFFFFFFFF AND PUSH20 0xFFFFFFFFFFFFFFFFFFFFFFFFFFFFFFFFFFFFFFFF AND DUP2 MSTORE PUSH1 0x20 ADD SWAP1 DUP2 MSTORE PUSH1 0x20 ADD PUSH1 0x0 KECCAK256 DUP2 SWAP1 SSTORE POP PUSH32 0x0 PUSH20 0xFFFFFFFFFFFFFFFFFFFFFFFFFFFFFFFFFFFFFFFF AND PUSH4 0x533CF5CE CALLER DUP5 DUP5 PUSH1 0x40 MLOAD DUP5 PUSH4 0xFFFFFFFF AND PUSH1 0xE0 SHL DUP2 MSTORE PUSH1 0x4 ADD PUSH2 0x26D7 SWAP4 SWAP3 SWAP2 SWAP1 PUSH2 0x567F JUMP JUMPDEST PUSH1 0x0 PUSH1 0x40 MLOAD DUP1 DUP4 SUB DUP2 PUSH1 0x0 DUP8 DUP1 EXTCODESIZE ISZERO DUP1 ISZERO PUSH2 0x26F1 JUMPI PUSH1 0x0 DUP1 REVERT JUMPDEST POP GAS CALL ISZERO DUP1 ISZERO PUSH2 0x2705 JUMPI RETURNDATASIZE PUSH1 0x0 DUP1 RETURNDATACOPY RETURNDATASIZE PUSH1 0x0 REVERT JUMPDEST POP POP POP POP CALLER PUSH20 0xFFFFFFFFFFFFFFFFFFFFFFFFFFFFFFFFFFFFFFFF AND CALLER PUSH20 0xFFFFFFFFFFFFFFFFFFFFFFFFFFFFFFFFFFFFFFFF AND PUSH32 0x865CA08D59F5CB456E85CD2F7EF63664EA4F73327414E9D8152C4158B0E94645 DUP5 DUP5 PUSH1 0x40 MLOAD PUSH2 0x2768 SWAP3 SWAP2 SWAP1 PUSH2 0x4D64 JUMP JUMPDEST PUSH1 0x40 MLOAD DUP1 SWAP2 SUB SWAP1 LOG3 JUMPDEST SWAP1 SWAP2 JUMP JUMPDEST TIMESTAMP DUP5 LT ISZERO PUSH2 0x27B8 JUMPI PUSH1 0x40 MLOAD PUSH32 0x8C379A000000000000000000000000000000000000000000000000000000000 DUP2 MSTORE PUSH1 0x4 ADD PUSH2 0x27AF SWAP1 PUSH2 0x5702 JUMP JUMPDEST PUSH1 0x40 MLOAD DUP1 SWAP2 SUB SWAP1 REVERT JUMPDEST PUSH32 0x8B73C3C69BB8FE3D512ECC4CF759CC79239F7B179B0FFACAA9A75D522B39400F PUSH1 0x0 PUSH1 0x40 MLOAD PUSH2 0x27E8 SWAP2 SWAP1 PUSH2 0x57C1 JUMP JUMPDEST PUSH1 0x40 MLOAD DUP1 SWAP2 SUB SWAP1 KECCAK256 PUSH1 0x40 MLOAD DUP1 PUSH1 0x40 ADD PUSH1 0x40 MSTORE DUP1 PUSH1 0x1 DUP2 MSTORE PUSH1 0x20 ADD PUSH32 0x3100000000000000000000000000000000000000000000000000000000000000 DUP2 MSTORE POP DUP1 MLOAD SWAP1 PUSH1 0x20 ADD KECCAK256 CHAINID ADDRESS PUSH1 0x40 MLOAD PUSH1 0x20 ADD PUSH2 0x2843 SWAP6 SWAP5 SWAP4 SWAP3 SWAP2 SWAP1 PUSH2 0x57E7 JUMP JUMPDEST PUSH1 0x40 MLOAD PUSH1 0x20 DUP2 DUP4 SUB SUB DUP2 MSTORE SWAP1 PUSH1 0x40 MSTORE DUP1 MLOAD SWAP1 PUSH1 0x20 ADD KECCAK256 PUSH1 0x5 DUP2 SWAP1 SSTORE POP PUSH1 0x0 PUSH1 0x5 SLOAD PUSH32 0x6E71EDAE12B1B97F4D1F60370FEF10105FA2FAAE0126114A169C64845D6126C9 PUSH1 0x0 SHL DUP10 DUP10 DUP10 PUSH1 0x6 PUSH1 0x0 DUP15 PUSH20 0xFFFFFFFFFFFFFFFFFFFFFFFFFFFFFFFFFFFFFFFF AND PUSH20 0xFFFFFFFFFFFFFFFFFFFFFFFFFFFFFFFFFFFFFFFF AND DUP2 MSTORE PUSH1 0x20 ADD SWAP1 DUP2 MSTORE PUSH1 0x20 ADD PUSH1 0x0 KECCAK256 PUSH1 0x0 DUP2 SLOAD DUP1 SWAP3 SWAP2 SWAP1 PUSH2 0x28DB SWAP1 PUSH2 0x5637 JUMP JUMPDEST SWAP2 SWAP1 POP SSTORE DUP11 PUSH1 0x40 MLOAD PUSH1 0x20 ADD PUSH2 0x28F5 SWAP7 SWAP6 SWAP5 SWAP4 SWAP3 SWAP2 SWAP1 PUSH2 0x583A JUMP JUMPDEST PUSH1 0x40 MLOAD PUSH1 0x20 DUP2 DUP4 SUB SUB DUP2 MSTORE SWAP1 PUSH1 0x40 MSTORE DUP1 MLOAD SWAP1 PUSH1 0x20 ADD KECCAK256 PUSH1 0x40 MLOAD PUSH1 0x20 ADD PUSH2 0x291C SWAP3 SWAP2 SWAP1 PUSH2 0x5913 JUMP JUMPDEST PUSH1 0x40 MLOAD PUSH1 0x20 DUP2 DUP4 SUB SUB DUP2 MSTORE SWAP1 PUSH1 0x40 MSTORE DUP1 MLOAD SWAP1 PUSH1 0x20 ADD KECCAK256 SWAP1 POP PUSH1 0x0 PUSH1 0x1 DUP3 DUP7 DUP7 DUP7 PUSH1 0x40 MLOAD PUSH1 0x0 DUP2 MSTORE PUSH1 0x20 ADD PUSH1 0x40 MSTORE PUSH1 0x40 MLOAD PUSH2 0x2959 SWAP5 SWAP4 SWAP3 SWAP2 SWAP1 PUSH2 0x594A JUMP JUMPDEST PUSH1 0x20 PUSH1 0x40 MLOAD PUSH1 0x20 DUP2 SUB SWAP1 DUP1 DUP5 SUB SWAP1 DUP6 GAS STATICCALL ISZERO DUP1 ISZERO PUSH2 0x297B JUMPI RETURNDATASIZE PUSH1 0x0 DUP1 RETURNDATACOPY RETURNDATASIZE PUSH1 0x0 REVERT JUMPDEST POP POP POP PUSH1 0x20 PUSH1 0x40 MLOAD SUB MLOAD SWAP1 POP PUSH1 0x0 PUSH20 0xFFFFFFFFFFFFFFFFFFFFFFFFFFFFFFFFFFFFFFFF AND DUP2 PUSH20 0xFFFFFFFFFFFFFFFFFFFFFFFFFFFFFFFFFFFFFFFF AND EQ ISZERO DUP1 ISZERO PUSH2 0x29EF JUMPI POP DUP9 PUSH20 0xFFFFFFFFFFFFFFFFFFFFFFFFFFFFFFFFFFFFFFFF AND DUP2 PUSH20 0xFFFFFFFFFFFFFFFFFFFFFFFFFFFFFFFFFFFFFFFF AND EQ JUMPDEST PUSH2 0x2A2E JUMPI PUSH1 0x40 MLOAD PUSH32 0x8C379A000000000000000000000000000000000000000000000000000000000 DUP2 MSTORE PUSH1 0x4 ADD PUSH2 0x2A25 SWAP1 PUSH2 0x59DB JUMP JUMPDEST PUSH1 0x40 MLOAD DUP1 SWAP2 SUB SWAP1 REVERT JUMPDEST DUP7 PUSH1 0x3 PUSH1 0x0 DUP12 PUSH20 0xFFFFFFFFFFFFFFFFFFFFFFFFFFFFFFFFFFFFFFFF AND PUSH20 0xFFFFFFFFFFFFFFFFFFFFFFFFFFFFFFFFFFFFFFFF AND DUP2 MSTORE PUSH1 0x20 ADD SWAP1 DUP2 MSTORE PUSH1 0x20 ADD PUSH1 0x0 KECCAK256 PUSH1 0x0 DUP11 PUSH20 0xFFFFFFFFFFFFFFFFFFFFFFFFFFFFFFFFFFFFFFFF AND PUSH20 0xFFFFFFFFFFFFFFFFFFFFFFFFFFFFFFFFFFFFFFFF AND DUP2 MSTORE PUSH1 0x20 ADD SWAP1 DUP2 MSTORE PUSH1 0x20 ADD PUSH1 0x0 KECCAK256 DUP2 SWAP1 SSTORE POP DUP8 PUSH20 0xFFFFFFFFFFFFFFFFFFFFFFFFFFFFFFFFFFFFFFFF AND DUP10 PUSH20 0xFFFFFFFFFFFFFFFFFFFFFFFFFFFFFFFFFFFFFFFF AND PUSH32 0x8C5BE1E5EBEC7D5BD14F71427D1E84F3DD0314C0F7B2291E5B200AC8C7C3B925 DUP10 PUSH1 0x40 MLOAD PUSH2 0x2B0C SWAP2 SWAP1 PUSH2 0x4BA3 JUMP JUMPDEST PUSH1 0x40 MLOAD DUP1 SWAP2 SUB SWAP1 LOG3 POP POP POP POP POP POP POP POP POP JUMP JUMPDEST PUSH1 0x3 PUSH1 0x20 MSTORE DUP2 PUSH1 0x0 MSTORE PUSH1 0x40 PUSH1 0x0 KECCAK256 PUSH1 0x20 MSTORE DUP1 PUSH1 0x0 MSTORE PUSH1 0x40 PUSH1 0x0 KECCAK256 PUSH1 0x0 SWAP2 POP SWAP2 POP POP SLOAD DUP2 JUMP JUMPDEST PUSH1 0x0 PUSH1 0x7 DUP1 SLOAD SWAP1 POP SWAP1 POP SWAP1 JUMP JUMPDEST PUSH1 0x0 PUSH32 0x0 PUSH20 0xFFFFFFFFFFFFFFFFFFFFFFFFFFFFFFFFFFFFFFFF AND PUSH4 0xC124A4A2 PUSH1 0x40 MLOAD DUP2 PUSH4 0xFFFFFFFF AND PUSH1 0xE0 SHL DUP2 MSTORE PUSH1 0x4 ADD PUSH1 0x20 PUSH1 0x40 MLOAD DUP1 DUP4 SUB DUP2 DUP7 GAS STATICCALL ISZERO DUP1 ISZERO PUSH2 0x2BBE JUMPI RETURNDATASIZE PUSH1 0x0 DUP1 RETURNDATACOPY RETURNDATASIZE PUSH1 0x0 REVERT JUMPDEST POP POP POP POP PUSH1 0x40 MLOAD RETURNDATASIZE PUSH1 0x1F NOT PUSH1 0x1F DUP3 ADD AND DUP3 ADD DUP1 PUSH1 0x40 MSTORE POP DUP2 ADD SWAP1 PUSH2 0x2BE2 SWAP2 SWAP1 PUSH2 0x5A10 JUMP JUMPDEST SWAP1 POP PUSH32 0x0 PUSH20 0xFFFFFFFFFFFFFFFFFFFFFFFFFFFFFFFFFFFFFFFF AND PUSH4 0xF8518B89 DUP3 PUSH1 0x40 MLOAD DUP3 PUSH4 0xFFFFFFFF AND PUSH1 0xE0 SHL DUP2 MSTORE PUSH1 0x4 ADD PUSH2 0x2C3D SWAP2 SWAP1 PUSH2 0x4A41 JUMP JUMPDEST PUSH1 0x0 PUSH1 0x40 MLOAD DUP1 DUP4 SUB DUP2 PUSH1 0x0 DUP8 DUP1 EXTCODESIZE ISZERO DUP1 ISZERO PUSH2 0x2C57 JUMPI PUSH1 0x0 DUP1 REVERT JUMPDEST POP GAS CALL ISZERO DUP1 ISZERO PUSH2 0x2C6B JUMPI RETURNDATASIZE PUSH1 0x0 DUP1 RETURNDATACOPY RETURNDATASIZE PUSH1 0x0 REVERT JUMPDEST POP POP POP POP POP JUMP JUMPDEST PUSH1 0x0 DUP1 PUSH1 0x0 PUSH1 0x8 SLOAD PUSH1 0x9 SLOAD SWAP2 POP SWAP2 POP PUSH2 0x2710 PUSH32 0x0 PUSH20 0xFFFFFFFFFFFFFFFFFFFFFFFFFFFFFFFFFFFFFFFF AND PUSH4 0x512B45EA PUSH32 0x0 PUSH1 0x40 MLOAD DUP3 PUSH4 0xFFFFFFFF AND PUSH1 0xE0 SHL DUP2 MSTORE PUSH1 0x4 ADD PUSH2 0x2CFD SWAP2 SWAP1 PUSH2 0x49D7 JUMP JUMPDEST PUSH1 0x20 PUSH1 0x40 MLOAD DUP1 DUP4 SUB DUP2 DUP7 GAS STATICCALL ISZERO DUP1 ISZERO PUSH2 0x2D1A JUMPI RETURNDATASIZE PUSH1 0x0 DUP1 RETURNDATACOPY RETURNDATASIZE PUSH1 0x0 REVERT JUMPDEST POP POP POP POP PUSH1 0x40 MLOAD RETURNDATASIZE PUSH1 0x1F NOT PUSH1 0x1F DUP3 ADD AND DUP3 ADD DUP1 PUSH1 0x40 MSTORE POP DUP2 ADD SWAP1 PUSH2 0x2D3E SWAP2 SWAP1 PUSH2 0x51E4 JUMP JUMPDEST DUP7 PUSH2 0x2D49 SWAP2 SWAP1 PUSH2 0x52E0 JUMP JUMPDEST PUSH2 0x2D53 SWAP2 SWAP1 PUSH2 0x5369 JUMP JUMPDEST DUP6 PUSH2 0x2D5E SWAP2 SWAP1 PUSH2 0x5240 JUMP JUMPDEST SWAP5 POP PUSH2 0x2D6C DUP6 DUP6 DUP5 DUP5 PUSH2 0x3A73 JUMP JUMPDEST SWAP3 POP POP POP SWAP3 SWAP2 POP POP JUMP JUMPDEST PUSH1 0x1 PUSH1 0x13 SLOAD EQ PUSH2 0x2D85 JUMPI PUSH1 0x0 DUP1 REVERT JUMPDEST PUSH1 0x2 PUSH1 0x13 DUP2 SWAP1 SSTORE POP PUSH2 0x2ECF PUSH32 0x0 PUSH20 0xFFFFFFFFFFFFFFFFFFFFFFFFFFFFFFFFFFFFFFFF AND PUSH4 0x70A08231 ADDRESS PUSH1 0x40 MLOAD DUP3 PUSH4 0xFFFFFFFF AND PUSH1 0xE0 SHL DUP2 MSTORE PUSH1 0x4 ADD PUSH2 0x2DE9 SWAP2 SWAP1 PUSH2 0x4A41 JUMP JUMPDEST PUSH1 0x20 PUSH1 0x40 MLOAD DUP1 DUP4 SUB DUP2 DUP7 GAS STATICCALL ISZERO DUP1 ISZERO PUSH2 0x2E06 JUMPI RETURNDATASIZE PUSH1 0x0 DUP1 RETURNDATACOPY RETURNDATASIZE PUSH1 0x0 REVERT JUMPDEST POP POP POP POP PUSH1 0x40 MLOAD RETURNDATASIZE PUSH1 0x1F NOT PUSH1 0x1F DUP3 ADD AND DUP3 ADD DUP1 PUSH1 0x40 MSTORE POP DUP2 ADD SWAP1 PUSH2 0x2E2A SWAP2 SWAP1 PUSH2 0x51E4 JUMP JUMPDEST PUSH32 0x0 PUSH20 0xFFFFFFFFFFFFFFFFFFFFFFFFFFFFFFFFFFFFFFFF AND PUSH4 0x70A08231 ADDRESS PUSH1 0x40 MLOAD DUP3 PUSH4 0xFFFFFFFF AND PUSH1 0xE0 SHL DUP2 MSTORE PUSH1 0x4 ADD PUSH2 0x2E83 SWAP2 SWAP1 PUSH2 0x4A41 JUMP JUMPDEST PUSH1 0x20 PUSH1 0x40 MLOAD DUP1 DUP4 SUB DUP2 DUP7 GAS STATICCALL ISZERO DUP1 ISZERO PUSH2 0x2EA0 JUMPI RETURNDATASIZE PUSH1 0x0 DUP1 RETURNDATACOPY RETURNDATASIZE PUSH1 0x0 REVERT JUMPDEST POP POP POP POP PUSH1 0x40 MLOAD RETURNDATASIZE PUSH1 0x1F NOT PUSH1 0x1F DUP3 ADD AND DUP3 ADD DUP1 PUSH1 0x40 MSTORE POP DUP2 ADD SWAP1 PUSH2 0x2EC4 SWAP2 SWAP1 PUSH2 0x51E4 JUMP JUMPDEST PUSH1 0x8 SLOAD PUSH1 0x9 SLOAD PUSH2 0x3902 JUMP JUMPDEST PUSH1 0x1 PUSH1 0x13 DUP2 SWAP1 SSTORE POP JUMP JUMPDEST PUSH1 0x0 DUP4 PUSH20 0xFFFFFFFFFFFFFFFFFFFFFFFFFFFFFFFFFFFFFFFF AND EXTCODESIZE GT PUSH2 0x2EFD JUMPI PUSH1 0x0 DUP1 REVERT JUMPDEST PUSH1 0x0 DUP1 DUP5 PUSH20 0xFFFFFFFFFFFFFFFFFFFFFFFFFFFFFFFFFFFFFFFF AND PUSH4 0xA9059CBB PUSH1 0xE0 SHL DUP6 DUP6 PUSH1 0x40 MLOAD PUSH1 0x24 ADD PUSH2 0x2F32 SWAP3 SWAP2 SWAP1 PUSH2 0x5A3D JUMP JUMPDEST PUSH1 0x40 MLOAD PUSH1 0x20 DUP2 DUP4 SUB SUB DUP2 MSTORE SWAP1 PUSH1 0x40 MSTORE SWAP1 PUSH28 0xFFFFFFFFFFFFFFFFFFFFFFFFFFFFFFFFFFFFFFFFFFFFFFFFFFFFFFFF NOT AND PUSH1 0x20 DUP3 ADD DUP1 MLOAD PUSH28 0xFFFFFFFFFFFFFFFFFFFFFFFFFFFFFFFFFFFFFFFFFFFFFFFFFFFFFFFF DUP4 DUP2 DUP4 AND OR DUP4 MSTORE POP POP POP POP PUSH1 0x40 MLOAD PUSH2 0x2F9C SWAP2 SWAP1 PUSH2 0x5AA2 JUMP JUMPDEST PUSH1 0x0 PUSH1 0x40 MLOAD DUP1 DUP4 SUB DUP2 PUSH1 0x0 DUP7 GAS CALL SWAP2 POP POP RETURNDATASIZE DUP1 PUSH1 0x0 DUP2 EQ PUSH2 0x2FD9 JUMPI PUSH1 0x40 MLOAD SWAP2 POP PUSH1 0x1F NOT PUSH1 0x3F RETURNDATASIZE ADD AND DUP3 ADD PUSH1 0x40 MSTORE RETURNDATASIZE DUP3 MSTORE RETURNDATASIZE PUSH1 0x0 PUSH1 0x20 DUP5 ADD RETURNDATACOPY PUSH2 0x2FDE JUMP JUMPDEST PUSH1 0x60 SWAP2 POP JUMPDEST POP SWAP2 POP SWAP2 POP DUP2 DUP1 ISZERO PUSH2 0x300C JUMPI POP PUSH1 0x0 DUP2 MLOAD EQ DUP1 PUSH2 0x300B JUMPI POP DUP1 DUP1 PUSH1 0x20 ADD SWAP1 MLOAD DUP2 ADD SWAP1 PUSH2 0x300A SWAP2 SWAP1 PUSH2 0x4FC3 JUMP JUMPDEST JUMPDEST JUMPDEST PUSH2 0x3015 JUMPI PUSH1 0x0 DUP1 REVERT JUMPDEST POP POP POP POP POP JUMP JUMPDEST PUSH1 0x0 PUSH32 0x0 PUSH20 0xFFFFFFFFFFFFFFFFFFFFFFFFFFFFFFFFFFFFFFFF AND PUSH4 0x7BE1623E PUSH1 0x40 MLOAD DUP2 PUSH4 0xFFFFFFFF AND PUSH1 0xE0 SHL DUP2 MSTORE PUSH1 0x4 ADD PUSH1 0x20 PUSH1 0x40 MLOAD DUP1 DUP4 SUB DUP2 DUP7 GAS STATICCALL ISZERO DUP1 ISZERO PUSH2 0x3089 JUMPI RETURNDATASIZE PUSH1 0x0 DUP1 RETURNDATACOPY RETURNDATASIZE PUSH1 0x0 REVERT JUMPDEST POP POP POP POP PUSH1 0x40 MLOAD RETURNDATASIZE PUSH1 0x1F NOT PUSH1 0x1F DUP3 ADD AND DUP3 ADD DUP1 PUSH1 0x40 MSTORE POP DUP2 ADD SWAP1 PUSH2 0x30AD SWAP2 SWAP1 PUSH2 0x5A10 JUMP JUMPDEST SWAP1 POP PUSH1 0x0 PUSH32 0x0 PUSH20 0xFFFFFFFFFFFFFFFFFFFFFFFFFFFFFFFFFFFFFFFF AND PUSH4 0x1E61079C PUSH1 0x40 MLOAD DUP2 PUSH4 0xFFFFFFFF AND PUSH1 0xE0 SHL DUP2 MSTORE PUSH1 0x4 ADD PUSH1 0x20 PUSH1 0x40 MLOAD DUP1 DUP4 SUB DUP2 DUP7 GAS STATICCALL ISZERO DUP1 ISZERO PUSH2 0x311C JUMPI RETURNDATASIZE PUSH1 0x0 DUP1 RETURNDATACOPY RETURNDATASIZE PUSH1 0x0 REVERT JUMPDEST POP POP POP POP PUSH1 0x40 MLOAD RETURNDATASIZE PUSH1 0x1F NOT PUSH1 0x1F DUP3 ADD AND DUP3 ADD DUP1 PUSH1 0x40 MSTORE POP DUP2 ADD SWAP1 PUSH2 0x3140 SWAP2 SWAP1 PUSH2 0x51E4 JUMP JUMPDEST SWAP1 POP PUSH1 0x0 PUSH2 0x2710 DUP3 DUP6 PUSH2 0x3153 SWAP2 SWAP1 PUSH2 0x52E0 JUMP JUMPDEST PUSH2 0x315D SWAP2 SWAP1 PUSH2 0x5369 JUMP JUMPDEST SWAP1 POP PUSH2 0x318A PUSH32 0x0 DUP5 DUP4 PUSH2 0x2ED9 JUMP JUMPDEST DUP1 DUP5 PUSH2 0x3196 SWAP2 SWAP1 PUSH2 0x5240 JUMP JUMPDEST SWAP4 POP PUSH1 0x0 PUSH2 0x2710 PUSH32 0x0 PUSH20 0xFFFFFFFFFFFFFFFFFFFFFFFFFFFFFFFFFFFFFFFF AND PUSH4 0x956F94A1 PUSH1 0x40 MLOAD DUP2 PUSH4 0xFFFFFFFF AND PUSH1 0xE0 SHL DUP2 MSTORE PUSH1 0x4 ADD PUSH1 0x20 PUSH1 0x40 MLOAD DUP1 DUP4 SUB DUP2 DUP7 GAS STATICCALL ISZERO DUP1 ISZERO PUSH2 0x3208 JUMPI RETURNDATASIZE PUSH1 0x0 DUP1 RETURNDATACOPY RETURNDATASIZE PUSH1 0x0 REVERT JUMPDEST POP POP POP POP PUSH1 0x40 MLOAD RETURNDATASIZE PUSH1 0x1F NOT PUSH1 0x1F DUP3 ADD AND DUP3 ADD DUP1 PUSH1 0x40 MSTORE POP DUP2 ADD SWAP1 PUSH2 0x322C SWAP2 SWAP1 PUSH2 0x51E4 JUMP JUMPDEST DUP7 PUSH2 0x3237 SWAP2 SWAP1 PUSH2 0x52E0 JUMP JUMPDEST PUSH2 0x3241 SWAP2 SWAP1 PUSH2 0x5369 JUMP JUMPDEST SWAP1 POP PUSH32 0x0 PUSH20 0xFFFFFFFFFFFFFFFFFFFFFFFFFFFFFFFFFFFFFFFF AND PUSH4 0x8D4DABFF DUP3 PUSH1 0x1 PUSH1 0x40 MLOAD DUP4 PUSH4 0xFFFFFFFF AND PUSH1 0xE0 SHL DUP2 MSTORE PUSH1 0x4 ADD PUSH2 0x329F SWAP3 SWAP2 SWAP1 PUSH2 0x5AB9 JUMP JUMPDEST PUSH1 0x0 PUSH1 0x40 MLOAD DUP1 DUP4 SUB DUP2 PUSH1 0x0 DUP8 DUP1 EXTCODESIZE ISZERO DUP1 ISZERO PUSH2 0x32B9 JUMPI PUSH1 0x0 DUP1 REVERT JUMPDEST POP GAS CALL ISZERO DUP1 ISZERO PUSH2 0x32CD JUMPI RETURNDATASIZE PUSH1 0x0 DUP1 RETURNDATACOPY RETURNDATASIZE PUSH1 0x0 REVERT JUMPDEST POP POP POP POP PUSH2 0x331C PUSH32 0x0 PUSH32 0x0 DUP8 PUSH2 0x2ED9 JUMP JUMPDEST DUP1 DUP6 PUSH2 0x3328 SWAP2 SWAP1 PUSH2 0x5240 JUMP JUMPDEST SWAP5 POP PUSH1 0x0 PUSH1 0x2 SLOAD PUSH8 0xDE0B6B3A7640000 DUP8 PUSH2 0x3343 SWAP2 SWAP1 PUSH2 0x52E0 JUMP JUMPDEST PUSH2 0x334D SWAP2 SWAP1 PUSH2 0x5369 JUMP JUMPDEST SWAP1 POP PUSH1 0x0 DUP2 GT ISZERO PUSH2 0x3372 JUMPI DUP1 PUSH1 0xD PUSH1 0x0 DUP3 DUP3 SLOAD PUSH2 0x336A SWAP2 SWAP1 PUSH2 0x54DA JUMP JUMPDEST SWAP3 POP POP DUP2 SWAP1 SSTORE POP JUMPDEST CALLER PUSH20 0xFFFFFFFFFFFFFFFFFFFFFFFFFFFFFFFFFFFFFFFF AND PUSH32 0x112C256902BF554B6ED882D2936687AAEB4225E8CD5B51303C90CA6CF43A8602 DUP5 DUP5 DUP10 PUSH2 0x33B7 SWAP2 SWAP1 PUSH2 0x54DA JUMP JUMPDEST PUSH2 0x33C1 SWAP2 SWAP1 PUSH2 0x54DA JUMP JUMPDEST PUSH1 0x0 PUSH1 0x40 MLOAD PUSH2 0x33D1 SWAP3 SWAP2 SWAP1 PUSH2 0x5B27 JUMP JUMPDEST PUSH1 0x40 MLOAD DUP1 SWAP2 SUB SWAP1 LOG2 POP POP POP POP POP POP JUMP JUMPDEST PUSH1 0x0 PUSH32 0x0 PUSH20 0xFFFFFFFFFFFFFFFFFFFFFFFFFFFFFFFFFFFFFFFF AND PUSH4 0x7BE1623E PUSH1 0x40 MLOAD DUP2 PUSH4 0xFFFFFFFF AND PUSH1 0xE0 SHL DUP2 MSTORE PUSH1 0x4 ADD PUSH1 0x20 PUSH1 0x40 MLOAD DUP1 DUP4 SUB DUP2 DUP7 GAS STATICCALL ISZERO DUP1 ISZERO PUSH2 0x344E JUMPI RETURNDATASIZE PUSH1 0x0 DUP1 RETURNDATACOPY RETURNDATASIZE PUSH1 0x0 REVERT JUMPDEST POP POP POP POP PUSH1 0x40 MLOAD RETURNDATASIZE PUSH1 0x1F NOT PUSH1 0x1F DUP3 ADD AND DUP3 ADD DUP1 PUSH1 0x40 MSTORE POP DUP2 ADD SWAP1 PUSH2 0x3472 SWAP2 SWAP1 PUSH2 0x5A10 JUMP JUMPDEST SWAP1 POP PUSH1 0x0 PUSH32 0x0 PUSH20 0xFFFFFFFFFFFFFFFFFFFFFFFFFFFFFFFFFFFFFFFF AND PUSH4 0x1E61079C PUSH1 0x40 MLOAD DUP2 PUSH4 0xFFFFFFFF AND PUSH1 0xE0 SHL DUP2 MSTORE PUSH1 0x4 ADD PUSH1 0x20 PUSH1 0x40 MLOAD DUP1 DUP4 SUB DUP2 DUP7 GAS STATICCALL ISZERO DUP1 ISZERO PUSH2 0x34E1 JUMPI RETURNDATASIZE PUSH1 0x0 DUP1 RETURNDATACOPY RETURNDATASIZE PUSH1 0x0 REVERT JUMPDEST POP POP POP POP PUSH1 0x40 MLOAD RETURNDATASIZE PUSH1 0x1F NOT PUSH1 0x1F DUP3 ADD AND DUP3 ADD DUP1 PUSH1 0x40 MSTORE POP DUP2 ADD SWAP1 PUSH2 0x3505 SWAP2 SWAP1 PUSH2 0x51E4 JUMP JUMPDEST SWAP1 POP PUSH1 0x0 PUSH2 0x2710 DUP3 DUP6 PUSH2 0x3518 SWAP2 SWAP1 PUSH2 0x52E0 JUMP JUMPDEST PUSH2 0x3522 SWAP2 SWAP1 PUSH2 0x5369 JUMP JUMPDEST SWAP1 POP PUSH2 0x354F PUSH32 0x0 DUP5 DUP4 PUSH2 0x2ED9 JUMP JUMPDEST DUP1 DUP5 PUSH2 0x355B SWAP2 SWAP1 PUSH2 0x5240 JUMP JUMPDEST SWAP4 POP PUSH1 0x0 PUSH2 0x2710 PUSH32 0x0 PUSH20 0xFFFFFFFFFFFFFFFFFFFFFFFFFFFFFFFFFFFFFFFF AND PUSH4 0x956F94A1 PUSH1 0x40 MLOAD DUP2 PUSH4 0xFFFFFFFF AND PUSH1 0xE0 SHL DUP2 MSTORE PUSH1 0x4 ADD PUSH1 0x20 PUSH1 0x40 MLOAD DUP1 DUP4 SUB DUP2 DUP7 GAS STATICCALL ISZERO DUP1 ISZERO PUSH2 0x35CD JUMPI RETURNDATASIZE PUSH1 0x0 DUP1 RETURNDATACOPY RETURNDATASIZE PUSH1 0x0 REVERT JUMPDEST POP POP POP POP PUSH1 0x40 MLOAD RETURNDATASIZE PUSH1 0x1F NOT PUSH1 0x1F DUP3 ADD AND DUP3 ADD DUP1 PUSH1 0x40 MSTORE POP DUP2 ADD SWAP1 PUSH2 0x35F1 SWAP2 SWAP1 PUSH2 0x51E4 JUMP JUMPDEST DUP7 PUSH2 0x35FC SWAP2 SWAP1 PUSH2 0x52E0 JUMP JUMPDEST PUSH2 0x3606 SWAP2 SWAP1 PUSH2 0x5369 JUMP JUMPDEST SWAP1 POP PUSH32 0x0 PUSH20 0xFFFFFFFFFFFFFFFFFFFFFFFFFFFFFFFFFFFFFFFF AND PUSH4 0x8D4DABFF DUP3 PUSH1 0x0 PUSH1 0x40 MLOAD DUP4 PUSH4 0xFFFFFFFF AND PUSH1 0xE0 SHL DUP2 MSTORE PUSH1 0x4 ADD PUSH2 0x3664 SWAP3 SWAP2 SWAP1 PUSH2 0x5AB9 JUMP JUMPDEST PUSH1 0x0 PUSH1 0x40 MLOAD DUP1 DUP4 SUB DUP2 PUSH1 0x0 DUP8 DUP1 EXTCODESIZE ISZERO DUP1 ISZERO PUSH2 0x367E JUMPI PUSH1 0x0 DUP1 REVERT JUMPDEST POP GAS CALL ISZERO DUP1 ISZERO PUSH2 0x3692 JUMPI RETURNDATASIZE PUSH1 0x0 DUP1 RETURNDATACOPY RETURNDATASIZE PUSH1 0x0 REVERT JUMPDEST POP POP POP POP PUSH2 0x36E1 PUSH32 0x0 PUSH32 0x0 DUP8 PUSH2 0x2ED9 JUMP JUMPDEST DUP1 DUP6 PUSH2 0x36ED SWAP2 SWAP1 PUSH2 0x5240 JUMP JUMPDEST SWAP5 POP PUSH1 0x0 PUSH1 0x2 SLOAD PUSH8 0xDE0B6B3A7640000 DUP8 PUSH2 0x3708 SWAP2 SWAP1 PUSH2 0x52E0 JUMP JUMPDEST PUSH2 0x3712 SWAP2 SWAP1 PUSH2 0x5369 JUMP JUMPDEST SWAP1 POP PUSH1 0x0 DUP2 GT ISZERO PUSH2 0x3737 JUMPI DUP1 PUSH1 0xE PUSH1 0x0 DUP3 DUP3 SLOAD PUSH2 0x372F SWAP2 SWAP1 PUSH2 0x54DA JUMP JUMPDEST SWAP3 POP POP DUP2 SWAP1 SSTORE POP JUMPDEST CALLER PUSH20 0xFFFFFFFFFFFFFFFFFFFFFFFFFFFFFFFFFFFFFFFF AND PUSH32 0x112C256902BF554B6ED882D2936687AAEB4225E8CD5B51303C90CA6CF43A8602 PUSH1 0x0 DUP6 DUP6 DUP11 PUSH2 0x377E SWAP2 SWAP1 PUSH2 0x54DA JUMP JUMPDEST PUSH2 0x3788 SWAP2 SWAP1 PUSH2 0x54DA JUMP JUMPDEST PUSH1 0x40 MLOAD PUSH2 0x3796 SWAP3 SWAP2 SWAP1 PUSH2 0x5B50 JUMP JUMPDEST PUSH1 0x40 MLOAD DUP1 SWAP2 SUB SWAP1 LOG2 POP POP POP POP POP POP JUMP JUMPDEST PUSH1 0x0 PUSH32 0x0 ISZERO PUSH2 0x38ED JUMPI PUSH1 0x0 PUSH32 0x0 PUSH8 0xDE0B6B3A7640000 DUP6 PUSH2 0x3805 SWAP2 SWAP1 PUSH2 0x52E0 JUMP JUMPDEST PUSH2 0x380F SWAP2 SWAP1 PUSH2 0x5369 JUMP JUMPDEST SWAP1 POP PUSH1 0x0 PUSH32 0x0 PUSH8 0xDE0B6B3A7640000 DUP6 PUSH2 0x3848 SWAP2 SWAP1 PUSH2 0x52E0 JUMP JUMPDEST PUSH2 0x3852 SWAP2 SWAP1 PUSH2 0x5369 JUMP JUMPDEST SWAP1 POP PUSH1 0x0 PUSH8 0xDE0B6B3A7640000 DUP3 DUP5 PUSH2 0x386B SWAP2 SWAP1 PUSH2 0x52E0 JUMP JUMPDEST PUSH2 0x3875 SWAP2 SWAP1 PUSH2 0x5369 JUMP JUMPDEST SWAP1 POP PUSH1 0x0 PUSH8 0xDE0B6B3A7640000 DUP4 DUP5 PUSH2 0x388E SWAP2 SWAP1 PUSH2 0x52E0 JUMP JUMPDEST PUSH2 0x3898 SWAP2 SWAP1 PUSH2 0x5369 JUMP JUMPDEST PUSH8 0xDE0B6B3A7640000 DUP6 DUP7 PUSH2 0x38AD SWAP2 SWAP1 PUSH2 0x52E0 JUMP JUMPDEST PUSH2 0x38B7 SWAP2 SWAP1 PUSH2 0x5369 JUMP JUMPDEST PUSH2 0x38C1 SWAP2 SWAP1 PUSH2 0x54DA JUMP JUMPDEST SWAP1 POP PUSH8 0xDE0B6B3A7640000 DUP2 DUP4 PUSH2 0x38D8 SWAP2 SWAP1 PUSH2 0x52E0 JUMP JUMPDEST PUSH2 0x38E2 SWAP2 SWAP1 PUSH2 0x5369 JUMP JUMPDEST SWAP5 POP POP POP POP POP PUSH2 0x38FC JUMP JUMPDEST DUP2 DUP4 PUSH2 0x38F9 SWAP2 SWAP1 PUSH2 0x52E0 JUMP JUMPDEST SWAP1 POP JUMPDEST SWAP3 SWAP2 POP POP JUMP JUMPDEST PUSH1 0x0 TIMESTAMP SWAP1 POP PUSH1 0x0 PUSH1 0xA SLOAD DUP3 PUSH2 0x3917 SWAP2 SWAP1 PUSH2 0x5240 JUMP JUMPDEST SWAP1 POP PUSH1 0x0 DUP2 GT DUP1 ISZERO PUSH2 0x392A JUMPI POP PUSH1 0x0 DUP5 EQ ISZERO JUMPDEST DUP1 ISZERO PUSH2 0x3937 JUMPI POP PUSH1 0x0 DUP4 EQ ISZERO JUMPDEST ISZERO PUSH2 0x3985 JUMPI DUP1 DUP5 PUSH2 0x3948 SWAP2 SWAP1 PUSH2 0x52E0 JUMP JUMPDEST PUSH1 0xB PUSH1 0x0 DUP3 DUP3 SLOAD PUSH2 0x3959 SWAP2 SWAP1 PUSH2 0x54DA JUMP JUMPDEST SWAP3 POP POP DUP2 SWAP1 SSTORE POP DUP1 DUP4 PUSH2 0x396C SWAP2 SWAP1 PUSH2 0x52E0 JUMP JUMPDEST PUSH1 0xC PUSH1 0x0 DUP3 DUP3 SLOAD PUSH2 0x397D SWAP2 SWAP1 PUSH2 0x54DA JUMP JUMPDEST SWAP3 POP POP DUP2 SWAP1 SSTORE POP JUMPDEST PUSH1 0x0 PUSH2 0x398F PUSH2 0x215C JUMP JUMPDEST SWAP1 POP DUP1 PUSH1 0x0 ADD MLOAD DUP4 PUSH2 0x39A1 SWAP2 SWAP1 PUSH2 0x5240 JUMP JUMPDEST SWAP2 POP PUSH2 0x708 DUP3 GT ISZERO PUSH2 0x3A18 JUMPI PUSH1 0x7 PUSH1 0x40 MLOAD DUP1 PUSH1 0x60 ADD PUSH1 0x40 MSTORE DUP1 DUP6 DUP2 MSTORE PUSH1 0x20 ADD PUSH1 0xB SLOAD DUP2 MSTORE PUSH1 0x20 ADD PUSH1 0xC SLOAD DUP2 MSTORE POP SWAP1 DUP1 PUSH1 0x1 DUP2 SLOAD ADD DUP1 DUP3 SSTORE DUP1 SWAP2 POP POP PUSH1 0x1 SWAP1 SUB SWAP1 PUSH1 0x0 MSTORE PUSH1 0x20 PUSH1 0x0 KECCAK256 SWAP1 PUSH1 0x3 MUL ADD PUSH1 0x0 SWAP1 SWAP2 SWAP1 SWAP2 SWAP1 SWAP2 POP PUSH1 0x0 DUP3 ADD MLOAD DUP2 PUSH1 0x0 ADD SSTORE PUSH1 0x20 DUP3 ADD MLOAD DUP2 PUSH1 0x1 ADD SSTORE PUSH1 0x40 DUP3 ADD MLOAD DUP2 PUSH1 0x2 ADD SSTORE POP POP JUMPDEST DUP7 PUSH1 0x8 DUP2 SWAP1 SSTORE POP DUP6 PUSH1 0x9 DUP2 SWAP1 SSTORE POP DUP3 PUSH1 0xA DUP2 SWAP1 SSTORE POP PUSH32 0xCF2AA50876CDFBB541206F89AF0EE78D44A2ABF8D328E37FA4917F982149848A PUSH1 0x8 SLOAD PUSH1 0x9 SLOAD PUSH1 0x40 MLOAD PUSH2 0x3A62 SWAP3 SWAP2 SWAP1 PUSH2 0x4D64 JUMP JUMPDEST PUSH1 0x40 MLOAD DUP1 SWAP2 SUB SWAP1 LOG1 POP POP POP POP POP POP POP JUMP JUMPDEST PUSH1 0x0 PUSH32 0x0 ISZERO PUSH2 0x3D51 JUMPI PUSH1 0x0 PUSH2 0x3AA7 DUP5 DUP5 PUSH2 0x37A6 JUMP JUMPDEST SWAP1 POP PUSH32 0x0 PUSH8 0xDE0B6B3A7640000 DUP6 PUSH2 0x3ADE SWAP2 SWAP1 PUSH2 0x52E0 JUMP JUMPDEST PUSH2 0x3AE8 SWAP2 SWAP1 PUSH2 0x5369 JUMP JUMPDEST SWAP4 POP PUSH32 0x0 PUSH8 0xDE0B6B3A7640000 DUP5 PUSH2 0x3B1F SWAP2 SWAP1 PUSH2 0x52E0 JUMP JUMPDEST PUSH2 0x3B29 SWAP2 SWAP1 PUSH2 0x5369 JUMP JUMPDEST SWAP3 POP PUSH1 0x0 DUP1 PUSH32 0x0 PUSH20 0xFFFFFFFFFFFFFFFFFFFFFFFFFFFFFFFFFFFFFFFF AND DUP8 PUSH20 0xFFFFFFFFFFFFFFFFFFFFFFFFFFFFFFFFFFFFFFFF AND EQ PUSH2 0x3B88 JUMPI DUP5 DUP7 PUSH2 0x3B8B JUMP JUMPDEST DUP6 DUP6 JUMPDEST SWAP2 POP SWAP2 POP PUSH32 0x0 PUSH20 0xFFFFFFFFFFFFFFFFFFFFFFFFFFFFFFFFFFFFFFFF AND DUP8 PUSH20 0xFFFFFFFFFFFFFFFFFFFFFFFFFFFFFFFFFFFFFFFF AND EQ PUSH2 0x3C26 JUMPI PUSH32 0x0 PUSH8 0xDE0B6B3A7640000 DUP10 PUSH2 0x3C17 SWAP2 SWAP1 PUSH2 0x52E0 JUMP JUMPDEST PUSH2 0x3C21 SWAP2 SWAP1 PUSH2 0x5369 JUMP JUMPDEST PUSH2 0x3C66 JUMP JUMPDEST PUSH32 0x0 PUSH8 0xDE0B6B3A7640000 DUP10 PUSH2 0x3C5B SWAP2 SWAP1 PUSH2 0x52E0 JUMP JUMPDEST PUSH2 0x3C65 SWAP2 SWAP1 PUSH2 0x5369 JUMP JUMPDEST JUMPDEST SWAP8 POP PUSH1 0x0 PUSH2 0x3C80 DUP4 DUP11 PUSH2 0x3C79 SWAP2 SWAP1 PUSH2 0x54DA JUMP JUMPDEST DUP6 DUP5 PUSH2 0x4492 JUMP JUMPDEST DUP3 PUSH2 0x3C8B SWAP2 SWAP1 PUSH2 0x5240 JUMP JUMPDEST SWAP1 POP PUSH8 0xDE0B6B3A7640000 PUSH32 0x0 PUSH20 0xFFFFFFFFFFFFFFFFFFFFFFFFFFFFFFFFFFFFFFFF AND DUP10 PUSH20 0xFFFFFFFFFFFFFFFFFFFFFFFFFFFFFFFFFFFFFFFF AND EQ PUSH2 0x3D0F JUMPI PUSH32 0x0 PUSH2 0x3D31 JUMP JUMPDEST PUSH32 0x0 JUMPDEST DUP3 PUSH2 0x3D3C SWAP2 SWAP1 PUSH2 0x52E0 JUMP JUMPDEST PUSH2 0x3D46 SWAP2 SWAP1 PUSH2 0x5369 JUMP JUMPDEST SWAP5 POP POP POP POP POP PUSH2 0x3DDC JUMP JUMPDEST PUSH1 0x0 DUP1 PUSH32 0x0 PUSH20 0xFFFFFFFFFFFFFFFFFFFFFFFFFFFFFFFFFFFFFFFF AND DUP7 PUSH20 0xFFFFFFFFFFFFFFFFFFFFFFFFFFFFFFFFFFFFFFFF AND EQ PUSH2 0x3DAE JUMPI DUP4 DUP6 PUSH2 0x3DB1 JUMP JUMPDEST DUP5 DUP5 JUMPDEST SWAP2 POP SWAP2 POP DUP7 DUP3 PUSH2 0x3DC1 SWAP2 SWAP1 PUSH2 0x54DA JUMP JUMPDEST DUP2 DUP9 PUSH2 0x3DCD SWAP2 SWAP1 PUSH2 0x52E0 JUMP JUMPDEST PUSH2 0x3DD7 SWAP2 SWAP1 PUSH2 0x5369 JUMP JUMPDEST SWAP3 POP POP POP JUMPDEST SWAP5 SWAP4 POP POP POP POP JUMP JUMPDEST PUSH2 0x3DED DUP4 PUSH2 0x4163 JUMP JUMPDEST PUSH2 0x3DF6 DUP3 PUSH2 0x4163 JUMP JUMPDEST DUP1 PUSH1 0x4 PUSH1 0x0 DUP6 PUSH20 0xFFFFFFFFFFFFFFFFFFFFFFFFFFFFFFFFFFFFFFFF AND PUSH20 0xFFFFFFFFFFFFFFFFFFFFFFFFFFFFFFFFFFFFFFFF AND DUP2 MSTORE PUSH1 0x20 ADD SWAP1 DUP2 MSTORE PUSH1 0x20 ADD PUSH1 0x0 KECCAK256 PUSH1 0x0 DUP3 DUP3 SLOAD PUSH2 0x3E45 SWAP2 SWAP1 PUSH2 0x5240 JUMP JUMPDEST SWAP3 POP POP DUP2 SWAP1 SSTORE POP DUP1 PUSH1 0x4 PUSH1 0x0 DUP5 PUSH20 0xFFFFFFFFFFFFFFFFFFFFFFFFFFFFFFFFFFFFFFFF AND PUSH20 0xFFFFFFFFFFFFFFFFFFFFFFFFFFFFFFFFFFFFFFFF AND DUP2 MSTORE PUSH1 0x20 ADD SWAP1 DUP2 MSTORE PUSH1 0x20 ADD PUSH1 0x0 KECCAK256 PUSH1 0x0 DUP3 DUP3 SLOAD PUSH2 0x3E9B SWAP2 SWAP1 PUSH2 0x54DA JUMP JUMPDEST SWAP3 POP POP DUP2 SWAP1 SSTORE POP DUP2 PUSH20 0xFFFFFFFFFFFFFFFFFFFFFFFFFFFFFFFFFFFFFFFF AND DUP4 PUSH20 0xFFFFFFFFFFFFFFFFFFFFFFFFFFFFFFFFFFFFFFFF AND PUSH32 0xDDF252AD1BE2C89B69C2B068FC378DAA952BA7F163C4A11628F55A4DF523B3EF DUP4 PUSH1 0x40 MLOAD PUSH2 0x3EFF SWAP2 SWAP1 PUSH2 0x4BA3 JUMP JUMPDEST PUSH1 0x40 MLOAD DUP1 SWAP2 SUB SWAP1 LOG3 POP POP POP JUMP JUMPDEST PUSH1 0x0 PUSH1 0x3 DUP3 GT ISZERO PUSH2 0x3F73 JUMPI DUP2 SWAP1 POP PUSH1 0x0 PUSH1 0x1 PUSH1 0x2 DUP5 PUSH2 0x3F2B SWAP2 SWAP1 PUSH2 0x5369 JUMP JUMPDEST PUSH2 0x3F35 SWAP2 SWAP1 PUSH2 0x54DA JUMP JUMPDEST SWAP1 POP JUMPDEST DUP2 DUP2 LT ISZERO PUSH2 0x3F6D JUMPI DUP1 SWAP2 POP PUSH1 0x2 DUP2 DUP3 DUP6 PUSH2 0x3F52 SWAP2 SWAP1 PUSH2 0x5369 JUMP JUMPDEST PUSH2 0x3F5C SWAP2 SWAP1 PUSH2 0x54DA JUMP JUMPDEST PUSH2 0x3F66 SWAP2 SWAP1 PUSH2 0x5369 JUMP JUMPDEST SWAP1 POP PUSH2 0x3F38 JUMP JUMPDEST POP PUSH2 0x3F81 JUMP JUMPDEST PUSH1 0x0 DUP3 EQ PUSH2 0x3F80 JUMPI PUSH1 0x1 SWAP1 POP JUMPDEST JUMPDEST SWAP2 SWAP1 POP JUMP JUMPDEST PUSH2 0x3F8F DUP3 PUSH2 0x4163 JUMP JUMPDEST DUP1 PUSH1 0x2 PUSH1 0x0 DUP3 DUP3 SLOAD PUSH2 0x3FA1 SWAP2 SWAP1 PUSH2 0x54DA JUMP JUMPDEST SWAP3 POP POP DUP2 SWAP1 SSTORE POP DUP1 PUSH1 0x4 PUSH1 0x0 DUP5 PUSH20 0xFFFFFFFFFFFFFFFFFFFFFFFFFFFFFFFFFFFFFFFF AND PUSH20 0xFFFFFFFFFFFFFFFFFFFFFFFFFFFFFFFFFFFFFFFF AND DUP2 MSTORE PUSH1 0x20 ADD SWAP1 DUP2 MSTORE PUSH1 0x20 ADD PUSH1 0x0 KECCAK256 PUSH1 0x0 DUP3 DUP3 SLOAD PUSH2 0x3FF7 SWAP2 SWAP1 PUSH2 0x54DA JUMP JUMPDEST SWAP3 POP POP DUP2 SWAP1 SSTORE POP DUP2 PUSH20 0xFFFFFFFFFFFFFFFFFFFFFFFFFFFFFFFFFFFFFFFF AND PUSH1 0x0 PUSH20 0xFFFFFFFFFFFFFFFFFFFFFFFFFFFFFFFFFFFFFFFF AND PUSH32 0xDDF252AD1BE2C89B69C2B068FC378DAA952BA7F163C4A11628F55A4DF523B3EF DUP4 PUSH1 0x40 MLOAD PUSH2 0x405C SWAP2 SWAP1 PUSH2 0x4BA3 JUMP JUMPDEST PUSH1 0x40 MLOAD DUP1 SWAP2 SUB SWAP1 LOG3 POP POP JUMP JUMPDEST PUSH1 0x0 DUP2 DUP4 LT PUSH2 0x4077 JUMPI DUP2 PUSH2 0x4079 JUMP JUMPDEST DUP3 JUMPDEST SWAP1 POP SWAP3 SWAP2 POP POP JUMP JUMPDEST PUSH2 0x408A DUP3 PUSH2 0x4163 JUMP JUMPDEST DUP1 PUSH1 0x2 PUSH1 0x0 DUP3 DUP3 SLOAD PUSH2 0x409C SWAP2 SWAP1 PUSH2 0x5240 JUMP JUMPDEST SWAP3 POP POP DUP2 SWAP1 SSTORE POP DUP1 PUSH1 0x4 PUSH1 0x0 DUP5 PUSH20 0xFFFFFFFFFFFFFFFFFFFFFFFFFFFFFFFFFFFFFFFF AND PUSH20 0xFFFFFFFFFFFFFFFFFFFFFFFFFFFFFFFFFFFFFFFF AND DUP2 MSTORE PUSH1 0x20 ADD SWAP1 DUP2 MSTORE PUSH1 0x20 ADD PUSH1 0x0 KECCAK256 PUSH1 0x0 DUP3 DUP3 SLOAD PUSH2 0x40F2 SWAP2 SWAP1 PUSH2 0x5240 JUMP JUMPDEST SWAP3 POP POP DUP2 SWAP1 SSTORE POP PUSH1 0x0 PUSH20 0xFFFFFFFFFFFFFFFFFFFFFFFFFFFFFFFFFFFFFFFF AND DUP3 PUSH20 0xFFFFFFFFFFFFFFFFFFFFFFFFFFFFFFFFFFFFFFFF AND PUSH32 0xDDF252AD1BE2C89B69C2B068FC378DAA952BA7F163C4A11628F55A4DF523B3EF DUP4 PUSH1 0x40 MLOAD PUSH2 0x4157 SWAP2 SWAP1 PUSH2 0x4BA3 JUMP JUMPDEST PUSH1 0x40 MLOAD DUP1 SWAP2 SUB SWAP1 LOG3 POP POP JUMP JUMPDEST PUSH1 0x0 PUSH1 0x4 PUSH1 0x0 DUP4 PUSH20 0xFFFFFFFFFFFFFFFFFFFFFFFFFFFFFFFFFFFFFFFF AND PUSH20 0xFFFFFFFFFFFFFFFFFFFFFFFFFFFFFFFFFFFFFFFF AND DUP2 MSTORE PUSH1 0x20 ADD SWAP1 DUP2 MSTORE PUSH1 0x20 ADD PUSH1 0x0 KECCAK256 SLOAD SWAP1 POP PUSH1 0x0 DUP2 GT ISZERO PUSH2 0x4401 JUMPI PUSH1 0x0 PUSH1 0xF PUSH1 0x0 DUP5 PUSH20 0xFFFFFFFFFFFFFFFFFFFFFFFFFFFFFFFFFFFFFFFF AND PUSH20 0xFFFFFFFFFFFFFFFFFFFFFFFFFFFFFFFFFFFFFFFF AND DUP2 MSTORE PUSH1 0x20 ADD SWAP1 DUP2 MSTORE PUSH1 0x20 ADD PUSH1 0x0 KECCAK256 SLOAD SWAP1 POP PUSH1 0x0 PUSH1 0x10 PUSH1 0x0 DUP6 PUSH20 0xFFFFFFFFFFFFFFFFFFFFFFFFFFFFFFFFFFFFFFFF AND PUSH20 0xFFFFFFFFFFFFFFFFFFFFFFFFFFFFFFFFFFFFFFFF AND DUP2 MSTORE PUSH1 0x20 ADD SWAP1 DUP2 MSTORE PUSH1 0x20 ADD PUSH1 0x0 KECCAK256 SLOAD SWAP1 POP PUSH1 0x0 PUSH1 0xD SLOAD SWAP1 POP PUSH1 0x0 PUSH1 0xE SLOAD SWAP1 POP DUP2 PUSH1 0xF PUSH1 0x0 DUP9 PUSH20 0xFFFFFFFFFFFFFFFFFFFFFFFFFFFFFFFFFFFFFFFF AND PUSH20 0xFFFFFFFFFFFFFFFFFFFFFFFFFFFFFFFFFFFFFFFF AND DUP2 MSTORE PUSH1 0x20 ADD SWAP1 DUP2 MSTORE PUSH1 0x20 ADD PUSH1 0x0 KECCAK256 DUP2 SWAP1 SSTORE POP DUP1 PUSH1 0x10 PUSH1 0x0 DUP9 PUSH20 0xFFFFFFFFFFFFFFFFFFFFFFFFFFFFFFFFFFFFFFFF AND PUSH20 0xFFFFFFFFFFFFFFFFFFFFFFFFFFFFFFFFFFFFFFFF AND DUP2 MSTORE PUSH1 0x20 ADD SWAP1 DUP2 MSTORE PUSH1 0x20 ADD PUSH1 0x0 KECCAK256 DUP2 SWAP1 SSTORE POP PUSH1 0x0 DUP5 DUP4 PUSH2 0x42DC SWAP2 SWAP1 PUSH2 0x5240 JUMP JUMPDEST SWAP1 POP PUSH1 0x0 DUP5 DUP4 PUSH2 0x42EC SWAP2 SWAP1 PUSH2 0x5240 JUMP JUMPDEST SWAP1 POP PUSH1 0x0 DUP3 GT ISZERO PUSH2 0x4372 JUMPI PUSH1 0x0 PUSH8 0xDE0B6B3A7640000 DUP4 DUP10 PUSH2 0x430E SWAP2 SWAP1 PUSH2 0x52E0 JUMP JUMPDEST PUSH2 0x4318 SWAP2 SWAP1 PUSH2 0x5369 JUMP JUMPDEST SWAP1 POP DUP1 PUSH1 0x11 PUSH1 0x0 DUP12 PUSH20 0xFFFFFFFFFFFFFFFFFFFFFFFFFFFFFFFFFFFFFFFF AND PUSH20 0xFFFFFFFFFFFFFFFFFFFFFFFFFFFFFFFFFFFFFFFF AND DUP2 MSTORE PUSH1 0x20 ADD SWAP1 DUP2 MSTORE PUSH1 0x20 ADD PUSH1 0x0 KECCAK256 PUSH1 0x0 DUP3 DUP3 SLOAD PUSH2 0x4369 SWAP2 SWAP1 PUSH2 0x54DA JUMP JUMPDEST SWAP3 POP POP DUP2 SWAP1 SSTORE POP POP JUMPDEST PUSH1 0x0 DUP2 GT ISZERO PUSH2 0x43F6 JUMPI PUSH1 0x0 PUSH8 0xDE0B6B3A7640000 DUP3 DUP10 PUSH2 0x4392 SWAP2 SWAP1 PUSH2 0x52E0 JUMP JUMPDEST PUSH2 0x439C SWAP2 SWAP1 PUSH2 0x5369 JUMP JUMPDEST SWAP1 POP DUP1 PUSH1 0x12 PUSH1 0x0 DUP12 PUSH20 0xFFFFFFFFFFFFFFFFFFFFFFFFFFFFFFFFFFFFFFFF AND PUSH20 0xFFFFFFFFFFFFFFFFFFFFFFFFFFFFFFFFFFFFFFFF AND DUP2 MSTORE PUSH1 0x20 ADD SWAP1 DUP2 MSTORE PUSH1 0x20 ADD PUSH1 0x0 KECCAK256 PUSH1 0x0 DUP3 DUP3 SLOAD PUSH2 0x43ED SWAP2 SWAP1 PUSH2 0x54DA JUMP JUMPDEST SWAP3 POP POP DUP2 SWAP1 SSTORE POP POP JUMPDEST POP POP POP POP POP POP PUSH2 0x448E JUMP JUMPDEST PUSH1 0xD SLOAD PUSH1 0xF PUSH1 0x0 DUP5 PUSH20 0xFFFFFFFFFFFFFFFFFFFFFFFFFFFFFFFFFFFFFFFF AND PUSH20 0xFFFFFFFFFFFFFFFFFFFFFFFFFFFFFFFFFFFFFFFF AND DUP2 MSTORE PUSH1 0x20 ADD SWAP1 DUP2 MSTORE PUSH1 0x20 ADD PUSH1 0x0 KECCAK256 DUP2 SWAP1 SSTORE POP PUSH1 0xE SLOAD PUSH1 0x10 PUSH1 0x0 DUP5 PUSH20 0xFFFFFFFFFFFFFFFFFFFFFFFFFFFFFFFFFFFFFFFF AND PUSH20 0xFFFFFFFFFFFFFFFFFFFFFFFFFFFFFFFFFFFFFFFF AND DUP2 MSTORE PUSH1 0x20 ADD SWAP1 DUP2 MSTORE PUSH1 0x20 ADD PUSH1 0x0 KECCAK256 DUP2 SWAP1 SSTORE POP JUMPDEST POP POP JUMP JUMPDEST PUSH1 0x0 DUP1 PUSH1 0x0 SWAP1 POP JUMPDEST PUSH1 0xFF DUP2 LT ISZERO PUSH2 0x45AF JUMPI PUSH1 0x0 DUP4 SWAP1 POP PUSH1 0x0 PUSH2 0x44B4 DUP8 DUP7 PUSH2 0x45BB JUMP JUMPDEST SWAP1 POP DUP6 DUP2 LT ISZERO PUSH2 0x4509 JUMPI PUSH1 0x0 PUSH2 0x44CA DUP9 DUP8 PUSH2 0x467D JUMP JUMPDEST PUSH8 0xDE0B6B3A7640000 DUP4 DUP10 PUSH2 0x44DF SWAP2 SWAP1 PUSH2 0x5240 JUMP JUMPDEST PUSH2 0x44E9 SWAP2 SWAP1 PUSH2 0x52E0 JUMP JUMPDEST PUSH2 0x44F3 SWAP2 SWAP1 PUSH2 0x5369 JUMP JUMPDEST SWAP1 POP DUP1 DUP7 PUSH2 0x4501 SWAP2 SWAP1 PUSH2 0x54DA JUMP JUMPDEST SWAP6 POP POP PUSH2 0x4550 JUMP JUMPDEST PUSH1 0x0 PUSH2 0x4515 DUP9 DUP8 PUSH2 0x467D JUMP JUMPDEST PUSH8 0xDE0B6B3A7640000 DUP9 DUP5 PUSH2 0x452A SWAP2 SWAP1 PUSH2 0x5240 JUMP JUMPDEST PUSH2 0x4534 SWAP2 SWAP1 PUSH2 0x52E0 JUMP JUMPDEST PUSH2 0x453E SWAP2 SWAP1 PUSH2 0x5369 JUMP JUMPDEST SWAP1 POP DUP1 DUP7 PUSH2 0x454C SWAP2 SWAP1 PUSH2 0x5240 JUMP JUMPDEST SWAP6 POP POP JUMPDEST DUP2 DUP6 GT ISZERO PUSH2 0x457B JUMPI PUSH1 0x1 DUP3 DUP7 PUSH2 0x4566 SWAP2 SWAP1 PUSH2 0x5240 JUMP JUMPDEST GT PUSH2 0x4576 JUMPI DUP5 SWAP4 POP POP POP POP PUSH2 0x45B4 JUMP JUMPDEST PUSH2 0x459A JUMP JUMPDEST PUSH1 0x1 DUP6 DUP4 PUSH2 0x4589 SWAP2 SWAP1 PUSH2 0x5240 JUMP JUMPDEST GT PUSH2 0x4599 JUMPI DUP5 SWAP4 POP POP POP POP PUSH2 0x45B4 JUMP JUMPDEST JUMPDEST POP POP DUP1 DUP1 PUSH2 0x45A7 SWAP1 PUSH2 0x5637 JUMP JUMPDEST SWAP2 POP POP PUSH2 0x449A JUMP JUMPDEST POP DUP2 SWAP1 POP JUMPDEST SWAP4 SWAP3 POP POP POP JUMP JUMPDEST PUSH1 0x0 PUSH8 0xDE0B6B3A7640000 DUP3 PUSH8 0xDE0B6B3A7640000 DUP6 PUSH8 0xDE0B6B3A7640000 DUP8 DUP9 PUSH2 0x45E6 SWAP2 SWAP1 PUSH2 0x52E0 JUMP JUMPDEST PUSH2 0x45F0 SWAP2 SWAP1 PUSH2 0x5369 JUMP JUMPDEST PUSH2 0x45FA SWAP2 SWAP1 PUSH2 0x52E0 JUMP JUMPDEST PUSH2 0x4604 SWAP2 SWAP1 PUSH2 0x5369 JUMP JUMPDEST PUSH2 0x460E SWAP2 SWAP1 PUSH2 0x52E0 JUMP JUMPDEST PUSH2 0x4618 SWAP2 SWAP1 PUSH2 0x5369 JUMP JUMPDEST PUSH8 0xDE0B6B3A7640000 DUP1 DUP5 PUSH8 0xDE0B6B3A7640000 DUP7 DUP8 PUSH2 0x4638 SWAP2 SWAP1 PUSH2 0x52E0 JUMP JUMPDEST PUSH2 0x4642 SWAP2 SWAP1 PUSH2 0x5369 JUMP JUMPDEST PUSH2 0x464C SWAP2 SWAP1 PUSH2 0x52E0 JUMP JUMPDEST PUSH2 0x4656 SWAP2 SWAP1 PUSH2 0x5369 JUMP JUMPDEST DUP6 PUSH2 0x4661 SWAP2 SWAP1 PUSH2 0x52E0 JUMP JUMPDEST PUSH2 0x466B SWAP2 SWAP1 PUSH2 0x5369 JUMP JUMPDEST PUSH2 0x4675 SWAP2 SWAP1 PUSH2 0x54DA JUMP JUMPDEST SWAP1 POP SWAP3 SWAP2 POP POP JUMP JUMPDEST PUSH1 0x0 PUSH8 0xDE0B6B3A7640000 DUP4 PUSH8 0xDE0B6B3A7640000 DUP6 DUP7 PUSH2 0x469E SWAP2 SWAP1 PUSH2 0x52E0 JUMP JUMPDEST PUSH2 0x46A8 SWAP2 SWAP1 PUSH2 0x5369 JUMP JUMPDEST PUSH2 0x46B2 SWAP2 SWAP1 PUSH2 0x52E0 JUMP JUMPDEST PUSH2 0x46BC SWAP2 SWAP1 PUSH2 0x5369 JUMP JUMPDEST PUSH8 0xDE0B6B3A7640000 DUP1 DUP5 DUP6 PUSH2 0x46D2 SWAP2 SWAP1 PUSH2 0x52E0 JUMP JUMPDEST PUSH2 0x46DC SWAP2 SWAP1 PUSH2 0x5369 JUMP JUMPDEST DUP6 PUSH1 0x3 PUSH2 0x46E9 SWAP2 SWAP1 PUSH2 0x52E0 JUMP JUMPDEST PUSH2 0x46F3 SWAP2 SWAP1 PUSH2 0x52E0 JUMP JUMPDEST PUSH2 0x46FD SWAP2 SWAP1 PUSH2 0x5369 JUMP JUMPDEST PUSH2 0x4707 SWAP2 SWAP1 PUSH2 0x54DA JUMP JUMPDEST SWAP1 POP SWAP3 SWAP2 POP POP JUMP JUMPDEST PUSH1 0x40 MLOAD DUP1 PUSH1 0x60 ADD PUSH1 0x40 MSTORE DUP1 PUSH1 0x0 DUP2 MSTORE PUSH1 0x20 ADD PUSH1 0x0 DUP2 MSTORE PUSH1 0x20 ADD PUSH1 0x0 DUP2 MSTORE POP SWAP1 JUMP JUMPDEST PUSH1 0x0 DUP1 REVERT JUMPDEST PUSH1 0x0 DUP1 REVERT JUMPDEST PUSH1 0x0 DUP2 SWAP1 POP SWAP2 SWAP1 POP JUMP JUMPDEST PUSH2 0x474D DUP2 PUSH2 0x473A JUMP JUMPDEST DUP2 EQ PUSH2 0x4758 JUMPI PUSH1 0x0 DUP1 REVERT JUMPDEST POP JUMP JUMPDEST PUSH1 0x0 DUP2 CALLDATALOAD SWAP1 POP PUSH2 0x476A DUP2 PUSH2 0x4744 JUMP JUMPDEST SWAP3 SWAP2 POP POP JUMP JUMPDEST PUSH1 0x0 PUSH20 0xFFFFFFFFFFFFFFFFFFFFFFFFFFFFFFFFFFFFFFFF DUP3 AND SWAP1 POP SWAP2 SWAP1 POP JUMP JUMPDEST PUSH1 0x0 PUSH2 0x479B DUP3 PUSH2 0x4770 JUMP JUMPDEST SWAP1 POP SWAP2 SWAP1 POP JUMP JUMPDEST PUSH2 0x47AB DUP2 PUSH2 0x4790 JUMP JUMPDEST DUP2 EQ PUSH2 0x47B6 JUMPI PUSH1 0x0 DUP1 REVERT JUMPDEST POP JUMP JUMPDEST PUSH1 0x0 DUP2 CALLDATALOAD SWAP1 POP PUSH2 0x47C8 DUP2 PUSH2 0x47A2 JUMP JUMPDEST SWAP3 SWAP2 POP POP JUMP JUMPDEST PUSH1 0x0 DUP1 REVERT JUMPDEST PUSH1 0x0 DUP1 REVERT JUMPDEST PUSH1 0x0 DUP1 REVERT JUMPDEST PUSH1 0x0 DUP1 DUP4 PUSH1 0x1F DUP5 ADD SLT PUSH2 0x47F3 JUMPI PUSH2 0x47F2 PUSH2 0x47CE JUMP JUMPDEST JUMPDEST DUP3 CALLDATALOAD SWAP1 POP PUSH8 0xFFFFFFFFFFFFFFFF DUP2 GT ISZERO PUSH2 0x4810 JUMPI PUSH2 0x480F PUSH2 0x47D3 JUMP JUMPDEST JUMPDEST PUSH1 0x20 DUP4 ADD SWAP2 POP DUP4 PUSH1 0x1 DUP3 MUL DUP4 ADD GT ISZERO PUSH2 0x482C JUMPI PUSH2 0x482B PUSH2 0x47D8 JUMP JUMPDEST JUMPDEST SWAP3 POP SWAP3 SWAP1 POP JUMP JUMPDEST PUSH1 0x0 DUP1 PUSH1 0x0 DUP1 PUSH1 0x0 PUSH1 0x80 DUP7 DUP9 SUB SLT ISZERO PUSH2 0x484F JUMPI PUSH2 0x484E PUSH2 0x4730 JUMP JUMPDEST JUMPDEST PUSH1 0x0 PUSH2 0x485D DUP9 DUP3 DUP10 ADD PUSH2 0x475B JUMP JUMPDEST SWAP6 POP POP PUSH1 0x20 PUSH2 0x486E DUP9 DUP3 DUP10 ADD PUSH2 0x475B JUMP JUMPDEST SWAP5 POP POP PUSH1 0x40 PUSH2 0x487F DUP9 DUP3 DUP10 ADD PUSH2 0x47B9 JUMP JUMPDEST SWAP4 POP POP PUSH1 0x60 DUP7 ADD CALLDATALOAD PUSH8 0xFFFFFFFFFFFFFFFF DUP2 GT ISZERO PUSH2 0x48A0 JUMPI PUSH2 0x489F PUSH2 0x4735 JUMP JUMPDEST JUMPDEST PUSH2 0x48AC DUP9 DUP3 DUP10 ADD PUSH2 0x47DD JUMP JUMPDEST SWAP3 POP SWAP3 POP POP SWAP3 SWAP6 POP SWAP3 SWAP6 SWAP1 SWAP4 POP JUMP JUMPDEST PUSH1 0x0 DUP2 MLOAD SWAP1 POP SWAP2 SWAP1 POP JUMP JUMPDEST PUSH1 0x0 DUP3 DUP3 MSTORE PUSH1 0x20 DUP3 ADD SWAP1 POP SWAP3 SWAP2 POP POP JUMP JUMPDEST PUSH1 0x0 JUMPDEST DUP4 DUP2 LT ISZERO PUSH2 0x48F5 JUMPI DUP1 DUP3 ADD MLOAD DUP2 DUP5 ADD MSTORE PUSH1 0x20 DUP2 ADD SWAP1 POP PUSH2 0x48DA JUMP JUMPDEST DUP4 DUP2 GT ISZERO PUSH2 0x4904 JUMPI PUSH1 0x0 DUP5 DUP5 ADD MSTORE JUMPDEST POP POP POP POP JUMP JUMPDEST PUSH1 0x0 PUSH1 0x1F NOT PUSH1 0x1F DUP4 ADD AND SWAP1 POP SWAP2 SWAP1 POP JUMP JUMPDEST PUSH1 0x0 PUSH2 0x4926 DUP3 PUSH2 0x48BB JUMP JUMPDEST PUSH2 0x4930 DUP2 DUP6 PUSH2 0x48C6 JUMP JUMPDEST SWAP4 POP PUSH2 0x4940 DUP2 DUP6 PUSH1 0x20 DUP7 ADD PUSH2 0x48D7 JUMP JUMPDEST PUSH2 0x4949 DUP2 PUSH2 0x490A JUMP JUMPDEST DUP5 ADD SWAP2 POP POP SWAP3 SWAP2 POP POP JUMP JUMPDEST PUSH1 0x0 PUSH1 0x20 DUP3 ADD SWAP1 POP DUP2 DUP2 SUB PUSH1 0x0 DUP4 ADD MSTORE PUSH2 0x496E DUP2 DUP5 PUSH2 0x491B JUMP JUMPDEST SWAP1 POP SWAP3 SWAP2 POP POP JUMP JUMPDEST PUSH2 0x497F DUP2 PUSH2 0x473A JUMP JUMPDEST DUP3 MSTORE POP POP JUMP JUMPDEST PUSH1 0x0 PUSH1 0x60 DUP3 ADD SWAP1 POP PUSH2 0x499A PUSH1 0x0 DUP4 ADD DUP7 PUSH2 0x4976 JUMP JUMPDEST PUSH2 0x49A7 PUSH1 0x20 DUP4 ADD DUP6 PUSH2 0x4976 JUMP JUMPDEST PUSH2 0x49B4 PUSH1 0x40 DUP4 ADD DUP5 PUSH2 0x4976 JUMP JUMPDEST SWAP5 SWAP4 POP POP POP POP JUMP JUMPDEST PUSH1 0x0 DUP2 ISZERO ISZERO SWAP1 POP SWAP2 SWAP1 POP JUMP JUMPDEST PUSH2 0x49D1 DUP2 PUSH2 0x49BC JUMP JUMPDEST DUP3 MSTORE POP POP JUMP JUMPDEST PUSH1 0x0 PUSH1 0x20 DUP3 ADD SWAP1 POP PUSH2 0x49EC PUSH1 0x0 DUP4 ADD DUP5 PUSH2 0x49C8 JUMP JUMPDEST SWAP3 SWAP2 POP POP JUMP JUMPDEST PUSH1 0x0 DUP1 PUSH1 0x40 DUP4 DUP6 SUB SLT ISZERO PUSH2 0x4A09 JUMPI PUSH2 0x4A08 PUSH2 0x4730 JUMP JUMPDEST JUMPDEST PUSH1 0x0 PUSH2 0x4A17 DUP6 DUP3 DUP7 ADD PUSH2 0x47B9 JUMP JUMPDEST SWAP3 POP POP PUSH1 0x20 PUSH2 0x4A28 DUP6 DUP3 DUP7 ADD PUSH2 0x475B JUMP JUMPDEST SWAP2 POP POP SWAP3 POP SWAP3 SWAP1 POP JUMP JUMPDEST PUSH2 0x4A3B DUP2 PUSH2 0x4790 JUMP JUMPDEST DUP3 MSTORE POP POP JUMP JUMPDEST PUSH1 0x0 PUSH1 0x20 DUP3 ADD SWAP1 POP PUSH2 0x4A56 PUSH1 0x0 DUP4 ADD DUP5 PUSH2 0x4A32 JUMP JUMPDEST SWAP3 SWAP2 POP POP JUMP JUMPDEST PUSH1 0x0 DUP1 PUSH1 0x0 DUP1 PUSH1 0x80 DUP6 DUP8 SUB SLT ISZERO PUSH2 0x4A76 JUMPI PUSH2 0x4A75 PUSH2 0x4730 JUMP JUMPDEST JUMPDEST PUSH1 0x0 PUSH2 0x4A84 DUP8 DUP3 DUP9 ADD PUSH2 0x47B9 JUMP JUMPDEST SWAP5 POP POP PUSH1 0x20 PUSH2 0x4A95 DUP8 DUP3 DUP9 ADD PUSH2 0x475B JUMP JUMPDEST SWAP4 POP POP PUSH1 0x40 PUSH2 0x4AA6 DUP8 DUP3 DUP9 ADD PUSH2 0x475B JUMP JUMPDEST SWAP3 POP POP PUSH1 0x60 PUSH2 0x4AB7 DUP8 DUP3 DUP9 ADD PUSH2 0x475B JUMP JUMPDEST SWAP2 POP POP SWAP3 SWAP6 SWAP2 SWAP5 POP SWAP3 POP JUMP JUMPDEST PUSH1 0x0 DUP2 MLOAD SWAP1 POP SWAP2 SWAP1 POP JUMP JUMPDEST PUSH1 0x0 DUP3 DUP3 MSTORE PUSH1 0x20 DUP3 ADD SWAP1 POP SWAP3 SWAP2 POP POP JUMP JUMPDEST PUSH1 0x0 DUP2 SWAP1 POP PUSH1 0x20 DUP3 ADD SWAP1 POP SWAP2 SWAP1 POP JUMP JUMPDEST PUSH2 0x4AF8 DUP2 PUSH2 0x473A JUMP JUMPDEST DUP3 MSTORE POP POP JUMP JUMPDEST PUSH1 0x0 PUSH2 0x4B0A DUP4 DUP4 PUSH2 0x4AEF JUMP JUMPDEST PUSH1 0x20 DUP4 ADD SWAP1 POP SWAP3 SWAP2 POP POP JUMP JUMPDEST PUSH1 0x0 PUSH1 0x20 DUP3 ADD SWAP1 POP SWAP2 SWAP1 POP JUMP JUMPDEST PUSH1 0x0 PUSH2 0x4B2E DUP3 PUSH2 0x4AC3 JUMP JUMPDEST PUSH2 0x4B38 DUP2 DUP6 PUSH2 0x4ACE JUMP JUMPDEST SWAP4 POP PUSH2 0x4B43 DUP4 PUSH2 0x4ADF JUMP JUMPDEST DUP1 PUSH1 0x0 JUMPDEST DUP4 DUP2 LT ISZERO PUSH2 0x4B74 JUMPI DUP2 MLOAD PUSH2 0x4B5B DUP9 DUP3 PUSH2 0x4AFE JUMP JUMPDEST SWAP8 POP PUSH2 0x4B66 DUP4 PUSH2 0x4B16 JUMP JUMPDEST SWAP3 POP POP PUSH1 0x1 DUP2 ADD SWAP1 POP PUSH2 0x4B47 JUMP JUMPDEST POP DUP6 SWAP4 POP POP POP POP SWAP3 SWAP2 POP POP JUMP JUMPDEST PUSH1 0x0 PUSH1 0x20 DUP3 ADD SWAP1 POP DUP2 DUP2 SUB PUSH1 0x0 DUP4 ADD MSTORE PUSH2 0x4B9B DUP2 DUP5 PUSH2 0x4B23 JUMP JUMPDEST SWAP1 POP SWAP3 SWAP2 POP POP JUMP JUMPDEST PUSH1 0x0 PUSH1 0x20 DUP3 ADD SWAP1 POP PUSH2 0x4BB8 PUSH1 0x0 DUP4 ADD DUP5 PUSH2 0x4976 JUMP JUMPDEST SWAP3 SWAP2 POP POP JUMP JUMPDEST PUSH1 0x0 PUSH1 0x20 DUP3 DUP5 SUB SLT ISZERO PUSH2 0x4BD4 JUMPI PUSH2 0x4BD3 PUSH2 0x4730 JUMP JUMPDEST JUMPDEST PUSH1 0x0 PUSH2 0x4BE2 DUP5 DUP3 DUP6 ADD PUSH2 0x47B9 JUMP JUMPDEST SWAP2 POP POP SWAP3 SWAP2 POP POP JUMP JUMPDEST PUSH1 0x0 DUP1 PUSH1 0x0 PUSH1 0x60 DUP5 DUP7 SUB SLT ISZERO PUSH2 0x4C04 JUMPI PUSH2 0x4C03 PUSH2 0x4730 JUMP JUMPDEST JUMPDEST PUSH1 0x0 PUSH2 0x4C12 DUP7 DUP3 DUP8 ADD PUSH2 0x47B9 JUMP JUMPDEST SWAP4 POP POP PUSH1 0x20 PUSH2 0x4C23 DUP7 DUP3 DUP8 ADD PUSH2 0x47B9 JUMP JUMPDEST SWAP3 POP POP PUSH1 0x40 PUSH2 0x4C34 DUP7 DUP3 DUP8 ADD PUSH2 0x475B JUMP JUMPDEST SWAP2 POP POP SWAP3 POP SWAP3 POP SWAP3 JUMP JUMPDEST PUSH1 0x0 PUSH1 0x20 DUP3 DUP5 SUB SLT ISZERO PUSH2 0x4C54 JUMPI PUSH2 0x4C53 PUSH2 0x4730 JUMP JUMPDEST JUMPDEST PUSH1 0x0 PUSH2 0x4C62 DUP5 DUP3 DUP6 ADD PUSH2 0x475B JUMP JUMPDEST SWAP2 POP POP SWAP3 SWAP2 POP POP JUMP JUMPDEST PUSH1 0x0 PUSH1 0xFF DUP3 AND SWAP1 POP SWAP2 SWAP1 POP JUMP JUMPDEST PUSH2 0x4C81 DUP2 PUSH2 0x4C6B JUMP JUMPDEST DUP3 MSTORE POP POP JUMP JUMPDEST PUSH1 0x0 PUSH1 0x20 DUP3 ADD SWAP1 POP PUSH2 0x4C9C PUSH1 0x0 DUP4 ADD DUP5 PUSH2 0x4C78 JUMP JUMPDEST SWAP3 SWAP2 POP POP JUMP JUMPDEST PUSH1 0x0 PUSH1 0xE0 DUP3 ADD SWAP1 POP PUSH2 0x4CB7 PUSH1 0x0 DUP4 ADD DUP11 PUSH2 0x4976 JUMP JUMPDEST PUSH2 0x4CC4 PUSH1 0x20 DUP4 ADD DUP10 PUSH2 0x4976 JUMP JUMPDEST PUSH2 0x4CD1 PUSH1 0x40 DUP4 ADD DUP9 PUSH2 0x4976 JUMP JUMPDEST PUSH2 0x4CDE PUSH1 0x60 DUP4 ADD DUP8 PUSH2 0x4976 JUMP JUMPDEST PUSH2 0x4CEB PUSH1 0x80 DUP4 ADD DUP7 PUSH2 0x49C8 JUMP JUMPDEST PUSH2 0x4CF8 PUSH1 0xA0 DUP4 ADD DUP6 PUSH2 0x4A32 JUMP JUMPDEST PUSH2 0x4D05 PUSH1 0xC0 DUP4 ADD DUP5 PUSH2 0x4A32 JUMP JUMPDEST SWAP9 SWAP8 POP POP POP POP POP POP POP POP JUMP JUMPDEST PUSH1 0x0 DUP1 PUSH1 0x0 PUSH1 0x60 DUP5 DUP7 SUB SLT ISZERO PUSH2 0x4D2A JUMPI PUSH2 0x4D29 PUSH2 0x4730 JUMP JUMPDEST JUMPDEST PUSH1 0x0 PUSH2 0x4D38 DUP7 DUP3 DUP8 ADD PUSH2 0x47B9 JUMP JUMPDEST SWAP4 POP POP PUSH1 0x20 PUSH2 0x4D49 DUP7 DUP3 DUP8 ADD PUSH2 0x475B JUMP JUMPDEST SWAP3 POP POP PUSH1 0x40 PUSH2 0x4D5A DUP7 DUP3 DUP8 ADD PUSH2 0x475B JUMP JUMPDEST SWAP2 POP POP SWAP3 POP SWAP3 POP SWAP3 JUMP JUMPDEST PUSH1 0x0 PUSH1 0x40 DUP3 ADD SWAP1 POP PUSH2 0x4D79 PUSH1 0x0 DUP4 ADD DUP6 PUSH2 0x4976 JUMP JUMPDEST PUSH2 0x4D86 PUSH1 0x20 DUP4 ADD DUP5 PUSH2 0x4976 JUMP JUMPDEST SWAP4 SWAP3 POP POP POP JUMP JUMPDEST PUSH1 0x60 DUP3 ADD PUSH1 0x0 DUP3 ADD MLOAD PUSH2 0x4DA3 PUSH1 0x0 DUP6 ADD DUP3 PUSH2 0x4AEF JUMP JUMPDEST POP PUSH1 0x20 DUP3 ADD MLOAD PUSH2 0x4DB6 PUSH1 0x20 DUP6 ADD DUP3 PUSH2 0x4AEF JUMP JUMPDEST POP PUSH1 0x40 DUP3 ADD MLOAD PUSH2 0x4DC9 PUSH1 0x40 DUP6 ADD DUP3 PUSH2 0x4AEF JUMP JUMPDEST POP POP POP POP JUMP JUMPDEST PUSH1 0x0 PUSH1 0x60 DUP3 ADD SWAP1 POP PUSH2 0x4DE4 PUSH1 0x0 DUP4 ADD DUP5 PUSH2 0x4D8D JUMP JUMPDEST SWAP3 SWAP2 POP POP JUMP JUMPDEST PUSH1 0x0 PUSH1 0x40 DUP3 ADD SWAP1 POP PUSH2 0x4DFF PUSH1 0x0 DUP4 ADD DUP6 PUSH2 0x4A32 JUMP JUMPDEST PUSH2 0x4E0C PUSH1 0x20 DUP4 ADD DUP5 PUSH2 0x4A32 JUMP JUMPDEST SWAP4 SWAP3 POP POP POP JUMP JUMPDEST PUSH2 0x4E1C DUP2 PUSH2 0x4C6B JUMP JUMPDEST DUP2 EQ PUSH2 0x4E27 JUMPI PUSH1 0x0 DUP1 REVERT JUMPDEST POP JUMP JUMPDEST PUSH1 0x0 DUP2 CALLDATALOAD SWAP1 POP PUSH2 0x4E39 DUP2 PUSH2 0x4E13 JUMP JUMPDEST SWAP3 SWAP2 POP POP JUMP JUMPDEST PUSH1 0x0 DUP2 SWAP1 POP SWAP2 SWAP1 POP JUMP JUMPDEST PUSH2 0x4E52 DUP2 PUSH2 0x4E3F JUMP JUMPDEST DUP2 EQ PUSH2 0x4E5D JUMPI PUSH1 0x0 DUP1 REVERT JUMPDEST POP JUMP JUMPDEST PUSH1 0x0 DUP2 CALLDATALOAD SWAP1 POP PUSH2 0x4E6F DUP2 PUSH2 0x4E49 JUMP JUMPDEST SWAP3 SWAP2 POP POP JUMP JUMPDEST PUSH1 0x0 DUP1 PUSH1 0x0 DUP1 PUSH1 0x0 DUP1 PUSH1 0x0 PUSH1 0xE0 DUP9 DUP11 SUB SLT ISZERO PUSH2 0x4E94 JUMPI PUSH2 0x4E93 PUSH2 0x4730 JUMP JUMPDEST JUMPDEST PUSH1 0x0 PUSH2 0x4EA2 DUP11 DUP3 DUP12 ADD PUSH2 0x47B9 JUMP JUMPDEST SWAP8 POP POP PUSH1 0x20 PUSH2 0x4EB3 DUP11 DUP3 DUP12 ADD PUSH2 0x47B9 JUMP JUMPDEST SWAP7 POP POP PUSH1 0x40 PUSH2 0x4EC4 DUP11 DUP3 DUP12 ADD PUSH2 0x475B JUMP JUMPDEST SWAP6 POP POP PUSH1 0x60 PUSH2 0x4ED5 DUP11 DUP3 DUP12 ADD PUSH2 0x475B JUMP JUMPDEST SWAP5 POP POP PUSH1 0x80 PUSH2 0x4EE6 DUP11 DUP3 DUP12 ADD PUSH2 0x4E2A JUMP JUMPDEST SWAP4 POP POP PUSH1 0xA0 PUSH2 0x4EF7 DUP11 DUP3 DUP12 ADD PUSH2 0x4E60 JUMP JUMPDEST SWAP3 POP POP PUSH1 0xC0 PUSH2 0x4F08 DUP11 DUP3 DUP12 ADD PUSH2 0x4E60 JUMP JUMPDEST SWAP2 POP POP SWAP3 SWAP6 SWAP9 SWAP2 SWAP5 SWAP8 POP SWAP3 SWAP6 POP JUMP JUMPDEST PUSH1 0x0 DUP1 PUSH1 0x40 DUP4 DUP6 SUB SLT ISZERO PUSH2 0x4F2E JUMPI PUSH2 0x4F2D PUSH2 0x4730 JUMP JUMPDEST JUMPDEST PUSH1 0x0 PUSH2 0x4F3C DUP6 DUP3 DUP7 ADD PUSH2 0x47B9 JUMP JUMPDEST SWAP3 POP POP PUSH1 0x20 PUSH2 0x4F4D DUP6 DUP3 DUP7 ADD PUSH2 0x47B9 JUMP JUMPDEST SWAP2 POP POP SWAP3 POP SWAP3 SWAP1 POP JUMP JUMPDEST PUSH1 0x0 DUP1 PUSH1 0x40 DUP4 DUP6 SUB SLT ISZERO PUSH2 0x4F6E JUMPI PUSH2 0x4F6D PUSH2 0x4730 JUMP JUMPDEST JUMPDEST PUSH1 0x0 PUSH2 0x4F7C DUP6 DUP3 DUP7 ADD PUSH2 0x475B JUMP JUMPDEST SWAP3 POP POP PUSH1 0x20 PUSH2 0x4F8D DUP6 DUP3 DUP7 ADD PUSH2 0x47B9 JUMP JUMPDEST SWAP2 POP POP SWAP3 POP SWAP3 SWAP1 POP JUMP JUMPDEST PUSH2 0x4FA0 DUP2 PUSH2 0x49BC JUMP JUMPDEST DUP2 EQ PUSH2 0x4FAB JUMPI PUSH1 0x0 DUP1 REVERT JUMPDEST POP JUMP JUMPDEST PUSH1 0x0 DUP2 MLOAD SWAP1 POP PUSH2 0x4FBD DUP2 PUSH2 0x4F97 JUMP JUMPDEST SWAP3 SWAP2 POP POP JUMP JUMPDEST PUSH1 0x0 PUSH1 0x20 DUP3 DUP5 SUB SLT ISZERO PUSH2 0x4FD9 JUMPI PUSH2 0x4FD8 PUSH2 0x4730 JUMP JUMPDEST JUMPDEST PUSH1 0x0 PUSH2 0x4FE7 DUP5 DUP3 DUP6 ADD PUSH2 0x4FAE JUMP JUMPDEST SWAP2 POP POP SWAP3 SWAP2 POP POP JUMP JUMPDEST PUSH32 0x494F410000000000000000000000000000000000000000000000000000000000 PUSH1 0x0 DUP3 ADD MSTORE POP JUMP JUMPDEST PUSH1 0x0 PUSH2 0x5026 PUSH1 0x3 DUP4 PUSH2 0x48C6 JUMP JUMPDEST SWAP2 POP PUSH2 0x5031 DUP3 PUSH2 0x4FF0 JUMP JUMPDEST PUSH1 0x20 DUP3 ADD SWAP1 POP SWAP2 SWAP1 POP JUMP JUMPDEST PUSH1 0x0 PUSH1 0x20 DUP3 ADD SWAP1 POP DUP2 DUP2 SUB PUSH1 0x0 DUP4 ADD MSTORE PUSH2 0x5055 DUP2 PUSH2 0x5019 JUMP JUMPDEST SWAP1 POP SWAP2 SWAP1 POP JUMP JUMPDEST PUSH32 0x494C000000000000000000000000000000000000000000000000000000000000 PUSH1 0x0 DUP3 ADD MSTORE POP JUMP JUMPDEST PUSH1 0x0 PUSH2 0x5092 PUSH1 0x2 DUP4 PUSH2 0x48C6 JUMP JUMPDEST SWAP2 POP PUSH2 0x509D DUP3 PUSH2 0x505C JUMP JUMPDEST PUSH1 0x20 DUP3 ADD SWAP1 POP SWAP2 SWAP1 POP JUMP JUMPDEST PUSH1 0x0 PUSH1 0x20 DUP3 ADD SWAP1 POP DUP2 DUP2 SUB PUSH1 0x0 DUP4 ADD MSTORE PUSH2 0x50C1 DUP2 PUSH2 0x5085 JUMP JUMPDEST SWAP1 POP SWAP2 SWAP1 POP JUMP JUMPDEST PUSH32 0x4954000000000000000000000000000000000000000000000000000000000000 PUSH1 0x0 DUP3 ADD MSTORE POP JUMP JUMPDEST PUSH1 0x0 PUSH2 0x50FE PUSH1 0x2 DUP4 PUSH2 0x48C6 JUMP JUMPDEST SWAP2 POP PUSH2 0x5109 DUP3 PUSH2 0x50C8 JUMP JUMPDEST PUSH1 0x20 DUP3 ADD SWAP1 POP SWAP2 SWAP1 POP JUMP JUMPDEST PUSH1 0x0 PUSH1 0x20 DUP3 ADD SWAP1 POP DUP2 DUP2 SUB PUSH1 0x0 DUP4 ADD MSTORE PUSH2 0x512D DUP2 PUSH2 0x50F1 JUMP JUMPDEST SWAP1 POP SWAP2 SWAP1 POP JUMP JUMPDEST PUSH1 0x0 DUP3 DUP3 MSTORE PUSH1 0x20 DUP3 ADD SWAP1 POP SWAP3 SWAP2 POP POP JUMP JUMPDEST DUP3 DUP2 DUP4 CALLDATACOPY PUSH1 0x0 DUP4 DUP4 ADD MSTORE POP POP POP JUMP JUMPDEST PUSH1 0x0 PUSH2 0x5160 DUP4 DUP6 PUSH2 0x5134 JUMP JUMPDEST SWAP4 POP PUSH2 0x516D DUP4 DUP6 DUP5 PUSH2 0x5145 JUMP JUMPDEST PUSH2 0x5176 DUP4 PUSH2 0x490A JUMP JUMPDEST DUP5 ADD SWAP1 POP SWAP4 SWAP3 POP POP POP JUMP JUMPDEST PUSH1 0x0 PUSH1 0x80 DUP3 ADD SWAP1 POP PUSH2 0x5196 PUSH1 0x0 DUP4 ADD DUP9 PUSH2 0x4A32 JUMP JUMPDEST PUSH2 0x51A3 PUSH1 0x20 DUP4 ADD DUP8 PUSH2 0x4976 JUMP JUMPDEST PUSH2 0x51B0 PUSH1 0x40 DUP4 ADD DUP7 PUSH2 0x4976 JUMP JUMPDEST DUP2 DUP2 SUB PUSH1 0x60 DUP4 ADD MSTORE PUSH2 0x51C3 DUP2 DUP5 DUP7 PUSH2 0x5154 JUMP JUMPDEST SWAP1 POP SWAP7 SWAP6 POP POP POP POP POP POP JUMP JUMPDEST PUSH1 0x0 DUP2 MLOAD SWAP1 POP PUSH2 0x51DE DUP2 PUSH2 0x4744 JUMP JUMPDEST SWAP3 SWAP2 POP POP JUMP JUMPDEST PUSH1 0x0 PUSH1 0x20 DUP3 DUP5 SUB SLT ISZERO PUSH2 0x51FA JUMPI PUSH2 0x51F9 PUSH2 0x4730 JUMP JUMPDEST JUMPDEST PUSH1 0x0 PUSH2 0x5208 DUP5 DUP3 DUP6 ADD PUSH2 0x51CF JUMP JUMPDEST SWAP2 POP POP SWAP3 SWAP2 POP POP JUMP JUMPDEST PUSH32 0x4E487B7100000000000000000000000000000000000000000000000000000000 PUSH1 0x0 MSTORE PUSH1 0x11 PUSH1 0x4 MSTORE PUSH1 0x24 PUSH1 0x0 REVERT JUMPDEST PUSH1 0x0 PUSH2 0x524B DUP3 PUSH2 0x473A JUMP JUMPDEST SWAP2 POP PUSH2 0x5256 DUP4 PUSH2 0x473A JUMP JUMPDEST SWAP3 POP DUP3 DUP3 LT ISZERO PUSH2 0x5269 JUMPI PUSH2 0x5268 PUSH2 0x5211 JUMP JUMPDEST JUMPDEST DUP3 DUP3 SUB SWAP1 POP SWAP3 SWAP2 POP POP JUMP JUMPDEST PUSH32 0x4949410000000000000000000000000000000000000000000000000000000000 PUSH1 0x0 DUP3 ADD MSTORE POP JUMP JUMPDEST PUSH1 0x0 PUSH2 0x52AA PUSH1 0x3 DUP4 PUSH2 0x48C6 JUMP JUMPDEST SWAP2 POP PUSH2 0x52B5 DUP3 PUSH2 0x5274 JUMP JUMPDEST PUSH1 0x20 DUP3 ADD SWAP1 POP SWAP2 SWAP1 POP JUMP JUMPDEST PUSH1 0x0 PUSH1 0x20 DUP3 ADD SWAP1 POP DUP2 DUP2 SUB PUSH1 0x0 DUP4 ADD MSTORE PUSH2 0x52D9 DUP2 PUSH2 0x529D JUMP JUMPDEST SWAP1 POP SWAP2 SWAP1 POP JUMP JUMPDEST PUSH1 0x0 PUSH2 0x52EB DUP3 PUSH2 0x473A JUMP JUMPDEST SWAP2 POP PUSH2 0x52F6 DUP4 PUSH2 0x473A JUMP JUMPDEST SWAP3 POP DUP2 PUSH32 0xFFFFFFFFFFFFFFFFFFFFFFFFFFFFFFFFFFFFFFFFFFFFFFFFFFFFFFFFFFFFFFFF DIV DUP4 GT DUP3 ISZERO ISZERO AND ISZERO PUSH2 0x532F JUMPI PUSH2 0x532E PUSH2 0x5211 JUMP JUMPDEST JUMPDEST DUP3 DUP3 MUL SWAP1 POP SWAP3 SWAP2 POP POP JUMP JUMPDEST PUSH32 0x4E487B7100000000000000000000000000000000000000000000000000000000 PUSH1 0x0 MSTORE PUSH1 0x12 PUSH1 0x4 MSTORE PUSH1 0x24 PUSH1 0x0 REVERT JUMPDEST PUSH1 0x0 PUSH2 0x5374 DUP3 PUSH2 0x473A JUMP JUMPDEST SWAP2 POP PUSH2 0x537F DUP4 PUSH2 0x473A JUMP JUMPDEST SWAP3 POP DUP3 PUSH2 0x538F JUMPI PUSH2 0x538E PUSH2 0x533A JUMP JUMPDEST JUMPDEST DUP3 DUP3 DIV SWAP1 POP SWAP3 SWAP2 POP POP JUMP JUMPDEST PUSH32 0x4B00000000000000000000000000000000000000000000000000000000000000 PUSH1 0x0 DUP3 ADD MSTORE POP JUMP JUMPDEST PUSH1 0x0 PUSH2 0x53D0 PUSH1 0x1 DUP4 PUSH2 0x48C6 JUMP JUMPDEST SWAP2 POP PUSH2 0x53DB DUP3 PUSH2 0x539A JUMP JUMPDEST PUSH1 0x20 DUP3 ADD SWAP1 POP SWAP2 SWAP1 POP JUMP JUMPDEST PUSH1 0x0 PUSH1 0x20 DUP3 ADD SWAP1 POP DUP2 DUP2 SUB PUSH1 0x0 DUP4 ADD MSTORE PUSH2 0x53FF DUP2 PUSH2 0x53C3 JUMP JUMPDEST SWAP1 POP SWAP2 SWAP1 POP JUMP JUMPDEST PUSH1 0x0 PUSH1 0x80 DUP3 ADD SWAP1 POP PUSH2 0x541B PUSH1 0x0 DUP4 ADD DUP8 PUSH2 0x4976 JUMP JUMPDEST PUSH2 0x5428 PUSH1 0x20 DUP4 ADD DUP7 PUSH2 0x4976 JUMP JUMPDEST PUSH2 0x5435 PUSH1 0x40 DUP4 ADD DUP6 PUSH2 0x4976 JUMP JUMPDEST PUSH2 0x5442 PUSH1 0x60 DUP4 ADD DUP5 PUSH2 0x4976 JUMP JUMPDEST SWAP6 SWAP5 POP POP POP POP POP JUMP JUMPDEST PUSH32 0x4E487B7100000000000000000000000000000000000000000000000000000000 PUSH1 0x0 MSTORE PUSH1 0x22 PUSH1 0x4 MSTORE PUSH1 0x24 PUSH1 0x0 REVERT JUMPDEST PUSH1 0x0 PUSH1 0x2 DUP3 DIV SWAP1 POP PUSH1 0x1 DUP3 AND DUP1 PUSH2 0x5492 JUMPI PUSH1 0x7F DUP3 AND SWAP2 POP JUMPDEST PUSH1 0x20 DUP3 LT DUP2 SUB PUSH2 0x54A5 JUMPI PUSH2 0x54A4 PUSH2 0x544B JUMP JUMPDEST JUMPDEST POP SWAP2 SWAP1 POP JUMP JUMPDEST PUSH32 0x4E487B7100000000000000000000000000000000000000000000000000000000 PUSH1 0x0 MSTORE PUSH1 0x41 PUSH1 0x4 MSTORE PUSH1 0x24 PUSH1 0x0 REVERT JUMPDEST PUSH1 0x0 PUSH2 0x54E5 DUP3 PUSH2 0x473A JUMP JUMPDEST SWAP2 POP PUSH2 0x54F0 DUP4 PUSH2 0x473A JUMP JUMPDEST SWAP3 POP DUP3 PUSH32 0xFFFFFFFFFFFFFFFFFFFFFFFFFFFFFFFFFFFFFFFFFFFFFFFFFFFFFFFFFFFFFFFF SUB DUP3 GT ISZERO PUSH2 0x5525 JUMPI PUSH2 0x5524 PUSH2 0x5211 JUMP JUMPDEST JUMPDEST DUP3 DUP3 ADD SWAP1 POP SWAP3 SWAP2 POP POP JUMP JUMPDEST PUSH32 0x4E487B7100000000000000000000000000000000000000000000000000000000 PUSH1 0x0 MSTORE PUSH1 0x32 PUSH1 0x4 MSTORE PUSH1 0x24 PUSH1 0x0 REVERT JUMPDEST PUSH32 0x494C4D0000000000000000000000000000000000000000000000000000000000 PUSH1 0x0 DUP3 ADD MSTORE POP JUMP JUMPDEST PUSH1 0x0 PUSH2 0x5595 PUSH1 0x3 DUP4 PUSH2 0x48C6 JUMP JUMPDEST SWAP2 POP PUSH2 0x55A0 DUP3 PUSH2 0x555F JUMP JUMPDEST PUSH1 0x20 DUP3 ADD SWAP1 POP SWAP2 SWAP1 POP JUMP JUMPDEST PUSH1 0x0 PUSH1 0x20 DUP3 ADD SWAP1 POP DUP2 DUP2 SUB PUSH1 0x0 DUP4 ADD MSTORE PUSH2 0x55C4 DUP2 PUSH2 0x5588 JUMP JUMPDEST SWAP1 POP SWAP2 SWAP1 POP JUMP JUMPDEST PUSH32 0x494C420000000000000000000000000000000000000000000000000000000000 PUSH1 0x0 DUP3 ADD MSTORE POP JUMP JUMPDEST PUSH1 0x0 PUSH2 0x5601 PUSH1 0x3 DUP4 PUSH2 0x48C6 JUMP JUMPDEST SWAP2 POP PUSH2 0x560C DUP3 PUSH2 0x55CB JUMP JUMPDEST PUSH1 0x20 DUP3 ADD SWAP1 POP SWAP2 SWAP1 POP JUMP JUMPDEST PUSH1 0x0 PUSH1 0x20 DUP3 ADD SWAP1 POP DUP2 DUP2 SUB PUSH1 0x0 DUP4 ADD MSTORE PUSH2 0x5630 DUP2 PUSH2 0x55F4 JUMP JUMPDEST SWAP1 POP SWAP2 SWAP1 POP JUMP JUMPDEST PUSH1 0x0 PUSH2 0x5642 DUP3 PUSH2 0x473A JUMP JUMPDEST SWAP2 POP PUSH32 0xFFFFFFFFFFFFFFFFFFFFFFFFFFFFFFFFFFFFFFFFFFFFFFFFFFFFFFFFFFFFFFFF DUP3 SUB PUSH2 0x5674 JUMPI PUSH2 0x5673 PUSH2 0x5211 JUMP JUMPDEST JUMPDEST PUSH1 0x1 DUP3 ADD SWAP1 POP SWAP2 SWAP1 POP JUMP JUMPDEST PUSH1 0x0 PUSH1 0x60 DUP3 ADD SWAP1 POP PUSH2 0x5694 PUSH1 0x0 DUP4 ADD DUP7 PUSH2 0x4A32 JUMP JUMPDEST PUSH2 0x56A1 PUSH1 0x20 DUP4 ADD DUP6 PUSH2 0x4976 JUMP JUMPDEST PUSH2 0x56AE PUSH1 0x40 DUP4 ADD DUP5 PUSH2 0x4976 JUMP JUMPDEST SWAP5 SWAP4 POP POP POP POP JUMP JUMPDEST PUSH32 0x506169723A204558504952454400000000000000000000000000000000000000 PUSH1 0x0 DUP3 ADD MSTORE POP JUMP JUMPDEST PUSH1 0x0 PUSH2 0x56EC PUSH1 0xD DUP4 PUSH2 0x48C6 JUMP JUMPDEST SWAP2 POP PUSH2 0x56F7 DUP3 PUSH2 0x56B6 JUMP JUMPDEST PUSH1 0x20 DUP3 ADD SWAP1 POP SWAP2 SWAP1 POP JUMP JUMPDEST PUSH1 0x0 PUSH1 0x20 DUP3 ADD SWAP1 POP DUP2 DUP2 SUB PUSH1 0x0 DUP4 ADD MSTORE PUSH2 0x571B DUP2 PUSH2 0x56DF JUMP JUMPDEST SWAP1 POP SWAP2 SWAP1 POP JUMP JUMPDEST PUSH1 0x0 DUP2 SWAP1 POP SWAP3 SWAP2 POP POP JUMP JUMPDEST PUSH1 0x0 DUP2 SWAP1 POP DUP2 PUSH1 0x0 MSTORE PUSH1 0x20 PUSH1 0x0 KECCAK256 SWAP1 POP SWAP2 SWAP1 POP JUMP JUMPDEST PUSH1 0x0 DUP2 SLOAD PUSH2 0x574F DUP2 PUSH2 0x547A JUMP JUMPDEST PUSH2 0x5759 DUP2 DUP7 PUSH2 0x5722 JUMP JUMPDEST SWAP5 POP PUSH1 0x1 DUP3 AND PUSH1 0x0 DUP2 EQ PUSH2 0x5774 JUMPI PUSH1 0x1 DUP2 EQ PUSH2 0x5785 JUMPI PUSH2 0x57B8 JUMP JUMPDEST PUSH1 0xFF NOT DUP4 AND DUP7 MSTORE DUP2 DUP7 ADD SWAP4 POP PUSH2 0x57B8 JUMP JUMPDEST PUSH2 0x578E DUP6 PUSH2 0x572D JUMP JUMPDEST PUSH1 0x0 JUMPDEST DUP4 DUP2 LT ISZERO PUSH2 0x57B0 JUMPI DUP2 SLOAD DUP2 DUP10 ADD MSTORE PUSH1 0x1 DUP3 ADD SWAP2 POP PUSH1 0x20 DUP2 ADD SWAP1 POP PUSH2 0x5791 JUMP JUMPDEST DUP4 DUP9 ADD SWAP6 POP POP POP JUMPDEST POP POP POP SWAP3 SWAP2 POP POP JUMP JUMPDEST PUSH1 0x0 PUSH2 0x57CD DUP3 DUP5 PUSH2 0x5742 JUMP JUMPDEST SWAP2 POP DUP2 SWAP1 POP SWAP3 SWAP2 POP POP JUMP JUMPDEST PUSH2 0x57E1 DUP2 PUSH2 0x4E3F JUMP JUMPDEST DUP3 MSTORE POP POP JUMP JUMPDEST PUSH1 0x0 PUSH1 0xA0 DUP3 ADD SWAP1 POP PUSH2 0x57FC PUSH1 0x0 DUP4 ADD DUP9 PUSH2 0x57D8 JUMP JUMPDEST PUSH2 0x5809 PUSH1 0x20 DUP4 ADD DUP8 PUSH2 0x57D8 JUMP JUMPDEST PUSH2 0x5816 PUSH1 0x40 DUP4 ADD DUP7 PUSH2 0x57D8 JUMP JUMPDEST PUSH2 0x5823 PUSH1 0x60 DUP4 ADD DUP6 PUSH2 0x4976 JUMP JUMPDEST PUSH2 0x5830 PUSH1 0x80 DUP4 ADD DUP5 PUSH2 0x4A32 JUMP JUMPDEST SWAP7 SWAP6 POP POP POP POP POP POP JUMP JUMPDEST PUSH1 0x0 PUSH1 0xC0 DUP3 ADD SWAP1 POP PUSH2 0x584F PUSH1 0x0 DUP4 ADD DUP10 PUSH2 0x57D8 JUMP JUMPDEST PUSH2 0x585C PUSH1 0x20 DUP4 ADD DUP9 PUSH2 0x4A32 JUMP JUMPDEST PUSH2 0x5869 PUSH1 0x40 DUP4 ADD DUP8 PUSH2 0x4A32 JUMP JUMPDEST PUSH2 0x5876 PUSH1 0x60 DUP4 ADD DUP7 PUSH2 0x4976 JUMP JUMPDEST PUSH2 0x5883 PUSH1 0x80 DUP4 ADD DUP6 PUSH2 0x4976 JUMP JUMPDEST PUSH2 0x5890 PUSH1 0xA0 DUP4 ADD DUP5 PUSH2 0x4976 JUMP JUMPDEST SWAP8 SWAP7 POP POP POP POP POP POP POP JUMP JUMPDEST PUSH1 0x0 DUP2 SWAP1 POP SWAP3 SWAP2 POP POP JUMP JUMPDEST PUSH32 0x1901000000000000000000000000000000000000000000000000000000000000 PUSH1 0x0 DUP3 ADD MSTORE POP JUMP JUMPDEST PUSH1 0x0 PUSH2 0x58DC PUSH1 0x2 DUP4 PUSH2 0x589B JUMP JUMPDEST SWAP2 POP PUSH2 0x58E7 DUP3 PUSH2 0x58A6 JUMP JUMPDEST PUSH1 0x2 DUP3 ADD SWAP1 POP SWAP2 SWAP1 POP JUMP JUMPDEST PUSH1 0x0 DUP2 SWAP1 POP SWAP2 SWAP1 POP JUMP JUMPDEST PUSH2 0x590D PUSH2 0x5908 DUP3 PUSH2 0x4E3F JUMP JUMPDEST PUSH2 0x58F2 JUMP JUMPDEST DUP3 MSTORE POP POP JUMP JUMPDEST PUSH1 0x0 PUSH2 0x591E DUP3 PUSH2 0x58CF JUMP JUMPDEST SWAP2 POP PUSH2 0x592A DUP3 DUP6 PUSH2 0x58FC JUMP JUMPDEST PUSH1 0x20 DUP3 ADD SWAP2 POP PUSH2 0x593A DUP3 DUP5 PUSH2 0x58FC JUMP JUMPDEST PUSH1 0x20 DUP3 ADD SWAP2 POP DUP2 SWAP1 POP SWAP4 SWAP3 POP POP POP JUMP JUMPDEST PUSH1 0x0 PUSH1 0x80 DUP3 ADD SWAP1 POP PUSH2 0x595F PUSH1 0x0 DUP4 ADD DUP8 PUSH2 0x57D8 JUMP JUMPDEST PUSH2 0x596C PUSH1 0x20 DUP4 ADD DUP7 PUSH2 0x4C78 JUMP JUMPDEST PUSH2 0x5979 PUSH1 0x40 DUP4 ADD DUP6 PUSH2 0x57D8 JUMP JUMPDEST PUSH2 0x5986 PUSH1 0x60 DUP4 ADD DUP5 PUSH2 0x57D8 JUMP JUMPDEST SWAP6 SWAP5 POP POP POP POP POP JUMP JUMPDEST PUSH32 0x506169723A20494E56414C49445F5349474E4154555245000000000000000000 PUSH1 0x0 DUP3 ADD MSTORE POP JUMP JUMPDEST PUSH1 0x0 PUSH2 0x59C5 PUSH1 0x17 DUP4 PUSH2 0x48C6 JUMP JUMPDEST SWAP2 POP PUSH2 0x59D0 DUP3 PUSH2 0x598F JUMP JUMPDEST PUSH1 0x20 DUP3 ADD SWAP1 POP SWAP2 SWAP1 POP JUMP JUMPDEST PUSH1 0x0 PUSH1 0x20 DUP3 ADD SWAP1 POP DUP2 DUP2 SUB PUSH1 0x0 DUP4 ADD MSTORE PUSH2 0x59F4 DUP2 PUSH2 0x59B8 JUMP JUMPDEST SWAP1 POP SWAP2 SWAP1 POP JUMP JUMPDEST PUSH1 0x0 DUP2 MLOAD SWAP1 POP PUSH2 0x5A0A DUP2 PUSH2 0x47A2 JUMP JUMPDEST SWAP3 SWAP2 POP POP JUMP JUMPDEST PUSH1 0x0 PUSH1 0x20 DUP3 DUP5 SUB SLT ISZERO PUSH2 0x5A26 JUMPI PUSH2 0x5A25 PUSH2 0x4730 JUMP JUMPDEST JUMPDEST PUSH1 0x0 PUSH2 0x5A34 DUP5 DUP3 DUP6 ADD PUSH2 0x59FB JUMP JUMPDEST SWAP2 POP POP SWAP3 SWAP2 POP POP JUMP JUMPDEST PUSH1 0x0 PUSH1 0x40 DUP3 ADD SWAP1 POP PUSH2 0x5A52 PUSH1 0x0 DUP4 ADD DUP6 PUSH2 0x4A32 JUMP JUMPDEST PUSH2 0x5A5F PUSH1 0x20 DUP4 ADD DUP5 PUSH2 0x4976 JUMP JUMPDEST SWAP4 SWAP3 POP POP POP JUMP JUMPDEST PUSH1 0x0 DUP2 MLOAD SWAP1 POP SWAP2 SWAP1 POP JUMP JUMPDEST PUSH1 0x0 PUSH2 0x5A7C DUP3 PUSH2 0x5A66 JUMP JUMPDEST PUSH2 0x5A86 DUP2 DUP6 PUSH2 0x5722 JUMP JUMPDEST SWAP4 POP PUSH2 0x5A96 DUP2 DUP6 PUSH1 0x20 DUP7 ADD PUSH2 0x48D7 JUMP JUMPDEST DUP1 DUP5 ADD SWAP2 POP POP SWAP3 SWAP2 POP POP JUMP JUMPDEST PUSH1 0x0 PUSH2 0x5AAE DUP3 DUP5 PUSH2 0x5A71 JUMP JUMPDEST SWAP2 POP DUP2 SWAP1 POP SWAP3 SWAP2 POP POP JUMP JUMPDEST PUSH1 0x0 PUSH1 0x40 DUP3 ADD SWAP1 POP PUSH2 0x5ACE PUSH1 0x0 DUP4 ADD DUP6 PUSH2 0x4976 JUMP JUMPDEST PUSH2 0x5ADB PUSH1 0x20 DUP4 ADD DUP5 PUSH2 0x49C8 JUMP JUMPDEST SWAP4 SWAP3 POP POP POP JUMP JUMPDEST PUSH1 0x0 DUP2 SWAP1 POP SWAP2 SWAP1 POP JUMP JUMPDEST PUSH1 0x0 DUP2 SWAP1 POP SWAP2 SWAP1 POP JUMP JUMPDEST PUSH1 0x0 PUSH2 0x5B11 PUSH2 0x5B0C PUSH2 0x5B07 DUP5 PUSH2 0x5AE2 JUMP JUMPDEST PUSH2 0x5AEC JUMP JUMPDEST PUSH2 0x473A JUMP JUMPDEST SWAP1 POP SWAP2 SWAP1 POP JUMP JUMPDEST PUSH2 0x5B21 DUP2 PUSH2 0x5AF6 JUMP JUMPDEST DUP3 MSTORE POP POP JUMP JUMPDEST PUSH1 0x0 PUSH1 0x40 DUP3 ADD SWAP1 POP PUSH2 0x5B3C PUSH1 0x0 DUP4 ADD DUP6 PUSH2 0x4976 JUMP JUMPDEST PUSH2 0x5B49 PUSH1 0x20 DUP4 ADD DUP5 PUSH2 0x5B18 JUMP JUMPDEST SWAP4 SWAP3 POP POP POP JUMP JUMPDEST PUSH1 0x0 PUSH1 0x40 DUP3 ADD SWAP1 POP PUSH2 0x5B65 PUSH1 0x0 DUP4 ADD DUP6 PUSH2 0x5B18 JUMP JUMPDEST PUSH2 0x5B72 PUSH1 0x20 DUP4 ADD DUP5 PUSH2 0x4976 JUMP JUMPDEST SWAP4 SWAP3 POP POP POP JUMP INVALID LOG2 PUSH5 0x6970667358 0x22 SLT KECCAK256 0xF9 DUP9 SHR CREATE2 RETURNDATASIZE 0xBD 0xAC 0x4C 0xC7 DUP12 PUSH30 0xEBCE91BFE271A47D490B39218438A15233366D110264736F6C634300080D STOP CALLER PUSH1 0xE0 PUSH1 0x40 MSTORE CALLVALUE DUP1 ISZERO PUSH2 0x10 JUMPI PUSH1 0x0 DUP1 REVERT JUMPDEST POP PUSH1 0x40 MLOAD PUSH2 0x9D4 CODESIZE SUB DUP1 PUSH2 0x9D4 DUP4 CODECOPY DUP2 DUP2 ADD PUSH1 0x40 MSTORE DUP2 ADD SWAP1 PUSH2 0x32 SWAP2 SWAP1 PUSH2 0x138 JUMP JUMPDEST CALLER PUSH20 0xFFFFFFFFFFFFFFFFFFFFFFFFFFFFFFFFFFFFFFFF AND PUSH1 0x80 DUP2 PUSH20 0xFFFFFFFFFFFFFFFFFFFFFFFFFFFFFFFFFFFFFFFF AND DUP2 MSTORE POP POP DUP2 PUSH20 0xFFFFFFFFFFFFFFFFFFFFFFFFFFFFFFFFFFFFFFFF AND PUSH1 0xA0 DUP2 PUSH20 0xFFFFFFFFFFFFFFFFFFFFFFFFFFFFFFFFFFFFFFFF AND DUP2 MSTORE POP POP DUP1 PUSH20 0xFFFFFFFFFFFFFFFFFFFFFFFFFFFFFFFFFFFFFFFF AND PUSH1 0xC0 DUP2 PUSH20 0xFFFFFFFFFFFFFFFFFFFFFFFFFFFFFFFFFFFFFFFF AND DUP2 MSTORE POP POP POP POP PUSH2 0x178 JUMP JUMPDEST PUSH1 0x0 DUP1 REVERT JUMPDEST PUSH1 0x0 PUSH20 0xFFFFFFFFFFFFFFFFFFFFFFFFFFFFFFFFFFFFFFFF DUP3 AND SWAP1 POP SWAP2 SWAP1 POP JUMP JUMPDEST PUSH1 0x0 PUSH2 0x105 DUP3 PUSH2 0xDA JUMP JUMPDEST SWAP1 POP SWAP2 SWAP1 POP JUMP JUMPDEST PUSH2 0x115 DUP2 PUSH2 0xFA JUMP JUMPDEST DUP2 EQ PUSH2 0x120 JUMPI PUSH1 0x0 DUP1 REVERT JUMPDEST POP JUMP JUMPDEST PUSH1 0x0 DUP2 MLOAD SWAP1 POP PUSH2 0x132 DUP2 PUSH2 0x10C JUMP JUMPDEST SWAP3 SWAP2 POP POP JUMP JUMPDEST PUSH1 0x0 DUP1 PUSH1 0x40 DUP4 DUP6 SUB SLT ISZERO PUSH2 0x14F JUMPI PUSH2 0x14E PUSH2 0xD5 JUMP JUMPDEST JUMPDEST PUSH1 0x0 PUSH2 0x15D DUP6 DUP3 DUP7 ADD PUSH2 0x123 JUMP JUMPDEST SWAP3 POP POP PUSH1 0x20 PUSH2 0x16E DUP6 DUP3 DUP7 ADD PUSH2 0x123 JUMP JUMPDEST SWAP2 POP POP SWAP3 POP SWAP3 SWAP1 POP JUMP JUMPDEST PUSH1 0x80 MLOAD PUSH1 0xA0 MLOAD PUSH1 0xC0 MLOAD PUSH2 0x812 PUSH2 0x1C2 PUSH1 0x0 CODECOPY PUSH1 0x0 DUP2 DUP2 PUSH2 0x187 ADD MSTORE PUSH2 0x31A ADD MSTORE PUSH1 0x0 DUP2 DUP2 PUSH2 0x152 ADD MSTORE PUSH2 0x2DA ADD MSTORE PUSH1 0x0 DUP2 DUP2 PUSH1 0xEE ADD MSTORE DUP2 DUP2 PUSH2 0x1C1 ADD MSTORE PUSH2 0x275 ADD MSTORE PUSH2 0x812 PUSH1 0x0 RETURN INVALID PUSH1 0x80 PUSH1 0x40 MSTORE CALLVALUE DUP1 ISZERO PUSH2 0x10 JUMPI PUSH1 0x0 DUP1 REVERT JUMPDEST POP PUSH1 0x4 CALLDATASIZE LT PUSH2 0x57 JUMPI PUSH1 0x0 CALLDATALOAD PUSH1 0xE0 SHR DUP1 PUSH4 0x533CF5CE EQ PUSH2 0x5C JUMPI DUP1 PUSH4 0x5B3C9248 EQ PUSH2 0x78 JUMPI DUP1 PUSH4 0x651D83F9 EQ PUSH2 0x96 JUMPI DUP1 PUSH4 0x8D4DABFF EQ PUSH2 0xB4 JUMPI DUP1 PUSH4 0xF8518B89 EQ PUSH2 0xD0 JUMPI JUMPDEST PUSH1 0x0 DUP1 REVERT JUMPDEST PUSH2 0x76 PUSH1 0x4 DUP1 CALLDATASIZE SUB DUP2 ADD SWAP1 PUSH2 0x71 SWAP2 SWAP1 PUSH2 0x52A JUMP JUMPDEST PUSH2 0xEC JUMP JUMPDEST STOP JUMPDEST PUSH2 0x80 PUSH2 0x1B3 JUMP JUMPDEST PUSH1 0x40 MLOAD PUSH2 0x8D SWAP2 SWAP1 PUSH2 0x58C JUMP JUMPDEST PUSH1 0x40 MLOAD DUP1 SWAP2 SUB SWAP1 RETURN JUMPDEST PUSH2 0x9E PUSH2 0x1B9 JUMP JUMPDEST PUSH1 0x40 MLOAD PUSH2 0xAB SWAP2 SWAP1 PUSH2 0x58C JUMP JUMPDEST PUSH1 0x40 MLOAD DUP1 SWAP2 SUB SWAP1 RETURN JUMPDEST PUSH2 0xCE PUSH1 0x4 DUP1 CALLDATASIZE SUB DUP2 ADD SWAP1 PUSH2 0xC9 SWAP2 SWAP1 PUSH2 0x5DF JUMP JUMPDEST PUSH2 0x1BF JUMP JUMPDEST STOP JUMPDEST PUSH2 0xEA PUSH1 0x4 DUP1 CALLDATASIZE SUB DUP2 ADD SWAP1 PUSH2 0xE5 SWAP2 SWAP1 PUSH2 0x61F JUMP JUMPDEST PUSH2 0x273 JUMP JUMPDEST STOP JUMPDEST PUSH32 0x0 PUSH20 0xFFFFFFFFFFFFFFFFFFFFFFFFFFFFFFFFFFFFFFFF AND CALLER PUSH20 0xFFFFFFFFFFFFFFFFFFFFFFFFFFFFFFFFFFFFFFFF AND EQ PUSH2 0x144 JUMPI PUSH1 0x0 DUP1 REVERT JUMPDEST PUSH1 0x0 DUP3 GT ISZERO PUSH2 0x179 JUMPI PUSH2 0x178 PUSH32 0x0 DUP5 DUP5 PUSH2 0x34E JUMP JUMPDEST JUMPDEST PUSH1 0x0 DUP2 GT ISZERO PUSH2 0x1AE JUMPI PUSH2 0x1AD PUSH32 0x0 DUP5 DUP4 PUSH2 0x34E JUMP JUMPDEST JUMPDEST POP POP POP JUMP JUMPDEST PUSH1 0x1 SLOAD DUP2 JUMP JUMPDEST PUSH1 0x0 SLOAD DUP2 JUMP JUMPDEST PUSH32 0x0 PUSH20 0xFFFFFFFFFFFFFFFFFFFFFFFFFFFFFFFFFFFFFFFF AND CALLER PUSH20 0xFFFFFFFFFFFFFFFFFFFFFFFFFFFFFFFFFFFFFFFF AND EQ PUSH2 0x217 JUMPI PUSH1 0x0 DUP1 REVERT JUMPDEST PUSH1 0x0 DUP3 GT DUP1 ISZERO PUSH2 0x224 JUMPI POP DUP1 JUMPDEST ISZERO PUSH2 0x242 JUMPI DUP2 PUSH1 0x0 DUP1 DUP3 DUP3 SLOAD PUSH2 0x23A SWAP2 SWAP1 PUSH2 0x67B JUMP JUMPDEST SWAP3 POP POP DUP2 SWAP1 SSTORE POP JUMPDEST PUSH1 0x0 DUP3 GT DUP1 ISZERO PUSH2 0x250 JUMPI POP DUP1 ISZERO JUMPDEST ISZERO PUSH2 0x26F JUMPI DUP2 PUSH1 0x1 PUSH1 0x0 DUP3 DUP3 SLOAD PUSH2 0x267 SWAP2 SWAP1 PUSH2 0x67B JUMP JUMPDEST SWAP3 POP POP DUP2 SWAP1 SSTORE POP JUMPDEST POP POP JUMP JUMPDEST PUSH32 0x0 PUSH20 0xFFFFFFFFFFFFFFFFFFFFFFFFFFFFFFFFFFFFFFFF AND CALLER PUSH20 0xFFFFFFFFFFFFFFFFFFFFFFFFFFFFFFFFFFFFFFFF AND EQ PUSH2 0x2CB JUMPI PUSH1 0x0 DUP1 REVERT JUMPDEST PUSH1 0x0 DUP1 SLOAD GT ISZERO PUSH2 0x30A JUMPI PUSH2 0x302 PUSH32 0x0 DUP3 PUSH1 0x0 SLOAD PUSH2 0x34E JUMP JUMPDEST PUSH1 0x0 DUP1 DUP2 SWAP1 SSTORE POP JUMPDEST PUSH1 0x0 PUSH1 0x1 SLOAD GT ISZERO PUSH2 0x34B JUMPI PUSH2 0x342 PUSH32 0x0 DUP3 PUSH1 0x1 SLOAD PUSH2 0x34E JUMP JUMPDEST PUSH1 0x0 PUSH1 0x1 DUP2 SWAP1 SSTORE POP JUMPDEST POP JUMP JUMPDEST PUSH1 0x0 DUP4 PUSH20 0xFFFFFFFFFFFFFFFFFFFFFFFFFFFFFFFFFFFFFFFF AND EXTCODESIZE GT PUSH2 0x372 JUMPI PUSH1 0x0 DUP1 REVERT JUMPDEST PUSH1 0x0 DUP1 DUP5 PUSH20 0xFFFFFFFFFFFFFFFFFFFFFFFFFFFFFFFFFFFFFFFF AND PUSH4 0xA9059CBB PUSH1 0xE0 SHL DUP6 DUP6 PUSH1 0x40 MLOAD PUSH1 0x24 ADD PUSH2 0x3A7 SWAP3 SWAP2 SWAP1 PUSH2 0x6E0 JUMP JUMPDEST PUSH1 0x40 MLOAD PUSH1 0x20 DUP2 DUP4 SUB SUB DUP2 MSTORE SWAP1 PUSH1 0x40 MSTORE SWAP1 PUSH28 0xFFFFFFFFFFFFFFFFFFFFFFFFFFFFFFFFFFFFFFFFFFFFFFFFFFFFFFFF NOT AND PUSH1 0x20 DUP3 ADD DUP1 MLOAD PUSH28 0xFFFFFFFFFFFFFFFFFFFFFFFFFFFFFFFFFFFFFFFFFFFFFFFFFFFFFFFF DUP4 DUP2 DUP4 AND OR DUP4 MSTORE POP POP POP POP PUSH1 0x40 MLOAD PUSH2 0x411 SWAP2 SWAP1 PUSH2 0x783 JUMP JUMPDEST PUSH1 0x0 PUSH1 0x40 MLOAD DUP1 DUP4 SUB DUP2 PUSH1 0x0 DUP7 GAS CALL SWAP2 POP POP RETURNDATASIZE DUP1 PUSH1 0x0 DUP2 EQ PUSH2 0x44E JUMPI PUSH1 0x40 MLOAD SWAP2 POP PUSH1 0x1F NOT PUSH1 0x3F RETURNDATASIZE ADD AND DUP3 ADD PUSH1 0x40 MSTORE RETURNDATASIZE DUP3 MSTORE RETURNDATASIZE PUSH1 0x0 PUSH1 0x20 DUP5 ADD RETURNDATACOPY PUSH2 0x453 JUMP JUMPDEST PUSH1 0x60 SWAP2 POP JUMPDEST POP SWAP2 POP SWAP2 POP DUP2 DUP1 ISZERO PUSH2 0x481 JUMPI POP PUSH1 0x0 DUP2 MLOAD EQ DUP1 PUSH2 0x480 JUMPI POP DUP1 DUP1 PUSH1 0x20 ADD SWAP1 MLOAD DUP2 ADD SWAP1 PUSH2 0x47F SWAP2 SWAP1 PUSH2 0x7AF JUMP JUMPDEST JUMPDEST JUMPDEST PUSH2 0x48A JUMPI PUSH1 0x0 DUP1 REVERT JUMPDEST POP POP POP POP POP JUMP JUMPDEST PUSH1 0x0 DUP1 REVERT JUMPDEST PUSH1 0x0 PUSH20 0xFFFFFFFFFFFFFFFFFFFFFFFFFFFFFFFFFFFFFFFF DUP3 AND SWAP1 POP SWAP2 SWAP1 POP JUMP JUMPDEST PUSH1 0x0 PUSH2 0x4C1 DUP3 PUSH2 0x496 JUMP JUMPDEST SWAP1 POP SWAP2 SWAP1 POP JUMP JUMPDEST PUSH2 0x4D1 DUP2 PUSH2 0x4B6 JUMP JUMPDEST DUP2 EQ PUSH2 0x4DC JUMPI PUSH1 0x0 DUP1 REVERT JUMPDEST POP JUMP JUMPDEST PUSH1 0x0 DUP2 CALLDATALOAD SWAP1 POP PUSH2 0x4EE DUP2 PUSH2 0x4C8 JUMP JUMPDEST SWAP3 SWAP2 POP POP JUMP JUMPDEST PUSH1 0x0 DUP2 SWAP1 POP SWAP2 SWAP1 POP JUMP JUMPDEST PUSH2 0x507 DUP2 PUSH2 0x4F4 JUMP JUMPDEST DUP2 EQ PUSH2 0x512 JUMPI PUSH1 0x0 DUP1 REVERT JUMPDEST POP JUMP JUMPDEST PUSH1 0x0 DUP2 CALLDATALOAD SWAP1 POP PUSH2 0x524 DUP2 PUSH2 0x4FE JUMP JUMPDEST SWAP3 SWAP2 POP POP JUMP JUMPDEST PUSH1 0x0 DUP1 PUSH1 0x0 PUSH1 0x60 DUP5 DUP7 SUB SLT ISZERO PUSH2 0x543 JUMPI PUSH2 0x542 PUSH2 0x491 JUMP JUMPDEST JUMPDEST PUSH1 0x0 PUSH2 0x551 DUP7 DUP3 DUP8 ADD PUSH2 0x4DF JUMP JUMPDEST SWAP4 POP POP PUSH1 0x20 PUSH2 0x562 DUP7 DUP3 DUP8 ADD PUSH2 0x515 JUMP JUMPDEST SWAP3 POP POP PUSH1 0x40 PUSH2 0x573 DUP7 DUP3 DUP8 ADD PUSH2 0x515 JUMP JUMPDEST SWAP2 POP POP SWAP3 POP SWAP3 POP SWAP3 JUMP JUMPDEST PUSH2 0x586 DUP2 PUSH2 0x4F4 JUMP JUMPDEST DUP3 MSTORE POP POP JUMP JUMPDEST PUSH1 0x0 PUSH1 0x20 DUP3 ADD SWAP1 POP PUSH2 0x5A1 PUSH1 0x0 DUP4 ADD DUP5 PUSH2 0x57D JUMP JUMPDEST SWAP3 SWAP2 POP POP JUMP JUMPDEST PUSH1 0x0 DUP2 ISZERO ISZERO SWAP1 POP SWAP2 SWAP1 POP JUMP JUMPDEST PUSH2 0x5BC DUP2 PUSH2 0x5A7 JUMP JUMPDEST DUP2 EQ PUSH2 0x5C7 JUMPI PUSH1 0x0 DUP1 REVERT JUMPDEST POP JUMP JUMPDEST PUSH1 0x0 DUP2 CALLDATALOAD SWAP1 POP PUSH2 0x5D9 DUP2 PUSH2 0x5B3 JUMP JUMPDEST SWAP3 SWAP2 POP POP JUMP JUMPDEST PUSH1 0x0 DUP1 PUSH1 0x40 DUP4 DUP6 SUB SLT ISZERO PUSH2 0x5F6 JUMPI PUSH2 0x5F5 PUSH2 0x491 JUMP JUMPDEST JUMPDEST PUSH1 0x0 PUSH2 0x604 DUP6 DUP3 DUP7 ADD PUSH2 0x515 JUMP JUMPDEST SWAP3 POP POP PUSH1 0x20 PUSH2 0x615 DUP6 DUP3 DUP7 ADD PUSH2 0x5CA JUMP JUMPDEST SWAP2 POP POP SWAP3 POP SWAP3 SWAP1 POP JUMP JUMPDEST PUSH1 0x0 PUSH1 0x20 DUP3 DUP5 SUB SLT ISZERO PUSH2 0x635 JUMPI PUSH2 0x634 PUSH2 0x491 JUMP JUMPDEST JUMPDEST PUSH1 0x0 PUSH2 0x643 DUP5 DUP3 DUP6 ADD PUSH2 0x4DF JUMP JUMPDEST SWAP2 POP POP SWAP3 SWAP2 POP POP JUMP JUMPDEST PUSH32 0x4E487B7100000000000000000000000000000000000000000000000000000000 PUSH1 0x0 MSTORE PUSH1 0x11 PUSH1 0x4 MSTORE PUSH1 0x24 PUSH1 0x0 REVERT JUMPDEST PUSH1 0x0 PUSH2 0x686 DUP3 PUSH2 0x4F4 JUMP JUMPDEST SWAP2 POP PUSH2 0x691 DUP4 PUSH2 0x4F4 JUMP JUMPDEST SWAP3 POP DUP3 PUSH32 0xFFFFFFFFFFFFFFFFFFFFFFFFFFFFFFFFFFFFFFFFFFFFFFFFFFFFFFFFFFFFFFFF SUB DUP3 GT ISZERO PUSH2 0x6C6 JUMPI PUSH2 0x6C5 PUSH2 0x64C JUMP JUMPDEST JUMPDEST DUP3 DUP3 ADD SWAP1 POP SWAP3 SWAP2 POP POP JUMP JUMPDEST PUSH2 0x6DA DUP2 PUSH2 0x4B6 JUMP JUMPDEST DUP3 MSTORE POP POP JUMP JUMPDEST PUSH1 0x0 PUSH1 0x40 DUP3 ADD SWAP1 POP PUSH2 0x6F5 PUSH1 0x0 DUP4 ADD DUP6 PUSH2 0x6D1 JUMP JUMPDEST PUSH2 0x702 PUSH1 0x20 DUP4 ADD DUP5 PUSH2 0x57D JUMP JUMPDEST SWAP4 SWAP3 POP POP POP JUMP JUMPDEST PUSH1 0x0 DUP2 MLOAD SWAP1 POP SWAP2 SWAP1 POP JUMP JUMPDEST PUSH1 0x0 DUP2 SWAP1 POP SWAP3 SWAP2 POP POP JUMP JUMPDEST PUSH1 0x0 JUMPDEST DUP4 DUP2 LT ISZERO PUSH2 0x73D JUMPI DUP1 DUP3 ADD MLOAD DUP2 DUP5 ADD MSTORE PUSH1 0x20 DUP2 ADD SWAP1 POP PUSH2 0x722 JUMP JUMPDEST DUP4 DUP2 GT ISZERO PUSH2 0x74C JUMPI PUSH1 0x0 DUP5 DUP5 ADD MSTORE JUMPDEST POP POP POP POP JUMP JUMPDEST PUSH1 0x0 PUSH2 0x75D DUP3 PUSH2 0x709 JUMP JUMPDEST PUSH2 0x767 DUP2 DUP6 PUSH2 0x714 JUMP JUMPDEST SWAP4 POP PUSH2 0x777 DUP2 DUP6 PUSH1 0x20 DUP7 ADD PUSH2 0x71F JUMP JUMPDEST DUP1 DUP5 ADD SWAP2 POP POP SWAP3 SWAP2 POP POP JUMP JUMPDEST PUSH1 0x0 PUSH2 0x78F DUP3 DUP5 PUSH2 0x752 JUMP JUMPDEST SWAP2 POP DUP2 SWAP1 POP SWAP3 SWAP2 POP POP JUMP JUMPDEST PUSH1 0x0 DUP2 MLOAD SWAP1 POP PUSH2 0x7A9 DUP2 PUSH2 0x5B3 JUMP JUMPDEST SWAP3 SWAP2 POP POP JUMP JUMPDEST PUSH1 0x0 PUSH1 0x20 DUP3 DUP5 SUB SLT ISZERO PUSH2 0x7C5 JUMPI PUSH2 0x7C4 PUSH2 0x491 JUMP JUMPDEST JUMPDEST PUSH1 0x0 PUSH2 0x7D3 DUP5 DUP3 DUP6 ADD PUSH2 0x79A JUMP JUMPDEST SWAP2 POP POP SWAP3 SWAP2 POP POP JUMP INVALID LOG2 PUSH5 0x6970667358 0x22 SLT KECCAK256 SELFBALANCE CODESIZE 0xD0 CALL 0xC7 DUP1 EXTCODEHASH SLOAD BALANCE PUSH28 0x2C8403D7B2C7BCD62C3D6F9268BCA4F405F578409A0C64736F6C6343 STOP ADDMOD 0xD STOP CALLER LOG2 PUSH5 0x6970667358 0x22 SLT KECCAK256 PUSH20 0xA94A6D16075AB9E145E651329877F8AED786A093 GASLIMIT 0xB7 LOG1 0xB0 0xD7 SUB PUSH3 0x41525A COINBASE PUSH5 0x736F6C6343 STOP ADDMOD 0xD STOP CALLER "
		},
		"gasEstimates": {
			"creation": {
				"codeDepositCost": "7985000",
				"executionCost": "10581",
				"totalCost": "7995581"
			},
			"external": {
				"MAX_FEE()": "418",
				"MAX_REFERRAL_FEE()": "2520",
				"acceptFeeManager()": "28805",
				"allPairs(uint256)": "5025",
				"allPairsLength()": "2535",
				"createPair(address,address,bool)": "infinite",
				"dibs()": "2603",
				"feeManager()": "2581",
				"getFee(bool)": "2804",
				"getInitializable()": "infinite",
				"getPair(address,address,bool)": "infinite",
				"initialize()": "253227",
				"isPair(address)": "2956",
				"isPaused()": "2538",
				"owner()": "2612",
				"pairCodeHash()": "13990",
				"pairs()": "infinite",
				"pendingFeeManager()": "2582",
				"renounceOwnership()": "30465",
				"setDibs(address)": "26974",
				"setFee(bool,uint256)": "25038",
				"setFeeManager(address)": "26982",
				"setPause(bool)": "26995",
				"setReferralFee(uint256)": "24735",
				"setStakingFeeAddress(address)": "26973",
				"setStakingFees(uint256)": "24828",
				"stableFee()": "2497",
				"stakingFeeHandler()": "2559",
				"stakingNFTFee()": "2541",
				"transferOwnership(address)": "30810",
				"volatileFee()": "2475"
			}
		},
		"methodIdentifiers": {
			"MAX_FEE()": "bc063e1a",
			"MAX_REFERRAL_FEE()": "1e61079c",
			"acceptFeeManager()": "f94c53c7",
			"allPairs(uint256)": "1e3dd18b",
			"allPairsLength()": "574f2ba3",
			"createPair(address,address,bool)": "82dfdce4",
			"dibs()": "7be1623e",
			"feeManager()": "d0fb0203",
			"getFee(bool)": "512b45ea",
			"getInitializable()": "eb13c4cf",
			"getPair(address,address,bool)": "6801cc30",
			"initialize()": "8129fc1c",
			"isPair(address)": "e5e31b13",
			"isPaused()": "b187bd26",
			"owner()": "8da5cb5b",
			"pairCodeHash()": "9aab9248",
			"pairs()": "ffb0a4a0",
			"pendingFeeManager()": "8a4fa0d2",
			"renounceOwnership()": "715018a6",
			"setDibs(address)": "0c74db12",
			"setFee(bool,uint256)": "e1f76b44",
			"setFeeManager(address)": "472d35b9",
			"setPause(bool)": "bedb86fb",
			"setReferralFee(uint256)": "713494d7",
			"setStakingFeeAddress(address)": "4091cb77",
			"setStakingFees(uint256)": "482a8d07",
			"stableFee()": "40bbd775",
			"stakingFeeHandler()": "c124a4a2",
			"stakingNFTFee()": "956f94a1",
			"transferOwnership(address)": "f2fde38b",
			"volatileFee()": "5084ed03"
		}
	},
	"abi": [
		{
			"inputs": [],
			"stateMutability": "nonpayable",
			"type": "constructor"
		},
		{
			"anonymous": false,
			"inputs": [
				{
					"indexed": false,
					"internalType": "uint8",
					"name": "version",
					"type": "uint8"
				}
			],
			"name": "Initialized",
			"type": "event"
		},
		{
			"anonymous": false,
			"inputs": [
				{
					"indexed": true,
					"internalType": "address",
					"name": "previousOwner",
					"type": "address"
				},
				{
					"indexed": true,
					"internalType": "address",
					"name": "newOwner",
					"type": "address"
				}
			],
			"name": "OwnershipTransferred",
			"type": "event"
		},
		{
			"anonymous": false,
			"inputs": [
				{
					"indexed": true,
					"internalType": "address",
					"name": "token0",
					"type": "address"
				},
				{
					"indexed": true,
					"internalType": "address",
					"name": "token1",
					"type": "address"
				},
				{
					"indexed": false,
					"internalType": "bool",
					"name": "stable",
					"type": "bool"
				},
				{
					"indexed": false,
					"internalType": "address",
					"name": "pair",
					"type": "address"
				},
				{
					"indexed": false,
					"internalType": "uint256",
					"name": "",
					"type": "uint256"
				}
			],
			"name": "PairCreated",
			"type": "event"
		},
		{
			"inputs": [],
			"name": "MAX_FEE",
			"outputs": [
				{
					"internalType": "uint256",
					"name": "",
					"type": "uint256"
				}
			],
			"stateMutability": "view",
			"type": "function"
		},
		{
			"inputs": [],
			"name": "MAX_REFERRAL_FEE",
			"outputs": [
				{
					"internalType": "uint256",
					"name": "",
					"type": "uint256"
				}
			],
			"stateMutability": "view",
			"type": "function"
		},
		{
			"inputs": [],
			"name": "acceptFeeManager",
			"outputs": [],
			"stateMutability": "nonpayable",
			"type": "function"
		},
		{
			"inputs": [
				{
					"internalType": "uint256",
					"name": "",
					"type": "uint256"
				}
			],
			"name": "allPairs",
			"outputs": [
				{
					"internalType": "address",
					"name": "",
					"type": "address"
				}
			],
			"stateMutability": "view",
			"type": "function"
		},
		{
			"inputs": [],
			"name": "allPairsLength",
			"outputs": [
				{
					"internalType": "uint256",
					"name": "",
					"type": "uint256"
				}
			],
			"stateMutability": "view",
			"type": "function"
		},
		{
			"inputs": [
				{
					"internalType": "address",
					"name": "tokenA",
					"type": "address"
				},
				{
					"internalType": "address",
					"name": "tokenB",
					"type": "address"
				},
				{
					"internalType": "bool",
					"name": "stable",
					"type": "bool"
				}
			],
			"name": "createPair",
			"outputs": [
				{
					"internalType": "address",
					"name": "pair",
					"type": "address"
				}
			],
			"stateMutability": "nonpayable",
			"type": "function"
		},
		{
			"inputs": [],
			"name": "dibs",
			"outputs": [
				{
					"internalType": "address",
					"name": "",
					"type": "address"
				}
			],
			"stateMutability": "view",
			"type": "function"
		},
		{
			"inputs": [],
			"name": "feeManager",
			"outputs": [
				{
					"internalType": "address",
					"name": "",
					"type": "address"
				}
			],
			"stateMutability": "view",
			"type": "function"
		},
		{
			"inputs": [
				{
					"internalType": "bool",
					"name": "_stable",
					"type": "bool"
				}
			],
			"name": "getFee",
			"outputs": [
				{
					"internalType": "uint256",
					"name": "",
					"type": "uint256"
				}
			],
			"stateMutability": "view",
			"type": "function"
		},
		{
			"inputs": [],
			"name": "getInitializable",
			"outputs": [
				{
					"internalType": "address",
					"name": "",
					"type": "address"
				},
				{
					"internalType": "address",
					"name": "",
					"type": "address"
				},
				{
					"internalType": "bool",
					"name": "",
					"type": "bool"
				}
			],
			"stateMutability": "view",
			"type": "function"
		},
		{
			"inputs": [
				{
					"internalType": "address",
					"name": "",
					"type": "address"
				},
				{
					"internalType": "address",
					"name": "",
					"type": "address"
				},
				{
					"internalType": "bool",
					"name": "",
					"type": "bool"
				}
			],
			"name": "getPair",
			"outputs": [
				{
					"internalType": "address",
					"name": "",
					"type": "address"
				}
			],
			"stateMutability": "view",
			"type": "function"
		},
		{
			"inputs": [],
			"name": "initialize",
			"outputs": [],
			"stateMutability": "nonpayable",
			"type": "function"
		},
		{
			"inputs": [
				{
					"internalType": "address",
					"name": "",
					"type": "address"
				}
			],
			"name": "isPair",
			"outputs": [
				{
					"internalType": "bool",
					"name": "",
					"type": "bool"
				}
			],
			"stateMutability": "view",
			"type": "function"
		},
		{
			"inputs": [],
			"name": "isPaused",
			"outputs": [
				{
					"internalType": "bool",
					"name": "",
					"type": "bool"
				}
			],
			"stateMutability": "view",
			"type": "function"
		},
		{
			"inputs": [],
			"name": "owner",
			"outputs": [
				{
					"internalType": "address",
					"name": "",
					"type": "address"
				}
			],
			"stateMutability": "view",
			"type": "function"
		},
		{
			"inputs": [],
			"name": "pairCodeHash",
			"outputs": [
				{
					"internalType": "bytes32",
					"name": "",
					"type": "bytes32"
				}
			],
			"stateMutability": "pure",
			"type": "function"
		},
		{
			"inputs": [],
			"name": "pairs",
			"outputs": [
				{
					"internalType": "address[]",
					"name": "",
					"type": "address[]"
				}
			],
			"stateMutability": "view",
			"type": "function"
		},
		{
			"inputs": [],
			"name": "pendingFeeManager",
			"outputs": [
				{
					"internalType": "address",
					"name": "",
					"type": "address"
				}
			],
			"stateMutability": "view",
			"type": "function"
		},
		{
			"inputs": [],
			"name": "renounceOwnership",
			"outputs": [],
			"stateMutability": "nonpayable",
			"type": "function"
		},
		{
			"inputs": [
				{
					"internalType": "address",
					"name": "_dibs",
					"type": "address"
				}
			],
			"name": "setDibs",
			"outputs": [],
			"stateMutability": "nonpayable",
			"type": "function"
		},
		{
			"inputs": [
				{
					"internalType": "bool",
					"name": "_stable",
					"type": "bool"
				},
				{
					"internalType": "uint256",
					"name": "_fee",
					"type": "uint256"
				}
			],
			"name": "setFee",
			"outputs": [],
			"stateMutability": "nonpayable",
			"type": "function"
		},
		{
			"inputs": [
				{
					"internalType": "address",
					"name": "_feeManager",
					"type": "address"
				}
			],
			"name": "setFeeManager",
			"outputs": [],
			"stateMutability": "nonpayable",
			"type": "function"
		},
		{
			"inputs": [
				{
					"internalType": "bool",
					"name": "_state",
					"type": "bool"
				}
			],
			"name": "setPause",
			"outputs": [],
			"stateMutability": "nonpayable",
			"type": "function"
		},
		{
			"inputs": [
				{
					"internalType": "uint256",
					"name": "_refFee",
					"type": "uint256"
				}
			],
			"name": "setReferralFee",
			"outputs": [],
			"stateMutability": "nonpayable",
			"type": "function"
		},
		{
			"inputs": [
				{
					"internalType": "address",
					"name": "_feehandler",
					"type": "address"
				}
			],
			"name": "setStakingFeeAddress",
			"outputs": [],
			"stateMutability": "nonpayable",
			"type": "function"
		},
		{
			"inputs": [
				{
					"internalType": "uint256",
					"name": "_newFee",
					"type": "uint256"
				}
			],
			"name": "setStakingFees",
			"outputs": [],
			"stateMutability": "nonpayable",
			"type": "function"
		},
		{
			"inputs": [],
			"name": "stableFee",
			"outputs": [
				{
					"internalType": "uint256",
					"name": "",
					"type": "uint256"
				}
			],
			"stateMutability": "view",
			"type": "function"
		},
		{
			"inputs": [],
			"name": "stakingFeeHandler",
			"outputs": [
				{
					"internalType": "address",
					"name": "",
					"type": "address"
				}
			],
			"stateMutability": "view",
			"type": "function"
		},
		{
			"inputs": [],
			"name": "stakingNFTFee",
			"outputs": [
				{
					"internalType": "uint256",
					"name": "",
					"type": "uint256"
				}
			],
			"stateMutability": "view",
			"type": "function"
		},
		{
			"inputs": [
				{
					"internalType": "address",
					"name": "newOwner",
					"type": "address"
				}
			],
			"name": "transferOwnership",
			"outputs": [],
			"stateMutability": "nonpayable",
			"type": "function"
		},
		{
			"inputs": [],
			"name": "volatileFee",
			"outputs": [
				{
					"internalType": "uint256",
					"name": "",
					"type": "uint256"
				}
			],
			"stateMutability": "view",
			"type": "function"
		}
	]
}