{
  "_format": "hh-sol-artifact-1",
  "contractName": "EpochController",
  "sourceName": "contracts/chainlink/EpochController.sol",
  "abi": [
    {
      "anonymous": false,
      "inputs": [
        {
          "indexed": false,
          "internalType": "uint8",
          "name": "version",
          "type": "uint8"
        }
      ],
      "name": "Initialized",
      "type": "event"
    },
    {
      "anonymous": false,
      "inputs": [
        {
          "indexed": true,
          "internalType": "address",
          "name": "previousOwner",
          "type": "address"
        },
        {
          "indexed": true,
          "internalType": "address",
          "name": "newOwner",
          "type": "address"
        }
      ],
      "name": "OwnershipTransferred",
      "type": "event"
    },
    {
      "inputs": [],
      "name": "automationRegistry",
      "outputs": [
        {
          "internalType": "address",
          "name": "",
          "type": "address"
        }
      ],
      "stateMutability": "view",
      "type": "function"
    },
    {
      "inputs": [
        {
          "internalType": "bytes",
          "name": "",
          "type": "bytes"
        }
      ],
      "name": "checkUpkeep",
      "outputs": [
        {
          "internalType": "bool",
          "name": "upkeepNeeded",
          "type": "bool"
        },
        {
          "internalType": "bytes",
          "name": "",
          "type": "bytes"
        }
      ],
      "stateMutability": "view",
      "type": "function"
    },
    {
      "inputs": [],
      "name": "initialize",
      "outputs": [],
      "stateMutability": "nonpayable",
      "type": "function"
    },
    {
      "inputs": [],
      "name": "minter",
      "outputs": [
        {
          "internalType": "address",
          "name": "",
          "type": "address"
        }
      ],
      "stateMutability": "view",
      "type": "function"
    },
    {
      "inputs": [],
      "name": "owner",
      "outputs": [
        {
          "internalType": "address",
          "name": "",
          "type": "address"
        }
      ],
      "stateMutability": "view",
      "type": "function"
    },
    {
      "inputs": [
        {
          "internalType": "bytes",
          "name": "",
          "type": "bytes"
        }
      ],
      "name": "performUpkeep",
      "outputs": [],
      "stateMutability": "nonpayable",
      "type": "function"
    },
    {
      "inputs": [],
      "name": "renounceOwnership",
      "outputs": [],
      "stateMutability": "nonpayable",
      "type": "function"
    },
    {
      "inputs": [
        {
          "internalType": "address",
          "name": "_automationRegistry",
          "type": "address"
        }
      ],
      "name": "setAutomationRegistry",
      "outputs": [],
      "stateMutability": "nonpayable",
      "type": "function"
    },
    {
      "inputs": [
        {
          "internalType": "address",
          "name": "_minter",
          "type": "address"
        }
      ],
      "name": "setMinter",
      "outputs": [],
      "stateMutability": "nonpayable",
      "type": "function"
    },
    {
      "inputs": [
        {
          "internalType": "address",
          "name": "_voter",
          "type": "address"
        }
      ],
      "name": "setVoter",
      "outputs": [],
      "stateMutability": "nonpayable",
      "type": "function"
    },
    {
      "inputs": [
        {
          "internalType": "address",
          "name": "newOwner",
          "type": "address"
        }
      ],
      "name": "transferOwnership",
      "outputs": [],
      "stateMutability": "nonpayable",
      "type": "function"
    },
    {
      "inputs": [],
      "name": "voter",
      "outputs": [
        {
          "internalType": "address",
          "name": "",
          "type": "address"
        }
      ],
      "stateMutability": "view",
      "type": "function"
    }
  ],
  "bytecode": "0x608060405234801561001057600080fd5b50610997806100206000396000f3fe608060405234801561001057600080fd5b50600436106100b45760003560e01c80636e04ff0d116100715780636e04ff0d1461014a578063715018a61461016b5780638129fc1c146101735780638da5cb5b1461017b578063f2fde38b1461018c578063fca3b5aa1461019f57600080fd5b806307546172146100b95780634585e33b146100e957806346c96aac146100fe5780634bc2a657146101115780635dc228a0146101245780635ff2d2aa14610137575b600080fd5b6066546100cc906001600160a01b031681565b6040516001600160a01b0390911681526020015b60405180910390f35b6100fc6100f736600461072c565b6101b2565b005b6067546100cc906001600160a01b031681565b6100fc61011f36600461079e565b6102ec565b6065546100cc906001600160a01b031681565b6100fc61014536600461079e565b610329565b61015d6101583660046107e4565b610366565b6040516100e0929190610895565b6100fc6103e8565b6100fc6103fc565b6033546001600160a01b03166100cc565b6100fc61019a36600461079e565b610573565b6100fc6101ad36600461079e565b6105e9565b6065546001600160a01b03163314806101d557506033546001600160a01b031633145b6102175760405162461bcd60e51b815260206004820152600e60248201526d63616e6e6f74206578656375746560901b60448201526064015b60405180910390fd5b600061023b604051806040016040528060018152602001600360fc1b815250610366565b5090508061027f5760405162461bcd60e51b815260206004820152601160248201527018dbdb991a5d1a5bdb881b9bdd081b595d607a1b604482015260640161020e565b606760009054906101000a90046001600160a01b03166001600160a01b031663436596c46040518163ffffffff1660e01b8152600401600060405180830381600087803b1580156102cf57600080fd5b505af11580156102e3573d6000803e3d6000fd5b50505050505050565b6102f4610626565b6001600160a01b03811661030757600080fd5b606780546001600160a01b0319166001600160a01b0392909216919091179055565b610331610626565b6001600160a01b03811661034457600080fd5b606580546001600160a01b0319166001600160a01b0392909216919091179055565b60006060606660009054906101000a90046001600160a01b03166001600160a01b031663919840ad6040518163ffffffff1660e01b8152600401602060405180830381865afa1580156103bd573d6000803e3d6000fd5b505050506040513d601f19601f820116820180604052508101906103e191906108f4565b9150915091565b6103f0610626565b6103fa6000610680565b565b600054610100900460ff161580801561041c5750600054600160ff909116105b806104365750303b158015610436575060005460ff166001145b6104995760405162461bcd60e51b815260206004820152602e60248201527f496e697469616c697a61626c653a20636f6e747261637420697320616c72656160448201526d191e481a5b9a5d1a585b1a5e995960921b606482015260840161020e565b6000805460ff1916600117905580156104bc576000805461ff0019166101001790555b6104c46106d2565b606680546001600160a01b03199081167386069feb223ee303085a1a505892c9d4bdbee996179091556067805482167362ee96e6365ab515ec647c065c2707d1122d7b26179055606580549091167302777053d6764996e594c3e88af1d58d5363a2e61790558015610570576000805461ff0019169055604051600181527f7f26b83ff96e1f2b6a682f133852f6798a09c465da95921460cefb38474024989060200160405180910390a15b50565b61057b610626565b6001600160a01b0381166105e05760405162461bcd60e51b815260206004820152602660248201527f4f776e61626c653a206e6577206f776e657220697320746865207a65726f206160448201526564647265737360d01b606482015260840161020e565b61057081610680565b6105f1610626565b6001600160a01b03811661060457600080fd5b606680546001600160a01b0319166001600160a01b0392909216919091179055565b6033546001600160a01b031633146103fa5760405162461bcd60e51b815260206004820181905260248201527f4f776e61626c653a2063616c6c6572206973206e6f7420746865206f776e6572604482015260640161020e565b603380546001600160a01b038381166001600160a01b0319831681179093556040519116919082907f8be0079c531659141344cd1fd0a4f28419497f9722a3daafe3b4186f6b6457e090600090a35050565b600054610100900460ff166106f95760405162461bcd60e51b815260040161020e90610916565b6103fa600054610100900460ff166107235760405162461bcd60e51b815260040161020e90610916565b6103fa33610680565b6000806020838503121561073f57600080fd5b823567ffffffffffffffff8082111561075757600080fd5b818501915085601f83011261076b57600080fd5b81358181111561077a57600080fd5b86602082850101111561078c57600080fd5b60209290920196919550909350505050565b6000602082840312156107b057600080fd5b81356001600160a01b03811681146107c757600080fd5b9392505050565b634e487b7160e01b600052604160045260246000fd5b6000602082840312156107f657600080fd5b813567ffffffffffffffff8082111561080e57600080fd5b818401915084601f83011261082257600080fd5b813581811115610834576108346107ce565b604051601f8201601f19908116603f0116810190838211818310171561085c5761085c6107ce565b8160405282815287602084870101111561087557600080fd5b826020860160208301376000928101602001929092525095945050505050565b821515815260006020604081840152835180604085015260005b818110156108cb578581018301518582016060015282016108af565b818111156108dd576000606083870101525b50601f01601f191692909201606001949350505050565b60006020828403121561090657600080fd5b815180151581146107c757600080fd5b6020808252602b908201527f496e697469616c697a61626c653a20636f6e7472616374206973206e6f74206960408201526a6e697469616c697a696e6760a81b60608201526080019056fea2646970667358221220ca038cc25d89930f3fc528a206732df7286178ecdf10042b95fcf3f6c4e7381c64736f6c634300080d0033",
  "linkReferences": {},
  "deployedLinkReferences": {}
}