{
  "_format": "hh-sol-artifact-1",
  "contractName": "MerkleTree",
  "sourceName": "contracts/MerkleTree/MerkleTree.sol",
  "abi": [
    {
      "inputs": [
        {
          "internalType": "address",
          "name": "_airdropClaim",
          "type": "address"
        }
      ],
      "stateMutability": "nonpayable",
      "type": "constructor"
    },
    {
      "inputs": [
        {
          "internalType": "address",
          "name": "_who",
          "type": "address"
        }
      ],
      "name": "AlreadyClaimed",
      "type": "error"
    },
    {
      "inputs": [
        {
          "internalType": "address",
          "name": "_who",
          "type": "address"
        },
        {
          "internalType": "uint256",
          "name": "_amnt",
          "type": "uint256"
        }
      ],
      "name": "NotInMerkle",
      "type": "error"
    },
    {
      "anonymous": false,
      "inputs": [
        {
          "indexed": true,
          "internalType": "address",
          "name": "who",
          "type": "address"
        },
        {
          "indexed": true,
          "internalType": "address",
          "name": "to",
          "type": "address"
        },
        {
          "indexed": false,
          "internalType": "uint256",
          "name": "amount",
          "type": "uint256"
        }
      ],
      "name": "ClaimSet",
      "type": "event"
    },
    {
      "inputs": [],
      "name": "_init",
      "outputs": [],
      "stateMutability": "nonpayable",
      "type": "function"
    },
    {
      "inputs": [],
      "name": "airdropClaim",
      "outputs": [
        {
          "internalType": "address",
          "name": "",
          "type": "address"
        }
      ],
      "stateMutability": "view",
      "type": "function"
    },
    {
      "inputs": [
        {
          "internalType": "address",
          "name": "to",
          "type": "address"
        },
        {
          "internalType": "uint256",
          "name": "amount",
          "type": "uint256"
        },
        {
          "internalType": "bytes32[]",
          "name": "proof",
          "type": "bytes32[]"
        }
      ],
      "name": "claim",
      "outputs": [],
      "stateMutability": "nonpayable",
      "type": "function"
    },
    {
      "inputs": [
        {
          "internalType": "address",
          "name": "",
          "type": "address"
        }
      ],
      "name": "hasClaimed",
      "outputs": [
        {
          "internalType": "bool",
          "name": "",
          "type": "bool"
        }
      ],
      "stateMutability": "view",
      "type": "function"
    },
    {
      "inputs": [],
      "name": "info",
      "outputs": [
        {
          "internalType": "string",
          "name": "",
          "type": "string"
        }
      ],
      "stateMutability": "view",
      "type": "function"
    },
    {
      "inputs": [],
      "name": "init",
      "outputs": [
        {
          "internalType": "bool",
          "name": "",
          "type": "bool"
        }
      ],
      "stateMutability": "view",
      "type": "function"
    },
    {
      "inputs": [
        {
          "internalType": "address",
          "name": "",
          "type": "address"
        }
      ],
      "name": "isFnftOwner",
      "outputs": [
        {
          "internalType": "bool",
          "name": "",
          "type": "bool"
        }
      ],
      "stateMutability": "view",
      "type": "function"
    },
    {
      "inputs": [],
      "name": "merkleRoot",
      "outputs": [
        {
          "internalType": "bytes32",
          "name": "",
          "type": "bytes32"
        }
      ],
      "stateMutability": "view",
      "type": "function"
    },
    {
      "inputs": [],
      "name": "oldMerkle_1",
      "outputs": [
        {
          "internalType": "address",
          "name": "",
          "type": "address"
        }
      ],
      "stateMutability": "view",
      "type": "function"
    },
    {
      "inputs": [],
      "name": "oldMerkle_2",
      "outputs": [
        {
          "internalType": "address",
          "name": "",
          "type": "address"
        }
      ],
      "stateMutability": "view",
      "type": "function"
    },
    {
      "inputs": [],
      "name": "owner",
      "outputs": [
        {
          "internalType": "address",
          "name": "",
          "type": "address"
        }
      ],
      "stateMutability": "view",
      "type": "function"
    },
    {
      "inputs": [
        {
          "internalType": "address",
          "name": "",
          "type": "address"
        }
      ],
      "name": "ownersToFnft",
      "outputs": [
        {
          "internalType": "address",
          "name": "",
          "type": "address"
        }
      ],
      "stateMutability": "view",
      "type": "function"
    },
    {
      "inputs": [
        {
          "internalType": "address[]",
          "name": "owners",
          "type": "address[]"
        },
        {
          "internalType": "address[]",
          "name": "smartWallet",
          "type": "address[]"
        }
      ],
      "name": "setFNFTOwners",
      "outputs": [],
      "stateMutability": "nonpayable",
      "type": "function"
    },
    {
      "inputs": [
        {
          "internalType": "bytes32",
          "name": "_merkleRoot",
          "type": "bytes32"
        }
      ],
      "name": "setMerkleRoot",
      "outputs": [],
      "stateMutability": "nonpayable",
      "type": "function"
    },
    {
      "inputs": [
        {
          "internalType": "address",
          "name": "_owner",
          "type": "address"
        }
      ],
      "name": "setOwner",
      "outputs": [],
      "stateMutability": "nonpayable",
      "type": "function"
    },
    {
      "inputs": [
        {
          "internalType": "address[]",
          "name": "users",
          "type": "address[]"
        }
      ],
      "name": "setUserClaimed",
      "outputs": [],
      "stateMutability": "nonpayable",
      "type": "function"
    },
    {
      "inputs": [
        {
          "internalType": "address",
          "name": "",
          "type": "address"
        }
      ],
      "name": "swFnftToOwner",
      "outputs": [
        {
          "internalType": "address",
          "name": "",
          "type": "address"
        }
      ],
      "stateMutability": "view",
      "type": "function"
    }
  ],
  "bytecode": "0x60c0604052601c60808190527f4d65726b6c65547265652065636f73797374656d2041697264726f700000000060a090815262000040916009919062000100565b503480156200004e57600080fd5b5060405162001029380380620010298339810160408190526200007191620001a6565b600180546001600160a01b039092166001600160a01b0319928316179055600280548216331790557f24b08395d461e7570850b6fc496b5c283511769a7a0acd769201fe7f9d22b99860005560038054821673fd502fa14acf1828684090cc08d3c59b6bf74b1117905560048054909116734259b99c7c6121d0cce4c9b7c5d8bce731143cd717905562000214565b8280546200010e90620001d8565b90600052602060002090601f0160209004810192826200013257600085556200017d565b82601f106200014d57805160ff19168380011785556200017d565b828001600101855582156200017d579182015b828111156200017d57825182559160200191906001019062000160565b506200018b9291506200018f565b5090565b5b808211156200018b576000815560010162000190565b600060208284031215620001b957600080fd5b81516001600160a01b0381168114620001d157600080fd5b9392505050565b600181811c90821680620001ed57607f821691505b6020821081036200020e57634e487b7160e01b600052602260045260246000fd5b50919050565b610e0580620002246000396000f3fe608060405234801561001057600080fd5b506004361061010b5760003560e01c806373b2e80e116100a2578063b6d6ed4e11610071578063b6d6ed4e14610244578063d273490514610257578063e1c7392a14610280578063e616dd9214610294578063e8071ef7146102a757600080fd5b806373b2e80e146101e35780637cb64759146102165780638da5cb5b14610229578063b349b9731461023c57600080fd5b8063370158ea116100de578063370158ea1461019557806338cf1b49146101aa5780633d13f874146101bd5780634f813c89146101d057600080fd5b80630bcda9181461011057806313af4035146101565780632eb4a7ab1461016b57806331bb69fe14610182575b600080fd5b61013961011e366004610aa7565b6007602052600090815260409020546001600160a01b031681565b6040516001600160a01b0390911681526020015b60405180910390f35b610169610164366004610aa7565b6102ca565b005b61017460005481565b60405190815260200161014d565b600354610139906001600160a01b031681565b61019d610332565b60405161014d9190610ac2565b6101696101b8366004610bcf565b6103c0565b6101696101cb366004610c0c565b610456565b6101696101de366004610c96565b6107c8565b6102066101f1366004610aa7565b60056020526000908152604090205460ff1681565b604051901515815260200161014d565b610169610224366004610cfa565b6108ec565b600254610139906001600160a01b031681565b610169610968565b600154610139906001600160a01b031681565b610139610265366004610aa7565b6006602052600090815260409020546001600160a01b031681565b60045461020690600160a01b900460ff1681565b600454610139906001600160a01b031681565b6102066102b5366004610aa7565b60086020526000908152604090205460ff1681565b6002546001600160a01b031633146102fd5760405162461bcd60e51b81526004016102f490610d13565b60405180910390fd5b6001600160a01b03811661031057600080fd5b600280546001600160a01b0319166001600160a01b0392909216919091179055565b6009805461033f90610d36565b80601f016020809104026020016040519081016040528092919081815260200182805461036b90610d36565b80156103b85780601f1061038d576101008083540402835291602001916103b8565b820191906000526020600020905b81548152906001019060200180831161039b57829003601f168201915b505050505081565b6002546001600160a01b031633146103ea5760405162461bcd60e51b81526004016102f490610d13565b60005b81518110156104525760016005600084848151811061040e5761040e610d70565b6020908102919091018101516001600160a01b03168252810191909152604001600020805460ff19169115159190911790558061044a81610d86565b9150506103ed565b5050565b600454600160a01b900460ff1661049d5760405162461bcd60e51b815260206004820152600b60248201526a1b9bdd081cdd185c9d195960aa1b60448201526064016102f4565b3360008181526008602052604090205460ff16156104d05750336000908152600760205260409020546001600160a01b03165b3360009081526005602052604090205460ff161561050c57604051632058b6db60e01b81526001600160a01b03821660048201526024016102f4565b6003546040516339d9740760e11b81523360048201526001600160a01b03909116906373b2e80e906024016020604051808303816000875af1158015610556573d6000803e3d6000fd5b505050506040513d601f19601f8201168201806040525081019061057a9190610dad565b1515600114806105fa5750600480546040516339d9740760e11b815233928101929092526001600160a01b0316906373b2e80e906024016020604051808303816000875af11580156105d0573d6000803e3d6000fd5b505050506040513d601f19601f820116820180604052508101906105f49190610dad565b15156001145b1561061f5750336000908152600560205260409020805460ff191660011790556107c2565b6040516bffffffffffffffffffffffff19606083901b1660208201526034810185905260009060540160405160208183030381529060405280519060200120905060006106a185858080602002602001604051908101604052809392919081815260200183836020028082843760009201829052505492508691506109f69050565b9050806106d35760405163057365dd60e31b81526001600160a01b0384166004820152602481018790526044016102f4565b60015460405163d5a703b560e01b81523360048201526001600160a01b03898116602483015260448201899052600092169063d5a703b5906064016020604051808303816000875af115801561072d573d6000803e3d6000fd5b505050506040513d601f19601f820116820180604052508101906107519190610dad565b90508061075d57600080fd5b3360008181526005602052604090819020805460ff19166001179055516001600160a01b038a1691907fdc2005f113f1c2ccd6bd35df2a16954f0ff4e029277b9d76ea10b0b3b29ae964906107b5908b815260200190565b60405180910390a3505050505b50505050565b6002546001600160a01b031633146107f25760405162461bcd60e51b81526004016102f490610d13565b805182511461080057600080fd5b815160009081805b828410156108e45784848151811061082257610822610d70565b6020026020010151905085848151811061083e5761083e610d70565b6020026020010151915060006001600160a01b0316826001600160a01b03160361086757600080fd5b6001600160a01b03811661087a57600080fd5b6001600160a01b03808216600081815260066020908152604080832080549588166001600160a01b03199687168117909155835260078252808320805490951690931790935560089092529020805460ff19166001179055836108dc81610d86565b945050610808565b505050505050565b6002546001600160a01b031633146109165760405162461bcd60e51b81526004016102f490610d13565b8061094c5760405162461bcd60e51b81526020600482015260066024820152650726f6f7420360d41b60448201526064016102f4565b600454600160a01b900460ff161561096357600080fd5b600055565b6002546001600160a01b031633146109925760405162461bcd60e51b81526004016102f490610d13565b600454600160a01b900460ff16156109a957600080fd5b6000546109e15760405162461bcd60e51b81526020600482015260066024820152650726f6f7420360d41b60448201526064016102f4565b6004805460ff60a01b1916600160a01b179055565b600082610a038584610a0c565b14949350505050565b600081815b8451811015610a5157610a3d82868381518110610a3057610a30610d70565b6020026020010151610a59565b915080610a4981610d86565b915050610a11565b509392505050565b6000818310610a75576000828152602084905260409020610a84565b60008381526020839052604090205b9392505050565b80356001600160a01b0381168114610aa257600080fd5b919050565b600060208284031215610ab957600080fd5b610a8482610a8b565b600060208083528351808285015260005b81811015610aef57858101830151858201604001528201610ad3565b81811115610b01576000604083870101525b50601f01601f1916929092016040019392505050565b634e487b7160e01b600052604160045260246000fd5b600082601f830112610b3e57600080fd5b8135602067ffffffffffffffff80831115610b5b57610b5b610b17565b8260051b604051601f19603f83011681018181108482111715610b8057610b80610b17565b604052938452858101830193838101925087851115610b9e57600080fd5b83870191505b84821015610bc457610bb582610a8b565b83529183019190830190610ba4565b979650505050505050565b600060208284031215610be157600080fd5b813567ffffffffffffffff811115610bf857600080fd5b610c0484828501610b2d565b949350505050565b60008060008060608587031215610c2257600080fd5b610c2b85610a8b565b935060208501359250604085013567ffffffffffffffff80821115610c4f57600080fd5b818701915087601f830112610c6357600080fd5b813581811115610c7257600080fd5b8860208260051b8501011115610c8757600080fd5b95989497505060200194505050565b60008060408385031215610ca957600080fd5b823567ffffffffffffffff80821115610cc157600080fd5b610ccd86838701610b2d565b93506020850135915080821115610ce357600080fd5b50610cf085828601610b2d565b9150509250929050565b600060208284031215610d0c57600080fd5b5035919050565b6020808252600990820152683737ba1037bbb732b960b91b604082015260600190565b600181811c90821680610d4a57607f821691505b602082108103610d6a57634e487b7160e01b600052602260045260246000fd5b50919050565b634e487b7160e01b600052603260045260246000fd5b600060018201610da657634e487b7160e01b600052601160045260246000fd5b5060010190565b600060208284031215610dbf57600080fd5b81518015158114610a8457600080fdfea26469706673582212208bcd24377b4f5caeaa259bf4a16b6afc0bee38fc46f4f73860dd2dd642b7361a64736f6c634300080d0033",
  "linkReferences": {},
  "deployedLinkReferences": {}
}