{
  "_format": "hh-sol-artifact-1",
  "contractName": "PairAPI",
  "sourceName": "contracts/APIHelper/PairAPIV2.sol",
  "abi": [
    {
      "anonymous": false,
      "inputs": [
        {
          "indexed": false,
          "internalType": "uint8",
          "name": "version",
          "type": "uint8"
        }
      ],
      "name": "Initialized",
      "type": "event"
    },
    {
      "anonymous": false,
      "inputs": [
        {
          "indexed": true,
          "internalType": "address",
          "name": "previousOwner",
          "type": "address"
        },
        {
          "indexed": true,
          "internalType": "address",
          "name": "newOwner",
          "type": "address"
        }
      ],
      "name": "OwnershipTransferred",
      "type": "event"
    },
    {
      "anonymous": false,
      "inputs": [
        {
          "indexed": false,
          "internalType": "address",
          "name": "oldVoter",
          "type": "address"
        },
        {
          "indexed": false,
          "internalType": "address",
          "name": "newVoter",
          "type": "address"
        }
      ],
      "name": "Voter",
      "type": "event"
    },
    {
      "anonymous": false,
      "inputs": [
        {
          "indexed": false,
          "internalType": "address",
          "name": "oldWBF",
          "type": "address"
        },
        {
          "indexed": false,
          "internalType": "address",
          "name": "newWBF",
          "type": "address"
        }
      ],
      "name": "WBF",
      "type": "event"
    },
    {
      "inputs": [],
      "name": "MAX_EPOCHS",
      "outputs": [
        {
          "internalType": "uint256",
          "name": "",
          "type": "uint256"
        }
      ],
      "stateMutability": "view",
      "type": "function"
    },
    {
      "inputs": [],
      "name": "MAX_PAIRS",
      "outputs": [
        {
          "internalType": "uint256",
          "name": "",
          "type": "uint256"
        }
      ],
      "stateMutability": "view",
      "type": "function"
    },
    {
      "inputs": [],
      "name": "MAX_REWARDS",
      "outputs": [
        {
          "internalType": "uint256",
          "name": "",
          "type": "uint256"
        }
      ],
      "stateMutability": "view",
      "type": "function"
    },
    {
      "inputs": [],
      "name": "WEEK",
      "outputs": [
        {
          "internalType": "uint256",
          "name": "",
          "type": "uint256"
        }
      ],
      "stateMutability": "view",
      "type": "function"
    },
    {
      "inputs": [
        {
          "internalType": "address",
          "name": "_user",
          "type": "address"
        },
        {
          "internalType": "uint256",
          "name": "_amounts",
          "type": "uint256"
        },
        {
          "internalType": "uint256",
          "name": "_offset",
          "type": "uint256"
        }
      ],
      "name": "getAllPair",
      "outputs": [
        {
          "components": [
            {
              "internalType": "address",
              "name": "pair_address",
              "type": "address"
            },
            {
              "internalType": "string",
              "name": "symbol",
              "type": "string"
            },
            {
              "internalType": "string",
              "name": "name",
              "type": "string"
            },
            {
              "internalType": "uint256",
              "name": "decimals",
              "type": "uint256"
            },
            {
              "internalType": "bool",
              "name": "stable",
              "type": "bool"
            },
            {
              "internalType": "uint256",
              "name": "total_supply",
              "type": "uint256"
            },
            {
              "internalType": "address",
              "name": "token0",
              "type": "address"
            },
            {
              "internalType": "string",
              "name": "token0_symbol",
              "type": "string"
            },
            {
              "internalType": "uint256",
              "name": "token0_decimals",
              "type": "uint256"
            },
            {
              "internalType": "uint256",
              "name": "reserve0",
              "type": "uint256"
            },
            {
              "internalType": "uint256",
              "name": "claimable0",
              "type": "uint256"
            },
            {
              "internalType": "address",
              "name": "token1",
              "type": "address"
            },
            {
              "internalType": "string",
              "name": "token1_symbol",
              "type": "string"
            },
            {
              "internalType": "uint256",
              "name": "token1_decimals",
              "type": "uint256"
            },
            {
              "internalType": "uint256",
              "name": "reserve1",
              "type": "uint256"
            },
            {
              "internalType": "uint256",
              "name": "claimable1",
              "type": "uint256"
            },
            {
              "internalType": "address",
              "name": "gauge",
              "type": "address"
            },
            {
              "internalType": "uint256",
              "name": "gauge_total_supply",
              "type": "uint256"
            },
            {
              "internalType": "address",
              "name": "fee",
              "type": "address"
            },
            {
              "internalType": "address",
              "name": "bribe",
              "type": "address"
            },
            {
              "internalType": "uint256",
              "name": "emissions",
              "type": "uint256"
            },
            {
              "internalType": "address",
              "name": "emissions_token",
              "type": "address"
            },
            {
              "internalType": "uint256",
              "name": "emissions_token_decimals",
              "type": "uint256"
            },
            {
              "internalType": "uint256",
              "name": "account_lp_balance",
              "type": "uint256"
            },
            {
              "internalType": "uint256",
              "name": "account_token0_balance",
              "type": "uint256"
            },
            {
              "internalType": "uint256",
              "name": "account_token1_balance",
              "type": "uint256"
            },
            {
              "internalType": "uint256",
              "name": "account_gauge_balance",
              "type": "uint256"
            },
            {
              "internalType": "uint256",
              "name": "account_gauge_earned",
              "type": "uint256"
            }
          ],
          "internalType": "struct PairAPI.pairInfo[]",
          "name": "Pairs",
          "type": "tuple[]"
        }
      ],
      "stateMutability": "view",
      "type": "function"
    },
    {
      "inputs": [
        {
          "internalType": "address",
          "name": "_pair",
          "type": "address"
        },
        {
          "internalType": "address",
          "name": "_account",
          "type": "address"
        }
      ],
      "name": "getPair",
      "outputs": [
        {
          "components": [
            {
              "internalType": "address",
              "name": "pair_address",
              "type": "address"
            },
            {
              "internalType": "string",
              "name": "symbol",
              "type": "string"
            },
            {
              "internalType": "string",
              "name": "name",
              "type": "string"
            },
            {
              "internalType": "uint256",
              "name": "decimals",
              "type": "uint256"
            },
            {
              "internalType": "bool",
              "name": "stable",
              "type": "bool"
            },
            {
              "internalType": "uint256",
              "name": "total_supply",
              "type": "uint256"
            },
            {
              "internalType": "address",
              "name": "token0",
              "type": "address"
            },
            {
              "internalType": "string",
              "name": "token0_symbol",
              "type": "string"
            },
            {
              "internalType": "uint256",
              "name": "token0_decimals",
              "type": "uint256"
            },
            {
              "internalType": "uint256",
              "name": "reserve0",
              "type": "uint256"
            },
            {
              "internalType": "uint256",
              "name": "claimable0",
              "type": "uint256"
            },
            {
              "internalType": "address",
              "name": "token1",
              "type": "address"
            },
            {
              "internalType": "string",
              "name": "token1_symbol",
              "type": "string"
            },
            {
              "internalType": "uint256",
              "name": "token1_decimals",
              "type": "uint256"
            },
            {
              "internalType": "uint256",
              "name": "reserve1",
              "type": "uint256"
            },
            {
              "internalType": "uint256",
              "name": "claimable1",
              "type": "uint256"
            },
            {
              "internalType": "address",
              "name": "gauge",
              "type": "address"
            },
            {
              "internalType": "uint256",
              "name": "gauge_total_supply",
              "type": "uint256"
            },
            {
              "internalType": "address",
              "name": "fee",
              "type": "address"
            },
            {
              "internalType": "address",
              "name": "bribe",
              "type": "address"
            },
            {
              "internalType": "uint256",
              "name": "emissions",
              "type": "uint256"
            },
            {
              "internalType": "address",
              "name": "emissions_token",
              "type": "address"
            },
            {
              "internalType": "uint256",
              "name": "emissions_token_decimals",
              "type": "uint256"
            },
            {
              "internalType": "uint256",
              "name": "account_lp_balance",
              "type": "uint256"
            },
            {
              "internalType": "uint256",
              "name": "account_token0_balance",
              "type": "uint256"
            },
            {
              "internalType": "uint256",
              "name": "account_token1_balance",
              "type": "uint256"
            },
            {
              "internalType": "uint256",
              "name": "account_gauge_balance",
              "type": "uint256"
            },
            {
              "internalType": "uint256",
              "name": "account_gauge_earned",
              "type": "uint256"
            }
          ],
          "internalType": "struct PairAPI.pairInfo",
          "name": "_pairInfo",
          "type": "tuple"
        }
      ],
      "stateMutability": "view",
      "type": "function"
    },
    {
      "inputs": [
        {
          "internalType": "uint256",
          "name": "_amounts",
          "type": "uint256"
        },
        {
          "internalType": "uint256",
          "name": "_offset",
          "type": "uint256"
        },
        {
          "internalType": "address",
          "name": "_pair",
          "type": "address"
        }
      ],
      "name": "getPairBribe",
      "outputs": [
        {
          "components": [
            {
              "internalType": "uint256",
              "name": "epochTimestamp",
              "type": "uint256"
            },
            {
              "internalType": "uint256",
              "name": "totalVotes",
              "type": "uint256"
            },
            {
              "internalType": "address",
              "name": "pair",
              "type": "address"
            },
            {
              "components": [
                {
                  "internalType": "address",
                  "name": "token",
                  "type": "address"
                },
                {
                  "internalType": "uint8",
                  "name": "decimals",
                  "type": "uint8"
                },
                {
                  "internalType": "uint256",
                  "name": "amount",
                  "type": "uint256"
                },
                {
                  "internalType": "string",
                  "name": "symbol",
                  "type": "string"
                }
              ],
              "internalType": "struct PairAPI.tokenBribe[]",
              "name": "bribes",
              "type": "tuple[]"
            }
          ],
          "internalType": "struct PairAPI.pairBribeEpoch[]",
          "name": "_pairEpoch",
          "type": "tuple[]"
        }
      ],
      "stateMutability": "view",
      "type": "function"
    },
    {
      "inputs": [
        {
          "internalType": "address",
          "name": "_voter",
          "type": "address"
        }
      ],
      "name": "initialize",
      "outputs": [],
      "stateMutability": "nonpayable",
      "type": "function"
    },
    {
      "inputs": [
        {
          "internalType": "address",
          "name": "_pair",
          "type": "address"
        },
        {
          "internalType": "address",
          "name": "_token",
          "type": "address"
        }
      ],
      "name": "left",
      "outputs": [
        {
          "internalType": "uint256",
          "name": "_rewPerEpoch",
          "type": "uint256"
        }
      ],
      "stateMutability": "view",
      "type": "function"
    },
    {
      "inputs": [],
      "name": "owner",
      "outputs": [
        {
          "internalType": "address",
          "name": "",
          "type": "address"
        }
      ],
      "stateMutability": "view",
      "type": "function"
    },
    {
      "inputs": [],
      "name": "pairFactory",
      "outputs": [
        {
          "internalType": "contract IPairFactory",
          "name": "",
          "type": "address"
        }
      ],
      "stateMutability": "view",
      "type": "function"
    },
    {
      "inputs": [],
      "name": "renounceOwnership",
      "outputs": [],
      "stateMutability": "nonpayable",
      "type": "function"
    },
    {
      "inputs": [
        {
          "internalType": "address",
          "name": "_voter",
          "type": "address"
        }
      ],
      "name": "setVoter",
      "outputs": [],
      "stateMutability": "nonpayable",
      "type": "function"
    },
    {
      "inputs": [
        {
          "internalType": "address",
          "name": "newOwner",
          "type": "address"
        }
      ],
      "name": "transferOwnership",
      "outputs": [],
      "stateMutability": "nonpayable",
      "type": "function"
    },
    {
      "inputs": [],
      "name": "underlyingToken",
      "outputs": [
        {
          "internalType": "address",
          "name": "",
          "type": "address"
        }
      ],
      "stateMutability": "view",
      "type": "function"
    },
    {
      "inputs": [],
      "name": "voter",
      "outputs": [
        {
          "internalType": "contract IVoter",
          "name": "",
          "type": "address"
        }
      ],
      "stateMutability": "view",
      "type": "function"
    },
    {
      "inputs": [],
      "name": "wBribeFactory",
      "outputs": [
        {
          "internalType": "contract IWrappedBribeFactory",
          "name": "",
          "type": "address"
        }
      ],
      "stateMutability": "view",
      "type": "function"
    }
  ],
  "bytecode": "0x608060405234801561001057600080fd5b50612946806100206000396000f3fe608060405234801561001057600080fd5b506004361061010b5760003560e01c8063996cf233116100a2578063e14f870d11610071578063e14f870d14610219578063e6a439051461022c578063f2fde38b1461024c578063f4359ce51461025f578063fb5478b31461026957600080fd5b8063996cf233146101d5578063abcf3d6a146101de578063c4d66de8146101fe578063c8b72f8f1461021157600080fd5b80636180c3f9116100de5780636180c3f91461018857806365ca6b23146101a9578063715018a6146101bc5780638da5cb5b146101c457600080fd5b80632495a59914610110578063404cba501461014057806346c96aac146101605780634bc2a65714610173575b600080fd5b606854610123906001600160a01b031681565b6040516001600160a01b0390911681526020015b60405180910390f35b61015361014e366004612207565b610271565b604051610137919061229c565b606654610123906001600160a01b031681565b6101866101813660046123a1565b610620565b005b61019b6101963660046123be565b61082c565b604051908152602001610137565b606754610123906001600160a01b031681565b6101866109fe565b6033546001600160a01b0316610123565b61019b6103e881565b6101f16101ec3660046123f7565b610a12565b60405161013791906125e5565b61018661020c3660046123a1565b610bf5565b61019b60c881565b606554610123906001600160a01b031681565b61023f61023a3660046123be565b610e83565b6040516101379190612647565b61018661025a3660046123a1565b610e95565b61019b62093a8081565b61019b601081565b606060c88411156102bb5760405162461bcd60e51b815260206004820152600f60248201526e746f6f206d616e792065706f63687360881b60448201526064015b60405180910390fd5b8367ffffffffffffffff8111156102d4576102d461265a565b60405190808252806020026020018201604052801561033957816020015b6103266040518060800160405280600081526020016000815260200160006001600160a01b03168152602001606081525090565b8152602001906001900390816102f25790505b5060665460405163b9a09fd560e01b81526001600160a01b0385811660048301529293506000929091169063b9a09fd590602401602060405180830381865afa15801561038a573d6000803e3d6000fd5b505050506040513d601f19601f820116820180604052508101906103ae9190612670565b60665460405163ae21c4cb60e01b81526001600160a01b0380841660048301529293506000929091169063ae21c4cb90602401602060405180830381865afa1580156103fe573d6000803e3d6000fd5b505050506040513d601f19601f820116820180604052508101906104229190612670565b90506001600160a01b03811660000361043c575050610619565b6000816001600160a01b03166355288eea6040518163ffffffff1660e01b8152600401602060405180830381865afa15801561047c573d6000803e3d6000fd5b505050506040513d601f19601f820116820180604052508101906104a0919061268d565b9050806000036104b257505050610619565b6000865b6104c089896126bc565b81101561061357604051630981b24d60e41b8152600481018490526001600160a01b0385169063981b24d090602401602060405180830381865afa15801561050c573d6000803e3d6000fd5b505050506040513d601f19601f82011682018060405250810190610530919061268d565b9150828661053e8a846126d4565b8151811061054e5761054e6126eb565b60209081029190910101515286866105668a846126d4565b81518110610576576105766126eb565b60209081029190910101516001600160a01b03909116604090910152818661059e8a846126d4565b815181106105ae576105ae6126eb565b602002602001015160200181815250506105c88385610f0e565b866105d38a846126d4565b815181106105e3576105e36126eb565b6020908102919091010151606001526105ff62093a80846126bc565b92508061060b81612701565b9150506104b6565b50505050505b9392505050565b6106286114d0565b6001600160a01b0381166106695760405162461bcd60e51b81526020600482015260086024820152673d32b937a0b2323960c11b60448201526064016102b2565b606680546001600160a01b038381166001600160a01b0319831681179093556040805163c45a015560e01b8152905191909216929163c45a01559160048083019260209291908290030181865afa1580156106c8573d6000803e3d6000fd5b505050506040513d601f19601f820116820180604052508101906106ec9190612670565b606580546001600160a01b0319166001600160a01b0392831617905560665460408051638dd598fb60e01b815290519190921691638dd598fb9160048083019260209291908290030181865afa15801561074a573d6000803e3d6000fd5b505050506040513d601f19601f8201168201806040525081019061076e9190612670565b6001600160a01b031663fc0c546a6040518163ffffffff1660e01b8152600401602060405180830381865afa1580156107ab573d6000803e3d6000fd5b505050506040513d601f19601f820116820180604052508101906107cf9190612670565b606880546001600160a01b0319166001600160a01b0392831617905560408051838316815291841660208301527f710c23d7ab8af94af228e05f80f3472774722958ef63a866cdb227de1b2a8f2c91015b60405180910390a15050565b60665460405163b9a09fd560e01b81526001600160a01b038481166004830152600092839291169063b9a09fd590602401602060405180830381865afa15801561087a573d6000803e3d6000fd5b505050506040513d601f19601f8201168201806040525081019061089e9190612670565b606654604051637572079360e11b81526001600160a01b0380841660048301529293506000929091169063eae40f2690602401602060405180830381865afa1580156108ee573d6000803e3d6000fd5b505050506040513d601f19601f820116820180604052508101906109129190612670565b90506000816001600160a01b031663a4a3e0356040518163ffffffff1660e01b8152600401602060405180830381865afa158015610954573d6000803e3d6000fd5b505050506040513d601f19601f82011682018060405250810190610978919061268d565b604051631c0ba43160e11b81526001600160a01b03878116600483015260248201839052919250600091841690633817486290604401606060405180830381865afa1580156109cb573d6000803e3d6000fd5b505050506040513d601f19601f820116820180604052508101906109ef919061271a565b60200151979650505050505050565b610a066114d0565b610a10600061152a565b565b60606103e8831115610a565760405162461bcd60e51b815260206004820152600d60248201526c3a37b79036b0b73c903830b4b960991b60448201526064016102b2565b8267ffffffffffffffff811115610a6f57610a6f61265a565b604051908082528060200260200182016040528015610aa857816020015b610a956120e0565b815260200190600190039081610a8d5790505b506065546040805163574f2ba360e01b8152905192935084926000926001600160a01b03169163574f2ba39160048083019260209291908290030181865afa158015610af8573d6000803e3d6000fd5b505050506040513d601f19601f82011682018060405250810190610b1c919061268d565b905060005b610b2b86866126bc565b831015610beb57828214610beb57606554604051631e3dd18b60e01b8152600481018590526001600160a01b0390911690631e3dd18b90602401602060405180830381865afa158015610b82573d6000803e3d6000fd5b505050506040513d601f19601f82011682018060405250810190610ba69190612670565b9050610bb2818861157c565b84610bbd87866126d4565b81518110610bcd57610bcd6126eb565b60200260200101819052508280610be390612701565b935050610b21565b5050509392505050565b600054610100900460ff1615808015610c155750600054600160ff909116105b80610c2f5750303b158015610c2f575060005460ff166001145b610c925760405162461bcd60e51b815260206004820152602e60248201527f496e697469616c697a61626c653a20636f6e747261637420697320616c72656160448201526d191e481a5b9a5d1a585b1a5e995960921b60648201526084016102b2565b6000805460ff191660011790558015610cb5576000805461ff0019166101001790555b610cbd612086565b606680546001600160a01b0319166001600160a01b0384169081179091556040805163c45a015560e01b8152905163c45a0155916004808201926020929091908290030181865afa158015610d16573d6000803e3d6000fd5b505050506040513d601f19601f82011682018060405250810190610d3a9190612670565b606580546001600160a01b0319166001600160a01b0392831617905560665460408051638dd598fb60e01b815290519190921691638dd598fb9160048083019260209291908290030181865afa158015610d98573d6000803e3d6000fd5b505050506040513d601f19601f82011682018060405250810190610dbc9190612670565b6001600160a01b031663fc0c546a6040518163ffffffff1660e01b8152600401602060405180830381865afa158015610df9573d6000803e3d6000fd5b505050506040513d601f19601f82011682018060405250810190610e1d9190612670565b606880546001600160a01b0319166001600160a01b03929092169190911790558015610e7f576000805461ff0019169055604051600181527f7f26b83ff96e1f2b6a682f133852f6798a09c465da95921460cefb384740249890602001610820565b5050565b610e8b6120e0565b610619838361157c565b610e9d6114d0565b6001600160a01b038116610f025760405162461bcd60e51b815260206004820152602660248201527f4f776e61626c653a206e6577206f776e657220697320746865207a65726f206160448201526564647265737360d01b60648201526084016102b2565b610f0b8161152a565b50565b606060008290506000816001600160a01b031663e68863966040518163ffffffff1660e01b8152600401602060405180830381865afa158015610f55573d6000803e3d6000fd5b505050506040513d601f19601f82011682018060405250810190610f79919061268d565b90508067ffffffffffffffff811115610f9457610f9461265a565b604051908082528060200260200182016040528015610fe557816020015b6040805160808101825260008082526020808301829052928201526060808201528252600019909201910181610fb25790505b509250600080805b838310156114c557604051637bb7bed160e01b8152600481018490526001600160a01b03861690637bb7bed190602401602060405180830381865afa15801561103a573d6000803e3d6000fd5b505050506040513d601f19601f8201168201806040525081019061105e9190612670565b90506001600160a01b03811673f0308d005717858756acaa6b3dcd4d0de4a1ca54146113ef57604051631c0ba43160e11b81526001600160a01b038281166004830152602482018a905260009190871690633817486290604401606060405180830381865afa1580156110d5573d6000803e3d6000fd5b505050506040513d601f19601f820116820180604052508101906110f9919061271a565b602081015193509050821561127a578187858151811061111b5761111b6126eb565b6020026020010151600001906001600160a01b031690816001600160a01b031681525050816001600160a01b03166395d89b416040518163ffffffff1660e01b8152600401600060405180830381865afa15801561117d573d6000803e3d6000fd5b505050506040513d6000823e601f3d908101601f191682016040526111a59190810190612776565b8785815181106111b7576111b76126eb565b602002602001015160600181905250816001600160a01b031663313ce5676040518163ffffffff1660e01b8152600401602060405180830381865afa158015611204573d6000803e3d6000fd5b505050506040513d601f19601f820116820180604052508101906112289190612823565b87858151811061123a5761123a6126eb565b60200260200101516020019060ff16908160ff168152505082878581518110611265576112656126eb565b602002602001015160400181815250506113e9565b8187858151811061128d5761128d6126eb565b6020026020010151600001906001600160a01b031690816001600160a01b031681525050816001600160a01b03166395d89b416040518163ffffffff1660e01b8152600401600060405180830381865afa1580156112ef573d6000803e3d6000fd5b505050506040513d6000823e601f3d908101601f191682016040526113179190810190612776565b878581518110611329576113296126eb565b602002602001015160600181905250816001600160a01b031663313ce5676040518163ffffffff1660e01b8152600401602060405180830381865afa158015611376573d6000803e3d6000fd5b505050506040513d601f19601f8201168201806040525081019061139a9190612823565b8785815181106113ac576113ac6126eb565b60200260200101516020019060ff16908160ff168152505060008785815181106113d8576113d86126eb565b602002602001015160400181815250505b506114b3565b80868481518110611402576114026126eb565b6020026020010151600001906001600160a01b031690816001600160a01b03168152505060405180604001604052806002815260200161060f60f31b815250868481518110611453576114536126eb565b6020026020010151606001819052506000868481518110611476576114766126eb565b60200260200101516020019060ff16908160ff168152505060008684815181106114a2576114a26126eb565b602002602001015160400181815250505b826114bd81612701565b935050610fed565b505050505092915050565b6033546001600160a01b03163314610a105760405162461bcd60e51b815260206004820181905260248201527f4f776e61626c653a2063616c6c6572206973206e6f7420746865206f776e657260448201526064016102b2565b603380546001600160a01b038381166001600160a01b0319831681179093556040519116919082907f8be0079c531659141344cd1fd0a4f28419497f9722a3daafe3b4186f6b6457e090600090a35050565b6115846120e0565b6000839050600080600080846001600160a01b0316639d63848a6040518163ffffffff1660e01b81526004016040805180830381865afa1580156115cc573d6000803e3d6000fd5b505050506040513d601f19601f820116820180604052508101906115f09190612846565b8094508195505050846001600160a01b0316630902f1ac6040518163ffffffff1660e01b8152600401606060405180830381865afa158015611636573d6000803e3d6000fd5b505050506040513d601f19601f8201168201806040525081019061165a9190612875565b5060665460405163b9a09fd560e01b81526001600160a01b038c81166004830152939550919350600092169063b9a09fd590602401602060405180830381865afa1580156116ac573d6000803e3d6000fd5b505050506040513d601f19601f820116820180604052508101906116d09190612670565b905060008080806001600160a01b038516156118a4576001600160a01b038c16156117d2576040516370a0823160e01b81526001600160a01b038d811660048301528616906370a0823190602401602060405180830381865afa15801561173b573d6000803e3d6000fd5b505050506040513d601f19601f8201168201806040525081019061175f919061268d565b6040516246613160e11b81526001600160a01b038e8116600483015291955090861690628cc26290602401602060405180830381865afa1580156117a7573d6000803e3d6000fd5b505050506040513d601f19601f820116820180604052508101906117cb919061268d565b92506117db565b60009350600092505b846001600160a01b03166318160ddd6040518163ffffffff1660e01b8152600401602060405180830381865afa158015611819573d6000803e3d6000fd5b505050506040513d601f19601f8201168201806040525081019061183d919061268d565b9150846001600160a01b0316637b0a47ee6040518163ffffffff1660e01b8152600401602060405180830381865afa15801561187d573d6000803e3d6000fd5b505050506040513d601f19601f820116820180604052508101906118a1919061268d565b90505b6001600160a01b03808e168c52604080516395d89b4160e01b81529051918c16916395d89b41916004808201926000929091908290030181865afa1580156118f0573d6000803e3d6000fd5b505050506040513d6000823e601f3d908101601f191682016040526119189190810190612776565b8b60200181905250896001600160a01b03166306fdde036040518163ffffffff1660e01b8152600401600060405180830381865afa15801561195e573d6000803e3d6000fd5b505050506040513d6000823e601f3d908101601f191682016040526119869190810190612776565b8b60400181905250896001600160a01b031663313ce5676040518163ffffffff1660e01b8152600401602060405180830381865afa1580156119cc573d6000803e3d6000fd5b505050506040513d601f19601f820116820180604052508101906119f09190612823565b60ff168b6060018181525050896001600160a01b03166309047bdd6040518163ffffffff1660e01b8152600401602060405180830381865afa158015611a3a573d6000803e3d6000fd5b505050506040513d601f19601f82011682018060405250810190611a5e91906128a3565b151560808c0152604080516318160ddd60e01b815290516001600160a01b038c16916318160ddd9160048083019260209291908290030181865afa158015611aaa573d6000803e3d6000fd5b505050506040513d601f19601f82011682018060405250810190611ace919061268d565b60a08c01526001600160a01b03891660c08c018190526040805163313ce56760e01b8152905163313ce567916004808201926020929091908290030181865afa158015611b1f573d6000803e3d6000fd5b505050506040513d601f19601f82011682018060405250810190611b439190612823565b60ff168b610100018181525050886001600160a01b03166395d89b416040518163ffffffff1660e01b8152600401600060405180830381865afa158015611b8e573d6000803e3d6000fd5b505050506040513d6000823e601f3d908101601f19168201604052611bb69190810190612776565b60e08c01526101208b018790526040516326ad4fc560e11b81526001600160a01b038d811660048301528b1690634d5a9f8a90602401602060405180830381865afa158015611c09573d6000803e3d6000fd5b505050506040513d601f19601f82011682018060405250810190611c2d919061268d565b6101408c01526001600160a01b0388166101608c018190526040805163313ce56760e01b8152905163313ce567916004808201926020929091908290030181865afa158015611c80573d6000803e3d6000fd5b505050506040513d601f19601f82011682018060405250810190611ca49190612823565b60ff168b6101a0018181525050876001600160a01b03166395d89b416040518163ffffffff1660e01b8152600401600060405180830381865afa158015611cef573d6000803e3d6000fd5b505050506040513d6000823e601f3d908101601f19168201604052611d179190810190612776565b6101808c01526101c08b0186905260405163a1ac4d1360e01b81526001600160a01b038d811660048301528b169063a1ac4d1390602401602060405180830381865afa158015611d6b573d6000803e3d6000fd5b505050506040513d601f19601f82011682018060405250810190611d8f919061268d565b6101e08c01526001600160a01b038086166102008d01526102208c018390526102808c01829052606854166102a08c018190526040805163313ce56760e01b8152905163313ce567916004808201926020929091908290030181865afa158015611dfd573d6000803e3d6000fd5b505050506040513d601f19601f82011682018060405250810190611e219190612823565b60ff166102c08c0152606654604051637572079360e11b81526001600160a01b0387811660048301529091169063eae40f2690602401602060405180830381865afa158015611e74573d6000803e3d6000fd5b505050506040513d601f19601f82011682018060405250810190611e989190612670565b6001600160a01b039081166102408d015260665460405163ae21c4cb60e01b8152878316600482015291169063ae21c4cb90602401602060405180830381865afa158015611eea573d6000803e3d6000fd5b505050506040513d601f19601f82011682018060405250810190611f0e9190612670565b6001600160a01b039081166102608d01526040516370a0823160e01b81528d82166004820152908e16906370a0823190602401602060405180830381865afa158015611f5e573d6000803e3d6000fd5b505050506040513d601f19601f82011682018060405250810190611f82919061268d565b6102e08c01526040516370a0823160e01b81526001600160a01b038d811660048301528a16906370a0823190602401602060405180830381865afa158015611fce573d6000803e3d6000fd5b505050506040513d601f19601f82011682018060405250810190611ff2919061268d565b6103008c01526040516370a0823160e01b81526001600160a01b038d811660048301528916906370a0823190602401602060405180830381865afa15801561203e573d6000803e3d6000fd5b505050506040513d601f19601f82011682018060405250810190612062919061268d565b6103208c015250506103408901919091526103608801525094979650505050505050565b600054610100900460ff166120ad5760405162461bcd60e51b81526004016102b2906128c5565b610a10600054610100900460ff166120d75760405162461bcd60e51b81526004016102b2906128c5565b610a103361152a565b60405180610380016040528060006001600160a01b031681526020016060815260200160608152602001600081526020016000151581526020016000815260200160006001600160a01b031681526020016060815260200160008152602001600081526020016000815260200160006001600160a01b031681526020016060815260200160008152602001600081526020016000815260200160006001600160a01b031681526020016000815260200160006001600160a01b0316815260200160006001600160a01b031681526020016000815260200160006001600160a01b031681526020016000815260200160008152602001600081526020016000815260200160008152602001600081525090565b6001600160a01b0381168114610f0b57600080fd5b60008060006060848603121561221c57600080fd5b83359250602084013591506040840135612235816121f2565b809150509250925092565b60005b8381101561225b578181015183820152602001612243565b8381111561226a576000848401525b50505050565b60008151808452612288816020860160208601612240565b601f01601f19169290920160200192915050565b60006020808301818452808551808352604092508286019150828160051b87010184880160005b8381101561239357603f198984030185528151805184528781015188850152868101516001600160a01b039081168886015260609182015160808387018190528151908701819052908a019260a0600583901b880181019391929088019060005b8181101561237a57898603609f1901835286518051851687528e81015160ff168f8801528d8101518e880152850151608086880181905261236790880182612270565b978f0197965050918d0191600101612324565b505050978a0197509094505050908601906001016122c3565b509098975050505050505050565b6000602082840312156123b357600080fd5b8135610619816121f2565b600080604083850312156123d157600080fd5b82356123dc816121f2565b915060208301356123ec816121f2565b809150509250929050565b60008060006060848603121561240c57600080fd5b8335612417816121f2565b95602085013595506040909401359392505050565b80516001600160a01b031682526000610380602083015181602086015261245582860182612270565b9150506040830151848203604086015261246f8282612270565b91505060608301516060850152608083015161248f608086018215159052565b5060a083015160a085015260c08301516124b460c08601826001600160a01b03169052565b5060e083015184820360e08601526124cc8282612270565b610100858101519087015261012080860151908701526101408086015190870152610160808601516001600160a01b0316908701526101808086015187830382890152919350915061251e8382612270565b6101a086810151908801526101c080870151908801526101e08087015190880152610200808701516001600160a01b03908116918901919091526102208088015190890152610240808801518216908901526102608088015182169089015261028080880151908901526102a080880151909116908801526102c080870151908801526102e0808701519088015261030080870151908801526103208087015190880152610340808701519088015261036095860151959096019490945250929392505050565b6000602080830181845280855180835260408601915060408160051b870101925083870160005b8281101561263a57603f1988860301845261262885835161242c565b9450928501929085019060010161260c565b5092979650505050505050565b602081526000610619602083018461242c565b634e487b7160e01b600052604160045260246000fd5b60006020828403121561268257600080fd5b8151610619816121f2565b60006020828403121561269f57600080fd5b5051919050565b634e487b7160e01b600052601160045260246000fd5b600082198211156126cf576126cf6126a6565b500190565b6000828210156126e6576126e66126a6565b500390565b634e487b7160e01b600052603260045260246000fd5b600060018201612713576127136126a6565b5060010190565b60006060828403121561272c57600080fd5b6040516060810181811067ffffffffffffffff8211171561274f5761274f61265a565b80604052508251815260208301516020820152604083015160408201528091505092915050565b60006020828403121561278857600080fd5b815167ffffffffffffffff808211156127a057600080fd5b818401915084601f8301126127b457600080fd5b8151818111156127c6576127c661265a565b604051601f8201601f19908116603f011681019083821181831017156127ee576127ee61265a565b8160405282815287602084870101111561280757600080fd5b612818836020830160208801612240565b979650505050505050565b60006020828403121561283557600080fd5b815160ff8116811461061957600080fd5b6000806040838503121561285957600080fd5b8251612864816121f2565b60208401519092506123ec816121f2565b60008060006060848603121561288a57600080fd5b8351925060208401519150604084015190509250925092565b6000602082840312156128b557600080fd5b8151801515811461061957600080fd5b6020808252602b908201527f496e697469616c697a61626c653a20636f6e7472616374206973206e6f74206960408201526a6e697469616c697a696e6760a81b60608201526080019056fea2646970667358221220a441925c91f8104a156365aef71edb8e99a006b7a451a26723517b1b80df89e964736f6c634300080d0033",
  "linkReferences": {},
  "deployedLinkReferences": {}
}